{
  "_format": "hh-sol-artifact-1",
  "contractName": "UnlockProtocolTimelock",
  "sourceName": "contracts/UnlockProtocolTimelock.sol",
  "abi": [
    {
      "anonymous": false,
      "inputs": [
        {
          "indexed": true,
          "internalType": "bytes32",
          "name": "id",
          "type": "bytes32"
        },
        {
          "indexed": true,
          "internalType": "uint256",
          "name": "index",
          "type": "uint256"
        },
        {
          "indexed": false,
          "internalType": "address",
          "name": "target",
          "type": "address"
        },
        {
          "indexed": false,
          "internalType": "uint256",
          "name": "value",
          "type": "uint256"
        },
        {
          "indexed": false,
          "internalType": "bytes",
          "name": "data",
          "type": "bytes"
        }
      ],
      "name": "CallExecuted",
      "type": "event"
    },
    {
      "anonymous": false,
      "inputs": [
        {
          "indexed": true,
          "internalType": "bytes32",
          "name": "id",
          "type": "bytes32"
        },
        {
          "indexed": false,
          "internalType": "bytes32",
          "name": "salt",
          "type": "bytes32"
        }
      ],
      "name": "CallSalt",
      "type": "event"
    },
    {
      "anonymous": false,
      "inputs": [
        {
          "indexed": true,
          "internalType": "bytes32",
          "name": "id",
          "type": "bytes32"
        },
        {
          "indexed": true,
          "internalType": "uint256",
          "name": "index",
          "type": "uint256"
        },
        {
          "indexed": false,
          "internalType": "address",
          "name": "target",
          "type": "address"
        },
        {
          "indexed": false,
          "internalType": "uint256",
          "name": "value",
          "type": "uint256"
        },
        {
          "indexed": false,
          "internalType": "bytes",
          "name": "data",
          "type": "bytes"
        },
        {
          "indexed": false,
          "internalType": "bytes32",
          "name": "predecessor",
          "type": "bytes32"
        },
        {
          "indexed": false,
          "internalType": "uint256",
          "name": "delay",
          "type": "uint256"
        }
      ],
      "name": "CallScheduled",
      "type": "event"
    },
    {
      "anonymous": false,
      "inputs": [
        {
          "indexed": true,
          "internalType": "bytes32",
          "name": "id",
          "type": "bytes32"
        }
      ],
      "name": "Cancelled",
      "type": "event"
    },
    {
      "anonymous": false,
      "inputs": [
        {
          "indexed": false,
          "internalType": "uint8",
          "name": "version",
          "type": "uint8"
        }
      ],
      "name": "Initialized",
      "type": "event"
    },
    {
      "anonymous": false,
      "inputs": [
        {
          "indexed": false,
          "internalType": "uint256",
          "name": "oldDuration",
          "type": "uint256"
        },
        {
          "indexed": false,
          "internalType": "uint256",
          "name": "newDuration",
          "type": "uint256"
        }
      ],
      "name": "MinDelayChange",
      "type": "event"
    },
    {
      "anonymous": false,
      "inputs": [
        {
          "indexed": true,
          "internalType": "bytes32",
          "name": "role",
          "type": "bytes32"
        },
        {
          "indexed": true,
          "internalType": "bytes32",
          "name": "previousAdminRole",
          "type": "bytes32"
        },
        {
          "indexed": true,
          "internalType": "bytes32",
          "name": "newAdminRole",
          "type": "bytes32"
        }
      ],
      "name": "RoleAdminChanged",
      "type": "event"
    },
    {
      "anonymous": false,
      "inputs": [
        {
          "indexed": true,
          "internalType": "bytes32",
          "name": "role",
          "type": "bytes32"
        },
        {
          "indexed": true,
          "internalType": "address",
          "name": "account",
          "type": "address"
        },
        {
          "indexed": true,
          "internalType": "address",
          "name": "sender",
          "type": "address"
        }
      ],
      "name": "RoleGranted",
      "type": "event"
    },
    {
      "anonymous": false,
      "inputs": [
        {
          "indexed": true,
          "internalType": "bytes32",
          "name": "role",
          "type": "bytes32"
        },
        {
          "indexed": true,
          "internalType": "address",
          "name": "account",
          "type": "address"
        },
        {
          "indexed": true,
          "internalType": "address",
          "name": "sender",
          "type": "address"
        }
      ],
      "name": "RoleRevoked",
      "type": "event"
    },
    {
      "inputs": [],
      "name": "CANCELLER_ROLE",
      "outputs": [
        {
          "internalType": "bytes32",
          "name": "",
          "type": "bytes32"
        }
      ],
      "stateMutability": "view",
      "type": "function"
    },
    {
      "inputs": [],
      "name": "DEFAULT_ADMIN_ROLE",
      "outputs": [
        {
          "internalType": "bytes32",
          "name": "",
          "type": "bytes32"
        }
      ],
      "stateMutability": "view",
      "type": "function"
    },
    {
      "inputs": [],
      "name": "EXECUTOR_ROLE",
      "outputs": [
        {
          "internalType": "bytes32",
          "name": "",
          "type": "bytes32"
        }
      ],
      "stateMutability": "view",
      "type": "function"
    },
    {
      "inputs": [],
      "name": "PROPOSER_ROLE",
      "outputs": [
        {
          "internalType": "bytes32",
          "name": "",
          "type": "bytes32"
        }
      ],
      "stateMutability": "view",
      "type": "function"
    },
    {
      "inputs": [],
      "name": "TIMELOCK_ADMIN_ROLE",
      "outputs": [
        {
          "internalType": "bytes32",
          "name": "",
          "type": "bytes32"
        }
      ],
      "stateMutability": "view",
      "type": "function"
    },
    {
      "inputs": [
        {
          "internalType": "bytes32",
          "name": "id",
          "type": "bytes32"
        }
      ],
      "name": "cancel",
      "outputs": [],
      "stateMutability": "nonpayable",
      "type": "function"
    },
    {
      "inputs": [
        {
          "internalType": "address",
          "name": "target",
          "type": "address"
        },
        {
          "internalType": "uint256",
          "name": "value",
          "type": "uint256"
        },
        {
          "internalType": "bytes",
          "name": "payload",
          "type": "bytes"
        },
        {
          "internalType": "bytes32",
          "name": "predecessor",
          "type": "bytes32"
        },
        {
          "internalType": "bytes32",
          "name": "salt",
          "type": "bytes32"
        }
      ],
      "name": "execute",
      "outputs": [],
      "stateMutability": "payable",
      "type": "function"
    },
    {
      "inputs": [
        {
          "internalType": "address[]",
          "name": "targets",
          "type": "address[]"
        },
        {
          "internalType": "uint256[]",
          "name": "values",
          "type": "uint256[]"
        },
        {
          "internalType": "bytes[]",
          "name": "payloads",
          "type": "bytes[]"
        },
        {
          "internalType": "bytes32",
          "name": "predecessor",
          "type": "bytes32"
        },
        {
          "internalType": "bytes32",
          "name": "salt",
          "type": "bytes32"
        }
      ],
      "name": "executeBatch",
      "outputs": [],
      "stateMutability": "payable",
      "type": "function"
    },
    {
      "inputs": [],
      "name": "getMinDelay",
      "outputs": [
        {
          "internalType": "uint256",
          "name": "",
          "type": "uint256"
        }
      ],
      "stateMutability": "view",
      "type": "function"
    },
    {
      "inputs": [
        {
          "internalType": "bytes32",
          "name": "role",
          "type": "bytes32"
        }
      ],
      "name": "getRoleAdmin",
      "outputs": [
        {
          "internalType": "bytes32",
          "name": "",
          "type": "bytes32"
        }
      ],
      "stateMutability": "view",
      "type": "function"
    },
    {
      "inputs": [
        {
          "internalType": "bytes32",
          "name": "id",
          "type": "bytes32"
        }
      ],
      "name": "getTimestamp",
      "outputs": [
        {
          "internalType": "uint256",
          "name": "",
          "type": "uint256"
        }
      ],
      "stateMutability": "view",
      "type": "function"
    },
    {
      "inputs": [
        {
          "internalType": "bytes32",
          "name": "role",
          "type": "bytes32"
        },
        {
          "internalType": "address",
          "name": "account",
          "type": "address"
        }
      ],
      "name": "grantRole",
      "outputs": [],
      "stateMutability": "nonpayable",
      "type": "function"
    },
    {
      "inputs": [
        {
          "internalType": "bytes32",
          "name": "role",
          "type": "bytes32"
        },
        {
          "internalType": "address",
          "name": "account",
          "type": "address"
        }
      ],
      "name": "hasRole",
      "outputs": [
        {
          "internalType": "bool",
          "name": "",
          "type": "bool"
        }
      ],
      "stateMutability": "view",
      "type": "function"
    },
    {
      "inputs": [
        {
          "internalType": "address",
          "name": "target",
          "type": "address"
        },
        {
          "internalType": "uint256",
          "name": "value",
          "type": "uint256"
        },
        {
          "internalType": "bytes",
          "name": "data",
          "type": "bytes"
        },
        {
          "internalType": "bytes32",
          "name": "predecessor",
          "type": "bytes32"
        },
        {
          "internalType": "bytes32",
          "name": "salt",
          "type": "bytes32"
        }
      ],
      "name": "hashOperation",
      "outputs": [
        {
          "internalType": "bytes32",
          "name": "",
          "type": "bytes32"
        }
      ],
      "stateMutability": "pure",
      "type": "function"
    },
    {
      "inputs": [
        {
          "internalType": "address[]",
          "name": "targets",
          "type": "address[]"
        },
        {
          "internalType": "uint256[]",
          "name": "values",
          "type": "uint256[]"
        },
        {
          "internalType": "bytes[]",
          "name": "payloads",
          "type": "bytes[]"
        },
        {
          "internalType": "bytes32",
          "name": "predecessor",
          "type": "bytes32"
        },
        {
          "internalType": "bytes32",
          "name": "salt",
          "type": "bytes32"
        }
      ],
      "name": "hashOperationBatch",
      "outputs": [
        {
          "internalType": "bytes32",
          "name": "",
          "type": "bytes32"
        }
      ],
      "stateMutability": "pure",
      "type": "function"
    },
    {
      "inputs": [
        {
          "internalType": "uint256",
          "name": "minDelay",
          "type": "uint256"
        },
        {
          "internalType": "address[]",
          "name": "proposers",
          "type": "address[]"
        },
        {
          "internalType": "address[]",
          "name": "executors",
          "type": "address[]"
        }
      ],
      "name": "initialize",
      "outputs": [],
      "stateMutability": "nonpayable",
      "type": "function"
    },
    {
      "inputs": [
        {
          "internalType": "bytes32",
          "name": "id",
          "type": "bytes32"
        }
      ],
      "name": "isOperation",
      "outputs": [
        {
          "internalType": "bool",
          "name": "",
          "type": "bool"
        }
      ],
      "stateMutability": "view",
      "type": "function"
    },
    {
      "inputs": [
        {
          "internalType": "bytes32",
          "name": "id",
          "type": "bytes32"
        }
      ],
      "name": "isOperationDone",
      "outputs": [
        {
          "internalType": "bool",
          "name": "",
          "type": "bool"
        }
      ],
      "stateMutability": "view",
      "type": "function"
    },
    {
      "inputs": [
        {
          "internalType": "bytes32",
          "name": "id",
          "type": "bytes32"
        }
      ],
      "name": "isOperationPending",
      "outputs": [
        {
          "internalType": "bool",
          "name": "",
          "type": "bool"
        }
      ],
      "stateMutability": "view",
      "type": "function"
    },
    {
      "inputs": [
        {
          "internalType": "bytes32",
          "name": "id",
          "type": "bytes32"
        }
      ],
      "name": "isOperationReady",
      "outputs": [
        {
          "internalType": "bool",
          "name": "",
          "type": "bool"
        }
      ],
      "stateMutability": "view",
      "type": "function"
    },
    {
      "inputs": [
        {
          "internalType": "address",
          "name": "",
          "type": "address"
        },
        {
          "internalType": "address",
          "name": "",
          "type": "address"
        },
        {
          "internalType": "uint256[]",
          "name": "",
          "type": "uint256[]"
        },
        {
          "internalType": "uint256[]",
          "name": "",
          "type": "uint256[]"
        },
        {
          "internalType": "bytes",
          "name": "",
          "type": "bytes"
        }
      ],
      "name": "onERC1155BatchReceived",
      "outputs": [
        {
          "internalType": "bytes4",
          "name": "",
          "type": "bytes4"
        }
      ],
      "stateMutability": "nonpayable",
      "type": "function"
    },
    {
      "inputs": [
        {
          "internalType": "address",
          "name": "",
          "type": "address"
        },
        {
          "internalType": "address",
          "name": "",
          "type": "address"
        },
        {
          "internalType": "uint256",
          "name": "",
          "type": "uint256"
        },
        {
          "internalType": "uint256",
          "name": "",
          "type": "uint256"
        },
        {
          "internalType": "bytes",
          "name": "",
          "type": "bytes"
        }
      ],
      "name": "onERC1155Received",
      "outputs": [
        {
          "internalType": "bytes4",
          "name": "",
          "type": "bytes4"
        }
      ],
      "stateMutability": "nonpayable",
      "type": "function"
    },
    {
      "inputs": [
        {
          "internalType": "address",
          "name": "",
          "type": "address"
        },
        {
          "internalType": "address",
          "name": "",
          "type": "address"
        },
        {
          "internalType": "uint256",
          "name": "",
          "type": "uint256"
        },
        {
          "internalType": "bytes",
          "name": "",
          "type": "bytes"
        }
      ],
      "name": "onERC721Received",
      "outputs": [
        {
          "internalType": "bytes4",
          "name": "",
          "type": "bytes4"
        }
      ],
      "stateMutability": "nonpayable",
      "type": "function"
    },
    {
      "inputs": [
        {
          "internalType": "bytes32",
          "name": "role",
          "type": "bytes32"
        },
        {
          "internalType": "address",
          "name": "account",
          "type": "address"
        }
      ],
      "name": "renounceRole",
      "outputs": [],
      "stateMutability": "nonpayable",
      "type": "function"
    },
    {
      "inputs": [
        {
          "internalType": "bytes32",
          "name": "role",
          "type": "bytes32"
        },
        {
          "internalType": "address",
          "name": "account",
          "type": "address"
        }
      ],
      "name": "revokeRole",
      "outputs": [],
      "stateMutability": "nonpayable",
      "type": "function"
    },
    {
      "inputs": [
        {
          "internalType": "address",
          "name": "target",
          "type": "address"
        },
        {
          "internalType": "uint256",
          "name": "value",
          "type": "uint256"
        },
        {
          "internalType": "bytes",
          "name": "data",
          "type": "bytes"
        },
        {
          "internalType": "bytes32",
          "name": "predecessor",
          "type": "bytes32"
        },
        {
          "internalType": "bytes32",
          "name": "salt",
          "type": "bytes32"
        },
        {
          "internalType": "uint256",
          "name": "delay",
          "type": "uint256"
        }
      ],
      "name": "schedule",
      "outputs": [],
      "stateMutability": "nonpayable",
      "type": "function"
    },
    {
      "inputs": [
        {
          "internalType": "address[]",
          "name": "targets",
          "type": "address[]"
        },
        {
          "internalType": "uint256[]",
          "name": "values",
          "type": "uint256[]"
        },
        {
          "internalType": "bytes[]",
          "name": "payloads",
          "type": "bytes[]"
        },
        {
          "internalType": "bytes32",
          "name": "predecessor",
          "type": "bytes32"
        },
        {
          "internalType": "bytes32",
          "name": "salt",
          "type": "bytes32"
        },
        {
          "internalType": "uint256",
          "name": "delay",
          "type": "uint256"
        }
      ],
      "name": "scheduleBatch",
      "outputs": [],
      "stateMutability": "nonpayable",
      "type": "function"
    },
    {
      "inputs": [
        {
          "internalType": "bytes4",
          "name": "interfaceId",
          "type": "bytes4"
        }
      ],
      "name": "supportsInterface",
      "outputs": [
        {
          "internalType": "bool",
          "name": "",
          "type": "bool"
        }
      ],
      "stateMutability": "view",
      "type": "function"
    },
    {
      "inputs": [
        {
          "internalType": "uint256",
          "name": "newDelay",
          "type": "uint256"
        }
      ],
      "name": "updateDelay",
      "outputs": [],
      "stateMutability": "nonpayable",
      "type": "function"
    },
    {
      "stateMutability": "payable",
      "type": "receive"
    }
  ],
  "bytecode": "0x608060405234801561000f575f80fd5b506121bb8061001d5f395ff3fe608060405260043610610181575f3560e01c80637fbc79c6116100d4578063b1c5f42711610083578063b1c5f4271461046a578063bc197c8114610489578063c4d252f5146104b4578063d45c4435146104d3578063d547741f146104fe578063e38335e51461051d578063f23a6e6114610530578063f27a0c921461055b575f80fd5b80637fbc79c61461039b5780638065657f146103ba5780638f2a0bb0146103d95780638f61f4f5146103f857806391d1485414610418578063a217fddf14610437578063b08e51c01461044a575f80fd5b8063248a9ca311610130578063248a9ca3146102a45780632ab0f529146102d25780632f2ff15d1461030057806331d507501461031f57806336568abe1461033e578063584b153e1461035d57806364d623531461037c575f80fd5b806301d5062a1461018c57806301ffc9a7146101ad57806307bd0265146101e15780630d3cf6fc1461020f578063134008d31461022f57806313bc9f2014610242578063150b7a0214610261575f80fd5b3661018857005b5f80fd5b348015610197575f80fd5b506101ab6101a636600461169e565b61056f565b005b3480156101b8575f80fd5b506101cc6101c736600461170c565b610630565b60405190151581526020015b60405180910390f35b3480156101ec575f80fd5b506102015f8051602061214683398151915281565b6040519081526020016101d8565b34801561021a575f80fd5b506102015f8051602061210683398151915281565b6101ab61023d366004611733565b61065a565b34801561024d575f80fd5b506101cc61025c366004611799565b6106f9565b34801561026c575f80fd5b5061028b61027b36600461185f565b630a85bd0160e11b949350505050565b6040516001600160e01b031990911681526020016101d8565b3480156102af575f80fd5b506102016102be366004611799565b5f9081526065602052604090206001015490565b3480156102dd575f80fd5b506101cc6102ec366004611799565b5f9081526097602052604090205460011490565b34801561030b575f80fd5b506101ab61031a3660046118c2565b61071e565b34801561032a575f80fd5b506101cc610339366004611799565b610747565b348015610349575f80fd5b506101ab6103583660046118c2565b61075f565b348015610368575f80fd5b506101cc610377366004611799565b6107e2565b348015610387575f80fd5b506101ab610396366004611799565b6107f8565b3480156103a6575f80fd5b506101ab6103b536600461197d565b61089c565b3480156103c5575f80fd5b506102016103d4366004611733565b6109af565b3480156103e4575f80fd5b506101ab6103f3366004611a24565b6109ed565b348015610403575f80fd5b506102015f8051602061212683398151915281565b348015610423575f80fd5b506101cc6104323660046118c2565b610b6b565b348015610442575f80fd5b506102015f81565b348015610455575f80fd5b506102015f8051602061216683398151915281565b348015610475575f80fd5b50610201610484366004611acc565b610b95565b348015610494575f80fd5b5061028b6104a3366004611bc4565b63bc197c8160e01b95945050505050565b3480156104bf575f80fd5b506101ab6104ce366004611799565b610bd9565b3480156104de575f80fd5b506102016104ed366004611799565b5f9081526097602052604090205490565b348015610509575f80fd5b506101ab6105183660046118c2565b610c9a565b6101ab61052b366004611acc565b610cbe565b34801561053b575f80fd5b5061028b61054a366004611c66565b63f23a6e6160e01b95945050505050565b348015610566575f80fd5b50609854610201565b5f8051602061212683398151915261058681610e2f565b5f6105958989898989896109af565b90506105a18184610e3c565b5f817f4cf4410cc57040e44862ef0f45f3dd5a5e02db8eb8add648d4b0e236f1d07dca8b8b8b8b8b8a6040516105dc96959493929190611ced565b60405180910390a3831561062557807f20fda5fd27a1ea7bf5b9567f143ac5470bb059374a27e8f67cb44f946f6d03878560405161061c91815260200190565b60405180910390a25b505050505050505050565b5f6001600160e01b03198216630271189760e51b1480610654575061065482610f2a565b92915050565b5f80516020612146833981519152610672815f610b6b565b610680576106808133610f5e565b5f61068f8888888888886109af565b905061069b8185610fb7565b6106a788888888611051565b5f817fc2617efa69bab66782fa219543714338489c4e9e178271560a91b82c3f612b588a8a8a8a6040516106de9493929190611d29565b60405180910390a36106ef81611120565b5050505050505050565b5f818152609760205260408120546001811180156107175750428111155b9392505050565b5f8281526065602052604090206001015461073881610e2f565b6107428383611158565b505050565b5f8181526097602052604081205481905b1192915050565b6001600160a01b03811633146107d45760405162461bcd60e51b815260206004820152602f60248201527f416363657373436f6e74726f6c3a2063616e206f6e6c792072656e6f756e636560448201526e103937b632b9903337b91039b2b63360891b60648201526084015b60405180910390fd5b6107de82826111dd565b5050565b5f81815260976020526040812054600190610758565b33301461085b5760405162461bcd60e51b815260206004820152602b60248201527f54696d656c6f636b436f6e74726f6c6c65723a2063616c6c6572206d7573742060448201526a62652074696d656c6f636b60a81b60648201526084016107cb565b60985460408051918252602082018390527f11c24f4ead16507c69ac467fbd5e4eed5fb5c699626d2cc6d66421df253886d5910160405180910390a1609855565b5f54610100900460ff16158080156108ba57505f54600160ff909116105b806108d35750303b1580156108d357505f5460ff166001145b6109365760405162461bcd60e51b815260206004820152602e60248201527f496e697469616c697a61626c653a20636f6e747261637420697320616c72656160448201526d191e481a5b9a5d1a585b1a5e995960921b60648201526084016107cb565b5f805460ff191660011790558015610957575f805461ff0019166101001790555b61096384848433611243565b80156109a9575f805461ff0019169055604051600181527f7f26b83ff96e1f2b6a682f133852f6798a09c465da95921460cefb3847402498906020015b60405180910390a15b50505050565b5f8686868686866040516020016109cb96959493929190611ced565b6040516020818303038152906040528051906020012090509695505050505050565b5f80516020612126833981519152610a0481610e2f565b888714610a235760405162461bcd60e51b81526004016107cb90611d5a565b888514610a425760405162461bcd60e51b81526004016107cb90611d5a565b5f610a538b8b8b8b8b8b8b8b610b95565b9050610a5f8184610e3c565b5f5b8a811015610b1c5780827f4cf4410cc57040e44862ef0f45f3dd5a5e02db8eb8add648d4b0e236f1d07dca8e8e85818110610a9e57610a9e611d9d565b9050602002016020810190610ab39190611db1565b8d8d86818110610ac557610ac5611d9d565b905060200201358c8c87818110610ade57610ade611d9d565b9050602002810190610af09190611dca565b8c8b604051610b0496959493929190611ced565b60405180910390a3610b1581611e20565b9050610a61565b508315610b5e57807f20fda5fd27a1ea7bf5b9567f143ac5470bb059374a27e8f67cb44f946f6d038785604051610b5591815260200190565b60405180910390a25b5050505050505050505050565b5f9182526065602090815260408084206001600160a01b0393909316845291905290205460ff1690565b5f8888888888888888604051602001610bb5989796959493929190611ec1565b60405160208183030381529060405280519060200120905098975050505050505050565b5f80516020612166833981519152610bf081610e2f565b610bf9826107e2565b610c5f5760405162461bcd60e51b815260206004820152603160248201527f54696d656c6f636b436f6e74726f6c6c65723a206f7065726174696f6e2063616044820152701b9b9bdd0818994818d85b98d95b1b1959607a1b60648201526084016107cb565b5f828152609760205260408082208290555183917fbaa1eb22f2a492ba1a5fea61b8df4d27c6c8b5f3971e63bb58fa14ff72eedb7091a25050565b5f82815260656020526040902060010154610cb481610e2f565b61074283836111dd565b5f80516020612146833981519152610cd6815f610b6b565b610ce457610ce48133610f5e565b878614610d035760405162461bcd60e51b81526004016107cb90611d5a565b878414610d225760405162461bcd60e51b81526004016107cb90611d5a565b5f610d338a8a8a8a8a8a8a8a610b95565b9050610d3f8185610fb7565b5f5b89811015610e19575f8b8b83818110610d5c57610d5c611d9d565b9050602002016020810190610d719190611db1565b90505f8a8a84818110610d8657610d86611d9d565b905060200201359050365f8a8a86818110610da357610da3611d9d565b9050602002810190610db59190611dca565b91509150610dc584848484611051565b84867fc2617efa69bab66782fa219543714338489c4e9e178271560a91b82c3f612b5886868686604051610dfc9493929190611d29565b60405180910390a35050505080610e1290611e20565b9050610d41565b50610e2381611120565b50505050505050505050565b610e398133610f5e565b50565b610e4582610747565b15610eaa5760405162461bcd60e51b815260206004820152602f60248201527f54696d656c6f636b436f6e74726f6c6c65723a206f7065726174696f6e20616c60448201526e1c9958591e481cd8da19591d5b1959608a1b60648201526084016107cb565b609854811015610f0b5760405162461bcd60e51b815260206004820152602660248201527f54696d656c6f636b436f6e74726f6c6c65723a20696e73756666696369656e746044820152652064656c617960d01b60648201526084016107cb565b610f158142611f60565b5f928352609760205260409092209190915550565b5f6001600160e01b03198216637965db0b60e01b148061065457506301ffc9a760e01b6001600160e01b0319831614610654565b610f688282610b6b565b6107de57610f7581611275565b610f80836020611287565b604051602001610f91929190611f95565b60408051601f198184030181529082905262461bcd60e51b82526107cb91600401612003565b610fc0826106f9565b610fdc5760405162461bcd60e51b81526004016107cb90612035565b801580610ff657505f818152609760205260409020546001145b6107de5760405162461bcd60e51b815260206004820152602660248201527f54696d656c6f636b436f6e74726f6c6c65723a206d697373696e6720646570656044820152656e64656e637960d01b60648201526084016107cb565b5f846001600160a01b031684848460405161106d92919061207f565b5f6040518083038185875af1925050503d805f81146110a7576040519150601f19603f3d011682016040523d82523d5f602084013e6110ac565b606091505b50509050806111195760405162461bcd60e51b815260206004820152603360248201527f54696d656c6f636b436f6e74726f6c6c65723a20756e6465726c79696e6720746044820152721c985b9cd858dd1a5bdb881c995d995c9d1959606a1b60648201526084016107cb565b5050505050565b611129816106f9565b6111455760405162461bcd60e51b81526004016107cb90612035565b5f90815260976020526040902060019055565b6111628282610b6b565b6107de575f8281526065602090815260408083206001600160a01b03851684529091529020805460ff191660011790556111993390565b6001600160a01b0316816001600160a01b0316837f2f8788117e7eff1d82e926ec794901d17c78024a50270940304540a733656f0d60405160405180910390a45050565b6111e78282610b6b565b156107de575f8281526065602090815260408083206001600160a01b0385168085529252808320805460ff1916905551339285917ff6391f5c32d9c69d2a47ea670b442974b53935d1edc7fd64eb21e047a839171b9190a45050565b5f54610100900460ff166112695760405162461bcd60e51b81526004016107cb9061208e565b6109a98484848461141c565b60606106546001600160a01b03831660145b60605f6112958360026120d9565b6112a0906002611f60565b6001600160401b038111156112b7576112b76117b0565b6040519080825280601f01601f1916602001820160405280156112e1576020820181803683370190505b509050600360fc1b815f815181106112fb576112fb611d9d565b60200101906001600160f81b03191690815f1a905350600f60fb1b8160018151811061132957611329611d9d565b60200101906001600160f81b03191690815f1a9053505f61134b8460026120d9565b611356906001611f60565b90505b60018111156113cd576f181899199a1a9b1b9c1cb0b131b232b360811b85600f166010811061138a5761138a611d9d565b1a60f81b8282815181106113a0576113a0611d9d565b60200101906001600160f81b03191690815f1a90535060049490941c936113c6816120f0565b9050611359565b5083156107175760405162461bcd60e51b815260206004820181905260248201527f537472696e67733a20686578206c656e67746820696e73756666696369656e7460448201526064016107cb565b5f54610100900460ff166114425760405162461bcd60e51b81526004016107cb9061208e565b6114595f80516020612106833981519152806115eb565b61147d5f805160206121268339815191525f805160206121068339815191526115eb565b6114a15f805160206121468339815191525f805160206121068339815191526115eb565b6114c55f805160206121668339815191525f805160206121068339815191526115eb565b6114dc5f8051602061210683398151915230611635565b6001600160a01b03811615611502576115025f8051602061210683398151915282611635565b5f5b83518110156115705761153d5f8051602061212683398151915285838151811061153057611530611d9d565b6020026020010151611635565b6115605f8051602061216683398151915285838151811061153057611530611d9d565b61156981611e20565b9050611504565b505f5b82518110156115af5761159f5f8051602061214683398151915284838151811061153057611530611d9d565b6115a881611e20565b9050611573565b506098849055604080515f8152602081018690527f11c24f4ead16507c69ac467fbd5e4eed5fb5c699626d2cc6d66421df253886d591016109a0565b5f82815260656020526040808220600101805490849055905190918391839186917fbd79b86ffe0ab8e8776151514217cd7cacd52c909f66475c3af44e129f0b00ff9190a4505050565b6107de8282611158565b80356001600160a01b0381168114611655575f80fd5b919050565b5f8083601f84011261166a575f80fd5b5081356001600160401b03811115611680575f80fd5b602083019150836020828501011115611697575f80fd5b9250929050565b5f805f805f805f60c0888a0312156116b4575f80fd5b6116bd8861163f565b96506020880135955060408801356001600160401b038111156116de575f80fd5b6116ea8a828b0161165a565b989b979a50986060810135976080820135975060a09091013595509350505050565b5f6020828403121561171c575f80fd5b81356001600160e01b031981168114610717575f80fd5b5f805f805f8060a08789031215611748575f80fd5b6117518761163f565b95506020870135945060408701356001600160401b03811115611772575f80fd5b61177e89828a0161165a565b979a9699509760608101359660809091013595509350505050565b5f602082840312156117a9575f80fd5b5035919050565b634e487b7160e01b5f52604160045260245ffd5b604051601f8201601f191681016001600160401b03811182821017156117ec576117ec6117b0565b604052919050565b5f82601f830112611803575f80fd5b81356001600160401b0381111561181c5761181c6117b0565b61182f601f8201601f19166020016117c4565b818152846020838601011115611843575f80fd5b816020850160208301375f918101602001919091529392505050565b5f805f8060808587031215611872575f80fd5b61187b8561163f565b93506118896020860161163f565b92506040850135915060608501356001600160401b038111156118aa575f80fd5b6118b6878288016117f4565b91505092959194509250565b5f80604083850312156118d3575f80fd5b823591506118e36020840161163f565b90509250929050565b5f6001600160401b03821115611904576119046117b0565b5060051b60200190565b5f82601f83011261191d575f80fd5b8135602061193261192d836118ec565b6117c4565b82815260059290921b84018101918181019086841115611950575f80fd5b8286015b84811015611972576119658161163f565b8352918301918301611954565b509695505050505050565b5f805f6060848603121561198f575f80fd5b8335925060208401356001600160401b03808211156119ac575f80fd5b6119b88783880161190e565b935060408601359150808211156119cd575f80fd5b506119da8682870161190e565b9150509250925092565b5f8083601f8401126119f4575f80fd5b5081356001600160401b03811115611a0a575f80fd5b6020830191508360208260051b8501011115611697575f80fd5b5f805f805f805f805f60c08a8c031215611a3c575f80fd5b89356001600160401b0380821115611a52575f80fd5b611a5e8d838e016119e4565b909b50995060208c0135915080821115611a76575f80fd5b611a828d838e016119e4565b909950975060408c0135915080821115611a9a575f80fd5b50611aa78c828d016119e4565b9a9d999c50979a969997986060880135976080810135975060a0013595509350505050565b5f805f805f805f8060a0898b031215611ae3575f80fd5b88356001600160401b0380821115611af9575f80fd5b611b058c838d016119e4565b909a50985060208b0135915080821115611b1d575f80fd5b611b298c838d016119e4565b909850965060408b0135915080821115611b41575f80fd5b50611b4e8b828c016119e4565b999c989b509699959896976060870135966080013595509350505050565b5f82601f830112611b7b575f80fd5b81356020611b8b61192d836118ec565b82815260059290921b84018101918181019086841115611ba9575f80fd5b8286015b848110156119725780358352918301918301611bad565b5f805f805f60a08688031215611bd8575f80fd5b611be18661163f565b9450611bef6020870161163f565b935060408601356001600160401b0380821115611c0a575f80fd5b611c1689838a01611b6c565b94506060880135915080821115611c2b575f80fd5b611c3789838a01611b6c565b93506080880135915080821115611c4c575f80fd5b50611c59888289016117f4565b9150509295509295909350565b5f805f805f60a08688031215611c7a575f80fd5b611c838661163f565b9450611c916020870161163f565b9350604086013592506060860135915060808601356001600160401b03811115611cb9575f80fd5b611c59888289016117f4565b81835281816020850137505f828201602090810191909152601f909101601f19169091010190565b60018060a01b038716815285602082015260a060408201525f611d1460a083018688611cc5565b60608301949094525060800152949350505050565b60018060a01b0385168152836020820152606060408201525f611d50606083018486611cc5565b9695505050505050565b60208082526023908201527f54696d656c6f636b436f6e74726f6c6c65723a206c656e677468206d69736d616040820152620e8c6d60eb1b606082015260800190565b634e487b7160e01b5f52603260045260245ffd5b5f60208284031215611dc1575f80fd5b6107178261163f565b5f808335601e19843603018112611ddf575f80fd5b8301803591506001600160401b03821115611df8575f80fd5b602001915036819003821315611697575f80fd5b634e487b7160e01b5f52601160045260245ffd5b5f60018201611e3157611e31611e0c565b5060010190565b8183525f60208085019450848460051b8601845f5b87811015611eb45783830389528135601e19883603018112611e6d575f80fd5b870185810190356001600160401b03811115611e87575f80fd5b803603821315611e95575f80fd5b611ea0858284611cc5565b9a87019a9450505090840190600101611e4d565b5090979650505050505050565b60a080825281018890525f8960c08301825b8b811015611f01576001600160a01b03611eec8461163f565b16825260209283019290910190600101611ed3565b5083810360208501528881526001600160fb1b03891115611f20575f80fd5b8860051b9150818a60208301370182810360209081016040850152611f489082018789611e38565b60608401959095525050608001529695505050505050565b8082018082111561065457610654611e0c565b5f5b83811015611f8d578181015183820152602001611f75565b50505f910152565b76020b1b1b2b9b9a1b7b73a3937b61d1030b1b1b7bab73a1604d1b81525f8351611fc6816017850160208801611f73565b7001034b99036b4b9b9b4b733903937b6329607d1b6017918401918201528351611ff7816028840160208801611f73565b01602801949350505050565b602081525f8251806020840152612021816040850160208701611f73565b601f01601f19169190910160400192915050565b6020808252602a908201527f54696d656c6f636b436f6e74726f6c6c65723a206f7065726174696f6e206973604082015269206e6f7420726561647960b01b606082015260800190565b818382375f9101908152919050565b6020808252602b908201527f496e697469616c697a61626c653a20636f6e7472616374206973206e6f74206960408201526a6e697469616c697a696e6760a81b606082015260800190565b808202811582820484141761065457610654611e0c565b5f816120fe576120fe611e0c565b505f19019056fe5f58e3a2316349923ce3780f8d587db2d72378aed66a8261c916544fa6846ca5b09aa5aeb3702cfd50b6b62bc4532604938f21248a27a1d5ca736082b6819cc1d8aa0f3194971a2a116679f7c2090f6939c8d4e01a2a8d7e41d55e5351469e63fd643c72710c63c0180259aba6b2d05451e3591a24e58b62239378085726f783a264697066735822122061c5c9321c96d39bb0bc862074752e9ac74efe930c2244c08635ea669d35fa6464736f6c63430008150033"
}