{
  "_format": "hh-sol-artifact-1",
  "contractName": "UnlockProtocolGovernor",
  "sourceName": "contracts/UnlockProtocolGovernor.sol",
  "abi": [
    {
      "inputs": [],
      "name": "Empty",
      "type": "error"
    },
    {
      "anonymous": false,
      "inputs": [],
      "name": "EIP712DomainChanged",
      "type": "event"
    },
    {
      "anonymous": false,
      "inputs": [
        {
          "indexed": false,
          "internalType": "uint8",
          "name": "version",
          "type": "uint8"
        }
      ],
      "name": "Initialized",
      "type": "event"
    },
    {
      "anonymous": false,
      "inputs": [
        {
          "indexed": false,
          "internalType": "uint256",
          "name": "proposalId",
          "type": "uint256"
        }
      ],
      "name": "ProposalCanceled",
      "type": "event"
    },
    {
      "anonymous": false,
      "inputs": [
        {
          "indexed": false,
          "internalType": "uint256",
          "name": "proposalId",
          "type": "uint256"
        },
        {
          "indexed": false,
          "internalType": "address",
          "name": "proposer",
          "type": "address"
        },
        {
          "indexed": false,
          "internalType": "address[]",
          "name": "targets",
          "type": "address[]"
        },
        {
          "indexed": false,
          "internalType": "uint256[]",
          "name": "values",
          "type": "uint256[]"
        },
        {
          "indexed": false,
          "internalType": "string[]",
          "name": "signatures",
          "type": "string[]"
        },
        {
          "indexed": false,
          "internalType": "bytes[]",
          "name": "calldatas",
          "type": "bytes[]"
        },
        {
          "indexed": false,
          "internalType": "uint256",
          "name": "voteStart",
          "type": "uint256"
        },
        {
          "indexed": false,
          "internalType": "uint256",
          "name": "voteEnd",
          "type": "uint256"
        },
        {
          "indexed": false,
          "internalType": "string",
          "name": "description",
          "type": "string"
        }
      ],
      "name": "ProposalCreated",
      "type": "event"
    },
    {
      "anonymous": false,
      "inputs": [
        {
          "indexed": false,
          "internalType": "uint256",
          "name": "proposalId",
          "type": "uint256"
        }
      ],
      "name": "ProposalExecuted",
      "type": "event"
    },
    {
      "anonymous": false,
      "inputs": [
        {
          "indexed": false,
          "internalType": "uint256",
          "name": "proposalId",
          "type": "uint256"
        },
        {
          "indexed": false,
          "internalType": "uint256",
          "name": "eta",
          "type": "uint256"
        }
      ],
      "name": "ProposalQueued",
      "type": "event"
    },
    {
      "anonymous": false,
      "inputs": [
        {
          "indexed": false,
          "internalType": "uint256",
          "name": "oldQuorum",
          "type": "uint256"
        },
        {
          "indexed": false,
          "internalType": "uint256",
          "name": "newQuorum",
          "type": "uint256"
        }
      ],
      "name": "QuorumUpdated",
      "type": "event"
    },
    {
      "anonymous": false,
      "inputs": [
        {
          "indexed": false,
          "internalType": "address",
          "name": "oldTimelock",
          "type": "address"
        },
        {
          "indexed": false,
          "internalType": "address",
          "name": "newTimelock",
          "type": "address"
        }
      ],
      "name": "TimelockChange",
      "type": "event"
    },
    {
      "anonymous": false,
      "inputs": [
        {
          "indexed": true,
          "internalType": "address",
          "name": "voter",
          "type": "address"
        },
        {
          "indexed": false,
          "internalType": "uint256",
          "name": "proposalId",
          "type": "uint256"
        },
        {
          "indexed": false,
          "internalType": "uint8",
          "name": "support",
          "type": "uint8"
        },
        {
          "indexed": false,
          "internalType": "uint256",
          "name": "weight",
          "type": "uint256"
        },
        {
          "indexed": false,
          "internalType": "string",
          "name": "reason",
          "type": "string"
        }
      ],
      "name": "VoteCast",
      "type": "event"
    },
    {
      "anonymous": false,
      "inputs": [
        {
          "indexed": true,
          "internalType": "address",
          "name": "voter",
          "type": "address"
        },
        {
          "indexed": false,
          "internalType": "uint256",
          "name": "proposalId",
          "type": "uint256"
        },
        {
          "indexed": false,
          "internalType": "uint8",
          "name": "support",
          "type": "uint8"
        },
        {
          "indexed": false,
          "internalType": "uint256",
          "name": "weight",
          "type": "uint256"
        },
        {
          "indexed": false,
          "internalType": "string",
          "name": "reason",
          "type": "string"
        },
        {
          "indexed": false,
          "internalType": "bytes",
          "name": "params",
          "type": "bytes"
        }
      ],
      "name": "VoteCastWithParams",
      "type": "event"
    },
    {
      "anonymous": false,
      "inputs": [
        {
          "indexed": false,
          "internalType": "uint256",
          "name": "oldVotingDelay",
          "type": "uint256"
        },
        {
          "indexed": false,
          "internalType": "uint256",
          "name": "newVotingDelay",
          "type": "uint256"
        }
      ],
      "name": "VotingDelayUpdated",
      "type": "event"
    },
    {
      "anonymous": false,
      "inputs": [
        {
          "indexed": false,
          "internalType": "uint256",
          "name": "oldVotingPeriod",
          "type": "uint256"
        },
        {
          "indexed": false,
          "internalType": "uint256",
          "name": "newVotingPeriod",
          "type": "uint256"
        }
      ],
      "name": "VotingPeriodUpdated",
      "type": "event"
    },
    {
      "inputs": [],
      "name": "BALLOT_TYPEHASH",
      "outputs": [
        {
          "internalType": "bytes32",
          "name": "",
          "type": "bytes32"
        }
      ],
      "stateMutability": "view",
      "type": "function"
    },
    {
      "inputs": [],
      "name": "CLOCK_MODE",
      "outputs": [
        {
          "internalType": "string",
          "name": "",
          "type": "string"
        }
      ],
      "stateMutability": "view",
      "type": "function"
    },
    {
      "inputs": [],
      "name": "COUNTING_MODE",
      "outputs": [
        {
          "internalType": "string",
          "name": "",
          "type": "string"
        }
      ],
      "stateMutability": "pure",
      "type": "function"
    },
    {
      "inputs": [],
      "name": "EXTENDED_BALLOT_TYPEHASH",
      "outputs": [
        {
          "internalType": "bytes32",
          "name": "",
          "type": "bytes32"
        }
      ],
      "stateMutability": "view",
      "type": "function"
    },
    {
      "inputs": [
        {
          "internalType": "address[]",
          "name": "targets",
          "type": "address[]"
        },
        {
          "internalType": "uint256[]",
          "name": "values",
          "type": "uint256[]"
        },
        {
          "internalType": "bytes[]",
          "name": "calldatas",
          "type": "bytes[]"
        },
        {
          "internalType": "bytes32",
          "name": "descriptionHash",
          "type": "bytes32"
        }
      ],
      "name": "cancel",
      "outputs": [
        {
          "internalType": "uint256",
          "name": "",
          "type": "uint256"
        }
      ],
      "stateMutability": "nonpayable",
      "type": "function"
    },
    {
      "inputs": [
        {
          "internalType": "uint256",
          "name": "proposalId",
          "type": "uint256"
        },
        {
          "internalType": "uint8",
          "name": "support",
          "type": "uint8"
        }
      ],
      "name": "castVote",
      "outputs": [
        {
          "internalType": "uint256",
          "name": "",
          "type": "uint256"
        }
      ],
      "stateMutability": "nonpayable",
      "type": "function"
    },
    {
      "inputs": [
        {
          "internalType": "uint256",
          "name": "proposalId",
          "type": "uint256"
        },
        {
          "internalType": "uint8",
          "name": "support",
          "type": "uint8"
        },
        {
          "internalType": "uint8",
          "name": "v",
          "type": "uint8"
        },
        {
          "internalType": "bytes32",
          "name": "r",
          "type": "bytes32"
        },
        {
          "internalType": "bytes32",
          "name": "s",
          "type": "bytes32"
        }
      ],
      "name": "castVoteBySig",
      "outputs": [
        {
          "internalType": "uint256",
          "name": "",
          "type": "uint256"
        }
      ],
      "stateMutability": "nonpayable",
      "type": "function"
    },
    {
      "inputs": [
        {
          "internalType": "uint256",
          "name": "proposalId",
          "type": "uint256"
        },
        {
          "internalType": "uint8",
          "name": "support",
          "type": "uint8"
        },
        {
          "internalType": "string",
          "name": "reason",
          "type": "string"
        }
      ],
      "name": "castVoteWithReason",
      "outputs": [
        {
          "internalType": "uint256",
          "name": "",
          "type": "uint256"
        }
      ],
      "stateMutability": "nonpayable",
      "type": "function"
    },
    {
      "inputs": [
        {
          "internalType": "uint256",
          "name": "proposalId",
          "type": "uint256"
        },
        {
          "internalType": "uint8",
          "name": "support",
          "type": "uint8"
        },
        {
          "internalType": "string",
          "name": "reason",
          "type": "string"
        },
        {
          "internalType": "bytes",
          "name": "params",
          "type": "bytes"
        }
      ],
      "name": "castVoteWithReasonAndParams",
      "outputs": [
        {
          "internalType": "uint256",
          "name": "",
          "type": "uint256"
        }
      ],
      "stateMutability": "nonpayable",
      "type": "function"
    },
    {
      "inputs": [
        {
          "internalType": "uint256",
          "name": "proposalId",
          "type": "uint256"
        },
        {
          "internalType": "uint8",
          "name": "support",
          "type": "uint8"
        },
        {
          "internalType": "string",
          "name": "reason",
          "type": "string"
        },
        {
          "internalType": "bytes",
          "name": "params",
          "type": "bytes"
        },
        {
          "internalType": "uint8",
          "name": "v",
          "type": "uint8"
        },
        {
          "internalType": "bytes32",
          "name": "r",
          "type": "bytes32"
        },
        {
          "internalType": "bytes32",
          "name": "s",
          "type": "bytes32"
        }
      ],
      "name": "castVoteWithReasonAndParamsBySig",
      "outputs": [
        {
          "internalType": "uint256",
          "name": "",
          "type": "uint256"
        }
      ],
      "stateMutability": "nonpayable",
      "type": "function"
    },
    {
      "inputs": [],
      "name": "clock",
      "outputs": [
        {
          "internalType": "uint48",
          "name": "",
          "type": "uint48"
        }
      ],
      "stateMutability": "view",
      "type": "function"
    },
    {
      "inputs": [],
      "name": "eip712Domain",
      "outputs": [
        {
          "internalType": "bytes1",
          "name": "fields",
          "type": "bytes1"
        },
        {
          "internalType": "string",
          "name": "name",
          "type": "string"
        },
        {
          "internalType": "string",
          "name": "version",
          "type": "string"
        },
        {
          "internalType": "uint256",
          "name": "chainId",
          "type": "uint256"
        },
        {
          "internalType": "address",
          "name": "verifyingContract",
          "type": "address"
        },
        {
          "internalType": "bytes32",
          "name": "salt",
          "type": "bytes32"
        },
        {
          "internalType": "uint256[]",
          "name": "extensions",
          "type": "uint256[]"
        }
      ],
      "stateMutability": "view",
      "type": "function"
    },
    {
      "inputs": [
        {
          "internalType": "address[]",
          "name": "targets",
          "type": "address[]"
        },
        {
          "internalType": "uint256[]",
          "name": "values",
          "type": "uint256[]"
        },
        {
          "internalType": "bytes[]",
          "name": "calldatas",
          "type": "bytes[]"
        },
        {
          "internalType": "bytes32",
          "name": "descriptionHash",
          "type": "bytes32"
        }
      ],
      "name": "execute",
      "outputs": [
        {
          "internalType": "uint256",
          "name": "",
          "type": "uint256"
        }
      ],
      "stateMutability": "payable",
      "type": "function"
    },
    {
      "inputs": [
        {
          "internalType": "address",
          "name": "account",
          "type": "address"
        },
        {
          "internalType": "uint256",
          "name": "timepoint",
          "type": "uint256"
        }
      ],
      "name": "getVotes",
      "outputs": [
        {
          "internalType": "uint256",
          "name": "",
          "type": "uint256"
        }
      ],
      "stateMutability": "view",
      "type": "function"
    },
    {
      "inputs": [
        {
          "internalType": "address",
          "name": "account",
          "type": "address"
        },
        {
          "internalType": "uint256",
          "name": "timepoint",
          "type": "uint256"
        },
        {
          "internalType": "bytes",
          "name": "params",
          "type": "bytes"
        }
      ],
      "name": "getVotesWithParams",
      "outputs": [
        {
          "internalType": "uint256",
          "name": "",
          "type": "uint256"
        }
      ],
      "stateMutability": "view",
      "type": "function"
    },
    {
      "inputs": [
        {
          "internalType": "uint256",
          "name": "proposalId",
          "type": "uint256"
        },
        {
          "internalType": "address",
          "name": "account",
          "type": "address"
        }
      ],
      "name": "hasVoted",
      "outputs": [
        {
          "internalType": "bool",
          "name": "",
          "type": "bool"
        }
      ],
      "stateMutability": "view",
      "type": "function"
    },
    {
      "inputs": [
        {
          "internalType": "address[]",
          "name": "targets",
          "type": "address[]"
        },
        {
          "internalType": "uint256[]",
          "name": "values",
          "type": "uint256[]"
        },
        {
          "internalType": "bytes[]",
          "name": "calldatas",
          "type": "bytes[]"
        },
        {
          "internalType": "bytes32",
          "name": "descriptionHash",
          "type": "bytes32"
        }
      ],
      "name": "hashProposal",
      "outputs": [
        {
          "internalType": "uint256",
          "name": "",
          "type": "uint256"
        }
      ],
      "stateMutability": "pure",
      "type": "function"
    },
    {
      "inputs": [
        {
          "internalType": "contract IVotesUpgradeable",
          "name": "_token",
          "type": "address"
        },
        {
          "internalType": "uint256",
          "name": "__votingDelay",
          "type": "uint256"
        },
        {
          "internalType": "uint256",
          "name": "__votingPeriod",
          "type": "uint256"
        },
        {
          "internalType": "uint256",
          "name": "__quorum",
          "type": "uint256"
        },
        {
          "internalType": "contract TimelockControllerUpgradeable",
          "name": "_timelock",
          "type": "address"
        }
      ],
      "name": "initialize",
      "outputs": [],
      "stateMutability": "nonpayable",
      "type": "function"
    },
    {
      "inputs": [],
      "name": "name",
      "outputs": [
        {
          "internalType": "string",
          "name": "",
          "type": "string"
        }
      ],
      "stateMutability": "view",
      "type": "function"
    },
    {
      "inputs": [
        {
          "internalType": "address",
          "name": "",
          "type": "address"
        },
        {
          "internalType": "address",
          "name": "",
          "type": "address"
        },
        {
          "internalType": "uint256[]",
          "name": "",
          "type": "uint256[]"
        },
        {
          "internalType": "uint256[]",
          "name": "",
          "type": "uint256[]"
        },
        {
          "internalType": "bytes",
          "name": "",
          "type": "bytes"
        }
      ],
      "name": "onERC1155BatchReceived",
      "outputs": [
        {
          "internalType": "bytes4",
          "name": "",
          "type": "bytes4"
        }
      ],
      "stateMutability": "nonpayable",
      "type": "function"
    },
    {
      "inputs": [
        {
          "internalType": "address",
          "name": "",
          "type": "address"
        },
        {
          "internalType": "address",
          "name": "",
          "type": "address"
        },
        {
          "internalType": "uint256",
          "name": "",
          "type": "uint256"
        },
        {
          "internalType": "uint256",
          "name": "",
          "type": "uint256"
        },
        {
          "internalType": "bytes",
          "name": "",
          "type": "bytes"
        }
      ],
      "name": "onERC1155Received",
      "outputs": [
        {
          "internalType": "bytes4",
          "name": "",
          "type": "bytes4"
        }
      ],
      "stateMutability": "nonpayable",
      "type": "function"
    },
    {
      "inputs": [
        {
          "internalType": "address",
          "name": "",
          "type": "address"
        },
        {
          "internalType": "address",
          "name": "",
          "type": "address"
        },
        {
          "internalType": "uint256",
          "name": "",
          "type": "uint256"
        },
        {
          "internalType": "bytes",
          "name": "",
          "type": "bytes"
        }
      ],
      "name": "onERC721Received",
      "outputs": [
        {
          "internalType": "bytes4",
          "name": "",
          "type": "bytes4"
        }
      ],
      "stateMutability": "nonpayable",
      "type": "function"
    },
    {
      "inputs": [
        {
          "internalType": "uint256",
          "name": "proposalId",
          "type": "uint256"
        }
      ],
      "name": "proposalDeadline",
      "outputs": [
        {
          "internalType": "uint256",
          "name": "",
          "type": "uint256"
        }
      ],
      "stateMutability": "view",
      "type": "function"
    },
    {
      "inputs": [
        {
          "internalType": "uint256",
          "name": "proposalId",
          "type": "uint256"
        }
      ],
      "name": "proposalEta",
      "outputs": [
        {
          "internalType": "uint256",
          "name": "",
          "type": "uint256"
        }
      ],
      "stateMutability": "view",
      "type": "function"
    },
    {
      "inputs": [
        {
          "internalType": "uint256",
          "name": "proposalId",
          "type": "uint256"
        }
      ],
      "name": "proposalProposer",
      "outputs": [
        {
          "internalType": "address",
          "name": "",
          "type": "address"
        }
      ],
      "stateMutability": "view",
      "type": "function"
    },
    {
      "inputs": [
        {
          "internalType": "uint256",
          "name": "proposalId",
          "type": "uint256"
        }
      ],
      "name": "proposalSnapshot",
      "outputs": [
        {
          "internalType": "uint256",
          "name": "",
          "type": "uint256"
        }
      ],
      "stateMutability": "view",
      "type": "function"
    },
    {
      "inputs": [],
      "name": "proposalThreshold",
      "outputs": [
        {
          "internalType": "uint256",
          "name": "",
          "type": "uint256"
        }
      ],
      "stateMutability": "view",
      "type": "function"
    },
    {
      "inputs": [
        {
          "internalType": "uint256",
          "name": "proposalId",
          "type": "uint256"
        }
      ],
      "name": "proposalVotes",
      "outputs": [
        {
          "internalType": "uint256",
          "name": "againstVotes",
          "type": "uint256"
        },
        {
          "internalType": "uint256",
          "name": "forVotes",
          "type": "uint256"
        },
        {
          "internalType": "uint256",
          "name": "abstainVotes",
          "type": "uint256"
        }
      ],
      "stateMutability": "view",
      "type": "function"
    },
    {
      "inputs": [
        {
          "internalType": "address[]",
          "name": "targets",
          "type": "address[]"
        },
        {
          "internalType": "uint256[]",
          "name": "values",
          "type": "uint256[]"
        },
        {
          "internalType": "bytes[]",
          "name": "calldatas",
          "type": "bytes[]"
        },
        {
          "internalType": "string",
          "name": "description",
          "type": "string"
        }
      ],
      "name": "propose",
      "outputs": [
        {
          "internalType": "uint256",
          "name": "",
          "type": "uint256"
        }
      ],
      "stateMutability": "nonpayable",
      "type": "function"
    },
    {
      "inputs": [
        {
          "internalType": "address[]",
          "name": "targets",
          "type": "address[]"
        },
        {
          "internalType": "uint256[]",
          "name": "values",
          "type": "uint256[]"
        },
        {
          "internalType": "bytes[]",
          "name": "calldatas",
          "type": "bytes[]"
        },
        {
          "internalType": "bytes32",
          "name": "descriptionHash",
          "type": "bytes32"
        }
      ],
      "name": "queue",
      "outputs": [
        {
          "internalType": "uint256",
          "name": "",
          "type": "uint256"
        }
      ],
      "stateMutability": "nonpayable",
      "type": "function"
    },
    {
      "inputs": [
        {
          "internalType": "uint256",
          "name": "blockNumber",
          "type": "uint256"
        }
      ],
      "name": "quorum",
      "outputs": [
        {
          "internalType": "uint256",
          "name": "",
          "type": "uint256"
        }
      ],
      "stateMutability": "view",
      "type": "function"
    },
    {
      "inputs": [
        {
          "internalType": "address",
          "name": "target",
          "type": "address"
        },
        {
          "internalType": "uint256",
          "name": "value",
          "type": "uint256"
        },
        {
          "internalType": "bytes",
          "name": "data",
          "type": "bytes"
        }
      ],
      "name": "relay",
      "outputs": [],
      "stateMutability": "payable",
      "type": "function"
    },
    {
      "inputs": [
        {
          "internalType": "uint256",
          "name": "newQuorum",
          "type": "uint256"
        }
      ],
      "name": "setQuorum",
      "outputs": [],
      "stateMutability": "nonpayable",
      "type": "function"
    },
    {
      "inputs": [
        {
          "internalType": "uint256",
          "name": "newVotingDelay",
          "type": "uint256"
        }
      ],
      "name": "setVotingDelay",
      "outputs": [],
      "stateMutability": "nonpayable",
      "type": "function"
    },
    {
      "inputs": [
        {
          "internalType": "uint256",
          "name": "newVotingPeriod",
          "type": "uint256"
        }
      ],
      "name": "setVotingPeriod",
      "outputs": [],
      "stateMutability": "nonpayable",
      "type": "function"
    },
    {
      "inputs": [
        {
          "internalType": "uint256",
          "name": "proposalId",
          "type": "uint256"
        }
      ],
      "name": "state",
      "outputs": [
        {
          "internalType": "enum IGovernorUpgradeable.ProposalState",
          "name": "",
          "type": "uint8"
        }
      ],
      "stateMutability": "view",
      "type": "function"
    },
    {
      "inputs": [
        {
          "internalType": "bytes4",
          "name": "interfaceId",
          "type": "bytes4"
        }
      ],
      "name": "supportsInterface",
      "outputs": [
        {
          "internalType": "bool",
          "name": "",
          "type": "bool"
        }
      ],
      "stateMutability": "view",
      "type": "function"
    },
    {
      "inputs": [],
      "name": "timelock",
      "outputs": [
        {
          "internalType": "address",
          "name": "",
          "type": "address"
        }
      ],
      "stateMutability": "view",
      "type": "function"
    },
    {
      "inputs": [],
      "name": "token",
      "outputs": [
        {
          "internalType": "contract IERC5805Upgradeable",
          "name": "",
          "type": "address"
        }
      ],
      "stateMutability": "view",
      "type": "function"
    },
    {
      "inputs": [
        {
          "internalType": "contract TimelockControllerUpgradeable",
          "name": "newTimelock",
          "type": "address"
        }
      ],
      "name": "updateTimelock",
      "outputs": [],
      "stateMutability": "nonpayable",
      "type": "function"
    },
    {
      "inputs": [],
      "name": "version",
      "outputs": [
        {
          "internalType": "string",
          "name": "",
          "type": "string"
        }
      ],
      "stateMutability": "view",
      "type": "function"
    },
    {
      "inputs": [],
      "name": "votingDelay",
      "outputs": [
        {
          "internalType": "uint256",
          "name": "",
          "type": "uint256"
        }
      ],
      "stateMutability": "view",
      "type": "function"
    },
    {
      "inputs": [],
      "name": "votingPeriod",
      "outputs": [
        {
          "internalType": "uint256",
          "name": "",
          "type": "uint256"
        }
      ],
      "stateMutability": "view",
      "type": "function"
    },
    {
      "stateMutability": "payable",
      "type": "receive"
    }
  ],
  "bytecode": "0x608060405234801561000f575f80fd5b50613f248061001d5f395ff3fe60806040526004361061021b575f3560e01c806370b0f66011610121578063c1ba4e59116100a4578063c1ba4e591461076d578063c28bc2fa1461078c578063c59057e41461079f578063d33219b4146107be578063dd4e2ba5146107dc578063deaaa7cc14610821578063ea0217cf14610854578063eb9019d414610873578063f23a6e6114610892578063f8ce560a146108bd578063fc0c546a146108dc575f80fd5b806370b0f660146105ed5780637b3c71d31461060c5780637d5e81e21461062b57806384b0196e1461064a57806391ddadf4146106715780639a802a6d1461069c578063a890c910146106bb578063ab58fb8e146106da578063b58131b0146106f9578063bc197c811461070b578063c01f9e3714610736575f80fd5b80633932abb1116101a95780633932abb11461044c5780633bccf4fd146104615780633e4f49e61461048057806343859632146104ac578063452115d6146104f55780634bf5d7e914610514578063544ffc9c1461052857806354fd4d501461057c57806356781388146105905780635f398a14146105af5780636c28e349146105ce575f80fd5b806301ffc9a71461028a57806302a251a3146102be57806303420181146102dd57806306fdde03146102fc578063143489d01461031d578063150b7a0214610370578063160cbed7146103b35780632656227d146103d25780632d63f693146103e55780632fe3e26114610419575f80fd5b3661028657306102296108fc565b6001600160a01b0316146102845760405162461bcd60e51b815260206004820152601f60248201527f476f7665726e6f723a206d7573742073656e6420746f206578656375746f720060448201526064015b60405180910390fd5b005b5f80fd5b348015610295575f80fd5b506102a96102a4366004612ed4565b610915565b60405190151581526020015b60405180910390f35b3480156102c9575f80fd5b506101c7545b6040519081526020016102b5565b3480156102e8575f80fd5b506102cf6102f7366004613012565b610925565b348015610307575f80fd5b50610310610a1b565b6040516102b591906130fe565b348015610328575f80fd5b50610358610337366004613110565b5f90815260fe6020526040902054600160401b90046001600160a01b031690565b6040516001600160a01b0390911681526020016102b5565b34801561037b575f80fd5b5061039a61038a36600461313b565b630a85bd0160e11b949350505050565b6040516001600160e01b031990911681526020016102b5565b3480156103be575f80fd5b506102cf6103cd366004613303565b610aab565b6102cf6103e0366004613303565b610ca3565b3480156103f0575f80fd5b506102cf6103ff366004613110565b5f90815260fe60205260409020546001600160401b031690565b348015610424575f80fd5b506102cf7fb3b3f3b703cd84ce352197dcff232b1b5d3cfb2025ce47cf04742d0651f1af8881565b348015610457575f80fd5b506101c6546102cf565b34801561046c575f80fd5b506102cf61047b36600461338c565b610d92565b34801561048b575f80fd5b5061049f61049a366004613110565b610e06565b6040516102b591906133ea565b3480156104b7575f80fd5b506102a96104c6366004613410565b5f82815261012f602090815260408083206001600160a01b038516845260030190915290205460ff1692915050565b348015610500575f80fd5b506102cf61050f366004613303565b610e10565b34801561051f575f80fd5b50610310610f1e565b348015610533575f80fd5b50610561610542366004613110565b5f90815261012f60205260409020805460018201546002909201549092565b604080519384526020840192909252908201526060016102b5565b348015610587575f80fd5b50610310610fc9565b34801561059b575f80fd5b506102cf6105aa36600461343e565b610fe4565b3480156105ba575f80fd5b506102cf6105c9366004613468565b61100b565b3480156105d9575f80fd5b506102846105e83660046134e5565b611053565b3480156105f8575f80fd5b50610284610607366004613110565b6111c0565b348015610617575f80fd5b506102cf610626366004613537565b611284565b348015610636575f80fd5b506102cf61064536600461358c565b6112ca565b348015610655575f80fd5b5061065e611692565b6040516102b59796959493929190613671565b34801561067c575f80fd5b5061068561172b565b60405165ffffffffffff90911681526020016102b5565b3480156106a7575f80fd5b506102cf6106b63660046136d2565b61179e565b3480156106c6575f80fd5b506102846106d5366004613726565b6117b4565b3480156106e5575f80fd5b506102cf6106f4366004613110565b61183d565b348015610704575f80fd5b505f6102cf565b348015610716575f80fd5b5061039a610725366004613741565b63bc197c8160e01b95945050505050565b348015610741575f80fd5b506102cf610750366004613110565b5f90815260fe60205260409020600101546001600160401b031690565b348015610778575f80fd5b50610284610787366004613110565b6118d5565b61028461079a3660046137cd565b611991565b3480156107aa575f80fd5b506102cf6107b9366004613303565b611a9b565b3480156107c9575f80fd5b50610194546001600160a01b0316610358565b3480156107e7575f80fd5b506040805180820190915260208082527f737570706f72743d627261766f2671756f72756d3d666f722c6162737461696e90820152610310565b34801561082c575f80fd5b506102cf7f150214d74d59b7d1e90c73fc22ef3d991dd0a76b046543d4d80ab92d2a50328f81565b34801561085f575f80fd5b5061028461086e366004613110565b611ad4565b34801561087e575f80fd5b506102cf61088d36600461380c565b611b90565b34801561089d575f80fd5b5061039a6108ac366004613836565b63f23a6e6160e01b95945050505050565b3480156108c8575f80fd5b506102cf6108d7366004613110565b611baf565b3480156108e7575f80fd5b5061016154610358906001600160a01b031681565b5f610910610194546001600160a01b031690565b905090565b5f61091f82611c08565b92915050565b5f806109c86109c07fb3b3f3b703cd84ce352197dcff232b1b5d3cfb2025ce47cf04742d0651f1af888c8c8c8c604051610960929190613899565b60405180910390208b805190602001206040516020016109a5959493929190948552602085019390935260ff9190911660408401526060830152608082015260a00190565b60405160208183030381529060405280519060200120611c2c565b868686611c58565b9050610a0d8a828b8b8b8080601f0160208091040260200160405190810160405280939291908181526020018383808284375f920191909152508d9250611c74915050565b9a9950505050505050505050565b606060fd8054610a2a906138a8565b80601f0160208091040260200160405190810160405280929190818152602001828054610a56906138a8565b8015610aa15780601f10610a7857610100808354040283529160200191610aa1565b820191905f5260205f20905b815481529060010190602001808311610a8457829003601f168201915b5050505050905090565b5f80610ab986868686611a9b565b90506004610ac682610e06565b6007811115610ad757610ad76133d6565b14610af45760405162461bcd60e51b815260040161027b906138e0565b610194546040805163793d064960e11b815290515f926001600160a01b03169163f27a0c929160048083019260209291908290030181865afa158015610b3c573d5f803e3d5ffd5b505050506040513d601f19601f82011682018060405250810190610b609190613921565b6101945460405163b1c5f42760e01b81529192506001600160a01b03169063b1c5f42790610b9a908a908a908a905f908b906004016139c2565b602060405180830381865afa158015610bb5573d5f803e3d5ffd5b505050506040513d601f19601f82011682018060405250810190610bd99190613921565b5f8381526101956020526040808220929092556101945491516308f2a0bb60e41b81526001600160a01b0390921691638f2a0bb091610c25918b918b918b91908b908990600401613a0f565b5f604051808303815f87803b158015610c3c575f80fd5b505af1158015610c4e573d5f803e3d5ffd5b505050507f9a2e42fd6722813d69113e7d0079d3d940171428df7373df9c7f7617cfda2892828242610c809190613a7a565b604080519283526020830191909152015b60405180910390a15095945050505050565b5f80610cb186868686611a9b565b90505f610cbd82610e06565b90506004816007811115610cd357610cd36133d6565b1480610cf057506005816007811115610cee57610cee6133d6565b145b610d0c5760405162461bcd60e51b815260040161027b906138e0565b5f82815260fe602052604090819020600201805460ff19166001179055517f712ae1383f79ac853f8d882153778e0260ef8f03b504e2866e0593e04d2b291f90610d599084815260200190565b60405180910390a1610d6e8288888888611dc6565b610d7b8288888888611e65565b610d888288888888611e72565b5095945050505050565b604080517f150214d74d59b7d1e90c73fc22ef3d991dd0a76b046543d4d80ab92d2a50328f602082015290810186905260ff851660608201525f908190610ddf906109c0906080016109a5565b9050610dfb87828860405180602001604052805f815250611eaa565b979650505050505050565b5f61091f82611ed4565b5f80610e1e86868686611a9b565b90505f610e2a82610e06565b6007811115610e3b57610e3b6133d6565b14610e885760405162461bcd60e51b815260206004820152601c60248201527f476f7665726e6f723a20746f6f206c61746520746f2063616e63656c00000000604482015260640161027b565b5f81815260fe6020526040902054600160401b90046001600160a01b0316336001600160a01b031614610f085760405162461bcd60e51b815260206004820152602260248201527f476f7665726e6f723a206f6e6c792070726f706f7365722063616e2063616e63604482015261195b60f21b606482015260840161027b565b610f148686868661201b565b9695505050505050565b6101615460408051634bf5d7e960e01b815290516060926001600160a01b031691634bf5d7e9916004808301925f9291908290030181865afa925050508015610f8857506040513d5f823e601f3d908101601f19168201604052610f859190810190613a8d565b60015b610fc4575060408051808201909152601d81527f6d6f64653d626c6f636b6e756d6265722666726f6d3d64656661756c74000000602082015290565b919050565b6040805180820190915260018152603160f81b602082015290565b5f8033905061100384828560405180602001604052805f815250611eaa565b949350505050565b5f80339050610dfb87828888888080601f0160208091040260200160405190810160405280939291908181526020018383808284375f920191909152508a9250611c74915050565b5f54610100900460ff161580801561107157505f54600160ff909116105b8061108a5750303b15801561108a57505f5460ff166001145b6110ed5760405162461bcd60e51b815260206004820152602e60248201527f496e697469616c697a61626c653a20636f6e747261637420697320616c72656160448201526d191e481a5b9a5d1a585b1a5e995960921b606482015260840161027b565b5f805460ff19166001179055801561110e575f805461ff0019166101001790555b611147604051806040016040528060188152602001772ab73637b1b590283937ba37b1b7b61023b7bb32b93737b960411b815250612028565b61114f612068565b61115886612090565b611161826120bf565b6101c68590556101c78490556101c883905580156111b8575f805461ff0019169055604051600181527f7f26b83ff96e1f2b6a682f133852f6798a09c465da95921460cefb38474024989060200160405180910390a15b505050505050565b6111c86108fc565b6001600160a01b0316336001600160a01b0316146111f85760405162461bcd60e51b815260040161027b90613af5565b306112016108fc565b6001600160a01b03161461123d575f8036604051611220929190613899565b604051809103902090505b8061123660ff6120ee565b0361122b57505b6101c680549082905560408051828152602081018490527f16569b50c8812bb18e4b5c46b0fee4a9acbb3a9dca1e1badce427e8d75b5652d91015b60405180910390a15050565b5f80339050610f1486828787878080601f0160208091040260200160405190810160405280939291908181526020018383808284375f92019190915250611eaa92505050565b5f336112d68184612162565b6113225760405162461bcd60e51b815260206004820152601d60248201527f476f7665726e6f723a2070726f706f7365722072657374726963746564000000604482015260640161027b565b5f61132b61172b565b65ffffffffffff1690505f6113458361088d600185613b27565b10156113ad5760405162461bcd60e51b815260206004820152603160248201527f476f7665726e6f723a2070726f706f73657220766f7465732062656c6f7720706044820152701c9bdc1bdcd85b081d1a1c995cda1bdb19607a1b606482015260840161027b565b5f6113c18888888880519060200120611a9b565b905086518851146113e45760405162461bcd60e51b815260040161027b90613b3a565b85518851146114055760405162461bcd60e51b815260040161027b90613b3a565b5f8851116114505760405162461bcd60e51b815260206004820152601860248201527711dbdd995c9b9bdc8e88195b5c1d1e481c1c9bdc1bdcd85b60421b604482015260640161027b565b5f81815260fe60205260409020546001600160401b0316156114be5760405162461bcd60e51b815260206004820152602160248201527f476f7665726e6f723a2070726f706f73616c20616c72656164792065786973746044820152607360f81b606482015260840161027b565b5f6114c96101c65490565b6114d39084613a7a565b90505f6114e06101c75490565b6114ea9083613a7a565b90506040518060e0016040528061150084612250565b6001600160401b031681526001600160a01b03871660208201525f604082015260600161152c83612250565b6001600160401b0390811682525f60208084018290526040808501839052606094850183905288835260fe8252918290208551815492870151878501519186166001600160e01b031990941693909317600160401b6001600160a01b039094168402176001600160e01b0316600160e01b60e09290921c91909102178155938501516080860151908416921c0217600183015560a08301516002909201805460c09094015161ffff1990941692151561ff00191692909217610100931515939093029290921790558a517f7d84a6263ae0d98d3329bd7b46bb4e8d6f98cd35a7adb45c274c8b7fd5ebd5e091859188918e918e9181111561162f5761162f612f4f565b60405190808252806020026020018201604052801561166257816020015b606081526020019060019003908161164d5790505b508d88888f60405161167c99989796959493929190613b7b565b60405180910390a1509098975050505050505050565b5f6060805f805f60606065545f801b1480156116ae5750606654155b6116f25760405162461bcd60e51b81526020600482015260156024820152741152540dcc4c8e88155b9a5b9a5d1a585b1a5e9959605a1b604482015260640161027b565b6116fa6122bb565b6117026122ca565b604080515f80825260208201909252600f60f81b9b939a50919850469750309650945092509050565b61016154604080516324776b7d60e21b815290515f926001600160a01b0316916391ddadf49160048083019260209291908290030181865afa925050508015611791575060408051601f3d908101601f1916820190925261178e91810190613c50565b60015b610fc457610910436122d9565b5f6117aa84848461233f565b90505b9392505050565b6117bc6108fc565b6001600160a01b0316336001600160a01b0316146117ec5760405162461bcd60e51b815260040161027b90613af5565b306117f56108fc565b6001600160a01b031614611831575f8036604051611814929190613899565b604051809103902090505b8061182a60ff6120ee565b0361181f57505b61183a816123b3565b50565b610194545f828152610195602052604080822054905163d45c443560e01b81526004810191909152909182916001600160a01b039091169063d45c443590602401602060405180830381865afa158015611899573d5f803e3d5ffd5b505050506040513d601f19601f820116820180604052508101906118bd9190613921565b9050806001146118cd57806117ad565b5f9392505050565b6118dd6108fc565b6001600160a01b0316336001600160a01b03161461190d5760405162461bcd60e51b815260040161027b90613af5565b306119166108fc565b6001600160a01b031614611952575f8036604051611935929190613899565b604051809103902090505b8061194b60ff6120ee565b0361194057505b6101c880549082905560408051828152602081018490527f6784e9bcb845caaa98267d7b0918f97d3d17f7cb35a05b52010f7eb587a0acb09101611278565b6119996108fc565b6001600160a01b0316336001600160a01b0316146119c95760405162461bcd60e51b815260040161027b90613af5565b306119d26108fc565b6001600160a01b031614611a0e575f80366040516119f1929190613899565b604051809103902090505b80611a0760ff6120ee565b036119fc57505b5f80856001600160a01b0316858585604051611a2b929190613899565b5f6040518083038185875af1925050503d805f8114611a65576040519150601f19603f3d011682016040523d82523d5f602084013e611a6a565b606091505b5091509150611a928282604051806060016040528060288152602001613ec76028913961241e565b50505050505050565b5f84848484604051602001611ab39493929190613c75565b60408051601f19818403018152919052805160209091012095945050505050565b611adc6108fc565b6001600160a01b0316336001600160a01b031614611b0c5760405162461bcd60e51b815260040161027b90613af5565b30611b156108fc565b6001600160a01b031614611b51575f8036604051611b34929190613899565b604051809103902090505b80611b4a60ff6120ee565b03611b3f57505b6101c780549082905560408051828152602081018490527fffc708f072ca56e3d45ef0cb288b96cb9378f5f63e1646868bfbc9c38f4263a19101611278565b5f6117ad8383611baa60408051602081019091525f815290565b61233f565b5f438210611bff5760405162461bcd60e51b815260206004820152601f60248201527f4552433230566f7465733a20626c6f636b206e6f7420796574206d696e656400604482015260640161027b565b50506101c85490565b5f6001600160e01b03198216636e665ced60e01b148061091f575061091f82612437565b5f61091f611c386124d2565b8360405161190160f01b8152600281019290925260228201526042902090565b5f805f611c67878787876124db565b91509150610d888161258e565b5f85815260fe602052604081206001611c8c88610e06565b6007811115611c9d57611c9d6133d6565b14611cf65760405162461bcd60e51b815260206004820152602360248201527f476f7665726e6f723a20766f7465206e6f742063757272656e746c792061637460448201526269766560e81b606482015260840161027b565b80545f90611d0f9088906001600160401b03168661233f565b9050611d1e88888884886126d2565b83515f03611d7257866001600160a01b03167fb8e138887d0aa13bab447e82de9d5c1777041ecd21ca36ba824ff1e6c07ddda489888489604051611d659493929190613cbf565b60405180910390a2610dfb565b866001600160a01b03167fe2babfbac5889a709b63bb7f598b324e08bc5a4fb9ec647fb3cbc9ec07eb87128988848989604051611db3959493929190613ce6565b60405180910390a2979650505050505050565b30611dcf6108fc565b6001600160a01b031614611e5e575f5b84518110156111b857306001600160a01b0316858281518110611e0457611e04613d2b565b60200260200101516001600160a01b031603611e4e57611e4e838281518110611e2f57611e2f613d2b565b60200260200101518051906020012060ff61284690919063ffffffff16565b611e5781613d3f565b9050611ddf565b5050505050565b611e5e8585858585612881565b30611e7b6108fc565b6001600160a01b031614611e5e5760ff54600f81810b600160801b909204900b1315611e5e575f60ff55611e5e565b5f611ecb85858585611ec660408051602081019091525f815290565b611c74565b95945050505050565b5f80611edf836128f1565b90506004816007811115611ef557611ef56133d6565b14611f005792915050565b5f838152610195602052604090205480611f1b575092915050565b61019454604051632ab0f52960e01b8152600481018390526001600160a01b0390911690632ab0f52990602401602060405180830381865afa158015611f63573d5f803e3d5ffd5b505050506040513d601f19601f82011682018060405250810190611f879190613d57565b15611f96575060079392505050565b61019454604051632c258a9f60e11b8152600481018390526001600160a01b039091169063584b153e90602401602060405180830381865afa158015611fde573d5f803e3d5ffd5b505050506040513d601f19601f820116820180604052508101906120029190613d57565b15612011575060059392505050565b5060029392505050565b5f611ecb85858585612a2c565b5f54610100900460ff1661204e5760405162461bcd60e51b815260040161027b90613d76565b61205f8161205a610fc9565b612ad9565b61183a81612b26565b5f54610100900460ff1661208e5760405162461bcd60e51b815260040161027b90613d76565b565b5f54610100900460ff166120b65760405162461bcd60e51b815260040161027b90613d76565b61183a81612b5c565b5f54610100900460ff166120e55760405162461bcd60e51b815260040161027b90613d76565b61183a81612ba5565b5f6121088254600f81810b600160801b909204900b131590565b1561212657604051631ed9509560e11b815260040160405180910390fd5b508054600f0b5f818152600180840160205260408220805492905583546001600160801b03191692016001600160801b03169190911790915590565b80515f90603481101561217957600191505061091f565b82810160131901516001600160a01b031981166b046e0e4dee0dee6cae47a60f60a31b146121ac5760019250505061091f565b5f806121b9602885613b27565b90505b8381101561222f575f806121ef8884815181106121db576121db613d2b565b01602001516001600160f81b031916612bcb565b9150915081612207576001965050505050505061091f565b8060ff166004856001600160a01b0316901b17935050508061222890613d3f565b90506121bc565b50856001600160a01b0316816001600160a01b031614935050505092915050565b5f6001600160401b038211156122b75760405162461bcd60e51b815260206004820152602660248201527f53616665436173743a2076616c756520646f65736e27742066697420696e203660448201526534206269747360d01b606482015260840161027b565b5090565b606060678054610a2a906138a8565b606060688054610a2a906138a8565b5f65ffffffffffff8211156122b75760405162461bcd60e51b815260206004820152602660248201527f53616665436173743a2076616c756520646f65736e27742066697420696e203460448201526538206269747360d01b606482015260840161027b565b61016154604051630748d63560e31b81526001600160a01b038581166004830152602482018590525f921690633a46b1a890604401602060405180830381865afa15801561238f573d5f803e3d5ffd5b505050506040513d601f19601f820116820180604052508101906117aa9190613921565b61019454604080516001600160a01b03928316815291831660208301527f08f74ea46ef7894f65eabfb5e6e695de773a000b47c529ab559178069b226401910160405180910390a161019480546001600160a01b0319166001600160a01b0392909216919091179055565b6060831561242d5750816117ad565b6117ad8383612c5b565b5f63288ace0360e11b6318df743f60e31b63bf26d89760e01b6379dd796f60e01b6001600160e01b0319861682148061247c57506001600160e01b0319868116908216145b8061249357506001600160e01b0319868116908516145b806124ae57506001600160e01b03198616630271189760e51b145b80610f1457506301ffc9a760e01b6001600160e01b03198716149695505050505050565b5f610910612c85565b5f806fa2a8918ca85bafe22016d0b997e4df60600160ff1b0383111561250657505f90506003612585565b604080515f8082526020820180845289905260ff881692820192909252606081018690526080810185905260019060a0016020604051602081039080840390855afa158015612557573d5f803e3d5ffd5b5050604051601f1901519150506001600160a01b03811661257f575f60019250925050612585565b91505f90505b94509492505050565b5f8160048111156125a1576125a16133d6565b036125a95750565b60018160048111156125bd576125bd6133d6565b036126055760405162461bcd60e51b815260206004820152601860248201527745434453413a20696e76616c6964207369676e617475726560401b604482015260640161027b565b6002816004811115612619576126196133d6565b036126665760405162461bcd60e51b815260206004820152601f60248201527f45434453413a20696e76616c6964207369676e6174757265206c656e67746800604482015260640161027b565b600381600481111561267a5761267a6133d6565b0361183a5760405162461bcd60e51b815260206004820152602260248201527f45434453413a20696e76616c6964207369676e6174757265202773272076616c604482015261756560f01b606482015260840161027b565b5f85815261012f602090815260408083206001600160a01b0388168452600381019092529091205460ff161561275a5760405162461bcd60e51b815260206004820152602760248201527f476f7665726e6f72566f74696e6753696d706c653a20766f746520616c726561604482015266191e4818d85cdd60ca1b606482015260840161027b565b6001600160a01b0385165f9081526003820160205260409020805460ff1916600117905560ff84166127a35782815f015f8282546127989190613a7a565b909155506111b89050565b5f1960ff8516016127c15782816001015f8282546127989190613a7a565b60011960ff8516016127e05782816002015f8282546127989190613a7a565b60405162461bcd60e51b815260206004820152603560248201527f476f7665726e6f72566f74696e6753696d706c653a20696e76616c69642076616044820152746c756520666f7220656e756d20566f74655479706560581b606482015260840161027b565b8154600160801b90819004600f0b5f818152600180860160205260409091209390935583546001600160801b03908116939091011602179055565b6101945460405163e38335e560e01b81526001600160a01b039091169063e38335e59034906128bc908890889088905f9089906004016139c2565b5f604051808303818588803b1580156128d3575f80fd5b505af11580156128e5573d5f803e3d5ffd5b50505050505050505050565b5f81815260fe60205260408120600281015460ff16156129145750600792915050565b6002810154610100900460ff161561292f5750600292915050565b5f83815260fe60205260408120546001600160401b0316908190036129965760405162461bcd60e51b815260206004820152601d60248201527f476f7665726e6f723a20756e6b6e6f776e2070726f706f73616c206964000000604482015260640161027b565b5f61299f61172b565b65ffffffffffff1690508082106129ba57505f949350505050565b5f85815260fe60205260409020600101546001600160401b03168181106129e75750600195945050505050565b6129f086612cf8565b8015612a0f57505f86815261012f602052604090208054600190910154115b15612a205750600495945050505050565b50600395945050505050565b5f80612a3a86868686612d43565b5f818152610195602052604090205490915015611ecb57610194545f82815261019560205260409081902054905163c4d252f560e01b81526001600160a01b039092169163c4d252f591612a949160040190815260200190565b5f604051808303815f87803b158015612aab575f80fd5b505af1158015612abd573d5f803e3d5ffd5b5050505f82815261019560205260408120555095945050505050565b5f54610100900460ff16612aff5760405162461bcd60e51b815260040161027b90613d76565b6067612b0b8382613e0b565b506068612b188282613e0b565b50505f606581905560665550565b5f54610100900460ff16612b4c5760405162461bcd60e51b815260040161027b90613d76565b60fd612b588282613e0b565b5050565b5f54610100900460ff16612b825760405162461bcd60e51b815260040161027b90613d76565b61016180546001600160a01b0319166001600160a01b0392909216919091179055565b5f54610100900460ff166118315760405162461bcd60e51b815260040161027b90613d76565b5f8060f883901c602f81118015612be55750603a8160ff16105b15612bfa57600194602f199091019350915050565b8060ff166040108015612c10575060478160ff16105b15612c25576001946036199091019350915050565b8060ff166060108015612c3b575060678160ff16105b15612c50576001946056199091019350915050565b505f93849350915050565b815115612c6b5781518083602001fd5b8060405162461bcd60e51b815260040161027b91906130fe565b5f7f8b73c3c69bb8fe3d512ecc4cf759cc79239f7b179b0ffacaa9a75d522b39400f612caf612e4c565b612cb7612ea4565b60408051602081019490945283019190915260608201524660808201523060a082015260c00160405160208183030381529060405280519060200120905090565b5f81815261012f6020526040812060028101546001820154612d1a9190613a7a565b5f84815260fe6020526040902054612d3a906001600160401b0316611baf565b11159392505050565b5f80612d5186868686611a9b565b90505f612d5d82610e06565b90506002816007811115612d7357612d736133d6565b14158015612d9357506006816007811115612d9057612d906133d6565b14155b8015612db157506007816007811115612dae57612dae6133d6565b14155b612dfd5760405162461bcd60e51b815260206004820152601d60248201527f476f7665726e6f723a2070726f706f73616c206e6f7420616374697665000000604482015260640161027b565b5f82815260fe602052604090819020600201805461ff001916610100179055517f789cf55be980739dad1d0699b93b58e806b51c9d96619bfa8fe0a28abaa7b30c90610c919084815260200190565b5f80612e566122bb565b805190915015612e6d578051602090910120919050565b6065548015612e7c5792915050565b7fc5d2460186f7233c927e7db2dcc703c0e500b653ca82273b7bfad8045d85a4709250505090565b5f80612eae6122ca565b805190915015612ec5578051602090910120919050565b6066548015612e7c5792915050565b5f60208284031215612ee4575f80fd5b81356001600160e01b0319811681146117ad575f80fd5b803560ff81168114610fc4575f80fd5b5f8083601f840112612f1b575f80fd5b5081356001600160401b03811115612f31575f80fd5b602083019150836020828501011115612f48575f80fd5b9250929050565b634e487b7160e01b5f52604160045260245ffd5b604051601f8201601f191681016001600160401b0381118282101715612f8b57612f8b612f4f565b604052919050565b5f6001600160401b03821115612fab57612fab612f4f565b50601f01601f191660200190565b5f612fcb612fc684612f93565b612f63565b9050828152838383011115612fde575f80fd5b828260208301375f602084830101529392505050565b5f82601f830112613003575f80fd5b6117ad83833560208501612fb9565b5f805f805f805f8060e0898b031215613029575f80fd5b8835975061303960208a01612efb565b965060408901356001600160401b0380821115613054575f80fd5b6130608c838d01612f0b565b909850965060608b0135915080821115613078575f80fd5b506130858b828c01612ff4565b94505061309460808a01612efb565b925060a0890135915060c089013590509295985092959890939650565b5f5b838110156130cb5781810151838201526020016130b3565b50505f910152565b5f81518084526130ea8160208601602086016130b1565b601f01601f19169290920160200192915050565b602081525f6117ad60208301846130d3565b5f60208284031215613120575f80fd5b5035919050565b6001600160a01b038116811461183a575f80fd5b5f805f806080858703121561314e575f80fd5b843561315981613127565b9350602085013561316981613127565b92506040850135915060608501356001600160401b0381111561318a575f80fd5b61319687828801612ff4565b91505092959194509250565b5f6001600160401b038211156131ba576131ba612f4f565b5060051b60200190565b5f82601f8301126131d3575f80fd5b813560206131e3612fc6836131a2565b82815260059290921b84018101918181019086841115613201575f80fd5b8286015b8481101561322557803561321881613127565b8352918301918301613205565b509695505050505050565b5f82601f83011261323f575f80fd5b8135602061324f612fc6836131a2565b82815260059290921b8401810191818101908684111561326d575f80fd5b8286015b848110156132255780358352918301918301613271565b5f82601f830112613297575f80fd5b813560206132a7612fc6836131a2565b82815260059290921b840181019181810190868411156132c5575f80fd5b8286015b848110156132255780356001600160401b038111156132e7575f8081fd5b6132f58986838b0101612ff4565b8452509183019183016132c9565b5f805f8060808587031215613316575f80fd5b84356001600160401b038082111561332c575f80fd5b613338888389016131c4565b9550602087013591508082111561334d575f80fd5b61335988838901613230565b9450604087013591508082111561336e575f80fd5b5061337b87828801613288565b949793965093946060013593505050565b5f805f805f60a086880312156133a0575f80fd5b853594506133b060208701612efb565b93506133be60408701612efb565b94979396509394606081013594506080013592915050565b634e487b7160e01b5f52602160045260245ffd5b602081016008831061340a57634e487b7160e01b5f52602160045260245ffd5b91905290565b5f8060408385031215613421575f80fd5b82359150602083013561343381613127565b809150509250929050565b5f806040838503121561344f575f80fd5b8235915061345f60208401612efb565b90509250929050565b5f805f805f6080868803121561347c575f80fd5b8535945061348c60208701612efb565b935060408601356001600160401b03808211156134a7575f80fd5b6134b389838a01612f0b565b909550935060608801359150808211156134cb575f80fd5b506134d888828901612ff4565b9150509295509295909350565b5f805f805f60a086880312156134f9575f80fd5b853561350481613127565b9450602086013593506040860135925060608601359150608086013561352981613127565b809150509295509295909350565b5f805f806060858703121561354a575f80fd5b8435935061355a60208601612efb565b925060408501356001600160401b03811115613574575f80fd5b61358087828801612f0b565b95989497509550505050565b5f805f806080858703121561359f575f80fd5b84356001600160401b03808211156135b5575f80fd5b6135c1888389016131c4565b955060208701359150808211156135d6575f80fd5b6135e288838901613230565b945060408701359150808211156135f7575f80fd5b61360388838901613288565b93506060870135915080821115613618575f80fd5b508501601f81018713613629575f80fd5b61319687823560208401612fb9565b5f8151808452602080850194508084015f5b838110156136665781518752958201959082019060010161364a565b509495945050505050565b60ff60f81b8816815260e060208201525f61368f60e08301896130d3565b82810360408401526136a181896130d3565b606084018890526001600160a01b038716608085015260a0840186905283810360c08501529050610a0d8185613638565b5f805f606084860312156136e4575f80fd5b83356136ef81613127565b92506020840135915060408401356001600160401b03811115613710575f80fd5b61371c86828701612ff4565b9150509250925092565b5f60208284031215613736575f80fd5b81356117ad81613127565b5f805f805f60a08688031215613755575f80fd5b853561376081613127565b9450602086013561377081613127565b935060408601356001600160401b038082111561378b575f80fd5b61379789838a01613230565b945060608801359150808211156137ac575f80fd5b6137b889838a01613230565b935060808801359150808211156134cb575f80fd5b5f805f80606085870312156137e0575f80fd5b84356137eb81613127565b93506020850135925060408501356001600160401b03811115613574575f80fd5b5f806040838503121561381d575f80fd5b823561382881613127565b946020939093013593505050565b5f805f805f60a0868803121561384a575f80fd5b853561385581613127565b9450602086013561386581613127565b9350604086013592506060860135915060808601356001600160401b0381111561388d575f80fd5b6134d888828901612ff4565b818382375f9101908152919050565b600181811c908216806138bc57607f821691505b6020821081036138da57634e487b7160e01b5f52602260045260245ffd5b50919050565b60208082526021908201527f476f7665726e6f723a2070726f706f73616c206e6f74207375636365737366756040820152601b60fa1b606082015260800190565b5f60208284031215613931575f80fd5b5051919050565b5f8151808452602080850194508084015f5b838110156136665781516001600160a01b03168752958201959082019060010161394a565b5f81518084526020808501808196508360051b810191508286015f5b858110156139b55782840389526139a38483516130d3565b9885019893509084019060010161398b565b5091979650505050505050565b60a081525f6139d460a0830188613938565b82810360208401526139e68188613638565b905082810360408401526139fa818761396f565b60608401959095525050608001529392505050565b60c081525f613a2160c0830189613938565b8281036020840152613a338189613638565b90508281036040840152613a47818861396f565b60608401969096525050608081019290925260a0909101529392505050565b634e487b7160e01b5f52601160045260245ffd5b8082018082111561091f5761091f613a66565b5f60208284031215613a9d575f80fd5b81516001600160401b03811115613ab2575f80fd5b8201601f81018413613ac2575f80fd5b8051613ad0612fc682612f93565b818152856020838501011115613ae4575f80fd5b611ecb8260208301602086016130b1565b602080825260189082015277476f7665726e6f723a206f6e6c79476f7665726e616e636560401b604082015260600190565b8181038181111561091f5761091f613a66565b60208082526021908201527f476f7665726e6f723a20696e76616c69642070726f706f73616c206c656e67746040820152600d60fb1b606082015260800190565b5f6101208b8352602060018060a01b038c1681850152816040850152613ba38285018c613938565b91508382036060850152613bb7828b613638565b915083820360808501528189518084528284019150828160051b850101838c015f5b83811015613c0757601f19878403018552613bf58383516130d3565b94860194925090850190600101613bd9565b505086810360a0880152613c1b818c61396f565b9450505050508560c08401528460e0840152828103610100840152613c4081856130d3565b9c9b505050505050505050505050565b5f60208284031215613c60575f80fd5b815165ffffffffffff811681146117ad575f80fd5b608081525f613c876080830187613938565b8281036020840152613c998187613638565b90508281036040840152613cad818661396f565b91505082606083015295945050505050565b84815260ff84166020820152826040820152608060608201525f610f1460808301846130d3565b85815260ff8516602082015283604082015260a060608201525f613d0d60a08301856130d3565b8281036080840152613d1f81856130d3565b98975050505050505050565b634e487b7160e01b5f52603260045260245ffd5b5f60018201613d5057613d50613a66565b5060010190565b5f60208284031215613d67575f80fd5b815180151581146117ad575f80fd5b6020808252602b908201527f496e697469616c697a61626c653a20636f6e7472616374206973206e6f74206960408201526a6e697469616c697a696e6760a81b606082015260800190565b601f821115613e06575f81815260208120601f850160051c81016020861015613de75750805b601f850160051c820191505b818110156111b857828155600101613df3565b505050565b81516001600160401b03811115613e2457613e24612f4f565b613e3881613e3284546138a8565b84613dc1565b602080601f831160018114613e6b575f8415613e545750858301515b5f19600386901b1c1916600185901b1785556111b8565b5f85815260208120601f198616915b82811015613e9957888601518255948401946001909101908401613e7a565b5085821015613eb657878501515f19600388901b60f8161c191681555b5050505050600190811b0190555056fe476f7665726e6f723a2072656c617920726576657274656420776974686f7574206d657373616765a2646970667358221220a435986fefb514f25ce5e14312e543f2365903760c7f6ff196c7f93b01228ef164736f6c63430008150033"
}