{
  "contractName": "PublicLock",
  "abi": [
    {
      "constant": true,
      "inputs": [
        {
          "name": "interfaceId",
          "type": "bytes4"
        }
      ],
      "name": "supportsInterface",
      "outputs": [
        {
          "name": "",
          "type": "bool"
        }
      ],
      "payable": false,
      "stateMutability": "view",
      "type": "function"
    },
    {
      "constant": true,
      "inputs": [
        {
          "name": "",
          "type": "uint256"
        }
      ],
      "name": "owners",
      "outputs": [
        {
          "name": "",
          "type": "address"
        }
      ],
      "payable": false,
      "stateMutability": "view",
      "type": "function"
    },
    {
      "constant": true,
      "inputs": [],
      "name": "name",
      "outputs": [
        {
          "name": "",
          "type": "string"
        }
      ],
      "payable": false,
      "stateMutability": "view",
      "type": "function"
    },
    {
      "constant": true,
      "inputs": [
        {
          "name": "_tokenId",
          "type": "uint256"
        }
      ],
      "name": "getApproved",
      "outputs": [
        {
          "name": "",
          "type": "address"
        }
      ],
      "payable": false,
      "stateMutability": "view",
      "type": "function"
    },
    {
      "constant": false,
      "inputs": [
        {
          "name": "_approved",
          "type": "address"
        },
        {
          "name": "_tokenId",
          "type": "uint256"
        }
      ],
      "name": "approve",
      "outputs": [],
      "payable": true,
      "stateMutability": "payable",
      "type": "function"
    },
    {
      "constant": false,
      "inputs": [
        {
          "name": "_beneficiary",
          "type": "address"
        }
      ],
      "name": "updateBeneficiary",
      "outputs": [],
      "payable": false,
      "stateMutability": "nonpayable",
      "type": "function"
    },
    {
      "constant": true,
      "inputs": [],
      "name": "refundPenaltyDenominator",
      "outputs": [
        {
          "name": "",
          "type": "uint256"
        }
      ],
      "payable": false,
      "stateMutability": "view",
      "type": "function"
    },
    {
      "constant": true,
      "inputs": [],
      "name": "refundPenaltyNumerator",
      "outputs": [
        {
          "name": "",
          "type": "uint256"
        }
      ],
      "payable": false,
      "stateMutability": "view",
      "type": "function"
    },
    {
      "constant": true,
      "inputs": [],
      "name": "unlockProtocol",
      "outputs": [
        {
          "name": "",
          "type": "address"
        }
      ],
      "payable": false,
      "stateMutability": "view",
      "type": "function"
    },
    {
      "constant": true,
      "inputs": [
        {
          "name": "_page",
          "type": "uint256"
        },
        {
          "name": "_pageSize",
          "type": "uint256"
        }
      ],
      "name": "getOwnersByPage",
      "outputs": [
        {
          "name": "",
          "type": "address[]"
        }
      ],
      "payable": false,
      "stateMutability": "view",
      "type": "function"
    },
    {
      "constant": true,
      "inputs": [],
      "name": "keyPrice",
      "outputs": [
        {
          "name": "",
          "type": "uint256"
        }
      ],
      "payable": false,
      "stateMutability": "view",
      "type": "function"
    },
    {
      "constant": true,
      "inputs": [],
      "name": "expirationDuration",
      "outputs": [
        {
          "name": "",
          "type": "uint256"
        }
      ],
      "payable": false,
      "stateMutability": "view",
      "type": "function"
    },
    {
      "constant": false,
      "inputs": [
        {
          "name": "",
          "type": "address"
        },
        {
          "name": "",
          "type": "address"
        },
        {
          "name": "",
          "type": "uint256"
        },
        {
          "name": "",
          "type": "bytes"
        }
      ],
      "name": "onERC721Received",
      "outputs": [
        {
          "name": "",
          "type": "bytes4"
        }
      ],
      "payable": false,
      "stateMutability": "nonpayable",
      "type": "function"
    },
    {
      "constant": true,
      "inputs": [],
      "name": "totalSupply",
      "outputs": [
        {
          "name": "",
          "type": "uint256"
        }
      ],
      "payable": false,
      "stateMutability": "view",
      "type": "function"
    },
    {
      "constant": false,
      "inputs": [
        {
          "name": "_keyPrice",
          "type": "uint256"
        }
      ],
      "name": "updateKeyPrice",
      "outputs": [],
      "payable": false,
      "stateMutability": "nonpayable",
      "type": "function"
    },
    {
      "constant": false,
      "inputs": [],
      "name": "cancelAndRefund",
      "outputs": [],
      "payable": false,
      "stateMutability": "nonpayable",
      "type": "function"
    },
    {
      "constant": false,
      "inputs": [
        {
          "name": "_from",
          "type": "address"
        },
        {
          "name": "_recipient",
          "type": "address"
        },
        {
          "name": "_tokenId",
          "type": "uint256"
        }
      ],
      "name": "transferFrom",
      "outputs": [],
      "payable": true,
      "stateMutability": "payable",
      "type": "function"
    },
    {
      "constant": false,
      "inputs": [
        {
          "name": "_amount",
          "type": "uint256"
        }
      ],
      "name": "withdraw",
      "outputs": [],
      "payable": false,
      "stateMutability": "nonpayable",
      "type": "function"
    },
    {
      "constant": false,
      "inputs": [
        {
          "name": "_baseTokenURI",
          "type": "string"
        }
      ],
      "name": "setBaseTokenURI",
      "outputs": [],
      "payable": false,
      "stateMutability": "nonpayable",
      "type": "function"
    },
    {
      "constant": true,
      "inputs": [],
      "name": "beneficiary",
      "outputs": [
        {
          "name": "",
          "type": "address"
        }
      ],
      "payable": false,
      "stateMutability": "view",
      "type": "function"
    },
    {
      "constant": false,
      "inputs": [
        {
          "name": "_refundPenaltyNumerator",
          "type": "uint256"
        },
        {
          "name": "_refundPenaltyDenominator",
          "type": "uint256"
        }
      ],
      "name": "updateRefundPenalty",
      "outputs": [],
      "payable": false,
      "stateMutability": "nonpayable",
      "type": "function"
    },
    {
      "constant": true,
      "inputs": [],
      "name": "numberOfKeysSold",
      "outputs": [
        {
          "name": "",
          "type": "uint256"
        }
      ],
      "payable": false,
      "stateMutability": "view",
      "type": "function"
    },
    {
      "constant": false,
      "inputs": [
        {
          "name": "_transferFeeNumerator",
          "type": "uint256"
        },
        {
          "name": "_transferFeeDenominator",
          "type": "uint256"
        }
      ],
      "name": "updateTransferFee",
      "outputs": [],
      "payable": false,
      "stateMutability": "nonpayable",
      "type": "function"
    },
    {
      "constant": true,
      "inputs": [],
      "name": "isAlive",
      "outputs": [
        {
          "name": "",
          "type": "bool"
        }
      ],
      "payable": false,
      "stateMutability": "view",
      "type": "function"
    },
    {
      "constant": false,
      "inputs": [
        {
          "name": "_from",
          "type": "address"
        },
        {
          "name": "_to",
          "type": "address"
        },
        {
          "name": "_tokenId",
          "type": "uint256"
        }
      ],
      "name": "safeTransferFrom",
      "outputs": [],
      "payable": true,
      "stateMutability": "payable",
      "type": "function"
    },
    {
      "constant": true,
      "inputs": [
        {
          "name": "_a",
          "type": "string"
        },
        {
          "name": "_b",
          "type": "string"
        },
        {
          "name": "_c",
          "type": "string"
        },
        {
          "name": "_d",
          "type": "string"
        }
      ],
      "name": "strConcat",
      "outputs": [
        {
          "name": "_concatenatedString",
          "type": "string"
        }
      ],
      "payable": false,
      "stateMutability": "pure",
      "type": "function"
    },
    {
      "constant": true,
      "inputs": [
        {
          "name": "",
          "type": "address"
        }
      ],
      "name": "keyOwnerToNonce",
      "outputs": [
        {
          "name": "",
          "type": "uint256"
        }
      ],
      "payable": false,
      "stateMutability": "view",
      "type": "function"
    },
    {
      "constant": true,
      "inputs": [
        {
          "name": "_i",
          "type": "uint256"
        }
      ],
      "name": "uint2Str",
      "outputs": [
        {
          "name": "_uintAsString",
          "type": "string"
        }
      ],
      "payable": false,
      "stateMutability": "pure",
      "type": "function"
    },
    {
      "constant": true,
      "inputs": [
        {
          "name": "_owner",
          "type": "address"
        }
      ],
      "name": "getCancelAndRefundValueFor",
      "outputs": [
        {
          "name": "refund",
          "type": "uint256"
        }
      ],
      "payable": false,
      "stateMutability": "view",
      "type": "function"
    },
    {
      "constant": false,
      "inputs": [
        {
          "name": "_lockName",
          "type": "string"
        }
      ],
      "name": "updateLockName",
      "outputs": [],
      "payable": false,
      "stateMutability": "nonpayable",
      "type": "function"
    },
    {
      "constant": true,
      "inputs": [
        {
          "name": "_addr",
          "type": "address"
        }
      ],
      "name": "address2Str",
      "outputs": [
        {
          "name": "",
          "type": "string"
        }
      ],
      "payable": false,
      "stateMutability": "pure",
      "type": "function"
    },
    {
      "constant": false,
      "inputs": [],
      "name": "incrementNonce",
      "outputs": [],
      "payable": false,
      "stateMutability": "nonpayable",
      "type": "function"
    },
    {
      "constant": true,
      "inputs": [
        {
          "name": "_tokenId",
          "type": "uint256"
        }
      ],
      "name": "ownerOf",
      "outputs": [
        {
          "name": "",
          "type": "address"
        }
      ],
      "payable": false,
      "stateMutability": "view",
      "type": "function"
    },
    {
      "constant": true,
      "inputs": [
        {
          "name": "_owner",
          "type": "address"
        }
      ],
      "name": "getHasValidKey",
      "outputs": [
        {
          "name": "",
          "type": "bool"
        }
      ],
      "payable": false,
      "stateMutability": "view",
      "type": "function"
    },
    {
      "constant": true,
      "inputs": [
        {
          "name": "_owner",
          "type": "address"
        }
      ],
      "name": "balanceOf",
      "outputs": [
        {
          "name": "",
          "type": "uint256"
        }
      ],
      "payable": false,
      "stateMutability": "view",
      "type": "function"
    },
    {
      "constant": false,
      "inputs": [
        {
          "name": "_recipient",
          "type": "address"
        },
        {
          "name": "_referrer",
          "type": "address"
        }
      ],
      "name": "purchaseForFrom",
      "outputs": [],
      "payable": true,
      "stateMutability": "payable",
      "type": "function"
    },
    {
      "constant": false,
      "inputs": [],
      "name": "renounceOwnership",
      "outputs": [],
      "payable": false,
      "stateMutability": "nonpayable",
      "type": "function"
    },
    {
      "constant": true,
      "inputs": [],
      "name": "maxNumberOfKeys",
      "outputs": [
        {
          "name": "",
          "type": "uint256"
        }
      ],
      "payable": false,
      "stateMutability": "view",
      "type": "function"
    },
    {
      "constant": false,
      "inputs": [
        {
          "name": "_lockSymbol",
          "type": "string"
        }
      ],
      "name": "updateLockSymbol",
      "outputs": [],
      "payable": false,
      "stateMutability": "nonpayable",
      "type": "function"
    },
    {
      "constant": false,
      "inputs": [
        {
          "name": "_recipients",
          "type": "address[]"
        },
        {
          "name": "_expirationTimestamps",
          "type": "uint256[]"
        }
      ],
      "name": "grantKeys",
      "outputs": [],
      "payable": false,
      "stateMutability": "nonpayable",
      "type": "function"
    },
    {
      "constant": true,
      "inputs": [
        {
          "name": "_owner",
          "type": "address"
        }
      ],
      "name": "getTransferFee",
      "outputs": [
        {
          "name": "",
          "type": "uint256"
        }
      ],
      "payable": false,
      "stateMutability": "view",
      "type": "function"
    },
    {
      "constant": true,
      "inputs": [
        {
          "name": "_keyOwner",
          "type": "address"
        },
        {
          "name": "_txSender",
          "type": "address"
        }
      ],
      "name": "getCancelAndRefundApprovalHash",
      "outputs": [
        {
          "name": "approvalHash",
          "type": "bytes32"
        }
      ],
      "payable": false,
      "stateMutability": "view",
      "type": "function"
    },
    {
      "constant": true,
      "inputs": [],
      "name": "owner",
      "outputs": [
        {
          "name": "",
          "type": "address"
        }
      ],
      "payable": false,
      "stateMutability": "view",
      "type": "function"
    },
    {
      "constant": true,
      "inputs": [],
      "name": "isOwner",
      "outputs": [
        {
          "name": "",
          "type": "bool"
        }
      ],
      "payable": false,
      "stateMutability": "view",
      "type": "function"
    },
    {
      "constant": true,
      "inputs": [],
      "name": "transferFeeNumerator",
      "outputs": [
        {
          "name": "",
          "type": "uint256"
        }
      ],
      "payable": false,
      "stateMutability": "view",
      "type": "function"
    },
    {
      "constant": true,
      "inputs": [],
      "name": "numberOfOwners",
      "outputs": [
        {
          "name": "",
          "type": "uint256"
        }
      ],
      "payable": false,
      "stateMutability": "view",
      "type": "function"
    },
    {
      "constant": true,
      "inputs": [],
      "name": "symbol",
      "outputs": [
        {
          "name": "",
          "type": "string"
        }
      ],
      "payable": false,
      "stateMutability": "view",
      "type": "function"
    },
    {
      "constant": true,
      "inputs": [
        {
          "name": "_account",
          "type": "address"
        }
      ],
      "name": "getTokenIdFor",
      "outputs": [
        {
          "name": "",
          "type": "uint256"
        }
      ],
      "payable": false,
      "stateMutability": "view",
      "type": "function"
    },
    {
      "constant": true,
      "inputs": [
        {
          "name": "_tokenId",
          "type": "uint256"
        },
        {
          "name": "_owner",
          "type": "address"
        }
      ],
      "name": "isKeyOwner",
      "outputs": [
        {
          "name": "",
          "type": "bool"
        }
      ],
      "payable": false,
      "stateMutability": "view",
      "type": "function"
    },
    {
      "constant": false,
      "inputs": [
        {
          "name": "_recipient",
          "type": "address"
        },
        {
          "name": "_expirationTimestamp",
          "type": "uint256"
        }
      ],
      "name": "grantKey",
      "outputs": [],
      "payable": false,
      "stateMutability": "nonpayable",
      "type": "function"
    },
    {
      "constant": true,
      "inputs": [],
      "name": "tokenAddress",
      "outputs": [
        {
          "name": "",
          "type": "address"
        }
      ],
      "payable": false,
      "stateMutability": "view",
      "type": "function"
    },
    {
      "constant": false,
      "inputs": [
        {
          "name": "_owner",
          "type": "address"
        }
      ],
      "name": "expireKeyFor",
      "outputs": [],
      "payable": false,
      "stateMutability": "nonpayable",
      "type": "function"
    },
    {
      "constant": false,
      "inputs": [
        {
          "name": "_to",
          "type": "address"
        },
        {
          "name": "_approved",
          "type": "bool"
        }
      ],
      "name": "setApprovalForAll",
      "outputs": [],
      "payable": false,
      "stateMutability": "nonpayable",
      "type": "function"
    },
    {
      "constant": false,
      "inputs": [],
      "name": "destroyLock",
      "outputs": [],
      "payable": false,
      "stateMutability": "nonpayable",
      "type": "function"
    },
    {
      "constant": true,
      "inputs": [
        {
          "name": "_owner",
          "type": "address"
        }
      ],
      "name": "keyExpirationTimestampFor",
      "outputs": [
        {
          "name": "timestamp",
          "type": "uint256"
        }
      ],
      "payable": false,
      "stateMutability": "view",
      "type": "function"
    },
    {
      "constant": false,
      "inputs": [
        {
          "name": "_from",
          "type": "address"
        },
        {
          "name": "_to",
          "type": "address"
        },
        {
          "name": "_tokenId",
          "type": "uint256"
        },
        {
          "name": "_data",
          "type": "bytes"
        }
      ],
      "name": "safeTransferFrom",
      "outputs": [],
      "payable": true,
      "stateMutability": "payable",
      "type": "function"
    },
    {
      "constant": false,
      "inputs": [
        {
          "name": "_keyOwner",
          "type": "address"
        },
        {
          "name": "_signature",
          "type": "bytes"
        }
      ],
      "name": "cancelAndRefundFor",
      "outputs": [],
      "payable": false,
      "stateMutability": "nonpayable",
      "type": "function"
    },
    {
      "constant": false,
      "inputs": [],
      "name": "disableLock",
      "outputs": [],
      "payable": false,
      "stateMutability": "nonpayable",
      "type": "function"
    },
    {
      "constant": false,
      "inputs": [
        {
          "name": "sender",
          "type": "address"
        }
      ],
      "name": "initialize",
      "outputs": [],
      "payable": false,
      "stateMutability": "nonpayable",
      "type": "function"
    },
    {
      "constant": true,
      "inputs": [
        {
          "name": "_tokenId",
          "type": "uint256"
        }
      ],
      "name": "tokenURI",
      "outputs": [
        {
          "name": "",
          "type": "string"
        }
      ],
      "payable": false,
      "stateMutability": "view",
      "type": "function"
    },
    {
      "constant": true,
      "inputs": [],
      "name": "transferFeeDenominator",
      "outputs": [
        {
          "name": "",
          "type": "uint256"
        }
      ],
      "payable": false,
      "stateMutability": "view",
      "type": "function"
    },
    {
      "constant": true,
      "inputs": [
        {
          "name": "_owner",
          "type": "address"
        },
        {
          "name": "_operator",
          "type": "address"
        }
      ],
      "name": "isApprovedForAll",
      "outputs": [
        {
          "name": "",
          "type": "bool"
        }
      ],
      "payable": false,
      "stateMutability": "view",
      "type": "function"
    },
    {
      "constant": false,
      "inputs": [
        {
          "name": "newOwner",
          "type": "address"
        }
      ],
      "name": "transferOwnership",
      "outputs": [],
      "payable": false,
      "stateMutability": "nonpayable",
      "type": "function"
    },
    {
      "constant": false,
      "inputs": [
        {
          "name": "_recipient",
          "type": "address"
        }
      ],
      "name": "purchaseFor",
      "outputs": [],
      "payable": true,
      "stateMutability": "payable",
      "type": "function"
    },
    {
      "constant": true,
      "inputs": [
        {
          "name": "_account",
          "type": "address"
        }
      ],
      "name": "getBalance",
      "outputs": [
        {
          "name": "",
          "type": "uint256"
        }
      ],
      "payable": false,
      "stateMutability": "view",
      "type": "function"
    },
    {
      "constant": false,
      "inputs": [
        {
          "name": "_recipients",
          "type": "address[]"
        },
        {
          "name": "_expirationTimestamp",
          "type": "uint256"
        }
      ],
      "name": "grantKeys",
      "outputs": [],
      "payable": false,
      "stateMutability": "nonpayable",
      "type": "function"
    },
    {
      "inputs": [
        {
          "name": "_owner",
          "type": "address"
        },
        {
          "name": "_expirationDuration",
          "type": "uint256"
        },
        {
          "name": "_tokenAddress",
          "type": "address"
        },
        {
          "name": "_keyPrice",
          "type": "uint256"
        },
        {
          "name": "_maxNumberOfKeys",
          "type": "uint256"
        },
        {
          "name": "_lockName",
          "type": "string"
        }
      ],
      "payable": false,
      "stateMutability": "nonpayable",
      "type": "constructor"
    },
    {
      "payable": false,
      "stateMutability": "nonpayable",
      "type": "fallback"
    },
    {
      "anonymous": false,
      "inputs": [
        {
          "indexed": true,
          "name": "tokenId",
          "type": "uint256"
        },
        {
          "indexed": true,
          "name": "owner",
          "type": "address"
        },
        {
          "indexed": true,
          "name": "sendTo",
          "type": "address"
        },
        {
          "indexed": false,
          "name": "refund",
          "type": "uint256"
        }
      ],
      "name": "CancelKey",
      "type": "event"
    },
    {
      "anonymous": false,
      "inputs": [
        {
          "indexed": false,
          "name": "oldRefundPenaltyNumerator",
          "type": "uint256"
        },
        {
          "indexed": false,
          "name": "oldRefundPenaltyDenominator",
          "type": "uint256"
        },
        {
          "indexed": false,
          "name": "refundPenaltyNumerator",
          "type": "uint256"
        },
        {
          "indexed": false,
          "name": "refundPenaltyDenominator",
          "type": "uint256"
        }
      ],
      "name": "RefundPenaltyChanged",
      "type": "event"
    },
    {
      "anonymous": false,
      "inputs": [
        {
          "indexed": false,
          "name": "oldTransferFeeNumerator",
          "type": "uint256"
        },
        {
          "indexed": false,
          "name": "oldTransferFeeDenominator",
          "type": "uint256"
        },
        {
          "indexed": false,
          "name": "transferFeeNumerator",
          "type": "uint256"
        },
        {
          "indexed": false,
          "name": "transferFeeDenominator",
          "type": "uint256"
        }
      ],
      "name": "TransferFeeChanged",
      "type": "event"
    },
    {
      "anonymous": false,
      "inputs": [
        {
          "indexed": false,
          "name": "symbol",
          "type": "string"
        }
      ],
      "name": "NewLockSymbol",
      "type": "event"
    },
    {
      "anonymous": false,
      "inputs": [
        {
          "indexed": false,
          "name": "tokenId",
          "type": "uint256"
        }
      ],
      "name": "ExpireKey",
      "type": "event"
    },
    {
      "anonymous": false,
      "inputs": [
        {
          "indexed": false,
          "name": "oldKeyPrice",
          "type": "uint256"
        },
        {
          "indexed": false,
          "name": "keyPrice",
          "type": "uint256"
        }
      ],
      "name": "PriceChanged",
      "type": "event"
    },
    {
      "anonymous": false,
      "inputs": [
        {
          "indexed": true,
          "name": "sender",
          "type": "address"
        },
        {
          "indexed": true,
          "name": "beneficiary",
          "type": "address"
        },
        {
          "indexed": false,
          "name": "amount",
          "type": "uint256"
        }
      ],
      "name": "Withdrawal",
      "type": "event"
    },
    {
      "anonymous": false,
      "inputs": [
        {
          "indexed": false,
          "name": "balance",
          "type": "uint256"
        },
        {
          "indexed": true,
          "name": "owner",
          "type": "address"
        }
      ],
      "name": "Destroy",
      "type": "event"
    },
    {
      "anonymous": false,
      "inputs": [],
      "name": "Disable",
      "type": "event"
    },
    {
      "anonymous": false,
      "inputs": [
        {
          "indexed": true,
          "name": "previousOwner",
          "type": "address"
        },
        {
          "indexed": true,
          "name": "newOwner",
          "type": "address"
        }
      ],
      "name": "OwnershipTransferred",
      "type": "event"
    },
    {
      "anonymous": false,
      "inputs": [
        {
          "indexed": true,
          "name": "_from",
          "type": "address"
        },
        {
          "indexed": true,
          "name": "_to",
          "type": "address"
        },
        {
          "indexed": true,
          "name": "_tokenId",
          "type": "uint256"
        }
      ],
      "name": "Transfer",
      "type": "event"
    },
    {
      "anonymous": false,
      "inputs": [
        {
          "indexed": true,
          "name": "_owner",
          "type": "address"
        },
        {
          "indexed": true,
          "name": "_approved",
          "type": "address"
        },
        {
          "indexed": true,
          "name": "_tokenId",
          "type": "uint256"
        }
      ],
      "name": "Approval",
      "type": "event"
    },
    {
      "anonymous": false,
      "inputs": [
        {
          "indexed": true,
          "name": "_owner",
          "type": "address"
        },
        {
          "indexed": true,
          "name": "_operator",
          "type": "address"
        },
        {
          "indexed": false,
          "name": "_approved",
          "type": "bool"
        }
      ],
      "name": "ApprovalForAll",
      "type": "event"
    },
    {
      "constant": true,
      "inputs": [],
      "name": "publicLockVersion",
      "outputs": [
        {
          "name": "",
          "type": "uint16"
        }
      ],
      "payable": false,
      "stateMutability": "pure",
      "type": "function"
    }
  ],
  "bytecode": "0x6080604052600060765560646077556001607855600a6079553480156200002557600080fd5b5060405162004af138038062004af1833981810160405260c08110156200004b57600080fd5b8151602083015160408401516060850151608086015160a087018051959794969395929491938201926401000000008111156200008757600080fd5b820160208101848111156200009b57600080fd5b8151640100000000811182820187101715620000b657600080fd5b50909350839250889150879050858588620000fa7f01ffc9a7000000000000000000000000000000000000000000000000000000006001600160e01b036200037316565b6001600160a01b03811615806200017857506000816001600160a01b03166318160ddd6040518163ffffffff1660e01b815260040160206040518083038186803b1580156200014857600080fd5b505afa1580156200015d573d6000803e3d6000fd5b505050506040513d60208110156200017457600080fd5b5051115b620001e457604080517f08c379a000000000000000000000000000000000000000000000000000000000815260206004820152600d60248201527f494e56414c49445f544f4b454e00000000000000000000000000000000000000604482015290519081900360640190fd5b6067805460ff60a01b196001600160a01b039093166001600160a01b031990911617919091167401000000000000000000000000000000000000000017905563bbf81e008311156200029757604080517f08c379a000000000000000000000000000000000000000000000000000000000815260206004820152601860248201527f4d41585f45585049524154494f4e5f3130305f59454152530000000000000000604482015290519081900360640190fd5b60688054336001600160a01b031991821617909155606d80549091166001600160a01b039590951694909417909355606991909155606a55606b558051620002e790607190602084019062000565565b506200031c7f5b5e139f000000000000000000000000000000000000000000000000000000006001600160e01b036200037316565b50620003517f80ac58cd000000000000000000000000000000000000000000000000000000006001600160e01b036200037316565b62000367866200044260201b620030891760201c565b50505050505062000607565b7fffffffff0000000000000000000000000000000000000000000000000000000080821614156200040557604080517f08c379a000000000000000000000000000000000000000000000000000000000815260206004820152601c60248201527f4552433136353a20696e76616c696420696e7465726661636520696400000000604482015290519081900360640190fd5b7fffffffff00000000000000000000000000000000000000000000000000000000166000908152602081905260409020805460ff19166001179055565b600154610100900460ff1680620004675750620004676001600160e01b036200055e16565b8062000476575060015460ff16155b620004cd576040517f08c379a000000000000000000000000000000000000000000000000000000000815260040180806020018281038252602e81526020018062004ac3602e913960400191505060405180910390fd5b600154610100900460ff16158015620004f8576001805460ff1961ff00199091166101001716811790555b603480546001600160a01b0319166001600160a01b0384811691909117918290556040519116906000907f8be0079c531659141344cd1fd0a4f28419497f9722a3daafe3b4186f6b6457e0908290a380156200055a576001805461ff00191690555b5050565b303b155b90565b828054600181600116156101000203166002900490600052602060002090601f016020900481019282601f10620005a857805160ff1916838001178555620005d8565b82800160010185558215620005d8579182015b82811115620005d8578251825591602001919060010190620005bb565b50620005e6929150620005ea565b5090565b6200056291905b80821115620005e65760008155600101620005f1565b6144ac80620006176000396000f3fe6080604052600436106103e45760003560e01c80636d8ea5b4116102085780639d76ea5811610118578063c4d66de8116100ab578063e985e9c51161007a578063e985e9c5146113c6578063f2fde38b14611401578063f6e4641f14611434578063f8b2cb4f1461145a578063f8faf9421461148d576103e4565b8063c4d66de814611328578063c87b56dd1461135b578063d1bbd49c14611385578063d42cfc41146113b1576103e4565b8063abdf82ce116100e7578063abdf82ce14611191578063b88d4fde146111c4578063b8968bb414611288578063c1c98d0314611313576103e4565b80639d76ea58146110f95780639f98d3cb1461110e578063a22cb46514611141578063a843a4e71461117c576103e4565b80638d0361fc1161019b57806393fd18441161016a57806393fd18441461102a57806395d89b411461103f578063970aaeb714611054578063994a8a71146110875780639b3f0b17146110c0576103e4565b80638d0361fc14610fb05780638da5cb5b14610feb5780638f32d59b146110005780638f98ce8f14611015576103e4565b806374b6c106116101d757806374b6c10614610e22578063782a4ade14610e375780637c7c425314610eb257806383cb0fa914610f7d576103e4565b80636d8ea5b414610d7957806370a0823114610dac57806370efb77014610ddf578063715018a614610e0d576103e4565b806323b872dd1161030357806342842e0e1161029657806352d6a8e41161026557806352d6a8e414610c59578063550ef3a814610c8c5780635fdb97e114610d07578063627cdcb914610d3a5780636352211e14610d4f576103e4565b806342842e0e1461098657806345e965cd146109bc5780634bc5a13514610bfc5780634c7a12a014610c2f576103e4565b806339f46986116102d257806339f46986146108fc5780633ba70e311461092c5780633d3359cb146109415780634136aa3514610971576103e4565b806323b872dd1461080c5780632e1a7d4d1461084257806330176e131461086c57806338af3eed146108e7576103e4565b80630f15023b1161037b578063150b7a021161034a578063150b7a02146106ca57806318160ddd146107b85780631f1ec029146107cd5780632009dc65146107f7576103e4565b80630f15023b1461060b57806310803b721461062057806310e56973146106a057806311a4c03a146106b5576103e4565b8063095ea7b3116103b7578063095ea7b31461056e5780630aaffd2a1461059c5780630c79130f146105cf5780630ed3e2cc146105f6576103e4565b806301ffc9a71461042c578063025e7c271461047457806306fdde03146104ba578063081812fc14610544575b3480156103f057600080fd5b506040805162461bcd60e51b815260206004820152600b60248201526a4e4f5f46414c4c4241434b60a81b604482015290519081900360640190fd5b34801561043857600080fd5b506104606004803603602081101561044f57600080fd5b50356001600160e01b031916611508565b604080519115158252519081900360200190f35b34801561048057600080fd5b5061049e6004803603602081101561049757600080fd5b503561152b565b604080516001600160a01b039092168252519081900360200190f35b3480156104c657600080fd5b506104cf611552565b6040805160208082528351818301528351919283929083019185019080838360005b838110156105095781810151838201526020016104f1565b50505050905090810190601f1680156105365780820380516001836020036101000a031916815260200191505b509250505060405180910390f35b34801561055057600080fd5b5061049e6004803603602081101561056757600080fd5b50356115e9565b61059a6004803603604081101561058457600080fd5b506001600160a01b0381351690602001356115fa565b005b3480156105a857600080fd5b5061059a600480360360208110156105bf57600080fd5b50356001600160a01b0316611787565b3480156105db57600080fd5b506105e4611878565b60408051918252519081900360200190f35b34801561060257600080fd5b506105e461187e565b34801561061757600080fd5b5061049e611884565b34801561062c57600080fd5b506106506004803603604081101561064357600080fd5b5080359060200135611893565b60408051602080825283518183015283519192839290830191858101910280838360005b8381101561068c578181015183820152602001610674565b505050509050019250505060405180910390f35b3480156106ac57600080fd5b506105e46119ab565b3480156106c157600080fd5b506105e46119b1565b3480156106d657600080fd5b5061079b600480360360808110156106ed57600080fd5b6001600160a01b03823581169260208101359091169160408201359190810190608081016060820135600160201b81111561072757600080fd5b82018360208201111561073957600080fd5b803590602001918460018302840111600160201b8311171561075a57600080fd5b91908080601f0160208091040260200160405190810160405280939291908181526020018383808284376000920191909152509295506119b7945050505050565b604080516001600160e01b03199092168252519081900360200190f35b3480156107c457600080fd5b506105e46119c8565b3480156107d957600080fd5b5061059a600480360360208110156107f057600080fd5b50356119ce565b34801561080357600080fd5b5061059a611a76565b61059a6004803603606081101561082257600080fd5b506001600160a01b03813581169160208101359091169060400135611a81565b34801561084e57600080fd5b5061059a6004803603602081101561086557600080fd5b5035611ccb565b34801561087857600080fd5b5061059a6004803603602081101561088f57600080fd5b810190602081018135600160201b8111156108a957600080fd5b8201836020820111156108bb57600080fd5b803590602001918460018302840111600160201b831117156108dc57600080fd5b509092509050611e1f565b3480156108f357600080fd5b5061049e611e3c565b34801561090857600080fd5b5061059a6004803603604081101561091f57600080fd5b5080359060200135611e4b565b34801561093857600080fd5b506105e4611ef5565b34801561094d57600080fd5b5061059a6004803603604081101561096457600080fd5b5080359060200135611efb565b34801561097d57600080fd5b50610460611fa5565b61059a6004803603606081101561099c57600080fd5b506001600160a01b03813581169160208101359091169060400135611fb5565b3480156109c857600080fd5b506104cf600480360360808110156109df57600080fd5b810190602081018135600160201b8111156109f957600080fd5b820183602082011115610a0b57600080fd5b803590602001918460018302840111600160201b83111715610a2c57600080fd5b91908080601f0160208091040260200160405190810160405280939291908181526020018383808284376000920191909152509295949360208101935035915050600160201b811115610a7e57600080fd5b820183602082011115610a9057600080fd5b803590602001918460018302840111600160201b83111715610ab157600080fd5b91908080601f0160208091040260200160405190810160405280939291908181526020018383808284376000920191909152509295949360208101935035915050600160201b811115610b0357600080fd5b820183602082011115610b1557600080fd5b803590602001918460018302840111600160201b83111715610b3657600080fd5b91908080601f0160208091040260200160405190810160405280939291908181526020018383808284376000920191909152509295949360208101935035915050600160201b811115610b8857600080fd5b820183602082011115610b9a57600080fd5b803590602001918460018302840111600160201b83111715610bbb57600080fd5b91908080601f016020809104026020016040519081016040528093929190818152602001838380828437600092019190915250929550611fd0945050505050565b348015610c0857600080fd5b506105e460048036036020811015610c1f57600080fd5b50356001600160a01b0316612185565b348015610c3b57600080fd5b506104cf60048036036020811015610c5257600080fd5b5035612197565b348015610c6557600080fd5b506105e460048036036020811015610c7c57600080fd5b50356001600160a01b031661225b565b348015610c9857600080fd5b5061059a60048036036020811015610caf57600080fd5b810190602081018135600160201b811115610cc957600080fd5b820183602082011115610cdb57600080fd5b803590602001918460018302840111600160201b83111715610cfc57600080fd5b509092509050612266565b348015610d1357600080fd5b506104cf60048036036020811015610d2a57600080fd5b50356001600160a01b0316612283565b348015610d4657600080fd5b5061059a6123ff565b348015610d5b57600080fd5b5061049e60048036036020811015610d7257600080fd5b5035612417565b348015610d8557600080fd5b5061046060048036036020811015610d9c57600080fd5b50356001600160a01b031661248d565b348015610db857600080fd5b506105e460048036036020811015610dcf57600080fd5b50356001600160a01b03166124ad565b61059a60048036036040811015610df557600080fd5b506001600160a01b038135811691602001351661251c565b348015610e1957600080fd5b5061059a6125c1565b348015610e2e57600080fd5b506105e461261c565b348015610e4357600080fd5b5061059a60048036036020811015610e5a57600080fd5b810190602081018135600160201b811115610e7457600080fd5b820183602082011115610e8657600080fd5b803590602001918460018302840111600160201b83111715610ea757600080fd5b509092509050612622565b348015610ebe57600080fd5b5061059a60048036036040811015610ed557600080fd5b810190602081018135600160201b811115610eef57600080fd5b820183602082011115610f0157600080fd5b803590602001918460208302840111600160201b83111715610f2257600080fd5b919390929091602081019035600160201b811115610f3f57600080fd5b820183602082011115610f5157600080fd5b803590602001918460208302840111600160201b83111715610f7257600080fd5b5090925090506126a4565b348015610f8957600080fd5b506105e460048036036020811015610fa057600080fd5b50356001600160a01b0316612706565b348015610fbc57600080fd5b506105e460048036036040811015610fd357600080fd5b506001600160a01b03813581169160200135166127c9565b348015610ff757600080fd5b5061049e61282d565b34801561100c57600080fd5b5061046061283c565b34801561102157600080fd5b506105e461284d565b34801561103657600080fd5b506105e4612853565b34801561104b57600080fd5b506104cf612859565b34801561106057600080fd5b506105e46004803603602081101561107757600080fd5b50356001600160a01b03166129e4565b34801561109357600080fd5b50610460600480360360408110156110aa57600080fd5b50803590602001356001600160a01b0316612a4e565b3480156110cc57600080fd5b5061059a600480360360408110156110e357600080fd5b506001600160a01b038135169060200135612a6f565b34801561110557600080fd5b5061049e612a8e565b34801561111a57600080fd5b5061059a6004803603602081101561113157600080fd5b50356001600160a01b0316612a9d565b34801561114d57600080fd5b5061059a6004803603604081101561116457600080fd5b506001600160a01b0381351690602001351515612b54565b34801561118857600080fd5b5061059a612c5f565b34801561119d57600080fd5b506105e4600480360360208110156111b457600080fd5b50356001600160a01b0316612d0b565b61059a600480360360808110156111da57600080fd5b6001600160a01b03823581169260208101359091169160408201359190810190608081016060820135600160201b81111561121457600080fd5b82018360208201111561122657600080fd5b803590602001918460018302840111600160201b8311171561124757600080fd5b91908080601f016020809104026020016040519081016040528093929190818152602001838380828437600092019190915250929550612d90945050505050565b34801561129457600080fd5b5061059a600480360360408110156112ab57600080fd5b6001600160a01b038235169190810190604081016020820135600160201b8111156112d557600080fd5b8201836020820111156112e757600080fd5b803590602001918460018302840111600160201b8311171561130857600080fd5b509092509050612f1e565b34801561131f57600080fd5b5061059a612ff0565b34801561133457600080fd5b5061059a6004803603602081101561134b57600080fd5b50356001600160a01b0316613089565b34801561136757600080fd5b506104cf6004803603602081101561137e57600080fd5b5035613179565b34801561139157600080fd5b5061139a613391565b6040805161ffff9092168252519081900360200190f35b3480156113bd57600080fd5b506105e4613396565b3480156113d257600080fd5b50610460600480360360408110156113e957600080fd5b506001600160a01b038135811691602001351661339c565b34801561140d57600080fd5b5061059a6004803603602081101561142457600080fd5b50356001600160a01b03166133ca565b61059a6004803603602081101561144a57600080fd5b50356001600160a01b03166133e7565b34801561146657600080fd5b506105e46004803603602081101561147d57600080fd5b50356001600160a01b0316613442565b34801561149957600080fd5b5061059a600480360360408110156114b057600080fd5b810190602081018135600160201b8111156114ca57600080fd5b8201836020820111156114dc57600080fd5b803590602001918460208302840111600160201b831117156114fd57600080fd5b9193509150356134e6565b6001600160e01b0319811660009081526020819052604090205460ff165b919050565b6070818154811061153857fe5b6000918252602090912001546001600160a01b0316905081565b60718054604080516020601f60026000196101006001881615020190951694909404938401819004810282018101909252828152606093909290918301828280156115de5780601f106115b3576101008083540402835291602001916115de565b820191906000526020600020905b8154815290600101906020018083116115c157829003601f168201915b505050505090505b90565b60006115f482613535565b92915050565b606754600160a01b900460ff1661164a576040805162461bcd60e51b815260206004820152600f60248201526e1313d0d2d7d11154149150d0551151608a1b604482015290519081900360640190fd5b806116558133612a4e565b806116655750611665813361358f565b8061167d575061167d61167782612417565b3361339c565b6116cb576040805162461bcd60e51b815260206004820152601a60248201527913d3931657d2d15657d3d5d3915497d3d497d054141493d5915160321b604482015290519081900360640190fd5b336001600160a01b0384161415611718576040805162461bcd60e51b815260206004820152600c60248201526b20a8282927ab22afa9a2a62360a11b604482015290519081900360640190fd5b600082815260746020526040902080546001600160a01b0319166001600160a01b038516908117909155829061174d82612417565b6001600160a01b03167f8c5be1e5ebec7d5bd14f71427d1e84f3dd0314c0f7b2291e5b200ac8c7c3b92560405160405180910390a4505050565b61178f61282d565b6001600160a01b0316336001600160a01b031614806117b85750606d546001600160a01b031633145b611809576040805162461bcd60e51b815260206004820152601e60248201527f4f4e4c595f4c4f434b5f4f574e45525f4f525f42454e45464943494152590000604482015290519081900360640190fd5b6001600160a01b038116611856576040805162461bcd60e51b815260206004820152600f60248201526e494e56414c49445f4144445245535360881b604482015290519081900360640190fd5b606d80546001600160a01b0319166001600160a01b0392909216919091179055565b60795481565b60785481565b6068546001600160a01b031681565b6070546060906118e0576040805162461bcd60e51b81526020600482015260136024820152724e4f5f4f55545354414e44494e475f4b45595360681b604482015290519081900360640190fd5b607054829084820290600090828401111561190357506070548181039250611908565b508082015b606083604051908082528060200260200182016040528015611934578160200160208202803883390190505b5090506000835b8381101561199e576070818154811061195057fe5b9060005260206000200160009054906101000a90046001600160a01b031683838151811061197a57fe5b6001600160a01b03909216602092830291909101909101526001918201910161193b565b5090979650505050505050565b606a5481565b60695481565b630a85bd0160e11b5b949350505050565b606c5490565b6119d661283c565b6119df57600080fd5b606754600160a01b900460ff16611a2f576040805162461bcd60e51b815260206004820152600f60248201526e1313d0d2d7d11154149150d0551151608a1b604482015290519081900360640190fd5b606a805490829055604080518281526020810184905281517f8aa4fa52648a6d15edce8a179c792c86f3719d0cc3c572cf90f91948f0f2cb68929181900390910190a15050565b611a7f336135b0565b565b606754600160a01b900460ff16611ad1576040805162461bcd60e51b815260206004820152600f60248201526e1313d0d2d7d11154149150d0551151608a1b604482015290519081900360640190fd5b82611adb8161248d565b611b1c576040805162461bcd60e51b815260206004820152600d60248201526c12d15657d393d517d590531251609a1b604482015290519081900360640190fd5b81611b278133612a4e565b80611b375750611b37813361358f565b80611b495750611b4961167782612417565b611b97576040805162461bcd60e51b815260206004820152601a60248201527913d3931657d2d15657d3d5d3915497d3d497d054141493d5915160321b604482015290519081900360640190fd5b6001600160a01b038416611be4576040805162461bcd60e51b815260206004820152600f60248201526e494e56414c49445f4144445245535360881b604482015290519081900360640190fd5b611bf5611bf086612706565b613625565b6000611c0086613842565b90506000611c0d86613842565b6001810154815491925090611c2c578254808355611c2c90889061385c565b428111611c50576001808401549083015582548255611c4b878761385c565b611c6d565b6001830154611c679042830363ffffffff6138e316565b60018301555b42600184015560008355611c8086613944565b85876001600160a01b0316896001600160a01b03167fddf252ad1be2c89b69c2b068fc378daa952ba7f163c4a11628f55a4df523b3ef60405160405180910390a45050505050505050565b611cd361282d565b6001600160a01b0316336001600160a01b03161480611cfc5750606d546001600160a01b031633145b611d4d576040805162461bcd60e51b815260206004820152601e60248201527f4f4e4c595f4c4f434b5f4f574e45525f4f525f42454e45464943494152590000604482015290519081900360640190fd5b6000611d5830613442565b90506000821580611d6857508183115b15611dbc5760008211611db5576040805162461bcd60e51b815260206004820152601060248201526f4e4f545f454e4f5547485f46554e445360801b604482015290519081900360640190fd5b5080611dbf565b50815b606d546040805183815290516001600160a01b039092169133917f2717ead6b9200dd235aad468c9809ea400fe33ac69b5bfaa6d3e90fc922b6398919081900360200190a3606d54611e1a906001600160a01b03168261397f565b505050565b611e2761283c565b611e3057600080fd5b611e1a60738383614390565b606d546001600160a01b031681565b611e5361283c565b611e5c57600080fd5b80611e9d576040805162461bcd60e51b815260206004820152600c60248201526b494e56414c49445f5241544560a01b604482015290519081900360640190fd5b60785460795460408051928352602083019190915281810184905260608201839052517fa7d13855fe99b8c8b2780f36ff9e06133878b66a664a951b2375fe2296cc00089181900360800190a1607891909155607955565b606c5481565b611f0361283c565b611f0c57600080fd5b80611f4d576040805162461bcd60e51b815260206004820152600c60248201526b494e56414c49445f5241544560a01b604482015290519081900360640190fd5b60765460775460408051928352602083019190915281810184905260608201839052517ff0cc3b8bd450a20cce7720453e064b35cf490baa5d53c7c6ef8b2e1b02898a7d9181900360800190a1607691909155607755565b606754600160a01b900460ff1681565b611e1a83838360405180602001604052806000815250612d90565b606080859050606085905060608590506060859050606081518351855187510101016040519080825280601f01601f19166020018201604052801561201c576020820181803883390190505b509050806000805b87518110156120755787818151811061203957fe5b602001015160f81c60f81b83838060010194508151811061205657fe5b60200101906001600160f81b031916908160001a905350600101612024565b5060005b86518110156120ca5786818151811061208e57fe5b602001015160f81c60f81b8383806001019450815181106120ab57fe5b60200101906001600160f81b031916908160001a905350600101612079565b5060005b855181101561211f578581815181106120e357fe5b602001015160f81c60f81b83838060010194508151811061210057fe5b60200101906001600160f81b031916908160001a9053506001016120ce565b5060005b84518110156121745784818151811061213857fe5b602001015160f81c60f81b83838060010194508151811061215557fe5b60200101906001600160f81b031916908160001a905350600101612123565b50909b9a5050505050505050505050565b607a6020526000908152604090205481565b606081806121be5750506040805180820190915260018152600360fc1b6020820152611526565b8260005b81156121d657600101600a820491506121c2565b6060816040519080825280601f01601f191660200182016040528015612203576020820181803883390190505b50905060001982015b841561225157600a850660300160f81b8282806001900393508151811061222f57fe5b60200101906001600160f81b031916908160001a905350600a8504945061220c565b5095945050505050565b60006115f482613b8b565b61226e61283c565b61227757600080fd5b611e1a60718383614390565b604080518082018252601081526f181899199a1a9b1b9c1cb0b131b232b360811b60208201528151602a80825260608281019094526001600160a01b03851692918491602082018180388339019050509050600360fc1b816000815181106122e757fe5b60200101906001600160f81b031916908160001a905350600f60fb1b8160018151811061231057fe5b60200101906001600160f81b031916908160001a90535060005b60148110156123f6578260048583600c016020811061234557fe5b1a60f81b6001600160f81b031916901c60f81c60ff168151811061236557fe5b602001015160f81c60f81b82826002026002018151811061238257fe5b60200101906001600160f81b031916908160001a905350828482600c01602081106123a957fe5b825191901a600f169081106123ba57fe5b602001015160f81c60f81b8282600202600301815181106123d757fe5b60200101906001600160f81b031916908160001a90535060010161232a565b50949350505050565b336000908152607a6020526040902080546001019055565b6000818152606f602052604081205482906001600160a01b0316612470576040805162461bcd60e51b815260206004820152600b60248201526a4e4f5f535543485f4b455960a81b604482015290519081900360640190fd5b50506000908152606f60205260409020546001600160a01b031690565b6001600160a01b03166000908152606e6020526040902060010154421090565b60006001600160a01b0382166124fc576040805162461bcd60e51b815260206004820152600f60248201526e494e56414c49445f4144445245535360881b604482015290519081900360640190fd5b6125058261248d565b612510576000612513565b60015b60ff1692915050565b606754600160a01b900460ff1661256c576040805162461bcd60e51b815260206004820152600f60248201526e1313d0d2d7d11154149150d0551151608a1b604482015290519081900360640190fd5b806125768161248d565b6125b7576040805162461bcd60e51b815260206004820152600d60248201526c12d15657d393d517d590531251609a1b604482015290519081900360640190fd5b611e1a8383613c6a565b6125c961283c565b6125d257600080fd5b6034546040516000916001600160a01b0316907f8be0079c531659141344cd1fd0a4f28419497f9722a3daafe3b4186f6b6457e0908390a3603480546001600160a01b0319169055565b606b5481565b61262a61283c565b61263357600080fd5b61263f60728383614390565b507f8868e22e84ebf32da89b2ebcb0ac642816304ea3863b257f240df9098719cb97828260405180806020018281038252848482818152602001925080828437600083820152604051601f909101601f19169092018290039550909350505050a15050565b6126ac61283c565b6126b557600080fd5b60005b838110156126ff576126f78585838181106126cf57fe5b905060200201356001600160a01b03168484848181106126eb57fe5b90506020020135613f35565b6001016126b8565b5050505050565b6000816127128161248d565b612753576040805162461bcd60e51b815260206004820152600d60248201526c12d15657d393d517d590531251609a1b604482015290519081900360640190fd5b600061275e84613842565b905060004282600101540390506000606954821061277f5750606a546127a0565b606954606a54612795908463ffffffff61403516565b8161279c57fe5b0490505b6077546076546127b790839063ffffffff61403516565b816127be57fe5b049695505050505050565b6001600160a01b03919091166000908152607a602090815260409182902054825130606090811b82850152603482019290925293901b6bffffffffffffffffffffffff19166054840152815180840360480181526068909301909152815191012090565b6034546001600160a01b031690565b6034546001600160a01b0316331490565b60765481565b60705490565b6072546060906002600019610100600184161502019091160461295257606860009054906101000a90046001600160a01b03166001600160a01b03166335a750de6040518163ffffffff1660e01b815260040160006040518083038186803b1580156128c457600080fd5b505afa1580156128d8573d6000803e3d6000fd5b505050506040513d6000823e601f3d908101601f19168201604052602081101561290157600080fd5b810190808051600160201b81111561291857600080fd5b8201602081018481111561292b57600080fd5b8151600160201b81118282018710171561294457600080fd5b509094506115e69350505050565b6072805460408051602060026001851615610100026000190190941693909304601f810184900484028201840190925281815292918301828280156129d85780601f106129ad576101008083540402835291602001916129d8565b820191906000526020600020905b8154815290600101906020018083116129bb57829003601f168201915b505050505090506115e6565b6000816129f08161248d565b612a31576040805162461bcd60e51b815260206004820152600d60248201526c12d15657d393d517d590531251609a1b604482015290519081900360640190fd5b50506001600160a01b03166000908152606e602052604090205490565b6000918252606f6020526040909120546001600160a01b0391821691161490565b612a7761283c565b612a8057600080fd5b612a8a8282613f35565b5050565b6067546001600160a01b031681565b612aa561283c565b612aae57600080fd5b80612ab88161248d565b612af9576040805162461bcd60e51b815260206004820152600d60248201526c12d15657d393d517d590531251609a1b604482015290519081900360640190fd5b6001600160a01b0382166000908152606e602090815260409182902042600182015580548351908152925190927f59f2fe866dd27a1c2d34115520888c3150365cbc931aab97fa88c4b9ab40b79592908290030190a1505050565b606754600160a01b900460ff16612ba4576040805162461bcd60e51b815260206004820152600f60248201526e1313d0d2d7d11154149150d0551151608a1b604482015290519081900360640190fd5b6001600160a01b038216331415612bf1576040805162461bcd60e51b815260206004820152600c60248201526b20a8282927ab22afa9a2a62360a11b604482015290519081900360640190fd5b3360008181526075602090815260408083206001600160a01b03871680855290835292819020805460ff1916861515908117909155815190815290519293927f17307eab39ab6107e8899845ad3d59bd9653f200f220920489ca2b5937696c31929181900390910190a35050565b612c6761283c565b612c7057600080fd5b606754600160a01b900460ff1615612cbf576040805162461bcd60e51b815260206004820152600d60248201526c111254d050931157d1925494d5609a1b604482015290519081900360640190fd5b6040805130318152905133917fa053f2a7eceda47dde76e5939c5adf7b771e665fc84c8ef6feffc290a1eb1feb919081900360200190a2612d0833612d0330613442565b61397f565b33ff5b6001600160a01b0381166000908152606e60205260408120600101548290612d70576040805162461bcd60e51b81526020600482015260136024820152724841535f4e455645525f4f574e45445f4b455960681b604482015290519081900360640190fd5b50506001600160a01b03166000908152606e602052604090206001015490565b606754600160a01b900460ff16612de0576040805162461bcd60e51b815260206004820152600f60248201526e1313d0d2d7d11154149150d0551151608a1b604482015290519081900360640190fd5b81612deb8133612a4e565b80612dfb5750612dfb813361358f565b80612e0d5750612e0d61167782612417565b612e5b576040805162461bcd60e51b815260206004820152601a60248201527913d3931657d2d15657d3d5d3915497d3d497d054141493d5915160321b604482015290519081900360640190fd5b612e6483612417565b612e6d8161248d565b612eae576040805162461bcd60e51b815260206004820152600d60248201526c12d15657d393d517d590531251609a1b604482015290519081900360640190fd5b612eb9868686611a81565b612ec58686868661408e565b612f16576040805162461bcd60e51b815260206004820152601d60248201527f4e4f4e5f434f4d504c49414e545f4552433732315f5245434549564552000000604482015290519081900360640190fd5b505050505050565b826001600160a01b0316612f79612f3d612f3886336127c9565b6141c1565b84848080601f01602080910402602001604051908101604052809392919081815260200183838082843760009201919091525061421292505050565b6001600160a01b031614612fc8576040805162461bcd60e51b8152602060048201526011602482015270494e56414c49445f5349474e415455524560781b604482015290519081900360640190fd5b6001600160a01b0383166000908152607a6020526040902080546001019055611e1a836135b0565b612ff861283c565b61300157600080fd5b606754600160a01b900460ff16613051576040805162461bcd60e51b815260206004820152600f60248201526e1313d0d2d7d11154149150d0551151608a1b604482015290519081900360640190fd5b6040517f25a311358326fb18c62efc24bc28d3126acee8d2a67fd8b2145b757dc8bd1bc190600090a16067805460ff60a01b19169055565b600154610100900460ff16806130a257506130a2614300565b806130b0575060015460ff16155b6130eb5760405162461bcd60e51b815260040180806020018281038252602e81526020018061444a602e913960400191505060405180910390fd5b600154610100900460ff16158015613115576001805460ff1961ff00199091166101001716811790555b603480546001600160a01b0319166001600160a01b0384811691909117918290556040519116906000907f8be0079c531659141344cd1fd0a4f28419497f9722a3daafe3b4186f6b6457e0908290a38015612a8a576001805461ff00191690555050565b6000818152606f602052604090205460609082906001600160a01b03166131d5576040805162461bcd60e51b815260206004820152600b60248201526a4e4f5f535543485f4b455960a81b604482015290519081900360640190fd5b607354606090600260001961010060018416150201909116046132ce57606860009054906101000a90046001600160a01b03166001600160a01b0316637ff94bb26040518163ffffffff1660e01b815260040160006040518083038186803b15801561324057600080fd5b505afa158015613254573d6000803e3d6000fd5b505050506040513d6000823e601f3d908101601f19168201604052602081101561327d57600080fd5b810190808051600160201b81111561329457600080fd5b820160208101848111156132a757600080fd5b8151600160201b8111828201871017156132c057600080fd5b5090945061335c9350505050565b6073805460408051602060026001851615610100026000190190941693909304601f810184900484028201840190925281815292918301828280156133545780601f1061332957610100808354040283529160200191613354565b820191906000526020600020905b81548152906001019060200180831161333757829003601f168201915b505050505090505b6119c08161336930612283565b604051806040016040528060018152602001602f60f81b81525061338c88612197565b611fd0565b600490565b60775481565b6001600160a01b03918216600090815260756020908152604080832093909416825291909152205460ff1690565b6133d261283c565b6133db57600080fd5b6133e481614306565b50565b606754600160a01b900460ff16613437576040805162461bcd60e51b815260206004820152600f60248201526e1313d0d2d7d11154149150d0551151608a1b604482015290519081900360640190fd5b6133e4816000613c6a565b6067546000906001600160a01b031661346657506001600160a01b03811631611526565b606754604080516370a0823160e01b81526001600160a01b038581166004830152915191909216916370a08231916024808301926020929190829003018186803b1580156134b357600080fd5b505afa1580156134c7573d6000803e3d6000fd5b505050506040513d60208110156134dd57600080fd5b50519050611526565b6134ee61283c565b6134f757600080fd5b60005b8281101561352f5761352784848381811061351157fe5b905060200201356001600160a01b031683613f35565b6001016134fa565b50505050565b6000818152607460205260408120546001600160a01b0316806115f4576040805162461bcd60e51b815260206004820152600d60248201526c1393d39157d054141493d59151609a1b604482015290519081900360640190fd5b600091825260746020526040909120546001600160a01b0391821691161490565b60006135bb82613842565b905060006135c883613b8b565b825460408051838152905192935033926001600160a01b03871692917f0a7068a9989857441c039a14a42b67ed71dd1fcfe5a9b17cc87b252e47bce528919081900360200190a44260018301558015611e1a57611e1a338261397f565b80156133e4576067546001600160a01b03166136885780341015613683576040805162461bcd60e51b815260206004820152601060248201526f4e4f545f454e4f5547485f46554e445360801b604482015290519081900360640190fd5b6133e4565b606754604080516370a0823160e01b815230600482015290516001600160a01b039092169160009183916370a0823191602480820192602092909190829003018186803b1580156136d857600080fd5b505afa1580156136ec573d6000803e3d6000fd5b505050506040513d602081101561370257600080fd5b5051604080516323b872dd60e01b81523360048201523060248201526044810186905290519192506001600160a01b038416916323b872dd916064808201926020929091908290030181600087803b15801561375d57600080fd5b505af1158015613771573d6000803e3d6000fd5b505050506040513d602081101561378757600080fd5b5050604080516370a0823160e01b8152306004820152905182916001600160a01b038516916370a0823191602480820192602092909190829003018186803b1580156137d257600080fd5b505afa1580156137e6573d6000803e3d6000fd5b505050506040513d60208110156137fc57600080fd5b505111611e1a576040805162461bcd60e51b815260206004820152600f60248201526e1514905394d1915497d19052531151608a1b604482015290519081900360640190fd5b6001600160a01b03166000908152606e6020526040902090565b6000818152606f60205260409020546001600160a01b03838116911614612a8a5760708054600181019091557f8f6b23ffa15f0465e3176e15ca644cf24f86dc1312fe715484e3c4aead5eb78b0180546001600160a01b0384166001600160a01b031991821681179092556000838152606f60205260409020805490911690911790555050565b60008282018381101561393d576040805162461bcd60e51b815260206004820152601b60248201527f536166654d6174683a206164646974696f6e206f766572666c6f770000000000604482015290519081900360640190fd5b9392505050565b6000818152607460205260409020546001600160a01b0316156133e457600090815260746020526040902080546001600160a01b0319169055565b8015612a8a576067546001600160a01b03166139d1576040516001600160a01b0383169082156108fc029083906000818181858888f193505050501580156139cb573d6000803e3d6000fd5b50612a8a565b606754604080516370a0823160e01b81526001600160a01b0385811660048301529151919092169160009183916370a08231916024808301926020929190829003018186803b158015613a2357600080fd5b505afa158015613a37573d6000803e3d6000fd5b505050506040513d6020811015613a4d57600080fd5b50516040805163a9059cbb60e01b81526001600160a01b0387811660048301526024820187905291519293509084169163a9059cbb916044808201926020929091908290030181600087803b158015613aa557600080fd5b505af1158015613ab9573d6000803e3d6000fd5b505050506040513d6020811015613acf57600080fd5b5050604080516370a0823160e01b81526001600160a01b038681166004830152915183928516916370a08231916024808301926020929190829003018186803b158015613b1b57600080fd5b505afa158015613b2f573d6000803e3d6000fd5b505050506040513d6020811015613b4557600080fd5b50511161352f576040805162461bcd60e51b815260206004820152600f60248201526e1514905394d1915497d19052531151608a1b604482015290519081900360640190fd5b600081613b978161248d565b613bd8576040805162461bcd60e51b815260206004820152600d60248201526c12d15657d393d517d590531251609a1b604482015290519081900360640190fd5b6000613be384613842565b905060004282600101540390506069548110613c0357606a549350613c24565b606954606a54613c19908363ffffffff61403516565b81613c2057fe5b0493505b6000607954613c40607854606a5461403590919063ffffffff16565b81613c4757fe5b04905080851115613c5c578085039450613c61565b600094505b50505050919050565b606c54606b5411613cb2576040805162461bcd60e51b815260206004820152600d60248201526c1313d0d2d7d4d3d31117d3d555609a1b604482015290519081900360640190fd5b6001600160a01b038216613cff576040805162461bcd60e51b815260206004820152600f60248201526e494e56414c49445f4144445245535360881b604482015290519081900360640190fd5b606a5460685460408051630cb175e360e01b81526001600160a01b03868116600483015260248201859052825160009586959094921692630cb175e3926044808301939192829003018186803b158015613d5857600080fd5b505afa158015613d6c573d6000803e3d6000fd5b505050506040513d6040811015613d8257600080fd5b50805160209091015190935091508080841115613da157506000613da6565b508281035b6000613db187613842565b8054909150613dd157613dc381614375565b613dd187826000015461385c565b42816001015410613dfd576069546001820154613df39163ffffffff6138e316565b6001820155613e08565b606954420160018201555b8415613e7b5760685460408051633652466360e01b8152600481018890526024810187905290516001600160a01b039092169163365246639160448082019260009290919082900301818387803b158015613e6257600080fd5b505af1158015613e76573d6000803e3d6000fd5b505050505b6068546040805163939d9f1f60e01b8152600481018590526001600160a01b0389811660248301529151919092169163939d9f1f91604480830192600092919082900301818387803b158015613ed057600080fd5b505af1158015613ee4573d6000803e3d6000fd5b5050606c546040519092506001600160a01b038a1691506000907fddf252ad1be2c89b69c2b068fc378daa952ba7f163c4a11628f55a4df523b3ef908290a4613f2c82613625565b50505050505050565b6001600160a01b038216613f82576040805162461bcd60e51b815260206004820152600f60248201526e494e56414c49445f4144445245535360881b604482015290519081900360640190fd5b6000613f8d83613842565b905080600101548211613fda576040805162461bcd60e51b815260206004820152601060248201526f414c52454144595f4f574e535f4b455960801b604482015290519081900360640190fd5b613fe381614375565b613ff183826000015461385c565b6001810182905580546040516001600160a01b038516906000907fddf252ad1be2c89b69c2b068fc378daa952ba7f163c4a11628f55a4df523b3ef908290a4505050565b600082614044575060006115f4565b8282028284828161405157fe5b041461393d5760405162461bcd60e51b81526004018080602001828103825260218152602001806144296021913960400191505060405180910390fd5b60006140a2846001600160a01b031661438a565b6140ae575060016119c0565b604051630a85bd0160e11b815233600482018181526001600160a01b03888116602485015260448401879052608060648501908152865160848601528651600095928a169463150b7a029490938c938b938b939260a4019060208501908083838e5b83811015614128578181015183820152602001614110565b50505050905090810190601f1680156141555780820380516001836020036101000a031916815260200191505b5095505050505050602060405180830381600087803b15801561417757600080fd5b505af115801561418b573d6000803e3d6000fd5b505050506040513d60208110156141a157600080fd5b50516001600160e01b031916630a85bd0160e11b14915050949350505050565b604080517f19457468657265756d205369676e6564204d6573736167653a0a333200000000602080830191909152603c8083019490945282518083039094018452605c909101909152815191012090565b60008151604114614225575060006115f4565b60208201516040830151606084015160001a7f7fffffffffffffffffffffffffffffff5d576e7357a4501ddfe92f46681b20a082111561426b57600093505050506115f4565b8060ff16601b1415801561428357508060ff16601c14155b1561429457600093505050506115f4565b6040805160008152602080820180845289905260ff8416828401526060820186905260808201859052915160019260a0808401939192601f1981019281900390910190855afa1580156142eb573d6000803e3d6000fd5b5050604051601f190151979650505050505050565b303b1590565b6001600160a01b03811661431957600080fd5b6034546040516001600160a01b038084169216907f8be0079c531659141344cd1fd0a4f28419497f9722a3daafe3b4186f6b6457e090600090a3603480546001600160a01b0319166001600160a01b0392909216919091179055565b80546133e457606c8054600101908190559055565b3b151590565b828054600181600116156101000203166002900490600052602060002090601f016020900481019282601f106143d15782800160ff198235161785556143fe565b828001600101855582156143fe579182015b828111156143fe5782358255916020019190600101906143e3565b5061440a92915061440e565b5090565b6115e691905b8082111561440a576000815560010161441456fe536166654d6174683a206d756c7469706c69636174696f6e206f766572666c6f77436f6e747261637420696e7374616e63652068617320616c7265616479206265656e20696e697469616c697a6564a265627a7a7230582047f15e51181351647a87d6980e0f8f20a1f88485a060e1fd9ce02eb8828eb7b464736f6c63430005090032436f6e747261637420696e7374616e63652068617320616c7265616479206265656e20696e697469616c697a6564",
  "source": "pragma solidity 0.5.9;\n\nimport './interfaces/IERC721.sol';\nimport 'openzeppelin-eth/contracts/ownership/Ownable.sol';\nimport 'openzeppelin-solidity/contracts/introspection/ERC165.sol';\nimport 'openzeppelin-solidity/contracts/token/ERC721/ERC721Holder.sol';\nimport './mixins/MixinApproval.sol';\nimport './mixins/MixinDisableAndDestroy.sol';\nimport './mixins/MixinFunds.sol';\nimport './mixins/MixinGrantKeys.sol';\nimport './mixins/MixinKeys.sol';\nimport './mixins/MixinLockCore.sol';\nimport './mixins/MixinLockMetadata.sol';\nimport './mixins/MixinNoFallback.sol';\nimport './mixins/MixinPurchase.sol';\nimport './mixins/MixinRefunds.sol';\nimport './mixins/MixinTransfer.sol';\n\n\n/**\n * @title The Lock contract\n * @author Julien Genestoux (unlock-protocol.com)\n * Eventually: implement ERC721.\n * @dev ERC165 allows our contract to be queried to determine whether it implements a given interface.\n * Every ERC-721 compliant contract must implement the ERC165 interface.\n * https://eips.ethereum.org/EIPS/eip-721\n */\ncontract PublicLock is\n  IERC721,\n  MixinNoFallback,\n  ERC165,\n  Ownable,\n  ERC721Holder,\n  MixinFunds,\n  MixinDisableAndDestroy,\n  MixinLockCore,\n  MixinKeys,\n  MixinLockMetadata,\n  MixinGrantKeys,\n  MixinPurchase,\n  MixinApproval,\n  MixinTransfer,\n  MixinRefunds\n{\n  constructor(\n    address _owner,\n    uint _expirationDuration,\n    address _tokenAddress,\n    uint _keyPrice,\n    uint _maxNumberOfKeys,\n    string memory _lockName\n  )\n    public\n    MixinFunds(_tokenAddress)\n    MixinLockCore(_owner, _expirationDuration, _keyPrice, _maxNumberOfKeys)\n    MixinLockMetadata(_lockName)\n  {\n    // registering the interface for erc721 with ERC165.sol using\n    // the ID specified in the standard: https://eips.ethereum.org/EIPS/eip-721\n    _registerInterface(0x80ac58cd);\n    // We must manually initialize Ownable.sol\n    Ownable.initialize(_owner);\n  }\n\n  // The version number of the current implementation on this network\n  function publicLockVersion(\n  ) external pure\n    returns (uint16)\n  {\n    return 4;\n  }\n}\n",
  "sourcePath": "/Users/julien/repos/unlock-shadow/smart-contracts/contracts/PublicLock.sol",
  "compiler": {
    "name": "solc",
    "version": "0.5.9+commit.e560f70d.Emscripten.clang"
  },
  "schemaVersion": "3.0.10",
  "updatedAt": "2019-06-05T17:55:27.559Z",
  "devdoc": {
    "author": "Julien Genestoux (unlock-protocol.com) Eventually: implement ERC721.",
    "details": "ERC165 allows our contract to be queried to determine whether it implements a given interface. Every ERC-721 compliant contract must implement the ERC165 interface. https://eips.ethereum.org/EIPS/eip-721",
    "methods": {
      "balanceOf(address)": {
        "return": "The number of NFTs owned by `_owner`, either 0 or 1."
      },
      "cancelAndRefund()": {
        "details": "Destroys the user's key and sends a refund based on the amount of time remaining."
      },
      "cancelAndRefundFor(address,bytes)": {
        "details": "Cancels a key owned by a different user and sends the funds to the msg.sender.",
        "params": {
          "_keyOwner": "this user's key will be canceled",
          "_signature": "getCancelAndRefundApprovalHash signed by the _keyOwner"
        }
      },
      "destroyLock()": {
        "details": "Used to clean up old lock contracts from the blockchain TODO: add a check to ensure all keys are INVALID!"
      },
      "disableLock()": {
        "details": "Used to disable lock before migrating keys and/or destroying contract"
      },
      "getCancelAndRefundApprovalHash(address,address)": {
        "details": "returns the hash to sign in order to allow another user to cancel on your behalf."
      },
      "getCancelAndRefundValueFor(address)": {
        "details": "Determines how much of a refund a key owner would receive if they issued a cancelAndRefund block.timestamp. Note that due to the time required to mine a tx, the actual refund amount will be lower than what the user reads from this call."
      },
      "getOwnersByPage(uint256,uint256)": {
        "params": {
          "_page": "the page of key owners requested when faceted by page size",
          "_pageSize": "the number of Key Owners requested per page"
        }
      },
      "getTokenIdFor(address)": {
        "return": "The tokenId of the NFT, else revert"
      },
      "getTransferFee(address)": {
        "params": {
          "_owner": "The owner of the key check the transfer fee for."
        }
      },
      "incrementNonce()": {
        "details": "Increments the current nonce for the msg.sender. This can be used to invalidate a previously signed message."
      },
      "initialize(address)": {
        "details": "The Ownable constructor sets the original `owner` of the contract to the sender account."
      },
      "isApprovedForAll(address,address)": {
        "details": "Tells whether an operator is approved by a given owner",
        "params": {
          "_operator": "operator address which you want to query the approval of",
          "_owner": "owner address which you want to query the approval of"
        },
        "return": "bool whether the given operator is approved by the given owner"
      },
      "isOwner()": {
        "return": "true if `msg.sender` is the owner of the contract."
      },
      "keyExpirationTimestampFor(address)": {
        "details": "Returns the key's ExpirationTimestamp field for a given owner.",
        "params": {
          "_owner": "address of the user for whom we search the key"
        }
      },
      "name()": {
        "details": "Gets the token name",
        "return": "string representing the token name"
      },
      "owner()": {
        "return": "the address of the owner."
      },
      "ownerOf(uint256)": {
        "return": "The address of the owner of the NFT, if applicable"
      },
      "purchaseFor(address)": {
        "details": "Purchase function, public version, with no referrer.",
        "params": {
          "_recipient": "address of the recipient of the purchased key"
        }
      },
      "purchaseForFrom(address,address)": {
        "details": "Purchase function, public version, with referrer.",
        "params": {
          "_recipient": "address of the recipient of the purchased key",
          "_referrer": "address of the user making the referral"
        }
      },
      "renounceOwnership()": {
        "details": "Allows the current owner to relinquish control of the contract."
      },
      "safeTransferFrom(address,address,uint256)": {
        "details": "This works identically to the other function with an extra data parameter, except this function just sets data to ''",
        "params": {
          "_from": "The current owner of the NFT",
          "_to": "The new owner",
          "_tokenId": "The NFT to transfer"
        }
      },
      "safeTransferFrom(address,address,uint256,bytes)": {
        "params": {
          "_data": "Additional data with no specified format, sent in call to `_to`",
          "_from": "The current owner of the NFT",
          "_to": "The new owner",
          "_tokenId": "The NFT to transfer"
        }
      },
      "setApprovalForAll(address,bool)": {
        "details": "Sets or unsets the approval of a given operator An operator is allowed to transfer all tokens of the sender on their behalf",
        "params": {
          "_approved": "representing the status of the approval to be set",
          "_to": "operator address to set the approval"
        }
      },
      "supportsInterface(bytes4)": {
        "details": "See `IERC165.supportsInterface`.     * Time complexity O(1), guaranteed to always use less than 30 000 gas."
      },
      "symbol()": {
        "details": "Gets the token symbol",
        "return": "string representing the token name"
      },
      "tokenURI(uint256)": {
        "details": "Throws if `_tokenId` is not a valid NFT. URIs are defined in RFC 3986. The URI may point to a JSON file that conforms to the \"ERC721 Metadata JSON Schema\". https://github.com/ethereum/EIPs/blob/master/EIPS/eip-721.md"
      },
      "transferOwnership(address)": {
        "details": "Allows the current owner to transfer control of the contract to a newOwner.",
        "params": {
          "newOwner": "The address to transfer ownership to."
        }
      },
      "withdraw(uint256)": {
        "details": "Called by owner to withdraw all funds from the lock and send them to the `beneficiary`.",
        "params": {
          "_amount": "specifies the max amount to withdraw, which may be reduced when considering the available balance. Set to 0 or MAX_UINT to withdraw everything.   * TODO: consider allowing anybody to trigger this as long as it goes to owner anyway? -- however be wary of draining funds as it breaks the `cancelAndRefund` use case."
        }
      }
    },
    "title": "The Lock contract"
  },
  "userdoc": {
    "methods": {
      "approve(address,uint256)": {
        "notice": "This approves _approved to get ownership of _tokenId. Note: that since this is used for both purchase and transfer approvals the approved token may not exist."
      },
      "balanceOf(address)": {
        "notice": "In the specific case of a Lock, each owner can own only at most 1 key."
      },
      "expireKeyFor(address)": {
        "notice": "A function which lets the owner of the lock expire a users' key."
      },
      "getApproved(uint256)": {
        "notice": "external version Will return the approved recipient for a key, if any."
      },
      "getBalance(address)": {
        "notice": "Gets the current balance of the account provided."
      },
      "getHasValidKey(address)": {
        "notice": "Checks if the user has a non-expired key."
      },
      "getOwnersByPage(uint256,uint256)": {
        "notice": "A function which returns a subset of the keys for this Lock as an array"
      },
      "getTokenIdFor(address)": {
        "notice": "Find the tokenId for a given user"
      },
      "getTransferFee(address)": {
        "notice": "Determines how much of a fee a key owner would need to pay in order to transfer the key to another account.  This is pro-rated so the fee goes down overtime."
      },
      "grantKey(address,uint256)": {
        "notice": "Allows the Lock owner to give a user a key with no charge."
      },
      "grantKeys(address[],uint256)": {
        "notice": "Allows the Lock owner to give a collection of users a key with no charge. All keys granted have the same expiration date."
      },
      "grantKeys(address[],uint256[])": {
        "notice": "Allows the Lock owner to give a collection of users a key with no charge. Each key may be assigned a different expiration date."
      },
      "isKeyOwner(uint256,address)": {
        "notice": "Checks if the given address owns the given tokenId."
      },
      "numberOfOwners()": {
        "notice": "Public function which returns the total number of unique owners (both expired and valid).  This may be larger than totalSupply."
      },
      "ownerOf(uint256)": {
        "notice": "ERC721: Find the owner of an NFT"
      },
      "renounceOwnership()": {
        "notice": "Renouncing to ownership will leave the contract without an owner. It will not be possible to call the functions with the `onlyOwner` modifier anymore."
      },
      "safeTransferFrom(address,address,uint256)": {
        "notice": "Transfers the ownership of an NFT from one address to another address"
      },
      "safeTransferFrom(address,address,uint256,bytes)": {
        "notice": "Transfers the ownership of an NFT from one address to another address. When transfer is complete, this functions checks if `_to` is a smart contract (code size > 0). If so, it calls `onERC721Received` on `_to` and throws if the return value is not `bytes4(keccak256('onERC721Received(address,address,uint,bytes)'))`."
      },
      "setBaseTokenURI(string)": {
        "notice": "Allows the Lock owner to update the baseTokenURI for this Lock."
      },
      "tokenURI(uint256)": {
        "notice": "A distinct Uniform Resource Identifier (URI) for a given asset."
      },
      "totalSupply()": {
        "notice": "Public function which returns the total number of unique keys sold (both expired and valid)"
      },
      "transferFrom(address,address,uint256)": {
        "notice": "This is payable because at some point we want to allow the LOCK to capture a fee on 2ndary market transactions..."
      },
      "updateBeneficiary(address)": {
        "notice": "A function which lets the owner of the lock update the beneficiary account, which receives funds on withdrawal."
      },
      "updateKeyPrice(uint256)": {
        "notice": "A function which lets the owner of the lock to change the price for future purchases."
      },
      "updateLockName(string)": {
        "notice": "Allows the Lock owner to assign a descriptive name for this Lock."
      },
      "updateLockSymbol(string)": {
        "notice": "Allows the Lock owner to assign a Symbol for this Lock."
      },
      "updateRefundPenalty(uint256,uint256)": {
        "notice": "Allow the owner to change the refund penalty."
      },
      "updateTransferFee(uint256,uint256)": {
        "notice": "Allow the Lock owner to change the transfer fee."
      }
    }
  }
}