{
  "contractName": "PublicLock",
  "abi": [
    {
      "anonymous": false,
      "inputs": [
        {
          "indexed": true,
          "internalType": "address",
          "name": "owner",
          "type": "address"
        },
        {
          "indexed": true,
          "internalType": "address",
          "name": "approved",
          "type": "address"
        },
        {
          "indexed": true,
          "internalType": "uint256",
          "name": "tokenId",
          "type": "uint256"
        }
      ],
      "name": "Approval",
      "type": "event"
    },
    {
      "anonymous": false,
      "inputs": [
        {
          "indexed": true,
          "internalType": "address",
          "name": "owner",
          "type": "address"
        },
        {
          "indexed": true,
          "internalType": "address",
          "name": "operator",
          "type": "address"
        },
        {
          "indexed": false,
          "internalType": "bool",
          "name": "approved",
          "type": "bool"
        }
      ],
      "name": "ApprovalForAll",
      "type": "event"
    },
    {
      "anonymous": false,
      "inputs": [
        {
          "indexed": true,
          "internalType": "uint256",
          "name": "tokenId",
          "type": "uint256"
        },
        {
          "indexed": true,
          "internalType": "address",
          "name": "owner",
          "type": "address"
        },
        {
          "indexed": true,
          "internalType": "address",
          "name": "sendTo",
          "type": "address"
        },
        {
          "indexed": false,
          "internalType": "uint256",
          "name": "refund",
          "type": "uint256"
        }
      ],
      "name": "CancelKey",
      "type": "event"
    },
    {
      "anonymous": false,
      "inputs": [],
      "name": "Disable",
      "type": "event"
    },
    {
      "anonymous": false,
      "inputs": [
        {
          "indexed": true,
          "internalType": "uint256",
          "name": "_tokenId",
          "type": "uint256"
        },
        {
          "indexed": false,
          "internalType": "uint256",
          "name": "_amount",
          "type": "uint256"
        },
        {
          "indexed": false,
          "internalType": "bool",
          "name": "_timeAdded",
          "type": "bool"
        }
      ],
      "name": "ExpirationChanged",
      "type": "event"
    },
    {
      "anonymous": false,
      "inputs": [
        {
          "indexed": true,
          "internalType": "uint256",
          "name": "tokenId",
          "type": "uint256"
        }
      ],
      "name": "ExpireKey",
      "type": "event"
    },
    {
      "anonymous": false,
      "inputs": [
        {
          "indexed": true,
          "internalType": "address",
          "name": "account",
          "type": "address"
        }
      ],
      "name": "KeyGranterAdded",
      "type": "event"
    },
    {
      "anonymous": false,
      "inputs": [
        {
          "indexed": true,
          "internalType": "address",
          "name": "account",
          "type": "address"
        }
      ],
      "name": "KeyGranterRemoved",
      "type": "event"
    },
    {
      "anonymous": false,
      "inputs": [
        {
          "indexed": true,
          "internalType": "uint256",
          "name": "_tokenId",
          "type": "uint256"
        },
        {
          "indexed": true,
          "internalType": "address",
          "name": "_newManager",
          "type": "address"
        }
      ],
      "name": "KeyManagerChanged",
      "type": "event"
    },
    {
      "anonymous": false,
      "inputs": [
        {
          "indexed": true,
          "internalType": "address",
          "name": "account",
          "type": "address"
        }
      ],
      "name": "LockManagerAdded",
      "type": "event"
    },
    {
      "anonymous": false,
      "inputs": [
        {
          "indexed": true,
          "internalType": "address",
          "name": "account",
          "type": "address"
        }
      ],
      "name": "LockManagerRemoved",
      "type": "event"
    },
    {
      "anonymous": false,
      "inputs": [
        {
          "indexed": false,
          "internalType": "string",
          "name": "symbol",
          "type": "string"
        }
      ],
      "name": "NewLockSymbol",
      "type": "event"
    },
    {
      "anonymous": false,
      "inputs": [
        {
          "indexed": true,
          "internalType": "address",
          "name": "keyManager",
          "type": "address"
        },
        {
          "indexed": false,
          "internalType": "uint256",
          "name": "nextAvailableNonce",
          "type": "uint256"
        }
      ],
      "name": "NonceChanged",
      "type": "event"
    },
    {
      "anonymous": false,
      "inputs": [
        {
          "indexed": true,
          "internalType": "address",
          "name": "previousOwner",
          "type": "address"
        },
        {
          "indexed": true,
          "internalType": "address",
          "name": "newOwner",
          "type": "address"
        }
      ],
      "name": "OwnershipTransferred",
      "type": "event"
    },
    {
      "anonymous": false,
      "inputs": [
        {
          "indexed": false,
          "internalType": "uint256",
          "name": "oldKeyPrice",
          "type": "uint256"
        },
        {
          "indexed": false,
          "internalType": "uint256",
          "name": "keyPrice",
          "type": "uint256"
        },
        {
          "indexed": false,
          "internalType": "address",
          "name": "oldTokenAddress",
          "type": "address"
        },
        {
          "indexed": false,
          "internalType": "address",
          "name": "tokenAddress",
          "type": "address"
        }
      ],
      "name": "PricingChanged",
      "type": "event"
    },
    {
      "anonymous": false,
      "inputs": [
        {
          "indexed": false,
          "internalType": "uint256",
          "name": "freeTrialLength",
          "type": "uint256"
        },
        {
          "indexed": false,
          "internalType": "uint256",
          "name": "refundPenaltyBasisPoints",
          "type": "uint256"
        }
      ],
      "name": "RefundPenaltyChanged",
      "type": "event"
    },
    {
      "anonymous": false,
      "inputs": [
        {
          "indexed": true,
          "internalType": "address",
          "name": "owner",
          "type": "address"
        },
        {
          "indexed": false,
          "internalType": "uint256",
          "name": "newExpiration",
          "type": "uint256"
        }
      ],
      "name": "RenewKeyPurchase",
      "type": "event"
    },
    {
      "anonymous": false,
      "inputs": [
        {
          "indexed": true,
          "internalType": "address",
          "name": "from",
          "type": "address"
        },
        {
          "indexed": true,
          "internalType": "address",
          "name": "to",
          "type": "address"
        },
        {
          "indexed": true,
          "internalType": "uint256",
          "name": "tokenId",
          "type": "uint256"
        }
      ],
      "name": "Transfer",
      "type": "event"
    },
    {
      "anonymous": false,
      "inputs": [
        {
          "indexed": false,
          "internalType": "uint256",
          "name": "transferFeeBasisPoints",
          "type": "uint256"
        }
      ],
      "name": "TransferFeeChanged",
      "type": "event"
    },
    {
      "anonymous": false,
      "inputs": [
        {
          "indexed": true,
          "internalType": "address",
          "name": "sender",
          "type": "address"
        },
        {
          "indexed": true,
          "internalType": "address",
          "name": "tokenAddress",
          "type": "address"
        },
        {
          "indexed": true,
          "internalType": "address",
          "name": "beneficiary",
          "type": "address"
        },
        {
          "indexed": false,
          "internalType": "uint256",
          "name": "amount",
          "type": "uint256"
        }
      ],
      "name": "Withdrawal",
      "type": "event"
    },
    {
      "constant": false,
      "inputs": [
        {
          "internalType": "address",
          "name": "account",
          "type": "address"
        }
      ],
      "name": "addKeyGranter",
      "outputs": [],
      "payable": false,
      "stateMutability": "nonpayable",
      "type": "function"
    },
    {
      "constant": false,
      "inputs": [
        {
          "internalType": "address",
          "name": "account",
          "type": "address"
        }
      ],
      "name": "addLockManager",
      "outputs": [],
      "payable": false,
      "stateMutability": "nonpayable",
      "type": "function"
    },
    {
      "constant": false,
      "inputs": [
        {
          "internalType": "address",
          "name": "_approved",
          "type": "address"
        },
        {
          "internalType": "uint256",
          "name": "_tokenId",
          "type": "uint256"
        }
      ],
      "name": "approve",
      "outputs": [],
      "payable": false,
      "stateMutability": "nonpayable",
      "type": "function"
    },
    {
      "constant": true,
      "inputs": [
        {
          "internalType": "address",
          "name": "_keyOwner",
          "type": "address"
        }
      ],
      "name": "balanceOf",
      "outputs": [
        {
          "internalType": "uint256",
          "name": "",
          "type": "uint256"
        }
      ],
      "payable": false,
      "stateMutability": "view",
      "type": "function"
    },
    {
      "constant": true,
      "inputs": [],
      "name": "beneficiary",
      "outputs": [
        {
          "internalType": "address",
          "name": "",
          "type": "address"
        }
      ],
      "payable": false,
      "stateMutability": "view",
      "type": "function"
    },
    {
      "constant": false,
      "inputs": [
        {
          "internalType": "uint256",
          "name": "_tokenId",
          "type": "uint256"
        }
      ],
      "name": "cancelAndRefund",
      "outputs": [],
      "payable": false,
      "stateMutability": "nonpayable",
      "type": "function"
    },
    {
      "constant": false,
      "inputs": [
        {
          "internalType": "address",
          "name": "_keyManager",
          "type": "address"
        },
        {
          "internalType": "uint8",
          "name": "_v",
          "type": "uint8"
        },
        {
          "internalType": "bytes32",
          "name": "_r",
          "type": "bytes32"
        },
        {
          "internalType": "bytes32",
          "name": "_s",
          "type": "bytes32"
        },
        {
          "internalType": "uint256",
          "name": "_tokenId",
          "type": "uint256"
        }
      ],
      "name": "cancelAndRefundFor",
      "outputs": [],
      "payable": false,
      "stateMutability": "nonpayable",
      "type": "function"
    },
    {
      "constant": false,
      "inputs": [],
      "name": "disableLock",
      "outputs": [],
      "payable": false,
      "stateMutability": "nonpayable",
      "type": "function"
    },
    {
      "constant": true,
      "inputs": [],
      "name": "expirationDuration",
      "outputs": [
        {
          "internalType": "uint256",
          "name": "",
          "type": "uint256"
        }
      ],
      "payable": false,
      "stateMutability": "view",
      "type": "function"
    },
    {
      "constant": false,
      "inputs": [
        {
          "internalType": "address",
          "name": "_keyOwner",
          "type": "address"
        },
        {
          "internalType": "uint256",
          "name": "amount",
          "type": "uint256"
        }
      ],
      "name": "expireAndRefundFor",
      "outputs": [],
      "payable": false,
      "stateMutability": "nonpayable",
      "type": "function"
    },
    {
      "constant": true,
      "inputs": [],
      "name": "freeTrialLength",
      "outputs": [
        {
          "internalType": "uint256",
          "name": "",
          "type": "uint256"
        }
      ],
      "payable": false,
      "stateMutability": "view",
      "type": "function"
    },
    {
      "constant": true,
      "inputs": [
        {
          "internalType": "uint256",
          "name": "_tokenId",
          "type": "uint256"
        }
      ],
      "name": "getApproved",
      "outputs": [
        {
          "internalType": "address",
          "name": "",
          "type": "address"
        }
      ],
      "payable": false,
      "stateMutability": "view",
      "type": "function"
    },
    {
      "constant": true,
      "inputs": [
        {
          "internalType": "address",
          "name": "_tokenAddress",
          "type": "address"
        },
        {
          "internalType": "address",
          "name": "_account",
          "type": "address"
        }
      ],
      "name": "getBalance",
      "outputs": [
        {
          "internalType": "uint256",
          "name": "",
          "type": "uint256"
        }
      ],
      "payable": false,
      "stateMutability": "view",
      "type": "function"
    },
    {
      "constant": true,
      "inputs": [
        {
          "internalType": "address",
          "name": "_keyManager",
          "type": "address"
        },
        {
          "internalType": "address",
          "name": "_txSender",
          "type": "address"
        }
      ],
      "name": "getCancelAndRefundApprovalHash",
      "outputs": [
        {
          "internalType": "bytes32",
          "name": "approvalHash",
          "type": "bytes32"
        }
      ],
      "payable": false,
      "stateMutability": "view",
      "type": "function"
    },
    {
      "constant": true,
      "inputs": [
        {
          "internalType": "address",
          "name": "_keyOwner",
          "type": "address"
        }
      ],
      "name": "getCancelAndRefundValueFor",
      "outputs": [
        {
          "internalType": "uint256",
          "name": "refund",
          "type": "uint256"
        }
      ],
      "payable": false,
      "stateMutability": "view",
      "type": "function"
    },
    {
      "constant": true,
      "inputs": [
        {
          "internalType": "address",
          "name": "_keyOwner",
          "type": "address"
        }
      ],
      "name": "getHasValidKey",
      "outputs": [
        {
          "internalType": "bool",
          "name": "",
          "type": "bool"
        }
      ],
      "payable": false,
      "stateMutability": "view",
      "type": "function"
    },
    {
      "constant": true,
      "inputs": [
        {
          "internalType": "uint256",
          "name": "_page",
          "type": "uint256"
        },
        {
          "internalType": "uint256",
          "name": "_pageSize",
          "type": "uint256"
        }
      ],
      "name": "getOwnersByPage",
      "outputs": [
        {
          "internalType": "address[]",
          "name": "",
          "type": "address[]"
        }
      ],
      "payable": false,
      "stateMutability": "view",
      "type": "function"
    },
    {
      "constant": true,
      "inputs": [
        {
          "internalType": "address",
          "name": "_account",
          "type": "address"
        }
      ],
      "name": "getTokenIdFor",
      "outputs": [
        {
          "internalType": "uint256",
          "name": "",
          "type": "uint256"
        }
      ],
      "payable": false,
      "stateMutability": "view",
      "type": "function"
    },
    {
      "constant": true,
      "inputs": [
        {
          "internalType": "address",
          "name": "_keyOwner",
          "type": "address"
        },
        {
          "internalType": "uint256",
          "name": "_time",
          "type": "uint256"
        }
      ],
      "name": "getTransferFee",
      "outputs": [
        {
          "internalType": "uint256",
          "name": "",
          "type": "uint256"
        }
      ],
      "payable": false,
      "stateMutability": "view",
      "type": "function"
    },
    {
      "constant": false,
      "inputs": [
        {
          "internalType": "address[]",
          "name": "_recipients",
          "type": "address[]"
        },
        {
          "internalType": "uint256[]",
          "name": "_expirationTimestamps",
          "type": "uint256[]"
        },
        {
          "internalType": "address[]",
          "name": "_keyManagers",
          "type": "address[]"
        }
      ],
      "name": "grantKeys",
      "outputs": [],
      "payable": false,
      "stateMutability": "nonpayable",
      "type": "function"
    },
    {
      "constant": false,
      "inputs": [
        {
          "internalType": "uint256",
          "name": "_nextAvailableNonce",
          "type": "uint256"
        }
      ],
      "name": "invalidateOffchainApproval",
      "outputs": [],
      "payable": false,
      "stateMutability": "nonpayable",
      "type": "function"
    },
    {
      "constant": true,
      "inputs": [],
      "name": "isAlive",
      "outputs": [
        {
          "internalType": "bool",
          "name": "",
          "type": "bool"
        }
      ],
      "payable": false,
      "stateMutability": "view",
      "type": "function"
    },
    {
      "constant": true,
      "inputs": [
        {
          "internalType": "address",
          "name": "_owner",
          "type": "address"
        },
        {
          "internalType": "address",
          "name": "_operator",
          "type": "address"
        }
      ],
      "name": "isApprovedForAll",
      "outputs": [
        {
          "internalType": "bool",
          "name": "",
          "type": "bool"
        }
      ],
      "payable": false,
      "stateMutability": "view",
      "type": "function"
    },
    {
      "constant": true,
      "inputs": [
        {
          "internalType": "address",
          "name": "account",
          "type": "address"
        }
      ],
      "name": "isKeyGranter",
      "outputs": [
        {
          "internalType": "bool",
          "name": "",
          "type": "bool"
        }
      ],
      "payable": false,
      "stateMutability": "view",
      "type": "function"
    },
    {
      "constant": true,
      "inputs": [
        {
          "internalType": "uint256",
          "name": "_tokenId",
          "type": "uint256"
        },
        {
          "internalType": "address",
          "name": "_keyOwner",
          "type": "address"
        }
      ],
      "name": "isKeyOwner",
      "outputs": [
        {
          "internalType": "bool",
          "name": "",
          "type": "bool"
        }
      ],
      "payable": false,
      "stateMutability": "view",
      "type": "function"
    },
    {
      "constant": true,
      "inputs": [
        {
          "internalType": "address",
          "name": "account",
          "type": "address"
        }
      ],
      "name": "isLockManager",
      "outputs": [
        {
          "internalType": "bool",
          "name": "",
          "type": "bool"
        }
      ],
      "payable": false,
      "stateMutability": "view",
      "type": "function"
    },
    {
      "constant": true,
      "inputs": [],
      "name": "isOwner",
      "outputs": [
        {
          "internalType": "bool",
          "name": "",
          "type": "bool"
        }
      ],
      "payable": false,
      "stateMutability": "view",
      "type": "function"
    },
    {
      "constant": true,
      "inputs": [
        {
          "internalType": "address",
          "name": "_keyOwner",
          "type": "address"
        }
      ],
      "name": "keyExpirationTimestampFor",
      "outputs": [
        {
          "internalType": "uint256",
          "name": "",
          "type": "uint256"
        }
      ],
      "payable": false,
      "stateMutability": "view",
      "type": "function"
    },
    {
      "constant": true,
      "inputs": [
        {
          "internalType": "uint256",
          "name": "",
          "type": "uint256"
        }
      ],
      "name": "keyManagerOf",
      "outputs": [
        {
          "internalType": "address",
          "name": "",
          "type": "address"
        }
      ],
      "payable": false,
      "stateMutability": "view",
      "type": "function"
    },
    {
      "constant": true,
      "inputs": [
        {
          "internalType": "address",
          "name": "",
          "type": "address"
        }
      ],
      "name": "keyManagerToNonce",
      "outputs": [
        {
          "internalType": "uint256",
          "name": "",
          "type": "uint256"
        }
      ],
      "payable": false,
      "stateMutability": "view",
      "type": "function"
    },
    {
      "constant": true,
      "inputs": [],
      "name": "keyPrice",
      "outputs": [
        {
          "internalType": "uint256",
          "name": "",
          "type": "uint256"
        }
      ],
      "payable": false,
      "stateMutability": "view",
      "type": "function"
    },
    {
      "constant": true,
      "inputs": [],
      "name": "maxNumberOfKeys",
      "outputs": [
        {
          "internalType": "uint256",
          "name": "",
          "type": "uint256"
        }
      ],
      "payable": false,
      "stateMutability": "view",
      "type": "function"
    },
    {
      "constant": true,
      "inputs": [],
      "name": "name",
      "outputs": [
        {
          "internalType": "string",
          "name": "",
          "type": "string"
        }
      ],
      "payable": false,
      "stateMutability": "view",
      "type": "function"
    },
    {
      "constant": true,
      "inputs": [],
      "name": "numberOfOwners",
      "outputs": [
        {
          "internalType": "uint256",
          "name": "",
          "type": "uint256"
        }
      ],
      "payable": false,
      "stateMutability": "view",
      "type": "function"
    },
    {
      "constant": true,
      "inputs": [],
      "name": "onKeyCancelHook",
      "outputs": [
        {
          "internalType": "contract ILockKeyCancelHook",
          "name": "",
          "type": "address"
        }
      ],
      "payable": false,
      "stateMutability": "view",
      "type": "function"
    },
    {
      "constant": true,
      "inputs": [],
      "name": "onKeyPurchaseHook",
      "outputs": [
        {
          "internalType": "contract ILockKeyPurchaseHook",
          "name": "",
          "type": "address"
        }
      ],
      "payable": false,
      "stateMutability": "view",
      "type": "function"
    },
    {
      "constant": true,
      "inputs": [],
      "name": "owner",
      "outputs": [
        {
          "internalType": "address",
          "name": "",
          "type": "address"
        }
      ],
      "payable": false,
      "stateMutability": "view",
      "type": "function"
    },
    {
      "constant": true,
      "inputs": [
        {
          "internalType": "uint256",
          "name": "_tokenId",
          "type": "uint256"
        }
      ],
      "name": "ownerOf",
      "outputs": [
        {
          "internalType": "address",
          "name": "",
          "type": "address"
        }
      ],
      "payable": false,
      "stateMutability": "view",
      "type": "function"
    },
    {
      "constant": true,
      "inputs": [
        {
          "internalType": "uint256",
          "name": "",
          "type": "uint256"
        }
      ],
      "name": "owners",
      "outputs": [
        {
          "internalType": "address",
          "name": "",
          "type": "address"
        }
      ],
      "payable": false,
      "stateMutability": "view",
      "type": "function"
    },
    {
      "constant": true,
      "inputs": [],
      "name": "publicLockVersion",
      "outputs": [
        {
          "internalType": "uint256",
          "name": "",
          "type": "uint256"
        }
      ],
      "payable": false,
      "stateMutability": "pure",
      "type": "function"
    },
    {
      "constant": false,
      "inputs": [
        {
          "internalType": "uint256",
          "name": "_value",
          "type": "uint256"
        },
        {
          "internalType": "address",
          "name": "_recipient",
          "type": "address"
        },
        {
          "internalType": "address",
          "name": "_referrer",
          "type": "address"
        },
        {
          "internalType": "bytes",
          "name": "_data",
          "type": "bytes"
        }
      ],
      "name": "purchase",
      "outputs": [],
      "payable": true,
      "stateMutability": "payable",
      "type": "function"
    },
    {
      "constant": true,
      "inputs": [
        {
          "internalType": "address",
          "name": "_recipient",
          "type": "address"
        },
        {
          "internalType": "address",
          "name": "_referrer",
          "type": "address"
        },
        {
          "internalType": "bytes",
          "name": "_data",
          "type": "bytes"
        }
      ],
      "name": "purchasePriceFor",
      "outputs": [
        {
          "internalType": "uint256",
          "name": "minKeyPrice",
          "type": "uint256"
        }
      ],
      "payable": false,
      "stateMutability": "view",
      "type": "function"
    },
    {
      "constant": true,
      "inputs": [],
      "name": "refundPenaltyBasisPoints",
      "outputs": [
        {
          "internalType": "uint256",
          "name": "",
          "type": "uint256"
        }
      ],
      "payable": false,
      "stateMutability": "view",
      "type": "function"
    },
    {
      "constant": false,
      "inputs": [],
      "name": "renounceLockManager",
      "outputs": [],
      "payable": false,
      "stateMutability": "nonpayable",
      "type": "function"
    },
    {
      "constant": false,
      "inputs": [],
      "name": "renounceOwnership",
      "outputs": [],
      "payable": false,
      "stateMutability": "nonpayable",
      "type": "function"
    },
    {
      "constant": false,
      "inputs": [
        {
          "internalType": "address",
          "name": "_granter",
          "type": "address"
        }
      ],
      "name": "revokeKeyGranter",
      "outputs": [],
      "payable": false,
      "stateMutability": "nonpayable",
      "type": "function"
    },
    {
      "constant": false,
      "inputs": [
        {
          "internalType": "address",
          "name": "_from",
          "type": "address"
        },
        {
          "internalType": "address",
          "name": "_to",
          "type": "address"
        },
        {
          "internalType": "uint256",
          "name": "_tokenId",
          "type": "uint256"
        }
      ],
      "name": "safeTransferFrom",
      "outputs": [],
      "payable": false,
      "stateMutability": "nonpayable",
      "type": "function"
    },
    {
      "constant": false,
      "inputs": [
        {
          "internalType": "address",
          "name": "_from",
          "type": "address"
        },
        {
          "internalType": "address",
          "name": "_to",
          "type": "address"
        },
        {
          "internalType": "uint256",
          "name": "_tokenId",
          "type": "uint256"
        },
        {
          "internalType": "bytes",
          "name": "_data",
          "type": "bytes"
        }
      ],
      "name": "safeTransferFrom",
      "outputs": [],
      "payable": false,
      "stateMutability": "nonpayable",
      "type": "function"
    },
    {
      "constant": false,
      "inputs": [
        {
          "internalType": "address",
          "name": "_to",
          "type": "address"
        },
        {
          "internalType": "bool",
          "name": "_approved",
          "type": "bool"
        }
      ],
      "name": "setApprovalForAll",
      "outputs": [],
      "payable": false,
      "stateMutability": "nonpayable",
      "type": "function"
    },
    {
      "constant": false,
      "inputs": [
        {
          "internalType": "string",
          "name": "_baseTokenURI",
          "type": "string"
        }
      ],
      "name": "setBaseTokenURI",
      "outputs": [],
      "payable": false,
      "stateMutability": "nonpayable",
      "type": "function"
    },
    {
      "constant": false,
      "inputs": [
        {
          "internalType": "address",
          "name": "_onKeyPurchaseHook",
          "type": "address"
        },
        {
          "internalType": "address",
          "name": "_onKeyCancelHook",
          "type": "address"
        }
      ],
      "name": "setEventHooks",
      "outputs": [],
      "payable": false,
      "stateMutability": "nonpayable",
      "type": "function"
    },
    {
      "constant": false,
      "inputs": [
        {
          "internalType": "uint256",
          "name": "_tokenId",
          "type": "uint256"
        },
        {
          "internalType": "address",
          "name": "_keyManager",
          "type": "address"
        }
      ],
      "name": "setKeyManagerOf",
      "outputs": [],
      "payable": false,
      "stateMutability": "nonpayable",
      "type": "function"
    },
    {
      "constant": false,
      "inputs": [
        {
          "internalType": "address",
          "name": "_to",
          "type": "address"
        },
        {
          "internalType": "uint256",
          "name": "_tokenId",
          "type": "uint256"
        },
        {
          "internalType": "uint256",
          "name": "_timeShared",
          "type": "uint256"
        }
      ],
      "name": "shareKey",
      "outputs": [],
      "payable": false,
      "stateMutability": "nonpayable",
      "type": "function"
    },
    {
      "constant": true,
      "inputs": [
        {
          "internalType": "bytes4",
          "name": "interfaceId",
          "type": "bytes4"
        }
      ],
      "name": "supportsInterface",
      "outputs": [
        {
          "internalType": "bool",
          "name": "",
          "type": "bool"
        }
      ],
      "payable": false,
      "stateMutability": "view",
      "type": "function"
    },
    {
      "constant": true,
      "inputs": [],
      "name": "symbol",
      "outputs": [
        {
          "internalType": "string",
          "name": "",
          "type": "string"
        }
      ],
      "payable": false,
      "stateMutability": "view",
      "type": "function"
    },
    {
      "constant": true,
      "inputs": [],
      "name": "tokenAddress",
      "outputs": [
        {
          "internalType": "address",
          "name": "",
          "type": "address"
        }
      ],
      "payable": false,
      "stateMutability": "view",
      "type": "function"
    },
    {
      "constant": true,
      "inputs": [
        {
          "internalType": "uint256",
          "name": "_index",
          "type": "uint256"
        }
      ],
      "name": "tokenByIndex",
      "outputs": [
        {
          "internalType": "uint256",
          "name": "",
          "type": "uint256"
        }
      ],
      "payable": false,
      "stateMutability": "view",
      "type": "function"
    },
    {
      "constant": true,
      "inputs": [
        {
          "internalType": "address",
          "name": "_keyOwner",
          "type": "address"
        },
        {
          "internalType": "uint256",
          "name": "_index",
          "type": "uint256"
        }
      ],
      "name": "tokenOfOwnerByIndex",
      "outputs": [
        {
          "internalType": "uint256",
          "name": "",
          "type": "uint256"
        }
      ],
      "payable": false,
      "stateMutability": "view",
      "type": "function"
    },
    {
      "constant": true,
      "inputs": [
        {
          "internalType": "uint256",
          "name": "_tokenId",
          "type": "uint256"
        }
      ],
      "name": "tokenURI",
      "outputs": [
        {
          "internalType": "string",
          "name": "",
          "type": "string"
        }
      ],
      "payable": false,
      "stateMutability": "view",
      "type": "function"
    },
    {
      "constant": true,
      "inputs": [],
      "name": "totalSupply",
      "outputs": [
        {
          "internalType": "uint256",
          "name": "",
          "type": "uint256"
        }
      ],
      "payable": false,
      "stateMutability": "view",
      "type": "function"
    },
    {
      "constant": true,
      "inputs": [],
      "name": "transferFeeBasisPoints",
      "outputs": [
        {
          "internalType": "uint256",
          "name": "",
          "type": "uint256"
        }
      ],
      "payable": false,
      "stateMutability": "view",
      "type": "function"
    },
    {
      "constant": false,
      "inputs": [
        {
          "internalType": "address",
          "name": "_from",
          "type": "address"
        },
        {
          "internalType": "address",
          "name": "_recipient",
          "type": "address"
        },
        {
          "internalType": "uint256",
          "name": "_tokenId",
          "type": "uint256"
        }
      ],
      "name": "transferFrom",
      "outputs": [],
      "payable": false,
      "stateMutability": "nonpayable",
      "type": "function"
    },
    {
      "constant": false,
      "inputs": [
        {
          "internalType": "address",
          "name": "newOwner",
          "type": "address"
        }
      ],
      "name": "transferOwnership",
      "outputs": [],
      "payable": false,
      "stateMutability": "nonpayable",
      "type": "function"
    },
    {
      "constant": true,
      "inputs": [],
      "name": "unlockProtocol",
      "outputs": [
        {
          "internalType": "contract IUnlock",
          "name": "",
          "type": "address"
        }
      ],
      "payable": false,
      "stateMutability": "view",
      "type": "function"
    },
    {
      "constant": false,
      "inputs": [
        {
          "internalType": "address",
          "name": "_beneficiary",
          "type": "address"
        }
      ],
      "name": "updateBeneficiary",
      "outputs": [],
      "payable": false,
      "stateMutability": "nonpayable",
      "type": "function"
    },
    {
      "constant": false,
      "inputs": [
        {
          "internalType": "uint256",
          "name": "_keyPrice",
          "type": "uint256"
        },
        {
          "internalType": "address",
          "name": "_tokenAddress",
          "type": "address"
        }
      ],
      "name": "updateKeyPricing",
      "outputs": [],
      "payable": false,
      "stateMutability": "nonpayable",
      "type": "function"
    },
    {
      "constant": false,
      "inputs": [
        {
          "internalType": "string",
          "name": "_lockName",
          "type": "string"
        }
      ],
      "name": "updateLockName",
      "outputs": [],
      "payable": false,
      "stateMutability": "nonpayable",
      "type": "function"
    },
    {
      "constant": false,
      "inputs": [
        {
          "internalType": "string",
          "name": "_lockSymbol",
          "type": "string"
        }
      ],
      "name": "updateLockSymbol",
      "outputs": [],
      "payable": false,
      "stateMutability": "nonpayable",
      "type": "function"
    },
    {
      "constant": false,
      "inputs": [
        {
          "internalType": "uint256",
          "name": "_freeTrialLength",
          "type": "uint256"
        },
        {
          "internalType": "uint256",
          "name": "_refundPenaltyBasisPoints",
          "type": "uint256"
        }
      ],
      "name": "updateRefundPenalty",
      "outputs": [],
      "payable": false,
      "stateMutability": "nonpayable",
      "type": "function"
    },
    {
      "constant": false,
      "inputs": [
        {
          "internalType": "uint256",
          "name": "_transferFeeBasisPoints",
          "type": "uint256"
        }
      ],
      "name": "updateTransferFee",
      "outputs": [],
      "payable": false,
      "stateMutability": "nonpayable",
      "type": "function"
    },
    {
      "constant": false,
      "inputs": [
        {
          "internalType": "address",
          "name": "_tokenAddress",
          "type": "address"
        },
        {
          "internalType": "uint256",
          "name": "_amount",
          "type": "uint256"
        }
      ],
      "name": "withdraw",
      "outputs": [],
      "payable": false,
      "stateMutability": "nonpayable",
      "type": "function"
    },
    {
      "constant": false,
      "inputs": [
        {
          "internalType": "address",
          "name": "_lockOwner",
          "type": "address"
        },
        {
          "internalType": "uint256",
          "name": "_expirationDuration",
          "type": "uint256"
        },
        {
          "internalType": "address",
          "name": "_tokenAddress",
          "type": "address"
        },
        {
          "internalType": "uint256",
          "name": "_keyPrice",
          "type": "uint256"
        },
        {
          "internalType": "uint256",
          "name": "_maxNumberOfKeys",
          "type": "uint256"
        },
        {
          "internalType": "string",
          "name": "_lockName",
          "type": "string"
        }
      ],
      "name": "initialize",
      "outputs": [],
      "payable": false,
      "stateMutability": "nonpayable",
      "type": "function"
    },
    {
      "constant": false,
      "inputs": [],
      "name": "initialize",
      "outputs": [],
      "payable": false,
      "stateMutability": "nonpayable",
      "type": "function"
    },
    {
      "constant": false,
      "inputs": [
        {
          "internalType": "address",
          "name": "sender",
          "type": "address"
        }
      ],
      "name": "initialize",
      "outputs": [],
      "payable": false,
      "stateMutability": "nonpayable",
      "type": "function"
    }
  ],
  "bytecode": "0x6080604052615e56806100136000396000f3fe6080604052600436106104315760003560e01c806374b6c10611610229578063abdf82ce1161012e578063d2503485116100b6578063f12c6b6e1161007a578063f12c6b6e14611440578063f2fde38b1461147f578063f3fef3a3146114b2578063fc42b58f146114eb578063fe72e4c11461152457610431565b8063d250348514611358578063d32bfb6c1461138b578063d4fac45d146113b5578063e985e9c5146113f0578063f0ba60401461142b57610431565b8063b88d4fde116100fd578063b88d4fde14611200578063c1c98d03146112d1578063c4d66de8146112e6578063c87b56dd14611319578063d1bbd49c1461134357610431565b8063abdf82ce1461110b578063ad0e0a4d1461113e578063b11d7ec114611179578063b2e0f6e7146111b257610431565b806395d89b41116101b15780639d76ea58116101805780639d76ea581461103a578063a22cb4651461104f578063a2e4cd2e1461108a578063a375cb05146110c3578063aae4b8f7146110d857610431565b806395d89b4114610f80578063970aaeb714610f9557806397aa390a14610fc8578063994a8a711461100157610431565b80638577a6d5116101f85780638577a6d514610edc5780638d0361fc14610f065780638da5cb5b14610f415780638f32d59b14610f5657806393fd184414610f6b57610431565b806374b6c10614610d1c578063782a4ade14610d315780638129fc1c14610dac57806381a3c94314610dc157610431565b806330176e131161033a57806352b0f638116102c25780636352211e116102865780636352211e14610b9b5780636d8ea5b414610bc55780636eadde4314610bf857806370a0823114610cd4578063715018a614610d0757610431565b806352b0f63814610a7257806352d6a8e414610aa5578063550ef3a814610ad8578063564aa99d14610b5357806356e0d51f14610b8657610431565b80633f33133a116103095780633f33133a146109385780634136aa35146109c657806342842e0e146109db5780634d025fed14610a1e5780634f6ccce714610a4857610431565b806330176e131461084e57806335576ad0146108c957806338af3eed146108f357806339f469861461090857610431565b806310e56973116103bd578063217751bc1161038c578063217751bc1461077557806323b872dd1461078a5780632af9162a146107cd5780632d33dd5b146108005780632f745c591461081557610431565b806310e569731461072157806311a4c03a1461073657806318160ddd1461074b578063183767da1461076057610431565b8063095ea7b311610404578063095ea7b314610578578063097ba333146105b35780630aaffd2a146106595780630f15023b1461068c57806310803b72146106a157610431565b806301ffc9a714610436578063025e7c271461047e57806306fdde03146104c4578063081812fc1461054e575b600080fd5b34801561044257600080fd5b5061046a6004803603602081101561045957600080fd5b50356001600160e01b031916611557565b604080519115158252519081900360200190f35b34801561048a57600080fd5b506104a8600480360360208110156104a157600080fd5b503561157a565b604080516001600160a01b039092168252519081900360200190f35b3480156104d057600080fd5b506104d96115a1565b6040805160208082528351818301528351919283929083019185019080838360005b838110156105135781810151838201526020016104fb565b50505050905090810190601f1680156105405780820380516001836020036101000a031916815260200191505b509250505060405180910390f35b34801561055a57600080fd5b506104a86004803603602081101561057157600080fd5b503561162f565b34801561058457600080fd5b506105b16004803603604081101561059b57600080fd5b506001600160a01b03813516906020013561168f565b005b3480156105bf57600080fd5b50610647600480360360608110156105d657600080fd5b6001600160a01b038235811692602081013590911691810190606081016040820135600160201b81111561060957600080fd5b82018360208201111561061b57600080fd5b803590602001918460018302840111600160201b8311171561063c57600080fd5b509092509050611828565b60408051918252519081900360200190f35b34801561066557600080fd5b506105b16004803603602081101561067c57600080fd5b50356001600160a01b0316611877565b34801561069857600080fd5b506104a8611954565b3480156106ad57600080fd5b506106d1600480360360408110156106c457600080fd5b5080359060200135611963565b60408051602080825283518183015283519192839290830191858101910280838360005b8381101561070d5781810151838201526020016106f5565b505050509050019250505060405180910390f35b34801561072d57600080fd5b50610647611a7b565b34801561074257600080fd5b50610647611a81565b34801561075757600080fd5b50610647611a87565b34801561076c57600080fd5b50610647611a8e565b34801561078157600080fd5b506104a8611a94565b34801561079657600080fd5b506105b1600480360360608110156107ad57600080fd5b506001600160a01b03813581169160208101359091169060400135611aa3565b3480156107d957600080fd5b506105b1600480360360208110156107f057600080fd5b50356001600160a01b0316611dba565b34801561080c57600080fd5b506104a8611e46565b34801561082157600080fd5b506106476004803603604081101561083857600080fd5b506001600160a01b038135169060200135611e55565b34801561085a57600080fd5b506105b16004803603602081101561087157600080fd5b810190602081018135600160201b81111561088b57600080fd5b82018360208201111561089d57600080fd5b803590602001918460018302840111600160201b831117156108be57600080fd5b509092509050611eb3565b3480156108d557600080fd5b506105b1600480360360208110156108ec57600080fd5b5035611f0b565b3480156108ff57600080fd5b506104a8611fad565b34801561091457600080fd5b506105b16004803603604081101561092b57600080fd5b5080359060200135611fbc565b6105b16004803603608081101561094e57600080fd5b8135916001600160a01b03602082013581169260408301359091169190810190608081016060820135600160201b81111561098857600080fd5b82018360208201111561099a57600080fd5b803590602001918460018302840111600160201b831117156109bb57600080fd5b509092509050612049565b3480156109d257600080fd5b5061046a612559565b3480156109e757600080fd5b506105b1600480360360608110156109fe57600080fd5b506001600160a01b03813581169160208101359091169060400135612569565b348015610a2a57600080fd5b506104a860048036036020811015610a4157600080fd5b5035612584565b348015610a5457600080fd5b5061064760048036036020811015610a6b57600080fd5b503561259f565b348015610a7e57600080fd5b5061046a60048036036020811015610a9557600080fd5b50356001600160a01b03166125ea565b348015610ab157600080fd5b5061064760048036036020811015610ac857600080fd5b50356001600160a01b03166125fd565b348015610ae457600080fd5b506105b160048036036020811015610afb57600080fd5b810190602081018135600160201b811115610b1557600080fd5b820183602082011115610b2757600080fd5b803590602001918460018302840111600160201b83111715610b4857600080fd5b509092509050612608565b348015610b5f57600080fd5b506105b160048036036020811015610b7657600080fd5b50356001600160a01b031661265b565b348015610b9257600080fd5b506106476126e7565b348015610ba757600080fd5b506104a860048036036020811015610bbe57600080fd5b50356126ed565b348015610bd157600080fd5b5061046a60048036036020811015610be857600080fd5b50356001600160a01b0316612763565b348015610c0457600080fd5b506105b1600480360360c0811015610c1b57600080fd5b6001600160a01b03823581169260208101359260408201359092169160608201359160808101359181019060c0810160a0820135600160201b811115610c6057600080fd5b820183602082011115610c7257600080fd5b803590602001918460018302840111600160201b83111715610c9357600080fd5b91908080601f016020809104026020016040519081016040528093929190818152602001838380828437600092019190915250929550612783945050505050565b348015610ce057600080fd5b5061064760048036036020811015610cf757600080fd5b50356001600160a01b031661288c565b348015610d1357600080fd5b506105b16128fb565b348015610d2857600080fd5b5061064761298c565b348015610d3d57600080fd5b506105b160048036036020811015610d5457600080fd5b810190602081018135600160201b811115610d6e57600080fd5b820183602082011115610d8057600080fd5b803590602001918460018302840111600160201b83111715610da157600080fd5b509092509050612992565b348015610db857600080fd5b506105b1612a4a565b348015610dcd57600080fd5b506105b160048036036060811015610de457600080fd5b810190602081018135600160201b811115610dfe57600080fd5b820183602082011115610e1057600080fd5b803590602001918460208302840111600160201b83111715610e3157600080fd5b919390929091602081019035600160201b811115610e4e57600080fd5b820183602082011115610e6057600080fd5b803590602001918460208302840111600160201b83111715610e8157600080fd5b919390929091602081019035600160201b811115610e9e57600080fd5b820183602082011115610eb057600080fd5b803590602001918460208302840111600160201b83111715610ed157600080fd5b509092509050612afc565b348015610ee857600080fd5b506105b160048036036020811015610eff57600080fd5b5035612d1e565b348015610f1257600080fd5b5061064760048036036040811015610f2957600080fd5b506001600160a01b0381358116916020013516612d9d565b348015610f4d57600080fd5b506104a8612e26565b348015610f6257600080fd5b5061046a612e35565b348015610f7757600080fd5b50610647612e5b565b348015610f8c57600080fd5b506104d9612e61565b348015610fa157600080fd5b5061064760048036036020811015610fb857600080fd5b50356001600160a01b0316613050565b348015610fd457600080fd5b506105b160048036036040811015610feb57600080fd5b506001600160a01b03813516906020013561306b565b34801561100d57600080fd5b5061046a6004803603604081101561102457600080fd5b50803590602001356001600160a01b0316613107565b34801561104657600080fd5b506104a8613128565b34801561105b57600080fd5b506105b16004803603604081101561107257600080fd5b506001600160a01b0381351690602001351515613137565b34801561109657600080fd5b506105b1600480360360408110156110ad57600080fd5b50803590602001356001600160a01b0316613242565b3480156110cf57600080fd5b50610647613411565b3480156110e457600080fd5b5061046a600480360360208110156110fb57600080fd5b50356001600160a01b0316613417565b34801561111757600080fd5b506106476004803603602081101561112e57600080fd5b50356001600160a01b031661342a565b34801561114a57600080fd5b506105b16004803603604081101561116157600080fd5b506001600160a01b0381358116916020013516613448565b34801561118557600080fd5b506105b16004803603604081101561119c57600080fd5b50803590602001356001600160a01b03166135a2565b3480156111be57600080fd5b506105b1600480360360a08110156111d557600080fd5b506001600160a01b038135169060ff60208201351690604081013590606081013590608001356136bf565b34801561120c57600080fd5b506105b16004803603608081101561122357600080fd5b6001600160a01b03823581169260208101359091169160408201359190810190608081016060820135600160201b81111561125d57600080fd5b82018360208201111561126f57600080fd5b803590602001918460018302840111600160201b8311171561129057600080fd5b91908080601f01602080910402602001604051908101604052809392919081815260200183838082843760009201919091525092955061380f945050505050565b3480156112dd57600080fd5b506105b161387d565b3480156112f257600080fd5b506105b16004803603602081101561130957600080fd5b50356001600160a01b031661394c565b34801561132557600080fd5b506104d96004803603602081101561133c57600080fd5b5035613a3e565b34801561134f57600080fd5b50610647613ccb565b34801561136457600080fd5b506105b16004803603602081101561137b57600080fd5b50356001600160a01b0316613cd0565b34801561139757600080fd5b506105b1600480360360208110156113ae57600080fd5b5035613d5f565b3480156113c157600080fd5b50610647600480360360408110156113d857600080fd5b506001600160a01b0381358116916020013516613dd2565b3480156113fc57600080fd5b5061046a6004803603604081101561141357600080fd5b506001600160a01b0381358116916020013516613e7c565b34801561143757600080fd5b506105b1613f11565b34801561144c57600080fd5b506105b16004803603606081101561146357600080fd5b506001600160a01b038135169060208101359060400135613f4f565b34801561148b57600080fd5b506105b1600480360360208110156114a257600080fd5b50356001600160a01b03166142e5565b3480156114be57600080fd5b506105b1600480360360408110156114d557600080fd5b506001600160a01b038135169060200135614335565b3480156114f757600080fd5b506106476004803603604081101561150e57600080fd5b506001600160a01b038135169060200135614489565b34801561153057600080fd5b506106476004803603602081101561154757600080fd5b50356001600160a01b0316614532565b6001600160e01b0319811660009081526033602052604090205460ff165b919050565b60a6818154811061158757fe5b6000918252602090912001546001600160a01b0316905081565b60a9805460408051602060026001851615610100026000190190941693909304601f810184900484028201840190925281815292918301828280156116275780601f106115fc57610100808354040283529160200191611627565b820191906000526020600020905b81548152906001019060200180831161160a57829003601f168201915b505050505081565b600081815260ac60205260408120546001600160a01b031680611689576040805162461bcd60e51b815260206004820152600d60248201526c1393d39157d054141493d59151609a1b604482015290519081900360640190fd5b92915050565b609a54600160a01b900460ff166116df576040805162461bcd60e51b815260206004820152600f60248201526e1313d0d2d7d11154149150d0551151608a1b604482015290519081900360640190fd5b806116ea8133614544565b806116fa57506116fa81336145a6565b806117225750600081815260a56020526040902054611722906001600160a01b031633613e7c565b611773576040805162461bcd60e51b815260206004820152601c60248201527f4f4e4c595f4b45595f4d414e414745525f4f525f415050524f56454400000000604482015290519081900360640190fd5b336001600160a01b03841614156117c0576040805162461bcd60e51b815260206004820152600c60248201526b20a8282927ab22afa9a2a62360a11b604482015290519081900360640190fd5b600082815260ac6020908152604080832080546001600160a01b0319166001600160a01b0388811691821790925560a5909352818420549151869492909116917f8c5be1e5ebec7d5bd14f71427d1e84f3dd0314c0f7b2291e5b200ac8c7c3b92591a4505050565b600061186b858585858080601f0160208091040260200160405190810160405280939291908181526020018383808284376000920191909152506145c792505050565b50909695505050505050565b60a1546001600160a01b0316331480611894575061189433613417565b6118e5576040805162461bcd60e51b815260206004820152601f60248201527f4f4e4c595f42454e45464943494152595f4f525f4c4f434b4d414e4147455200604482015290519081900360640190fd5b6001600160a01b038116611932576040805162461bcd60e51b815260206004820152600f60248201526e494e56414c49445f4144445245535360881b604482015290519081900360640190fd5b60a180546001600160a01b0319166001600160a01b0392909216919091179055565b609c546001600160a01b031681565b60a6546060906119b0576040805162461bcd60e51b81526020600482015260136024820152724e4f5f4f55545354414e44494e475f4b45595360681b604482015290519081900360640190fd5b60a65482908482029060009082840111156119d3575060a65481810392506119d8565b508082015b606083604051908082528060200260200182016040528015611a04578160200160208202803883390190505b5090506000835b83811015611a6e5760a68181548110611a2057fe5b9060005260206000200160009054906101000a90046001600160a01b0316838381518110611a4a57fe5b6001600160a01b039092166020928302919091019091015260019182019101611a0b565b5090979650505050505050565b609e5481565b609d5481565b60a0545b90565b60ae5481565b60a3546001600160a01b031681565b609a54600160a01b900460ff16611af3576040805162461bcd60e51b815260206004820152600f60248201526e1313d0d2d7d11154149150d0551151608a1b604482015290519081900360640190fd5b82611afd81612763565b611b3e576040805162461bcd60e51b815260206004820152600d60248201526c12d15657d393d517d590531251609a1b604482015290519081900360640190fd5b81611b498133614544565b80611b595750611b5981336145a6565b80611b815750600081815260a56020526040902054611b81906001600160a01b031633613e7c565b611bd2576040805162461bcd60e51b815260206004820152601c60248201527f4f4e4c595f4b45595f4d414e414745525f4f525f415050524f56454400000000604482015290519081900360640190fd5b611bdc8386613107565b611c2d576040805162461bcd60e51b815260206004820152601c60248201527f5452414e534645525f46524f4d3a204e4f545f4b45595f4f574e455200000000604482015290519081900360640190fd5b61271060ae5410611c7e576040805162461bcd60e51b815260206004820152601660248201527512d15657d514905394d1915494d7d11254d05093115160521b604482015290519081900360640190fd5b6001600160a01b038416611ccb576040805162461bcd60e51b815260206004820152600f60248201526e494e56414c49445f4144445245535360881b604482015290519081900360640190fd5b6000611cd8866000614489565b6001600160a01b03808816600090815260a46020526040808220928916825281206001810154939450919290611d1190889086906147d3565b8154611d2457868255611d2488886148f5565b428111611d505760018084015490830155868255611d418761497c565b611d4b88886148f5565b611d6d565b6001830154611d679042830363ffffffff6149e116565b60018301555b42600184015560008355611d8087614a3b565b86886001600160a01b03168a6001600160a01b0316600080516020615dd883398151915260405160405180910390a4505050505050505050565b611dc333613417565b611dfe5760405162461bcd60e51b815260040180806020018281038252603b815260200180615c69603b913960400191505060405180910390fd5b611e0f60a88263ffffffff614a7616565b6040516001600160a01b038216907f766f6199fea59554b9ff688e413302b9200f85d74811c053c12d945ac6d8dd7a90600090a250565b60a2546001600160a01b031681565b60008115611ea3576040805162461bcd60e51b815260206004820152601660248201527527a7262cafa7a722afa5a2acafa822a92fa7aba722a960511b604482015290519081900360640190fd5b611eac83613050565b9392505050565b611ebb612e35565b611efa576040805162461bcd60e51b81526020600482018190526024820152600080516020615d68833981519152604482015290519081900360640190fd5b611f0660ab8383615b1b565b505050565b336000908152609960205260409020548111611f63576040805162461bcd60e51b81526020600482015260126024820152711393d390d157d053149150511657d554d15160721b604482015290519081900360640190fd5b33600081815260996020908152604091829020849055815184815291517ff5d035b703f1ad8d403dd02e821d04257acafc5f6c5d70a3907bd8abf33a2e0f9281900390910190a250565b60a1546001600160a01b031681565b611fc4612e35565b612003576040805162461bcd60e51b81526020600482018190526024820152600080516020615d68833981519152604482015290519081900360640190fd5b604080518381526020810183905281517fd6867bc538320e67d7bdc35860c27c08486eb490b4fd9b820fff18fb28381d3c929181900390910190a160b09190915560af55565b609a54600160a01b900460ff16612099576040805162461bcd60e51b815260206004820152600f60248201526e1313d0d2d7d11154149150d0551151608a1b604482015290519081900360640190fd5b60a054609f54116120e1576040805162461bcd60e51b815260206004820152600d60248201526c1313d0d2d7d4d3d31117d3d555609a1b604482015290519081900360640190fd5b6001600160a01b03841661212e576040805162461bcd60e51b815260206004820152600f60248201526e494e56414c49445f4144445245535360881b604482015290519081900360640190fd5b6001600160a01b038416600090815260a460205260408120805490918161219e5761215883614add565b8254915061216687836148f5565b50609d5442016001830181905560405182906001600160a01b03891690600090600080516020615dd8833981519152908290a4612264565b428360010154111561220e57609d5460018401546121c19163ffffffff6149e116565b600184018190556040805182815290519192506001600160a01b038916917f872bd7c99ad5e7b6ed7f0a890f348839cb8e225c9deaa3909afedae54c93d17d9181900360200190a2612264565b50609d544201600183018190556122248261497c565b6040805182815290516001600160a01b038916917f872bd7c99ad5e7b6ed7f0a890f348839cb8e225c9deaa3909afedae54c93d17d919081900360200190a25b60008060006122aa8a8a8a8a8080601f0160208091040260200160405190810160405280939291908181526020018383808284376000920191909152506145c792505050565b91945092509050811561232457609c5460408051633652466360e01b8152600481018590526024810184905290516001600160a01b039092169163365246639160448082019260009290919082900301818387803b15801561230b57600080fd5b505af115801561231f573d6000803e3d6000fd5b505050505b609c546001600160a01b031663939d9f1f8461233f8c612763565b61234a57600061234c565b8b5b6040518363ffffffff1660e01b815260040180838152602001826001600160a01b03166001600160a01b0316815260200192505050600060405180830381600087803b15801561239b57600080fd5b505af11580156123af573d6000803e3d6000fd5b5050609a54600092506001600160a01b03161590506123ef5750609a548b906001600160a01b03166123e98133308563ffffffff614af216565b506123f2565b50345b8381101561243c576040805162461bcd60e51b8152602060048201526012602482015271494e53554646494349454e545f56414c554560701b604482015290519081900360640190fd5b60a2546001600160a01b03161561254b5760a260009054906101000a90046001600160a01b03166001600160a01b03166398499657338d8d8d8d8a886040518863ffffffff1660e01b815260040180886001600160a01b03166001600160a01b03168152602001876001600160a01b03166001600160a01b03168152602001866001600160a01b03166001600160a01b03168152602001806020018481526020018381526020018281038252868682818152602001925080828437600081840152601f19601f82011690508083019250505098505050505050505050600060405180830381600087803b15801561253257600080fd5b505af1158015612546573d6000803e3d6000fd5b505050505b505050505050505050505050565b609a54600160a01b900460ff1681565b611f068383836040518060200160405280600081525061380f565b60a7602052600090815260409020546001600160a01b031681565b600060a05482106125e6576040805162461bcd60e51b815260206004820152600c60248201526b4f55545f4f465f52414e474560a01b604482015290519081900360640190fd5b5090565b600061168960a88363ffffffff614b4c16565b600061168982614bb3565b612610612e35565b61264f576040805162461bcd60e51b81526020600482018190526024820152600080516020615d68833981519152604482015290519081900360640190fd5b611f0660a98383615b1b565b61266433613417565b61269f5760405162461bcd60e51b815260040180806020018281038252603b815260200180615c69603b913960400191505060405180910390fd5b6126b060a88263ffffffff614cba16565b6040516001600160a01b038216907f684f8a71407db0c334454ebe9c9b288549317893a20b10dc779ec5c118dcd12190600090a250565b60af5481565b600081815260a5602052604081205482906001600160a01b0316612746576040805162461bcd60e51b815260206004820152600b60248201526a4e4f5f535543485f4b455960a81b604482015290519081900360640190fd5b5050600090815260a560205260409020546001600160a01b031690565b6001600160a01b0316600090815260a46020526040902060010154421090565b600054610100900460ff168061279c575061279c614d3b565b806127aa575060005460ff16155b6127e55760405162461bcd60e51b815260040180806020018281038252602e815260200180615daa602e913960400191505060405180910390fd5b600054610100900460ff16158015612810576000805460ff1961ff0019909116610100171660011790555b6128198761394c565b61282285614d41565b61282a614e10565b61283687878686614e25565b61283f82614ebb565b612847614ee7565b61284f614ef9565b61285887614f01565b61286187614f1f565b6128716380ac58cd60e01b614f3d565b8015612883576000805461ff00191690555b50505050505050565b60006001600160a01b0382166128db576040805162461bcd60e51b815260206004820152600f60248201526e494e56414c49445f4144445245535360881b604482015290519081900360640190fd5b6128e482612763565b6128ef5760006128f2565b60015b60ff1692915050565b612903612e35565b612942576040805162461bcd60e51b81526020600482018190526024820152600080516020615d68833981519152604482015290519081900360640190fd5b6066546040516000916001600160a01b0316907f8be0079c531659141344cd1fd0a4f28419497f9722a3daafe3b4186f6b6457e0908390a3606680546001600160a01b0319169055565b609f5481565b61299a612e35565b6129d9576040805162461bcd60e51b81526020600482018190526024820152600080516020615d68833981519152604482015290519081900360640190fd5b6129e560aa8383615b1b565b507f8868e22e84ebf32da89b2ebcb0ac642816304ea3863b257f240df9098719cb97828260405180806020018281038252848482818152602001925080828437600083820152604051601f909101601f19169092018290039550909350505050a15050565b600054610100900460ff1680612a635750612a63614d3b565b80612a71575060005460ff16155b612aac5760405162461bcd60e51b815260040180806020018281038252602e815260200180615daa602e913960400191505060405180910390fd5b600054610100900460ff16158015612ad7576000805460ff1961ff0019909116610100171660011790555b612ae76301ffc9a760e01b614f3d565b8015612af9576000805461ff00191690555b50565b612b05336125ea565b80612b145750612b1433613417565b612b4f5760405162461bcd60e51b8152600401808060200182810382526048815260200180615cde6048913960600191505060405180910390fd5b60005b85811015612883576000878783818110612b6857fe5b905060200201356001600160a01b031690506000868684818110612b8857fe5b9050602002013590506000858585818110612b9f57fe5b905060200201356001600160a01b0316905060006001600160a01b0316836001600160a01b03161415612c0b576040805162461bcd60e51b815260206004820152600f60248201526e494e56414c49445f4144445245535360881b604482015290519081900360640190fd5b6001600160a01b038316600090815260a46020526040902060018101548311612c6e576040805162461bcd60e51b815260206004820152601060248201526f414c52454144595f4f574e535f4b455960801b604482015290519081900360640190fd5b805480612c8b57612c7e82614add565b508054612c8b85826148f5565b600081815260a7602052604080822080546001600160a01b0319166001600160a01b0387169081179091559051909183917f9d2895c45a420624de863a2f437b022d879f457bf7a829044055a10c5a6fd5e39190a36001820184905560405181906001600160a01b03871690600090600080516020615dd8833981519152908290a4505060019093019250612b52915050565b612d26612e35565b612d65576040805162461bcd60e51b81526020600482018190526024820152600080516020615d68833981519152604482015290519081900360640190fd5b6040805182815290517f0496ed1e61eb69727f9659a8e859288db4758ffb1f744d1c1424634f90a257f49181900360200190a160ae55565b6000306040518080615c1e60259139604080519182900360250182206001600160a01b03881660009081526099602090815290839020546bffffffffffffffffffffffff19606097881b811683870152603486019390935260548501529487901b1660748301528051606881840301815260889092019052805192019190912091505092915050565b6066546001600160a01b031690565b6066546000906001600160a01b0316612e4c614fc1565b6001600160a01b031614905090565b60a65490565b60aa5460609060026000196101006001841615020190911604612fbe57609c60009054906101000a90046001600160a01b03166001600160a01b031663cec410526040518163ffffffff1660e01b815260040160006040518083038186803b158015612ecc57600080fd5b505afa158015612ee0573d6000803e3d6000fd5b505050506040513d6000823e601f3d908101601f191682016040526020811015612f0957600080fd5b8101908080516040519392919084600160201b821115612f2857600080fd5b908301906020820185811115612f3d57600080fd5b8251600160201b811182820188101715612f5657600080fd5b82525081516020918201929091019080838360005b83811015612f83578181015183820152602001612f6b565b50505050905090810190601f168015612fb05780820380516001836020036101000a031916815260200191505b506040525050509050611a8b565b60aa805460408051602060026001851615610100026000190190941693909304601f810184900484028201840190925281815292918301828280156130445780601f1061301957610100808354040283529160200191613044565b820191906000526020600020905b81548152906001019060200180831161302757829003601f168201915b50505050509050611a8b565b6001600160a01b0316600090815260a4602052604090205490565b613073612e35565b6130b2576040805162461bcd60e51b81526020600482018190526024820152600080516020615d68833981519152604482015290519081900360640190fd5b816130bc81612763565b6130fd576040805162461bcd60e51b815260206004820152600d60248201526c12d15657d393d517d590531251609a1b604482015290519081900360640190fd5b611f068383614fc5565b600091825260a56020526040909120546001600160a01b0391821691161490565b609a546001600160a01b031681565b609a54600160a01b900460ff16613187576040805162461bcd60e51b815260206004820152600f60248201526e1313d0d2d7d11154149150d0551151608a1b604482015290519081900360640190fd5b6001600160a01b0382163314156131d4576040805162461bcd60e51b815260206004820152600c60248201526b20a8282927ab22afa9a2a62360a11b604482015290519081900360640190fd5b33600081815260ad602090815260408083206001600160a01b03871680855290835292819020805460ff1916861515908117909155815190815290519293927f17307eab39ab6107e8899845ad3d59bd9653f200f220920489ca2b5937696c31929181900390910190a35050565b61324b33613417565b6132865760405162461bcd60e51b815260040180806020018281038252603b815260200180615c69603b913960400191505060405180910390fd5b609a54600160a01b900460ff166132d6576040805162461bcd60e51b815260206004820152600f60248201526e1313d0d2d7d11154149150d0551151608a1b604482015290519081900360640190fd5b609e54609a546001600160a01b03908116908316158061335a57506000836001600160a01b03166318160ddd6040518163ffffffff1660e01b815260040160206040518083038186803b15801561332c57600080fd5b505afa158015613340573d6000803e3d6000fd5b505050506040513d602081101561335657600080fd5b5051115b61339b576040805162461bcd60e51b815260206004820152600d60248201526c24a72b20a624a22faa27a5a2a760991b604482015290519081900360640190fd5b609e849055609a80546001600160a01b0319166001600160a01b038581169190911791829055604080518581526020810188905284831681830152929091166060830152517f3615065ccf48367ac483ac86701248e2e5ff55bdd9be845007d34a3b68d719d4916080908290030190a150505050565b60b05481565b6000611689609b8363ffffffff614b4c16565b6001600160a01b0316600090815260a4602052604090206001015490565b61345133613417565b61348c5760405162461bcd60e51b815260040180806020018281038252603b815260200180615c69603b913960400191505060405180910390fd5b6001600160a01b03821615806134af57506134af826001600160a01b03166150c0565b613500576040805162461bcd60e51b815260206004820152601860248201527f494e56414c49445f4f4e5f4b45595f534f4c445f484f4f4b0000000000000000604482015290519081900360640190fd5b6001600160a01b03811615806135235750613523816001600160a01b03166150c0565b613574576040805162461bcd60e51b815260206004820152601a60248201527f494e56414c49445f4f4e5f4b45595f43414e43454c5f484f4f4b000000000000604482015290519081900360640190fd5b60a280546001600160a01b039384166001600160a01b03199182161790915560a38054929093169116179055565b600082815260a5602052604090205482906001600160a01b03166135fb576040805162461bcd60e51b815260206004820152600b60248201526a4e4f5f535543485f4b455960a81b604482015290519081900360640190fd5b6136058333614544565b80613614575061361433613417565b613665576040805162461bcd60e51b815260206004820152601f60248201527f554e415554484f52495a45445f4b45595f4d414e414745525f55504441544500604482015290519081900360640190fd5b600083815260a7602052604080822080546001600160a01b0319166001600160a01b0386169081179091559051909185917f9d2895c45a420624de863a2f437b022d879f457bf7a829044055a10c5a6fd5e39190a3505050565b6136c98533612d9d565b85858585836001600160a01b031660016136e2876150f7565b85858560405160008152602001604052604051808581526020018460ff1660ff1681526020018381526020018281526020019450505050506020604051602081039080840390855afa15801561373c573d6000803e3d6000fd5b505050602060405103516001600160a01b031614613795576040805162461bcd60e51b8152602060048201526011602482015270494e56414c49445f5349474e415455524560781b604482015290519081900360640190fd5b6001600160a01b038416600081815260996020908152604091829020805460010190819055825190815291517ff5d035b703f1ad8d403dd02e821d04257acafc5f6c5d70a3907bd8abf33a2e0f9281900390910190a260006137f6876126ed565b9050600061380382614bb3565b905061254b8282614fc5565b61381a848484611aa3565b61382684848484615148565b613877576040805162461bcd60e51b815260206004820152601d60248201527f4e4f4e5f434f4d504c49414e545f4552433732315f5245434549564552000000604482015290519081900360640190fd5b50505050565b613885612e35565b6138c4576040805162461bcd60e51b81526020600482018190526024820152600080516020615d68833981519152604482015290519081900360640190fd5b609a54600160a01b900460ff16613914576040805162461bcd60e51b815260206004820152600f60248201526e1313d0d2d7d11154149150d0551151608a1b604482015290519081900360640190fd5b6040517f25a311358326fb18c62efc24bc28d3126acee8d2a67fd8b2145b757dc8bd1bc190600090a1609a805460ff60a01b19169055565b600054610100900460ff16806139655750613965614d3b565b80613973575060005460ff16155b6139ae5760405162461bcd60e51b815260040180806020018281038252602e815260200180615daa602e913960400191505060405180910390fd5b600054610100900460ff161580156139d9576000805460ff1961ff0019909116610100171660011790555b606680546001600160a01b0319166001600160a01b0384811691909117918290556040519116906000907f8be0079c531659141344cd1fd0a4f28419497f9722a3daafe3b4186f6b6457e0908290a38015613a3a576000805461ff00191690555b5050565b600081815260a5602052604090205460609082906001600160a01b0316613a9a576040805162461bcd60e51b815260206004820152600b60248201526a4e4f5f535543485f4b455960a81b604482015290519081900360640190fd5b60ab5460609060026000196101006001841615020190911604613bf757609c60009054906101000a90046001600160a01b03166001600160a01b031663a998e9fb6040518163ffffffff1660e01b815260040160006040518083038186803b158015613b0557600080fd5b505afa158015613b19573d6000803e3d6000fd5b505050506040513d6000823e601f3d908101601f191682016040526020811015613b4257600080fd5b8101908080516040519392919084600160201b821115613b6157600080fd5b908301906020820185811115613b7657600080fd5b8251600160201b811182820188101715613b8f57600080fd5b82525081516020918201929091019080838360005b83811015613bbc578181015183820152602001613ba4565b50505050905090810190601f168015613be95780820380516001836020036101000a031916815260200191505b506040525050509050613c85565b60ab805460408051602060026001851615610100026000190190941693909304601f81018490048402820184019092528181529291830182828015613c7d5780601f10613c5257610100808354040283529160200191613c7d565b820191906000526020600020905b815481529060010190602001808311613c6057829003601f168201915b505050505090505b613cc3613c913061527b565b604051806040016040528060018152602001602f60f81b815250613cb4876153f7565b8492919063ffffffff6154bb16565b949350505050565b600790565b613cd8612e35565b613d17576040805162461bcd60e51b81526020600482018190526024820152600080516020615d68833981519152604482015290519081900360640190fd5b613d28609b8263ffffffff614cba16565b6040516001600160a01b038216907f91d5c045d5bd98bf59a379b259ebca05b93bf79af1845fdf87e3172385d4c7f790600090a250565b80613d6a8133614544565b613dae576040805162461bcd60e51b815260206004820152601060248201526f27a7262cafa5a2acafa6a0a720a3a2a960811b604482015290519081900360640190fd5b6000613db9836126ed565b90506000613dc682614bb3565b90506138778282614fc5565b60006001600160a01b038316613df357506001600160a01b03811631611689565b826001600160a01b03166370a08231836040518263ffffffff1660e01b815260040180826001600160a01b03166001600160a01b0316815260200191505060206040518083038186803b158015613e4957600080fd5b505afa158015613e5d573d6000803e3d6000fd5b505050506040513d6020811015613e7357600080fd5b50519050611689565b6001600160a01b03808316600090815260a4602090815260408083205480845260a7909252822054919290911680613edf575050506001600160a01b03808316600090815260ad602090815260408083209385168352929052205460ff16611689565b6001600160a01b03908116600090815260ad602090815260408083209387168352929052205460ff1691506116899050565b613f22609b3363ffffffff614a7616565b60405133907f42885193b8178d25fca25a38e6fcc93918501e91be06d85e0c8afb3bad95238090600090a2565b609a54600160a01b900460ff16613f9f576040805162461bcd60e51b815260206004820152600f60248201526e1313d0d2d7d11154149150d0551151608a1b604482015290519081900360640190fd5b81613faa8133614544565b80613fba5750613fba81336145a6565b80613fe25750600081815260a56020526040902054613fe2906001600160a01b031633613e7c565b614033576040805162461bcd60e51b815260206004820152601c60248201527f4f4e4c595f4b45595f4d414e414745525f4f525f415050524f56454400000000604482015290519081900360640190fd5b61271060ae5410614084576040805162461bcd60e51b815260206004820152601660248201527512d15657d514905394d1915494d7d11254d05093115160521b604482015290519081900360640190fd5b6001600160a01b0384166140d1576040805162461bcd60e51b815260206004820152600f60248201526e494e56414c49445f4144445245535360881b604482015290519081900360640190fd5b600083815260a560205260409020546001600160a01b03166140f281612763565b614133576040805162461bcd60e51b815260206004820152600d60248201526c12d15657d393d517d590531251609a1b604482015290519081900360640190fd5b6001600160a01b03808216600090815260a460205260408082209288168252812080546001840154919290914290038161416d878a614489565b905060006141818a8363ffffffff6149e116565b90508281101561419f5789935061419a8b8260006147d3565b6141e3565b6141a98884614489565b42600189015560405181850395509092508b907f59f2fe866dd27a1c2d34115520888c3150365cbc931aab97fa88c4b9ab40b79590600090a25b8461422a576141f186614add565b855494506141ff8c866148f5565b60405185906001600160a01b038e1690600090600080516020615dd8833981519152908290a461423e565b4286600101541161423e5761423e8561497c565b61424a858560016147d3565b848c6001600160a01b0316896001600160a01b0316600080516020615dd883398151915260405160405180910390a4614294888d8d60405180602001604052806000815250615148565b61254b576040805162461bcd60e51b815260206004820152601d60248201527f4e4f4e5f434f4d504c49414e545f4552433732315f5245434549564552000000604482015290519081900360640190fd5b6142ed612e35565b61432c576040805162461bcd60e51b81526020600482018190526024820152600080516020615d68833981519152604482015290519081900360640190fd5b612af98161560c565b61433d612e26565b6001600160a01b0316336001600160a01b03161480614366575060a1546001600160a01b031633145b6143b7576040805162461bcd60e51b815260206004820152601e60248201527f4f4e4c595f4c4f434b5f4f574e45525f4f525f42454e45464943494152590000604482015290519081900360640190fd5b60006143c38330613dd2565b905060008215806143d357508183115b156144275760008211614420576040805162461bcd60e51b815260206004820152601060248201526f4e4f545f454e4f5547485f46554e445360801b604482015290519081900360640190fd5b508061442a565b50815b60a1546040805183815290516001600160a01b039283169287169133917f342e7ff505a8a0364cd0dc2ff195c315e43bce86b204846ecd36913e117b109e9181900360200190a460a1546138779085906001600160a01b0316836156ad565b60008261449581612763565b6144d6576040805162461bcd60e51b815260206004820152600d60248201526c12d15657d393d517d590531251609a1b604482015290519081900360640190fd5b6001600160a01b038416600090815260a46020526040812090808561450357428360010154039150614507565b8591505b61271061451f60ae54846156fa90919063ffffffff16565b8161452657fe5b04979650505050505050565b60996020526000908152604090205481565b600082815260a760205260408120546001600160a01b03838116911614806145915750600083815260a760205260409020546001600160a01b031615801561459157506145918383613107565b1561459e57506001611689565b506000611689565b600091825260ac6020526040909120546001600160a01b0391821691161490565b60a254600090819081906001600160a01b0316156146db5760a25460405163221c1fd160e01b815233600482018181526001600160a01b038a811660248501528981166044850152608060648501908152895160848601528951919095169463221c1fd1948c938c938c93919260a40190602085019080838360005b8381101561465b578181015183820152602001614643565b50505050905090810190601f1680156146885780820380516001836020036101000a031916815260200191505b509550505050505060206040518083038186803b1580156146a857600080fd5b505afa1580156146bc573d6000803e3d6000fd5b505050506040513d60208110156146d257600080fd5b505192506146e1565b609e5492505b82156147ca57609c5460408051630cb175e360e01b81526001600160a01b038981166004830152602482018790528251931692630cb175e392604480840193919291829003018186803b15801561473757600080fd5b505afa15801561474b573d6000803e3d6000fd5b505050506040513d604081101561476157600080fd5b5080516020909101519092509050828211156147c4576040805162461bcd60e51b815260206004820152601c60248201527f494e56414c49445f444953434f554e545f46524f4d5f554e4c4f434b00000000604482015290519081900360640190fd5b81830392505b93509350939050565b600083815260a560205260409020546001600160a01b031680614830576040805162461bcd60e51b815260206004820152601060248201526f4e4f4e5f4558495354454e545f4b455960801b604482015290519081900360640190fd5b6001600160a01b038116600090815260a4602052604081206001810154909161485884612763565b9050841561489b57801561488057614876828763ffffffff6149e116565b6001840155614896565b614890428763ffffffff6149e116565b60018401555b6148b1565b6148ab828763ffffffff61575316565b60018401555b604080518781528615156020820152815189927fe9408df99703ae33a9d01185bcad328ea8683fb1f920da9c30959c192f21b5b3928290030190a250505050505050565b600081815260a560205260409020546001600160a01b03838116911614613a3a5760a68054600181019091557f2da56674729343acc9933752c8c469a244252915242eb6d4c02d11ddd69164a10180546001600160a01b0384166001600160a01b03199182168117909255600083815260a560205260409020805490911690911790555050565b600081815260a760205260409020546001600160a01b031615612af957600081815260a7602052604080822080546001600160a01b03191690555182907f9d2895c45a420624de863a2f437b022d879f457bf7a829044055a10c5a6fd5e3908390a350565b600082820183811015611eac576040805162461bcd60e51b815260206004820152601b60248201527f536166654d6174683a206164646974696f6e206f766572666c6f770000000000604482015290519081900360640190fd5b600081815260ac60205260409020546001600160a01b031615612af957600090815260ac6020526040902080546001600160a01b0319169055565b614a808282614b4c565b614abb5760405162461bcd60e51b8152600401808060200182810382526021815260200180615d266021913960400191505060405180910390fd5b6001600160a01b0316600090815260209190915260409020805460ff19169055565b8054612af95760a08054600101908190559055565b604080516001600160a01b0385811660248301528416604482015260648082018490528251808303909101815260849091019091526020810180516001600160e01b03166323b872dd60e01b179052613877908590615795565b60006001600160a01b038216614b935760405162461bcd60e51b8152600401808060200182810382526022815260200180615d886022913960400191505060405180910390fd5b506001600160a01b03166000908152602091909152604090205460ff1690565b600081614bbf81612763565b614c00576040805162461bcd60e51b815260206004820152600d60248201526c12d15657d393d517d590531251609a1b604482015290519081900360640190fd5b6001600160a01b038316600090815260a4602052604090206001810154609d5460b0544290920391820110614c3957609e549350614c5a565b609d54609e54614c4f908363ffffffff6156fa16565b81614c5657fe5b0493505b60b0541580614c6e5750609d5460b0548201105b15614cb2576000612710614c8f60af54609e546156fa90919063ffffffff16565b81614c9657fe5b04905080851115614cab578085039450614cb0565b600094505b505b505050919050565b614cc48282614b4c565b15614d16576040805162461bcd60e51b815260206004820152601f60248201527f526f6c65733a206163636f756e7420616c72656164792068617320726f6c6500604482015290519081900360640190fd5b6001600160a01b0316600090815260209190915260409020805460ff19166001179055565b303b1590565b609a80546001600160a01b0319166001600160a01b0383169081179091551580614dcf57506000816001600160a01b03166318160ddd6040518163ffffffff1660e01b815260040160206040518083038186803b158015614da157600080fd5b505afa158015614db5573d6000803e3d6000fd5b505050506040513d6020811015614dcb57600080fd5b5051115b612af9576040805162461bcd60e51b815260206004820152600d60248201526c24a72b20a624a22faa27a5a2a760991b604482015290519081900360640190fd5b609a805460ff60a01b1916600160a01b179055565b63bbf81e00831115614e7e576040805162461bcd60e51b815260206004820152601860248201527f4d41585f45585049524154494f4e5f3130305f59454152530000000000000000604482015290519081900360640190fd5b609c8054336001600160a01b03199182161790915560a180549091166001600160a01b039590951694909417909355609d91909155609e55609f55565b614ec3612a4a565b8051614ed69060a9906020840190615b95565b50612af9635b5e139f60e01b614f3d565b614ef763780e9d6360e01b614f3d565b565b6103e860af55565b614f0a81613417565b612af957612af9609b8263ffffffff614cba16565b614f28816125ea565b612af957612af960a88263ffffffff614cba16565b6001600160e01b03198082161415614f9c576040805162461bcd60e51b815260206004820152601c60248201527f4552433136353a20696e76616c696420696e7465726661636520696400000000604482015290519081900360640190fd5b6001600160e01b0319166000908152603360205260409020805460ff19166001179055565b3390565b6001600160a01b038216600081815260a4602090815260409182902080548351868152935191943394909391927f0a7068a9989857441c039a14a42b67ed71dd1fcfe5a9b17cc87b252e47bce528929181900390910190a4426001820155811561504057609a54615040906001600160a01b031684846156ad565b60a3546001600160a01b031615611f065760a3546040805163b499b6c560e01b81523360048201526001600160a01b038681166024830152604482018690529151919092169163b499b6c591606480830192600092919082900301818387803b1580156150ac57600080fd5b505af1158015612883573d6000803e3d6000fd5b6000813f7fc5d2460186f7233c927e7db2dcc703c0e500b653ca82273b7bfad8045d85a4708115801590613cc35750141592915050565b604080517f19457468657265756d205369676e6564204d6573736167653a0a333200000000602080830191909152603c8083019490945282518083039094018452605c909101909152815191012090565b600061515c846001600160a01b03166150c0565b61516857506001613cc3565b604051630a85bd0160e11b815233600482018181526001600160a01b03888116602485015260448401879052608060648501908152865160848601528651600095928a169463150b7a029490938c938b938b939260a4019060208501908083838e5b838110156151e25781810151838201526020016151ca565b50505050905090810190601f16801561520f5780820380516001836020036101000a031916815260200191505b5095505050505050602060405180830381600087803b15801561523157600080fd5b505af1158015615245573d6000803e3d6000fd5b505050506040513d602081101561525b57600080fd5b50516001600160e01b031916630a85bd0160e11b14915050949350505050565b604080518082018252601081526f181899199a1a9b1b9c1cb0b131b232b360811b60208201528151602a80825260608281019094526001600160a01b03851692918491602082018180388339019050509050600360fc1b816000815181106152df57fe5b60200101906001600160f81b031916908160001a905350600f60fb1b8160018151811061530857fe5b60200101906001600160f81b031916908160001a90535060005b60148110156153ee578260048583600c016020811061533d57fe5b1a60f81b6001600160f81b031916901c60f81c60ff168151811061535d57fe5b602001015160f81c60f81b82826002026002018151811061537a57fe5b60200101906001600160f81b031916908160001a905350828482600c01602081106153a157fe5b825191901a600f169081106153b257fe5b602001015160f81c60f81b8282600202600301815181106153cf57fe5b60200101906001600160f81b031916908160001a905350600101615322565b50949350505050565b6060818061541e5750506040805180820190915260018152600360fc1b6020820152611575565b8260005b811561543657600101600a82049150615422565b6060816040519080825280601f01601f191660200182016040528015615463576020820181803883390190505b50905060001982015b84156154b157600a850660300160f81b8282806001900393508151811061548f57fe5b60200101906001600160f81b031916908160001a905350600a8504945061546c565b5095945050505050565b6060848484846040516020018085805190602001908083835b602083106154f35780518252601f1990920191602091820191016154d4565b51815160209384036101000a600019018019909216911617905287519190930192870191508083835b6020831061553b5780518252601f19909201916020918201910161551c565b51815160209384036101000a600019018019909216911617905286519190930192860191508083835b602083106155835780518252601f199092019160209182019101615564565b51815160209384036101000a600019018019909216911617905285519190930192850191508083835b602083106155cb5780518252601f1990920191602091820191016155ac565b6001836020036101000a0380198251168184511680821785525050505050509050019450505050506040516020818303038152906040529050949350505050565b6001600160a01b0381166156515760405162461bcd60e51b8152600401808060200182810382526026815260200180615c436026913960400191505060405180910390fd5b6066546040516001600160a01b038084169216907f8be0079c531659141344cd1fd0a4f28419497f9722a3daafe3b4186f6b6457e090600090a3606680546001600160a01b0319166001600160a01b0392909216919091179055565b8015611f06576001600160a01b0383166156df576156da6001600160a01b0383168263ffffffff61594d16565b611f06565b826138776001600160a01b038216848463ffffffff615a3216565b60008261570957506000611689565b8282028284828161571657fe5b0414611eac5760405162461bcd60e51b8152600401808060200182810382526021815260200180615d476021913960400191505060405180910390fd5b6000611eac83836040518060400160405280601e81526020017f536166654d6174683a207375627472616374696f6e206f766572666c6f770000815250615a84565b6157a7826001600160a01b03166150c0565b6157f8576040805162461bcd60e51b815260206004820152601f60248201527f5361666545524332303a2063616c6c20746f206e6f6e2d636f6e747261637400604482015290519081900360640190fd5b60006060836001600160a01b0316836040518082805190602001908083835b602083106158365780518252601f199092019160209182019101615817565b6001836020036101000a0380198251168184511680821785525050505050509050019150506000604051808303816000865af19150503d8060008114615898576040519150601f19603f3d011682016040523d82523d6000602084013e61589d565b606091505b5091509150816158f4576040805162461bcd60e51b815260206004820181905260248201527f5361666545524332303a206c6f772d6c6576656c2063616c6c206661696c6564604482015290519081900360640190fd5b8051156138775780806020019051602081101561591057600080fd5b50516138775760405162461bcd60e51b815260040180806020018281038252602a815260200180615df8602a913960400191505060405180910390fd5b804710156159a2576040805162461bcd60e51b815260206004820152601d60248201527f416464726573733a20696e73756666696369656e742062616c616e6365000000604482015290519081900360640190fd5b6040516000906001600160a01b0384169083908381818185875af1925050503d80600081146159ed576040519150601f19603f3d011682016040523d82523d6000602084013e6159f2565b606091505b5050905080611f065760405162461bcd60e51b815260040180806020018281038252603a815260200180615ca4603a913960400191505060405180910390fd5b604080516001600160a01b038416602482015260448082018490528251808303909101815260649091019091526020810180516001600160e01b031663a9059cbb60e01b179052611f06908490615795565b60008184841115615b135760405162461bcd60e51b81526004018080602001828103825283818151815260200191508051906020019080838360005b83811015615ad8578181015183820152602001615ac0565b50505050905090810190601f168015615b055780820380516001836020036101000a031916815260200191505b509250505060405180910390fd5b505050900390565b828054600181600116156101000203166002900490600052602060002090601f016020900481019282601f10615b5c5782800160ff19823516178555615b89565b82800160010185558215615b89579182015b82811115615b89578235825591602001919060010190615b6e565b506125e6929150615c03565b828054600181600116156101000203166002900490600052602060002090601f016020900481019282601f10615bd657805160ff1916838001178555615b89565b82800160010185558215615b89579182015b82811115615b89578251825591602001919060010190615be8565b611a8b91905b808211156125e65760008155600101615c0956fe63616e63656c416e64526566756e64466f722861646472657373205f6b65794f776e6572294f776e61626c653a206e6577206f776e657220697320746865207a65726f20616464726573734d6978696e4c6f636b4d616e616765723a2063616c6c657220646f6573206e6f74206861766520746865204c6f636b4d616e6167657220726f6c65416464726573733a20756e61626c6520746f2073656e642076616c75652c20726563697069656e74206d617920686176652072657665727465644d6978696e4b65794772616e7465723a2063616c6c657220646f6573206e6f74206861766520746865204b65794772616e746572206f72204c6f636b4d616e6167657220726f6c65526f6c65733a206163636f756e7420646f6573206e6f74206861766520726f6c65536166654d6174683a206d756c7469706c69636174696f6e206f766572666c6f774f776e61626c653a2063616c6c6572206973206e6f7420746865206f776e6572526f6c65733a206163636f756e7420697320746865207a65726f2061646472657373436f6e747261637420696e7374616e63652068617320616c7265616479206265656e20696e697469616c697a6564ddf252ad1be2c89b69c2b068fc378daa952ba7f163c4a11628f55a4df523b3ef5361666545524332303a204552433230206f7065726174696f6e20646964206e6f742073756363656564a265627a7a7231582061d556cf2d6625d1629f7f9948b63f53f2c528dc50a5276b180b39018e3902d364736f6c63430005110032",
  "source": "pragma solidity 0.5.17;\n\n\nimport './interfaces/IPublicLock.sol';\nimport '@openzeppelin/contracts-ethereum-package/contracts/ownership/Ownable.sol';\nimport '@openzeppelin/contracts-ethereum-package/contracts/introspection/ERC165.sol';\nimport './mixins/MixinApproval.sol';\nimport './mixins/MixinDisable.sol';\nimport './mixins/MixinERC721Enumerable.sol';\nimport './mixins/MixinFunds.sol';\nimport './mixins/MixinGrantKeys.sol';\nimport './mixins/MixinKeys.sol';\nimport './mixins/MixinLockCore.sol';\nimport './mixins/MixinLockMetadata.sol';\nimport './mixins/MixinPurchase.sol';\nimport './mixins/MixinRefunds.sol';\nimport './mixins/MixinTransfer.sol';\nimport './mixins/MixinSignatures.sol';\nimport './mixins/MixinLockManagerRole.sol';\nimport './mixins/MixinKeyGranterRole.sol';\n\n\n/**\n * @title The Lock contract\n * @author Julien Genestoux (unlock-protocol.com)\n * @dev ERC165 allows our contract to be queried to determine whether it implements a given interface.\n * Every ERC-721 compliant contract must implement the ERC165 interface.\n * https://eips.ethereum.org/EIPS/eip-721\n */\ncontract PublicLock is\n  IPublicLock,\n  ERC165,\n  Ownable,\n  MixinSignatures,\n  MixinFunds,\n  MixinDisable,\n  MixinLockManagerRole,\n  MixinLockCore,\n  MixinKeys,\n  MixinKeyGranterRole,\n  MixinLockMetadata,\n  MixinERC721Enumerable,\n  MixinGrantKeys,\n  MixinPurchase,\n  MixinApproval,\n  MixinTransfer,\n  MixinRefunds\n{\n  function initialize(\n    address _lockOwner,\n    uint _expirationDuration,\n    address _tokenAddress,\n    uint _keyPrice,\n    uint _maxNumberOfKeys,\n    string memory _lockName\n  ) public\n    initializer()\n  {\n    Ownable.initialize(_lockOwner);\n    MixinFunds._initializeMixinFunds(_tokenAddress);\n    MixinDisable._initializeMixinDisable();\n    MixinLockCore._initializeMixinLockCore(_lockOwner, _expirationDuration, _keyPrice, _maxNumberOfKeys);\n    MixinLockMetadata._initializeMixinLockMetadata(_lockName);\n    MixinERC721Enumerable._initializeMixinERC721Enumerable();\n    MixinRefunds._initializeMixinRefunds();\n    MixinLockManagerRole._initializeMixinLockManagerRole(_lockOwner);\n    MixinKeyGranterRole._initializeMixinKeyGranterRole(_lockOwner);\n    // registering the interface for erc721 with ERC165.sol using\n    // the ID specified in the standard: https://eips.ethereum.org/EIPS/eip-721\n    _registerInterface(0x80ac58cd);\n  }\n}\n",
  "sourcePath": "/Users/overlord/DAPPS/unlock/smart-contracts/contracts/PublicLock.sol",
  "compiler": {
    "name": "solc",
    "version": "0.5.17+commit.d19bba13.Emscripten.clang"
  },
  "schemaVersion": "3.0.23",
  "updatedAt": "2020-03-18T04:40:49.677Z",
  "devdoc": {
    "author": "Julien Genestoux (unlock-protocol.com)",
    "details": "ERC165 allows our contract to be queried to determine whether it implements a given interface. Every ERC-721 compliant contract must implement the ERC165 interface. https://eips.ethereum.org/EIPS/eip-721",
    "methods": {
      "balanceOf(address)": {
        "return": "The number of NFTs owned by `_keyOwner`, either 0 or 1."
      },
      "cancelAndRefund(uint256)": {
        "details": "Destroys the key and sends a refund based on the amount of time remaining.",
        "params": {
          "_tokenId": "The id of the key to cancel."
        }
      },
      "cancelAndRefundFor(address,uint8,bytes32,bytes32,uint256)": {
        "details": "Cancels a key managed by a different user and sends the funds to the msg.sender.",
        "params": {
          "_keyManager": "the key managed by this user will be canceled",
          "_tokenId": "The key to cancel",
          "_v": "_r _s getCancelAndRefundApprovalHash signed by the _keyOwner"
        }
      },
      "disableLock()": {
        "details": "Used to disable lock before migrating keys and/or destroying contract"
      },
      "expireAndRefundFor(address,uint256)": {
        "details": "Invoked by the lock owner to destroy the user's ket and perform a refund and cancellation of the key"
      },
      "getCancelAndRefundApprovalHash(address,address)": {
        "details": "this can be computed in JS instead of read from the contract.",
        "params": {
          "_keyManager": "The key manager's address (also the message signer)",
          "_txSender": "The address cancelling cancel on behalf of the keyOwner"
        },
        "return": "approvalHash The hash to sign"
      },
      "getCancelAndRefundValueFor(address)": {
        "details": "Determines how much of a refund a key owner would receive if they issued a cancelAndRefund block.timestamp. Note that due to the time required to mine a tx, the actual refund amount will be lower than what the user reads from this call."
      },
      "getOwnersByPage(uint256,uint256)": {
        "params": {
          "_page": "the page of key owners requested when faceted by page size",
          "_pageSize": "the number of Key Owners requested per page"
        }
      },
      "getTokenIdFor(address)": {
        "return": "The tokenId of the NFT, else returns 0"
      },
      "getTransferFee(address,uint256)": {
        "params": {
          "_keyOwner": "The owner of the key check the transfer fee for."
        }
      },
      "initialize(address)": {
        "details": "Initializes the contract setting the deployer as the initial owner."
      },
      "invalidateOffchainApproval(uint256)": {
        "details": "This can be used to invalidate a previously signed message."
      },
      "isApprovedForAll(address,address)": {
        "details": "Tells whether an operator is approved by a given keyManager",
        "params": {
          "_operator": "operator address which you want to query the approval of",
          "_owner": "owner address which you want to query the approval of"
        },
        "return": "bool whether the given operator is approved by the given owner"
      },
      "isOwner()": {
        "details": "Returns true if the caller is the current owner."
      },
      "keyExpirationTimestampFor(address)": {
        "details": "Returns the key's ExpirationTimestamp field for a given owner.Returns 0 if the owner has never owned a key for this lock",
        "params": {
          "_keyOwner": "address of the user for whom we search the key"
        }
      },
      "owner()": {
        "details": "Returns the address of the current owner."
      },
      "purchase(uint256,address,address,bytes)": {
        "details": "Purchase functionSetting _value to keyPrice exactly doubles as a security feature. That way if the lock owner increases the price while my transaction is pending I can't be charged more than I expected (only applicable to ERC-20 when more than keyPrice is approved for spending).",
        "params": {
          "_data": "arbitrary data populated by the front-end which initiated the sale",
          "_recipient": "address of the recipient of the purchased key",
          "_referrer": "address of the user making the referral",
          "_value": "the number of tokens to pay for this purchase >= the current keyPrice - any applicable discount (_value is ignored when using ETH)"
        }
      },
      "purchasePriceFor(address,address,bytes)": {
        "details": "minKeyPrice considers any discount from Unlock or the OnKeyPurchase hook"
      },
      "renounceOwnership()": {
        "details": "Leaves the contract without owner. It will not be possible to call `onlyOwner` functions anymore. Can only be called by the current owner.     * > Note: Renouncing ownership will leave the contract without an owner, thereby removing any functionality that is only available to the owner."
      },
      "safeTransferFrom(address,address,uint256)": {
        "details": "This works identically to the other function with an extra data parameter, except this function just sets data to ''",
        "params": {
          "_from": "The current owner of the NFT",
          "_to": "The new owner",
          "_tokenId": "The NFT to transfer"
        }
      },
      "safeTransferFrom(address,address,uint256,bytes)": {
        "params": {
          "_data": "Additional data with no specified format, sent in call to `_to`",
          "_from": "The current owner of the NFT",
          "_to": "The new owner",
          "_tokenId": "The NFT to transfer"
        }
      },
      "setApprovalForAll(address,bool)": {
        "details": "Sets or unsets the approval of a given operator An operator is allowed to transfer all tokens of the sender on their behalf",
        "params": {
          "_approved": "representing the status of the approval to be set",
          "_to": "operator address to set the approval"
        }
      },
      "setKeyManagerOf(uint256,address)": {
        "params": {
          "_keyManager": "The address with the manager's rights for the given key. Setting _keyManager to address(0) means the keyOwner is also the keyManager",
          "_tokenId": "The id of the key to assign rights for"
        }
      },
      "shareKey(address,uint256,uint256)": {
        "params": {
          "_timeShared": "The amount of time shared",
          "_to": "The recipient of the shared key",
          "_tokenId": "the key to share"
        }
      },
      "supportsInterface(bytes4)": {
        "details": "See {IERC165-supportsInterface}.     * Time complexity O(1), guaranteed to always use less than 30 000 gas."
      },
      "symbol()": {
        "details": "Gets the token symbol",
        "return": "string representing the token name"
      },
      "tokenByIndex(uint256)": {
        "details": "Throws if `_index` >= `totalSupply()`.",
        "params": {
          "_index": "A counter less than `totalSupply()`"
        },
        "return": "The token identifier for the `_index`th NFT,  (sort order not specified)"
      },
      "tokenOfOwnerByIndex(address,uint256)": {
        "details": "Throws if `_index` >= `balanceOf(_keyOwner)` or if  `_keyOwner` is the zero address, representing invalid NFTs.",
        "params": {
          "_index": "A counter less than `balanceOf(_keyOwner)`",
          "_keyOwner": "An address where we are interested in NFTs owned by them"
        },
        "return": "The token identifier for the `_index`th NFT assigned to `_keyOwner`,   (sort order not specified)"
      },
      "tokenURI(uint256)": {
        "details": "Throws if `_tokenId` is not a valid NFT. URIs are defined in RFC 3986. The URI may point to a JSON file that conforms to the \"ERC721 Metadata JSON Schema\". https://github.com/ethereum/EIPs/blob/master/EIPS/eip-721.md"
      },
      "transferOwnership(address)": {
        "details": "Transfers ownership of the contract to a new account (`newOwner`). Can only be called by the current owner."
      },
      "withdraw(address,uint256)": {
        "details": "Called by owner to withdraw all funds from the lock and send them to the `beneficiary`.",
        "params": {
          "_amount": "specifies the max amount to withdraw, which may be reduced when considering the available balance. Set to 0 or MAX_UINT to withdraw everything.   * TODO: consider allowing anybody to trigger this as long as it goes to owner anyway? -- however be wary of draining funds as it breaks the `cancelAndRefund` and `expireAndRefundFor` use cases.",
          "_tokenAddress": "specifies the token address to withdraw or 0 for ETH. This is usually the same as `tokenAddress` in MixinFunds."
        }
      }
    },
    "title": "The Lock contract"
  },
  "userdoc": {
    "methods": {
      "approve(address,uint256)": {
        "notice": "This approves _approved to get ownership of _tokenId. Note: that since this is used for both purchase and transfer approvals the approved token may not exist."
      },
      "balanceOf(address)": {
        "notice": "In the specific case of a Lock, each owner can own only at most 1 key."
      },
      "getApproved(uint256)": {
        "notice": "Will return the approved recipient for a key, if any."
      },
      "getBalance(address,address)": {
        "notice": "Gets the current balance of the account provided."
      },
      "getCancelAndRefundApprovalHash(address,address)": {
        "notice": "returns the hash to sign in order to allow another user to cancel on your behalf."
      },
      "getHasValidKey(address)": {
        "notice": "Checks if the user has a non-expired key."
      },
      "getOwnersByPage(uint256,uint256)": {
        "notice": "A function which returns a subset of the keys for this Lock as an array"
      },
      "getTokenIdFor(address)": {
        "notice": "Find the tokenId for a given user"
      },
      "getTransferFee(address,uint256)": {
        "notice": "Determines how much of a fee a key owner would need to pay in order to transfer the key to another account.  This is pro-rated so the fee goes down overtime."
      },
      "grantKeys(address[],uint256[],address[])": {
        "notice": "Allows the Lock owner to give a collection of users a key with no charge. Each key may be assigned a different expiration date."
      },
      "invalidateOffchainApproval(uint256)": {
        "notice": "Sets the minimum nonce for a valid off-chain approval message from the senders account."
      },
      "isKeyOwner(uint256,address)": {
        "notice": "Checks if the given address owns the given tokenId."
      },
      "numberOfOwners()": {
        "notice": "Public function which returns the total number of unique owners (both expired and valid).  This may be larger than totalSupply."
      },
      "purchasePriceFor(address,address,bytes)": {
        "notice": "returns the minimum price paid for a purchase with these params."
      },
      "safeTransferFrom(address,address,uint256)": {
        "notice": "Transfers the ownership of an NFT from one address to another address"
      },
      "safeTransferFrom(address,address,uint256,bytes)": {
        "notice": "Transfers the ownership of an NFT from one address to another address. When transfer is complete, this functions checks if `_to` is a smart contract (code size > 0). If so, it calls `onERC721Received` on `_to` and throws if the return value is not `bytes4(keccak256('onERC721Received(address,address,uint,bytes)'))`."
      },
      "setBaseTokenURI(string)": {
        "notice": "Allows the Lock owner to update the baseTokenURI for this Lock."
      },
      "setEventHooks(address,address)": {
        "notice": "Allows a lock manager to add or remove an event hook"
      },
      "setKeyManagerOf(uint256,address)": {
        "notice": "Update transfer and cancel rights for a given key"
      },
      "shareKey(address,uint256,uint256)": {
        "notice": "Allows the key owner to safely share their key (parent key) by transferring a portion of the remaining time to a new key (child key)."
      },
      "tokenByIndex(uint256)": {
        "notice": "Enumerate valid NFTs"
      },
      "tokenOfOwnerByIndex(address,uint256)": {
        "notice": "Enumerate NFTs assigned to an owner"
      },
      "tokenURI(uint256)": {
        "notice": "A distinct Uniform Resource Identifier (URI) for a given asset."
      },
      "updateBeneficiary(address)": {
        "notice": "A function which lets the owner of the lock update the beneficiary account, which receives funds on withdrawal."
      },
      "updateKeyPricing(uint256,address)": {
        "notice": "A function which lets the owner of the lock change the pricing for future purchases. This consists of 2 parts: The token address and the price in the given token. In order to set the token to ETH, use 0 for the token Address."
      },
      "updateLockName(string)": {
        "notice": "Allows the Lock owner to assign a descriptive name for this Lock."
      },
      "updateLockSymbol(string)": {
        "notice": "Allows the Lock owner to assign a Symbol for this Lock."
      },
      "updateRefundPenalty(uint256,uint256)": {
        "notice": "Allow the owner to change the refund penalty."
      },
      "updateTransferFee(uint256)": {
        "notice": "Allow the Lock owner to change the transfer fee."
      }
    }
  }
}