{
  "contractName": "PublicLock",
  "abi": [
    {
      "anonymous": false,
      "inputs": [
        {
          "indexed": true,
          "internalType": "address",
          "name": "owner",
          "type": "address"
        },
        {
          "indexed": true,
          "internalType": "address",
          "name": "approved",
          "type": "address"
        },
        {
          "indexed": true,
          "internalType": "uint256",
          "name": "tokenId",
          "type": "uint256"
        }
      ],
      "name": "Approval",
      "type": "event"
    },
    {
      "anonymous": false,
      "inputs": [
        {
          "indexed": true,
          "internalType": "address",
          "name": "owner",
          "type": "address"
        },
        {
          "indexed": true,
          "internalType": "address",
          "name": "operator",
          "type": "address"
        },
        {
          "indexed": false,
          "internalType": "bool",
          "name": "approved",
          "type": "bool"
        }
      ],
      "name": "ApprovalForAll",
      "type": "event"
    },
    {
      "anonymous": false,
      "inputs": [
        {
          "indexed": true,
          "internalType": "uint256",
          "name": "tokenId",
          "type": "uint256"
        },
        {
          "indexed": true,
          "internalType": "address",
          "name": "owner",
          "type": "address"
        },
        {
          "indexed": true,
          "internalType": "address",
          "name": "sendTo",
          "type": "address"
        },
        {
          "indexed": false,
          "internalType": "uint256",
          "name": "refund",
          "type": "uint256"
        }
      ],
      "name": "CancelKey",
      "type": "event"
    },
    {
      "anonymous": false,
      "inputs": [],
      "name": "Disable",
      "type": "event"
    },
    {
      "anonymous": false,
      "inputs": [
        {
          "indexed": true,
          "internalType": "uint256",
          "name": "_tokenId",
          "type": "uint256"
        },
        {
          "indexed": false,
          "internalType": "uint256",
          "name": "_amount",
          "type": "uint256"
        },
        {
          "indexed": false,
          "internalType": "bool",
          "name": "_timeAdded",
          "type": "bool"
        }
      ],
      "name": "ExpirationChanged",
      "type": "event"
    },
    {
      "anonymous": false,
      "inputs": [
        {
          "indexed": true,
          "internalType": "uint256",
          "name": "tokenId",
          "type": "uint256"
        }
      ],
      "name": "ExpireKey",
      "type": "event"
    },
    {
      "anonymous": false,
      "inputs": [
        {
          "indexed": true,
          "internalType": "address",
          "name": "account",
          "type": "address"
        }
      ],
      "name": "KeyGranterAdded",
      "type": "event"
    },
    {
      "anonymous": false,
      "inputs": [
        {
          "indexed": true,
          "internalType": "address",
          "name": "account",
          "type": "address"
        }
      ],
      "name": "KeyGranterRemoved",
      "type": "event"
    },
    {
      "anonymous": false,
      "inputs": [
        {
          "indexed": true,
          "internalType": "uint256",
          "name": "_tokenId",
          "type": "uint256"
        },
        {
          "indexed": true,
          "internalType": "address",
          "name": "_newManager",
          "type": "address"
        }
      ],
      "name": "KeyManagerChanged",
      "type": "event"
    },
    {
      "anonymous": false,
      "inputs": [
        {
          "indexed": true,
          "internalType": "address",
          "name": "account",
          "type": "address"
        }
      ],
      "name": "LockManagerAdded",
      "type": "event"
    },
    {
      "anonymous": false,
      "inputs": [
        {
          "indexed": true,
          "internalType": "address",
          "name": "account",
          "type": "address"
        }
      ],
      "name": "LockManagerRemoved",
      "type": "event"
    },
    {
      "anonymous": false,
      "inputs": [
        {
          "indexed": false,
          "internalType": "string",
          "name": "symbol",
          "type": "string"
        }
      ],
      "name": "NewLockSymbol",
      "type": "event"
    },
    {
      "anonymous": false,
      "inputs": [
        {
          "indexed": true,
          "internalType": "address",
          "name": "keyManager",
          "type": "address"
        },
        {
          "indexed": false,
          "internalType": "uint256",
          "name": "nextAvailableNonce",
          "type": "uint256"
        }
      ],
      "name": "NonceChanged",
      "type": "event"
    },
    {
      "anonymous": false,
      "inputs": [
        {
          "indexed": false,
          "internalType": "uint256",
          "name": "oldKeyPrice",
          "type": "uint256"
        },
        {
          "indexed": false,
          "internalType": "uint256",
          "name": "keyPrice",
          "type": "uint256"
        },
        {
          "indexed": false,
          "internalType": "address",
          "name": "oldTokenAddress",
          "type": "address"
        },
        {
          "indexed": false,
          "internalType": "address",
          "name": "tokenAddress",
          "type": "address"
        }
      ],
      "name": "PricingChanged",
      "type": "event"
    },
    {
      "anonymous": false,
      "inputs": [
        {
          "indexed": false,
          "internalType": "uint256",
          "name": "freeTrialLength",
          "type": "uint256"
        },
        {
          "indexed": false,
          "internalType": "uint256",
          "name": "refundPenaltyBasisPoints",
          "type": "uint256"
        }
      ],
      "name": "RefundPenaltyChanged",
      "type": "event"
    },
    {
      "anonymous": false,
      "inputs": [
        {
          "indexed": true,
          "internalType": "address",
          "name": "owner",
          "type": "address"
        },
        {
          "indexed": false,
          "internalType": "uint256",
          "name": "newExpiration",
          "type": "uint256"
        }
      ],
      "name": "RenewKeyPurchase",
      "type": "event"
    },
    {
      "anonymous": false,
      "inputs": [
        {
          "indexed": true,
          "internalType": "address",
          "name": "from",
          "type": "address"
        },
        {
          "indexed": true,
          "internalType": "address",
          "name": "to",
          "type": "address"
        },
        {
          "indexed": true,
          "internalType": "uint256",
          "name": "tokenId",
          "type": "uint256"
        }
      ],
      "name": "Transfer",
      "type": "event"
    },
    {
      "anonymous": false,
      "inputs": [
        {
          "indexed": false,
          "internalType": "uint256",
          "name": "transferFeeBasisPoints",
          "type": "uint256"
        }
      ],
      "name": "TransferFeeChanged",
      "type": "event"
    },
    {
      "anonymous": false,
      "inputs": [
        {
          "indexed": true,
          "internalType": "address",
          "name": "sender",
          "type": "address"
        },
        {
          "indexed": true,
          "internalType": "address",
          "name": "tokenAddress",
          "type": "address"
        },
        {
          "indexed": true,
          "internalType": "address",
          "name": "beneficiary",
          "type": "address"
        },
        {
          "indexed": false,
          "internalType": "uint256",
          "name": "amount",
          "type": "uint256"
        }
      ],
      "name": "Withdrawal",
      "type": "event"
    },
    {
      "payable": true,
      "stateMutability": "payable",
      "type": "fallback"
    },
    {
      "constant": false,
      "inputs": [
        {
          "internalType": "address",
          "name": "account",
          "type": "address"
        }
      ],
      "name": "addKeyGranter",
      "outputs": [],
      "payable": false,
      "stateMutability": "nonpayable",
      "type": "function"
    },
    {
      "constant": false,
      "inputs": [
        {
          "internalType": "address",
          "name": "account",
          "type": "address"
        }
      ],
      "name": "addLockManager",
      "outputs": [],
      "payable": false,
      "stateMutability": "nonpayable",
      "type": "function"
    },
    {
      "constant": false,
      "inputs": [
        {
          "internalType": "address",
          "name": "_approved",
          "type": "address"
        },
        {
          "internalType": "uint256",
          "name": "_tokenId",
          "type": "uint256"
        }
      ],
      "name": "approve",
      "outputs": [],
      "payable": false,
      "stateMutability": "nonpayable",
      "type": "function"
    },
    {
      "constant": true,
      "inputs": [
        {
          "internalType": "address",
          "name": "_keyOwner",
          "type": "address"
        }
      ],
      "name": "balanceOf",
      "outputs": [
        {
          "internalType": "uint256",
          "name": "",
          "type": "uint256"
        }
      ],
      "payable": false,
      "stateMutability": "view",
      "type": "function"
    },
    {
      "constant": true,
      "inputs": [],
      "name": "beneficiary",
      "outputs": [
        {
          "internalType": "address",
          "name": "",
          "type": "address"
        }
      ],
      "payable": false,
      "stateMutability": "view",
      "type": "function"
    },
    {
      "constant": false,
      "inputs": [
        {
          "internalType": "uint256",
          "name": "_tokenId",
          "type": "uint256"
        }
      ],
      "name": "cancelAndRefund",
      "outputs": [],
      "payable": false,
      "stateMutability": "nonpayable",
      "type": "function"
    },
    {
      "constant": false,
      "inputs": [
        {
          "internalType": "address",
          "name": "_keyManager",
          "type": "address"
        },
        {
          "internalType": "uint8",
          "name": "_v",
          "type": "uint8"
        },
        {
          "internalType": "bytes32",
          "name": "_r",
          "type": "bytes32"
        },
        {
          "internalType": "bytes32",
          "name": "_s",
          "type": "bytes32"
        },
        {
          "internalType": "uint256",
          "name": "_tokenId",
          "type": "uint256"
        }
      ],
      "name": "cancelAndRefundFor",
      "outputs": [],
      "payable": false,
      "stateMutability": "nonpayable",
      "type": "function"
    },
    {
      "constant": false,
      "inputs": [],
      "name": "disableLock",
      "outputs": [],
      "payable": false,
      "stateMutability": "nonpayable",
      "type": "function"
    },
    {
      "constant": true,
      "inputs": [],
      "name": "expirationDuration",
      "outputs": [
        {
          "internalType": "uint256",
          "name": "",
          "type": "uint256"
        }
      ],
      "payable": false,
      "stateMutability": "view",
      "type": "function"
    },
    {
      "constant": false,
      "inputs": [
        {
          "internalType": "address",
          "name": "_keyOwner",
          "type": "address"
        },
        {
          "internalType": "uint256",
          "name": "amount",
          "type": "uint256"
        }
      ],
      "name": "expireAndRefundFor",
      "outputs": [],
      "payable": false,
      "stateMutability": "nonpayable",
      "type": "function"
    },
    {
      "constant": true,
      "inputs": [],
      "name": "freeTrialLength",
      "outputs": [
        {
          "internalType": "uint256",
          "name": "",
          "type": "uint256"
        }
      ],
      "payable": false,
      "stateMutability": "view",
      "type": "function"
    },
    {
      "constant": true,
      "inputs": [
        {
          "internalType": "uint256",
          "name": "_tokenId",
          "type": "uint256"
        }
      ],
      "name": "getApproved",
      "outputs": [
        {
          "internalType": "address",
          "name": "",
          "type": "address"
        }
      ],
      "payable": false,
      "stateMutability": "view",
      "type": "function"
    },
    {
      "constant": true,
      "inputs": [
        {
          "internalType": "address",
          "name": "_tokenAddress",
          "type": "address"
        },
        {
          "internalType": "address",
          "name": "_account",
          "type": "address"
        }
      ],
      "name": "getBalance",
      "outputs": [
        {
          "internalType": "uint256",
          "name": "",
          "type": "uint256"
        }
      ],
      "payable": false,
      "stateMutability": "view",
      "type": "function"
    },
    {
      "constant": true,
      "inputs": [
        {
          "internalType": "address",
          "name": "_keyManager",
          "type": "address"
        },
        {
          "internalType": "address",
          "name": "_txSender",
          "type": "address"
        }
      ],
      "name": "getCancelAndRefundApprovalHash",
      "outputs": [
        {
          "internalType": "bytes32",
          "name": "approvalHash",
          "type": "bytes32"
        }
      ],
      "payable": false,
      "stateMutability": "view",
      "type": "function"
    },
    {
      "constant": true,
      "inputs": [
        {
          "internalType": "address",
          "name": "_keyOwner",
          "type": "address"
        }
      ],
      "name": "getCancelAndRefundValueFor",
      "outputs": [
        {
          "internalType": "uint256",
          "name": "refund",
          "type": "uint256"
        }
      ],
      "payable": false,
      "stateMutability": "view",
      "type": "function"
    },
    {
      "constant": true,
      "inputs": [
        {
          "internalType": "address",
          "name": "_keyOwner",
          "type": "address"
        }
      ],
      "name": "getHasValidKey",
      "outputs": [
        {
          "internalType": "bool",
          "name": "",
          "type": "bool"
        }
      ],
      "payable": false,
      "stateMutability": "view",
      "type": "function"
    },
    {
      "constant": true,
      "inputs": [
        {
          "internalType": "uint256",
          "name": "_page",
          "type": "uint256"
        },
        {
          "internalType": "uint256",
          "name": "_pageSize",
          "type": "uint256"
        }
      ],
      "name": "getOwnersByPage",
      "outputs": [
        {
          "internalType": "address[]",
          "name": "",
          "type": "address[]"
        }
      ],
      "payable": false,
      "stateMutability": "view",
      "type": "function"
    },
    {
      "constant": true,
      "inputs": [
        {
          "internalType": "address",
          "name": "_account",
          "type": "address"
        }
      ],
      "name": "getTokenIdFor",
      "outputs": [
        {
          "internalType": "uint256",
          "name": "",
          "type": "uint256"
        }
      ],
      "payable": false,
      "stateMutability": "view",
      "type": "function"
    },
    {
      "constant": true,
      "inputs": [
        {
          "internalType": "address",
          "name": "_keyOwner",
          "type": "address"
        },
        {
          "internalType": "uint256",
          "name": "_time",
          "type": "uint256"
        }
      ],
      "name": "getTransferFee",
      "outputs": [
        {
          "internalType": "uint256",
          "name": "",
          "type": "uint256"
        }
      ],
      "payable": false,
      "stateMutability": "view",
      "type": "function"
    },
    {
      "constant": false,
      "inputs": [
        {
          "internalType": "address[]",
          "name": "_recipients",
          "type": "address[]"
        },
        {
          "internalType": "uint256[]",
          "name": "_expirationTimestamps",
          "type": "uint256[]"
        },
        {
          "internalType": "address[]",
          "name": "_keyManagers",
          "type": "address[]"
        }
      ],
      "name": "grantKeys",
      "outputs": [],
      "payable": false,
      "stateMutability": "nonpayable",
      "type": "function"
    },
    {
      "constant": false,
      "inputs": [
        {
          "internalType": "uint256",
          "name": "_nextAvailableNonce",
          "type": "uint256"
        }
      ],
      "name": "invalidateOffchainApproval",
      "outputs": [],
      "payable": false,
      "stateMutability": "nonpayable",
      "type": "function"
    },
    {
      "constant": true,
      "inputs": [],
      "name": "isAlive",
      "outputs": [
        {
          "internalType": "bool",
          "name": "",
          "type": "bool"
        }
      ],
      "payable": false,
      "stateMutability": "view",
      "type": "function"
    },
    {
      "constant": true,
      "inputs": [
        {
          "internalType": "address",
          "name": "_owner",
          "type": "address"
        },
        {
          "internalType": "address",
          "name": "_operator",
          "type": "address"
        }
      ],
      "name": "isApprovedForAll",
      "outputs": [
        {
          "internalType": "bool",
          "name": "",
          "type": "bool"
        }
      ],
      "payable": false,
      "stateMutability": "view",
      "type": "function"
    },
    {
      "constant": true,
      "inputs": [
        {
          "internalType": "address",
          "name": "account",
          "type": "address"
        }
      ],
      "name": "isKeyGranter",
      "outputs": [
        {
          "internalType": "bool",
          "name": "",
          "type": "bool"
        }
      ],
      "payable": false,
      "stateMutability": "view",
      "type": "function"
    },
    {
      "constant": true,
      "inputs": [
        {
          "internalType": "uint256",
          "name": "_tokenId",
          "type": "uint256"
        },
        {
          "internalType": "address",
          "name": "_keyOwner",
          "type": "address"
        }
      ],
      "name": "isKeyOwner",
      "outputs": [
        {
          "internalType": "bool",
          "name": "",
          "type": "bool"
        }
      ],
      "payable": false,
      "stateMutability": "view",
      "type": "function"
    },
    {
      "constant": true,
      "inputs": [
        {
          "internalType": "address",
          "name": "account",
          "type": "address"
        }
      ],
      "name": "isLockManager",
      "outputs": [
        {
          "internalType": "bool",
          "name": "",
          "type": "bool"
        }
      ],
      "payable": false,
      "stateMutability": "view",
      "type": "function"
    },
    {
      "constant": true,
      "inputs": [
        {
          "internalType": "address",
          "name": "_keyOwner",
          "type": "address"
        }
      ],
      "name": "keyExpirationTimestampFor",
      "outputs": [
        {
          "internalType": "uint256",
          "name": "",
          "type": "uint256"
        }
      ],
      "payable": false,
      "stateMutability": "view",
      "type": "function"
    },
    {
      "constant": true,
      "inputs": [
        {
          "internalType": "uint256",
          "name": "",
          "type": "uint256"
        }
      ],
      "name": "keyManagerOf",
      "outputs": [
        {
          "internalType": "address",
          "name": "",
          "type": "address"
        }
      ],
      "payable": false,
      "stateMutability": "view",
      "type": "function"
    },
    {
      "constant": true,
      "inputs": [
        {
          "internalType": "address",
          "name": "",
          "type": "address"
        }
      ],
      "name": "keyManagerToNonce",
      "outputs": [
        {
          "internalType": "uint256",
          "name": "",
          "type": "uint256"
        }
      ],
      "payable": false,
      "stateMutability": "view",
      "type": "function"
    },
    {
      "constant": true,
      "inputs": [],
      "name": "keyPrice",
      "outputs": [
        {
          "internalType": "uint256",
          "name": "",
          "type": "uint256"
        }
      ],
      "payable": false,
      "stateMutability": "view",
      "type": "function"
    },
    {
      "constant": true,
      "inputs": [],
      "name": "maxNumberOfKeys",
      "outputs": [
        {
          "internalType": "uint256",
          "name": "",
          "type": "uint256"
        }
      ],
      "payable": false,
      "stateMutability": "view",
      "type": "function"
    },
    {
      "constant": true,
      "inputs": [],
      "name": "name",
      "outputs": [
        {
          "internalType": "string",
          "name": "",
          "type": "string"
        }
      ],
      "payable": false,
      "stateMutability": "view",
      "type": "function"
    },
    {
      "constant": true,
      "inputs": [],
      "name": "numberOfOwners",
      "outputs": [
        {
          "internalType": "uint256",
          "name": "",
          "type": "uint256"
        }
      ],
      "payable": false,
      "stateMutability": "view",
      "type": "function"
    },
    {
      "constant": true,
      "inputs": [],
      "name": "onKeyCancelHook",
      "outputs": [
        {
          "internalType": "contract ILockKeyCancelHook",
          "name": "",
          "type": "address"
        }
      ],
      "payable": false,
      "stateMutability": "view",
      "type": "function"
    },
    {
      "constant": true,
      "inputs": [],
      "name": "onKeyPurchaseHook",
      "outputs": [
        {
          "internalType": "contract ILockKeyPurchaseHook",
          "name": "",
          "type": "address"
        }
      ],
      "payable": false,
      "stateMutability": "view",
      "type": "function"
    },
    {
      "constant": true,
      "inputs": [
        {
          "internalType": "uint256",
          "name": "_tokenId",
          "type": "uint256"
        }
      ],
      "name": "ownerOf",
      "outputs": [
        {
          "internalType": "address",
          "name": "",
          "type": "address"
        }
      ],
      "payable": false,
      "stateMutability": "view",
      "type": "function"
    },
    {
      "constant": true,
      "inputs": [
        {
          "internalType": "uint256",
          "name": "",
          "type": "uint256"
        }
      ],
      "name": "owners",
      "outputs": [
        {
          "internalType": "address",
          "name": "",
          "type": "address"
        }
      ],
      "payable": false,
      "stateMutability": "view",
      "type": "function"
    },
    {
      "constant": true,
      "inputs": [],
      "name": "publicLockVersion",
      "outputs": [
        {
          "internalType": "uint256",
          "name": "",
          "type": "uint256"
        }
      ],
      "payable": false,
      "stateMutability": "pure",
      "type": "function"
    },
    {
      "constant": false,
      "inputs": [
        {
          "internalType": "uint256",
          "name": "_value",
          "type": "uint256"
        },
        {
          "internalType": "address",
          "name": "_recipient",
          "type": "address"
        },
        {
          "internalType": "address",
          "name": "_referrer",
          "type": "address"
        },
        {
          "internalType": "bytes",
          "name": "_data",
          "type": "bytes"
        }
      ],
      "name": "purchase",
      "outputs": [],
      "payable": true,
      "stateMutability": "payable",
      "type": "function"
    },
    {
      "constant": true,
      "inputs": [
        {
          "internalType": "address",
          "name": "_recipient",
          "type": "address"
        },
        {
          "internalType": "address",
          "name": "_referrer",
          "type": "address"
        },
        {
          "internalType": "bytes",
          "name": "_data",
          "type": "bytes"
        }
      ],
      "name": "purchasePriceFor",
      "outputs": [
        {
          "internalType": "uint256",
          "name": "minKeyPrice",
          "type": "uint256"
        }
      ],
      "payable": false,
      "stateMutability": "view",
      "type": "function"
    },
    {
      "constant": true,
      "inputs": [],
      "name": "refundPenaltyBasisPoints",
      "outputs": [
        {
          "internalType": "uint256",
          "name": "",
          "type": "uint256"
        }
      ],
      "payable": false,
      "stateMutability": "view",
      "type": "function"
    },
    {
      "constant": false,
      "inputs": [],
      "name": "renounceLockManager",
      "outputs": [],
      "payable": false,
      "stateMutability": "nonpayable",
      "type": "function"
    },
    {
      "constant": false,
      "inputs": [
        {
          "internalType": "address",
          "name": "_granter",
          "type": "address"
        }
      ],
      "name": "revokeKeyGranter",
      "outputs": [],
      "payable": false,
      "stateMutability": "nonpayable",
      "type": "function"
    },
    {
      "constant": false,
      "inputs": [
        {
          "internalType": "address",
          "name": "_from",
          "type": "address"
        },
        {
          "internalType": "address",
          "name": "_to",
          "type": "address"
        },
        {
          "internalType": "uint256",
          "name": "_tokenId",
          "type": "uint256"
        }
      ],
      "name": "safeTransferFrom",
      "outputs": [],
      "payable": false,
      "stateMutability": "nonpayable",
      "type": "function"
    },
    {
      "constant": false,
      "inputs": [
        {
          "internalType": "address",
          "name": "_from",
          "type": "address"
        },
        {
          "internalType": "address",
          "name": "_to",
          "type": "address"
        },
        {
          "internalType": "uint256",
          "name": "_tokenId",
          "type": "uint256"
        },
        {
          "internalType": "bytes",
          "name": "_data",
          "type": "bytes"
        }
      ],
      "name": "safeTransferFrom",
      "outputs": [],
      "payable": false,
      "stateMutability": "nonpayable",
      "type": "function"
    },
    {
      "constant": false,
      "inputs": [
        {
          "internalType": "address",
          "name": "_to",
          "type": "address"
        },
        {
          "internalType": "bool",
          "name": "_approved",
          "type": "bool"
        }
      ],
      "name": "setApprovalForAll",
      "outputs": [],
      "payable": false,
      "stateMutability": "nonpayable",
      "type": "function"
    },
    {
      "constant": false,
      "inputs": [
        {
          "internalType": "string",
          "name": "_baseTokenURI",
          "type": "string"
        }
      ],
      "name": "setBaseTokenURI",
      "outputs": [],
      "payable": false,
      "stateMutability": "nonpayable",
      "type": "function"
    },
    {
      "constant": false,
      "inputs": [
        {
          "internalType": "address",
          "name": "_onKeyPurchaseHook",
          "type": "address"
        },
        {
          "internalType": "address",
          "name": "_onKeyCancelHook",
          "type": "address"
        }
      ],
      "name": "setEventHooks",
      "outputs": [],
      "payable": false,
      "stateMutability": "nonpayable",
      "type": "function"
    },
    {
      "constant": false,
      "inputs": [
        {
          "internalType": "uint256",
          "name": "_tokenId",
          "type": "uint256"
        },
        {
          "internalType": "address",
          "name": "_keyManager",
          "type": "address"
        }
      ],
      "name": "setKeyManagerOf",
      "outputs": [],
      "payable": false,
      "stateMutability": "nonpayable",
      "type": "function"
    },
    {
      "constant": false,
      "inputs": [
        {
          "internalType": "address",
          "name": "_to",
          "type": "address"
        },
        {
          "internalType": "uint256",
          "name": "_tokenId",
          "type": "uint256"
        },
        {
          "internalType": "uint256",
          "name": "_timeShared",
          "type": "uint256"
        }
      ],
      "name": "shareKey",
      "outputs": [],
      "payable": false,
      "stateMutability": "nonpayable",
      "type": "function"
    },
    {
      "constant": true,
      "inputs": [
        {
          "internalType": "bytes4",
          "name": "interfaceId",
          "type": "bytes4"
        }
      ],
      "name": "supportsInterface",
      "outputs": [
        {
          "internalType": "bool",
          "name": "",
          "type": "bool"
        }
      ],
      "payable": false,
      "stateMutability": "view",
      "type": "function"
    },
    {
      "constant": true,
      "inputs": [],
      "name": "symbol",
      "outputs": [
        {
          "internalType": "string",
          "name": "",
          "type": "string"
        }
      ],
      "payable": false,
      "stateMutability": "view",
      "type": "function"
    },
    {
      "constant": true,
      "inputs": [],
      "name": "tokenAddress",
      "outputs": [
        {
          "internalType": "address",
          "name": "",
          "type": "address"
        }
      ],
      "payable": false,
      "stateMutability": "view",
      "type": "function"
    },
    {
      "constant": true,
      "inputs": [
        {
          "internalType": "uint256",
          "name": "_index",
          "type": "uint256"
        }
      ],
      "name": "tokenByIndex",
      "outputs": [
        {
          "internalType": "uint256",
          "name": "",
          "type": "uint256"
        }
      ],
      "payable": false,
      "stateMutability": "view",
      "type": "function"
    },
    {
      "constant": true,
      "inputs": [
        {
          "internalType": "address",
          "name": "_keyOwner",
          "type": "address"
        },
        {
          "internalType": "uint256",
          "name": "_index",
          "type": "uint256"
        }
      ],
      "name": "tokenOfOwnerByIndex",
      "outputs": [
        {
          "internalType": "uint256",
          "name": "",
          "type": "uint256"
        }
      ],
      "payable": false,
      "stateMutability": "view",
      "type": "function"
    },
    {
      "constant": true,
      "inputs": [
        {
          "internalType": "uint256",
          "name": "_tokenId",
          "type": "uint256"
        }
      ],
      "name": "tokenURI",
      "outputs": [
        {
          "internalType": "string",
          "name": "",
          "type": "string"
        }
      ],
      "payable": false,
      "stateMutability": "view",
      "type": "function"
    },
    {
      "constant": true,
      "inputs": [],
      "name": "totalSupply",
      "outputs": [
        {
          "internalType": "uint256",
          "name": "",
          "type": "uint256"
        }
      ],
      "payable": false,
      "stateMutability": "view",
      "type": "function"
    },
    {
      "constant": true,
      "inputs": [],
      "name": "transferFeeBasisPoints",
      "outputs": [
        {
          "internalType": "uint256",
          "name": "",
          "type": "uint256"
        }
      ],
      "payable": false,
      "stateMutability": "view",
      "type": "function"
    },
    {
      "constant": false,
      "inputs": [
        {
          "internalType": "address",
          "name": "_from",
          "type": "address"
        },
        {
          "internalType": "address",
          "name": "_recipient",
          "type": "address"
        },
        {
          "internalType": "uint256",
          "name": "_tokenId",
          "type": "uint256"
        }
      ],
      "name": "transferFrom",
      "outputs": [],
      "payable": false,
      "stateMutability": "nonpayable",
      "type": "function"
    },
    {
      "constant": true,
      "inputs": [],
      "name": "unlockProtocol",
      "outputs": [
        {
          "internalType": "contract IUnlock",
          "name": "",
          "type": "address"
        }
      ],
      "payable": false,
      "stateMutability": "view",
      "type": "function"
    },
    {
      "constant": false,
      "inputs": [
        {
          "internalType": "address",
          "name": "_beneficiary",
          "type": "address"
        }
      ],
      "name": "updateBeneficiary",
      "outputs": [],
      "payable": false,
      "stateMutability": "nonpayable",
      "type": "function"
    },
    {
      "constant": false,
      "inputs": [
        {
          "internalType": "uint256",
          "name": "_keyPrice",
          "type": "uint256"
        },
        {
          "internalType": "address",
          "name": "_tokenAddress",
          "type": "address"
        }
      ],
      "name": "updateKeyPricing",
      "outputs": [],
      "payable": false,
      "stateMutability": "nonpayable",
      "type": "function"
    },
    {
      "constant": false,
      "inputs": [
        {
          "internalType": "string",
          "name": "_lockName",
          "type": "string"
        }
      ],
      "name": "updateLockName",
      "outputs": [],
      "payable": false,
      "stateMutability": "nonpayable",
      "type": "function"
    },
    {
      "constant": false,
      "inputs": [
        {
          "internalType": "string",
          "name": "_lockSymbol",
          "type": "string"
        }
      ],
      "name": "updateLockSymbol",
      "outputs": [],
      "payable": false,
      "stateMutability": "nonpayable",
      "type": "function"
    },
    {
      "constant": false,
      "inputs": [
        {
          "internalType": "uint256",
          "name": "_freeTrialLength",
          "type": "uint256"
        },
        {
          "internalType": "uint256",
          "name": "_refundPenaltyBasisPoints",
          "type": "uint256"
        }
      ],
      "name": "updateRefundPenalty",
      "outputs": [],
      "payable": false,
      "stateMutability": "nonpayable",
      "type": "function"
    },
    {
      "constant": false,
      "inputs": [
        {
          "internalType": "uint256",
          "name": "_transferFeeBasisPoints",
          "type": "uint256"
        }
      ],
      "name": "updateTransferFee",
      "outputs": [],
      "payable": false,
      "stateMutability": "nonpayable",
      "type": "function"
    },
    {
      "constant": false,
      "inputs": [
        {
          "internalType": "address",
          "name": "_tokenAddress",
          "type": "address"
        },
        {
          "internalType": "uint256",
          "name": "_amount",
          "type": "uint256"
        }
      ],
      "name": "withdraw",
      "outputs": [],
      "payable": false,
      "stateMutability": "nonpayable",
      "type": "function"
    },
    {
      "constant": false,
      "inputs": [
        {
          "internalType": "address",
          "name": "_lockCreator",
          "type": "address"
        },
        {
          "internalType": "uint256",
          "name": "_expirationDuration",
          "type": "uint256"
        },
        {
          "internalType": "address",
          "name": "_tokenAddress",
          "type": "address"
        },
        {
          "internalType": "uint256",
          "name": "_keyPrice",
          "type": "uint256"
        },
        {
          "internalType": "uint256",
          "name": "_maxNumberOfKeys",
          "type": "uint256"
        },
        {
          "internalType": "string",
          "name": "_lockName",
          "type": "string"
        }
      ],
      "name": "initialize",
      "outputs": [],
      "payable": false,
      "stateMutability": "nonpayable",
      "type": "function"
    },
    {
      "constant": false,
      "inputs": [],
      "name": "initialize",
      "outputs": [],
      "payable": false,
      "stateMutability": "nonpayable",
      "type": "function"
    }
  ],
  "bytecode": "0x608060405234801561001057600080fd5b50615a8680620000216000396000f3fe6080604052600436106103fa5760003560e01c80636eadde4311610213578063aae4b8f711610123578063d2503485116100ab578063f0ba60401161007a578063f0ba60401461137d578063f12c6b6e14611392578063f3fef3a3146113d1578063fc42b58f1461140a578063fe72e4c114611443576103fa565b8063d2503485146112aa578063d32bfb6c146112dd578063d4fac45d14611307578063e985e9c514611342576103fa565b8063b2e0f6e7116100f2578063b2e0f6e714611137578063b88d4fde14611185578063c1c98d0314611256578063c87b56dd1461126b578063d1bbd49c14611295576103fa565b8063aae4b8f71461105d578063abdf82ce14611090578063ad0e0a4d146110c3578063b11d7ec1146110fe576103fa565b806393fd1844116101a6578063994a8a7111610175578063994a8a7114610f865780639d76ea5814610fbf578063a22cb46514610fd4578063a2e4cd2e1461100f578063a375cb0514611048576103fa565b806393fd184414610ef057806395d89b4114610f05578063970aaeb714610f1a57806397aa390a14610f4d576103fa565b80638129fc1c116101e25780638129fc1c14610d5b57806381a3c94314610d705780638577a6d514610e8b5780638d0361fc14610eb5576103fa565b80636eadde4314610bbc57806370a0823114610c9857806374b6c10614610ccb578063782a4ade14610ce0576103fa565b80632f745c591161030e5780634d025fed116102a1578063550ef3a811610270578063550ef3a814610a9c578063564aa99d14610b1757806356e0d51f14610b4a5780636352211e14610b5f5780636d8ea5b414610b89576103fa565b80634d025fed146109e25780634f6ccce714610a0c57806352b0f63814610a3657806352d6a8e414610a69576103fa565b806339f46986116102dd57806339f46986146108cc5780633f33133a146108fc5780634136aa351461098a57806342842e0e1461099f576103fa565b80632f745c59146107d957806330176e131461081257806335576ad01461088d57806338af3eed146108b7576103fa565b806310803b7211610391578063183767da11610360578063183767da14610724578063217751bc1461073957806323b872dd1461074e5780632af9162a146107915780632d33dd5b146107c4576103fa565b806310803b721461066557806310e56973146106e557806311a4c03a146106fa57806318160ddd1461070f576103fa565b8063095ea7b3116103cd578063095ea7b31461053e578063097ba333146105775780630aaffd2a1461061d5780630f15023b14610650576103fa565b806301ffc9a7146103fc578063025e7c271461044457806306fdde031461048a578063081812fc14610514575b005b34801561040857600080fd5b506104306004803603602081101561041f57600080fd5b50356001600160e01b031916611476565b604080519115158252519081900360200190f35b34801561045057600080fd5b5061046e6004803603602081101561046757600080fd5b5035611499565b604080516001600160a01b039092168252519081900360200190f35b34801561049657600080fd5b5061049f6114c0565b6040805160208082528351818301528351919283929083019185019080838360005b838110156104d95781810151838201526020016104c1565b50505050905090810190601f1680156105065780820380516001836020036101000a031916815260200191505b509250505060405180910390f35b34801561052057600080fd5b5061046e6004803603602081101561053757600080fd5b503561154e565b34801561054a57600080fd5b506103fa6004803603604081101561056157600080fd5b506001600160a01b0381351690602001356115c4565b34801561058357600080fd5b5061060b6004803603606081101561059a57600080fd5b6001600160a01b038235811692602081013590911691810190606081016040820135600160201b8111156105cd57600080fd5b8201836020820111156105df57600080fd5b803590602001918460018302840111600160201b8311171561060057600080fd5b50909250905061174b565b60408051918252519081900360200190f35b34801561062957600080fd5b506103fa6004803603602081101561064057600080fd5b50356001600160a01b031661179a565b34801561065c57600080fd5b5061046e611877565b34801561067157600080fd5b506106956004803603604081101561068857600080fd5b5080359060200135611886565b60408051602080825283518183015283519192839290830191858101910280838360005b838110156106d15781810151838201526020016106b9565b505050509050019250505060405180910390f35b3480156106f157600080fd5b5061060b6119a0565b34801561070657600080fd5b5061060b6119a6565b34801561071b57600080fd5b5061060b6119ac565b34801561073057600080fd5b5061060b6119b3565b34801561074557600080fd5b5061046e6119b9565b34801561075a57600080fd5b506103fa6004803603606081101561077157600080fd5b506001600160a01b038135811691602081013590911690604001356119c8565b34801561079d57600080fd5b506103fa600480360360208110156107b457600080fd5b50356001600160a01b0316611ccd565b3480156107d057600080fd5b5061046e611d59565b3480156107e557600080fd5b5061060b600480360360408110156107fc57600080fd5b506001600160a01b038135169060200135611d68565b34801561081e57600080fd5b506103fa6004803603602081101561083557600080fd5b810190602081018135600160201b81111561084f57600080fd5b82018360208201111561086157600080fd5b803590602001918460018302840111600160201b8311171561088257600080fd5b509092509050611dc6565b34801561089957600080fd5b506103fa600480360360208110156108b057600080fd5b5035611e1b565b3480156108c357600080fd5b5061046e611ebd565b3480156108d857600080fd5b506103fa600480360360408110156108ef57600080fd5b5080359060200135611ecc565b6103fa6004803603608081101561091257600080fd5b8135916001600160a01b03602082013581169260408301359091169190810190608081016060820135600160201b81111561094c57600080fd5b82018360208201111561095e57600080fd5b803590602001918460018302840111600160201b8311171561097f57600080fd5b509092509050611f56565b34801561099657600080fd5b50610430612466565b3480156109ab57600080fd5b506103fa600480360360608110156109c257600080fd5b506001600160a01b03813581169160208101359091169060400135612476565b3480156109ee57600080fd5b5061046e60048036036020811015610a0557600080fd5b5035612491565b348015610a1857600080fd5b5061060b60048036036020811015610a2f57600080fd5b50356124ac565b348015610a4257600080fd5b5061043060048036036020811015610a5957600080fd5b50356001600160a01b03166124f7565b348015610a7557600080fd5b5061060b60048036036020811015610a8c57600080fd5b50356001600160a01b031661250a565b348015610aa857600080fd5b506103fa60048036036020811015610abf57600080fd5b810190602081018135600160201b811115610ad957600080fd5b820183602082011115610aeb57600080fd5b803590602001918460018302840111600160201b83111715610b0c57600080fd5b509092509050612515565b348015610b2357600080fd5b506103fa60048036036020811015610b3a57600080fd5b50356001600160a01b0316612565565b348015610b5657600080fd5b5061060b6125f1565b348015610b6b57600080fd5b5061046e60048036036020811015610b8257600080fd5b50356125f7565b348015610b9557600080fd5b5061043060048036036020811015610bac57600080fd5b50356001600160a01b031661266d565b348015610bc857600080fd5b506103fa600480360360c0811015610bdf57600080fd5b6001600160a01b03823581169260208101359260408201359092169160608201359160808101359181019060c0810160a0820135600160201b811115610c2457600080fd5b820183602082011115610c3657600080fd5b803590602001918460018302840111600160201b83111715610c5757600080fd5b91908080601f01602080910402602001604051908101604052809392919081815260200183838082843760009201919091525092955061268d945050505050565b348015610ca457600080fd5b5061060b60048036036020811015610cbb57600080fd5b50356001600160a01b031661278d565b348015610cd757600080fd5b5061060b6127fc565b348015610cec57600080fd5b506103fa60048036036020811015610d0357600080fd5b810190602081018135600160201b811115610d1d57600080fd5b820183602082011115610d2f57600080fd5b803590602001918460018302840111600160201b83111715610d5057600080fd5b509092509050612802565b348015610d6757600080fd5b506103fa6128b7565b348015610d7c57600080fd5b506103fa60048036036060811015610d9357600080fd5b810190602081018135600160201b811115610dad57600080fd5b820183602082011115610dbf57600080fd5b803590602001918460208302840111600160201b83111715610de057600080fd5b919390929091602081019035600160201b811115610dfd57600080fd5b820183602082011115610e0f57600080fd5b803590602001918460208302840111600160201b83111715610e3057600080fd5b919390929091602081019035600160201b811115610e4d57600080fd5b820183602082011115610e5f57600080fd5b803590602001918460208302840111600160201b83111715610e8057600080fd5b509092509050612969565b348015610e9757600080fd5b506103fa60048036036020811015610eae57600080fd5b5035612b8b565b348015610ec157600080fd5b5061060b60048036036040811015610ed857600080fd5b506001600160a01b0381358116916020013516612c07565b348015610efc57600080fd5b5061060b612c92565b348015610f1157600080fd5b5061049f612c98565b348015610f2657600080fd5b5061060b60048036036020811015610f3d57600080fd5b50356001600160a01b0316612e87565b348015610f5957600080fd5b506103fa60048036036040811015610f7057600080fd5b506001600160a01b038135169060200135612ea2565b348015610f9257600080fd5b5061043060048036036040811015610fa957600080fd5b50803590602001356001600160a01b0316612f3b565b348015610fcb57600080fd5b5061046e612f5c565b348015610fe057600080fd5b506103fa60048036036040811015610ff757600080fd5b506001600160a01b0381351690602001351515612f6b565b34801561101b57600080fd5b506103fa6004803603604081101561103257600080fd5b50803590602001356001600160a01b0316613076565b34801561105457600080fd5b5061060b613245565b34801561106957600080fd5b506104306004803603602081101561108057600080fd5b50356001600160a01b031661324b565b34801561109c57600080fd5b5061060b600480360360208110156110b357600080fd5b50356001600160a01b031661325e565b3480156110cf57600080fd5b506103fa600480360360408110156110e657600080fd5b506001600160a01b038135811691602001351661327c565b34801561110a57600080fd5b506103fa6004803603604081101561112157600080fd5b50803590602001356001600160a01b03166133d6565b34801561114357600080fd5b506103fa600480360360a081101561115a57600080fd5b506001600160a01b038135169060ff60208201351690604081013590606081013590608001356134f3565b34801561119157600080fd5b506103fa600480360360808110156111a857600080fd5b6001600160a01b03823581169260208101359091169160408201359190810190608081016060820135600160201b8111156111e257600080fd5b8201836020820111156111f457600080fd5b803590602001918460018302840111600160201b8311171561121557600080fd5b91908080601f016020809104026020016040519081016040528093929190818152602001838380828437600092019190915250929550613643945050505050565b34801561126257600080fd5b506103fa6136b1565b34801561127757600080fd5b5061049f6004803603602081101561128e57600080fd5b503561377d565b3480156112a157600080fd5b5061060b613a0a565b3480156112b657600080fd5b506103fa600480360360208110156112cd57600080fd5b50356001600160a01b0316613a0f565b3480156112e957600080fd5b506103fa6004803603602081101561130057600080fd5b5035613a9b565b34801561131357600080fd5b5061060b6004803603604081101561132a57600080fd5b506001600160a01b0381358116916020013516613b41565b34801561134e57600080fd5b506104306004803603604081101561136557600080fd5b506001600160a01b0381358116916020013516613beb565b34801561138957600080fd5b506103fa613c80565b34801561139e57600080fd5b506103fa600480360360608110156113b557600080fd5b506001600160a01b038135169060208101359060400135613cbe565b3480156113dd57600080fd5b506103fa600480360360408110156113f457600080fd5b506001600160a01b038135169060200135614042565b34801561141657600080fd5b5061060b6004803603604081101561142d57600080fd5b506001600160a01b038135169060200135614183565b34801561144f57600080fd5b5061060b6004803603602081101561146657600080fd5b50356001600160a01b031661422c565b6001600160e01b0319811660009081526033602052604090205460ff165b919050565b607481815481106114a657fe5b6000918252602090912001546001600160a01b0316905081565b6076805460408051602060026001851615610100026000190190941693909304601f810184900484028201840190925281815292918301828280156115465780601f1061151b57610100808354040283529160200191611546565b820191906000526020600020905b81548152906001019060200180831161152957829003601f168201915b505050505081565b60008181526073602052604081205482906001600160a01b03166115a7576040805162461bcd60e51b815260206004820152600b60248201526a4e4f5f535543485f4b455960a81b604482015290519081900360640190fd5b50506000908152607960205260409020546001600160a01b031690565b606954600160a01b900460ff16611614576040805162461bcd60e51b815260206004820152600f60248201526e1313d0d2d7d11154149150d0551151608a1b604482015290519081900360640190fd5b8061161f813361423e565b8061162f575061162f81336142a0565b806116575750600081815260736020526040902054611657906001600160a01b031633613beb565b611696576040805162461bcd60e51b815260206004820152601c602482015260008051602061590e833981519152604482015290519081900360640190fd5b336001600160a01b03841614156116e3576040805162461bcd60e51b815260206004820152600c60248201526b20a8282927ab22afa9a2a62360a11b604482015290519081900360640190fd5b600082815260796020908152604080832080546001600160a01b0319166001600160a01b038881169182179092556073909352818420549151869492909116917f8c5be1e5ebec7d5bd14f71427d1e84f3dd0314c0f7b2291e5b200ac8c7c3b92591a4505050565b600061178e858585858080601f0160208091040260200160405190810160405280939291908181526020018383808284376000920191909152506142c192505050565b50909695505050505050565b606f546001600160a01b03163314806117b757506117b73361324b565b611808576040805162461bcd60e51b815260206004820152601f60248201527f4f4e4c595f42454e45464943494152595f4f525f4c4f434b4d414e4147455200604482015290519081900360640190fd5b6001600160a01b038116611855576040805162461bcd60e51b815260206004820152600f60248201526e494e56414c49445f4144445245535360881b604482015290519081900360640190fd5b606f80546001600160a01b0319166001600160a01b0392909216919091179055565b606a546001600160a01b031681565b6074546060906118d3576040805162461bcd60e51b81526020600482015260136024820152724e4f5f4f55545354414e44494e475f4b45595360681b604482015290519081900360640190fd5b60745482908482029060009082840111156118f6575060745481810392506118fb565b508082015b606083604051908082528060200260200182016040528015611927578160200160208202803883390190505b5090506000835b83811015611991576074818154811061194357fe5b9060005260206000200160009054906101000a90046001600160a01b031683838151811061196d57fe5b6001600160a01b03909216602092830291909101909101526001918201910161192e565b50909450505050505b92915050565b606c5481565b606b5481565b606e545b90565b607b5481565b6071546001600160a01b031681565b606954600160a01b900460ff16611a18576040805162461bcd60e51b815260206004820152600f60248201526e1313d0d2d7d11154149150d0551151608a1b604482015290519081900360640190fd5b82611a228161266d565b611a63576040805162461bcd60e51b815260206004820152600d60248201526c12d15657d393d517d590531251609a1b604482015290519081900360640190fd5b81611a6e813361423e565b80611a7e5750611a7e81336142a0565b80611aa65750600081815260736020526040902054611aa6906001600160a01b031633613beb565b611ae5576040805162461bcd60e51b815260206004820152601c602482015260008051602061590e833981519152604482015290519081900360640190fd5b611aef8386612f3b565b611b40576040805162461bcd60e51b815260206004820152601c60248201527f5452414e534645525f46524f4d3a204e4f545f4b45595f4f574e455200000000604482015290519081900360640190fd5b612710607b5410611b91576040805162461bcd60e51b815260206004820152601660248201527512d15657d514905394d1915494d7d11254d05093115160521b604482015290519081900360640190fd5b6001600160a01b038416611bde576040805162461bcd60e51b815260206004820152600f60248201526e494e56414c49445f4144445245535360881b604482015290519081900360640190fd5b6000611beb866000614183565b6001600160a01b03808816600090815260726020526040808220928916825281206001810154939450919290611c2490889086906144cd565b8154611c3757868255611c3788886145ef565b428111611c635760018084015490830155868255611c5487614677565b611c5e88886145ef565b611c80565b6001830154611c7a9042830363ffffffff6146dc16565b60018301555b42600184015560008355611c9387614736565b86886001600160a01b03168a6001600160a01b0316600080516020615a0883398151915260405160405180910390a4505050505050505050565b611cd63361324b565b611d115760405162461bcd60e51b815260040180806020018281038252603b815260200180615899603b913960400191505060405180910390fd5b611d2260678263ffffffff61477116565b6040516001600160a01b038216907f766f6199fea59554b9ff688e413302b9200f85d74811c053c12d945ac6d8dd7a90600090a250565b6070546001600160a01b031681565b60008115611db6576040805162461bcd60e51b815260206004820152601660248201527527a7262cafa7a722afa5a2acafa822a92fa7aba722a960511b604482015290519081900360640190fd5b611dbf83612e87565b9392505050565b611dcf3361324b565b611e0a5760405162461bcd60e51b815260040180806020018281038252603b815260200180615899603b913960400191505060405180910390fd5b611e1660788383615771565b505050565b336000908152606860205260409020548111611e73576040805162461bcd60e51b81526020600482015260126024820152711393d390d157d053149150511657d554d15160721b604482015290519081900360640190fd5b33600081815260686020908152604091829020849055815184815291517ff5d035b703f1ad8d403dd02e821d04257acafc5f6c5d70a3907bd8abf33a2e0f9281900390910190a250565b606f546001600160a01b031681565b611ed53361324b565b611f105760405162461bcd60e51b815260040180806020018281038252603b815260200180615899603b913960400191505060405180910390fd5b604080518381526020810183905281517fd6867bc538320e67d7bdc35860c27c08486eb490b4fd9b820fff18fb28381d3c929181900390910190a1607d91909155607c55565b606954600160a01b900460ff16611fa6576040805162461bcd60e51b815260206004820152600f60248201526e1313d0d2d7d11154149150d0551151608a1b604482015290519081900360640190fd5b606e54606d5411611fee576040805162461bcd60e51b815260206004820152600d60248201526c1313d0d2d7d4d3d31117d3d555609a1b604482015290519081900360640190fd5b6001600160a01b03841661203b576040805162461bcd60e51b815260206004820152600f60248201526e494e56414c49445f4144445245535360881b604482015290519081900360640190fd5b6001600160a01b038416600090815260726020526040812080549091816120ab57612065836147d8565b8254915061207387836145ef565b50606b5442016001830181905560405182906001600160a01b03891690600090600080516020615a08833981519152908290a4612171565b428360010154111561211b57606b5460018401546120ce9163ffffffff6146dc16565b600184018190556040805182815290519192506001600160a01b038916917f872bd7c99ad5e7b6ed7f0a890f348839cb8e225c9deaa3909afedae54c93d17d9181900360200190a2612171565b50606b5442016001830181905561213182614677565b6040805182815290516001600160a01b038916917f872bd7c99ad5e7b6ed7f0a890f348839cb8e225c9deaa3909afedae54c93d17d919081900360200190a25b60008060006121b78a8a8a8a8080601f0160208091040260200160405190810160405280939291908181526020018383808284376000920191909152506142c192505050565b91945092509050811561223157606a5460408051633652466360e01b8152600481018590526024810184905290516001600160a01b039092169163365246639160448082019260009290919082900301818387803b15801561221857600080fd5b505af115801561222c573d6000803e3d6000fd5b505050505b606a546001600160a01b031663939d9f1f8461224c8c61266d565b612257576000612259565b8b5b6040518363ffffffff1660e01b815260040180838152602001826001600160a01b03166001600160a01b0316815260200192505050600060405180830381600087803b1580156122a857600080fd5b505af11580156122bc573d6000803e3d6000fd5b5050606954600092506001600160a01b03161590506122fc57506069548b906001600160a01b03166122f68133308563ffffffff6147ed16565b506122ff565b50345b83811015612349576040805162461bcd60e51b8152602060048201526012602482015271494e53554646494349454e545f56414c554560701b604482015290519081900360640190fd5b6070546001600160a01b03161561245857607060009054906101000a90046001600160a01b03166001600160a01b03166398499657338d8d8d8d8a886040518863ffffffff1660e01b815260040180886001600160a01b03166001600160a01b03168152602001876001600160a01b03166001600160a01b03168152602001866001600160a01b03166001600160a01b03168152602001806020018481526020018381526020018281038252868682818152602001925080828437600081840152601f19601f82011690508083019250505098505050505050505050600060405180830381600087803b15801561243f57600080fd5b505af1158015612453573d6000803e3d6000fd5b505050505b505050505050505050505050565b606954600160a01b900460ff1681565b611e1683838360405180602001604052806000815250613643565b6075602052600090815260409020546001600160a01b031681565b6000606e5482106124f3576040805162461bcd60e51b815260206004820152600c60248201526b4f55545f4f465f52414e474560a01b604482015290519081900360640190fd5b5090565b600061199a60678363ffffffff61484716565b600061199a826148ae565b61251e3361324b565b6125595760405162461bcd60e51b815260040180806020018281038252603b815260200180615899603b913960400191505060405180910390fd5b611e1660768383615771565b61256e3361324b565b6125a95760405162461bcd60e51b815260040180806020018281038252603b815260200180615899603b913960400191505060405180910390fd5b6125ba60678263ffffffff6149b516565b6040516001600160a01b038216907f684f8a71407db0c334454ebe9c9b288549317893a20b10dc779ec5c118dcd12190600090a250565b607c5481565b60008181526073602052604081205482906001600160a01b0316612650576040805162461bcd60e51b815260206004820152600b60248201526a4e4f5f535543485f4b455960a81b604482015290519081900360640190fd5b50506000908152607360205260409020546001600160a01b031690565b6001600160a01b0316600090815260726020526040902060010154421090565b600054610100900460ff16806126a657506126a6614a36565b806126b4575060005460ff16155b6126ef5760405162461bcd60e51b815260040180806020018281038252602e8152602001806159da602e913960400191505060405180910390fd5b600054610100900460ff1615801561271a576000805460ff1961ff0019909116610100171660011790555b61272385614a3c565b61272b614b0b565b61273787878686614b20565b61274082614bb6565b612748614be2565b612750614bf4565b61275987614bfc565b61276287614c1a565b6127726380ac58cd60e01b614c38565b8015612784576000805461ff00191690555b50505050505050565b60006001600160a01b0382166127dc576040805162461bcd60e51b815260206004820152600f60248201526e494e56414c49445f4144445245535360881b604482015290519081900360640190fd5b6127e58261266d565b6127f05760006127f3565b60015b60ff1692915050565b606d5481565b61280b3361324b565b6128465760405162461bcd60e51b815260040180806020018281038252603b815260200180615899603b913960400191505060405180910390fd5b61285260778383615771565b507f8868e22e84ebf32da89b2ebcb0ac642816304ea3863b257f240df9098719cb97828260405180806020018281038252848482818152602001925080828437600083820152604051601f909101601f19169092018290039550909350505050a15050565b600054610100900460ff16806128d057506128d0614a36565b806128de575060005460ff16155b6129195760405162461bcd60e51b815260040180806020018281038252602e8152602001806159da602e913960400191505060405180910390fd5b600054610100900460ff16158015612944576000805460ff1961ff0019909116610100171660011790555b6129546301ffc9a760e01b614c38565b8015612966576000805461ff00191690555b50565b612972336124f7565b8061298157506129813361324b565b6129bc5760405162461bcd60e51b815260040180806020018281038252604881526020018061592e6048913960600191505060405180910390fd5b60005b858110156127845760008787838181106129d557fe5b905060200201356001600160a01b0316905060008686848181106129f557fe5b9050602002013590506000858585818110612a0c57fe5b905060200201356001600160a01b0316905060006001600160a01b0316836001600160a01b03161415612a78576040805162461bcd60e51b815260206004820152600f60248201526e494e56414c49445f4144445245535360881b604482015290519081900360640190fd5b6001600160a01b038316600090815260726020526040902060018101548311612adb576040805162461bcd60e51b815260206004820152601060248201526f414c52454144595f4f574e535f4b455960801b604482015290519081900360640190fd5b805480612af857612aeb826147d8565b508054612af885826145ef565b60008181526075602052604080822080546001600160a01b0319166001600160a01b0387169081179091559051909183917f9d2895c45a420624de863a2f437b022d879f457bf7a829044055a10c5a6fd5e39190a36001820184905560405181906001600160a01b03871690600090600080516020615a08833981519152908290a45050600190930192506129bf915050565b612b943361324b565b612bcf5760405162461bcd60e51b815260040180806020018281038252603b815260200180615899603b913960400191505060405180910390fd5b6040805182815290517f0496ed1e61eb69727f9659a8e859288db4758ffb1f744d1c1424634f90a257f49181900360200190a1607b55565b600030604051808061587460259139604080519182900360250182206001600160a01b03881660009081526068602081815291849020546bffffffffffffffffffffffff19606098891b811684880152603487019490945260548601529588901b90911660748401528151808403909501855260889092019052825192019190912091505092915050565b60745490565b60775460609060026000196101006001841615020190911604612df557606a60009054906101000a90046001600160a01b03166001600160a01b031663cec410526040518163ffffffff1660e01b815260040160006040518083038186803b158015612d0357600080fd5b505afa158015612d17573d6000803e3d6000fd5b505050506040513d6000823e601f3d908101601f191682016040526020811015612d4057600080fd5b8101908080516040519392919084600160201b821115612d5f57600080fd5b908301906020820185811115612d7457600080fd5b8251600160201b811182820188101715612d8d57600080fd5b82525081516020918201929091019080838360005b83811015612dba578181015183820152602001612da2565b50505050905090810190601f168015612de75780820380516001836020036101000a031916815260200191505b5060405250505090506119b0565b6077805460408051602060026001851615610100026000190190941693909304601f81018490048402820184019092528181529291830182828015612e7b5780601f10612e5057610100808354040283529160200191612e7b565b820191906000526020600020905b815481529060010190602001808311612e5e57829003601f168201915b505050505090506119b0565b6001600160a01b031660009081526072602052604090205490565b612eab3361324b565b612ee65760405162461bcd60e51b815260040180806020018281038252603b815260200180615899603b913960400191505060405180910390fd5b81612ef08161266d565b612f31576040805162461bcd60e51b815260206004820152600d60248201526c12d15657d393d517d590531251609a1b604482015290519081900360640190fd5b611e168383614cbc565b600091825260736020526040909120546001600160a01b0391821691161490565b6069546001600160a01b031681565b606954600160a01b900460ff16612fbb576040805162461bcd60e51b815260206004820152600f60248201526e1313d0d2d7d11154149150d0551151608a1b604482015290519081900360640190fd5b6001600160a01b038216331415613008576040805162461bcd60e51b815260206004820152600c60248201526b20a8282927ab22afa9a2a62360a11b604482015290519081900360640190fd5b336000818152607a602090815260408083206001600160a01b03871680855290835292819020805460ff1916861515908117909155815190815290519293927f17307eab39ab6107e8899845ad3d59bd9653f200f220920489ca2b5937696c31929181900390910190a35050565b61307f3361324b565b6130ba5760405162461bcd60e51b815260040180806020018281038252603b815260200180615899603b913960400191505060405180910390fd5b606954600160a01b900460ff1661310a576040805162461bcd60e51b815260206004820152600f60248201526e1313d0d2d7d11154149150d0551151608a1b604482015290519081900360640190fd5b606c546069546001600160a01b03908116908316158061318e57506000836001600160a01b03166318160ddd6040518163ffffffff1660e01b815260040160206040518083038186803b15801561316057600080fd5b505afa158015613174573d6000803e3d6000fd5b505050506040513d602081101561318a57600080fd5b5051115b6131cf576040805162461bcd60e51b815260206004820152600d60248201526c24a72b20a624a22faa27a5a2a760991b604482015290519081900360640190fd5b606c849055606980546001600160a01b0319166001600160a01b038581169190911791829055604080518581526020810188905284831681830152929091166060830152517f3615065ccf48367ac483ac86701248e2e5ff55bdd9be845007d34a3b68d719d4916080908290030190a150505050565b607d5481565b600061199a60668363ffffffff61484716565b6001600160a01b031660009081526072602052604090206001015490565b6132853361324b565b6132c05760405162461bcd60e51b815260040180806020018281038252603b815260200180615899603b913960400191505060405180910390fd5b6001600160a01b03821615806132e357506132e3826001600160a01b0316614db7565b613334576040805162461bcd60e51b815260206004820152601860248201527f494e56414c49445f4f4e5f4b45595f534f4c445f484f4f4b0000000000000000604482015290519081900360640190fd5b6001600160a01b03811615806133575750613357816001600160a01b0316614db7565b6133a8576040805162461bcd60e51b815260206004820152601a60248201527f494e56414c49445f4f4e5f4b45595f43414e43454c5f484f4f4b000000000000604482015290519081900360640190fd5b607080546001600160a01b039384166001600160a01b03199182161790915560718054929093169116179055565b60008281526073602052604090205482906001600160a01b031661342f576040805162461bcd60e51b815260206004820152600b60248201526a4e4f5f535543485f4b455960a81b604482015290519081900360640190fd5b613439833361423e565b8061344857506134483361324b565b613499576040805162461bcd60e51b815260206004820152601f60248201527f554e415554484f52495a45445f4b45595f4d414e414745525f55504441544500604482015290519081900360640190fd5b60008381526075602052604080822080546001600160a01b0319166001600160a01b0386169081179091559051909185917f9d2895c45a420624de863a2f437b022d879f457bf7a829044055a10c5a6fd5e39190a3505050565b6134fd8533612c07565b85858585836001600160a01b0316600161351687614dee565b85858560405160008152602001604052604051808581526020018460ff1660ff1681526020018381526020018281526020019450505050506020604051602081039080840390855afa158015613570573d6000803e3d6000fd5b505050602060405103516001600160a01b0316146135c9576040805162461bcd60e51b8152602060048201526011602482015270494e56414c49445f5349474e415455524560781b604482015290519081900360640190fd5b6001600160a01b038416600081815260686020908152604091829020805460010190819055825190815291517ff5d035b703f1ad8d403dd02e821d04257acafc5f6c5d70a3907bd8abf33a2e0f9281900390910190a2600061362a876125f7565b90506000613637826148ae565b90506124588282614cbc565b61364e8484846119c8565b61365a84848484614e3f565b6136ab576040805162461bcd60e51b815260206004820152601d60248201527f4e4f4e5f434f4d504c49414e545f4552433732315f5245434549564552000000604482015290519081900360640190fd5b50505050565b6136ba3361324b565b6136f55760405162461bcd60e51b815260040180806020018281038252603b815260200180615899603b913960400191505060405180910390fd5b606954600160a01b900460ff16613745576040805162461bcd60e51b815260206004820152600f60248201526e1313d0d2d7d11154149150d0551151608a1b604482015290519081900360640190fd5b6040517f25a311358326fb18c62efc24bc28d3126acee8d2a67fd8b2145b757dc8bd1bc190600090a16069805460ff60a01b19169055565b60008181526073602052604090205460609082906001600160a01b03166137d9576040805162461bcd60e51b815260206004820152600b60248201526a4e4f5f535543485f4b455960a81b604482015290519081900360640190fd5b6078546060906002600019610100600184161502019091160461393657606a60009054906101000a90046001600160a01b03166001600160a01b031663a998e9fb6040518163ffffffff1660e01b815260040160006040518083038186803b15801561384457600080fd5b505afa158015613858573d6000803e3d6000fd5b505050506040513d6000823e601f3d908101601f19168201604052602081101561388157600080fd5b8101908080516040519392919084600160201b8211156138a057600080fd5b9083019060208201858111156138b557600080fd5b8251600160201b8111828201881017156138ce57600080fd5b82525081516020918201929091019080838360005b838110156138fb5781810151838201526020016138e3565b50505050905090810190601f1680156139285780820380516001836020036101000a031916815260200191505b5060405250505090506139c4565b6078805460408051602060026001851615610100026000190190941693909304601f810184900484028201840190925281815292918301828280156139bc5780601f10613991576101008083540402835291602001916139bc565b820191906000526020600020905b81548152906001019060200180831161399f57829003601f168201915b505050505090505b613a026139d030614f72565b604051806040016040528060018152602001602f60f81b8152506139f3876150ee565b8492919063ffffffff6151b216565b949350505050565b600790565b613a183361324b565b613a535760405162461bcd60e51b815260040180806020018281038252603b815260200180615899603b913960400191505060405180910390fd5b613a6460668263ffffffff6149b516565b6040516001600160a01b038216907f91d5c045d5bd98bf59a379b259ebca05b93bf79af1845fdf87e3172385d4c7f790600090a250565b80613aa6813361423e565b80613ab65750613ab681336142a0565b80613ade5750600081815260736020526040902054613ade906001600160a01b031633613beb565b613b1d576040805162461bcd60e51b815260206004820152601c602482015260008051602061590e833981519152604482015290519081900360640190fd5b6000613b28836125f7565b90506000613b35826148ae565b90506136ab8282614cbc565b60006001600160a01b038316613b6257506001600160a01b0381163161199a565b826001600160a01b03166370a08231836040518263ffffffff1660e01b815260040180826001600160a01b03166001600160a01b0316815260200191505060206040518083038186803b158015613bb857600080fd5b505afa158015613bcc573d6000803e3d6000fd5b505050506040513d6020811015613be257600080fd5b5051905061199a565b6001600160a01b038083166000908152607260209081526040808320548084526075909252822054919290911680613c4e575050506001600160a01b038083166000908152607a602090815260408083209385168352929052205460ff1661199a565b6001600160a01b039081166000908152607a602090815260408083209387168352929052205460ff16915061199a9050565b613c9160663363ffffffff61477116565b60405133907f42885193b8178d25fca25a38e6fcc93918501e91be06d85e0c8afb3bad95238090600090a2565b606954600160a01b900460ff16613d0e576040805162461bcd60e51b815260206004820152600f60248201526e1313d0d2d7d11154149150d0551151608a1b604482015290519081900360640190fd5b81613d19813361423e565b80613d295750613d2981336142a0565b80613d515750600081815260736020526040902054613d51906001600160a01b031633613beb565b613d90576040805162461bcd60e51b815260206004820152601c602482015260008051602061590e833981519152604482015290519081900360640190fd5b612710607b5410613de1576040805162461bcd60e51b815260206004820152601660248201527512d15657d514905394d1915494d7d11254d05093115160521b604482015290519081900360640190fd5b6001600160a01b038416613e2e576040805162461bcd60e51b815260206004820152600f60248201526e494e56414c49445f4144445245535360881b604482015290519081900360640190fd5b6000838152607360205260409020546001600160a01b0316613e4f8161266d565b613e90576040805162461bcd60e51b815260206004820152600d60248201526c12d15657d393d517d590531251609a1b604482015290519081900360640190fd5b6001600160a01b0380821660009081526072602052604080822092881682528120805460018401549192909142900381613eca878a614183565b90506000613ede8a8363ffffffff6146dc16565b905082811015613efc57899350613ef78b8260006144cd565b613f40565b613f068884614183565b42600189015560405181850395509092508b907f59f2fe866dd27a1c2d34115520888c3150365cbc931aab97fa88c4b9ab40b79590600090a25b84613f8757613f4e866147d8565b85549450613f5c8c866145ef565b60405185906001600160a01b038e1690600090600080516020615a08833981519152908290a4613f9b565b42866001015411613f9b57613f9b85614677565b613fa7858560016144cd565b848c6001600160a01b0316896001600160a01b0316600080516020615a0883398151915260405160405180910390a4613ff1888d8d60405180602001604052806000815250614e3f565b612458576040805162461bcd60e51b815260206004820152601d60248201527f4e4f4e5f434f4d504c49414e545f4552433732315f5245434549564552000000604482015290519081900360640190fd5b61404b3361324b565b806140605750606f546001600160a01b031633145b6140b1576040805162461bcd60e51b815260206004820181905260248201527f4f4e4c595f4c4f434b5f4d414e414745525f4f525f42454e4546494349415259604482015290519081900360640190fd5b60006140bd8330613b41565b905060008215806140cd57508183115b15614121576000821161411a576040805162461bcd60e51b815260206004820152601060248201526f4e4f545f454e4f5547485f46554e445360801b604482015290519081900360640190fd5b5080614124565b50815b606f546040805183815290516001600160a01b039283169287169133917f342e7ff505a8a0364cd0dc2ff195c315e43bce86b204846ecd36913e117b109e9181900360200190a4606f546136ab9085906001600160a01b031683615303565b60008261418f8161266d565b6141d0576040805162461bcd60e51b815260206004820152600d60248201526c12d15657d393d517d590531251609a1b604482015290519081900360640190fd5b6001600160a01b03841660009081526072602052604081209080856141fd57428360010154039150614201565b8591505b612710614219607b548461535090919063ffffffff16565b8161422057fe5b04979650505050505050565b60686020526000908152604090205481565b6000828152607560205260408120546001600160a01b038381169116148061428b57506000838152607560205260409020546001600160a01b031615801561428b575061428b8383612f3b565b156142985750600161199a565b50600061199a565b600091825260796020526040909120546001600160a01b0391821691161490565b607054600090819081906001600160a01b0316156143d55760705460405163221c1fd160e01b815233600482018181526001600160a01b038a811660248501528981166044850152608060648501908152895160848601528951919095169463221c1fd1948c938c938c93919260a40190602085019080838360005b8381101561435557818101518382015260200161433d565b50505050905090810190601f1680156143825780820380516001836020036101000a031916815260200191505b509550505050505060206040518083038186803b1580156143a257600080fd5b505afa1580156143b6573d6000803e3d6000fd5b505050506040513d60208110156143cc57600080fd5b505192506143db565b606c5492505b82156144c457606a5460408051630cb175e360e01b81526001600160a01b038981166004830152602482018790528251931692630cb175e392604480840193919291829003018186803b15801561443157600080fd5b505afa158015614445573d6000803e3d6000fd5b505050506040513d604081101561445b57600080fd5b5080516020909101519092509050828211156144be576040805162461bcd60e51b815260206004820152601c60248201527f494e56414c49445f444953434f554e545f46524f4d5f554e4c4f434b00000000604482015290519081900360640190fd5b81830392505b93509350939050565b6000838152607360205260409020546001600160a01b03168061452a576040805162461bcd60e51b815260206004820152601060248201526f4e4f4e5f4558495354454e545f4b455960801b604482015290519081900360640190fd5b6001600160a01b0381166000908152607260205260408120600181015490916145528461266d565b9050841561459557801561457a57614570828763ffffffff6146dc16565b6001840155614590565b61458a428763ffffffff6146dc16565b60018401555b6145ab565b6145a5828763ffffffff6153a916565b60018401555b604080518781528615156020820152815189927fe9408df99703ae33a9d01185bcad328ea8683fb1f920da9c30959c192f21b5b3928290030190a250505050505050565b6000818152607360205260409020546001600160a01b038381169116146146735760748054600181019091557f19a0b39aa25ac793b5f6e9a0534364cc0b3fd1ea9b651e79c7f50a59d48ef8130180546001600160a01b0384166001600160a01b031991821681179092556000838152607360205260409020805490911690911790555b5050565b6000818152607560205260409020546001600160a01b0316156129665760008181526075602052604080822080546001600160a01b03191690555182907f9d2895c45a420624de863a2f437b022d879f457bf7a829044055a10c5a6fd5e3908390a350565b600082820183811015611dbf576040805162461bcd60e51b815260206004820152601b60248201527f536166654d6174683a206164646974696f6e206f766572666c6f770000000000604482015290519081900360640190fd5b6000818152607960205260409020546001600160a01b03161561296657600090815260796020526040902080546001600160a01b0319169055565b61477b8282614847565b6147b65760405162461bcd60e51b81526004018080602001828103825260218152602001806159766021913960400191505060405180910390fd5b6001600160a01b0316600090815260209190915260409020805460ff19169055565b805461296657606e8054600101908190559055565b604080516001600160a01b0385811660248301528416604482015260648082018490528251808303909101815260849091019091526020810180516001600160e01b03166323b872dd60e01b1790526136ab9085906153eb565b60006001600160a01b03821661488e5760405162461bcd60e51b81526004018080602001828103825260228152602001806159b86022913960400191505060405180910390fd5b506001600160a01b03166000908152602091909152604090205460ff1690565b6000816148ba8161266d565b6148fb576040805162461bcd60e51b815260206004820152600d60248201526c12d15657d393d517d590531251609a1b604482015290519081900360640190fd5b6001600160a01b03831660009081526072602052604090206001810154606b54607d54429092039182011061493457606c549350614955565b606b54606c5461494a908363ffffffff61535016565b8161495157fe5b0493505b607d5415806149695750606b54607d548201105b156149ad57600061271061498a607c54606c5461535090919063ffffffff16565b8161499157fe5b049050808511156149a65780850394506149ab565b600094505b505b505050919050565b6149bf8282614847565b15614a11576040805162461bcd60e51b815260206004820152601f60248201527f526f6c65733a206163636f756e7420616c72656164792068617320726f6c6500604482015290519081900360640190fd5b6001600160a01b0316600090815260209190915260409020805460ff19166001179055565b303b1590565b606980546001600160a01b0319166001600160a01b0383169081179091551580614aca57506000816001600160a01b03166318160ddd6040518163ffffffff1660e01b815260040160206040518083038186803b158015614a9c57600080fd5b505afa158015614ab0573d6000803e3d6000fd5b505050506040513d6020811015614ac657600080fd5b5051115b612966576040805162461bcd60e51b815260206004820152600d60248201526c24a72b20a624a22faa27a5a2a760991b604482015290519081900360640190fd5b6069805460ff60a01b1916600160a01b179055565b63bbf81e00831115614b79576040805162461bcd60e51b815260206004820152601860248201527f4d41585f45585049524154494f4e5f3130305f59454152530000000000000000604482015290519081900360640190fd5b606a8054336001600160a01b031991821617909155606f80549091166001600160a01b039590951694909417909355606b91909155606c55606d55565b614bbe6128b7565b8051614bd19060769060208401906157eb565b50612966635b5e139f60e01b614c38565b614bf263780e9d6360e01b614c38565b565b6103e8607c55565b614c058161324b565b6129665761296660668263ffffffff6149b516565b614c23816124f7565b6129665761296660678263ffffffff6149b516565b6001600160e01b03198082161415614c97576040805162461bcd60e51b815260206004820152601c60248201527f4552433136353a20696e76616c696420696e7465726661636520696400000000604482015290519081900360640190fd5b6001600160e01b0319166000908152603360205260409020805460ff19166001179055565b6001600160a01b03821660008181526072602090815260409182902080548351868152935191943394909391927f0a7068a9989857441c039a14a42b67ed71dd1fcfe5a9b17cc87b252e47bce528929181900390910190a44260018201558115614d3757606954614d37906001600160a01b03168484615303565b6071546001600160a01b031615611e16576071546040805163b499b6c560e01b81523360048201526001600160a01b038681166024830152604482018690529151919092169163b499b6c591606480830192600092919082900301818387803b158015614da357600080fd5b505af1158015612784573d6000803e3d6000fd5b6000813f7fc5d2460186f7233c927e7db2dcc703c0e500b653ca82273b7bfad8045d85a4708115801590613a025750141592915050565b604080517f19457468657265756d205369676e6564204d6573736167653a0a333200000000602080830191909152603c8083019490945282518083039094018452605c909101909152815191012090565b6000614e53846001600160a01b0316614db7565b614e5f57506001613a02565b604051630a85bd0160e11b815233600482018181526001600160a01b03888116602485015260448401879052608060648501908152865160848601528651600095928a169463150b7a029490938c938b938b939260a4019060208501908083838e5b83811015614ed9578181015183820152602001614ec1565b50505050905090810190601f168015614f065780820380516001836020036101000a031916815260200191505b5095505050505050602060405180830381600087803b158015614f2857600080fd5b505af1158015614f3c573d6000803e3d6000fd5b505050506040513d6020811015614f5257600080fd5b50516001600160e01b031916630a85bd0160e11b14915050949350505050565b604080518082018252601081526f181899199a1a9b1b9c1cb0b131b232b360811b60208201528151602a80825260608281019094526001600160a01b03851692918491602082018180388339019050509050600360fc1b81600081518110614fd657fe5b60200101906001600160f81b031916908160001a905350600f60fb1b81600181518110614fff57fe5b60200101906001600160f81b031916908160001a90535060005b60148110156150e5578260048583600c016020811061503457fe5b1a60f81b6001600160f81b031916901c60f81c60ff168151811061505457fe5b602001015160f81c60f81b82826002026002018151811061507157fe5b60200101906001600160f81b031916908160001a905350828482600c016020811061509857fe5b825191901a600f169081106150a957fe5b602001015160f81c60f81b8282600202600301815181106150c657fe5b60200101906001600160f81b031916908160001a905350600101615019565b50949350505050565b606081806151155750506040805180820190915260018152600360fc1b6020820152611494565b8260005b811561512d57600101600a82049150615119565b6060816040519080825280601f01601f19166020018201604052801561515a576020820181803883390190505b50905060001982015b84156151a857600a850660300160f81b8282806001900393508151811061518657fe5b60200101906001600160f81b031916908160001a905350600a85049450615163565b5095945050505050565b6060848484846040516020018085805190602001908083835b602083106151ea5780518252601f1990920191602091820191016151cb565b51815160209384036101000a600019018019909216911617905287519190930192870191508083835b602083106152325780518252601f199092019160209182019101615213565b51815160209384036101000a600019018019909216911617905286519190930192860191508083835b6020831061527a5780518252601f19909201916020918201910161525b565b51815160209384036101000a600019018019909216911617905285519190930192850191508083835b602083106152c25780518252601f1990920191602091820191016152a3565b6001836020036101000a0380198251168184511680821785525050505050509050019450505050506040516020818303038152906040529050949350505050565b8015611e16576001600160a01b038316615335576153306001600160a01b0383168263ffffffff6155a316565b611e16565b826136ab6001600160a01b038216848463ffffffff61568816565b60008261535f5750600061199a565b8282028284828161536c57fe5b0414611dbf5760405162461bcd60e51b81526004018080602001828103825260218152602001806159976021913960400191505060405180910390fd5b6000611dbf83836040518060400160405280601e81526020017f536166654d6174683a207375627472616374696f6e206f766572666c6f7700008152506156da565b6153fd826001600160a01b0316614db7565b61544e576040805162461bcd60e51b815260206004820152601f60248201527f5361666545524332303a2063616c6c20746f206e6f6e2d636f6e747261637400604482015290519081900360640190fd5b60006060836001600160a01b0316836040518082805190602001908083835b6020831061548c5780518252601f19909201916020918201910161546d565b6001836020036101000a0380198251168184511680821785525050505050509050019150506000604051808303816000865af19150503d80600081146154ee576040519150601f19603f3d011682016040523d82523d6000602084013e6154f3565b606091505b50915091508161554a576040805162461bcd60e51b815260206004820181905260248201527f5361666545524332303a206c6f772d6c6576656c2063616c6c206661696c6564604482015290519081900360640190fd5b8051156136ab5780806020019051602081101561556657600080fd5b50516136ab5760405162461bcd60e51b815260040180806020018281038252602a815260200180615a28602a913960400191505060405180910390fd5b804710156155f8576040805162461bcd60e51b815260206004820152601d60248201527f416464726573733a20696e73756666696369656e742062616c616e6365000000604482015290519081900360640190fd5b6040516000906001600160a01b0384169083908381818185875af1925050503d8060008114615643576040519150601f19603f3d011682016040523d82523d6000602084013e615648565b606091505b5050905080611e165760405162461bcd60e51b815260040180806020018281038252603a8152602001806158d4603a913960400191505060405180910390fd5b604080516001600160a01b038416602482015260448082018490528251808303909101815260649091019091526020810180516001600160e01b031663a9059cbb60e01b179052611e169084906153eb565b600081848411156157695760405162461bcd60e51b81526004018080602001828103825283818151815260200191508051906020019080838360005b8381101561572e578181015183820152602001615716565b50505050905090810190601f16801561575b5780820380516001836020036101000a031916815260200191505b509250505060405180910390fd5b505050900390565b828054600181600116156101000203166002900490600052602060002090601f016020900481019282601f106157b25782800160ff198235161785556157df565b828001600101855582156157df579182015b828111156157df5782358255916020019190600101906157c4565b506124f3929150615859565b828054600181600116156101000203166002900490600052602060002090601f016020900481019282601f1061582c57805160ff19168380011785556157df565b828001600101855582156157df579182015b828111156157df57825182559160200191906001019061583e565b6119b091905b808211156124f3576000815560010161585f56fe63616e63656c416e64526566756e64466f722861646472657373205f6b65794f776e6572294d6978696e4c6f636b4d616e616765723a2063616c6c657220646f6573206e6f74206861766520746865204c6f636b4d616e6167657220726f6c65416464726573733a20756e61626c6520746f2073656e642076616c75652c20726563697069656e74206d617920686176652072657665727465644f4e4c595f4b45595f4d414e414745525f4f525f415050524f564544000000004d6978696e4b65794772616e7465723a2063616c6c657220646f6573206e6f74206861766520746865204b65794772616e746572206f72204c6f636b4d616e6167657220726f6c65526f6c65733a206163636f756e7420646f6573206e6f74206861766520726f6c65536166654d6174683a206d756c7469706c69636174696f6e206f766572666c6f77526f6c65733a206163636f756e7420697320746865207a65726f2061646472657373436f6e747261637420696e7374616e63652068617320616c7265616479206265656e20696e697469616c697a6564ddf252ad1be2c89b69c2b068fc378daa952ba7f163c4a11628f55a4df523b3ef5361666545524332303a204552433230206f7065726174696f6e20646964206e6f742073756363656564a265627a7a7231582026f764166712e1e3c2d6574050ce91467e6e80eb5c97710a8cd8e5cf0e58cafa64736f6c63430005110032",
  "source": "pragma solidity 0.5.17;\n\n\nimport './interfaces/IPublicLock.sol';\nimport '@openzeppelin/upgrades/contracts/Initializable.sol';\nimport '@openzeppelin/contracts-ethereum-package/contracts/introspection/ERC165.sol';\nimport './mixins/MixinApproval.sol';\nimport './mixins/MixinDisable.sol';\nimport './mixins/MixinERC721Enumerable.sol';\nimport './mixins/MixinFunds.sol';\nimport './mixins/MixinGrantKeys.sol';\nimport './mixins/MixinKeys.sol';\nimport './mixins/MixinLockCore.sol';\nimport './mixins/MixinLockMetadata.sol';\nimport './mixins/MixinPurchase.sol';\nimport './mixins/MixinRefunds.sol';\nimport './mixins/MixinTransfer.sol';\nimport './mixins/MixinSignatures.sol';\nimport './mixins/MixinLockManagerRole.sol';\nimport './mixins/MixinKeyGranterRole.sol';\n\n\n/**\n * @title The Lock contract\n * @author Julien Genestoux (unlock-protocol.com)\n * @dev ERC165 allows our contract to be queried to determine whether it implements a given interface.\n * Every ERC-721 compliant contract must implement the ERC165 interface.\n * https://eips.ethereum.org/EIPS/eip-721\n */\ncontract PublicLock is\n  IPublicLock,\n  Initializable,\n  ERC165,\n  MixinLockManagerRole,\n  MixinKeyGranterRole,\n  MixinSignatures,\n  MixinFunds,\n  MixinDisable,\n  MixinLockCore,\n  MixinKeys,\n  MixinLockMetadata,\n  MixinERC721Enumerable,\n  MixinGrantKeys,\n  MixinPurchase,\n  MixinApproval,\n  MixinTransfer,\n  MixinRefunds\n{\n  function initialize(\n    address _lockCreator,\n    uint _expirationDuration,\n    address _tokenAddress,\n    uint _keyPrice,\n    uint _maxNumberOfKeys,\n    string memory _lockName\n  ) public\n    initializer()\n  {\n    MixinFunds._initializeMixinFunds(_tokenAddress);\n    MixinDisable._initializeMixinDisable();\n    MixinLockCore._initializeMixinLockCore(_lockCreator, _expirationDuration, _keyPrice, _maxNumberOfKeys);\n    MixinLockMetadata._initializeMixinLockMetadata(_lockName);\n    MixinERC721Enumerable._initializeMixinERC721Enumerable();\n    MixinRefunds._initializeMixinRefunds();\n    MixinLockManagerRole._initializeMixinLockManagerRole(_lockCreator);\n    MixinKeyGranterRole._initializeMixinKeyGranterRole(_lockCreator);\n    // registering the interface for erc721 with ERC165.sol using\n    // the ID specified in the standard: https://eips.ethereum.org/EIPS/eip-721\n    _registerInterface(0x80ac58cd);\n  }\n\n  /**\n   * @notice Allow the contract to accept tips in ETH sent directly to the contract.\n   * @dev This is okay to use even if the lock is priced in ERC-20 tokens\n   */\n  function() external payable {}\n}\n",
  "sourcePath": "/Users/overlord/DAPPS/unlock/smart-contracts/contracts/PublicLock.sol",
  "compiler": {
    "name": "solc",
    "version": "0.5.17+commit.d19bba13.Emscripten.clang"
  },
  "schemaVersion": "3.0.23",
  "updatedAt": "2020-03-25T02:32:42.552Z",
  "devdoc": {
    "author": "Julien Genestoux (unlock-protocol.com)",
    "details": "ERC165 allows our contract to be queried to determine whether it implements a given interface. Every ERC-721 compliant contract must implement the ERC165 interface. https://eips.ethereum.org/EIPS/eip-721",
    "methods": {
      "balanceOf(address)": {
        "return": "The number of NFTs owned by `_keyOwner`, either 0 or 1."
      },
      "cancelAndRefund(uint256)": {
        "details": "Destroys the key and sends a refund based on the amount of time remaining.",
        "params": {
          "_tokenId": "The id of the key to cancel."
        }
      },
      "cancelAndRefundFor(address,uint8,bytes32,bytes32,uint256)": {
        "details": "Cancels a key managed by a different user and sends the funds to the msg.sender.",
        "params": {
          "_keyManager": "the key managed by this user will be canceled",
          "_tokenId": "The key to cancel",
          "_v": "_r _s getCancelAndRefundApprovalHash signed by the _keyOwner"
        }
      },
      "disableLock()": {
        "details": "Used to disable lock before migrating keys and/or destroying contract"
      },
      "expireAndRefundFor(address,uint256)": {
        "details": "Invoked by the lock owner to destroy the user's ket and perform a refund and cancellation of the key"
      },
      "getApproved(uint256)": {
        "details": "Throws if `_tokenId` is not a valid NFT.",
        "params": {
          "_tokenId": "The NFT to find the approved address for"
        },
        "return": "The approved address for this NFT, or the zero address if there is none"
      },
      "getCancelAndRefundApprovalHash(address,address)": {
        "details": "this can be computed in JS instead of read from the contract.",
        "params": {
          "_keyManager": "The key manager's address (also the message signer)",
          "_txSender": "The address cancelling cancel on behalf of the keyOwner"
        },
        "return": "approvalHash The hash to sign"
      },
      "getCancelAndRefundValueFor(address)": {
        "details": "Determines how much of a refund a key owner would receive if they issued a cancelAndRefund block.timestamp. Note that due to the time required to mine a tx, the actual refund amount will be lower than what the user reads from this call."
      },
      "getOwnersByPage(uint256,uint256)": {
        "params": {
          "_page": "the page of key owners requested when faceted by page size",
          "_pageSize": "the number of Key Owners requested per page"
        }
      },
      "getTokenIdFor(address)": {
        "return": "The tokenId of the NFT, else returns 0"
      },
      "getTransferFee(address,uint256)": {
        "params": {
          "_keyOwner": "The owner of the key check the transfer fee for."
        }
      },
      "invalidateOffchainApproval(uint256)": {
        "details": "This can be used to invalidate a previously signed message."
      },
      "isApprovedForAll(address,address)": {
        "details": "Tells whether an operator is approved by a given keyManager",
        "params": {
          "_operator": "operator address which you want to query the approval of",
          "_owner": "owner address which you want to query the approval of"
        },
        "return": "bool whether the given operator is approved by the given owner"
      },
      "keyExpirationTimestampFor(address)": {
        "details": "Returns the key's ExpirationTimestamp field for a given owner.Returns 0 if the owner has never owned a key for this lock",
        "params": {
          "_keyOwner": "address of the user for whom we search the key"
        }
      },
      "purchase(uint256,address,address,bytes)": {
        "details": "Purchase functionSetting _value to keyPrice exactly doubles as a security feature. That way if the lock owner increases the price while my transaction is pending I can't be charged more than I expected (only applicable to ERC-20 when more than keyPrice is approved for spending).",
        "params": {
          "_data": "arbitrary data populated by the front-end which initiated the sale",
          "_recipient": "address of the recipient of the purchased key",
          "_referrer": "address of the user making the referral",
          "_value": "the number of tokens to pay for this purchase >= the current keyPrice - any applicable discount (_value is ignored when using ETH)"
        }
      },
      "purchasePriceFor(address,address,bytes)": {
        "details": "minKeyPrice considers any discount from Unlock or the OnKeyPurchase hook"
      },
      "safeTransferFrom(address,address,uint256)": {
        "details": "This works identically to the other function with an extra data parameter, except this function just sets data to ''",
        "params": {
          "_from": "The current owner of the NFT",
          "_to": "The new owner",
          "_tokenId": "The NFT to transfer"
        }
      },
      "safeTransferFrom(address,address,uint256,bytes)": {
        "params": {
          "_data": "Additional data with no specified format, sent in call to `_to`",
          "_from": "The current owner of the NFT",
          "_to": "The new owner",
          "_tokenId": "The NFT to transfer"
        }
      },
      "setApprovalForAll(address,bool)": {
        "details": "Sets or unsets the approval of a given operator An operator is allowed to transfer all tokens of the sender on their behalf",
        "params": {
          "_approved": "representing the status of the approval to be set",
          "_to": "operator address to set the approval"
        }
      },
      "setKeyManagerOf(uint256,address)": {
        "params": {
          "_keyManager": "The address with the manager's rights for the given key. Setting _keyManager to address(0) means the keyOwner is also the keyManager",
          "_tokenId": "The id of the key to assign rights for"
        }
      },
      "shareKey(address,uint256,uint256)": {
        "params": {
          "_timeShared": "The amount of time shared",
          "_to": "The recipient of the shared key",
          "_tokenId": "the key to share"
        }
      },
      "supportsInterface(bytes4)": {
        "details": "See {IERC165-supportsInterface}.     * Time complexity O(1), guaranteed to always use less than 30 000 gas."
      },
      "symbol()": {
        "details": "Gets the token symbol",
        "return": "string representing the token name"
      },
      "tokenByIndex(uint256)": {
        "details": "Throws if `_index` >= `totalSupply()`.",
        "params": {
          "_index": "A counter less than `totalSupply()`"
        },
        "return": "The token identifier for the `_index`th NFT,  (sort order not specified)"
      },
      "tokenOfOwnerByIndex(address,uint256)": {
        "details": "Throws if `_index` >= `balanceOf(_keyOwner)` or if  `_keyOwner` is the zero address, representing invalid NFTs.",
        "params": {
          "_index": "A counter less than `balanceOf(_keyOwner)`",
          "_keyOwner": "An address where we are interested in NFTs owned by them"
        },
        "return": "The token identifier for the `_index`th NFT assigned to `_keyOwner`,   (sort order not specified)"
      },
      "tokenURI(uint256)": {
        "details": "Throws if `_tokenId` is not a valid NFT. URIs are defined in RFC 3986. The URI may point to a JSON file that conforms to the \"ERC721 Metadata JSON Schema\". https://github.com/ethereum/EIPs/blob/master/EIPS/eip-721.md"
      },
      "withdraw(address,uint256)": {
        "details": "Called by owner to withdraw all funds from the lock and send them to the `beneficiary`.",
        "params": {
          "_amount": "specifies the max amount to withdraw, which may be reduced when considering the available balance. Set to 0 or MAX_UINT to withdraw everything.   * TODO: consider allowing anybody to trigger this as long as it goes to owner anyway? -- however be wary of draining funds as it breaks the `cancelAndRefund` and `expireAndRefundFor` use cases.",
          "_tokenAddress": "specifies the token address to withdraw or 0 for ETH. This is usually the same as `tokenAddress` in MixinFunds."
        }
      }
    },
    "title": "The Lock contract"
  },
  "userdoc": {
    "methods": {
      "approve(address,uint256)": {
        "notice": "This approves _approved to get ownership of _tokenId. Note: that since this is used for both purchase and transfer approvals the approved token may not exist."
      },
      "balanceOf(address)": {
        "notice": "In the specific case of a Lock, each owner can own only at most 1 key."
      },
      "getApproved(uint256)": {
        "notice": "Get the approved address for a single NFT"
      },
      "getBalance(address,address)": {
        "notice": "Gets the current balance of the account provided."
      },
      "getCancelAndRefundApprovalHash(address,address)": {
        "notice": "returns the hash to sign in order to allow another user to cancel on your behalf."
      },
      "getHasValidKey(address)": {
        "notice": "Checks if the user has a non-expired key."
      },
      "getOwnersByPage(uint256,uint256)": {
        "notice": "A function which returns a subset of the keys for this Lock as an array"
      },
      "getTokenIdFor(address)": {
        "notice": "Find the tokenId for a given user"
      },
      "getTransferFee(address,uint256)": {
        "notice": "Determines how much of a fee a key owner would need to pay in order to transfer the key to another account.  This is pro-rated so the fee goes down overtime."
      },
      "grantKeys(address[],uint256[],address[])": {
        "notice": "Allows the Lock owner to give a collection of users a key with no charge. Each key may be assigned a different expiration date."
      },
      "invalidateOffchainApproval(uint256)": {
        "notice": "Sets the minimum nonce for a valid off-chain approval message from the senders account."
      },
      "isKeyOwner(uint256,address)": {
        "notice": "Checks if the given address owns the given tokenId."
      },
      "numberOfOwners()": {
        "notice": "Public function which returns the total number of unique owners (both expired and valid).  This may be larger than totalSupply."
      },
      "purchasePriceFor(address,address,bytes)": {
        "notice": "returns the minimum price paid for a purchase with these params."
      },
      "safeTransferFrom(address,address,uint256)": {
        "notice": "Transfers the ownership of an NFT from one address to another address"
      },
      "safeTransferFrom(address,address,uint256,bytes)": {
        "notice": "Transfers the ownership of an NFT from one address to another address. When transfer is complete, this functions checks if `_to` is a smart contract (code size > 0). If so, it calls `onERC721Received` on `_to` and throws if the return value is not `bytes4(keccak256('onERC721Received(address,address,uint,bytes)'))`."
      },
      "setBaseTokenURI(string)": {
        "notice": "Allows the Lock owner to update the baseTokenURI for this Lock."
      },
      "setEventHooks(address,address)": {
        "notice": "Allows a lock manager to add or remove an event hook"
      },
      "setKeyManagerOf(uint256,address)": {
        "notice": "Update transfer and cancel rights for a given key"
      },
      "shareKey(address,uint256,uint256)": {
        "notice": "Allows the key owner to safely share their key (parent key) by transferring a portion of the remaining time to a new key (child key)."
      },
      "tokenByIndex(uint256)": {
        "notice": "Enumerate valid NFTs"
      },
      "tokenOfOwnerByIndex(address,uint256)": {
        "notice": "Enumerate NFTs assigned to an owner"
      },
      "tokenURI(uint256)": {
        "notice": "A distinct Uniform Resource Identifier (URI) for a given asset."
      },
      "updateBeneficiary(address)": {
        "notice": "A function which lets the owner of the lock update the beneficiary account, which receives funds on withdrawal."
      },
      "updateKeyPricing(uint256,address)": {
        "notice": "A function which lets the owner of the lock change the pricing for future purchases. This consists of 2 parts: The token address and the price in the given token. In order to set the token to ETH, use 0 for the token Address."
      },
      "updateLockName(string)": {
        "notice": "Allows the Lock owner to assign a descriptive name for this Lock."
      },
      "updateLockSymbol(string)": {
        "notice": "Allows the Lock owner to assign a Symbol for this Lock."
      },
      "updateRefundPenalty(uint256,uint256)": {
        "notice": "Allow the owner to change the refund penalty."
      },
      "updateTransferFee(uint256)": {
        "notice": "Allow the Lock owner to change the transfer fee."
      }
    }
  }
}