{
  "_format": "hh-sol-artifact-1",
  "contractName": "Kickback",
  "sourceName": "contracts/Kickback.flatten.sol",
  "abi": [
    {
      "anonymous": false,
      "inputs": [
        {
          "indexed": false,
          "internalType": "address",
          "name": "lockAddress",
          "type": "address"
        },
        {
          "indexed": false,
          "internalType": "address",
          "name": "recipient",
          "type": "address"
        },
        {
          "indexed": false,
          "internalType": "uint256",
          "name": "amount",
          "type": "uint256"
        }
      ],
      "name": "Refunded",
      "type": "event"
    },
    {
      "anonymous": false,
      "inputs": [
        {
          "indexed": false,
          "internalType": "address",
          "name": "lockAddress",
          "type": "address"
        },
        {
          "indexed": false,
          "internalType": "bytes32",
          "name": "root",
          "type": "bytes32"
        }
      ],
      "name": "RefundsApproved",
      "type": "event"
    },
    {
      "inputs": [
        {
          "internalType": "address",
          "name": "lockAddress",
          "type": "address"
        },
        {
          "internalType": "bytes32",
          "name": "root",
          "type": "bytes32"
        }
      ],
      "name": "approveRefunds",
      "outputs": [],
      "stateMutability": "nonpayable",
      "type": "function"
    },
    {
      "inputs": [
        {
          "internalType": "address",
          "name": "",
          "type": "address"
        },
        {
          "internalType": "address",
          "name": "",
          "type": "address"
        }
      ],
      "name": "issuedRefunds",
      "outputs": [
        {
          "internalType": "uint256",
          "name": "",
          "type": "uint256"
        }
      ],
      "stateMutability": "view",
      "type": "function"
    },
    {
      "inputs": [
        {
          "internalType": "address",
          "name": "lockAddress",
          "type": "address"
        },
        {
          "internalType": "bytes32[]",
          "name": "proof",
          "type": "bytes32[]"
        },
        {
          "internalType": "uint256",
          "name": "amount",
          "type": "uint256"
        }
      ],
      "name": "refund",
      "outputs": [],
      "stateMutability": "nonpayable",
      "type": "function"
    },
    {
      "inputs": [
        {
          "internalType": "address",
          "name": "",
          "type": "address"
        }
      ],
      "name": "roots",
      "outputs": [
        {
          "internalType": "bytes32",
          "name": "",
          "type": "bytes32"
        }
      ],
      "stateMutability": "view",
      "type": "function"
    }
  ],
  "bytecode": "0x608060405234801561000f575f80fd5b506107ca8061001d5f395ff3fe608060405234801561000f575f80fd5b506004361061004a575f3560e01c80631c5fa1a31461004e57806328abad1014610063578063a45468761461009c578063c19fc761146100bb575b5f80fd5b61006161005c366004610599565b6100ce565b005b61008a6100713660046105c3565b5f60208181529281526040808220909352908152205481565b60405190815260200160405180910390f35b61008a6100aa3660046105fa565b60016020525f908152604090205481565b6100616100c9366004610629565b6102c3565b60405163aae4b8f760e01b815230600482015282906001600160a01b0382169063aae4b8f790602401602060405180830381865afa158015610112573d5f803e3d5ffd5b505050506040513d601f19601f8201168201806040525081019061013691906106fe565b6101a25760405162461bcd60e51b815260206004820152603260248201527f41646420746865204b69636b6261636b20636f6e74726163742061732061206c60448201527137b1b59036b0b730b3b2b9103334b939ba1760711b60648201526084015b60405180910390fd5b60405163aae4b8f760e01b81523360048201526001600160a01b0382169063aae4b8f790602401602060405180830381865afa1580156101e4573d5f803e3d5ffd5b505050506040513d601f19601f8201168201806040525081019061020891906106fe565b61026b5760405162461bcd60e51b815260206004820152602e60248201527f596f75206d7573742062652061206c6f636b206d616e6167657220746f20617060448201526d383937bb32903932b33ab732399760911b6064820152608401610199565b6001600160a01b0383165f81815260016020908152604091829020859055815192835282018490527fb0117d7a8b88e9338cd83fcd7c508409cb5ee3c82616b32ab9e258ae2f12df54910160405180910390a1505050565b604080513360208201529081018290525f9060600160408051601f198184030181528282528051602091820120908301520160405160208183030381529060405280519060200120905061033b8360015f876001600160a01b03166001600160a01b031681526020019081526020015f2054836104f2565b6103775760405162461bcd60e51b815260206004820152600d60248201526c24b73b30b634b210383937b7b360991b6044820152606401610199565b6001600160a01b0384165f90815260208181526040808320338452909152902054156103dd5760405162461bcd60e51b81526020600482015260156024820152741499599d5b9908185b1c9958591e481a5cdcdd5959605a1b6044820152606401610199565b6001600160a01b0384165f8181526020818152604080832033845282529182902085905581516313aedd4b60e31b8152915187939263d9caed12928492639d76ea589260048082019392918290030181865afa15801561043f573d5f803e3d5ffd5b505050506040513d601f19601f82011682018060405250810190610463919061071d565b33866040518463ffffffff1660e01b815260040161048393929190610738565b5f604051808303815f87803b15801561049a575f80fd5b505af11580156104ac573d5f803e3d5ffd5b505050507fec1e5ed733e00f1a00915d56caef57b4f52312dde4f9b3165f213319a0da156b8533856040516104e393929190610738565b60405180910390a15050505050565b5f826104fe8584610507565b14949350505050565b5f81815b845181101561054b576105378286838151811061052a5761052a61075c565b6020026020010151610553565b91508061054381610770565b91505061050b565b509392505050565b5f81831061056d575f82815260208490526040902061057b565b5f8381526020839052604090205b9392505050565b6001600160a01b0381168114610596575f80fd5b50565b5f80604083850312156105aa575f80fd5b82356105b581610582565b946020939093013593505050565b5f80604083850312156105d4575f80fd5b82356105df81610582565b915060208301356105ef81610582565b809150509250929050565b5f6020828403121561060a575f80fd5b813561057b81610582565b634e487b7160e01b5f52604160045260245ffd5b5f805f6060848603121561063b575f80fd5b833561064681610582565b925060208481013567ffffffffffffffff80821115610663575f80fd5b818701915087601f830112610676575f80fd5b81358181111561068857610688610615565b8060051b604051601f19603f830116810181811085821117156106ad576106ad610615565b60405291825284820192508381018501918a8311156106ca575f80fd5b938501935b828510156106e8578435845293850193928501926106cf565b979a979950505050604095909501359450505050565b5f6020828403121561070e575f80fd5b8151801515811461057b575f80fd5b5f6020828403121561072d575f80fd5b815161057b81610582565b6001600160a01b039384168152919092166020820152604081019190915260600190565b634e487b7160e01b5f52603260045260245ffd5b5f6001820161078d57634e487b7160e01b5f52601160045260245ffd5b506001019056fea264697066735822122034447e0ff460d3af2f1ea6f20e2df6e75f3a15e825c23f3658a40159fa9daffb64736f6c63430008150033",
  "linkReferences": {},
  "deployedLinkReferences": {}
}