{
  "_format": "hh-sol-artifact-1",
  "contractName": "UniswapOracleV3",
  "sourceName": "contracts/utils/UniswapOracleV3.sol",
  "abi": [
    {
      "inputs": [
        {
          "internalType": "address",
          "name": "_factory",
          "type": "address"
        },
        {
          "internalType": "uint24",
          "name": "_fee",
          "type": "uint24"
        }
      ],
      "stateMutability": "nonpayable",
      "type": "constructor"
    },
    {
      "anonymous": false,
      "inputs": [
        {
          "indexed": false,
          "internalType": "address",
          "name": "token1",
          "type": "address"
        },
        {
          "indexed": false,
          "internalType": "address",
          "name": "token2",
          "type": "address"
        }
      ],
      "name": "PairAdded",
      "type": "event"
    },
    {
      "inputs": [],
      "name": "PERIOD",
      "outputs": [
        {
          "internalType": "uint256",
          "name": "",
          "type": "uint256"
        }
      ],
      "stateMutability": "view",
      "type": "function"
    },
    {
      "inputs": [
        {
          "internalType": "address",
          "name": "_tokenIn",
          "type": "address"
        },
        {
          "internalType": "uint256",
          "name": "_amountIn",
          "type": "uint256"
        },
        {
          "internalType": "address",
          "name": "_tokenOut",
          "type": "address"
        }
      ],
      "name": "consult",
      "outputs": [
        {
          "internalType": "uint256",
          "name": "quoteAmount",
          "type": "uint256"
        }
      ],
      "stateMutability": "view",
      "type": "function"
    },
    {
      "inputs": [],
      "name": "factory",
      "outputs": [
        {
          "internalType": "address",
          "name": "",
          "type": "address"
        }
      ],
      "stateMutability": "view",
      "type": "function"
    },
    {
      "inputs": [],
      "name": "fee",
      "outputs": [
        {
          "internalType": "uint24",
          "name": "",
          "type": "uint24"
        }
      ],
      "stateMutability": "view",
      "type": "function"
    },
    {
      "inputs": [
        {
          "internalType": "address",
          "name": "_tokenIn",
          "type": "address"
        },
        {
          "internalType": "address",
          "name": "_tokenOut",
          "type": "address"
        }
      ],
      "name": "update",
      "outputs": [],
      "stateMutability": "nonpayable",
      "type": "function"
    },
    {
      "inputs": [
        {
          "internalType": "address",
          "name": "_tokenIn",
          "type": "address"
        },
        {
          "internalType": "uint256",
          "name": "_amountIn",
          "type": "uint256"
        },
        {
          "internalType": "address",
          "name": "_tokenOut",
          "type": "address"
        }
      ],
      "name": "updateAndConsult",
      "outputs": [
        {
          "internalType": "uint256",
          "name": "_amountOut",
          "type": "uint256"
        }
      ],
      "stateMutability": "view",
      "type": "function"
    }
  ],
  "bytecode": "0x60c060405234801561001057600080fd5b50604051610be6380380610be68339818101604052604081101561003357600080fd5b508051602090910151606082901b6001600160601b03191660805260e881901b6001600160e81b03191660a0526001600160a01b039091169062ffffff16610b4e6100986000398061019752806102c3525080610166528061029b5250610b4e6000f3fe608060405234801561001057600080fd5b50600436106100625760003560e01c80638c86f1e414610067578063b4d1d795146100af578063c1e553e7146100b7578063c45a0155146100ed578063c640752d14610111578063ddca3f4314610141575b600080fd5b61009d6004803603606081101561007d57600080fd5b506001600160a01b03813581169160208101359160409091013516610161565b60408051918252519081900360200190f35b61009d61027e565b61009d600480360360608110156100cd57600080fd5b506001600160a01b03813581169160208101359160409091013516610284565b6100f5610299565b604080516001600160a01b039092168252519081900360200190f35b61013f6004803603604081101561012757600080fd5b506001600160a01b03813581169160200135166102bd565b005b6101496102c1565b6040805162ffffff9092168252519081900360200190f35b6000807f00000000000000000000000000000000000000000000000000000000000000006001600160a01b0316631698ee8286857f00000000000000000000000000000000000000000000000000000000000000006040518463ffffffff1660e01b815260040180846001600160a01b03168152602001836001600160a01b031681526020018262ffffff168152602001935050505060206040518083038186803b15801561020f57600080fd5b505afa158015610223573d6000803e3d6000fd5b505050506040513d602081101561023957600080fd5b505190506001600160a01b038116610255576000915050610277565b600061026382610e106102e5565b50905061027281868887610650565b925050505b9392505050565b610e1081565b6000610291848484610161565b949350505050565b7f000000000000000000000000000000000000000000000000000000000000000081565b5050565b7f000000000000000000000000000000000000000000000000000000000000000081565b60008063ffffffff8316610325576040805162461bcd60e51b8152602060048201526002602482015261042560f41b604482015290519081900360640190fd5b604080516002808252606082018352600092602083019080368337019050509050838160008151811061035457fe5b602002602001019063ffffffff16908163ffffffff168152505060008160018151811061037d57fe5b63ffffffff90921660209283029190910182015260405163883bdbfd60e01b81526004810182815283516024830152835160009384936001600160a01b038b169363883bdbfd9388939192839260449091019185820191028083838b5b838110156103f25781810151838201526020016103da565b505050509050019250505060006040518083038186803b15801561041557600080fd5b505afa158015610429573d6000803e3d6000fd5b505050506040513d6000823e601f3d908101601f19168201604090815281101561045257600080fd5b8101908080516040519392919084600160201b82111561047157600080fd5b90830190602082018581111561048657600080fd5b82518660208202830111600160201b821117156104a257600080fd5b82525081516020918201928201910280838360005b838110156104cf5781810151838201526020016104b7565b5050505090500160405260200180516040519392919084600160201b8211156104f757600080fd5b90830190602082018581111561050c57600080fd5b82518660208202830111600160201b8211171561052857600080fd5b82525081516020918201928201910280838360005b8381101561055557818101518382015260200161053d565b505050509050016040525050509150915060008260008151811061057557fe5b60200260200101518360018151811061058a57fe5b60200260200101510390506000826000815181106105a457fe5b6020026020010151836001815181106105b957fe5b60200260200101510390508763ffffffff168260060b816105d657fe5b05965060008260060b12801561060057508763ffffffff168260060b816105f957fe5b0760060b15155b1561060d57600019909601955b63ffffffff88166001600160a01b0302640100000000600160c01b03602083901b166001600160c01b0382168161064057fe5b0496505050505050509250929050565b60008061065c86610742565b90506001600160801b036001600160a01b038216116106cb576001600160a01b03808216800290848116908616106106ab576106a6600160c01b876001600160801b031683610a69565b6106c3565b6106c381876001600160801b0316600160c01b610a69565b925050610739565b60006106e56001600160a01b03831680600160401b610a69565b9050836001600160a01b0316856001600160a01b03161061071d57610718600160801b876001600160801b031683610a69565b610735565b61073581876001600160801b0316600160801b610a69565b9250505b50949350505050565b60008060008360020b12610759578260020b610761565b8260020b6000035b9050620d89e881111561079f576040805162461bcd60e51b81526020600482015260016024820152601560fa1b604482015290519081900360640190fd5b6000600182166107b357600160801b6107c5565b6ffffcb933bd6fad37aa2d162d1a5940015b6001600160881b0316905060028216156107ef576ffff97272373d413259a46990580e213a0260801c5b600482161561080e576ffff2e50f5f656932ef12357cf3c7fdcc0260801c5b600882161561082d576fffe5caca7e10e4e61c3624eaa0941cd00260801c5b601082161561084c576fffcb9843d60f6159c9db58835c9266440260801c5b602082161561086b576fff973b41fa98c081472e6896dfb254c00260801c5b604082161561088a576fff2ea16466c96a3843ec78b326b528610260801c5b60808216156108a9576ffe5dee046a99a2a811c461f1969c30530260801c5b6101008216156108c9576ffcbe86c7900a88aedcffc83b479aa3a40260801c5b6102008216156108e9576ff987a7253ac413176f2b074cf7815e540260801c5b610400821615610909576ff3392b0822b70005940c7a398e4b70f30260801c5b610800821615610929576fe7159475a2c29b7443b29c7fa6e889d90260801c5b611000821615610949576fd097f3bdfd2022b8845ad8f792aa58250260801c5b612000821615610969576fa9f746462d870fdf8a65dc1f90e061e50260801c5b614000821615610989576f70d869a156d2a1b890bb3df62baf32f70260801c5b6180008216156109a9576f31be135f97d08fd981231505542fcfa60260801c5b620100008216156109ca576f09aa508b5b7a84e1c677de54f3e99bc90260801c5b620200008216156109ea576e5d6af8dedb81196699c329225ee6040260801c5b62040000821615610a09576d2216e584f5fa1ea926041bedfe980260801c5b62080000821615610a26576b048a170391f7dc42444e8fa20260801c5b60008460020b1315610a41578060001981610a3d57fe5b0490505b600160201b810615610a54576001610a57565b60005b60ff16602082901c0192505050919050565b6000808060001985870986860292508281109083900303905080610a9f5760008411610a9457600080fd5b508290049050610277565b808411610aab57600080fd5b6000848688096000868103871696879004966002600389028118808a02820302808a02820302808a02820302808a02820302808a02820302808a0290910302918190038190046001018684119095039490940291909403929092049190911791909102915050939250505056fea26469706673582212200af4194ad6794c1b3e1e0e24c549b863c32277fd74b65a0633a580781cc0f48864736f6c63430007060033",
  "linkReferences": {},
  "deployedLinkReferences": {}
}