{
  "_format": "hh-sol-artifact-1",
  "contractName": "UniswapOracleV3",
  "sourceName": "contracts/UniswapOracleV3.flatten.sol",
  "abi": [
    {
      "inputs": [
        {
          "internalType": "address",
          "name": "_factory",
          "type": "address"
        }
      ],
      "stateMutability": "nonpayable",
      "type": "constructor"
    },
    {
      "anonymous": false,
      "inputs": [
        {
          "indexed": false,
          "internalType": "address",
          "name": "token1",
          "type": "address"
        },
        {
          "indexed": false,
          "internalType": "address",
          "name": "token2",
          "type": "address"
        }
      ],
      "name": "PairAdded",
      "type": "event"
    },
    {
      "inputs": [],
      "name": "PERIOD",
      "outputs": [
        {
          "internalType": "uint256",
          "name": "",
          "type": "uint256"
        }
      ],
      "stateMutability": "view",
      "type": "function"
    },
    {
      "inputs": [
        {
          "internalType": "address",
          "name": "_tokenIn",
          "type": "address"
        },
        {
          "internalType": "uint256",
          "name": "_amountIn",
          "type": "uint256"
        },
        {
          "internalType": "address",
          "name": "_tokenOut",
          "type": "address"
        }
      ],
      "name": "consult",
      "outputs": [
        {
          "internalType": "uint256",
          "name": "quoteAmount",
          "type": "uint256"
        }
      ],
      "stateMutability": "view",
      "type": "function"
    },
    {
      "inputs": [],
      "name": "factory",
      "outputs": [
        {
          "internalType": "address",
          "name": "",
          "type": "address"
        }
      ],
      "stateMutability": "view",
      "type": "function"
    },
    {
      "inputs": [
        {
          "internalType": "address",
          "name": "_tokenIn",
          "type": "address"
        },
        {
          "internalType": "address",
          "name": "_tokenOut",
          "type": "address"
        }
      ],
      "name": "update",
      "outputs": [],
      "stateMutability": "nonpayable",
      "type": "function"
    },
    {
      "inputs": [
        {
          "internalType": "address",
          "name": "_tokenIn",
          "type": "address"
        },
        {
          "internalType": "uint256",
          "name": "_amountIn",
          "type": "uint256"
        },
        {
          "internalType": "address",
          "name": "_tokenOut",
          "type": "address"
        }
      ],
      "name": "updateAndConsult",
      "outputs": [
        {
          "internalType": "uint256",
          "name": "_amountOut",
          "type": "uint256"
        }
      ],
      "stateMutability": "nonpayable",
      "type": "function"
    }
  ],
  "bytecode": "0x60a06040526000805462ffffff19166101f417905534801561002057600080fd5b50604051610d1c380380610d1c8339818101604052602081101561004357600080fd5b5051606081901b6001600160601b0319166080526001600160a01b0316610c9661008660003980610172528061024e52806102aa52806103695250610c966000f3fe608060405234801561001057600080fd5b50600436106100575760003560e01c80638c86f1e41461005c578063b4d1d795146100a4578063c1e553e7146100ac578063c45a0155146100e2578063c640752d14610106575b600080fd5b6100926004803603606081101561007257600080fd5b506001600160a01b03813581169160208101359160409091013516610136565b60408051918252519081900360200190f35b610092610227565b610092600480360360608110156100c257600080fd5b506001600160a01b0381358116916020810135916040909101351661022d565b6100ea61024c565b604080516001600160a01b039092168252519081900360200190f35b6101346004803603604081101561011c57600080fd5b506001600160a01b0381358116916020013516610270565b005b6000805460408051630b4c774160e11b81526001600160a01b038781166004830152858116602483015262ffffff9093166044820152905183927f00000000000000000000000000000000000000000000000000000000000000001691631698ee82916064808301926020929190829003018186803b1580156101b857600080fd5b505afa1580156101cc573d6000803e3d6000fd5b505050506040513d60208110156101e257600080fd5b505190506001600160a01b0381166101fe576000915050610220565b600061020c82610e1061042d565b50905061021b81868887610798565b925050505b9392505050565b610e1081565b60006102398483610270565b610244848484610136565b949350505050565b7f000000000000000000000000000000000000000000000000000000000000000081565b6000805460408051630b4c774160e11b81526001600160a01b038681166004830152858116602483015262ffffff909316604482015290517f000000000000000000000000000000000000000000000000000000000000000090921691631698ee8291606480820192602092909190829003018186803b1580156102f357600080fd5b505afa158015610307573d6000803e3d6000fd5b505050506040513d602081101561031d57600080fd5b505190506001600160a01b0381166103e357600080546040805163a167129560e01b81526001600160a01b038781166004830152868116602483015262ffffff909316604482015290517f00000000000000000000000000000000000000000000000000000000000000009092169263a1671295926064808401936020939083900390910190829087803b1580156103b457600080fd5b505af11580156103c8573d6000803e3d6000fd5b505050506040513d60208110156103de57600080fd5b505190505b604080516001600160a01b0380861682528416602082015281517fc26cc79589f7c5b1fb18650002371abf239e6083ab356e4179c11da5185611ec929181900390910190a1505050565b60008063ffffffff831661046d576040805162461bcd60e51b8152602060048201526002602482015261042560f41b604482015290519081900360640190fd5b604080516002808252606082018352600092602083019080368337019050509050838160008151811061049c57fe5b602002602001019063ffffffff16908163ffffffff16815250506000816001815181106104c557fe5b63ffffffff90921660209283029190910182015260405163883bdbfd60e01b81526004810182815283516024830152835160009384936001600160a01b038b169363883bdbfd9388939192839260449091019185820191028083838b5b8381101561053a578181015183820152602001610522565b505050509050019250505060006040518083038186803b15801561055d57600080fd5b505afa158015610571573d6000803e3d6000fd5b505050506040513d6000823e601f3d908101601f19168201604090815281101561059a57600080fd5b8101908080516040519392919084600160201b8211156105b957600080fd5b9083019060208201858111156105ce57600080fd5b82518660208202830111600160201b821117156105ea57600080fd5b82525081516020918201928201910280838360005b838110156106175781810151838201526020016105ff565b5050505090500160405260200180516040519392919084600160201b82111561063f57600080fd5b90830190602082018581111561065457600080fd5b82518660208202830111600160201b8211171561067057600080fd5b82525081516020918201928201910280838360005b8381101561069d578181015183820152602001610685565b50505050905001604052505050915091506000826000815181106106bd57fe5b6020026020010151836001815181106106d257fe5b60200260200101510390506000826000815181106106ec57fe5b60200260200101518360018151811061070157fe5b60200260200101510390508763ffffffff168260060b8161071e57fe5b05965060008260060b12801561074857508763ffffffff168260060b8161074157fe5b0760060b15155b1561075557600019909601955b63ffffffff88166001600160a01b0302640100000000600160c01b03602083901b166001600160c01b0382168161078857fe5b0496505050505050509250929050565b6000806107a48661088a565b90506001600160801b036001600160a01b03821611610813576001600160a01b03808216800290848116908616106107f3576107ee600160c01b876001600160801b031683610bb1565b61080b565b61080b81876001600160801b0316600160c01b610bb1565b925050610881565b600061082d6001600160a01b03831680600160401b610bb1565b9050836001600160a01b0316856001600160a01b03161061086557610860600160801b876001600160801b031683610bb1565b61087d565b61087d81876001600160801b0316600160801b610bb1565b9250505b50949350505050565b60008060008360020b126108a1578260020b6108a9565b8260020b6000035b9050620d89e88111156108e7576040805162461bcd60e51b81526020600482015260016024820152601560fa1b604482015290519081900360640190fd5b6000600182166108fb57600160801b61090d565b6ffffcb933bd6fad37aa2d162d1a5940015b6001600160881b031690506002821615610937576ffff97272373d413259a46990580e213a0260801c5b6004821615610956576ffff2e50f5f656932ef12357cf3c7fdcc0260801c5b6008821615610975576fffe5caca7e10e4e61c3624eaa0941cd00260801c5b6010821615610994576fffcb9843d60f6159c9db58835c9266440260801c5b60208216156109b3576fff973b41fa98c081472e6896dfb254c00260801c5b60408216156109d2576fff2ea16466c96a3843ec78b326b528610260801c5b60808216156109f1576ffe5dee046a99a2a811c461f1969c30530260801c5b610100821615610a11576ffcbe86c7900a88aedcffc83b479aa3a40260801c5b610200821615610a31576ff987a7253ac413176f2b074cf7815e540260801c5b610400821615610a51576ff3392b0822b70005940c7a398e4b70f30260801c5b610800821615610a71576fe7159475a2c29b7443b29c7fa6e889d90260801c5b611000821615610a91576fd097f3bdfd2022b8845ad8f792aa58250260801c5b612000821615610ab1576fa9f746462d870fdf8a65dc1f90e061e50260801c5b614000821615610ad1576f70d869a156d2a1b890bb3df62baf32f70260801c5b618000821615610af1576f31be135f97d08fd981231505542fcfa60260801c5b62010000821615610b12576f09aa508b5b7a84e1c677de54f3e99bc90260801c5b62020000821615610b32576e5d6af8dedb81196699c329225ee6040260801c5b62040000821615610b51576d2216e584f5fa1ea926041bedfe980260801c5b62080000821615610b6e576b048a170391f7dc42444e8fa20260801c5b60008460020b1315610b89578060001981610b8557fe5b0490505b600160201b810615610b9c576001610b9f565b60005b60ff16602082901c0192505050919050565b6000808060001985870986860292508281109083900303905080610be75760008411610bdc57600080fd5b508290049050610220565b808411610bf357600080fd5b6000848688096000868103871696879004966002600389028118808a02820302808a02820302808a02820302808a02820302808a02820302808a0290910302918190038190046001018684119095039490940291909403929092049190911791909102915050939250505056fea2646970667358221220b40f9b46b3efac49bfcb46c5bc2656dd4bd2c84de22642ce7666c1674ed43f7464736f6c63430007060033",
  "linkReferences": {},
  "deployedLinkReferences": {}
}