{
  "_format": "hh-sol-artifact-1",
  "contractName": "UnlockSwapBurner",
  "sourceName": "contracts/utils/UnlockSwapBurner.sol",
  "abi": [
    {
      "inputs": [
        {
          "internalType": "address",
          "name": "_unlockAddress",
          "type": "address"
        },
        {
          "internalType": "address",
          "name": "_permit2Address",
          "type": "address"
        },
        {
          "internalType": "address",
          "name": "_uniswapUniversalRouter",
          "type": "address"
        }
      ],
      "stateMutability": "nonpayable",
      "type": "constructor"
    },
    {
      "inputs": [
        {
          "internalType": "address",
          "name": "uniswapUniversalRouter",
          "type": "address"
        },
        {
          "internalType": "address",
          "name": "tokenIn",
          "type": "address"
        },
        {
          "internalType": "uint256",
          "name": "amount",
          "type": "uint256"
        }
      ],
      "name": "UDTSwapFailed",
      "type": "error"
    },
    {
      "inputs": [],
      "name": "UnauthorizedSwap",
      "type": "error"
    },
    {
      "inputs": [],
      "name": "UnsafeCast",
      "type": "error"
    },
    {
      "anonymous": false,
      "inputs": [
        {
          "indexed": false,
          "internalType": "address",
          "name": "tokenAddress",
          "type": "address"
        },
        {
          "indexed": false,
          "internalType": "uint256",
          "name": "amountSpent",
          "type": "uint256"
        },
        {
          "indexed": false,
          "internalType": "uint256",
          "name": "amountBurnt",
          "type": "uint256"
        }
      ],
      "name": "SwapBurn",
      "type": "event"
    },
    {
      "inputs": [],
      "name": "burnAddress",
      "outputs": [
        {
          "internalType": "address",
          "name": "",
          "type": "address"
        }
      ],
      "stateMutability": "view",
      "type": "function"
    },
    {
      "inputs": [],
      "name": "permit2",
      "outputs": [
        {
          "internalType": "address",
          "name": "",
          "type": "address"
        }
      ],
      "stateMutability": "view",
      "type": "function"
    },
    {
      "inputs": [
        {
          "internalType": "address",
          "name": "tokenAddress",
          "type": "address"
        },
        {
          "internalType": "uint24",
          "name": "poolFee",
          "type": "uint24"
        }
      ],
      "name": "swapAndBurn",
      "outputs": [
        {
          "internalType": "uint256",
          "name": "amount",
          "type": "uint256"
        }
      ],
      "stateMutability": "payable",
      "type": "function"
    },
    {
      "inputs": [],
      "name": "uniswapUniversalRouter",
      "outputs": [
        {
          "internalType": "address",
          "name": "",
          "type": "address"
        }
      ],
      "stateMutability": "view",
      "type": "function"
    },
    {
      "inputs": [],
      "name": "unlockAddress",
      "outputs": [
        {
          "internalType": "address",
          "name": "",
          "type": "address"
        }
      ],
      "stateMutability": "view",
      "type": "function"
    },
    {
      "stateMutability": "payable",
      "type": "receive"
    }
  ],
  "bytecode": "0x608060405234801561000f575f80fd5b50604051610c08380380610c0883398101604081905261002e9161008a565b5f80546001600160a01b039485166001600160a01b0319918216179091556001805493851693821693909317909255600280549190931691161790556100ca565b80516001600160a01b0381168114610085575f80fd5b919050565b5f805f6060848603121561009c575f80fd5b6100a58461006f565b92506100b36020850161006f565b91506100c16040850161006f565b90509250925092565b610b31806100d75f395ff3fe60806040526004361061004c575f3560e01c806312261ee7146100575780632ef8e1671461009357806370d5ae05146100b4578063a5c414a6146100c9578063b30929cd146100e8575f80fd5b3661005357005b5f80fd5b348015610062575f80fd5b50600154610076906001600160a01b031681565b6040516001600160a01b0390911681526020015b60405180910390f35b6100a66100a136600461086d565b610106565b60405190815260200161008a565b3480156100bf575f80fd5b5061007661dead81565b3480156100d4575f80fd5b50600254610076906001600160a01b031681565b3480156100f3575f80fd5b505f54610076906001600160a01b031681565b5f80546040805163262d0a8560e01b8152905183926001600160a01b03169163262d0a859160048083019260209291908290030181865afa15801561014d573d5f803e3d5ffd5b505050506040513d601f19601f8201168201806040525081019061017191906108ab565b90505f805f9054906101000a90046001600160a01b03166001600160a01b0316633fc8cef36040518163ffffffff1660e01b8152600401602060405180830381865afa1580156101c3573d5f803e3d5ffd5b505050506040513d601f19601f820116820180604052508101906101e791906108ab565b90505f6101f3866106a2565b90505f6101ff846106a2565b9050836001600160a01b0316876001600160a01b0316036102335760405163aa3cc2ad60e01b815260040160405180910390fd5b6001600160a01b0387166102a057826001600160a01b031663d0e30db0836040518263ffffffff1660e01b81526004015f604051808303818588803b15801561027a575f80fd5b505af115801561028c573d5f803e3d5ffd5b505050505082965061029d876106a2565b91505b6001600160a01b0387161561033d576002546102c79088906001600160a01b031684610724565b60015460405163095ea7b360e01b81526001600160a01b038981169263095ea7b3926102fb929091169086906004016108cd565b6020604051808303815f875af1158015610317573d5f803e3d5ffd5b505050506040513d601f19601f8201168201806040525081019061033b91906108e6565b505b6001546002546001600160a01b03918216916387517c45918a911661036186610829565b61036c42603c610919565b6040516001600160e01b031960e087901b1681526001600160a01b03948516600482015292841660248401529216604482015265ffffffffffff90911660648201526084015f604051808303815f87803b1580156103c8575f80fd5b505af11580156103da573d5f803e3d5ffd5b5050604080516001600160601b0319606088811b8216602084015261017760eb1b603484015289901b1660378201528151808203602b018152604b820183525f606b83018190528351808403604c0181526001606c850181815260ac860190965292965094509291608c015b606081526020019060019003908161044657905050905030855f886001600160a01b03168d6001600160a01b0316146104a2578c8c8760405160200161048e9392919061094e565b6040516020818303038152906040526104a4565b855b60016040516020016104ba9594939291906109c2565b604051602081830303815290604052815f815181106104db576104db610a05565b60209081029190910101526002546001600160a01b0316633593564c838361050442603c610919565b6040518463ffffffff1660e01b815260040161052293929190610a19565b5f604051808303815f87803b158015610539575f80fd5b505af115801561054b573d5f803e3d5ffd5b505050505f8461055a896106a2565b6105649190610a92565b9050805f036105a05760025460405163fa0392e960e01b8152610597916001600160a01b0316908d908990600401610aa5565b60405180910390fd5b60405163a9059cbb60e01b81525f906001600160a01b038a169063a9059cbb906105d29061dead9086906004016108cd565b6020604051808303815f875af11580156105ee573d5f803e3d5ffd5b505050506040513d601f19601f8201168201806040525081019061061291906108e6565b90508015155f036106475760025460405163fa0392e960e01b8152610597916001600160a01b0316908e908a90600401610aa5565b604080516001600160a01b038e168152602081018990529081018390527fffc421788049cd9552ceb1be68395519e4a86c07e24ff133db48d1b16a2f9df09060600160405180910390a1509750505050505050505b92915050565b5f6001600160a01b0382161561071d576040516370a0823160e01b81523060048201526001600160a01b038316906370a0823190602401602060405180830381865afa1580156106f4573d5f803e3d5ffd5b505050506040513d601f19601f820116820180604052508101906107189190610ac9565b61069c565b4792915050565b5f80846001600160a01b031663095ea7b360e01b858560405160240161074b9291906108cd565b60408051601f198184030181529181526020820180516001600160e01b03166001600160e01b03199094169390931790925290516107899190610ae0565b5f604051808303815f865af19150503d805f81146107c2576040519150601f19603f3d011682016040523d82523d5f602084013e6107c7565b606091505b50915091508180156107f15750805115806107f15750808060200190518101906107f191906108e6565b6108225760405162461bcd60e51b8152602060048201526002602482015261534160f01b6044820152606401610597565b5050505050565b5f6001600160a01b038211156108525760405163c4bd89a960e01b815260040160405180910390fd5b5090565b6001600160a01b038116811461086a575f80fd5b50565b5f806040838503121561087e575f80fd5b823561088981610856565b9150602083013562ffffff811681146108a0575f80fd5b809150509250929050565b5f602082840312156108bb575f80fd5b81516108c681610856565b9392505050565b6001600160a01b03929092168252602082015260400190565b5f602082840312156108f6575f80fd5b815180151581146108c6575f80fd5b634e487b7160e01b5f52601160045260245ffd5b8082018082111561069c5761069c610905565b5f5b8381101561094657818101518382015260200161092e565b50505f910152565b606084901b6001600160601b031916815260e883901b6001600160e81b031916601482015281515f9061098881601785016020870161092c565b91909101601701949350505050565b5f81518084526109ae81602086016020860161092c565b601f01601f19169290920160200192915050565b60018060a01b038616815284602082015260ff8416604082015260a060608201525f6109f160a0830185610997565b905082151560808301529695505050505050565b634e487b7160e01b5f52603260045260245ffd5b606081525f610a2b6060830186610997565b6020838203818501528186518084528284019150828160051b8501018389015f5b83811015610a7a57601f19878403018552610a68838351610997565b94860194925090850190600101610a4c565b50508095505050505050826040830152949350505050565b8181038181111561069c5761069c610905565b6001600160a01b039384168152919092166020820152604081019190915260600190565b5f60208284031215610ad9575f80fd5b5051919050565b5f8251610af181846020870161092c565b919091019291505056fea2646970667358221220b554c63c34198c2f944b927623b53e2e5591a1346669c64f98194f9a024665cd64736f6c63430008150033",
  "linkReferences": {},
  "deployedLinkReferences": {}
}