{
  "_format": "hh-sol-artifact-1",
  "contractName": "UnlockSwapPurchaser",
  "sourceName": "contracts/utils/UnlockSwapPurchaser.sol",
  "abi": [
    {
      "inputs": [
        {
          "internalType": "address",
          "name": "_unlockAddress",
          "type": "address"
        },
        {
          "internalType": "address",
          "name": "_permit2Address",
          "type": "address"
        },
        {
          "internalType": "address[]",
          "name": "_uniswapRouters",
          "type": "address[]"
        }
      ],
      "stateMutability": "nonpayable",
      "type": "constructor"
    },
    {
      "inputs": [],
      "name": "InsufficientBalance",
      "type": "error"
    },
    {
      "inputs": [],
      "name": "LockCallFailed",
      "type": "error"
    },
    {
      "inputs": [
        {
          "internalType": "address",
          "name": "lockAddress",
          "type": "address"
        }
      ],
      "name": "LockDoesntExist",
      "type": "error"
    },
    {
      "inputs": [
        {
          "internalType": "address",
          "name": "uniswapRouter",
          "type": "address"
        },
        {
          "internalType": "address",
          "name": "tokenIn",
          "type": "address"
        },
        {
          "internalType": "address",
          "name": "tokenOut",
          "type": "address"
        },
        {
          "internalType": "uint256",
          "name": "amountInMax",
          "type": "uint256"
        },
        {
          "internalType": "bytes",
          "name": "callData",
          "type": "bytes"
        }
      ],
      "name": "SwapFailed",
      "type": "error"
    },
    {
      "inputs": [],
      "name": "UnauthorizedBalanceChange",
      "type": "error"
    },
    {
      "inputs": [
        {
          "internalType": "address",
          "name": "routerAddress",
          "type": "address"
        }
      ],
      "name": "UnautorizedRouter",
      "type": "error"
    },
    {
      "inputs": [],
      "name": "UnsafeCast",
      "type": "error"
    },
    {
      "inputs": [],
      "name": "WithdrawFailed",
      "type": "error"
    },
    {
      "anonymous": false,
      "inputs": [
        {
          "indexed": false,
          "internalType": "address",
          "name": "lock",
          "type": "address"
        },
        {
          "indexed": false,
          "internalType": "address",
          "name": "tokenAddress",
          "type": "address"
        },
        {
          "indexed": false,
          "internalType": "uint256",
          "name": "amountSpent",
          "type": "uint256"
        }
      ],
      "name": "SwapCall",
      "type": "event"
    },
    {
      "inputs": [],
      "name": "permit2",
      "outputs": [
        {
          "internalType": "address",
          "name": "",
          "type": "address"
        }
      ],
      "stateMutability": "view",
      "type": "function"
    },
    {
      "inputs": [
        {
          "internalType": "address",
          "name": "lock",
          "type": "address"
        },
        {
          "internalType": "address",
          "name": "srcToken",
          "type": "address"
        },
        {
          "internalType": "uint256",
          "name": "amountInMax",
          "type": "uint256"
        },
        {
          "internalType": "address",
          "name": "uniswapRouter",
          "type": "address"
        },
        {
          "internalType": "bytes",
          "name": "swapCalldata",
          "type": "bytes"
        },
        {
          "internalType": "bytes",
          "name": "callData",
          "type": "bytes"
        }
      ],
      "name": "swapAndCall",
      "outputs": [
        {
          "internalType": "bytes",
          "name": "",
          "type": "bytes"
        }
      ],
      "stateMutability": "payable",
      "type": "function"
    },
    {
      "inputs": [],
      "name": "unlockAddress",
      "outputs": [
        {
          "internalType": "address",
          "name": "",
          "type": "address"
        }
      ],
      "stateMutability": "view",
      "type": "function"
    },
    {
      "inputs": [
        {
          "internalType": "address",
          "name": "tokenAddress",
          "type": "address"
        }
      ],
      "name": "withdrawToUnlock",
      "outputs": [],
      "stateMutability": "nonpayable",
      "type": "function"
    },
    {
      "stateMutability": "payable",
      "type": "receive"
    }
  ],
  "bytecode": "0x608060405234801562000010575f80fd5b50604051620010a9380380620010a9833981016040819052620000339162000103565b5f80546001600160a01b038086166001600160a01b031992831617835560018054918616919092161790555b8151811015620000c957600160025f848481518110620000835762000083620001f7565b6020908102919091018101516001600160a01b031682528101919091526040015f20805460ff191691151591909117905580620000c0816200020b565b9150506200005f565b5050505062000230565b80516001600160a01b0381168114620000ea575f80fd5b919050565b634e487b7160e01b5f52604160045260245ffd5b5f805f6060848603121562000116575f80fd5b6200012184620000d3565b9250602062000132818601620000d3565b60408601519093506001600160401b03808211156200014f575f80fd5b818701915087601f83011262000163575f80fd5b815181811115620001785762000178620000ef565b8060051b604051601f19603f83011681018181108582111715620001a057620001a0620000ef565b60405291825284820192508381018501918a831115620001be575f80fd5b938501935b82851015620001e757620001d785620000d3565b84529385019392850192620001c3565b8096505050505050509250925092565b634e487b7160e01b5f52603260045260245ffd5b5f600182016200022957634e487b7160e01b5f52601160045260245ffd5b5060010190565b610e6b806200023e5f395ff3fe608060405260043610610041575f3560e01c806302837f7b1461004c57806312261ee71461006d5780635e8f4502146100a2578063b30929cd146100c2575f80fd5b3661004857005b5f80fd5b348015610057575f80fd5b5061006b610066366004610b21565b6100e0565b005b348015610078575f80fd5b5060015461008c906001600160a01b031681565b6040516100999190610b43565b60405180910390f35b6100b56100b0366004610bf4565b6101e9565b6040516100999190610cdf565b3480156100cd575f80fd5b505f5461008c906001600160a01b031681565b5f6100ea8261084b565b90506001600160a01b03821615610173575f5460405163a9059cbb60e01b81526001600160a01b038481169263a9059cbb9261012e92909116908590600401610cf1565b6020604051808303815f875af115801561014a573d5f803e3d5ffd5b505050506040513d601f19601f8201168201806040525081019061016e9190610d1e565b505050565b5f80546040516001600160a01b039091169083908381818185875af1925050503d805f81146101bd576040519150601f19603f3d011682016040523d82523d5f602084013e6101c2565b606091505b50909150508015155f0361016e57604051631d42c86760e21b815260040160405180910390fd5b5f8054604051635de9a13760e01b8152606092916001600160a01b031690635de9a1379061021b908b90600401610b43565b606060405180830381865afa158015610236573d5f803e3d5ffd5b505050506040513d601f19601f8201168201806040525081019061025a9190610d37565b50509050806102875787604051637421631960e11b815260040161027e9190610b43565b60405180910390fd5b6001600160a01b0385165f9081526002602052604090205460ff1615156001146102c6578460405163f2f52fc960e01b815260040161027e9190610b43565b5f886001600160a01b0316639d76ea586040518163ffffffff1660e01b8152600401602060405180830381865afa158015610303573d5f803e3d5ffd5b505050506040513d601f19601f820116820180604052508101906103279190610d69565b90505f6001600160a01b03821615610347576103428261084b565b61035b565b346103518361084b565b61035b9190610d98565b90505f6001600160a01b038a161561037b576103768a61084b565b61038f565b346103858b61084b565b61038f9190610d98565b90506001600160a01b038a161561042d576103ac8a33308c6108d3565b6103b78a898b6109d8565b60015460405163095ea7b360e01b81526001600160a01b038c81169263095ea7b3926103eb92909116908d90600401610cf1565b6020604051808303815f875af1158015610407573d5f803e3d5ffd5b505050506040513d601f19601f8201168201806040525081019061042b9190610d1e565b505b6001546001600160a01b03166387517c458b8a6104498d610add565b61045442603c610dab565b6040516001600160e01b031960e087901b1681526001600160a01b03948516600482015292841660248401529216604482015265ffffffffffff90911660648201526084015f604051808303815f87803b1580156104b0575f80fd5b505af11580156104c2573d5f803e3d5ffd5b505f9250506001600160a01b03808b1691508c16156104e1575f6104e3565b345b896040516104f19190610dbe565b5f6040518083038185875af1925050503d805f811461052b576040519150601f19603f3d011682016040523d82523d5f602084013e610530565b606091505b50909150508015155f0361056157888b858c8b604051637bd486e960e11b815260040161027e959493929190610dd9565b8b6001600160a01b03166310e569736040518163ffffffff1660e01b8152600401602060405180830381865afa15801561059d573d5f803e3d5ffd5b505050506040513d601f19601f820116820180604052508101906105c19190610e1e565b6105cb9084610dab565b6001600160a01b038516156105e8576105e38561084b565b6105fc565b346105f28661084b565b6105fc9190610d98565b101561061b57604051631e9acf1760e31b815260040160405180910390fd5b6001600160a01b038416156106f957836001600160a01b031663095ea7b38d8e6001600160a01b03166310e569736040518163ffffffff1660e01b8152600401602060405180830381865afa158015610676573d5f803e3d5ffd5b505050506040513d601f19601f8201168201806040525081019061069a9190610e1e565b6040518363ffffffff1660e01b81526004016106b7929190610cf1565b6020604051808303815f875af11580156106d3573d5f803e3d5ffd5b505050506040513d601f19601f820116820180604052508101906106f79190610d1e565b505b5f806001600160a01b03808f1690871615610714575f610774565b8e6001600160a01b03166310e569736040518163ffffffff1660e01b8152600401602060405180830381865afa158015610750573d5f803e3d5ffd5b505050506040513d601f19601f820116820180604052508101906107749190610e1e565b8a6040516107829190610dbe565b5f6040518083038185875af1925050503d805f81146107bc576040519150601f19603f3d011682016040523d82523d5f602084013e6107c1565b606091505b5090925090508115155f036107e957604051637772507160e11b815260040160405180910390fd5b5f846107f48f61084b565b6107fe9190610d98565b108061081c57505f856108108861084b565b61081a9190610d98565b105b1561083a5760405163392032cb60e21b815260040160405180910390fd5b9d9c50505050505050505050505050565b5f6001600160a01b038216156108cb576040516370a0823160e01b81526001600160a01b038316906370a0823190610887903090600401610b43565b602060405180830381865afa1580156108a2573d5f803e3d5ffd5b505050506040513d601f19601f820116820180604052508101906108c69190610e1e565b6108cd565b475b92915050565b604080516001600160a01b0385811660248301528481166044830152606480830185905283518084039091018152608490920183526020820180516001600160e01b03166323b872dd60e01b17905291515f928392908816916109369190610dbe565b5f604051808303815f865af19150503d805f811461096f576040519150601f19603f3d011682016040523d82523d5f602084013e610974565b606091505b509150915081801561099e57508051158061099e57508080602001905181019061099e9190610d1e565b6109d05760405162461bcd60e51b815260206004820152600360248201526229aa2360e91b604482015260640161027e565b505050505050565b5f80846001600160a01b031663095ea7b360e01b85856040516024016109ff929190610cf1565b60408051601f198184030181529181526020820180516001600160e01b03166001600160e01b0319909416939093179092529051610a3d9190610dbe565b5f604051808303815f865af19150503d805f8114610a76576040519150601f19603f3d011682016040523d82523d5f602084013e610a7b565b606091505b5091509150818015610aa5575080511580610aa5575080806020019051810190610aa59190610d1e565b610ad65760405162461bcd60e51b8152602060048201526002602482015261534160f01b604482015260640161027e565b5050505050565b5f6001600160a01b03821115610b065760405163c4bd89a960e01b815260040160405180910390fd5b5090565b6001600160a01b0381168114610b1e575f80fd5b50565b5f60208284031215610b31575f80fd5b8135610b3c81610b0a565b9392505050565b6001600160a01b0391909116815260200190565b634e487b7160e01b5f52604160045260245ffd5b5f82601f830112610b7a575f80fd5b813567ffffffffffffffff80821115610b9557610b95610b57565b604051601f8301601f19908116603f01168101908282118183101715610bbd57610bbd610b57565b81604052838152866020858801011115610bd5575f80fd5b836020870160208301375f602085830101528094505050505092915050565b5f805f805f8060c08789031215610c09575f80fd5b8635610c1481610b0a565b95506020870135610c2481610b0a565b9450604087013593506060870135610c3b81610b0a565b9250608087013567ffffffffffffffff80821115610c57575f80fd5b610c638a838b01610b6b565b935060a0890135915080821115610c78575f80fd5b50610c8589828a01610b6b565b9150509295509295509295565b5f5b83811015610cac578181015183820152602001610c94565b50505f910152565b5f8151808452610ccb816020860160208601610c92565b601f01601f19169290920160200192915050565b602081525f610b3c6020830184610cb4565b6001600160a01b03929092168252602082015260400190565b80518015158114610d19575f80fd5b919050565b5f60208284031215610d2e575f80fd5b610b3c82610d0a565b5f805f60608486031215610d49575f80fd5b610d5284610d0a565b925060208401519150604084015190509250925092565b5f60208284031215610d79575f80fd5b8151610b3c81610b0a565b634e487b7160e01b5f52601160045260245ffd5b818103818111156108cd576108cd610d84565b808201808211156108cd576108cd610d84565b5f8251610dcf818460208701610c92565b9190910192915050565b6001600160a01b0386811682528581166020830152841660408201526060810183905260a0608082018190525f90610e1390830184610cb4565b979650505050505050565b5f60208284031215610e2e575f80fd5b505191905056fea26469706673582212205e967646e65cff1ceb719bc90aec4838b33ed8437ceb477be68091568f18898964736f6c63430008150033",
  "linkReferences": {},
  "deployedLinkReferences": {}
}