{
  "_format": "hh-sol-artifact-1",
  "contractName": "UnlockSwapBurner",
  "sourceName": "contracts/utils/UnlockSwapBurner.sol",
  "abi": [
    {
      "inputs": [
        {
          "internalType": "address",
          "name": "_unlockAddress",
          "type": "address"
        },
        {
          "internalType": "address",
          "name": "_permit2Address",
          "type": "address"
        },
        {
          "internalType": "address",
          "name": "_uniswapRouter",
          "type": "address"
        }
      ],
      "stateMutability": "nonpayable",
      "type": "constructor"
    },
    {
      "inputs": [
        {
          "internalType": "address",
          "name": "uniswapRouter",
          "type": "address"
        },
        {
          "internalType": "address",
          "name": "tokenIn",
          "type": "address"
        },
        {
          "internalType": "uint256",
          "name": "amount",
          "type": "uint256"
        }
      ],
      "name": "UDTSwapFailed",
      "type": "error"
    },
    {
      "inputs": [],
      "name": "UnauthorizedSwap",
      "type": "error"
    },
    {
      "inputs": [],
      "name": "UnsafeCast",
      "type": "error"
    },
    {
      "anonymous": false,
      "inputs": [
        {
          "indexed": false,
          "internalType": "address",
          "name": "tokenAddress",
          "type": "address"
        },
        {
          "indexed": false,
          "internalType": "uint256",
          "name": "amountSpent",
          "type": "uint256"
        },
        {
          "indexed": false,
          "internalType": "uint256",
          "name": "amountBurnt",
          "type": "uint256"
        }
      ],
      "name": "SwapBurn",
      "type": "event"
    },
    {
      "inputs": [],
      "name": "burnAddress",
      "outputs": [
        {
          "internalType": "address",
          "name": "",
          "type": "address"
        }
      ],
      "stateMutability": "view",
      "type": "function"
    },
    {
      "inputs": [],
      "name": "permit2",
      "outputs": [
        {
          "internalType": "address",
          "name": "",
          "type": "address"
        }
      ],
      "stateMutability": "view",
      "type": "function"
    },
    {
      "inputs": [
        {
          "internalType": "address",
          "name": "tokenAddress",
          "type": "address"
        },
        {
          "internalType": "uint24",
          "name": "poolFee",
          "type": "uint24"
        }
      ],
      "name": "swapAndBurn",
      "outputs": [
        {
          "internalType": "uint256",
          "name": "amount",
          "type": "uint256"
        }
      ],
      "stateMutability": "payable",
      "type": "function"
    },
    {
      "inputs": [],
      "name": "uniswapRouter",
      "outputs": [
        {
          "internalType": "address",
          "name": "",
          "type": "address"
        }
      ],
      "stateMutability": "view",
      "type": "function"
    },
    {
      "inputs": [],
      "name": "unlockAddress",
      "outputs": [
        {
          "internalType": "address",
          "name": "",
          "type": "address"
        }
      ],
      "stateMutability": "view",
      "type": "function"
    },
    {
      "stateMutability": "payable",
      "type": "receive"
    }
  ],
  "bytecode": "0x608060405234801561000f575f80fd5b50604051610aeb380380610aeb83398101604081905261002e9161008a565b5f80546001600160a01b039485166001600160a01b0319918216179091556001805493851693821693909317909255600280549190931691161790556100ca565b80516001600160a01b0381168114610085575f80fd5b919050565b5f805f6060848603121561009c575f80fd5b6100a58461006f565b92506100b36020850161006f565b91506100c16040850161006f565b90509250925092565b610a14806100d75f395ff3fe60806040526004361061004c575f3560e01c806312261ee7146100575780632ef8e1671461009357806370d5ae05146100b4578063735de9f7146100c9578063b30929cd146100e8575f80fd5b3661005357005b5f80fd5b348015610062575f80fd5b50600154610076906001600160a01b031681565b6040516001600160a01b0390911681526020015b60405180910390f35b6100a66100a13660046107f8565b610106565b60405190815260200161008a565b3480156100bf575f80fd5b5061007661dead81565b3480156100d4575f80fd5b50600254610076906001600160a01b031681565b3480156100f3575f80fd5b505f54610076906001600160a01b031681565b5f80546040805163262d0a8560e01b8152905183926001600160a01b03169163262d0a859160048083019260209291908290030181865afa15801561014d573d5f803e3d5ffd5b505050506040513d601f19601f820116820180604052508101906101719190610836565b90505f805f9054906101000a90046001600160a01b03166001600160a01b0316633fc8cef36040518163ffffffff1660e01b8152600401602060405180830381865afa1580156101c3573d5f803e3d5ffd5b505050506040513d601f19601f820116820180604052508101906101e79190610836565b90505f6101f38661062d565b9050826001600160a01b0316866001600160a01b0316036102275760405163aa3cc2ad60e01b815260040160405180910390fd5b6001600160a01b03861661029457816001600160a01b031663d0e30db0826040518263ffffffff1660e01b81526004015f604051808303818588803b15801561026e575f80fd5b505af1158015610280573d5f803e3d5ffd5b50505050508195506102918661062d565b90505b6001600160a01b03861615610331576002546102bb9087906001600160a01b0316836106af565b60015460405163095ea7b360e01b81526001600160a01b038881169263095ea7b3926102ef92909116908590600401610858565b6020604051808303815f875af115801561030b573d5f803e3d5ffd5b505050506040513d601f19601f8201168201806040525081019061032f9190610871565b505b6001546002546001600160a01b03918216916387517c4591899116610355856107b4565b61036042603c610890565b6040516001600160e01b031960e087901b1681526001600160a01b03948516600482015292841660248401529216604482015265ffffffffffff90911660648201526084015f604051808303815f87803b1580156103bc575f80fd5b505af11580156103ce573d5f803e3d5ffd5b5050604080516001600160601b0319606087811b8216602084015261017760eb1b603484015288901b1660378201528151808203602b01815260eb82019092529092505f9150604b01806001600160a01b038a81169087161461045457898985604051602001610440939291906108d1565b604051602081830303815290604052610456565b835b815230602082015260400161046c42603c610890565b8152602081018590525f6040918201819052600254915163c04b8d5960e01b8152929350916001600160a01b039091169063c04b8d59906104b190859060040161091a565b6020604051808303815f875af11580156104cd573d5f803e3d5ffd5b505050506040513d601f19601f820116820180604052508101906104f19190610988565b9050805f0361052d5760025460405163fa0392e960e01b8152610524916001600160a01b0316908b90879060040161099f565b60405180910390fd5b60405163a9059cbb60e01b81525f906001600160a01b0388169063a9059cbb9061055f9061dead908690600401610858565b6020604051808303815f875af115801561057b573d5f803e3d5ffd5b505050506040513d601f19601f8201168201806040525081019061059f9190610871565b90508015155f036105d45760025460405163fa0392e960e01b8152610524916001600160a01b0316908c90889060040161099f565b604080516001600160a01b038c168152602081018790529081018390527fffc421788049cd9552ceb1be68395519e4a86c07e24ff133db48d1b16a2f9df09060600160405180910390a150955050505050505b92915050565b5f6001600160a01b038216156106a8576040516370a0823160e01b81523060048201526001600160a01b038316906370a0823190602401602060405180830381865afa15801561067f573d5f803e3d5ffd5b505050506040513d601f19601f820116820180604052508101906106a39190610988565b610627565b4792915050565b5f80846001600160a01b031663095ea7b360e01b85856040516024016106d6929190610858565b60408051601f198184030181529181526020820180516001600160e01b03166001600160e01b031990941693909317909252905161071491906109c3565b5f604051808303815f865af19150503d805f811461074d576040519150601f19603f3d011682016040523d82523d5f602084013e610752565b606091505b509150915081801561077c57508051158061077c57508080602001905181019061077c9190610871565b6107ad5760405162461bcd60e51b8152602060048201526002602482015261534160f01b6044820152606401610524565b5050505050565b5f6001600160a01b038211156107dd5760405163c4bd89a960e01b815260040160405180910390fd5b5090565b6001600160a01b03811681146107f5575f80fd5b50565b5f8060408385031215610809575f80fd5b8235610814816107e1565b9150602083013562ffffff8116811461082b575f80fd5b809150509250929050565b5f60208284031215610846575f80fd5b8151610851816107e1565b9392505050565b6001600160a01b03929092168252602082015260400190565b5f60208284031215610881575f80fd5b81518015158114610851575f80fd5b8082018082111561062757634e487b7160e01b5f52601160045260245ffd5b5f5b838110156108c95781810151838201526020016108b1565b50505f910152565b606084901b6001600160601b031916815260e883901b6001600160e81b031916601482015281515f9061090b8160178501602087016108af565b91909101601701949350505050565b602081525f825160a0602084015280518060c08501526109418160e08601602085016108af565b60018060a01b0360208601511660408501526040850151606085015260608501516080850152608085015160a085015260e0601f19601f8301168501019250505092915050565b5f60208284031215610998575f80fd5b5051919050565b6001600160a01b039384168152919092166020820152604081019190915260600190565b5f82516109d48184602087016108af565b919091019291505056fea26469706673582212204450d7ac974593aa653a36fc69e17836dd25ae648864c9ba4ac4d3e2ca5b101064736f6c63430008150033",
  "linkReferences": {},
  "deployedLinkReferences": {}
}