{
  "contractName": "PublicLock",
  "abi": [
    {
      "constant": true,
      "inputs": [
        {
          "internalType": "bytes4",
          "name": "interfaceId",
          "type": "bytes4"
        }
      ],
      "name": "supportsInterface",
      "outputs": [
        {
          "internalType": "bool",
          "name": "",
          "type": "bool"
        }
      ],
      "payable": false,
      "stateMutability": "view",
      "type": "function"
    },
    {
      "constant": true,
      "inputs": [
        {
          "internalType": "uint256",
          "name": "",
          "type": "uint256"
        }
      ],
      "name": "owners",
      "outputs": [
        {
          "internalType": "address",
          "name": "",
          "type": "address"
        }
      ],
      "payable": false,
      "stateMutability": "view",
      "type": "function"
    },
    {
      "constant": true,
      "inputs": [],
      "name": "name",
      "outputs": [
        {
          "internalType": "string",
          "name": "",
          "type": "string"
        }
      ],
      "payable": false,
      "stateMutability": "view",
      "type": "function"
    },
    {
      "constant": true,
      "inputs": [
        {
          "internalType": "uint256",
          "name": "_tokenId",
          "type": "uint256"
        }
      ],
      "name": "getApproved",
      "outputs": [
        {
          "internalType": "address",
          "name": "",
          "type": "address"
        }
      ],
      "payable": false,
      "stateMutability": "view",
      "type": "function"
    },
    {
      "constant": false,
      "inputs": [
        {
          "internalType": "address",
          "name": "_approved",
          "type": "address"
        },
        {
          "internalType": "uint256",
          "name": "_tokenId",
          "type": "uint256"
        }
      ],
      "name": "approve",
      "outputs": [],
      "payable": true,
      "stateMutability": "payable",
      "type": "function"
    },
    {
      "constant": false,
      "inputs": [
        {
          "internalType": "address",
          "name": "_beneficiary",
          "type": "address"
        }
      ],
      "name": "updateBeneficiary",
      "outputs": [],
      "payable": false,
      "stateMutability": "nonpayable",
      "type": "function"
    },
    {
      "constant": true,
      "inputs": [],
      "name": "refundPenaltyDenominator",
      "outputs": [
        {
          "internalType": "uint256",
          "name": "",
          "type": "uint256"
        }
      ],
      "payable": false,
      "stateMutability": "view",
      "type": "function"
    },
    {
      "constant": true,
      "inputs": [],
      "name": "refundPenaltyNumerator",
      "outputs": [
        {
          "internalType": "uint256",
          "name": "",
          "type": "uint256"
        }
      ],
      "payable": false,
      "stateMutability": "view",
      "type": "function"
    },
    {
      "constant": true,
      "inputs": [],
      "name": "unlockProtocol",
      "outputs": [
        {
          "internalType": "contract IUnlock",
          "name": "",
          "type": "address"
        }
      ],
      "payable": false,
      "stateMutability": "view",
      "type": "function"
    },
    {
      "constant": true,
      "inputs": [
        {
          "internalType": "uint256",
          "name": "_page",
          "type": "uint256"
        },
        {
          "internalType": "uint256",
          "name": "_pageSize",
          "type": "uint256"
        }
      ],
      "name": "getOwnersByPage",
      "outputs": [
        {
          "internalType": "address[]",
          "name": "",
          "type": "address[]"
        }
      ],
      "payable": false,
      "stateMutability": "view",
      "type": "function"
    },
    {
      "constant": true,
      "inputs": [],
      "name": "keyPrice",
      "outputs": [
        {
          "internalType": "uint256",
          "name": "",
          "type": "uint256"
        }
      ],
      "payable": false,
      "stateMutability": "view",
      "type": "function"
    },
    {
      "constant": true,
      "inputs": [],
      "name": "expirationDuration",
      "outputs": [
        {
          "internalType": "uint256",
          "name": "",
          "type": "uint256"
        }
      ],
      "payable": false,
      "stateMutability": "view",
      "type": "function"
    },
    {
      "constant": true,
      "inputs": [],
      "name": "totalSupply",
      "outputs": [
        {
          "internalType": "uint256",
          "name": "",
          "type": "uint256"
        }
      ],
      "payable": false,
      "stateMutability": "view",
      "type": "function"
    },
    {
      "constant": false,
      "inputs": [
        {
          "internalType": "uint256",
          "name": "_keyPrice",
          "type": "uint256"
        }
      ],
      "name": "updateKeyPrice",
      "outputs": [],
      "payable": false,
      "stateMutability": "nonpayable",
      "type": "function"
    },
    {
      "constant": false,
      "inputs": [],
      "name": "cancelAndRefund",
      "outputs": [],
      "payable": false,
      "stateMutability": "nonpayable",
      "type": "function"
    },
    {
      "constant": false,
      "inputs": [
        {
          "internalType": "address",
          "name": "_from",
          "type": "address"
        },
        {
          "internalType": "address",
          "name": "_recipient",
          "type": "address"
        },
        {
          "internalType": "uint256",
          "name": "_tokenId",
          "type": "uint256"
        }
      ],
      "name": "transferFrom",
      "outputs": [],
      "payable": true,
      "stateMutability": "payable",
      "type": "function"
    },
    {
      "constant": true,
      "inputs": [
        {
          "internalType": "address",
          "name": "_owner",
          "type": "address"
        },
        {
          "internalType": "uint256",
          "name": "_index",
          "type": "uint256"
        }
      ],
      "name": "tokenOfOwnerByIndex",
      "outputs": [
        {
          "internalType": "uint256",
          "name": "",
          "type": "uint256"
        }
      ],
      "payable": false,
      "stateMutability": "view",
      "type": "function"
    },
    {
      "constant": false,
      "inputs": [
        {
          "internalType": "string",
          "name": "_baseTokenURI",
          "type": "string"
        }
      ],
      "name": "setBaseTokenURI",
      "outputs": [],
      "payable": false,
      "stateMutability": "nonpayable",
      "type": "function"
    },
    {
      "constant": false,
      "inputs": [
        {
          "internalType": "address",
          "name": "_recipient",
          "type": "address"
        },
        {
          "internalType": "address",
          "name": "_referrer",
          "type": "address"
        },
        {
          "internalType": "bytes",
          "name": "_data",
          "type": "bytes"
        }
      ],
      "name": "purchase",
      "outputs": [],
      "payable": true,
      "stateMutability": "payable",
      "type": "function"
    },
    {
      "constant": true,
      "inputs": [],
      "name": "beneficiary",
      "outputs": [
        {
          "internalType": "address",
          "name": "",
          "type": "address"
        }
      ],
      "payable": false,
      "stateMutability": "view",
      "type": "function"
    },
    {
      "constant": false,
      "inputs": [
        {
          "internalType": "uint256",
          "name": "_transferFeeNumerator",
          "type": "uint256"
        },
        {
          "internalType": "uint256",
          "name": "_transferFeeDenominator",
          "type": "uint256"
        }
      ],
      "name": "updateTransferFee",
      "outputs": [],
      "payable": false,
      "stateMutability": "nonpayable",
      "type": "function"
    },
    {
      "constant": true,
      "inputs": [],
      "name": "isAlive",
      "outputs": [
        {
          "internalType": "bool",
          "name": "",
          "type": "bool"
        }
      ],
      "payable": false,
      "stateMutability": "view",
      "type": "function"
    },
    {
      "constant": false,
      "inputs": [
        {
          "internalType": "address",
          "name": "_from",
          "type": "address"
        },
        {
          "internalType": "address",
          "name": "_to",
          "type": "address"
        },
        {
          "internalType": "uint256",
          "name": "_tokenId",
          "type": "uint256"
        }
      ],
      "name": "safeTransferFrom",
      "outputs": [],
      "payable": true,
      "stateMutability": "payable",
      "type": "function"
    },
    {
      "constant": true,
      "inputs": [
        {
          "internalType": "string",
          "name": "_a",
          "type": "string"
        },
        {
          "internalType": "string",
          "name": "_b",
          "type": "string"
        },
        {
          "internalType": "string",
          "name": "_c",
          "type": "string"
        },
        {
          "internalType": "string",
          "name": "_d",
          "type": "string"
        }
      ],
      "name": "strConcat",
      "outputs": [
        {
          "internalType": "string",
          "name": "_concatenatedString",
          "type": "string"
        }
      ],
      "payable": false,
      "stateMutability": "pure",
      "type": "function"
    },
    {
      "constant": true,
      "inputs": [
        {
          "internalType": "address",
          "name": "",
          "type": "address"
        }
      ],
      "name": "keyOwnerToNonce",
      "outputs": [
        {
          "internalType": "uint256",
          "name": "",
          "type": "uint256"
        }
      ],
      "payable": false,
      "stateMutability": "view",
      "type": "function"
    },
    {
      "constant": true,
      "inputs": [
        {
          "internalType": "uint256",
          "name": "_i",
          "type": "uint256"
        }
      ],
      "name": "uint2Str",
      "outputs": [
        {
          "internalType": "string",
          "name": "_uintAsString",
          "type": "string"
        }
      ],
      "payable": false,
      "stateMutability": "pure",
      "type": "function"
    },
    {
      "constant": true,
      "inputs": [
        {
          "internalType": "uint256",
          "name": "_index",
          "type": "uint256"
        }
      ],
      "name": "tokenByIndex",
      "outputs": [
        {
          "internalType": "uint256",
          "name": "",
          "type": "uint256"
        }
      ],
      "payable": false,
      "stateMutability": "view",
      "type": "function"
    },
    {
      "constant": true,
      "inputs": [
        {
          "internalType": "address",
          "name": "_owner",
          "type": "address"
        }
      ],
      "name": "getCancelAndRefundValueFor",
      "outputs": [
        {
          "internalType": "uint256",
          "name": "refund",
          "type": "uint256"
        }
      ],
      "payable": false,
      "stateMutability": "view",
      "type": "function"
    },
    {
      "constant": false,
      "inputs": [
        {
          "internalType": "string",
          "name": "_lockName",
          "type": "string"
        }
      ],
      "name": "updateLockName",
      "outputs": [],
      "payable": false,
      "stateMutability": "nonpayable",
      "type": "function"
    },
    {
      "constant": false,
      "inputs": [],
      "name": "invalidateApprovalToCancelKey",
      "outputs": [],
      "payable": false,
      "stateMutability": "nonpayable",
      "type": "function"
    },
    {
      "constant": true,
      "inputs": [
        {
          "internalType": "address",
          "name": "_addr",
          "type": "address"
        }
      ],
      "name": "address2Str",
      "outputs": [
        {
          "internalType": "string",
          "name": "",
          "type": "string"
        }
      ],
      "payable": false,
      "stateMutability": "pure",
      "type": "function"
    },
    {
      "constant": true,
      "inputs": [
        {
          "internalType": "uint256",
          "name": "",
          "type": "uint256"
        }
      ],
      "name": "ownerOf",
      "outputs": [
        {
          "internalType": "address",
          "name": "",
          "type": "address"
        }
      ],
      "payable": false,
      "stateMutability": "view",
      "type": "function"
    },
    {
      "constant": true,
      "inputs": [
        {
          "internalType": "address",
          "name": "_owner",
          "type": "address"
        }
      ],
      "name": "getHasValidKey",
      "outputs": [
        {
          "internalType": "bool",
          "name": "",
          "type": "bool"
        }
      ],
      "payable": false,
      "stateMutability": "view",
      "type": "function"
    },
    {
      "constant": true,
      "inputs": [
        {
          "internalType": "address",
          "name": "_owner",
          "type": "address"
        }
      ],
      "name": "balanceOf",
      "outputs": [
        {
          "internalType": "uint256",
          "name": "",
          "type": "uint256"
        }
      ],
      "payable": false,
      "stateMutability": "view",
      "type": "function"
    },
    {
      "constant": false,
      "inputs": [],
      "name": "renounceOwnership",
      "outputs": [],
      "payable": false,
      "stateMutability": "nonpayable",
      "type": "function"
    },
    {
      "constant": true,
      "inputs": [],
      "name": "maxNumberOfKeys",
      "outputs": [
        {
          "internalType": "uint256",
          "name": "",
          "type": "uint256"
        }
      ],
      "payable": false,
      "stateMutability": "view",
      "type": "function"
    },
    {
      "constant": false,
      "inputs": [
        {
          "internalType": "string",
          "name": "_lockSymbol",
          "type": "string"
        }
      ],
      "name": "updateLockSymbol",
      "outputs": [],
      "payable": false,
      "stateMutability": "nonpayable",
      "type": "function"
    },
    {
      "constant": false,
      "inputs": [
        {
          "internalType": "address[]",
          "name": "_recipients",
          "type": "address[]"
        },
        {
          "internalType": "uint256[]",
          "name": "_expirationTimestamps",
          "type": "uint256[]"
        }
      ],
      "name": "grantKeys",
      "outputs": [],
      "payable": false,
      "stateMutability": "nonpayable",
      "type": "function"
    },
    {
      "constant": false,
      "inputs": [
        {
          "internalType": "uint256",
          "name": "_freeTrialLength",
          "type": "uint256"
        },
        {
          "internalType": "uint256",
          "name": "_refundPenaltyNumerator",
          "type": "uint256"
        },
        {
          "internalType": "uint256",
          "name": "_refundPenaltyDenominator",
          "type": "uint256"
        }
      ],
      "name": "updateRefundPenalty",
      "outputs": [],
      "payable": false,
      "stateMutability": "nonpayable",
      "type": "function"
    },
    {
      "constant": true,
      "inputs": [
        {
          "internalType": "address",
          "name": "_owner",
          "type": "address"
        }
      ],
      "name": "getTransferFee",
      "outputs": [
        {
          "internalType": "uint256",
          "name": "",
          "type": "uint256"
        }
      ],
      "payable": false,
      "stateMutability": "view",
      "type": "function"
    },
    {
      "constant": true,
      "inputs": [
        {
          "internalType": "address",
          "name": "_keyOwner",
          "type": "address"
        },
        {
          "internalType": "address",
          "name": "_txSender",
          "type": "address"
        }
      ],
      "name": "getCancelAndRefundApprovalHash",
      "outputs": [
        {
          "internalType": "bytes32",
          "name": "approvalHash",
          "type": "bytes32"
        }
      ],
      "payable": false,
      "stateMutability": "view",
      "type": "function"
    },
    {
      "constant": true,
      "inputs": [],
      "name": "owner",
      "outputs": [
        {
          "internalType": "address",
          "name": "",
          "type": "address"
        }
      ],
      "payable": false,
      "stateMutability": "view",
      "type": "function"
    },
    {
      "constant": true,
      "inputs": [],
      "name": "isOwner",
      "outputs": [
        {
          "internalType": "bool",
          "name": "",
          "type": "bool"
        }
      ],
      "payable": false,
      "stateMutability": "view",
      "type": "function"
    },
    {
      "constant": true,
      "inputs": [],
      "name": "transferFeeNumerator",
      "outputs": [
        {
          "internalType": "uint256",
          "name": "",
          "type": "uint256"
        }
      ],
      "payable": false,
      "stateMutability": "view",
      "type": "function"
    },
    {
      "constant": true,
      "inputs": [],
      "name": "keyCancelInterfaceId",
      "outputs": [
        {
          "internalType": "bytes32",
          "name": "",
          "type": "bytes32"
        }
      ],
      "payable": false,
      "stateMutability": "view",
      "type": "function"
    },
    {
      "constant": true,
      "inputs": [],
      "name": "numberOfOwners",
      "outputs": [
        {
          "internalType": "uint256",
          "name": "",
          "type": "uint256"
        }
      ],
      "payable": false,
      "stateMutability": "view",
      "type": "function"
    },
    {
      "constant": true,
      "inputs": [],
      "name": "symbol",
      "outputs": [
        {
          "internalType": "string",
          "name": "",
          "type": "string"
        }
      ],
      "payable": false,
      "stateMutability": "view",
      "type": "function"
    },
    {
      "constant": true,
      "inputs": [
        {
          "internalType": "address",
          "name": "_account",
          "type": "address"
        }
      ],
      "name": "getTokenIdFor",
      "outputs": [
        {
          "internalType": "uint256",
          "name": "",
          "type": "uint256"
        }
      ],
      "payable": false,
      "stateMutability": "view",
      "type": "function"
    },
    {
      "constant": true,
      "inputs": [
        {
          "internalType": "uint256",
          "name": "_tokenId",
          "type": "uint256"
        },
        {
          "internalType": "address",
          "name": "_owner",
          "type": "address"
        }
      ],
      "name": "isKeyOwner",
      "outputs": [
        {
          "internalType": "bool",
          "name": "",
          "type": "bool"
        }
      ],
      "payable": false,
      "stateMutability": "view",
      "type": "function"
    },
    {
      "constant": true,
      "inputs": [],
      "name": "tokenAddress",
      "outputs": [
        {
          "internalType": "address",
          "name": "",
          "type": "address"
        }
      ],
      "payable": false,
      "stateMutability": "view",
      "type": "function"
    },
    {
      "constant": false,
      "inputs": [
        {
          "internalType": "address",
          "name": "_owner",
          "type": "address"
        }
      ],
      "name": "expireKeyFor",
      "outputs": [],
      "payable": false,
      "stateMutability": "nonpayable",
      "type": "function"
    },
    {
      "constant": false,
      "inputs": [
        {
          "internalType": "address",
          "name": "_to",
          "type": "address"
        },
        {
          "internalType": "bool",
          "name": "_approved",
          "type": "bool"
        }
      ],
      "name": "setApprovalForAll",
      "outputs": [],
      "payable": false,
      "stateMutability": "nonpayable",
      "type": "function"
    },
    {
      "constant": true,
      "inputs": [],
      "name": "freeTrialLength",
      "outputs": [
        {
          "internalType": "uint256",
          "name": "",
          "type": "uint256"
        }
      ],
      "payable": false,
      "stateMutability": "view",
      "type": "function"
    },
    {
      "constant": false,
      "inputs": [],
      "name": "destroyLock",
      "outputs": [],
      "payable": false,
      "stateMutability": "nonpayable",
      "type": "function"
    },
    {
      "constant": true,
      "inputs": [
        {
          "internalType": "address",
          "name": "_owner",
          "type": "address"
        }
      ],
      "name": "keyExpirationTimestampFor",
      "outputs": [
        {
          "internalType": "uint256",
          "name": "timestamp",
          "type": "uint256"
        }
      ],
      "payable": false,
      "stateMutability": "view",
      "type": "function"
    },
    {
      "constant": true,
      "inputs": [],
      "name": "keySoldInterfaceId",
      "outputs": [
        {
          "internalType": "bytes32",
          "name": "",
          "type": "bytes32"
        }
      ],
      "payable": false,
      "stateMutability": "view",
      "type": "function"
    },
    {
      "constant": false,
      "inputs": [
        {
          "internalType": "address",
          "name": "_from",
          "type": "address"
        },
        {
          "internalType": "address",
          "name": "_to",
          "type": "address"
        },
        {
          "internalType": "uint256",
          "name": "_tokenId",
          "type": "uint256"
        },
        {
          "internalType": "bytes",
          "name": "_data",
          "type": "bytes"
        }
      ],
      "name": "safeTransferFrom",
      "outputs": [],
      "payable": true,
      "stateMutability": "payable",
      "type": "function"
    },
    {
      "constant": false,
      "inputs": [
        {
          "internalType": "address",
          "name": "_keyOwner",
          "type": "address"
        },
        {
          "internalType": "bytes",
          "name": "_signature",
          "type": "bytes"
        }
      ],
      "name": "cancelAndRefundFor",
      "outputs": [],
      "payable": false,
      "stateMutability": "nonpayable",
      "type": "function"
    },
    {
      "constant": false,
      "inputs": [],
      "name": "disableLock",
      "outputs": [],
      "payable": false,
      "stateMutability": "nonpayable",
      "type": "function"
    },
    {
      "constant": true,
      "inputs": [
        {
          "internalType": "uint256",
          "name": "_tokenId",
          "type": "uint256"
        }
      ],
      "name": "tokenURI",
      "outputs": [
        {
          "internalType": "string",
          "name": "",
          "type": "string"
        }
      ],
      "payable": false,
      "stateMutability": "view",
      "type": "function"
    },
    {
      "constant": true,
      "inputs": [],
      "name": "transferFeeDenominator",
      "outputs": [
        {
          "internalType": "uint256",
          "name": "",
          "type": "uint256"
        }
      ],
      "payable": false,
      "stateMutability": "view",
      "type": "function"
    },
    {
      "constant": true,
      "inputs": [
        {
          "internalType": "address",
          "name": "_tokenAddress",
          "type": "address"
        },
        {
          "internalType": "address",
          "name": "_account",
          "type": "address"
        }
      ],
      "name": "getBalance",
      "outputs": [
        {
          "internalType": "uint256",
          "name": "",
          "type": "uint256"
        }
      ],
      "payable": false,
      "stateMutability": "view",
      "type": "function"
    },
    {
      "constant": true,
      "inputs": [],
      "name": "erc1820",
      "outputs": [
        {
          "internalType": "contract IERC1820Registry",
          "name": "",
          "type": "address"
        }
      ],
      "payable": false,
      "stateMutability": "view",
      "type": "function"
    },
    {
      "constant": true,
      "inputs": [
        {
          "internalType": "address",
          "name": "_owner",
          "type": "address"
        },
        {
          "internalType": "address",
          "name": "_operator",
          "type": "address"
        }
      ],
      "name": "isApprovedForAll",
      "outputs": [
        {
          "internalType": "bool",
          "name": "",
          "type": "bool"
        }
      ],
      "payable": false,
      "stateMutability": "view",
      "type": "function"
    },
    {
      "constant": false,
      "inputs": [
        {
          "internalType": "address",
          "name": "newOwner",
          "type": "address"
        }
      ],
      "name": "transferOwnership",
      "outputs": [],
      "payable": false,
      "stateMutability": "nonpayable",
      "type": "function"
    },
    {
      "constant": false,
      "inputs": [
        {
          "internalType": "address",
          "name": "_tokenAddress",
          "type": "address"
        },
        {
          "internalType": "uint256",
          "name": "_amount",
          "type": "uint256"
        }
      ],
      "name": "withdraw",
      "outputs": [],
      "payable": false,
      "stateMutability": "nonpayable",
      "type": "function"
    },
    {
      "constant": false,
      "inputs": [
        {
          "internalType": "address",
          "name": "_keyOwner",
          "type": "address"
        },
        {
          "internalType": "uint256",
          "name": "amount",
          "type": "uint256"
        }
      ],
      "name": "fullRefund",
      "outputs": [],
      "payable": false,
      "stateMutability": "nonpayable",
      "type": "function"
    },
    {
      "anonymous": false,
      "inputs": [
        {
          "indexed": true,
          "internalType": "uint256",
          "name": "tokenId",
          "type": "uint256"
        },
        {
          "indexed": true,
          "internalType": "address",
          "name": "owner",
          "type": "address"
        },
        {
          "indexed": true,
          "internalType": "address",
          "name": "sendTo",
          "type": "address"
        },
        {
          "indexed": false,
          "internalType": "uint256",
          "name": "refund",
          "type": "uint256"
        }
      ],
      "name": "CancelKey",
      "type": "event"
    },
    {
      "anonymous": false,
      "inputs": [
        {
          "indexed": false,
          "internalType": "uint256",
          "name": "freeTrialLength",
          "type": "uint256"
        },
        {
          "indexed": false,
          "internalType": "uint256",
          "name": "refundPenaltyNumerator",
          "type": "uint256"
        },
        {
          "indexed": false,
          "internalType": "uint256",
          "name": "refundPenaltyDenominator",
          "type": "uint256"
        }
      ],
      "name": "RefundPenaltyChanged",
      "type": "event"
    },
    {
      "anonymous": false,
      "inputs": [
        {
          "indexed": false,
          "internalType": "uint256",
          "name": "oldTransferFeeNumerator",
          "type": "uint256"
        },
        {
          "indexed": false,
          "internalType": "uint256",
          "name": "oldTransferFeeDenominator",
          "type": "uint256"
        },
        {
          "indexed": false,
          "internalType": "uint256",
          "name": "transferFeeNumerator",
          "type": "uint256"
        },
        {
          "indexed": false,
          "internalType": "uint256",
          "name": "transferFeeDenominator",
          "type": "uint256"
        }
      ],
      "name": "TransferFeeChanged",
      "type": "event"
    },
    {
      "anonymous": false,
      "inputs": [
        {
          "indexed": false,
          "internalType": "string",
          "name": "symbol",
          "type": "string"
        }
      ],
      "name": "NewLockSymbol",
      "type": "event"
    },
    {
      "anonymous": false,
      "inputs": [
        {
          "indexed": true,
          "internalType": "uint256",
          "name": "tokenId",
          "type": "uint256"
        }
      ],
      "name": "ExpireKey",
      "type": "event"
    },
    {
      "anonymous": false,
      "inputs": [
        {
          "indexed": false,
          "internalType": "uint256",
          "name": "oldKeyPrice",
          "type": "uint256"
        },
        {
          "indexed": false,
          "internalType": "uint256",
          "name": "keyPrice",
          "type": "uint256"
        }
      ],
      "name": "PriceChanged",
      "type": "event"
    },
    {
      "anonymous": false,
      "inputs": [
        {
          "indexed": true,
          "internalType": "address",
          "name": "sender",
          "type": "address"
        },
        {
          "indexed": true,
          "internalType": "address",
          "name": "tokenAddress",
          "type": "address"
        },
        {
          "indexed": true,
          "internalType": "address",
          "name": "beneficiary",
          "type": "address"
        },
        {
          "indexed": false,
          "internalType": "uint256",
          "name": "amount",
          "type": "uint256"
        }
      ],
      "name": "Withdrawal",
      "type": "event"
    },
    {
      "anonymous": false,
      "inputs": [
        {
          "indexed": false,
          "internalType": "uint256",
          "name": "balance",
          "type": "uint256"
        },
        {
          "indexed": true,
          "internalType": "address",
          "name": "owner",
          "type": "address"
        }
      ],
      "name": "Destroy",
      "type": "event"
    },
    {
      "anonymous": false,
      "inputs": [],
      "name": "Disable",
      "type": "event"
    },
    {
      "anonymous": false,
      "inputs": [
        {
          "indexed": true,
          "internalType": "address",
          "name": "previousOwner",
          "type": "address"
        },
        {
          "indexed": true,
          "internalType": "address",
          "name": "newOwner",
          "type": "address"
        }
      ],
      "name": "OwnershipTransferred",
      "type": "event"
    },
    {
      "anonymous": false,
      "inputs": [
        {
          "indexed": true,
          "internalType": "address",
          "name": "_from",
          "type": "address"
        },
        {
          "indexed": true,
          "internalType": "address",
          "name": "_to",
          "type": "address"
        },
        {
          "indexed": true,
          "internalType": "uint256",
          "name": "_tokenId",
          "type": "uint256"
        }
      ],
      "name": "Transfer",
      "type": "event"
    },
    {
      "anonymous": false,
      "inputs": [
        {
          "indexed": true,
          "internalType": "address",
          "name": "_owner",
          "type": "address"
        },
        {
          "indexed": true,
          "internalType": "address",
          "name": "_approved",
          "type": "address"
        },
        {
          "indexed": true,
          "internalType": "uint256",
          "name": "_tokenId",
          "type": "uint256"
        }
      ],
      "name": "Approval",
      "type": "event"
    },
    {
      "anonymous": false,
      "inputs": [
        {
          "indexed": true,
          "internalType": "address",
          "name": "_owner",
          "type": "address"
        },
        {
          "indexed": true,
          "internalType": "address",
          "name": "_operator",
          "type": "address"
        },
        {
          "indexed": false,
          "internalType": "bool",
          "name": "_approved",
          "type": "bool"
        }
      ],
      "name": "ApprovalForAll",
      "type": "event"
    },
    {
      "constant": false,
      "inputs": [
        {
          "internalType": "address",
          "name": "_owner",
          "type": "address"
        },
        {
          "internalType": "uint256",
          "name": "_expirationDuration",
          "type": "uint256"
        },
        {
          "internalType": "address",
          "name": "_tokenAddress",
          "type": "address"
        },
        {
          "internalType": "uint256",
          "name": "_keyPrice",
          "type": "uint256"
        },
        {
          "internalType": "uint256",
          "name": "_maxNumberOfKeys",
          "type": "uint256"
        },
        {
          "internalType": "string",
          "name": "_lockName",
          "type": "string"
        }
      ],
      "name": "initialize",
      "outputs": [],
      "payable": false,
      "stateMutability": "nonpayable",
      "type": "function"
    },
    {
      "constant": false,
      "inputs": [],
      "name": "initialize",
      "outputs": [],
      "payable": false,
      "stateMutability": "nonpayable",
      "type": "function"
    },
    {
      "constant": false,
      "inputs": [
        {
          "internalType": "address",
          "name": "_tokenAddress",
          "type": "address"
        }
      ],
      "name": "initialize",
      "outputs": [],
      "payable": false,
      "stateMutability": "nonpayable",
      "type": "function"
    },
    {
      "constant": true,
      "inputs": [],
      "name": "publicLockVersion",
      "outputs": [
        {
          "internalType": "uint16",
          "name": "",
          "type": "uint16"
        }
      ],
      "payable": false,
      "stateMutability": "pure",
      "type": "function"
    }
  ],
  "bytecode": "0x6080604052614d50806100136000396000f3fe6080604052600436106104105760003560e01c8063715018a61161021e578063a22cb46511610123578063c87b56dd116100ab578063e7e2736e1161007a578063e7e2736e14611476578063e985e9c51461148b578063f2fde38b146114c6578063f3fef3a3146114f9578063f7514bce1461153257610410565b8063c87b56dd146113d0578063d1bbd49c146113fa578063d42cfc4114611426578063d4fac45d1461143b57610410565b8063b3084f08116100f2578063b3084f0814611224578063b88d4fde14611239578063b8968bb4146112fd578063c1c98d0314611388578063c4d66de81461139d57610410565b8063a22cb4651461118c578063a375cb05146111c7578063a843a4e7146111dc578063abdf82ce146111f157610410565b80638f32d59b116101a657806395d89b411161017557806395d89b41146110c3578063970aaeb7146110d8578063994a8a711461110b5780639d76ea58146111445780639f98d3cb1461115957610410565b80638f32d59b1461106f5780638f98ce8f14611084578063936d2aa41461109957806393fd1844146110ae57610410565b80638004d053116101ed5780638004d05314610fa15780638129fc1c14610fd757806383cb0fa914610fec5780638d0361fc1461101f5780638da5cb5b1461105a57610410565b8063715018a614610e3157806374b6c10614610e46578063782a4ade14610e5b5780637c7c425314610ed657610410565b806330176e13116103245780634f6ccce7116102ac5780635fdb97e11161027b5780635fdb97e114610c925780636352211e14610cc55780636d8ea5b414610cef5780636eadde4314610d2257806370a0823114610dfe57610410565b80634f6ccce714610ba557806352d6a8e414610bcf578063550ef3a814610c025780635dc2662014610c7d57610410565b80634136aa35116102f35780634136aa35146108bd57806342842e0e146108d257806345e965cd146109085780634bc5a13514610b485780634c7a12a014610b7b57610410565b806330176e1314610776578063318c8a05146107f157806338af3eed146108785780633d3359cb1461088d57610410565b80630f15023b116103a757806318160ddd1161037657806318160ddd146106b35780631f1ec029146106c85780632009dc65146106f257806323b872dd146107075780632f745c591461073d57610410565b80630f15023b146105f457806310803b721461060957806310e569731461068957806311a4c03a1461069e57610410565b8063095ea7b3116103e3578063095ea7b3146105575780630aaffd2a146105855780630c79130f146105b85780630ed3e2cc146105df57610410565b806301ffc9a714610415578063025e7c271461045d57806306fdde03146104a3578063081812fc1461052d575b600080fd5b34801561042157600080fd5b506104496004803603602081101561043857600080fd5b50356001600160e01b03191661156b565b604080519115158252519081900360200190f35b34801561046957600080fd5b506104876004803603602081101561048057600080fd5b503561158e565b604080516001600160a01b039092168252519081900360200190f35b3480156104af57600080fd5b506104b86115b5565b6040805160208082528351818301528351919283929083019185019080838360005b838110156104f25781810151838201526020016104da565b50505050905090810190601f16801561051f5780820380516001836020036101000a031916815260200191505b509250505060405180910390f35b34801561053957600080fd5b506104876004803603602081101561055057600080fd5b5035611643565b6105836004803603604081101561056d57600080fd5b506001600160a01b0381351690602001356116a3565b005b34801561059157600080fd5b50610583600480360360208110156105a857600080fd5b50356001600160a01b0316611839565b3480156105c457600080fd5b506105cd61192a565b60408051918252519081900360200190f35b3480156105eb57600080fd5b506105cd611930565b34801561060057600080fd5b50610487611936565b34801561061557600080fd5b506106396004803603604081101561062c57600080fd5b5080359060200135611945565b60408051602080825283518183015283519192839290830191858101910280838360005b8381101561067557818101518382015260200161065d565b505050509050019250505060405180910390f35b34801561069557600080fd5b506105cd611a5d565b3480156106aa57600080fd5b506105cd611a63565b3480156106bf57600080fd5b506105cd611a69565b3480156106d457600080fd5b50610583600480360360208110156106eb57600080fd5b5035611a6f565b3480156106fe57600080fd5b50610583611b17565b6105836004803603606081101561071d57600080fd5b506001600160a01b03813581169160208101359091169060400135611b31565b34801561074957600080fd5b506105cd6004803603604081101561076057600080fd5b506001600160a01b038135169060200135611da3565b34801561078257600080fd5b506105836004803603602081101561079957600080fd5b810190602081018135600160201b8111156107b357600080fd5b8201836020820111156107c557600080fd5b803590602001918460018302840111600160201b831117156107e657600080fd5b509092509050611e01565b6105836004803603606081101561080757600080fd5b6001600160a01b038235811692602081013590911691810190606081016040820135600160201b81111561083a57600080fd5b82018360208201111561084c57600080fd5b803590602001918460018302840111600160201b8311171561086d57600080fd5b509092509050611e23565b34801561088457600080fd5b506104876121af565b34801561089957600080fd5b50610583600480360360408110156108b057600080fd5b50803590602001356121be565b3480156108c957600080fd5b50610449612268565b610583600480360360608110156108e857600080fd5b506001600160a01b03813581169160208101359091169060400135612278565b34801561091457600080fd5b506104b86004803603608081101561092b57600080fd5b810190602081018135600160201b81111561094557600080fd5b82018360208201111561095757600080fd5b803590602001918460018302840111600160201b8311171561097857600080fd5b91908080601f0160208091040260200160405190810160405280939291908181526020018383808284376000920191909152509295949360208101935035915050600160201b8111156109ca57600080fd5b8201836020820111156109dc57600080fd5b803590602001918460018302840111600160201b831117156109fd57600080fd5b91908080601f0160208091040260200160405190810160405280939291908181526020018383808284376000920191909152509295949360208101935035915050600160201b811115610a4f57600080fd5b820183602082011115610a6157600080fd5b803590602001918460018302840111600160201b83111715610a8257600080fd5b91908080601f0160208091040260200160405190810160405280939291908181526020018383808284376000920191909152509295949360208101935035915050600160201b811115610ad457600080fd5b820183602082011115610ae657600080fd5b803590602001918460018302840111600160201b83111715610b0757600080fd5b91908080601f016020809104026020016040519081016040528093929190818152602001838380828437600092019190915250929550612293945050505050565b348015610b5457600080fd5b506105cd60048036036020811015610b6b57600080fd5b50356001600160a01b031661244a565b348015610b8757600080fd5b506104b860048036036020811015610b9e57600080fd5b503561245c565b348015610bb157600080fd5b506105cd60048036036020811015610bc857600080fd5b5035612520565b348015610bdb57600080fd5b506105cd60048036036020811015610bf257600080fd5b50356001600160a01b031661256b565b348015610c0e57600080fd5b5061058360048036036020811015610c2557600080fd5b810190602081018135600160201b811115610c3f57600080fd5b820183602082011115610c5157600080fd5b803590602001918460018302840111600160201b83111715610c7257600080fd5b509092509050612576565b348015610c8957600080fd5b50610583612593565b348015610c9e57600080fd5b506104b860048036036020811015610cb557600080fd5b50356001600160a01b03166125ab565b348015610cd157600080fd5b5061048760048036036020811015610ce857600080fd5b5035612727565b348015610cfb57600080fd5b5061044960048036036020811015610d1257600080fd5b50356001600160a01b0316612742565b348015610d2e57600080fd5b50610583600480360360c0811015610d4557600080fd5b6001600160a01b03823581169260208101359260408201359092169160608201359160808101359181019060c0810160a0820135600160201b811115610d8a57600080fd5b820183602082011115610d9c57600080fd5b803590602001918460018302840111600160201b83111715610dbd57600080fd5b91908080601f016020809104026020016040519081016040528093929190818152602001838380828437600092019190915250929550612762945050505050565b348015610e0a57600080fd5b506105cd60048036036020811015610e2157600080fd5b50356001600160a01b0316612861565b348015610e3d57600080fd5b506105836128d0565b348015610e5257600080fd5b506105cd61292b565b348015610e6757600080fd5b5061058360048036036020811015610e7e57600080fd5b810190602081018135600160201b811115610e9857600080fd5b820183602082011115610eaa57600080fd5b803590602001918460018302840111600160201b83111715610ecb57600080fd5b509092509050612931565b348015610ee257600080fd5b5061058360048036036040811015610ef957600080fd5b810190602081018135600160201b811115610f1357600080fd5b820183602082011115610f2557600080fd5b803590602001918460208302840111600160201b83111715610f4657600080fd5b919390929091602081019035600160201b811115610f6357600080fd5b820183602082011115610f7557600080fd5b803590602001918460208302840111600160201b83111715610f9657600080fd5b5090925090506129b3565b348015610fad57600080fd5b5061058360048036036060811015610fc457600080fd5b5080359060208101359060400135612b20565b348015610fe357600080fd5b50610583612bc0565b348015610ff857600080fd5b506105cd6004803603602081101561100f57600080fd5b50356001600160a01b0316612bcc565b34801561102b57600080fd5b506105cd6004803603604081101561104257600080fd5b506001600160a01b0381358116916020013516612c99565b34801561106657600080fd5b50610487612cfd565b34801561107b57600080fd5b50610449612d0d565b34801561109057600080fd5b506105cd612d33565b3480156110a557600080fd5b506105cd612d39565b3480156110ba57600080fd5b506105cd612d5d565b3480156110cf57600080fd5b506104b8612d63565b3480156110e457600080fd5b506105cd600480360360208110156110fb57600080fd5b50356001600160a01b0316612f52565b34801561111757600080fd5b506104496004803603604081101561112e57600080fd5b50803590602001356001600160a01b0316612fbc565b34801561115057600080fd5b50610487612fdd565b34801561116557600080fd5b506105836004803603602081101561117c57600080fd5b50356001600160a01b0316612fec565b34801561119857600080fd5b50610583600480360360408110156111af57600080fd5b506001600160a01b0381351690602001351515613095565b3480156111d357600080fd5b506105cd6131a0565b3480156111e857600080fd5b506105836131a6565b3480156111fd57600080fd5b506105cd6004803603602081101561121457600080fd5b50356001600160a01b0316613260565b34801561123057600080fd5b506105cd6132e5565b6105836004803603608081101561124f57600080fd5b6001600160a01b03823581169260208101359091169160408201359190810190608081016060820135600160201b81111561128957600080fd5b82018360208201111561129b57600080fd5b803590602001918460018302840111600160201b831117156112bc57600080fd5b91908080601f016020809104026020016040519081016040528093929190818152602001838380828437600092019190915250929550613309945050505050565b34801561130957600080fd5b506105836004803603604081101561132057600080fd5b6001600160a01b038235169190810190604081016020820135600160201b81111561134a57600080fd5b82018360208201111561135c57600080fd5b803590602001918460018302840111600160201b8311171561137d57600080fd5b5090925090506134bc565b34801561139457600080fd5b506105836135a0565b3480156113a957600080fd5b50610583600480360360208110156113c057600080fd5b50356001600160a01b0316613639565b3480156113dc57600080fd5b506104b8600480360360208110156113f357600080fd5b5035613708565b34801561140657600080fd5b5061140f613984565b6040805161ffff9092168252519081900360200190f35b34801561143257600080fd5b506105cd613989565b34801561144757600080fd5b506105cd6004803603604081101561145e57600080fd5b506001600160a01b038135811691602001351661398f565b34801561148257600080fd5b50610487613a39565b34801561149757600080fd5b50610449600480360360408110156114ae57600080fd5b506001600160a01b0381358116916020013516613a51565b3480156114d257600080fd5b50610583600480360360208110156114e957600080fd5b50356001600160a01b0316613a7f565b34801561150557600080fd5b506105836004803603604081101561151c57600080fd5b506001600160a01b038135169060200135613a99565b34801561153e57600080fd5b506105836004803603604081101561155557600080fd5b506001600160a01b038135169060200135613bed565b6001600160e01b0319811660009081526033602052604090205460ff165b919050565b60a2818154811061159b57fe5b6000918252602090912001546001600160a01b0316905081565b60a3805460408051602060026001851615610100026000190190941693909304601f8101849004840282018401909252818152929183018282801561163b5780601f106116105761010080835404028352916020019161163b565b820191906000526020600020905b81548152906001019060200180831161161e57829003601f168201915b505050505081565b600081815260a660205260408120546001600160a01b03168061169d576040805162461bcd60e51b815260206004820152600d60248201526c1393d39157d054141493d59151609a1b604482015290519081900360640190fd5b92915050565b609954600160a01b900460ff166116f3576040805162461bcd60e51b815260206004820152600f60248201526e1313d0d2d7d11154149150d0551151608a1b604482015290519081900360640190fd5b806116fe8133612fbc565b8061170e575061170e8133613c53565b806117365750600081815260a16020526040902054611736906001600160a01b031633613a51565b611784576040805162461bcd60e51b815260206004820152601a60248201527913d3931657d2d15657d3d5d3915497d3d497d054141493d5915160321b604482015290519081900360640190fd5b336001600160a01b03841614156117d1576040805162461bcd60e51b815260206004820152600c60248201526b20a8282927ab22afa9a2a62360a11b604482015290519081900360640190fd5b600082815260a66020908152604080832080546001600160a01b0319166001600160a01b0388811691821790925560a1909352818420549151869492909116917f8c5be1e5ebec7d5bd14f71427d1e84f3dd0314c0f7b2291e5b200ac8c7c3b92591a4505050565b611841612cfd565b6001600160a01b0316336001600160a01b0316148061186a5750609f546001600160a01b031633145b6118bb576040805162461bcd60e51b815260206004820152601e60248201527f4f4e4c595f4c4f434b5f4f574e45525f4f525f42454e45464943494152590000604482015290519081900360640190fd5b6001600160a01b038116611908576040805162461bcd60e51b815260206004820152600f60248201526e494e56414c49445f4144445245535360881b604482015290519081900360640190fd5b609f80546001600160a01b0319166001600160a01b0392909216919091179055565b60ab5481565b60aa5481565b609a546001600160a01b031681565b60a254606090611992576040805162461bcd60e51b81526020600482015260136024820152724e4f5f4f55545354414e44494e475f4b45595360681b604482015290519081900360640190fd5b60a25482908482029060009082840111156119b5575060a25481810392506119ba565b508082015b6060836040519080825280602002602001820160405280156119e6578160200160208202803883390190505b5090506000835b83811015611a505760a28181548110611a0257fe5b9060005260206000200160009054906101000a90046001600160a01b0316838381518110611a2c57fe5b6001600160a01b0390921660209283029190910190910152600191820191016119ed565b5090979650505050505050565b609c5481565b609b5481565b609e5481565b611a77612d0d565b611a8057600080fd5b609954600160a01b900460ff16611ad0576040805162461bcd60e51b815260206004820152600f60248201526e1313d0d2d7d11154149150d0551151608a1b604482015290519081900360640190fd5b609c805490829055604080518281526020810184905281517f8aa4fa52648a6d15edce8a179c792c86f3719d0cc3c572cf90f91948f0f2cb68929181900390910190a15050565b6000611b2233613c74565b9050611b2e3382613d7b565b50565b609954600160a01b900460ff16611b81576040805162461bcd60e51b815260206004820152600f60248201526e1313d0d2d7d11154149150d0551151608a1b604482015290519081900360640190fd5b82611b8b81612742565b611bcc576040805162461bcd60e51b815260206004820152600d60248201526c12d15657d393d517d590531251609a1b604482015290519081900360640190fd5b81611bd78133612fbc565b80611be75750611be78133613c53565b80611c0f5750600081815260a16020526040902054611c0f906001600160a01b031633613a51565b611c5d576040805162461bcd60e51b815260206004820152601a60248201527913d3931657d2d15657d3d5d3915497d3d497d054141493d5915160321b604482015290519081900360640190fd5b6001600160a01b038416611caa576040805162461bcd60e51b815260206004820152600f60248201526e494e56414c49445f4144445245535360881b604482015290519081900360640190fd5b6000611cb586612bcc565b6001600160a01b03808816600090815260a0602052604080822092891682529020600181015481549394509192909190611cf9578254808355611cf9908990613e00565b428111611d1d576001808401549083015582548255611d188888613e00565b611d3a565b6001830154611d349042830363ffffffff613e8816565b60018301555b42600184015560008355611d4d87613e9a565b86886001600160a01b03168a6001600160a01b03167fddf252ad1be2c89b69c2b068fc378daa952ba7f163c4a11628f55a4df523b3ef60405160405180910390a4611d9784613ed5565b50505050505050505050565b60008115611df1576040805162461bcd60e51b815260206004820152601660248201527527a7262cafa7a722afa5a2acafa822a92fa7aba722a960511b604482015290519081900360640190fd5b611dfa83612f52565b9392505050565b611e09612d0d565b611e1257600080fd5b611e1e60a58383614beb565b505050565b609954600160a01b900460ff16611e73576040805162461bcd60e51b815260206004820152600f60248201526e1313d0d2d7d11154149150d0551151608a1b604482015290519081900360640190fd5b609e54609d5411611ebb576040805162461bcd60e51b815260206004820152600d60248201526c1313d0d2d7d4d3d31117d3d555609a1b604482015290519081900360640190fd5b6001600160a01b038416611f08576040805162461bcd60e51b815260206004820152600f60248201526e494e56414c49445f4144445245535360881b604482015290519081900360640190fd5b6001600160a01b038416600090815260a0602052604090208054611f3d57611f2f81614100565b611f3d858260000154613e00565b42816001015410611f6957609b546001820154611f5f9163ffffffff613e8816565b6001820155611f74565b609b54420160018201555b609c54609a5460408051630cb175e360e01b81526001600160a01b03898116600483015260248201859052825160009586959094921692630cb175e3926044808301939192829003018186803b158015611fcd57600080fd5b505afa158015611fe1573d6000803e3d6000fd5b505050506040513d6040811015611ff757600080fd5b50805160209091015190935091508083111561201557506000612019565b8290035b821561208c57609a5460408051633652466360e01b8152600481018690526024810185905290516001600160a01b039092169163365246639160448082019260009290919082900301818387803b15801561207357600080fd5b505af1158015612087573d6000803e3d6000fd5b505050505b609a546001600160a01b031663939d9f1f826120a78a612742565b6120b25760006120b4565b895b6040518363ffffffff1660e01b815260040180838152602001826001600160a01b03166001600160a01b0316815260200192505050600060405180830381600087803b15801561210357600080fd5b505af1158015612117573d6000803e3d6000fd5b505085546040519092506001600160a01b038b1691506000907fddf252ad1be2c89b69c2b068fc378daa952ba7f163c4a11628f55a4df523b3ef908290a4600061216082613ed5565b90506121a48989838a8a8080601f01602080910402602001604051908101604052809392919081815260200183838082843760009201919091525061411592505050565b505050505050505050565b609f546001600160a01b031681565b6121c6612d0d565b6121cf57600080fd5b80612210576040805162461bcd60e51b815260206004820152600c60248201526b494e56414c49445f5241544560a01b604482015290519081900360640190fd5b60a85460a95460408051928352602083019190915281810184905260608201839052517ff0cc3b8bd450a20cce7720453e064b35cf490baa5d53c7c6ef8b2e1b02898a7d9181900360800190a160a89190915560a955565b609954600160a01b900460ff1681565b611e1e83838360405180602001604052806000815250613309565b606080859050606085905060608590506060859050606081518351855187510101016040519080825280601f01601f1916602001820160405280156122df576020820181803883390190505b509050806000805b8751811015612338578781815181106122fc57fe5b602001015160f81c60f81b83838060010194508151811061231957fe5b60200101906001600160f81b031916908160001a9053506001016122e7565b5060005b865181101561238d5786818151811061235157fe5b602001015160f81c60f81b83838060010194508151811061236e57fe5b60200101906001600160f81b031916908160001a90535060010161233c565b5060005b85518110156123e2578581815181106123a657fe5b602001015160f81c60f81b8383806001019450815181106123c357fe5b60200101906001600160f81b031916908160001a905350600101612391565b5060005b8451811015612437578481815181106123fb57fe5b602001015160f81c60f81b83838060010194508151811061241857fe5b60200101906001600160f81b031916908160001a9053506001016123e6565b509096505050505050505b949350505050565b60ad6020526000908152604090205481565b606081806124835750506040805180820190915260018152600360fc1b6020820152611589565b8260005b811561249b57600101600a82049150612487565b6060816040519080825280601f01601f1916602001820160405280156124c8576020820181803883390190505b50905060001982015b841561251657600a850660300160f81b828280600190039350815181106124f457fe5b60200101906001600160f81b031916908160001a905350600a850494506124d1565b5095945050505050565b6000609e548210612567576040805162461bcd60e51b815260206004820152600c60248201526b4f55545f4f465f52414e474560a01b604482015290519081900360640190fd5b5090565b600061169d82613c74565b61257e612d0d565b61258757600080fd5b611e1e60a38383614beb565b33600090815260ad6020526040902080546001019055565b604080518082018252601081526f181899199a1a9b1b9c1cb0b131b232b360811b60208201528151602a80825260608281019094526001600160a01b03851692918491602082018180388339019050509050600360fc1b8160008151811061260f57fe5b60200101906001600160f81b031916908160001a905350600f60fb1b8160018151811061263857fe5b60200101906001600160f81b031916908160001a90535060005b601481101561271e578260048583600c016020811061266d57fe5b1a60f81b6001600160f81b031916901c60f81c60ff168151811061268d57fe5b602001015160f81c60f81b8282600202600201815181106126aa57fe5b60200101906001600160f81b031916908160001a905350828482600c01602081106126d157fe5b825191901a600f169081106126e257fe5b602001015160f81c60f81b8282600202600301815181106126ff57fe5b60200101906001600160f81b031916908160001a905350600101612652565b50949350505050565b60a1602052600090815260409020546001600160a01b031681565b6001600160a01b0316600090815260a06020526040902060010154421090565b600054610100900460ff168061277b575061277b6142c0565b80612789575060005460ff16155b6127c45760405162461bcd60e51b815260040180806020018281038252602e815260200180614cee602e913960400191505060405180910390fd5b600054610100900460ff161580156127ef576000805460ff1961ff0019909116610100171660011790555b6127f8876142c6565b61280185613639565b6128096143b7565b612815878786866143cc565b61281e82614462565b61282661448e565b61282e6144a0565b612836612bc0565b6128466380ac58cd60e01b6144a7565b8015612858576000805461ff00191690555b50505050505050565b60006001600160a01b0382166128b0576040805162461bcd60e51b815260206004820152600f60248201526e494e56414c49445f4144445245535360881b604482015290519081900360640190fd5b6128b982612742565b6128c45760006128c7565b60015b60ff1692915050565b6128d8612d0d565b6128e157600080fd5b6066546040516000916001600160a01b0316907f8be0079c531659141344cd1fd0a4f28419497f9722a3daafe3b4186f6b6457e0908390a3606680546001600160a01b0319169055565b609d5481565b612939612d0d565b61294257600080fd5b61294e60a48383614beb565b507f8868e22e84ebf32da89b2ebcb0ac642816304ea3863b257f240df9098719cb97828260405180806020018281038252848482818152602001925080828437600083820152604051601f909101601f19169092018290039550909350505050a15050565b6129bb612d0d565b6129c457600080fd5b60005b83811015612b195760008585838181106129dd57fe5b905060200201356001600160a01b0316905060008484848181106129fd57fe5b60200291909101359150506001600160a01b038216612a55576040805162461bcd60e51b815260206004820152600f60248201526e494e56414c49445f4144445245535360881b604482015290519081900360640190fd5b6001600160a01b038216600090815260a06020526040902060018101548211612ab8576040805162461bcd60e51b815260206004820152601060248201526f414c52454144595f4f574e535f4b455960801b604482015290519081900360640190fd5b612ac181614100565b612acf838260000154613e00565b6001810182905580546040516001600160a01b038516906000907fddf252ad1be2c89b69c2b068fc378daa952ba7f163c4a11628f55a4df523b3ef908290a45050506001016129c7565b5050505050565b612b28612d0d565b612b3157600080fd5b80612b72576040805162461bcd60e51b815260206004820152600c60248201526b494e56414c49445f5241544560a01b604482015290519081900360640190fd5b604080518481526020810184905280820183905290517f6dbfc5d92ddc0cf76aeb7f5f43dbbe90fbfd815723b5ef47904de04db4603e419181900360600190a160ac9290925560aa5560ab55565b600160aa55600a60ab55565b600081612bd881612742565b612c19576040805162461bcd60e51b815260206004820152600d60248201526c12d15657d393d517d590531251609a1b604482015290519081900360640190fd5b6001600160a01b038316600090815260a0602052604081206001810154609b54919242909103918210612c4f5750609c54612c70565b609b54609c54612c65908463ffffffff6144e316565b81612c6c57fe5b0490505b60a95460a854612c8790839063ffffffff6144e316565b81612c8e57fe5b049695505050505050565b6001600160a01b0391909116600090815260ad602090815260409182902054825130606090811b82850152603482019290925293901b6bffffffffffffffffffffffff19166054840152815180840360480181526068909301909152815191012090565b6066546001600160a01b03165b90565b6066546000906001600160a01b0316612d2461450a565b6001600160a01b031614905090565b60a85481565b7fd6342b4bfdf66164985c9f5fe235f643a035ee12f507d7bd0f8c89e07e790f6881565b60a25490565b60a45460609060026000196101006001841615020190911604612ec057609a60009054906101000a90046001600160a01b03166001600160a01b031663cec410526040518163ffffffff1660e01b815260040160006040518083038186803b158015612dce57600080fd5b505afa158015612de2573d6000803e3d6000fd5b505050506040513d6000823e601f3d908101601f191682016040526020811015612e0b57600080fd5b8101908080516040519392919084600160201b821115612e2a57600080fd5b908301906020820185811115612e3f57600080fd5b8251600160201b811182820188101715612e5857600080fd5b82525081516020918201929091019080838360005b83811015612e85578181015183820152602001612e6d565b50505050905090810190601f168015612eb25780820380516001836020036101000a031916815260200191505b506040525050509050612d0a565b60a4805460408051602060026001851615610100026000190190941693909304601f81018490048402820184019092528181529291830182828015612f465780601f10612f1b57610100808354040283529160200191612f46565b820191906000526020600020905b815481529060010190602001808311612f2957829003601f168201915b50505050509050612d0a565b600081612f5e81612742565b612f9f576040805162461bcd60e51b815260206004820152600d60248201526c12d15657d393d517d590531251609a1b604482015290519081900360640190fd5b50506001600160a01b0316600090815260a0602052604090205490565b600091825260a16020526040909120546001600160a01b0391821691161490565b6099546001600160a01b031681565b612ff4612d0d565b612ffd57600080fd5b8061300781612742565b613048576040805162461bcd60e51b815260206004820152600d60248201526c12d15657d393d517d590531251609a1b604482015290519081900360640190fd5b6001600160a01b038216600090815260a060205260408082204260018201558054915190927f59f2fe866dd27a1c2d34115520888c3150365cbc931aab97fa88c4b9ab40b79591a2505050565b609954600160a01b900460ff166130e5576040805162461bcd60e51b815260206004820152600f60248201526e1313d0d2d7d11154149150d0551151608a1b604482015290519081900360640190fd5b6001600160a01b038216331415613132576040805162461bcd60e51b815260206004820152600c60248201526b20a8282927ab22afa9a2a62360a11b604482015290519081900360640190fd5b33600081815260a7602090815260408083206001600160a01b03871680855290835292819020805460ff1916861515908117909155815190815290519293927f17307eab39ab6107e8899845ad3d59bd9653f200f220920489ca2b5937696c31929181900390910190a35050565b60ac5481565b6131ae612d0d565b6131b757600080fd5b609954600160a01b900460ff1615613206576040805162461bcd60e51b815260206004820152600d60248201526c111254d050931157d1925494d5609a1b604482015290519081900360640190fd5b6040805130318152905133917fa053f2a7eceda47dde76e5939c5adf7b771e665fc84c8ef6feffc290a1eb1feb919081900360200190a260995461325d906001600160a01b031633613258823061398f565b61450e565b33ff5b6001600160a01b038116600090815260a0602052604081206001015482906132c5576040805162461bcd60e51b81526020600482015260136024820152724841535f4e455645525f4f574e45445f4b455960681b604482015290519081900360640190fd5b50506001600160a01b0316600090815260a0602052604090206001015490565b7f4d99da10ff5120f726d35edd8dbd417bbe55d90453b8432acd284e650ee2c6f081565b609954600160a01b900460ff16613359576040805162461bcd60e51b815260206004820152600f60248201526e1313d0d2d7d11154149150d0551151608a1b604482015290519081900360640190fd5b816133648133612fbc565b8061337457506133748133613c53565b8061339c5750600081815260a1602052604090205461339c906001600160a01b031633613a51565b6133ea576040805162461bcd60e51b815260206004820152601a60248201527913d3931657d2d15657d3d5d3915497d3d497d054141493d5915160321b604482015290519081900360640190fd5b600083815260a160205260409020546001600160a01b031661340b81612742565b61344c576040805162461bcd60e51b815260206004820152600d60248201526c12d15657d393d517d590531251609a1b604482015290519081900360640190fd5b613457868686611b31565b61346386868686614723565b6134b4576040805162461bcd60e51b815260206004820152601d60248201527f4e4f4e5f434f4d504c49414e545f4552433732315f5245434549564552000000604482015290519081900360640190fd5b505050505050565b826001600160a01b03166135176134db6134d68633612c99565b614856565b84848080601f0160208091040260200160405190810160405280939291908181526020018383808284376000920191909152506148a792505050565b6001600160a01b031614613566576040805162461bcd60e51b8152602060048201526011602482015270494e56414c49445f5349474e415455524560781b604482015290519081900360640190fd5b6001600160a01b038316600090815260ad602052604081208054600101905561358e84613c74565b905061359a8482613d7b565b50505050565b6135a8612d0d565b6135b157600080fd5b609954600160a01b900460ff16613601576040805162461bcd60e51b815260206004820152600f60248201526e1313d0d2d7d11154149150d0551151608a1b604482015290519081900360640190fd5b6040517f25a311358326fb18c62efc24bc28d3126acee8d2a67fd8b2145b757dc8bd1bc190600090a16099805460ff60a01b19169055565b609980546001600160a01b0319166001600160a01b03831690811790915515806136c757506000816001600160a01b03166318160ddd6040518163ffffffff1660e01b815260040160206040518083038186803b15801561369957600080fd5b505afa1580156136ad573d6000803e3d6000fd5b505050506040513d60208110156136c357600080fd5b5051115b611b2e576040805162461bcd60e51b815260206004820152600d60248201526c24a72b20a624a22faa27a5a2a760991b604482015290519081900360640190fd5b600081815260a1602052604090205460609082906001600160a01b0316613764576040805162461bcd60e51b815260206004820152600b60248201526a4e4f5f535543485f4b455960a81b604482015290519081900360640190fd5b60a554606090600260001961010060018416150201909116046138c157609a60009054906101000a90046001600160a01b03166001600160a01b031663a998e9fb6040518163ffffffff1660e01b815260040160006040518083038186803b1580156137cf57600080fd5b505afa1580156137e3573d6000803e3d6000fd5b505050506040513d6000823e601f3d908101601f19168201604052602081101561380c57600080fd5b8101908080516040519392919084600160201b82111561382b57600080fd5b90830190602082018581111561384057600080fd5b8251600160201b81118282018810171561385957600080fd5b82525081516020918201929091019080838360005b8381101561388657818101518382015260200161386e565b50505050905090810190601f1680156138b35780820380516001836020036101000a031916815260200191505b50604052505050905061394f565b60a5805460408051602060026001851615610100026000190190941693909304601f810184900484028201840190925281815292918301828280156139475780601f1061391c57610100808354040283529160200191613947565b820191906000526020600020905b81548152906001019060200180831161392a57829003601f168201915b505050505090505b6124428161395c306125ab565b604051806040016040528060018152602001602f60f81b81525061397f8861245c565b612293565b600590565b60a95481565b60006001600160a01b0383166139b057506001600160a01b0381163161169d565b826001600160a01b03166370a08231836040518263ffffffff1660e01b815260040180826001600160a01b03166001600160a01b0316815260200191505060206040518083038186803b158015613a0657600080fd5b505afa158015613a1a573d6000803e3d6000fd5b505050506040513d6020811015613a3057600080fd5b5051905061169d565b731820a4b7618bde71dce8cdc73aab6c95905fad2481565b6001600160a01b03918216600090815260a76020908152604080832093909416825291909152205460ff1690565b613a87612d0d565b613a9057600080fd5b611b2e81614995565b613aa1612cfd565b6001600160a01b0316336001600160a01b03161480613aca5750609f546001600160a01b031633145b613b1b576040805162461bcd60e51b815260206004820152601e60248201527f4f4e4c595f4c4f434b5f4f574e45525f4f525f42454e45464943494152590000604482015290519081900360640190fd5b6000613b27833061398f565b90506000821580613b3757508183115b15613b8b5760008211613b84576040805162461bcd60e51b815260206004820152601060248201526f4e4f545f454e4f5547485f46554e445360801b604482015290519081900360640190fd5b5080613b8e565b50815b609f546040805183815290516001600160a01b039283169287169133917f342e7ff505a8a0364cd0dc2ff195c315e43bce86b204846ecd36913e117b109e9181900360200190a4609f5461359a9085906001600160a01b03168361450e565b613bf5612d0d565b613bfe57600080fd5b81613c0881612742565b613c49576040805162461bcd60e51b815260206004820152600d60248201526c12d15657d393d517d590531251609a1b604482015290519081900360640190fd5b611e1e8383613d7b565b600091825260a66020526040909120546001600160a01b0391821691161490565b600081613c8081612742565b613cc1576040805162461bcd60e51b815260206004820152600d60248201526c12d15657d393d517d590531251609a1b604482015290519081900360640190fd5b6001600160a01b038316600090815260a0602052604090206001810154609b5460ac544290920391820110613cfa57609c549350613d1b565b609b54609c54613d10908363ffffffff6144e316565b81613d1757fe5b0493505b60ac541580613d2f5750609b5460ac548201105b15613d7357600060ab54613d5060aa54609c546144e390919063ffffffff16565b81613d5757fe5b04905080851115613d6c578085039450613d71565b600094505b505b505050919050565b6001600160a01b038216600081815260a0602090815260409182902080548351868152935191943394909391927f0a7068a9989857441c039a14a42b67ed71dd1fcfe5a9b17cc87b252e47bce528929181900390910190a44260018201558115613df657609954613df6906001600160a01b0316848461450e565b611e1e8383614a04565b600081815260a160205260409020546001600160a01b03838116911614613e845760a28054600181019091557faaf4f58de99300cfadc4585755f376d5fa747d5bc561d5bd9d710de1f91bf42d0180546001600160a01b0384166001600160a01b03199182168117909255600083815260a160205260409020805490911690911790555b5050565b600082820183811015611dfa57600080fd5b600081815260a660205260409020546001600160a01b031615611b2e57600090815260a66020526040902080546001600160a01b0319169055565b60008115611589576099546001600160a01b0316613f3c5781341015613f35576040805162461bcd60e51b815260206004820152601060248201526f4e4f545f454e4f5547485f46554e445360801b604482015290519081900360640190fd5b5034611589565b609954604080516370a0823160e01b815230600482015290516001600160a01b039092169160009183916370a0823191602480820192602092909190829003018186803b158015613f8c57600080fd5b505afa158015613fa0573d6000803e3d6000fd5b505050506040513d6020811015613fb657600080fd5b5051604080516323b872dd60e01b81523360048201523060248201526044810187905290519192506001600160a01b038416916323b872dd916064808201926020929091908290030181600087803b15801561401157600080fd5b505af1158015614025573d6000803e3d6000fd5b505050506040513d602081101561403b57600080fd5b5050604080516370a0823160e01b8152306004820152905182916001600160a01b038516916370a0823191602480820192602092909190829003018186803b15801561408657600080fd5b505afa15801561409a573d6000803e3d6000fd5b505050506040513d60208110156140b057600080fd5b5051116140f6576040805162461bcd60e51b815260206004820152600f60248201526e1514905394d1915497d19052531151608a1b604482015290519081900360640190fd5b8392505050611589565b8054611b2e57609e8054600101908190559055565b609f546040805163555ddc6560e11b81526001600160a01b0390921660048301527f4d99da10ff5120f726d35edd8dbd417bbe55d90453b8432acd284e650ee2c6f0602483015251600091731820a4b7618bde71dce8cdc73aab6c95905fad249163aabbb8ca91604480820192602092909190829003018186803b15801561419c57600080fd5b505afa1580156141b0573d6000803e3d6000fd5b505050506040513d60208110156141c657600080fd5b505190506001600160a01b03811615612b1957604051638d0f092560e01b815233600482018181526001600160a01b03888116602485015287811660448501526064840187905260a060848501908152865160a4860152865191861694638d0f092594938b938b938b938b939260c490910190602085019080838360005b8381101561425c578181015183820152602001614244565b50505050905090810190601f1680156142895780820380516001836020036101000a031916815260200191505b509650505050505050600060405180830381600087803b1580156142ac57600080fd5b505af11580156121a4573d6000803e3d6000fd5b303b1590565b600054610100900460ff16806142df57506142df6142c0565b806142ed575060005460ff16155b6143285760405162461bcd60e51b815260040180806020018281038252602e815260200180614cee602e913960400191505060405180910390fd5b600054610100900460ff16158015614353576000805460ff1961ff0019909116610100171660011790555b606680546001600160a01b0319166001600160a01b0384811691909117918290556040519116906000907f8be0079c531659141344cd1fd0a4f28419497f9722a3daafe3b4186f6b6457e0908290a38015613e84576000805461ff00191690555050565b6099805460ff60a01b1916600160a01b179055565b63bbf81e00831115614425576040805162461bcd60e51b815260206004820152601860248201527f4d41585f45585049524154494f4e5f3130305f59454152530000000000000000604482015290519081900360640190fd5b609a8054336001600160a01b031991821617909155609f80549091166001600160a01b039590951694909417909355609b91909155609c55609d55565b61446a614b34565b805161447d9060a3906020840190614c65565b50611b2e635b5e139f60e01b6144a7565b61449e63780e9d6360e01b6144a7565b565b606460a955565b6001600160e01b031980821614156144be57600080fd5b6001600160e01b0319166000908152603360205260409020805460ff19166001179055565b6000826144f25750600061169d565b828202828482816144ff57fe5b0414611dfa57600080fd5b3390565b8015611e1e576001600160a01b03831661455e576040516001600160a01b0383169082156108fc029083906000818181858888f19350505050158015614558573d6000803e3d6000fd5b50611e1e565b60008390506000816001600160a01b03166370a08231856040518263ffffffff1660e01b815260040180826001600160a01b03166001600160a01b0316815260200191505060206040518083038186803b1580156145bb57600080fd5b505afa1580156145cf573d6000803e3d6000fd5b505050506040513d60208110156145e557600080fd5b50516040805163a9059cbb60e01b81526001600160a01b0387811660048301526024820187905291519293509084169163a9059cbb916044808201926020929091908290030181600087803b15801561463d57600080fd5b505af1158015614651573d6000803e3d6000fd5b505050506040513d602081101561466757600080fd5b5050604080516370a0823160e01b81526001600160a01b038681166004830152915183928516916370a08231916024808301926020929190829003018186803b1580156146b357600080fd5b505afa1580156146c7573d6000803e3d6000fd5b505050506040513d60208110156146dd57600080fd5b505111612b19576040805162461bcd60e51b815260206004820152600f60248201526e1514905394d1915497d19052531151608a1b604482015290519081900360640190fd5b6000614737846001600160a01b0316614be5565b61474357506001612442565b604051630a85bd0160e11b815233600482018181526001600160a01b03888116602485015260448401879052608060648501908152865160848601528651600095928a169463150b7a029490938c938b938b939260a4019060208501908083838e5b838110156147bd5781810151838201526020016147a5565b50505050905090810190601f1680156147ea5780820380516001836020036101000a031916815260200191505b5095505050505050602060405180830381600087803b15801561480c57600080fd5b505af1158015614820573d6000803e3d6000fd5b505050506040513d602081101561483657600080fd5b50516001600160e01b031916630a85bd0160e11b14915050949350505050565b604080517f19457468657265756d205369676e6564204d6573736167653a0a333200000000602080830191909152603c8083019490945282518083039094018452605c909101909152815191012090565b600081516041146148ba5750600061169d565b60208201516040830151606084015160001a7f7fffffffffffffffffffffffffffffff5d576e7357a4501ddfe92f46681b20a0821115614900576000935050505061169d565b8060ff16601b1415801561491857508060ff16601c14155b15614929576000935050505061169d565b6040805160008152602080820180845289905260ff8416828401526060820186905260808201859052915160019260a0808401939192601f1981019281900390910190855afa158015614980573d6000803e3d6000fd5b5050604051601f190151979650505050505050565b6001600160a01b0381166149a857600080fd5b6066546040516001600160a01b038084169216907f8be0079c531659141344cd1fd0a4f28419497f9722a3daafe3b4186f6b6457e090600090a3606680546001600160a01b0319166001600160a01b0392909216919091179055565b609f546040805163555ddc6560e11b81526001600160a01b0390921660048301527fd6342b4bfdf66164985c9f5fe235f643a035ee12f507d7bd0f8c89e07e790f68602483015251600091731820a4b7618bde71dce8cdc73aab6c95905fad249163aabbb8ca91604480820192602092909190829003018186803b158015614a8b57600080fd5b505afa158015614a9f573d6000803e3d6000fd5b505050506040513d6020811015614ab557600080fd5b505190506001600160a01b03811615611e1e576040805163c9877d7b60e01b81523360048201526001600160a01b0385811660248301526044820185905291519183169163c9877d7b9160648082019260009290919082900301818387803b158015614b2057600080fd5b505af1158015612858573d6000803e3d6000fd5b600054610100900460ff1680614b4d5750614b4d6142c0565b80614b5b575060005460ff16155b614b965760405162461bcd60e51b815260040180806020018281038252602e815260200180614cee602e913960400191505060405180910390fd5b600054610100900460ff16158015614bc1576000805460ff1961ff0019909116610100171660011790555b614bd16301ffc9a760e01b6144a7565b8015611b2e576000805461ff001916905550565b3b151590565b828054600181600116156101000203166002900490600052602060002090601f016020900481019282601f10614c2c5782800160ff19823516178555614c59565b82800160010185558215614c59579182015b82811115614c59578235825591602001919060010190614c3e565b50612567929150614cd3565b828054600181600116156101000203166002900490600052602060002090601f016020900481019282601f10614ca657805160ff1916838001178555614c59565b82800160010185558215614c59579182015b82811115614c59578251825591602001919060010190614cb8565b612d0a91905b808211156125675760008155600101614cd956fe436f6e747261637420696e7374616e63652068617320616c7265616479206265656e20696e697469616c697a6564a265627a7a72315820ae2fd1ea5d0554f83e1f8876401f2c11265312fa3694fbc73c6937e98f6f556764736f6c634300050b0032",
  "source": "pragma solidity 0.5.11;\n\nimport './interfaces/IERC721.sol';\nimport './interfaces/IERC721Enumerable.sol';\nimport '@openzeppelin/contracts-ethereum-package/contracts/ownership/Ownable.sol';\nimport '@openzeppelin/contracts-ethereum-package/contracts/introspection/ERC165.sol';\nimport '@openzeppelin/upgrades/contracts/Initializable.sol';\nimport './mixins/MixinApproval.sol';\nimport './mixins/MixinDisableAndDestroy.sol';\nimport './mixins/MixinERC721Enumerable.sol';\nimport './mixins/MixinEventHooks.sol';\nimport './mixins/MixinFunds.sol';\nimport './mixins/MixinGrantKeys.sol';\nimport './mixins/MixinKeys.sol';\nimport './mixins/MixinLockCore.sol';\nimport './mixins/MixinLockMetadata.sol';\nimport './mixins/MixinPurchase.sol';\nimport './mixins/MixinRefunds.sol';\nimport './mixins/MixinTransfer.sol';\n\n/**\n * @title The Lock contract\n * @author Julien Genestoux (unlock-protocol.com)\n * @dev ERC165 allows our contract to be queried to determine whether it implements a given interface.\n * Every ERC-721 compliant contract must implement the ERC165 interface.\n * https://eips.ethereum.org/EIPS/eip-721\n */\ncontract PublicLock is\n  IERC721Enumerable,\n  IERC721,\n  Initializable,\n  ERC165,\n  Ownable,\n  MixinFunds,\n  MixinDisableAndDestroy,\n  MixinLockCore,\n  MixinKeys,\n  MixinLockMetadata,\n  MixinERC721Enumerable,\n  MixinEventHooks,\n  MixinGrantKeys,\n  MixinPurchase,\n  MixinApproval,\n  MixinTransfer,\n  MixinRefunds\n{\n  function initialize(\n    address _owner,\n    uint _expirationDuration,\n    address _tokenAddress,\n    uint _keyPrice,\n    uint _maxNumberOfKeys,\n    string memory _lockName\n  ) public\n    initializer()\n  {\n    Ownable.initialize(_owner);\n    MixinFunds.initialize(_tokenAddress);\n    MixinDisableAndDestroy.initialize();\n    MixinLockCore.initialize(_owner, _expirationDuration, _keyPrice, _maxNumberOfKeys);\n    MixinLockMetadata.initialize(_lockName);\n    MixinERC721Enumerable.initialize();\n    MixinTransfer.initialize();\n    MixinRefunds.initialize();\n    // registering the interface for erc721 with ERC165.sol using\n    // the ID specified in the standard: https://eips.ethereum.org/EIPS/eip-721\n    _registerInterface(0x80ac58cd);\n  }\n\n  // The version number of the current implementation on this network\n  function publicLockVersion(\n  ) external pure\n    returns (uint16)\n  {\n    return 5;\n  }\n}\n",
  "sourcePath": "/Users/julien/repos/unlock/smart-contracts/contracts/PublicLock.sol",
  "compiler": {
    "name": "solc",
    "version": "0.5.11+commit.c082d0b4.Emscripten.clang"
  },
  "schemaVersion": "3.0.16",
  "updatedAt": "2019-09-24T15:57:15.384Z",
  "devdoc": {
    "author": "Julien Genestoux (unlock-protocol.com)",
    "details": "ERC165 allows our contract to be queried to determine whether it implements a given interface. Every ERC-721 compliant contract must implement the ERC165 interface. https://eips.ethereum.org/EIPS/eip-721",
    "methods": {
      "balanceOf(address)": {
        "return": "The number of NFTs owned by `_owner`, either 0 or 1."
      },
      "cancelAndRefund()": {
        "details": "Destroys the user's key and sends a refund based on the amount of time remaining."
      },
      "cancelAndRefundFor(address,bytes)": {
        "details": "Cancels a key owned by a different user and sends the funds to the msg.sender.",
        "params": {
          "_keyOwner": "this user's key will be canceled",
          "_signature": "getCancelAndRefundApprovalHash signed by the _keyOwner"
        }
      },
      "destroyLock()": {
        "details": "Used to clean up old lock contracts from the blockchain TODO: add a check to ensure all keys are INVALID!"
      },
      "disableLock()": {
        "details": "Used to disable lock before migrating keys and/or destroying contract"
      },
      "fullRefund(address,uint256)": {
        "details": "Invoked by the lock owner to destroy the user's ket and perform a refund and cancellation of the key"
      },
      "getCancelAndRefundApprovalHash(address,address)": {
        "details": "returns the hash to sign in order to allow another user to cancel on your behalf."
      },
      "getCancelAndRefundValueFor(address)": {
        "details": "Determines how much of a refund a key owner would receive if they issued a cancelAndRefund block.timestamp. Note that due to the time required to mine a tx, the actual refund amount will be lower than what the user reads from this call."
      },
      "getOwnersByPage(uint256,uint256)": {
        "params": {
          "_page": "the page of key owners requested when faceted by page size",
          "_pageSize": "the number of Key Owners requested per page"
        }
      },
      "getTokenIdFor(address)": {
        "return": "The tokenId of the NFT, else revert"
      },
      "getTransferFee(address)": {
        "params": {
          "_owner": "The owner of the key check the transfer fee for."
        }
      },
      "invalidateApprovalToCancelKey()": {
        "details": "Increments the current nonce for the msg.sender. This can be used to invalidate a previously signed message."
      },
      "isApprovedForAll(address,address)": {
        "details": "Tells whether an operator is approved by a given owner",
        "params": {
          "_operator": "operator address which you want to query the approval of",
          "_owner": "owner address which you want to query the approval of"
        },
        "return": "bool whether the given operator is approved by the given owner"
      },
      "isOwner()": {
        "return": "true if `msg.sender` is the owner of the contract."
      },
      "keyExpirationTimestampFor(address)": {
        "details": "Returns the key's ExpirationTimestamp field for a given owner.",
        "params": {
          "_owner": "address of the user for whom we search the key"
        }
      },
      "owner()": {
        "return": "the address of the owner."
      },
      "purchase(address,address,bytes)": {
        "details": "Purchase function",
        "params": {
          "_data": "arbitrary data populated by the front-end which initiated the sale",
          "_recipient": "address of the recipient of the purchased key",
          "_referrer": "address of the user making the referral"
        }
      },
      "renounceOwnership()": {
        "details": "Allows the current owner to relinquish control of the contract. It will not be possible to call the functions with the `onlyOwner` modifier anymore."
      },
      "safeTransferFrom(address,address,uint256)": {
        "details": "This works identically to the other function with an extra data parameter, except this function just sets data to ''",
        "params": {
          "_from": "The current owner of the NFT",
          "_to": "The new owner",
          "_tokenId": "The NFT to transfer"
        }
      },
      "safeTransferFrom(address,address,uint256,bytes)": {
        "params": {
          "_data": "Additional data with no specified format, sent in call to `_to`",
          "_from": "The current owner of the NFT",
          "_to": "The new owner",
          "_tokenId": "The NFT to transfer"
        }
      },
      "setApprovalForAll(address,bool)": {
        "details": "Sets or unsets the approval of a given operator An operator is allowed to transfer all tokens of the sender on their behalf",
        "params": {
          "_approved": "representing the status of the approval to be set",
          "_to": "operator address to set the approval"
        }
      },
      "supportsInterface(bytes4)": {
        "details": "implement supportsInterface(bytes4) using a lookup table"
      },
      "symbol()": {
        "details": "Gets the token symbol",
        "return": "string representing the token name"
      },
      "tokenByIndex(uint256)": {
        "details": "Throws if `_index` >= `totalSupply()`.",
        "params": {
          "_index": "A counter less than `totalSupply()`"
        },
        "return": "The token identifier for the `_index`th NFT,  (sort order not specified)"
      },
      "tokenOfOwnerByIndex(address,uint256)": {
        "details": "Throws if `_index` >= `balanceOf(_owner)` or if  `_owner` is the zero address, representing invalid NFTs.",
        "params": {
          "_index": "A counter less than `balanceOf(_owner)`",
          "_owner": "An address where we are interested in NFTs owned by them"
        },
        "return": "The token identifier for the `_index`th NFT assigned to `_owner`,   (sort order not specified)"
      },
      "tokenURI(uint256)": {
        "details": "Throws if `_tokenId` is not a valid NFT. URIs are defined in RFC 3986. The URI may point to a JSON file that conforms to the \"ERC721 Metadata JSON Schema\". https://github.com/ethereum/EIPs/blob/master/EIPS/eip-721.md"
      },
      "transferOwnership(address)": {
        "details": "Allows the current owner to transfer control of the contract to a newOwner.",
        "params": {
          "newOwner": "The address to transfer ownership to."
        }
      },
      "withdraw(address,uint256)": {
        "details": "Called by owner to withdraw all funds from the lock and send them to the `beneficiary`.",
        "params": {
          "_amount": "specifies the max amount to withdraw, which may be reduced when considering the available balance. Set to 0 or MAX_UINT to withdraw everything.   * TODO: consider allowing anybody to trigger this as long as it goes to owner anyway? -- however be wary of draining funds as it breaks the `cancelAndRefund` and `fullRefund` use cases.",
          "_tokenAddress": "specifies the token address to withdraw or 0 for ETH. This is usually the same as `tokenAddress` in MixinFunds."
        }
      }
    },
    "title": "The Lock contract"
  },
  "userdoc": {
    "methods": {
      "approve(address,uint256)": {
        "notice": "This approves _approved to get ownership of _tokenId. Note: that since this is used for both purchase and transfer approvals the approved token may not exist."
      },
      "balanceOf(address)": {
        "notice": "In the specific case of a Lock, each owner can own only at most 1 key."
      },
      "expireKeyFor(address)": {
        "notice": "A function which lets the owner of the lock expire a users' key."
      },
      "getApproved(uint256)": {
        "notice": "Will return the approved recipient for a key, if any."
      },
      "getBalance(address,address)": {
        "notice": "Gets the current balance of the account provided."
      },
      "getHasValidKey(address)": {
        "notice": "Checks if the user has a non-expired key."
      },
      "getOwnersByPage(uint256,uint256)": {
        "notice": "A function which returns a subset of the keys for this Lock as an array"
      },
      "getTokenIdFor(address)": {
        "notice": "Find the tokenId for a given user"
      },
      "getTransferFee(address)": {
        "notice": "Determines how much of a fee a key owner would need to pay in order to transfer the key to another account.  This is pro-rated so the fee goes down overtime."
      },
      "grantKeys(address[],uint256[])": {
        "notice": "Allows the Lock owner to give a collection of users a key with no charge. Each key may be assigned a different expiration date."
      },
      "isKeyOwner(uint256,address)": {
        "notice": "Checks if the given address owns the given tokenId."
      },
      "numberOfOwners()": {
        "notice": "Public function which returns the total number of unique owners (both expired and valid).  This may be larger than totalSupply."
      },
      "renounceOwnership()": {
        "notice": "Renouncing ownership will leave the contract without an owner, thereby removing any functionality that is only available to the owner."
      },
      "safeTransferFrom(address,address,uint256)": {
        "notice": "Transfers the ownership of an NFT from one address to another address"
      },
      "safeTransferFrom(address,address,uint256,bytes)": {
        "notice": "Transfers the ownership of an NFT from one address to another address. When transfer is complete, this functions checks if `_to` is a smart contract (code size > 0). If so, it calls `onERC721Received` on `_to` and throws if the return value is not `bytes4(keccak256('onERC721Received(address,address,uint,bytes)'))`."
      },
      "setBaseTokenURI(string)": {
        "notice": "Allows the Lock owner to update the baseTokenURI for this Lock."
      },
      "tokenByIndex(uint256)": {
        "notice": "Enumerate valid NFTs"
      },
      "tokenOfOwnerByIndex(address,uint256)": {
        "notice": "Enumerate NFTs assigned to an owner"
      },
      "tokenURI(uint256)": {
        "notice": "A distinct Uniform Resource Identifier (URI) for a given asset."
      },
      "transferFrom(address,address,uint256)": {
        "notice": "This is payable because at some point we want to allow the LOCK to capture a fee on 2ndary market transactions..."
      },
      "updateBeneficiary(address)": {
        "notice": "A function which lets the owner of the lock update the beneficiary account, which receives funds on withdrawal."
      },
      "updateKeyPrice(uint256)": {
        "notice": "A function which lets the owner of the lock to change the price for future purchases."
      },
      "updateLockName(string)": {
        "notice": "Allows the Lock owner to assign a descriptive name for this Lock."
      },
      "updateLockSymbol(string)": {
        "notice": "Allows the Lock owner to assign a Symbol for this Lock."
      },
      "updateRefundPenalty(uint256,uint256,uint256)": {
        "notice": "Allow the owner to change the refund penalty."
      },
      "updateTransferFee(uint256,uint256)": {
        "notice": "Allow the Lock owner to change the transfer fee."
      }
    }
  }
}