{
  "contractName": "PublicLock",
  "abi": [
    {
      "anonymous": false,
      "inputs": [
        {
          "indexed": true,
          "internalType": "address",
          "name": "_owner",
          "type": "address"
        },
        {
          "indexed": true,
          "internalType": "address",
          "name": "_approved",
          "type": "address"
        },
        {
          "indexed": true,
          "internalType": "uint256",
          "name": "_tokenId",
          "type": "uint256"
        }
      ],
      "name": "Approval",
      "type": "event"
    },
    {
      "anonymous": false,
      "inputs": [
        {
          "indexed": true,
          "internalType": "address",
          "name": "_owner",
          "type": "address"
        },
        {
          "indexed": true,
          "internalType": "address",
          "name": "_operator",
          "type": "address"
        },
        {
          "indexed": false,
          "internalType": "bool",
          "name": "_approved",
          "type": "bool"
        }
      ],
      "name": "ApprovalForAll",
      "type": "event"
    },
    {
      "anonymous": false,
      "inputs": [
        {
          "indexed": true,
          "internalType": "uint256",
          "name": "tokenId",
          "type": "uint256"
        },
        {
          "indexed": true,
          "internalType": "address",
          "name": "owner",
          "type": "address"
        },
        {
          "indexed": true,
          "internalType": "address",
          "name": "sendTo",
          "type": "address"
        },
        {
          "indexed": false,
          "internalType": "uint256",
          "name": "refund",
          "type": "uint256"
        }
      ],
      "name": "CancelKey",
      "type": "event"
    },
    {
      "anonymous": false,
      "inputs": [
        {
          "indexed": false,
          "internalType": "uint256",
          "name": "balance",
          "type": "uint256"
        },
        {
          "indexed": true,
          "internalType": "address",
          "name": "owner",
          "type": "address"
        }
      ],
      "name": "Destroy",
      "type": "event"
    },
    {
      "anonymous": false,
      "inputs": [],
      "name": "Disable",
      "type": "event"
    },
    {
      "anonymous": false,
      "inputs": [
        {
          "indexed": true,
          "internalType": "uint256",
          "name": "tokenId",
          "type": "uint256"
        }
      ],
      "name": "ExpireKey",
      "type": "event"
    },
    {
      "anonymous": false,
      "inputs": [
        {
          "indexed": false,
          "internalType": "string",
          "name": "symbol",
          "type": "string"
        }
      ],
      "name": "NewLockSymbol",
      "type": "event"
    },
    {
      "anonymous": false,
      "inputs": [
        {
          "indexed": true,
          "internalType": "address",
          "name": "previousOwner",
          "type": "address"
        },
        {
          "indexed": true,
          "internalType": "address",
          "name": "newOwner",
          "type": "address"
        }
      ],
      "name": "OwnershipTransferred",
      "type": "event"
    },
    {
      "anonymous": false,
      "inputs": [
        {
          "indexed": false,
          "internalType": "uint256",
          "name": "oldKeyPrice",
          "type": "uint256"
        },
        {
          "indexed": false,
          "internalType": "uint256",
          "name": "keyPrice",
          "type": "uint256"
        }
      ],
      "name": "PriceChanged",
      "type": "event"
    },
    {
      "anonymous": false,
      "inputs": [
        {
          "indexed": false,
          "internalType": "uint256",
          "name": "freeTrialLength",
          "type": "uint256"
        },
        {
          "indexed": false,
          "internalType": "uint256",
          "name": "refundPenaltyBasisPoints",
          "type": "uint256"
        }
      ],
      "name": "RefundPenaltyChanged",
      "type": "event"
    },
    {
      "anonymous": false,
      "inputs": [
        {
          "indexed": true,
          "internalType": "uint256",
          "name": "_tokenId",
          "type": "uint256"
        },
        {
          "indexed": false,
          "internalType": "uint256",
          "name": "_amount",
          "type": "uint256"
        },
        {
          "indexed": false,
          "internalType": "bool",
          "name": "_timeAdded",
          "type": "bool"
        }
      ],
      "name": "TimestampChanged",
      "type": "event"
    },
    {
      "anonymous": false,
      "inputs": [
        {
          "indexed": true,
          "internalType": "address",
          "name": "_from",
          "type": "address"
        },
        {
          "indexed": true,
          "internalType": "address",
          "name": "_to",
          "type": "address"
        },
        {
          "indexed": true,
          "internalType": "uint256",
          "name": "_tokenId",
          "type": "uint256"
        }
      ],
      "name": "Transfer",
      "type": "event"
    },
    {
      "anonymous": false,
      "inputs": [
        {
          "indexed": false,
          "internalType": "uint256",
          "name": "transferFeeBasisPoints",
          "type": "uint256"
        }
      ],
      "name": "TransferFeeChanged",
      "type": "event"
    },
    {
      "anonymous": false,
      "inputs": [
        {
          "indexed": true,
          "internalType": "address",
          "name": "sender",
          "type": "address"
        },
        {
          "indexed": true,
          "internalType": "address",
          "name": "tokenAddress",
          "type": "address"
        },
        {
          "indexed": true,
          "internalType": "address",
          "name": "beneficiary",
          "type": "address"
        },
        {
          "indexed": false,
          "internalType": "uint256",
          "name": "amount",
          "type": "uint256"
        }
      ],
      "name": "Withdrawal",
      "type": "event"
    },
    {
      "constant": true,
      "inputs": [],
      "name": "BASIS_POINTS_DEN",
      "outputs": [
        {
          "internalType": "uint256",
          "name": "",
          "type": "uint256"
        }
      ],
      "payable": false,
      "stateMutability": "view",
      "type": "function"
    },
    {
      "constant": true,
      "inputs": [
        {
          "internalType": "address",
          "name": "_addr",
          "type": "address"
        }
      ],
      "name": "address2Str",
      "outputs": [
        {
          "internalType": "string",
          "name": "",
          "type": "string"
        }
      ],
      "payable": false,
      "stateMutability": "pure",
      "type": "function"
    },
    {
      "constant": false,
      "inputs": [
        {
          "internalType": "address",
          "name": "_approved",
          "type": "address"
        },
        {
          "internalType": "uint256",
          "name": "_tokenId",
          "type": "uint256"
        }
      ],
      "name": "approve",
      "outputs": [],
      "payable": true,
      "stateMutability": "payable",
      "type": "function"
    },
    {
      "constant": true,
      "inputs": [
        {
          "internalType": "address",
          "name": "_owner",
          "type": "address"
        }
      ],
      "name": "balanceOf",
      "outputs": [
        {
          "internalType": "uint256",
          "name": "",
          "type": "uint256"
        }
      ],
      "payable": false,
      "stateMutability": "view",
      "type": "function"
    },
    {
      "constant": true,
      "inputs": [],
      "name": "beneficiary",
      "outputs": [
        {
          "internalType": "address",
          "name": "",
          "type": "address"
        }
      ],
      "payable": false,
      "stateMutability": "view",
      "type": "function"
    },
    {
      "constant": false,
      "inputs": [],
      "name": "cancelAndRefund",
      "outputs": [],
      "payable": false,
      "stateMutability": "nonpayable",
      "type": "function"
    },
    {
      "constant": false,
      "inputs": [
        {
          "internalType": "address",
          "name": "_keyOwner",
          "type": "address"
        },
        {
          "internalType": "bytes",
          "name": "_signature",
          "type": "bytes"
        }
      ],
      "name": "cancelAndRefundFor",
      "outputs": [],
      "payable": false,
      "stateMutability": "nonpayable",
      "type": "function"
    },
    {
      "constant": false,
      "inputs": [],
      "name": "destroyLock",
      "outputs": [],
      "payable": false,
      "stateMutability": "nonpayable",
      "type": "function"
    },
    {
      "constant": false,
      "inputs": [],
      "name": "disableLock",
      "outputs": [],
      "payable": false,
      "stateMutability": "nonpayable",
      "type": "function"
    },
    {
      "constant": true,
      "inputs": [],
      "name": "erc1820",
      "outputs": [
        {
          "internalType": "contract IERC1820Registry",
          "name": "",
          "type": "address"
        }
      ],
      "payable": false,
      "stateMutability": "view",
      "type": "function"
    },
    {
      "constant": true,
      "inputs": [],
      "name": "expirationDuration",
      "outputs": [
        {
          "internalType": "uint256",
          "name": "",
          "type": "uint256"
        }
      ],
      "payable": false,
      "stateMutability": "view",
      "type": "function"
    },
    {
      "constant": false,
      "inputs": [
        {
          "internalType": "address",
          "name": "_owner",
          "type": "address"
        }
      ],
      "name": "expireKeyFor",
      "outputs": [],
      "payable": false,
      "stateMutability": "nonpayable",
      "type": "function"
    },
    {
      "constant": true,
      "inputs": [],
      "name": "freeTrialLength",
      "outputs": [
        {
          "internalType": "uint256",
          "name": "",
          "type": "uint256"
        }
      ],
      "payable": false,
      "stateMutability": "view",
      "type": "function"
    },
    {
      "constant": false,
      "inputs": [
        {
          "internalType": "address",
          "name": "_keyOwner",
          "type": "address"
        },
        {
          "internalType": "uint256",
          "name": "amount",
          "type": "uint256"
        }
      ],
      "name": "fullRefund",
      "outputs": [],
      "payable": false,
      "stateMutability": "nonpayable",
      "type": "function"
    },
    {
      "constant": true,
      "inputs": [
        {
          "internalType": "uint256",
          "name": "_tokenId",
          "type": "uint256"
        }
      ],
      "name": "getApproved",
      "outputs": [
        {
          "internalType": "address",
          "name": "",
          "type": "address"
        }
      ],
      "payable": false,
      "stateMutability": "view",
      "type": "function"
    },
    {
      "constant": true,
      "inputs": [
        {
          "internalType": "address",
          "name": "_tokenAddress",
          "type": "address"
        },
        {
          "internalType": "address",
          "name": "_account",
          "type": "address"
        }
      ],
      "name": "getBalance",
      "outputs": [
        {
          "internalType": "uint256",
          "name": "",
          "type": "uint256"
        }
      ],
      "payable": false,
      "stateMutability": "view",
      "type": "function"
    },
    {
      "constant": true,
      "inputs": [
        {
          "internalType": "address",
          "name": "_keyOwner",
          "type": "address"
        },
        {
          "internalType": "address",
          "name": "_txSender",
          "type": "address"
        }
      ],
      "name": "getCancelAndRefundApprovalHash",
      "outputs": [
        {
          "internalType": "bytes32",
          "name": "approvalHash",
          "type": "bytes32"
        }
      ],
      "payable": false,
      "stateMutability": "view",
      "type": "function"
    },
    {
      "constant": true,
      "inputs": [
        {
          "internalType": "address",
          "name": "_owner",
          "type": "address"
        }
      ],
      "name": "getCancelAndRefundValueFor",
      "outputs": [
        {
          "internalType": "uint256",
          "name": "refund",
          "type": "uint256"
        }
      ],
      "payable": false,
      "stateMutability": "view",
      "type": "function"
    },
    {
      "constant": true,
      "inputs": [
        {
          "internalType": "address",
          "name": "_owner",
          "type": "address"
        }
      ],
      "name": "getHasValidKey",
      "outputs": [
        {
          "internalType": "bool",
          "name": "",
          "type": "bool"
        }
      ],
      "payable": false,
      "stateMutability": "view",
      "type": "function"
    },
    {
      "constant": true,
      "inputs": [
        {
          "internalType": "uint256",
          "name": "_page",
          "type": "uint256"
        },
        {
          "internalType": "uint256",
          "name": "_pageSize",
          "type": "uint256"
        }
      ],
      "name": "getOwnersByPage",
      "outputs": [
        {
          "internalType": "address[]",
          "name": "",
          "type": "address[]"
        }
      ],
      "payable": false,
      "stateMutability": "view",
      "type": "function"
    },
    {
      "constant": true,
      "inputs": [
        {
          "internalType": "address",
          "name": "_account",
          "type": "address"
        }
      ],
      "name": "getTokenIdFor",
      "outputs": [
        {
          "internalType": "uint256",
          "name": "",
          "type": "uint256"
        }
      ],
      "payable": false,
      "stateMutability": "view",
      "type": "function"
    },
    {
      "constant": true,
      "inputs": [
        {
          "internalType": "address",
          "name": "_owner",
          "type": "address"
        },
        {
          "internalType": "uint256",
          "name": "_time",
          "type": "uint256"
        }
      ],
      "name": "getTransferFee",
      "outputs": [
        {
          "internalType": "uint256",
          "name": "",
          "type": "uint256"
        }
      ],
      "payable": false,
      "stateMutability": "view",
      "type": "function"
    },
    {
      "constant": false,
      "inputs": [
        {
          "internalType": "address[]",
          "name": "_recipients",
          "type": "address[]"
        },
        {
          "internalType": "uint256[]",
          "name": "_expirationTimestamps",
          "type": "uint256[]"
        }
      ],
      "name": "grantKeys",
      "outputs": [],
      "payable": false,
      "stateMutability": "nonpayable",
      "type": "function"
    },
    {
      "constant": false,
      "inputs": [],
      "name": "invalidateApprovalToCancelKey",
      "outputs": [],
      "payable": false,
      "stateMutability": "nonpayable",
      "type": "function"
    },
    {
      "constant": true,
      "inputs": [],
      "name": "isAlive",
      "outputs": [
        {
          "internalType": "bool",
          "name": "",
          "type": "bool"
        }
      ],
      "payable": false,
      "stateMutability": "view",
      "type": "function"
    },
    {
      "constant": true,
      "inputs": [
        {
          "internalType": "address",
          "name": "_owner",
          "type": "address"
        },
        {
          "internalType": "address",
          "name": "_operator",
          "type": "address"
        }
      ],
      "name": "isApprovedForAll",
      "outputs": [
        {
          "internalType": "bool",
          "name": "",
          "type": "bool"
        }
      ],
      "payable": false,
      "stateMutability": "view",
      "type": "function"
    },
    {
      "constant": true,
      "inputs": [
        {
          "internalType": "uint256",
          "name": "_tokenId",
          "type": "uint256"
        },
        {
          "internalType": "address",
          "name": "_owner",
          "type": "address"
        }
      ],
      "name": "isKeyOwner",
      "outputs": [
        {
          "internalType": "bool",
          "name": "",
          "type": "bool"
        }
      ],
      "payable": false,
      "stateMutability": "view",
      "type": "function"
    },
    {
      "constant": true,
      "inputs": [],
      "name": "isOwner",
      "outputs": [
        {
          "internalType": "bool",
          "name": "",
          "type": "bool"
        }
      ],
      "payable": false,
      "stateMutability": "view",
      "type": "function"
    },
    {
      "constant": true,
      "inputs": [],
      "name": "keyCancelInterfaceId",
      "outputs": [
        {
          "internalType": "bytes32",
          "name": "",
          "type": "bytes32"
        }
      ],
      "payable": false,
      "stateMutability": "view",
      "type": "function"
    },
    {
      "constant": true,
      "inputs": [
        {
          "internalType": "address",
          "name": "_owner",
          "type": "address"
        }
      ],
      "name": "keyExpirationTimestampFor",
      "outputs": [
        {
          "internalType": "uint256",
          "name": "timestamp",
          "type": "uint256"
        }
      ],
      "payable": false,
      "stateMutability": "view",
      "type": "function"
    },
    {
      "constant": true,
      "inputs": [
        {
          "internalType": "address",
          "name": "",
          "type": "address"
        }
      ],
      "name": "keyOwnerToNonce",
      "outputs": [
        {
          "internalType": "uint256",
          "name": "",
          "type": "uint256"
        }
      ],
      "payable": false,
      "stateMutability": "view",
      "type": "function"
    },
    {
      "constant": true,
      "inputs": [],
      "name": "keyPrice",
      "outputs": [
        {
          "internalType": "uint256",
          "name": "",
          "type": "uint256"
        }
      ],
      "payable": false,
      "stateMutability": "view",
      "type": "function"
    },
    {
      "constant": true,
      "inputs": [],
      "name": "keySoldInterfaceId",
      "outputs": [
        {
          "internalType": "bytes32",
          "name": "",
          "type": "bytes32"
        }
      ],
      "payable": false,
      "stateMutability": "view",
      "type": "function"
    },
    {
      "constant": true,
      "inputs": [],
      "name": "maxNumberOfKeys",
      "outputs": [
        {
          "internalType": "uint256",
          "name": "",
          "type": "uint256"
        }
      ],
      "payable": false,
      "stateMutability": "view",
      "type": "function"
    },
    {
      "constant": true,
      "inputs": [],
      "name": "name",
      "outputs": [
        {
          "internalType": "string",
          "name": "",
          "type": "string"
        }
      ],
      "payable": false,
      "stateMutability": "view",
      "type": "function"
    },
    {
      "constant": true,
      "inputs": [],
      "name": "numberOfOwners",
      "outputs": [
        {
          "internalType": "uint256",
          "name": "",
          "type": "uint256"
        }
      ],
      "payable": false,
      "stateMutability": "view",
      "type": "function"
    },
    {
      "constant": true,
      "inputs": [],
      "name": "owner",
      "outputs": [
        {
          "internalType": "address",
          "name": "",
          "type": "address"
        }
      ],
      "payable": false,
      "stateMutability": "view",
      "type": "function"
    },
    {
      "constant": true,
      "inputs": [
        {
          "internalType": "uint256",
          "name": "",
          "type": "uint256"
        }
      ],
      "name": "ownerOf",
      "outputs": [
        {
          "internalType": "address",
          "name": "",
          "type": "address"
        }
      ],
      "payable": false,
      "stateMutability": "view",
      "type": "function"
    },
    {
      "constant": true,
      "inputs": [
        {
          "internalType": "uint256",
          "name": "",
          "type": "uint256"
        }
      ],
      "name": "owners",
      "outputs": [
        {
          "internalType": "address",
          "name": "",
          "type": "address"
        }
      ],
      "payable": false,
      "stateMutability": "view",
      "type": "function"
    },
    {
      "constant": false,
      "inputs": [
        {
          "internalType": "uint256",
          "name": "_value",
          "type": "uint256"
        },
        {
          "internalType": "address",
          "name": "_recipient",
          "type": "address"
        },
        {
          "internalType": "address",
          "name": "_referrer",
          "type": "address"
        },
        {
          "internalType": "bytes",
          "name": "_data",
          "type": "bytes"
        }
      ],
      "name": "purchase",
      "outputs": [],
      "payable": true,
      "stateMutability": "payable",
      "type": "function"
    },
    {
      "constant": true,
      "inputs": [],
      "name": "refundPenaltyBasisPoints",
      "outputs": [
        {
          "internalType": "uint256",
          "name": "",
          "type": "uint256"
        }
      ],
      "payable": false,
      "stateMutability": "view",
      "type": "function"
    },
    {
      "constant": false,
      "inputs": [],
      "name": "renounceOwnership",
      "outputs": [],
      "payable": false,
      "stateMutability": "nonpayable",
      "type": "function"
    },
    {
      "constant": false,
      "inputs": [
        {
          "internalType": "address",
          "name": "_from",
          "type": "address"
        },
        {
          "internalType": "address",
          "name": "_to",
          "type": "address"
        },
        {
          "internalType": "uint256",
          "name": "_tokenId",
          "type": "uint256"
        }
      ],
      "name": "safeTransferFrom",
      "outputs": [],
      "payable": false,
      "stateMutability": "nonpayable",
      "type": "function"
    },
    {
      "constant": false,
      "inputs": [
        {
          "internalType": "address",
          "name": "_from",
          "type": "address"
        },
        {
          "internalType": "address",
          "name": "_to",
          "type": "address"
        },
        {
          "internalType": "uint256",
          "name": "_tokenId",
          "type": "uint256"
        },
        {
          "internalType": "bytes",
          "name": "_data",
          "type": "bytes"
        }
      ],
      "name": "safeTransferFrom",
      "outputs": [],
      "payable": false,
      "stateMutability": "nonpayable",
      "type": "function"
    },
    {
      "constant": false,
      "inputs": [
        {
          "internalType": "address",
          "name": "_to",
          "type": "address"
        },
        {
          "internalType": "bool",
          "name": "_approved",
          "type": "bool"
        }
      ],
      "name": "setApprovalForAll",
      "outputs": [],
      "payable": false,
      "stateMutability": "nonpayable",
      "type": "function"
    },
    {
      "constant": false,
      "inputs": [
        {
          "internalType": "string",
          "name": "_baseTokenURI",
          "type": "string"
        }
      ],
      "name": "setBaseTokenURI",
      "outputs": [],
      "payable": false,
      "stateMutability": "nonpayable",
      "type": "function"
    },
    {
      "constant": false,
      "inputs": [
        {
          "internalType": "address",
          "name": "_to",
          "type": "address"
        },
        {
          "internalType": "uint256",
          "name": "_tokenId",
          "type": "uint256"
        },
        {
          "internalType": "uint256",
          "name": "_timeShared",
          "type": "uint256"
        }
      ],
      "name": "shareKey",
      "outputs": [],
      "payable": false,
      "stateMutability": "nonpayable",
      "type": "function"
    },
    {
      "constant": true,
      "inputs": [
        {
          "internalType": "string",
          "name": "_a",
          "type": "string"
        },
        {
          "internalType": "string",
          "name": "_b",
          "type": "string"
        },
        {
          "internalType": "string",
          "name": "_c",
          "type": "string"
        },
        {
          "internalType": "string",
          "name": "_d",
          "type": "string"
        }
      ],
      "name": "strConcat",
      "outputs": [
        {
          "internalType": "string",
          "name": "_concatenatedString",
          "type": "string"
        }
      ],
      "payable": false,
      "stateMutability": "pure",
      "type": "function"
    },
    {
      "constant": true,
      "inputs": [
        {
          "internalType": "bytes4",
          "name": "interfaceId",
          "type": "bytes4"
        }
      ],
      "name": "supportsInterface",
      "outputs": [
        {
          "internalType": "bool",
          "name": "",
          "type": "bool"
        }
      ],
      "payable": false,
      "stateMutability": "view",
      "type": "function"
    },
    {
      "constant": true,
      "inputs": [],
      "name": "symbol",
      "outputs": [
        {
          "internalType": "string",
          "name": "",
          "type": "string"
        }
      ],
      "payable": false,
      "stateMutability": "view",
      "type": "function"
    },
    {
      "constant": true,
      "inputs": [],
      "name": "tokenAddress",
      "outputs": [
        {
          "internalType": "address",
          "name": "",
          "type": "address"
        }
      ],
      "payable": false,
      "stateMutability": "view",
      "type": "function"
    },
    {
      "constant": true,
      "inputs": [
        {
          "internalType": "uint256",
          "name": "_index",
          "type": "uint256"
        }
      ],
      "name": "tokenByIndex",
      "outputs": [
        {
          "internalType": "uint256",
          "name": "",
          "type": "uint256"
        }
      ],
      "payable": false,
      "stateMutability": "view",
      "type": "function"
    },
    {
      "constant": true,
      "inputs": [
        {
          "internalType": "address",
          "name": "_owner",
          "type": "address"
        },
        {
          "internalType": "uint256",
          "name": "_index",
          "type": "uint256"
        }
      ],
      "name": "tokenOfOwnerByIndex",
      "outputs": [
        {
          "internalType": "uint256",
          "name": "",
          "type": "uint256"
        }
      ],
      "payable": false,
      "stateMutability": "view",
      "type": "function"
    },
    {
      "constant": true,
      "inputs": [
        {
          "internalType": "uint256",
          "name": "_tokenId",
          "type": "uint256"
        }
      ],
      "name": "tokenURI",
      "outputs": [
        {
          "internalType": "string",
          "name": "",
          "type": "string"
        }
      ],
      "payable": false,
      "stateMutability": "view",
      "type": "function"
    },
    {
      "constant": true,
      "inputs": [],
      "name": "totalSupply",
      "outputs": [
        {
          "internalType": "uint256",
          "name": "",
          "type": "uint256"
        }
      ],
      "payable": false,
      "stateMutability": "view",
      "type": "function"
    },
    {
      "constant": true,
      "inputs": [],
      "name": "transferFeeBasisPoints",
      "outputs": [
        {
          "internalType": "uint256",
          "name": "",
          "type": "uint256"
        }
      ],
      "payable": false,
      "stateMutability": "view",
      "type": "function"
    },
    {
      "constant": false,
      "inputs": [
        {
          "internalType": "address",
          "name": "_from",
          "type": "address"
        },
        {
          "internalType": "address",
          "name": "_recipient",
          "type": "address"
        },
        {
          "internalType": "uint256",
          "name": "_tokenId",
          "type": "uint256"
        }
      ],
      "name": "transferFrom",
      "outputs": [],
      "payable": false,
      "stateMutability": "nonpayable",
      "type": "function"
    },
    {
      "constant": false,
      "inputs": [
        {
          "internalType": "address",
          "name": "newOwner",
          "type": "address"
        }
      ],
      "name": "transferOwnership",
      "outputs": [],
      "payable": false,
      "stateMutability": "nonpayable",
      "type": "function"
    },
    {
      "constant": true,
      "inputs": [
        {
          "internalType": "uint256",
          "name": "_i",
          "type": "uint256"
        }
      ],
      "name": "uint2Str",
      "outputs": [
        {
          "internalType": "string",
          "name": "_uintAsString",
          "type": "string"
        }
      ],
      "payable": false,
      "stateMutability": "pure",
      "type": "function"
    },
    {
      "constant": true,
      "inputs": [],
      "name": "unlockProtocol",
      "outputs": [
        {
          "internalType": "contract IUnlock",
          "name": "",
          "type": "address"
        }
      ],
      "payable": false,
      "stateMutability": "view",
      "type": "function"
    },
    {
      "constant": false,
      "inputs": [
        {
          "internalType": "address",
          "name": "_beneficiary",
          "type": "address"
        }
      ],
      "name": "updateBeneficiary",
      "outputs": [],
      "payable": false,
      "stateMutability": "nonpayable",
      "type": "function"
    },
    {
      "constant": false,
      "inputs": [
        {
          "internalType": "uint256",
          "name": "_keyPrice",
          "type": "uint256"
        }
      ],
      "name": "updateKeyPrice",
      "outputs": [],
      "payable": false,
      "stateMutability": "nonpayable",
      "type": "function"
    },
    {
      "constant": false,
      "inputs": [
        {
          "internalType": "string",
          "name": "_lockName",
          "type": "string"
        }
      ],
      "name": "updateLockName",
      "outputs": [],
      "payable": false,
      "stateMutability": "nonpayable",
      "type": "function"
    },
    {
      "constant": false,
      "inputs": [
        {
          "internalType": "string",
          "name": "_lockSymbol",
          "type": "string"
        }
      ],
      "name": "updateLockSymbol",
      "outputs": [],
      "payable": false,
      "stateMutability": "nonpayable",
      "type": "function"
    },
    {
      "constant": false,
      "inputs": [
        {
          "internalType": "uint256",
          "name": "_freeTrialLength",
          "type": "uint256"
        },
        {
          "internalType": "uint256",
          "name": "_refundPenaltyBasisPoints",
          "type": "uint256"
        }
      ],
      "name": "updateRefundPenalty",
      "outputs": [],
      "payable": false,
      "stateMutability": "nonpayable",
      "type": "function"
    },
    {
      "constant": false,
      "inputs": [
        {
          "internalType": "uint256",
          "name": "_transferFeeBasisPoints",
          "type": "uint256"
        }
      ],
      "name": "updateTransferFee",
      "outputs": [],
      "payable": false,
      "stateMutability": "nonpayable",
      "type": "function"
    },
    {
      "constant": false,
      "inputs": [
        {
          "internalType": "address",
          "name": "_tokenAddress",
          "type": "address"
        },
        {
          "internalType": "uint256",
          "name": "_amount",
          "type": "uint256"
        }
      ],
      "name": "withdraw",
      "outputs": [],
      "payable": false,
      "stateMutability": "nonpayable",
      "type": "function"
    },
    {
      "constant": false,
      "inputs": [
        {
          "internalType": "address",
          "name": "_owner",
          "type": "address"
        },
        {
          "internalType": "uint256",
          "name": "_expirationDuration",
          "type": "uint256"
        },
        {
          "internalType": "address",
          "name": "_tokenAddress",
          "type": "address"
        },
        {
          "internalType": "uint256",
          "name": "_keyPrice",
          "type": "uint256"
        },
        {
          "internalType": "uint256",
          "name": "_maxNumberOfKeys",
          "type": "uint256"
        },
        {
          "internalType": "string",
          "name": "_lockName",
          "type": "string"
        }
      ],
      "name": "initialize",
      "outputs": [],
      "payable": false,
      "stateMutability": "nonpayable",
      "type": "function"
    },
    {
      "constant": false,
      "inputs": [],
      "name": "initialize",
      "outputs": [],
      "payable": false,
      "stateMutability": "nonpayable",
      "type": "function"
    },
    {
      "constant": false,
      "inputs": [
        {
          "internalType": "address",
          "name": "_tokenAddress",
          "type": "address"
        }
      ],
      "name": "initialize",
      "outputs": [],
      "payable": false,
      "stateMutability": "nonpayable",
      "type": "function"
    },
    {
      "constant": true,
      "inputs": [],
      "name": "publicLockVersion",
      "outputs": [
        {
          "internalType": "uint16",
          "name": "",
          "type": "uint16"
        }
      ],
      "payable": false,
      "stateMutability": "pure",
      "type": "function"
    }
  ],
  "bytecode": "0x608060405261561a806100136000396000f3fe6080604052600436106104105760003560e01c806370a082311161021e578063a375cb0511610123578063d1bbd49c116100ab578063f12c6b6e1161007a578063f12c6b6e146114a0578063f2fde38b146114df578063f3fef3a314611512578063f7514bce1461154b578063fc42b58f1461158457610410565b8063d1bbd49c146113e9578063d4fac45d14611415578063e7e2736e14611450578063e985e9c51461146557610410565b8063b88d4fde116100f2578063b88d4fde1461121b578063b8968bb4146112ec578063c1c98d0314611377578063c4d66de81461138c578063c87b56dd146113bf57610410565b8063a375cb05146111a9578063a843a4e7146111be578063abdf82ce146111d3578063b3084f081461120657610410565b80638f32d59b116101a6578063970aaeb711610175578063970aaeb7146110ba578063994a8a71146110ed5780639d76ea58146111265780639f98d3cb1461113b578063a22cb4651461116e57610410565b80638f32d59b14611066578063936d2aa41461107b57806393fd18441461109057806395d89b41146110a557610410565b80637c7c4253116101ed5780637c7c425314610f0c5780638129fc1c14610fd75780638577a6d514610fec5780638d0361fc146110165780638da5cb5b1461105157610410565b806370a0823114610e34578063715018a614610e6757806374b6c10614610e7c578063782a4ade14610e9157610410565b806338af3eed116103245780634fd24d30116102ac5780635dc266201161027b5780635dc2662014610cb35780635fdb97e114610cc85780636352211e14610cfb5780636d8ea5b414610d255780636eadde4314610d5857610410565b80634fd24d3014610bdb57806352d6a8e414610bf0578063550ef3a814610c2357806356e0d51f14610c9e57610410565b806342842e0e116102f357806342842e0e146108d157806345e965cd146109145780634bc5a13514610b545780634c7a12a014610b875780634f6ccce714610bb157610410565b806338af3eed146107e957806339f46986146107fe5780633f33133a1461082e5780634136aa35146108bc57610410565b806310e56973116103a75780631f1ec029116103765780631f1ec029146106b35780632009dc65146106dd57806323b872dd146106f25780632f745c591461073557806330176e131461076e57610410565b806310e569731461064d57806311a4c03a1461067457806318160ddd14610689578063183767da1461069e57610410565b8063095ea7b3116103e3578063095ea7b3146105575780630aaffd2a146105855780630f15023b146105b857806310803b72146105cd57610410565b806301ffc9a714610415578063025e7c271461045d57806306fdde03146104a3578063081812fc1461052d575b600080fd5b34801561042157600080fd5b506104496004803603602081101561043857600080fd5b50356001600160e01b0319166115bd565b604080519115158252519081900360200190f35b34801561046957600080fd5b506104876004803603602081101561048057600080fd5b50356115e0565b604080516001600160a01b039092168252519081900360200190f35b3480156104af57600080fd5b506104b8611607565b6040805160208082528351818301528351919283929083019185019080838360005b838110156104f25781810151838201526020016104da565b50505050905090810190601f16801561051f5780820380516001836020036101000a031916815260200191505b509250505060405180910390f35b34801561053957600080fd5b506104876004803603602081101561055057600080fd5b5035611695565b6105836004803603604081101561056d57600080fd5b506001600160a01b0381351690602001356116f5565b005b34801561059157600080fd5b50610583600480360360208110156105a857600080fd5b50356001600160a01b031661188b565b3480156105c457600080fd5b5061048761197c565b3480156105d957600080fd5b506105fd600480360360408110156105f057600080fd5b508035906020013561198b565b60408051602080825283518183015283519192839290830191858101910280838360005b83811015610639578181015183820152602001610621565b505050509050019250505060405180910390f35b34801561065957600080fd5b50610662611aa3565b60408051918252519081900360200190f35b34801561068057600080fd5b50610662611aa9565b34801561069557600080fd5b50610662611aaf565b3480156106aa57600080fd5b50610662611ab5565b3480156106bf57600080fd5b50610583600480360360208110156106d657600080fd5b5035611abb565b3480156106e957600080fd5b50610583611b99565b3480156106fe57600080fd5b506105836004803603606081101561071557600080fd5b506001600160a01b03813581169160208101359091169060400135611bb3565b34801561074157600080fd5b506106626004803603604081101561075857600080fd5b506001600160a01b038135169060200135611e6c565b34801561077a57600080fd5b506105836004803603602081101561079157600080fd5b810190602081018135600160201b8111156107ab57600080fd5b8201836020820111156107bd57600080fd5b803590602001918460018302840111600160201b831117156107de57600080fd5b509092509050611eca565b3480156107f557600080fd5b50610487611f22565b34801561080a57600080fd5b506105836004803603604081101561082157600080fd5b5080359060200135611f31565b6105836004803603608081101561084457600080fd5b8135916001600160a01b03602082013581169260408301359091169190810190608081016060820135600160201b81111561087e57600080fd5b82018360208201111561089057600080fd5b803590602001918460018302840111600160201b831117156108b157600080fd5b509092509050611fbe565b3480156108c857600080fd5b50610449612397565b3480156108dd57600080fd5b50610583600480360360608110156108f457600080fd5b506001600160a01b038135811691602081013590911690604001356123a7565b34801561092057600080fd5b506104b86004803603608081101561093757600080fd5b810190602081018135600160201b81111561095157600080fd5b82018360208201111561096357600080fd5b803590602001918460018302840111600160201b8311171561098457600080fd5b91908080601f0160208091040260200160405190810160405280939291908181526020018383808284376000920191909152509295949360208101935035915050600160201b8111156109d657600080fd5b8201836020820111156109e857600080fd5b803590602001918460018302840111600160201b83111715610a0957600080fd5b91908080601f0160208091040260200160405190810160405280939291908181526020018383808284376000920191909152509295949360208101935035915050600160201b811115610a5b57600080fd5b820183602082011115610a6d57600080fd5b803590602001918460018302840111600160201b83111715610a8e57600080fd5b91908080601f0160208091040260200160405190810160405280939291908181526020018383808284376000920191909152509295949360208101935035915050600160201b811115610ae057600080fd5b820183602082011115610af257600080fd5b803590602001918460018302840111600160201b83111715610b1357600080fd5b91908080601f0160208091040260200160405190810160405280939291908181526020018383808284376000920191909152509295506123c2945050505050565b348015610b6057600080fd5b5061066260048036036020811015610b7757600080fd5b50356001600160a01b0316612579565b348015610b9357600080fd5b506104b860048036036020811015610baa57600080fd5b503561258b565b348015610bbd57600080fd5b5061066260048036036020811015610bd457600080fd5b503561264f565b348015610be757600080fd5b5061066261269a565b348015610bfc57600080fd5b5061066260048036036020811015610c1357600080fd5b50356001600160a01b03166126a0565b348015610c2f57600080fd5b5061058360048036036020811015610c4657600080fd5b810190602081018135600160201b811115610c6057600080fd5b820183602082011115610c7257600080fd5b803590602001918460018302840111600160201b83111715610c9357600080fd5b5090925090506126ab565b348015610caa57600080fd5b506106626126fe565b348015610cbf57600080fd5b50610583612704565b348015610cd457600080fd5b506104b860048036036020811015610ceb57600080fd5b50356001600160a01b031661271c565b348015610d0757600080fd5b5061048760048036036020811015610d1e57600080fd5b5035612898565b348015610d3157600080fd5b5061044960048036036020811015610d4857600080fd5b50356001600160a01b03166128b3565b348015610d6457600080fd5b50610583600480360360c0811015610d7b57600080fd5b6001600160a01b03823581169260208101359260408201359092169160608201359160808101359181019060c0810160a0820135600160201b811115610dc057600080fd5b820183602082011115610dd257600080fd5b803590602001918460018302840111600160201b83111715610df357600080fd5b91908080601f0160208091040260200160405190810160405280939291908181526020018383808284376000920191909152509295506128d3945050505050565b348015610e4057600080fd5b5061066260048036036020811015610e5757600080fd5b50356001600160a01b03166129ca565b348015610e7357600080fd5b50610583612a39565b348015610e8857600080fd5b50610662612aca565b348015610e9d57600080fd5b5061058360048036036020811015610eb457600080fd5b810190602081018135600160201b811115610ece57600080fd5b820183602082011115610ee057600080fd5b803590602001918460018302840111600160201b83111715610f0157600080fd5b509092509050612ad0565b348015610f1857600080fd5b5061058360048036036040811015610f2f57600080fd5b810190602081018135600160201b811115610f4957600080fd5b820183602082011115610f5b57600080fd5b803590602001918460208302840111600160201b83111715610f7c57600080fd5b919390929091602081019035600160201b811115610f9957600080fd5b820183602082011115610fab57600080fd5b803590602001918460208302840111600160201b83111715610fcc57600080fd5b509092509050612b88565b348015610fe357600080fd5b50610583612d19565b348015610ff857600080fd5b506105836004803603602081101561100f57600080fd5b5035612d21565b34801561102257600080fd5b506106626004803603604081101561103957600080fd5b506001600160a01b0381358116916020013516612da0565b34801561105d57600080fd5b50610487612e04565b34801561107257600080fd5b50610449612e14565b34801561108757600080fd5b50610662612e3a565b34801561109c57600080fd5b50610662612e5e565b3480156110b157600080fd5b506104b8612e64565b3480156110c657600080fd5b50610662600480360360208110156110dd57600080fd5b50356001600160a01b0316613053565b3480156110f957600080fd5b506104496004803603604081101561111057600080fd5b50803590602001356001600160a01b03166130bd565b34801561113257600080fd5b506104876130de565b34801561114757600080fd5b506105836004803603602081101561115e57600080fd5b50356001600160a01b03166130ed565b34801561117a57600080fd5b506105836004803603604081101561119157600080fd5b506001600160a01b03813516906020013515156131cc565b3480156111b557600080fd5b506106626132d7565b3480156111ca57600080fd5b506105836132dd565b3480156111df57600080fd5b50610662600480360360208110156111f657600080fd5b50356001600160a01b03166133cd565b34801561121257600080fd5b50610662613452565b34801561122757600080fd5b506105836004803603608081101561123e57600080fd5b6001600160a01b03823581169260208101359091169160408201359190810190608081016060820135600160201b81111561127857600080fd5b82018360208201111561128a57600080fd5b803590602001918460018302840111600160201b831117156112ab57600080fd5b91908080601f016020809104026020016040519081016040528093929190818152602001838380828437600092019190915250929550613476945050505050565b3480156112f857600080fd5b506105836004803603604081101561130f57600080fd5b6001600160a01b038235169190810190604081016020820135600160201b81111561133957600080fd5b82018360208201111561134b57600080fd5b803590602001918460018302840111600160201b8311171561136c57600080fd5b509092509050613629565b34801561138357600080fd5b5061058361370d565b34801561139857600080fd5b50610583600480360360208110156113af57600080fd5b50356001600160a01b03166137dc565b3480156113cb57600080fd5b506104b8600480360360208110156113e257600080fd5b50356138ab565b3480156113f557600080fd5b506113fe613b27565b6040805161ffff9092168252519081900360200190f35b34801561142157600080fd5b506106626004803603604081101561143857600080fd5b506001600160a01b0381358116916020013516613b2c565b34801561145c57600080fd5b50610487613bd6565b34801561147157600080fd5b506104496004803603604081101561148857600080fd5b506001600160a01b0381358116916020013516613bee565b3480156114ac57600080fd5b50610583600480360360608110156114c357600080fd5b506001600160a01b038135169060208101359060400135613c1c565b3480156114eb57600080fd5b506105836004803603602081101561150257600080fd5b50356001600160a01b0316613f36565b34801561151e57600080fd5b506105836004803603604081101561153557600080fd5b506001600160a01b038135169060200135613f86565b34801561155757600080fd5b506105836004803603604081101561156e57600080fd5b506001600160a01b0381351690602001356140da565b34801561159057600080fd5b50610662600480360360408110156115a757600080fd5b506001600160a01b038135169060200135614176565b6001600160e01b0319811660009081526033602052604090205460ff165b919050565b60a281815481106115ed57fe5b6000918252602090912001546001600160a01b0316905081565b60a3805460408051602060026001851615610100026000190190941693909304601f8101849004840282018401909252818152929183018282801561168d5780601f106116625761010080835404028352916020019161168d565b820191906000526020600020905b81548152906001019060200180831161167057829003601f168201915b505050505081565b600081815260a660205260408120546001600160a01b0316806116ef576040805162461bcd60e51b815260206004820152600d60248201526c1393d39157d054141493d59151609a1b604482015290519081900360640190fd5b92915050565b609954600160a01b900460ff16611745576040805162461bcd60e51b815260206004820152600f60248201526e1313d0d2d7d11154149150d0551151608a1b604482015290519081900360640190fd5b8061175081336130bd565b806117605750611760813361421f565b806117885750600081815260a16020526040902054611788906001600160a01b031633613bee565b6117d6576040805162461bcd60e51b815260206004820152601a60248201527913d3931657d2d15657d3d5d3915497d3d497d054141493d5915160321b604482015290519081900360640190fd5b336001600160a01b0384161415611823576040805162461bcd60e51b815260206004820152600c60248201526b20a8282927ab22afa9a2a62360a11b604482015290519081900360640190fd5b600082815260a66020908152604080832080546001600160a01b0319166001600160a01b0388811691821790925560a1909352818420549151869492909116917f8c5be1e5ebec7d5bd14f71427d1e84f3dd0314c0f7b2291e5b200ac8c7c3b92591a4505050565b611893612e04565b6001600160a01b0316336001600160a01b031614806118bc5750609f546001600160a01b031633145b61190d576040805162461bcd60e51b815260206004820152601e60248201527f4f4e4c595f4c4f434b5f4f574e45525f4f525f42454e45464943494152590000604482015290519081900360640190fd5b6001600160a01b03811661195a576040805162461bcd60e51b815260206004820152600f60248201526e494e56414c49445f4144445245535360881b604482015290519081900360640190fd5b609f80546001600160a01b0319166001600160a01b0392909216919091179055565b609a546001600160a01b031681565b60a2546060906119d8576040805162461bcd60e51b81526020600482015260136024820152724e4f5f4f55545354414e44494e475f4b45595360681b604482015290519081900360640190fd5b60a25482908482029060009082840111156119fb575060a2548181039250611a00565b508082015b606083604051908082528060200260200182016040528015611a2c578160200160208202803883390190505b5090506000835b83811015611a965760a28181548110611a4857fe5b9060005260206000200160009054906101000a90046001600160a01b0316838381518110611a7257fe5b6001600160a01b039092166020928302919091019091015260019182019101611a33565b5090979650505050505050565b609c5481565b609b5481565b609e5481565b60a85481565b611ac3612e14565b611b02576040805162461bcd60e51b81526020600482018190526024820152600080516020615578833981519152604482015290519081900360640190fd5b609954600160a01b900460ff16611b52576040805162461bcd60e51b815260206004820152600f60248201526e1313d0d2d7d11154149150d0551151608a1b604482015290519081900360640190fd5b609c805490829055604080518281526020810184905281517f8aa4fa52648a6d15edce8a179c792c86f3719d0cc3c572cf90f91948f0f2cb68929181900390910190a15050565b6000611ba433614240565b9050611bb03382614347565b50565b609954600160a01b900460ff16611c03576040805162461bcd60e51b815260206004820152600f60248201526e1313d0d2d7d11154149150d0551151608a1b604482015290519081900360640190fd5b82611c0d816128b3565b611c4e576040805162461bcd60e51b815260206004820152600d60248201526c12d15657d393d517d590531251609a1b604482015290519081900360640190fd5b81611c5981336130bd565b80611c695750611c69813361421f565b80611c915750600081815260a16020526040902054611c91906001600160a01b031633613bee565b611cdf576040805162461bcd60e51b815260206004820152601a60248201527913d3931657d2d15657d3d5d3915497d3d497d054141493d5915160321b604482015290519081900360640190fd5b61271060a85410611d30576040805162461bcd60e51b815260206004820152601660248201527512d15657d514905394d1915494d7d11254d05093115160521b604482015290519081900360640190fd5b6001600160a01b038416611d7d576040805162461bcd60e51b815260206004820152600f60248201526e494e56414c49445f4144445245535360881b604482015290519081900360640190fd5b6000611d8a866000614176565b6001600160a01b03808816600090815260a0602052604080822092891682528120825460018201549495509293909291611dc790839087906143cc565b8254611ddd578354808455611ddd908a906144ee565b428111611e01576001808501549084015583548355611dfc89896144ee565b611e1e565b6001840154611e189042830363ffffffff61457616565b60018401555b42600185015560008455611e31886145d0565b87896001600160a01b03168b6001600160a01b03166000805160206155c683398151915260405160405180910390a450505050505050505050565b60008115611eba576040805162461bcd60e51b815260206004820152601660248201527527a7262cafa7a722afa5a2acafa822a92fa7aba722a960511b604482015290519081900360640190fd5b611ec383613053565b9392505050565b611ed2612e14565b611f11576040805162461bcd60e51b81526020600482018190526024820152600080516020615578833981519152604482015290519081900360640190fd5b611f1d60a5838361542e565b505050565b609f546001600160a01b031681565b611f39612e14565b611f78576040805162461bcd60e51b81526020600482018190526024820152600080516020615578833981519152604482015290519081900360640190fd5b604080518381526020810183905281517fd6867bc538320e67d7bdc35860c27c08486eb490b4fd9b820fff18fb28381d3c929181900390910190a160aa9190915560a955565b609954600160a01b900460ff1661200e576040805162461bcd60e51b815260206004820152600f60248201526e1313d0d2d7d11154149150d0551151608a1b604482015290519081900360640190fd5b609e54609d5411612056576040805162461bcd60e51b815260206004820152600d60248201526c1313d0d2d7d4d3d31117d3d555609a1b604482015290519081900360640190fd5b6001600160a01b0384166120a3576040805162461bcd60e51b815260206004820152600f60248201526e494e56414c49445f4144445245535360881b604482015290519081900360640190fd5b6001600160a01b038416600090815260a06020526040902080546120d8576120ca8161460b565b6120d88582600001546144ee565b4281600101541061210457609b5460018201546120fa9163ffffffff61457616565b600182015561210f565b609b54420160018201555b609c54609a5460408051630cb175e360e01b81526001600160a01b03898116600483015260248201859052825160009586959094921692630cb175e3926044808301939192829003018186803b15801561216857600080fd5b505afa15801561217c573d6000803e3d6000fd5b505050506040513d604081101561219257600080fd5b5080516020909101519093509150808311156121b0575060006121b4565b8290035b821561222757609a5460408051633652466360e01b8152600481018690526024810185905290516001600160a01b039092169163365246639160448082019260009290919082900301818387803b15801561220e57600080fd5b505af1158015612222573d6000803e3d6000fd5b505050505b609a546001600160a01b031663939d9f1f826122428a6128b3565b61224d57600061224f565b895b6040518363ffffffff1660e01b815260040180838152602001826001600160a01b03166001600160a01b0316815260200192505050600060405180830381600087803b15801561229e57600080fd5b505af11580156122b2573d6000803e3d6000fd5b505085546040519092506001600160a01b038b1691506000906000805160206155c6833981519152908290a46099546001600160a01b03161561233c5780891015612339576040805162461bcd60e51b8152602060048201526012602482015271494e53554646494349454e545f56414c554560701b604482015290519081900360640190fd5b50875b600061234782614620565b905061238b8989838a8a8080601f01602080910402602001604051908101604052809392919081815260200183838082843760009201919091525061484b92505050565b50505050505050505050565b609954600160a01b900460ff1681565b611f1d83838360405180602001604052806000815250613476565b606080859050606085905060608590506060859050606081518351855187510101016040519080825280601f01601f19166020018201604052801561240e576020820181803883390190505b509050806000805b87518110156124675787818151811061242b57fe5b602001015160f81c60f81b83838060010194508151811061244857fe5b60200101906001600160f81b031916908160001a905350600101612416565b5060005b86518110156124bc5786818151811061248057fe5b602001015160f81c60f81b83838060010194508151811061249d57fe5b60200101906001600160f81b031916908160001a90535060010161246b565b5060005b8551811015612511578581815181106124d557fe5b602001015160f81c60f81b8383806001019450815181106124f257fe5b60200101906001600160f81b031916908160001a9053506001016124c0565b5060005b84518110156125665784818151811061252a57fe5b602001015160f81c60f81b83838060010194508151811061254757fe5b60200101906001600160f81b031916908160001a905350600101612515565b509096505050505050505b949350505050565b60ab6020526000908152604090205481565b606081806125b25750506040805180820190915260018152600360fc1b60208201526115db565b8260005b81156125ca57600101600a820491506125b6565b6060816040519080825280601f01601f1916602001820160405280156125f7576020820181803883390190505b50905060001982015b841561264557600a850660300160f81b8282806001900393508151811061262357fe5b60200101906001600160f81b031916908160001a905350600a85049450612600565b5095945050505050565b6000609e548210612696576040805162461bcd60e51b815260206004820152600c60248201526b4f55545f4f465f52414e474560a01b604482015290519081900360640190fd5b5090565b61271081565b60006116ef82614240565b6126b3612e14565b6126f2576040805162461bcd60e51b81526020600482018190526024820152600080516020615578833981519152604482015290519081900360640190fd5b611f1d60a3838361542e565b60a95481565b33600090815260ab6020526040902080546001019055565b604080518082018252601081526f181899199a1a9b1b9c1cb0b131b232b360811b60208201528151602a80825260608281019094526001600160a01b03851692918491602082018180388339019050509050600360fc1b8160008151811061278057fe5b60200101906001600160f81b031916908160001a905350600f60fb1b816001815181106127a957fe5b60200101906001600160f81b031916908160001a90535060005b601481101561288f578260048583600c01602081106127de57fe5b1a60f81b6001600160f81b031916901c60f81c60ff16815181106127fe57fe5b602001015160f81c60f81b82826002026002018151811061281b57fe5b60200101906001600160f81b031916908160001a905350828482600c016020811061284257fe5b825191901a600f1690811061285357fe5b602001015160f81c60f81b82826002026003018151811061287057fe5b60200101906001600160f81b031916908160001a9053506001016127c3565b50949350505050565b60a1602052600090815260409020546001600160a01b031681565b6001600160a01b0316600090815260a06020526040902060010154421090565b600054610100900460ff16806128ec57506128ec614a01565b806128fa575060005460ff16155b6129355760405162461bcd60e51b815260040180806020018281038252602e815260200180615598602e913960400191505060405180910390fd5b600054610100900460ff16158015612960576000805460ff1961ff0019909116610100171660011790555b61296987614a07565b612972856137dc565b61297a614af8565b61298687878686614b0d565b61298f82614ba3565b612997614bcf565b61299f612d19565b6129af6380ac58cd60e01b614be1565b80156129c1576000805461ff00191690555b50505050505050565b60006001600160a01b038216612a19576040805162461bcd60e51b815260206004820152600f60248201526e494e56414c49445f4144445245535360881b604482015290519081900360640190fd5b612a22826128b3565b612a2d576000612a30565b60015b60ff1692915050565b612a41612e14565b612a80576040805162461bcd60e51b81526020600482018190526024820152600080516020615578833981519152604482015290519081900360640190fd5b6066546040516000916001600160a01b0316907f8be0079c531659141344cd1fd0a4f28419497f9722a3daafe3b4186f6b6457e0908390a3606680546001600160a01b0319169055565b609d5481565b612ad8612e14565b612b17576040805162461bcd60e51b81526020600482018190526024820152600080516020615578833981519152604482015290519081900360640190fd5b612b2360a4838361542e565b507f8868e22e84ebf32da89b2ebcb0ac642816304ea3863b257f240df9098719cb97828260405180806020018281038252848482818152602001925080828437600083820152604051601f909101601f19169092018290039550909350505050a15050565b612b90612e14565b612bcf576040805162461bcd60e51b81526020600482018190526024820152600080516020615578833981519152604482015290519081900360640190fd5b60005b83811015612d12576000858583818110612be857fe5b905060200201356001600160a01b031690506000848484818110612c0857fe5b60200291909101359150506001600160a01b038216612c60576040805162461bcd60e51b815260206004820152600f60248201526e494e56414c49445f4144445245535360881b604482015290519081900360640190fd5b6001600160a01b038216600090815260a06020526040902060018101548211612cc3576040805162461bcd60e51b815260206004820152601060248201526f414c52454144595f4f574e535f4b455960801b604482015290519081900360640190fd5b612ccc8161460b565b612cda8382600001546144ee565b6001810182905580546040516001600160a01b038516906000906000805160206155c6833981519152908290a4505050600101612bd2565b5050505050565b6103e860a955565b612d29612e14565b612d68576040805162461bcd60e51b81526020600482018190526024820152600080516020615578833981519152604482015290519081900360640190fd5b6040805182815290517f0496ed1e61eb69727f9659a8e859288db4758ffb1f744d1c1424634f90a257f49181900360200190a160a855565b6001600160a01b0391909116600090815260ab602090815260409182902054825130606090811b82850152603482019290925293901b6bffffffffffffffffffffffff19166054840152815180840360480181526068909301909152815191012090565b6066546001600160a01b03165b90565b6066546000906001600160a01b0316612e2b614c65565b6001600160a01b031614905090565b7fd6342b4bfdf66164985c9f5fe235f643a035ee12f507d7bd0f8c89e07e790f6881565b60a25490565b60a45460609060026000196101006001841615020190911604612fc157609a60009054906101000a90046001600160a01b03166001600160a01b031663cec410526040518163ffffffff1660e01b815260040160006040518083038186803b158015612ecf57600080fd5b505afa158015612ee3573d6000803e3d6000fd5b505050506040513d6000823e601f3d908101601f191682016040526020811015612f0c57600080fd5b8101908080516040519392919084600160201b821115612f2b57600080fd5b908301906020820185811115612f4057600080fd5b8251600160201b811182820188101715612f5957600080fd5b82525081516020918201929091019080838360005b83811015612f86578181015183820152602001612f6e565b50505050905090810190601f168015612fb35780820380516001836020036101000a031916815260200191505b506040525050509050612e11565b60a4805460408051602060026001851615610100026000190190941693909304601f810184900484028201840190925281815292918301828280156130475780601f1061301c57610100808354040283529160200191613047565b820191906000526020600020905b81548152906001019060200180831161302a57829003601f168201915b50505050509050612e11565b60008161305f816128b3565b6130a0576040805162461bcd60e51b815260206004820152600d60248201526c12d15657d393d517d590531251609a1b604482015290519081900360640190fd5b50506001600160a01b0316600090815260a0602052604090205490565b600091825260a16020526040909120546001600160a01b0391821691161490565b6099546001600160a01b031681565b6130f5612e14565b613134576040805162461bcd60e51b81526020600482018190526024820152600080516020615578833981519152604482015290519081900360640190fd5b8061313e816128b3565b61317f576040805162461bcd60e51b815260206004820152600d60248201526c12d15657d393d517d590531251609a1b604482015290519081900360640190fd5b6001600160a01b038216600090815260a060205260408082204260018201558054915190927f59f2fe866dd27a1c2d34115520888c3150365cbc931aab97fa88c4b9ab40b79591a2505050565b609954600160a01b900460ff1661321c576040805162461bcd60e51b815260206004820152600f60248201526e1313d0d2d7d11154149150d0551151608a1b604482015290519081900360640190fd5b6001600160a01b038216331415613269576040805162461bcd60e51b815260206004820152600c60248201526b20a8282927ab22afa9a2a62360a11b604482015290519081900360640190fd5b33600081815260a7602090815260408083206001600160a01b03871680855290835292819020805460ff1916861515908117909155815190815290519293927f17307eab39ab6107e8899845ad3d59bd9653f200f220920489ca2b5937696c31929181900390910190a35050565b60aa5481565b6132e5612e14565b613324576040805162461bcd60e51b81526020600482018190526024820152600080516020615578833981519152604482015290519081900360640190fd5b609954600160a01b900460ff1615613373576040805162461bcd60e51b815260206004820152600d60248201526c111254d050931157d1925494d5609a1b604482015290519081900360640190fd5b6040805130318152905133917fa053f2a7eceda47dde76e5939c5adf7b771e665fc84c8ef6feffc290a1eb1feb919081900360200190a26099546133ca906001600160a01b0316336133c58230613b2c565b614c69565b33ff5b6001600160a01b038116600090815260a060205260408120600101548290613432576040805162461bcd60e51b81526020600482015260136024820152724841535f4e455645525f4f574e45445f4b455960681b604482015290519081900360640190fd5b50506001600160a01b0316600090815260a0602052604090206001015490565b7f4d99da10ff5120f726d35edd8dbd417bbe55d90453b8432acd284e650ee2c6f081565b609954600160a01b900460ff166134c6576040805162461bcd60e51b815260206004820152600f60248201526e1313d0d2d7d11154149150d0551151608a1b604482015290519081900360640190fd5b816134d181336130bd565b806134e157506134e1813361421f565b806135095750600081815260a16020526040902054613509906001600160a01b031633613bee565b613557576040805162461bcd60e51b815260206004820152601a60248201527913d3931657d2d15657d3d5d3915497d3d497d054141493d5915160321b604482015290519081900360640190fd5b600083815260a160205260409020546001600160a01b0316613578816128b3565b6135b9576040805162461bcd60e51b815260206004820152600d60248201526c12d15657d393d517d590531251609a1b604482015290519081900360640190fd5b6135c4868686611bb3565b6135d086868686614e7e565b613621576040805162461bcd60e51b815260206004820152601d60248201527f4e4f4e5f434f4d504c49414e545f4552433732315f5245434549564552000000604482015290519081900360640190fd5b505050505050565b826001600160a01b03166136846136486136438633612da0565b614fb1565b84848080601f01602080910402602001604051908101604052809392919081815260200183838082843760009201919091525061500292505050565b6001600160a01b0316146136d3576040805162461bcd60e51b8152602060048201526011602482015270494e56414c49445f5349474e415455524560781b604482015290519081900360640190fd5b6001600160a01b038316600090815260ab60205260408120805460010190556136fb84614240565b90506137078482614347565b50505050565b613715612e14565b613754576040805162461bcd60e51b81526020600482018190526024820152600080516020615578833981519152604482015290519081900360640190fd5b609954600160a01b900460ff166137a4576040805162461bcd60e51b815260206004820152600f60248201526e1313d0d2d7d11154149150d0551151608a1b604482015290519081900360640190fd5b6040517f25a311358326fb18c62efc24bc28d3126acee8d2a67fd8b2145b757dc8bd1bc190600090a16099805460ff60a01b19169055565b609980546001600160a01b0319166001600160a01b038316908117909155158061386a57506000816001600160a01b03166318160ddd6040518163ffffffff1660e01b815260040160206040518083038186803b15801561383c57600080fd5b505afa158015613850573d6000803e3d6000fd5b505050506040513d602081101561386657600080fd5b5051115b611bb0576040805162461bcd60e51b815260206004820152600d60248201526c24a72b20a624a22faa27a5a2a760991b604482015290519081900360640190fd5b600081815260a1602052604090205460609082906001600160a01b0316613907576040805162461bcd60e51b815260206004820152600b60248201526a4e4f5f535543485f4b455960a81b604482015290519081900360640190fd5b60a55460609060026000196101006001841615020190911604613a6457609a60009054906101000a90046001600160a01b03166001600160a01b031663a998e9fb6040518163ffffffff1660e01b815260040160006040518083038186803b15801561397257600080fd5b505afa158015613986573d6000803e3d6000fd5b505050506040513d6000823e601f3d908101601f1916820160405260208110156139af57600080fd5b8101908080516040519392919084600160201b8211156139ce57600080fd5b9083019060208201858111156139e357600080fd5b8251600160201b8111828201881017156139fc57600080fd5b82525081516020918201929091019080838360005b83811015613a29578181015183820152602001613a11565b50505050905090810190601f168015613a565780820380516001836020036101000a031916815260200191505b506040525050509050613af2565b60a5805460408051602060026001851615610100026000190190941693909304601f81018490048402820184019092528181529291830182828015613aea5780601f10613abf57610100808354040283529160200191613aea565b820191906000526020600020905b815481529060010190602001808311613acd57829003601f168201915b505050505090505b61257181613aff3061271c565b604051806040016040528060018152602001602f60f81b815250613b228861258b565b6123c2565b600590565b60006001600160a01b038316613b4d57506001600160a01b038116316116ef565b826001600160a01b03166370a08231836040518263ffffffff1660e01b815260040180826001600160a01b03166001600160a01b0316815260200191505060206040518083038186803b158015613ba357600080fd5b505afa158015613bb7573d6000803e3d6000fd5b505050506040513d6020811015613bcd57600080fd5b505190506116ef565b731820a4b7618bde71dce8cdc73aab6c95905fad2481565b6001600160a01b03918216600090815260a76020908152604080832093909416825291909152205460ff1690565b609954600160a01b900460ff16613c6c576040805162461bcd60e51b815260206004820152600f60248201526e1313d0d2d7d11154149150d0551151608a1b604482015290519081900360640190fd5b81613c7781336130bd565b80613c875750613c87813361421f565b80613caf5750600081815260a16020526040902054613caf906001600160a01b031633613bee565b613cfd576040805162461bcd60e51b815260206004820152601a60248201527913d3931657d2d15657d3d5d3915497d3d497d054141493d5915160321b604482015290519081900360640190fd5b61271060a85410613d4e576040805162461bcd60e51b815260206004820152601660248201527512d15657d514905394d1915494d7d11254d05093115160521b604482015290519081900360640190fd5b6001600160a01b038416613d9b576040805162461bcd60e51b815260206004820152600f60248201526e494e56414c49445f4144445245535360881b604482015290519081900360640190fd5b600083815260a160205260409020546001600160a01b0316613dbc816128b3565b613dfd576040805162461bcd60e51b815260206004820152600d60248201526c12d15657d393d517d590531251609a1b604482015290519081900360640190fd5b6001600160a01b03808216600090815260a0602052604080822092881682528120805460018401549192909142900381613e37878a614176565b90506000613e4b8a8363ffffffff61457616565b905082811015613e6957899350613e648b8260006143cc565b613ead565b613e738884614176565b42600189015560405181850395509092508b907f59f2fe866dd27a1c2d34115520888c3150365cbc931aab97fa88c4b9ab40b79590600090a25b8554613eed57613ebc8661460b565b613ec68c866144ee565b60405185906001600160a01b038e16906000906000805160206155c6833981519152908290a45b613ef9858560016143cc565b848c6001600160a01b0316896001600160a01b03166000805160206155c683398151915260405160405180910390a4505050505050505050505050565b613f3e612e14565b613f7d576040805162461bcd60e51b81526020600482018190526024820152600080516020615578833981519152604482015290519081900360640190fd5b611bb0816150f0565b613f8e612e04565b6001600160a01b0316336001600160a01b03161480613fb75750609f546001600160a01b031633145b614008576040805162461bcd60e51b815260206004820152601e60248201527f4f4e4c595f4c4f434b5f4f574e45525f4f525f42454e45464943494152590000604482015290519081900360640190fd5b60006140148330613b2c565b9050600082158061402457508183115b156140785760008211614071576040805162461bcd60e51b815260206004820152601060248201526f4e4f545f454e4f5547485f46554e445360801b604482015290519081900360640190fd5b508061407b565b50815b609f546040805183815290516001600160a01b039283169287169133917f342e7ff505a8a0364cd0dc2ff195c315e43bce86b204846ecd36913e117b109e9181900360200190a4609f546137079085906001600160a01b031683614c69565b6140e2612e14565b614121576040805162461bcd60e51b81526020600482018190526024820152600080516020615578833981519152604482015290519081900360640190fd5b8161412b816128b3565b61416c576040805162461bcd60e51b815260206004820152600d60248201526c12d15657d393d517d590531251609a1b604482015290519081900360640190fd5b611f1d8383614347565b600082614182816128b3565b6141c3576040805162461bcd60e51b815260206004820152600d60248201526c12d15657d393d517d590531251609a1b604482015290519081900360640190fd5b6001600160a01b038416600090815260a0602052604081209080856141f0574283600101540391506141f4565b8591505b61271061420c60a8548461519190919063ffffffff16565b8161421357fe5b04979650505050505050565b600091825260a66020526040909120546001600160a01b0391821691161490565b60008161424c816128b3565b61428d576040805162461bcd60e51b815260206004820152600d60248201526c12d15657d393d517d590531251609a1b604482015290519081900360640190fd5b6001600160a01b038316600090815260a0602052604090206001810154609b5460aa5442909203918201106142c657609c5493506142e7565b609b54609c546142dc908363ffffffff61519116565b816142e357fe5b0493505b60aa5415806142fb5750609b5460aa548201105b1561433f57600061271061431c60a954609c5461519190919063ffffffff16565b8161432357fe5b0490508085111561433857808503945061433d565b600094505b505b505050919050565b6001600160a01b038216600081815260a0602090815260409182902080548351868152935191943394909391927f0a7068a9989857441c039a14a42b67ed71dd1fcfe5a9b17cc87b252e47bce528929181900390910190a442600182015581156143c2576099546143c2906001600160a01b03168484614c69565b611f1d83836151ea565b600083815260a160205260409020546001600160a01b031680614429576040805162461bcd60e51b815260206004820152601060248201526f4e4f4e5f4558495354454e545f4b455960801b604482015290519081900360640190fd5b6001600160a01b038116600090815260a06020526040812060018101549091614451846128b3565b905084156144945780156144795761446f828763ffffffff61457616565b600184015561448f565b614489428763ffffffff61457616565b60018401555b6144aa565b6144a4828763ffffffff61531a16565b60018401555b604080518781528615156020820152815189927fa2ede7ad01668310f921fcf6084901d08af350838c2744a013153e4968a7559d928290030190a250505050505050565b600081815260a160205260409020546001600160a01b038381169116146145725760a28054600181019091557faaf4f58de99300cfadc4585755f376d5fa747d5bc561d5bd9d710de1f91bf42d0180546001600160a01b0384166001600160a01b03199182168117909255600083815260a160205260409020805490911690911790555b5050565b600082820183811015611ec3576040805162461bcd60e51b815260206004820152601b60248201527f536166654d6174683a206164646974696f6e206f766572666c6f770000000000604482015290519081900360640190fd5b600081815260a660205260409020546001600160a01b031615611bb057600090815260a66020526040902080546001600160a01b0319169055565b8054611bb057609e8054600101908190559055565b600081156115db576099546001600160a01b03166146875781341015614680576040805162461bcd60e51b815260206004820152601060248201526f4e4f545f454e4f5547485f46554e445360801b604482015290519081900360640190fd5b50346115db565b609954604080516370a0823160e01b815230600482015290516001600160a01b039092169160009183916370a0823191602480820192602092909190829003018186803b1580156146d757600080fd5b505afa1580156146eb573d6000803e3d6000fd5b505050506040513d602081101561470157600080fd5b5051604080516323b872dd60e01b81523360048201523060248201526044810187905290519192506001600160a01b038416916323b872dd916064808201926020929091908290030181600087803b15801561475c57600080fd5b505af1158015614770573d6000803e3d6000fd5b505050506040513d602081101561478657600080fd5b5050604080516370a0823160e01b8152306004820152905182916001600160a01b038516916370a0823191602480820192602092909190829003018186803b1580156147d157600080fd5b505afa1580156147e5573d6000803e3d6000fd5b505050506040513d60208110156147fb57600080fd5b505111614841576040805162461bcd60e51b815260206004820152600f60248201526e1514905394d1915497d19052531151608a1b604482015290519081900360640190fd5b83925050506115db565b609f546040805163555ddc6560e11b81526001600160a01b0390921660048301527f4d99da10ff5120f726d35edd8dbd417bbe55d90453b8432acd284e650ee2c6f0602483015251600091731820a4b7618bde71dce8cdc73aab6c95905fad249163aabbb8ca91604480820192602092909190829003018186803b1580156148d257600080fd5b505afa1580156148e6573d6000803e3d6000fd5b505050506040513d60208110156148fc57600080fd5b505190506001600160a01b03811615612d1257604051638d0f092560e01b815233600482018181526001600160a01b03888116602485015287811660448501526064840187905260a060848501908152865160a4860152865191861694638d0f092594938b938b938b938b939260c490910190602085019080838360005b8381101561499257818101518382015260200161497a565b50505050905090810190601f1680156149bf5780820380516001836020036101000a031916815260200191505b509650505050505050600060405180830381600087803b1580156149e257600080fd5b505af11580156149f6573d6000803e3d6000fd5b505050505050505050565b303b1590565b600054610100900460ff1680614a205750614a20614a01565b80614a2e575060005460ff16155b614a695760405162461bcd60e51b815260040180806020018281038252602e815260200180615598602e913960400191505060405180910390fd5b600054610100900460ff16158015614a94576000805460ff1961ff0019909116610100171660011790555b606680546001600160a01b0319166001600160a01b0384811691909117918290556040519116906000907f8be0079c531659141344cd1fd0a4f28419497f9722a3daafe3b4186f6b6457e0908290a38015614572576000805461ff00191690555050565b6099805460ff60a01b1916600160a01b179055565b63bbf81e00831115614b66576040805162461bcd60e51b815260206004820152601860248201527f4d41585f45585049524154494f4e5f3130305f59454152530000000000000000604482015290519081900360640190fd5b609a8054336001600160a01b031991821617909155609f80549091166001600160a01b039590951694909417909355609b91909155609c55609d55565b614bab615377565b8051614bbe9060a39060208401906154a8565b50611bb0635b5e139f60e01b614be1565b614bdf63780e9d6360e01b614be1565b565b6001600160e01b03198082161415614c40576040805162461bcd60e51b815260206004820152601c60248201527f4552433136353a20696e76616c696420696e7465726661636520696400000000604482015290519081900360640190fd5b6001600160e01b0319166000908152603360205260409020805460ff19166001179055565b3390565b8015611f1d576001600160a01b038316614cb9576040516001600160a01b0383169082156108fc029083906000818181858888f19350505050158015614cb3573d6000803e3d6000fd5b50611f1d565b60008390506000816001600160a01b03166370a08231856040518263ffffffff1660e01b815260040180826001600160a01b03166001600160a01b0316815260200191505060206040518083038186803b158015614d1657600080fd5b505afa158015614d2a573d6000803e3d6000fd5b505050506040513d6020811015614d4057600080fd5b50516040805163a9059cbb60e01b81526001600160a01b0387811660048301526024820187905291519293509084169163a9059cbb916044808201926020929091908290030181600087803b158015614d9857600080fd5b505af1158015614dac573d6000803e3d6000fd5b505050506040513d6020811015614dc257600080fd5b5050604080516370a0823160e01b81526001600160a01b038681166004830152915183928516916370a08231916024808301926020929190829003018186803b158015614e0e57600080fd5b505afa158015614e22573d6000803e3d6000fd5b505050506040513d6020811015614e3857600080fd5b505111612d12576040805162461bcd60e51b815260206004820152600f60248201526e1514905394d1915497d19052531151608a1b604482015290519081900360640190fd5b6000614e92846001600160a01b0316615428565b614e9e57506001612571565b604051630a85bd0160e11b815233600482018181526001600160a01b03888116602485015260448401879052608060648501908152865160848601528651600095928a169463150b7a029490938c938b938b939260a4019060208501908083838e5b83811015614f18578181015183820152602001614f00565b50505050905090810190601f168015614f455780820380516001836020036101000a031916815260200191505b5095505050505050602060405180830381600087803b158015614f6757600080fd5b505af1158015614f7b573d6000803e3d6000fd5b505050506040513d6020811015614f9157600080fd5b50516001600160e01b031916630a85bd0160e11b14915050949350505050565b604080517f19457468657265756d205369676e6564204d6573736167653a0a333200000000602080830191909152603c8083019490945282518083039094018452605c909101909152815191012090565b60008151604114615015575060006116ef565b60208201516040830151606084015160001a7f7fffffffffffffffffffffffffffffff5d576e7357a4501ddfe92f46681b20a082111561505b57600093505050506116ef565b8060ff16601b1415801561507357508060ff16601c14155b1561508457600093505050506116ef565b6040805160008152602080820180845289905260ff8416828401526060820186905260808201859052915160019260a0808401939192601f1981019281900390910190855afa1580156150db573d6000803e3d6000fd5b5050604051601f190151979650505050505050565b6001600160a01b0381166151355760405162461bcd60e51b81526004018080602001828103825260268152602001806155316026913960400191505060405180910390fd5b6066546040516001600160a01b038084169216907f8be0079c531659141344cd1fd0a4f28419497f9722a3daafe3b4186f6b6457e090600090a3606680546001600160a01b0319166001600160a01b0392909216919091179055565b6000826151a0575060006116ef565b828202828482816151ad57fe5b0414611ec35760405162461bcd60e51b81526004018080602001828103825260218152602001806155576021913960400191505060405180910390fd5b609f546040805163555ddc6560e11b81526001600160a01b0390921660048301527fd6342b4bfdf66164985c9f5fe235f643a035ee12f507d7bd0f8c89e07e790f68602483015251600091731820a4b7618bde71dce8cdc73aab6c95905fad249163aabbb8ca91604480820192602092909190829003018186803b15801561527157600080fd5b505afa158015615285573d6000803e3d6000fd5b505050506040513d602081101561529b57600080fd5b505190506001600160a01b03811615611f1d576040805163c9877d7b60e01b81523360048201526001600160a01b0385811660248301526044820185905291519183169163c9877d7b9160648082019260009290919082900301818387803b15801561530657600080fd5b505af11580156129c1573d6000803e3d6000fd5b600082821115615371576040805162461bcd60e51b815260206004820152601e60248201527f536166654d6174683a207375627472616374696f6e206f766572666c6f770000604482015290519081900360640190fd5b50900390565b600054610100900460ff16806153905750615390614a01565b8061539e575060005460ff16155b6153d95760405162461bcd60e51b815260040180806020018281038252602e815260200180615598602e913960400191505060405180910390fd5b600054610100900460ff16158015615404576000805460ff1961ff0019909116610100171660011790555b6154146301ffc9a760e01b614be1565b8015611bb0576000805461ff001916905550565b3b151590565b828054600181600116156101000203166002900490600052602060002090601f016020900481019282601f1061546f5782800160ff1982351617855561549c565b8280016001018555821561549c579182015b8281111561549c578235825591602001919060010190615481565b50612696929150615516565b828054600181600116156101000203166002900490600052602060002090601f016020900481019282601f106154e957805160ff191683800117855561549c565b8280016001018555821561549c579182015b8281111561549c5782518255916020019190600101906154fb565b612e1191905b80821115612696576000815560010161551c56fe4f776e61626c653a206e6577206f776e657220697320746865207a65726f2061646472657373536166654d6174683a206d756c7469706c69636174696f6e206f766572666c6f774f776e61626c653a2063616c6c6572206973206e6f7420746865206f776e6572436f6e747261637420696e7374616e63652068617320616c7265616479206265656e20696e697469616c697a6564ddf252ad1be2c89b69c2b068fc378daa952ba7f163c4a11628f55a4df523b3efa265627a7a723158203c32c7fcac071830707216217e983eed96f16793018e8396cf48f567245715e164736f6c634300050c0032",
  "source": "pragma solidity 0.5.12;\n\nimport './interfaces/IERC721.sol';\nimport './interfaces/IERC721Enumerable.sol';\nimport './interfaces/IPublicLock.sol';\nimport '@openzeppelin/contracts-ethereum-package/contracts/ownership/Ownable.sol';\nimport '@openzeppelin/contracts-ethereum-package/contracts/introspection/ERC165.sol';\nimport '@openzeppelin/upgrades/contracts/Initializable.sol';\nimport './mixins/MixinApproval.sol';\nimport './mixins/MixinDisableAndDestroy.sol';\nimport './mixins/MixinERC721Enumerable.sol';\nimport './mixins/MixinEventHooks.sol';\nimport './mixins/MixinFunds.sol';\nimport './mixins/MixinGrantKeys.sol';\nimport './mixins/MixinKeys.sol';\nimport './mixins/MixinLockCore.sol';\nimport './mixins/MixinLockMetadata.sol';\nimport './mixins/MixinPurchase.sol';\nimport './mixins/MixinRefunds.sol';\nimport './mixins/MixinTransfer.sol';\n\n/**\n * @title The Lock contract\n * @author Julien Genestoux (unlock-protocol.com)\n * @dev ERC165 allows our contract to be queried to determine whether it implements a given interface.\n * Every ERC-721 compliant contract must implement the ERC165 interface.\n * https://eips.ethereum.org/EIPS/eip-721\n */\ncontract PublicLock is\n  IERC721Enumerable,\n  IERC721,\n  IPublicLock,\n  Initializable,\n  ERC165,\n  Ownable,\n  MixinFunds,\n  MixinDisableAndDestroy,\n  MixinLockCore,\n  MixinKeys,\n  MixinLockMetadata,\n  MixinERC721Enumerable,\n  MixinEventHooks,\n  MixinGrantKeys,\n  MixinPurchase,\n  MixinApproval,\n  MixinTransfer,\n  MixinRefunds\n{\n  function initialize(\n    address _owner,\n    uint _expirationDuration,\n    address _tokenAddress,\n    uint _keyPrice,\n    uint _maxNumberOfKeys,\n    string memory _lockName\n  ) public\n    initializer()\n  {\n    Ownable.initialize(_owner);\n    MixinFunds.initialize(_tokenAddress);\n    MixinDisableAndDestroy.initialize();\n    MixinLockCore.initialize(_owner, _expirationDuration, _keyPrice, _maxNumberOfKeys);\n    MixinLockMetadata.initialize(_lockName);\n    MixinERC721Enumerable.initialize();\n    MixinRefunds.initialize();\n    // registering the interface for erc721 with ERC165.sol using\n    // the ID specified in the standard: https://eips.ethereum.org/EIPS/eip-721\n    _registerInterface(0x80ac58cd);\n  }\n\n  // The version number of the current implementation on this network\n  function publicLockVersion(\n  ) external pure\n    returns (uint16)\n  {\n    return 5;\n  }\n}\n",
  "sourcePath": "/Users/julien/repos/unlock/smart-contracts/contracts/PublicLock.sol",
  "compiler": {
    "name": "solc",
    "version": "0.5.12+commit.7709ece9.Emscripten.clang"
  },
  "schemaVersion": "3.0.18",
  "updatedAt": "2019-11-18T16:33:42.318Z",
  "devdoc": {
    "author": "Julien Genestoux (unlock-protocol.com)",
    "details": "ERC165 allows our contract to be queried to determine whether it implements a given interface. Every ERC-721 compliant contract must implement the ERC165 interface. https://eips.ethereum.org/EIPS/eip-721",
    "methods": {
      "balanceOf(address)": {
        "return": "The number of NFTs owned by `_owner`, either 0 or 1."
      },
      "cancelAndRefund()": {
        "details": "Destroys the user's key and sends a refund based on the amount of time remaining."
      },
      "cancelAndRefundFor(address,bytes)": {
        "details": "Cancels a key owned by a different user and sends the funds to the msg.sender.",
        "params": {
          "_keyOwner": "this user's key will be canceled",
          "_signature": "getCancelAndRefundApprovalHash signed by the _keyOwner"
        }
      },
      "destroyLock()": {
        "details": "Used to clean up old lock contracts from the blockchain TODO: add a check to ensure all keys are INVALID!"
      },
      "disableLock()": {
        "details": "Used to disable lock before migrating keys and/or destroying contract"
      },
      "fullRefund(address,uint256)": {
        "details": "Invoked by the lock owner to destroy the user's ket and perform a refund and cancellation of the key"
      },
      "getCancelAndRefundApprovalHash(address,address)": {
        "details": "returns the hash to sign in order to allow another user to cancel on your behalf."
      },
      "getCancelAndRefundValueFor(address)": {
        "details": "Determines how much of a refund a key owner would receive if they issued a cancelAndRefund block.timestamp. Note that due to the time required to mine a tx, the actual refund amount will be lower than what the user reads from this call."
      },
      "getOwnersByPage(uint256,uint256)": {
        "params": {
          "_page": "the page of key owners requested when faceted by page size",
          "_pageSize": "the number of Key Owners requested per page"
        }
      },
      "getTokenIdFor(address)": {
        "return": "The tokenId of the NFT, else revert"
      },
      "getTransferFee(address,uint256)": {
        "params": {
          "_owner": "The owner of the key check the transfer fee for."
        }
      },
      "invalidateApprovalToCancelKey()": {
        "details": "Increments the current nonce for the msg.sender. This can be used to invalidate a previously signed message."
      },
      "isApprovedForAll(address,address)": {
        "details": "Tells whether an operator is approved by a given owner",
        "params": {
          "_operator": "operator address which you want to query the approval of",
          "_owner": "owner address which you want to query the approval of"
        },
        "return": "bool whether the given operator is approved by the given owner"
      },
      "isOwner()": {
        "details": "Returns true if the caller is the current owner."
      },
      "keyExpirationTimestampFor(address)": {
        "details": "Returns the key's ExpirationTimestamp field for a given owner.",
        "params": {
          "_owner": "address of the user for whom we search the key"
        }
      },
      "owner()": {
        "details": "Returns the address of the current owner."
      },
      "purchase(uint256,address,address,bytes)": {
        "details": "Purchase functionSetting _value to keyPrice exactly doubles as a security feature. That way if the lock owner increases the price while my transaction is pending I can't be charged more than I expected (only applicable to ERC-20 when more than keyPrice is approved for spending).",
        "params": {
          "_data": "arbitrary data populated by the front-end which initiated the sale",
          "_recipient": "address of the recipient of the purchased key",
          "_referrer": "address of the user making the referral",
          "_value": "the number of tokens to pay for this purchase >= the current keyPrice - any applicable discount (_value is ignored when using ETH)"
        }
      },
      "renounceOwnership()": {
        "details": "Leaves the contract without owner. It will not be possible to call `onlyOwner` functions anymore. Can only be called by the current owner.     * > Note: Renouncing ownership will leave the contract without an owner, thereby removing any functionality that is only available to the owner."
      },
      "safeTransferFrom(address,address,uint256)": {
        "details": "This works identically to the other function with an extra data parameter, except this function just sets data to ''",
        "params": {
          "_from": "The current owner of the NFT",
          "_to": "The new owner",
          "_tokenId": "The NFT to transfer"
        }
      },
      "safeTransferFrom(address,address,uint256,bytes)": {
        "params": {
          "_data": "Additional data with no specified format, sent in call to `_to`",
          "_from": "The current owner of the NFT",
          "_to": "The new owner",
          "_tokenId": "The NFT to transfer"
        }
      },
      "setApprovalForAll(address,bool)": {
        "details": "Sets or unsets the approval of a given operator An operator is allowed to transfer all tokens of the sender on their behalf",
        "params": {
          "_approved": "representing the status of the approval to be set",
          "_to": "operator address to set the approval"
        }
      },
      "shareKey(address,uint256,uint256)": {
        "params": {
          "_timeShared": "The amount of time shared",
          "_to": "The recipient of the shared key",
          "_tokenId": "the key to share"
        }
      },
      "supportsInterface(bytes4)": {
        "details": "See `IERC165.supportsInterface`.     * Time complexity O(1), guaranteed to always use less than 30 000 gas."
      },
      "symbol()": {
        "details": "Gets the token symbol",
        "return": "string representing the token name"
      },
      "tokenByIndex(uint256)": {
        "details": "Throws if `_index` >= `totalSupply()`.",
        "params": {
          "_index": "A counter less than `totalSupply()`"
        },
        "return": "The token identifier for the `_index`th NFT,  (sort order not specified)"
      },
      "tokenOfOwnerByIndex(address,uint256)": {
        "details": "Throws if `_index` >= `balanceOf(_owner)` or if  `_owner` is the zero address, representing invalid NFTs.",
        "params": {
          "_index": "A counter less than `balanceOf(_owner)`",
          "_owner": "An address where we are interested in NFTs owned by them"
        },
        "return": "The token identifier for the `_index`th NFT assigned to `_owner`,   (sort order not specified)"
      },
      "tokenURI(uint256)": {
        "details": "Throws if `_tokenId` is not a valid NFT. URIs are defined in RFC 3986. The URI may point to a JSON file that conforms to the \"ERC721 Metadata JSON Schema\". https://github.com/ethereum/EIPs/blob/master/EIPS/eip-721.md"
      },
      "transferOwnership(address)": {
        "details": "Transfers ownership of the contract to a new account (`newOwner`). Can only be called by the current owner."
      },
      "withdraw(address,uint256)": {
        "details": "Called by owner to withdraw all funds from the lock and send them to the `beneficiary`.",
        "params": {
          "_amount": "specifies the max amount to withdraw, which may be reduced when considering the available balance. Set to 0 or MAX_UINT to withdraw everything.   * TODO: consider allowing anybody to trigger this as long as it goes to owner anyway? -- however be wary of draining funds as it breaks the `cancelAndRefund` and `fullRefund` use cases.",
          "_tokenAddress": "specifies the token address to withdraw or 0 for ETH. This is usually the same as `tokenAddress` in MixinFunds."
        }
      }
    },
    "title": "The Lock contract"
  },
  "userdoc": {
    "methods": {
      "approve(address,uint256)": {
        "notice": "This approves _approved to get ownership of _tokenId. Note: that since this is used for both purchase and transfer approvals the approved token may not exist."
      },
      "balanceOf(address)": {
        "notice": "In the specific case of a Lock, each owner can own only at most 1 key."
      },
      "expireKeyFor(address)": {
        "notice": "A function which lets the owner of the lock expire a users' key."
      },
      "getApproved(uint256)": {
        "notice": "Will return the approved recipient for a key, if any."
      },
      "getBalance(address,address)": {
        "notice": "Gets the current balance of the account provided."
      },
      "getHasValidKey(address)": {
        "notice": "Checks if the user has a non-expired key."
      },
      "getOwnersByPage(uint256,uint256)": {
        "notice": "A function which returns a subset of the keys for this Lock as an array"
      },
      "getTokenIdFor(address)": {
        "notice": "Find the tokenId for a given user"
      },
      "getTransferFee(address,uint256)": {
        "notice": "Determines how much of a fee a key owner would need to pay in order to transfer the key to another account.  This is pro-rated so the fee goes down overtime."
      },
      "grantKeys(address[],uint256[])": {
        "notice": "Allows the Lock owner to give a collection of users a key with no charge. Each key may be assigned a different expiration date."
      },
      "isKeyOwner(uint256,address)": {
        "notice": "Checks if the given address owns the given tokenId."
      },
      "numberOfOwners()": {
        "notice": "Public function which returns the total number of unique owners (both expired and valid).  This may be larger than totalSupply."
      },
      "safeTransferFrom(address,address,uint256)": {
        "notice": "Transfers the ownership of an NFT from one address to another address"
      },
      "safeTransferFrom(address,address,uint256,bytes)": {
        "notice": "Transfers the ownership of an NFT from one address to another address. When transfer is complete, this functions checks if `_to` is a smart contract (code size > 0). If so, it calls `onERC721Received` on `_to` and throws if the return value is not `bytes4(keccak256('onERC721Received(address,address,uint,bytes)'))`."
      },
      "setBaseTokenURI(string)": {
        "notice": "Allows the Lock owner to update the baseTokenURI for this Lock."
      },
      "shareKey(address,uint256,uint256)": {
        "notice": "Allows the key owner to share their key (parent key) by transferring a portion of the remaining time to a new key (child key)."
      },
      "tokenByIndex(uint256)": {
        "notice": "Enumerate valid NFTs"
      },
      "tokenOfOwnerByIndex(address,uint256)": {
        "notice": "Enumerate NFTs assigned to an owner"
      },
      "tokenURI(uint256)": {
        "notice": "A distinct Uniform Resource Identifier (URI) for a given asset."
      },
      "updateBeneficiary(address)": {
        "notice": "A function which lets the owner of the lock update the beneficiary account, which receives funds on withdrawal."
      },
      "updateKeyPrice(uint256)": {
        "notice": "A function which lets the owner of the lock to change the price for future purchases."
      },
      "updateLockName(string)": {
        "notice": "Allows the Lock owner to assign a descriptive name for this Lock."
      },
      "updateLockSymbol(string)": {
        "notice": "Allows the Lock owner to assign a Symbol for this Lock."
      },
      "updateRefundPenalty(uint256,uint256)": {
        "notice": "Allow the owner to change the refund penalty."
      },
      "updateTransferFee(uint256)": {
        "notice": "Allow the Lock owner to change the transfer fee."
      }
    }
  }
}