{
  "contractName": "Unlock",
  "abi": [
    {
      "anonymous": false,
      "inputs": [
        {
          "indexed": false,
          "internalType": "address",
          "name": "publicLockAddress",
          "type": "address"
        },
        {
          "indexed": false,
          "internalType": "string",
          "name": "globalTokenSymbol",
          "type": "string"
        },
        {
          "indexed": false,
          "internalType": "string",
          "name": "globalTokenURI",
          "type": "string"
        }
      ],
      "name": "ConfigUnlock",
      "type": "event"
    },
    {
      "anonymous": false,
      "inputs": [
        {
          "indexed": true,
          "internalType": "address",
          "name": "lockOwner",
          "type": "address"
        },
        {
          "indexed": true,
          "internalType": "address",
          "name": "newLockAddress",
          "type": "address"
        }
      ],
      "name": "NewLock",
      "type": "event"
    },
    {
      "anonymous": false,
      "inputs": [
        {
          "indexed": true,
          "internalType": "address",
          "name": "previousOwner",
          "type": "address"
        },
        {
          "indexed": true,
          "internalType": "address",
          "name": "newOwner",
          "type": "address"
        }
      ],
      "name": "OwnershipTransferred",
      "type": "event"
    },
    {
      "anonymous": false,
      "inputs": [
        {
          "indexed": false,
          "internalType": "uint256",
          "name": "grossNetworkProduct",
          "type": "uint256"
        },
        {
          "indexed": false,
          "internalType": "uint256",
          "name": "totalDiscountGranted",
          "type": "uint256"
        }
      ],
      "name": "ResetTrackedValue",
      "type": "event"
    },
    {
      "constant": true,
      "inputs": [],
      "name": "globalBaseTokenURI",
      "outputs": [
        {
          "internalType": "string",
          "name": "",
          "type": "string"
        }
      ],
      "payable": false,
      "stateMutability": "view",
      "type": "function"
    },
    {
      "constant": true,
      "inputs": [],
      "name": "globalTokenSymbol",
      "outputs": [
        {
          "internalType": "string",
          "name": "",
          "type": "string"
        }
      ],
      "payable": false,
      "stateMutability": "view",
      "type": "function"
    },
    {
      "constant": true,
      "inputs": [],
      "name": "grossNetworkProduct",
      "outputs": [
        {
          "internalType": "uint256",
          "name": "",
          "type": "uint256"
        }
      ],
      "payable": false,
      "stateMutability": "view",
      "type": "function"
    },
    {
      "constant": true,
      "inputs": [],
      "name": "isOwner",
      "outputs": [
        {
          "internalType": "bool",
          "name": "",
          "type": "bool"
        }
      ],
      "payable": false,
      "stateMutability": "view",
      "type": "function"
    },
    {
      "constant": true,
      "inputs": [
        {
          "internalType": "address",
          "name": "",
          "type": "address"
        }
      ],
      "name": "locks",
      "outputs": [
        {
          "internalType": "bool",
          "name": "deployed",
          "type": "bool"
        },
        {
          "internalType": "uint256",
          "name": "totalSales",
          "type": "uint256"
        },
        {
          "internalType": "uint256",
          "name": "yieldedDiscountTokens",
          "type": "uint256"
        }
      ],
      "payable": false,
      "stateMutability": "view",
      "type": "function"
    },
    {
      "constant": true,
      "inputs": [],
      "name": "owner",
      "outputs": [
        {
          "internalType": "address",
          "name": "",
          "type": "address"
        }
      ],
      "payable": false,
      "stateMutability": "view",
      "type": "function"
    },
    {
      "constant": true,
      "inputs": [],
      "name": "publicLockAddress",
      "outputs": [
        {
          "internalType": "address",
          "name": "",
          "type": "address"
        }
      ],
      "payable": false,
      "stateMutability": "view",
      "type": "function"
    },
    {
      "constant": false,
      "inputs": [],
      "name": "renounceOwnership",
      "outputs": [],
      "payable": false,
      "stateMutability": "nonpayable",
      "type": "function"
    },
    {
      "constant": true,
      "inputs": [],
      "name": "totalDiscountGranted",
      "outputs": [
        {
          "internalType": "uint256",
          "name": "",
          "type": "uint256"
        }
      ],
      "payable": false,
      "stateMutability": "view",
      "type": "function"
    },
    {
      "constant": false,
      "inputs": [
        {
          "internalType": "address",
          "name": "newOwner",
          "type": "address"
        }
      ],
      "name": "transferOwnership",
      "outputs": [],
      "payable": false,
      "stateMutability": "nonpayable",
      "type": "function"
    },
    {
      "constant": true,
      "inputs": [
        {
          "internalType": "address",
          "name": "",
          "type": "address"
        }
      ],
      "name": "uniswapExchanges",
      "outputs": [
        {
          "internalType": "contract IUniswap",
          "name": "",
          "type": "address"
        }
      ],
      "payable": false,
      "stateMutability": "view",
      "type": "function"
    },
    {
      "constant": false,
      "inputs": [
        {
          "internalType": "address",
          "name": "_owner",
          "type": "address"
        }
      ],
      "name": "initialize",
      "outputs": [],
      "payable": false,
      "stateMutability": "nonpayable",
      "type": "function"
    },
    {
      "constant": false,
      "inputs": [
        {
          "internalType": "uint256",
          "name": "_expirationDuration",
          "type": "uint256"
        },
        {
          "internalType": "address",
          "name": "_tokenAddress",
          "type": "address"
        },
        {
          "internalType": "uint256",
          "name": "_keyPrice",
          "type": "uint256"
        },
        {
          "internalType": "uint256",
          "name": "_maxNumberOfKeys",
          "type": "uint256"
        },
        {
          "internalType": "string",
          "name": "_lockName",
          "type": "string"
        },
        {
          "internalType": "bytes12",
          "name": "_salt",
          "type": "bytes12"
        }
      ],
      "name": "createLock",
      "outputs": [],
      "payable": false,
      "stateMutability": "nonpayable",
      "type": "function"
    },
    {
      "constant": true,
      "inputs": [
        {
          "internalType": "address",
          "name": "_purchaser",
          "type": "address"
        },
        {
          "internalType": "uint256",
          "name": "_keyPrice",
          "type": "uint256"
        }
      ],
      "name": "computeAvailableDiscountFor",
      "outputs": [
        {
          "internalType": "uint256",
          "name": "discount",
          "type": "uint256"
        },
        {
          "internalType": "uint256",
          "name": "tokens",
          "type": "uint256"
        }
      ],
      "payable": false,
      "stateMutability": "view",
      "type": "function"
    },
    {
      "constant": false,
      "inputs": [
        {
          "internalType": "uint256",
          "name": "_value",
          "type": "uint256"
        },
        {
          "internalType": "address",
          "name": "_referrer",
          "type": "address"
        }
      ],
      "name": "recordKeyPurchase",
      "outputs": [],
      "payable": false,
      "stateMutability": "nonpayable",
      "type": "function"
    },
    {
      "constant": false,
      "inputs": [
        {
          "internalType": "uint256",
          "name": "_discount",
          "type": "uint256"
        },
        {
          "internalType": "uint256",
          "name": "_tokens",
          "type": "uint256"
        }
      ],
      "name": "recordConsumedDiscount",
      "outputs": [],
      "payable": false,
      "stateMutability": "nonpayable",
      "type": "function"
    },
    {
      "constant": true,
      "inputs": [],
      "name": "unlockVersion",
      "outputs": [
        {
          "internalType": "uint16",
          "name": "",
          "type": "uint16"
        }
      ],
      "payable": false,
      "stateMutability": "pure",
      "type": "function"
    },
    {
      "constant": false,
      "inputs": [
        {
          "internalType": "address",
          "name": "_publicLockAddress",
          "type": "address"
        },
        {
          "internalType": "string",
          "name": "_symbol",
          "type": "string"
        },
        {
          "internalType": "string",
          "name": "_URI",
          "type": "string"
        }
      ],
      "name": "configUnlock",
      "outputs": [],
      "payable": false,
      "stateMutability": "nonpayable",
      "type": "function"
    },
    {
      "constant": false,
      "inputs": [
        {
          "internalType": "address",
          "name": "_tokenAddress",
          "type": "address"
        },
        {
          "internalType": "address",
          "name": "_exchangeAddress",
          "type": "address"
        }
      ],
      "name": "setExchange",
      "outputs": [],
      "payable": false,
      "stateMutability": "nonpayable",
      "type": "function"
    },
    {
      "constant": false,
      "inputs": [
        {
          "internalType": "uint256",
          "name": "_grossNetworkProduct",
          "type": "uint256"
        },
        {
          "internalType": "uint256",
          "name": "_totalDiscountGranted",
          "type": "uint256"
        }
      ],
      "name": "resetTrackedValue",
      "outputs": [],
      "payable": false,
      "stateMutability": "nonpayable",
      "type": "function"
    }
  ],
  "bytecode": "0x60806040526112b0806100136000396000f3fe608060405234801561001057600080fd5b506004361061012c5760003560e01c8063963a9478116100ad578063cbdd9d8611610071578063cbdd9d861461047b578063cec410521461054d578063d6e9e80314610555578063f2fde38b1461055d578063f8328991146105835761012c565b8063963a94781461036d578063a082eb0e14610390578063a998e9fb146103aa578063bb60160e14610427578063c4d66de8146104555761012c565b8063715018a6116100f4578063715018a6146102d357806388fa91f9146102db5780638da5cb5b1461031d5780638f32d59b14610325578063939d9f1f146103415761012c565b80630cb175e31461013157806336524663146101765780634220bd461461019b57806342d92106146101ba5780635de9a1371461028d575b600080fd5b61015d6004803603604081101561014757600080fd5b506001600160a01b03813516906020013561058b565b6040805192835260208301919091528051918290030190f35b6101996004803603604081101561018c57600080fd5b5080359060200135610594565b005b6101a36105f2565b6040805161ffff9092168252519081900360200190f35b610199600480360360c08110156101d057600080fd5b8135916001600160a01b036020820135169160408201359160608101359181019060a08101608082013564010000000081111561020c57600080fd5b82018360208201111561021e57600080fd5b8035906020019184600183028401116401000000008311171561024057600080fd5b91908080601f016020809104026020016040519081016040528093929190818152602001838380828437600092019190915250929550505090356001600160a01b03191691506105f89050565b6102b3600480360360208110156102a357600080fd5b50356001600160a01b03166107fc565b604080519315158452602084019290925282820152519081900360600190f35b610199610821565b610301600480360360208110156102f157600080fd5b50356001600160a01b03166108b2565b604080516001600160a01b039092168252519081900360200190f35b6103016108cd565b61032d6108dc565b604080519115158252519081900360200190f35b6101996004803603604081101561035757600080fd5b50803590602001356001600160a01b0316610902565b6101996004803603604081101561038357600080fd5b5080359060200135610aa1565b610398610b31565b60408051918252519081900360200190f35b6103b2610b37565b6040805160208082528351818301528351919283929083019185019080838360005b838110156103ec5781810151838201526020016103d4565b50505050905090810190601f1680156104195780820380516001836020036101000a031916815260200191505b509250505060405180910390f35b6101996004803603604081101561043d57600080fd5b506001600160a01b0381358116916020013516610bc5565b6101996004803603602081101561046b57600080fd5b50356001600160a01b0316610c3a565b6101996004803603606081101561049157600080fd5b6001600160a01b0382351691908101906040810160208201356401000000008111156104bc57600080fd5b8201836020820111156104ce57600080fd5b803590602001918460018302840111640100000000831117156104f057600080fd5b91939092909160208101903564010000000081111561050e57600080fd5b82018360208201111561052057600080fd5b8035906020019184600183028401116401000000008311171561054257600080fd5b509092509050610ce5565b6103b2610e0e565b610398610e69565b6101996004803603602081101561057357600080fd5b50356001600160a01b0316610e6f565b610301610ec2565b50600091829150565b3360009081526068602052604090205460ff166105e5576040805162461bcd60e51b815260206004820152600a6024820152694f4e4c595f4c4f434b5360b01b604482015290519081900360640190fd5b60678054830190555b5050565b60055b90565b606b546001600160a01b031661064d576040805162461bcd60e51b81526020600482015260156024820152744d495353494e475f4c4f434b5f54454d504c41544560581b604482015290519081900360640190fd5b606b54600090610666906001600160a01b031683610ed1565b9050806001600160a01b0316636eadde433389898989896040518763ffffffff1660e01b815260040180876001600160a01b03166001600160a01b03168152602001868152602001856001600160a01b03166001600160a01b0316815260200184815260200183815260200180602001828103825283818151815260200191508051906020019080838360005b8381101561070b5781810151838201526020016106f3565b50505050905090810190601f1680156107385780820380516001836020036101000a031916815260200191505b50975050505050505050600060405180830381600087803b15801561075c57600080fd5b505af1158015610770573d6000803e3d6000fd5b5050604080516060810182526001808252600060208084018281528486018381526001600160a01b038a1680855260689093528684209551865460ff1916901515178655905193850193909355915160029093019290925591519193503392507f01017ed19df0c7f8acc436147b234b09664a9fb4797b4fa3fb9e599c2eb67be791a350505050505050565b60686020526000908152604090208054600182015460029092015460ff909116919083565b6108296108dc565b610868576040805162461bcd60e51b8152602060048201819052602482015260008051602061122e833981519152604482015290519081900360640190fd5b6033546040516000916001600160a01b0316907f8be0079c531659141344cd1fd0a4f28419497f9722a3daafe3b4186f6b6457e0908390a3603380546001600160a01b0319169055565b606c602052600090815260409020546001600160a01b031681565b6033546001600160a01b031690565b6033546000906001600160a01b03166108f3610fd3565b6001600160a01b031614905090565b3360009081526068602052604090205460ff16610953576040805162461bcd60e51b815260206004820152600a6024820152694f4e4c595f4c4f434b5360b01b604482015290519081900360640190fd5b81156105ee57600080336001600160a01b0316639d76ea586040518163ffffffff1660e01b815260040160206040518083038186803b15801561099557600080fd5b505afa1580156109a9573d6000803e3d6000fd5b505050506040513d60208110156109bf57600080fd5b505190506001600160a01b03811615610a77576001600160a01b038082166000908152606c6020526040902054168015610a6c57806001600160a01b03166395b68fe7866040518263ffffffff1660e01b815260040180828152602001915050602060405180830381600087803b158015610a3957600080fd5b505af1158015610a4d573d6000803e3d6000fd5b505050506040513d6020811015610a6357600080fd5b50519250610a71565b600092505b50610a7b565b8391505b506066805482019055336000908152606860205260409020600101805490910190555050565b610aa96108dc565b610ae8576040805162461bcd60e51b8152602060048201819052602482015260008051602061122e833981519152604482015290519081900360640190fd5b60668290556067819055604080518381526020810183905281517f7b2ce3c83b45f79993ff2cbf5651caff2dfe04010b4846e03066b84e3e4059bb929181900390910190a15050565b60675481565b6069805460408051602060026001851615610100026000190190941693909304601f81018490048402820184019092528181529291830182828015610bbd5780601f10610b9257610100808354040283529160200191610bbd565b820191906000526020600020905b815481529060010190602001808311610ba057829003601f168201915b505050505081565b610bcd6108dc565b610c0c576040805162461bcd60e51b8152602060048201819052602482015260008051602061122e833981519152604482015290519081900360640190fd5b6001600160a01b039182166000908152606c6020526040902080546001600160a01b03191691909216179055565b600054610100900460ff1680610c535750610c53610fd7565b80610c61575060005460ff16155b610c9c5760405162461bcd60e51b815260040180806020018281038252602e81526020018061124e602e913960400191505060405180910390fd5b600054610100900460ff16158015610cc7576000805460ff1961ff0019909116610100171660011790555b610cd082610fdd565b80156105ee576000805461ff00191690555050565b610ced6108dc565b610d2c576040805162461bcd60e51b8152602060048201819052602482015260008051602061122e833981519152604482015290519081900360640190fd5b606b80546001600160a01b0319166001600160a01b038716179055610d53606a858561116f565b50610d606069838361116f565b507fcd64a32e52b6b3ef25429757f08a77c9b72b7184c121b57603db7248c3b0b59c858585858560405180866001600160a01b03166001600160a01b0316815260200180602001806020018381038352878782818152602001925080828437600083820152601f01601f191690910184810383528581526020019050858580828437600083820152604051601f909101601f1916909201829003995090975050505050505050a15050505050565b606a805460408051602060026001851615610100026000190190941693909304601f81018490048402820184019092528181529291830182828015610bbd5780601f10610b9257610100808354040283529160200191610bbd565b60665481565b610e776108dc565b610eb6576040805162461bcd60e51b8152602060048201819052602482015260008051602061122e833981519152604482015290519081900360640190fd5b610ebf816110ce565b50565b606b546001600160a01b031681565b6000604051733d602d80600a3d3981f3363d3d373d3d3d363d7360601b81528360601b60148201526e5af43d82803e903d91602b57fd5bf360881b6028820152603781203360601b610100830152836101148301526001600160f81b031960408301523060601b60418301526101008201516055830152806075830152605560408301209250823b60008114610f6a5760009350610f79565b6101008301516037846000f593505b5050506001600160a01b038116610fcd576040805162461bcd60e51b8152602060048201526013602482015272141493d61657d111541313d657d19052531151606a1b604482015290519081900360640190fd5b92915050565b3390565b303b1590565b600054610100900460ff1680610ff65750610ff6610fd7565b80611004575060005460ff16155b61103f5760405162461bcd60e51b815260040180806020018281038252602e81526020018061124e602e913960400191505060405180910390fd5b600054610100900460ff1615801561106a576000805460ff1961ff0019909116610100171660011790555b603380546001600160a01b0319166001600160a01b0384811691909117918290556040519116906000907f8be0079c531659141344cd1fd0a4f28419497f9722a3daafe3b4186f6b6457e0908290a380156105ee576000805461ff00191690555050565b6001600160a01b0381166111135760405162461bcd60e51b81526004018080602001828103825260268152602001806112086026913960400191505060405180910390fd5b6033546040516001600160a01b038084169216907f8be0079c531659141344cd1fd0a4f28419497f9722a3daafe3b4186f6b6457e090600090a3603380546001600160a01b0319166001600160a01b0392909216919091179055565b828054600181600116156101000203166002900490600052602060002090601f016020900481019282601f106111b05782800160ff198235161785556111dd565b828001600101855582156111dd579182015b828111156111dd5782358255916020019190600101906111c2565b506111e99291506111ed565b5090565b6105f591905b808211156111e957600081556001016111f356fe4f776e61626c653a206e6577206f776e657220697320746865207a65726f20616464726573734f776e61626c653a2063616c6c6572206973206e6f7420746865206f776e6572436f6e747261637420696e7374616e63652068617320616c7265616479206265656e20696e697469616c697a6564a265627a7a7231582022291f63faf4c8fad6abf1fdc47633c028eecc86cd82cd7b63125522d8f838e064736f6c634300050c0032",
  "source": "pragma solidity 0.5.12;\n\n/**\n * @title The Unlock contract\n * @author Julien Genestoux (unlock-protocol.com)\n * This smart contract has 3 main roles:\n *  1. Distribute discounts to discount token holders\n *  2. Grant dicount tokens to users making referrals and/or publishers granting discounts.\n *  3. Create & deploy Public Lock contracts.\n * In order to achieve these 3 elements, it keeps track of several things such as\n *  a. Deployed locks addresses and balances of discount tokens granted by each lock.\n *  b. The total network product (sum of all key sales, net of discounts)\n *  c. Total of discounts granted\n *  d. Balances of discount tokens, including 'frozen' tokens (which have been used to claim\n * discounts and cannot be used/transfered for a given period)\n *  e. Growth rate of Network Product\n *  f. Growth rate of Discount tokens supply\n * The smart contract has an owner who only can perform the following\n *  - Upgrades\n *  - Change in golden rules (20% of GDP available in discounts, and supply growth rate is at most\n * 50% of GNP growth rate)\n * NOTE: This smart contract is partially implemented for now until enough Locks are deployed and\n * in the wild.\n * The partial implementation includes the following features:\n *  a. Keeping track of deployed locks\n *  b. Keeping track of GNP\n */\n\nimport '@openzeppelin/contracts-ethereum-package/contracts/ownership/Ownable.sol';\nimport '@openzeppelin/upgrades/contracts/Initializable.sol';\nimport 'hardlydifficult-ethereum-contracts/contracts/proxies/Clone2Factory.sol';\nimport './PublicLock.sol';\nimport './interfaces/IUnlock.sol';\nimport './interfaces/IUniswap.sol';\n\n\n/// @dev Must list the direct base contracts in the order from most base-like to most derived.\n/// https://solidity.readthedocs.io/en/latest/contracts.html#multiple-inheritance-and-linearization\ncontract Unlock is\n  IUnlock,\n  Initializable,\n  Ownable,\n  Clone2Factory\n{\n  /**\n   * The struct for a lock\n   * We use deployed to keep track of deployments.\n   * This is required because both totalSales and yieldedDiscountTokens are 0 when initialized,\n   * which would be the same values when the lock is not set.\n   */\n  struct LockBalances {\n    bool deployed;\n    uint totalSales; // This is in wei\n    uint yieldedDiscountTokens;\n  }\n\n  modifier onlyFromDeployedLock() {\n    require(locks[msg.sender].deployed, 'ONLY_LOCKS');\n    _;\n  }\n\n  uint public grossNetworkProduct;\n\n  uint public totalDiscountGranted;\n\n  // We keep track of deployed locks to ensure that callers are all deployed locks.\n  mapping (address => LockBalances) public locks;\n\n  // global base token URI\n  // Used by locks where the owner has not set a custom base URI.\n  string public globalBaseTokenURI;\n\n  // global base token symbol\n  // Used by locks where the owner has not set a custom symbol\n  string public globalTokenSymbol;\n\n  // The address of the public lock template, used when `createLock` is called\n  address public publicLockAddress;\n\n  // Map token address to exchange contract address if the token is supported\n  // Used for GDP calculations\n  mapping (address => IUniswap) public uniswapExchanges;\n\n  // Use initialize instead of a constructor to support proxies (for upgradeability via zos).\n  function initialize(\n    address _owner\n  )\n    public\n    initializer()\n  {\n    // We must manually initialize Ownable.sol\n    Ownable.initialize(_owner);\n  }\n\n  /**\n  * @dev Create lock\n  * This deploys a lock for a creator. It also keeps track of the deployed lock.\n  * @param _tokenAddress set to the ERC20 token address, or 0 for ETH.\n  * @param _salt an identifier for the Lock, which is unique for the user.\n  * This may be implemented as a sequence ID or with RNG. It's used with `create2`\n  * to know the lock's address before the transaction is mined.\n  */\n  function createLock(\n    uint _expirationDuration,\n    address _tokenAddress,\n    uint _keyPrice,\n    uint _maxNumberOfKeys,\n    string memory _lockName,\n    bytes12 _salt\n  ) public\n  {\n    require(publicLockAddress != address(0), 'MISSING_LOCK_TEMPLATE');\n\n    // create lock\n    address newLock = _createClone2(publicLockAddress, _salt);\n    PublicLock(newLock).initialize(\n      msg.sender,\n      _expirationDuration,\n      _tokenAddress,\n      _keyPrice,\n      _maxNumberOfKeys,\n      _lockName\n    );\n\n    // Assign the new Lock\n    locks[newLock] = LockBalances({\n      deployed: true,\n      totalSales: 0,\n      yieldedDiscountTokens: 0\n    });\n\n    // trigger event\n    emit NewLock(msg.sender, newLock);\n  }\n\n  /**\n   * This function returns the discount available for a user, when purchasing a\n   * a key from a lock.\n   * This does not modify the state. It returns both the discount and the number of tokens\n   * consumed to grant that discount.\n   * TODO: actually implement this.\n   */\n  function computeAvailableDiscountFor(\n    address _purchaser, // solhint-disable-line no-unused-vars\n    uint _keyPrice // solhint-disable-line no-unused-vars\n  )\n    public\n    view\n    returns (uint discount, uint tokens)\n  {\n    // TODO: implement me\n    return (0, 0);\n  }\n\n  /**\n   * This function keeps track of the added GDP, as well as grants of discount tokens\n   * to the referrer, if applicable.\n   * The number of discount tokens granted is based on the value of the referal,\n   * the current growth rate and the lock's discount token distribution rate\n   * This function is invoked by a previously deployed lock only.\n   * TODO: actually implement\n   */\n  function recordKeyPurchase(\n    uint _value,\n    address _referrer // solhint-disable-line no-unused-vars\n  )\n    public\n    onlyFromDeployedLock()\n  {\n    if(_value > 0) {\n      uint valueInETH;\n      address tokenAddress = PublicLock(msg.sender).tokenAddress();\n      if(tokenAddress != address(0)) {\n        // If priced in an ERC-20 token, find the supported uniswap exchange\n        IUniswap exchange = uniswapExchanges[tokenAddress];\n        if(address(exchange) != address(0)) {\n          valueInETH = exchange.getTokenToEthInputPrice(_value);\n        } else {\n          // If the token type is not supported, assume 0 value\n          valueInETH = 0;\n        }\n      }\n      else {\n        // If priced in ETH (or value is 0), no conversion is required\n        valueInETH = _value;\n      }\n\n      grossNetworkProduct += valueInETH;\n      locks[msg.sender].totalSales += valueInETH;\n    }\n  }\n\n  /**\n   * This function will keep track of consumed discounts by a given user.\n   * It will also grant discount tokens to the creator who is granting the discount based on the\n   * amount of discount and compensation rate.\n   * This function is invoked by a previously deployed lock only.\n   */\n  function recordConsumedDiscount(\n    uint _discount,\n    uint _tokens // solhint-disable-line no-unused-vars\n  )\n    public\n    onlyFromDeployedLock()\n  {\n    // TODO: implement me\n    totalDiscountGranted += _discount;\n    return;\n  }\n\n  // The version number of the current Unlock implementation on this network\n  function unlockVersion(\n  ) external pure\n    returns (uint16)\n  {\n    return 5;\n  }\n\n  // function for the owner to update configuration variables\n  function configUnlock(\n    address _publicLockAddress,\n    string calldata _symbol,\n    string calldata _URI\n  ) external\n    onlyOwner\n  {\n    publicLockAddress = _publicLockAddress;\n    globalTokenSymbol = _symbol;\n    globalBaseTokenURI = _URI;\n\n    emit ConfigUnlock(_publicLockAddress, _symbol, _URI);\n  }\n\n  // allows the owner to set the exchange address to use for value conversions\n  // setting the _exchangeAddress to address(0) removes support for the token\n  function setExchange(\n    address _tokenAddress,\n    address _exchangeAddress\n  ) external\n    onlyOwner\n  {\n    uniswapExchanges[_tokenAddress] = IUniswap(_exchangeAddress);\n  }\n\n  // Allows the owner to change the value tracking variables as needed.\n  function resetTrackedValue(\n    uint _grossNetworkProduct,\n    uint _totalDiscountGranted\n  ) external\n    onlyOwner\n  {\n    grossNetworkProduct = _grossNetworkProduct;\n    totalDiscountGranted = _totalDiscountGranted;\n\n    emit ResetTrackedValue(_grossNetworkProduct, _totalDiscountGranted);\n  }\n}\n",
  "sourcePath": "/Users/julien/repos/unlock/smart-contracts/contracts/Unlock.sol",
  "compiler": {
    "name": "solc",
    "version": "0.5.12+commit.7709ece9.Emscripten.clang"
  },
  "schemaVersion": "3.0.18",
  "updatedAt": "2019-11-18T16:33:42.322Z",
  "devdoc": {
    "details": "Must list the direct base contracts in the order from most base-like to most derived. https://solidity.readthedocs.io/en/latest/contracts.html#multiple-inheritance-and-linearization",
    "methods": {
      "createLock(uint256,address,uint256,uint256,string,bytes12)": {
        "details": "Create lock This deploys a lock for a creator. It also keeps track of the deployed lock.",
        "params": {
          "_salt": "an identifier for the Lock, which is unique for the user. This may be implemented as a sequence ID or with RNG. It's used with `create2` to know the lock's address before the transaction is mined.",
          "_tokenAddress": "set to the ERC20 token address, or 0 for ETH."
        }
      },
      "isOwner()": {
        "details": "Returns true if the caller is the current owner."
      },
      "owner()": {
        "details": "Returns the address of the current owner."
      },
      "renounceOwnership()": {
        "details": "Leaves the contract without owner. It will not be possible to call `onlyOwner` functions anymore. Can only be called by the current owner.     * > Note: Renouncing ownership will leave the contract without an owner, thereby removing any functionality that is only available to the owner."
      },
      "transferOwnership(address)": {
        "details": "Transfers ownership of the contract to a new account (`newOwner`). Can only be called by the current owner."
      }
    }
  },
  "userdoc": {
    "methods": {
      "computeAvailableDiscountFor(address,uint256)": {
        "notice": "This function returns the discount available for a user, when purchasing a a key from a lock. This does not modify the state. It returns both the discount and the number of tokens consumed to grant that discount. TODO: actually implement this."
      },
      "recordConsumedDiscount(uint256,uint256)": {
        "notice": "This function will keep track of consumed discounts by a given user. It will also grant discount tokens to the creator who is granting the discount based on the amount of discount and compensation rate. This function is invoked by a previously deployed lock only."
      },
      "recordKeyPurchase(uint256,address)": {
        "notice": "This function keeps track of the added GDP, as well as grants of discount tokens to the referrer, if applicable. The number of discount tokens granted is based on the value of the referal, the current growth rate and the lock's discount token distribution rate This function is invoked by a previously deployed lock only. TODO: actually implement"
      }
    }
  }
}