{
  "_format": "hh-sol-artifact-1",
  "contractName": "UnlockUniswapOracle",
  "sourceName": "contracts/UnlockUniswapOracle.sol",
  "abi": [
    {
      "inputs": [
        {
          "internalType": "address",
          "name": "_factory",
          "type": "address"
        }
      ],
      "stateMutability": "nonpayable",
      "type": "constructor"
    },
    {
      "inputs": [
        {
          "internalType": "address",
          "name": "token1",
          "type": "address"
        },
        {
          "internalType": "address",
          "name": "token2",
          "type": "address"
        }
      ],
      "name": "MISSING_POOL",
      "type": "error"
    },
    {
      "inputs": [],
      "name": "T",
      "type": "error"
    },
    {
      "anonymous": false,
      "inputs": [
        {
          "indexed": false,
          "internalType": "address",
          "name": "token1",
          "type": "address"
        },
        {
          "indexed": false,
          "internalType": "address",
          "name": "token2",
          "type": "address"
        }
      ],
      "name": "PairAdded",
      "type": "event"
    },
    {
      "inputs": [],
      "name": "PERIOD",
      "outputs": [
        {
          "internalType": "uint256",
          "name": "",
          "type": "uint256"
        }
      ],
      "stateMutability": "view",
      "type": "function"
    },
    {
      "inputs": [
        {
          "internalType": "address",
          "name": "_tokenIn",
          "type": "address"
        },
        {
          "internalType": "uint256",
          "name": "_amountIn",
          "type": "uint256"
        },
        {
          "internalType": "address",
          "name": "_tokenOut",
          "type": "address"
        }
      ],
      "name": "consult",
      "outputs": [
        {
          "internalType": "uint256",
          "name": "quoteAmount",
          "type": "uint256"
        }
      ],
      "stateMutability": "view",
      "type": "function"
    },
    {
      "inputs": [],
      "name": "factory",
      "outputs": [
        {
          "internalType": "address",
          "name": "",
          "type": "address"
        }
      ],
      "stateMutability": "view",
      "type": "function"
    },
    {
      "inputs": [
        {
          "internalType": "address",
          "name": "_tokenIn",
          "type": "address"
        },
        {
          "internalType": "address",
          "name": "_tokenOut",
          "type": "address"
        }
      ],
      "name": "update",
      "outputs": [],
      "stateMutability": "nonpayable",
      "type": "function"
    },
    {
      "inputs": [
        {
          "internalType": "address",
          "name": "_tokenIn",
          "type": "address"
        },
        {
          "internalType": "uint256",
          "name": "_amountIn",
          "type": "uint256"
        },
        {
          "internalType": "address",
          "name": "_tokenOut",
          "type": "address"
        }
      ],
      "name": "updateAndConsult",
      "outputs": [
        {
          "internalType": "uint256",
          "name": "_amountOut",
          "type": "uint256"
        }
      ],
      "stateMutability": "view",
      "type": "function"
    }
  ],
  "bytecode": "0x60a06040526101f46000806101000a81548162ffffff021916908362ffffff1602179055503480156200003157600080fd5b506040516200196d3803806200196d8339818101604052810190620000579190620000fc565b8073ffffffffffffffffffffffffffffffffffffffff1660808173ffffffffffffffffffffffffffffffffffffffff1681525050506200012e565b600080fd5b600073ffffffffffffffffffffffffffffffffffffffff82169050919050565b6000620000c48262000097565b9050919050565b620000d681620000b7565b8114620000e257600080fd5b50565b600081519050620000f681620000cb565b92915050565b60006020828403121562000115576200011462000092565b5b60006200012584828501620000e5565b91505092915050565b60805161181562000158600039600081816101190152818161028f01526102b501526118156000f3fe608060405234801561001057600080fd5b50600436106100575760003560e01c80638c86f1e41461005c578063b4d1d7951461008c578063c1e553e7146100aa578063c45a0155146100da578063c640752d146100f8575b600080fd5b61007660048036038101906100719190610ea4565b610114565b6040516100839190610f06565b60405180910390f35b610094610271565b6040516100a19190610f06565b60405180910390f35b6100c460048036038101906100bf9190610ea4565b610277565b6040516100d19190610f06565b60405180910390f35b6100e261028d565b6040516100ef9190610f30565b60405180910390f35b610112600480360381019061010d9190610f4b565b6102b1565b005b6000807f000000000000000000000000000000000000000000000000000000000000000073ffffffffffffffffffffffffffffffffffffffff16631698ee82868560008054906101000a900462ffffff166040518463ffffffff1660e01b815260040161018393929190610fa9565b60206040518083038186803b15801561019b57600080fd5b505afa1580156101af573d6000803e3d6000fd5b505050506040513d601f19601f820116820180604052508101906101d39190610ff5565b9050600073ffffffffffffffffffffffffffffffffffffffff168173ffffffffffffffffffffffffffffffffffffffff1614156102495784836040517f5e9cbc3a000000000000000000000000000000000000000000000000000000008152600401610240929190611022565b60405180910390fd5b600061025782610e10610423565b50905061026681868887610709565b925050509392505050565b610e1081565b6000610284848484610114565b90509392505050565b7f000000000000000000000000000000000000000000000000000000000000000081565b60007f000000000000000000000000000000000000000000000000000000000000000073ffffffffffffffffffffffffffffffffffffffff16631698ee82848460008054906101000a900462ffffff166040518463ffffffff1660e01b815260040161031f93929190610fa9565b60206040518083038186803b15801561033757600080fd5b505afa15801561034b573d6000803e3d6000fd5b505050506040513d601f19601f8201168201806040525081019061036f9190610ff5565b9050600073ffffffffffffffffffffffffffffffffffffffff168173ffffffffffffffffffffffffffffffffffffffff1614156103e55782826040517f5e9cbc3a0000000000000000000000000000000000000000000000000000000081526004016103dc929190611022565b60405180910390fd5b7fc26cc79589f7c5b1fb18650002371abf239e6083ab356e4179c11da5185611ec8383604051610416929190611022565b60405180910390a1505050565b60008060008363ffffffff161415610470576040517f08c379a0000000000000000000000000000000000000000000000000000000008152600401610467906110a8565b60405180910390fd5b6000600267ffffffffffffffff81111561048d5761048c6110c8565b5b6040519080825280602002602001820160405280156104bb5781602001602082028036833780820191505090505b50905083816000815181106104d3576104d26110f7565b5b602002602001019063ffffffff16908163ffffffff1681525050600081600181518110610503576105026110f7565b5b602002602001019063ffffffff16908163ffffffff16815250506000808673ffffffffffffffffffffffffffffffffffffffff1663883bdbfd846040518263ffffffff1660e01b815260040161055991906111f4565b60006040518083038186803b15801561057157600080fd5b505afa158015610585573d6000803e3d6000fd5b505050506040513d6000823e3d601f19601f820116820180604052508101906105ae9190611468565b915091506000826000815181106105c8576105c76110f7565b5b6020026020010151836001815181106105e4576105e36110f7565b5b60200260200101516105f6919061150f565b905060008260008151811061060e5761060d6110f7565b5b60200260200101518360018151811061062a576106296110f7565b5b602002602001015161063c919061158a565b90508763ffffffff168261065091906115ed565b965060008260060b12801561067a575060008863ffffffff16836106749190611657565b60060b14155b1561068e57868061068a90611695565b9750505b600073ffffffffffffffffffffffffffffffffffffffff80168963ffffffff166106b89190611702565b905060208273ffffffffffffffffffffffffffffffffffffffff1677ffffffffffffffffffffffffffffffffffffffffffffffff16901b816106fa9190611754565b96505050505050509250929050565b60008061071586610915565b90506fffffffffffffffffffffffffffffffff80168173ffffffffffffffffffffffffffffffffffffffff161161082f5760008173ffffffffffffffffffffffffffffffffffffffff168273ffffffffffffffffffffffffffffffffffffffff166107809190611785565b90508373ffffffffffffffffffffffffffffffffffffffff168573ffffffffffffffffffffffffffffffffffffffff16106107f0576107eb7801000000000000000000000000000000000000000000000000876fffffffffffffffffffffffffffffffff1683610d22565b610827565b61082681876fffffffffffffffffffffffffffffffff167801000000000000000000000000000000000000000000000000610d22565b5b92505061090c565b60006108718273ffffffffffffffffffffffffffffffffffffffff168373ffffffffffffffffffffffffffffffffffffffff1668010000000000000000610d22565b90508373ffffffffffffffffffffffffffffffffffffffff168573ffffffffffffffffffffffffffffffffffffffff16106108d9576108d4700100000000000000000000000000000000876fffffffffffffffffffffffffffffffff1683610d22565b610908565b61090781876fffffffffffffffffffffffffffffffff16700100000000000000000000000000000000610d22565b5b9250505b50949350505050565b60008060008360020b1261092c578260020b610934565b8260020b6000035b90507ffffffffffffffffffffffffffffffffffffffffffffffffffffffffffff2761860000360020b811115610996576040517f2bc80f3a00000000000000000000000000000000000000000000000000000000815260040160405180910390fd5b6000806001831614156109ba577001000000000000000000000000000000006109cc565b6ffffcb933bd6fad37aa2d162d1a5940015b70ffffffffffffffffffffffffffffffffff16905060006002831614610a065760806ffff97272373d413259a46990580e213a8202901c90505b60006004831614610a2b5760806ffff2e50f5f656932ef12357cf3c7fdcc8202901c90505b60006008831614610a505760806fffe5caca7e10e4e61c3624eaa0941cd08202901c90505b60006010831614610a755760806fffcb9843d60f6159c9db58835c9266448202901c90505b60006020831614610a9a5760806fff973b41fa98c081472e6896dfb254c08202901c90505b60006040831614610abf5760806fff2ea16466c96a3843ec78b326b528618202901c90505b60006080831614610ae45760806ffe5dee046a99a2a811c461f1969c30538202901c90505b6000610100831614610b0a5760806ffcbe86c7900a88aedcffc83b479aa3a48202901c90505b6000610200831614610b305760806ff987a7253ac413176f2b074cf7815e548202901c90505b6000610400831614610b565760806ff3392b0822b70005940c7a398e4b70f38202901c90505b6000610800831614610b7c5760806fe7159475a2c29b7443b29c7fa6e889d98202901c90505b6000611000831614610ba25760806fd097f3bdfd2022b8845ad8f792aa58258202901c90505b6000612000831614610bc85760806fa9f746462d870fdf8a65dc1f90e061e58202901c90505b6000614000831614610bee5760806f70d869a156d2a1b890bb3df62baf32f78202901c90505b6000618000831614610c145760806f31be135f97d08fd981231505542fcfa68202901c90505b600062010000831614610c3b5760806f09aa508b5b7a84e1c677de54f3e99bc98202901c90505b600062020000831614610c615760806e5d6af8dedb81196699c329225ee6048202901c90505b600062040000831614610c865760806d2216e584f5fa1ea926041bedfe988202901c90505b600062080000831614610ca95760806b048a170391f7dc42444e8fa28202901c90505b60008460020b1315610ce957807fffffffffffffffffffffffffffffffffffffffffffffffffffffffffffffffff81610ce557610ce46115be565b5b0490505b60006401000000008281610d0057610cff6115be565b5b0614610d0d576001610d10565b60005b60ff16602082901c0192505050919050565b600080600080198587098587029250828110838203039150506000811415610d5d5760008411610d5157600080fd5b83820492505050610df5565b808411610d6957600080fd5b600084868809905082811182039150808303925060008586600003169050808604955080840493506001818260000304019050808302841793506000600287600302189050808702600203810290508087026002038102905080870260020381029050808702600203810290508087026002038102905080870260020381029050808502955050505050505b9392505050565b6000604051905090565b600080fd5b600080fd5b600073ffffffffffffffffffffffffffffffffffffffff82169050919050565b6000610e3b82610e10565b9050919050565b610e4b81610e30565b8114610e5657600080fd5b50565b600081359050610e6881610e42565b92915050565b6000819050919050565b610e8181610e6e565b8114610e8c57600080fd5b50565b600081359050610e9e81610e78565b92915050565b600080600060608486031215610ebd57610ebc610e06565b5b6000610ecb86828701610e59565b9350506020610edc86828701610e8f565b9250506040610eed86828701610e59565b9150509250925092565b610f0081610e6e565b82525050565b6000602082019050610f1b6000830184610ef7565b92915050565b610f2a81610e30565b82525050565b6000602082019050610f456000830184610f21565b92915050565b60008060408385031215610f6257610f61610e06565b5b6000610f7085828601610e59565b9250506020610f8185828601610e59565b9150509250929050565b600062ffffff82169050919050565b610fa381610f8b565b82525050565b6000606082019050610fbe6000830186610f21565b610fcb6020830185610f21565b610fd86040830184610f9a565b949350505050565b600081519050610fef81610e42565b92915050565b60006020828403121561100b5761100a610e06565b5b600061101984828501610fe0565b91505092915050565b60006040820190506110376000830185610f21565b6110446020830184610f21565b9392505050565b600082825260208201905092915050565b7f4250000000000000000000000000000000000000000000000000000000000000600082015250565b600061109260028361104b565b915061109d8261105c565b602082019050919050565b600060208201905081810360008301526110c181611085565b9050919050565b7f4e487b7100000000000000000000000000000000000000000000000000000000600052604160045260246000fd5b7f4e487b7100000000000000000000000000000000000000000000000000000000600052603260045260246000fd5b600081519050919050565b600082825260208201905092915050565b6000819050602082019050919050565b600063ffffffff82169050919050565b61116b81611152565b82525050565b600061117d8383611162565b60208301905092915050565b6000602082019050919050565b60006111a182611126565b6111ab8185611131565b93506111b683611142565b8060005b838110156111e75781516111ce8882611171565b97506111d983611189565b9250506001810190506111ba565b5085935050505092915050565b6000602082019050818103600083015261120e8184611196565b905092915050565b600080fd5b6000601f19601f8301169050919050565b6112358261121b565b810181811067ffffffffffffffff82111715611254576112536110c8565b5b80604052505050565b6000611267610dfc565b9050611273828261122c565b919050565b600067ffffffffffffffff821115611293576112926110c8565b5b602082029050602081019050919050565b600080fd5b60008160060b9050919050565b6112bf816112a9565b81146112ca57600080fd5b50565b6000815190506112dc816112b6565b92915050565b60006112f56112f084611278565b61125d565b90508083825260208201905060208402830185811115611318576113176112a4565b5b835b81811015611341578061132d88826112cd565b84526020840193505060208101905061131a565b5050509392505050565b600082601f8301126113605761135f611216565b5b81516113708482602086016112e2565b91505092915050565b600067ffffffffffffffff821115611394576113936110c8565b5b602082029050602081019050919050565b6113ae81610e10565b81146113b957600080fd5b50565b6000815190506113cb816113a5565b92915050565b60006113e46113df84611379565b61125d565b90508083825260208201905060208402830185811115611407576114066112a4565b5b835b81811015611430578061141c88826113bc565b845260208401935050602081019050611409565b5050509392505050565b600082601f83011261144f5761144e611216565b5b815161145f8482602086016113d1565b91505092915050565b6000806040838503121561147f5761147e610e06565b5b600083015167ffffffffffffffff81111561149d5761149c610e0b565b5b6114a98582860161134b565b925050602083015167ffffffffffffffff8111156114ca576114c9610e0b565b5b6114d68582860161143a565b9150509250929050565b7f4e487b7100000000000000000000000000000000000000000000000000000000600052601160045260246000fd5b600061151a826112a9565b9150611525836112a9565b9250827fffffffffffffffffffffffffffffffffffffffffffffffffff80000000000000018212600084121516156115605761155f6114e0565b5b82667fffffffffffff01821360008412161561157f5761157e6114e0565b5b828203905092915050565b600061159582610e10565b91506115a083610e10565b9250828210156115b3576115b26114e0565b5b828203905092915050565b7f4e487b7100000000000000000000000000000000000000000000000000000000600052601260045260246000fd5b60006115f8826112a9565b9150611603836112a9565b925082611613576116126115be565b5b600160000383147fffffffffffffffffffffffffffffffffffffffffffffffffff800000000000008314161561164c5761164b6114e0565b5b828205905092915050565b6000611662826112a9565b915061166d836112a9565b92508261167d5761167c6115be565b5b828207905092915050565b60008160020b9050919050565b60006116a082611688565b91507fffffffffffffffffffffffffffffffffffffffffffffffffffffffffff8000008214156116d3576116d26114e0565b5b600182039050919050565b600077ffffffffffffffffffffffffffffffffffffffffffffffff82169050919050565b600061170d826116de565b9150611718836116de565b92508177ffffffffffffffffffffffffffffffffffffffffffffffff0483118215151615611749576117486114e0565b5b828202905092915050565b600061175f826116de565b915061176a836116de565b92508261177a576117796115be565b5b828204905092915050565b600061179082610e6e565b915061179b83610e6e565b9250817fffffffffffffffffffffffffffffffffffffffffffffffffffffffffffffffff04831182151516156117d4576117d36114e0565b5b82820290509291505056fea2646970667358221220cca18bf7650b2d3929907dbf3627fa11e95e0a65c179e7e4434c161b6e892b8264736f6c63430008090033",
  "linkReferences": {},
  "deployedLinkReferences": {}
}