{
  "_format": "hh-sol-artifact-1",
  "contractName": "UnlockDiscountTokenV2",
  "sourceName": "contracts/UnlockDiscountTokenV2.sol",
  "abi": [
    {
      "anonymous": false,
      "inputs": [
        {
          "indexed": true,
          "internalType": "address",
          "name": "owner",
          "type": "address"
        },
        {
          "indexed": true,
          "internalType": "address",
          "name": "spender",
          "type": "address"
        },
        {
          "indexed": false,
          "internalType": "uint256",
          "name": "value",
          "type": "uint256"
        }
      ],
      "name": "Approval",
      "type": "event"
    },
    {
      "anonymous": false,
      "inputs": [
        {
          "indexed": true,
          "internalType": "address",
          "name": "delegator",
          "type": "address"
        },
        {
          "indexed": true,
          "internalType": "address",
          "name": "fromDelegate",
          "type": "address"
        },
        {
          "indexed": true,
          "internalType": "address",
          "name": "toDelegate",
          "type": "address"
        }
      ],
      "name": "DelegateChanged",
      "type": "event"
    },
    {
      "anonymous": false,
      "inputs": [
        {
          "indexed": true,
          "internalType": "address",
          "name": "delegate",
          "type": "address"
        },
        {
          "indexed": false,
          "internalType": "uint256",
          "name": "previousBalance",
          "type": "uint256"
        },
        {
          "indexed": false,
          "internalType": "uint256",
          "name": "newBalance",
          "type": "uint256"
        }
      ],
      "name": "DelegateVotesChanged",
      "type": "event"
    },
    {
      "anonymous": false,
      "inputs": [
        {
          "indexed": true,
          "internalType": "address",
          "name": "account",
          "type": "address"
        }
      ],
      "name": "MinterAdded",
      "type": "event"
    },
    {
      "anonymous": false,
      "inputs": [
        {
          "indexed": true,
          "internalType": "address",
          "name": "account",
          "type": "address"
        }
      ],
      "name": "MinterRemoved",
      "type": "event"
    },
    {
      "anonymous": false,
      "inputs": [
        {
          "indexed": true,
          "internalType": "address",
          "name": "from",
          "type": "address"
        },
        {
          "indexed": true,
          "internalType": "address",
          "name": "to",
          "type": "address"
        },
        {
          "indexed": false,
          "internalType": "uint256",
          "name": "value",
          "type": "uint256"
        }
      ],
      "name": "Transfer",
      "type": "event"
    },
    {
      "inputs": [],
      "name": "DOMAIN_SEPARATOR",
      "outputs": [
        {
          "internalType": "bytes32",
          "name": "",
          "type": "bytes32"
        }
      ],
      "stateMutability": "view",
      "type": "function"
    },
    {
      "inputs": [
        {
          "internalType": "address",
          "name": "account",
          "type": "address"
        }
      ],
      "name": "addMinter",
      "outputs": [],
      "stateMutability": "nonpayable",
      "type": "function"
    },
    {
      "inputs": [
        {
          "internalType": "address",
          "name": "owner",
          "type": "address"
        },
        {
          "internalType": "address",
          "name": "spender",
          "type": "address"
        }
      ],
      "name": "allowance",
      "outputs": [
        {
          "internalType": "uint256",
          "name": "",
          "type": "uint256"
        }
      ],
      "stateMutability": "view",
      "type": "function"
    },
    {
      "inputs": [
        {
          "internalType": "address",
          "name": "spender",
          "type": "address"
        },
        {
          "internalType": "uint256",
          "name": "amount",
          "type": "uint256"
        }
      ],
      "name": "approve",
      "outputs": [
        {
          "internalType": "bool",
          "name": "",
          "type": "bool"
        }
      ],
      "stateMutability": "nonpayable",
      "type": "function"
    },
    {
      "inputs": [
        {
          "internalType": "address",
          "name": "account",
          "type": "address"
        }
      ],
      "name": "balanceOf",
      "outputs": [
        {
          "internalType": "uint256",
          "name": "",
          "type": "uint256"
        }
      ],
      "stateMutability": "view",
      "type": "function"
    },
    {
      "inputs": [
        {
          "internalType": "address",
          "name": "account",
          "type": "address"
        },
        {
          "internalType": "uint32",
          "name": "pos",
          "type": "uint32"
        }
      ],
      "name": "checkpoints",
      "outputs": [
        {
          "components": [
            {
              "internalType": "uint32",
              "name": "fromBlock",
              "type": "uint32"
            },
            {
              "internalType": "uint224",
              "name": "votes",
              "type": "uint224"
            }
          ],
          "internalType": "struct ERC20VotesUpgradeable.Checkpoint",
          "name": "",
          "type": "tuple"
        }
      ],
      "stateMutability": "view",
      "type": "function"
    },
    {
      "inputs": [],
      "name": "decimals",
      "outputs": [
        {
          "internalType": "uint8",
          "name": "",
          "type": "uint8"
        }
      ],
      "stateMutability": "view",
      "type": "function"
    },
    {
      "inputs": [
        {
          "internalType": "address",
          "name": "spender",
          "type": "address"
        },
        {
          "internalType": "uint256",
          "name": "subtractedValue",
          "type": "uint256"
        }
      ],
      "name": "decreaseAllowance",
      "outputs": [
        {
          "internalType": "bool",
          "name": "",
          "type": "bool"
        }
      ],
      "stateMutability": "nonpayable",
      "type": "function"
    },
    {
      "inputs": [
        {
          "internalType": "address",
          "name": "delegatee",
          "type": "address"
        }
      ],
      "name": "delegate",
      "outputs": [],
      "stateMutability": "nonpayable",
      "type": "function"
    },
    {
      "inputs": [
        {
          "internalType": "address",
          "name": "delegatee",
          "type": "address"
        },
        {
          "internalType": "uint256",
          "name": "nonce",
          "type": "uint256"
        },
        {
          "internalType": "uint256",
          "name": "expiry",
          "type": "uint256"
        },
        {
          "internalType": "uint8",
          "name": "v",
          "type": "uint8"
        },
        {
          "internalType": "bytes32",
          "name": "r",
          "type": "bytes32"
        },
        {
          "internalType": "bytes32",
          "name": "s",
          "type": "bytes32"
        }
      ],
      "name": "delegateBySig",
      "outputs": [],
      "stateMutability": "nonpayable",
      "type": "function"
    },
    {
      "inputs": [
        {
          "internalType": "address",
          "name": "account",
          "type": "address"
        }
      ],
      "name": "delegates",
      "outputs": [
        {
          "internalType": "address",
          "name": "",
          "type": "address"
        }
      ],
      "stateMutability": "view",
      "type": "function"
    },
    {
      "inputs": [
        {
          "internalType": "address",
          "name": "account",
          "type": "address"
        }
      ],
      "name": "getCurrentVotes",
      "outputs": [
        {
          "internalType": "uint96",
          "name": "",
          "type": "uint96"
        }
      ],
      "stateMutability": "view",
      "type": "function"
    },
    {
      "inputs": [
        {
          "internalType": "uint256",
          "name": "blockNumber",
          "type": "uint256"
        }
      ],
      "name": "getPastTotalSupply",
      "outputs": [
        {
          "internalType": "uint256",
          "name": "",
          "type": "uint256"
        }
      ],
      "stateMutability": "view",
      "type": "function"
    },
    {
      "inputs": [
        {
          "internalType": "address",
          "name": "account",
          "type": "address"
        },
        {
          "internalType": "uint256",
          "name": "blockNumber",
          "type": "uint256"
        }
      ],
      "name": "getPastVotes",
      "outputs": [
        {
          "internalType": "uint256",
          "name": "",
          "type": "uint256"
        }
      ],
      "stateMutability": "view",
      "type": "function"
    },
    {
      "inputs": [
        {
          "internalType": "address",
          "name": "account",
          "type": "address"
        },
        {
          "internalType": "uint256",
          "name": "blockNumber",
          "type": "uint256"
        }
      ],
      "name": "getPriorVotes",
      "outputs": [
        {
          "internalType": "uint96",
          "name": "",
          "type": "uint96"
        }
      ],
      "stateMutability": "view",
      "type": "function"
    },
    {
      "inputs": [
        {
          "internalType": "address",
          "name": "account",
          "type": "address"
        }
      ],
      "name": "getVotes",
      "outputs": [
        {
          "internalType": "uint256",
          "name": "",
          "type": "uint256"
        }
      ],
      "stateMutability": "view",
      "type": "function"
    },
    {
      "inputs": [
        {
          "internalType": "address",
          "name": "spender",
          "type": "address"
        },
        {
          "internalType": "uint256",
          "name": "addedValue",
          "type": "uint256"
        }
      ],
      "name": "increaseAllowance",
      "outputs": [
        {
          "internalType": "bool",
          "name": "",
          "type": "bool"
        }
      ],
      "stateMutability": "nonpayable",
      "type": "function"
    },
    {
      "inputs": [
        {
          "internalType": "string",
          "name": "name",
          "type": "string"
        },
        {
          "internalType": "string",
          "name": "symbol",
          "type": "string"
        },
        {
          "internalType": "uint8",
          "name": "decimals",
          "type": "uint8"
        }
      ],
      "name": "initialize",
      "outputs": [],
      "stateMutability": "nonpayable",
      "type": "function"
    },
    {
      "inputs": [
        {
          "internalType": "address",
          "name": "_minter",
          "type": "address"
        }
      ],
      "name": "initialize",
      "outputs": [],
      "stateMutability": "nonpayable",
      "type": "function"
    },
    {
      "inputs": [],
      "name": "initialize2",
      "outputs": [],
      "stateMutability": "nonpayable",
      "type": "function"
    },
    {
      "inputs": [
        {
          "internalType": "address",
          "name": "account",
          "type": "address"
        }
      ],
      "name": "isMinter",
      "outputs": [
        {
          "internalType": "bool",
          "name": "",
          "type": "bool"
        }
      ],
      "stateMutability": "view",
      "type": "function"
    },
    {
      "inputs": [
        {
          "internalType": "address",
          "name": "account",
          "type": "address"
        },
        {
          "internalType": "uint256",
          "name": "amount",
          "type": "uint256"
        }
      ],
      "name": "mint",
      "outputs": [
        {
          "internalType": "bool",
          "name": "",
          "type": "bool"
        }
      ],
      "stateMutability": "nonpayable",
      "type": "function"
    },
    {
      "inputs": [],
      "name": "name",
      "outputs": [
        {
          "internalType": "string",
          "name": "",
          "type": "string"
        }
      ],
      "stateMutability": "view",
      "type": "function"
    },
    {
      "inputs": [
        {
          "internalType": "address",
          "name": "owner",
          "type": "address"
        }
      ],
      "name": "nonces",
      "outputs": [
        {
          "internalType": "uint256",
          "name": "",
          "type": "uint256"
        }
      ],
      "stateMutability": "view",
      "type": "function"
    },
    {
      "inputs": [
        {
          "internalType": "address",
          "name": "account",
          "type": "address"
        }
      ],
      "name": "numCheckpoints",
      "outputs": [
        {
          "internalType": "uint32",
          "name": "",
          "type": "uint32"
        }
      ],
      "stateMutability": "view",
      "type": "function"
    },
    {
      "inputs": [
        {
          "internalType": "address",
          "name": "owner",
          "type": "address"
        },
        {
          "internalType": "address",
          "name": "spender",
          "type": "address"
        },
        {
          "internalType": "uint256",
          "name": "value",
          "type": "uint256"
        },
        {
          "internalType": "uint256",
          "name": "deadline",
          "type": "uint256"
        },
        {
          "internalType": "uint8",
          "name": "v",
          "type": "uint8"
        },
        {
          "internalType": "bytes32",
          "name": "r",
          "type": "bytes32"
        },
        {
          "internalType": "bytes32",
          "name": "s",
          "type": "bytes32"
        }
      ],
      "name": "permit",
      "outputs": [],
      "stateMutability": "nonpayable",
      "type": "function"
    },
    {
      "inputs": [],
      "name": "renounceMinter",
      "outputs": [],
      "stateMutability": "nonpayable",
      "type": "function"
    },
    {
      "inputs": [],
      "name": "symbol",
      "outputs": [
        {
          "internalType": "string",
          "name": "",
          "type": "string"
        }
      ],
      "stateMutability": "view",
      "type": "function"
    },
    {
      "inputs": [],
      "name": "totalSupply",
      "outputs": [
        {
          "internalType": "uint256",
          "name": "",
          "type": "uint256"
        }
      ],
      "stateMutability": "view",
      "type": "function"
    },
    {
      "inputs": [
        {
          "internalType": "address",
          "name": "recipient",
          "type": "address"
        },
        {
          "internalType": "uint256",
          "name": "amount",
          "type": "uint256"
        }
      ],
      "name": "transfer",
      "outputs": [
        {
          "internalType": "bool",
          "name": "",
          "type": "bool"
        }
      ],
      "stateMutability": "nonpayable",
      "type": "function"
    },
    {
      "inputs": [
        {
          "internalType": "address",
          "name": "sender",
          "type": "address"
        },
        {
          "internalType": "address",
          "name": "recipient",
          "type": "address"
        },
        {
          "internalType": "uint256",
          "name": "amount",
          "type": "uint256"
        }
      ],
      "name": "transferFrom",
      "outputs": [
        {
          "internalType": "bool",
          "name": "",
          "type": "bool"
        }
      ],
      "stateMutability": "nonpayable",
      "type": "function"
    }
  ],
  "bytecode": "0x608060405234801561001057600080fd5b5061275e806100206000396000f3fe608060405234801561001057600080fd5b50600436106101e55760003560e01c8063782d6fe11161010f578063a9059cbb116100a2578063c4d66de811610071578063c4d66de814610457578063d505accf1461046a578063dd62ed3e1461047d578063f1127ed8146104b657600080fd5b8063a9059cbb1461040b578063aa271e1a1461041e578063b4b5ea5714610431578063c3cda5201461044457600080fd5b8063983b2d56116100de578063983b2d56146103ca57806398650275146103dd5780639ab24eb0146103e5578063a457c2d7146103f857600080fd5b8063782d6fe1146103715780637ecebe001461039c5780638e539e8c146103af57806395d89b41146103c257600080fd5b80633950935111610187578063587cde1e11610156578063587cde1e146102c85780635c19a95c1461030d5780636fcfff451461032057806370a082311461034857600080fd5b806339509351146102875780633a46b1a81461029a57806340c10f19146102ad578063472abf68146102c057600080fd5b806318160ddd116101c357806318160ddd1461024057806323b872dd14610252578063313ce567146102655780633644e5151461027f57600080fd5b806306fdde03146101ea578063095ea7b3146102085780631624f6c61461022b575b600080fd5b6101f26104f3565b6040516101ff9190612551565b60405180910390f35b61021b610216366004612402565b610502565b60405190151581526020016101ff565b61023e6102393660046124c4565b610518565b005b6035545b6040519081526020016101ff565b61021b61026036600461235c565b6105c7565b61026d610671565b60405160ff90911681526020016101ff565b61024461067f565b61021b610295366004612402565b610689565b6102446102a8366004612402565b6106c5565b61021b6102bb366004612402565b610740565b61023e610771565b6102f56102d636600461230e565b6001600160a01b03908116600090815261016960205260409020541690565b6040516001600160a01b0390911681526020016101ff565b61023e61031b36600461230e565b61088d565b61033361032e36600461230e565b61089a565b60405163ffffffff90911681526020016101ff565b61024461035636600461230e565b6001600160a01b031660009081526033602052604090205490565b61038461037f366004612402565b6108c3565b6040516001600160601b0390911681526020016101ff565b6102446103aa36600461230e565b6108d7565b6102446103bd366004612538565b6108f6565b6101f2610953565b61023e6103d836600461230e565b61095d565b61023e61098b565b6102446103f336600461230e565b610994565b61021b610406366004612402565b610a1d565b61021b610419366004612402565b610ab6565b61021b61042c36600461230e565b610ac3565b61038461043f36600461230e565b610ad0565b61023e61045236600461242c565b610ade565b61023e61046536600461230e565b610c14565b61023e610478366004612398565b610cee565b61024461048b366004612329565b6001600160a01b03918216600090815260346020908152604080832093909416825291909152205490565b6104c96104c4366004612484565b610e35565b60408051825163ffffffff1681526020928301516001600160e01b031692810192909252016101ff565b60606104fd610eba565b905090565b600061050f338484610f4c565b50600192915050565b600054610100900460ff1680610531575060005460ff16155b6105565760405162461bcd60e51b815260040161054d906125f6565b60405180910390fd5b600054610100900460ff16158015610578576000805461ffff19166101011790555b835161058b9060cd9060208701906121a5565b50825161059f9060ce9060208601906121a5565b5060cf805460ff191660ff841617905580156105c1576000805461ff00191690555b50505050565b60006105d4848484611070565b6001600160a01b0384166000908152603460209081526040808320338452909152902054828110156106595760405162461bcd60e51b815260206004820152602860248201527f45524332303a207472616e7366657220616d6f756e74206578636565647320616044820152676c6c6f77616e636560c01b606482015260840161054d565b6106668533858403610f4c565b506001949350505050565b60006104fd60cf5460ff1690565b60006104fd611244565b3360008181526034602090815260408083206001600160a01b0387168452909152812054909161050f9185906106c0908690612644565b610f4c565b60004382106107165760405162461bcd60e51b815260206004820152601f60248201527f4552433230566f7465733a20626c6f636b206e6f7420796574206d696e656400604482015260640161054d565b6001600160a01b038316600090815261016a6020526040902061073990836112c1565b9392505050565b600061074b33610ac3565b6107675760405162461bcd60e51b815260040161054d906125a6565b61050f838361137e565b600061077d6101025490565b146107fc5760405162461bcd60e51b815260206004820152604360248201527f416c726561647920696e697469616c697a65643a204549503731325f696e697460448201527f2c2045524332305065726d69745f696e69742c204552433230566f7465735f696064820152621b9a5d60ea1b608482015260a40161054d565b6108506108076104f3565b6040805180820190915260018152603160f81b6020918201528151910120610102557fc89efdaa54c0f20c7adf612882df0950f5a951637e0307cdcb4c672f298b8bc661010355565b61088361085b6104f3565b507f6e71edae12b1b97f4d1f60370fef10105fa2faae0126114a169c64845d6126c961013755565b61088b611388565b565b6108973382611400565b50565b6001600160a01b038116600090815261016a60205260408120546108bd9061147b565b92915050565b60006107396108d284846106c5565b6114e4565b6001600160a01b038116600090815261013660205260408120546108bd565b60004382106109475760405162461bcd60e51b815260206004820152601f60248201527f4552433230566f7465733a20626c6f636b206e6f7420796574206d696e656400604482015260640161054d565b6108bd61016b836112c1565b60606104fd61154c565b61096633610ac3565b6109825760405162461bcd60e51b815260040161054d906125a6565b6108978161155b565b61088b3361159d565b6001600160a01b038116600090815261016a60205260408120548015610a0a576001600160a01b038316600090815261016a602052604090206109d8600183612670565b815481106109e8576109e86126fc565b60009182526020909120015464010000000090046001600160e01b0316610a0d565b60005b6001600160e01b03169392505050565b3360009081526034602090815260408083206001600160a01b038616845290915281205482811015610a9f5760405162461bcd60e51b815260206004820152602560248201527f45524332303a2064656372656173656420616c6c6f77616e63652062656c6f77604482015264207a65726f60d81b606482015260840161054d565b610aac3385858403610f4c565b5060019392505050565b600061050f338484611070565b60006108bd6068836115df565b60006108bd6108d283610994565b83421115610b2e5760405162461bcd60e51b815260206004820152601d60248201527f4552433230566f7465733a207369676e61747572652065787069726564000000604482015260640161054d565b604080517fe48329057bfd03d55e49b547132e39cffd9c1820ad7b9d4c5307691425d15adf60208201526001600160a01b038816918101919091526060810186905260808101859052600090610ba890610ba09060a00160405160208183030381529060405280519060200120611662565b8585856116b0565b9050610bb381611859565b8614610c015760405162461bcd60e51b815260206004820152601960248201527f4552433230566f7465733a20696e76616c6964206e6f6e636500000000000000604482015260640161054d565b610c0b8188611400565b50505050505050565b600054610100900460ff1680610c2d575060005460ff16155b610c495760405162461bcd60e51b815260040161054d906125f6565b600054610100900460ff16158015610c6b576000805461ffff19166101011790555b610c7482611882565b610cc8604051806040016040528060158152602001742ab73637b1b5902234b9b1b7bab73a102a37b5b2b760591b8152506040518060400160405280600381526020016215511560ea1b8152506012610518565b610cd8610cd36104f3565b6118e2565b8015610cea576000805461ff00191690555b5050565b83421115610d3e5760405162461bcd60e51b815260206004820152601d60248201527f45524332305065726d69743a206578706972656420646561646c696e65000000604482015260640161054d565b600061013754888888610d508c611859565b6040805160208101969096526001600160a01b0394851690860152929091166060840152608083015260a082015260c0810186905260e0016040516020818303038152906040528051906020012090506000610dab82611662565b90506000610dbb828787876116b0565b9050896001600160a01b0316816001600160a01b031614610e1e5760405162461bcd60e51b815260206004820152601e60248201527f45524332305065726d69743a20696e76616c6964207369676e61747572650000604482015260640161054d565b610e298a8a8a610f4c565b50505050505050505050565b60408051808201909152600080825260208201526001600160a01b038316600090815261016a60205260409020805463ffffffff8416908110610e7a57610e7a6126fc565b60009182526020918290206040805180820190915291015463ffffffff8116825264010000000090046001600160e01b0316918101919091529392505050565b606060cd8054610ec990612687565b80601f0160208091040260200160405190810160405280929190818152602001828054610ef590612687565b8015610f425780601f10610f1757610100808354040283529160200191610f42565b820191906000526020600020905b815481529060010190602001808311610f2557829003601f168201915b5050505050905090565b6001600160a01b038316610fae5760405162461bcd60e51b8152602060048201526024808201527f45524332303a20617070726f76652066726f6d20746865207a65726f206164646044820152637265737360e01b606482015260840161054d565b6001600160a01b03821661100f5760405162461bcd60e51b815260206004820152602260248201527f45524332303a20617070726f766520746f20746865207a65726f206164647265604482015261737360f01b606482015260840161054d565b6001600160a01b0383811660008181526034602090815260408083209487168084529482529182902085905590518481527f8c5be1e5ebec7d5bd14f71427d1e84f3dd0314c0f7b2291e5b200ac8c7c3b925910160405180910390a3505050565b6001600160a01b0383166110d45760405162461bcd60e51b815260206004820152602560248201527f45524332303a207472616e736665722066726f6d20746865207a65726f206164604482015264647265737360d81b606482015260840161054d565b6001600160a01b0382166111365760405162461bcd60e51b815260206004820152602360248201527f45524332303a207472616e7366657220746f20746865207a65726f206164647260448201526265737360e81b606482015260840161054d565b6001600160a01b038316600090815260336020526040902054818110156111ae5760405162461bcd60e51b815260206004820152602660248201527f45524332303a207472616e7366657220616d6f756e7420657863656564732062604482015265616c616e636560d01b606482015260840161054d565b6001600160a01b038085166000908152603360205260408082208585039055918516815290812080548492906111e5908490612644565b92505081905550826001600160a01b0316846001600160a01b03167fddf252ad1be2c89b69c2b068fc378daa952ba7f163c4a11628f55a4df523b3ef8460405161123191815260200190565b60405180910390a36105c1848484611972565b60006104fd7f8b73c3c69bb8fe3d512ecc4cf759cc79239f7b179b0ffacaa9a75d522b39400f6112746101025490565b610103546040805160208101859052908101839052606081018290524660808201523060a082015260009060c0016040516020818303038152906040528051906020012090509392505050565b8154600090815b818110156113255760006112dc828461197d565b9050848682815481106112f1576112f16126fc565b60009182526020909120015463ffffffff1611156113115780925061131f565b61131c816001612644565b91505b506112c8565b81156113695784611337600184612670565b81548110611347576113476126fc565b60009182526020909120015464010000000090046001600160e01b031661136c565b60005b6001600160e01b031695945050505050565b610cea82826119d4565b61016b5415806113d7575060355461016b80546113a790600190612670565b815481106113b7576113b76126fc565b60009182526020909120015464010000000090046001600160e01b031614155b1561088b576113e961016b6000612225565b610cea61016b611a5f6113fb60355490565b611a6b565b6001600160a01b0382811660008181526101696020818152604080842080546033845282862054949093528787166001600160a01b03198416811790915590519190951694919391928592917f3134e8a2e6d97e929a7e54011ea5485d7d196dd5f0ba4d4ef95803e8e3fc257f9190a46105c1828483611be4565b600063ffffffff8211156114e05760405162461bcd60e51b815260206004820152602660248201527f53616665436173743a2076616c756520646f65736e27742066697420696e203360448201526532206269747360d01b606482015260840161054d565b5090565b60006001600160601b038211156114e05760405162461bcd60e51b815260206004820152602660248201527f53616665436173743a2076616c756520646f65736e27742066697420696e203960448201526536206269747360d01b606482015260840161054d565b606060ce8054610ec990612687565b611566606882611d23565b6040516001600160a01b038216907f6ae172837ea30b801fbfcdd4108aa1d5bf8ff775444fd70256b44e6bf3dfc3f690600090a250565b6115a8606882611d9f565b6040516001600160a01b038216907fe94479a9f7e1952cc78f2d6baab678adc1b772d936c6583def489e524cb6669290600090a250565b60006001600160a01b0382166116425760405162461bcd60e51b815260206004820152602260248201527f526f6c65733a206163636f756e7420697320746865207a65726f206164647265604482015261737360f01b606482015260840161054d565b506001600160a01b03166000908152602091909152604090205460ff1690565b60006108bd61166f611244565b8360405161190160f01b6020820152602281018390526042810182905260009060620160405160208183030381529060405280519060200120905092915050565b60007f7fffffffffffffffffffffffffffffff5d576e7357a4501ddfe92f46681b20a082111561172d5760405162461bcd60e51b815260206004820152602260248201527f45434453413a20696e76616c6964207369676e6174757265202773272076616c604482015261756560f01b606482015260840161054d565b8360ff16601b148061174257508360ff16601c145b6117995760405162461bcd60e51b815260206004820152602260248201527f45434453413a20696e76616c6964207369676e6174757265202776272076616c604482015261756560f01b606482015260840161054d565b6040805160008082526020820180845288905260ff871692820192909252606081018590526080810184905260019060a0016020604051602081039080840390855afa1580156117ed573d6000803e3d6000fd5b5050604051601f1901519150506001600160a01b0381166118505760405162461bcd60e51b815260206004820152601860248201527f45434453413a20696e76616c6964207369676e61747572650000000000000000604482015260640161054d565b95945050505050565b6001600160a01b0381166000908152610136602052604090208054600181018255905b50919050565b600054610100900460ff168061189b575060005460ff16155b6118b75760405162461bcd60e51b815260040161054d906125f6565b600054610100900460ff161580156118d9576000805461ffff19166101011790555b610cd882611e21565b600054610100900460ff16806118fb575060005460ff16155b6119175760405162461bcd60e51b815260040161054d906125f6565b600054610100900460ff16158015611939576000805461ffff19166101011790555b611941611e8e565b61196482604051806040016040528060018152602001603160f81b815250611ef9565b610cd882611f85565b505050565b61196d838383612016565b6000600261198b81846126bc565b6119966002866126bc565b6119a09190612644565b6119aa919061265c565b6119b560028461265c565b6119c060028661265c565b6119ca9190612644565b6107399190612644565b6119de8282612049565b6035546001600160601b031015611a505760405162461bcd60e51b815260206004820152603060248201527f4552433230566f7465733a20746f74616c20737570706c79207269736b73206f60448201526f766572666c6f77696e6720766f74657360801b606482015260840161054d565b6105c161016b611a5f83611a6b565b60006107398284612644565b825460009081908015611ab65785611a84600183612670565b81548110611a9457611a946126fc565b60009182526020909120015464010000000090046001600160e01b0316611ab9565b60005b6001600160e01b03169250611ad283858763ffffffff16565b9150600081118015611b1057504386611aec600184612670565b81548110611afc57611afc6126fc565b60009182526020909120015463ffffffff16145b15611b7057611b1e82612130565b86611b2a600184612670565b81548110611b3a57611b3a6126fc565b9060005260206000200160000160046101000a8154816001600160e01b0302191690836001600160e01b03160217905550611bdb565b856040518060400160405280611b854361147b565b63ffffffff168152602001611b9985612130565b6001600160e01b0390811690915282546001810184556000938452602093849020835194909301519091166401000000000263ffffffff909316929092179101555b50935093915050565b816001600160a01b0316836001600160a01b031614158015611c065750600081115b1561196d576001600160a01b03831615611c95576001600160a01b038316600090815261016a602052604081208190611c429061219985611a6b565b91509150846001600160a01b03167fdec2bacdd2f05b59de34da9b523dff8be42e5e38e818c82fdb0bae774387a7248383604051611c8a929190918252602082015260400190565b60405180910390a250505b6001600160a01b0382161561196d576001600160a01b038216600090815261016a602052604081208190611ccc90611a5f85611a6b565b91509150836001600160a01b03167fdec2bacdd2f05b59de34da9b523dff8be42e5e38e818c82fdb0bae774387a7248383604051611d14929190918252602082015260400190565b60405180910390a25050505050565b611d2d82826115df565b15611d7a5760405162461bcd60e51b815260206004820152601f60248201527f526f6c65733a206163636f756e7420616c72656164792068617320726f6c6500604482015260640161054d565b6001600160a01b0316600090815260209190915260409020805460ff19166001179055565b611da982826115df565b611dff5760405162461bcd60e51b815260206004820152602160248201527f526f6c65733a206163636f756e7420646f6573206e6f74206861766520726f6c6044820152606560f81b606482015260840161054d565b6001600160a01b0316600090815260209190915260409020805460ff19169055565b600054610100900460ff1680611e3a575060005460ff16155b611e565760405162461bcd60e51b815260040161054d906125f6565b600054610100900460ff16158015611e78576000805461ffff19166101011790555b611e8182610ac3565b610cd857610cd88261155b565b600054610100900460ff1680611ea7575060005460ff16155b611ec35760405162461bcd60e51b815260040161054d906125f6565b600054610100900460ff16158015611ee5576000805461ffff19166101011790555b8015610897576000805461ff001916905550565b600054610100900460ff1680611f12575060005460ff16155b611f2e5760405162461bcd60e51b815260040161054d906125f6565b600054610100900460ff16158015611f50576000805461ffff19166101011790555b82516020808501919091208351918401919091206101029190915561010355801561196d576000805461ff0019169055505050565b600054610100900460ff1680611f9e575060005460ff16155b611fba5760405162461bcd60e51b815260040161054d906125f6565b600054610100900460ff16158015611fdc576000805461ffff19166101011790555b7f6e71edae12b1b97f4d1f60370fef10105fa2faae0126114a169c64845d6126c9610137558015610cea576000805461ff00191690555050565b6001600160a01b038381166000908152610169602052604080822054858416835291205461196d92918216911683611be4565b6001600160a01b03821661209f5760405162461bcd60e51b815260206004820152601f60248201527f45524332303a206d696e7420746f20746865207a65726f206164647265737300604482015260640161054d565b80603560008282546120b19190612644565b90915550506001600160a01b038216600090815260336020526040812080548392906120de908490612644565b90915550506040518181526001600160a01b038316906000907fddf252ad1be2c89b69c2b068fc378daa952ba7f163c4a11628f55a4df523b3ef9060200160405180910390a3610cea60008383611972565b60006001600160e01b038211156114e05760405162461bcd60e51b815260206004820152602760248201527f53616665436173743a2076616c756520646f65736e27742066697420696e20326044820152663234206269747360c81b606482015260840161054d565b60006107398284612670565b8280546121b190612687565b90600052602060002090601f0160209004810192826121d35760008555612219565b82601f106121ec57805160ff1916838001178555612219565b82800160010185558215612219579182015b828111156122195782518255916020019190600101906121fe565b506114e092915061223f565b508054600082559060005260206000209081019061089791905b5b808211156114e05760008155600101612240565b80356001600160a01b038116811461226b57600080fd5b919050565b600082601f83011261228157600080fd5b813567ffffffffffffffff8082111561229c5761229c612712565b604051601f8301601f19908116603f011681019082821181831017156122c4576122c4612712565b816040528381528660208588010111156122dd57600080fd5b836020870160208301376000602085830101528094505050505092915050565b803560ff8116811461226b57600080fd5b60006020828403121561232057600080fd5b61073982612254565b6000806040838503121561233c57600080fd5b61234583612254565b915061235360208401612254565b90509250929050565b60008060006060848603121561237157600080fd5b61237a84612254565b925061238860208501612254565b9150604084013590509250925092565b600080600080600080600060e0888a0312156123b357600080fd5b6123bc88612254565b96506123ca60208901612254565b955060408801359450606088013593506123e6608089016122fd565b925060a0880135915060c0880135905092959891949750929550565b6000806040838503121561241557600080fd5b61241e83612254565b946020939093013593505050565b60008060008060008060c0878903121561244557600080fd5b61244e87612254565b9550602087013594506040870135935061246a606088016122fd565b92506080870135915060a087013590509295509295509295565b6000806040838503121561249757600080fd5b6124a083612254565b9150602083013563ffffffff811681146124b957600080fd5b809150509250929050565b6000806000606084860312156124d957600080fd5b833567ffffffffffffffff808211156124f157600080fd5b6124fd87838801612270565b9450602086013591508082111561251357600080fd5b5061252086828701612270565b92505061252f604085016122fd565b90509250925092565b60006020828403121561254a57600080fd5b5035919050565b600060208083528351808285015260005b8181101561257e57858101830151858201604001528201612562565b81811115612590576000604083870101525b50601f01601f1916929092016040019392505050565b60208082526030908201527f4d696e746572526f6c653a2063616c6c657220646f6573206e6f74206861766560408201526f20746865204d696e74657220726f6c6560801b606082015260800190565b6020808252602e908201527f496e697469616c697a61626c653a20636f6e747261637420697320616c72656160408201526d191e481a5b9a5d1a585b1a5e995960921b606082015260800190565b60008219821115612657576126576126d0565b500190565b60008261266b5761266b6126e6565b500490565b600082821015612682576126826126d0565b500390565b600181811c9082168061269b57607f821691505b6020821081141561187c57634e487b7160e01b600052602260045260246000fd5b6000826126cb576126cb6126e6565b500690565b634e487b7160e01b600052601160045260246000fd5b634e487b7160e01b600052601260045260246000fd5b634e487b7160e01b600052603260045260246000fd5b634e487b7160e01b600052604160045260246000fdfea264697066735822122008b82ac19402a7260ebb3fa53cd710b3628582d751cdc2f46a496b2621dbfa6164736f6c63430008070033",
  "linkReferences": {},
  "deployedLinkReferences": {}
}