{
  "_format": "hh-sol-artifact-1",
  "contractName": "UnlockDiscountTokenV3",
  "sourceName": "contracts/UnlockDiscountTokenV3.flatten.sol",
  "abi": [
    {
      "anonymous": false,
      "inputs": [
        {
          "indexed": true,
          "internalType": "address",
          "name": "owner",
          "type": "address"
        },
        {
          "indexed": true,
          "internalType": "address",
          "name": "spender",
          "type": "address"
        },
        {
          "indexed": false,
          "internalType": "uint256",
          "name": "value",
          "type": "uint256"
        }
      ],
      "name": "Approval",
      "type": "event"
    },
    {
      "anonymous": false,
      "inputs": [
        {
          "indexed": true,
          "internalType": "address",
          "name": "delegator",
          "type": "address"
        },
        {
          "indexed": true,
          "internalType": "address",
          "name": "fromDelegate",
          "type": "address"
        },
        {
          "indexed": true,
          "internalType": "address",
          "name": "toDelegate",
          "type": "address"
        }
      ],
      "name": "DelegateChanged",
      "type": "event"
    },
    {
      "anonymous": false,
      "inputs": [
        {
          "indexed": true,
          "internalType": "address",
          "name": "delegate",
          "type": "address"
        },
        {
          "indexed": false,
          "internalType": "uint256",
          "name": "previousBalance",
          "type": "uint256"
        },
        {
          "indexed": false,
          "internalType": "uint256",
          "name": "newBalance",
          "type": "uint256"
        }
      ],
      "name": "DelegateVotesChanged",
      "type": "event"
    },
    {
      "anonymous": false,
      "inputs": [
        {
          "indexed": true,
          "internalType": "address",
          "name": "account",
          "type": "address"
        }
      ],
      "name": "MinterAdded",
      "type": "event"
    },
    {
      "anonymous": false,
      "inputs": [
        {
          "indexed": true,
          "internalType": "address",
          "name": "account",
          "type": "address"
        }
      ],
      "name": "MinterRemoved",
      "type": "event"
    },
    {
      "anonymous": false,
      "inputs": [
        {
          "indexed": true,
          "internalType": "address",
          "name": "from",
          "type": "address"
        },
        {
          "indexed": true,
          "internalType": "address",
          "name": "to",
          "type": "address"
        },
        {
          "indexed": false,
          "internalType": "uint256",
          "name": "value",
          "type": "uint256"
        }
      ],
      "name": "Transfer",
      "type": "event"
    },
    {
      "inputs": [],
      "name": "DOMAIN_SEPARATOR",
      "outputs": [
        {
          "internalType": "bytes32",
          "name": "",
          "type": "bytes32"
        }
      ],
      "stateMutability": "view",
      "type": "function"
    },
    {
      "inputs": [
        {
          "internalType": "address",
          "name": "account",
          "type": "address"
        }
      ],
      "name": "addMinter",
      "outputs": [],
      "stateMutability": "nonpayable",
      "type": "function"
    },
    {
      "inputs": [
        {
          "internalType": "address",
          "name": "owner",
          "type": "address"
        },
        {
          "internalType": "address",
          "name": "spender",
          "type": "address"
        }
      ],
      "name": "allowance",
      "outputs": [
        {
          "internalType": "uint256",
          "name": "",
          "type": "uint256"
        }
      ],
      "stateMutability": "view",
      "type": "function"
    },
    {
      "inputs": [
        {
          "internalType": "address",
          "name": "spender",
          "type": "address"
        },
        {
          "internalType": "uint256",
          "name": "amount",
          "type": "uint256"
        }
      ],
      "name": "approve",
      "outputs": [
        {
          "internalType": "bool",
          "name": "",
          "type": "bool"
        }
      ],
      "stateMutability": "nonpayable",
      "type": "function"
    },
    {
      "inputs": [
        {
          "internalType": "address",
          "name": "account",
          "type": "address"
        }
      ],
      "name": "balanceOf",
      "outputs": [
        {
          "internalType": "uint256",
          "name": "",
          "type": "uint256"
        }
      ],
      "stateMutability": "view",
      "type": "function"
    },
    {
      "inputs": [
        {
          "internalType": "address",
          "name": "account",
          "type": "address"
        },
        {
          "internalType": "uint32",
          "name": "pos",
          "type": "uint32"
        }
      ],
      "name": "checkpoints",
      "outputs": [
        {
          "components": [
            {
              "internalType": "uint32",
              "name": "fromBlock",
              "type": "uint32"
            },
            {
              "internalType": "uint224",
              "name": "votes",
              "type": "uint224"
            }
          ],
          "internalType": "struct ERC20VotesUpgradeable.Checkpoint",
          "name": "",
          "type": "tuple"
        }
      ],
      "stateMutability": "view",
      "type": "function"
    },
    {
      "inputs": [],
      "name": "decimals",
      "outputs": [
        {
          "internalType": "uint8",
          "name": "",
          "type": "uint8"
        }
      ],
      "stateMutability": "view",
      "type": "function"
    },
    {
      "inputs": [
        {
          "internalType": "address",
          "name": "spender",
          "type": "address"
        },
        {
          "internalType": "uint256",
          "name": "subtractedValue",
          "type": "uint256"
        }
      ],
      "name": "decreaseAllowance",
      "outputs": [
        {
          "internalType": "bool",
          "name": "",
          "type": "bool"
        }
      ],
      "stateMutability": "nonpayable",
      "type": "function"
    },
    {
      "inputs": [
        {
          "internalType": "address",
          "name": "delegatee",
          "type": "address"
        }
      ],
      "name": "delegate",
      "outputs": [],
      "stateMutability": "nonpayable",
      "type": "function"
    },
    {
      "inputs": [
        {
          "internalType": "address",
          "name": "delegatee",
          "type": "address"
        },
        {
          "internalType": "uint256",
          "name": "nonce",
          "type": "uint256"
        },
        {
          "internalType": "uint256",
          "name": "expiry",
          "type": "uint256"
        },
        {
          "internalType": "uint8",
          "name": "v",
          "type": "uint8"
        },
        {
          "internalType": "bytes32",
          "name": "r",
          "type": "bytes32"
        },
        {
          "internalType": "bytes32",
          "name": "s",
          "type": "bytes32"
        }
      ],
      "name": "delegateBySig",
      "outputs": [],
      "stateMutability": "nonpayable",
      "type": "function"
    },
    {
      "inputs": [
        {
          "internalType": "address",
          "name": "account",
          "type": "address"
        }
      ],
      "name": "delegates",
      "outputs": [
        {
          "internalType": "address",
          "name": "",
          "type": "address"
        }
      ],
      "stateMutability": "view",
      "type": "function"
    },
    {
      "inputs": [
        {
          "internalType": "address",
          "name": "account",
          "type": "address"
        }
      ],
      "name": "getCurrentVotes",
      "outputs": [
        {
          "internalType": "uint96",
          "name": "",
          "type": "uint96"
        }
      ],
      "stateMutability": "view",
      "type": "function"
    },
    {
      "inputs": [
        {
          "internalType": "uint256",
          "name": "blockNumber",
          "type": "uint256"
        }
      ],
      "name": "getPastTotalSupply",
      "outputs": [
        {
          "internalType": "uint256",
          "name": "",
          "type": "uint256"
        }
      ],
      "stateMutability": "view",
      "type": "function"
    },
    {
      "inputs": [
        {
          "internalType": "address",
          "name": "account",
          "type": "address"
        },
        {
          "internalType": "uint256",
          "name": "blockNumber",
          "type": "uint256"
        }
      ],
      "name": "getPastVotes",
      "outputs": [
        {
          "internalType": "uint256",
          "name": "",
          "type": "uint256"
        }
      ],
      "stateMutability": "view",
      "type": "function"
    },
    {
      "inputs": [
        {
          "internalType": "address",
          "name": "account",
          "type": "address"
        },
        {
          "internalType": "uint256",
          "name": "blockNumber",
          "type": "uint256"
        }
      ],
      "name": "getPriorVotes",
      "outputs": [
        {
          "internalType": "uint96",
          "name": "",
          "type": "uint96"
        }
      ],
      "stateMutability": "view",
      "type": "function"
    },
    {
      "inputs": [
        {
          "internalType": "address",
          "name": "account",
          "type": "address"
        }
      ],
      "name": "getVotes",
      "outputs": [
        {
          "internalType": "uint256",
          "name": "",
          "type": "uint256"
        }
      ],
      "stateMutability": "view",
      "type": "function"
    },
    {
      "inputs": [
        {
          "internalType": "address",
          "name": "spender",
          "type": "address"
        },
        {
          "internalType": "uint256",
          "name": "addedValue",
          "type": "uint256"
        }
      ],
      "name": "increaseAllowance",
      "outputs": [
        {
          "internalType": "bool",
          "name": "",
          "type": "bool"
        }
      ],
      "stateMutability": "nonpayable",
      "type": "function"
    },
    {
      "inputs": [
        {
          "internalType": "string",
          "name": "name",
          "type": "string"
        },
        {
          "internalType": "string",
          "name": "symbol",
          "type": "string"
        },
        {
          "internalType": "uint8",
          "name": "decimals",
          "type": "uint8"
        }
      ],
      "name": "initialize",
      "outputs": [],
      "stateMutability": "nonpayable",
      "type": "function"
    },
    {
      "inputs": [
        {
          "internalType": "address",
          "name": "_minter",
          "type": "address"
        }
      ],
      "name": "initialize",
      "outputs": [],
      "stateMutability": "nonpayable",
      "type": "function"
    },
    {
      "inputs": [],
      "name": "initialize2",
      "outputs": [],
      "stateMutability": "nonpayable",
      "type": "function"
    },
    {
      "inputs": [
        {
          "internalType": "address",
          "name": "account",
          "type": "address"
        }
      ],
      "name": "isMinter",
      "outputs": [
        {
          "internalType": "bool",
          "name": "",
          "type": "bool"
        }
      ],
      "stateMutability": "view",
      "type": "function"
    },
    {
      "inputs": [
        {
          "internalType": "address",
          "name": "account",
          "type": "address"
        },
        {
          "internalType": "uint256",
          "name": "amount",
          "type": "uint256"
        }
      ],
      "name": "mint",
      "outputs": [
        {
          "internalType": "bool",
          "name": "",
          "type": "bool"
        }
      ],
      "stateMutability": "nonpayable",
      "type": "function"
    },
    {
      "inputs": [],
      "name": "name",
      "outputs": [
        {
          "internalType": "string",
          "name": "",
          "type": "string"
        }
      ],
      "stateMutability": "view",
      "type": "function"
    },
    {
      "inputs": [
        {
          "internalType": "address",
          "name": "owner",
          "type": "address"
        }
      ],
      "name": "nonces",
      "outputs": [
        {
          "internalType": "uint256",
          "name": "",
          "type": "uint256"
        }
      ],
      "stateMutability": "view",
      "type": "function"
    },
    {
      "inputs": [
        {
          "internalType": "address",
          "name": "account",
          "type": "address"
        }
      ],
      "name": "numCheckpoints",
      "outputs": [
        {
          "internalType": "uint32",
          "name": "",
          "type": "uint32"
        }
      ],
      "stateMutability": "view",
      "type": "function"
    },
    {
      "inputs": [
        {
          "internalType": "address",
          "name": "owner",
          "type": "address"
        },
        {
          "internalType": "address",
          "name": "spender",
          "type": "address"
        },
        {
          "internalType": "uint256",
          "name": "value",
          "type": "uint256"
        },
        {
          "internalType": "uint256",
          "name": "deadline",
          "type": "uint256"
        },
        {
          "internalType": "uint8",
          "name": "v",
          "type": "uint8"
        },
        {
          "internalType": "bytes32",
          "name": "r",
          "type": "bytes32"
        },
        {
          "internalType": "bytes32",
          "name": "s",
          "type": "bytes32"
        }
      ],
      "name": "permit",
      "outputs": [],
      "stateMutability": "nonpayable",
      "type": "function"
    },
    {
      "inputs": [],
      "name": "renounceMinter",
      "outputs": [],
      "stateMutability": "nonpayable",
      "type": "function"
    },
    {
      "inputs": [],
      "name": "symbol",
      "outputs": [
        {
          "internalType": "string",
          "name": "",
          "type": "string"
        }
      ],
      "stateMutability": "view",
      "type": "function"
    },
    {
      "inputs": [],
      "name": "totalSupply",
      "outputs": [
        {
          "internalType": "uint256",
          "name": "",
          "type": "uint256"
        }
      ],
      "stateMutability": "view",
      "type": "function"
    },
    {
      "inputs": [
        {
          "internalType": "address",
          "name": "recipient",
          "type": "address"
        },
        {
          "internalType": "uint256",
          "name": "amount",
          "type": "uint256"
        }
      ],
      "name": "transfer",
      "outputs": [
        {
          "internalType": "bool",
          "name": "",
          "type": "bool"
        }
      ],
      "stateMutability": "nonpayable",
      "type": "function"
    },
    {
      "inputs": [
        {
          "internalType": "address",
          "name": "sender",
          "type": "address"
        },
        {
          "internalType": "address",
          "name": "recipient",
          "type": "address"
        },
        {
          "internalType": "uint256",
          "name": "amount",
          "type": "uint256"
        }
      ],
      "name": "transferFrom",
      "outputs": [
        {
          "internalType": "bool",
          "name": "",
          "type": "bool"
        }
      ],
      "stateMutability": "nonpayable",
      "type": "function"
    }
  ],
  "bytecode": "0x608060405234801561000f575f80fd5b506127a68061001d5f395ff3fe608060405234801561000f575f80fd5b50600436106101a0575f3560e01c8063782d6fe1116100eb578063a9059cbb1161008f578063a9059cbb14610395578063aa271e1a146103a8578063b4b5ea57146103bb578063c3cda520146103ce578063c4d66de8146103e1578063d505accf146103f4578063dd62ed3e14610407578063f1127ed81461043f575f80fd5b8063782d6fe1146102fb5780637ecebe00146103265780638e539e8c1461033957806395d89b411461034c578063983b2d561461035457806398650275146103675780639ab24eb01461036f578063a457c2d714610382575f80fd5b8063395093511161015257806339509351146102415780633a46b1a81461025457806340c10f1914610267578063472abf681461027a578063587cde1e146102825780635c19a95c146102ad5780636fcfff45146102c057806370a08231146102e8575f80fd5b806306fdde03146101a4578063095ea7b3146101c25780631624f6c6146101e557806318160ddd146101fa57806323b872dd1461020c578063313ce5671461021f5780633644e51514610239575b5f80fd5b6101ac61047c565b6040516101b991906121a6565b60405180910390f35b6101d56101d036600461220c565b61048b565b60405190151581526020016101b9565b6101f86101f33660046122e1565b6104a1565b005b6035545b6040519081526020016101b9565b6101d561021a366004612350565b61053d565b6102276105e5565b60405160ff90911681526020016101b9565b6101fe6105f2565b6101d561024f36600461220c565b6105fb565b6101fe61026236600461220c565b610636565b6101d561027536600461220c565b61067f565b6101f86106af565b610295610290366004612389565b6107ca565b6040516001600160a01b0390911681526020016101b9565b6101f86102bb366004612389565b6107e8565b6102d36102ce366004612389565b6107f5565b60405163ffffffff90911681526020016101b9565b6101fe6102f6366004612389565b610817565b61030e61030936600461220c565b610831565b6040516001600160601b0390911681526020016101b9565b6101fe610334366004612389565b610844565b6101fe6103473660046123a2565b610862565b6101ac61088e565b6101f8610362366004612389565b610898565b6101f86108c6565b6101fe61037d366004612389565b6108cf565b6101d561039036600461220c565b610953565b6101d56103a336600461220c565b6109eb565b6101d56103b6366004612389565b6109f7565b61030e6103c9366004612389565b610a03565b6101f86103dc3660046123b9565b610a10565b6101f86103ef366004612389565b610b42565b6101f861040236600461240d565b610c17565b6101fe610415366004612472565b6001600160a01b039182165f90815260346020908152604080832093909416825291909152205490565b61045261044d3660046124a3565b610d5b565b60408051825163ffffffff1681526020928301516001600160e01b031692810192909252016101b9565b6060610486610ddc565b905090565b5f610497338484610e6c565b5060015b92915050565b5f54610100900460ff16806104b857505f5460ff16155b6104dd5760405162461bcd60e51b81526004016104d4906124e0565b60405180910390fd5b5f54610100900460ff161580156104fd575f805461ffff19166101011790555b60cd61050985826125a5565b5060ce61051684826125a5565b5060cf805460ff191660ff84161790558015610537575f805461ff00191690555b50505050565b5f610549848484610f8f565b6001600160a01b0384165f908152603460209081526040808320338452909152902054828110156105cd5760405162461bcd60e51b815260206004820152602860248201527f45524332303a207472616e7366657220616d6f756e74206578636565647320616044820152676c6c6f77616e636560c01b60648201526084016104d4565b6105da8533858403610e6c565b506001949350505050565b5f61048660cf5460ff1690565b5f61048661103f565b335f8181526034602090815260408083206001600160a01b03871684529091528120549091610497918590610631908690612675565b610e6c565b5f4382106106565760405162461bcd60e51b81526004016104d490612688565b6001600160a01b0383165f90815261016a6020526040902061067890836110ba565b9392505050565b5f610689336109f7565b6106a55760405162461bcd60e51b81526004016104d4906126bf565b6104978383611171565b5f6106ba6101025490565b146107395760405162461bcd60e51b815260206004820152604360248201527f416c726561647920696e697469616c697a65643a204549503731325f696e697460448201527f2c2045524332305065726d69745f696e69742c204552433230566f7465735f696064820152621b9a5d60ea1b608482015260a4016104d4565b61078d61074461047c565b6040805180820190915260018152603160f81b6020918201528151910120610102557fc89efdaa54c0f20c7adf612882df0950f5a951637e0307cdcb4c672f298b8bc661010355565b6107c061079861047c565b507f6e71edae12b1b97f4d1f60370fef10105fa2faae0126114a169c64845d6126c961013755565b6107c861117b565b565b6001600160a01b039081165f90815261016960205260409020541690565b6107f233826111f0565b50565b6001600160a01b0381165f90815261016a602052604081205461049b9061126e565b6001600160a01b03165f9081526033602052604090205490565b5f61067861083f8484610636565b6112d6565b6001600160a01b0381165f908152610136602052604081205461049b565b5f4382106108825760405162461bcd60e51b81526004016104d490612688565b61049b61016b836110ba565b606061048661133d565b6108a1336109f7565b6108bd5760405162461bcd60e51b81526004016104d4906126bf565b6107f28161134c565b6107c83361138d565b6001600160a01b0381165f90815261016a60205260408120548015610941576001600160a01b0383165f90815261016a6020526040902061091160018361270f565b8154811061092157610921612722565b5f91825260209091200154600160201b90046001600160e01b0316610943565b5f5b6001600160e01b03169392505050565b335f9081526034602090815260408083206001600160a01b0386168452909152812054828110156109d45760405162461bcd60e51b815260206004820152602560248201527f45524332303a2064656372656173656420616c6c6f77616e63652062656c6f77604482015264207a65726f60d81b60648201526084016104d4565b6109e13385858403610e6c565b5060019392505050565b5f610497338484610f8f565b5f61049b6068836113ce565b5f61049b61083f836108cf565b83421115610a605760405162461bcd60e51b815260206004820152601d60248201527f4552433230566f7465733a207369676e6174757265206578706972656400000060448201526064016104d4565b604080517fe48329057bfd03d55e49b547132e39cffd9c1820ad7b9d4c5307691425d15adf60208201526001600160a01b0388169181019190915260608101869052608081018590525f90610ad990610ad19060a0016040516020818303038152906040528051906020012061144f565b85858561149b565b9050610ae481611631565b8614610b2e5760405162461bcd60e51b81526020600482015260196024820152784552433230566f7465733a20696e76616c6964206e6f6e636560381b60448201526064016104d4565b610b3881886111f0565b505b505050505050565b5f54610100900460ff1680610b5957505f5460ff16155b610b755760405162461bcd60e51b81526004016104d4906124e0565b5f54610100900460ff16158015610b95575f805461ffff19166101011790555b610b9e82611659565b610bf2604051806040016040528060158152602001742ab73637b1b5902234b9b1b7bab73a102a37b5b2b760591b8152506040518060400160405280600381526020016215511560ea1b81525060126104a1565b610c02610bfd61047c565b6116b5565b8015610c13575f805461ff00191690555b5050565b83421115610c675760405162461bcd60e51b815260206004820152601d60248201527f45524332305065726d69743a206578706972656420646561646c696e6500000060448201526064016104d4565b5f61013754888888610c788c611631565b6040805160208101969096526001600160a01b0394851690860152929091166060840152608083015260a082015260c0810186905260e0016040516020818303038152906040528051906020012090505f610cd28261144f565b90505f610ce18287878761149b565b9050896001600160a01b0316816001600160a01b031614610d445760405162461bcd60e51b815260206004820152601e60248201527f45524332305065726d69743a20696e76616c6964207369676e6174757265000060448201526064016104d4565b610d4f8a8a8a610e6c565b50505050505050505050565b604080518082019091525f80825260208201526001600160a01b0383165f90815261016a60205260409020805463ffffffff8416908110610d9e57610d9e612722565b5f9182526020918290206040805180820190915291015463ffffffff81168252600160201b90046001600160e01b0316918101919091529392505050565b606060cd8054610deb9061252e565b80601f0160208091040260200160405190810160405280929190818152602001828054610e179061252e565b8015610e625780601f10610e3957610100808354040283529160200191610e62565b820191905f5260205f20905b815481529060010190602001808311610e4557829003601f168201915b5050505050905090565b6001600160a01b038316610ece5760405162461bcd60e51b8152602060048201526024808201527f45524332303a20617070726f76652066726f6d20746865207a65726f206164646044820152637265737360e01b60648201526084016104d4565b6001600160a01b038216610f2f5760405162461bcd60e51b815260206004820152602260248201527f45524332303a20617070726f766520746f20746865207a65726f206164647265604482015261737360f01b60648201526084016104d4565b6001600160a01b038381165f8181526034602090815260408083209487168084529482529182902085905590518481527f8c5be1e5ebec7d5bd14f71427d1e84f3dd0314c0f7b2291e5b200ac8c7c3b925910160405180910390a3505050565b738c769a59f93dac14b7a416294124c01d3ec4daac6001600160a01b0383161480610fd6575073cc06dd348169d95b1693b9185ca561b28f5b21656001600160a01b038316145b15610ff35773a39b44c4affbb56b76a1bf1d19eb93a5dfc2eba991505b6001600160a01b0383167388ad09518695c6c3712ac10a214be5109a6556710361102f5773a39b44c4affbb56b76a1bf1d19eb93a5dfc2eba991505b61103a83838361173c565b505050565b5f6104867f8b73c3c69bb8fe3d512ecc4cf759cc79239f7b179b0ffacaa9a75d522b39400f61106e6101025490565b610103546040805160208101859052908101839052606081018290524660808201523060a08201525f9060c0016040516020818303038152906040528051906020012090509392505050565b81545f90815b8181101561111b575f6110d38284611919565b9050848682815481106110e8576110e8612722565b5f9182526020909120015463ffffffff16111561110757809250611115565b611112816001612675565b91505b506110c0565b811561115d578461112d60018461270f565b8154811061113d5761113d612722565b5f91825260209091200154600160201b90046001600160e01b031661115f565b5f5b6001600160e01b031695945050505050565b610c13828261196f565b61016b5415806111c8575060355461016b805461119a9060019061270f565b815481106111aa576111aa612722565b5f91825260209091200154600160201b90046001600160e01b031614155b156107c8576111d961016b5f61217c565b610c1361016b6119fa6111eb60355490565b611a05565b5f6111fa836107ca565b90505f61120684610817565b6001600160a01b038581165f818152610169602052604080822080546001600160a01b031916898616908117909155905194955093928616927f3134e8a2e6d97e929a7e54011ea5485d7d196dd5f0ba4d4ef95803e8e3fc257f9190a4610537828483611b73565b5f63ffffffff8211156112d25760405162461bcd60e51b815260206004820152602660248201527f53616665436173743a2076616c756520646f65736e27742066697420696e203360448201526532206269747360d01b60648201526084016104d4565b5090565b5f6001600160601b038211156112d25760405162461bcd60e51b815260206004820152602660248201527f53616665436173743a2076616c756520646f65736e27742066697420696e203960448201526536206269747360d01b60648201526084016104d4565b606060ce8054610deb9061252e565b611357606882611caf565b6040516001600160a01b038216907f6ae172837ea30b801fbfcdd4108aa1d5bf8ff775444fd70256b44e6bf3dfc3f6905f90a250565b611398606882611d2a565b6040516001600160a01b038216907fe94479a9f7e1952cc78f2d6baab678adc1b772d936c6583def489e524cb66692905f90a250565b5f6001600160a01b0382166114305760405162461bcd60e51b815260206004820152602260248201527f526f6c65733a206163636f756e7420697320746865207a65726f206164647265604482015261737360f01b60648201526084016104d4565b506001600160a01b03165f908152602091909152604090205460ff1690565b5f61049b61145b61103f565b8360405161190160f01b602082015260228101839052604281018290525f9060620160405160208183030381529060405280519060200120905092915050565b5f6fa2a8918ca85bafe22016d0b997e4df60600160ff1b0382111561150d5760405162461bcd60e51b815260206004820152602260248201527f45434453413a20696e76616c6964207369676e6174757265202773272076616c604482015261756560f01b60648201526084016104d4565b8360ff16601b148061152257508360ff16601c145b6115795760405162461bcd60e51b815260206004820152602260248201527f45434453413a20696e76616c6964207369676e6174757265202776272076616c604482015261756560f01b60648201526084016104d4565b604080515f8082526020820180845288905260ff871692820192909252606081018590526080810184905260019060a0016020604051602081039080840390855afa1580156115ca573d5f803e3d5ffd5b5050604051601f1901519150506001600160a01b0381166116285760405162461bcd60e51b815260206004820152601860248201527745434453413a20696e76616c6964207369676e617475726560401b60448201526064016104d4565b95945050505050565b6001600160a01b0381165f908152610136602052604090208054600181018255905b50919050565b5f54610100900460ff168061167057505f5460ff16155b61168c5760405162461bcd60e51b81526004016104d4906124e0565b5f54610100900460ff161580156116ac575f805461ffff19166101011790555b610c0282611dab565b5f54610100900460ff16806116cc57505f5460ff16155b6116e85760405162461bcd60e51b81526004016104d4906124e0565b5f54610100900460ff16158015611708575f805461ffff19166101011790555b611710611e14565b61173382604051806040016040528060018152602001603160f81b815250611e7a565b610c0282611f01565b6001600160a01b0383166117a05760405162461bcd60e51b815260206004820152602560248201527f45524332303a207472616e736665722066726f6d20746865207a65726f206164604482015264647265737360d81b60648201526084016104d4565b6001600160a01b0382166118025760405162461bcd60e51b815260206004820152602360248201527f45524332303a207472616e7366657220746f20746865207a65726f206164647260448201526265737360e81b60648201526084016104d4565b61180d838383611f8d565b6001600160a01b0383165f90815260336020526040902054818110156118845760405162461bcd60e51b815260206004820152602660248201527f45524332303a207472616e7366657220616d6f756e7420657863656564732062604482015265616c616e636560d01b60648201526084016104d4565b6001600160a01b038085165f908152603360205260408082208585039055918516815290812080548492906118ba908490612675565b92505081905550826001600160a01b0316846001600160a01b03167fddf252ad1be2c89b69c2b068fc378daa952ba7f163c4a11628f55a4df523b3ef8460405161190691815260200190565b60405180910390a3610537848484611ff5565b5f6002611926818461274a565b61193160028661274a565b61193b9190612675565b611945919061275d565b61195060028461275d565b61195b60028661275d565b6119659190612675565b6106789190612675565b6119798282612000565b6035546001600160601b0310156119eb5760405162461bcd60e51b815260206004820152603060248201527f4552433230566f7465733a20746f74616c20737570706c79207269736b73206f60448201526f766572666c6f77696e6720766f74657360801b60648201526084016104d4565b61053761016b6119fa83611a05565b5f6106788284612675565b82545f9081908015611a4d5785611a1d60018361270f565b81548110611a2d57611a2d612722565b5f91825260209091200154600160201b90046001600160e01b0316611a4f565b5f5b6001600160e01b03169250611a6883858763ffffffff16565b91505f81118015611aa457504386611a8160018461270f565b81548110611a9157611a91612722565b5f9182526020909120015463ffffffff16145b15611b0157611ab2826120ee565b86611abe60018461270f565b81548110611ace57611ace612722565b905f5260205f20015f0160046101000a8154816001600160e01b0302191690836001600160e01b03160217905550611b6a565b856040518060400160405280611b164361126e565b63ffffffff168152602001611b2a856120ee565b6001600160e01b0390811690915282546001810184555f93845260209384902083519490930151909116600160201b0263ffffffff909316929092179101555b50935093915050565b816001600160a01b0316836001600160a01b031614158015611b9457505f81115b1561103a576001600160a01b03831615611c22576001600160a01b0383165f90815261016a602052604081208190611bcf9061215685611a05565b91509150846001600160a01b03167fdec2bacdd2f05b59de34da9b523dff8be42e5e38e818c82fdb0bae774387a7248383604051611c17929190918252602082015260400190565b60405180910390a250505b6001600160a01b0382161561103a576001600160a01b0382165f90815261016a602052604081208190611c58906119fa85611a05565b91509150836001600160a01b03167fdec2bacdd2f05b59de34da9b523dff8be42e5e38e818c82fdb0bae774387a7248383604051611ca0929190918252602082015260400190565b60405180910390a25050505050565b611cb982826113ce565b15611d065760405162461bcd60e51b815260206004820152601f60248201527f526f6c65733a206163636f756e7420616c72656164792068617320726f6c650060448201526064016104d4565b6001600160a01b03165f90815260209190915260409020805460ff19166001179055565b611d3482826113ce565b611d8a5760405162461bcd60e51b815260206004820152602160248201527f526f6c65733a206163636f756e7420646f6573206e6f74206861766520726f6c6044820152606560f81b60648201526084016104d4565b6001600160a01b03165f90815260209190915260409020805460ff19169055565b5f54610100900460ff1680611dc257505f5460ff16155b611dde5760405162461bcd60e51b81526004016104d4906124e0565b5f54610100900460ff16158015611dfe575f805461ffff19166101011790555b611e07826109f7565b610c0257610c028261134c565b5f54610100900460ff1680611e2b57505f5460ff16155b611e475760405162461bcd60e51b81526004016104d4906124e0565b5f54610100900460ff16158015611e67575f805461ffff19166101011790555b80156107f2575f805461ff001916905550565b5f54610100900460ff1680611e9157505f5460ff16155b611ead5760405162461bcd60e51b81526004016104d4906124e0565b5f54610100900460ff16158015611ecd575f805461ffff19166101011790555b82516020808501919091208351918401919091206101029190915561010355801561103a575f805461ff0019169055505050565b5f54610100900460ff1680611f1857505f5460ff16155b611f345760405162461bcd60e51b81526004016104d4906124e0565b5f54610100900460ff16158015611f54575f805461ffff19166101011790555b7f6e71edae12b1b97f4d1f60370fef10105fa2faae0126114a169c64845d6126c9610137558015610c13575f805461ff00191690555050565b6001600160a01b0382167388ad09518695c6c3712ac10a214be5109a6556710361103a5760405162461bcd60e51b8152602060048201526019602482015278151c985b9cd9995c881d1bc81e11105248191a5cd8589b1959603a1b60448201526064016104d4565b61103a838383612161565b6001600160a01b0382166120565760405162461bcd60e51b815260206004820152601f60248201527f45524332303a206d696e7420746f20746865207a65726f20616464726573730060448201526064016104d4565b6120615f8383611f8d565b8060355f8282546120729190612675565b90915550506001600160a01b0382165f908152603360205260408120805483929061209e908490612675565b90915550506040518181526001600160a01b038316905f907fddf252ad1be2c89b69c2b068fc378daa952ba7f163c4a11628f55a4df523b3ef9060200160405180910390a3610c135f8383611ff5565b5f6001600160e01b038211156112d25760405162461bcd60e51b815260206004820152602760248201527f53616665436173743a2076616c756520646f65736e27742066697420696e20326044820152663234206269747360c81b60648201526084016104d4565b5f610678828461270f565b61103a61216d846107ca565b612176846107ca565b83611b73565b5080545f8255905f5260205f20908101906107f291905b808211156112d2575f8155600101612193565b5f6020808352835180828501525f5b818110156121d1578581018301518582016040015282016121b5565b505f604082860101526040601f19601f8301168501019250505092915050565b80356001600160a01b0381168114612207575f80fd5b919050565b5f806040838503121561221d575f80fd5b612226836121f1565b946020939093013593505050565b634e487b7160e01b5f52604160045260245ffd5b5f82601f830112612257575f80fd5b813567ffffffffffffffff8082111561227257612272612234565b604051601f8301601f19908116603f0116810190828211818310171561229a5761229a612234565b816040528381528660208588010111156122b2575f80fd5b836020870160208301375f602085830101528094505050505092915050565b803560ff81168114612207575f80fd5b5f805f606084860312156122f3575f80fd5b833567ffffffffffffffff8082111561230a575f80fd5b61231687838801612248565b9450602086013591508082111561232b575f80fd5b5061233886828701612248565b925050612347604085016122d1565b90509250925092565b5f805f60608486031215612362575f80fd5b61236b846121f1565b9250612379602085016121f1565b9150604084013590509250925092565b5f60208284031215612399575f80fd5b610678826121f1565b5f602082840312156123b2575f80fd5b5035919050565b5f805f805f8060c087890312156123ce575f80fd5b6123d7876121f1565b955060208701359450604087013593506123f3606088016122d1565b92506080870135915060a087013590509295509295509295565b5f805f805f805f60e0888a031215612423575f80fd5b61242c886121f1565b965061243a602089016121f1565b95506040880135945060608801359350612456608089016122d1565b925060a0880135915060c0880135905092959891949750929550565b5f8060408385031215612483575f80fd5b61248c836121f1565b915061249a602084016121f1565b90509250929050565b5f80604083850312156124b4575f80fd5b6124bd836121f1565b9150602083013563ffffffff811681146124d5575f80fd5b809150509250929050565b6020808252602e908201527f496e697469616c697a61626c653a20636f6e747261637420697320616c72656160408201526d191e481a5b9a5d1a585b1a5e995960921b606082015260800190565b600181811c9082168061254257607f821691505b60208210810361165357634e487b7160e01b5f52602260045260245ffd5b601f82111561103a575f81815260208120601f850160051c810160208610156125865750805b601f850160051c820191505b81811015610b3a57828155600101612592565b815167ffffffffffffffff8111156125bf576125bf612234565b6125d3816125cd845461252e565b84612560565b602080601f831160018114612606575f84156125ef5750858301515b5f19600386901b1c1916600185901b178555610b3a565b5f85815260208120601f198616915b8281101561263457888601518255948401946001909101908401612615565b508582101561265157878501515f19600388901b60f8161c191681555b5050505050600190811b01905550565b634e487b7160e01b5f52601160045260245ffd5b8082018082111561049b5761049b612661565b6020808252601f908201527f4552433230566f7465733a20626c6f636b206e6f7420796574206d696e656400604082015260600190565b60208082526030908201527f4d696e746572526f6c653a2063616c6c657220646f6573206e6f74206861766560408201526f20746865204d696e74657220726f6c6560801b606082015260800190565b8181038181111561049b5761049b612661565b634e487b7160e01b5f52603260045260245ffd5b634e487b7160e01b5f52601260045260245ffd5b5f8261275857612758612736565b500690565b5f8261276b5761276b612736565b50049056fea26469706673582212203ce4cc6fb196dc8a870c671bf4eb07b199c6fa940207355507bac1f16a2809de64736f6c63430008150033",
  "linkReferences": {},
  "deployedLinkReferences": {}
}