{
  "contractName": "UnlockDiscountToken",
  "abi": [
    {
      "anonymous": false,
      "inputs": [
        {
          "indexed": true,
          "internalType": "address",
          "name": "owner",
          "type": "address"
        },
        {
          "indexed": true,
          "internalType": "address",
          "name": "spender",
          "type": "address"
        },
        {
          "indexed": false,
          "internalType": "uint256",
          "name": "value",
          "type": "uint256"
        }
      ],
      "name": "Approval",
      "type": "event"
    },
    {
      "anonymous": false,
      "inputs": [
        {
          "indexed": true,
          "internalType": "address",
          "name": "account",
          "type": "address"
        }
      ],
      "name": "MinterAdded",
      "type": "event"
    },
    {
      "anonymous": false,
      "inputs": [
        {
          "indexed": true,
          "internalType": "address",
          "name": "account",
          "type": "address"
        }
      ],
      "name": "MinterRemoved",
      "type": "event"
    },
    {
      "anonymous": false,
      "inputs": [
        {
          "indexed": true,
          "internalType": "address",
          "name": "from",
          "type": "address"
        },
        {
          "indexed": true,
          "internalType": "address",
          "name": "to",
          "type": "address"
        },
        {
          "indexed": false,
          "internalType": "uint256",
          "name": "value",
          "type": "uint256"
        }
      ],
      "name": "Transfer",
      "type": "event"
    },
    {
      "constant": false,
      "inputs": [
        {
          "internalType": "address",
          "name": "account",
          "type": "address"
        }
      ],
      "name": "addMinter",
      "outputs": [],
      "payable": false,
      "stateMutability": "nonpayable",
      "type": "function"
    },
    {
      "constant": true,
      "inputs": [
        {
          "internalType": "address",
          "name": "owner",
          "type": "address"
        },
        {
          "internalType": "address",
          "name": "spender",
          "type": "address"
        }
      ],
      "name": "allowance",
      "outputs": [
        {
          "internalType": "uint256",
          "name": "",
          "type": "uint256"
        }
      ],
      "payable": false,
      "stateMutability": "view",
      "type": "function"
    },
    {
      "constant": false,
      "inputs": [
        {
          "internalType": "address",
          "name": "spender",
          "type": "address"
        },
        {
          "internalType": "uint256",
          "name": "amount",
          "type": "uint256"
        }
      ],
      "name": "approve",
      "outputs": [
        {
          "internalType": "bool",
          "name": "",
          "type": "bool"
        }
      ],
      "payable": false,
      "stateMutability": "nonpayable",
      "type": "function"
    },
    {
      "constant": true,
      "inputs": [
        {
          "internalType": "address",
          "name": "account",
          "type": "address"
        }
      ],
      "name": "balanceOf",
      "outputs": [
        {
          "internalType": "uint256",
          "name": "",
          "type": "uint256"
        }
      ],
      "payable": false,
      "stateMutability": "view",
      "type": "function"
    },
    {
      "constant": true,
      "inputs": [],
      "name": "decimals",
      "outputs": [
        {
          "internalType": "uint8",
          "name": "",
          "type": "uint8"
        }
      ],
      "payable": false,
      "stateMutability": "view",
      "type": "function"
    },
    {
      "constant": false,
      "inputs": [
        {
          "internalType": "address",
          "name": "spender",
          "type": "address"
        },
        {
          "internalType": "uint256",
          "name": "subtractedValue",
          "type": "uint256"
        }
      ],
      "name": "decreaseAllowance",
      "outputs": [
        {
          "internalType": "bool",
          "name": "",
          "type": "bool"
        }
      ],
      "payable": false,
      "stateMutability": "nonpayable",
      "type": "function"
    },
    {
      "constant": false,
      "inputs": [
        {
          "internalType": "address",
          "name": "spender",
          "type": "address"
        },
        {
          "internalType": "uint256",
          "name": "addedValue",
          "type": "uint256"
        }
      ],
      "name": "increaseAllowance",
      "outputs": [
        {
          "internalType": "bool",
          "name": "",
          "type": "bool"
        }
      ],
      "payable": false,
      "stateMutability": "nonpayable",
      "type": "function"
    },
    {
      "constant": true,
      "inputs": [
        {
          "internalType": "address",
          "name": "account",
          "type": "address"
        }
      ],
      "name": "isMinter",
      "outputs": [
        {
          "internalType": "bool",
          "name": "",
          "type": "bool"
        }
      ],
      "payable": false,
      "stateMutability": "view",
      "type": "function"
    },
    {
      "constant": false,
      "inputs": [
        {
          "internalType": "address",
          "name": "account",
          "type": "address"
        },
        {
          "internalType": "uint256",
          "name": "amount",
          "type": "uint256"
        }
      ],
      "name": "mint",
      "outputs": [
        {
          "internalType": "bool",
          "name": "",
          "type": "bool"
        }
      ],
      "payable": false,
      "stateMutability": "nonpayable",
      "type": "function"
    },
    {
      "constant": true,
      "inputs": [],
      "name": "name",
      "outputs": [
        {
          "internalType": "string",
          "name": "",
          "type": "string"
        }
      ],
      "payable": false,
      "stateMutability": "view",
      "type": "function"
    },
    {
      "constant": false,
      "inputs": [],
      "name": "renounceMinter",
      "outputs": [],
      "payable": false,
      "stateMutability": "nonpayable",
      "type": "function"
    },
    {
      "constant": true,
      "inputs": [],
      "name": "symbol",
      "outputs": [
        {
          "internalType": "string",
          "name": "",
          "type": "string"
        }
      ],
      "payable": false,
      "stateMutability": "view",
      "type": "function"
    },
    {
      "constant": true,
      "inputs": [],
      "name": "totalSupply",
      "outputs": [
        {
          "internalType": "uint256",
          "name": "",
          "type": "uint256"
        }
      ],
      "payable": false,
      "stateMutability": "view",
      "type": "function"
    },
    {
      "constant": false,
      "inputs": [
        {
          "internalType": "address",
          "name": "recipient",
          "type": "address"
        },
        {
          "internalType": "uint256",
          "name": "amount",
          "type": "uint256"
        }
      ],
      "name": "transfer",
      "outputs": [
        {
          "internalType": "bool",
          "name": "",
          "type": "bool"
        }
      ],
      "payable": false,
      "stateMutability": "nonpayable",
      "type": "function"
    },
    {
      "constant": false,
      "inputs": [
        {
          "internalType": "address",
          "name": "sender",
          "type": "address"
        },
        {
          "internalType": "address",
          "name": "recipient",
          "type": "address"
        },
        {
          "internalType": "uint256",
          "name": "amount",
          "type": "uint256"
        }
      ],
      "name": "transferFrom",
      "outputs": [
        {
          "internalType": "bool",
          "name": "",
          "type": "bool"
        }
      ],
      "payable": false,
      "stateMutability": "nonpayable",
      "type": "function"
    },
    {
      "constant": false,
      "inputs": [
        {
          "internalType": "string",
          "name": "name",
          "type": "string"
        },
        {
          "internalType": "string",
          "name": "symbol",
          "type": "string"
        },
        {
          "internalType": "uint8",
          "name": "decimals",
          "type": "uint8"
        }
      ],
      "name": "initialize",
      "outputs": [],
      "payable": false,
      "stateMutability": "nonpayable",
      "type": "function"
    },
    {
      "constant": false,
      "inputs": [
        {
          "internalType": "address",
          "name": "_minter",
          "type": "address"
        }
      ],
      "name": "initialize",
      "outputs": [],
      "payable": false,
      "stateMutability": "nonpayable",
      "type": "function"
    }
  ],
  "bytecode": "0x6080604052611437806100136000396000f3fe608060405234801561001057600080fd5b506004361061010b5760003560e01c806370a08231116100a2578063a457c2d711610071578063a457c2d714610423578063a9059cbb1461044f578063aa271e1a1461047b578063c4d66de8146104a1578063dd62ed3e146104c75761010b565b806370a08231146103c757806395d89b41146103ed578063983b2d56146103f5578063986502751461041b5761010b565b806323b872dd116100de57806323b872dd1461031b578063313ce56714610351578063395093511461036f57806340c10f191461039b5761010b565b806306fdde0314610110578063095ea7b31461018d5780631624f6c6146101cd57806318160ddd14610301575b600080fd5b6101186104f5565b6040805160208082528351818301528351919283929083019185019080838360005b8381101561015257818101518382015260200161013a565b50505050905090810190601f16801561017f5780820380516001836020036101000a031916815260200191505b509250505060405180910390f35b6101b9600480360360408110156101a357600080fd5b506001600160a01b03813516906020013561058c565b604080519115158252519081900360200190f35b6102ff600480360360608110156101e357600080fd5b8101906020810181356401000000008111156101fe57600080fd5b82018360208201111561021057600080fd5b8035906020019184600183028401116401000000008311171561023257600080fd5b91908080601f016020809104026020016040519081016040528093929190818152602001838380828437600092019190915250929594936020810193503591505064010000000081111561028557600080fd5b82018360208201111561029757600080fd5b803590602001918460018302840111640100000000831117156102b957600080fd5b91908080601f0160208091040260200160405190810160405280939291908181526020018383808284376000920191909152509295505050903560ff1691506105a99050565b005b610309610685565b60408051918252519081900360200190f35b6101b96004803603606081101561033157600080fd5b506001600160a01b0381358116916020810135909116906040013561068b565b610359610718565b6040805160ff9092168252519081900360200190f35b6101b96004803603604081101561038557600080fd5b506001600160a01b038135169060200135610721565b6101b9600480360360408110156103b157600080fd5b506001600160a01b038135169060200135610775565b610309600480360360208110156103dd57600080fd5b50356001600160a01b03166107cc565b6101186107e7565b6102ff6004803603602081101561040b57600080fd5b50356001600160a01b0316610848565b6102ff61089a565b6101b96004803603604081101561043957600080fd5b506001600160a01b0381351690602001356108ac565b6101b96004803603604081101561046557600080fd5b506001600160a01b03813516906020013561091a565b6101b96004803603602081101561049157600080fd5b50356001600160a01b031661092e565b6102ff600480360360208110156104b757600080fd5b50356001600160a01b0316610947565b610309600480360360408110156104dd57600080fd5b506001600160a01b0381358116916020013516610a47565b60cd8054604080516020601f60026000196101006001881615020190951694909404938401819004810282018101909252828152606093909290918301828280156105815780601f1061055657610100808354040283529160200191610581565b820191906000526020600020905b81548152906001019060200180831161056457829003601f168201915b505050505090505b90565b60006105a0610599610a72565b8484610a76565b50600192915050565b600054610100900460ff16806105c257506105c2610b62565b806105d0575060005460ff16155b61060b5760405162461bcd60e51b815260040180806020018281038252602e815260200180611367602e913960400191505060405180910390fd5b600054610100900460ff16158015610636576000805460ff1961ff0019909116610100171660011790555b83516106499060cd9060208701906111c8565b50825161065d9060ce9060208601906111c8565b5060cf805460ff191660ff8416179055801561067f576000805461ff00191690555b50505050565b60355490565b6000610698848484610b68565b61070e846106a4610a72565b6107098560405180606001604052806028815260200161131d602891396001600160a01b038a166000908152603460205260408120906106e2610a72565b6001600160a01b03168152602081019190915260400160002054919063ffffffff610cc616565b610a76565b5060019392505050565b60cf5460ff1690565b60006105a061072e610a72565b84610709856034600061073f610a72565b6001600160a01b03908116825260208083019390935260409182016000908120918c16815292529020549063ffffffff610d5d16565b6000610787610782610a72565b61092e565b6107c25760405162461bcd60e51b81526004018080602001828103825260308152602001806112cc6030913960400191505060405180910390fd5b6105a08383610dbe565b6001600160a01b031660009081526033602052604090205490565b60ce8054604080516020601f60026000196101006001881615020190951694909404938401819004810282018101909252828152606093909290918301828280156105815780601f1061055657610100808354040283529160200191610581565b610853610782610a72565b61088e5760405162461bcd60e51b81526004018080602001828103825260308152602001806112cc6030913960400191505060405180910390fd5b61089781610eb0565b50565b6108aa6108a5610a72565b610ef8565b565b60006105a06108b9610a72565b84610709856040518060600160405280602581526020016113de60259139603460006108e3610a72565b6001600160a01b03908116825260208083019390935260409182016000908120918d1681529252902054919063ffffffff610cc616565b60006105a0610927610a72565b8484610b68565b600061094160688363ffffffff610f4016565b92915050565b600054610100900460ff16806109605750610960610b62565b8061096e575060005460ff16155b6109a95760405162461bcd60e51b815260040180806020018281038252602e815260200180611367602e913960400191505060405180910390fd5b600054610100900460ff161580156109d4576000805460ff1961ff0019909116610100171660011790555b6109dd82610fa7565b610a31604051806040016040528060158152602001742ab73637b1b5902234b9b1b7bab73a102a37b5b2b760591b8152506040518060400160405280600381526020016215511560ea1b81525060126105a9565b8015610a43576000805461ff00191690555b5050565b6001600160a01b03918216600090815260346020908152604080832093909416825291909152205490565b3390565b6001600160a01b038316610abb5760405162461bcd60e51b81526004018080602001828103825260248152602001806113ba6024913960400191505060405180910390fd5b6001600160a01b038216610b005760405162461bcd60e51b81526004018080602001828103825260228152602001806112846022913960400191505060405180910390fd5b6001600160a01b03808416600081815260346020908152604080832094871680845294825291829020859055815185815291517f8c5be1e5ebec7d5bd14f71427d1e84f3dd0314c0f7b2291e5b200ac8c7c3b9259281900390910190a3505050565b303b1590565b6001600160a01b038316610bad5760405162461bcd60e51b81526004018080602001828103825260258152602001806113956025913960400191505060405180910390fd5b6001600160a01b038216610bf25760405162461bcd60e51b81526004018080602001828103825260238152602001806112616023913960400191505060405180910390fd5b610c35816040518060600160405280602681526020016112a6602691396001600160a01b038616600090815260336020526040902054919063ffffffff610cc616565b6001600160a01b038085166000908152603360205260408082209390935590841681522054610c6a908263ffffffff610d5d16565b6001600160a01b0380841660008181526033602090815260409182902094909455805185815290519193928716927fddf252ad1be2c89b69c2b068fc378daa952ba7f163c4a11628f55a4df523b3ef92918290030190a3505050565b60008184841115610d555760405162461bcd60e51b81526004018080602001828103825283818151815260200191508051906020019080838360005b83811015610d1a578181015183820152602001610d02565b50505050905090810190601f168015610d475780820380516001836020036101000a031916815260200191505b509250505060405180910390fd5b505050900390565b600082820183811015610db7576040805162461bcd60e51b815260206004820152601b60248201527f536166654d6174683a206164646974696f6e206f766572666c6f770000000000604482015290519081900360640190fd5b9392505050565b6001600160a01b038216610e19576040805162461bcd60e51b815260206004820152601f60248201527f45524332303a206d696e7420746f20746865207a65726f206164647265737300604482015290519081900360640190fd5b603554610e2c908263ffffffff610d5d16565b6035556001600160a01b038216600090815260336020526040902054610e58908263ffffffff610d5d16565b6001600160a01b03831660008181526033602090815260408083209490945583518581529351929391927fddf252ad1be2c89b69c2b068fc378daa952ba7f163c4a11628f55a4df523b3ef9281900390910190a35050565b610ec160688263ffffffff61103d16565b6040516001600160a01b038216907f6ae172837ea30b801fbfcdd4108aa1d5bf8ff775444fd70256b44e6bf3dfc3f690600090a250565b610f0960688263ffffffff6110be16565b6040516001600160a01b038216907fe94479a9f7e1952cc78f2d6baab678adc1b772d936c6583def489e524cb6669290600090a250565b60006001600160a01b038216610f875760405162461bcd60e51b81526004018080602001828103825260228152602001806113456022913960400191505060405180910390fd5b506001600160a01b03166000908152602091909152604090205460ff1690565b600054610100900460ff1680610fc05750610fc0610b62565b80610fce575060005460ff16155b6110095760405162461bcd60e51b815260040180806020018281038252602e815260200180611367602e913960400191505060405180910390fd5b600054610100900460ff16158015611034576000805460ff1961ff0019909116610100171660011790555b610a3182611125565b6110478282610f40565b15611099576040805162461bcd60e51b815260206004820152601f60248201527f526f6c65733a206163636f756e7420616c72656164792068617320726f6c6500604482015290519081900360640190fd5b6001600160a01b0316600090815260209190915260409020805460ff19166001179055565b6110c88282610f40565b6111035760405162461bcd60e51b81526004018080602001828103825260218152602001806112fc6021913960400191505060405180910390fd5b6001600160a01b0316600090815260209190915260409020805460ff19169055565b600054610100900460ff168061113e575061113e610b62565b8061114c575060005460ff16155b6111875760405162461bcd60e51b815260040180806020018281038252602e815260200180611367602e913960400191505060405180910390fd5b600054610100900460ff161580156111b2576000805460ff1961ff0019909116610100171660011790555b6111bb8261092e565b610a3157610a3182610eb0565b828054600181600116156101000203166002900490600052602060002090601f016020900481019282601f1061120957805160ff1916838001178555611236565b82800160010185558215611236579182015b8281111561123657825182559160200191906001019061121b565b50611242929150611246565b5090565b61058991905b80821115611242576000815560010161124c56fe45524332303a207472616e7366657220746f20746865207a65726f206164647265737345524332303a20617070726f766520746f20746865207a65726f206164647265737345524332303a207472616e7366657220616d6f756e7420657863656564732062616c616e63654d696e746572526f6c653a2063616c6c657220646f6573206e6f74206861766520746865204d696e74657220726f6c65526f6c65733a206163636f756e7420646f6573206e6f74206861766520726f6c6545524332303a207472616e7366657220616d6f756e74206578636565647320616c6c6f77616e6365526f6c65733a206163636f756e7420697320746865207a65726f2061646472657373436f6e747261637420696e7374616e63652068617320616c7265616479206265656e20696e697469616c697a656445524332303a207472616e736665722066726f6d20746865207a65726f206164647265737345524332303a20617070726f76652066726f6d20746865207a65726f206164647265737345524332303a2064656372656173656420616c6c6f77616e63652062656c6f77207a65726fa265627a7a7231582035a6ca20cc4dff4c80496823091fd9be9cdc502086c7e31b97ea504f1da05db864736f6c63430005110032",
  "source": "pragma solidity 0.5.17;\r\n\r\nimport '@openzeppelin/contracts-ethereum-package/contracts/token/ERC20/ERC20Mintable.sol';\r\nimport '@openzeppelin/contracts-ethereum-package/contracts/token/ERC20/ERC20Detailed.sol';\r\n\r\n\r\n/**\r\n* @title The Unlock Discount Token\r\n* This smart contract implements the Unlock Discount Token\r\n*/\r\ncontract UnlockDiscountToken is\r\nERC20Mintable,\r\nERC20Detailed\r\n{\r\n  /**\r\n   * @notice A one-time call to configure the token.\r\n   * @param _minter A wallet with permissions to mint tokens and/or add other minters.\r\n   */\r\n  function initialize(address _minter) public initializer()\r\n  {\r\n    ERC20Mintable.initialize(_minter);\r\n    ERC20Detailed.initialize('Unlock Discount Token', 'UDT', 18);\r\n  }\r\n}\r\n",
  "sourcePath": "D:\\unlock\\smart-contracts\\contracts\\UnlockDiscountToken.sol",
  "compiler": {
    "name": "solc",
    "version": "0.5.17+commit.d19bba13.Emscripten.clang"
  },
  "schemaVersion": "3.2.0",
  "updatedAt": "2020-07-11T18:54:37.091Z",
  "devdoc": {
    "methods": {
      "allowance(address,address)": {
        "details": "See {IERC20-allowance}."
      },
      "approve(address,uint256)": {
        "details": "See {IERC20-approve}.     * Requirements:     * - `spender` cannot be the zero address."
      },
      "balanceOf(address)": {
        "details": "See {IERC20-balanceOf}."
      },
      "decimals()": {
        "details": "Returns the number of decimals used to get its user representation. For example, if `decimals` equals `2`, a balance of `505` tokens should be displayed to a user as `5,05` (`505 / 10 ** 2`).     * Tokens usually opt for a value of 18, imitating the relationship between Ether and Wei.     * NOTE: This information is only used for _display_ purposes: it in no way affects any of the arithmetic of the contract, including {IERC20-balanceOf} and {IERC20-transfer}."
      },
      "decreaseAllowance(address,uint256)": {
        "details": "Atomically decreases the allowance granted to `spender` by the caller.     * This is an alternative to {approve} that can be used as a mitigation for problems described in {IERC20-approve}.     * Emits an {Approval} event indicating the updated allowance.     * Requirements:     * - `spender` cannot be the zero address. - `spender` must have allowance for the caller of at least `subtractedValue`."
      },
      "increaseAllowance(address,uint256)": {
        "details": "Atomically increases the allowance granted to `spender` by the caller.     * This is an alternative to {approve} that can be used as a mitigation for problems described in {IERC20-approve}.     * Emits an {Approval} event indicating the updated allowance.     * Requirements:     * - `spender` cannot be the zero address."
      },
      "initialize(address)": {
        "params": {
          "_minter": "A wallet with permissions to mint tokens and/or add other minters."
        }
      },
      "initialize(string,string,uint8)": {
        "details": "Sets the values for `name`, `symbol`, and `decimals`. All three of these values are immutable: they can only be set once during construction."
      },
      "mint(address,uint256)": {
        "details": "See {ERC20-_mint}.     * Requirements:     * - the caller must have the {MinterRole}."
      },
      "name()": {
        "details": "Returns the name of the token."
      },
      "symbol()": {
        "details": "Returns the symbol of the token, usually a shorter version of the name."
      },
      "totalSupply()": {
        "details": "See {IERC20-totalSupply}."
      },
      "transfer(address,uint256)": {
        "details": "See {IERC20-transfer}.     * Requirements:     * - `recipient` cannot be the zero address. - the caller must have a balance of at least `amount`."
      },
      "transferFrom(address,address,uint256)": {
        "details": "See {IERC20-transferFrom}.     * Emits an {Approval} event indicating the updated allowance. This is not required by the EIP. See the note at the beginning of {ERC20};     * Requirements: - `sender` and `recipient` cannot be the zero address. - `sender` must have a balance of at least `amount`. - the caller must have allowance for `sender`'s tokens of at least `amount`."
      }
    },
    "title": "The Unlock Discount Token This smart contract implements the Unlock Discount Token"
  },
  "userdoc": {
    "methods": {
      "initialize(address)": {
        "notice": "A one-time call to configure the token."
      }
    }
  }
}