{
  "contractName": "Unlock",
  "abi": [
    {
      "anonymous": false,
      "inputs": [
        {
          "indexed": false,
          "internalType": "address",
          "name": "udt",
          "type": "address"
        },
        {
          "indexed": false,
          "internalType": "address",
          "name": "weth",
          "type": "address"
        },
        {
          "indexed": false,
          "internalType": "uint256",
          "name": "estimatedGasForPurchase",
          "type": "uint256"
        },
        {
          "indexed": false,
          "internalType": "string",
          "name": "globalTokenSymbol",
          "type": "string"
        },
        {
          "indexed": false,
          "internalType": "string",
          "name": "globalTokenURI",
          "type": "string"
        },
        {
          "indexed": false,
          "internalType": "uint256",
          "name": "chainId",
          "type": "uint256"
        }
      ],
      "name": "ConfigUnlock",
      "type": "event"
    },
    {
      "anonymous": false,
      "inputs": [
        {
          "indexed": true,
          "internalType": "address",
          "name": "lockOwner",
          "type": "address"
        },
        {
          "indexed": true,
          "internalType": "address",
          "name": "newLockAddress",
          "type": "address"
        }
      ],
      "name": "NewLock",
      "type": "event"
    },
    {
      "anonymous": false,
      "inputs": [
        {
          "indexed": true,
          "internalType": "address",
          "name": "previousOwner",
          "type": "address"
        },
        {
          "indexed": true,
          "internalType": "address",
          "name": "newOwner",
          "type": "address"
        }
      ],
      "name": "OwnershipTransferred",
      "type": "event"
    },
    {
      "anonymous": false,
      "inputs": [
        {
          "indexed": false,
          "internalType": "uint256",
          "name": "grossNetworkProduct",
          "type": "uint256"
        },
        {
          "indexed": false,
          "internalType": "uint256",
          "name": "totalDiscountGranted",
          "type": "uint256"
        }
      ],
      "name": "ResetTrackedValue",
      "type": "event"
    },
    {
      "anonymous": false,
      "inputs": [
        {
          "indexed": false,
          "internalType": "address",
          "name": "publicLockAddress",
          "type": "address"
        }
      ],
      "name": "SetLockTemplate",
      "type": "event"
    },
    {
      "constant": true,
      "inputs": [],
      "name": "chainId",
      "outputs": [
        {
          "internalType": "uint256",
          "name": "",
          "type": "uint256"
        }
      ],
      "payable": false,
      "stateMutability": "view",
      "type": "function"
    },
    {
      "constant": true,
      "inputs": [],
      "name": "estimatedGasForPurchase",
      "outputs": [
        {
          "internalType": "uint256",
          "name": "",
          "type": "uint256"
        }
      ],
      "payable": false,
      "stateMutability": "view",
      "type": "function"
    },
    {
      "constant": true,
      "inputs": [],
      "name": "globalBaseTokenURI",
      "outputs": [
        {
          "internalType": "string",
          "name": "",
          "type": "string"
        }
      ],
      "payable": false,
      "stateMutability": "view",
      "type": "function"
    },
    {
      "constant": true,
      "inputs": [],
      "name": "globalTokenSymbol",
      "outputs": [
        {
          "internalType": "string",
          "name": "",
          "type": "string"
        }
      ],
      "payable": false,
      "stateMutability": "view",
      "type": "function"
    },
    {
      "constant": true,
      "inputs": [],
      "name": "grossNetworkProduct",
      "outputs": [
        {
          "internalType": "uint256",
          "name": "",
          "type": "uint256"
        }
      ],
      "payable": false,
      "stateMutability": "view",
      "type": "function"
    },
    {
      "constant": true,
      "inputs": [],
      "name": "isOwner",
      "outputs": [
        {
          "internalType": "bool",
          "name": "",
          "type": "bool"
        }
      ],
      "payable": false,
      "stateMutability": "view",
      "type": "function"
    },
    {
      "constant": true,
      "inputs": [
        {
          "internalType": "address",
          "name": "",
          "type": "address"
        }
      ],
      "name": "locks",
      "outputs": [
        {
          "internalType": "bool",
          "name": "deployed",
          "type": "bool"
        },
        {
          "internalType": "uint256",
          "name": "totalSales",
          "type": "uint256"
        },
        {
          "internalType": "uint256",
          "name": "yieldedDiscountTokens",
          "type": "uint256"
        }
      ],
      "payable": false,
      "stateMutability": "view",
      "type": "function"
    },
    {
      "constant": true,
      "inputs": [],
      "name": "owner",
      "outputs": [
        {
          "internalType": "address",
          "name": "",
          "type": "address"
        }
      ],
      "payable": false,
      "stateMutability": "view",
      "type": "function"
    },
    {
      "constant": true,
      "inputs": [],
      "name": "publicLockAddress",
      "outputs": [
        {
          "internalType": "address",
          "name": "",
          "type": "address"
        }
      ],
      "payable": false,
      "stateMutability": "view",
      "type": "function"
    },
    {
      "constant": false,
      "inputs": [],
      "name": "renounceOwnership",
      "outputs": [],
      "payable": false,
      "stateMutability": "nonpayable",
      "type": "function"
    },
    {
      "constant": true,
      "inputs": [],
      "name": "totalDiscountGranted",
      "outputs": [
        {
          "internalType": "uint256",
          "name": "",
          "type": "uint256"
        }
      ],
      "payable": false,
      "stateMutability": "view",
      "type": "function"
    },
    {
      "constant": false,
      "inputs": [
        {
          "internalType": "address",
          "name": "newOwner",
          "type": "address"
        }
      ],
      "name": "transferOwnership",
      "outputs": [],
      "payable": false,
      "stateMutability": "nonpayable",
      "type": "function"
    },
    {
      "constant": true,
      "inputs": [],
      "name": "udt",
      "outputs": [
        {
          "internalType": "address",
          "name": "",
          "type": "address"
        }
      ],
      "payable": false,
      "stateMutability": "view",
      "type": "function"
    },
    {
      "constant": true,
      "inputs": [
        {
          "internalType": "address",
          "name": "",
          "type": "address"
        }
      ],
      "name": "uniswapOracles",
      "outputs": [
        {
          "internalType": "contract IUniswapOracle",
          "name": "",
          "type": "address"
        }
      ],
      "payable": false,
      "stateMutability": "view",
      "type": "function"
    },
    {
      "constant": true,
      "inputs": [],
      "name": "weth",
      "outputs": [
        {
          "internalType": "address",
          "name": "",
          "type": "address"
        }
      ],
      "payable": false,
      "stateMutability": "view",
      "type": "function"
    },
    {
      "constant": false,
      "inputs": [
        {
          "internalType": "address",
          "name": "_unlockOwner",
          "type": "address"
        }
      ],
      "name": "initialize",
      "outputs": [],
      "payable": false,
      "stateMutability": "nonpayable",
      "type": "function"
    },
    {
      "constant": false,
      "inputs": [
        {
          "internalType": "uint256",
          "name": "_expirationDuration",
          "type": "uint256"
        },
        {
          "internalType": "address",
          "name": "_tokenAddress",
          "type": "address"
        },
        {
          "internalType": "uint256",
          "name": "_keyPrice",
          "type": "uint256"
        },
        {
          "internalType": "uint256",
          "name": "_maxNumberOfKeys",
          "type": "uint256"
        },
        {
          "internalType": "string",
          "name": "_lockName",
          "type": "string"
        },
        {
          "internalType": "bytes12",
          "name": "_salt",
          "type": "bytes12"
        }
      ],
      "name": "createLock",
      "outputs": [],
      "payable": false,
      "stateMutability": "nonpayable",
      "type": "function"
    },
    {
      "constant": true,
      "inputs": [
        {
          "internalType": "address",
          "name": "",
          "type": "address"
        },
        {
          "internalType": "uint256",
          "name": "",
          "type": "uint256"
        }
      ],
      "name": "computeAvailableDiscountFor",
      "outputs": [
        {
          "internalType": "uint256",
          "name": "discount",
          "type": "uint256"
        },
        {
          "internalType": "uint256",
          "name": "tokens",
          "type": "uint256"
        }
      ],
      "payable": false,
      "stateMutability": "view",
      "type": "function"
    },
    {
      "constant": false,
      "inputs": [
        {
          "internalType": "uint256",
          "name": "_value",
          "type": "uint256"
        },
        {
          "internalType": "address",
          "name": "_referrer",
          "type": "address"
        }
      ],
      "name": "recordKeyPurchase",
      "outputs": [],
      "payable": false,
      "stateMutability": "nonpayable",
      "type": "function"
    },
    {
      "constant": false,
      "inputs": [
        {
          "internalType": "uint256",
          "name": "_discount",
          "type": "uint256"
        },
        {
          "internalType": "uint256",
          "name": "",
          "type": "uint256"
        }
      ],
      "name": "recordConsumedDiscount",
      "outputs": [],
      "payable": false,
      "stateMutability": "nonpayable",
      "type": "function"
    },
    {
      "constant": true,
      "inputs": [],
      "name": "unlockVersion",
      "outputs": [
        {
          "internalType": "uint16",
          "name": "",
          "type": "uint16"
        }
      ],
      "payable": false,
      "stateMutability": "pure",
      "type": "function"
    },
    {
      "constant": false,
      "inputs": [
        {
          "internalType": "address",
          "name": "_udt",
          "type": "address"
        },
        {
          "internalType": "address",
          "name": "_weth",
          "type": "address"
        },
        {
          "internalType": "uint256",
          "name": "_estimatedGasForPurchase",
          "type": "uint256"
        },
        {
          "internalType": "string",
          "name": "_symbol",
          "type": "string"
        },
        {
          "internalType": "string",
          "name": "_URI",
          "type": "string"
        },
        {
          "internalType": "uint256",
          "name": "_chainId",
          "type": "uint256"
        }
      ],
      "name": "configUnlock",
      "outputs": [],
      "payable": false,
      "stateMutability": "nonpayable",
      "type": "function"
    },
    {
      "constant": false,
      "inputs": [
        {
          "internalType": "address payable",
          "name": "_publicLockAddress",
          "type": "address"
        }
      ],
      "name": "setLockTemplate",
      "outputs": [],
      "payable": false,
      "stateMutability": "nonpayable",
      "type": "function"
    },
    {
      "constant": false,
      "inputs": [
        {
          "internalType": "address",
          "name": "_tokenAddress",
          "type": "address"
        },
        {
          "internalType": "address",
          "name": "_oracleAddress",
          "type": "address"
        }
      ],
      "name": "setOracle",
      "outputs": [],
      "payable": false,
      "stateMutability": "nonpayable",
      "type": "function"
    },
    {
      "constant": false,
      "inputs": [
        {
          "internalType": "uint256",
          "name": "_grossNetworkProduct",
          "type": "uint256"
        },
        {
          "internalType": "uint256",
          "name": "_totalDiscountGranted",
          "type": "uint256"
        }
      ],
      "name": "resetTrackedValue",
      "outputs": [],
      "payable": false,
      "stateMutability": "nonpayable",
      "type": "function"
    },
    {
      "constant": true,
      "inputs": [],
      "name": "getGlobalBaseTokenURI",
      "outputs": [
        {
          "internalType": "string",
          "name": "",
          "type": "string"
        }
      ],
      "payable": false,
      "stateMutability": "view",
      "type": "function"
    },
    {
      "constant": true,
      "inputs": [],
      "name": "getGlobalTokenSymbol",
      "outputs": [
        {
          "internalType": "string",
          "name": "",
          "type": "string"
        }
      ],
      "payable": false,
      "stateMutability": "view",
      "type": "function"
    }
  ],
  "bytecode": "0x6080604052611d43806100136000396000f3fe608060405234801561001057600080fd5b50600436106101a95760003560e01c80637ff94bb2116100f9578063a998e9fb11610097578063d6e9e80311610071578063d6e9e80314610612578063ef67fde61461061a578063f2fde38b14610640578063f832899114610666576101a9565b8063a998e9fb146105dc578063c4d66de8146105e4578063cec410521461060a576101a9565b8063939d9f1f116100d3578063939d9f1f1461057d578063963a9478146105a95780639a8a0592146105cc578063a082eb0e146105d4576101a9565b80637ff94bb2146105515780638da5cb5b146105595780638f32d59b14610561576101a9565b806342d92106116101665780636bced5a2116101405780636bced5a214610427578063715018a61461044d578063743bbc2f146104555780637d8fb6411461046f576101a9565b806342d92106146102e05780635c38eb3a146103b35780635de9a137146103e1576101a9565b80630cb175e3146101ae578063262d0a85146101f357806335a750de1461021757806336524663146102945780633fc8cef3146102b95780634220bd46146102c1575b600080fd5b6101da600480360360408110156101c457600080fd5b506001600160a01b03813516906020013561066e565b6040805192835260208301919091528051918290030190f35b6101fb610677565b604080516001600160a01b039092168252519081900360200190f35b61021f610686565b6040805160208082528351818301528351919283929083019185019080838360005b83811015610259578181015183820152602001610241565b50505050905090810190601f1680156102865780820380516001836020036101000a031916815260200191505b509250505060405180910390f35b6102b7600480360360408110156102aa57600080fd5b508035906020013561071d565b005b6101fb61077b565b6102c961078a565b6040805161ffff9092168252519081900360200190f35b6102b7600480360360c08110156102f657600080fd5b8135916001600160a01b036020820135169160408201359160608101359181019060a08101608082013564010000000081111561033257600080fd5b82018360208201111561034457600080fd5b8035906020019184600183028401116401000000008311171561036657600080fd5b91908080601f016020809104026020016040519081016040528093929190818152602001838380828437600092019190915250929550505090356001600160a01b031916915061078f9050565b6102b7600480360360408110156103c957600080fd5b506001600160a01b03813581169160200135166109ab565b610407600480360360208110156103f757600080fd5b50356001600160a01b0316610a96565b604080519315158452602084019290925282820152519081900360600190f35b6101fb6004803603602081101561043d57600080fd5b50356001600160a01b0316610abb565b6102b7610ad6565b61045d610b67565b60408051918252519081900360200190f35b6102b7600480360360c081101561048557600080fd5b6001600160a01b038235811692602081013590911691604082013591908101906080810160608201356401000000008111156104c057600080fd5b8201836020820111156104d257600080fd5b803590602001918460018302840111640100000000831117156104f457600080fd5b91939092909160208101903564010000000081111561051257600080fd5b82018360208201111561052457600080fd5b8035906020019184600183028401116401000000008311171561054657600080fd5b919350915035610b6d565b61021f610ce4565b6101fb610d45565b610569610d54565b604080519115158252519081900360200190f35b6102b76004803603604081101561059357600080fd5b50803590602001356001600160a01b0316610d7a565b6102b7600480360360408110156105bf57600080fd5b5080359060200135611484565b61045d611514565b61045d61151a565b61021f611520565b6102b7600480360360208110156105fa57600080fd5b50356001600160a01b03166115ae565b61021f611659565b61045d6116b4565b6102b76004803603602081101561063057600080fd5b50356001600160a01b03166116ba565b6102b76004803603602081101561065657600080fd5b50356001600160a01b0316611831565b6101fb611884565b50600091829150565b606e546001600160a01b031681565b606a8054604080516020601f60026000196101006001881615020190951694909404938401819004810282018101909252828152606093909290918301828280156107125780601f106106e757610100808354040283529160200191610712565b820191906000526020600020905b8154815290600101906020018083116106f557829003601f168201915b505050505090505b90565b3360009081526068602052604090205460ff1661076e576040805162461bcd60e51b815260206004820152600a6024820152694f4e4c595f4c4f434b5360b01b604482015290519081900360640190fd5b60678054830190555b5050565b606d546001600160a01b031681565b600990565b606b546001600160a01b03166107e4576040805162461bcd60e51b81526020600482015260156024820152744d495353494e475f4c4f434b5f54454d504c41544560581b604482015290519081900360640190fd5b6040513360601b81526014810182905251606b54600090610814906001600160a01b03168363ffffffff61189316565b9050806001600160a01b0316636eadde43338a8a8a8a8a6040518763ffffffff1660e01b815260040180876001600160a01b03166001600160a01b03168152602001868152602001856001600160a01b03166001600160a01b0316815260200184815260200183815260200180602001828103825283818151815260200191508051906020019080838360005b838110156108b95781810151838201526020016108a1565b50505050905090810190601f1680156108e65780820380516001836020036101000a031916815260200191505b50975050505050505050600060405180830381600087803b15801561090a57600080fd5b505af115801561091e573d6000803e3d6000fd5b5050604080516060810182526001808252600060208084018281528486018381526001600160a01b038a1680855260689093528684209551865460ff1916901515178655905193850193909355915160029093019290925591519193503392507f01017ed19df0c7f8acc436147b234b09664a9fb4797b4fa3fb9e599c2eb67be791a35050505050505050565b6109b3610d54565b6109f2576040805162461bcd60e51b81526020600482018190526024820152600080516020611cc1833981519152604482015290519081900360640190fd5b6001600160a01b038281166000908152606c6020526040902080546001600160a01b03191691831691821790551561077757606d546040805163c640752d60e01b81526001600160a01b038581166004830152928316602482015290519183169163c640752d9160448082019260009290919082900301818387803b158015610a7a57600080fd5b505af1158015610a8e573d6000803e3d6000fd5b505050505050565b60686020526000908152604090208054600182015460029092015460ff909116919083565b606c602052600090815260409020546001600160a01b031681565b610ade610d54565b610b1d576040805162461bcd60e51b81526020600482018190526024820152600080516020611cc1833981519152604482015290519081900360640190fd5b6033546040516000916001600160a01b0316907f8be0079c531659141344cd1fd0a4f28419497f9722a3daafe3b4186f6b6457e0908390a3603380546001600160a01b0319169055565b606f5481565b610b75610d54565b610bb4576040805162461bcd60e51b81526020600482018190526024820152600080516020611cc1833981519152604482015290519081900360640190fd5b606e80546001600160a01b03808b166001600160a01b031992831617909255606d8054928a1692909116919091179055606f869055610bf5606a8686611be1565b50610c0260698484611be1565b50806070819055507fa14230a1687e9bb8cdc0f3931d27c3a806e88c1c2235ba7756d6911feb35be67888888888888888860405180896001600160a01b03166001600160a01b03168152602001886001600160a01b03166001600160a01b0316815260200187815260200180602001806020018481526020018381038352888882818152602001925080828437600083820152601f01601f191690910184810383528681526020019050868680828437600083820152604051601f909101601f19169092018290039c50909a5050505050505050505050a15050505050505050565b60698054604080516020601f60026000196101006001881615020190951694909404938401819004810282018101909252828152606093909290918301828280156107125780601f106106e757610100808354040283529160200191610712565b6033546001600160a01b031690565b6033546000906001600160a01b0316610d6b61198b565b6001600160a01b031614905090565b3360009081526068602052604090205460ff16610dcb576040805162461bcd60e51b815260206004820152600a6024820152694f4e4c595f4c4f434b5360b01b604482015290519081900360640190fd5b811561077757600080336001600160a01b0316639d76ea586040518163ffffffff1660e01b815260040160206040518083038186803b158015610e0d57600080fd5b505afa158015610e21573d6000803e3d6000fd5b505050506040513d6020811015610e3757600080fd5b505190506001600160a01b03811615801590610e615750606d546001600160a01b03828116911614155b15610f1a576001600160a01b038082166000908152606c6020526040902054168015610f1457606d546040805163c1e553e760e01b81526001600160a01b03858116600483015260248201899052928316604482015290519183169163c1e553e7916064808201926020929091908290030181600087803b158015610ee557600080fd5b505af1158015610ef9573d6000803e3d6000fd5b505050506040513d6020811015610f0f57600080fd5b505192505b50610f1e565b8391505b606654610f31908363ffffffff61198f16565b6066553360009081526068602052604090206001018054830190556001600160a01b0383161561147e57606e546001600160a01b039081166000908152606c602052604090205416801561147c57606e54606d546040805163c1e553e760e01b81526001600160a01b039384166004820152670de0b6b3a7640000602482015291831660448301525160009284169163c1e553e791606480830192602092919082900301818787803b158015610fe657600080fd5b505af1158015610ffa573d6000803e3d6000fd5b505050506040513d602081101561101057600080fd5b5051606f54909150600090829060649061103b903a026806c6b935b8bbd4000063ffffffff6119f016565b8161104257fe5b048161104a57fe5b0490506000809050600160705411156111145760665480600288028161106c57fe5b606e54604080516370a0823160e01b8152306004820152905193909204600201926110fd928b926001600160a01b0316916370a08231916024808201926020929091908290030181600087803b1580156110c557600080fd5b505af11580156110d9573d6000803e3d6000fd5b505050506040513d60208110156110ef57600080fd5b50519063ffffffff6119f016565b8161110457fe5b048161110c57fe5b049050611180565b606654600261116d88606e60009054906101000a90046001600160a01b03166001600160a01b03166318160ddd6040518163ffffffff1660e01b8152600401602060405180830381600087803b1580156110c557600080fd5b8161117457fe5b048161117c57fe5b0490505b8082111561118c578091505b811561147857600060646111a784601463ffffffff6119f016565b816111ae57fe5b0490506001607054111561135d57606e54604080516370a0823160e01b815230600482015290516000926001600160a01b0316916370a0823191602480830192602092919082900301818787803b15801561120857600080fd5b505af115801561121c573d6000803e3d6000fd5b505050506040513d602081101561123257600080fd5b505190508381111561135757606e546040805163a9059cbb60e01b81526001600160a01b038c8116600483015285880360248301529151919092169163a9059cbb9160448083019260209291908290030181600087803b15801561129557600080fd5b505af11580156112a9573d6000803e3d6000fd5b505050506040513d60208110156112bf57600080fd5b5050606e546001600160a01b031663a9059cbb6112da610d45565b846040518363ffffffff1660e01b815260040180836001600160a01b03166001600160a01b0316815260200182815260200192505050602060405180830381600087803b15801561132a57600080fd5b505af115801561133e573d6000803e3d6000fd5b505050506040513d602081101561135457600080fd5b50505b50611476565b606e54604080516340c10f1960e01b81526001600160a01b038b811660048301528487036024830152915191909216916340c10f199160448083019260209291908290030181600087803b1580156113b457600080fd5b505af11580156113c8573d6000803e3d6000fd5b505050506040513d60208110156113de57600080fd5b5050606e546001600160a01b03166340c10f196113f9610d45565b836040518363ffffffff1660e01b815260040180836001600160a01b03166001600160a01b0316815260200182815260200192505050602060405180830381600087803b15801561144957600080fd5b505af115801561145d573d6000803e3d6000fd5b505050506040513d602081101561147357600080fd5b50505b505b5050505b505b50505050565b61148c610d54565b6114cb576040805162461bcd60e51b81526020600482018190526024820152600080516020611cc1833981519152604482015290519081900360640190fd5b60668290556067819055604080518381526020810183905281517f7b2ce3c83b45f79993ff2cbf5651caff2dfe04010b4846e03066b84e3e4059bb929181900390910190a15050565b60705481565b60675481565b6069805460408051602060026001851615610100026000190190941693909304601f810184900484028201840190925281815292918301828280156115a65780601f1061157b576101008083540402835291602001916115a6565b820191906000526020600020905b81548152906001019060200180831161158957829003601f168201915b505050505081565b600054610100900460ff16806115c757506115c7611a49565b806115d5575060005460ff16155b6116105760405162461bcd60e51b815260040180806020018281038252602e815260200180611ce1602e913960400191505060405180910390fd5b600054610100900460ff1615801561163b576000805460ff1961ff0019909116610100171660011790555b61164482611a4f565b8015610777576000805461ff00191690555050565b606a805460408051602060026001851615610100026000190190941693909304601f810184900484028201840190925281815292918301828280156115a65780601f1061157b576101008083540402835291602001916115a6565b60665481565b6116c2610d54565b611701576040805162461bcd60e51b81526020600482018190526024820152600080516020611cc1833981519152604482015290519081900360640190fd5b60408051636eadde4360e01b815230600482015260006024820181905260448201819052606482018190526084820181905260c060a483015260c4820181905291516001600160a01b03841692636eadde4392610104808201939182900301818387803b15801561177157600080fd5b505af1158015611785573d6000803e3d6000fd5b50505050806001600160a01b031663f0ba60406040518163ffffffff1660e01b8152600401600060405180830381600087803b1580156117c457600080fd5b505af11580156117d8573d6000803e3d6000fd5b5050606b80546001600160a01b0385166001600160a01b0319909116811790915560408051918252517f4fa58418e580e78539e8d3d8d17d94dbaca0927533953c8248f313e6f8927c219350908190036020019150a150565b611839610d54565b611878576040805162461bcd60e51b81526020600482018190526024820152600080516020611cc1833981519152604482015290519081900360640190fd5b61188181611b40565b50565b606b546001600160a01b031681565b6000604051733d602d80600a3d3981f3363d3d373d3d3d363d7360601b81528360601b60148201526e5af43d82803e903d91602b57fd5bf360881b602882015260378120836101008301526001600160f81b031960408301523060601b60418301526101008201516055830152806075830152605560408301209250823b600081146119225760009350611931565b6101008301516037846000f593505b5050506001600160a01b038116611985576040805162461bcd60e51b8152602060048201526013602482015272141493d61657d111541313d657d19052531151606a1b604482015290519081900360640190fd5b92915050565b3390565b6000828201838110156119e9576040805162461bcd60e51b815260206004820152601b60248201527f536166654d6174683a206164646974696f6e206f766572666c6f770000000000604482015290519081900360640190fd5b9392505050565b6000826119ff57506000611985565b82820282848281611a0c57fe5b04146119e95760405162461bcd60e51b8152600401808060200182810382526021815260200180611ca06021913960400191505060405180910390fd5b303b1590565b600054610100900460ff1680611a685750611a68611a49565b80611a76575060005460ff16155b611ab15760405162461bcd60e51b815260040180806020018281038252602e815260200180611ce1602e913960400191505060405180910390fd5b600054610100900460ff16158015611adc576000805460ff1961ff0019909116610100171660011790555b603380546001600160a01b0319166001600160a01b0384811691909117918290556040519116906000907f8be0079c531659141344cd1fd0a4f28419497f9722a3daafe3b4186f6b6457e0908290a38015610777576000805461ff00191690555050565b6001600160a01b038116611b855760405162461bcd60e51b8152600401808060200182810382526026815260200180611c7a6026913960400191505060405180910390fd5b6033546040516001600160a01b038084169216907f8be0079c531659141344cd1fd0a4f28419497f9722a3daafe3b4186f6b6457e090600090a3603380546001600160a01b0319166001600160a01b0392909216919091179055565b828054600181600116156101000203166002900490600052602060002090601f016020900481019282601f10611c225782800160ff19823516178555611c4f565b82800160010185558215611c4f579182015b82811115611c4f578235825591602001919060010190611c34565b50611c5b929150611c5f565b5090565b61071a91905b80821115611c5b5760008155600101611c6556fe4f776e61626c653a206e6577206f776e657220697320746865207a65726f2061646472657373536166654d6174683a206d756c7469706c69636174696f6e206f766572666c6f774f776e61626c653a2063616c6c6572206973206e6f7420746865206f776e6572436f6e747261637420696e7374616e63652068617320616c7265616479206265656e20696e697469616c697a6564a265627a7a72315820b5be3eecf05b8785daddd76ce8d2c6c2eba8012ba1537f20635313bac678c70a64736f6c63430005110032",
  "source": "pragma solidity 0.5.17;\n\n/**\n * @title The Unlock contract\n * @author Julien Genestoux (unlock-protocol.com)\n * This smart contract has 3 main roles:\n *  1. Distribute discounts to discount token holders\n *  2. Grant dicount tokens to users making referrals and/or publishers granting discounts.\n *  3. Create & deploy Public Lock contracts.\n * In order to achieve these 3 elements, it keeps track of several things such as\n *  a. Deployed locks addresses and balances of discount tokens granted by each lock.\n *  b. The total network product (sum of all key sales, net of discounts)\n *  c. Total of discounts granted\n *  d. Balances of discount tokens, including 'frozen' tokens (which have been used to claim\n * discounts and cannot be used/transferred for a given period)\n *  e. Growth rate of Network Product\n *  f. Growth rate of Discount tokens supply\n * The smart contract has an owner who only can perform the following\n *  - Upgrades\n *  - Change in golden rules (20% of GDP available in discounts, and supply growth rate is at most\n * 50% of GNP growth rate)\n * NOTE: This smart contract is partially implemented for now until enough Locks are deployed and\n * in the wild.\n * The partial implementation includes the following features:\n *  a. Keeping track of deployed locks\n *  b. Keeping track of GNP\n */\n\nimport '@openzeppelin/contracts-ethereum-package/contracts/ownership/Ownable.sol';\nimport '@openzeppelin/upgrades/contracts/Initializable.sol';\nimport 'hardlydifficult-ethereum-contracts/contracts/proxies/Clone2Factory.sol';\nimport './interfaces/IPublicLock.sol';\nimport './interfaces/IUnlock.sol';\nimport '@openzeppelin/contracts-ethereum-package/contracts/utils/Address.sol';\nimport 'hardlydifficult-eth/contracts/protocols/Uniswap/IUniswapOracle.sol';\nimport '@openzeppelin/contracts-ethereum-package/contracts/math/SafeMath.sol';\nimport './interfaces/IMintableERC20.sol';\n\n/// @dev Must list the direct base contracts in the order from most base-like to most derived.\n/// https://solidity.readthedocs.io/en/latest/contracts.html#multiple-inheritance-and-linearization\ncontract Unlock is\n  IUnlock,\n  Initializable,\n  Ownable\n{\n  using Address for address;\n  using Clone2Factory for address;\n  using SafeMath for uint;\n\n  /**\n   * The struct for a lock\n   * We use deployed to keep track of deployments.\n   * This is required because both totalSales and yieldedDiscountTokens are 0 when initialized,\n   * which would be the same values when the lock is not set.\n   */\n  struct LockBalances\n  {\n    bool deployed;\n    uint totalSales; // This is in wei\n    uint yieldedDiscountTokens;\n  }\n\n  modifier onlyFromDeployedLock() {\n    require(locks[msg.sender].deployed, 'ONLY_LOCKS');\n    _;\n  }\n\n  uint public grossNetworkProduct;\n\n  uint public totalDiscountGranted;\n\n  // We keep track of deployed locks to ensure that callers are all deployed locks.\n  mapping (address => LockBalances) public locks;\n\n  // global base token URI\n  // Used by locks where the owner has not set a custom base URI.\n  string public globalBaseTokenURI;\n\n  // global base token symbol\n  // Used by locks where the owner has not set a custom symbol\n  string public globalTokenSymbol;\n\n  // The address of the public lock template, used when `createLock` is called\n  address public publicLockAddress;\n\n  // Map token address to oracle contract address if the token is supported\n  // Used for GDP calculations\n  mapping (address => IUniswapOracle) public uniswapOracles;\n\n  // The WETH token address, used for value calculations\n  address public weth;\n\n  // The UDT token address, used to mint tokens on referral\n  address public udt;\n\n  // The approx amount of gas required to purchase a key\n  uint public estimatedGasForPurchase;\n\n  // Blockchain ID the network id on which this version of Unlock is operating\n  uint public chainId;\n\n  // Events\n  event NewLock(\n    address indexed lockOwner,\n    address indexed newLockAddress\n  );\n\n  event ConfigUnlock(\n    address udt,\n    address weth,\n    uint estimatedGasForPurchase,\n    string globalTokenSymbol,\n    string globalTokenURI,\n    uint chainId\n  );\n\n  event SetLockTemplate(\n    address publicLockAddress\n  );\n\n  event ResetTrackedValue(\n    uint grossNetworkProduct,\n    uint totalDiscountGranted\n  );\n\n  // Use initialize instead of a constructor to support proxies (for upgradeability via zos).\n  function initialize(\n    address _unlockOwner\n  )\n    public\n    initializer()\n  {\n    // We must manually initialize Ownable.sol\n    Ownable.initialize(_unlockOwner);\n  }\n\n  /**\n  * @dev Create lock\n  * This deploys a lock for a creator. It also keeps track of the deployed lock.\n  * @param _tokenAddress set to the ERC20 token address, or 0 for ETH.\n  * @param _salt an identifier for the Lock, which is unique for the user.\n  * This may be implemented as a sequence ID or with RNG. It's used with `create2`\n  * to know the lock's address before the transaction is mined.\n  */\n  function createLock(\n    uint _expirationDuration,\n    address _tokenAddress,\n    uint _keyPrice,\n    uint _maxNumberOfKeys,\n    string memory _lockName,\n    bytes12 _salt\n  ) public\n  {\n    require(publicLockAddress != address(0), 'MISSING_LOCK_TEMPLATE');\n\n    // create lock\n    bytes32 salt;\n    // solium-disable-next-line\n    assembly\n    {\n      let pointer := mload(0x40)\n      // The salt is the msg.sender\n      mstore(pointer, shl(96, caller))\n      // followed by the _salt provided\n      mstore(add(pointer, 0x14), _salt)\n      salt := mload(pointer)\n    }\n    address payable newLock = address(uint160(publicLockAddress.createClone2(salt)));\n    IPublicLock(newLock).initialize(\n      msg.sender,\n      _expirationDuration,\n      _tokenAddress,\n      _keyPrice,\n      _maxNumberOfKeys,\n      _lockName\n    );\n\n    // Assign the new Lock\n    locks[newLock] = LockBalances({\n      deployed: true, totalSales: 0, yieldedDiscountTokens: 0\n    });\n\n    // trigger event\n    emit NewLock(msg.sender, newLock);\n  }\n\n  /**\n   * This function returns the discount available for a user, when purchasing a\n   * a key from a lock.\n   * This does not modify the state. It returns both the discount and the number of tokens\n   * consumed to grant that discount.\n   * TODO: actually implement this.\n   */\n  function computeAvailableDiscountFor(\n    address /* _purchaser */,\n    uint /* _keyPrice */\n  )\n    public\n    view\n    returns (uint discount, uint tokens)\n  {\n    // TODO: implement me\n    return (0, 0);\n  }\n\n  /**\n   * This function keeps track of the added GDP, as well as grants of discount tokens\n   * to the referrer, if applicable.\n   * The number of discount tokens granted is based on the value of the referal,\n   * the current growth rate and the lock's discount token distribution rate\n   * This function is invoked by a previously deployed lock only.\n   * TODO: actually implement\n   */\n  function recordKeyPurchase(\n    uint _value,\n    address _referrer\n  )\n    public\n    onlyFromDeployedLock()\n  {\n    if(_value > 0) {\n      uint valueInETH;\n      address tokenAddress = IPublicLock(msg.sender).tokenAddress();\n      if(tokenAddress != address(0) && tokenAddress != weth) {\n        // If priced in an ERC-20 token, find the supported uniswap oracle\n        IUniswapOracle oracle = uniswapOracles[tokenAddress];\n        if(address(oracle) != address(0)) {\n          valueInETH = oracle.updateAndConsult(tokenAddress, _value, weth);\n        }\n      }\n      else {\n        // If priced in ETH (or value is 0), no conversion is required\n        valueInETH = _value;\n      }\n\n      grossNetworkProduct = grossNetworkProduct.add(valueInETH);\n      // If GNP does not overflow, the lock totalSales should be safe\n      locks[msg.sender].totalSales += valueInETH;\n\n      // Mint UDT\n      if(_referrer != address(0))\n      {\n        IUniswapOracle udtOracle = uniswapOracles[udt];\n        if(address(udtOracle) != address(0))\n        {\n          // Get the value of 1 UDT (w/ 18 decimals) in ETH\n          uint udtPrice = udtOracle.updateAndConsult(udt, 10 ** 18, weth);\n\n          // tokensToDistribute is either == to the gas cost times 1.25 to cover the 20% dev cut\n          uint tokensToDistribute = (estimatedGasForPurchase * tx.gasprice).mul(125 * 10 ** 18) / 100 / udtPrice;\n\n          // or tokensToDistribute is capped by network GDP growth\n          uint maxTokens = 0;\n          if (chainId > 1)\n          {\n            // non mainnet: we distribute tokens using asymptotic curve between 0 and 0.5\n            // maxTokens = IMintableERC20(udt).balanceOf(address(this)).mul((valueInETH / grossNetworkProduct) / (2 + 2 * valueInETH / grossNetworkProduct));\n            maxTokens = IMintableERC20(udt).balanceOf(address(this)).mul(valueInETH) / (2 + 2 * valueInETH / grossNetworkProduct) / grossNetworkProduct;\n          } else {\n            // Mainnet: we mint new token using log curve\n            maxTokens = IMintableERC20(udt).totalSupply().mul(valueInETH) / 2 / grossNetworkProduct;\n          }\n\n          // cap to GDP growth!\n          if(tokensToDistribute > maxTokens)\n          {\n            tokensToDistribute = maxTokens;\n          }\n\n          if(tokensToDistribute > 0)\n          {\n            // 80% goes to the referrer, 20% to the Unlock dev - round in favor of the referrer\n            uint devReward = tokensToDistribute.mul(20) / 100;\n            if (chainId > 1)\n            {\n              uint balance = IMintableERC20(udt).balanceOf(address(this));\n              if (balance > tokensToDistribute) {\n                // Only distribute if there are enough tokens\n                IMintableERC20(udt).transfer(_referrer, tokensToDistribute - devReward);\n                IMintableERC20(udt).transfer(owner(), devReward);\n              }\n            } else {\n              // No distribnution\n              IMintableERC20(udt).mint(_referrer, tokensToDistribute - devReward);\n              IMintableERC20(udt).mint(owner(), devReward);\n            }\n          }\n        }\n      }\n    }\n  }\n\n  /**\n   * This function will keep track of consumed discounts by a given user.\n   * It will also grant discount tokens to the creator who is granting the discount based on the\n   * amount of discount and compensation rate.\n   * This function is invoked by a previously deployed lock only.\n   */\n  function recordConsumedDiscount(\n    uint _discount,\n    uint /* _tokens */\n  )\n    public\n    onlyFromDeployedLock()\n  {\n    // TODO: implement me\n    totalDiscountGranted += _discount;\n    return;\n  }\n\n  // The version number of the current Unlock implementation on this network\n  function unlockVersion(\n  ) external pure\n    returns (uint16)\n  {\n    return 9;\n  }\n\n  /**\n   * @notice Allows the owner to update configuration variables\n   */\n  function configUnlock(\n    address _udt,\n    address _weth,\n    uint _estimatedGasForPurchase,\n    string calldata _symbol,\n    string calldata _URI,\n    uint _chainId\n  ) external\n    onlyOwner\n  {\n    udt = _udt;\n    weth = _weth;\n    estimatedGasForPurchase = _estimatedGasForPurchase;\n\n    globalTokenSymbol = _symbol;\n    globalBaseTokenURI = _URI;\n\n    chainId = _chainId;\n\n    emit ConfigUnlock(_udt, _weth, _estimatedGasForPurchase, _symbol, _URI, _chainId);\n  }\n\n  /**\n   * @notice Upgrade the PublicLock template used for future calls to `createLock`.\n   * @dev This will initialize the template and revokeOwnership.\n   */\n  function setLockTemplate(\n    address payable _publicLockAddress\n  ) external\n    onlyOwner\n  {\n    // First claim the template so that no-one else could\n    // this will revert if the template was already initialized.\n    IPublicLock(_publicLockAddress).initialize(\n      address(this), 0, address(0), 0, 0, ''\n    );\n    IPublicLock(_publicLockAddress).renounceLockManager();\n\n    publicLockAddress = _publicLockAddress;\n\n    emit SetLockTemplate(_publicLockAddress);\n  }\n\n  /**\n   * @notice allows the owner to set the oracle address to use for value conversions\n   * setting the _oracleAddress to address(0) removes support for the token\n   * @dev This will also call update to ensure at least one datapoint has been recorded.\n   */\n  function setOracle(\n    address _tokenAddress,\n    address _oracleAddress\n  ) external\n    onlyOwner\n  {\n    uniswapOracles[_tokenAddress] = IUniswapOracle(_oracleAddress);\n    if(_oracleAddress != address(0)) {\n      IUniswapOracle(_oracleAddress).update(_tokenAddress, weth);\n    }\n  }\n\n  // Allows the owner to change the value tracking variables as needed.\n  function resetTrackedValue(\n    uint _grossNetworkProduct,\n    uint _totalDiscountGranted\n  ) external\n    onlyOwner\n  {\n    grossNetworkProduct = _grossNetworkProduct;\n    totalDiscountGranted = _totalDiscountGranted;\n\n    emit ResetTrackedValue(_grossNetworkProduct, _totalDiscountGranted);\n  }\n\n  /**\n   * @dev Redundant with globalBaseTokenURI() for backwards compatibility with v3 & v4 locks.\n   */\n  function getGlobalBaseTokenURI()\n    external\n    view\n    returns (string memory)\n  {\n    return globalBaseTokenURI;\n  }\n\n  /**\n   * @dev Redundant with globalTokenSymbol() for backwards compatibility with v3 & v4 locks.\n   */\n  function getGlobalTokenSymbol()\n    external\n    view\n    returns (string memory)\n  {\n    return globalTokenSymbol;\n  }\n}\n",
  "sourcePath": "/Users/julien/repos/unlock/smart-contracts/contracts/Unlock.sol",
  "compiler": {
    "name": "solc",
    "version": "0.5.17+commit.d19bba13.Emscripten.clang"
  },
  "schemaVersion": "3.2.4",
  "updatedAt": "2021-06-08T19:38:15.028Z",
  "devdoc": {
    "details": "Must list the direct base contracts in the order from most base-like to most derived. https://solidity.readthedocs.io/en/latest/contracts.html#multiple-inheritance-and-linearization",
    "methods": {
      "createLock(uint256,address,uint256,uint256,string,bytes12)": {
        "details": "Create lock This deploys a lock for a creator. It also keeps track of the deployed lock.",
        "params": {
          "_salt": "an identifier for the Lock, which is unique for the user. This may be implemented as a sequence ID or with RNG. It's used with `create2` to know the lock's address before the transaction is mined.",
          "_tokenAddress": "set to the ERC20 token address, or 0 for ETH."
        }
      },
      "getGlobalBaseTokenURI()": {
        "details": "Redundant with globalBaseTokenURI() for backwards compatibility with v3 & v4 locks."
      },
      "getGlobalTokenSymbol()": {
        "details": "Redundant with globalTokenSymbol() for backwards compatibility with v3 & v4 locks."
      },
      "isOwner()": {
        "details": "Returns true if the caller is the current owner."
      },
      "owner()": {
        "details": "Returns the address of the current owner."
      },
      "renounceOwnership()": {
        "details": "Leaves the contract without owner. It will not be possible to call `onlyOwner` functions anymore. Can only be called by the current owner.     * > Note: Renouncing ownership will leave the contract without an owner, thereby removing any functionality that is only available to the owner."
      },
      "setLockTemplate(address)": {
        "details": "This will initialize the template and revokeOwnership."
      },
      "setOracle(address,address)": {
        "details": "This will also call update to ensure at least one datapoint has been recorded."
      },
      "transferOwnership(address)": {
        "details": "Transfers ownership of the contract to a new account (`newOwner`). Can only be called by the current owner."
      }
    }
  },
  "userdoc": {
    "methods": {
      "computeAvailableDiscountFor(address,uint256)": {
        "notice": "This function returns the discount available for a user, when purchasing a a key from a lock. This does not modify the state. It returns both the discount and the number of tokens consumed to grant that discount. TODO: actually implement this."
      },
      "configUnlock(address,address,uint256,string,string,uint256)": {
        "notice": "Allows the owner to update configuration variables"
      },
      "recordConsumedDiscount(uint256,uint256)": {
        "notice": "This function will keep track of consumed discounts by a given user. It will also grant discount tokens to the creator who is granting the discount based on the amount of discount and compensation rate. This function is invoked by a previously deployed lock only."
      },
      "recordKeyPurchase(uint256,address)": {
        "notice": "This function keeps track of the added GDP, as well as grants of discount tokens to the referrer, if applicable. The number of discount tokens granted is based on the value of the referal, the current growth rate and the lock's discount token distribution rate This function is invoked by a previously deployed lock only. TODO: actually implement"
      },
      "setLockTemplate(address)": {
        "notice": "Upgrade the PublicLock template used for future calls to `createLock`."
      },
      "setOracle(address,address)": {
        "notice": "allows the owner to set the oracle address to use for value conversions setting the _oracleAddress to address(0) removes support for the token"
      }
    }
  }
}