{
  "_format": "hh-sol-artifact-1",
  "contractName": "Airdrops",
  "sourceName": "contracts/Airdrops.flatten.sol",
  "abi": [
    {
      "inputs": [],
      "stateMutability": "nonpayable",
      "type": "constructor"
    },
    {
      "inputs": [
        {
          "internalType": "bytes32",
          "name": "campaignHash",
          "type": "bytes32"
        },
        {
          "internalType": "address",
          "name": "recipient",
          "type": "address"
        },
        {
          "internalType": "uint256",
          "name": "amount",
          "type": "uint256"
        }
      ],
      "name": "AlreadyClaimed",
      "type": "error"
    },
    {
      "inputs": [],
      "name": "ECDSAInvalidSignature",
      "type": "error"
    },
    {
      "inputs": [
        {
          "internalType": "uint256",
          "name": "length",
          "type": "uint256"
        }
      ],
      "name": "ECDSAInvalidSignatureLength",
      "type": "error"
    },
    {
      "inputs": [
        {
          "internalType": "bytes32",
          "name": "s",
          "type": "bytes32"
        }
      ],
      "name": "ECDSAInvalidSignatureS",
      "type": "error"
    },
    {
      "inputs": [],
      "name": "InvalidInitialization",
      "type": "error"
    },
    {
      "inputs": [
        {
          "internalType": "bytes32",
          "name": "campaignHash",
          "type": "bytes32"
        },
        {
          "internalType": "address",
          "name": "recipient",
          "type": "address"
        },
        {
          "internalType": "uint256",
          "name": "amount",
          "type": "uint256"
        },
        {
          "internalType": "bytes32[]",
          "name": "proof",
          "type": "bytes32[]"
        }
      ],
      "name": "InvalidProof",
      "type": "error"
    },
    {
      "inputs": [
        {
          "internalType": "bytes32",
          "name": "campaignHash",
          "type": "bytes32"
        }
      ],
      "name": "MissingCampaign",
      "type": "error"
    },
    {
      "inputs": [],
      "name": "NotInitializing",
      "type": "error"
    },
    {
      "inputs": [
        {
          "internalType": "address",
          "name": "owner",
          "type": "address"
        }
      ],
      "name": "OwnableInvalidOwner",
      "type": "error"
    },
    {
      "inputs": [
        {
          "internalType": "address",
          "name": "account",
          "type": "address"
        }
      ],
      "name": "OwnableUnauthorizedAccount",
      "type": "error"
    },
    {
      "inputs": [
        {
          "internalType": "address",
          "name": "recipient",
          "type": "address"
        }
      ],
      "name": "UserBlocked",
      "type": "error"
    },
    {
      "inputs": [
        {
          "internalType": "bytes32",
          "name": "campaignHash",
          "type": "bytes32"
        },
        {
          "internalType": "address",
          "name": "expected",
          "type": "address"
        }
      ],
      "name": "WrongSigner",
      "type": "error"
    },
    {
      "anonymous": false,
      "inputs": [
        {
          "indexed": true,
          "internalType": "address",
          "name": "recipient",
          "type": "address"
        }
      ],
      "name": "AddedToBlockList",
      "type": "event"
    },
    {
      "anonymous": false,
      "inputs": [
        {
          "indexed": true,
          "internalType": "bytes32",
          "name": "campaign",
          "type": "bytes32"
        },
        {
          "indexed": false,
          "internalType": "bytes32",
          "name": "merkleRoot",
          "type": "bytes32"
        }
      ],
      "name": "CampaignSet",
      "type": "event"
    },
    {
      "anonymous": false,
      "inputs": [
        {
          "indexed": true,
          "internalType": "address",
          "name": "chainalysisOracle",
          "type": "address"
        }
      ],
      "name": "ChainalysisOracleSet",
      "type": "event"
    },
    {
      "anonymous": false,
      "inputs": [],
      "name": "EIP712DomainChanged",
      "type": "event"
    },
    {
      "anonymous": false,
      "inputs": [
        {
          "indexed": false,
          "internalType": "uint64",
          "name": "version",
          "type": "uint64"
        }
      ],
      "name": "Initialized",
      "type": "event"
    },
    {
      "anonymous": false,
      "inputs": [
        {
          "indexed": true,
          "internalType": "address",
          "name": "previousOwner",
          "type": "address"
        },
        {
          "indexed": true,
          "internalType": "address",
          "name": "newOwner",
          "type": "address"
        }
      ],
      "name": "OwnershipTransferred",
      "type": "event"
    },
    {
      "anonymous": false,
      "inputs": [
        {
          "indexed": true,
          "internalType": "address",
          "name": "recipient",
          "type": "address"
        }
      ],
      "name": "RemovedFromBlockList",
      "type": "event"
    },
    {
      "anonymous": false,
      "inputs": [
        {
          "indexed": true,
          "internalType": "bytes32",
          "name": "campaign",
          "type": "bytes32"
        },
        {
          "indexed": true,
          "internalType": "address",
          "name": "recipient",
          "type": "address"
        },
        {
          "indexed": false,
          "internalType": "uint256",
          "name": "amount",
          "type": "uint256"
        }
      ],
      "name": "TokensClaimed",
      "type": "event"
    },
    {
      "inputs": [],
      "name": "EIP712Name",
      "outputs": [
        {
          "internalType": "string",
          "name": "",
          "type": "string"
        }
      ],
      "stateMutability": "view",
      "type": "function"
    },
    {
      "inputs": [],
      "name": "EIP712Version",
      "outputs": [
        {
          "internalType": "string",
          "name": "",
          "type": "string"
        }
      ],
      "stateMutability": "view",
      "type": "function"
    },
    {
      "inputs": [
        {
          "internalType": "address",
          "name": "user",
          "type": "address"
        }
      ],
      "name": "addToBlocklist",
      "outputs": [],
      "stateMutability": "nonpayable",
      "type": "function"
    },
    {
      "inputs": [
        {
          "internalType": "address",
          "name": "",
          "type": "address"
        }
      ],
      "name": "blocklist",
      "outputs": [
        {
          "internalType": "bool",
          "name": "",
          "type": "bool"
        }
      ],
      "stateMutability": "view",
      "type": "function"
    },
    {
      "inputs": [
        {
          "internalType": "bytes32",
          "name": "",
          "type": "bytes32"
        }
      ],
      "name": "campaigns",
      "outputs": [
        {
          "internalType": "string",
          "name": "name",
          "type": "string"
        },
        {
          "internalType": "bytes32",
          "name": "merkleRoot",
          "type": "bytes32"
        }
      ],
      "stateMutability": "view",
      "type": "function"
    },
    {
      "inputs": [],
      "name": "chainalysisOracle",
      "outputs": [
        {
          "internalType": "address",
          "name": "",
          "type": "address"
        }
      ],
      "stateMutability": "view",
      "type": "function"
    },
    {
      "inputs": [
        {
          "internalType": "string",
          "name": "campaignName",
          "type": "string"
        },
        {
          "internalType": "uint256",
          "name": "timestamp",
          "type": "uint256"
        },
        {
          "internalType": "address",
          "name": "recipient",
          "type": "address"
        },
        {
          "internalType": "uint256",
          "name": "amount",
          "type": "uint256"
        },
        {
          "internalType": "bytes32[]",
          "name": "proof",
          "type": "bytes32[]"
        },
        {
          "internalType": "bytes",
          "name": "tosSignature",
          "type": "bytes"
        }
      ],
      "name": "claim",
      "outputs": [],
      "stateMutability": "nonpayable",
      "type": "function"
    },
    {
      "inputs": [
        {
          "internalType": "bytes32",
          "name": "",
          "type": "bytes32"
        },
        {
          "internalType": "bytes32",
          "name": "",
          "type": "bytes32"
        }
      ],
      "name": "claimedLeafs",
      "outputs": [
        {
          "internalType": "uint256",
          "name": "",
          "type": "uint256"
        }
      ],
      "stateMutability": "view",
      "type": "function"
    },
    {
      "inputs": [],
      "name": "eip712Domain",
      "outputs": [
        {
          "internalType": "bytes1",
          "name": "fields",
          "type": "bytes1"
        },
        {
          "internalType": "string",
          "name": "name",
          "type": "string"
        },
        {
          "internalType": "string",
          "name": "version",
          "type": "string"
        },
        {
          "internalType": "uint256",
          "name": "chainId",
          "type": "uint256"
        },
        {
          "internalType": "address",
          "name": "verifyingContract",
          "type": "address"
        },
        {
          "internalType": "bytes32",
          "name": "salt",
          "type": "bytes32"
        },
        {
          "internalType": "uint256[]",
          "name": "extensions",
          "type": "uint256[]"
        }
      ],
      "stateMutability": "view",
      "type": "function"
    },
    {
      "inputs": [
        {
          "internalType": "address",
          "name": "_token",
          "type": "address"
        },
        {
          "internalType": "address",
          "name": "_chainalysisOracle",
          "type": "address"
        }
      ],
      "name": "initialize",
      "outputs": [],
      "stateMutability": "nonpayable",
      "type": "function"
    },
    {
      "inputs": [
        {
          "internalType": "address",
          "name": "user",
          "type": "address"
        }
      ],
      "name": "isBlocked",
      "outputs": [
        {
          "internalType": "bool",
          "name": "",
          "type": "bool"
        }
      ],
      "stateMutability": "view",
      "type": "function"
    },
    {
      "inputs": [],
      "name": "owner",
      "outputs": [
        {
          "internalType": "address",
          "name": "",
          "type": "address"
        }
      ],
      "stateMutability": "view",
      "type": "function"
    },
    {
      "inputs": [
        {
          "internalType": "address",
          "name": "user",
          "type": "address"
        }
      ],
      "name": "removeFromBlocklist",
      "outputs": [],
      "stateMutability": "nonpayable",
      "type": "function"
    },
    {
      "inputs": [],
      "name": "renounceOwnership",
      "outputs": [],
      "stateMutability": "nonpayable",
      "type": "function"
    },
    {
      "inputs": [
        {
          "internalType": "address",
          "name": "_chainalysisOracle",
          "type": "address"
        }
      ],
      "name": "setChainalysisOracle",
      "outputs": [],
      "stateMutability": "nonpayable",
      "type": "function"
    },
    {
      "inputs": [
        {
          "internalType": "string",
          "name": "campaignName",
          "type": "string"
        },
        {
          "internalType": "bytes32",
          "name": "root",
          "type": "bytes32"
        }
      ],
      "name": "setMerkleRootForCampaign",
      "outputs": [],
      "stateMutability": "nonpayable",
      "type": "function"
    },
    {
      "inputs": [],
      "name": "token",
      "outputs": [
        {
          "internalType": "contract IERC20",
          "name": "",
          "type": "address"
        }
      ],
      "stateMutability": "view",
      "type": "function"
    },
    {
      "inputs": [
        {
          "internalType": "address",
          "name": "newOwner",
          "type": "address"
        }
      ],
      "name": "transferOwnership",
      "outputs": [],
      "stateMutability": "nonpayable",
      "type": "function"
    },
    {
      "inputs": [
        {
          "internalType": "address",
          "name": "signer",
          "type": "address"
        },
        {
          "internalType": "string",
          "name": "campaignName",
          "type": "string"
        },
        {
          "internalType": "uint256",
          "name": "timestamp",
          "type": "uint256"
        },
        {
          "internalType": "bytes",
          "name": "signature",
          "type": "bytes"
        }
      ],
      "name": "verifySignature",
      "outputs": [
        {
          "internalType": "bool",
          "name": "",
          "type": "bool"
        }
      ],
      "stateMutability": "view",
      "type": "function"
    }
  ],
  "bytecode": "0x608060405234801561000f575f80fd5b5061001861001d565b6100cf565b7ff0c57e16840df040f15088dc2f81fe391c3923bec73e23a9662efc9c229c6a00805468010000000000000000900460ff161561006d5760405163f92ee8a960e01b815260040160405180910390fd5b80546001600160401b03908116146100cc5780546001600160401b0319166001600160401b0390811782556040519081527fc7f505b2f371ae2175ee4913f4499e1f2633a7b5936321eed1cdaeb6115181d29060200160405180910390a15b50565b61186c806100dc5f395ff3fe608060405234801561000f575f80fd5b50600436106100fe575f3560e01c8063a0e5db951161009a578063a0e5db95146101c7578063c83fae91146101ea578063cd3bffbb146101fd578063cea57fe814610235578063d6b9850d14610248578063ddcf23b014610250578063e5c7160b14610263578063f2fde38b14610285578063fbac395114610298578063fc0c546a146102ab575f80fd5b80632fff5f0b14610102578063485cc95514610120578063592ca85014610135578063715018a61461014857806377962f5e1461015057806384b0196e146101635780638da5cb5b1461017e5780639bd6fe77146101935780639eca2f1e146101a6575b5f80fd5b61010a6102bd565b604051610117919061125a565b60405180910390f35b61013361012e366004611287565b6102cc565b005b6101336101433660046112b8565b61044f565b61013361049f565b61013361015e366004611315565b6104b2565b61016b610587565b604051610117979695949392919061135c565b610186610630565b60405161011791906113f0565b6101336101a1366004611418565b61065e565b6101b96101b436600461153e565b6108e0565b604051610117929190611555565b6101da6101d5366004611576565b610981565b6040519015158152602001610117565b6101336101f83660046112b8565b6109f2565b61022761020b3660046115f9565b600260209081525f928352604080842090915290825290205481565b604051908152602001610117565b600454610186906001600160a01b031681565b61010a610a45565b61013361025e3660046112b8565b610a4f565b6101da6102713660046112b8565b60036020525f908152604090205460ff1681565b6101336102933660046112b8565b610aa0565b6101da6102a63660046112b8565b610add565b5f54610186906001600160a01b031681565b60606102c7610b72565b905090565b7ff0c57e16840df040f15088dc2f81fe391c3923bec73e23a9662efc9c229c6a008054600160401b810460ff1615906001600160401b03165f811580156103105750825b90505f826001600160401b0316600114801561032b5750303b155b905081158015610339575080155b156103575760405163f92ee8a960e01b815260040160405180910390fd5b845467ffffffffffffffff19166001178555831561038157845460ff60401b1916600160401b1785555b61038a33610c10565b6103dd60405180604001604052806018815260200177556e6c6f636b2050726f746f636f6c2041697264726f707360401b815250604051806040016040528060018152602001603160f81b815250610c21565b5f80546001600160a01b0319166001600160a01b03891617905561040086610a4f565b831561044657845460ff60401b19168555604051600181527fc7f505b2f371ae2175ee4913f4499e1f2633a7b5936321eed1cdaeb6115181d29060200160405180910390a15b50505050505050565b610457610c37565b6001600160a01b0381165f81815260036020526040808220805460ff19169055517fcdabb021e917f9d861cb523bbce1b91834fdd7e51a00cc016b762f94a322017a9190a250565b6104a7610c37565b6104b05f610c69565b565b6104ba610c37565b5f83836040516020016104ce929190611619565b60408051601f1981840301815282825280516020918201206060601f880183900490920284018201835291830186815291935082919087908790819085018382808284375f92018290525093855250505060209182018590528381526001909152604090208151819061054190826116ae565b5060209182015160019091015560405183815282917f89c3e26d7bcdf317ac634ea41b5a797210026588da523dfbc2f0cd7cb397f144910160405180910390a250505050565b5f6060805f805f60605f610599610cd9565b80549091501580156105ad57506001810154155b6105f65760405162461bcd60e51b81526020600482015260156024820152741152540dcc4c8e88155b9a5b9a5d1a585b1a5e9959605a1b60448201526064015b60405180910390fd5b6105fe610b72565b610606610cfd565b604080515f80825260208201909252600f60f81b9c939b5091995046985030975095509350915050565b7f9016d09d72d40fdae2fd8ceac6b6234c7706214fd39c1cd1e609a0528c199300546001600160a01b031690565b5f8888604051602001610672929190611619565b60405160208183030381529060405280519060200120905061069386610add565b156106b3578560405163ca86d8c960e01b81526004016105ed91906113f0565b5f818152600160208190526040909120908101546106e75760405163a855b33b60e01b8152600481018390526024016105ed565b6106f5878b8b8b8888610981565b61072457604051630fa3cb9d60e01b8152600481018390526001600160a01b03881660248201526044016105ed565b604080516001600160a01b03891660208201529081018790525f9060600160408051601f19818403018152828252805160209182012090830152016040516020818303038152906040528051906020012090505f61078787846001015484610d19565b9050806107af57838989896040516335d6488d60e11b81526004016105ed9493929190611769565b5f848152600260209081526040808320858452909152902054156107ff57604051637cf5c21d60e11b8152600481018590526001600160a01b038a166024820152604481018990526064016105ed565b5f8481526002602090815260408083208584529091528082204290559054905163a9059cbb60e01b81526001600160a01b038b81166004830152602482018b90529091169063a9059cbb906044016020604051808303815f875af1158015610869573d5f803e3d5ffd5b505050506040513d601f19601f8201168201806040525081019061088d91906117cb565b50886001600160a01b0316847fb6a3782a350d2b8520b7fe13e8e97b61f22902243ad29c4c3a9a8f714935718c8a6040516108ca91815260200190565b60405180910390a3505050505050505050505050565b60016020525f90815260409020805481906108fa90611628565b80601f016020809104026020016040519081016040528092919081815260200182805461092690611628565b80156109715780601f1061094857610100808354040283529160200191610971565b820191905f5260205f20905b81548152906001019060200180831161095457829003601f168201915b5050505050908060010154905082565b5f8061098f88888888610d2e565b9050876001600160a01b03166109dc85858080601f0160208091040260200160405190810160405280939291908181526020018383808284375f920191909152508693925050610dd99050565b6001600160a01b03161498975050505050505050565b6109fa610c37565b6001600160a01b0381165f81815260036020526040808220805460ff19166001179055517fe195c9fe4a65c54ea36d99055c62d29b7eb7ae93c2302230768051410763aeea9190a250565b60606102c7610cfd565b610a57610c37565b600480546001600160a01b0319166001600160a01b0383169081179091556040517f945608d9c0482277a161758f06cc06330d471d606d6bf4f5eb2c2a94e97cc523905f90a250565b610aa8610c37565b6001600160a01b038116610ad1575f604051631e4fbdf760e01b81526004016105ed91906113f0565b610ada81610c69565b50565b6001600160a01b0381165f9081526003602052604081205460ff1680610b6c57506004805460405163df592f7d60e01b81526001600160a01b039091169163df592f7d91610b2d918691016113f0565b602060405180830381865afa158015610b48573d5f803e3d5ffd5b505050506040513d601f19601f82011682018060405250810190610b6c91906117cb565b92915050565b60605f610b7d610cd9565b9050806002018054610b8e90611628565b80601f0160208091040260200160405190810160405280929190818152602001828054610bba90611628565b8015610c055780601f10610bdc57610100808354040283529160200191610c05565b820191905f5260205f20905b815481529060010190602001808311610be857829003601f168201915b505050505091505090565b610c18610e01565b610ada81610e4a565b610c29610e01565b610c338282610e52565b5050565b33610c40610630565b6001600160a01b0316146104b0573360405163118cdaa760e01b81526004016105ed91906113f0565b7f9016d09d72d40fdae2fd8ceac6b6234c7706214fd39c1cd1e609a0528c19930080546001600160a01b031981166001600160a01b03848116918217845560405192169182907f8be0079c531659141344cd1fd0a4f28419497f9722a3daafe3b4186f6b6457e0905f90a3505050565b7fa16a46d94261c7517cc8ff89f61c0ce93598e3c849801011dee649a6a557d10090565b60605f610d08610cd9565b9050806003018054610b8e90611628565b5f82610d258584610e91565b14949350505050565b5f807f7b90df25d76042650a088e472aa3dc43eddd25ac84381bbee2fdfc9735868cb8868686604051602001610d65929190611619565b6040516020818303038152906040528051906020012085604051602001610dae94939291909384526001600160a01b039290921660208401526040830152606082015260800190565b604051602081830303815290604052805190602001209050610dcf81610edd565b9695505050505050565b5f805f80610de78686610f09565b925092509250610df78282610f52565b5090949350505050565b7ff0c57e16840df040f15088dc2f81fe391c3923bec73e23a9662efc9c229c6a0054600160401b900460ff166104b057604051631afcd79f60e31b815260040160405180910390fd5b610aa8610e01565b610e5a610e01565b5f610e63610cd9565b905060028101610e7384826116ae565b5060038101610e8283826116ae565b505f8082556001909101555050565b5f81815b8451811015610ed557610ec182868381518110610eb457610eb46117ea565b602002602001015161100a565b915080610ecd816117fe565b915050610e95565b509392505050565b5f610b6c610ee9611039565b8360405161190160f01b8152600281019290925260228201526042902090565b5f805f8351604103610f40576020840151604085015160608601515f1a610f3288828585611042565b955095509550505050610f4b565b505081515f91506002905b9250925092565b5f826003811115610f6557610f65611822565b03610f6e575050565b6001826003811115610f8257610f82611822565b03610fa05760405163f645eedf60e01b815260040160405180910390fd5b6002826003811115610fb457610fb4611822565b03610fd55760405163fce698f760e01b8152600481018290526024016105ed565b6003826003811115610fe957610fe9611822565b03610c33576040516335e2f38360e21b8152600481018290526024016105ed565b5f818310611024575f828152602084905260409020611032565b5f8381526020839052604090205b9392505050565b5f6102c7611100565b5f80806fa2a8918ca85bafe22016d0b997e4df60600160ff1b0384111561107157505f915060039050826110f6565b604080515f808252602082018084528a905260ff891692820192909252606081018790526080810186905260019060a0016020604051602081039080840390855afa1580156110c2573d5f803e3d5ffd5b5050604051601f1901519150506001600160a01b0381166110ed57505f9250600191508290506110f6565b92505f91508190505b9450945094915050565b5f7f8b73c3c69bb8fe3d512ecc4cf759cc79239f7b179b0ffacaa9a75d522b39400f61112a611173565b6111326111d8565b60408051602081019490945283019190915260608201524660808201523060a082015260c00160405160208183030381529060405280519060200120905090565b5f8061117d610cd9565b90505f611188610b72565b8051909150156111a057805160209091012092915050565b815480156111af579392505050565b7fc5d2460186f7233c927e7db2dcc703c0e500b653ca82273b7bfad8045d85a470935050505090565b5f806111e2610cd9565b90505f6111ed610cfd565b80519091501561120557805160209091012092915050565b600182015480156111af579392505050565b5f81518084525f5b8181101561123b5760208185018101518683018201520161121f565b505f602082860101526020601f19601f83011685010191505092915050565b602081525f6110326020830184611217565b80356001600160a01b0381168114611282575f80fd5b919050565b5f8060408385031215611298575f80fd5b6112a18361126c565b91506112af6020840161126c565b90509250929050565b5f602082840312156112c8575f80fd5b6110328261126c565b5f8083601f8401126112e1575f80fd5b5081356001600160401b038111156112f7575f80fd5b60208301915083602082850101111561130e575f80fd5b9250929050565b5f805f60408486031215611327575f80fd5b83356001600160401b0381111561133c575f80fd5b611348868287016112d1565b909790965060209590950135949350505050565b60ff60f81b881681525f602060e08184015261137b60e084018a611217565b838103604085015261138d818a611217565b606085018990526001600160a01b038816608086015260a0850187905284810360c086015285518082528387019250908301905f5b818110156113de578351835292840192918401916001016113c2565b50909c9b505050505050505050505050565b6001600160a01b0391909116815260200190565b634e487b7160e01b5f52604160045260245ffd5b5f805f805f805f8060c0898b03121561142f575f80fd5b6001600160401b03808a351115611444575f80fd5b6114518b8b358c016112d1565b909950975060208a0135965061146960408b0161126c565b955060608a0135945060808a013581811115611483575f80fd5b8a01601f81018c13611493575f80fd5b8035828111156114a5576114a5611404565b8060051b604051601f19603f830116810181811086821117156114ca576114ca611404565b60405291825260208184018101929081018f8411156114e7575f80fd5b6020850194505b838510156115065784358152602094850194016114ee565b50965050505060a08a01358181111561151d575f80fd5b6115298c828d016112d1565b9a9d999c50979a509598949793969550505050565b5f6020828403121561154e575f80fd5b5035919050565b604081525f6115676040830185611217565b90508260208301529392505050565b5f805f805f806080878903121561158b575f80fd5b6115948761126c565b955060208701356001600160401b03808211156115af575f80fd5b6115bb8a838b016112d1565b90975095506040890135945060608901359150808211156115da575f80fd5b506115e789828a016112d1565b979a9699509497509295939492505050565b5f806040838503121561160a575f80fd5b50508035926020909101359150565b818382375f9101908152919050565b600181811c9082168061163c57607f821691505b60208210810361165a57634e487b7160e01b5f52602260045260245ffd5b50919050565b601f8211156116a9575f81815260208120601f850160051c810160208610156116865750805b601f850160051c820191505b818110156116a557828155600101611692565b5050505b505050565b81516001600160401b038111156116c7576116c7611404565b6116db816116d58454611628565b84611660565b602080601f83116001811461170e575f84156116f75750858301515b5f19600386901b1c1916600185901b1785556116a5565b5f85815260208120601f198616915b8281101561173c5788860151825594840194600190910190840161171d565b508582101561175957878501515f19600388901b60f8161c191681555b5050505050600190811b01905550565b5f60808201868352602060018060a01b038716818501528560408501526080606085015281855180845260a08601915082870193505f5b818110156117bc578451835293830193918301916001016117a0565b50909998505050505050505050565b5f602082840312156117db575f80fd5b81518015158114611032575f80fd5b634e487b7160e01b5f52603260045260245ffd5b5f6001820161181b57634e487b7160e01b5f52601160045260245ffd5b5060010190565b634e487b7160e01b5f52602160045260245ffdfea2646970667358221220744210f65398685ab999c86c1eca2fdc2e8ea2defa580440b7d852564d70cb4864736f6c63430008150033",
  "linkReferences": {},
  "deployedLinkReferences": {}
}