{
  "_format": "hh-sol-artifact-1",
  "contractName": "UPSwap",
  "sourceName": "contracts/UPSwap.flatten.sol",
  "abi": [
    {
      "inputs": [],
      "stateMutability": "nonpayable",
      "type": "constructor"
    },
    {
      "inputs": [
        {
          "internalType": "address",
          "name": "tokenAddress",
          "type": "address"
        },
        {
          "internalType": "address",
          "name": "account",
          "type": "address"
        },
        {
          "internalType": "uint256",
          "name": "expectedAmount",
          "type": "uint256"
        }
      ],
      "name": "BalanceTooLow",
      "type": "error"
    },
    {
      "inputs": [],
      "name": "InvalidInitialization",
      "type": "error"
    },
    {
      "inputs": [],
      "name": "InvalidSpender",
      "type": "error"
    },
    {
      "inputs": [],
      "name": "NotInitializing",
      "type": "error"
    },
    {
      "inputs": [
        {
          "internalType": "address",
          "name": "owner",
          "type": "address"
        }
      ],
      "name": "OwnableInvalidOwner",
      "type": "error"
    },
    {
      "inputs": [
        {
          "internalType": "address",
          "name": "account",
          "type": "address"
        }
      ],
      "name": "OwnableUnauthorizedAccount",
      "type": "error"
    },
    {
      "inputs": [
        {
          "internalType": "address",
          "name": "tokenAddress",
          "type": "address"
        }
      ],
      "name": "TransferFailed",
      "type": "error"
    },
    {
      "anonymous": false,
      "inputs": [
        {
          "indexed": false,
          "internalType": "uint64",
          "name": "version",
          "type": "uint64"
        }
      ],
      "name": "Initialized",
      "type": "event"
    },
    {
      "anonymous": false,
      "inputs": [
        {
          "indexed": true,
          "internalType": "address",
          "name": "previousOwner",
          "type": "address"
        },
        {
          "indexed": true,
          "internalType": "address",
          "name": "newOwner",
          "type": "address"
        }
      ],
      "name": "OwnershipTransferred",
      "type": "event"
    },
    {
      "anonymous": false,
      "inputs": [
        {
          "indexed": false,
          "internalType": "address",
          "name": "spender",
          "type": "address"
        },
        {
          "indexed": false,
          "internalType": "uint256",
          "name": "amountUDT",
          "type": "uint256"
        },
        {
          "indexed": false,
          "internalType": "uint256",
          "name": "amountUP",
          "type": "uint256"
        },
        {
          "indexed": false,
          "internalType": "address",
          "name": "recipient",
          "type": "address"
        }
      ],
      "name": "UDTSwappedForUP",
      "type": "event"
    },
    {
      "anonymous": false,
      "inputs": [
        {
          "indexed": false,
          "internalType": "address",
          "name": "spender",
          "type": "address"
        },
        {
          "indexed": false,
          "internalType": "uint256",
          "name": "amountUDT",
          "type": "uint256"
        },
        {
          "indexed": false,
          "internalType": "uint256",
          "name": "amountUP",
          "type": "uint256"
        },
        {
          "indexed": false,
          "internalType": "address",
          "name": "recipient",
          "type": "address"
        }
      ],
      "name": "UPSwappedForUDT",
      "type": "event"
    },
    {
      "inputs": [],
      "name": "RATE",
      "outputs": [
        {
          "internalType": "uint256",
          "name": "",
          "type": "uint256"
        }
      ],
      "stateMutability": "view",
      "type": "function"
    },
    {
      "inputs": [
        {
          "internalType": "address",
          "name": "_udt",
          "type": "address"
        },
        {
          "internalType": "address",
          "name": "_up",
          "type": "address"
        },
        {
          "internalType": "address",
          "name": "initialOwner",
          "type": "address"
        }
      ],
      "name": "initialize",
      "outputs": [],
      "stateMutability": "nonpayable",
      "type": "function"
    },
    {
      "inputs": [],
      "name": "owner",
      "outputs": [
        {
          "internalType": "address",
          "name": "",
          "type": "address"
        }
      ],
      "stateMutability": "view",
      "type": "function"
    },
    {
      "inputs": [],
      "name": "renounceOwnership",
      "outputs": [],
      "stateMutability": "nonpayable",
      "type": "function"
    },
    {
      "inputs": [
        {
          "internalType": "address",
          "name": "_up",
          "type": "address"
        }
      ],
      "name": "setUp",
      "outputs": [],
      "stateMutability": "nonpayable",
      "type": "function"
    },
    {
      "inputs": [
        {
          "internalType": "uint256",
          "name": "amountUDT",
          "type": "uint256"
        },
        {
          "internalType": "address",
          "name": "recipient",
          "type": "address"
        }
      ],
      "name": "swapUDTForUP",
      "outputs": [],
      "stateMutability": "nonpayable",
      "type": "function"
    },
    {
      "inputs": [
        {
          "internalType": "uint256",
          "name": "amountUP",
          "type": "uint256"
        },
        {
          "internalType": "address",
          "name": "recipient",
          "type": "address"
        }
      ],
      "name": "swapUPForUDT",
      "outputs": [],
      "stateMutability": "nonpayable",
      "type": "function"
    },
    {
      "inputs": [
        {
          "internalType": "address",
          "name": "newOwner",
          "type": "address"
        }
      ],
      "name": "transferOwnership",
      "outputs": [],
      "stateMutability": "nonpayable",
      "type": "function"
    },
    {
      "inputs": [],
      "name": "udt",
      "outputs": [
        {
          "internalType": "contract IERC20",
          "name": "",
          "type": "address"
        }
      ],
      "stateMutability": "view",
      "type": "function"
    },
    {
      "inputs": [],
      "name": "up",
      "outputs": [
        {
          "internalType": "contract IERC20",
          "name": "",
          "type": "address"
        }
      ],
      "stateMutability": "view",
      "type": "function"
    }
  ],
  "bytecode": "0x608060405234801561000f575f80fd5b5061001861001d565b6100cf565b7ff0c57e16840df040f15088dc2f81fe391c3923bec73e23a9662efc9c229c6a00805468010000000000000000900460ff161561006d5760405163f92ee8a960e01b815260040160405180910390fd5b80546001600160401b03908116146100cc5780546001600160401b0319166001600160401b0390811782556040519081527fc7f505b2f371ae2175ee4913f4499e1f2633a7b5936321eed1cdaeb6115181d29060200160405180910390a15b50565b6109be806100dc5f395ff3fe608060405234801561000f575f80fd5b506004361061008c575f3560e01c806311301feb14610090578063262d0a85146100a55780633f2601ef146100ce578063664e9704146100e1578063715018a6146100f85780638da5cb5b14610100578063c0c53b8b14610108578063d5a49e011461011b578063e9da1dfd1461012d578063f2fde38b14610140575b5f80fd5b6100a361009e36600461081d565b610153565b005b6001546100b8906001600160a01b031681565b6040516100c59190610847565b60405180910390f35b6100a36100dc36600461085b565b610392565b6100ea6103e881565b6040519081526020016100c5565b6100a36103bb565b6100b86103ce565b6100a361011636600461087b565b6103fc565b5f546100b8906001600160a01b031681565b6100a361013b36600461081d565b61053b565b6100a361014e36600461085b565b6106c1565b5f6101606103e8846108bb565b6001546040516370a0823160e01b815291925082916001600160a01b03909116906370a0823190610195903090600401610847565b602060405180830381865afa1580156101b0573d5f803e3d5ffd5b505050506040513d601f19601f820116820180604052508101906101d491906108da565b101561020d5760015460405163607abd6960e01b8152610204916001600160a01b031690309084906004016108f1565b60405180910390fd5b5f80546040516323b872dd60e01b81526001600160a01b03909116906323b872dd90610241903390309089906004016108f1565b6020604051808303815f875af115801561025d573d5f803e3d5ffd5b505050506040513d601f19601f820116820180604052508101906102819190610915565b9050806102ad575f546040516339f1c8d960e01b8152610204916001600160a01b031690600401610847565b60015460405163a9059cbb60e01b81526001600160a01b038581166004830152602482018590525f92169063a9059cbb906044016020604051808303815f875af11580156102fd573d5f803e3d5ffd5b505050506040513d601f19601f820116820180604052508101906103219190610915565b90508061034e576001546040516339f1c8d960e01b8152610204916001600160a01b031690600401610847565b7f1fd023893611da9d643b6cb0fae04f9efbb4ea7ca3e5a10b26c5def7a5445bf9338487876040516103839493929190610934565b60405180910390a15050505050565b61039a6106fe565b5f80546001600160a01b0319166001600160a01b0392909216919091179055565b6103c36106fe565b6103cc5f610730565b565b7f9016d09d72d40fdae2fd8ceac6b6234c7706214fd39c1cd1e609a0528c199300546001600160a01b031690565b7ff0c57e16840df040f15088dc2f81fe391c3923bec73e23a9662efc9c229c6a008054600160401b810460ff16159067ffffffffffffffff165f811580156104415750825b90505f8267ffffffffffffffff16600114801561045d5750303b155b90508115801561046b575080155b156104895760405163f92ee8a960e01b815260040160405180910390fd5b845467ffffffffffffffff1916600117855583156104b357845460ff60401b1916600160401b1785555b6104bc866107a0565b600180546001600160a01b03808b166001600160a01b0319928316179092555f8054928a1692909116919091179055831561053157845460ff60401b19168555604051600181527fc7f505b2f371ae2175ee4913f4499e1f2633a7b5936321eed1cdaeb6115181d29060200160405180910390a15b5050505050505050565b6001546040516323b872dd60e01b81525f916001600160a01b0316906323b872dd9061056f903390309088906004016108f1565b6020604051808303815f875af115801561058b573d5f803e3d5ffd5b505050506040513d601f19601f820116820180604052508101906105af9190610915565b9050806105dc576001546040516339f1c8d960e01b8152610204916001600160a01b031690600401610847565b5f6105e96103e88561095f565b5f805460405163a9059cbb60e01b81526001600160a01b038781166004830152602482018590529394509192169063a9059cbb906044016020604051808303815f875af115801561063c573d5f803e3d5ffd5b505050506040513d601f19601f820116820180604052508101906106609190610915565b90508061068c575f546040516339f1c8d960e01b8152610204916001600160a01b031690600401610847565b7f3fb98e60c8154d8654f427e8936dcdf49b346cc664f3d3f83f0399013795c50d338684876040516103839493929190610934565b6106c96106fe565b6001600160a01b0381166106f2575f604051631e4fbdf760e01b81526004016102049190610847565b6106fb81610730565b50565b336107076103ce565b6001600160a01b0316146103cc573360405163118cdaa760e01b81526004016102049190610847565b7f9016d09d72d40fdae2fd8ceac6b6234c7706214fd39c1cd1e609a0528c19930080546001600160a01b031981166001600160a01b03848116918217845560405192169182907f8be0079c531659141344cd1fd0a4f28419497f9722a3daafe3b4186f6b6457e0905f90a3505050565b6107a86107b1565b6106fb816107fa565b7ff0c57e16840df040f15088dc2f81fe391c3923bec73e23a9662efc9c229c6a0054600160401b900460ff166103cc57604051631afcd79f60e31b815260040160405180910390fd5b6106c96107b1565b80356001600160a01b0381168114610818575f80fd5b919050565b5f806040838503121561082e575f80fd5b8235915061083e60208401610802565b90509250929050565b6001600160a01b0391909116815260200190565b5f6020828403121561086b575f80fd5b61087482610802565b9392505050565b5f805f6060848603121561088d575f80fd5b61089684610802565b92506108a460208501610802565b91506108b260408501610802565b90509250925092565b5f826108d557634e487b7160e01b5f52601260045260245ffd5b500490565b5f602082840312156108ea575f80fd5b5051919050565b6001600160a01b039384168152919092166020820152604081019190915260600190565b5f60208284031215610925575f80fd5b81518015158114610874575f80fd5b6001600160a01b03948516815260208101939093526040830191909152909116606082015260800190565b808202811582820484141761098257634e487b7160e01b5f52601160045260245ffd5b9291505056fea2646970667358221220ac78bb05a60f83be0f478800b2b0f0d31e9fcacd929718044441c7256c89e69264736f6c63430008150033",
  "linkReferences": {},
  "deployedLinkReferences": {}
}