{
  "_format": "hh-sol-artifact-1",
  "contractName": "UPSwap",
  "sourceName": "contracts/UPSwap.flatten.sol",
  "abi": [
    {
      "inputs": [],
      "stateMutability": "nonpayable",
      "type": "constructor"
    },
    {
      "inputs": [
        {
          "internalType": "address",
          "name": "tokenAddress",
          "type": "address"
        },
        {
          "internalType": "address",
          "name": "account",
          "type": "address"
        },
        {
          "internalType": "uint256",
          "name": "expectedAmount",
          "type": "uint256"
        }
      ],
      "name": "BalanceTooLow",
      "type": "error"
    },
    {
      "inputs": [],
      "name": "InvalidInitialization",
      "type": "error"
    },
    {
      "inputs": [],
      "name": "InvalidSpender",
      "type": "error"
    },
    {
      "inputs": [],
      "name": "NotInitializing",
      "type": "error"
    },
    {
      "inputs": [
        {
          "internalType": "address",
          "name": "owner",
          "type": "address"
        }
      ],
      "name": "OwnableInvalidOwner",
      "type": "error"
    },
    {
      "inputs": [
        {
          "internalType": "address",
          "name": "account",
          "type": "address"
        }
      ],
      "name": "OwnableUnauthorizedAccount",
      "type": "error"
    },
    {
      "inputs": [
        {
          "internalType": "address",
          "name": "tokenAddress",
          "type": "address"
        }
      ],
      "name": "TransferFailed",
      "type": "error"
    },
    {
      "inputs": [],
      "name": "UpAlreadySet",
      "type": "error"
    },
    {
      "anonymous": false,
      "inputs": [
        {
          "indexed": false,
          "internalType": "uint64",
          "name": "version",
          "type": "uint64"
        }
      ],
      "name": "Initialized",
      "type": "event"
    },
    {
      "anonymous": false,
      "inputs": [
        {
          "indexed": true,
          "internalType": "address",
          "name": "previousOwner",
          "type": "address"
        },
        {
          "indexed": true,
          "internalType": "address",
          "name": "newOwner",
          "type": "address"
        }
      ],
      "name": "OwnershipTransferred",
      "type": "event"
    },
    {
      "anonymous": false,
      "inputs": [
        {
          "indexed": false,
          "internalType": "address",
          "name": "spender",
          "type": "address"
        },
        {
          "indexed": false,
          "internalType": "uint256",
          "name": "amountUDT",
          "type": "uint256"
        },
        {
          "indexed": false,
          "internalType": "uint256",
          "name": "amountUP",
          "type": "uint256"
        },
        {
          "indexed": false,
          "internalType": "address",
          "name": "recipient",
          "type": "address"
        }
      ],
      "name": "UDTSwappedForUP",
      "type": "event"
    },
    {
      "anonymous": false,
      "inputs": [
        {
          "indexed": false,
          "internalType": "address",
          "name": "spender",
          "type": "address"
        },
        {
          "indexed": false,
          "internalType": "uint256",
          "name": "amountUDT",
          "type": "uint256"
        },
        {
          "indexed": false,
          "internalType": "uint256",
          "name": "amountUP",
          "type": "uint256"
        },
        {
          "indexed": false,
          "internalType": "address",
          "name": "recipient",
          "type": "address"
        }
      ],
      "name": "UPSwappedForUDT",
      "type": "event"
    },
    {
      "inputs": [],
      "name": "RATE",
      "outputs": [
        {
          "internalType": "uint256",
          "name": "",
          "type": "uint256"
        }
      ],
      "stateMutability": "view",
      "type": "function"
    },
    {
      "inputs": [
        {
          "internalType": "address",
          "name": "_udt",
          "type": "address"
        },
        {
          "internalType": "address",
          "name": "initialOwner",
          "type": "address"
        }
      ],
      "name": "initialize",
      "outputs": [],
      "stateMutability": "nonpayable",
      "type": "function"
    },
    {
      "inputs": [],
      "name": "owner",
      "outputs": [
        {
          "internalType": "address",
          "name": "",
          "type": "address"
        }
      ],
      "stateMutability": "view",
      "type": "function"
    },
    {
      "inputs": [],
      "name": "renounceOwnership",
      "outputs": [],
      "stateMutability": "nonpayable",
      "type": "function"
    },
    {
      "inputs": [],
      "name": "setUp",
      "outputs": [],
      "stateMutability": "nonpayable",
      "type": "function"
    },
    {
      "inputs": [
        {
          "internalType": "uint256",
          "name": "amountUDT",
          "type": "uint256"
        },
        {
          "internalType": "address",
          "name": "recipient",
          "type": "address"
        }
      ],
      "name": "swapUDTForUP",
      "outputs": [],
      "stateMutability": "nonpayable",
      "type": "function"
    },
    {
      "inputs": [
        {
          "internalType": "uint256",
          "name": "amountUP",
          "type": "uint256"
        },
        {
          "internalType": "address",
          "name": "recipient",
          "type": "address"
        }
      ],
      "name": "swapUPForUDT",
      "outputs": [],
      "stateMutability": "nonpayable",
      "type": "function"
    },
    {
      "inputs": [
        {
          "internalType": "address",
          "name": "newOwner",
          "type": "address"
        }
      ],
      "name": "transferOwnership",
      "outputs": [],
      "stateMutability": "nonpayable",
      "type": "function"
    },
    {
      "inputs": [],
      "name": "udt",
      "outputs": [
        {
          "internalType": "contract IERC20",
          "name": "",
          "type": "address"
        }
      ],
      "stateMutability": "view",
      "type": "function"
    },
    {
      "inputs": [],
      "name": "up",
      "outputs": [
        {
          "internalType": "contract IERC20",
          "name": "",
          "type": "address"
        }
      ],
      "stateMutability": "view",
      "type": "function"
    }
  ],
  "bytecode": "0x608060405234801561000f575f80fd5b5061001861001d565b6100cf565b7ff0c57e16840df040f15088dc2f81fe391c3923bec73e23a9662efc9c229c6a00805468010000000000000000900460ff161561006d5760405163f92ee8a960e01b815260040160405180910390fd5b80546001600160401b03908116146100cc5780546001600160401b0319166001600160401b0390811782556040519081527fc7f505b2f371ae2175ee4913f4499e1f2633a7b5936321eed1cdaeb6115181d29060200160405180910390a15b50565b610999806100dc5f395ff3fe608060405234801561000f575f80fd5b506004361061008c575f3560e01c80630a9254e41461009057806311301feb1461009a578063262d0a85146100ad578063485cc955146100d6578063664e9704146100e9578063715018a6146101005780638da5cb5b14610108578063d5a49e0114610110578063e9da1dfd14610122578063f2fde38b14610135575b5f80fd5b610098610148565b005b6100986100a8366004610810565b610184565b6001546100c0906001600160a01b031681565b6040516100cd919061083a565b60405180910390f35b6100986100e436600461084e565b6103c3565b6100f26103e881565b6040519081526020016100cd565b6100986104ed565b6100c0610500565b5f546100c0906001600160a01b031681565b610098610130366004610810565b61052e565b610098610143366004610876565b6106b4565b5f546001600160a01b03161561017157604051636cb55e0f60e01b815260040160405180910390fd5b5f80546001600160a01b03191633179055565b5f6101916103e884610896565b6001546040516370a0823160e01b815291925082916001600160a01b03909116906370a08231906101c690309060040161083a565b602060405180830381865afa1580156101e1573d5f803e3d5ffd5b505050506040513d601f19601f8201168201806040525081019061020591906108b5565b101561023e5760015460405163607abd6960e01b8152610235916001600160a01b031690309084906004016108cc565b60405180910390fd5b5f80546040516323b872dd60e01b81526001600160a01b03909116906323b872dd90610272903390309089906004016108cc565b6020604051808303815f875af115801561028e573d5f803e3d5ffd5b505050506040513d601f19601f820116820180604052508101906102b291906108f0565b9050806102de575f546040516339f1c8d960e01b8152610235916001600160a01b03169060040161083a565b60015460405163a9059cbb60e01b81526001600160a01b038581166004830152602482018590525f92169063a9059cbb906044016020604051808303815f875af115801561032e573d5f803e3d5ffd5b505050506040513d601f19601f8201168201806040525081019061035291906108f0565b90508061037f576001546040516339f1c8d960e01b8152610235916001600160a01b03169060040161083a565b7f1fd023893611da9d643b6cb0fae04f9efbb4ea7ca3e5a10b26c5def7a5445bf9338487876040516103b4949392919061090f565b60405180910390a15050505050565b7ff0c57e16840df040f15088dc2f81fe391c3923bec73e23a9662efc9c229c6a008054600160401b810460ff16159067ffffffffffffffff165f811580156104085750825b90505f8267ffffffffffffffff1660011480156104245750303b155b905081158015610432575080155b156104505760405163f92ee8a960e01b815260040160405180910390fd5b845467ffffffffffffffff19166001178555831561047a57845460ff60401b1916600160401b1785555b610483866106f1565b600180546001600160a01b0319166001600160a01b03891617905583156104e457845460ff60401b19168555604051600181527fc7f505b2f371ae2175ee4913f4499e1f2633a7b5936321eed1cdaeb6115181d29060200160405180910390a15b50505050505050565b6104f5610702565b6104fe5f610734565b565b7f9016d09d72d40fdae2fd8ceac6b6234c7706214fd39c1cd1e609a0528c199300546001600160a01b031690565b6001546040516323b872dd60e01b81525f916001600160a01b0316906323b872dd90610562903390309088906004016108cc565b6020604051808303815f875af115801561057e573d5f803e3d5ffd5b505050506040513d601f19601f820116820180604052508101906105a291906108f0565b9050806105cf576001546040516339f1c8d960e01b8152610235916001600160a01b03169060040161083a565b5f6105dc6103e88561093a565b5f805460405163a9059cbb60e01b81526001600160a01b038781166004830152602482018590529394509192169063a9059cbb906044016020604051808303815f875af115801561062f573d5f803e3d5ffd5b505050506040513d601f19601f8201168201806040525081019061065391906108f0565b90508061067f575f546040516339f1c8d960e01b8152610235916001600160a01b03169060040161083a565b7f3fb98e60c8154d8654f427e8936dcdf49b346cc664f3d3f83f0399013795c50d338684876040516103b4949392919061090f565b6106bc610702565b6001600160a01b0381166106e5575f604051631e4fbdf760e01b8152600401610235919061083a565b6106ee81610734565b50565b6106f96107a4565b6106ee816107ed565b3361070b610500565b6001600160a01b0316146104fe573360405163118cdaa760e01b8152600401610235919061083a565b7f9016d09d72d40fdae2fd8ceac6b6234c7706214fd39c1cd1e609a0528c19930080546001600160a01b031981166001600160a01b03848116918217845560405192169182907f8be0079c531659141344cd1fd0a4f28419497f9722a3daafe3b4186f6b6457e0905f90a3505050565b7ff0c57e16840df040f15088dc2f81fe391c3923bec73e23a9662efc9c229c6a0054600160401b900460ff166104fe57604051631afcd79f60e31b815260040160405180910390fd5b6106bc6107a4565b80356001600160a01b038116811461080b575f80fd5b919050565b5f8060408385031215610821575f80fd5b82359150610831602084016107f5565b90509250929050565b6001600160a01b0391909116815260200190565b5f806040838503121561085f575f80fd5b610868836107f5565b9150610831602084016107f5565b5f60208284031215610886575f80fd5b61088f826107f5565b9392505050565b5f826108b057634e487b7160e01b5f52601260045260245ffd5b500490565b5f602082840312156108c5575f80fd5b5051919050565b6001600160a01b039384168152919092166020820152604081019190915260600190565b5f60208284031215610900575f80fd5b8151801515811461088f575f80fd5b6001600160a01b03948516815260208101939093526040830191909152909116606082015260800190565b808202811582820484141761095d57634e487b7160e01b5f52601160045260245ffd5b9291505056fea2646970667358221220526c8245f143fbf9f8c53f66b344e9a065af302f7c18539db77b77eb90d46d6364736f6c63430008150033",
  "linkReferences": {},
  "deployedLinkReferences": {}
}