{
  "_format": "hh-sol-artifact-1",
  "contractName": "UPTimelock",
  "sourceName": "contracts/UPTimelock.flatten.sol",
  "abi": [
    {
      "anonymous": false,
      "inputs": [
        {
          "indexed": true,
          "internalType": "bytes32",
          "name": "id",
          "type": "bytes32"
        },
        {
          "indexed": true,
          "internalType": "uint256",
          "name": "index",
          "type": "uint256"
        },
        {
          "indexed": false,
          "internalType": "address",
          "name": "target",
          "type": "address"
        },
        {
          "indexed": false,
          "internalType": "uint256",
          "name": "value",
          "type": "uint256"
        },
        {
          "indexed": false,
          "internalType": "bytes",
          "name": "data",
          "type": "bytes"
        }
      ],
      "name": "CallExecuted",
      "type": "event"
    },
    {
      "anonymous": false,
      "inputs": [
        {
          "indexed": true,
          "internalType": "bytes32",
          "name": "id",
          "type": "bytes32"
        },
        {
          "indexed": false,
          "internalType": "bytes32",
          "name": "salt",
          "type": "bytes32"
        }
      ],
      "name": "CallSalt",
      "type": "event"
    },
    {
      "anonymous": false,
      "inputs": [
        {
          "indexed": true,
          "internalType": "bytes32",
          "name": "id",
          "type": "bytes32"
        },
        {
          "indexed": true,
          "internalType": "uint256",
          "name": "index",
          "type": "uint256"
        },
        {
          "indexed": false,
          "internalType": "address",
          "name": "target",
          "type": "address"
        },
        {
          "indexed": false,
          "internalType": "uint256",
          "name": "value",
          "type": "uint256"
        },
        {
          "indexed": false,
          "internalType": "bytes",
          "name": "data",
          "type": "bytes"
        },
        {
          "indexed": false,
          "internalType": "bytes32",
          "name": "predecessor",
          "type": "bytes32"
        },
        {
          "indexed": false,
          "internalType": "uint256",
          "name": "delay",
          "type": "uint256"
        }
      ],
      "name": "CallScheduled",
      "type": "event"
    },
    {
      "anonymous": false,
      "inputs": [
        {
          "indexed": true,
          "internalType": "bytes32",
          "name": "id",
          "type": "bytes32"
        }
      ],
      "name": "Cancelled",
      "type": "event"
    },
    {
      "anonymous": false,
      "inputs": [
        {
          "indexed": false,
          "internalType": "uint8",
          "name": "version",
          "type": "uint8"
        }
      ],
      "name": "Initialized",
      "type": "event"
    },
    {
      "anonymous": false,
      "inputs": [
        {
          "indexed": false,
          "internalType": "uint256",
          "name": "oldDuration",
          "type": "uint256"
        },
        {
          "indexed": false,
          "internalType": "uint256",
          "name": "newDuration",
          "type": "uint256"
        }
      ],
      "name": "MinDelayChange",
      "type": "event"
    },
    {
      "anonymous": false,
      "inputs": [
        {
          "indexed": true,
          "internalType": "bytes32",
          "name": "role",
          "type": "bytes32"
        },
        {
          "indexed": true,
          "internalType": "bytes32",
          "name": "previousAdminRole",
          "type": "bytes32"
        },
        {
          "indexed": true,
          "internalType": "bytes32",
          "name": "newAdminRole",
          "type": "bytes32"
        }
      ],
      "name": "RoleAdminChanged",
      "type": "event"
    },
    {
      "anonymous": false,
      "inputs": [
        {
          "indexed": true,
          "internalType": "bytes32",
          "name": "role",
          "type": "bytes32"
        },
        {
          "indexed": true,
          "internalType": "address",
          "name": "account",
          "type": "address"
        },
        {
          "indexed": true,
          "internalType": "address",
          "name": "sender",
          "type": "address"
        }
      ],
      "name": "RoleGranted",
      "type": "event"
    },
    {
      "anonymous": false,
      "inputs": [
        {
          "indexed": true,
          "internalType": "bytes32",
          "name": "role",
          "type": "bytes32"
        },
        {
          "indexed": true,
          "internalType": "address",
          "name": "account",
          "type": "address"
        },
        {
          "indexed": true,
          "internalType": "address",
          "name": "sender",
          "type": "address"
        }
      ],
      "name": "RoleRevoked",
      "type": "event"
    },
    {
      "inputs": [],
      "name": "CANCELLER_ROLE",
      "outputs": [
        {
          "internalType": "bytes32",
          "name": "",
          "type": "bytes32"
        }
      ],
      "stateMutability": "view",
      "type": "function"
    },
    {
      "inputs": [],
      "name": "DEFAULT_ADMIN_ROLE",
      "outputs": [
        {
          "internalType": "bytes32",
          "name": "",
          "type": "bytes32"
        }
      ],
      "stateMutability": "view",
      "type": "function"
    },
    {
      "inputs": [],
      "name": "EXECUTOR_ROLE",
      "outputs": [
        {
          "internalType": "bytes32",
          "name": "",
          "type": "bytes32"
        }
      ],
      "stateMutability": "view",
      "type": "function"
    },
    {
      "inputs": [],
      "name": "PROPOSER_ROLE",
      "outputs": [
        {
          "internalType": "bytes32",
          "name": "",
          "type": "bytes32"
        }
      ],
      "stateMutability": "view",
      "type": "function"
    },
    {
      "inputs": [],
      "name": "TIMELOCK_ADMIN_ROLE",
      "outputs": [
        {
          "internalType": "bytes32",
          "name": "",
          "type": "bytes32"
        }
      ],
      "stateMutability": "view",
      "type": "function"
    },
    {
      "inputs": [
        {
          "internalType": "bytes32",
          "name": "id",
          "type": "bytes32"
        }
      ],
      "name": "cancel",
      "outputs": [],
      "stateMutability": "nonpayable",
      "type": "function"
    },
    {
      "inputs": [
        {
          "internalType": "address",
          "name": "target",
          "type": "address"
        },
        {
          "internalType": "uint256",
          "name": "value",
          "type": "uint256"
        },
        {
          "internalType": "bytes",
          "name": "payload",
          "type": "bytes"
        },
        {
          "internalType": "bytes32",
          "name": "predecessor",
          "type": "bytes32"
        },
        {
          "internalType": "bytes32",
          "name": "salt",
          "type": "bytes32"
        }
      ],
      "name": "execute",
      "outputs": [],
      "stateMutability": "payable",
      "type": "function"
    },
    {
      "inputs": [
        {
          "internalType": "address[]",
          "name": "targets",
          "type": "address[]"
        },
        {
          "internalType": "uint256[]",
          "name": "values",
          "type": "uint256[]"
        },
        {
          "internalType": "bytes[]",
          "name": "payloads",
          "type": "bytes[]"
        },
        {
          "internalType": "bytes32",
          "name": "predecessor",
          "type": "bytes32"
        },
        {
          "internalType": "bytes32",
          "name": "salt",
          "type": "bytes32"
        }
      ],
      "name": "executeBatch",
      "outputs": [],
      "stateMutability": "payable",
      "type": "function"
    },
    {
      "inputs": [],
      "name": "getMinDelay",
      "outputs": [
        {
          "internalType": "uint256",
          "name": "",
          "type": "uint256"
        }
      ],
      "stateMutability": "view",
      "type": "function"
    },
    {
      "inputs": [
        {
          "internalType": "bytes32",
          "name": "role",
          "type": "bytes32"
        }
      ],
      "name": "getRoleAdmin",
      "outputs": [
        {
          "internalType": "bytes32",
          "name": "",
          "type": "bytes32"
        }
      ],
      "stateMutability": "view",
      "type": "function"
    },
    {
      "inputs": [
        {
          "internalType": "bytes32",
          "name": "id",
          "type": "bytes32"
        }
      ],
      "name": "getTimestamp",
      "outputs": [
        {
          "internalType": "uint256",
          "name": "",
          "type": "uint256"
        }
      ],
      "stateMutability": "view",
      "type": "function"
    },
    {
      "inputs": [
        {
          "internalType": "bytes32",
          "name": "role",
          "type": "bytes32"
        },
        {
          "internalType": "address",
          "name": "account",
          "type": "address"
        }
      ],
      "name": "grantRole",
      "outputs": [],
      "stateMutability": "nonpayable",
      "type": "function"
    },
    {
      "inputs": [
        {
          "internalType": "bytes32",
          "name": "role",
          "type": "bytes32"
        },
        {
          "internalType": "address",
          "name": "account",
          "type": "address"
        }
      ],
      "name": "hasRole",
      "outputs": [
        {
          "internalType": "bool",
          "name": "",
          "type": "bool"
        }
      ],
      "stateMutability": "view",
      "type": "function"
    },
    {
      "inputs": [
        {
          "internalType": "address",
          "name": "target",
          "type": "address"
        },
        {
          "internalType": "uint256",
          "name": "value",
          "type": "uint256"
        },
        {
          "internalType": "bytes",
          "name": "data",
          "type": "bytes"
        },
        {
          "internalType": "bytes32",
          "name": "predecessor",
          "type": "bytes32"
        },
        {
          "internalType": "bytes32",
          "name": "salt",
          "type": "bytes32"
        }
      ],
      "name": "hashOperation",
      "outputs": [
        {
          "internalType": "bytes32",
          "name": "",
          "type": "bytes32"
        }
      ],
      "stateMutability": "pure",
      "type": "function"
    },
    {
      "inputs": [
        {
          "internalType": "address[]",
          "name": "targets",
          "type": "address[]"
        },
        {
          "internalType": "uint256[]",
          "name": "values",
          "type": "uint256[]"
        },
        {
          "internalType": "bytes[]",
          "name": "payloads",
          "type": "bytes[]"
        },
        {
          "internalType": "bytes32",
          "name": "predecessor",
          "type": "bytes32"
        },
        {
          "internalType": "bytes32",
          "name": "salt",
          "type": "bytes32"
        }
      ],
      "name": "hashOperationBatch",
      "outputs": [
        {
          "internalType": "bytes32",
          "name": "",
          "type": "bytes32"
        }
      ],
      "stateMutability": "pure",
      "type": "function"
    },
    {
      "inputs": [
        {
          "internalType": "uint256",
          "name": "minDelay",
          "type": "uint256"
        },
        {
          "internalType": "address[]",
          "name": "proposers",
          "type": "address[]"
        },
        {
          "internalType": "address[]",
          "name": "executors",
          "type": "address[]"
        },
        {
          "internalType": "address",
          "name": "admin",
          "type": "address"
        }
      ],
      "name": "initialize",
      "outputs": [],
      "stateMutability": "nonpayable",
      "type": "function"
    },
    {
      "inputs": [
        {
          "internalType": "bytes32",
          "name": "id",
          "type": "bytes32"
        }
      ],
      "name": "isOperation",
      "outputs": [
        {
          "internalType": "bool",
          "name": "",
          "type": "bool"
        }
      ],
      "stateMutability": "view",
      "type": "function"
    },
    {
      "inputs": [
        {
          "internalType": "bytes32",
          "name": "id",
          "type": "bytes32"
        }
      ],
      "name": "isOperationDone",
      "outputs": [
        {
          "internalType": "bool",
          "name": "",
          "type": "bool"
        }
      ],
      "stateMutability": "view",
      "type": "function"
    },
    {
      "inputs": [
        {
          "internalType": "bytes32",
          "name": "id",
          "type": "bytes32"
        }
      ],
      "name": "isOperationPending",
      "outputs": [
        {
          "internalType": "bool",
          "name": "",
          "type": "bool"
        }
      ],
      "stateMutability": "view",
      "type": "function"
    },
    {
      "inputs": [
        {
          "internalType": "bytes32",
          "name": "id",
          "type": "bytes32"
        }
      ],
      "name": "isOperationReady",
      "outputs": [
        {
          "internalType": "bool",
          "name": "",
          "type": "bool"
        }
      ],
      "stateMutability": "view",
      "type": "function"
    },
    {
      "inputs": [
        {
          "internalType": "address",
          "name": "",
          "type": "address"
        },
        {
          "internalType": "address",
          "name": "",
          "type": "address"
        },
        {
          "internalType": "uint256[]",
          "name": "",
          "type": "uint256[]"
        },
        {
          "internalType": "uint256[]",
          "name": "",
          "type": "uint256[]"
        },
        {
          "internalType": "bytes",
          "name": "",
          "type": "bytes"
        }
      ],
      "name": "onERC1155BatchReceived",
      "outputs": [
        {
          "internalType": "bytes4",
          "name": "",
          "type": "bytes4"
        }
      ],
      "stateMutability": "nonpayable",
      "type": "function"
    },
    {
      "inputs": [
        {
          "internalType": "address",
          "name": "",
          "type": "address"
        },
        {
          "internalType": "address",
          "name": "",
          "type": "address"
        },
        {
          "internalType": "uint256",
          "name": "",
          "type": "uint256"
        },
        {
          "internalType": "uint256",
          "name": "",
          "type": "uint256"
        },
        {
          "internalType": "bytes",
          "name": "",
          "type": "bytes"
        }
      ],
      "name": "onERC1155Received",
      "outputs": [
        {
          "internalType": "bytes4",
          "name": "",
          "type": "bytes4"
        }
      ],
      "stateMutability": "nonpayable",
      "type": "function"
    },
    {
      "inputs": [
        {
          "internalType": "address",
          "name": "",
          "type": "address"
        },
        {
          "internalType": "address",
          "name": "",
          "type": "address"
        },
        {
          "internalType": "uint256",
          "name": "",
          "type": "uint256"
        },
        {
          "internalType": "bytes",
          "name": "",
          "type": "bytes"
        }
      ],
      "name": "onERC721Received",
      "outputs": [
        {
          "internalType": "bytes4",
          "name": "",
          "type": "bytes4"
        }
      ],
      "stateMutability": "nonpayable",
      "type": "function"
    },
    {
      "inputs": [
        {
          "internalType": "bytes32",
          "name": "role",
          "type": "bytes32"
        },
        {
          "internalType": "address",
          "name": "account",
          "type": "address"
        }
      ],
      "name": "renounceRole",
      "outputs": [],
      "stateMutability": "nonpayable",
      "type": "function"
    },
    {
      "inputs": [
        {
          "internalType": "bytes32",
          "name": "role",
          "type": "bytes32"
        },
        {
          "internalType": "address",
          "name": "account",
          "type": "address"
        }
      ],
      "name": "revokeRole",
      "outputs": [],
      "stateMutability": "nonpayable",
      "type": "function"
    },
    {
      "inputs": [
        {
          "internalType": "address",
          "name": "target",
          "type": "address"
        },
        {
          "internalType": "uint256",
          "name": "value",
          "type": "uint256"
        },
        {
          "internalType": "bytes",
          "name": "data",
          "type": "bytes"
        },
        {
          "internalType": "bytes32",
          "name": "predecessor",
          "type": "bytes32"
        },
        {
          "internalType": "bytes32",
          "name": "salt",
          "type": "bytes32"
        },
        {
          "internalType": "uint256",
          "name": "delay",
          "type": "uint256"
        }
      ],
      "name": "schedule",
      "outputs": [],
      "stateMutability": "nonpayable",
      "type": "function"
    },
    {
      "inputs": [
        {
          "internalType": "address[]",
          "name": "targets",
          "type": "address[]"
        },
        {
          "internalType": "uint256[]",
          "name": "values",
          "type": "uint256[]"
        },
        {
          "internalType": "bytes[]",
          "name": "payloads",
          "type": "bytes[]"
        },
        {
          "internalType": "bytes32",
          "name": "predecessor",
          "type": "bytes32"
        },
        {
          "internalType": "bytes32",
          "name": "salt",
          "type": "bytes32"
        },
        {
          "internalType": "uint256",
          "name": "delay",
          "type": "uint256"
        }
      ],
      "name": "scheduleBatch",
      "outputs": [],
      "stateMutability": "nonpayable",
      "type": "function"
    },
    {
      "inputs": [
        {
          "internalType": "bytes4",
          "name": "interfaceId",
          "type": "bytes4"
        }
      ],
      "name": "supportsInterface",
      "outputs": [
        {
          "internalType": "bool",
          "name": "",
          "type": "bool"
        }
      ],
      "stateMutability": "view",
      "type": "function"
    },
    {
      "inputs": [
        {
          "internalType": "uint256",
          "name": "newDelay",
          "type": "uint256"
        }
      ],
      "name": "updateDelay",
      "outputs": [],
      "stateMutability": "nonpayable",
      "type": "function"
    },
    {
      "stateMutability": "payable",
      "type": "receive"
    }
  ],
  "bytecode": "0x608060405234801561000f575f80fd5b506121d78061001d5f395ff3fe608060405260043610610181575f3560e01c80638065657f116100d4578063bc197c8111610083578063bc197c811461046a578063c4c4c7b314610495578063c4d252f5146104b4578063d45c4435146104d3578063d547741f146104fe578063e38335e51461051d578063f23a6e6114610530578063f27a0c921461055b575f80fd5b80638065657f1461039b5780638f2a0bb0146103ba5780638f61f4f5146103d957806391d14854146103f9578063a217fddf14610418578063b08e51c01461042b578063b1c5f4271461044b575f80fd5b8063248a9ca311610130578063248a9ca3146102a45780632ab0f529146102d25780632f2ff15d1461030057806331d507501461031f57806336568abe1461033e578063584b153e1461035d57806364d623531461037c575f80fd5b806301d5062a1461018c57806301ffc9a7146101ad57806307bd0265146101e15780630d3cf6fc1461020f578063134008d31461022f57806313bc9f2014610242578063150b7a0214610261575f80fd5b3661018857005b5f80fd5b348015610197575f80fd5b506101ab6101a63660046116a6565b61056f565b005b3480156101b8575f80fd5b506101cc6101c7366004611714565b610630565b60405190151581526020015b60405180910390f35b3480156101ec575f80fd5b506102015f8051602061216283398151915281565b6040519081526020016101d8565b34801561021a575f80fd5b506102015f8051602061212283398151915281565b6101ab61023d36600461173b565b61065a565b34801561024d575f80fd5b506101cc61025c3660046117a1565b6106f9565b34801561026c575f80fd5b5061028b61027b366004611867565b630a85bd0160e11b949350505050565b6040516001600160e01b031990911681526020016101d8565b3480156102af575f80fd5b506102016102be3660046117a1565b5f9081526065602052604090206001015490565b3480156102dd575f80fd5b506101cc6102ec3660046117a1565b5f9081526097602052604090205460011490565b34801561030b575f80fd5b506101ab61031a3660046118ca565b61071e565b34801561032a575f80fd5b506101cc6103393660046117a1565b610747565b348015610349575f80fd5b506101ab6103583660046118ca565b61075f565b348015610368575f80fd5b506101cc6103773660046117a1565b6107e2565b348015610387575f80fd5b506101ab6103963660046117a1565b6107f8565b3480156103a6575f80fd5b506102016103b536600461173b565b61089c565b3480156103c5575f80fd5b506101ab6103d4366004611934565b6108da565b3480156103e4575f80fd5b506102015f8051602061214283398151915281565b348015610404575f80fd5b506101cc6104133660046118ca565b610a58565b348015610423575f80fd5b506102015f81565b348015610436575f80fd5b506102015f8051602061218283398151915281565b348015610456575f80fd5b506102016104653660046119dc565b610a82565b348015610475575f80fd5b5061028b610484366004611b06565b63bc197c8160e01b95945050505050565b3480156104a0575f80fd5b506101ab6104af366004611c07565b610ac6565b3480156104bf575f80fd5b506101ab6104ce3660046117a1565b610bd9565b3480156104de575f80fd5b506102016104ed3660046117a1565b5f9081526097602052604090205490565b348015610509575f80fd5b506101ab6105183660046118ca565b610c9a565b6101ab61052b3660046119dc565b610cbe565b34801561053b575f80fd5b5061028b61054a366004611c7f565b63f23a6e6160e01b95945050505050565b348015610566575f80fd5b50609854610201565b5f8051602061214283398151915261058681610e2f565b5f61059589898989898961089c565b90506105a18184610e3c565b5f817f4cf4410cc57040e44862ef0f45f3dd5a5e02db8eb8add648d4b0e236f1d07dca8b8b8b8b8b8a6040516105dc96959493929190611d06565b60405180910390a3831561062557807f20fda5fd27a1ea7bf5b9567f143ac5470bb059374a27e8f67cb44f946f6d03878560405161061c91815260200190565b60405180910390a25b505050505050505050565b5f6001600160e01b03198216630271189760e51b1480610654575061065482610f2a565b92915050565b5f80516020612162833981519152610672815f610a58565b610680576106808133610f5e565b5f61068f88888888888861089c565b905061069b8185610fb7565b6106a788888888611051565b5f817fc2617efa69bab66782fa219543714338489c4e9e178271560a91b82c3f612b588a8a8a8a6040516106de9493929190611d42565b60405180910390a36106ef81611119565b5050505050505050565b5f818152609760205260408120546001811180156107175750428111155b9392505050565b5f8281526065602052604090206001015461073881610e2f565b6107428383611151565b505050565b5f8181526097602052604081205481905b1192915050565b6001600160a01b03811633146107d45760405162461bcd60e51b815260206004820152602f60248201527f416363657373436f6e74726f6c3a2063616e206f6e6c792072656e6f756e636560448201526e103937b632b9903337b91039b2b63360891b60648201526084015b60405180910390fd5b6107de82826111d6565b5050565b5f81815260976020526040812054600190610758565b33301461085b5760405162461bcd60e51b815260206004820152602b60248201527f54696d656c6f636b436f6e74726f6c6c65723a2063616c6c6572206d7573742060448201526a62652074696d656c6f636b60a81b60648201526084016107cb565b60985460408051918252602082018390527f11c24f4ead16507c69ac467fbd5e4eed5fb5c699626d2cc6d66421df253886d5910160405180910390a1609855565b5f8686868686866040516020016108b896959493929190611d06565b6040516020818303038152906040528051906020012090509695505050505050565b5f805160206121428339815191526108f181610e2f565b8887146109105760405162461bcd60e51b81526004016107cb90611d73565b88851461092f5760405162461bcd60e51b81526004016107cb90611d73565b5f6109408b8b8b8b8b8b8b8b610a82565b905061094c8184610e3c565b5f5b8a811015610a095780827f4cf4410cc57040e44862ef0f45f3dd5a5e02db8eb8add648d4b0e236f1d07dca8e8e8581811061098b5761098b611db6565b90506020020160208101906109a09190611dca565b8d8d868181106109b2576109b2611db6565b905060200201358c8c878181106109cb576109cb611db6565b90506020028101906109dd9190611de3565b8c8b6040516109f196959493929190611d06565b60405180910390a3610a0281611e39565b905061094e565b508315610a4b57807f20fda5fd27a1ea7bf5b9567f143ac5470bb059374a27e8f67cb44f946f6d038785604051610a4291815260200190565b60405180910390a25b5050505050505050505050565b5f9182526065602090815260408084206001600160a01b0393909316845291905290205460ff1690565b5f8888888888888888604051602001610aa2989796959493929190611edd565b60405160208183030381529060405280519060200120905098975050505050505050565b5f54610100900460ff1615808015610ae457505f54600160ff909116105b80610afd5750303b158015610afd57505f5460ff166001145b610b605760405162461bcd60e51b815260206004820152602e60248201527f496e697469616c697a61626c653a20636f6e747261637420697320616c72656160448201526d191e481a5b9a5d1a585b1a5e995960921b60648201526084016107cb565b5f805460ff191660011790558015610b81575f805461ff0019166101001790555b610b8d8585858561123c565b8015610bd2575f805461ff0019169055604051600181527f7f26b83ff96e1f2b6a682f133852f6798a09c465da95921460cefb38474024989060200160405180910390a15b5050505050565b5f80516020612182833981519152610bf081610e2f565b610bf9826107e2565b610c5f5760405162461bcd60e51b815260206004820152603160248201527f54696d656c6f636b436f6e74726f6c6c65723a206f7065726174696f6e2063616044820152701b9b9bdd0818994818d85b98d95b1b1959607a1b60648201526084016107cb565b5f828152609760205260408082208290555183917fbaa1eb22f2a492ba1a5fea61b8df4d27c6c8b5f3971e63bb58fa14ff72eedb7091a25050565b5f82815260656020526040902060010154610cb481610e2f565b61074283836111d6565b5f80516020612162833981519152610cd6815f610a58565b610ce457610ce48133610f5e565b878614610d035760405162461bcd60e51b81526004016107cb90611d73565b878414610d225760405162461bcd60e51b81526004016107cb90611d73565b5f610d338a8a8a8a8a8a8a8a610a82565b9050610d3f8185610fb7565b5f5b89811015610e19575f8b8b83818110610d5c57610d5c611db6565b9050602002016020810190610d719190611dca565b90505f8a8a84818110610d8657610d86611db6565b905060200201359050365f8a8a86818110610da357610da3611db6565b9050602002810190610db59190611de3565b91509150610dc584848484611051565b84867fc2617efa69bab66782fa219543714338489c4e9e178271560a91b82c3f612b5886868686604051610dfc9493929190611d42565b60405180910390a35050505080610e1290611e39565b9050610d41565b50610e2381611119565b50505050505050505050565b610e398133610f5e565b50565b610e4582610747565b15610eaa5760405162461bcd60e51b815260206004820152602f60248201527f54696d656c6f636b436f6e74726f6c6c65723a206f7065726174696f6e20616c60448201526e1c9958591e481cd8da19591d5b1959608a1b60648201526084016107cb565b609854811015610f0b5760405162461bcd60e51b815260206004820152602660248201527f54696d656c6f636b436f6e74726f6c6c65723a20696e73756666696369656e746044820152652064656c617960d01b60648201526084016107cb565b610f158142611f7c565b5f928352609760205260409092209190915550565b5f6001600160e01b03198216637965db0b60e01b148061065457506301ffc9a760e01b6001600160e01b0319831614610654565b610f688282610a58565b6107de57610f7581611274565b610f80836020611286565b604051602001610f91929190611fb1565b60408051601f198184030181529082905262461bcd60e51b82526107cb9160040161201f565b610fc0826106f9565b610fdc5760405162461bcd60e51b81526004016107cb90612051565b801580610ff657505f818152609760205260409020546001145b6107de5760405162461bcd60e51b815260206004820152602660248201527f54696d656c6f636b436f6e74726f6c6c65723a206d697373696e6720646570656044820152656e64656e637960d01b60648201526084016107cb565b5f846001600160a01b031684848460405161106d92919061209b565b5f6040518083038185875af1925050503d805f81146110a7576040519150601f19603f3d011682016040523d82523d5f602084013e6110ac565b606091505b5050905080610bd25760405162461bcd60e51b815260206004820152603360248201527f54696d656c6f636b436f6e74726f6c6c65723a20756e6465726c79696e6720746044820152721c985b9cd858dd1a5bdb881c995d995c9d1959606a1b60648201526084016107cb565b611122816106f9565b61113e5760405162461bcd60e51b81526004016107cb90612051565b5f90815260976020526040902060019055565b61115b8282610a58565b6107de575f8281526065602090815260408083206001600160a01b03851684529091529020805460ff191660011790556111923390565b6001600160a01b0316816001600160a01b0316837f2f8788117e7eff1d82e926ec794901d17c78024a50270940304540a733656f0d60405160405180910390a45050565b6111e08282610a58565b156107de575f8281526065602090815260408083206001600160a01b0385168085529252808320805460ff1916905551339285917ff6391f5c32d9c69d2a47ea670b442974b53935d1edc7fd64eb21e047a839171b9190a45050565b5f54610100900460ff166112625760405162461bcd60e51b81526004016107cb906120aa565b61126e8484848461141b565b50505050565b60606106546001600160a01b03831660145b60605f6112948360026120f5565b61129f906002611f7c565b6001600160401b038111156112b6576112b66117b8565b6040519080825280601f01601f1916602001820160405280156112e0576020820181803683370190505b509050600360fc1b815f815181106112fa576112fa611db6565b60200101906001600160f81b03191690815f1a905350600f60fb1b8160018151811061132857611328611db6565b60200101906001600160f81b03191690815f1a9053505f61134a8460026120f5565b611355906001611f7c565b90505b60018111156113cc576f181899199a1a9b1b9c1cb0b131b232b360811b85600f166010811061138957611389611db6565b1a60f81b82828151811061139f5761139f611db6565b60200101906001600160f81b03191690815f1a90535060049490941c936113c58161210c565b9050611358565b5083156107175760405162461bcd60e51b815260206004820181905260248201527f537472696e67733a20686578206c656e67746820696e73756666696369656e7460448201526064016107cb565b5f54610100900460ff166114415760405162461bcd60e51b81526004016107cb906120aa565b6114585f80516020612122833981519152806115f3565b61147c5f805160206121428339815191525f805160206121228339815191526115f3565b6114a05f805160206121628339815191525f805160206121228339815191526115f3565b6114c45f805160206121828339815191525f805160206121228339815191526115f3565b6114db5f805160206121228339815191523061163d565b6001600160a01b03811615611501576115015f805160206121228339815191528261163d565b5f5b835181101561156f5761153c5f8051602061214283398151915285838151811061152f5761152f611db6565b602002602001015161163d565b61155f5f8051602061218283398151915285838151811061152f5761152f611db6565b61156881611e39565b9050611503565b505f5b82518110156115ae5761159e5f8051602061216283398151915284838151811061152f5761152f611db6565b6115a781611e39565b9050611572565b506098849055604080515f8152602081018690527f11c24f4ead16507c69ac467fbd5e4eed5fb5c699626d2cc6d66421df253886d5910160405180910390a150505050565b5f82815260656020526040808220600101805490849055905190918391839186917fbd79b86ffe0ab8e8776151514217cd7cacd52c909f66475c3af44e129f0b00ff9190a4505050565b6107de8282611151565b80356001600160a01b038116811461165d575f80fd5b919050565b5f8083601f840112611672575f80fd5b5081356001600160401b03811115611688575f80fd5b60208301915083602082850101111561169f575f80fd5b9250929050565b5f805f805f805f60c0888a0312156116bc575f80fd5b6116c588611647565b96506020880135955060408801356001600160401b038111156116e6575f80fd5b6116f28a828b01611662565b989b979a50986060810135976080820135975060a09091013595509350505050565b5f60208284031215611724575f80fd5b81356001600160e01b031981168114610717575f80fd5b5f805f805f8060a08789031215611750575f80fd5b61175987611647565b95506020870135945060408701356001600160401b0381111561177a575f80fd5b61178689828a01611662565b979a9699509760608101359660809091013595509350505050565b5f602082840312156117b1575f80fd5b5035919050565b634e487b7160e01b5f52604160045260245ffd5b604051601f8201601f191681016001600160401b03811182821017156117f4576117f46117b8565b604052919050565b5f82601f83011261180b575f80fd5b81356001600160401b03811115611824576118246117b8565b611837601f8201601f19166020016117cc565b81815284602083860101111561184b575f80fd5b816020850160208301375f918101602001919091529392505050565b5f805f806080858703121561187a575f80fd5b61188385611647565b935061189160208601611647565b92506040850135915060608501356001600160401b038111156118b2575f80fd5b6118be878288016117fc565b91505092959194509250565b5f80604083850312156118db575f80fd5b823591506118eb60208401611647565b90509250929050565b5f8083601f840112611904575f80fd5b5081356001600160401b0381111561191a575f80fd5b6020830191508360208260051b850101111561169f575f80fd5b5f805f805f805f805f60c08a8c03121561194c575f80fd5b89356001600160401b0380821115611962575f80fd5b61196e8d838e016118f4565b909b50995060208c0135915080821115611986575f80fd5b6119928d838e016118f4565b909950975060408c01359150808211156119aa575f80fd5b506119b78c828d016118f4565b9a9d999c50979a969997986060880135976080810135975060a0013595509350505050565b5f805f805f805f8060a0898b0312156119f3575f80fd5b88356001600160401b0380821115611a09575f80fd5b611a158c838d016118f4565b909a50985060208b0135915080821115611a2d575f80fd5b611a398c838d016118f4565b909850965060408b0135915080821115611a51575f80fd5b50611a5e8b828c016118f4565b999c989b509699959896976060870135966080013595509350505050565b5f6001600160401b03821115611a9457611a946117b8565b5060051b60200190565b5f82601f830112611aad575f80fd5b81356020611ac2611abd83611a7c565b6117cc565b82815260059290921b84018101918181019086841115611ae0575f80fd5b8286015b84811015611afb5780358352918301918301611ae4565b509695505050505050565b5f805f805f60a08688031215611b1a575f80fd5b611b2386611647565b9450611b3160208701611647565b935060408601356001600160401b0380821115611b4c575f80fd5b611b5889838a01611a9e565b94506060880135915080821115611b6d575f80fd5b611b7989838a01611a9e565b93506080880135915080821115611b8e575f80fd5b50611b9b888289016117fc565b9150509295509295909350565b5f82601f830112611bb7575f80fd5b81356020611bc7611abd83611a7c565b82815260059290921b84018101918181019086841115611be5575f80fd5b8286015b84811015611afb57611bfa81611647565b8352918301918301611be9565b5f805f8060808587031215611c1a575f80fd5b8435935060208501356001600160401b0380821115611c37575f80fd5b611c4388838901611ba8565b94506040870135915080821115611c58575f80fd5b50611c6587828801611ba8565b925050611c7460608601611647565b905092959194509250565b5f805f805f60a08688031215611c93575f80fd5b611c9c86611647565b9450611caa60208701611647565b9350604086013592506060860135915060808601356001600160401b03811115611cd2575f80fd5b611b9b888289016117fc565b81835281816020850137505f828201602090810191909152601f909101601f19169091010190565b60018060a01b038716815285602082015260a060408201525f611d2d60a083018688611cde565b60608301949094525060800152949350505050565b60018060a01b0385168152836020820152606060408201525f611d69606083018486611cde565b9695505050505050565b60208082526023908201527f54696d656c6f636b436f6e74726f6c6c65723a206c656e677468206d69736d616040820152620e8c6d60eb1b606082015260800190565b634e487b7160e01b5f52603260045260245ffd5b5f60208284031215611dda575f80fd5b61071782611647565b5f808335601e19843603018112611df8575f80fd5b8301803591506001600160401b03821115611e11575f80fd5b60200191503681900382131561169f575f80fd5b634e487b7160e01b5f52601160045260245ffd5b5f60018201611e4a57611e4a611e25565b5060010190565b8183525f6020808501808196508560051b81019150845f5b87811015611ed05782840389528135601e19883603018112611e89575f80fd5b870185810190356001600160401b03811115611ea3575f80fd5b803603821315611eb1575f80fd5b611ebc868284611cde565b9a87019a9550505090840190600101611e69565b5091979650505050505050565b60a080825281018890525f8960c08301825b8b811015611f1d576001600160a01b03611f0884611647565b16825260209283019290910190600101611eef565b5083810360208501528881526001600160fb1b03891115611f3c575f80fd5b8860051b9150818a60208301370182810360209081016040850152611f649082018789611e51565b60608401959095525050608001529695505050505050565b8082018082111561065457610654611e25565b5f5b83811015611fa9578181015183820152602001611f91565b50505f910152565b76020b1b1b2b9b9a1b7b73a3937b61d1030b1b1b7bab73a1604d1b81525f8351611fe2816017850160208801611f8f565b7001034b99036b4b9b9b4b733903937b6329607d1b6017918401918201528351612013816028840160208801611f8f565b01602801949350505050565b602081525f825180602084015261203d816040850160208701611f8f565b601f01601f19169190910160400192915050565b6020808252602a908201527f54696d656c6f636b436f6e74726f6c6c65723a206f7065726174696f6e206973604082015269206e6f7420726561647960b01b606082015260800190565b818382375f9101908152919050565b6020808252602b908201527f496e697469616c697a61626c653a20636f6e7472616374206973206e6f74206960408201526a6e697469616c697a696e6760a81b606082015260800190565b808202811582820484141761065457610654611e25565b5f8161211a5761211a611e25565b505f19019056fe5f58e3a2316349923ce3780f8d587db2d72378aed66a8261c916544fa6846ca5b09aa5aeb3702cfd50b6b62bc4532604938f21248a27a1d5ca736082b6819cc1d8aa0f3194971a2a116679f7c2090f6939c8d4e01a2a8d7e41d55e5351469e63fd643c72710c63c0180259aba6b2d05451e3591a24e58b62239378085726f783a2646970667358221220d6bbaf613a96eac92888749eed9c64bf4dc4fbd3ca9a69fa8ee170b82a32892564736f6c63430008150033",
  "linkReferences": {},
  "deployedLinkReferences": {}
}