{
  "_format": "hh-sol-artifact-1",
  "contractName": "UPToken",
  "sourceName": "contracts/UPToken.flatten.sol",
  "abi": [
    {
      "inputs": [],
      "stateMutability": "nonpayable",
      "type": "constructor"
    },
    {
      "inputs": [],
      "name": "CheckpointUnorderedInsertion",
      "type": "error"
    },
    {
      "inputs": [],
      "name": "ECDSAInvalidSignature",
      "type": "error"
    },
    {
      "inputs": [
        {
          "internalType": "uint256",
          "name": "length",
          "type": "uint256"
        }
      ],
      "name": "ECDSAInvalidSignatureLength",
      "type": "error"
    },
    {
      "inputs": [
        {
          "internalType": "bytes32",
          "name": "s",
          "type": "bytes32"
        }
      ],
      "name": "ECDSAInvalidSignatureS",
      "type": "error"
    },
    {
      "inputs": [
        {
          "internalType": "uint256",
          "name": "increasedSupply",
          "type": "uint256"
        },
        {
          "internalType": "uint256",
          "name": "cap",
          "type": "uint256"
        }
      ],
      "name": "ERC20ExceededSafeSupply",
      "type": "error"
    },
    {
      "inputs": [
        {
          "internalType": "address",
          "name": "spender",
          "type": "address"
        },
        {
          "internalType": "uint256",
          "name": "allowance",
          "type": "uint256"
        },
        {
          "internalType": "uint256",
          "name": "needed",
          "type": "uint256"
        }
      ],
      "name": "ERC20InsufficientAllowance",
      "type": "error"
    },
    {
      "inputs": [
        {
          "internalType": "address",
          "name": "sender",
          "type": "address"
        },
        {
          "internalType": "uint256",
          "name": "balance",
          "type": "uint256"
        },
        {
          "internalType": "uint256",
          "name": "needed",
          "type": "uint256"
        }
      ],
      "name": "ERC20InsufficientBalance",
      "type": "error"
    },
    {
      "inputs": [
        {
          "internalType": "address",
          "name": "approver",
          "type": "address"
        }
      ],
      "name": "ERC20InvalidApprover",
      "type": "error"
    },
    {
      "inputs": [
        {
          "internalType": "address",
          "name": "receiver",
          "type": "address"
        }
      ],
      "name": "ERC20InvalidReceiver",
      "type": "error"
    },
    {
      "inputs": [
        {
          "internalType": "address",
          "name": "sender",
          "type": "address"
        }
      ],
      "name": "ERC20InvalidSender",
      "type": "error"
    },
    {
      "inputs": [
        {
          "internalType": "address",
          "name": "spender",
          "type": "address"
        }
      ],
      "name": "ERC20InvalidSpender",
      "type": "error"
    },
    {
      "inputs": [
        {
          "internalType": "uint256",
          "name": "deadline",
          "type": "uint256"
        }
      ],
      "name": "ERC2612ExpiredSignature",
      "type": "error"
    },
    {
      "inputs": [
        {
          "internalType": "address",
          "name": "signer",
          "type": "address"
        },
        {
          "internalType": "address",
          "name": "owner",
          "type": "address"
        }
      ],
      "name": "ERC2612InvalidSigner",
      "type": "error"
    },
    {
      "inputs": [
        {
          "internalType": "uint256",
          "name": "timepoint",
          "type": "uint256"
        },
        {
          "internalType": "uint48",
          "name": "clock",
          "type": "uint48"
        }
      ],
      "name": "ERC5805FutureLookup",
      "type": "error"
    },
    {
      "inputs": [],
      "name": "ERC6372InconsistentClock",
      "type": "error"
    },
    {
      "inputs": [
        {
          "internalType": "address",
          "name": "account",
          "type": "address"
        },
        {
          "internalType": "uint256",
          "name": "currentNonce",
          "type": "uint256"
        }
      ],
      "name": "InvalidAccountNonce",
      "type": "error"
    },
    {
      "inputs": [],
      "name": "InvalidInitialization",
      "type": "error"
    },
    {
      "inputs": [],
      "name": "NotInitializing",
      "type": "error"
    },
    {
      "inputs": [
        {
          "internalType": "address",
          "name": "owner",
          "type": "address"
        }
      ],
      "name": "OwnableInvalidOwner",
      "type": "error"
    },
    {
      "inputs": [
        {
          "internalType": "address",
          "name": "account",
          "type": "address"
        }
      ],
      "name": "OwnableUnauthorizedAccount",
      "type": "error"
    },
    {
      "inputs": [
        {
          "internalType": "uint8",
          "name": "bits",
          "type": "uint8"
        },
        {
          "internalType": "uint256",
          "name": "value",
          "type": "uint256"
        }
      ],
      "name": "SafeCastOverflowedUintDowncast",
      "type": "error"
    },
    {
      "inputs": [
        {
          "internalType": "uint256",
          "name": "expiry",
          "type": "uint256"
        }
      ],
      "name": "VotesExpiredSignature",
      "type": "error"
    },
    {
      "anonymous": false,
      "inputs": [
        {
          "indexed": true,
          "internalType": "address",
          "name": "owner",
          "type": "address"
        },
        {
          "indexed": true,
          "internalType": "address",
          "name": "spender",
          "type": "address"
        },
        {
          "indexed": false,
          "internalType": "uint256",
          "name": "value",
          "type": "uint256"
        }
      ],
      "name": "Approval",
      "type": "event"
    },
    {
      "anonymous": false,
      "inputs": [
        {
          "indexed": true,
          "internalType": "address",
          "name": "delegator",
          "type": "address"
        },
        {
          "indexed": true,
          "internalType": "address",
          "name": "fromDelegate",
          "type": "address"
        },
        {
          "indexed": true,
          "internalType": "address",
          "name": "toDelegate",
          "type": "address"
        }
      ],
      "name": "DelegateChanged",
      "type": "event"
    },
    {
      "anonymous": false,
      "inputs": [
        {
          "indexed": true,
          "internalType": "address",
          "name": "delegate",
          "type": "address"
        },
        {
          "indexed": false,
          "internalType": "uint256",
          "name": "previousVotes",
          "type": "uint256"
        },
        {
          "indexed": false,
          "internalType": "uint256",
          "name": "newVotes",
          "type": "uint256"
        }
      ],
      "name": "DelegateVotesChanged",
      "type": "event"
    },
    {
      "anonymous": false,
      "inputs": [],
      "name": "EIP712DomainChanged",
      "type": "event"
    },
    {
      "anonymous": false,
      "inputs": [
        {
          "indexed": false,
          "internalType": "uint64",
          "name": "version",
          "type": "uint64"
        }
      ],
      "name": "Initialized",
      "type": "event"
    },
    {
      "anonymous": false,
      "inputs": [
        {
          "indexed": true,
          "internalType": "address",
          "name": "previousOwner",
          "type": "address"
        },
        {
          "indexed": true,
          "internalType": "address",
          "name": "newOwner",
          "type": "address"
        }
      ],
      "name": "OwnershipTransferred",
      "type": "event"
    },
    {
      "anonymous": false,
      "inputs": [
        {
          "indexed": true,
          "internalType": "address",
          "name": "from",
          "type": "address"
        },
        {
          "indexed": true,
          "internalType": "address",
          "name": "to",
          "type": "address"
        },
        {
          "indexed": false,
          "internalType": "uint256",
          "name": "value",
          "type": "uint256"
        }
      ],
      "name": "Transfer",
      "type": "event"
    },
    {
      "inputs": [],
      "name": "CLOCK_MODE",
      "outputs": [
        {
          "internalType": "string",
          "name": "",
          "type": "string"
        }
      ],
      "stateMutability": "pure",
      "type": "function"
    },
    {
      "inputs": [],
      "name": "DOMAIN_SEPARATOR",
      "outputs": [
        {
          "internalType": "bytes32",
          "name": "",
          "type": "bytes32"
        }
      ],
      "stateMutability": "view",
      "type": "function"
    },
    {
      "inputs": [],
      "name": "TOTAL_SUPPLY",
      "outputs": [
        {
          "internalType": "uint256",
          "name": "",
          "type": "uint256"
        }
      ],
      "stateMutability": "view",
      "type": "function"
    },
    {
      "inputs": [
        {
          "internalType": "address",
          "name": "owner",
          "type": "address"
        },
        {
          "internalType": "address",
          "name": "spender",
          "type": "address"
        }
      ],
      "name": "allowance",
      "outputs": [
        {
          "internalType": "uint256",
          "name": "",
          "type": "uint256"
        }
      ],
      "stateMutability": "view",
      "type": "function"
    },
    {
      "inputs": [
        {
          "internalType": "address",
          "name": "spender",
          "type": "address"
        },
        {
          "internalType": "uint256",
          "name": "value",
          "type": "uint256"
        }
      ],
      "name": "approve",
      "outputs": [
        {
          "internalType": "bool",
          "name": "",
          "type": "bool"
        }
      ],
      "stateMutability": "nonpayable",
      "type": "function"
    },
    {
      "inputs": [
        {
          "internalType": "address",
          "name": "account",
          "type": "address"
        }
      ],
      "name": "balanceOf",
      "outputs": [
        {
          "internalType": "uint256",
          "name": "",
          "type": "uint256"
        }
      ],
      "stateMutability": "view",
      "type": "function"
    },
    {
      "inputs": [
        {
          "internalType": "address",
          "name": "account",
          "type": "address"
        },
        {
          "internalType": "uint32",
          "name": "pos",
          "type": "uint32"
        }
      ],
      "name": "checkpoints",
      "outputs": [
        {
          "components": [
            {
              "internalType": "uint48",
              "name": "_key",
              "type": "uint48"
            },
            {
              "internalType": "uint208",
              "name": "_value",
              "type": "uint208"
            }
          ],
          "internalType": "struct Checkpoints.Checkpoint208",
          "name": "",
          "type": "tuple"
        }
      ],
      "stateMutability": "view",
      "type": "function"
    },
    {
      "inputs": [],
      "name": "clock",
      "outputs": [
        {
          "internalType": "uint48",
          "name": "",
          "type": "uint48"
        }
      ],
      "stateMutability": "view",
      "type": "function"
    },
    {
      "inputs": [],
      "name": "decimals",
      "outputs": [
        {
          "internalType": "uint8",
          "name": "",
          "type": "uint8"
        }
      ],
      "stateMutability": "view",
      "type": "function"
    },
    {
      "inputs": [
        {
          "internalType": "address",
          "name": "delegatee",
          "type": "address"
        }
      ],
      "name": "delegate",
      "outputs": [],
      "stateMutability": "nonpayable",
      "type": "function"
    },
    {
      "inputs": [
        {
          "internalType": "address",
          "name": "delegatee",
          "type": "address"
        },
        {
          "internalType": "uint256",
          "name": "nonce",
          "type": "uint256"
        },
        {
          "internalType": "uint256",
          "name": "expiry",
          "type": "uint256"
        },
        {
          "internalType": "uint8",
          "name": "v",
          "type": "uint8"
        },
        {
          "internalType": "bytes32",
          "name": "r",
          "type": "bytes32"
        },
        {
          "internalType": "bytes32",
          "name": "s",
          "type": "bytes32"
        }
      ],
      "name": "delegateBySig",
      "outputs": [],
      "stateMutability": "nonpayable",
      "type": "function"
    },
    {
      "inputs": [
        {
          "internalType": "address",
          "name": "account",
          "type": "address"
        }
      ],
      "name": "delegates",
      "outputs": [
        {
          "internalType": "address",
          "name": "",
          "type": "address"
        }
      ],
      "stateMutability": "view",
      "type": "function"
    },
    {
      "inputs": [],
      "name": "eip712Domain",
      "outputs": [
        {
          "internalType": "bytes1",
          "name": "fields",
          "type": "bytes1"
        },
        {
          "internalType": "string",
          "name": "name",
          "type": "string"
        },
        {
          "internalType": "string",
          "name": "version",
          "type": "string"
        },
        {
          "internalType": "uint256",
          "name": "chainId",
          "type": "uint256"
        },
        {
          "internalType": "address",
          "name": "verifyingContract",
          "type": "address"
        },
        {
          "internalType": "bytes32",
          "name": "salt",
          "type": "bytes32"
        },
        {
          "internalType": "uint256[]",
          "name": "extensions",
          "type": "uint256[]"
        }
      ],
      "stateMutability": "view",
      "type": "function"
    },
    {
      "inputs": [
        {
          "internalType": "uint256",
          "name": "timepoint",
          "type": "uint256"
        }
      ],
      "name": "getPastTotalSupply",
      "outputs": [
        {
          "internalType": "uint256",
          "name": "",
          "type": "uint256"
        }
      ],
      "stateMutability": "view",
      "type": "function"
    },
    {
      "inputs": [
        {
          "internalType": "address",
          "name": "account",
          "type": "address"
        },
        {
          "internalType": "uint256",
          "name": "timepoint",
          "type": "uint256"
        }
      ],
      "name": "getPastVotes",
      "outputs": [
        {
          "internalType": "uint256",
          "name": "",
          "type": "uint256"
        }
      ],
      "stateMutability": "view",
      "type": "function"
    },
    {
      "inputs": [
        {
          "internalType": "address",
          "name": "account",
          "type": "address"
        }
      ],
      "name": "getVotes",
      "outputs": [
        {
          "internalType": "uint256",
          "name": "",
          "type": "uint256"
        }
      ],
      "stateMutability": "view",
      "type": "function"
    },
    {
      "inputs": [
        {
          "internalType": "address",
          "name": "initialOwner",
          "type": "address"
        }
      ],
      "name": "initialize",
      "outputs": [],
      "stateMutability": "nonpayable",
      "type": "function"
    },
    {
      "inputs": [
        {
          "internalType": "address",
          "name": "upSwap",
          "type": "address"
        }
      ],
      "name": "mint",
      "outputs": [],
      "stateMutability": "nonpayable",
      "type": "function"
    },
    {
      "inputs": [],
      "name": "name",
      "outputs": [
        {
          "internalType": "string",
          "name": "",
          "type": "string"
        }
      ],
      "stateMutability": "view",
      "type": "function"
    },
    {
      "inputs": [
        {
          "internalType": "address",
          "name": "owner",
          "type": "address"
        }
      ],
      "name": "nonces",
      "outputs": [
        {
          "internalType": "uint256",
          "name": "",
          "type": "uint256"
        }
      ],
      "stateMutability": "view",
      "type": "function"
    },
    {
      "inputs": [
        {
          "internalType": "address",
          "name": "account",
          "type": "address"
        }
      ],
      "name": "numCheckpoints",
      "outputs": [
        {
          "internalType": "uint32",
          "name": "",
          "type": "uint32"
        }
      ],
      "stateMutability": "view",
      "type": "function"
    },
    {
      "inputs": [],
      "name": "owner",
      "outputs": [
        {
          "internalType": "address",
          "name": "",
          "type": "address"
        }
      ],
      "stateMutability": "view",
      "type": "function"
    },
    {
      "inputs": [
        {
          "internalType": "address",
          "name": "owner",
          "type": "address"
        },
        {
          "internalType": "address",
          "name": "spender",
          "type": "address"
        },
        {
          "internalType": "uint256",
          "name": "value",
          "type": "uint256"
        },
        {
          "internalType": "uint256",
          "name": "deadline",
          "type": "uint256"
        },
        {
          "internalType": "uint8",
          "name": "v",
          "type": "uint8"
        },
        {
          "internalType": "bytes32",
          "name": "r",
          "type": "bytes32"
        },
        {
          "internalType": "bytes32",
          "name": "s",
          "type": "bytes32"
        }
      ],
      "name": "permit",
      "outputs": [],
      "stateMutability": "nonpayable",
      "type": "function"
    },
    {
      "inputs": [],
      "name": "renounceOwnership",
      "outputs": [],
      "stateMutability": "nonpayable",
      "type": "function"
    },
    {
      "inputs": [],
      "name": "symbol",
      "outputs": [
        {
          "internalType": "string",
          "name": "",
          "type": "string"
        }
      ],
      "stateMutability": "view",
      "type": "function"
    },
    {
      "inputs": [],
      "name": "totalSupply",
      "outputs": [
        {
          "internalType": "uint256",
          "name": "",
          "type": "uint256"
        }
      ],
      "stateMutability": "view",
      "type": "function"
    },
    {
      "inputs": [
        {
          "internalType": "address",
          "name": "to",
          "type": "address"
        },
        {
          "internalType": "uint256",
          "name": "value",
          "type": "uint256"
        }
      ],
      "name": "transfer",
      "outputs": [
        {
          "internalType": "bool",
          "name": "",
          "type": "bool"
        }
      ],
      "stateMutability": "nonpayable",
      "type": "function"
    },
    {
      "inputs": [
        {
          "internalType": "address",
          "name": "from",
          "type": "address"
        },
        {
          "internalType": "address",
          "name": "to",
          "type": "address"
        },
        {
          "internalType": "uint256",
          "name": "value",
          "type": "uint256"
        }
      ],
      "name": "transferFrom",
      "outputs": [
        {
          "internalType": "bool",
          "name": "",
          "type": "bool"
        }
      ],
      "stateMutability": "nonpayable",
      "type": "function"
    },
    {
      "inputs": [
        {
          "internalType": "address",
          "name": "newOwner",
          "type": "address"
        }
      ],
      "name": "transferOwnership",
      "outputs": [],
      "stateMutability": "nonpayable",
      "type": "function"
    }
  ],
  "bytecode": "0x608060405234801561000f575f80fd5b5061001861001d565b6100cf565b7ff0c57e16840df040f15088dc2f81fe391c3923bec73e23a9662efc9c229c6a00805468010000000000000000900460ff161561006d5760405163f92ee8a960e01b815260040160405180910390fd5b80546001600160401b03908116146100cc5780546001600160401b0319166001600160401b0390811782556040519081527fc7f505b2f371ae2175ee4913f4499e1f2633a7b5936321eed1cdaeb6115181d29060200160405180910390a15b50565b61246380620000dd5f395ff3fe608060405234801561000f575f80fd5b506004361061018a575f3560e01c80637ecebe00116100e05780639ab24eb01161008f5780639ab24eb014610349578063a9059cbb1461035c578063c3cda5201461036f578063c4d66de814610382578063d505accf14610395578063dd62ed3e146103a8578063f1127ed8146103bb578063f2fde38b146103fa575f80fd5b80637ecebe00146102d757806384b0196e146102ea5780638da5cb5b146103055780638e539e8c1461030d578063902d55a51461032057806391ddadf41461032b57806395d89b4114610341575f80fd5b80634bf5d7e91161013c5780634bf5d7e914610222578063587cde1e1461024c5780635c19a95c1461026c5780636a627842146102815780636fcfff451461029457806370a08231146102bc578063715018a6146102cf575f80fd5b806306fdde031461018e578063095ea7b3146101ac57806318160ddd146101cf57806323b872dd146101e5578063313ce567146101f85780633644e515146102075780633a46b1a81461020f575b5f80fd5b61019661040d565b6040516101a39190611e41565b60405180910390f35b6101bf6101ba366004611e6e565b6104ab565b60405190151581526020016101a3565b6101d76104c4565b6040519081526020016101a3565b6101bf6101f3366004611e96565b6104d8565b604051601281526020016101a3565b6101d76104fb565b6101d761021d366004611e6e565b610509565b60408051808201909152600e81526d06d6f64653d74696d657374616d760941b6020820152610196565b61025f61025a366004611ecf565b610591565b6040516101a39190611ee8565b61027f61027a366004611ecf565b6105be565b005b61027f61028f366004611ecf565b6105cd565b6102a76102a2366004611ecf565b61060a565b60405163ffffffff90911681526020016101a3565b6101d76102ca366004611ecf565b610614565b61027f61063d565b6101d76102e5366004611ecf565b610650565b6102f261065a565b6040516101a39796959493929190611efc565b61025f6106fe565b6101d761031b366004611f90565b61072c565b6101d7633b9aca0081565b60405165ffffffffffff421681526020016101a3565b610196610799565b6101d7610357366004611ecf565b6107b5565b6101bf61036a366004611e6e565b6107f4565b61027f61037d366004611fb7565b610801565b61027f610390366004611ecf565b6108bd565b61027f6103a336600461200b565b610a56565b6101d76103b6366004612070565b610b6f565b6103ce6103c93660046120a1565b610ba9565b60408051825165ffffffffffff1681526020928301516001600160d01b031692810192909252016101a3565b61027f610408366004611ecf565b610bcd565b60605f610418610c07565b9050806003018054610429906120de565b80601f0160208091040260200160405190810160405280929190818152602001828054610455906120de565b80156104a05780601f10610477576101008083540402835291602001916104a0565b820191905f5260205f20905b81548152906001019060200180831161048357829003601f168201915b505050505091505090565b5f336104b8818585610c2b565b60019150505b92915050565b5f806104ce610c07565b6002015492915050565b5f336104e5858285610c3d565b6104f0858585610c8d565b506001949350505050565b5f610504610cea565b905090565b5f80610513610cf3565b90504265ffffffffffff8116841061055457604051637669fc0f60e11b81526004810185905265ffffffffffff821660248201526044015b60405180910390fd5b61057f61056085610d17565b6001600160a01b0387165f908152600185016020526040902090610d4d565b6001600160d01b031695945050505050565b5f8061059b610cf3565b6001600160a01b039384165f908152602091909152604090205490921692915050565b336105c98183610dfd565b5050565b6105d5610e81565b6105de81610614565b5f0361060757610607816105f46012600a61220a565b61060290633b9aca00612218565b610eb3565b50565b5f6104be82610ee7565b5f8061061e610c07565b6001600160a01b039093165f9081526020939093525050604090205490565b610645610e81565b61064e5f610f17565b565b5f6104be82610f87565b5f6060805f805f60605f61066c610f91565b805490915015801561068057506001810154155b6106c45760405162461bcd60e51b81526020600482015260156024820152741152540dcc4c8e88155b9a5b9a5d1a585b1a5e9959605a1b604482015260640161054b565b6106cc610fb5565b6106d4610fd1565b604080515f80825260208201909252600f60f81b9c939b5091995046985030975095509350915050565b7f9016d09d72d40fdae2fd8ceac6b6234c7706214fd39c1cd1e609a0528c199300546001600160a01b031690565b5f80610736610cf3565b90504265ffffffffffff8116841061077257604051637669fc0f60e11b81526004810185905265ffffffffffff8216602482015260440161054b565b61078861077e85610d17565b6002840190610d4d565b6001600160d01b0316949350505050565b60605f6107a4610c07565b9050806004018054610429906120de565b5f806107bf610cf3565b6001600160a01b0384165f90815260018201602052604090209091506107e490610fdc565b6001600160d01b03169392505050565b5f336104b8818585610c8d565b8342111561082557604051632341d78760e11b81526004810185905260240161054b565b604080517fe48329057bfd03d55e49b547132e39cffd9c1820ad7b9d4c5307691425d15adf60208201526001600160a01b0388169181019190915260608101869052608081018590525f9061089e906108969060a00160405160208183030381529060405280519060200120611013565b85858561103f565b90506108aa818761106b565b6108b48188610dfd565b50505050505050565b7ff0c57e16840df040f15088dc2f81fe391c3923bec73e23a9662efc9c229c6a008054600160401b810460ff16159067ffffffffffffffff165f811580156109025750825b90505f8267ffffffffffffffff16600114801561091e5750303b155b90508115801561092c575080155b1561094a5760405163f92ee8a960e01b815260040160405180910390fd5b845467ffffffffffffffff19166001178555831561097457845460ff60401b1916600160401b1785555b6109c3604051806040016040528060138152602001722ab73637b1b5a83937ba37b1b7b62a37b5b2b760691b81525060405180604001604052806002815260200161055560f41b8152506110a9565b6109f7604051806040016040528060138152602001722ab73637b1b5a83937ba37b1b7b62a37b5b2b760691b8152506110bb565b6109ff6110e6565b610a08866110ee565b8315610a4e57845460ff60401b19168555604051600181527fc7f505b2f371ae2175ee4913f4499e1f2633a7b5936321eed1cdaeb6115181d29060200160405180910390a15b505050505050565b83421115610a7a5760405163313c898160e11b81526004810185905260240161054b565b5f7f6e71edae12b1b97f4d1f60370fef10105fa2faae0126114a169c64845d6126c9888888610aa88c6110ff565b6040805160208101969096526001600160a01b0394851690860152929091166060840152608083015260a082015260c0810186905260e0016040516020818303038152906040528051906020012090505f610b0282611013565b90505f610b118287878761103f565b9050896001600160a01b0316816001600160a01b031614610b58576040516325c0072360e11b81526001600160a01b0380831660048301528b16602482015260440161054b565b610b638a8a8a610c2b565b50505050505050505050565b5f80610b79610c07565b6001600160a01b039485165f90815260019190910160209081526040808320959096168252939093525050205490565b604080518082019091525f8082526020820152610bc68383611140565b9392505050565b610bd5610e81565b6001600160a01b038116610bfe575f604051631e4fbdf760e01b815260040161054b9190611ee8565b61060781610f17565b7f52c63247e1f47db19d5ce0460030c497f067ca4cebf71ba98eeadabe20bace0090565b610c38838383600161118a565b505050565b5f610c488484610b6f565b90505f198114610c875781811015610c7957828183604051637dc7a0d960e11b815260040161054b93929190612243565b610c8784848484035f61118a565b50505050565b6001600160a01b038316610cb6575f604051634b637e8f60e11b815260040161054b9190611ee8565b6001600160a01b038216610cdf575f60405163ec442f0560e01b815260040161054b9190611ee8565b610c3883838361126b565b5f610504611276565b7fe8b26c30fad74198956032a3533d903385d56dd795af560196f9c78d4af40d0090565b5f65ffffffffffff821115610d49576040516306dfcc6560e41b8152603060048201526024810183905260440161054b565b5090565b81545f9081816005811115610da9575f610d66846112e9565b610d709085612264565b5f8881526020902090915081015465ffffffffffff9081169087161015610d9957809150610da7565b610da4816001612277565b92505b505b5f610db6878785856113cd565b90508015610df057610dda87610dcd600184612264565b5f91825260209091200190565b54600160301b90046001600160d01b0316610df2565b5f5b979650505050505050565b5f610e06610cf3565b90505f610e1284610591565b6001600160a01b038581165f8181526020869052604080822080546001600160a01b031916898616908117909155905194955093928516927f3134e8a2e6d97e929a7e54011ea5485d7d196dd5f0ba4d4ef95803e8e3fc257f9190a4610c878184610e7c8761142c565b611436565b33610e8a6106fe565b6001600160a01b03161461064e573360405163118cdaa760e01b815260040161054b9190611ee8565b6001600160a01b038216610edc575f60405163ec442f0560e01b815260040161054b9190611ee8565b6105c95f838361126b565b5f80610ef1610cf3565b6001600160a01b0384165f908152600182016020526040902054909150610bc6906115af565b7f9016d09d72d40fdae2fd8ceac6b6234c7706214fd39c1cd1e609a0528c19930080546001600160a01b031981166001600160a01b03848116918217845560405192169182907f8be0079c531659141344cd1fd0a4f28419497f9722a3daafe3b4186f6b6457e0905f90a3505050565b5f6104be826115df565b7fa16a46d94261c7517cc8ff89f61c0ce93598e3c849801011dee649a6a557d10090565b60605f610fc0610f91565b9050806002018054610429906120de565b60605f610418610f91565b80545f90801561100b57610ff583610dcd600184612264565b54600160301b90046001600160d01b0316610bc6565b5f9392505050565b5f6104be61101f610cea565b8360405161190160f01b8152600281019290925260228201526042902090565b5f805f8061104f88888888611607565b92509250925061105f82826116c5565b50909695505050505050565b5f611075836110ff565b9050808214610c38576040516301d4b62360e61b81526001600160a01b03841660048201526024810182905260440161054b565b6110b161177d565b6105c982826117c6565b6110c361177d565b61060781604051806040016040528060018152602001603160f81b8152506117f6565b61064e61177d565b6110f661177d565b61060781611835565b6001600160a01b03165f9081527f5ab42ced628888259c08ac98db1eb0cf702fc1501344311d8b100cd1bfe4bb006020526040902080546001810190915590565b604080518082019091525f80825260208201525f61115c610cf3565b6001600160a01b0385165f9081526001820160205260409020909150611182908461183d565b949350505050565b5f611193610c07565b90506001600160a01b0385166111be575f60405163e602df0560e01b815260040161054b9190611ee8565b6001600160a01b0384166111e7575f604051634a1406b160e11b815260040161054b9190611ee8565b6001600160a01b038086165f9081526001830160209081526040808320938816835292905220839055811561126457836001600160a01b0316856001600160a01b03167f8c5be1e5ebec7d5bd14f71427d1e84f3dd0314c0f7b2291e5b200ac8c7c3b9258560405161125b91815260200190565b60405180910390a35b5050505050565b610c388383836118aa565b5f7f8b73c3c69bb8fe3d512ecc4cf759cc79239f7b179b0ffacaa9a75d522b39400f6112a061190f565b6112a8611974565b60408051602081019490945283019190915260608201524660808201523060a082015260c00160405160208183030381529060405280519060200120905090565b5f815f036112f857505f919050565b5f6001611304846119b3565b901c6001901b9050600181848161131d5761131d61228a565b048201901c905060018184816113355761133561228a565b048201901c9050600181848161134d5761134d61228a565b048201901c905060018184816113655761136561228a565b048201901c9050600181848161137d5761137d61228a565b048201901c905060018184816113955761139561228a565b048201901c905060018184816113ad576113ad61228a565b048201901c9050610bc6818285816113c7576113c761228a565b04611a46565b5f5b81831015611424575f6113e28484611a5b565b5f8781526020902090915065ffffffffffff86169082015465ffffffffffff1611156114105780925061141e565b61141b816001612277565b93505b506113cf565b509392505050565b5f6104be82610614565b5f61143f610cf3565b9050826001600160a01b0316846001600160a01b03161415801561146257505f82115b15610c87576001600160a01b0384161561150b576001600160a01b0384165f908152600182016020526040812081906114a690611a756114a187611a80565b611ab3565b6001600160d01b031691506001600160d01b03169150856001600160a01b03167fdec2bacdd2f05b59de34da9b523dff8be42e5e38e818c82fdb0bae774387a7248383604051611500929190918252602082015260400190565b60405180910390a250505b6001600160a01b03831615610c87576001600160a01b0383165f9081526001820160205260408120819061154590611ae46114a187611a80565b6001600160d01b031691506001600160d01b03169150846001600160a01b03167fdec2bacdd2f05b59de34da9b523dff8be42e5e38e818c82fdb0bae774387a724838360405161159f929190918252602082015260400190565b60405180910390a2505050505050565b5f63ffffffff821115610d49576040516306dfcc6560e41b8152602060048201526024810183905260440161054b565b5f807f5ab42ced628888259c08ac98db1eb0cf702fc1501344311d8b100cd1bfe4bb0061061e565b5f80806fa2a8918ca85bafe22016d0b997e4df60600160ff1b0384111561163657505f915060039050826116bb565b604080515f808252602082018084528a905260ff891692820192909252606081018790526080810186905260019060a0016020604051602081039080840390855afa158015611687573d5f803e3d5ffd5b5050604051601f1901519150506001600160a01b0381166116b257505f9250600191508290506116bb565b92505f91508190505b9450945094915050565b5f8260038111156116d8576116d861229e565b036116e1575050565b60018260038111156116f5576116f561229e565b036117135760405163f645eedf60e01b815260040160405180910390fd5b60028260038111156117275761172761229e565b036117485760405163fce698f760e01b81526004810182905260240161054b565b600382600381111561175c5761175c61229e565b036105c9576040516335e2f38360e21b81526004810182905260240161054b565b7ff0c57e16840df040f15088dc2f81fe391c3923bec73e23a9662efc9c229c6a0054600160401b900460ff1661064e57604051631afcd79f60e31b815260040160405180910390fd5b6117ce61177d565b5f6117d7610c07565b9050600381016117e784826122f7565b5060048101610c8783826122f7565b6117fe61177d565b5f611807610f91565b90506002810161181784826122f7565b506003810161182683826122f7565b505f8082556001909101555050565b610bd561177d565b604080518082019091525f8082526020820152825f018263ffffffff168154811061186a5761186a6123b3565b5f9182526020918290206040805180820190915291015465ffffffffffff81168252600160301b90046001600160d01b0316918101919091529392505050565b6118b5838383611aef565b6001600160a01b038316611904575f6118cc6104c4565b90506001600160d01b038082111561190157604051630e58ae9360e11b8152600481018390526024810182905260440161054b565b50505b610c38838383611c12565b5f80611919610f91565b90505f611924610fb5565b80519091501561193c57805160209091012092915050565b8154801561194b579392505050565b7fc5d2460186f7233c927e7db2dcc703c0e500b653ca82273b7bfad8045d85a470935050505090565b5f8061197e610f91565b90505f611989610fd1565b8051909150156119a157805160209091012092915050565b6001820154801561194b579392505050565b5f80608083901c156119c757608092831c92015b604083901c156119d957604092831c92015b602083901c156119eb57602092831c92015b601083901c156119fd57601092831c92015b600883901c15611a0f57600892831c92015b600483901c15611a2157600492831c92015b600283901c15611a3357600292831c92015b600183901c156104be5760010192915050565b5f818310611a545781610bc6565b5090919050565b5f611a6960028484186123c7565b610bc690848416612277565b5f610bc682846123e6565b5f6001600160d01b03821115610d49576040516306dfcc6560e41b815260d060048201526024810183905260440161054b565b5f80611ad742611acf611ac588610fdc565b868863ffffffff16565b879190611c80565b915091505b935093915050565b5f610bc6828461240d565b5f611af8610c07565b90506001600160a01b038416611b265781816002015f828254611b1b9190612277565b90915550611b839050565b6001600160a01b0384165f9081526020829052604090205482811015611b655784818460405163391434e360e21b815260040161054b93929190612243565b6001600160a01b0385165f9081526020839052604090209083900390555b6001600160a01b038316611ba1576002810180548390039055611bbf565b6001600160a01b0383165f9081526020829052604090208054830190555b826001600160a01b0316846001600160a01b03167fddf252ad1be2c89b69c2b068fc378daa952ba7f163c4a11628f55a4df523b3ef84604051611c0491815260200190565b60405180910390a350505050565b5f611c1b610cf3565b90506001600160a01b038416611c4157611c3e81600201611ae46114a185611a80565b50505b6001600160a01b038316611c6557611c6281600201611a756114a185611a80565b50505b610c87611c7185610591565b611c7a85610591565b84611436565b5f80611ad785858582545f9081908015611da4575f611ca487610dcd600185612264565b60408051808201909152905465ffffffffffff808216808452600160301b9092046001600160d01b031660208401529192509087161015611cf857604051632520601d60e01b815260040160405180910390fd5b805165ffffffffffff808816911603611d445784611d1b88610dcd600186612264565b80546001600160d01b0392909216600160301b0265ffffffffffff909216919091179055611d94565b6040805180820190915265ffffffffffff80881682526001600160d01b0380881660208085019182528b54600181018d555f8d81529190912094519151909216600160301b029216919091179101555b602001519250839150611adc9050565b50506040805180820190915265ffffffffffff80851682526001600160d01b0380851660208085019182528854600181018a555f8a815291822095519251909316600160301b029190931617920191909155905081611adc565b5f81518084525f5b81811015611e2257602081850181015186830182015201611e06565b505f602082860101526020601f19601f83011685010191505092915050565b602081525f610bc66020830184611dfe565b80356001600160a01b0381168114611e69575f80fd5b919050565b5f8060408385031215611e7f575f80fd5b611e8883611e53565b946020939093013593505050565b5f805f60608486031215611ea8575f80fd5b611eb184611e53565b9250611ebf60208501611e53565b9150604084013590509250925092565b5f60208284031215611edf575f80fd5b610bc682611e53565b6001600160a01b0391909116815260200190565b60ff60f81b881681525f602060e081840152611f1b60e084018a611dfe565b8381036040850152611f2d818a611dfe565b606085018990526001600160a01b038816608086015260a0850187905284810360c086015285518082528387019250908301905f5b81811015611f7e57835183529284019291840191600101611f62565b50909c9b505050505050505050505050565b5f60208284031215611fa0575f80fd5b5035919050565b803560ff81168114611e69575f80fd5b5f805f805f8060c08789031215611fcc575f80fd5b611fd587611e53565b95506020870135945060408701359350611ff160608801611fa7565b92506080870135915060a087013590509295509295509295565b5f805f805f805f60e0888a031215612021575f80fd5b61202a88611e53565b965061203860208901611e53565b9550604088013594506060880135935061205460808901611fa7565b925060a0880135915060c0880135905092959891949750929550565b5f8060408385031215612081575f80fd5b61208a83611e53565b915061209860208401611e53565b90509250929050565b5f80604083850312156120b2575f80fd5b6120bb83611e53565b9150602083013563ffffffff811681146120d3575f80fd5b809150509250929050565b600181811c908216806120f257607f821691505b60208210810361211057634e487b7160e01b5f52602260045260245ffd5b50919050565b634e487b7160e01b5f52601160045260245ffd5b600181815b8085111561216457815f190482111561214a5761214a612116565b8085161561215757918102915b93841c939080029061212f565b509250929050565b5f8261217a575060016104be565b8161218657505f6104be565b816001811461219c57600281146121a6576121c2565b60019150506104be565b60ff8411156121b7576121b7612116565b50506001821b6104be565b5060208310610133831016604e8410600b84101617156121e5575081810a6104be565b6121ef838361212a565b805f190482111561220257612202612116565b029392505050565b5f610bc660ff84168361216c565b80820281158282048414176104be576104be612116565b634e487b7160e01b5f52604160045260245ffd5b6001600160a01b039390931683526020830191909152604082015260600190565b818103818111156104be576104be612116565b808201808211156104be576104be612116565b634e487b7160e01b5f52601260045260245ffd5b634e487b7160e01b5f52602160045260245ffd5b601f821115610c38575f81815260208120601f850160051c810160208610156122d85750805b601f850160051c820191505b81811015610a4e578281556001016122e4565b815167ffffffffffffffff8111156123115761231161222f565b6123258161231f84546120de565b846122b2565b602080601f831160018114612358575f84156123415750858301515b5f19600386901b1c1916600185901b178555610a4e565b5f85815260208120601f198616915b8281101561238657888601518255948401946001909101908401612367565b50858210156123a357878501515f19600388901b60f8161c191681555b5050505050600190811b01905550565b634e487b7160e01b5f52603260045260245ffd5b5f826123e157634e487b7160e01b5f52601260045260245ffd5b500490565b6001600160d01b0382811682821603908082111561240657612406612116565b5092915050565b6001600160d01b038181168382160190808211156124065761240661211656fea2646970667358221220245cb31fc4e57669b1a522ca1e5c010cb2f257a1d7dfbb152c3c322ff21020b264736f6c63430008150033",
  "linkReferences": {},
  "deployedLinkReferences": {}
}