{
  "_format": "hh-sol-artifact-1",
  "contractName": "PublicLockV14",
  "sourceName": "contracts/PublicLock/PublicLockV14.sol",
  "abi": [
    {
      "inputs": [],
      "name": "CANNOT_APPROVE_SELF",
      "type": "error"
    },
    {
      "inputs": [],
      "name": "CANT_BE_SMALLER_THAN_SUPPLY",
      "type": "error"
    },
    {
      "inputs": [],
      "name": "CANT_EXTEND_NON_EXPIRING_KEY",
      "type": "error"
    },
    {
      "inputs": [],
      "name": "GAS_REFUND_FAILED",
      "type": "error"
    },
    {
      "inputs": [],
      "name": "INSUFFICIENT_ERC20_VALUE",
      "type": "error"
    },
    {
      "inputs": [],
      "name": "INSUFFICIENT_VALUE",
      "type": "error"
    },
    {
      "inputs": [],
      "name": "INVALID_ADDRESS",
      "type": "error"
    },
    {
      "inputs": [
        {
          "internalType": "uint8",
          "name": "hookIndex",
          "type": "uint8"
        }
      ],
      "name": "INVALID_HOOK",
      "type": "error"
    },
    {
      "inputs": [],
      "name": "INVALID_LENGTH",
      "type": "error"
    },
    {
      "inputs": [],
      "name": "INVALID_TOKEN",
      "type": "error"
    },
    {
      "inputs": [],
      "name": "KEY_NOT_VALID",
      "type": "error"
    },
    {
      "inputs": [],
      "name": "KEY_TRANSFERS_DISABLED",
      "type": "error"
    },
    {
      "inputs": [],
      "name": "LOCK_HAS_CHANGED",
      "type": "error"
    },
    {
      "inputs": [],
      "name": "LOCK_SOLD_OUT",
      "type": "error"
    },
    {
      "inputs": [],
      "name": "MAX_KEYS_REACHED",
      "type": "error"
    },
    {
      "inputs": [],
      "name": "MIGRATION_REQUIRED",
      "type": "error"
    },
    {
      "inputs": [],
      "name": "NON_COMPLIANT_ERC721_RECEIVER",
      "type": "error"
    },
    {
      "inputs": [],
      "name": "NON_RENEWABLE_LOCK",
      "type": "error"
    },
    {
      "inputs": [],
      "name": "NOT_ENOUGH_FUNDS",
      "type": "error"
    },
    {
      "inputs": [],
      "name": "NOT_ENOUGH_TIME",
      "type": "error"
    },
    {
      "inputs": [],
      "name": "NOT_READY_FOR_RENEWAL",
      "type": "error"
    },
    {
      "inputs": [],
      "name": "NO_SUCH_KEY",
      "type": "error"
    },
    {
      "inputs": [],
      "name": "NULL_VALUE",
      "type": "error"
    },
    {
      "inputs": [],
      "name": "ONLY_KEY_MANAGER_OR_APPROVED",
      "type": "error"
    },
    {
      "inputs": [],
      "name": "ONLY_LOCK_MANAGER",
      "type": "error"
    },
    {
      "inputs": [],
      "name": "ONLY_LOCK_MANAGER_OR_KEY_GRANTER",
      "type": "error"
    },
    {
      "inputs": [],
      "name": "OUT_OF_RANGE",
      "type": "error"
    },
    {
      "inputs": [],
      "name": "OWNER_CANT_BE_ADDRESS_ZERO",
      "type": "error"
    },
    {
      "inputs": [],
      "name": "SCHEMA_VERSION_NOT_CORRECT",
      "type": "error"
    },
    {
      "inputs": [],
      "name": "TRANSFER_TO_SELF",
      "type": "error"
    },
    {
      "inputs": [],
      "name": "TransferFailed",
      "type": "error"
    },
    {
      "inputs": [],
      "name": "UNAUTHORIZED",
      "type": "error"
    },
    {
      "inputs": [],
      "name": "UNAUTHORIZED_KEY_MANAGER_UPDATE",
      "type": "error"
    },
    {
      "anonymous": false,
      "inputs": [
        {
          "indexed": true,
          "internalType": "address",
          "name": "owner",
          "type": "address"
        },
        {
          "indexed": true,
          "internalType": "address",
          "name": "approved",
          "type": "address"
        },
        {
          "indexed": true,
          "internalType": "uint256",
          "name": "tokenId",
          "type": "uint256"
        }
      ],
      "name": "Approval",
      "type": "event"
    },
    {
      "anonymous": false,
      "inputs": [
        {
          "indexed": true,
          "internalType": "address",
          "name": "owner",
          "type": "address"
        },
        {
          "indexed": true,
          "internalType": "address",
          "name": "operator",
          "type": "address"
        },
        {
          "indexed": false,
          "internalType": "bool",
          "name": "approved",
          "type": "bool"
        }
      ],
      "name": "ApprovalForAll",
      "type": "event"
    },
    {
      "anonymous": false,
      "inputs": [
        {
          "indexed": true,
          "internalType": "uint256",
          "name": "tokenId",
          "type": "uint256"
        },
        {
          "indexed": true,
          "internalType": "address",
          "name": "owner",
          "type": "address"
        },
        {
          "indexed": true,
          "internalType": "address",
          "name": "sendTo",
          "type": "address"
        },
        {
          "indexed": false,
          "internalType": "uint256",
          "name": "refund",
          "type": "uint256"
        }
      ],
      "name": "CancelKey",
      "type": "event"
    },
    {
      "anonymous": false,
      "inputs": [
        {
          "indexed": false,
          "internalType": "address",
          "name": "onKeyPurchaseHook",
          "type": "address"
        },
        {
          "indexed": false,
          "internalType": "address",
          "name": "onKeyCancelHook",
          "type": "address"
        },
        {
          "indexed": false,
          "internalType": "address",
          "name": "onValidKeyHook",
          "type": "address"
        },
        {
          "indexed": false,
          "internalType": "address",
          "name": "onTokenURIHook",
          "type": "address"
        },
        {
          "indexed": false,
          "internalType": "address",
          "name": "onKeyTransferHook",
          "type": "address"
        },
        {
          "indexed": false,
          "internalType": "address",
          "name": "onKeyExtendHook",
          "type": "address"
        },
        {
          "indexed": false,
          "internalType": "address",
          "name": "onKeyGrantHook",
          "type": "address"
        }
      ],
      "name": "EventHooksUpdated",
      "type": "event"
    },
    {
      "anonymous": false,
      "inputs": [
        {
          "indexed": true,
          "internalType": "uint256",
          "name": "tokenId",
          "type": "uint256"
        },
        {
          "indexed": false,
          "internalType": "uint256",
          "name": "prevExpiration",
          "type": "uint256"
        },
        {
          "indexed": false,
          "internalType": "uint256",
          "name": "newExpiration",
          "type": "uint256"
        }
      ],
      "name": "ExpirationChanged",
      "type": "event"
    },
    {
      "anonymous": false,
      "inputs": [
        {
          "indexed": true,
          "internalType": "uint256",
          "name": "tokenId",
          "type": "uint256"
        }
      ],
      "name": "ExpireKey",
      "type": "event"
    },
    {
      "anonymous": false,
      "inputs": [
        {
          "indexed": false,
          "internalType": "uint256",
          "name": "refundValue",
          "type": "uint256"
        }
      ],
      "name": "GasRefundValueChanged",
      "type": "event"
    },
    {
      "anonymous": false,
      "inputs": [
        {
          "indexed": true,
          "internalType": "address",
          "name": "receiver",
          "type": "address"
        },
        {
          "indexed": false,
          "internalType": "uint256",
          "name": "refundedAmount",
          "type": "uint256"
        },
        {
          "indexed": false,
          "internalType": "address",
          "name": "tokenAddress",
          "type": "address"
        }
      ],
      "name": "GasRefunded",
      "type": "event"
    },
    {
      "anonymous": false,
      "inputs": [
        {
          "indexed": false,
          "internalType": "uint8",
          "name": "version",
          "type": "uint8"
        }
      ],
      "name": "Initialized",
      "type": "event"
    },
    {
      "anonymous": false,
      "inputs": [
        {
          "indexed": true,
          "internalType": "uint256",
          "name": "tokenId",
          "type": "uint256"
        },
        {
          "indexed": false,
          "internalType": "uint256",
          "name": "newTimestamp",
          "type": "uint256"
        }
      ],
      "name": "KeyExtended",
      "type": "event"
    },
    {
      "anonymous": false,
      "inputs": [
        {
          "indexed": true,
          "internalType": "address",
          "name": "account",
          "type": "address"
        }
      ],
      "name": "KeyGranterAdded",
      "type": "event"
    },
    {
      "anonymous": false,
      "inputs": [
        {
          "indexed": true,
          "internalType": "address",
          "name": "account",
          "type": "address"
        }
      ],
      "name": "KeyGranterRemoved",
      "type": "event"
    },
    {
      "anonymous": false,
      "inputs": [
        {
          "indexed": true,
          "internalType": "uint256",
          "name": "_tokenId",
          "type": "uint256"
        },
        {
          "indexed": true,
          "internalType": "address",
          "name": "_newManager",
          "type": "address"
        }
      ],
      "name": "KeyManagerChanged",
      "type": "event"
    },
    {
      "anonymous": false,
      "inputs": [
        {
          "indexed": false,
          "internalType": "uint256",
          "name": "updatedRecordsCount",
          "type": "uint256"
        }
      ],
      "name": "KeysMigrated",
      "type": "event"
    },
    {
      "anonymous": false,
      "inputs": [
        {
          "indexed": false,
          "internalType": "uint256",
          "name": "expirationDuration",
          "type": "uint256"
        },
        {
          "indexed": false,
          "internalType": "uint256",
          "name": "maxNumberOfKeys",
          "type": "uint256"
        },
        {
          "indexed": false,
          "internalType": "uint256",
          "name": "maxKeysPerAcccount",
          "type": "uint256"
        }
      ],
      "name": "LockConfig",
      "type": "event"
    },
    {
      "anonymous": false,
      "inputs": [
        {
          "indexed": true,
          "internalType": "address",
          "name": "account",
          "type": "address"
        }
      ],
      "name": "LockManagerAdded",
      "type": "event"
    },
    {
      "anonymous": false,
      "inputs": [
        {
          "indexed": true,
          "internalType": "address",
          "name": "account",
          "type": "address"
        }
      ],
      "name": "LockManagerRemoved",
      "type": "event"
    },
    {
      "anonymous": false,
      "inputs": [
        {
          "indexed": false,
          "internalType": "string",
          "name": "name",
          "type": "string"
        },
        {
          "indexed": false,
          "internalType": "string",
          "name": "symbol",
          "type": "string"
        },
        {
          "indexed": false,
          "internalType": "string",
          "name": "baseTokenURI",
          "type": "string"
        }
      ],
      "name": "LockMetadata",
      "type": "event"
    },
    {
      "anonymous": false,
      "inputs": [
        {
          "indexed": false,
          "internalType": "address",
          "name": "previousOwner",
          "type": "address"
        },
        {
          "indexed": false,
          "internalType": "address",
          "name": "newOwner",
          "type": "address"
        }
      ],
      "name": "OwnershipTransferred",
      "type": "event"
    },
    {
      "anonymous": false,
      "inputs": [
        {
          "indexed": false,
          "internalType": "uint256",
          "name": "oldKeyPrice",
          "type": "uint256"
        },
        {
          "indexed": false,
          "internalType": "uint256",
          "name": "keyPrice",
          "type": "uint256"
        },
        {
          "indexed": false,
          "internalType": "address",
          "name": "oldTokenAddress",
          "type": "address"
        },
        {
          "indexed": false,
          "internalType": "address",
          "name": "tokenAddress",
          "type": "address"
        }
      ],
      "name": "PricingChanged",
      "type": "event"
    },
    {
      "anonymous": false,
      "inputs": [
        {
          "indexed": true,
          "internalType": "address",
          "name": "referrer",
          "type": "address"
        },
        {
          "indexed": false,
          "internalType": "uint256",
          "name": "fee",
          "type": "uint256"
        }
      ],
      "name": "ReferrerFee",
      "type": "event"
    },
    {
      "anonymous": false,
      "inputs": [
        {
          "indexed": false,
          "internalType": "uint256",
          "name": "freeTrialLength",
          "type": "uint256"
        },
        {
          "indexed": false,
          "internalType": "uint256",
          "name": "refundPenaltyBasisPoints",
          "type": "uint256"
        }
      ],
      "name": "RefundPenaltyChanged",
      "type": "event"
    },
    {
      "anonymous": false,
      "inputs": [
        {
          "indexed": true,
          "internalType": "bytes32",
          "name": "role",
          "type": "bytes32"
        },
        {
          "indexed": true,
          "internalType": "bytes32",
          "name": "previousAdminRole",
          "type": "bytes32"
        },
        {
          "indexed": true,
          "internalType": "bytes32",
          "name": "newAdminRole",
          "type": "bytes32"
        }
      ],
      "name": "RoleAdminChanged",
      "type": "event"
    },
    {
      "anonymous": false,
      "inputs": [
        {
          "indexed": true,
          "internalType": "bytes32",
          "name": "role",
          "type": "bytes32"
        },
        {
          "indexed": true,
          "internalType": "address",
          "name": "account",
          "type": "address"
        },
        {
          "indexed": true,
          "internalType": "address",
          "name": "sender",
          "type": "address"
        }
      ],
      "name": "RoleGranted",
      "type": "event"
    },
    {
      "anonymous": false,
      "inputs": [
        {
          "indexed": true,
          "internalType": "bytes32",
          "name": "role",
          "type": "bytes32"
        },
        {
          "indexed": true,
          "internalType": "address",
          "name": "account",
          "type": "address"
        },
        {
          "indexed": true,
          "internalType": "address",
          "name": "sender",
          "type": "address"
        }
      ],
      "name": "RoleRevoked",
      "type": "event"
    },
    {
      "anonymous": false,
      "inputs": [
        {
          "indexed": true,
          "internalType": "address",
          "name": "from",
          "type": "address"
        },
        {
          "indexed": true,
          "internalType": "address",
          "name": "to",
          "type": "address"
        },
        {
          "indexed": true,
          "internalType": "uint256",
          "name": "tokenId",
          "type": "uint256"
        }
      ],
      "name": "Transfer",
      "type": "event"
    },
    {
      "anonymous": false,
      "inputs": [
        {
          "indexed": false,
          "internalType": "uint256",
          "name": "transferFeeBasisPoints",
          "type": "uint256"
        }
      ],
      "name": "TransferFeeChanged",
      "type": "event"
    },
    {
      "anonymous": false,
      "inputs": [
        {
          "indexed": true,
          "internalType": "address",
          "name": "lockAddress",
          "type": "address"
        },
        {
          "indexed": false,
          "internalType": "address",
          "name": "unlockAddress",
          "type": "address"
        }
      ],
      "name": "UnlockCallFailed",
      "type": "event"
    },
    {
      "anonymous": false,
      "inputs": [
        {
          "indexed": true,
          "internalType": "address",
          "name": "sender",
          "type": "address"
        },
        {
          "indexed": true,
          "internalType": "address",
          "name": "tokenAddress",
          "type": "address"
        },
        {
          "indexed": true,
          "internalType": "address",
          "name": "recipient",
          "type": "address"
        },
        {
          "indexed": false,
          "internalType": "uint256",
          "name": "amount",
          "type": "uint256"
        }
      ],
      "name": "Withdrawal",
      "type": "event"
    },
    {
      "inputs": [],
      "name": "DEFAULT_ADMIN_ROLE",
      "outputs": [
        {
          "internalType": "bytes32",
          "name": "",
          "type": "bytes32"
        }
      ],
      "stateMutability": "view",
      "type": "function"
    },
    {
      "inputs": [
        {
          "internalType": "address",
          "name": "account",
          "type": "address"
        }
      ],
      "name": "addLockManager",
      "outputs": [],
      "stateMutability": "nonpayable",
      "type": "function"
    },
    {
      "inputs": [
        {
          "internalType": "address",
          "name": "_approved",
          "type": "address"
        },
        {
          "internalType": "uint256",
          "name": "_tokenId",
          "type": "uint256"
        }
      ],
      "name": "approve",
      "outputs": [],
      "stateMutability": "nonpayable",
      "type": "function"
    },
    {
      "inputs": [
        {
          "internalType": "address",
          "name": "_keyOwner",
          "type": "address"
        }
      ],
      "name": "balanceOf",
      "outputs": [
        {
          "internalType": "uint256",
          "name": "balance",
          "type": "uint256"
        }
      ],
      "stateMutability": "view",
      "type": "function"
    },
    {
      "inputs": [
        {
          "internalType": "uint256",
          "name": "_tokenId",
          "type": "uint256"
        }
      ],
      "name": "burn",
      "outputs": [],
      "stateMutability": "nonpayable",
      "type": "function"
    },
    {
      "inputs": [
        {
          "internalType": "uint256",
          "name": "_tokenId",
          "type": "uint256"
        }
      ],
      "name": "cancelAndRefund",
      "outputs": [],
      "stateMutability": "nonpayable",
      "type": "function"
    },
    {
      "inputs": [],
      "name": "expirationDuration",
      "outputs": [
        {
          "internalType": "uint256",
          "name": "",
          "type": "uint256"
        }
      ],
      "stateMutability": "view",
      "type": "function"
    },
    {
      "inputs": [
        {
          "internalType": "uint256",
          "name": "_tokenId",
          "type": "uint256"
        },
        {
          "internalType": "uint256",
          "name": "_amount",
          "type": "uint256"
        }
      ],
      "name": "expireAndRefundFor",
      "outputs": [],
      "stateMutability": "nonpayable",
      "type": "function"
    },
    {
      "inputs": [
        {
          "internalType": "uint256",
          "name": "_value",
          "type": "uint256"
        },
        {
          "internalType": "uint256",
          "name": "_tokenId",
          "type": "uint256"
        },
        {
          "internalType": "address",
          "name": "_referrer",
          "type": "address"
        },
        {
          "internalType": "bytes",
          "name": "_data",
          "type": "bytes"
        }
      ],
      "name": "extend",
      "outputs": [],
      "stateMutability": "payable",
      "type": "function"
    },
    {
      "inputs": [],
      "name": "freeTrialLength",
      "outputs": [
        {
          "internalType": "uint256",
          "name": "",
          "type": "uint256"
        }
      ],
      "stateMutability": "view",
      "type": "function"
    },
    {
      "inputs": [],
      "name": "gasRefundValue",
      "outputs": [
        {
          "internalType": "uint256",
          "name": "_refundValue",
          "type": "uint256"
        }
      ],
      "stateMutability": "view",
      "type": "function"
    },
    {
      "inputs": [
        {
          "internalType": "uint256",
          "name": "_tokenId",
          "type": "uint256"
        }
      ],
      "name": "getApproved",
      "outputs": [
        {
          "internalType": "address",
          "name": "",
          "type": "address"
        }
      ],
      "stateMutability": "view",
      "type": "function"
    },
    {
      "inputs": [
        {
          "internalType": "uint256",
          "name": "_tokenId",
          "type": "uint256"
        }
      ],
      "name": "getCancelAndRefundValue",
      "outputs": [
        {
          "internalType": "uint256",
          "name": "refund",
          "type": "uint256"
        }
      ],
      "stateMutability": "view",
      "type": "function"
    },
    {
      "inputs": [
        {
          "internalType": "address",
          "name": "_keyOwner",
          "type": "address"
        }
      ],
      "name": "getHasValidKey",
      "outputs": [
        {
          "internalType": "bool",
          "name": "isValid",
          "type": "bool"
        }
      ],
      "stateMutability": "view",
      "type": "function"
    },
    {
      "inputs": [
        {
          "internalType": "bytes32",
          "name": "role",
          "type": "bytes32"
        }
      ],
      "name": "getRoleAdmin",
      "outputs": [
        {
          "internalType": "bytes32",
          "name": "",
          "type": "bytes32"
        }
      ],
      "stateMutability": "view",
      "type": "function"
    },
    {
      "inputs": [
        {
          "internalType": "uint256",
          "name": "_tokenId",
          "type": "uint256"
        },
        {
          "internalType": "uint256",
          "name": "_time",
          "type": "uint256"
        }
      ],
      "name": "getTransferFee",
      "outputs": [
        {
          "internalType": "uint256",
          "name": "",
          "type": "uint256"
        }
      ],
      "stateMutability": "view",
      "type": "function"
    },
    {
      "inputs": [
        {
          "internalType": "uint256",
          "name": "_tokenId",
          "type": "uint256"
        },
        {
          "internalType": "uint256",
          "name": "_duration",
          "type": "uint256"
        }
      ],
      "name": "grantKeyExtension",
      "outputs": [],
      "stateMutability": "nonpayable",
      "type": "function"
    },
    {
      "inputs": [
        {
          "internalType": "address[]",
          "name": "_recipients",
          "type": "address[]"
        },
        {
          "internalType": "uint256[]",
          "name": "_expirationTimestamps",
          "type": "uint256[]"
        },
        {
          "internalType": "address[]",
          "name": "_keyManagers",
          "type": "address[]"
        }
      ],
      "name": "grantKeys",
      "outputs": [
        {
          "internalType": "uint256[]",
          "name": "",
          "type": "uint256[]"
        }
      ],
      "stateMutability": "nonpayable",
      "type": "function"
    },
    {
      "inputs": [
        {
          "internalType": "bytes32",
          "name": "role",
          "type": "bytes32"
        },
        {
          "internalType": "address",
          "name": "account",
          "type": "address"
        }
      ],
      "name": "grantRole",
      "outputs": [],
      "stateMutability": "nonpayable",
      "type": "function"
    },
    {
      "inputs": [
        {
          "internalType": "bytes32",
          "name": "role",
          "type": "bytes32"
        },
        {
          "internalType": "address",
          "name": "account",
          "type": "address"
        }
      ],
      "name": "hasRole",
      "outputs": [
        {
          "internalType": "bool",
          "name": "",
          "type": "bool"
        }
      ],
      "stateMutability": "view",
      "type": "function"
    },
    {
      "inputs": [
        {
          "internalType": "address payable",
          "name": "_lockCreator",
          "type": "address"
        },
        {
          "internalType": "uint256",
          "name": "_expirationDuration",
          "type": "uint256"
        },
        {
          "internalType": "address",
          "name": "_tokenAddress",
          "type": "address"
        },
        {
          "internalType": "uint256",
          "name": "_keyPrice",
          "type": "uint256"
        },
        {
          "internalType": "uint256",
          "name": "_maxNumberOfKeys",
          "type": "uint256"
        },
        {
          "internalType": "string",
          "name": "_lockName",
          "type": "string"
        }
      ],
      "name": "initialize",
      "outputs": [],
      "stateMutability": "nonpayable",
      "type": "function"
    },
    {
      "inputs": [
        {
          "internalType": "address",
          "name": "_owner",
          "type": "address"
        },
        {
          "internalType": "address",
          "name": "_operator",
          "type": "address"
        }
      ],
      "name": "isApprovedForAll",
      "outputs": [
        {
          "internalType": "bool",
          "name": "",
          "type": "bool"
        }
      ],
      "stateMutability": "view",
      "type": "function"
    },
    {
      "inputs": [
        {
          "internalType": "address",
          "name": "account",
          "type": "address"
        }
      ],
      "name": "isLockManager",
      "outputs": [
        {
          "internalType": "bool",
          "name": "",
          "type": "bool"
        }
      ],
      "stateMutability": "view",
      "type": "function"
    },
    {
      "inputs": [
        {
          "internalType": "address",
          "name": "account",
          "type": "address"
        }
      ],
      "name": "isOwner",
      "outputs": [
        {
          "internalType": "bool",
          "name": "",
          "type": "bool"
        }
      ],
      "stateMutability": "view",
      "type": "function"
    },
    {
      "inputs": [
        {
          "internalType": "uint256",
          "name": "_tokenId",
          "type": "uint256"
        },
        {
          "internalType": "address",
          "name": "_referrer",
          "type": "address"
        }
      ],
      "name": "isRenewable",
      "outputs": [
        {
          "internalType": "bool",
          "name": "",
          "type": "bool"
        }
      ],
      "stateMutability": "view",
      "type": "function"
    },
    {
      "inputs": [
        {
          "internalType": "uint256",
          "name": "_tokenId",
          "type": "uint256"
        }
      ],
      "name": "isValidKey",
      "outputs": [
        {
          "internalType": "bool",
          "name": "",
          "type": "bool"
        }
      ],
      "stateMutability": "view",
      "type": "function"
    },
    {
      "inputs": [
        {
          "internalType": "uint256",
          "name": "_tokenId",
          "type": "uint256"
        }
      ],
      "name": "keyExpirationTimestampFor",
      "outputs": [
        {
          "internalType": "uint256",
          "name": "",
          "type": "uint256"
        }
      ],
      "stateMutability": "view",
      "type": "function"
    },
    {
      "inputs": [
        {
          "internalType": "uint256",
          "name": "",
          "type": "uint256"
        }
      ],
      "name": "keyManagerOf",
      "outputs": [
        {
          "internalType": "address",
          "name": "",
          "type": "address"
        }
      ],
      "stateMutability": "view",
      "type": "function"
    },
    {
      "inputs": [],
      "name": "keyPrice",
      "outputs": [
        {
          "internalType": "uint256",
          "name": "",
          "type": "uint256"
        }
      ],
      "stateMutability": "view",
      "type": "function"
    },
    {
      "inputs": [
        {
          "internalType": "address",
          "name": "_from",
          "type": "address"
        },
        {
          "internalType": "address",
          "name": "_recipient",
          "type": "address"
        },
        {
          "internalType": "uint256",
          "name": "_tokenId",
          "type": "uint256"
        }
      ],
      "name": "lendKey",
      "outputs": [],
      "stateMutability": "nonpayable",
      "type": "function"
    },
    {
      "inputs": [],
      "name": "maxKeysPerAddress",
      "outputs": [
        {
          "internalType": "uint256",
          "name": "",
          "type": "uint256"
        }
      ],
      "stateMutability": "view",
      "type": "function"
    },
    {
      "inputs": [],
      "name": "maxNumberOfKeys",
      "outputs": [
        {
          "internalType": "uint256",
          "name": "",
          "type": "uint256"
        }
      ],
      "stateMutability": "view",
      "type": "function"
    },
    {
      "inputs": [
        {
          "internalType": "uint256",
          "name": "_tokenIdFrom",
          "type": "uint256"
        },
        {
          "internalType": "uint256",
          "name": "_tokenIdTo",
          "type": "uint256"
        },
        {
          "internalType": "uint256",
          "name": "_amount",
          "type": "uint256"
        }
      ],
      "name": "mergeKeys",
      "outputs": [],
      "stateMutability": "nonpayable",
      "type": "function"
    },
    {
      "inputs": [
        {
          "internalType": "bytes",
          "name": "",
          "type": "bytes"
        }
      ],
      "name": "migrate",
      "outputs": [],
      "stateMutability": "nonpayable",
      "type": "function"
    },
    {
      "inputs": [],
      "name": "name",
      "outputs": [
        {
          "internalType": "string",
          "name": "",
          "type": "string"
        }
      ],
      "stateMutability": "view",
      "type": "function"
    },
    {
      "inputs": [],
      "name": "numberOfOwners",
      "outputs": [
        {
          "internalType": "uint256",
          "name": "",
          "type": "uint256"
        }
      ],
      "stateMutability": "view",
      "type": "function"
    },
    {
      "inputs": [],
      "name": "onKeyCancelHook",
      "outputs": [
        {
          "internalType": "contract ILockKeyCancelHook",
          "name": "",
          "type": "address"
        }
      ],
      "stateMutability": "view",
      "type": "function"
    },
    {
      "inputs": [],
      "name": "onKeyExtendHook",
      "outputs": [
        {
          "internalType": "contract ILockKeyExtendHook",
          "name": "",
          "type": "address"
        }
      ],
      "stateMutability": "view",
      "type": "function"
    },
    {
      "inputs": [],
      "name": "onKeyGrantHook",
      "outputs": [
        {
          "internalType": "contract ILockKeyGrantHook",
          "name": "",
          "type": "address"
        }
      ],
      "stateMutability": "view",
      "type": "function"
    },
    {
      "inputs": [],
      "name": "onKeyPurchaseHook",
      "outputs": [
        {
          "internalType": "contract ILockKeyPurchaseHook",
          "name": "",
          "type": "address"
        }
      ],
      "stateMutability": "view",
      "type": "function"
    },
    {
      "inputs": [],
      "name": "onKeyTransferHook",
      "outputs": [
        {
          "internalType": "contract ILockKeyTransferHook",
          "name": "",
          "type": "address"
        }
      ],
      "stateMutability": "view",
      "type": "function"
    },
    {
      "inputs": [],
      "name": "onTokenURIHook",
      "outputs": [
        {
          "internalType": "contract ILockTokenURIHook",
          "name": "",
          "type": "address"
        }
      ],
      "stateMutability": "view",
      "type": "function"
    },
    {
      "inputs": [],
      "name": "onValidKeyHook",
      "outputs": [
        {
          "internalType": "contract ILockValidKeyHook",
          "name": "",
          "type": "address"
        }
      ],
      "stateMutability": "view",
      "type": "function"
    },
    {
      "inputs": [],
      "name": "owner",
      "outputs": [
        {
          "internalType": "address",
          "name": "",
          "type": "address"
        }
      ],
      "stateMutability": "view",
      "type": "function"
    },
    {
      "inputs": [
        {
          "internalType": "uint256",
          "name": "_tokenId",
          "type": "uint256"
        }
      ],
      "name": "ownerOf",
      "outputs": [
        {
          "internalType": "address",
          "name": "",
          "type": "address"
        }
      ],
      "stateMutability": "view",
      "type": "function"
    },
    {
      "inputs": [],
      "name": "publicLockVersion",
      "outputs": [
        {
          "internalType": "uint16",
          "name": "",
          "type": "uint16"
        }
      ],
      "stateMutability": "pure",
      "type": "function"
    },
    {
      "inputs": [
        {
          "internalType": "uint256[]",
          "name": "_values",
          "type": "uint256[]"
        },
        {
          "internalType": "address[]",
          "name": "_recipients",
          "type": "address[]"
        },
        {
          "internalType": "address[]",
          "name": "_referrers",
          "type": "address[]"
        },
        {
          "internalType": "address[]",
          "name": "_keyManagers",
          "type": "address[]"
        },
        {
          "internalType": "bytes[]",
          "name": "_data",
          "type": "bytes[]"
        }
      ],
      "name": "purchase",
      "outputs": [
        {
          "internalType": "uint256[]",
          "name": "",
          "type": "uint256[]"
        }
      ],
      "stateMutability": "payable",
      "type": "function"
    },
    {
      "inputs": [
        {
          "internalType": "address",
          "name": "_recipient",
          "type": "address"
        },
        {
          "internalType": "address",
          "name": "_referrer",
          "type": "address"
        },
        {
          "internalType": "bytes",
          "name": "_data",
          "type": "bytes"
        }
      ],
      "name": "purchasePriceFor",
      "outputs": [
        {
          "internalType": "uint256",
          "name": "minKeyPrice",
          "type": "uint256"
        }
      ],
      "stateMutability": "view",
      "type": "function"
    },
    {
      "inputs": [
        {
          "internalType": "address",
          "name": "",
          "type": "address"
        }
      ],
      "name": "referrerFees",
      "outputs": [
        {
          "internalType": "uint256",
          "name": "",
          "type": "uint256"
        }
      ],
      "stateMutability": "view",
      "type": "function"
    },
    {
      "inputs": [],
      "name": "refundPenaltyBasisPoints",
      "outputs": [
        {
          "internalType": "uint256",
          "name": "",
          "type": "uint256"
        }
      ],
      "stateMutability": "view",
      "type": "function"
    },
    {
      "inputs": [
        {
          "internalType": "uint256",
          "name": "_tokenId",
          "type": "uint256"
        },
        {
          "internalType": "address",
          "name": "_referrer",
          "type": "address"
        }
      ],
      "name": "renewMembershipFor",
      "outputs": [],
      "stateMutability": "nonpayable",
      "type": "function"
    },
    {
      "inputs": [],
      "name": "renounceLockManager",
      "outputs": [],
      "stateMutability": "nonpayable",
      "type": "function"
    },
    {
      "inputs": [
        {
          "internalType": "bytes32",
          "name": "role",
          "type": "bytes32"
        },
        {
          "internalType": "address",
          "name": "account",
          "type": "address"
        }
      ],
      "name": "renounceRole",
      "outputs": [],
      "stateMutability": "nonpayable",
      "type": "function"
    },
    {
      "inputs": [
        {
          "internalType": "bytes32",
          "name": "role",
          "type": "bytes32"
        },
        {
          "internalType": "address",
          "name": "account",
          "type": "address"
        }
      ],
      "name": "revokeRole",
      "outputs": [],
      "stateMutability": "nonpayable",
      "type": "function"
    },
    {
      "inputs": [
        {
          "internalType": "address",
          "name": "_from",
          "type": "address"
        },
        {
          "internalType": "address",
          "name": "_to",
          "type": "address"
        },
        {
          "internalType": "uint256",
          "name": "_tokenId",
          "type": "uint256"
        }
      ],
      "name": "safeTransferFrom",
      "outputs": [],
      "stateMutability": "nonpayable",
      "type": "function"
    },
    {
      "inputs": [
        {
          "internalType": "address",
          "name": "_from",
          "type": "address"
        },
        {
          "internalType": "address",
          "name": "_to",
          "type": "address"
        },
        {
          "internalType": "uint256",
          "name": "_tokenId",
          "type": "uint256"
        },
        {
          "internalType": "bytes",
          "name": "_data",
          "type": "bytes"
        }
      ],
      "name": "safeTransferFrom",
      "outputs": [],
      "stateMutability": "nonpayable",
      "type": "function"
    },
    {
      "inputs": [],
      "name": "schemaVersion",
      "outputs": [
        {
          "internalType": "uint256",
          "name": "",
          "type": "uint256"
        }
      ],
      "stateMutability": "view",
      "type": "function"
    },
    {
      "inputs": [
        {
          "internalType": "address",
          "name": "_to",
          "type": "address"
        },
        {
          "internalType": "bool",
          "name": "_approved",
          "type": "bool"
        }
      ],
      "name": "setApprovalForAll",
      "outputs": [],
      "stateMutability": "nonpayable",
      "type": "function"
    },
    {
      "inputs": [
        {
          "internalType": "address",
          "name": "_onKeyPurchaseHook",
          "type": "address"
        },
        {
          "internalType": "address",
          "name": "_onKeyCancelHook",
          "type": "address"
        },
        {
          "internalType": "address",
          "name": "_onValidKeyHook",
          "type": "address"
        },
        {
          "internalType": "address",
          "name": "_onTokenURIHook",
          "type": "address"
        },
        {
          "internalType": "address",
          "name": "_onKeyTransferHook",
          "type": "address"
        },
        {
          "internalType": "address",
          "name": "_onKeyExtendHook",
          "type": "address"
        },
        {
          "internalType": "address",
          "name": "_onKeyGrantHook",
          "type": "address"
        }
      ],
      "name": "setEventHooks",
      "outputs": [],
      "stateMutability": "nonpayable",
      "type": "function"
    },
    {
      "inputs": [
        {
          "internalType": "uint256",
          "name": "_refundValue",
          "type": "uint256"
        }
      ],
      "name": "setGasRefundValue",
      "outputs": [],
      "stateMutability": "nonpayable",
      "type": "function"
    },
    {
      "inputs": [
        {
          "internalType": "uint256",
          "name": "_tokenId",
          "type": "uint256"
        },
        {
          "internalType": "uint256",
          "name": "_newExpiration",
          "type": "uint256"
        }
      ],
      "name": "setKeyExpiration",
      "outputs": [],
      "stateMutability": "nonpayable",
      "type": "function"
    },
    {
      "inputs": [
        {
          "internalType": "uint256",
          "name": "_tokenId",
          "type": "uint256"
        },
        {
          "internalType": "address",
          "name": "_keyManager",
          "type": "address"
        }
      ],
      "name": "setKeyManagerOf",
      "outputs": [],
      "stateMutability": "nonpayable",
      "type": "function"
    },
    {
      "inputs": [
        {
          "internalType": "string",
          "name": "_lockName",
          "type": "string"
        },
        {
          "internalType": "string",
          "name": "_lockSymbol",
          "type": "string"
        },
        {
          "internalType": "string",
          "name": "_baseTokenURI",
          "type": "string"
        }
      ],
      "name": "setLockMetadata",
      "outputs": [],
      "stateMutability": "nonpayable",
      "type": "function"
    },
    {
      "inputs": [
        {
          "internalType": "address",
          "name": "account",
          "type": "address"
        }
      ],
      "name": "setOwner",
      "outputs": [],
      "stateMutability": "nonpayable",
      "type": "function"
    },
    {
      "inputs": [
        {
          "internalType": "address",
          "name": "_referrer",
          "type": "address"
        },
        {
          "internalType": "uint256",
          "name": "_feeBasisPoint",
          "type": "uint256"
        }
      ],
      "name": "setReferrerFee",
      "outputs": [],
      "stateMutability": "nonpayable",
      "type": "function"
    },
    {
      "inputs": [
        {
          "internalType": "address",
          "name": "_to",
          "type": "address"
        },
        {
          "internalType": "uint256",
          "name": "_tokenIdFrom",
          "type": "uint256"
        },
        {
          "internalType": "uint256",
          "name": "_timeShared",
          "type": "uint256"
        }
      ],
      "name": "shareKey",
      "outputs": [],
      "stateMutability": "nonpayable",
      "type": "function"
    },
    {
      "inputs": [
        {
          "internalType": "bytes4",
          "name": "interfaceId",
          "type": "bytes4"
        }
      ],
      "name": "supportsInterface",
      "outputs": [
        {
          "internalType": "bool",
          "name": "",
          "type": "bool"
        }
      ],
      "stateMutability": "view",
      "type": "function"
    },
    {
      "inputs": [],
      "name": "symbol",
      "outputs": [
        {
          "internalType": "string",
          "name": "",
          "type": "string"
        }
      ],
      "stateMutability": "view",
      "type": "function"
    },
    {
      "inputs": [],
      "name": "tokenAddress",
      "outputs": [
        {
          "internalType": "address",
          "name": "",
          "type": "address"
        }
      ],
      "stateMutability": "view",
      "type": "function"
    },
    {
      "inputs": [
        {
          "internalType": "uint256",
          "name": "_index",
          "type": "uint256"
        }
      ],
      "name": "tokenByIndex",
      "outputs": [
        {
          "internalType": "uint256",
          "name": "",
          "type": "uint256"
        }
      ],
      "stateMutability": "view",
      "type": "function"
    },
    {
      "inputs": [
        {
          "internalType": "address",
          "name": "_keyOwner",
          "type": "address"
        },
        {
          "internalType": "uint256",
          "name": "_index",
          "type": "uint256"
        }
      ],
      "name": "tokenOfOwnerByIndex",
      "outputs": [
        {
          "internalType": "uint256",
          "name": "",
          "type": "uint256"
        }
      ],
      "stateMutability": "view",
      "type": "function"
    },
    {
      "inputs": [
        {
          "internalType": "uint256",
          "name": "_tokenId",
          "type": "uint256"
        }
      ],
      "name": "tokenURI",
      "outputs": [
        {
          "internalType": "string",
          "name": "",
          "type": "string"
        }
      ],
      "stateMutability": "view",
      "type": "function"
    },
    {
      "inputs": [
        {
          "internalType": "address",
          "name": "_keyOwner",
          "type": "address"
        }
      ],
      "name": "totalKeys",
      "outputs": [
        {
          "internalType": "uint256",
          "name": "",
          "type": "uint256"
        }
      ],
      "stateMutability": "view",
      "type": "function"
    },
    {
      "inputs": [],
      "name": "totalSupply",
      "outputs": [
        {
          "internalType": "uint256",
          "name": "_totalKeysCreated",
          "type": "uint256"
        }
      ],
      "stateMutability": "view",
      "type": "function"
    },
    {
      "inputs": [],
      "name": "transferFeeBasisPoints",
      "outputs": [
        {
          "internalType": "uint256",
          "name": "",
          "type": "uint256"
        }
      ],
      "stateMutability": "view",
      "type": "function"
    },
    {
      "inputs": [
        {
          "internalType": "address",
          "name": "_from",
          "type": "address"
        },
        {
          "internalType": "address",
          "name": "_recipient",
          "type": "address"
        },
        {
          "internalType": "uint256",
          "name": "_tokenId",
          "type": "uint256"
        }
      ],
      "name": "transferFrom",
      "outputs": [],
      "stateMutability": "nonpayable",
      "type": "function"
    },
    {
      "inputs": [
        {
          "internalType": "address",
          "name": "_recipient",
          "type": "address"
        },
        {
          "internalType": "uint256",
          "name": "_tokenId",
          "type": "uint256"
        }
      ],
      "name": "unlendKey",
      "outputs": [],
      "stateMutability": "nonpayable",
      "type": "function"
    },
    {
      "inputs": [],
      "name": "unlockProtocol",
      "outputs": [
        {
          "internalType": "contract IUnlock",
          "name": "",
          "type": "address"
        }
      ],
      "stateMutability": "view",
      "type": "function"
    },
    {
      "inputs": [
        {
          "internalType": "uint256",
          "name": "_keyPrice",
          "type": "uint256"
        },
        {
          "internalType": "address",
          "name": "_tokenAddress",
          "type": "address"
        }
      ],
      "name": "updateKeyPricing",
      "outputs": [],
      "stateMutability": "nonpayable",
      "type": "function"
    },
    {
      "inputs": [
        {
          "internalType": "uint256",
          "name": "_newExpirationDuration",
          "type": "uint256"
        },
        {
          "internalType": "uint256",
          "name": "_maxNumberOfKeys",
          "type": "uint256"
        },
        {
          "internalType": "uint256",
          "name": "_maxKeysPerAcccount",
          "type": "uint256"
        }
      ],
      "name": "updateLockConfig",
      "outputs": [],
      "stateMutability": "nonpayable",
      "type": "function"
    },
    {
      "inputs": [
        {
          "internalType": "uint256",
          "name": "_freeTrialLength",
          "type": "uint256"
        },
        {
          "internalType": "uint256",
          "name": "_refundPenaltyBasisPoints",
          "type": "uint256"
        }
      ],
      "name": "updateRefundPenalty",
      "outputs": [],
      "stateMutability": "nonpayable",
      "type": "function"
    },
    {
      "inputs": [],
      "name": "updateSchemaVersion",
      "outputs": [],
      "stateMutability": "nonpayable",
      "type": "function"
    },
    {
      "inputs": [
        {
          "internalType": "uint256",
          "name": "_transferFeeBasisPoints",
          "type": "uint256"
        }
      ],
      "name": "updateTransferFee",
      "outputs": [],
      "stateMutability": "nonpayable",
      "type": "function"
    },
    {
      "inputs": [
        {
          "internalType": "address",
          "name": "_tokenAddress",
          "type": "address"
        },
        {
          "internalType": "address payable",
          "name": "_recipient",
          "type": "address"
        },
        {
          "internalType": "uint256",
          "name": "_amount",
          "type": "uint256"
        }
      ],
      "name": "withdraw",
      "outputs": [],
      "stateMutability": "nonpayable",
      "type": "function"
    },
    {
      "stateMutability": "payable",
      "type": "receive"
    }
  ],
  "bytecode": "0x608060405234801561000f575f80fd5b50615d00806200001e5f395ff3fe60806040526004361061041a575f3560e01c806374b6c1061161021b578063b129694e11610121578063d52e4a10116100af578063d52e4a1014610d14578063d547741f14610d29578063d813cc1914610d48578063d9caed1214610d5b578063debe2b0d14610d7a578063dec0f27814610d99578063e985e9c514610db8578063f0ba604014610dd7578063f12c6b6e14610deb578063f32e8b2414610e0a578063f5766b3914610e1e575f80fd5b8063b129694e14610bd3578063b1a3b25d14610bf3578063b88d4fde14610c12578063c23135dd14610c31578063c87b56dd14610c5d578063c907c3ec14610c7c578063d1b8759b14610c9c578063d1bbd49c14610cbb578063d250348514610cd6578063d32bfb6c14610cf5575f80fd5b806392ac98a5116101a957806392ac98a514610aa657806393fd184414610ac557806395d89b4114610adb5780639d76ea5814610aef578063a217fddf14610b0f578063a22cb46514610b22578063a2e4cd2e14610b41578063a375cb0514610b60578063a98d362314610b76578063aae4b8f714610b95578063b11d7ec114610bb4575f80fd5b806374b6c1061461097957806374cac47d1461098f5780637ec2a724146109ae578063812eecd4146109ce57806381a3c943146109ed5780638505fe9514610a0c5780638577a6d514610a2b5780638932a90d14610a4a5780638da5cb5b14610a6957806391d1485414610a87575f80fd5b80632f745c59116103205780634e2ce6d3116102ae5780634e2ce6d3146108305780634f6ccce71461084657806350878a471461086557806354b249fb14610884578063558b71e9146108b357806356e0d51f146108d25780636207a8da146108e85780636352211e146108fd5780636d8ea5b41461091c5780636eadde431461093b57806370a082311461095a575f80fd5b80632f745c59146106e2578063338189971461070157806336568abe14610721578063389f07e81461074057806339f4698614610760578063407dc5891461077f57806342842e0e1461079e57806342966c68146107bd5780634cd38c1d146107dc5780634d025fed146107fb575f80fd5b806313af4035116103a857806313af40351461057e57806318160ddd1461059d578063183767da146105b2578063217751bc146105c857806323b872dd146105e8578063248a9ca31461060757806326e9ca0714610635578063282478df146106555780632d33dd5b146106745780632f2ff15d146106945780632f54bf6e146106b3575f80fd5b806301ffc9a714610425578063068208cd1461045957806306fdde031461047a578063081812fc1461049b578063095ea7b3146104c7578063097ba333146104e65780630c2db8d1146105135780630f15023b1461053257806310e569731461055257806311a4c03a14610568575f80fd5b3661042157005b5f80fd5b348015610430575f80fd5b5061044461043f366004614d9d565b610e3d565b60405190151581526020015b60405180910390f35b348015610464575f80fd5b50610478610473366004614db8565b610e4d565b005b348015610485575f80fd5b5061048e610eca565b6040516104509190614e2e565b3480156104a6575f80fd5b506104ba6104b5366004614e40565b610f57565b6040516104509190614e57565b3480156104d2575f80fd5b506104786104e1366004614e7f565b610f7d565b3480156104f1575f80fd5b50610505610500366004614f65565b611017565b604051908152602001610450565b34801561051e575f80fd5b5061047861052d366004614fc2565b6110b5565b34801561053d575f80fd5b50610c83546104ba906001600160a01b031681565b34801561055d575f80fd5b50610505610c855481565b348015610573575f80fd5b50610505610c845481565b348015610589575f80fd5b50610478610598366004615000565b611109565b3480156105a8575f80fd5b50610c8754610505565b3480156105bd575f80fd5b506105056124075481565b3480156105d3575f80fd5b50610c8a546104ba906001600160a01b031681565b3480156105f3575f80fd5b50610478610602366004614fc2565b61119a565b348015610612575f80fd5b50610505610621366004614e40565b5f9081526097602052604090206001015490565b348015610640575f80fd5b50610c8b546104ba906001600160a01b031681565b348015610660575f80fd5b5061047861066f366004614db8565b6111ca565b34801561067f575f80fd5b50610c89546104ba906001600160a01b031681565b34801561069f575f80fd5b506104786106ae36600461501b565b61126e565b3480156106be575f80fd5b506104446106cd366004615000565b612bda546001600160a01b0390811691161490565b3480156106ed575f80fd5b506105056106fc366004614e7f565b611292565b61071461070f366004615176565b6112e4565b6040516104509190615244565b34801561072c575f80fd5b5061047861073b36600461501b565b6116b4565b34801561074b575f80fd5b50610c8f546104ba906001600160a01b031681565b34801561076b575f80fd5b5061047861077a366004615287565b611737565b34801561078a575f80fd5b50610478610799366004614e7f565b611785565b3480156107a9575f80fd5b506104786107b8366004614fc2565b6117cf565b3480156107c8575f80fd5b506104786107d7366004614e40565b6117e9565b3480156107e7575f80fd5b506104786107f6366004615287565b611826565b348015610806575f80fd5b506104ba610815366004614e40565b6110786020525f90815260409020546001600160a01b031681565b34801561083b575f80fd5b50610505610c8d5481565b348015610851575f80fd5b50610505610860366004614e40565b611889565b348015610870575f80fd5b5061044461087f36600461501b565b6118b1565b34801561088f575f80fd5b5061050561089e366004614e40565b5f90815261107b602052604090206001015490565b3480156108be575f80fd5b506104786108cd366004615287565b6119ff565b3480156108dd575f80fd5b506105056127f05481565b3480156108f3575f80fd5b5061201e54610505565b348015610908575f80fd5b506104ba610917366004614e40565b611a23565b348015610927575f80fd5b50610444610936366004615000565b611a3e565b348015610946575f80fd5b506104786109553660046152e4565b611ade565b348015610965575f80fd5b50610505610974366004615000565b611c57565b348015610984575f80fd5b50610505610c865481565b34801561099a575f80fd5b506104786109a9366004615363565b611c96565b3480156109b9575f80fd5b50610c8c546104ba906001600160a01b031681565b3480156109d9575f80fd5b506105056109e8366004615000565b611f76565b3480156109f8575f80fd5b50610714610a073660046153f4565b611f91565b348015610a17575f80fd5b50610478610a2636600461501b565b6121f8565b348015610a36575f80fd5b50610478610a45366004614e40565b61225e565b348015610a55575f80fd5b50610478610a64366004615467565b61229f565b348015610a74575f80fd5b50612bda546001600160a01b03166104ba565b348015610a92575f80fd5b50610444610aa136600461501b565b6123a4565b348015610ab1575f80fd5b50610505610ac0366004614e40565b6123ce565b348015610ad0575f80fd5b506105056110775481565b348015610ae6575f80fd5b5061048e6124b8565b348015610afa575f80fd5b506104b1546104ba906001600160a01b031681565b348015610b1a575f80fd5b506105055f81565b348015610b2d575f80fd5b50610478610b3c3660046154b2565b6125db565b348015610b4c575f80fd5b50610478610b5b36600461501b565b612678565b348015610b6b575f80fd5b506105056127f15481565b348015610b81575f80fd5b50610444610b90366004614e40565b612706565b348015610ba0575f80fd5b50610444610baf366004615000565b6127c6565b348015610bbf575f80fd5b50610478610bce36600461501b565b6127de565b348015610bde575f80fd5b50610c91546104ba906001600160a01b031681565b348015610bfe575f80fd5b50610505610c0d366004615287565b61282c565b348015610c1d575f80fd5b50610478610c2c3660046154de565b6128a1565b348015610c3c575f80fd5b50610505610c4b366004615000565b6120226020525f908152604090205481565b348015610c68575f80fd5b5061048e610c77366004614e40565b6128db565b348015610c87575f80fd5b50610c90546104ba906001600160a01b031681565b348015610ca7575f80fd5b50610478610cb6366004615545565b612b77565b348015610cc6575f80fd5b50604051600e8152602001610450565b348015610ce1575f80fd5b50610478610cf0366004615000565b612bf5565b348015610d00575f80fd5b50610478610d0f366004614e40565b612c4a565b348015610d1f575f80fd5b50610c8e54610505565b348015610d34575f80fd5b50610478610d4336600461501b565b612c7b565b610478610d563660046155c5565b612c9f565b348015610d66575f80fd5b50610478610d75366004614fc2565b612d63565b348015610d85575f80fd5b50610478610d94366004614e7f565b612e94565b348015610da4575f80fd5b50610478610db3366004615287565b612ef5565b348015610dc3575f80fd5b50610444610dd2366004615629565b612f07565b348015610de2575f80fd5b50610478612f35565b348015610df6575f80fd5b50610478610e05366004615655565b612f78565b348015610e15575f80fd5b50610478613136565b348015610e29575f80fd5b50610478610e38366004614e40565b613146565b5f610e478261318a565b92915050565b610e5683613194565b610e5f836131c5565b610e68836131eb565b610e7182613194565b5f83815261107b6020526040902060010154610e8e90429061569b565b811115610eae576040516310e88eed60e31b815260040160405180910390fd5b610eb983825f6132b1565b610ec5828260016132b1565b505050565b6114638054610ed8906156ae565b80601f0160208091040260200160405190810160405280929190818152602001828054610f04906156ae565b8015610f4f5780601f10610f2657610100808354040283529160200191610f4f565b820191905f5260205f20905b815481529060010190602001808311610f3257829003601f168201915b505050505081565b5f610f6182613194565b505f90815261107960205260409020546001600160a01b031690565b610f86816131eb565b6001600160a01b0382163303610faf57604051637899146560e11b815260040160405180910390fd5b5f8181526110796020908152604080832080546001600160a01b0319166001600160a01b03878116918217909255611076909352818420549151859492909116917f8c5be1e5ebec7d5bd14f71427d1e84f3dd0314c0f7b2291e5b200ac8c7c3b92591a45050565b610c89545f906001600160a01b0316156110a857610c895460405163221c1fd160e01b81526001600160a01b039091169063221c1fd1906110629033908890889088906004016156e0565b602060405180830381865afa15801561107d573d5f803e3d5ffd5b505050506040513d601f19601f820116820180604052508101906110a1919061571d565b90506110ae565b50610c85545b9392505050565b6110bf813361332e565b6110dc5760405163075fd2b160e01b815260040160405180910390fd5b6110e78383836133a3565b5f9081526110786020526040902080546001600160a01b031916331790555050565b61111161356a565b6001600160a01b038116611138576040516330c6e09f60e21b815260040160405180910390fd5b612bda80546001600160a01b038381166001600160a01b031983168117909355604080519190921680825260208201939093527f8be0079c531659141344cd1fd0a4f28419497f9722a3daafe3b4186f6b6457e0910160405180910390a15050565b6111a3816131eb565b5f8181526110786020526040902080546001600160a01b0319169055610ec58383836133a3565b6111d261356a565b805f036111f25760405163e03b033d60e01b815260040160405180910390fd5b610c875482101561121657604051631d00cd6b60e01b815260040160405180910390fd5b610c8e819055610c84839055610c8682905560408051848152602081018490529081018290527f9a09448a3f24d3a01ccc67103c7cddbeea820176a18182cc83d0bce585f26a5b9060600160405180910390a1505050565b5f82815260976020526040902060010154611288816135a0565b610ec583836135aa565b5f61129c83611f76565b82106112bb57604051630471175760e11b815260040160405180910390fd5b506001600160a01b03919091165f90815261107c60209081526040808320938352929052205490565b60606112ee61362f565b610c86548651610c87546113029190615734565b1115611321576040516331af695160e01b815260040160405180910390fd5b8451865114158061133457508351865114155b15611352576040516376b3b52560e11b815260040160405180910390fd5b5f8087516001600160401b0381111561136d5761136d614ea9565b604051908082528060200260200182016040528015611396578160200160208202803683370190505b5090505f5b885181101561164c575f8982815181106113b7576113b7615747565b60200260200101519050611404818984815181106113d7576113d7615747565b60200260200101515f19610c8454146113fd57610c84546113f89042615734565b613653565b5f19613653565b83838151811061141657611416615747565b6020026020010181815250505f61149e828b858151811061143957611439615747565b60200260200101518a8a8781811061145357611453615747565b9050602002810190611465919061575b565b8080601f0160208091040260200160405190810160405280939291908181526020018383808284375f9201919091525061101792505050565b90506114aa8186615734565b94506114cf8484815181106114c1576114c1615747565b60200260200101518261370d565b6104b1546001600160a01b031615611504576115048c84815181106114f6576114f6615747565b6020026020010151826137b8565b611527818b858151811061151a5761151a615747565b60200260200101516137d9565b6104b1545f906001600160a01b03161561155a578c848151811061154d5761154d615747565b602002602001015161155c565b345b610c89549091506001600160a01b03161561163657610c895485516001600160a01b0390911690635e895f299087908790811061159b5761159b615747565b602002602001015133868f89815181106115b7576115b7615747565b60200260200101518e8e8b8181106115d1576115d1615747565b90506020028101906115e3919061575b565b89896040518963ffffffff1660e01b815260040161160898979695949392919061579d565b5f604051808303815f87803b15801561161f575f80fd5b505af1158015611631573d5f803e3d5ffd5b505050505b505050808061164490615805565b91505061139b565b5061165733836138a9565b61166082613951565b611668613a42565b5f5b87518110156116a75761169588828151811061168857611688615747565b6020026020010151613ab6565b8061169f81615805565b91505061166a565b5098975050505050505050565b6001600160a01b03811633146117295760405162461bcd60e51b815260206004820152602f60248201527f416363657373436f6e74726f6c3a2063616e206f6e6c792072656e6f756e636560448201526e103937b632b9903337b91039b2b63360891b60648201526084015b60405180910390fd5b6117338282613b5c565b5050565b61173f61356a565b60408051838152602081018390527fd6867bc538320e67d7bdc35860c27c08486eb490b4fd9b820fff18fb28381d3c910160405180910390a16127f1919091556127f055565b5f81815261107860205260409020546001600160a01b031633146117bc5760405163075fd2b160e01b815260040160405180910390fd5b6117336117c882611a23565b83836133a3565b610ec583838360405180602001604052805f8152506128a1565b6117f281613194565b6117fb816131eb565b61180e61180782611a23565b5f836133a3565b610c878054905f61181e8361581d565b919050555050565b61182e61362f565b61183782613194565b61184e5f80516020615c4b833981519152336123a4565b158015611861575061185f336127c6565b155b1561187f57604051631798fedb60e01b815260040160405180910390fd5b610ec58282613bc2565b5f610c875482106118ad57604051630471175760e11b815260040160405180910390fd5b5090565b5f82815261202060205260408120545f1914806118d857506104b1546001600160a01b0316155b156118f657604051636cd40e1160e11b815260040160405180910390fd5b61191761190284611a23565b8360405180602001604052805f815250611017565b5f84815261201f602052604090205410806119425750610c84545f8481526120206020526040902054115b8061196b57506104b1545f84815261202160205260409020546001600160a01b03908116911614155b156119895760405163986739e760e01b815260040160405180910390fd5b5f612710610c845461232861199e9190615832565b6119a89190615849565b610c84545f86815261107b60205260409020600101546119c8919061569b565b6119d29190615734565b9050804210156119f5576040516360d8ec3360e11b815260040160405180910390fd5b5060019392505050565b611a0882613194565b611a11826131c5565b611a1961356a565b6117338282613d19565b5f90815261107660205260409020546001600160a01b031690565b5f80611a4983611c57565b610c8b54911091506001600160a01b031615611ad957610c8b5460405163084fdbc760e31b81526001600160a01b039091169063427ede3890611a9a90309033905f90819089908990600401615868565b602060405180830381865afa158015611ab5573d5f803e3d5ffd5b505050506040513d601f19601f82011682018060405250810190610e4791906158a3565b919050565b5f54610100900460ff1615808015611afc57505f54600160ff909116105b80611b1c5750611b0b30613e30565b158015611b1c57505f5460ff166001145b611b7f5760405162461bcd60e51b815260206004820152602e60248201527f496e697469616c697a61626c653a20636f6e747261637420697320616c72656160448201526d191e481a5b9a5d1a585b1a5e995960921b6064820152608401611720565b5f805460ff191660011790558015611ba0575f805461ff0019166101001790555b611ba986613e3f565b611bb588888787613e6b565b611bbf8383613eac565b611bc7613ed3565b611bd36103e86127f055565b611bdc88613ee3565b612bda80546001600160a01b0319166001600160a01b038a16179055611c086380ac58cd60e01b613f74565b8015611c4d575f805461ff0019169055604051600181527f7f26b83ff96e1f2b6a682f133852f6798a09c465da95921460cefb38474024989060200160405180910390a15b5050505050505050565b5f80611c6283611f76565b90505f5b81811015611c8f57611c7b610b908583611292565b15611c87576001909201915b600101611c66565b5050919050565b611c9e61356a565b6001600160a01b03871615801590611cc55750611cc3876001600160a01b0316613e30565b155b15611ce557604051636788e02b60e01b81525f6004820152602401611720565b6001600160a01b03861615801590611d0c5750611d0a866001600160a01b0316613e30565b155b15611d2d57604051636788e02b60e01b815260016004820152602401611720565b6001600160a01b03851615801590611d545750611d52856001600160a01b0316613e30565b155b15611d7557604051636788e02b60e01b815260026004820152602401611720565b6001600160a01b03841615801590611d9c5750611d9a846001600160a01b0316613e30565b155b15611dbd57604051636788e02b60e01b815260036004820152602401611720565b6001600160a01b03831615801590611de45750611de2836001600160a01b0316613e30565b155b15611e0457604051636788e02b60e01b8152600481810152602401611720565b6001600160a01b03821615801590611e2b5750611e29826001600160a01b0316613e30565b155b15611e4c57604051636788e02b60e01b815260056004820152602401611720565b6001600160a01b03811615801590611e735750611e71816001600160a01b0316613e30565b155b15611e9457604051636788e02b60e01b815260066004820152602401611720565b610c8980546001600160a01b038981166001600160a01b03199283168117909355610c8a80548a83169084168117909155610c8c80548984169085168117909155610c8b80548b85169086168117909155610c8f80548a86169087168117909155610c9080548a87169088168117909155610c918054968a16969097168617909655604080519788526020880194909452928601526060850152608084015260a083019190915260c08201527f0a851288e37fa9a8bc562891998524e95c286fe84f693c1921e0fd0792171af69060e00160405180910390a150505050505050565b6001600160a01b03165f90815261107e602052604090205490565b6060611f9b61362f565b611fb25f80516020615c4b833981519152336123a4565b158015611fc55750611fc3336127c6565b155b15611fe357604051631798fedb60e01b815260040160405180910390fd5b5f866001600160401b03811115611ffc57611ffc614ea9565b604051908082528060200260200182016040528015612025578160200160208202803683370190505b5090505f5b878110156121ec576120a189898381811061204757612047615747565b905060200201602081019061205c9190615000565b86868481811061206e5761206e615747565b90506020020160208101906120839190615000565b89898581811061209557612095615747565b90506020020135613653565b8282815181106120b3576120b3615747565b6020908102919091010152610c91546001600160a01b0316156121da57610c915482516001600160a01b03909116906348a254b8908490849081106120fa576120fa615747565b6020026020010151338c8c8681811061211557612115615747565b905060200201602081019061212a9190615000565b89898781811061213c5761213c615747565b90506020020160208101906121519190615000565b8c8c8881811061216357612163615747565b6040516001600160e01b031960e08a901b16815260048101979097526001600160a01b039586166024880152938516604487015250921660648401526020020135608482015260a4015f604051808303815f87803b1580156121c3575f80fd5b505af11580156121d5573d5f803e3d5ffd5b505050505b806121e481615805565b91505061202a565b50979650505050505050565b61220061362f565b61220982613194565b61221382826118b1565b5061221e825f613bc2565b5061222c610c8554826137d9565b61224161223883611a23565b610c85546138a9565b612249613a42565b61225281613ab6565b611733610c8554613951565b61226661356a565b6040518181527f0496ed1e61eb69727f9659a8e859288db4758ffb1f744d1c1424634f90a257f49060200160405180910390a161240755565b6122ab6001600e6158be565b61ffff16610c8d5414806122c05750610c8d54155b6123095760405162461bcd60e51b815260206004820152601a60248201527914d0d211535057d5915494d253d397d393d517d0d3d4949150d560321b6044820152606401611720565b4660010361239a575f73e79b93f8e22676774f2a8dad469175ebd00029fa9050806001600160a01b031663ed9674bd6040518163ffffffff1660e01b81526004015f604051808303815f87803b158015612361575f80fd5b505af1158015612373573d5f803e3d5ffd5b5050610c8380546001600160a01b0319166001600160a01b03949094169390931790925550505b5050600e610c8d55565b5f9182526097602090815260408084206001600160a01b0393909316845291905290205460ff1690565b5f6123d8826131c5565b5f19610c8454036123ec575050610c855490565b5f82815261107b602052604081206001015461240990429061569b565b9050610c84546127f1548261241e9190615734565b1061242e57610c8554915061244e565b610c845481610c85546124419190615832565b61244b9190615849565b91505b6127f154158061246d5750610c84546127f15461246b9083615734565b105b156124b2575f6127106127f054610c85546124889190615832565b6124929190615849565b9050808311156124ad576124a6818461569b565b9250611c8f565b5f9250505b50919050565b606061146480546124c8906156ae565b90505f0361254c57610c835f9054906101000a90046001600160a01b03166001600160a01b031663cec410526040518163ffffffff1660e01b81526004015f60405180830381865afa158015612520573d5f803e3d5ffd5b505050506040513d5f823e601f3d908101601f1916820160405261254791908101906158d9565b905090565b611464805461255a906156ae565b80601f0160208091040260200160405190810160405280929190818152602001828054612586906156ae565b80156125d15780601f106125a8576101008083540402835291602001916125d1565b820191905f5260205f20905b8154815290600101906020018083116125b457829003601f168201915b5050505050905090565b6125e3613ff2565b336001600160a01b0383160361260c57604051637899146560e11b815260040160405180910390fd5b335f81815261107a602090815260408083206001600160a01b03871680855290835292819020805460ff191686151590811790915590519081529192917f17307eab39ab6107e8899845ad3d59bd9653f200f220920489ca2b5937696c31910160405180910390a35050565b61268061356a565b6126898161402b565b610c8580546104b18054928590556001600160a01b031983166001600160a01b0385811691821790925560408051848152602081018890529290941693820184905260608201529091907f3615065ccf48367ac483ac86701248e2e5ff55bdd9be845007d34a3b68d719d49060800160405180910390a150505050565b5f81815261107b6020526040812060010154610c8b5442909111906001600160a01b031615610e4757610c8b545f84815261107b60209081526040808320600101546110769092529182902054915163084fdbc760e31b81526001600160a01b039384169363427ede389361278793309333938b9316908990600401615868565b602060405180830381865afa1580156127a2573d5f803e3d5ffd5b505050506040513d601f19601f820116820180604052508101906110ae91906158a3565b5f610e475f80516020615cab833981519152836123a4565b6127e782613194565b6127f1823361332e565b1580156128045750612802336127c6565b155b156128225760405163866c2fa760e01b815260040160405180910390fd5b61173382826140bf565b5f61283683613194565b5f83815261107b602052604090206001015442811015612859575f915050610e47565b5f835f036128725761286b428361569b565b9050612875565b50825b61271061240754826128879190615832565b6128919190615849565b92505050610e47565b5092915050565b6128ac84848461119a565b6128b884848484614149565b6128d5576040516303f8ea1560e41b815260040160405180910390fd5b50505050565b606080805f6128e9306141fb565b905060608515612903576128fc86614211565b9250612915565b60405180602001604052805f81525092505b610c8c546001600160a01b0316156129e7575f86815261107b6020526040902060010154610c8c546001600160a01b031663988b93ad30336129568b611a23565b60405160e085901b6001600160e01b03191681526001600160a01b03938416600482015291831660248301529091166044820152606481018a90526084810184905260a4015f60405180830381865afa1580156129b5573d5f803e3d5ffd5b505050506040513d5f823e601f3d908101601f191682016040526129dc91908101906158d9565b979650505050505050565b61146580546129f5906156ae565b90505f03612a9757610c835f9054906101000a90046001600160a01b03166001600160a01b031663a998e9fb6040518163ffffffff1660e01b81526004015f60405180830381865afa158015612a4d573d5f803e3d5ffd5b505050506040513d5f823e601f3d908101601f19168201604052612a7491908101906158d9565b9350604051806040016040528060018152602001602f60f81b8152509050612b46565b6114658054612aa5906156ae565b80601f0160208091040260200160405190810160405280929190818152602001828054612ad1906156ae565b8015612b1c5780601f10612af357610100808354040283529160200191612b1c565b820191905f5260205f20905b815481529060010190602001808311612aff57829003601f168201915b5050505050935060405180602001604052805f815250905060405180602001604052805f81525091505b83828285604051602001612b5d949392919061594a565b604051602081830303815290604052945050505050919050565b612b7f61356a565b611463612b8d8688836159e5565b50611464612b9c8486836159e5565b50611465612bab8284836159e5565b507f1e6d6a19e45ae156dcf4155bc83cf8f59e98d536000998f0e95f4cd330ecfb3e611463611464611465604051612be593929190615b18565b60405180910390a1505050505050565b612bfd61356a565b612c145f80516020615cab8339815191528261126e565b6040516001600160a01b038216907f91d5c045d5bd98bf59a379b259ebca05b93bf79af1845fdf87e3172385d4c7f7905f90a250565b612c5381613194565b612c5c816131c5565b612c65816131eb565b5f612c6f826123ce565b90506117338282613d19565b5f82815260976020526040902060010154612c95816135a0565b610ec58383613b5c565b612ca761362f565b612cb084613194565b612cba845f613bc2565b505f612d04612cc886611a23565b8585858080601f0160208091040260200160405190810160405280939291908181526020018383808284375f9201919091525061101792505050565b6104b1549091506001600160a01b031615612d2357612d2386826137b8565b612d2d81856137d9565b612d3733826138a9565b612d41858261370d565b612d49613a42565b612d5284613ab6565b612d5b81613951565b505050505050565b612d6b61356a565b5f6001600160a01b038416612d81575047612def565b6040516370a0823160e01b81526001600160a01b038516906370a0823190612dad903090600401614e57565b602060405180830381865afa158015612dc8573d5f803e3d5ffd5b505050506040513d601f19601f82011682018060405250810190612dec919061571d565b90505b5f821580612dfc57508183115b15612e28575f8211612e21576040516303e09bb960e31b815260040160405180910390fd5b5080612e2b565b50815b836001600160a01b0316856001600160a01b0316336001600160a01b03167f342e7ff505a8a0364cd0dc2ff195c315e43bce86b204846ecd36913e117b109e84604051612e7a91815260200190565b60405180910390a4612e8d8585836142a0565b5050505050565b612e9c61356a565b6001600160a01b0382165f818152612022602052604090819020839055517fa027572bb55de556a0df93bd38c3871aaf311245c2cd34f0da045aa33a66dbc590612ee99084815260200190565b60405180910390a25050565b612efd61356a565b61173382826142dc565b6001600160a01b039182165f90815261107a6020908152604080832093909416825291909152205460ff1690565b612f4c5f80516020615cab833981519152336116b4565b60405133907f42885193b8178d25fca25a38e6fcc93918501e91be06d85e0c8afb3bad952380905f90a2565b612f8061362f565b610c8754610c865411612fa6576040516331af695160e01b815260040160405180910390fd5b612faf826131eb565b612fb8826131c5565b612fc0613ff2565b5f82815261107660205260408120546001600160a01b0316908042612ff4865f90815261107b602052604090206001015490565b612ffe919061569b565b90505f61300a336127c6565b61301d57613018868661282c565b61301f565b5f5b90505f61302c8287615734565b9050828110156130495785935061304487825f6132b1565b6130b4565b613052336127c6565b61306557613060878761282c565b613067565b5f5b9150613073828461569b565b5f88815261107b6020526040808220426001909101555191955088917f59f2fe866dd27a1c2d34115520888c3150365cbc931aab97fa88c4b9ab40b7959190a25b5f6130c489826113f88842615734565b905080896001600160a01b0316876001600160a01b03165f80516020615c8b83398151915260405160405180910390a461310e868a8360405180602001604052805f815250614149565b61312b576040516303f8ea1560e41b815260040160405180910390fd5b505050505050505050565b61313e61356a565b600e610c8d55565b61314e61356a565b61201e8190556040518181527f4d816c1058de34c4241ba72c371fb3f2ea05147691b364f04d16bc967ae68a119060200160405180910390a150565b5f610e4782614335565b5f81815261107b602052604081205490036131c2576040516378fe247360e01b815260040160405180910390fd5b50565b6131ce81612706565b6131c2576040516306cfa7d760e11b815260040160405180910390fd5b5f81815261107860205260408120546001600160a01b031615613225575f82815261107860205260409020546001600160a01b031661323e565b5f82815261107660205260409020546001600160a01b03165b9050613249336127c6565b15801561325d575061325b823361332e565b155b801561328057505f82815261107960205260409020546001600160a01b03163314155b801561329357506132918133612f07565b155b156117335760405163e17c6d4560e01b815260040160405180910390fd5b6132ba83613194565b5f83815261107b6020526040812060010154908215613317575f1982036132f457604051630471175760e11b815260040160405180910390fd5b4282111561330d576133068483615734565b9050613324565b6133068442615734565b613321848361569b565b90505b612e8d85826142dc565b5f82815261107860205260408120546001600160a01b038381169116148061338f5750816001600160a01b031661336484611a23565b6001600160a01b031614801561338f57505f83815261107860205260409020546001600160a01b0316155b1561339c57506001610e47565b505f610e47565b6133ac816131c5565b6133b4613ff2565b826001600160a01b03166133c782611a23565b6001600160a01b0316146133ee5760405163075fd2b160e01b815260040160405180910390fd5b816001600160a01b0316836001600160a01b03160361342057604051633fbd1a4960e01b815260040160405180910390fd5b6134488161342d336127c6565b6134405761343b835f61282c565b613442565b5f5b5f6132b1565b5f81815261107b6020526040902061345f83611f76565b5f0361347b576110778054905f61347583615805565b91905055505b6134848261433f565b61348e8284614434565b613497826144c8565b5f8281526120206020908152604080832083905561201f9091528082208290555183916001600160a01b0380871692908816915f80516020615c8b83398151915291a4610c8f546001600160a01b0316156128d557610c8f5460018201546040516375b37aef60e01b8152306004820152602481018590523360448201526001600160a01b038781166064830152868116608483015260a48201929092529116906375b37aef9060c4015f604051808303815f87803b158015613558575f80fd5b505af1158015611c4d573d5f803e3d5ffd5b6135815f80516020615cab833981519152336123a4565b61359e57604051632386d63160e21b815260040160405180910390fd5b565b6131c28133614503565b6135b482826123a4565b611733575f8281526097602090815260408083206001600160a01b03851684529091529020805460ff191660011790556135eb3390565b6001600160a01b0316816001600160a01b0316837f2f8788117e7eff1d82e926ec794901d17c78024a50270940304540a733656f0d60405160405180910390a45050565b610c8d54600e1461359e576040516302eae03b60e61b815260040160405180910390fd5b5f6001600160a01b03841661367b57604051635963709b60e01b815260040160405180910390fd5b50610c87805460019081019182905560408051808201825283815260208082018681525f86815261107b9092529290209051815590519101556136bd84611f76565b5f036136ce57611077805460010190555b6136d88185614434565b6136e281846140bf565b60405181906001600160a01b038616905f905f80516020615c8b833981519152908290a49392505050565b5f82815261201f60205260409020548114613734575f82815261201f602052604090208190555b610c84545f83815261202060205260409020541461376057610c84545f83815261202060205260409020555b6104b1545f83815261202160205260409020546001600160a01b03908116911614611733576104b1545f8381526120216020526040902080546001600160a01b0319166001600160a01b039092169190911790555050565b80821015611733576040516330005fb160e21b815260040160405180910390fd5b610c83546001600160a01b03163b1561387e57610c835460405163939d9f1f60e01b8152600481018490526001600160a01b0383811660248301529091169063939d9f1f90620493e0906044015f604051808303815f88803b15801561383d575f80fd5b5087f19350505050801561384f575060015b61173357610c835460405130915f80516020615c6b83398151915291612ee9916001600160a01b031690614e57565b610c835460405130915f80516020615c6b83398151915291612ee9916001600160a01b031690614e57565b6104b1546001600160a01b031615613930576104b1546040516323b872dd60e01b81526001600160a01b03909116906323b872dd906138f090859030908690600401615b50565b6020604051808303815f875af115801561390c573d5f803e3d5ffd5b505050506040513d601f19601f82011682018060405250810190610ec591906158a3565b80341015611733576040516306c3cddf60e41b815260040160405180910390fd5b610c83545f906001600160a01b03163b1561173357610c835f9054906101000a90046001600160a01b03166001600160a01b031663b0e21e8a6040518163ffffffff1660e01b8152600401602060405180830381865afa9250505080156139d5575060408051601f3d908101601f191682019092526139d29181019061571d565b60015b613a0457610c835460405130915f80516020615c6b83398151915291612ee9916001600160a01b031690614e57565b612710613a118285615832565b613a1b9190615849565b91508115610ec5576104b154610c8354610ec5916001600160a01b039081169116846142a0565b61201e541561359e576104b15461201e54613a68916001600160a01b03169033906142a0565b61201e546104b154604080519283526001600160a01b03909116602083015233917f522a883b471164223f18b50f326da8671372b64b4792eac0e63d447e714c3e3b910160405180910390a2565b6001600160a01b038116156131c2576120226020527fbed07da93ba22716a54f603f075ff3d6567a94916ac6d58738883fb4a4b47ea6546001600160a01b0382165f908152604090205415613b2057506001600160a01b0381165f90815261202260205260409020545b8015611733576104b154610c8554611733916001600160a01b031690849061271090613b4d908690615832565b613b579190615849565b6142a0565b613b6682826123a4565b15611733575f8281526097602090815260408083206001600160a01b0385168085529252808320805460ff1916905551339285917ff6391f5c32d9c69d2a47ea670b442974b53935d1edc7fd64eb21e047a839171b9190a45050565b5f82815261107b60205260408120600190810154908101613bf657604051630fed19c160e11b815260040160405180910390fd5b5f8315613c035783613c08565b610c84545b90505f198103613c1b575f199250613c41565b42821115613c3457613c2d8183615734565b9250613c41565b613c3e8142615734565b92505b5f85815261107b6020526040908190206001018490555185907f3ca112768ff7861e008ace1c11570c52e404c043e585545b5957a1e20961dde390613c899086815260200190565b60405180910390a2610c90546001600160a01b031615613d1157610c90546040516202d72d60e71b81526004810187905233602482015260448101859052606481018490526001600160a01b039091169063016b9680906084015f604051808303815f87803b158015613cfa575f80fd5b505af1158015613d0c573d5f803e3d5ffd5b505050505b505092915050565b5f613d2383611a23565b9050613d2e8361455c565b336001600160a01b0316816001600160a01b0316847f0a7068a9989857441c039a14a42b67ed71dd1fcfe5a9b17cc87b252e47bce52885604051613d7491815260200190565b60405180910390a48115613d9a576104b154613d9a906001600160a01b031682846142a0565b5f8381526120206020908152604080832083905561201f909152812055610c8a546001600160a01b031615610ec557610c8a5460405163b499b6c560e01b81526001600160a01b039091169063b499b6c590613dfe90339085908790600401615b50565b5f604051808303815f87803b158015613e15575f80fd5b505af1158015613e27573d5f803e3d5ffd5b50505050505050565b6001600160a01b03163b151590565b613e488161402b565b6104b180546001600160a01b0319166001600160a01b0392909216919091179055565b610c8380546001600160a01b03191633179055610c84839055610c85829055610c86819055613e98600e90565b61ffff16610c8d5550506001610c8e555050565b613eb4614566565b611463613ec28284836159e5565b50611733635b5e139f60e01b613f74565b61359e63780e9d6360e01b613f74565b613efa5f80516020615cab833981519152806145d0565b613f1e5f80516020615c4b8339815191525f80516020615cab8339815191526145d0565b613f27816127c6565b613f4257613f425f80516020615cab8339815191528261461a565b613f595f80516020615c4b833981519152826123a4565b6131c2576131c25f80516020615c4b8339815191528261461a565b6001600160e01b03198082169003613fce5760405162461bcd60e51b815260206004820152601c60248201527f4552433136353a20696e76616c696420696e74657266616365206964000000006044820152606401611720565b6001600160e01b0319165f908152606560205260409020805460ff19166001179055565b612710612407541015801561400d575061400b336127c6565b155b1561359e576040516323f21a3d60e21b815260040160405180910390fd5b6001600160a01b038116158015906140a157505f816001600160a01b03166318160ddd6040518163ffffffff1660e01b8152600401602060405180830381865afa15801561407b573d5f803e3d5ffd5b505050506040513d601f19601f8201168201806040525081019061409f919061571d565b105b156131c25760405163684cae7960e11b815260040160405180910390fd5b5f82815261107860205260409020546001600160a01b03828116911614611733575f8281526110786020526040902080546001600160a01b0319166001600160a01b038316179055614110826144c8565b6040516001600160a01b0382169083907f9d2895c45a420624de863a2f437b022d879f457bf7a829044055a10c5a6fd5e3905f90a35050565b5f61415c846001600160a01b0316613e30565b614168575060016141f3565b604051630a85bd0160e11b81525f906001600160a01b0386169063150b7a029061419c9033908a9089908990600401615b74565b6020604051808303815f875af11580156141b8573d5f803e3d5ffd5b505050506040513d601f19601f820116820180604052508101906141dc9190615ba6565b6001600160e01b031916630a85bd0160e11b149150505b949350505050565b6060610e476001600160a01b0383166014614624565b60605f61421d836147b9565b60010190505f816001600160401b0381111561423b5761423b614ea9565b6040519080825280601f01601f191660200182016040528015614265576020820181803683370190505b5090508181016020015b5f19016f181899199a1a9b1b9c1cb0b131b232b360811b600a86061a8153600a850494508461426f57509392505050565b8015610ec5576001600160a01b0383166142c757610ec56001600160a01b03831682614890565b826128d56001600160a01b03821684846149a2565b5f82815261107b602090815260409182902060010180549084905582518181529182018490529184917feff98df468b347f5cf62ed3329054836e763fc673bf48dce3c41dd0612c5fc68910160405180910390a2505050565b5f610e47826149f4565b5f81815261107660205260408120546001600160a01b031690600161436383611f76565b61436d919061569b565b5f84815261107d60205260409020549091508082146143c1576001600160a01b0383165f90815261107c60209081526040808320858452825280832054848452818420819055835261107d90915290208190555b6001600160a01b0383165f90815261107c602090815260408083208584529091528120556143ee83611f76565b6001036144005761107780545f190190555b6001600160a01b0383165f90815261107e6020526040812080546001929061442990849061569b565b909155505050505050565b5f61443e82611f76565b9050610c8e54811061446357604051630bf6c32360e11b815260040160405180910390fd5b5f83815261107d602090815260408083208490556001600160a01b0390941680835261107c8252848320938352928152838220859055938152611076845282812080546001600160a01b0319168317905590815261107e909252902080546001019055565b5f81815261107960205260409020546001600160a01b0316156131c2575f9081526110796020526040902080546001600160a01b0319169055565b61450d82826123a4565b6117335761451a81614a18565b614525836020614a2a565b604051602001614536929190615bc1565b60408051601f198184030181529082905262461bcd60e51b825261172091600401614e2e565b6131c281426142dc565b5f54610100900460ff1661359e5760405162461bcd60e51b815260206004820152602b60248201527f496e697469616c697a61626c653a20636f6e7472616374206973206e6f74206960448201526a6e697469616c697a696e6760a81b6064820152608401611720565b5f82815260976020526040808220600101805490849055905190918391839186917fbd79b86ffe0ab8e8776151514217cd7cacd52c909f66475c3af44e129f0b00ff9190a4505050565b61173382826135aa565b60605f614632836002615832565b61463d906002615734565b6001600160401b0381111561465457614654614ea9565b6040519080825280601f01601f19166020018201604052801561467e576020820181803683370190505b509050600360fc1b815f8151811061469857614698615747565b60200101906001600160f81b03191690815f1a905350600f60fb1b816001815181106146c6576146c6615747565b60200101906001600160f81b03191690815f1a9053505f6146e8846002615832565b6146f3906001615734565b90505b600181111561476a576f181899199a1a9b1b9c1cb0b131b232b360811b85600f166010811061472757614727615747565b1a60f81b82828151811061473d5761473d615747565b60200101906001600160f81b03191690815f1a90535060049490941c936147638161581d565b90506146f6565b5083156110ae5760405162461bcd60e51b815260206004820181905260248201527f537472696e67733a20686578206c656e67746820696e73756666696369656e746044820152606401611720565b5f8072184f03e93ff9f4daa797ed6e38ed64bf6a1f0160401b83106147f75772184f03e93ff9f4daa797ed6e38ed64bf6a1f0160401b830492506040015b6d04ee2d6d415b85acef81000000008310614823576d04ee2d6d415b85acef8100000000830492506020015b662386f26fc10000831061484157662386f26fc10000830492506010015b6305f5e1008310614859576305f5e100830492506008015b612710831061486d57612710830492506004015b6064831061487f576064830492506002015b600a8310610e475760010192915050565b804710156148e05760405162461bcd60e51b815260206004820152601d60248201527f416464726573733a20696e73756666696369656e742062616c616e63650000006044820152606401611720565b5f826001600160a01b0316826040515f6040518083038185875af1925050503d805f8114614929576040519150601f19603f3d011682016040523d82523d5f602084013e61492e565b606091505b5050905080610ec55760405162461bcd60e51b815260206004820152603a60248201527f416464726573733a20756e61626c6520746f2073656e642076616c75652c20726044820152791958da5c1a595b9d081b585e481a185d99481c995d995c9d195960321b6064820152608401611720565b604080516001600160a01b038416602482015260448082018490528251808303909101815260649091019091526020810180516001600160e01b031663a9059cbb60e01b179052610ec5908490614b70565b5f6001600160e01b03198216637965db0b60e01b1480610e475750610e4782614c43565b6060610e476001600160a01b03831660145b60605f614a38836002615832565b614a43906002615734565b6001600160401b03811115614a5a57614a5a614ea9565b6040519080825280601f01601f191660200182016040528015614a84576020820181803683370190505b509050600360fc1b815f81518110614a9e57614a9e615747565b60200101906001600160f81b03191690815f1a905350600f60fb1b81600181518110614acc57614acc615747565b60200101906001600160f81b03191690815f1a9053505f614aee846002615832565b614af9906001615734565b90505b600181111561476a576f181899199a1a9b1b9c1cb0b131b232b360811b85600f1660108110614b2d57614b2d615747565b1a60f81b828281518110614b4357614b43615747565b60200101906001600160f81b03191690815f1a90535060049490941c93614b698161581d565b9050614afc565b5f614bc4826040518060400160405280602081526020017f5361666545524332303a206c6f772d6c6576656c2063616c6c206661696c6564815250856001600160a01b0316614c7d9092919063ffffffff16565b905080515f1480614be4575080806020019051810190614be491906158a3565b610ec55760405162461bcd60e51b815260206004820152602a60248201527f5361666545524332303a204552433230206f7065726174696f6e20646964206e6044820152691bdd081cdd58d8d9595960b21b6064820152608401611720565b5f6301ffc9a760e01b6001600160e01b031983161480610e475750506001600160e01b0319165f9081526065602052604090205460ff1690565b60606141f384845f85855f80866001600160a01b03168587604051614ca29190615c2f565b5f6040518083038185875af1925050503d805f8114614cdc576040519150601f19603f3d011682016040523d82523d5f602084013e614ce1565b606091505b50915091506129dc8783838760608315614d595782515f03614d5257614d0685613e30565b614d525760405162461bcd60e51b815260206004820152601d60248201527f416464726573733a2063616c6c20746f206e6f6e2d636f6e74726163740000006044820152606401611720565b50816141f3565b6141f38383815115614d6e5781518083602001fd5b8060405162461bcd60e51b81526004016117209190614e2e565b6001600160e01b0319811681146131c2575f80fd5b5f60208284031215614dad575f80fd5b81356110ae81614d88565b5f805f60608486031215614dca575f80fd5b505081359360208301359350604090920135919050565b5f5b83811015614dfb578181015183820152602001614de3565b50505f910152565b5f8151808452614e1a816020860160208601614de1565b601f01601f19169290920160200192915050565b602081525f6110ae6020830184614e03565b5f60208284031215614e50575f80fd5b5035919050565b6001600160a01b0391909116815260200190565b6001600160a01b03811681146131c2575f80fd5b5f8060408385031215614e90575f80fd5b8235614e9b81614e6b565b946020939093013593505050565b634e487b7160e01b5f52604160045260245ffd5b604051601f8201601f191681016001600160401b0381118282101715614ee557614ee5614ea9565b604052919050565b5f6001600160401b03821115614f0557614f05614ea9565b50601f01601f191660200190565b5f82601f830112614f22575f80fd5b8135614f35614f3082614eed565b614ebd565b818152846020838601011115614f49575f80fd5b816020850160208301375f918101602001919091529392505050565b5f805f60608486031215614f77575f80fd5b8335614f8281614e6b565b92506020840135614f9281614e6b565b915060408401356001600160401b03811115614fac575f80fd5b614fb886828701614f13565b9150509250925092565b5f805f60608486031215614fd4575f80fd5b8335614fdf81614e6b565b92506020840135614fef81614e6b565b929592945050506040919091013590565b5f60208284031215615010575f80fd5b81356110ae81614e6b565b5f806040838503121561502c575f80fd5b82359150602083013561503e81614e6b565b809150509250929050565b5f6001600160401b0382111561506157615061614ea9565b5060051b60200190565b5f82601f83011261507a575f80fd5b8135602061508a614f3083615049565b82815260059290921b840181019181810190868411156150a8575f80fd5b8286015b848110156150c357803583529183019183016150ac565b509695505050505050565b5f82601f8301126150dd575f80fd5b813560206150ed614f3083615049565b82815260059290921b8401810191818101908684111561510b575f80fd5b8286015b848110156150c357803561512281614e6b565b835291830191830161510f565b5f8083601f84011261513f575f80fd5b5081356001600160401b03811115615155575f80fd5b6020830191508360208260051b850101111561516f575f80fd5b9250929050565b5f805f805f8060a0878903121561518b575f80fd5b86356001600160401b03808211156151a1575f80fd5b6151ad8a838b0161506b565b975060208901359150808211156151c2575f80fd5b6151ce8a838b016150ce565b965060408901359150808211156151e3575f80fd5b6151ef8a838b016150ce565b95506060890135915080821115615204575f80fd5b6152108a838b016150ce565b94506080890135915080821115615225575f80fd5b5061523289828a0161512f565b979a9699509497509295939492505050565b602080825282518282018190525f9190848201906040850190845b8181101561527b5783518352928401929184019160010161525f565b50909695505050505050565b5f8060408385031215615298575f80fd5b50508035926020909101359150565b5f8083601f8401126152b7575f80fd5b5081356001600160401b038111156152cd575f80fd5b60208301915083602082850101111561516f575f80fd5b5f805f805f805f60c0888a0312156152fa575f80fd5b873561530581614e6b565b965060208801359550604088013561531c81614e6b565b9450606088013593506080880135925060a08801356001600160401b03811115615344575f80fd5b6153508a828b016152a7565b989b979a50959850939692959293505050565b5f805f805f805f60e0888a031215615379575f80fd5b873561538481614e6b565b9650602088013561539481614e6b565b955060408801356153a481614e6b565b945060608801356153b481614e6b565b935060808801356153c481614e6b565b925060a08801356153d481614e6b565b915060c08801356153e481614e6b565b8091505092959891949750929550565b5f805f805f8060608789031215615409575f80fd5b86356001600160401b038082111561541f575f80fd5b61542b8a838b0161512f565b90985096506020890135915080821115615443575f80fd5b61544f8a838b0161512f565b90965094506040890135915080821115615225575f80fd5b5f8060208385031215615478575f80fd5b82356001600160401b0381111561548d575f80fd5b615499858286016152a7565b90969095509350505050565b80151581146131c2575f80fd5b5f80604083850312156154c3575f80fd5b82356154ce81614e6b565b9150602083013561503e816154a5565b5f805f80608085870312156154f1575f80fd5b84356154fc81614e6b565b9350602085013561550c81614e6b565b92506040850135915060608501356001600160401b0381111561552d575f80fd5b61553987828801614f13565b91505092959194509250565b5f805f805f806060878903121561555a575f80fd5b86356001600160401b0380821115615570575f80fd5b61557c8a838b016152a7565b90985096506020890135915080821115615594575f80fd5b6155a08a838b016152a7565b909650945060408901359150808211156155b8575f80fd5b5061523289828a016152a7565b5f805f805f608086880312156155d9575f80fd5b853594506020860135935060408601356155f281614e6b565b925060608601356001600160401b0381111561560c575f80fd5b615618888289016152a7565b969995985093965092949392505050565b5f806040838503121561563a575f80fd5b823561564581614e6b565b9150602083013561503e81614e6b565b5f805f60608486031215615667575f80fd5b833561567281614e6b565b95602085013595506040909401359392505050565b634e487b7160e01b5f52601160045260245ffd5b81810381811115610e4757610e47615687565b600181811c908216806156c257607f821691505b6020821081036124b257634e487b7160e01b5f52602260045260245ffd5b6001600160a01b0385811682528481166020830152831660408201526080606082018190525f9061571390830184614e03565b9695505050505050565b5f6020828403121561572d575f80fd5b5051919050565b80820180821115610e4757610e47615687565b634e487b7160e01b5f52603260045260245ffd5b5f808335601e19843603018112615770575f80fd5b8301803591506001600160401b03821115615789575f80fd5b60200191503681900382131561516f575f80fd5b8881526001600160a01b03888116602083015287811660408301528616606082015260e06080820181905281018490525f6101008587828501375f83870182015260a08301949094525060c0810191909152601f909201601f19169091010195945050505050565b5f6001820161581657615816615687565b5060010190565b5f8161582b5761582b615687565b505f190190565b8082028115828204841417610e4757610e47615687565b5f8261586357634e487b7160e01b5f52601260045260245ffd5b500490565b6001600160a01b039687168152948616602086015260408501939093526060840191909152909216608082015290151560a082015260c00190565b5f602082840312156158b3575f80fd5b81516110ae816154a5565b61ffff82811682821603908082111561289a5761289a615687565b5f602082840312156158e9575f80fd5b81516001600160401b038111156158fe575f80fd5b8201601f8101841361590e575f80fd5b805161591c614f3082614eed565b818152856020838501011115615930575f80fd5b615941826020830160208601614de1565b95945050505050565b5f855161595b818460208a01614de1565b85519083019061596f818360208a01614de1565b8551910190615982818360208901614de1565b8451910190615995818360208801614de1565b019695505050505050565b601f821115610ec5575f81815260208120601f850160051c810160208610156159c65750805b601f850160051c820191505b81811015612d5b578281556001016159d2565b6001600160401b038311156159fc576159fc614ea9565b615a1083615a0a83546156ae565b836159a0565b5f601f841160018114615a41575f8515615a2a5750838201355b5f19600387901b1c1916600186901b178355612e8d565b5f83815260209020601f19861690835b82811015615a715786850135825560209485019460019092019101615a51565b5086821015615a8d575f1960f88860031b161c19848701351681555b505060018560011b0183555050505050565b5f8154615aab816156ae565b808552602060018381168015615ac85760018114615ae257615b0d565b60ff1985168884015283151560051b880183019550615b0d565b865f52825f205f5b85811015615b055781548a8201860152908301908401615aea565b890184019650505b505050505092915050565b606081525f615b2a6060830186615a9f565b8281036020840152615b3c8186615a9f565b905082810360408401526157138185615a9f565b6001600160a01b039384168152919092166020820152604081019190915260600190565b6001600160a01b03858116825284166020820152604081018390526080606082018190525f9061571390830184614e03565b5f60208284031215615bb6575f80fd5b81516110ae81614d88565b76020b1b1b2b9b9a1b7b73a3937b61d1030b1b1b7bab73a1604d1b81525f8351615bf2816017850160208801614de1565b7001034b99036b4b9b9b4b733903937b6329607d1b6017918401918201528351615c23816028840160208801614de1565b01602801949350505050565b5f8251615c40818460208701614de1565b919091019291505056feb309c40027c81d382c3b58d8de24207a34b27e1db369b1434e4a11311f154b5e6b18946261693dfd6c760d986b28ad2238b5b0267f8e5b6bc40a2f998e2f20acddf252ad1be2c89b69c2b068fc378daa952ba7f163c4a11628f55a4df523b3efb89cdd26cddd51301940bf2715f765b626b8a5a9e2681ac62dc83cc2db2530c0a2646970667358221220326d46ac75241d782d0e81c4ce6a8d2d93798051588d6dc04ca3d5150de8434b64736f6c63430008150033",
  "linkReferences": {},
  "deployedLinkReferences": {}
}