{
  "contractName": "PublicLock",
  "abi": [
    {
      "constant": true,
      "inputs": [
        {
          "name": "interfaceId",
          "type": "bytes4"
        }
      ],
      "name": "supportsInterface",
      "outputs": [
        {
          "name": "",
          "type": "bool"
        }
      ],
      "payable": false,
      "stateMutability": "view",
      "type": "function"
    },
    {
      "constant": true,
      "inputs": [
        {
          "name": "",
          "type": "uint256"
        }
      ],
      "name": "owners",
      "outputs": [
        {
          "name": "",
          "type": "address"
        }
      ],
      "payable": false,
      "stateMutability": "view",
      "type": "function"
    },
    {
      "constant": true,
      "inputs": [],
      "name": "unlockProtocol",
      "outputs": [
        {
          "name": "",
          "type": "address"
        }
      ],
      "payable": false,
      "stateMutability": "view",
      "type": "function"
    },
    {
      "constant": true,
      "inputs": [],
      "name": "keyPrice",
      "outputs": [
        {
          "name": "",
          "type": "uint256"
        }
      ],
      "payable": false,
      "stateMutability": "view",
      "type": "function"
    },
    {
      "constant": true,
      "inputs": [],
      "name": "expirationDuration",
      "outputs": [
        {
          "name": "",
          "type": "uint256"
        }
      ],
      "payable": false,
      "stateMutability": "view",
      "type": "function"
    },
    {
      "constant": true,
      "inputs": [],
      "name": "numberOfKeysSold",
      "outputs": [
        {
          "name": "",
          "type": "uint256"
        }
      ],
      "payable": false,
      "stateMutability": "view",
      "type": "function"
    },
    {
      "constant": false,
      "inputs": [],
      "name": "renounceOwnership",
      "outputs": [],
      "payable": false,
      "stateMutability": "nonpayable",
      "type": "function"
    },
    {
      "constant": true,
      "inputs": [],
      "name": "maxNumberOfKeys",
      "outputs": [
        {
          "name": "",
          "type": "uint256"
        }
      ],
      "payable": false,
      "stateMutability": "view",
      "type": "function"
    },
    {
      "constant": false,
      "inputs": [],
      "name": "initialize",
      "outputs": [],
      "payable": false,
      "stateMutability": "nonpayable",
      "type": "function"
    },
    {
      "constant": true,
      "inputs": [],
      "name": "owner",
      "outputs": [
        {
          "name": "",
          "type": "address"
        }
      ],
      "payable": false,
      "stateMutability": "view",
      "type": "function"
    },
    {
      "constant": true,
      "inputs": [],
      "name": "isOwner",
      "outputs": [
        {
          "name": "",
          "type": "bool"
        }
      ],
      "payable": false,
      "stateMutability": "view",
      "type": "function"
    },
    {
      "constant": false,
      "inputs": [
        {
          "name": "sender",
          "type": "address"
        }
      ],
      "name": "initialize",
      "outputs": [],
      "payable": false,
      "stateMutability": "nonpayable",
      "type": "function"
    },
    {
      "constant": false,
      "inputs": [
        {
          "name": "newOwner",
          "type": "address"
        }
      ],
      "name": "transferOwnership",
      "outputs": [],
      "payable": false,
      "stateMutability": "nonpayable",
      "type": "function"
    },
    {
      "inputs": [
        {
          "name": "_owner",
          "type": "address"
        },
        {
          "name": "_expirationDuration",
          "type": "uint256"
        },
        {
          "name": "_keyPrice",
          "type": "uint256"
        },
        {
          "name": "_maxNumberOfKeys",
          "type": "uint256"
        }
      ],
      "payable": false,
      "stateMutability": "nonpayable",
      "type": "constructor"
    },
    {
      "anonymous": false,
      "inputs": [
        {
          "indexed": false,
          "name": "oldKeyPrice",
          "type": "uint256"
        },
        {
          "indexed": false,
          "name": "keyPrice",
          "type": "uint256"
        }
      ],
      "name": "PriceChanged",
      "type": "event"
    },
    {
      "anonymous": false,
      "inputs": [
        {
          "indexed": true,
          "name": "_sender",
          "type": "address"
        },
        {
          "indexed": false,
          "name": "_amount",
          "type": "uint256"
        }
      ],
      "name": "Withdrawal",
      "type": "event"
    },
    {
      "anonymous": false,
      "inputs": [
        {
          "indexed": true,
          "name": "previousOwner",
          "type": "address"
        }
      ],
      "name": "OwnershipRenounced",
      "type": "event"
    },
    {
      "anonymous": false,
      "inputs": [
        {
          "indexed": true,
          "name": "previousOwner",
          "type": "address"
        },
        {
          "indexed": true,
          "name": "newOwner",
          "type": "address"
        }
      ],
      "name": "OwnershipTransferred",
      "type": "event"
    },
    {
      "anonymous": false,
      "inputs": [
        {
          "indexed": true,
          "name": "_from",
          "type": "address"
        },
        {
          "indexed": true,
          "name": "_to",
          "type": "address"
        },
        {
          "indexed": true,
          "name": "_tokenId",
          "type": "uint256"
        }
      ],
      "name": "Transfer",
      "type": "event"
    },
    {
      "anonymous": false,
      "inputs": [
        {
          "indexed": true,
          "name": "_owner",
          "type": "address"
        },
        {
          "indexed": true,
          "name": "_approved",
          "type": "address"
        },
        {
          "indexed": true,
          "name": "_tokenId",
          "type": "uint256"
        }
      ],
      "name": "Approval",
      "type": "event"
    },
    {
      "anonymous": false,
      "inputs": [
        {
          "indexed": true,
          "name": "_owner",
          "type": "address"
        },
        {
          "indexed": true,
          "name": "_operator",
          "type": "address"
        },
        {
          "indexed": false,
          "name": "_approved",
          "type": "bool"
        }
      ],
      "name": "ApprovalForAll",
      "type": "event"
    },
    {
      "constant": false,
      "inputs": [
        {
          "name": "_recipient",
          "type": "address"
        },
        {
          "name": "_data",
          "type": "bytes"
        }
      ],
      "name": "purchaseFor",
      "outputs": [],
      "payable": true,
      "stateMutability": "payable",
      "type": "function"
    },
    {
      "constant": false,
      "inputs": [
        {
          "name": "_recipient",
          "type": "address"
        },
        {
          "name": "_referrer",
          "type": "address"
        },
        {
          "name": "_data",
          "type": "bytes"
        }
      ],
      "name": "purchaseForFrom",
      "outputs": [],
      "payable": true,
      "stateMutability": "payable",
      "type": "function"
    },
    {
      "constant": false,
      "inputs": [
        {
          "name": "_from",
          "type": "address"
        },
        {
          "name": "_recipient",
          "type": "address"
        },
        {
          "name": "_tokenId",
          "type": "uint256"
        }
      ],
      "name": "transferFrom",
      "outputs": [],
      "payable": true,
      "stateMutability": "payable",
      "type": "function"
    },
    {
      "constant": false,
      "inputs": [],
      "name": "withdraw",
      "outputs": [],
      "payable": false,
      "stateMutability": "nonpayable",
      "type": "function"
    },
    {
      "constant": false,
      "inputs": [
        {
          "name": "_amount",
          "type": "uint256"
        }
      ],
      "name": "partialWithdraw",
      "outputs": [],
      "payable": false,
      "stateMutability": "nonpayable",
      "type": "function"
    },
    {
      "constant": false,
      "inputs": [
        {
          "name": "_approved",
          "type": "address"
        },
        {
          "name": "_tokenId",
          "type": "uint256"
        }
      ],
      "name": "approve",
      "outputs": [],
      "payable": true,
      "stateMutability": "payable",
      "type": "function"
    },
    {
      "constant": false,
      "inputs": [
        {
          "name": "_keyPrice",
          "type": "uint256"
        }
      ],
      "name": "updateKeyPrice",
      "outputs": [],
      "payable": false,
      "stateMutability": "nonpayable",
      "type": "function"
    },
    {
      "constant": true,
      "inputs": [
        {
          "name": "_owner",
          "type": "address"
        }
      ],
      "name": "balanceOf",
      "outputs": [
        {
          "name": "",
          "type": "uint256"
        }
      ],
      "payable": false,
      "stateMutability": "view",
      "type": "function"
    },
    {
      "constant": true,
      "inputs": [
        {
          "name": "_tokenId",
          "type": "uint256"
        }
      ],
      "name": "ownerOf",
      "outputs": [
        {
          "name": "",
          "type": "address"
        }
      ],
      "payable": false,
      "stateMutability": "view",
      "type": "function"
    },
    {
      "constant": true,
      "inputs": [
        {
          "name": "_account",
          "type": "address"
        }
      ],
      "name": "getTokenIdFor",
      "outputs": [
        {
          "name": "",
          "type": "uint256"
        }
      ],
      "payable": false,
      "stateMutability": "view",
      "type": "function"
    },
    {
      "constant": true,
      "inputs": [
        {
          "name": "_tokenId",
          "type": "uint256"
        }
      ],
      "name": "getApproved",
      "outputs": [
        {
          "name": "",
          "type": "address"
        }
      ],
      "payable": false,
      "stateMutability": "view",
      "type": "function"
    },
    {
      "constant": true,
      "inputs": [],
      "name": "numberOfOwners",
      "outputs": [
        {
          "name": "",
          "type": "uint256"
        }
      ],
      "payable": false,
      "stateMutability": "view",
      "type": "function"
    },
    {
      "constant": true,
      "inputs": [],
      "name": "outstandingKeys",
      "outputs": [
        {
          "name": "",
          "type": "uint256"
        }
      ],
      "payable": false,
      "stateMutability": "view",
      "type": "function"
    },
    {
      "constant": true,
      "inputs": [
        {
          "name": "_page",
          "type": "uint256"
        },
        {
          "name": "_pageSize",
          "type": "uint256"
        }
      ],
      "name": "getOwnersByPage",
      "outputs": [
        {
          "name": "",
          "type": "address[]"
        }
      ],
      "payable": false,
      "stateMutability": "view",
      "type": "function"
    },
    {
      "constant": false,
      "inputs": [
        {
          "name": "_owner",
          "type": "address"
        }
      ],
      "name": "expireKeyFor",
      "outputs": [],
      "payable": false,
      "stateMutability": "nonpayable",
      "type": "function"
    },
    {
      "constant": true,
      "inputs": [
        {
          "name": "_owner",
          "type": "address"
        }
      ],
      "name": "keyDataFor",
      "outputs": [
        {
          "name": "data",
          "type": "bytes"
        }
      ],
      "payable": false,
      "stateMutability": "view",
      "type": "function"
    },
    {
      "constant": true,
      "inputs": [
        {
          "name": "_owner",
          "type": "address"
        }
      ],
      "name": "keyExpirationTimestampFor",
      "outputs": [
        {
          "name": "timestamp",
          "type": "uint256"
        }
      ],
      "payable": false,
      "stateMutability": "view",
      "type": "function"
    },
    {
      "constant": false,
      "inputs": [
        {
          "name": "operator",
          "type": "address"
        },
        {
          "name": "from",
          "type": "address"
        },
        {
          "name": "tokenId",
          "type": "uint256"
        },
        {
          "name": "data",
          "type": "bytes"
        }
      ],
      "name": "onERC721Received",
      "outputs": [
        {
          "name": "",
          "type": "bytes4"
        }
      ],
      "payable": false,
      "stateMutability": "nonpayable",
      "type": "function"
    }
  ],
  "bytecode": "0x60806040523480156200001157600080fd5b5060405160808062002143833981016040908152815160208301519183015160609093015190929063bbf81e00831115620000d357604080517f08c379a000000000000000000000000000000000000000000000000000000000815260206004820152602560248201527f45787069726174696f6e206475726174696f6e2065786365656473203130302060448201527f7965617273000000000000000000000000000000000000000000000000000000606482015290519081900360840190fd5b60998054600160a060020a03191633179055620000fe84640100000000620013426200012982021704565b62000116640100000000620010626200023082021704565b609a92909255609b55609c5550620003ca565b60008054610100900460ff16806200014f57506200014f64010000000062000357810204565b806200015e575060005460ff16155b1515620001e157604080517f08c379a000000000000000000000000000000000000000000000000000000000815260206004820152602e60248201526000805160206200212383398151915260448201527f656e20696e697469616c697a6564000000000000000000000000000000000000606482015290519081900360840190fd5b506000805460668054600160a060020a031916600160a060020a03949094169390931790925561ff001980831661010090811760ff19166001179091169281900460ff16151502919091179055565b60008054610100900460ff16806200025657506200025664010000000062000357810204565b8062000265575060005460ff16155b1515620002e857604080517f08c379a000000000000000000000000000000000000000000000000000000000815260206004820152602e60248201526000805160206200212383398151915260448201527f656e20696e697469616c697a6564000000000000000000000000000000000000606482015290519081900360840190fd5b5060008054600161010061ff00198316811760ff1916919091179092550460ff166200033d7f01ffc9a7000000000000000000000000000000000000000000000000000000006401000000006200035d810204565b600080549115156101000261ff0019909216919091179055565b303b1590565b7fffffffff0000000000000000000000000000000000000000000000000000000080821614156200038d57600080fd5b7fffffffff00000000000000000000000000000000000000000000000000000000166000908152603360205260409020805460ff19166001179055565b611d4980620003da6000396000f3006080604052600436106101715763ffffffff60e060020a60003504166301ffc9a78114610176578063025e7c27146101ac578063081812fc146101e0578063095ea7b3146101f85780630f15023b1461021157806310803b721461022657806310e569731461029157806311a4c03a146102b8578063150b7a02146102cd5780631f1ec0291461035957806323b872dd146103715780633ba70e311461038e5780633ccfd60b146103a357806347dc1085146103b857806353b704d0146103cd5780636352211e146103ed57806370a0823114610405578063715018a61461042657806371d2ee6c1461043b57806374b6c106146104535780638129fc1c146104685780638da5cb5b1461047d5780638f32d59b1461049257806393fd1844146104a7578063970aaeb7146104bc5780639f98d3cb146104dd578063abdf82ce146104fe578063c4d66de81461051f578063d44fa14a14610540578063d8125eb3146105d6578063f2fde38b146105fe575b600080fd5b34801561018257600080fd5b50610198600160e060020a03196004351661061f565b604080519115158252519081900360200190f35b3480156101b857600080fd5b506101c460043561063e565b60408051600160a060020a039092168252519081900360200190f35b3480156101ec57600080fd5b506101c4600435610666565b61020f600160a060020a0360043516602435610677565b005b34801561021d57600080fd5b506101c461077a565b34801561023257600080fd5b50610241600435602435610789565b60408051602080825283518183015283519192839290830191858101910280838360005b8381101561027d578181015183820152602001610265565b505050509050019250505060405180910390f35b34801561029d57600080fd5b506102a6610925565b60408051918252519081900360200190f35b3480156102c457600080fd5b506102a661092b565b3480156102d957600080fd5b50604080516020601f60643560048181013592830184900484028501840190955281845261033c94600160a060020a0381358116956024803590921695604435953695608494019181908401838280828437509497506109319650505050505050565b60408051600160e060020a03199092168252519081900360200190f35b34801561036557600080fd5b5061020f60043561095a565b61020f600160a060020a03600435811690602435166044356109b7565b34801561039a57600080fd5b506102a6610d1b565b3480156103af57600080fd5b5061020f610d21565b3480156103c457600080fd5b506102a6610d9d565b61020f60048035600160a060020a03169060248035908101910135610da4565b3480156103f957600080fd5b506101c4600435610de5565b34801561041157600080fd5b506102a6600160a060020a0360043516610e60565b34801561043257600080fd5b5061020f610ef6565b34801561044757600080fd5b5061020f600435610f53565b34801561045f57600080fd5b506102a661105c565b34801561047457600080fd5b5061020f611062565b34801561048957600080fd5b506101c461116a565b34801561049e57600080fd5b50610198611179565b3480156104b357600080fd5b506102a661118a565b3480156104c857600080fd5b506102a6600160a060020a0360043516611190565b3480156104e957600080fd5b5061020f600160a060020a0360043516611212565b34801561050a57600080fd5b506102a6600160a060020a03600435166112bd565b34801561052b57600080fd5b5061020f600160a060020a0360043516611342565b34801561054c57600080fd5b50610561600160a060020a0360043516611435565b6040805160208082528351818301528351919283929083019185019080838360005b8381101561059b578181015183820152602001610583565b50505050905090810190601f1680156105c85780820380516001836020036101000a031916815260200191505b509250505060405180910390f35b61020f600160a060020a0360048035821691602480359091169160443591820191013561154a565b34801561060a57600080fd5b5061020f600160a060020a0360043516611603565b600160e060020a03191660009081526033602052604090205460ff1690565b60a080548290811061064c57fe5b600091825260209091200154600160a060020a0316905081565b60006106718261161f565b92915050565b6000818152609f60205260409020548190600160a060020a0316331461069c57600080fd5b600160a060020a03831615156106b157600080fd5b33600160a060020a0384161415610712576040805160e560020a62461bcd02815260206004820152601a60248201527f596f752063616e277420617070726f766520796f757273656c66000000000000604482015290519081900360640190fd5b600082815260a1602090815260408083208054600160a060020a031916600160a060020a03888116918217909255609f909352818420549151869492909116917f8c5be1e5ebec7d5bd14f71427d1e84f3dd0314c0f7b2291e5b200ac8c7c3b92591a4505050565b609954600160a060020a031681565b60606000806060600080600061079d610d9d565b116107f2576040805160e560020a62461bcd02815260206004820152601360248201527f4e6f206b65797320746f20726574726965766500000000000000000000000000604482015290519081900360640190fd5b86880294506000851015801561080e575061080b610d9d565b85105b1515610864576040805160e560020a62461bcd02815260206004820152601760248201527f496e646578206d75737420626520696e2d626f756e6473000000000000000000604482015290519081900360640190fd5b60a054858801111561087f5760a05485810397509350610885565b86850193505b866040519080825280602002602001820160405280156108af578160200160208202803883390190505b509250600091508490505b838110156109195760a08054829081106108d057fe5b6000918252602090912001548351600160a060020a03909116908490849081106108f657fe5b600160a060020a03909216602092830290910190910152600191820191016108ba565b50909695505050505050565b609b5481565b609a5481565b7f150b7a0200000000000000000000000000000000000000000000000000000000949350505050565b6000610964611179565b151561096f57600080fd5b50609b805490829055604080518281526020810184905281517f8aa4fa52648a6d15edce8a179c792c86f3719d0cc3c572cf90f91948f0f2cb68929181900390910190a15050565b6000609d54609c54111515610a3c576040805160e560020a62461bcd02815260206004820152602360248201527f4d6178696d756d206e756d626572206f66206b65797320616c7265616479207360448201527f6f6c640000000000000000000000000000000000000000000000000000000000606482015290519081900360840190fd5b600160a060020a0384166000908152609e6020526040902060018101548591904210610ab2576040805160e560020a62461bcd02815260206004820152601060248201527f4b6579206973206e6f742076616c696400000000000000000000000000000000604482015290519081900360640190fd5b6000848152609f60205260409020548490600160a060020a0316331480610ae9575033610ade8261161f565b600160a060020a0316145b1515610b3f576040805160e560020a62461bcd02815260206004820181905260248201527f4f6e6c79206b6579206f776e6572206f7220617070726f766564206f776e6572604482015290519081900360640190fd5b600160a060020a0386161515610b5457600080fd5b600160a060020a0386166000908152609e60205260409020600101549350831515610be55760a08054600181019091557f78fdc8d422c49ced035a9edf18d00d3c6a8d81df210f3e5e448e045e77b41e88018054600160a060020a038816600160a060020a031991821681179092556000828152609f6020908152604080832080549094168517909355609e905220555b428411610c1a57600160a060020a038088166000908152609e6020526040808220600190810154938a16835291200155610c65565b600160a060020a0387166000908152609e6020526040902060010154610c489042860363ffffffff61168e16565b600160a060020a0387166000908152609e60205260409020600101555b600160a060020a038088166000908152609e60205260408082209289168252902060029182018054610cab93928301926000196101006001841615020190911604611bf4565b50600160a060020a038088166000818152609e602090815260408083204260019091015589835260a19091528082208054600160a060020a03191690555188938a1692917fddf252ad1be2c89b69c2b068fc378daa952ba7f163c4a11628f55a4df523b3ef91a450505050505050565b609d5481565b6000610d2b611179565b1515610d3657600080fd5b50303160008111610d91576040805160e560020a62461bcd02815260206004820152601060248201527f4e6f7420656e6f7567682066756e647300000000000000000000000000000000604482015290519081900360640190fd5b610d9a816116a7565b50565b609d545b90565b610de083600084848080601f01602080910402602001604051908101604052809392919081815260200183838082843750611721945050505050565b505050565b6000818152609f60205260408120548290600160a060020a03161515610e43576040805160e560020a62461bcd02815260206004820152600b6024820152600080516020611cfe833981519152604482015290519081900360640190fd5b50506000908152609f6020526040902054600160a060020a031690565b6000600160a060020a0382161515610ec2576040805160e560020a62461bcd02815260206004820152600f60248201527f496e76616c696420616464726573730000000000000000000000000000000000604482015290519081900360640190fd5b600160a060020a0382166000908152609e602052604081206001015411610eea576000610eed565b60015b60ff1692915050565b610efe611179565b1515610f0957600080fd5b606654604051600160a060020a03909116907ff8df31144d9c2f0f6b59d69b8b98abd5459d07f2742c4df920b25aae33c6482090600090a260668054600160a060020a0319169055565b6000610f5d611179565b1515610f6857600080fd5b60008211610fe6576040805160e560020a62461bcd02815260206004820152602560248201527f4d757374207265717565737420616e20616d6f756e742067726561746572207460448201527f68616e2030000000000000000000000000000000000000000000000000000000606482015290519081900360840190fd5b503031600081118015610ff95750818110155b151561104f576040805160e560020a62461bcd02815260206004820152601060248201527f4e6f7420656e6f7567682066756e647300000000000000000000000000000000604482015290519081900360640190fd5b611058826116a7565b5050565b609c5481565b60008054610100900460ff168061107c575061107c611b3d565b8061108a575060005460ff16155b1515611106576040805160e560020a62461bcd02815260206004820152602e60248201527f436f6e747261637420696e7374616e63652068617320616c726561647920626560448201527f656e20696e697469616c697a6564000000000000000000000000000000000000606482015290519081900360840190fd5b5060008054600161010061ff00198316811760ff1916919091179092550460ff166111507f01ffc9a700000000000000000000000000000000000000000000000000000000611b47565b600080549115156101000261ff0019909216919091179055565b606654600160a060020a031690565b606654600160a060020a0316331490565b60a05490565b600160a060020a0381166000908152609e60205260408120600181015483919083106111f4576040805160e560020a62461bcd02815260206004820152600b6024820152600080516020611cfe833981519152604482015290519081900360640190fd5b505050600160a060020a03166000908152609e602052604090205490565b61121a611179565b151561122557600080fd5b600160a060020a0381166000908152609e602052604090206001810154829190421061129b576040805160e560020a62461bcd02815260206004820152601060248201527f4b6579206973206e6f742076616c696400000000000000000000000000000000604482015290519081900360640190fd5b5050600160a060020a03166000908152609e6020526040902042600190910155565b600160a060020a0381166000908152609e6020526040812060018101548391908310611321576040805160e560020a62461bcd02815260206004820152600b6024820152600080516020611cfe833981519152604482015290519081900360640190fd5b505050600160a060020a03166000908152609e602052604090206001015490565b60008054610100900460ff168061135c575061135c611b3d565b8061136a575060005460ff16155b15156113e6576040805160e560020a62461bcd02815260206004820152602e60248201527f436f6e747261637420696e7374616e63652068617320616c726561647920626560448201527f656e20696e697469616c697a6564000000000000000000000000000000000000606482015290519081900360840190fd5b506000805460668054600160a060020a031916600160a060020a03949094169390931790925561ff001980831661010090811760ff19166001179091169281900460ff16151502919091179055565b600160a060020a0381166000908152609e6020526040812060018101546060928492911161149b576040805160e560020a62461bcd02815260206004820152600b6024820152600080516020611cfe833981519152604482015290519081900360640190fd5b600160a060020a0384166000908152609e60209081526040918290206002908101805484516001821615610100026000190190911692909204601f81018490048402830184019094528382529092909183018282801561153c5780601f106115115761010080835404028352916020019161153c565b820191906000526020600020905b81548152906001019060200180831161151f57829003601f168201915b505050505092505050919050565b600160a060020a0383166000908152609e60205260409020600181015484919042106115c0576040805160e560020a62461bcd02815260206004820152601060248201527f4b6579206973206e6f742076616c696400000000000000000000000000000000604482015290519081900360640190fd5b6115fb868686868080601f01602080910402602001604051908101604052809392919081815260200183838082843750611721945050505050565b505050505050565b61160b611179565b151561161657600080fd5b610d9a81611b83565b600081815260a16020526040812054600160a060020a0316801515610671576040805160e560020a62461bcd02815260206004820152601c60248201527f4e6f20617070726f76656420726563697069656e742065786973747300000000604482015290519081900360640190fd5b6000828201838110156116a057600080fd5b9392505050565b6116af61116a565b600160a060020a03166108fc829081150290604051600060405180830381858888f193505050501580156116e7573d6000803e3d6000fd5b5060408051828152905133917f7fcf532c15f0a6db0bd6d0e038bea71d30d808c7d98cb3bf7268a95bf5081b65919081900360200190a250565b600080600080600080609d54609c541115156117ad576040805160e560020a62461bcd02815260206004820152602360248201527f4d6178696d756d206e756d626572206f66206b65797320616c7265616479207360448201527f6f6c640000000000000000000000000000000000000000000000000000000000606482015290519081900360840190fd5b600160a060020a03891615156117c257600080fd5b609954609b54604080517f0cb175e3000000000000000000000000000000000000000000000000000000008152600160a060020a038d81166004830152602482018490528251941699509195508892630cb175e39260448082019392918290030181600087803b15801561183557600080fd5b505af1158015611849573d6000803e3d6000fd5b505050506040513d604081101561185f57600080fd5b5080516020909101519095509350829150818511156118815760009150611887565b84830391505b348211156118df576040805160e560020a62461bcd02815260206004820152601260248201527f496e73756666696369656e742066756e64730000000000000000000000000000604482015290519081900360640190fd5b50600160a060020a0388166000908152609e6020526040902060010154428110156119ab5780151561198157609d8054600190810190915560a0805491820190557f78fdc8d422c49ced035a9edf18d00d3c6a8d81df210f3e5e448e045e77b41e88018054600160a060020a038b16600160a060020a031991821681179092556000828152609f6020908152604080832080549094168517909355609e905220555b609a54600160a060020a038a166000908152609e60205260409020429091016001909101556119dc565b609a546119bf90829063ffffffff61168e16565b600160a060020a038a166000908152609e60205260409020600101555b600160a060020a0389166000908152609e602090815260409091208851611a0b926002909201918a0190611c75565b506000851115611a7f5785600160a060020a0316633652466386866040518363ffffffff1660e060020a0281526004018083815260200182815260200192505050600060405180830381600087803b158015611a6657600080fd5b505af1158015611a7a573d6000803e3d6000fd5b505050505b85600160a060020a031663939d9f1f838a6040518363ffffffff1660e060020a0281526004018083815260200182600160a060020a0316600160a060020a0316815260200192505050600060405180830381600087803b158015611ae257600080fd5b505af1158015611af6573d6000803e3d6000fd5b5050604051600160a060020a038c1692508291506000907fddf252ad1be2c89b69c2b068fc378daa952ba7f163c4a11628f55a4df523b3ef908290a4505050505050505050565b303b8015905b5090565b600160e060020a03198082161415611b5e57600080fd5b600160e060020a0319166000908152603360205260409020805460ff19166001179055565b600160a060020a0381161515611b9857600080fd5b606654604051600160a060020a038084169216907f8be0079c531659141344cd1fd0a4f28419497f9722a3daafe3b4186f6b6457e090600090a360668054600160a060020a031916600160a060020a0392909216919091179055565b828054600181600116156101000203166002900490600052602060002090601f016020900481019282601f10611c2d5780548555611c69565b82800160010185558215611c6957600052602060002091601f016020900482015b82811115611c69578254825591600101919060010190611c4e565b50611b43929150611ce3565b828054600181600116156101000203166002900490600052602060002090601f016020900481019282601f10611cb657805160ff1916838001178555611c69565b82800160010185558215611c69579182015b82811115611c69578251825591602001919060010190611cc8565b610da191905b80821115611b435760008155600101611ce956004e6f2073756368206b6579000000000000000000000000000000000000000000a165627a7a72305820f1dcbf1fdf6733d1b492dd9a701d5f38474921e8f9f08680f3f7af78a868a43d0029436f6e747261637420696e7374616e63652068617320616c7265616479206265",
  "deployedBytecode": "0x6080604052600436106101715763ffffffff60e060020a60003504166301ffc9a78114610176578063025e7c27146101ac578063081812fc146101e0578063095ea7b3146101f85780630f15023b1461021157806310803b721461022657806310e569731461029157806311a4c03a146102b8578063150b7a02146102cd5780631f1ec0291461035957806323b872dd146103715780633ba70e311461038e5780633ccfd60b146103a357806347dc1085146103b857806353b704d0146103cd5780636352211e146103ed57806370a0823114610405578063715018a61461042657806371d2ee6c1461043b57806374b6c106146104535780638129fc1c146104685780638da5cb5b1461047d5780638f32d59b1461049257806393fd1844146104a7578063970aaeb7146104bc5780639f98d3cb146104dd578063abdf82ce146104fe578063c4d66de81461051f578063d44fa14a14610540578063d8125eb3146105d6578063f2fde38b146105fe575b600080fd5b34801561018257600080fd5b50610198600160e060020a03196004351661061f565b604080519115158252519081900360200190f35b3480156101b857600080fd5b506101c460043561063e565b60408051600160a060020a039092168252519081900360200190f35b3480156101ec57600080fd5b506101c4600435610666565b61020f600160a060020a0360043516602435610677565b005b34801561021d57600080fd5b506101c4610719565b34801561023257600080fd5b50610241600435602435610728565b60408051602080825283518183015283519192839290830191858101910280838360005b8381101561027d578181015183820152602001610265565b505050509050019250505060405180910390f35b34801561029d57600080fd5b506102a66108c4565b60408051918252519081900360200190f35b3480156102c457600080fd5b506102a66108ca565b3480156102d957600080fd5b50604080516020601f60643560048181013592830184900484028501840190955281845261033c94600160a060020a0381358116956024803590921695604435953695608494019181908401838280828437509497506108d09650505050505050565b60408051600160e060020a03199092168252519081900360200190f35b34801561036557600080fd5b5061020f6004356108f9565b61020f600160a060020a0360043581169060243516604435610956565b34801561039a57600080fd5b506102a6610cba565b3480156103af57600080fd5b5061020f610cc0565b3480156103c457600080fd5b506102a6610d3c565b61020f60048035600160a060020a03169060248035908101910135610d43565b3480156103f957600080fd5b506101c4600435610d84565b34801561041157600080fd5b506102a6600160a060020a0360043516610dff565b34801561043257600080fd5b5061020f610e95565b34801561044757600080fd5b5061020f600435610ef2565b34801561045f57600080fd5b506102a6610f7d565b34801561047457600080fd5b5061020f610f83565b34801561048957600080fd5b506101c461108b565b34801561049e57600080fd5b5061019861109a565b3480156104b357600080fd5b506102a66110ab565b3480156104c857600080fd5b506102a6600160a060020a03600435166110b1565b3480156104e957600080fd5b5061020f600160a060020a0360043516611133565b34801561050a57600080fd5b506102a6600160a060020a03600435166111de565b34801561052b57600080fd5b5061020f600160a060020a0360043516611263565b34801561054c57600080fd5b50610561600160a060020a0360043516611356565b6040805160208082528351818301528351919283929083019185019080838360005b8381101561059b578181015183820152602001610583565b50505050905090810190601f1680156105c85780820380516001836020036101000a031916815260200191505b509250505060405180910390f35b61020f600160a060020a0360048035821691602480359091169160443591820191013561146b565b34801561060a57600080fd5b5061020f600160a060020a0360043516611524565b600160e060020a03191660009081526033602052604090205460ff1690565b60a080548290811061064c57fe5b600091825260209091200154600160a060020a0316905081565b600061067182611540565b92915050565b6000818152609f60205260409020548190600160a060020a0316331461069c57600080fd5b600160a060020a03831615156106b157600080fd5b600082815260a1602090815260408083208054600160a060020a031916600160a060020a03888116918217909255609f909352818420549151869492909116917f8c5be1e5ebec7d5bd14f71427d1e84f3dd0314c0f7b2291e5b200ac8c7c3b92591a4505050565b609954600160a060020a031681565b60606000806060600080600061073c610d3c565b11610791576040805160e560020a62461bcd02815260206004820152601360248201527f4e6f206b65797320746f20726574726965766500000000000000000000000000604482015290519081900360640190fd5b8688029450600085101580156107ad57506107aa610d3c565b85105b1515610803576040805160e560020a62461bcd02815260206004820152601760248201527f496e646578206d75737420626520696e2d626f756e6473000000000000000000604482015290519081900360640190fd5b60a054858801111561081e5760a05485810397509350610824565b86850193505b8660405190808252806020026020018201604052801561084e578160200160208202803883390190505b509250600091508490505b838110156108b85760a080548290811061086f57fe5b6000918252602090912001548351600160a060020a039091169084908490811061089557fe5b600160a060020a0390921660209283029091019091015260019182019101610859565b50909695505050505050565b609b5481565b609a5481565b7f150b7a0200000000000000000000000000000000000000000000000000000000949350505050565b600061090361109a565b151561090e57600080fd5b50609b805490829055604080518281526020810184905281517f8aa4fa52648a6d15edce8a179c792c86f3719d0cc3c572cf90f91948f0f2cb68929181900390910190a15050565b6000609d54609c541115156109db576040805160e560020a62461bcd02815260206004820152602360248201527f4d6178696d756d206e756d626572206f66206b65797320616c7265616479207360448201527f6f6c640000000000000000000000000000000000000000000000000000000000606482015290519081900360840190fd5b600160a060020a0384166000908152609e6020526040902060018101548591904210610a51576040805160e560020a62461bcd02815260206004820152601060248201527f4b6579206973206e6f742076616c696400000000000000000000000000000000604482015290519081900360640190fd5b6000848152609f60205260409020548490600160a060020a0316331480610a88575033610a7d82611540565b600160a060020a0316145b1515610ade576040805160e560020a62461bcd02815260206004820181905260248201527f4f6e6c79206b6579206f776e6572206f7220617070726f766564206f776e6572604482015290519081900360640190fd5b600160a060020a0386161515610af357600080fd5b600160a060020a0386166000908152609e60205260409020600101549350831515610b845760a08054600181019091557f78fdc8d422c49ced035a9edf18d00d3c6a8d81df210f3e5e448e045e77b41e88018054600160a060020a038816600160a060020a031991821681179092556000828152609f6020908152604080832080549094168517909355609e905220555b428411610bb957600160a060020a038088166000908152609e6020526040808220600190810154938a16835291200155610c04565b600160a060020a0387166000908152609e6020526040902060010154610be79042860363ffffffff61156416565b600160a060020a0387166000908152609e60205260409020600101555b600160a060020a038088166000908152609e60205260408082209289168252902060029182018054610c4a93928301926000196101006001841615020190911604611aca565b50600160a060020a038088166000818152609e602090815260408083204260019091015589835260a19091528082208054600160a060020a03191690555188938a1692917fddf252ad1be2c89b69c2b068fc378daa952ba7f163c4a11628f55a4df523b3ef91a450505050505050565b609d5481565b6000610cca61109a565b1515610cd557600080fd5b50303160008111610d30576040805160e560020a62461bcd02815260206004820152601060248201527f4e6f7420656e6f7567682066756e647300000000000000000000000000000000604482015290519081900360640190fd5b610d398161157d565b50565b609d545b90565b610d7f83600084848080601f016020809104026020016040519081016040528093929190818152602001838380828437506115f7945050505050565b505050565b6000818152609f60205260408120548290600160a060020a03161515610de2576040805160e560020a62461bcd02815260206004820152600b6024820152600080516020611bd4833981519152604482015290519081900360640190fd5b50506000908152609f6020526040902054600160a060020a031690565b6000600160a060020a0382161515610e61576040805160e560020a62461bcd02815260206004820152600f60248201527f496e76616c696420616464726573730000000000000000000000000000000000604482015290519081900360640190fd5b600160a060020a0382166000908152609e602052604081206001015411610e89576000610e8c565b60015b60ff1692915050565b610e9d61109a565b1515610ea857600080fd5b606654604051600160a060020a03909116907ff8df31144d9c2f0f6b59d69b8b98abd5459d07f2742c4df920b25aae33c6482090600090a260668054600160a060020a0319169055565b6000610efc61109a565b1515610f0757600080fd5b503031600081118015610f1a5750818110155b1515610f70576040805160e560020a62461bcd02815260206004820152601060248201527f4e6f7420656e6f7567682066756e647300000000000000000000000000000000604482015290519081900360640190fd5b610f798261157d565b5050565b609c5481565b60008054610100900460ff1680610f9d5750610f9d611a13565b80610fab575060005460ff16155b1515611027576040805160e560020a62461bcd02815260206004820152602e60248201527f436f6e747261637420696e7374616e63652068617320616c726561647920626560448201527f656e20696e697469616c697a6564000000000000000000000000000000000000606482015290519081900360840190fd5b5060008054600161010061ff00198316811760ff1916919091179092550460ff166110717f01ffc9a700000000000000000000000000000000000000000000000000000000611a1d565b600080549115156101000261ff0019909216919091179055565b606654600160a060020a031690565b606654600160a060020a0316331490565b60a05490565b600160a060020a0381166000908152609e6020526040812060018101548391908310611115576040805160e560020a62461bcd02815260206004820152600b6024820152600080516020611bd4833981519152604482015290519081900360640190fd5b505050600160a060020a03166000908152609e602052604090205490565b61113b61109a565b151561114657600080fd5b600160a060020a0381166000908152609e60205260409020600181015482919042106111bc576040805160e560020a62461bcd02815260206004820152601060248201527f4b6579206973206e6f742076616c696400000000000000000000000000000000604482015290519081900360640190fd5b5050600160a060020a03166000908152609e6020526040902042600190910155565b600160a060020a0381166000908152609e6020526040812060018101548391908310611242576040805160e560020a62461bcd02815260206004820152600b6024820152600080516020611bd4833981519152604482015290519081900360640190fd5b505050600160a060020a03166000908152609e602052604090206001015490565b60008054610100900460ff168061127d575061127d611a13565b8061128b575060005460ff16155b1515611307576040805160e560020a62461bcd02815260206004820152602e60248201527f436f6e747261637420696e7374616e63652068617320616c726561647920626560448201527f656e20696e697469616c697a6564000000000000000000000000000000000000606482015290519081900360840190fd5b506000805460668054600160a060020a031916600160a060020a03949094169390931790925561ff001980831661010090811760ff19166001179091169281900460ff16151502919091179055565b600160a060020a0381166000908152609e602052604081206001810154606092849291116113bc576040805160e560020a62461bcd02815260206004820152600b6024820152600080516020611bd4833981519152604482015290519081900360640190fd5b600160a060020a0384166000908152609e60209081526040918290206002908101805484516001821615610100026000190190911692909204601f81018490048402830184019094528382529092909183018282801561145d5780601f106114325761010080835404028352916020019161145d565b820191906000526020600020905b81548152906001019060200180831161144057829003601f168201915b505050505092505050919050565b600160a060020a0383166000908152609e60205260409020600181015484919042106114e1576040805160e560020a62461bcd02815260206004820152601060248201527f4b6579206973206e6f742076616c696400000000000000000000000000000000604482015290519081900360640190fd5b61151c868686868080601f016020809104026020016040519081016040528093929190818152602001838380828437506115f7945050505050565b505050505050565b61152c61109a565b151561153757600080fd5b610d3981611a59565b600081815260a16020526040812054600160a060020a031680151561067157600080fd5b60008282018381101561157657600080fd5b9392505050565b61158561108b565b600160a060020a03166108fc829081150290604051600060405180830381858888f193505050501580156115bd573d6000803e3d6000fd5b5060408051828152905133917f7fcf532c15f0a6db0bd6d0e038bea71d30d808c7d98cb3bf7268a95bf5081b65919081900360200190a250565b600080600080600080609d54609c54111515611683576040805160e560020a62461bcd02815260206004820152602360248201527f4d6178696d756d206e756d626572206f66206b65797320616c7265616479207360448201527f6f6c640000000000000000000000000000000000000000000000000000000000606482015290519081900360840190fd5b600160a060020a038916151561169857600080fd5b609954609b54604080517f0cb175e3000000000000000000000000000000000000000000000000000000008152600160a060020a038d81166004830152602482018490528251941699509195508892630cb175e39260448082019392918290030181600087803b15801561170b57600080fd5b505af115801561171f573d6000803e3d6000fd5b505050506040513d604081101561173557600080fd5b508051602090910151909550935082915081851115611757576000915061175d565b84830391505b348211156117b5576040805160e560020a62461bcd02815260206004820152601260248201527f496e73756666696369656e742066756e64730000000000000000000000000000604482015290519081900360640190fd5b50600160a060020a0388166000908152609e6020526040902060010154428110156118815780151561185757609d8054600190810190915560a0805491820190557f78fdc8d422c49ced035a9edf18d00d3c6a8d81df210f3e5e448e045e77b41e88018054600160a060020a038b16600160a060020a031991821681179092556000828152609f6020908152604080832080549094168517909355609e905220555b609a54600160a060020a038a166000908152609e60205260409020429091016001909101556118b2565b609a5461189590829063ffffffff61156416565b600160a060020a038a166000908152609e60205260409020600101555b600160a060020a0389166000908152609e6020908152604090912088516118e1926002909201918a0190611b4b565b5060008511156119555785600160a060020a0316633652466386866040518363ffffffff1660e060020a0281526004018083815260200182815260200192505050600060405180830381600087803b15801561193c57600080fd5b505af1158015611950573d6000803e3d6000fd5b505050505b85600160a060020a031663939d9f1f838a6040518363ffffffff1660e060020a0281526004018083815260200182600160a060020a0316600160a060020a0316815260200192505050600060405180830381600087803b1580156119b857600080fd5b505af11580156119cc573d6000803e3d6000fd5b5050604051600160a060020a038c1692508291506000907fddf252ad1be2c89b69c2b068fc378daa952ba7f163c4a11628f55a4df523b3ef908290a4505050505050505050565b303b8015905b5090565b600160e060020a03198082161415611a3457600080fd5b600160e060020a0319166000908152603360205260409020805460ff19166001179055565b600160a060020a0381161515611a6e57600080fd5b606654604051600160a060020a038084169216907f8be0079c531659141344cd1fd0a4f28419497f9722a3daafe3b4186f6b6457e090600090a360668054600160a060020a031916600160a060020a0392909216919091179055565b828054600181600116156101000203166002900490600052602060002090601f016020900481019282601f10611b035780548555611b3f565b82800160010185558215611b3f57600052602060002091601f016020900482015b82811115611b3f578254825591600101919060010190611b24565b50611a19929150611bb9565b828054600181600116156101000203166002900490600052602060002090601f016020900481019282601f10611b8c57805160ff1916838001178555611b3f565b82800160010185558215611b3f579182015b82811115611b3f578251825591602001919060010190611b9e565b610d4091905b80821115611a195760008155600101611bbf56004e6f2073756368206b6579000000000000000000000000000000000000000000a165627a7a72305820be0f0296c7f54e6f6a0d497b8f41b62652244fa2177534a70d7837c6fb9fc5ca0029",
  "source": "pragma solidity 0.4.25;\n\nimport \"./interfaces/IUnlock.sol\";\nimport \"./interfaces/IERC721.sol\";\nimport \"./interfaces/ILockCore.sol\";\nimport \"openzeppelin-eth/contracts/ownership/Ownable.sol\";\nimport \"./interfaces/IERC721Receiver.sol\";\nimport \"openzeppelin-eth/contracts/introspection/ERC165.sol\";\nimport \"openzeppelin-eth/contracts/math/SafeMath.sol\";\n\n/**\n * TODO: consider error codes rather than strings\n */\n\n/**\n * @title The Lock contract\n * @author Julien Genestoux (unlock-protocol.com)\n * Eventually: implement ERC721.\n * @dev ERC165 allows our contract to be queried to determine whether it implements a given interface.\n * Every ERC-721 compliant contract must implement the ERC165 interface.\n * https://github.com/ethereum/EIPs/blob/master/EIPS/eip-721.md\n */\ncontract PublicLock is ILockCore, ERC165, IERC721, IERC721Receiver, Ownable {\n\n  using SafeMath for uint;\n\n  // The struct for a key\n  struct Key {\n    uint tokenId;\n    uint expirationTimestamp;\n    bytes data; // Note: This can be expensive?\n  }\n\n  // Events\n  event PriceChanged(\n    uint oldKeyPrice,\n    uint keyPrice\n  );\n\n  event Withdrawal(\n    address indexed _sender,\n    uint _amount\n    );\n\n  // Fields\n  // Unlock Protocol address\n  // TODO: should we make that private/internal?\n  address public unlockProtocol;\n\n  // Duration in seconds for which the keys are valid, after creation\n  // should we take a smaller type use less gas?\n  // TODO: add support for a timestamp instead of duration\n  uint public expirationDuration;\n\n  // price in wei of the next key\n  // TODO: allow support for a keyPriceCalculator which could set prices dynamically\n  uint public keyPrice;\n\n  // Max number of keys sold if the keyReleaseMechanism is public\n  uint public maxNumberOfKeys;\n\n  // A count of how many new key purchases there have been\n  uint public numberOfKeysSold;\n\n  // Keys\n  // Each owner can have at most exactly one key\n  // TODO: could we use public here? (this could be confusing though because it getter will\n  // return 0 values when missing a key)\n  mapping (address => Key) internal keyByOwner;\n\n  // Each tokenId can have at most exactly one owner at a time.\n  // Returns 0 if the token does not exist\n  // TODO: once we decouple tokenId from owner address (incl in js), then we can consider\n  // merging this with numberOfKeysSold into an array instead.\n  mapping (uint => address) internal ownerByTokenId;\n\n  // Addresses of owners are also stored in an array.\n  // Addresses are never removed by design to avoid abuses around referals\n  address[] public owners;\n\n  // Keeping track of approved transfers\n  // This is a mapping of addresses which have approved\n  // the transfer of a key to another address where their key can be transfered\n  // Note: the approver may actually NOT have a key... and there can only\n  // be a single approved beneficiary\n  // Note 2: for transfer, both addresses will be different\n  // Note 3: for sales (new keys on restricted locks), both addresses will be the same\n  mapping (uint => address) internal approved;\n\n  /**\n   * MODIFIERS\n   */\n  // Ensures that an owner has a key\n  modifier hasKey(\n    address _owner\n  ) {\n    Key storage key = keyByOwner[_owner];\n    require(\n      key.expirationTimestamp > 0, \"No such key\"\n    );\n    _;\n  }\n\n  // Ensures that an owner has a valid key\n  modifier hasValidKey(\n    address _owner\n  ) {\n    Key storage key = keyByOwner[_owner];\n    require(\n      key.expirationTimestamp > now, \"Key is not valid\"\n    );\n    _;\n  }\n\n  // Ensure that the caller owns the key\n  modifier onlyKeyOwner(\n    uint _tokenId\n  ) {\n    require(\n      ownerByTokenId[_tokenId] == msg.sender\n    );\n    _;\n  }\n  \n  // Ensures that a key has an owner\n  modifier isKey(\n    uint _tokenId\n  ) {\n    require(\n      ownerByTokenId[_tokenId] != address(0), \"No such key\"\n    );\n    _;\n  }\n\n  // Ensure that the caller has a key\n  // or that the caller has been approved\n  // for ownership of that key\n  modifier onlyKeyOwnerOrApproved(\n    uint _tokenId\n  ) {\n    require(\n      ownerByTokenId[_tokenId] == msg.sender\n      || _getApproved(_tokenId) == msg.sender\n    , \"Only key owner or approved owner\");\n    _;\n  }\n\n  // Ensure that the Lock has not sold all of its keys.\n  modifier notSoldOut() {\n    require(maxNumberOfKeys > numberOfKeysSold, \"Maximum number of keys already sold\");\n    _;\n  }\n\n  // Constructor\n  constructor(\n    address _owner,\n    uint _expirationDuration,\n    uint _keyPrice,\n    uint _maxNumberOfKeys\n  )\n  public {\n    require(_expirationDuration <= 100 * 365 * 24 * 60 * 60, \"Expiration duration exceeds 100 years\");\n    unlockProtocol = msg.sender; // Make sure we link back to Unlock's smart contract.\n    Ownable.initialize(_owner);\n    ERC165.initialize();\n    expirationDuration = _expirationDuration;\n    keyPrice = _keyPrice;\n    maxNumberOfKeys = _maxNumberOfKeys;\n  }\n\n  /**\n  * @dev Purchase function, public version, with no referrer.\n  * @param _recipient address of the recipient of the purchased key\n  * @param _data optional marker for the key\n  */\n  function purchaseFor(\n    address _recipient,\n    bytes _data\n  )\n    external\n    payable\n  {\n    return _purchaseFor(_recipient, address(0), _data);\n  }\n\n  /**\n  * @dev Purchase function, public version, with referrer.\n  * @param _recipient address of the recipient of the purchased key\n  * @param _referrer address of the user making the referral\n  * @param _data optional marker for the key\n  */\n  function purchaseForFrom(\n    address _recipient,\n    address _referrer,\n    bytes _data\n  )\n    external\n    payable\n    hasValidKey(_referrer)\n  {\n    return _purchaseFor(_recipient, _referrer, _data);\n  }\n\n  /**\n   * This is payable because at some point we want to allow the LOCK to capture a fee on 2ndary\n   * market transactions...\n   */\n  function transferFrom(\n    address _from,\n    address _recipient,\n    uint _tokenId\n  )\n    external\n    payable\n    notSoldOut()\n    hasValidKey(_from)\n    onlyKeyOwnerOrApproved(_tokenId)\n  {\n    require(_recipient != address(0));\n\n    uint previousExpiration = keyByOwner[_recipient].expirationTimestamp;\n\n    if (previousExpiration == 0) {\n      // The recipient did not have a key previously\n      owners.push(_recipient);\n      // Note: not using the tokenId above since ATM we do not transfer tokenId's\n      // this will change when we decouple tokenId from address\n      ownerByTokenId[uint(_recipient)] = _recipient;\n      // At the moment tokenId is the user's address, but as we work towards ERC721\n      // support this will change to a sequenceId assigned at purchase.\n      keyByOwner[_recipient].tokenId = uint(_recipient);\n    }\n\n    if (previousExpiration <= now) {\n      // The recipient did not have a key, or had a key but it expired. The new expiration is the\n      // sender's key expiration\n      keyByOwner[_recipient].expirationTimestamp = keyByOwner[_from].expirationTimestamp;\n    } else {\n      // The recipient has a non expired key. We just add them the corresponding remaining time\n      // SafeSub is not required since the if confirms `previousExpiration - now` cannot underflow\n      keyByOwner[_recipient].expirationTimestamp =\n        keyByOwner[_from].expirationTimestamp.add(previousExpiration - now);\n    }\n    // Overwite data in all cases\n    keyByOwner[_recipient].data = keyByOwner[_from].data;\n\n    // Effectively expiring the key for the previous owner\n    keyByOwner[_from].expirationTimestamp = now;\n\n    // Clear any previous approvals\n    approved[_tokenId] = address(0);\n\n    // trigger event\n    emit Transfer(\n      _from,\n      _recipient,\n      _tokenId\n    );\n  }\n\n  /**\n   * @dev Called by owner to withdraw all funds from the lock.\n   * TODO: consider allowing anybody to trigger this as long as it goes to owner anyway?\n   */\n  function withdraw()\n    external\n    onlyOwner\n  {\n    uint balance = address(this).balance;\n    require(balance > 0, \"Not enough funds\");\n    // Security: re-entrancy not a risk as this is the last line of an external function\n    _withdraw(balance);\n  }\n\n  /**\n   * @dev Called by owner to partially withdraw funds from the lock.\n   * TODO: consider allowing anybody to trigger this as long as it goes to owner anyway?\n   */\n  function partialWithdraw(uint _amount)\n    external\n    onlyOwner\n  {\n    require(_amount > 0, \"Must request an amount greater than 0\");\n    uint256 balance = address(this).balance;\n    require(balance > 0 && balance >= _amount, \"Not enough funds\");\n    // Security: re-entrancy not a risk as this is the last line of an external function\n    _withdraw(_amount);\n  }\n\n  /**\n   * This approves _approved to get ownership of _tokenId.\n   * Note: that since this is used for both purchase and transfer approvals\n   * the approved token may not exist.\n   */\n  function approve(\n    address _approved,\n    uint _tokenId\n  )\n    external\n    payable\n    onlyKeyOwner(_tokenId)\n  {\n    require(_approved != address(0));\n    require(msg.sender != _approved, \"You can't approve yourself\");\n\n    approved[_tokenId] = _approved;\n    emit Approval(ownerByTokenId[_tokenId], _approved, _tokenId);\n  }\n\n  /**\n   * A function which lets the owner of the lock to change the price for future purchases.\n   */\n  function updateKeyPrice(\n    uint _keyPrice\n  )\n    external\n    onlyOwner\n  {\n    uint oldKeyPrice = keyPrice;\n    keyPrice = _keyPrice;\n    emit PriceChanged(oldKeyPrice, keyPrice);\n  }\n\n  /**\n   * In the specific case of a Lock, each owner can own only at most 1 key.\n   * @return The number of NFTs owned by `_owner`, either 0 or 1.\n  */\n  function balanceOf(\n    address _owner\n  )\n    external\n    view\n    returns (uint)\n  {\n    require(_owner != address(0), \"Invalid address\");\n    return keyByOwner[_owner].expirationTimestamp > 0 ? 1 : 0;\n  }\n\n  /**\n   * @notice ERC721: Find the owner of an NFT\n   * @return The address of the owner of the NFT, if applicable\n  */\n  function ownerOf(\n    uint _tokenId\n  )\n    external\n    view\n    isKey(_tokenId)\n    returns (address)\n  {\n    return ownerByTokenId[_tokenId];\n  }\n\n  /**\n   * @notice Find the tokenId for a given user\n   * @return The tokenId of the NFT, else revert\n  */\n  function getTokenIdFor(\n    address _account\n  )\n    external\n    view\n    hasKey(_account)\n    returns (uint)\n  {\n    return keyByOwner[_account].tokenId;\n  }\n\n  /**\n   * external version\n   * Will return the approved recipient for a key, if any.\n   */\n  function getApproved(\n    uint _tokenId\n  )\n    external\n    view\n    returns (address)\n  {\n    return _getApproved(_tokenId);\n  }\n\n  /**\n   * Public function which returns the total number of unique owners (both expired\n   * and valid).  This may be larger than outstandingKeys.\n   */\n  function numberOfOwners()\n    public\n    view\n    returns (uint)\n  {\n    return owners.length;\n  }\n\n  /**\n   * Public function which returns the total number of unique keys sold (both \n   * expired and valid)\n   */\n  function outstandingKeys()\n    public\n    view\n    returns (uint)\n  {\n    return numberOfKeysSold;\n  }\n\n /**\n  * A function which returns a subset of the keys for this Lock as an array\n  * @param _page the page of key owners requested when faceted by page size\n  * @param _pageSize the number of Key Owners requested per page\n  */\n  function getOwnersByPage(uint _page, uint _pageSize)\n    public\n    view\n    returns (address[])\n  {\n    require(outstandingKeys() > 0, \"No keys to retrieve\");\n    uint _startIndex = _page * _pageSize;\n    require(_startIndex >= 0 && _startIndex < outstandingKeys(), \"Index must be in-bounds\");\n    uint endOfPageIndex;\n\n    if (_startIndex + _pageSize > owners.length) {\n      endOfPageIndex = owners.length;\n      _pageSize = owners.length - _startIndex;\n    } else {\n      endOfPageIndex = (_startIndex + _pageSize);\n    }\n\n    // new temp in-memory array to hold pageSize number of requested owners:\n    address[] memory ownersByPage = new address[](_pageSize);\n    uint pageIndex = 0;\n\n    // Build the requested set of owners into a new temporary array:\n    for (uint i = _startIndex; i < endOfPageIndex; i++) {\n      ownersByPage[pageIndex] = owners[i];\n      pageIndex++;\n    }\n\n    return ownersByPage;\n  }\n\n  /**\n   * A function which lets the owner of the lock expire a users' key.\n   */\n  function expireKeyFor(\n    address _owner\n  )\n    public\n    onlyOwner\n    hasValidKey(_owner)\n  {\n    keyByOwner[_owner].expirationTimestamp = now; // Effectively expiring the key\n  }\n\n  /**\n  * @dev Returns the key's data field for a given owner.\n  * @param _owner address of the user for whom we search the key\n  */\n  function keyDataFor(\n    address _owner\n  )\n    public\n    view\n    hasKey(_owner)\n    returns (bytes memory data)\n  {\n    return keyByOwner[_owner].data;\n  }\n\n  /**\n  * @dev Returns the key's ExpirationTimestamp field for a given owner.\n  * @param _owner address of the user for whom we search the key\n  */\n  function keyExpirationTimestampFor(\n    address _owner\n  )\n    public\n    view\n    hasKey(_owner)\n    returns (uint timestamp)\n  {\n    return keyByOwner[_owner].expirationTimestamp;\n  }\n\n  /**\n   * @notice Handle the receipt of an NFT\n   * @dev The ERC721 smart contract calls this function on the recipient\n   * after a `safeTransfer`. This function MUST return the function selector,\n   * otherwise the caller will revert the transaction. The selector to be\n   * returned can be obtained as `this.onERC721Received.selector`. This\n   * function MAY throw to revert and reject the transfer.\n   * Note: the ERC721 contract address is always the message sender.\n   * @param operator The address which called `safeTransferFrom` function\n   * @param from The address which previously owned the token\n   * @param tokenId The NFT identifier which is being transferred\n   * @param data Additional data with no specified format\n   * @return `bytes4(keccak256(\"onERC721Received(address,address,uint,bytes)\"))`\n   */\n  function onERC721Received(\n    address operator, // solhint-disable-line no-unused-vars\n    address from, // solhint-disable-line no-unused-vars\n    uint tokenId, // solhint-disable-line no-unused-vars\n    bytes data // solhint-disable-line no-unused-vars\n  )\n    public\n    returns(bytes4)\n  {\n    return this.onERC721Received.selector;\n  }\n\n  /**\n  * @dev Purchase function: this lets a user purchase a key from the lock for another user\n  * @param _recipient address of the recipient of the purchased key\n  * @param _data optional marker for the key\n  * This will fail if\n  *  - the keyReleaseMechanism is private\n  *  - the keyReleaseMechanism is Approved and the recipient has not been previously approved\n  *  - the amount value is smaller than the price\n  *  - the recipient already owns a key\n  * TODO: next version of solidity will allow for message to be added to require.\n  */\n  function _purchaseFor(\n    address _recipient,\n    address _referrer,\n    bytes memory _data\n  )\n    internal\n    notSoldOut() \n  { // solhint-disable-line function-max-lines\n    require(_recipient != address(0));\n\n    // Let's get the actual price for the key from the Unlock smart contract\n    IUnlock unlock = IUnlock(unlockProtocol);\n    uint discount;\n    uint tokens;\n    uint inMemoryKeyPrice = keyPrice;\n    (discount, tokens) = unlock.computeAvailableDiscountFor(_recipient, inMemoryKeyPrice);\n    uint netPrice = inMemoryKeyPrice;\n    if (discount > inMemoryKeyPrice) {\n      netPrice = 0;\n    } else {\n      // SafeSub not required as the if statement already confirmed `inMemoryKeyPrice - discount` cannot underflow\n      netPrice = inMemoryKeyPrice - discount;\n    }\n\n    // We explicitly allow for greater amounts to allow \"donations\" or partial refunds after\n    // discounts (TODO implement partial refunds)\n    require(msg.value >= netPrice, \"Insufficient funds\");\n    // TODO: If there is more than the required price, then let's return whatever is extra\n    // extra (CAREFUL: re-entrancy!)\n\n    // Assign the key\n    uint previousExpiration = keyByOwner[_recipient].expirationTimestamp;\n    if (previousExpiration < now) {\n      if (previousExpiration == 0) { \n        // This is a brand new owner, else an owner of an expired key buying an extension\n        numberOfKeysSold++;\n        owners.push(_recipient);\n        // Note: for ERC721 support we will be changing tokenId to be a sequence id instead\n        ownerByTokenId[uint(_recipient)] = _recipient;\n        // At the moment tokenId is the user's address, but as we work towards ERC721\n        // support this will change to a sequenceId assigned at purchase.\n        keyByOwner[_recipient].tokenId = uint(_recipient);\n      }\n      // SafeAdd is not required here since expirationDuration is capped to a tiny value \n      // (relative to the size of a uint)\n      keyByOwner[_recipient].expirationTimestamp = now + expirationDuration;\n    } else {\n      // This is an existing owner trying to extend their key\n      keyByOwner[_recipient].expirationTimestamp = previousExpiration.add(expirationDuration);\n    }\n    // Overwite data in all cases\n    keyByOwner[_recipient].data = _data;\n\n    if (discount > 0) {\n      unlock.recordConsumedDiscount(discount, tokens);\n    }\n\n    unlock.recordKeyPurchase(netPrice, _referrer);\n\n    // trigger event\n    emit Transfer(\n      address(0), // This is a creation.\n      _recipient,\n      uint(_recipient) // Note: since each user can own a single token, we use the current\n      // owner (new!) for the token id\n    );\n  }\n\n  /**\n   * Will return the approved recipient for a key transfer or ownership.\n   * Note: this does not check that a corresponding key\n   * actually exists.\n   */\n  function _getApproved(\n    uint _tokenId\n  )\n    internal\n    view\n    returns (address)\n  {\n    address approvedRecipient = approved[_tokenId];\n    require(approvedRecipient != address(0), \"No approved recipient exists\");\n    return approvedRecipient;\n  }\n\n  /**\n   * @dev private version of the withdraw function which handles all withdrawals from the lock.\n   * \n   * Security: Be wary of re-entrancy when calling this.\n   */\n  function _withdraw(uint _amount)\n    private\n  {\n    Ownable.owner().transfer(_amount);\n    emit Withdrawal(msg.sender, _amount);\n  }\n\n}",
  "sourcePath": "/Users/julien/repos/unlock/smart-contracts/contracts/PublicLock.sol",
  "compiler": {
    "name": "solc",
    "version": "0.4.25+commit.59dbf8f1.Emscripten.clang"
  },
  "schemaVersion": "2.0.2",
  "updatedAt": "2019-03-02T13:33:23.745Z"
}