{
  "contractName": "PublicLock",
  "abi": [
    {
      "constant": true,
      "inputs": [
        {
          "name": "interfaceId",
          "type": "bytes4"
        }
      ],
      "name": "supportsInterface",
      "outputs": [
        {
          "name": "",
          "type": "bool"
        }
      ],
      "payable": false,
      "stateMutability": "view",
      "type": "function"
    },
    {
      "constant": true,
      "inputs": [
        {
          "name": "",
          "type": "uint256"
        }
      ],
      "name": "owners",
      "outputs": [
        {
          "name": "",
          "type": "address"
        }
      ],
      "payable": false,
      "stateMutability": "view",
      "type": "function"
    },
    {
      "constant": true,
      "inputs": [],
      "name": "name",
      "outputs": [
        {
          "name": "",
          "type": "string"
        }
      ],
      "payable": false,
      "stateMutability": "view",
      "type": "function"
    },
    {
      "constant": true,
      "inputs": [
        {
          "name": "_tokenId",
          "type": "uint256"
        }
      ],
      "name": "getApproved",
      "outputs": [
        {
          "name": "",
          "type": "address"
        }
      ],
      "payable": false,
      "stateMutability": "view",
      "type": "function"
    },
    {
      "constant": false,
      "inputs": [
        {
          "name": "_approved",
          "type": "address"
        },
        {
          "name": "_tokenId",
          "type": "uint256"
        }
      ],
      "name": "approve",
      "outputs": [],
      "payable": true,
      "stateMutability": "payable",
      "type": "function"
    },
    {
      "constant": true,
      "inputs": [],
      "name": "refundPenaltyDenominator",
      "outputs": [
        {
          "name": "",
          "type": "uint256"
        }
      ],
      "payable": false,
      "stateMutability": "view",
      "type": "function"
    },
    {
      "constant": true,
      "inputs": [],
      "name": "refundPenaltyNumerator",
      "outputs": [
        {
          "name": "",
          "type": "uint256"
        }
      ],
      "payable": false,
      "stateMutability": "view",
      "type": "function"
    },
    {
      "constant": true,
      "inputs": [],
      "name": "unlockProtocol",
      "outputs": [
        {
          "name": "",
          "type": "address"
        }
      ],
      "payable": false,
      "stateMutability": "view",
      "type": "function"
    },
    {
      "constant": true,
      "inputs": [
        {
          "name": "_page",
          "type": "uint256"
        },
        {
          "name": "_pageSize",
          "type": "uint256"
        }
      ],
      "name": "getOwnersByPage",
      "outputs": [
        {
          "name": "",
          "type": "address[]"
        }
      ],
      "payable": false,
      "stateMutability": "view",
      "type": "function"
    },
    {
      "constant": true,
      "inputs": [],
      "name": "keyPrice",
      "outputs": [
        {
          "name": "",
          "type": "uint256"
        }
      ],
      "payable": false,
      "stateMutability": "view",
      "type": "function"
    },
    {
      "constant": true,
      "inputs": [],
      "name": "expirationDuration",
      "outputs": [
        {
          "name": "",
          "type": "uint256"
        }
      ],
      "payable": false,
      "stateMutability": "view",
      "type": "function"
    },
    {
      "constant": false,
      "inputs": [
        {
          "name": "",
          "type": "address"
        },
        {
          "name": "",
          "type": "address"
        },
        {
          "name": "",
          "type": "uint256"
        },
        {
          "name": "",
          "type": "bytes"
        }
      ],
      "name": "onERC721Received",
      "outputs": [
        {
          "name": "",
          "type": "bytes4"
        }
      ],
      "payable": false,
      "stateMutability": "nonpayable",
      "type": "function"
    },
    {
      "constant": true,
      "inputs": [],
      "name": "totalSupply",
      "outputs": [
        {
          "name": "",
          "type": "uint256"
        }
      ],
      "payable": false,
      "stateMutability": "view",
      "type": "function"
    },
    {
      "constant": false,
      "inputs": [
        {
          "name": "_keyPrice",
          "type": "uint256"
        }
      ],
      "name": "updateKeyPrice",
      "outputs": [],
      "payable": false,
      "stateMutability": "nonpayable",
      "type": "function"
    },
    {
      "constant": false,
      "inputs": [],
      "name": "cancelAndRefund",
      "outputs": [],
      "payable": false,
      "stateMutability": "nonpayable",
      "type": "function"
    },
    {
      "constant": false,
      "inputs": [
        {
          "name": "_from",
          "type": "address"
        },
        {
          "name": "_recipient",
          "type": "address"
        },
        {
          "name": "_tokenId",
          "type": "uint256"
        }
      ],
      "name": "transferFrom",
      "outputs": [],
      "payable": true,
      "stateMutability": "payable",
      "type": "function"
    },
    {
      "constant": false,
      "inputs": [
        {
          "name": "_refundPenaltyNumerator",
          "type": "uint256"
        },
        {
          "name": "_refundPenaltyDenominator",
          "type": "uint256"
        }
      ],
      "name": "updateRefundPenalty",
      "outputs": [],
      "payable": false,
      "stateMutability": "nonpayable",
      "type": "function"
    },
    {
      "constant": true,
      "inputs": [],
      "name": "numberOfKeysSold",
      "outputs": [
        {
          "name": "",
          "type": "uint256"
        }
      ],
      "payable": false,
      "stateMutability": "view",
      "type": "function"
    },
    {
      "constant": false,
      "inputs": [],
      "name": "withdraw",
      "outputs": [],
      "payable": false,
      "stateMutability": "nonpayable",
      "type": "function"
    },
    {
      "constant": false,
      "inputs": [
        {
          "name": "_transferFeeNumerator",
          "type": "uint256"
        },
        {
          "name": "_transferFeeDenominator",
          "type": "uint256"
        }
      ],
      "name": "updateTransferFee",
      "outputs": [],
      "payable": false,
      "stateMutability": "nonpayable",
      "type": "function"
    },
    {
      "constant": true,
      "inputs": [],
      "name": "isAlive",
      "outputs": [
        {
          "name": "",
          "type": "bool"
        }
      ],
      "payable": false,
      "stateMutability": "view",
      "type": "function"
    },
    {
      "constant": false,
      "inputs": [
        {
          "name": "_from",
          "type": "address"
        },
        {
          "name": "_to",
          "type": "address"
        },
        {
          "name": "_tokenId",
          "type": "uint256"
        }
      ],
      "name": "safeTransferFrom",
      "outputs": [],
      "payable": true,
      "stateMutability": "payable",
      "type": "function"
    },
    {
      "constant": true,
      "inputs": [
        {
          "name": "_owner",
          "type": "address"
        }
      ],
      "name": "getCancelAndRefundValueFor",
      "outputs": [
        {
          "name": "refund",
          "type": "uint256"
        }
      ],
      "payable": false,
      "stateMutability": "view",
      "type": "function"
    },
    {
      "constant": false,
      "inputs": [
        {
          "name": "_lockName",
          "type": "string"
        }
      ],
      "name": "updateLockName",
      "outputs": [],
      "payable": false,
      "stateMutability": "nonpayable",
      "type": "function"
    },
    {
      "constant": true,
      "inputs": [
        {
          "name": "_tokenId",
          "type": "uint256"
        }
      ],
      "name": "ownerOf",
      "outputs": [
        {
          "name": "",
          "type": "address"
        }
      ],
      "payable": false,
      "stateMutability": "view",
      "type": "function"
    },
    {
      "constant": true,
      "inputs": [
        {
          "name": "_owner",
          "type": "address"
        }
      ],
      "name": "getHasValidKey",
      "outputs": [
        {
          "name": "",
          "type": "bool"
        }
      ],
      "payable": false,
      "stateMutability": "view",
      "type": "function"
    },
    {
      "constant": true,
      "inputs": [
        {
          "name": "_owner",
          "type": "address"
        }
      ],
      "name": "balanceOf",
      "outputs": [
        {
          "name": "",
          "type": "uint256"
        }
      ],
      "payable": false,
      "stateMutability": "view",
      "type": "function"
    },
    {
      "constant": false,
      "inputs": [
        {
          "name": "_recipient",
          "type": "address"
        },
        {
          "name": "_referrer",
          "type": "address"
        }
      ],
      "name": "purchaseForFrom",
      "outputs": [],
      "payable": true,
      "stateMutability": "payable",
      "type": "function"
    },
    {
      "constant": false,
      "inputs": [],
      "name": "renounceOwnership",
      "outputs": [],
      "payable": false,
      "stateMutability": "nonpayable",
      "type": "function"
    },
    {
      "constant": false,
      "inputs": [
        {
          "name": "_amount",
          "type": "uint256"
        }
      ],
      "name": "partialWithdraw",
      "outputs": [],
      "payable": false,
      "stateMutability": "nonpayable",
      "type": "function"
    },
    {
      "constant": true,
      "inputs": [],
      "name": "maxNumberOfKeys",
      "outputs": [
        {
          "name": "",
          "type": "uint256"
        }
      ],
      "payable": false,
      "stateMutability": "view",
      "type": "function"
    },
    {
      "constant": false,
      "inputs": [
        {
          "name": "_recipients",
          "type": "address[]"
        },
        {
          "name": "_expirationTimestamps",
          "type": "uint256[]"
        }
      ],
      "name": "grantKeys",
      "outputs": [],
      "payable": false,
      "stateMutability": "nonpayable",
      "type": "function"
    },
    {
      "constant": true,
      "inputs": [],
      "name": "owner",
      "outputs": [
        {
          "name": "",
          "type": "address"
        }
      ],
      "payable": false,
      "stateMutability": "view",
      "type": "function"
    },
    {
      "constant": true,
      "inputs": [],
      "name": "isOwner",
      "outputs": [
        {
          "name": "",
          "type": "bool"
        }
      ],
      "payable": false,
      "stateMutability": "view",
      "type": "function"
    },
    {
      "constant": true,
      "inputs": [],
      "name": "transferFeeNumerator",
      "outputs": [
        {
          "name": "",
          "type": "uint256"
        }
      ],
      "payable": false,
      "stateMutability": "view",
      "type": "function"
    },
    {
      "constant": true,
      "inputs": [],
      "name": "numberOfOwners",
      "outputs": [
        {
          "name": "",
          "type": "uint256"
        }
      ],
      "payable": false,
      "stateMutability": "view",
      "type": "function"
    },
    {
      "constant": true,
      "inputs": [
        {
          "name": "_account",
          "type": "address"
        }
      ],
      "name": "getTokenIdFor",
      "outputs": [
        {
          "name": "",
          "type": "uint256"
        }
      ],
      "payable": false,
      "stateMutability": "view",
      "type": "function"
    },
    {
      "constant": true,
      "inputs": [
        {
          "name": "_tokenId",
          "type": "uint256"
        },
        {
          "name": "_owner",
          "type": "address"
        }
      ],
      "name": "isKeyOwner",
      "outputs": [
        {
          "name": "",
          "type": "bool"
        }
      ],
      "payable": false,
      "stateMutability": "view",
      "type": "function"
    },
    {
      "constant": false,
      "inputs": [
        {
          "name": "_recipient",
          "type": "address"
        },
        {
          "name": "_expirationTimestamp",
          "type": "uint256"
        }
      ],
      "name": "grantKey",
      "outputs": [],
      "payable": false,
      "stateMutability": "nonpayable",
      "type": "function"
    },
    {
      "constant": true,
      "inputs": [],
      "name": "tokenAddress",
      "outputs": [
        {
          "name": "",
          "type": "address"
        }
      ],
      "payable": false,
      "stateMutability": "view",
      "type": "function"
    },
    {
      "constant": false,
      "inputs": [
        {
          "name": "_owner",
          "type": "address"
        }
      ],
      "name": "expireKeyFor",
      "outputs": [],
      "payable": false,
      "stateMutability": "nonpayable",
      "type": "function"
    },
    {
      "constant": false,
      "inputs": [
        {
          "name": "_to",
          "type": "address"
        },
        {
          "name": "_approved",
          "type": "bool"
        }
      ],
      "name": "setApprovalForAll",
      "outputs": [],
      "payable": false,
      "stateMutability": "nonpayable",
      "type": "function"
    },
    {
      "constant": false,
      "inputs": [],
      "name": "destroyLock",
      "outputs": [],
      "payable": false,
      "stateMutability": "nonpayable",
      "type": "function"
    },
    {
      "constant": true,
      "inputs": [
        {
          "name": "_owner",
          "type": "address"
        }
      ],
      "name": "keyExpirationTimestampFor",
      "outputs": [
        {
          "name": "timestamp",
          "type": "uint256"
        }
      ],
      "payable": false,
      "stateMutability": "view",
      "type": "function"
    },
    {
      "constant": false,
      "inputs": [
        {
          "name": "_from",
          "type": "address"
        },
        {
          "name": "_to",
          "type": "address"
        },
        {
          "name": "_tokenId",
          "type": "uint256"
        },
        {
          "name": "_data",
          "type": "bytes"
        }
      ],
      "name": "safeTransferFrom",
      "outputs": [],
      "payable": true,
      "stateMutability": "payable",
      "type": "function"
    },
    {
      "constant": false,
      "inputs": [],
      "name": "disableLock",
      "outputs": [],
      "payable": false,
      "stateMutability": "nonpayable",
      "type": "function"
    },
    {
      "constant": false,
      "inputs": [
        {
          "name": "sender",
          "type": "address"
        }
      ],
      "name": "initialize",
      "outputs": [],
      "payable": false,
      "stateMutability": "nonpayable",
      "type": "function"
    },
    {
      "constant": true,
      "inputs": [],
      "name": "publicLockVersion",
      "outputs": [
        {
          "name": "",
          "type": "uint256"
        }
      ],
      "payable": false,
      "stateMutability": "view",
      "type": "function"
    },
    {
      "constant": true,
      "inputs": [],
      "name": "transferFeeDenominator",
      "outputs": [
        {
          "name": "",
          "type": "uint256"
        }
      ],
      "payable": false,
      "stateMutability": "view",
      "type": "function"
    },
    {
      "constant": true,
      "inputs": [
        {
          "name": "_owner",
          "type": "address"
        },
        {
          "name": "_operator",
          "type": "address"
        }
      ],
      "name": "isApprovedForAll",
      "outputs": [
        {
          "name": "",
          "type": "bool"
        }
      ],
      "payable": false,
      "stateMutability": "view",
      "type": "function"
    },
    {
      "constant": false,
      "inputs": [
        {
          "name": "newOwner",
          "type": "address"
        }
      ],
      "name": "transferOwnership",
      "outputs": [],
      "payable": false,
      "stateMutability": "nonpayable",
      "type": "function"
    },
    {
      "constant": false,
      "inputs": [
        {
          "name": "_recipient",
          "type": "address"
        }
      ],
      "name": "purchaseFor",
      "outputs": [],
      "payable": true,
      "stateMutability": "payable",
      "type": "function"
    },
    {
      "constant": false,
      "inputs": [
        {
          "name": "_recipients",
          "type": "address[]"
        },
        {
          "name": "_expirationTimestamp",
          "type": "uint256"
        }
      ],
      "name": "grantKeys",
      "outputs": [],
      "payable": false,
      "stateMutability": "nonpayable",
      "type": "function"
    },
    {
      "inputs": [
        {
          "name": "_owner",
          "type": "address"
        },
        {
          "name": "_expirationDuration",
          "type": "uint256"
        },
        {
          "name": "_tokenAddress",
          "type": "address"
        },
        {
          "name": "_keyPrice",
          "type": "uint256"
        },
        {
          "name": "_maxNumberOfKeys",
          "type": "uint256"
        }
      ],
      "payable": false,
      "stateMutability": "nonpayable",
      "type": "constructor"
    },
    {
      "payable": false,
      "stateMutability": "nonpayable",
      "type": "fallback"
    },
    {
      "anonymous": false,
      "inputs": [
        {
          "indexed": false,
          "name": "oldTransferFeeNumerator",
          "type": "uint256"
        },
        {
          "indexed": false,
          "name": "oldTransferFeeDenominator",
          "type": "uint256"
        },
        {
          "indexed": false,
          "name": "transferFeeNumerator",
          "type": "uint256"
        },
        {
          "indexed": false,
          "name": "transferFeeDenominator",
          "type": "uint256"
        }
      ],
      "name": "TransferFeeChanged",
      "type": "event"
    },
    {
      "anonymous": false,
      "inputs": [
        {
          "indexed": true,
          "name": "tokenId",
          "type": "uint256"
        },
        {
          "indexed": true,
          "name": "owner",
          "type": "address"
        },
        {
          "indexed": false,
          "name": "refund",
          "type": "uint256"
        }
      ],
      "name": "CancelKey",
      "type": "event"
    },
    {
      "anonymous": false,
      "inputs": [
        {
          "indexed": false,
          "name": "oldRefundPenaltyNumerator",
          "type": "uint256"
        },
        {
          "indexed": false,
          "name": "oldRefundPenaltyDenominator",
          "type": "uint256"
        },
        {
          "indexed": false,
          "name": "refundPenaltyNumerator",
          "type": "uint256"
        },
        {
          "indexed": false,
          "name": "refundPenaltyDenominator",
          "type": "uint256"
        }
      ],
      "name": "RefundPenaltyChanged",
      "type": "event"
    },
    {
      "anonymous": false,
      "inputs": [
        {
          "indexed": false,
          "name": "tokenId",
          "type": "uint256"
        }
      ],
      "name": "ExpireKey",
      "type": "event"
    },
    {
      "anonymous": false,
      "inputs": [
        {
          "indexed": false,
          "name": "oldKeyPrice",
          "type": "uint256"
        },
        {
          "indexed": false,
          "name": "keyPrice",
          "type": "uint256"
        }
      ],
      "name": "PriceChanged",
      "type": "event"
    },
    {
      "anonymous": false,
      "inputs": [
        {
          "indexed": true,
          "name": "_sender",
          "type": "address"
        },
        {
          "indexed": false,
          "name": "_amount",
          "type": "uint256"
        }
      ],
      "name": "Withdrawal",
      "type": "event"
    },
    {
      "anonymous": false,
      "inputs": [
        {
          "indexed": false,
          "name": "balance",
          "type": "uint256"
        },
        {
          "indexed": true,
          "name": "owner",
          "type": "address"
        }
      ],
      "name": "Destroy",
      "type": "event"
    },
    {
      "anonymous": false,
      "inputs": [],
      "name": "Disable",
      "type": "event"
    },
    {
      "anonymous": false,
      "inputs": [
        {
          "indexed": true,
          "name": "previousOwner",
          "type": "address"
        },
        {
          "indexed": true,
          "name": "newOwner",
          "type": "address"
        }
      ],
      "name": "OwnershipTransferred",
      "type": "event"
    },
    {
      "anonymous": false,
      "inputs": [
        {
          "indexed": true,
          "name": "_from",
          "type": "address"
        },
        {
          "indexed": true,
          "name": "_to",
          "type": "address"
        },
        {
          "indexed": true,
          "name": "_tokenId",
          "type": "uint256"
        }
      ],
      "name": "Transfer",
      "type": "event"
    },
    {
      "anonymous": false,
      "inputs": [
        {
          "indexed": true,
          "name": "_owner",
          "type": "address"
        },
        {
          "indexed": true,
          "name": "_approved",
          "type": "address"
        },
        {
          "indexed": true,
          "name": "_tokenId",
          "type": "uint256"
        }
      ],
      "name": "Approval",
      "type": "event"
    },
    {
      "anonymous": false,
      "inputs": [
        {
          "indexed": true,
          "name": "_owner",
          "type": "address"
        },
        {
          "indexed": true,
          "name": "_operator",
          "type": "address"
        },
        {
          "indexed": false,
          "name": "_approved",
          "type": "bool"
        }
      ],
      "name": "ApprovalForAll",
      "type": "event"
    }
  ],
  "bytecode": "0x60806040526001607455600a607555600560765560646077553480156200002557600080fd5b5060405160a080620038c2833981018060405260a08110156200004757600080fd5b50805160208201516040830151606084015160809094015192939192909190838282600186620000a07f01ffc9a700000000000000000000000000000000000000000000000000000000640100000000620002d8810204565b600160a060020a03811615806200013a5750600081600160a060020a03166318160ddd6040518163ffffffff167c010000000000000000000000000000000000000000000000000000000002815260040160206040518083038186803b1580156200010a57600080fd5b505afa1580156200011f573d6000803e3d6000fd5b505050506040513d60208110156200013657600080fd5b5051115b620001a657604080517f08c379a000000000000000000000000000000000000000000000000000000000815260206004820152600d60248201527f494e56414c49445f544f4b454e00000000000000000000000000000000000000604482015290519081900360640190fd5b6067805460a060020a60ff0219600160a060020a03909316600160a060020a031990911617919091167401000000000000000000000000000000000000000017905563bbf81e008411156200025c57604080517f08c379a000000000000000000000000000000000000000000000000000000000815260206004820152601860248201527f4d41585f45585049524154494f4e5f3130305f59454152530000000000000000604482015290519081900360640190fd5b60688054600160a060020a03191633179055606993909355606a91909155606b55606d55620002b47f80ac58cd00000000000000000000000000000000000000000000000000000000640100000000620002d8810204565b620002cd85640100000000620022846200034582021704565b505050505062000460565b7fffffffff0000000000000000000000000000000000000000000000000000000080821614156200030857600080fd5b7fffffffff00000000000000000000000000000000000000000000000000000000166000908152602081905260409020805460ff19166001179055565b600154610100900460ff16806200036a57506200036a6401000000006200045a810204565b8062000379575060015460ff16155b620003d0576040517f08c379a000000000000000000000000000000000000000000000000000000000815260040180806020018281038252602e81526020018062003894602e913960400191505060405180910390fd5b6001805461010061ff00198216811760ff1916831790925560348054600160a060020a031916600160a060020a0385811691909117918290556040519390920460ff16929116906000907f8be0079c531659141344cd1fd0a4f28419497f9722a3daafe3b4186f6b6457e0908290a3600180549115156101000261ff001990921691909117905550565b303b1590565b61342480620004706000396000f3fe608060405260043610610337576000357c01000000000000000000000000000000000000000000000000000000009004806370a08231116101c85780639d76ea5811610114578063c4d66de8116100b2578063e985e9c51161008c578063e985e9c514610ddb578063f2fde38b14610e16578063f6e4641f14610e49578063f8faf94214610e6f57610337565b8063c4d66de814610d7e578063d1bbd49c14610db1578063d42cfc4114610dc657610337565b8063a843a4e7116100ee578063a843a4e714610c5b578063abdf82ce14610c70578063b88d4fde14610ca3578063c1c98d0314610d6957610337565b80639d76ea5814610bd85780639f98d3cb14610bed578063a22cb46514610c2057610337565b80638da5cb5b1161018157806393fd18441161015b57806393fd184414610b1e578063970aaeb714610b33578063994a8a7114610b665780639b3f0b1714610b9f57610337565b80638da5cb5b14610adf5780638f32d59b14610af45780638f98ce8f14610b0957610337565b806370a082311461095b57806370efb7701461098e578063715018a6146109bc57806371d2ee6c146109d157806374b6c106146109fb5780637c7c425314610a1057610337565b80631f1ec029116102875780633d3359cb1161024057806352d6a8e41161021a57806352d6a8e41461084e578063550ef3a8146108815780636352211e146108fe5780636d8ea5b41461092857610337565b80633d3359cb146107d35780634136aa351461080357806342842e0e1461081857610337565b80631f1ec029146107045780632009dc651461072e57806323b872dd1461074357806339f46986146107795780633ba70e31146107a95780633ccfd60b146107be57610337565b80630ed3e2cc116102f457806310e56973116102ce57806310e56973146105d557806311a4c03a146105ea578063150b7a02146105ff57806318160ddd146106ef57610337565b80630ed3e2cc1461052b5780630f15023b1461054057806310803b721461055557610337565b806301ffc9a714610394578063025e7c27146103dc57806306fdde0314610422578063081812fc146104ac578063095ea7b3146104d65780630c79130f14610504575b34801561034357600080fd5b506040805160e560020a62461bcd02815260206004820152600b60248201527f4e4f5f46414c4c4241434b000000000000000000000000000000000000000000604482015290519081900360640190fd5b3480156103a057600080fd5b506103c8600480360360208110156103b757600080fd5b5035600160e060020a031916610eec565b604080519115158252519081900360200190f35b3480156103e857600080fd5b50610406600480360360208110156103ff57600080fd5b5035610f0f565b60408051600160a060020a039092168252519081900360200190f35b34801561042e57600080fd5b50610437610f36565b6040805160208082528351818301528351919283929083019185019080838360005b83811015610471578181015183820152602001610459565b50505050905090810190601f16801561049e5780820380516001836020036101000a031916815260200191505b509250505060405180910390f35b3480156104b857600080fd5b50610406600480360360208110156104cf57600080fd5b5035610fcd565b610502600480360360408110156104ec57600080fd5b50600160a060020a038135169060200135610fde565b005b34801561051057600080fd5b50610519611191565b60408051918252519081900360200190f35b34801561053757600080fd5b50610519611197565b34801561054c57600080fd5b5061040661119d565b34801561056157600080fd5b506105856004803603604081101561057857600080fd5b50803590602001356111ac565b60408051602080825283518183015283519192839290830191858101910280838360005b838110156105c15781810151838201526020016105a9565b505050509050019250505060405180910390f35b3480156105e157600080fd5b506105196112d1565b3480156105f657600080fd5b506105196112d7565b34801561060b57600080fd5b506106d26004803603608081101561062257600080fd5b600160a060020a0382358116926020810135909116916040820135919081019060808101606082013564010000000081111561065d57600080fd5b82018360208201111561066f57600080fd5b8035906020019184600183028401116401000000008311171561069157600080fd5b91908080601f0160208091040260200160405190810160405280939291908181526020018383808284376000920191909152509295506112dd945050505050565b60408051600160e060020a03199092168252519081900360200190f35b3480156106fb57600080fd5b50610519611307565b34801561071057600080fd5b506105026004803603602081101561072757600080fd5b503561130d565b34801561073a57600080fd5b506105026113b4565b6105026004803603606081101561075957600080fd5b50600160a060020a03813581169160208101359091169060400135611420565b34801561078557600080fd5b506105026004803603604081101561079c57600080fd5b508035906020013561164f565b3480156107b557600080fd5b5061051961170d565b3480156107ca57600080fd5b50610502611713565b3480156107df57600080fd5b50610502600480360360408110156107f657600080fd5b5080359060200135611795565b34801561080f57600080fd5b506103c8611853565b6105026004803603606081101561082e57600080fd5b50600160a060020a03813581169160208101359091169060400135611863565b34801561085a57600080fd5b506105196004803603602081101561087157600080fd5b5035600160a060020a0316611883565b34801561088d57600080fd5b50610502600480360360208110156108a457600080fd5b8101906020810181356401000000008111156108bf57600080fd5b8201836020820111156108d157600080fd5b803590602001918460018302840111640100000000831117156108f357600080fd5b50909250905061188e565b34801561090a57600080fd5b506104066004803603602081101561092157600080fd5b50356118ab565b34801561093457600080fd5b506103c86004803603602081101561094b57600080fd5b5035600160a060020a0316611936565b34801561096757600080fd5b506105196004803603602081101561097e57600080fd5b5035600160a060020a0316611956565b610502600480360360408110156109a457600080fd5b50600160a060020a03813581169160200135166119d7565b3480156109c857600080fd5b50610502611a7c565b3480156109dd57600080fd5b50610502600480360360208110156109f457600080fd5b5035611ae4565b348015610a0757600080fd5b50610519611bbb565b348015610a1c57600080fd5b5061050260048036036040811015610a3357600080fd5b810190602081018135640100000000811115610a4e57600080fd5b820183602082011115610a6057600080fd5b80359060200191846020830284011164010000000083111715610a8257600080fd5b919390929091602081019035640100000000811115610aa057600080fd5b820183602082011115610ab257600080fd5b80359060200191846020830284011164010000000083111715610ad457600080fd5b509092509050611bc1565b348015610aeb57600080fd5b50610406611c23565b348015610b0057600080fd5b506103c8611c32565b348015610b1557600080fd5b50610519611c43565b348015610b2a57600080fd5b50610519611c49565b348015610b3f57600080fd5b5061051960048036036020811015610b5657600080fd5b5035600160a060020a0316611c4f565b348015610b7257600080fd5b506103c860048036036040811015610b8957600080fd5b5080359060200135600160a060020a0316611ce1565b348015610bab57600080fd5b5061050260048036036040811015610bc257600080fd5b50600160a060020a038135169060200135611d02565b348015610be457600080fd5b50610406611d1d565b348015610bf957600080fd5b5061050260048036036020811015610c1057600080fd5b5035600160a060020a0316611d2c565b348015610c2c57600080fd5b5061050260048036036040811015610c4357600080fd5b50600160a060020a0381351690602001351515611de4565b348015610c6757600080fd5b50610502611f02565b348015610c7c57600080fd5b5061051960048036036020811015610c9357600080fd5b5035600160a060020a0316611faf565b61050260048036036080811015610cb957600080fd5b600160a060020a03823581169260208101359091169160408201359190810190608081016060820135640100000000811115610cf457600080fd5b820183602082011115610d0657600080fd5b80359060200191846001830284011164010000000083111715610d2857600080fd5b91908080601f016020809104026020016040519081016040528093929190818152602001838380828437600092019190915250929550612044945050505050565b348015610d7557600080fd5b506105026121db565b348015610d8a57600080fd5b5061050260048036036020811015610da157600080fd5b5035600160a060020a0316612284565b348015610dbd57600080fd5b50610519612380565b348015610dd257600080fd5b50610519612386565b348015610de757600080fd5b506103c860048036036040811015610dfe57600080fd5b50600160a060020a038135811691602001351661238c565b348015610e2257600080fd5b5061050260048036036020811015610e3957600080fd5b5035600160a060020a03166123ba565b61050260048036036020811015610e5f57600080fd5b5035600160a060020a03166123d4565b348015610e7b57600080fd5b5061050260048036036040811015610e9257600080fd5b810190602081018135640100000000811115610ead57600080fd5b820183602082011115610ebf57600080fd5b80359060200191846020830284011164010000000083111715610ee157600080fd5b91935091503561242e565b600160e060020a0319811660009081526020819052604090205460ff165b919050565b60708181548110610f1c57fe5b600091825260209091200154600160a060020a0316905081565b60738054604080516020601f6002600019610100600188161502019095169490940493840181900481028201810190925282815260609390929091830182828015610fc25780601f10610f9757610100808354040283529160200191610fc2565b820191906000526020600020905b815481529060010190602001808311610fa557829003601f168201915b505050505090505b90565b6000610fd88261247d565b92915050565b60675460a060020a900460ff1661102d576040805160e560020a62461bcd02815260206004820152600f602482015260008051602061336b833981519152604482015290519081900360640190fd5b806110388133611ce1565b80611048575061104881336124ea565b80611060575061106061105a826118ab565b3361238c565b6110b4576040805160e560020a62461bcd02815260206004820152601a60248201527f4f4e4c595f4b45595f4f574e45525f4f525f415050524f564544000000000000604482015290519081900360640190fd5b33600160a060020a0384161415611115576040805160e560020a62461bcd02815260206004820152600c60248201527f415050524f56455f53454c460000000000000000000000000000000000000000604482015290519081900360640190fd5b6000828152607160205260409020805473ffffffffffffffffffffffffffffffffffffffff1916600160a060020a0385169081179091558290611157826118ab565b600160a060020a03167f8c5be1e5ebec7d5bd14f71427d1e84f3dd0314c0f7b2291e5b200ac8c7c3b92560405160405180910390a4505050565b60755481565b60745481565b606854600160a060020a031681565b607054606090611206576040805160e560020a62461bcd02815260206004820152601360248201527f4e4f5f4f55545354414e44494e475f4b45595300000000000000000000000000604482015290519081900360640190fd5b60705482908482029060009082840111156112295750607054818103925061122e565b508082015b60608360405190808252806020026020018201604052801561125a578160200160208202803883390190505b5090506000835b838110156112c4576070818154811061127657fe5b9060005260206000200160009054906101000a9004600160a060020a03168383815181106112a057fe5b600160a060020a039092166020928302919091019091015260019182019101611261565b5090979650505050505050565b606a5481565b60695481565b7f150b7a02000000000000000000000000000000000000000000000000000000005b949350505050565b606c5490565b611315611c32565b61131e57600080fd5b60675460a060020a900460ff1661136d576040805160e560020a62461bcd02815260206004820152600f602482015260008051602061336b833981519152604482015290519081900360640190fd5b606a805490829055604080518281526020810184905281517f8aa4fa52648a6d15edce8a179c792c86f3719d0cc3c572cf90f91948f0f2cb68929181900390910190a15050565b60006113bf3361250b565b905060006113cc33612525565b825460408051838152905192935033927f6f64cc1e7c0b20e2221d29714cd68b961e800f1ae03450a17c8bc0510e02bf729181900360200190a3426001830155801561141c5761141c3382612605565b5050565b60675460a060020a900460ff1661146f576040805160e560020a62461bcd02815260206004820152600f602482015260008051602061336b833981519152604482015290519081900360640190fd5b8261147981611936565b6114bb576040805160e560020a62461bcd02815260206004820152600d60248201526000805160206133b9833981519152604482015290519081900360640190fd5b816114c68133611ce1565b806114d657506114d681336124ea565b806114e857506114e861105a826118ab565b61153c576040805160e560020a62461bcd02815260206004820152601a60248201527f4f4e4c595f4b45595f4f574e45525f4f525f415050524f564544000000000000604482015290519081900360640190fd5b600160a060020a038416611588576040805160e560020a62461bcd02815260206004820152600f60248201526000805160206133d9833981519152604482015290519081900360640190fd5b60006115938661250b565b905060006115a08661250b565b60018101548154919250906115b457825482555b6115c287836000015461283b565b4281116115d857600180840154908301556115f5565b60018301546115ef9042830363ffffffff6128cf16565b60018301555b426001840155611604866128e8565b8587600160a060020a031689600160a060020a03167fddf252ad1be2c89b69c2b068fc378daa952ba7f163c4a11628f55a4df523b3ef60405160405180910390a45050505050505050565b611657611c32565b61166057600080fd5b806116b5576040805160e560020a62461bcd02815260206004820152600c60248201527f494e56414c49445f524154450000000000000000000000000000000000000000604482015290519081900360640190fd5b60745460755460408051928352602083019190915281810184905260608201839052517fa7d13855fe99b8c8b2780f36ff9e06133878b66a664a951b2375fe2296cc00089181900360800190a1607491909155607555565b606c5481565b61171b611c32565b61172457600080fd5b600061172f30612930565b905060008111611789576040805160e560020a62461bcd02815260206004820152601060248201527f4e4f545f454e4f5547485f46554e445300000000000000000000000000000000604482015290519081900360640190fd5b611792816129d7565b50565b61179d611c32565b6117a657600080fd5b806117fb576040805160e560020a62461bcd02815260206004820152600c60248201527f494e56414c49445f524154450000000000000000000000000000000000000000604482015290519081900360640190fd5b60765460775460408051928352602083019190915281810184905260608201839052517ff0cc3b8bd450a20cce7720453e064b35cf490baa5d53c7c6ef8b2e1b02898a7d9181900360800190a1607691909155607755565b60675460a060020a900460ff1681565b61187e83838360405180602001604052806000815250612044565b505050565b6000610fd882612525565b611896611c32565b61189f57600080fd5b61187e607383836132d2565b6000818152606f60205260408120548290600160a060020a0316611919576040805160e560020a62461bcd02815260206004820152600b60248201527f4e4f5f535543485f4b4559000000000000000000000000000000000000000000604482015290519081900360640190fd5b50506000908152606f6020526040902054600160a060020a031690565b600160a060020a03166000908152606e6020526040902060010154421090565b6000600160a060020a0382166119a4576040805160e560020a62461bcd02815260206004820152600f60248201526000805160206133d9833981519152604482015290519081900360640190fd5b600160a060020a0382166000908152606e60205260409020600101546119cb5760006119ce565b60015b60ff1692915050565b60675460a060020a900460ff16611a26576040805160e560020a62461bcd02815260206004820152600f602482015260008051602061336b833981519152604482015290519081900360640190fd5b80611a3081611936565b611a72576040805160e560020a62461bcd02815260206004820152600d60248201526000805160206133b9833981519152604482015290519081900360640190fd5b61187e8383612a21565b611a84611c32565b611a8d57600080fd5b603454604051600091600160a060020a0316907f8be0079c531659141344cd1fd0a4f28419497f9722a3daafe3b4186f6b6457e0908390a36034805473ffffffffffffffffffffffffffffffffffffffff19169055565b611aec611c32565b611af557600080fd5b60008111611b4d576040805160e560020a62461bcd02815260206004820152601160248201527f475245415445525f5448414e5f5a45524f000000000000000000000000000000604482015290519081900360640190fd5b6000611b5830612930565b905081811015611bb2576040805160e560020a62461bcd02815260206004820152601060248201527f4e4f545f454e4f5547485f46554e445300000000000000000000000000000000604482015290519081900360640190fd5b61141c826129d7565b606b5481565b611bc9611c32565b611bd257600080fd5b60005b83811015611c1c57611c14858583818110611bec57fe5b90506020020135600160a060020a0316848484818110611c0857fe5b90506020020135612d43565b600101611bd5565b5050505050565b603454600160a060020a031690565b603454600160a060020a0316331490565b60765481565b60705490565b600160a060020a0381166000908152606e602052604081206001810154839190611cc3576040805160e560020a62461bcd02815260206004820152600b60248201527f4e4f5f535543485f4b4559000000000000000000000000000000000000000000604482015290519081900360640190fd5b505050600160a060020a03166000908152606e602052604090205490565b6000918252606f602052604090912054600160a060020a0391821691161490565b611d0a611c32565b611d1357600080fd5b61141c8282612d43565b606754600160a060020a031681565b611d34611c32565b611d3d57600080fd5b80611d4781611936565b611d89576040805160e560020a62461bcd02815260206004820152600d60248201526000805160206133b9833981519152604482015290519081900360640190fd5b600160a060020a0382166000908152606e602090815260409182902042600182015580548351908152925190927f59f2fe866dd27a1c2d34115520888c3150365cbc931aab97fa88c4b9ab40b79592908290030190a1505050565b60675460a060020a900460ff16611e33576040805160e560020a62461bcd02815260206004820152600f602482015260008051602061336b833981519152604482015290519081900360640190fd5b600160a060020a038216331415611e94576040805160e560020a62461bcd02815260206004820152600c60248201527f415050524f56455f53454c460000000000000000000000000000000000000000604482015290519081900360640190fd5b336000818152607260209081526040808320600160a060020a03871680855290835292819020805460ff1916861515908117909155815190815290519293927f17307eab39ab6107e8899845ad3d59bd9653f200f220920489ca2b5937696c31929181900390910190a35050565b611f0a611c32565b611f1357600080fd5b60675460a060020a900460ff1615611f75576040805160e560020a62461bcd02815260206004820152600d60248201527f44495341424c455f464952535400000000000000000000000000000000000000604482015290519081900360640190fd5b6040805130318152905133917fa053f2a7eceda47dde76e5939c5adf7b771e665fc84c8ef6feffc290a1eb1feb919081900360200190a233ff5b600160a060020a0381166000908152606e602052604081206001810154839190612023576040805160e560020a62461bcd02815260206004820152600b60248201527f4e4f5f535543485f4b4559000000000000000000000000000000000000000000604482015290519081900360640190fd5b505050600160a060020a03166000908152606e602052604090206001015490565b60675460a060020a900460ff16612093576040805160e560020a62461bcd02815260206004820152600f602482015260008051602061336b833981519152604482015290519081900360640190fd5b8161209e8133611ce1565b806120ae57506120ae81336124ea565b806120c057506120c061105a826118ab565b612114576040805160e560020a62461bcd02815260206004820152601a60248201527f4f4e4c595f4b45595f4f574e45525f4f525f415050524f564544000000000000604482015290519081900360640190fd5b61211d836118ab565b61212681611936565b612168576040805160e560020a62461bcd02815260206004820152600d60248201526000805160206133b9833981519152604482015290519081900360640190fd5b612173868686611420565b61217f86868686612e52565b6121d3576040805160e560020a62461bcd02815260206004820152601d60248201527f4e4f4e5f434f4d504c49414e545f4552433732315f5245434549564552000000604482015290519081900360640190fd5b505050505050565b6121e3611c32565b6121ec57600080fd5b60675460a060020a900460ff1661223b576040805160e560020a62461bcd02815260206004820152600f602482015260008051602061336b833981519152604482015290519081900360640190fd5b6040517f25a311358326fb18c62efc24bc28d3126acee8d2a67fd8b2145b757dc8bd1bc190600090a16067805474ff000000000000000000000000000000000000000019169055565b600154610100900460ff168061229d575061229d612fb7565b806122ab575060015460ff16155b6122e95760405160e560020a62461bcd02815260040180806020018281038252602e81526020018061338b602e913960400191505060405180910390fd5b6001805461010061ff00198216811760ff191683179092556034805473ffffffffffffffffffffffffffffffffffffffff1916600160a060020a0385811691909117918290556040519390920460ff16929116906000907f8be0079c531659141344cd1fd0a4f28419497f9722a3daafe3b4186f6b6457e0908290a3600180549115156101000261ff001990921691909117905550565b606d5481565b60775481565b600160a060020a03918216600090815260726020908152604080832093909416825291909152205460ff1690565b6123c2611c32565b6123cb57600080fd5b61179281612fbd565b60675460a060020a900460ff16612423576040805160e560020a62461bcd02815260206004820152600f602482015260008051602061336b833981519152604482015290519081900360640190fd5b611792816000612a21565b612436611c32565b61243f57600080fd5b60005b828110156124775761246f84848381811061245957fe5b90506020020135600160a060020a031683612d43565b600101612442565b50505050565b600081815260716020526040812054600160a060020a031680610fd8576040805160e560020a62461bcd02815260206004820152600d60248201527f4e4f4e455f415050524f56454400000000000000000000000000000000000000604482015290519081900360640190fd5b60009182526071602052604090912054600160a060020a0391821691161490565b600160a060020a03166000908152606e6020526040902090565b60008161253181611936565b612573576040805160e560020a62461bcd02815260206004820152600d60248201526000805160206133b9833981519152604482015290519081900360640190fd5b600061257e8461250b565b90506000428260010154039050606954811061259e57606a5493506125bf565b606954606a546125b4908363ffffffff61303916565b816125bb57fe5b0493505b60006075546125db607454606a5461303990919063ffffffff16565b816125e257fe5b049050808511156125f75780850394506125fc565b600094505b50505050919050565b606754600160a060020a031661265157604051600160a060020a0383169082156108fc029083906000818181858888f1935050505015801561264b573d6000803e3d6000fd5b5061141c565b6067546040805160e060020a6370a08231028152600160a060020a0385811660048301529151919092169160009183916370a08231916024808301926020929190829003018186803b1580156126a657600080fd5b505afa1580156126ba573d6000803e3d6000fd5b505050506040513d60208110156126d057600080fd5b5051604080517fa9059cbb000000000000000000000000000000000000000000000000000000008152600160a060020a0387811660048301526024820187905291519293509084169163a9059cbb916044808201926020929091908290030181600087803b15801561274157600080fd5b505af1158015612755573d6000803e3d6000fd5b505050506040513d602081101561276b57600080fd5b50506040805160e060020a6370a08231028152600160a060020a038681166004830152915183928516916370a08231916024808301926020929190829003018186803b1580156127ba57600080fd5b505afa1580156127ce573d6000803e3d6000fd5b505050506040513d60208110156127e457600080fd5b505111612477576040805160e560020a62461bcd02815260206004820152600f60248201527f5452414e534645525f4641494c45440000000000000000000000000000000000604482015290519081900360640190fd5b6000818152606f6020526040902054600160a060020a0383811691161461141c5760708054600181019091557f8f6b23ffa15f0465e3176e15ca644cf24f86dc1312fe715484e3c4aead5eb78b018054600160a060020a03841673ffffffffffffffffffffffffffffffffffffffff1991821681179092556000838152606f60205260409020805490911690911790555050565b6000828201838110156128e157600080fd5b9392505050565b600081815260716020526040902054600160a060020a031615611792576000908152607160205260409020805473ffffffffffffffffffffffffffffffffffffffff19169055565b606754600090600160a060020a03166129545750600160a060020a03811631610f0a565b6067546040805160e060020a6370a08231028152600160a060020a038581166004830152915191909216916370a08231916024808301926020929190829003018186803b1580156129a457600080fd5b505afa1580156129b8573d6000803e3d6000fd5b505050506040513d60208110156129ce57600080fd5b50519050610f0a565b6129e86129e2611c23565b82612605565b60408051828152905133917f7fcf532c15f0a6db0bd6d0e038bea71d30d808c7d98cb3bf7268a95bf5081b65919081900360200190a250565b606c54606b5411612a7c576040805160e560020a62461bcd02815260206004820152600d60248201527f4c4f434b5f534f4c445f4f555400000000000000000000000000000000000000604482015290519081900360640190fd5b600160a060020a038216612ac8576040805160e560020a62461bcd02815260206004820152600f60248201526000805160206133d9833981519152604482015290519081900360640190fd5b606a54606854604080517f0cb175e3000000000000000000000000000000000000000000000000000000008152600160a060020a03868116600483015260248201859052825160009586959094921692630cb175e3926044808301939192829003018186803b158015612b3a57600080fd5b505afa158015612b4e573d6000803e3d6000fd5b505050506040513d6040811015612b6457600080fd5b50805160209091015190935091508080841115612b8357506000612b88565b508281035b612b9181613060565b6000612b9c8761250b565b600181015490915042811015612bd257612bb5826132b7565b612bc388836000015461283b565b60695442016001830155612bec565b606954612be690829063ffffffff6128cf16565b60018301555b8515612c7857606854604080517f3652466300000000000000000000000000000000000000000000000000000000815260048101899052602481018890529051600160a060020a039092169163365246639160448082019260009290919082900301818387803b158015612c5f57600080fd5b505af1158015612c73573d6000803e3d6000fd5b505050505b606854604080517f939d9f1f00000000000000000000000000000000000000000000000000000000815260048101869052600160a060020a038a811660248301529151919092169163939d9f1f91604480830192600092919082900301818387803b158015612ce657600080fd5b505af1158015612cfa573d6000803e3d6000fd5b5050606c54604051909250600160a060020a038b1691506000907fddf252ad1be2c89b69c2b068fc378daa952ba7f163c4a11628f55a4df523b3ef908290a45050505050505050565b600160a060020a038216612d8f576040805160e560020a62461bcd02815260206004820152600f60248201526000805160206133d9833981519152604482015290519081900360640190fd5b6000612d9a8361250b565b905080600101548211612df7576040805160e560020a62461bcd02815260206004820152601060248201527f414c52454144595f4f574e535f4b455900000000000000000000000000000000604482015290519081900360640190fd5b612e00816132b7565b612e0e83826000015461283b565b600181018290558054604051600160a060020a038516906000907fddf252ad1be2c89b69c2b068fc378daa952ba7f163c4a11628f55a4df523b3ef908290a4505050565b6000612e6684600160a060020a03166132cc565b612e72575060016112ff565b6040517f150b7a020000000000000000000000000000000000000000000000000000000081523360048201818152600160a060020a03888116602485015260448401879052608060648501908152865160848601528651600095928a169463150b7a029490938c938b938b939260a4019060208501908083838e5b83811015612f05578181015183820152602001612eed565b50505050905090810190601f168015612f325780820380516001836020036101000a031916815260200191505b5095505050505050602060405180830381600087803b158015612f5457600080fd5b505af1158015612f68573d6000803e3d6000fd5b505050506040513d6020811015612f7e57600080fd5b5051600160e060020a0319167f150b7a020000000000000000000000000000000000000000000000000000000014915050949350505050565b303b1590565b600160a060020a038116612fd057600080fd5b603454604051600160a060020a038084169216907f8be0079c531659141344cd1fd0a4f28419497f9722a3daafe3b4186f6b6457e090600090a36034805473ffffffffffffffffffffffffffffffffffffffff1916600160a060020a0392909216919091179055565b60008261304857506000610fd8565b8282028284828161305557fe5b04146128e157600080fd5b606754600160a060020a03166130cd57803410156130c8576040805160e560020a62461bcd02815260206004820152601060248201527f4e4f545f454e4f5547485f46554e445300000000000000000000000000000000604482015290519081900360640190fd5b611792565b6067546040805160e060020a6370a082310281523060048201529051600160a060020a039092169160009183916370a0823191602480820192602092909190829003018186803b15801561312057600080fd5b505afa158015613134573d6000803e3d6000fd5b505050506040513d602081101561314a57600080fd5b5051604080517f23b872dd000000000000000000000000000000000000000000000000000000008152336004820152306024820152604481018690529051919250600160a060020a038416916323b872dd916064808201926020929091908290030181600087803b1580156131be57600080fd5b505af11580156131d2573d6000803e3d6000fd5b505050506040513d60208110156131e857600080fd5b50506040805160e060020a6370a0823102815230600482015290518291600160a060020a038516916370a0823191602480820192602092909190829003018186803b15801561323657600080fd5b505afa15801561324a573d6000803e3d6000fd5b505050506040513d602081101561326057600080fd5b50511161187e576040805160e560020a62461bcd02815260206004820152600f60248201527f5452414e534645525f4641494c45440000000000000000000000000000000000604482015290519081900360640190fd5b805461179257606c8054600101908190559055565b3b151590565b828054600181600116156101000203166002900490600052602060002090601f016020900481019282601f106133135782800160ff19823516178555613340565b82800160010185558215613340579182015b82811115613340578235825591602001919060010190613325565b5061334c929150613350565b5090565b610fca91905b8082111561334c576000815560010161335656fe4c4f434b5f444550524543415445440000000000000000000000000000000000436f6e747261637420696e7374616e63652068617320616c7265616479206265656e20696e697469616c697a65644b45595f4e4f545f56414c494400000000000000000000000000000000000000494e56414c49445f414444524553530000000000000000000000000000000000a165627a7a72305820307d7415f1879a4c56340443cd73d8bea62267dd331ec6d62442029fc4f258790029436f6e747261637420696e7374616e63652068617320616c7265616479206265656e20696e697469616c697a6564",
  "source": "pragma solidity 0.5.7;\n\nimport './interfaces/IERC721.sol';\nimport './interfaces/ILockCore.sol';\nimport 'openzeppelin-eth/contracts/ownership/Ownable.sol';\nimport 'openzeppelin-solidity/contracts/introspection/ERC165.sol';\nimport 'openzeppelin-solidity/contracts/token/ERC721/ERC721Holder.sol';\nimport './mixins/MixinApproval.sol';\nimport './mixins/MixinDisableAndDestroy.sol';\nimport './mixins/MixinFunds.sol';\nimport './mixins/MixinGrantKeys.sol';\nimport './mixins/MixinKeys.sol';\nimport './mixins/MixinLockCore.sol';\nimport './mixins/MixinLockMetadata.sol';\nimport './mixins/MixinNoFallback.sol';\nimport './mixins/MixinPurchase.sol';\nimport './mixins/MixinRefunds.sol';\nimport './mixins/MixinTransfer.sol';\n\n\n/**\n * @title The Lock contract\n * @author Julien Genestoux (unlock-protocol.com)\n * Eventually: implement ERC721.\n * @dev ERC165 allows our contract to be queried to determine whether it implements a given interface.\n * Every ERC-721 compliant contract must implement the ERC165 interface.\n * https://eips.ethereum.org/EIPS/eip-721\n */\ncontract PublicLock is\n  MixinNoFallback,\n  ERC721Holder,\n  IERC721,\n  ILockCore,\n  ERC165,\n  Ownable,\n  MixinFunds,\n  MixinDisableAndDestroy,\n  MixinLockCore,\n  MixinKeys,\n  MixinGrantKeys,\n  MixinApproval,\n  MixinLockMetadata,\n  MixinRefunds,\n  MixinPurchase,\n  MixinTransfer\n{\n  constructor(\n    address _owner,\n    uint _expirationDuration,\n    address _tokenAddress,\n    uint _keyPrice,\n    uint _maxNumberOfKeys\n  )\n    public\n    MixinFunds(_tokenAddress)\n    MixinLockCore(_expirationDuration, _keyPrice, _maxNumberOfKeys, 1)\n  {\n    // registering the interface for erc721 with ERC165.sol using\n    // the ID specified in the standard: https://eips.ethereum.org/EIPS/eip-721\n    _registerInterface(0x80ac58cd);\n    // We must manually initialize Ownable.sol\n    Ownable.initialize(_owner);\n  }\n}\n",
  "sourcePath": "/Users/julien/repos/unlock/smart-contracts/contracts/PublicLock.sol",
  "compiler": {
    "name": "solc",
    "version": "0.5.7+commit.6da8b019.Emscripten.clang"
  },
  "schemaVersion": "3.0.6",
  "updatedAt": "2019-04-04T15:05:08.513Z",
  "devdoc": {
    "author": "Julien Genestoux (unlock-protocol.com) Eventually: implement ERC721.",
    "details": "ERC165 allows our contract to be queried to determine whether it implements a given interface. Every ERC-721 compliant contract must implement the ERC165 interface. https://eips.ethereum.org/EIPS/eip-721",
    "methods": {
      "balanceOf(address)": {
        "return": "The number of NFTs owned by `_owner`, either 0 or 1."
      },
      "cancelAndRefund()": {
        "details": "Destroys the user's key and sends a refund based on the amount of time remaining."
      },
      "destroyLock()": {
        "details": "Used to clean up old lock contracts from the blockchain TODO: add a check to ensure all keys are INVALID!"
      },
      "disableLock()": {
        "details": "Used to disable lock before migrating keys and/or destroying contract"
      },
      "getCancelAndRefundValueFor(address)": {
        "details": "Determines how much of a refund a key owner would receive if they issued a cancelAndRefund block.timestamp. Note that due to the time required to mine a tx, the actual refund amount will be lower than what the user reads from this call."
      },
      "getOwnersByPage(uint256,uint256)": {
        "params": {
          "_page": "the page of key owners requested when faceted by page size",
          "_pageSize": "the number of Key Owners requested per page"
        }
      },
      "getTokenIdFor(address)": {
        "return": "The tokenId of the NFT, else revert"
      },
      "initialize(address)": {
        "details": "The Ownable constructor sets the original `owner` of the contract to the sender account."
      },
      "isApprovedForAll(address,address)": {
        "details": "Tells whether an operator is approved by a given owner",
        "params": {
          "_operator": "operator address which you want to query the approval of",
          "_owner": "owner address which you want to query the approval of"
        },
        "return": "bool whether the given operator is approved by the given owner"
      },
      "isOwner()": {
        "return": "true if `msg.sender` is the owner of the contract."
      },
      "keyExpirationTimestampFor(address)": {
        "details": "Returns the key's ExpirationTimestamp field for a given owner.",
        "params": {
          "_owner": "address of the user for whom we search the key"
        }
      },
      "name()": {
        "details": "Gets the token name",
        "return": "string representing the token name"
      },
      "owner()": {
        "return": "the address of the owner."
      },
      "ownerOf(uint256)": {
        "return": "The address of the owner of the NFT, if applicable"
      },
      "partialWithdraw(uint256)": {
        "details": "Called by owner to partially withdraw funds from the lock. TODO: consider allowing anybody to trigger this as long as it goes to owner anyway?"
      },
      "purchaseFor(address)": {
        "details": "Purchase function, public version, with no referrer.",
        "params": {
          "_recipient": "address of the recipient of the purchased key"
        }
      },
      "purchaseForFrom(address,address)": {
        "details": "Purchase function, public version, with referrer.",
        "params": {
          "_recipient": "address of the recipient of the purchased key",
          "_referrer": "address of the user making the referral"
        }
      },
      "renounceOwnership()": {
        "details": "Allows the current owner to relinquish control of the contract."
      },
      "safeTransferFrom(address,address,uint256)": {
        "details": "This works identically to the other function with an extra data parameter, except this function just sets data to ''",
        "params": {
          "_from": "The current owner of the NFT",
          "_to": "The new owner",
          "_tokenId": "The NFT to transfer"
        }
      },
      "safeTransferFrom(address,address,uint256,bytes)": {
        "params": {
          "_data": "Additional data with no specified format, sent in call to `_to`",
          "_from": "The current owner of the NFT",
          "_to": "The new owner",
          "_tokenId": "The NFT to transfer"
        }
      },
      "setApprovalForAll(address,bool)": {
        "details": "Sets or unsets the approval of a given operator An operator is allowed to transfer all tokens of the sender on their behalf",
        "params": {
          "_approved": "representing the status of the approval to be set",
          "_to": "operator address to set the approval"
        }
      },
      "supportsInterface(bytes4)": {
        "details": "implement supportsInterface(bytes4) using a lookup table"
      },
      "transferOwnership(address)": {
        "details": "Allows the current owner to transfer control of the contract to a newOwner.",
        "params": {
          "newOwner": "The address to transfer ownership to."
        }
      },
      "withdraw()": {
        "details": "Called by owner to withdraw all funds from the lock. TODO: consider allowing anybody to trigger this as long as it goes to owner anyway?"
      }
    },
    "title": "The Lock contract"
  },
  "userdoc": {
    "methods": {
      "approve(address,uint256)": {
        "notice": "This approves _approved to get ownership of _tokenId. Note: that since this is used for both purchase and transfer approvals the approved token may not exist."
      },
      "balanceOf(address)": {
        "notice": "In the specific case of a Lock, each owner can own only at most 1 key."
      },
      "expireKeyFor(address)": {
        "notice": "A function which lets the owner of the lock expire a users' key."
      },
      "getApproved(uint256)": {
        "notice": "external version Will return the approved recipient for a key, if any."
      },
      "getHasValidKey(address)": {
        "notice": "Checks if the user has a non-expired key."
      },
      "getOwnersByPage(uint256,uint256)": {
        "notice": "A function which returns a subset of the keys for this Lock as an array"
      },
      "getTokenIdFor(address)": {
        "notice": "Find the tokenId for a given user"
      },
      "grantKey(address,uint256)": {
        "notice": "Allows the Lock owner to give a user a key with no charge."
      },
      "grantKeys(address[],uint256)": {
        "notice": "Allows the Lock owner to give a collection of users a key with no charge. All keys granted have the same expiration date."
      },
      "grantKeys(address[],uint256[])": {
        "notice": "Allows the Lock owner to give a collection of users a key with no charge. Each key may be assigned a different expiration date."
      },
      "isKeyOwner(uint256,address)": {
        "notice": "Checks if the given address owns the given tokenId."
      },
      "numberOfOwners()": {
        "notice": "Public function which returns the total number of unique owners (both expired and valid).  This may be larger than totalSupply."
      },
      "ownerOf(uint256)": {
        "notice": "ERC721: Find the owner of an NFT"
      },
      "renounceOwnership()": {
        "notice": "Renouncing to ownership will leave the contract without an owner. It will not be possible to call the functions with the `onlyOwner` modifier anymore."
      },
      "safeTransferFrom(address,address,uint256)": {
        "notice": "Transfers the ownership of an NFT from one address to another address"
      },
      "safeTransferFrom(address,address,uint256,bytes)": {
        "notice": "Transfers the ownership of an NFT from one address to another address. When transfer is complete, this functions checks if `_to` is a smart contract (code size > 0). If so, it calls `onERC721Received` on `_to` and throws if the return value is not `bytes4(keccak256('onERC721Received(address,address,uint,bytes)'))`."
      },
      "totalSupply()": {
        "notice": "Public function which returns the total number of unique keys sold (both expired and valid)"
      },
      "transferFrom(address,address,uint256)": {
        "notice": "This is payable because at some point we want to allow the LOCK to capture a fee on 2ndary market transactions..."
      },
      "updateKeyPrice(uint256)": {
        "notice": "A function which lets the owner of the lock to change the price for future purchases."
      },
      "updateLockName(string)": {
        "notice": "Allows the Lock owner to assign a descriptive name for this Lock."
      },
      "updateRefundPenalty(uint256,uint256)": {
        "notice": "Allow the owner to change the refund penalty."
      },
      "updateTransferFee(uint256,uint256)": {
        "notice": "Allow the Lock owner to change the transfer fee."
      }
    }
  }
}