{
  "_format": "hh-sol-artifact-1",
  "contractName": "PublicLock",
  "sourceName": "contracts/PublicLock.sol",
  "abi": [
    {
      "inputs": [],
      "name": "CANNOT_APPROVE_SELF",
      "type": "error"
    },
    {
      "inputs": [],
      "name": "CANT_BE_SMALLER_THAN_SUPPLY",
      "type": "error"
    },
    {
      "inputs": [],
      "name": "CANT_EXTEND_NON_EXPIRING_KEY",
      "type": "error"
    },
    {
      "inputs": [],
      "name": "GAS_REFUND_FAILED",
      "type": "error"
    },
    {
      "inputs": [],
      "name": "INSUFFICIENT_ERC20_VALUE",
      "type": "error"
    },
    {
      "inputs": [],
      "name": "INSUFFICIENT_VALUE",
      "type": "error"
    },
    {
      "inputs": [],
      "name": "INVALID_ADDRESS",
      "type": "error"
    },
    {
      "inputs": [
        {
          "internalType": "uint8",
          "name": "hookIndex",
          "type": "uint8"
        }
      ],
      "name": "INVALID_HOOK",
      "type": "error"
    },
    {
      "inputs": [],
      "name": "INVALID_LENGTH",
      "type": "error"
    },
    {
      "inputs": [],
      "name": "INVALID_TOKEN",
      "type": "error"
    },
    {
      "inputs": [],
      "name": "KEY_NOT_VALID",
      "type": "error"
    },
    {
      "inputs": [],
      "name": "KEY_TRANSFERS_DISABLED",
      "type": "error"
    },
    {
      "inputs": [],
      "name": "LOCK_HAS_CHANGED",
      "type": "error"
    },
    {
      "inputs": [],
      "name": "LOCK_SOLD_OUT",
      "type": "error"
    },
    {
      "inputs": [],
      "name": "MAX_KEYS_REACHED",
      "type": "error"
    },
    {
      "inputs": [],
      "name": "MIGRATION_REQUIRED",
      "type": "error"
    },
    {
      "inputs": [],
      "name": "NON_COMPLIANT_ERC721_RECEIVER",
      "type": "error"
    },
    {
      "inputs": [],
      "name": "NON_RENEWABLE_LOCK",
      "type": "error"
    },
    {
      "inputs": [],
      "name": "NOT_ENOUGH_FUNDS",
      "type": "error"
    },
    {
      "inputs": [],
      "name": "NOT_ENOUGH_TIME",
      "type": "error"
    },
    {
      "inputs": [],
      "name": "NOT_READY_FOR_RENEWAL",
      "type": "error"
    },
    {
      "inputs": [],
      "name": "NO_SUCH_KEY",
      "type": "error"
    },
    {
      "inputs": [],
      "name": "NULL_VALUE",
      "type": "error"
    },
    {
      "inputs": [],
      "name": "ONLY_KEY_MANAGER_OR_APPROVED",
      "type": "error"
    },
    {
      "inputs": [],
      "name": "ONLY_LOCK_MANAGER",
      "type": "error"
    },
    {
      "inputs": [],
      "name": "ONLY_LOCK_MANAGER_OR_BENEFICIARY",
      "type": "error"
    },
    {
      "inputs": [],
      "name": "ONLY_LOCK_MANAGER_OR_KEY_GRANTER",
      "type": "error"
    },
    {
      "inputs": [],
      "name": "OUT_OF_RANGE",
      "type": "error"
    },
    {
      "inputs": [],
      "name": "OWNER_CANT_BE_ADDRESS_ZERO",
      "type": "error"
    },
    {
      "inputs": [],
      "name": "SCHEMA_VERSION_NOT_CORRECT",
      "type": "error"
    },
    {
      "inputs": [],
      "name": "TRANSFER_TO_SELF",
      "type": "error"
    },
    {
      "inputs": [],
      "name": "UNAUTHORIZED",
      "type": "error"
    },
    {
      "inputs": [],
      "name": "UNAUTHORIZED_KEY_MANAGER_UPDATE",
      "type": "error"
    },
    {
      "anonymous": false,
      "inputs": [
        {
          "indexed": true,
          "internalType": "address",
          "name": "owner",
          "type": "address"
        },
        {
          "indexed": true,
          "internalType": "address",
          "name": "approved",
          "type": "address"
        },
        {
          "indexed": true,
          "internalType": "uint256",
          "name": "tokenId",
          "type": "uint256"
        }
      ],
      "name": "Approval",
      "type": "event"
    },
    {
      "anonymous": false,
      "inputs": [
        {
          "indexed": true,
          "internalType": "address",
          "name": "owner",
          "type": "address"
        },
        {
          "indexed": true,
          "internalType": "address",
          "name": "operator",
          "type": "address"
        },
        {
          "indexed": false,
          "internalType": "bool",
          "name": "approved",
          "type": "bool"
        }
      ],
      "name": "ApprovalForAll",
      "type": "event"
    },
    {
      "anonymous": false,
      "inputs": [
        {
          "indexed": true,
          "internalType": "uint256",
          "name": "tokenId",
          "type": "uint256"
        },
        {
          "indexed": true,
          "internalType": "address",
          "name": "owner",
          "type": "address"
        },
        {
          "indexed": true,
          "internalType": "address",
          "name": "sendTo",
          "type": "address"
        },
        {
          "indexed": false,
          "internalType": "uint256",
          "name": "refund",
          "type": "uint256"
        }
      ],
      "name": "CancelKey",
      "type": "event"
    },
    {
      "anonymous": false,
      "inputs": [
        {
          "indexed": true,
          "internalType": "uint256",
          "name": "tokenId",
          "type": "uint256"
        },
        {
          "indexed": false,
          "internalType": "uint256",
          "name": "newExpiration",
          "type": "uint256"
        },
        {
          "indexed": false,
          "internalType": "uint256",
          "name": "amount",
          "type": "uint256"
        },
        {
          "indexed": false,
          "internalType": "bool",
          "name": "timeAdded",
          "type": "bool"
        }
      ],
      "name": "ExpirationChanged",
      "type": "event"
    },
    {
      "anonymous": false,
      "inputs": [
        {
          "indexed": true,
          "internalType": "uint256",
          "name": "tokenId",
          "type": "uint256"
        }
      ],
      "name": "ExpireKey",
      "type": "event"
    },
    {
      "anonymous": false,
      "inputs": [
        {
          "indexed": true,
          "internalType": "address",
          "name": "receiver",
          "type": "address"
        },
        {
          "indexed": false,
          "internalType": "uint256",
          "name": "refundedAmount",
          "type": "uint256"
        },
        {
          "indexed": false,
          "internalType": "address",
          "name": "tokenAddress",
          "type": "address"
        }
      ],
      "name": "GasRefunded",
      "type": "event"
    },
    {
      "anonymous": false,
      "inputs": [
        {
          "indexed": false,
          "internalType": "uint8",
          "name": "version",
          "type": "uint8"
        }
      ],
      "name": "Initialized",
      "type": "event"
    },
    {
      "anonymous": false,
      "inputs": [
        {
          "indexed": true,
          "internalType": "uint256",
          "name": "tokenId",
          "type": "uint256"
        },
        {
          "indexed": false,
          "internalType": "uint256",
          "name": "newTimestamp",
          "type": "uint256"
        }
      ],
      "name": "KeyExtended",
      "type": "event"
    },
    {
      "anonymous": false,
      "inputs": [
        {
          "indexed": true,
          "internalType": "address",
          "name": "account",
          "type": "address"
        }
      ],
      "name": "KeyGranterAdded",
      "type": "event"
    },
    {
      "anonymous": false,
      "inputs": [
        {
          "indexed": true,
          "internalType": "address",
          "name": "account",
          "type": "address"
        }
      ],
      "name": "KeyGranterRemoved",
      "type": "event"
    },
    {
      "anonymous": false,
      "inputs": [
        {
          "indexed": true,
          "internalType": "uint256",
          "name": "_tokenId",
          "type": "uint256"
        },
        {
          "indexed": true,
          "internalType": "address",
          "name": "_newManager",
          "type": "address"
        }
      ],
      "name": "KeyManagerChanged",
      "type": "event"
    },
    {
      "anonymous": false,
      "inputs": [
        {
          "indexed": false,
          "internalType": "uint256",
          "name": "updatedRecordsCount",
          "type": "uint256"
        }
      ],
      "name": "KeysMigrated",
      "type": "event"
    },
    {
      "anonymous": false,
      "inputs": [
        {
          "indexed": false,
          "internalType": "uint256",
          "name": "expirationDuration",
          "type": "uint256"
        },
        {
          "indexed": false,
          "internalType": "uint256",
          "name": "maxNumberOfKeys",
          "type": "uint256"
        },
        {
          "indexed": false,
          "internalType": "uint256",
          "name": "maxKeysPerAddress",
          "type": "uint256"
        }
      ],
      "name": "LockConfig",
      "type": "event"
    },
    {
      "anonymous": false,
      "inputs": [
        {
          "indexed": true,
          "internalType": "address",
          "name": "account",
          "type": "address"
        }
      ],
      "name": "LockManagerAdded",
      "type": "event"
    },
    {
      "anonymous": false,
      "inputs": [
        {
          "indexed": true,
          "internalType": "address",
          "name": "account",
          "type": "address"
        }
      ],
      "name": "LockManagerRemoved",
      "type": "event"
    },
    {
      "anonymous": false,
      "inputs": [
        {
          "indexed": false,
          "internalType": "string",
          "name": "symbol",
          "type": "string"
        }
      ],
      "name": "NewLockSymbol",
      "type": "event"
    },
    {
      "anonymous": false,
      "inputs": [
        {
          "indexed": false,
          "internalType": "address",
          "name": "previousOwner",
          "type": "address"
        },
        {
          "indexed": false,
          "internalType": "address",
          "name": "newOwner",
          "type": "address"
        }
      ],
      "name": "OwnershipTransferred",
      "type": "event"
    },
    {
      "anonymous": false,
      "inputs": [
        {
          "indexed": false,
          "internalType": "uint256",
          "name": "oldKeyPrice",
          "type": "uint256"
        },
        {
          "indexed": false,
          "internalType": "uint256",
          "name": "keyPrice",
          "type": "uint256"
        },
        {
          "indexed": false,
          "internalType": "address",
          "name": "oldTokenAddress",
          "type": "address"
        },
        {
          "indexed": false,
          "internalType": "address",
          "name": "tokenAddress",
          "type": "address"
        }
      ],
      "name": "PricingChanged",
      "type": "event"
    },
    {
      "anonymous": false,
      "inputs": [
        {
          "indexed": false,
          "internalType": "uint256",
          "name": "freeTrialLength",
          "type": "uint256"
        },
        {
          "indexed": false,
          "internalType": "uint256",
          "name": "refundPenaltyBasisPoints",
          "type": "uint256"
        }
      ],
      "name": "RefundPenaltyChanged",
      "type": "event"
    },
    {
      "anonymous": false,
      "inputs": [
        {
          "indexed": true,
          "internalType": "bytes32",
          "name": "role",
          "type": "bytes32"
        },
        {
          "indexed": true,
          "internalType": "bytes32",
          "name": "previousAdminRole",
          "type": "bytes32"
        },
        {
          "indexed": true,
          "internalType": "bytes32",
          "name": "newAdminRole",
          "type": "bytes32"
        }
      ],
      "name": "RoleAdminChanged",
      "type": "event"
    },
    {
      "anonymous": false,
      "inputs": [
        {
          "indexed": true,
          "internalType": "bytes32",
          "name": "role",
          "type": "bytes32"
        },
        {
          "indexed": true,
          "internalType": "address",
          "name": "account",
          "type": "address"
        },
        {
          "indexed": true,
          "internalType": "address",
          "name": "sender",
          "type": "address"
        }
      ],
      "name": "RoleGranted",
      "type": "event"
    },
    {
      "anonymous": false,
      "inputs": [
        {
          "indexed": true,
          "internalType": "bytes32",
          "name": "role",
          "type": "bytes32"
        },
        {
          "indexed": true,
          "internalType": "address",
          "name": "account",
          "type": "address"
        },
        {
          "indexed": true,
          "internalType": "address",
          "name": "sender",
          "type": "address"
        }
      ],
      "name": "RoleRevoked",
      "type": "event"
    },
    {
      "anonymous": false,
      "inputs": [
        {
          "indexed": true,
          "internalType": "address",
          "name": "from",
          "type": "address"
        },
        {
          "indexed": true,
          "internalType": "address",
          "name": "to",
          "type": "address"
        },
        {
          "indexed": true,
          "internalType": "uint256",
          "name": "tokenId",
          "type": "uint256"
        }
      ],
      "name": "Transfer",
      "type": "event"
    },
    {
      "anonymous": false,
      "inputs": [
        {
          "indexed": false,
          "internalType": "uint256",
          "name": "transferFeeBasisPoints",
          "type": "uint256"
        }
      ],
      "name": "TransferFeeChanged",
      "type": "event"
    },
    {
      "anonymous": false,
      "inputs": [
        {
          "indexed": true,
          "internalType": "address",
          "name": "lockAddress",
          "type": "address"
        },
        {
          "indexed": false,
          "internalType": "address",
          "name": "unlockAddress",
          "type": "address"
        }
      ],
      "name": "UnlockCallFailed",
      "type": "event"
    },
    {
      "anonymous": false,
      "inputs": [
        {
          "indexed": true,
          "internalType": "address",
          "name": "sender",
          "type": "address"
        },
        {
          "indexed": true,
          "internalType": "address",
          "name": "tokenAddress",
          "type": "address"
        },
        {
          "indexed": true,
          "internalType": "address",
          "name": "beneficiary",
          "type": "address"
        },
        {
          "indexed": false,
          "internalType": "uint256",
          "name": "amount",
          "type": "uint256"
        }
      ],
      "name": "Withdrawal",
      "type": "event"
    },
    {
      "inputs": [],
      "name": "DEFAULT_ADMIN_ROLE",
      "outputs": [
        {
          "internalType": "bytes32",
          "name": "",
          "type": "bytes32"
        }
      ],
      "stateMutability": "view",
      "type": "function"
    },
    {
      "inputs": [],
      "name": "KEY_GRANTER_ROLE",
      "outputs": [
        {
          "internalType": "bytes32",
          "name": "",
          "type": "bytes32"
        }
      ],
      "stateMutability": "view",
      "type": "function"
    },
    {
      "inputs": [],
      "name": "LOCK_MANAGER_ROLE",
      "outputs": [
        {
          "internalType": "bytes32",
          "name": "",
          "type": "bytes32"
        }
      ],
      "stateMutability": "view",
      "type": "function"
    },
    {
      "inputs": [
        {
          "internalType": "address",
          "name": "account",
          "type": "address"
        }
      ],
      "name": "addKeyGranter",
      "outputs": [],
      "stateMutability": "nonpayable",
      "type": "function"
    },
    {
      "inputs": [
        {
          "internalType": "address",
          "name": "account",
          "type": "address"
        }
      ],
      "name": "addLockManager",
      "outputs": [],
      "stateMutability": "nonpayable",
      "type": "function"
    },
    {
      "inputs": [
        {
          "internalType": "address",
          "name": "_approved",
          "type": "address"
        },
        {
          "internalType": "uint256",
          "name": "_tokenId",
          "type": "uint256"
        }
      ],
      "name": "approve",
      "outputs": [],
      "stateMutability": "nonpayable",
      "type": "function"
    },
    {
      "inputs": [
        {
          "internalType": "address",
          "name": "_spender",
          "type": "address"
        },
        {
          "internalType": "uint256",
          "name": "_amount",
          "type": "uint256"
        }
      ],
      "name": "approveBeneficiary",
      "outputs": [
        {
          "internalType": "bool",
          "name": "",
          "type": "bool"
        }
      ],
      "stateMutability": "nonpayable",
      "type": "function"
    },
    {
      "inputs": [
        {
          "internalType": "address",
          "name": "_keyOwner",
          "type": "address"
        }
      ],
      "name": "balanceOf",
      "outputs": [
        {
          "internalType": "uint256",
          "name": "balance",
          "type": "uint256"
        }
      ],
      "stateMutability": "view",
      "type": "function"
    },
    {
      "inputs": [],
      "name": "beneficiary",
      "outputs": [
        {
          "internalType": "address payable",
          "name": "",
          "type": "address"
        }
      ],
      "stateMutability": "view",
      "type": "function"
    },
    {
      "inputs": [
        {
          "internalType": "uint256",
          "name": "_tokenId",
          "type": "uint256"
        }
      ],
      "name": "burn",
      "outputs": [],
      "stateMutability": "nonpayable",
      "type": "function"
    },
    {
      "inputs": [
        {
          "internalType": "uint256",
          "name": "_tokenId",
          "type": "uint256"
        }
      ],
      "name": "cancelAndRefund",
      "outputs": [],
      "stateMutability": "nonpayable",
      "type": "function"
    },
    {
      "inputs": [],
      "name": "expirationDuration",
      "outputs": [
        {
          "internalType": "uint256",
          "name": "",
          "type": "uint256"
        }
      ],
      "stateMutability": "view",
      "type": "function"
    },
    {
      "inputs": [
        {
          "internalType": "uint256",
          "name": "_tokenId",
          "type": "uint256"
        },
        {
          "internalType": "uint256",
          "name": "_amount",
          "type": "uint256"
        }
      ],
      "name": "expireAndRefundFor",
      "outputs": [],
      "stateMutability": "nonpayable",
      "type": "function"
    },
    {
      "inputs": [
        {
          "internalType": "uint256",
          "name": "_value",
          "type": "uint256"
        },
        {
          "internalType": "uint256",
          "name": "_tokenId",
          "type": "uint256"
        },
        {
          "internalType": "address",
          "name": "_referrer",
          "type": "address"
        },
        {
          "internalType": "bytes",
          "name": "_data",
          "type": "bytes"
        }
      ],
      "name": "extend",
      "outputs": [],
      "stateMutability": "payable",
      "type": "function"
    },
    {
      "inputs": [],
      "name": "freeTrialLength",
      "outputs": [
        {
          "internalType": "uint256",
          "name": "",
          "type": "uint256"
        }
      ],
      "stateMutability": "view",
      "type": "function"
    },
    {
      "inputs": [],
      "name": "gasRefundValue",
      "outputs": [
        {
          "internalType": "uint256",
          "name": "_refundValue",
          "type": "uint256"
        }
      ],
      "stateMutability": "view",
      "type": "function"
    },
    {
      "inputs": [
        {
          "internalType": "uint256",
          "name": "_tokenId",
          "type": "uint256"
        }
      ],
      "name": "getApproved",
      "outputs": [
        {
          "internalType": "address",
          "name": "",
          "type": "address"
        }
      ],
      "stateMutability": "view",
      "type": "function"
    },
    {
      "inputs": [
        {
          "internalType": "uint256",
          "name": "_tokenId",
          "type": "uint256"
        }
      ],
      "name": "getCancelAndRefundValue",
      "outputs": [
        {
          "internalType": "uint256",
          "name": "refund",
          "type": "uint256"
        }
      ],
      "stateMutability": "view",
      "type": "function"
    },
    {
      "inputs": [
        {
          "internalType": "address",
          "name": "_keyOwner",
          "type": "address"
        }
      ],
      "name": "getHasValidKey",
      "outputs": [
        {
          "internalType": "bool",
          "name": "isValid",
          "type": "bool"
        }
      ],
      "stateMutability": "view",
      "type": "function"
    },
    {
      "inputs": [
        {
          "internalType": "bytes32",
          "name": "role",
          "type": "bytes32"
        }
      ],
      "name": "getRoleAdmin",
      "outputs": [
        {
          "internalType": "bytes32",
          "name": "",
          "type": "bytes32"
        }
      ],
      "stateMutability": "view",
      "type": "function"
    },
    {
      "inputs": [
        {
          "internalType": "uint256",
          "name": "_tokenId",
          "type": "uint256"
        },
        {
          "internalType": "uint256",
          "name": "_time",
          "type": "uint256"
        }
      ],
      "name": "getTransferFee",
      "outputs": [
        {
          "internalType": "uint256",
          "name": "",
          "type": "uint256"
        }
      ],
      "stateMutability": "view",
      "type": "function"
    },
    {
      "inputs": [
        {
          "internalType": "uint256",
          "name": "_tokenId",
          "type": "uint256"
        },
        {
          "internalType": "uint256",
          "name": "_duration",
          "type": "uint256"
        }
      ],
      "name": "grantKeyExtension",
      "outputs": [],
      "stateMutability": "nonpayable",
      "type": "function"
    },
    {
      "inputs": [
        {
          "internalType": "address[]",
          "name": "_recipients",
          "type": "address[]"
        },
        {
          "internalType": "uint256[]",
          "name": "_expirationTimestamps",
          "type": "uint256[]"
        },
        {
          "internalType": "address[]",
          "name": "_keyManagers",
          "type": "address[]"
        }
      ],
      "name": "grantKeys",
      "outputs": [
        {
          "internalType": "uint256[]",
          "name": "",
          "type": "uint256[]"
        }
      ],
      "stateMutability": "nonpayable",
      "type": "function"
    },
    {
      "inputs": [
        {
          "internalType": "bytes32",
          "name": "role",
          "type": "bytes32"
        },
        {
          "internalType": "address",
          "name": "account",
          "type": "address"
        }
      ],
      "name": "grantRole",
      "outputs": [],
      "stateMutability": "nonpayable",
      "type": "function"
    },
    {
      "inputs": [
        {
          "internalType": "bytes32",
          "name": "role",
          "type": "bytes32"
        },
        {
          "internalType": "address",
          "name": "account",
          "type": "address"
        }
      ],
      "name": "hasRole",
      "outputs": [
        {
          "internalType": "bool",
          "name": "",
          "type": "bool"
        }
      ],
      "stateMutability": "view",
      "type": "function"
    },
    {
      "inputs": [
        {
          "internalType": "address payable",
          "name": "_lockCreator",
          "type": "address"
        },
        {
          "internalType": "uint256",
          "name": "_expirationDuration",
          "type": "uint256"
        },
        {
          "internalType": "address",
          "name": "_tokenAddress",
          "type": "address"
        },
        {
          "internalType": "uint256",
          "name": "_keyPrice",
          "type": "uint256"
        },
        {
          "internalType": "uint256",
          "name": "_maxNumberOfKeys",
          "type": "uint256"
        },
        {
          "internalType": "string",
          "name": "_lockName",
          "type": "string"
        }
      ],
      "name": "initialize",
      "outputs": [],
      "stateMutability": "nonpayable",
      "type": "function"
    },
    {
      "inputs": [
        {
          "internalType": "address",
          "name": "_owner",
          "type": "address"
        },
        {
          "internalType": "address",
          "name": "_operator",
          "type": "address"
        }
      ],
      "name": "isApprovedForAll",
      "outputs": [
        {
          "internalType": "bool",
          "name": "",
          "type": "bool"
        }
      ],
      "stateMutability": "view",
      "type": "function"
    },
    {
      "inputs": [
        {
          "internalType": "address",
          "name": "account",
          "type": "address"
        }
      ],
      "name": "isKeyGranter",
      "outputs": [
        {
          "internalType": "bool",
          "name": "",
          "type": "bool"
        }
      ],
      "stateMutability": "view",
      "type": "function"
    },
    {
      "inputs": [
        {
          "internalType": "address",
          "name": "account",
          "type": "address"
        }
      ],
      "name": "isLockManager",
      "outputs": [
        {
          "internalType": "bool",
          "name": "",
          "type": "bool"
        }
      ],
      "stateMutability": "view",
      "type": "function"
    },
    {
      "inputs": [
        {
          "internalType": "address",
          "name": "account",
          "type": "address"
        }
      ],
      "name": "isOwner",
      "outputs": [
        {
          "internalType": "bool",
          "name": "",
          "type": "bool"
        }
      ],
      "stateMutability": "view",
      "type": "function"
    },
    {
      "inputs": [
        {
          "internalType": "uint256",
          "name": "_tokenId",
          "type": "uint256"
        }
      ],
      "name": "isValidKey",
      "outputs": [
        {
          "internalType": "bool",
          "name": "",
          "type": "bool"
        }
      ],
      "stateMutability": "view",
      "type": "function"
    },
    {
      "inputs": [
        {
          "internalType": "uint256",
          "name": "_tokenId",
          "type": "uint256"
        }
      ],
      "name": "keyExpirationTimestampFor",
      "outputs": [
        {
          "internalType": "uint256",
          "name": "",
          "type": "uint256"
        }
      ],
      "stateMutability": "view",
      "type": "function"
    },
    {
      "inputs": [
        {
          "internalType": "uint256",
          "name": "",
          "type": "uint256"
        }
      ],
      "name": "keyManagerOf",
      "outputs": [
        {
          "internalType": "address",
          "name": "",
          "type": "address"
        }
      ],
      "stateMutability": "view",
      "type": "function"
    },
    {
      "inputs": [],
      "name": "keyPrice",
      "outputs": [
        {
          "internalType": "uint256",
          "name": "",
          "type": "uint256"
        }
      ],
      "stateMutability": "view",
      "type": "function"
    },
    {
      "inputs": [
        {
          "internalType": "address",
          "name": "_from",
          "type": "address"
        },
        {
          "internalType": "address",
          "name": "_recipient",
          "type": "address"
        },
        {
          "internalType": "uint256",
          "name": "_tokenId",
          "type": "uint256"
        }
      ],
      "name": "lendKey",
      "outputs": [],
      "stateMutability": "nonpayable",
      "type": "function"
    },
    {
      "inputs": [],
      "name": "maxKeysPerAddress",
      "outputs": [
        {
          "internalType": "uint256",
          "name": "",
          "type": "uint256"
        }
      ],
      "stateMutability": "view",
      "type": "function"
    },
    {
      "inputs": [],
      "name": "maxNumberOfKeys",
      "outputs": [
        {
          "internalType": "uint256",
          "name": "",
          "type": "uint256"
        }
      ],
      "stateMutability": "view",
      "type": "function"
    },
    {
      "inputs": [
        {
          "internalType": "uint256",
          "name": "_tokenIdFrom",
          "type": "uint256"
        },
        {
          "internalType": "uint256",
          "name": "_tokenIdTo",
          "type": "uint256"
        },
        {
          "internalType": "uint256",
          "name": "_amount",
          "type": "uint256"
        }
      ],
      "name": "mergeKeys",
      "outputs": [],
      "stateMutability": "nonpayable",
      "type": "function"
    },
    {
      "inputs": [
        {
          "internalType": "bytes",
          "name": "",
          "type": "bytes"
        }
      ],
      "name": "migrate",
      "outputs": [],
      "stateMutability": "nonpayable",
      "type": "function"
    },
    {
      "inputs": [],
      "name": "name",
      "outputs": [
        {
          "internalType": "string",
          "name": "",
          "type": "string"
        }
      ],
      "stateMutability": "view",
      "type": "function"
    },
    {
      "inputs": [],
      "name": "numberOfOwners",
      "outputs": [
        {
          "internalType": "uint256",
          "name": "",
          "type": "uint256"
        }
      ],
      "stateMutability": "view",
      "type": "function"
    },
    {
      "inputs": [],
      "name": "onKeyCancelHook",
      "outputs": [
        {
          "internalType": "contract ILockKeyCancelHook",
          "name": "",
          "type": "address"
        }
      ],
      "stateMutability": "view",
      "type": "function"
    },
    {
      "inputs": [],
      "name": "onKeyExtendHook",
      "outputs": [
        {
          "internalType": "contract ILockKeyExtendHook",
          "name": "",
          "type": "address"
        }
      ],
      "stateMutability": "view",
      "type": "function"
    },
    {
      "inputs": [],
      "name": "onKeyPurchaseHook",
      "outputs": [
        {
          "internalType": "contract ILockKeyPurchaseHook",
          "name": "",
          "type": "address"
        }
      ],
      "stateMutability": "view",
      "type": "function"
    },
    {
      "inputs": [],
      "name": "onKeyTransferHook",
      "outputs": [
        {
          "internalType": "contract ILockKeyTransferHook",
          "name": "",
          "type": "address"
        }
      ],
      "stateMutability": "view",
      "type": "function"
    },
    {
      "inputs": [],
      "name": "onTokenURIHook",
      "outputs": [
        {
          "internalType": "contract ILockTokenURIHook",
          "name": "",
          "type": "address"
        }
      ],
      "stateMutability": "view",
      "type": "function"
    },
    {
      "inputs": [],
      "name": "onValidKeyHook",
      "outputs": [
        {
          "internalType": "contract ILockValidKeyHook",
          "name": "",
          "type": "address"
        }
      ],
      "stateMutability": "view",
      "type": "function"
    },
    {
      "inputs": [],
      "name": "owner",
      "outputs": [
        {
          "internalType": "address",
          "name": "",
          "type": "address"
        }
      ],
      "stateMutability": "view",
      "type": "function"
    },
    {
      "inputs": [
        {
          "internalType": "uint256",
          "name": "_tokenId",
          "type": "uint256"
        }
      ],
      "name": "ownerOf",
      "outputs": [
        {
          "internalType": "address",
          "name": "",
          "type": "address"
        }
      ],
      "stateMutability": "view",
      "type": "function"
    },
    {
      "inputs": [],
      "name": "publicLockVersion",
      "outputs": [
        {
          "internalType": "uint16",
          "name": "",
          "type": "uint16"
        }
      ],
      "stateMutability": "pure",
      "type": "function"
    },
    {
      "inputs": [
        {
          "internalType": "uint256[]",
          "name": "_values",
          "type": "uint256[]"
        },
        {
          "internalType": "address[]",
          "name": "_recipients",
          "type": "address[]"
        },
        {
          "internalType": "address[]",
          "name": "_referrers",
          "type": "address[]"
        },
        {
          "internalType": "address[]",
          "name": "_keyManagers",
          "type": "address[]"
        },
        {
          "internalType": "bytes[]",
          "name": "_data",
          "type": "bytes[]"
        }
      ],
      "name": "purchase",
      "outputs": [
        {
          "internalType": "uint256[]",
          "name": "",
          "type": "uint256[]"
        }
      ],
      "stateMutability": "payable",
      "type": "function"
    },
    {
      "inputs": [
        {
          "internalType": "address",
          "name": "_recipient",
          "type": "address"
        },
        {
          "internalType": "address",
          "name": "_referrer",
          "type": "address"
        },
        {
          "internalType": "bytes",
          "name": "_data",
          "type": "bytes"
        }
      ],
      "name": "purchasePriceFor",
      "outputs": [
        {
          "internalType": "uint256",
          "name": "minKeyPrice",
          "type": "uint256"
        }
      ],
      "stateMutability": "view",
      "type": "function"
    },
    {
      "inputs": [
        {
          "internalType": "address",
          "name": "",
          "type": "address"
        }
      ],
      "name": "referrerFees",
      "outputs": [
        {
          "internalType": "uint256",
          "name": "",
          "type": "uint256"
        }
      ],
      "stateMutability": "view",
      "type": "function"
    },
    {
      "inputs": [],
      "name": "refundPenaltyBasisPoints",
      "outputs": [
        {
          "internalType": "uint256",
          "name": "",
          "type": "uint256"
        }
      ],
      "stateMutability": "view",
      "type": "function"
    },
    {
      "inputs": [
        {
          "internalType": "uint256",
          "name": "_tokenId",
          "type": "uint256"
        },
        {
          "internalType": "address",
          "name": "_referrer",
          "type": "address"
        }
      ],
      "name": "renewMembershipFor",
      "outputs": [],
      "stateMutability": "nonpayable",
      "type": "function"
    },
    {
      "inputs": [],
      "name": "renounceLockManager",
      "outputs": [],
      "stateMutability": "nonpayable",
      "type": "function"
    },
    {
      "inputs": [
        {
          "internalType": "bytes32",
          "name": "role",
          "type": "bytes32"
        },
        {
          "internalType": "address",
          "name": "account",
          "type": "address"
        }
      ],
      "name": "renounceRole",
      "outputs": [],
      "stateMutability": "nonpayable",
      "type": "function"
    },
    {
      "inputs": [
        {
          "internalType": "address",
          "name": "_granter",
          "type": "address"
        }
      ],
      "name": "revokeKeyGranter",
      "outputs": [],
      "stateMutability": "nonpayable",
      "type": "function"
    },
    {
      "inputs": [
        {
          "internalType": "bytes32",
          "name": "role",
          "type": "bytes32"
        },
        {
          "internalType": "address",
          "name": "account",
          "type": "address"
        }
      ],
      "name": "revokeRole",
      "outputs": [],
      "stateMutability": "nonpayable",
      "type": "function"
    },
    {
      "inputs": [
        {
          "internalType": "address",
          "name": "_from",
          "type": "address"
        },
        {
          "internalType": "address",
          "name": "_to",
          "type": "address"
        },
        {
          "internalType": "uint256",
          "name": "_tokenId",
          "type": "uint256"
        }
      ],
      "name": "safeTransferFrom",
      "outputs": [],
      "stateMutability": "nonpayable",
      "type": "function"
    },
    {
      "inputs": [
        {
          "internalType": "address",
          "name": "_from",
          "type": "address"
        },
        {
          "internalType": "address",
          "name": "_to",
          "type": "address"
        },
        {
          "internalType": "uint256",
          "name": "_tokenId",
          "type": "uint256"
        },
        {
          "internalType": "bytes",
          "name": "_data",
          "type": "bytes"
        }
      ],
      "name": "safeTransferFrom",
      "outputs": [],
      "stateMutability": "nonpayable",
      "type": "function"
    },
    {
      "inputs": [],
      "name": "schemaVersion",
      "outputs": [
        {
          "internalType": "uint256",
          "name": "",
          "type": "uint256"
        }
      ],
      "stateMutability": "view",
      "type": "function"
    },
    {
      "inputs": [
        {
          "internalType": "address",
          "name": "_to",
          "type": "address"
        },
        {
          "internalType": "bool",
          "name": "_approved",
          "type": "bool"
        }
      ],
      "name": "setApprovalForAll",
      "outputs": [],
      "stateMutability": "nonpayable",
      "type": "function"
    },
    {
      "inputs": [
        {
          "internalType": "string",
          "name": "_baseTokenURI",
          "type": "string"
        }
      ],
      "name": "setBaseTokenURI",
      "outputs": [],
      "stateMutability": "nonpayable",
      "type": "function"
    },
    {
      "inputs": [
        {
          "internalType": "address",
          "name": "_onKeyPurchaseHook",
          "type": "address"
        },
        {
          "internalType": "address",
          "name": "_onKeyCancelHook",
          "type": "address"
        },
        {
          "internalType": "address",
          "name": "_onValidKeyHook",
          "type": "address"
        },
        {
          "internalType": "address",
          "name": "_onTokenURIHook",
          "type": "address"
        },
        {
          "internalType": "address",
          "name": "_onKeyTransferHook",
          "type": "address"
        },
        {
          "internalType": "address",
          "name": "_onKeyExtendHook",
          "type": "address"
        }
      ],
      "name": "setEventHooks",
      "outputs": [],
      "stateMutability": "nonpayable",
      "type": "function"
    },
    {
      "inputs": [
        {
          "internalType": "uint256",
          "name": "_refundValue",
          "type": "uint256"
        }
      ],
      "name": "setGasRefundValue",
      "outputs": [],
      "stateMutability": "nonpayable",
      "type": "function"
    },
    {
      "inputs": [
        {
          "internalType": "uint256",
          "name": "_tokenId",
          "type": "uint256"
        },
        {
          "internalType": "address",
          "name": "_keyManager",
          "type": "address"
        }
      ],
      "name": "setKeyManagerOf",
      "outputs": [],
      "stateMutability": "nonpayable",
      "type": "function"
    },
    {
      "inputs": [
        {
          "internalType": "address",
          "name": "account",
          "type": "address"
        }
      ],
      "name": "setOwner",
      "outputs": [],
      "stateMutability": "nonpayable",
      "type": "function"
    },
    {
      "inputs": [
        {
          "internalType": "address",
          "name": "_referrer",
          "type": "address"
        },
        {
          "internalType": "uint256",
          "name": "_feeBasisPoint",
          "type": "uint256"
        }
      ],
      "name": "setReferrerFee",
      "outputs": [],
      "stateMutability": "nonpayable",
      "type": "function"
    },
    {
      "inputs": [
        {
          "internalType": "address",
          "name": "_to",
          "type": "address"
        },
        {
          "internalType": "uint256",
          "name": "_tokenIdFrom",
          "type": "uint256"
        },
        {
          "internalType": "uint256",
          "name": "_timeShared",
          "type": "uint256"
        }
      ],
      "name": "shareKey",
      "outputs": [],
      "stateMutability": "nonpayable",
      "type": "function"
    },
    {
      "inputs": [
        {
          "internalType": "bytes4",
          "name": "interfaceId",
          "type": "bytes4"
        }
      ],
      "name": "supportsInterface",
      "outputs": [
        {
          "internalType": "bool",
          "name": "",
          "type": "bool"
        }
      ],
      "stateMutability": "view",
      "type": "function"
    },
    {
      "inputs": [],
      "name": "symbol",
      "outputs": [
        {
          "internalType": "string",
          "name": "",
          "type": "string"
        }
      ],
      "stateMutability": "view",
      "type": "function"
    },
    {
      "inputs": [],
      "name": "tokenAddress",
      "outputs": [
        {
          "internalType": "address",
          "name": "",
          "type": "address"
        }
      ],
      "stateMutability": "view",
      "type": "function"
    },
    {
      "inputs": [
        {
          "internalType": "uint256",
          "name": "_index",
          "type": "uint256"
        }
      ],
      "name": "tokenByIndex",
      "outputs": [
        {
          "internalType": "uint256",
          "name": "",
          "type": "uint256"
        }
      ],
      "stateMutability": "view",
      "type": "function"
    },
    {
      "inputs": [
        {
          "internalType": "address",
          "name": "_keyOwner",
          "type": "address"
        },
        {
          "internalType": "uint256",
          "name": "_index",
          "type": "uint256"
        }
      ],
      "name": "tokenOfOwnerByIndex",
      "outputs": [
        {
          "internalType": "uint256",
          "name": "",
          "type": "uint256"
        }
      ],
      "stateMutability": "view",
      "type": "function"
    },
    {
      "inputs": [
        {
          "internalType": "uint256",
          "name": "_tokenId",
          "type": "uint256"
        }
      ],
      "name": "tokenURI",
      "outputs": [
        {
          "internalType": "string",
          "name": "",
          "type": "string"
        }
      ],
      "stateMutability": "view",
      "type": "function"
    },
    {
      "inputs": [
        {
          "internalType": "address",
          "name": "_keyOwner",
          "type": "address"
        }
      ],
      "name": "totalKeys",
      "outputs": [
        {
          "internalType": "uint256",
          "name": "",
          "type": "uint256"
        }
      ],
      "stateMutability": "view",
      "type": "function"
    },
    {
      "inputs": [],
      "name": "totalSupply",
      "outputs": [
        {
          "internalType": "uint256",
          "name": "",
          "type": "uint256"
        }
      ],
      "stateMutability": "view",
      "type": "function"
    },
    {
      "inputs": [
        {
          "internalType": "uint256",
          "name": "_tokenId",
          "type": "uint256"
        },
        {
          "internalType": "address",
          "name": "_to",
          "type": "address"
        },
        {
          "internalType": "uint256",
          "name": "_valueBasisPoint",
          "type": "uint256"
        }
      ],
      "name": "transfer",
      "outputs": [
        {
          "internalType": "bool",
          "name": "success",
          "type": "bool"
        }
      ],
      "stateMutability": "nonpayable",
      "type": "function"
    },
    {
      "inputs": [],
      "name": "transferFeeBasisPoints",
      "outputs": [
        {
          "internalType": "uint256",
          "name": "",
          "type": "uint256"
        }
      ],
      "stateMutability": "view",
      "type": "function"
    },
    {
      "inputs": [
        {
          "internalType": "address",
          "name": "_from",
          "type": "address"
        },
        {
          "internalType": "address",
          "name": "_recipient",
          "type": "address"
        },
        {
          "internalType": "uint256",
          "name": "_tokenId",
          "type": "uint256"
        }
      ],
      "name": "transferFrom",
      "outputs": [],
      "stateMutability": "nonpayable",
      "type": "function"
    },
    {
      "inputs": [
        {
          "internalType": "address",
          "name": "_recipient",
          "type": "address"
        },
        {
          "internalType": "uint256",
          "name": "_tokenId",
          "type": "uint256"
        }
      ],
      "name": "unlendKey",
      "outputs": [],
      "stateMutability": "nonpayable",
      "type": "function"
    },
    {
      "inputs": [],
      "name": "unlockProtocol",
      "outputs": [
        {
          "internalType": "contract IUnlock",
          "name": "",
          "type": "address"
        }
      ],
      "stateMutability": "view",
      "type": "function"
    },
    {
      "inputs": [
        {
          "internalType": "address payable",
          "name": "_beneficiary",
          "type": "address"
        }
      ],
      "name": "updateBeneficiary",
      "outputs": [],
      "stateMutability": "nonpayable",
      "type": "function"
    },
    {
      "inputs": [
        {
          "internalType": "uint256",
          "name": "_keyPrice",
          "type": "uint256"
        },
        {
          "internalType": "address",
          "name": "_tokenAddress",
          "type": "address"
        }
      ],
      "name": "updateKeyPricing",
      "outputs": [],
      "stateMutability": "nonpayable",
      "type": "function"
    },
    {
      "inputs": [
        {
          "internalType": "uint256",
          "name": "_newExpirationDuration",
          "type": "uint256"
        },
        {
          "internalType": "uint256",
          "name": "_maxNumberOfKeys",
          "type": "uint256"
        },
        {
          "internalType": "uint256",
          "name": "_maxKeysPerAcccount",
          "type": "uint256"
        }
      ],
      "name": "updateLockConfig",
      "outputs": [],
      "stateMutability": "nonpayable",
      "type": "function"
    },
    {
      "inputs": [
        {
          "internalType": "string",
          "name": "_lockName",
          "type": "string"
        }
      ],
      "name": "updateLockName",
      "outputs": [],
      "stateMutability": "nonpayable",
      "type": "function"
    },
    {
      "inputs": [
        {
          "internalType": "string",
          "name": "_lockSymbol",
          "type": "string"
        }
      ],
      "name": "updateLockSymbol",
      "outputs": [],
      "stateMutability": "nonpayable",
      "type": "function"
    },
    {
      "inputs": [
        {
          "internalType": "uint256",
          "name": "_freeTrialLength",
          "type": "uint256"
        },
        {
          "internalType": "uint256",
          "name": "_refundPenaltyBasisPoints",
          "type": "uint256"
        }
      ],
      "name": "updateRefundPenalty",
      "outputs": [],
      "stateMutability": "nonpayable",
      "type": "function"
    },
    {
      "inputs": [],
      "name": "updateSchemaVersion",
      "outputs": [],
      "stateMutability": "nonpayable",
      "type": "function"
    },
    {
      "inputs": [
        {
          "internalType": "uint256",
          "name": "_transferFeeBasisPoints",
          "type": "uint256"
        }
      ],
      "name": "updateTransferFee",
      "outputs": [],
      "stateMutability": "nonpayable",
      "type": "function"
    },
    {
      "inputs": [
        {
          "internalType": "address",
          "name": "_tokenAddress",
          "type": "address"
        },
        {
          "internalType": "uint256",
          "name": "_amount",
          "type": "uint256"
        }
      ],
      "name": "withdraw",
      "outputs": [],
      "stateMutability": "nonpayable",
      "type": "function"
    },
    {
      "stateMutability": "payable",
      "type": "receive"
    }
  ],
  "bytecode": "0x608060405234801561001057600080fd5b50615f3780620000216000396000f3fe6080604052600436106104bb5760003560e01c80636d8ea5b41161026c578063a98d36231161014a578063d32bfb6c116100cc578063f0ba604011610085578063f0ba604014610fa8578063f12c6b6e14610fbd578063f32e8b2414610fdd578063f3fef3a314610ff2578063f5766b3914611012578063f8548e361461103257600080fd5b8063d32bfb6c14610eff578063d52e4a1014610f1f578063d547741f14610f35578063d813cc1914610f55578063debe2b0d14610f68578063e985e9c514610f8857600080fd5b8063a98d362314610d81578063aae4b8f714610db4578063b11d7ec114610dd4578063b1a3b25d14610df4578063b585a6d514610e14578063b88d4fde14610e34578063c23135dd14610e54578063c87b56dd14610e82578063c907c3ec14610ea2578063d1bbd49c14610ec3578063d250348514610edf57600080fd5b80638932a90d116101ee57806395d89b41116101a757806395d89b4114610cdf5780639d76ea5814610cf4578063a217fddf14610d15578063a22cb46514610d2a578063a2e4cd2e14610d4a578063a375cb0514610d6a57600080fd5b80638932a90d14610c225780638ca2fbad14610c475780638da5cb5b14610c6957806391d1485414610c8857806392ac98a514610ca857806393fd184414610cc857600080fd5b80636d8ea5b414610aca5780636eadde4314610aea57806370a0823114610b0a57806374b6c10614610b2a578063782a4ade14610b415780637ec2a72414610b615780637f80557014610b82578063812eecd414610ba257806381a3c94314610bc25780638505fe9514610be25780638577a6d514610c0257600080fd5b80632f54bf6e116103995780634cd38c1d1161031b578063550ef3a8116102d4578063550ef3a814610a1d578063558b71e914610a3d578063564aa99d14610a5d57806356e0d51f14610a7d5780636207a8da14610a945780636352211e14610aaa57600080fd5b80634cd38c1d1461093e5780634d025fed1461095e5780634e2ce6d3146109955780634f6ccce7146109ac57806352b0f638146109cc57806354b249fb146109ec57600080fd5b80632f54bf6e146107cc5780632f745c59146107fc57806330176e131461081c578063338189971461083c57806336568abe1461085c578063389f07e81461087c57806338af3eed1461089d57806339f46986146108be578063407dc589146108de57806342842e0e146108fe57806342966c681461091e57600080fd5b806313af40351161043d578063248a9ca3116103f6578063248a9ca3146106fa57806326e9ca071461072a578063282478df1461074b5780632af9162a1461076b5780632d33dd5b1461078b5780632f2ff15d146107ac57600080fd5b806313af40351461064a57806318160ddd1461066a578063183767da14610680578063217751bc1461069757806323100509146106b857806323b872dd146106da57600080fd5b806301ffc9a7146104c7578063068208cd146104fc57806306fdde031461051e578063081812fc14610540578063095ea7b31461056d578063097ba3331461058d5780630aaffd2a146105bb5780630c2db8d1146105db5780630f15023b146105fb57806310e569731461061c57806311a4c03a1461063357600080fd5b366104c257005b600080fd5b3480156104d357600080fd5b506104e76104e2366004615172565b611052565b60405190151581526020015b60405180910390f35b34801561050857600080fd5b5061051c61051736600461518f565b611063565b005b34801561052a57600080fd5b506105336110e2565b6040516104f39190615213565b34801561054c57600080fd5b5061056061055b366004615226565b611171565b6040516104f3919061523f565b34801561057957600080fd5b5061051c610588366004615268565b611199565b34801561059957600080fd5b506105ad6105a8366004615357565b611234565b6040519081526020016104f3565b3480156105c757600080fd5b5061051c6105d63660046153b8565b6112d5565b3480156105e757600080fd5b5061051c6105f63660046153d5565b611327565b34801561060757600080fd5b50610c8354610560906001600160a01b031681565b34801561062857600080fd5b506105ad610c855481565b34801561063f57600080fd5b506105ad610c845481565b34801561065657600080fd5b5061051c6106653660046153b8565b61137c565b34801561067657600080fd5b50610c87546105ad565b34801561068c57600080fd5b506105ad6124075481565b3480156106a357600080fd5b50610c8a54610560906001600160a01b031681565b3480156106c457600080fd5b506105ad600080516020615ea283398151915281565b3480156106e657600080fd5b5061051c6106f53660046153d5565b61140e565b34801561070657600080fd5b506105ad610715366004615226565b60009081526097602052604090206001015490565b34801561073657600080fd5b50610c8b54610560906001600160a01b031681565b34801561075757600080fd5b5061051c61076636600461518f565b611448565b34801561077757600080fd5b5061051c6107863660046153b8565b6114ed565b34801561079757600080fd5b50610c8954610560906001600160a01b031681565b3480156107b857600080fd5b5061051c6107c7366004615416565b611544565b3480156107d857600080fd5b506104e76107e73660046153b8565b612bda546001600160a01b0390811691161490565b34801561080857600080fd5b506105ad610817366004615268565b611569565b34801561082857600080fd5b5061051c61083736600461548e565b6115bd565b61084f61084a366004615600565b6115d2565b6040516104f391906156d7565b34801561086857600080fd5b5061051c610877366004615416565b611b0b565b34801561088857600080fd5b50610c8f54610560906001600160a01b031681565b3480156108a957600080fd5b50610c8854610560906001600160a01b031681565b3480156108ca57600080fd5b5061051c6108d936600461571b565b611b8e565b3480156108ea57600080fd5b5061051c6108f9366004615268565b611bdc565b34801561090a57600080fd5b5061051c6109193660046153d5565b611c30565b34801561092a57600080fd5b5061051c610939366004615226565b611c4b565b34801561094a57600080fd5b5061051c61095936600461571b565b611c9c565b34801561096a57600080fd5b50610560610979366004615226565b611078602052600090815260409020546001600160a01b031681565b3480156109a157600080fd5b506105ad610c8d5481565b3480156109b857600080fd5b506105ad6109c7366004615226565b611cf1565b3480156109d857600080fd5b506104e76109e73660046153b8565b611d1a565b3480156109f857600080fd5b506105ad610a07366004615226565b600090815261107b602052604090206001015490565b348015610a2957600080fd5b5061051c610a3836600461548e565b611d34565b348015610a4957600080fd5b5061051c610a5836600461571b565b611d49565b348015610a6957600080fd5b5061051c610a783660046153b8565b611d6d565b348015610a8957600080fd5b506105ad6127f05481565b348015610aa057600080fd5b5061201e546105ad565b348015610ab657600080fd5b50610560610ac5366004615226565b611dc4565b348015610ad657600080fd5b506104e7610ae53660046153b8565b611de0565b348015610af657600080fd5b5061051c610b0536600461573d565b611e8b565b348015610b1657600080fd5b506105ad610b253660046153b8565b612047565b348015610b3657600080fd5b506105ad610c865481565b348015610b4d57600080fd5b5061051c610b5c36600461548e565b612099565b348015610b6d57600080fd5b50610c8c54610560906001600160a01b031681565b348015610b8e57600080fd5b5061051c610b9d3660046157c2565b6120e0565b348015610bae57600080fd5b506105ad610bbd3660046153b8565b61230d565b348015610bce57600080fd5b5061084f610bdd366004615844565b612353565b348015610bee57600080fd5b5061051c610bfd366004615416565b612492565b348015610c0e57600080fd5b5061051c610c1d366004615226565b612669565b348015610c2e57600080fd5b5061051c610c3d36600461548e565b5050600c610c8d55565b348015610c5357600080fd5b506105ad600080516020615ee283398151915281565b348015610c7557600080fd5b50612bda546001600160a01b0316610560565b348015610c9457600080fd5b506104e7610ca3366004615416565b6126aa565b348015610cb457600080fd5b506105ad610cc3366004615226565b6126d5565b348015610cd457600080fd5b506105ad6110775481565b348015610ceb57600080fd5b506105336127c4565b348015610d0057600080fd5b506104b154610560906001600160a01b031681565b348015610d2157600080fd5b506105ad600081565b348015610d3657600080fd5b5061051c610d453660046158cc565b6128ef565b348015610d5657600080fd5b5061051c610d65366004615416565b6129aa565b348015610d7657600080fd5b506105ad6127f15481565b348015610d8d57600080fd5b506104e7610d9c366004615226565b600090815261107b6020526040902060010154421090565b348015610dc057600080fd5b506104e7610dcf3660046153b8565b612a38565b348015610de057600080fd5b5061051c610def366004615416565b612a52565b348015610e0057600080fd5b506105ad610e0f36600461571b565b612aa0565b348015610e2057600080fd5b506104e7610e2f366004615268565b612b13565b348015610e4057600080fd5b5061051c610e4f3660046158fa565b612b93565b348015610e6057600080fd5b506105ad610e6f3660046153b8565b6120226020526000908152604090205481565b348015610e8e57600080fd5b50610533610e9d366004615226565b612bc7565b348015610eae57600080fd5b50610c9054610560906001600160a01b031681565b348015610ecf57600080fd5b50604051600c81526020016104f3565b348015610eeb57600080fd5b5061051c610efa3660046153b8565b612e59565b348015610f0b57600080fd5b5061051c610f1a366004615226565b612eb0565b348015610f2b57600080fd5b50610c8e546105ad565b348015610f4157600080fd5b5061051c610f50366004615416565b612ee2565b61051c610f63366004615965565b612f07565b348015610f7457600080fd5b5061051c610f83366004615268565b613117565b348015610f9457600080fd5b506104e7610fa33660046159ce565b61313c565b348015610fb457600080fd5b5061051c61316b565b348015610fc957600080fd5b5061051c610fd83660046159fc565b6131b0565b348015610fe957600080fd5b5061051c61336c565b348015610ffe57600080fd5b5061051c61100d366004615268565b61337c565b34801561101e57600080fd5b5061051c61102d366004615226565b6134aa565b34801561103e57600080fd5b506104e761104d366004615a31565b6134b8565b600061105d8261351a565b92915050565b61106c83613525565b61107583613554565b61107e83613586565b61108782613525565b600083815261107b60205260409020600101546110a5904290615a6e565b8111156110c5576040516310e88eed60e31b815260040160405180910390fd5b6110d18382600061363e565b6110dd8282600161363e565b505050565b61146380546110f090615a85565b80601f016020809104026020016040519081016040528092919081815260200182805461111c90615a85565b80156111695780601f1061113e57610100808354040283529160200191611169565b820191906000526020600020905b81548152906001019060200180831161114c57829003601f168201915b505050505081565b600061117c82613525565b50600090815261107960205260409020546001600160a01b031690565b6111a281613586565b6001600160a01b03821633036111cb57604051637899146560e11b815260040160405180910390fd5b60008181526110796020908152604080832080546001600160a01b0319166001600160a01b03878116918217909255611076909352818420549151859492909116917f8c5be1e5ebec7d5bd14f71427d1e84f3dd0314c0f7b2291e5b200ac8c7c3b92591a45050565b610c89546000906001600160a01b0316156112c857610c895460405163221c1fd160e01b81526001600160a01b039091169063221c1fd190611280903390889088908890600401615ab9565b602060405180830381865afa15801561129d573d6000803e3d6000fd5b505050506040513d601f19601f820116820180604052508101906112c19190615aed565b90506112ce565b50610c85545b9392505050565b6112dd613710565b6001600160a01b03811661130457604051635963709b60e01b815260040160405180910390fd5b610c8880546001600160a01b0319166001600160a01b0392909216919091179055565b6113318133613752565b61134e5760405163075fd2b160e01b815260040160405180910390fd5b6113598383836137ca565b60009081526110786020526040902080546001600160a01b031916331790555050565b6113846139cd565b6001600160a01b0381166113ab576040516330c6e09f60e21b815260040160405180910390fd5b612bda80546001600160a01b038381166001600160a01b031983168117909355604080519190921680825260208201939093527f8be0079c531659141344cd1fd0a4f28419497f9722a3daafe3b4186f6b6457e091015b60405180910390a15050565b61141781613554565b61142081613586565b60008181526110786020526040902080546001600160a01b03191690556110dd8383836137ca565b6114506139cd565b806000036114715760405163e03b033d60e01b815260040160405180910390fd5b610c875482101561149557604051631d00cd6b60e01b815260040160405180910390fd5b610c8e819055610c84839055610c8682905560408051848152602081018490529081018290527f9a09448a3f24d3a01ccc67103c7cddbeea820176a18182cc83d0bce585f26a5b9060600160405180910390a1505050565b6114f56139cd565b61150d600080516020615ea283398151915282612ee2565b6040516001600160a01b038216907f766f6199fea59554b9ff688e413302b9200f85d74811c053c12d945ac6d8dd7a90600090a250565b60008281526097602052604090206001015461155f81613a02565b6110dd8383613a0c565b60006115748361230d565b821061159357604051630471175760e11b815260040160405180910390fd5b506001600160a01b0391909116600090815261107c60209081526040808320938352929052205490565b6115c56139cd565b6110dd61146583836150cc565b60606115dc613a92565b610c86548651610c87546115f09190615b06565b111561160f576040516331af695160e01b815260040160405180910390fd5b8451865114158061162257508351865114155b15611640576040516376b3b52560e11b815260040160405180910390fd5b60008087516001600160401b0381111561165c5761165c615294565b604051908082528060200260200182016040528015611685578160200160208202803683370190505b50905060005b8851811015611a015760008982815181106116a8576116a8615b1e565b602002602001015190506116f7818984815181106116c8576116c8615b1e565b6020026020010151600019610c8454146116ef57610c84546116ea9042615b06565b613ab6565b600019613ab6565b83838151811061170957611709615b1e565b6020026020010181815250506000611793828b858151811061172d5761172d615b1e565b60200260200101518a8a8781811061174757611747615b1e565b90506020028101906117599190615b34565b8080601f01602080910402602001604051908101604052809392919081815260200183838082843760009201919091525061123492505050565b905061179f8186615b06565b94508061201f60008686815181106117b9576117b9615b1e565b6020026020010151815260200190815260200160002081905550610c845461202060008686815181106117ee576117ee615b1e565b60200260200101518152602001908152602001600020819055506104b160009054906101000a90046001600160a01b0316612021600086868151811061183657611836615b1e565b602090810291909101810151825281019190915260400160002080546001600160a01b0319166001600160a01b039283161790556104b15416158015906118955750808c848151811061188b5761188b615b1e565b6020026020010151105b156118b3576040516330005fb160e21b815260040160405180910390fd5b6118d6818b85815181106118c9576118c9615b1e565b6020026020010151613b91565b6104b1546000906001600160a01b03161561190a578c84815181106118fd576118fd615b1e565b602002602001015161190c565b345b610c89549091506001600160a01b0316156119eb57610c895485516001600160a01b0390911690635e895f299087908790811061194b5761194b615b1e565b602002602001015133868f898151811061196757611967615b1e565b60200260200101518e8e8b81811061198157611981615b1e565b90506020028101906119939190615b34565b89896040518963ffffffff1660e01b81526004016119b8989796959493929190615ba3565b600060405180830381600087803b1580156119d257600080fd5b505af11580156119e6573d6000803e3d6000fd5b505050505b50505080806119f990615bf5565b91505061168b565b506104b1546001600160a01b031615611a95576104b1546040516323b872dd60e01b81526001600160a01b039091169081906323b872dd90611a4b90339030908890600401615c0e565b6020604051808303816000875af1158015611a6a573d6000803e3d6000fd5b505050506040513d601f19601f82011682018060405250810190611a8e9190615c32565b5050611ab6565b81341015611ab6576040516306c3cddf60e41b815260040160405180910390fd5b611abe613c96565b60005b8751811015611afe57611aec888281518110611adf57611adf615b1e565b6020026020010151613ded565b80611af681615bf5565b915050611ac1565b5098975050505050505050565b6001600160a01b0381163314611b805760405162461bcd60e51b815260206004820152602f60248201527f416363657373436f6e74726f6c3a2063616e206f6e6c792072656e6f756e636560448201526e103937b632b9903337b91039b2b63360891b60648201526084015b60405180910390fd5b611b8a8282613e86565b5050565b611b966139cd565b60408051838152602081018390527fd6867bc538320e67d7bdc35860c27c08486eb490b4fd9b820fff18fb28381d3c910160405180910390a16127f1919091556127f055565b611be581613554565b600081815261107860205260409020546001600160a01b03163314611c1d5760405163075fd2b160e01b815260040160405180910390fd5b611b8a611c2982611dc4565b83836137ca565b6110dd83838360405180602001604052806000815250612b93565b611c5481613525565b611c5d81613586565b600081815261107660205260408082205490518392916001600160a01b031690600080516020615ec2833981519152908390a4611c9981613eed565b50565b611ca4613a92565b611cad82613525565b611cb633611d1a565b158015611cc95750611cc733612a38565b155b15611ce757604051631798fedb60e01b815260040160405180910390fd5b6110dd8282613f1e565b6000610c87548210611d1657604051630471175760e11b815260040160405180910390fd5b5090565b600061105d600080516020615ea2833981519152836126aa565b611d3c6139cd565b6110dd61146383836150cc565b611d5282613525565b611d5b82613554565b611d636139cd565b611b8a828261407f565b611d756139cd565b611d8d600080516020615ea283398151915282611544565b6040516001600160a01b038216907f684f8a71407db0c334454ebe9c9b288549317893a20b10dc779ec5c118dcd12190600090a250565b600090815261107660205260409020546001600160a01b031690565b600080611dec83612047565b610c8b54911091506001600160a01b031615611e8657610c8b546040516370b6638f60e11b81523060048201526001600160a01b0384811660248301526000604483015283151560648301529091169063e16cc71e90608401602060405180830381865afa158015611e62573d6000803e3d6000fd5b505050506040513d601f19601f8201168201806040525081019061105d9190615c32565b919050565b600054610100900460ff1615808015611eab5750600054600160ff909116105b80611ecc5750611eba3061419d565b158015611ecc575060005460ff166001145b611f2f5760405162461bcd60e51b815260206004820152602e60248201527f496e697469616c697a61626c653a20636f6e747261637420697320616c72656160448201526d191e481a5b9a5d1a585b1a5e995960921b6064820152608401611b77565b6000805460ff191660011790558015611f52576000805461ff0019166101001790555b611f5b866141ac565b610c838054336001600160a01b031991821617909155610c8880549091166001600160a01b038a16179055610c84879055610c85859055610c86849055600c610c8d556001610c8e55611fae83836141d8565b611fb66141fe565b611fc26103e86127f055565b611fcb8861420e565b612bda80546001600160a01b0319166001600160a01b038a16179055611ff76380ac58cd60e01b614296565b801561203d576000805461ff0019169055604051600181527f7f26b83ff96e1f2b6a682f133852f6798a09c465da95921460cefb38474024989060200160405180910390a15b5050505050505050565b6000806120538361230d565b905060005b818110156120925761206d610d9c8583611569565b15612080578261207c81615bf5565b9350505b8061208a81615bf5565b915050612058565b5050919050565b6120a16139cd565b6120ae61146483836150cc565b507f8868e22e84ebf32da89b2ebcb0ac642816304ea3863b257f240df9098719cb978282604051611402929190615c4f565b6120e86139cd565b6001600160a01b0386161580159061210f575061210d866001600160a01b031661419d565b155b1561213057604051636788e02b60e01b815260006004820152602401611b77565b6001600160a01b038516158015906121575750612155856001600160a01b031661419d565b155b1561217857604051636788e02b60e01b815260016004820152602401611b77565b6001600160a01b0384161580159061219f575061219d846001600160a01b031661419d565b155b156121c057604051636788e02b60e01b815260026004820152602401611b77565b6001600160a01b038316158015906121e757506121e5836001600160a01b031661419d565b155b1561220857604051636788e02b60e01b815260036004820152602401611b77565b6001600160a01b0382161580159061222f575061222d826001600160a01b031661419d565b155b1561224f57604051636788e02b60e01b8152600481810152602401611b77565b6001600160a01b038116158015906122765750612274816001600160a01b031661419d565b155b1561229757604051636788e02b60e01b815260056004820152602401611b77565b610c8980546001600160a01b03199081166001600160a01b0398891617909155610c8a8054821696881696909617909555610c8c8054861693871693909317909255610c8b8054851693861693909317909255610c8f8054841692851692909217909155610c9080549092169216919091179055565b60006001600160a01b03821661233657604051635963709b60e01b815260040160405180910390fd5b506001600160a01b0316600090815261107e602052604090205490565b606061235d613a92565b61236633611d1a565b158015612379575061237733612a38565b155b1561239757604051631798fedb60e01b815260040160405180910390fd5b6000866001600160401b038111156123b1576123b1615294565b6040519080825280602002602001820160405280156123da578160200160208202803683370190505b50905060005b87811015612486576124578989838181106123fd576123fd615b1e565b905060200201602081019061241291906153b8565b86868481811061242457612424615b1e565b905060200201602081019061243991906153b8565b89898581811061244b5761244b615b1e565b90506020020135613ab6565b82828151811061246957612469615b1e565b60209081029190910101528061247e81615bf5565b9150506123e0565b50979650505050505050565b61249a613a92565b6124a382613525565b6000828152612020602052604090205460001914806124cc57506104b1546001600160a01b0316155b156124ea57604051636cd40e1160e11b815260040160405180910390fd5b600061250e6124f884611dc4565b8360405180602001604052806000815250611234565b600084815261201f6020526040902054909150811415806125415750610c84546000848152612020602052604090205414155b8061256b57506104b154600084815261202160205260409020546001600160a01b03908116911614155b156125895760405163986739e760e01b815260040160405180910390fd5b600083815261107b60205260409020600101544210156125bc576040516360d8ec3360e11b815260040160405180910390fd5b6125c7836000613f1e565b506125d28183613b91565b6104b1546001600160a01b0316806323b872dd6125ee86611dc4565b30856040518463ffffffff1660e01b815260040161260e93929190615c0e565b6020604051808303816000875af115801561262d573d6000803e3d6000fd5b505050506040513d601f19601f820116820180604052508101906126519190615c32565b5061265a613c96565b61266383613ded565b50505050565b6126716139cd565b6040518181527f0496ed1e61eb69727f9659a8e859288db4758ffb1f744d1c1424634f90a257f49060200160405180910390a161240755565b60009182526097602090815260408084206001600160a01b0393909316845291905290205460ff1690565b60006126e082613554565b600019610c8454036126f5575050610c855490565b600082815261107b6020526040812060010154612713904290615a6e565b9050610c84546127f154826127289190615b06565b1061273857610c85549150612758565b610c845481610c855461274b9190615c63565b6127559190615c82565b91505b6127f15415806127775750610c84546127f1546127759083615b06565b105b156127be5760006127106127f054610c85546127939190615c63565b61279d9190615c82565b9050808311156127b8576127b18184615a6e565b9250612092565b60009250505b50919050565b606061146480546127d490615a85565b905060000361285e57610c8360009054906101000a90046001600160a01b03166001600160a01b031663cec410526040518163ffffffff1660e01b8152600401600060405180830381865afa158015612831573d6000803e3d6000fd5b505050506040513d6000823e601f3d908101601f191682016040526128599190810190615ca4565b905090565b611464805461286c90615a85565b80601f016020809104026020016040519081016040528092919081815260200182805461289890615a85565b80156128e55780601f106128ba576101008083540402835291602001916128e5565b820191906000526020600020905b8154815290600101906020018083116128c857829003601f168201915b5050505050905090565b336001600160a01b0383160361291857604051637899146560e11b815260040160405180910390fd5b612710612407541061293d576040516323f21a3d60e21b815260040160405180910390fd5b33600081815261107a602090815260408083206001600160a01b03871680855290835292819020805460ff191686151590811790915590519081529192917f17307eab39ab6107e8899845ad3d59bd9653f200f220920489ca2b5937696c31910160405180910390a35050565b6129b26139cd565b6129bb81614315565b610c8580546104b18054928590556001600160a01b031983166001600160a01b0385811691821790925560408051848152602081018890529290941693820184905260608201529091907f3615065ccf48367ac483ac86701248e2e5ff55bdd9be845007d34a3b68d719d49060800160405180910390a150505050565b600061105d600080516020615ee2833981519152836126aa565b612a5b82613525565b612a658233613752565b158015612a785750612a7633612a38565b155b15612a965760405163866c2fa760e01b815260040160405180910390fd5b611b8a82826143ac565b6000612aab83613525565b600083815261107b602052604090206001015442811015612ad057600091505061105d565b600083600003612aeb57612ae44283615a6e565b9050612aee565b50825b6127106124075482612b009190615c63565b612b0a9190615c82565b9250505061105d565b6000612b1d613710565b6104b15460405163095ea7b360e01b81526001600160a01b039091169063095ea7b390612b509086908690600401615d1a565b6020604051808303816000875af1158015612b6f573d6000803e3d6000fd5b505050506040513d601f19601f820116820180604052508101906112ce9190615c32565b612b9e84848461140e565b612baa84848484614439565b612663576040516303f8ea1560e41b815260040160405180910390fd5b606080806000612bd6306144f0565b905060608515612bf057612be9866146db565b9250612c03565b6040518060200160405280600081525092505b610c8c546001600160a01b031615612cda57600086815261107b6020526040902060010154610c8c546001600160a01b031663988b93ad3033612c458b611dc4565b60405160e085901b6001600160e01b03191681526001600160a01b03938416600482015291831660248301529091166044820152606481018a90526084810184905260a401600060405180830381865afa158015612ca7573d6000803e3d6000fd5b505050506040513d6000823e601f3d908101601f19168201604052612ccf9190810190615ca4565b979650505050505050565b6114658054612ce890615a85565b9050600003612d9057610c8360009054906101000a90046001600160a01b03166001600160a01b031663a998e9fb6040518163ffffffff1660e01b8152600401600060405180830381865afa158015612d45573d6000803e3d6000fd5b505050506040513d6000823e601f3d908101601f19168201604052612d6d9190810190615ca4565b9350604051806040016040528060018152602001602f60f81b8152509050612e43565b6114658054612d9e90615a85565b80601f0160208091040260200160405190810160405280929190818152602001828054612dca90615a85565b8015612e175780601f10612dec57610100808354040283529160200191612e17565b820191906000526020600020905b815481529060010190602001808311612dfa57829003601f168201915b505050505093506040518060200160405280600081525090506040518060200160405280600081525091505b612e4f8483838661480b565b9695505050505050565b612e616139cd565b612e79600080516020615ee283398151915282611544565b6040516001600160a01b038216907f91d5c045d5bd98bf59a379b259ebca05b93bf79af1845fdf87e3172385d4c7f790600090a250565b612eb981613525565b612ec281613554565b612ecb81613586565b6000612ed6826126d5565b9050611b8a828261407f565b600082815260976020526040902060010154612efd81613a02565b6110dd8383613e86565b612f0f613a92565b612f1884613525565b612f23846000613f1e565b506000612f6f612f3286611dc4565b8585858080601f01602080910402602001604051908101604052809392919081815260200183838082843760009201919091525061123492505050565b9050612f7b8185613b91565b6104b1546001600160a01b03161561302f5780861015612fae576040516330005fb160e21b815260040160405180910390fd5b6104b1546040516323b872dd60e01b81526001600160a01b039091169081906323b872dd90612fe590339030908790600401615c0e565b6020604051808303816000875af1158015613004573d6000803e3d6000fd5b505050506040513d601f19601f820116820180604052508101906130289190615c32565b5050613050565b80341015613050576040516306c3cddf60e41b815260040160405180910390fd5b600085815261201f6020526040902054811461307957600085815261201f602052604090208190555b610c845460008681526120206020526040902054146130a757610c8454600086815261202060205260409020555b6104b154600086815261202160205260409020546001600160a01b039081169116146130fe576104b15460008681526120216020526040902080546001600160a01b0319166001600160a01b039092169190911790555b613106613c96565b61310f84613ded565b505050505050565b61311f6139cd565b6001600160a01b0390911660009081526120226020526040902055565b6001600160a01b03918216600090815261107a6020908152604080832093909416825291909152205460ff1690565b613183600080516020615ee283398151915233611b0b565b60405133907f42885193b8178d25fca25a38e6fcc93918501e91be06d85e0c8afb3bad95238090600090a2565b6131b8613a92565b610c8754610c8654116131de576040516331af695160e01b815260040160405180910390fd5b6131e782613586565b6131f082613554565b6127106124075410613215576040516323f21a3d60e21b815260040160405180910390fd5b600082815261107660205260408120546001600160a01b031690804261324b86600090815261107b602052604090206001015490565b6132559190615a6e565b905060006132638686612aa0565b905060006132718287615b06565b90508281101561328f5785935061328a8782600061363e565b6132e7565b6132998784612aa0565b91506132a58284615a6e565b600088815261107b6020526040808220426001909101555191955088917f59f2fe866dd27a1c2d34115520888c3150365cbc931aab97fa88c4b9ab40b7959190a25b60006132f889826116ea8842615b06565b905080896001600160a01b0316876001600160a01b0316600080516020615ec283398151915260405160405180910390a4613344868a8360405180602001604052806000815250614439565b613361576040516303f8ea1560e41b815260040160405180910390fd5b505050505050505050565b6133746139cd565b600c610c8d55565b613384613710565b60006001600160a01b03831661339b57504761340b565b6040516370a0823160e01b81526001600160a01b038416906370a08231906133c790309060040161523f565b602060405180830381865afa1580156133e4573d6000803e3d6000fd5b505050506040513d601f19601f820116820180604052508101906134089190615aed565b90505b600082158061341957508183115b15613446576000821161343f576040516303e09bb960e31b815260040160405180910390fd5b5080613449565b50815b610c88546040518281526001600160a01b039182169186169033907f342e7ff505a8a0364cd0dc2ff195c315e43bce86b204846ecd36913e117b109e9060200160405180910390a4610c88546126639085906001600160a01b03168361483d565b6134b26139cd565b61201e55565b60006134c384613554565b600061271083426134e488600090815261107b602052604090206001015490565b6134ee9190615a6e565b6134f89190615c63565b6135029190615c82565b905061350f8486836131b0565b506001949350505050565b600061105d82614879565b600081815261107b60205260408120549003611c99576040516378fe247360e01b815260040160405180910390fd5b600081815261107b60205260409020600101544210611c99576040516306cfa7d760e11b815260040160405180910390fd5b600081815261107860205260408120546001600160a01b0316156135c257600082815261107860205260409020546001600160a01b03166135dc565b600082815261107660205260409020546001600160a01b03165b90506135e88233613752565b15801561360d5750600082815261107960205260409020546001600160a01b03163314155b8015613620575061361e813361313c565b155b15611b8a5760405163e17c6d4560e01b815260040160405180910390fd5b61364783613525565b600083815261107b60205260409020600101548115613694574281111561368a576136728382615b06565b600085815261107b60205260409020600101556136b2565b6136728342615b06565b61369e8382615a6e565b600085815261107b60205260409020600101555b600084815261107b602090815260409182902060010154825190815290810185905283151581830152905185917f3c907806849e9204e0e26bb095dfe4b3071576c4323f766735c548211556d052919081900360600190a250505050565b61371933612a38565b1580156137325750610c88546001600160a01b03163314155b156137505760405163c8f9577160e01b815260040160405180910390fd5b565b600082815261107860205260408120546001600160a01b03838116911614806137b55750816001600160a01b031661378984611dc4565b6001600160a01b03161480156137b55750600083815261107860205260409020546001600160a01b0316155b156137c25750600161105d565b50600061105d565b6137d381613554565b826001600160a01b03166137e682611dc4565b6001600160a01b03161461380d5760405163075fd2b160e01b815260040160405180910390fd5b6127106124075410613832576040516323f21a3d60e21b815260040160405180910390fd5b6001600160a01b03821661385957604051635963709b60e01b815260040160405180910390fd5b816001600160a01b0316836001600160a01b03160361388b57604051633fbd1a4960e01b815260040160405180910390fd5b6138a18161389a836000612aa0565b600061363e565b600081815261107b602052604090206138b98361230d565b6000036138d75761107780549060006138d183615bf5565b91905055505b6138e082614884565b6138ea828461498a565b6138f382614a2f565b60008281526120206020908152604080832083905561201f9091528082208290555183916001600160a01b038087169290881691600080516020615ec283398151915291a4610c8f546001600160a01b03161561266357610c8f5460018201546040516375b37aef60e01b8152306004820152602481018590523360448201526001600160a01b038781166064830152868116608483015260a48201929092529116906375b37aef9060c401600060405180830381600087803b1580156139b957600080fd5b505af115801561203d573d6000803e3d6000fd5b6139e5600080516020615ee2833981519152336126aa565b61375057604051632386d63160e21b815260040160405180910390fd5b611c998133614a6c565b613a1682826126aa565b611b8a5760008281526097602090815260408083206001600160a01b03851684529091529020805460ff19166001179055613a4e3390565b6001600160a01b0316816001600160a01b0316837f2f8788117e7eff1d82e926ec794901d17c78024a50270940304540a733656f0d60405160405180910390a45050565b610c8d54600c14613750576040516302eae03b60e61b815260040160405180910390fd5b60006001600160a01b038416613adf57604051635963709b60e01b815260040160405180910390fd5b610c878054906000613af083615bf5565b9091555050610c87546040805180820182528281526020808201868152600085815261107b9092529290209051815590516001909101559050613b328461230d565b600003613b50576110778054906000613b4a83615bf5565b91905055505b613b5a818561498a565b613b6481846143ac565b60405181906001600160a01b03861690600090600080516020615ec2833981519152908290a49392505050565b610c83546001600160a01b03163b15613c5857610c835460405163939d9f1f60e01b8152600481018490526001600160a01b0383811660248301529091169063939d9f1f90620493e090604401600060405180830381600088803b158015613bf857600080fd5b5087f193505050508015613c0a575060015b611b8a57610c835460405130917f6b18946261693dfd6c760d986b28ad2238b5b0267f8e5b6bc40a2f998e2f20ac91613c4c916001600160a01b03169061523f565b60405180910390a25050565b610c835460405130917f6b18946261693dfd6c760d986b28ad2238b5b0267f8e5b6bc40a2f998e2f20ac91613c4c916001600160a01b03169061523f565b61201e5415613750576104b1546001600160a01b031615613d32576104b15461201e5460405163a9059cbb60e01b81526001600160a01b0390921691829163a9059cbb91613ce8913391600401615d1a565b6020604051808303816000875af1158015613d07573d6000803e3d6000fd5b505050506040513d601f19601f82011682018060405250810190613d2b9190615c32565b5050613d9f565b61201e5460405160009133918381818185875af1925050503d8060008114613d76576040519150601f19603f3d011682016040523d82523d6000602084013e613d7b565b606091505b5050905080613d9d5760405163045ed26b60e11b815260040160405180910390fd5b505b61201e546104b154604080519283526001600160a01b03909116602083015233917f522a883b471164223f18b50f326da8671372b64b4792eac0e63d447e714c3e3b910160405180910390a2565b6120226020527fbed07da93ba22716a54f603f075ff3d6567a94916ac6d58738883fb4a4b47ea6546001600160a01b0382166000908152604090205415613e4a57506001600160a01b038116600090815261202260205260409020545b8015611b8a576104b154610c8554611b8a916001600160a01b031690849061271090613e77908690615c63565b613e819190615c82565b61483d565b613e9082826126aa565b15611b8a5760008281526097602090815260408083206001600160a01b0385168085529252808320805460ff1916905551339285917ff6391f5c32d9c69d2a47ea670b442974b53935d1edc7fd64eb21e047a839171b9190a45050565b600090815261107b6020908152604080832042600190910155611076909152902080546001600160a01b0319169055565b600082815261107b60205260408120600190810154908101613f5357604051630fed19c160e11b815260040160405180910390fd5b60008315613f615783613f66565b610c84545b90506000198103613f7b576000199250613fa1565b42821115613f9457613f8d8183615b06565b9250613fa1565b613f9e8142615b06565b92505b600085815261107b6020526040908190206001018490555185907f3ca112768ff7861e008ace1c11570c52e404c043e585545b5957a1e20961dde390613fea9086815260200190565b60405180910390a2610c90546001600160a01b03161561407757610c90546040516202d72d60e71b81526004810187905233602482015260448101859052606481018490526001600160a01b039091169063016b968090608401600060405180830381600087803b15801561405e57600080fd5b505af1158015614072573d6000803e3d6000fd5b505050505b505092915050565b600061408a83611dc4565b905061409583613eed565b336001600160a01b0316816001600160a01b0316847f0a7068a9989857441c039a14a42b67ed71dd1fcfe5a9b17cc87b252e47bce528856040516140db91815260200190565b60405180910390a48115614101576104b154614101906001600160a01b0316828461483d565b60008381526120206020908152604080832083905561201f909152812055610c8a546001600160a01b0316156110dd57610c8a5460405163b499b6c560e01b81526001600160a01b039091169063b499b6c59061416690339085908790600401615c0e565b600060405180830381600087803b15801561418057600080fd5b505af1158015614194573d6000803e3d6000fd5b50505050505050565b6001600160a01b03163b151590565b6141b581614315565b6104b180546001600160a01b0319166001600160a01b0392909216919091179055565b6141e0614ad0565b6141ed61146383836150cc565b50611b8a635b5e139f60e01b614296565b61375063780e9d6360e01b614296565b614226600080516020615ee283398151915280614b3b565b61424c600080516020615ea2833981519152600080516020615ee2833981519152614b3b565b61425581612a38565b61427157614271600080516020615ee283398151915282614b86565b61427a81611d1a565b611c9957611c99600080516020615ea283398151915282614b86565b6001600160e01b031980821690036142f05760405162461bcd60e51b815260206004820152601c60248201527f4552433136353a20696e76616c696420696e74657266616365206964000000006044820152606401611b77565b6001600160e01b0319166000908152606560205260409020805460ff19166001179055565b6001600160a01b0381161580159061438e57506000816001600160a01b03166318160ddd6040518163ffffffff1660e01b8152600401602060405180830381865afa158015614368573d6000803e3d6000fd5b505050506040513d601f19601f8201168201806040525081019061438c9190615aed565b105b15611c995760405163684cae7960e11b815260040160405180910390fd5b600082815261107860205260409020546001600160a01b03828116911614611b8a5760008281526110786020526040902080546001600160a01b0319166001600160a01b0383161790556143ff82614a2f565b6040516001600160a01b0382169083907f9d2895c45a420624de863a2f437b022d879f457bf7a829044055a10c5a6fd5e390600090a35050565b600061444d846001600160a01b031661419d565b614459575060016144e8565b604051630a85bd0160e11b81526000906001600160a01b0386169063150b7a029061448e9033908a9089908990600401615d33565b6020604051808303816000875af11580156144ad573d6000803e3d6000fd5b505050506040513d601f19601f820116820180604052508101906144d19190615d66565b6001600160e01b031916630a85bd0160e11b149150505b949350505050565b604080518082018252601081526f181899199a1a9b1b9c1cb0b131b232b360811b60208201528151602a80825260608281019094526001600160a01b0385169291600091602082018180368337019050509050600360fc1b8160008151811061455b5761455b615b1e565b60200101906001600160f81b031916908160001a905350600f60fb1b8160018151811061458a5761458a615b1e565b60200101906001600160f81b031916908160001a90535060005b60148110156146d257826004856145bc84600c615b06565b602081106145cc576145cc615b1e565b1a60f81b6001600160f81b031916901c60f81c60ff16815181106145f2576145f2615b1e565b01602001516001600160f81b0319168261460d836002615c63565b614618906002615b06565b8151811061462857614628615b1e565b60200101906001600160f81b031916908160001a905350828461464c83600c615b06565b6020811061465c5761465c615b1e565b825191901a600f1690811061467357614673615b1e565b01602001516001600160f81b0319168261468e836002615c63565b614699906003615b06565b815181106146a9576146a9615b1e565b60200101906001600160f81b031916908160001a905350806146ca81615bf5565b9150506145a4565b50949350505050565b60608160008190036147065750506040805180820190915260018152600360fc1b6020820152919050565b8260005b8115614730578061471a81615bf5565b91506147299050600a83615c82565b915061470a565b6000816001600160401b0381111561474a5761474a615294565b6040519080825280601f01601f191660200182016040528015614774576020820181803683370190505b509050815b84156148015761478a600182615a6e565b90506000614799600a87615c82565b6147a490600a615c63565b6147ae9087615a6e565b6147b9906030615d83565b905060008160f81b9050808484815181106147d6576147d6615b1e565b60200101906001600160f81b031916908160001a9053506147f8600a88615c82565b96505050614779565b5095945050505050565b6060848484846040516020016148249493929190615da8565b6040516020818303038152906040529050949350505050565b80156110dd576001600160a01b038316614864576110dd6001600160a01b03831682614b90565b826126636001600160a01b0382168484614ca6565b600061105d82614cfc565b600081815261107660205260408120546001600160a01b03169060016148a98361230d565b6148b39190615a6e565b600084815261107d6020526040902054909150808214614909576001600160a01b038316600090815261107c60209081526040808320858452825280832054848452818420819055835261107d90915290208190555b6001600160a01b038316600090815261107c602090815260408083208584529091528120556149378361230d565b60010361495557611077805490600061494f83615dff565b91905055505b6001600160a01b038316600090815261107e6020526040812080546001929061497f908490615a6e565b909155505050505050565b60006149958261230d565b9050610c8e5481106149ba57604051630bf6c32360e11b815260040160405180910390fd5b600083815261107d602090815260408083208490556001600160a01b03851680845261107c83528184208585528352818420879055868452611076835281842080546001600160a01b03191682179055835261107e9091528120805460019290614a25908490615b06565b9091555050505050565b600081815261107960205260409020546001600160a01b031615611c995760009081526110796020526040902080546001600160a01b0319169055565b614a7682826126aa565b611b8a57614a8e816001600160a01b03166014614d21565b614a99836020614d21565b604051602001614aaa929190615e16565b60408051601f198184030181529082905262461bcd60e51b8252611b7791600401615213565b600054610100900460ff166137505760405162461bcd60e51b815260206004820152602b60248201527f496e697469616c697a61626c653a20636f6e7472616374206973206e6f74206960448201526a6e697469616c697a696e6760a81b6064820152608401611b77565b600082815260976020526040808220600101805490849055905190918391839186917fbd79b86ffe0ab8e8776151514217cd7cacd52c909f66475c3af44e129f0b00ff9190a4505050565b611b8a8282613a0c565b80471015614be05760405162461bcd60e51b815260206004820152601d60248201527f416464726573733a20696e73756666696369656e742062616c616e63650000006044820152606401611b77565b6000826001600160a01b03168260405160006040518083038185875af1925050503d8060008114614c2d576040519150601f19603f3d011682016040523d82523d6000602084013e614c32565b606091505b50509050806110dd5760405162461bcd60e51b815260206004820152603a60248201527f416464726573733a20756e61626c6520746f2073656e642076616c75652c20726044820152791958da5c1a595b9d081b585e481a185d99481c995d995c9d195960321b6064820152608401611b77565b6110dd8363a9059cbb60e01b8484604051602401614cc5929190615d1a565b60408051601f198184030181529190526020810180516001600160e01b03166001600160e01b031990931692909217909152614ebc565b60006001600160e01b03198216637965db0b60e01b148061105d575061105d82614f8e565b60606000614d30836002615c63565b614d3b906002615b06565b6001600160401b03811115614d5257614d52615294565b6040519080825280601f01601f191660200182016040528015614d7c576020820181803683370190505b509050600360fc1b81600081518110614d9757614d97615b1e565b60200101906001600160f81b031916908160001a905350600f60fb1b81600181518110614dc657614dc6615b1e565b60200101906001600160f81b031916908160001a9053506000614dea846002615c63565b614df5906001615b06565b90505b6001811115614e6d576f181899199a1a9b1b9c1cb0b131b232b360811b85600f1660108110614e2957614e29615b1e565b1a60f81b828281518110614e3f57614e3f615b1e565b60200101906001600160f81b031916908160001a90535060049490941c93614e6681615dff565b9050614df8565b5083156112ce5760405162461bcd60e51b815260206004820181905260248201527f537472696e67733a20686578206c656e67746820696e73756666696369656e746044820152606401611b77565b6000614f11826040518060400160405280602081526020017f5361666545524332303a206c6f772d6c6576656c2063616c6c206661696c6564815250856001600160a01b0316614fca9092919063ffffffff16565b8051909150156110dd5780806020019051810190614f2f9190615c32565b6110dd5760405162461bcd60e51b815260206004820152602a60248201527f5361666545524332303a204552433230206f7065726174696f6e20646964206e6044820152691bdd081cdd58d8d9595960b21b6064820152608401611b77565b60006301ffc9a760e01b6001600160e01b03198316148061105d5750506001600160e01b03191660009081526065602052604090205460ff1690565b60606144e8848460008585614fde8561419d565b61502a5760405162461bcd60e51b815260206004820152601d60248201527f416464726573733a2063616c6c20746f206e6f6e2d636f6e74726163740000006044820152606401611b77565b600080866001600160a01b031685876040516150469190615e85565b60006040518083038185875af1925050503d8060008114615083576040519150601f19603f3d011682016040523d82523d6000602084013e615088565b606091505b5091509150612ccf828286606083156150a25750816112ce565b8251156150b25782518084602001fd5b8160405162461bcd60e51b8152600401611b779190615213565b8280546150d890615a85565b90600052602060002090601f0160209004810192826150fa5760008555615140565b82601f106151135782800160ff19823516178555615140565b82800160010185558215615140579182015b82811115615140578235825591602001919060010190615125565b50611d169291505b80821115611d165760008155600101615148565b6001600160e01b031981168114611c9957600080fd5b60006020828403121561518457600080fd5b81356112ce8161515c565b6000806000606084860312156151a457600080fd5b505081359360208301359350604090920135919050565b60005b838110156151d65781810151838201526020016151be565b838111156126635750506000910152565b600081518084526151ff8160208601602086016151bb565b601f01601f19169290920160200192915050565b6020815260006112ce60208301846151e7565b60006020828403121561523857600080fd5b5035919050565b6001600160a01b0391909116815260200190565b6001600160a01b0381168114611c9957600080fd5b6000806040838503121561527b57600080fd5b823561528681615253565b946020939093013593505050565b634e487b7160e01b600052604160045260246000fd5b604051601f8201601f191681016001600160401b03811182821017156152d2576152d2615294565b604052919050565b60006001600160401b038211156152f3576152f3615294565b50601f01601f191660200190565b600082601f83011261531257600080fd5b8135615325615320826152da565b6152aa565b81815284602083860101111561533a57600080fd5b816020850160208301376000918101602001919091529392505050565b60008060006060848603121561536c57600080fd5b833561537781615253565b9250602084013561538781615253565b915060408401356001600160401b038111156153a257600080fd5b6153ae86828701615301565b9150509250925092565b6000602082840312156153ca57600080fd5b81356112ce81615253565b6000806000606084860312156153ea57600080fd5b83356153f581615253565b9250602084013561540581615253565b929592945050506040919091013590565b6000806040838503121561542957600080fd5b82359150602083013561543b81615253565b809150509250929050565b60008083601f84011261545857600080fd5b5081356001600160401b0381111561546f57600080fd5b60208301915083602082850101111561548757600080fd5b9250929050565b600080602083850312156154a157600080fd5b82356001600160401b038111156154b757600080fd5b6154c385828601615446565b90969095509350505050565b60006001600160401b038211156154e8576154e8615294565b5060051b60200190565b600082601f83011261550357600080fd5b81356020615513615320836154cf565b82815260059290921b8401810191818101908684111561553257600080fd5b8286015b8481101561554d5780358352918301918301615536565b509695505050505050565b600082601f83011261556957600080fd5b81356020615579615320836154cf565b82815260059290921b8401810191818101908684111561559857600080fd5b8286015b8481101561554d5780356155af81615253565b835291830191830161559c565b60008083601f8401126155ce57600080fd5b5081356001600160401b038111156155e557600080fd5b6020830191508360208260051b850101111561548757600080fd5b60008060008060008060a0878903121561561957600080fd5b86356001600160401b038082111561563057600080fd5b61563c8a838b016154f2565b9750602089013591508082111561565257600080fd5b61565e8a838b01615558565b9650604089013591508082111561567457600080fd5b6156808a838b01615558565b9550606089013591508082111561569657600080fd5b6156a28a838b01615558565b945060808901359150808211156156b857600080fd5b506156c589828a016155bc565b979a9699509497509295939492505050565b6020808252825182820181905260009190848201906040850190845b8181101561570f578351835292840192918401916001016156f3565b50909695505050505050565b6000806040838503121561572e57600080fd5b50508035926020909101359150565b600080600080600080600060c0888a03121561575857600080fd5b873561576381615253565b965060208801359550604088013561577a81615253565b9450606088013593506080880135925060a08801356001600160401b038111156157a357600080fd5b6157af8a828b01615446565b989b979a50959850939692959293505050565b60008060008060008060c087890312156157db57600080fd5b86356157e681615253565b955060208701356157f681615253565b9450604087013561580681615253565b9350606087013561581681615253565b9250608087013561582681615253565b915060a087013561583681615253565b809150509295509295509295565b6000806000806000806060878903121561585d57600080fd5b86356001600160401b038082111561587457600080fd5b6158808a838b016155bc565b9098509650602089013591508082111561589957600080fd5b6158a58a838b016155bc565b909650945060408901359150808211156156b857600080fd5b8015158114611c9957600080fd5b600080604083850312156158df57600080fd5b82356158ea81615253565b9150602083013561543b816158be565b6000806000806080858703121561591057600080fd5b843561591b81615253565b9350602085013561592b81615253565b92506040850135915060608501356001600160401b0381111561594d57600080fd5b61595987828801615301565b91505092959194509250565b60008060008060006080868803121561597d57600080fd5b8535945060208601359350604086013561599681615253565b925060608601356001600160401b038111156159b157600080fd5b6159bd88828901615446565b969995985093965092949392505050565b600080604083850312156159e157600080fd5b82356159ec81615253565b9150602083013561543b81615253565b600080600060608486031215615a1157600080fd5b8335615a1c81615253565b95602085013595506040909401359392505050565b600080600060608486031215615a4657600080fd5b83359250602084013561540581615253565b634e487b7160e01b600052601160045260246000fd5b600082821015615a8057615a80615a58565b500390565b600181811c90821680615a9957607f821691505b6020821081036127be57634e487b7160e01b600052602260045260246000fd5b6001600160a01b038581168252848116602083015283166040820152608060608201819052600090612e4f908301846151e7565b600060208284031215615aff57600080fd5b5051919050565b60008219821115615b1957615b19615a58565b500190565b634e487b7160e01b600052603260045260246000fd5b6000808335601e19843603018112615b4b57600080fd5b8301803591506001600160401b03821115615b6557600080fd5b60200191503681900382131561548757600080fd5b81835281816020850137506000828201602090810191909152601f909101601f19169091010190565b8881526001600160a01b03888116602083015287811660408301528616606082015260e060808201819052600090615bde9083018688615b7a565b60a08301949094525060c001529695505050505050565b600060018201615c0757615c07615a58565b5060010190565b6001600160a01b039384168152919092166020820152604081019190915260600190565b600060208284031215615c4457600080fd5b81516112ce816158be565b6020815260006144e8602083018486615b7a565b6000816000190483118215151615615c7d57615c7d615a58565b500290565b600082615c9f57634e487b7160e01b600052601260045260246000fd5b500490565b600060208284031215615cb657600080fd5b81516001600160401b03811115615ccc57600080fd5b8201601f81018413615cdd57600080fd5b8051615ceb615320826152da565b818152856020838501011115615d0057600080fd5b615d118260208301602086016151bb565b95945050505050565b6001600160a01b03929092168252602082015260400190565b6001600160a01b0385811682528416602082015260408101839052608060608201819052600090612e4f908301846151e7565b600060208284031215615d7857600080fd5b81516112ce8161515c565b600060ff821660ff84168060ff03821115615da057615da0615a58565b019392505050565b60008551615dba818460208a016151bb565b855190830190615dce818360208a016151bb565b8551910190615de18183602089016151bb565b8451910190615df48183602088016151bb565b019695505050505050565b600081615e0e57615e0e615a58565b506000190190565b76020b1b1b2b9b9a1b7b73a3937b61d1030b1b1b7bab73a1604d1b815260008351615e488160178501602088016151bb565b7001034b99036b4b9b9b4b733903937b6329607d1b6017918401918201528351615e798160288401602088016151bb565b01602801949350505050565b60008251615e978184602087016151bb565b919091019291505056feb309c40027c81d382c3b58d8de24207a34b27e1db369b1434e4a11311f154b5eddf252ad1be2c89b69c2b068fc378daa952ba7f163c4a11628f55a4df523b3efb89cdd26cddd51301940bf2715f765b626b8a5a9e2681ac62dc83cc2db2530c0a2646970667358221220601b8abbe5ad38d2a201e1dfb07f61ea7686866bfbb4687a399df9125ff5db0b64736f6c634300080d0033",
  "linkReferences": {},
  "deployedLinkReferences": {}
}