{
  "_format": "hh-sol-artifact-1",
  "contractName": "PublicLockV15",
  "sourceName": "contracts/PublicLock/PublicLockV15.sol",
  "abi": [
    {
      "inputs": [],
      "name": "CANNOT_APPROVE_SELF",
      "type": "error"
    },
    {
      "inputs": [],
      "name": "CANT_EXTEND_NON_EXPIRING_KEY",
      "type": "error"
    },
    {
      "inputs": [],
      "name": "GAS_REFUND_FAILED",
      "type": "error"
    },
    {
      "inputs": [],
      "name": "INSUFFICIENT_ERC20_VALUE",
      "type": "error"
    },
    {
      "inputs": [],
      "name": "INSUFFICIENT_VALUE",
      "type": "error"
    },
    {
      "inputs": [],
      "name": "INVALID_ADDRESS",
      "type": "error"
    },
    {
      "inputs": [
        {
          "internalType": "uint8",
          "name": "hookIndex",
          "type": "uint8"
        }
      ],
      "name": "INVALID_HOOK",
      "type": "error"
    },
    {
      "inputs": [],
      "name": "INVALID_LENGTH",
      "type": "error"
    },
    {
      "inputs": [],
      "name": "INVALID_TOKEN",
      "type": "error"
    },
    {
      "inputs": [],
      "name": "KEY_NOT_VALID",
      "type": "error"
    },
    {
      "inputs": [],
      "name": "KEY_TRANSFERS_DISABLED",
      "type": "error"
    },
    {
      "inputs": [],
      "name": "LOCK_HAS_CHANGED",
      "type": "error"
    },
    {
      "inputs": [],
      "name": "LOCK_SOLD_OUT",
      "type": "error"
    },
    {
      "inputs": [],
      "name": "MAX_KEYS_REACHED",
      "type": "error"
    },
    {
      "inputs": [],
      "name": "MIGRATION_REQUIRED",
      "type": "error"
    },
    {
      "inputs": [],
      "name": "NON_COMPLIANT_ERC721_RECEIVER",
      "type": "error"
    },
    {
      "inputs": [],
      "name": "NON_RENEWABLE_LOCK",
      "type": "error"
    },
    {
      "inputs": [],
      "name": "NOT_ENOUGH_FUNDS",
      "type": "error"
    },
    {
      "inputs": [],
      "name": "NOT_ENOUGH_TIME",
      "type": "error"
    },
    {
      "inputs": [],
      "name": "NOT_READY_FOR_RENEWAL",
      "type": "error"
    },
    {
      "inputs": [],
      "name": "NO_SUCH_KEY",
      "type": "error"
    },
    {
      "inputs": [],
      "name": "NULL_VALUE",
      "type": "error"
    },
    {
      "inputs": [],
      "name": "ONLY_KEY_MANAGER_OR_APPROVED",
      "type": "error"
    },
    {
      "inputs": [],
      "name": "ONLY_LOCK_MANAGER",
      "type": "error"
    },
    {
      "inputs": [],
      "name": "ONLY_LOCK_MANAGER_OR_KEY_GRANTER",
      "type": "error"
    },
    {
      "inputs": [],
      "name": "OUT_OF_RANGE",
      "type": "error"
    },
    {
      "inputs": [],
      "name": "OWNER_CANT_BE_ADDRESS_ZERO",
      "type": "error"
    },
    {
      "inputs": [],
      "name": "SCHEMA_VERSION_NOT_CORRECT",
      "type": "error"
    },
    {
      "inputs": [
        {
          "internalType": "uint256",
          "name": "value",
          "type": "uint256"
        },
        {
          "internalType": "uint256",
          "name": "length",
          "type": "uint256"
        }
      ],
      "name": "StringsInsufficientHexLength",
      "type": "error"
    },
    {
      "inputs": [],
      "name": "TRANSFER_TO_SELF",
      "type": "error"
    },
    {
      "inputs": [],
      "name": "TransferFailed",
      "type": "error"
    },
    {
      "inputs": [],
      "name": "UNAUTHORIZED",
      "type": "error"
    },
    {
      "inputs": [],
      "name": "UNAUTHORIZED_KEY_MANAGER_UPDATE",
      "type": "error"
    },
    {
      "anonymous": false,
      "inputs": [
        {
          "indexed": true,
          "internalType": "address",
          "name": "owner",
          "type": "address"
        },
        {
          "indexed": true,
          "internalType": "address",
          "name": "approved",
          "type": "address"
        },
        {
          "indexed": true,
          "internalType": "uint256",
          "name": "tokenId",
          "type": "uint256"
        }
      ],
      "name": "Approval",
      "type": "event"
    },
    {
      "anonymous": false,
      "inputs": [
        {
          "indexed": true,
          "internalType": "uint256",
          "name": "tokenId",
          "type": "uint256"
        },
        {
          "indexed": true,
          "internalType": "address",
          "name": "owner",
          "type": "address"
        },
        {
          "indexed": true,
          "internalType": "address",
          "name": "sendTo",
          "type": "address"
        },
        {
          "indexed": false,
          "internalType": "uint256",
          "name": "refund",
          "type": "uint256"
        }
      ],
      "name": "CancelKey",
      "type": "event"
    },
    {
      "anonymous": false,
      "inputs": [
        {
          "indexed": false,
          "internalType": "address",
          "name": "onKeyPurchaseHook",
          "type": "address"
        },
        {
          "indexed": false,
          "internalType": "address",
          "name": "onKeyCancelHook",
          "type": "address"
        },
        {
          "indexed": false,
          "internalType": "address",
          "name": "onValidKeyHook",
          "type": "address"
        },
        {
          "indexed": false,
          "internalType": "address",
          "name": "onTokenURIHook",
          "type": "address"
        },
        {
          "indexed": false,
          "internalType": "address",
          "name": "onKeyTransferHook",
          "type": "address"
        },
        {
          "indexed": false,
          "internalType": "address",
          "name": "onKeyExtendHook",
          "type": "address"
        },
        {
          "indexed": false,
          "internalType": "address",
          "name": "onKeyGrantHook",
          "type": "address"
        },
        {
          "indexed": false,
          "internalType": "address",
          "name": "onHasRoleHook",
          "type": "address"
        }
      ],
      "name": "EventHooksUpdated",
      "type": "event"
    },
    {
      "anonymous": false,
      "inputs": [
        {
          "indexed": true,
          "internalType": "uint256",
          "name": "tokenId",
          "type": "uint256"
        },
        {
          "indexed": false,
          "internalType": "uint256",
          "name": "prevExpiration",
          "type": "uint256"
        },
        {
          "indexed": false,
          "internalType": "uint256",
          "name": "newExpiration",
          "type": "uint256"
        }
      ],
      "name": "ExpirationChanged",
      "type": "event"
    },
    {
      "anonymous": false,
      "inputs": [
        {
          "indexed": true,
          "internalType": "uint256",
          "name": "tokenId",
          "type": "uint256"
        }
      ],
      "name": "ExpireKey",
      "type": "event"
    },
    {
      "anonymous": false,
      "inputs": [
        {
          "indexed": false,
          "internalType": "uint256",
          "name": "refundValue",
          "type": "uint256"
        }
      ],
      "name": "GasRefundValueChanged",
      "type": "event"
    },
    {
      "anonymous": false,
      "inputs": [
        {
          "indexed": true,
          "internalType": "address",
          "name": "receiver",
          "type": "address"
        },
        {
          "indexed": false,
          "internalType": "uint256",
          "name": "refundedAmount",
          "type": "uint256"
        },
        {
          "indexed": false,
          "internalType": "address",
          "name": "tokenAddress",
          "type": "address"
        }
      ],
      "name": "GasRefunded",
      "type": "event"
    },
    {
      "anonymous": false,
      "inputs": [
        {
          "indexed": false,
          "internalType": "uint8",
          "name": "version",
          "type": "uint8"
        }
      ],
      "name": "Initialized",
      "type": "event"
    },
    {
      "anonymous": false,
      "inputs": [
        {
          "indexed": true,
          "internalType": "uint256",
          "name": "tokenId",
          "type": "uint256"
        },
        {
          "indexed": false,
          "internalType": "uint256",
          "name": "newTimestamp",
          "type": "uint256"
        }
      ],
      "name": "KeyExtended",
      "type": "event"
    },
    {
      "anonymous": false,
      "inputs": [
        {
          "indexed": true,
          "internalType": "address",
          "name": "account",
          "type": "address"
        }
      ],
      "name": "KeyGranterAdded",
      "type": "event"
    },
    {
      "anonymous": false,
      "inputs": [
        {
          "indexed": true,
          "internalType": "address",
          "name": "account",
          "type": "address"
        }
      ],
      "name": "KeyGranterRemoved",
      "type": "event"
    },
    {
      "anonymous": false,
      "inputs": [
        {
          "indexed": true,
          "internalType": "uint256",
          "name": "_tokenId",
          "type": "uint256"
        },
        {
          "indexed": true,
          "internalType": "address",
          "name": "_newManager",
          "type": "address"
        }
      ],
      "name": "KeyManagerChanged",
      "type": "event"
    },
    {
      "anonymous": false,
      "inputs": [
        {
          "indexed": false,
          "internalType": "uint256",
          "name": "updatedRecordsCount",
          "type": "uint256"
        }
      ],
      "name": "KeysMigrated",
      "type": "event"
    },
    {
      "anonymous": false,
      "inputs": [
        {
          "indexed": false,
          "internalType": "uint256",
          "name": "expirationDuration",
          "type": "uint256"
        },
        {
          "indexed": false,
          "internalType": "uint256",
          "name": "maxNumberOfKeys",
          "type": "uint256"
        },
        {
          "indexed": false,
          "internalType": "uint256",
          "name": "maxKeysPerAcccount",
          "type": "uint256"
        }
      ],
      "name": "LockConfig",
      "type": "event"
    },
    {
      "anonymous": false,
      "inputs": [
        {
          "indexed": true,
          "internalType": "address",
          "name": "account",
          "type": "address"
        }
      ],
      "name": "LockManagerAdded",
      "type": "event"
    },
    {
      "anonymous": false,
      "inputs": [
        {
          "indexed": true,
          "internalType": "address",
          "name": "account",
          "type": "address"
        }
      ],
      "name": "LockManagerRemoved",
      "type": "event"
    },
    {
      "anonymous": false,
      "inputs": [
        {
          "indexed": false,
          "internalType": "string",
          "name": "name",
          "type": "string"
        },
        {
          "indexed": false,
          "internalType": "string",
          "name": "symbol",
          "type": "string"
        },
        {
          "indexed": false,
          "internalType": "string",
          "name": "baseTokenURI",
          "type": "string"
        }
      ],
      "name": "LockMetadata",
      "type": "event"
    },
    {
      "anonymous": false,
      "inputs": [
        {
          "indexed": false,
          "internalType": "address",
          "name": "previousOwner",
          "type": "address"
        },
        {
          "indexed": false,
          "internalType": "address",
          "name": "newOwner",
          "type": "address"
        }
      ],
      "name": "OwnershipTransferred",
      "type": "event"
    },
    {
      "anonymous": false,
      "inputs": [
        {
          "indexed": false,
          "internalType": "uint256[]",
          "name": "tokenIds",
          "type": "uint256[]"
        },
        {
          "indexed": false,
          "internalType": "uint256",
          "name": "purchases",
          "type": "uint256"
        },
        {
          "indexed": false,
          "internalType": "uint256",
          "name": "extensions",
          "type": "uint256"
        },
        {
          "indexed": false,
          "internalType": "address",
          "name": "payer",
          "type": "address"
        },
        {
          "indexed": false,
          "internalType": "address",
          "name": "tokenAddress",
          "type": "address"
        },
        {
          "indexed": false,
          "internalType": "uint256",
          "name": "totalPaid",
          "type": "uint256"
        }
      ],
      "name": "PaymentReceipt",
      "type": "event"
    },
    {
      "anonymous": false,
      "inputs": [
        {
          "indexed": false,
          "internalType": "uint256",
          "name": "oldKeyPrice",
          "type": "uint256"
        },
        {
          "indexed": false,
          "internalType": "uint256",
          "name": "keyPrice",
          "type": "uint256"
        },
        {
          "indexed": false,
          "internalType": "address",
          "name": "oldTokenAddress",
          "type": "address"
        },
        {
          "indexed": false,
          "internalType": "address",
          "name": "tokenAddress",
          "type": "address"
        }
      ],
      "name": "PricingChanged",
      "type": "event"
    },
    {
      "anonymous": false,
      "inputs": [
        {
          "indexed": true,
          "internalType": "address",
          "name": "referrer",
          "type": "address"
        },
        {
          "indexed": false,
          "internalType": "uint256",
          "name": "fee",
          "type": "uint256"
        }
      ],
      "name": "ReferrerFee",
      "type": "event"
    },
    {
      "anonymous": false,
      "inputs": [
        {
          "indexed": false,
          "internalType": "address",
          "name": "tokenAddress",
          "type": "address"
        },
        {
          "indexed": false,
          "internalType": "address",
          "name": "referrer",
          "type": "address"
        },
        {
          "indexed": false,
          "internalType": "uint256",
          "name": "fee",
          "type": "uint256"
        }
      ],
      "name": "ReferrerPaid",
      "type": "event"
    },
    {
      "anonymous": false,
      "inputs": [
        {
          "indexed": false,
          "internalType": "uint256",
          "name": "freeTrialLength",
          "type": "uint256"
        },
        {
          "indexed": false,
          "internalType": "uint256",
          "name": "refundPenaltyBasisPoints",
          "type": "uint256"
        }
      ],
      "name": "RefundPenaltyChanged",
      "type": "event"
    },
    {
      "anonymous": false,
      "inputs": [
        {
          "indexed": true,
          "internalType": "bytes32",
          "name": "role",
          "type": "bytes32"
        },
        {
          "indexed": true,
          "internalType": "bytes32",
          "name": "previousAdminRole",
          "type": "bytes32"
        },
        {
          "indexed": true,
          "internalType": "bytes32",
          "name": "newAdminRole",
          "type": "bytes32"
        }
      ],
      "name": "RoleAdminChanged",
      "type": "event"
    },
    {
      "anonymous": false,
      "inputs": [
        {
          "indexed": true,
          "internalType": "bytes32",
          "name": "role",
          "type": "bytes32"
        },
        {
          "indexed": true,
          "internalType": "address",
          "name": "account",
          "type": "address"
        },
        {
          "indexed": true,
          "internalType": "address",
          "name": "sender",
          "type": "address"
        }
      ],
      "name": "RoleGranted",
      "type": "event"
    },
    {
      "anonymous": false,
      "inputs": [
        {
          "indexed": true,
          "internalType": "bytes32",
          "name": "role",
          "type": "bytes32"
        },
        {
          "indexed": true,
          "internalType": "address",
          "name": "account",
          "type": "address"
        },
        {
          "indexed": true,
          "internalType": "address",
          "name": "sender",
          "type": "address"
        }
      ],
      "name": "RoleRevoked",
      "type": "event"
    },
    {
      "anonymous": false,
      "inputs": [
        {
          "indexed": true,
          "internalType": "address",
          "name": "from",
          "type": "address"
        },
        {
          "indexed": true,
          "internalType": "address",
          "name": "to",
          "type": "address"
        },
        {
          "indexed": true,
          "internalType": "uint256",
          "name": "tokenId",
          "type": "uint256"
        }
      ],
      "name": "Transfer",
      "type": "event"
    },
    {
      "anonymous": false,
      "inputs": [
        {
          "indexed": false,
          "internalType": "uint256",
          "name": "transferFeeBasisPoints",
          "type": "uint256"
        }
      ],
      "name": "TransferFeeChanged",
      "type": "event"
    },
    {
      "anonymous": false,
      "inputs": [
        {
          "indexed": true,
          "internalType": "address",
          "name": "lockAddress",
          "type": "address"
        },
        {
          "indexed": false,
          "internalType": "address",
          "name": "unlockAddress",
          "type": "address"
        }
      ],
      "name": "UnlockCallFailed",
      "type": "event"
    },
    {
      "anonymous": false,
      "inputs": [
        {
          "indexed": true,
          "internalType": "address",
          "name": "sender",
          "type": "address"
        },
        {
          "indexed": true,
          "internalType": "address",
          "name": "tokenAddress",
          "type": "address"
        },
        {
          "indexed": true,
          "internalType": "address",
          "name": "recipient",
          "type": "address"
        },
        {
          "indexed": false,
          "internalType": "uint256",
          "name": "amount",
          "type": "uint256"
        }
      ],
      "name": "Withdrawal",
      "type": "event"
    },
    {
      "inputs": [],
      "name": "DEFAULT_ADMIN_ROLE",
      "outputs": [
        {
          "internalType": "bytes32",
          "name": "",
          "type": "bytes32"
        }
      ],
      "stateMutability": "view",
      "type": "function"
    },
    {
      "inputs": [
        {
          "internalType": "address",
          "name": "_approved",
          "type": "address"
        },
        {
          "internalType": "uint256",
          "name": "_tokenId",
          "type": "uint256"
        }
      ],
      "name": "approve",
      "outputs": [],
      "stateMutability": "nonpayable",
      "type": "function"
    },
    {
      "inputs": [
        {
          "internalType": "address",
          "name": "_keyOwner",
          "type": "address"
        }
      ],
      "name": "balanceOf",
      "outputs": [
        {
          "internalType": "uint256",
          "name": "balance",
          "type": "uint256"
        }
      ],
      "stateMutability": "view",
      "type": "function"
    },
    {
      "inputs": [
        {
          "internalType": "uint256",
          "name": "_tokenId",
          "type": "uint256"
        }
      ],
      "name": "burn",
      "outputs": [],
      "stateMutability": "nonpayable",
      "type": "function"
    },
    {
      "inputs": [
        {
          "internalType": "uint256",
          "name": "_tokenId",
          "type": "uint256"
        }
      ],
      "name": "cancelAndRefund",
      "outputs": [],
      "stateMutability": "nonpayable",
      "type": "function"
    },
    {
      "inputs": [],
      "name": "expirationDuration",
      "outputs": [
        {
          "internalType": "uint256",
          "name": "",
          "type": "uint256"
        }
      ],
      "stateMutability": "view",
      "type": "function"
    },
    {
      "inputs": [
        {
          "internalType": "uint256",
          "name": "_tokenId",
          "type": "uint256"
        },
        {
          "internalType": "uint256",
          "name": "_amount",
          "type": "uint256"
        }
      ],
      "name": "expireAndRefundFor",
      "outputs": [],
      "stateMutability": "nonpayable",
      "type": "function"
    },
    {
      "inputs": [
        {
          "internalType": "uint256",
          "name": "_value",
          "type": "uint256"
        },
        {
          "internalType": "uint256",
          "name": "_tokenId",
          "type": "uint256"
        },
        {
          "internalType": "address",
          "name": "_referrer",
          "type": "address"
        },
        {
          "internalType": "bytes",
          "name": "_data",
          "type": "bytes"
        }
      ],
      "name": "extend",
      "outputs": [],
      "stateMutability": "payable",
      "type": "function"
    },
    {
      "inputs": [],
      "name": "freeTrialLength",
      "outputs": [
        {
          "internalType": "uint256",
          "name": "",
          "type": "uint256"
        }
      ],
      "stateMutability": "view",
      "type": "function"
    },
    {
      "inputs": [],
      "name": "gasRefundValue",
      "outputs": [
        {
          "internalType": "uint256",
          "name": "_refundValue",
          "type": "uint256"
        }
      ],
      "stateMutability": "view",
      "type": "function"
    },
    {
      "inputs": [
        {
          "internalType": "uint256",
          "name": "_tokenId",
          "type": "uint256"
        }
      ],
      "name": "getApproved",
      "outputs": [
        {
          "internalType": "address",
          "name": "",
          "type": "address"
        }
      ],
      "stateMutability": "view",
      "type": "function"
    },
    {
      "inputs": [
        {
          "internalType": "uint256",
          "name": "_tokenId",
          "type": "uint256"
        }
      ],
      "name": "getCancelAndRefundValue",
      "outputs": [
        {
          "internalType": "uint256",
          "name": "refund",
          "type": "uint256"
        }
      ],
      "stateMutability": "view",
      "type": "function"
    },
    {
      "inputs": [
        {
          "internalType": "address",
          "name": "_keyOwner",
          "type": "address"
        }
      ],
      "name": "getHasValidKey",
      "outputs": [
        {
          "internalType": "bool",
          "name": "isValid",
          "type": "bool"
        }
      ],
      "stateMutability": "view",
      "type": "function"
    },
    {
      "inputs": [
        {
          "internalType": "bytes32",
          "name": "role",
          "type": "bytes32"
        }
      ],
      "name": "getRoleAdmin",
      "outputs": [
        {
          "internalType": "bytes32",
          "name": "",
          "type": "bytes32"
        }
      ],
      "stateMutability": "view",
      "type": "function"
    },
    {
      "inputs": [
        {
          "internalType": "uint256",
          "name": "_tokenId",
          "type": "uint256"
        },
        {
          "internalType": "uint256",
          "name": "_time",
          "type": "uint256"
        }
      ],
      "name": "getTransferFee",
      "outputs": [
        {
          "internalType": "uint256",
          "name": "",
          "type": "uint256"
        }
      ],
      "stateMutability": "view",
      "type": "function"
    },
    {
      "inputs": [
        {
          "internalType": "uint256",
          "name": "_tokenId",
          "type": "uint256"
        },
        {
          "internalType": "uint256",
          "name": "_duration",
          "type": "uint256"
        }
      ],
      "name": "grantKeyExtension",
      "outputs": [],
      "stateMutability": "nonpayable",
      "type": "function"
    },
    {
      "inputs": [
        {
          "internalType": "address[]",
          "name": "_recipients",
          "type": "address[]"
        },
        {
          "internalType": "uint256[]",
          "name": "_expirationTimestamps",
          "type": "uint256[]"
        },
        {
          "internalType": "address[]",
          "name": "_keyManagers",
          "type": "address[]"
        }
      ],
      "name": "grantKeys",
      "outputs": [
        {
          "internalType": "uint256[]",
          "name": "",
          "type": "uint256[]"
        }
      ],
      "stateMutability": "nonpayable",
      "type": "function"
    },
    {
      "inputs": [
        {
          "internalType": "bytes32",
          "name": "role",
          "type": "bytes32"
        },
        {
          "internalType": "address",
          "name": "account",
          "type": "address"
        }
      ],
      "name": "grantRole",
      "outputs": [],
      "stateMutability": "nonpayable",
      "type": "function"
    },
    {
      "inputs": [
        {
          "internalType": "bytes32",
          "name": "role",
          "type": "bytes32"
        },
        {
          "internalType": "address",
          "name": "account",
          "type": "address"
        }
      ],
      "name": "hasRole",
      "outputs": [
        {
          "internalType": "bool",
          "name": "",
          "type": "bool"
        }
      ],
      "stateMutability": "view",
      "type": "function"
    },
    {
      "inputs": [
        {
          "internalType": "address payable",
          "name": "_lockCreator",
          "type": "address"
        },
        {
          "internalType": "uint256",
          "name": "_expirationDuration",
          "type": "uint256"
        },
        {
          "internalType": "address",
          "name": "_tokenAddress",
          "type": "address"
        },
        {
          "internalType": "uint256",
          "name": "_keyPrice",
          "type": "uint256"
        },
        {
          "internalType": "uint256",
          "name": "_maxNumberOfKeys",
          "type": "uint256"
        },
        {
          "internalType": "string",
          "name": "_lockName",
          "type": "string"
        }
      ],
      "name": "initialize",
      "outputs": [],
      "stateMutability": "nonpayable",
      "type": "function"
    },
    {
      "inputs": [
        {
          "internalType": "address",
          "name": "account",
          "type": "address"
        }
      ],
      "name": "isLockManager",
      "outputs": [
        {
          "internalType": "bool",
          "name": "",
          "type": "bool"
        }
      ],
      "stateMutability": "view",
      "type": "function"
    },
    {
      "inputs": [
        {
          "internalType": "address",
          "name": "account",
          "type": "address"
        }
      ],
      "name": "isOwner",
      "outputs": [
        {
          "internalType": "bool",
          "name": "",
          "type": "bool"
        }
      ],
      "stateMutability": "view",
      "type": "function"
    },
    {
      "inputs": [
        {
          "internalType": "uint256",
          "name": "_tokenId",
          "type": "uint256"
        },
        {
          "internalType": "address",
          "name": "_referrer",
          "type": "address"
        }
      ],
      "name": "isRenewable",
      "outputs": [
        {
          "internalType": "bool",
          "name": "",
          "type": "bool"
        }
      ],
      "stateMutability": "view",
      "type": "function"
    },
    {
      "inputs": [
        {
          "internalType": "uint256",
          "name": "_tokenId",
          "type": "uint256"
        }
      ],
      "name": "isValidKey",
      "outputs": [
        {
          "internalType": "bool",
          "name": "",
          "type": "bool"
        }
      ],
      "stateMutability": "view",
      "type": "function"
    },
    {
      "inputs": [
        {
          "internalType": "uint256",
          "name": "_tokenId",
          "type": "uint256"
        }
      ],
      "name": "keyExpirationTimestampFor",
      "outputs": [
        {
          "internalType": "uint256",
          "name": "",
          "type": "uint256"
        }
      ],
      "stateMutability": "view",
      "type": "function"
    },
    {
      "inputs": [
        {
          "internalType": "uint256",
          "name": "",
          "type": "uint256"
        }
      ],
      "name": "keyManagerOf",
      "outputs": [
        {
          "internalType": "address",
          "name": "",
          "type": "address"
        }
      ],
      "stateMutability": "view",
      "type": "function"
    },
    {
      "inputs": [],
      "name": "keyPrice",
      "outputs": [
        {
          "internalType": "uint256",
          "name": "",
          "type": "uint256"
        }
      ],
      "stateMutability": "view",
      "type": "function"
    },
    {
      "inputs": [
        {
          "internalType": "address",
          "name": "_from",
          "type": "address"
        },
        {
          "internalType": "address",
          "name": "_recipient",
          "type": "address"
        },
        {
          "internalType": "uint256",
          "name": "_tokenId",
          "type": "uint256"
        }
      ],
      "name": "lendKey",
      "outputs": [],
      "stateMutability": "nonpayable",
      "type": "function"
    },
    {
      "inputs": [],
      "name": "maxKeysPerAddress",
      "outputs": [
        {
          "internalType": "uint256",
          "name": "",
          "type": "uint256"
        }
      ],
      "stateMutability": "view",
      "type": "function"
    },
    {
      "inputs": [],
      "name": "maxNumberOfKeys",
      "outputs": [
        {
          "internalType": "uint256",
          "name": "",
          "type": "uint256"
        }
      ],
      "stateMutability": "view",
      "type": "function"
    },
    {
      "inputs": [
        {
          "internalType": "uint256",
          "name": "_tokenIdFrom",
          "type": "uint256"
        },
        {
          "internalType": "uint256",
          "name": "_tokenIdTo",
          "type": "uint256"
        },
        {
          "internalType": "uint256",
          "name": "_amount",
          "type": "uint256"
        }
      ],
      "name": "mergeKeys",
      "outputs": [],
      "stateMutability": "nonpayable",
      "type": "function"
    },
    {
      "inputs": [
        {
          "internalType": "bytes",
          "name": "",
          "type": "bytes"
        }
      ],
      "name": "migrate",
      "outputs": [],
      "stateMutability": "nonpayable",
      "type": "function"
    },
    {
      "inputs": [],
      "name": "name",
      "outputs": [
        {
          "internalType": "string",
          "name": "",
          "type": "string"
        }
      ],
      "stateMutability": "view",
      "type": "function"
    },
    {
      "inputs": [],
      "name": "numberOfOwners",
      "outputs": [
        {
          "internalType": "uint256",
          "name": "",
          "type": "uint256"
        }
      ],
      "stateMutability": "view",
      "type": "function"
    },
    {
      "inputs": [],
      "name": "onHasRoleHook",
      "outputs": [
        {
          "internalType": "contract ILockHasRoleHook",
          "name": "",
          "type": "address"
        }
      ],
      "stateMutability": "view",
      "type": "function"
    },
    {
      "inputs": [],
      "name": "onKeyCancelHook",
      "outputs": [
        {
          "internalType": "contract ILockKeyCancelHook",
          "name": "",
          "type": "address"
        }
      ],
      "stateMutability": "view",
      "type": "function"
    },
    {
      "inputs": [],
      "name": "onKeyExtendHook",
      "outputs": [
        {
          "internalType": "contract ILockKeyExtendHook",
          "name": "",
          "type": "address"
        }
      ],
      "stateMutability": "view",
      "type": "function"
    },
    {
      "inputs": [],
      "name": "onKeyGrantHook",
      "outputs": [
        {
          "internalType": "contract ILockKeyGrantHook",
          "name": "",
          "type": "address"
        }
      ],
      "stateMutability": "view",
      "type": "function"
    },
    {
      "inputs": [],
      "name": "onKeyPurchaseHook",
      "outputs": [
        {
          "internalType": "contract ILockKeyPurchaseHook",
          "name": "",
          "type": "address"
        }
      ],
      "stateMutability": "view",
      "type": "function"
    },
    {
      "inputs": [],
      "name": "onKeyTransferHook",
      "outputs": [
        {
          "internalType": "contract ILockKeyTransferHook",
          "name": "",
          "type": "address"
        }
      ],
      "stateMutability": "view",
      "type": "function"
    },
    {
      "inputs": [],
      "name": "onTokenURIHook",
      "outputs": [
        {
          "internalType": "contract ILockTokenURIHook",
          "name": "",
          "type": "address"
        }
      ],
      "stateMutability": "view",
      "type": "function"
    },
    {
      "inputs": [],
      "name": "onValidKeyHook",
      "outputs": [
        {
          "internalType": "contract ILockValidKeyHook",
          "name": "",
          "type": "address"
        }
      ],
      "stateMutability": "view",
      "type": "function"
    },
    {
      "inputs": [],
      "name": "owner",
      "outputs": [
        {
          "internalType": "address",
          "name": "",
          "type": "address"
        }
      ],
      "stateMutability": "view",
      "type": "function"
    },
    {
      "inputs": [
        {
          "internalType": "uint256",
          "name": "_tokenId",
          "type": "uint256"
        }
      ],
      "name": "ownerOf",
      "outputs": [
        {
          "internalType": "address",
          "name": "",
          "type": "address"
        }
      ],
      "stateMutability": "view",
      "type": "function"
    },
    {
      "inputs": [],
      "name": "publicLockVersion",
      "outputs": [
        {
          "internalType": "uint16",
          "name": "",
          "type": "uint16"
        }
      ],
      "stateMutability": "pure",
      "type": "function"
    },
    {
      "inputs": [
        {
          "internalType": "uint256[]",
          "name": "_values",
          "type": "uint256[]"
        },
        {
          "internalType": "address[]",
          "name": "_recipients",
          "type": "address[]"
        },
        {
          "internalType": "address[]",
          "name": "_referrers",
          "type": "address[]"
        },
        {
          "internalType": "address[]",
          "name": "_keyManagers",
          "type": "address[]"
        },
        {
          "internalType": "bytes[]",
          "name": "_data",
          "type": "bytes[]"
        }
      ],
      "name": "purchase",
      "outputs": [
        {
          "internalType": "uint256[]",
          "name": "",
          "type": "uint256[]"
        }
      ],
      "stateMutability": "payable",
      "type": "function"
    },
    {
      "inputs": [
        {
          "components": [
            {
              "internalType": "uint256",
              "name": "value",
              "type": "uint256"
            },
            {
              "internalType": "address",
              "name": "recipient",
              "type": "address"
            },
            {
              "internalType": "address",
              "name": "referrer",
              "type": "address"
            },
            {
              "internalType": "address",
              "name": "protocolReferrer",
              "type": "address"
            },
            {
              "internalType": "address",
              "name": "keyManager",
              "type": "address"
            },
            {
              "internalType": "bytes",
              "name": "data",
              "type": "bytes"
            },
            {
              "internalType": "uint256",
              "name": "additionalPeriods",
              "type": "uint256"
            }
          ],
          "internalType": "struct MixinPurchase.PurchaseArgs[]",
          "name": "purchaseArgs",
          "type": "tuple[]"
        }
      ],
      "name": "purchase",
      "outputs": [
        {
          "internalType": "uint256[]",
          "name": "",
          "type": "uint256[]"
        }
      ],
      "stateMutability": "payable",
      "type": "function"
    },
    {
      "inputs": [
        {
          "internalType": "address",
          "name": "_recipient",
          "type": "address"
        },
        {
          "internalType": "address",
          "name": "_referrer",
          "type": "address"
        },
        {
          "internalType": "bytes",
          "name": "_data",
          "type": "bytes"
        }
      ],
      "name": "purchasePriceFor",
      "outputs": [
        {
          "internalType": "uint256",
          "name": "minKeyPrice",
          "type": "uint256"
        }
      ],
      "stateMutability": "view",
      "type": "function"
    },
    {
      "inputs": [
        {
          "internalType": "address",
          "name": "",
          "type": "address"
        }
      ],
      "name": "referrerFees",
      "outputs": [
        {
          "internalType": "uint256",
          "name": "",
          "type": "uint256"
        }
      ],
      "stateMutability": "view",
      "type": "function"
    },
    {
      "inputs": [],
      "name": "refundPenaltyBasisPoints",
      "outputs": [
        {
          "internalType": "uint256",
          "name": "",
          "type": "uint256"
        }
      ],
      "stateMutability": "view",
      "type": "function"
    },
    {
      "inputs": [
        {
          "internalType": "uint256",
          "name": "_tokenId",
          "type": "uint256"
        },
        {
          "internalType": "address",
          "name": "_referrer",
          "type": "address"
        }
      ],
      "name": "renewMembershipFor",
      "outputs": [],
      "stateMutability": "nonpayable",
      "type": "function"
    },
    {
      "inputs": [],
      "name": "renounceLockManager",
      "outputs": [],
      "stateMutability": "nonpayable",
      "type": "function"
    },
    {
      "inputs": [
        {
          "internalType": "bytes32",
          "name": "role",
          "type": "bytes32"
        },
        {
          "internalType": "address",
          "name": "account",
          "type": "address"
        }
      ],
      "name": "renounceRole",
      "outputs": [],
      "stateMutability": "nonpayable",
      "type": "function"
    },
    {
      "inputs": [
        {
          "internalType": "bytes32",
          "name": "role",
          "type": "bytes32"
        },
        {
          "internalType": "address",
          "name": "account",
          "type": "address"
        }
      ],
      "name": "revokeRole",
      "outputs": [],
      "stateMutability": "nonpayable",
      "type": "function"
    },
    {
      "inputs": [
        {
          "internalType": "address",
          "name": "_from",
          "type": "address"
        },
        {
          "internalType": "address",
          "name": "_to",
          "type": "address"
        },
        {
          "internalType": "uint256",
          "name": "_tokenId",
          "type": "uint256"
        }
      ],
      "name": "safeTransferFrom",
      "outputs": [],
      "stateMutability": "nonpayable",
      "type": "function"
    },
    {
      "inputs": [
        {
          "internalType": "address",
          "name": "_from",
          "type": "address"
        },
        {
          "internalType": "address",
          "name": "_to",
          "type": "address"
        },
        {
          "internalType": "uint256",
          "name": "_tokenId",
          "type": "uint256"
        },
        {
          "internalType": "bytes",
          "name": "_data",
          "type": "bytes"
        }
      ],
      "name": "safeTransferFrom",
      "outputs": [],
      "stateMutability": "nonpayable",
      "type": "function"
    },
    {
      "inputs": [
        {
          "internalType": "address",
          "name": "_onKeyPurchaseHook",
          "type": "address"
        },
        {
          "internalType": "address",
          "name": "_onKeyCancelHook",
          "type": "address"
        },
        {
          "internalType": "address",
          "name": "_onValidKeyHook",
          "type": "address"
        },
        {
          "internalType": "address",
          "name": "_onTokenURIHook",
          "type": "address"
        },
        {
          "internalType": "address",
          "name": "_onKeyTransferHook",
          "type": "address"
        },
        {
          "internalType": "address",
          "name": "_onKeyExtendHook",
          "type": "address"
        },
        {
          "internalType": "address",
          "name": "_onKeyGrantHook",
          "type": "address"
        },
        {
          "internalType": "address",
          "name": "_onHasRoleHook",
          "type": "address"
        }
      ],
      "name": "setEventHooks",
      "outputs": [],
      "stateMutability": "nonpayable",
      "type": "function"
    },
    {
      "inputs": [
        {
          "internalType": "uint256",
          "name": "_refundValue",
          "type": "uint256"
        }
      ],
      "name": "setGasRefundValue",
      "outputs": [],
      "stateMutability": "nonpayable",
      "type": "function"
    },
    {
      "inputs": [
        {
          "internalType": "uint256",
          "name": "_tokenId",
          "type": "uint256"
        },
        {
          "internalType": "uint256",
          "name": "_newExpiration",
          "type": "uint256"
        }
      ],
      "name": "setKeyExpiration",
      "outputs": [],
      "stateMutability": "nonpayable",
      "type": "function"
    },
    {
      "inputs": [
        {
          "internalType": "uint256",
          "name": "_tokenId",
          "type": "uint256"
        },
        {
          "internalType": "address",
          "name": "_keyManager",
          "type": "address"
        }
      ],
      "name": "setKeyManagerOf",
      "outputs": [],
      "stateMutability": "nonpayable",
      "type": "function"
    },
    {
      "inputs": [
        {
          "internalType": "string",
          "name": "_lockName",
          "type": "string"
        },
        {
          "internalType": "string",
          "name": "_lockSymbol",
          "type": "string"
        },
        {
          "internalType": "string",
          "name": "_baseTokenURI",
          "type": "string"
        }
      ],
      "name": "setLockMetadata",
      "outputs": [],
      "stateMutability": "nonpayable",
      "type": "function"
    },
    {
      "inputs": [
        {
          "internalType": "address",
          "name": "account",
          "type": "address"
        }
      ],
      "name": "setOwner",
      "outputs": [],
      "stateMutability": "nonpayable",
      "type": "function"
    },
    {
      "inputs": [
        {
          "internalType": "address",
          "name": "_referrer",
          "type": "address"
        },
        {
          "internalType": "uint256",
          "name": "_feeBasisPoint",
          "type": "uint256"
        }
      ],
      "name": "setReferrerFee",
      "outputs": [],
      "stateMutability": "nonpayable",
      "type": "function"
    },
    {
      "inputs": [
        {
          "internalType": "address",
          "name": "_to",
          "type": "address"
        },
        {
          "internalType": "uint256",
          "name": "_tokenIdFrom",
          "type": "uint256"
        },
        {
          "internalType": "uint256",
          "name": "_timeShared",
          "type": "uint256"
        }
      ],
      "name": "shareKey",
      "outputs": [],
      "stateMutability": "nonpayable",
      "type": "function"
    },
    {
      "inputs": [
        {
          "internalType": "bytes4",
          "name": "interfaceId",
          "type": "bytes4"
        }
      ],
      "name": "supportsInterface",
      "outputs": [
        {
          "internalType": "bool",
          "name": "",
          "type": "bool"
        }
      ],
      "stateMutability": "view",
      "type": "function"
    },
    {
      "inputs": [],
      "name": "symbol",
      "outputs": [
        {
          "internalType": "string",
          "name": "",
          "type": "string"
        }
      ],
      "stateMutability": "view",
      "type": "function"
    },
    {
      "inputs": [],
      "name": "tokenAddress",
      "outputs": [
        {
          "internalType": "address",
          "name": "",
          "type": "address"
        }
      ],
      "stateMutability": "view",
      "type": "function"
    },
    {
      "inputs": [
        {
          "internalType": "uint256",
          "name": "_index",
          "type": "uint256"
        }
      ],
      "name": "tokenByIndex",
      "outputs": [
        {
          "internalType": "uint256",
          "name": "",
          "type": "uint256"
        }
      ],
      "stateMutability": "view",
      "type": "function"
    },
    {
      "inputs": [
        {
          "internalType": "address",
          "name": "_keyOwner",
          "type": "address"
        },
        {
          "internalType": "uint256",
          "name": "_index",
          "type": "uint256"
        }
      ],
      "name": "tokenOfOwnerByIndex",
      "outputs": [
        {
          "internalType": "uint256",
          "name": "",
          "type": "uint256"
        }
      ],
      "stateMutability": "view",
      "type": "function"
    },
    {
      "inputs": [
        {
          "internalType": "uint256",
          "name": "_tokenId",
          "type": "uint256"
        }
      ],
      "name": "tokenURI",
      "outputs": [
        {
          "internalType": "string",
          "name": "",
          "type": "string"
        }
      ],
      "stateMutability": "view",
      "type": "function"
    },
    {
      "inputs": [
        {
          "internalType": "address",
          "name": "_keyOwner",
          "type": "address"
        }
      ],
      "name": "totalKeys",
      "outputs": [
        {
          "internalType": "uint256",
          "name": "",
          "type": "uint256"
        }
      ],
      "stateMutability": "view",
      "type": "function"
    },
    {
      "inputs": [],
      "name": "totalSupply",
      "outputs": [
        {
          "internalType": "uint256",
          "name": "_totalKeysCreated",
          "type": "uint256"
        }
      ],
      "stateMutability": "view",
      "type": "function"
    },
    {
      "inputs": [],
      "name": "transferFeeBasisPoints",
      "outputs": [
        {
          "internalType": "uint256",
          "name": "",
          "type": "uint256"
        }
      ],
      "stateMutability": "view",
      "type": "function"
    },
    {
      "inputs": [
        {
          "internalType": "address",
          "name": "_from",
          "type": "address"
        },
        {
          "internalType": "address",
          "name": "_recipient",
          "type": "address"
        },
        {
          "internalType": "uint256",
          "name": "_tokenId",
          "type": "uint256"
        }
      ],
      "name": "transferFrom",
      "outputs": [],
      "stateMutability": "nonpayable",
      "type": "function"
    },
    {
      "inputs": [
        {
          "internalType": "address",
          "name": "_recipient",
          "type": "address"
        },
        {
          "internalType": "uint256",
          "name": "_tokenId",
          "type": "uint256"
        }
      ],
      "name": "unlendKey",
      "outputs": [],
      "stateMutability": "nonpayable",
      "type": "function"
    },
    {
      "inputs": [],
      "name": "unlockProtocol",
      "outputs": [
        {
          "internalType": "contract IUnlock",
          "name": "",
          "type": "address"
        }
      ],
      "stateMutability": "view",
      "type": "function"
    },
    {
      "inputs": [
        {
          "internalType": "uint256",
          "name": "_keyPrice",
          "type": "uint256"
        },
        {
          "internalType": "address",
          "name": "_tokenAddress",
          "type": "address"
        }
      ],
      "name": "updateKeyPricing",
      "outputs": [],
      "stateMutability": "nonpayable",
      "type": "function"
    },
    {
      "inputs": [
        {
          "internalType": "uint256",
          "name": "_newExpirationDuration",
          "type": "uint256"
        },
        {
          "internalType": "uint256",
          "name": "_maxNumberOfKeys",
          "type": "uint256"
        },
        {
          "internalType": "uint256",
          "name": "_maxKeysPerAcccount",
          "type": "uint256"
        }
      ],
      "name": "updateLockConfig",
      "outputs": [],
      "stateMutability": "nonpayable",
      "type": "function"
    },
    {
      "inputs": [
        {
          "internalType": "uint256",
          "name": "_freeTrialLength",
          "type": "uint256"
        },
        {
          "internalType": "uint256",
          "name": "_refundPenaltyBasisPoints",
          "type": "uint256"
        }
      ],
      "name": "updateRefundPenalty",
      "outputs": [],
      "stateMutability": "nonpayable",
      "type": "function"
    },
    {
      "inputs": [
        {
          "internalType": "uint256",
          "name": "_transferFeeBasisPoints",
          "type": "uint256"
        }
      ],
      "name": "updateTransferFee",
      "outputs": [],
      "stateMutability": "nonpayable",
      "type": "function"
    },
    {
      "inputs": [
        {
          "internalType": "address",
          "name": "_tokenAddress",
          "type": "address"
        },
        {
          "internalType": "address payable",
          "name": "_recipient",
          "type": "address"
        },
        {
          "internalType": "uint256",
          "name": "_amount",
          "type": "uint256"
        }
      ],
      "name": "withdraw",
      "outputs": [],
      "stateMutability": "nonpayable",
      "type": "function"
    },
    {
      "stateMutability": "payable",
      "type": "receive"
    }
  ],
  "bytecode": "0x608060405234801561000f575f80fd5b50615e6f806200001e5f395ff3fe6080604052600436106103f9575f3560e01c80636eadde4311610210578063a98d362311610121578063d1bbd49c116100af578063d1bbd49c14610c97578063d32bfb6c14610cb2578063d52e4a1014610cd1578063d547741f14610ce6578063d813cc1914610d05578063d9caed1214610d18578063debe2b0d14610d37578063dec0f27814610d56578063f0ba604014610d75578063f12c6b6e14610d89578063f5766b3914610da8575f80fd5b8063a98d362314610b52578063aae4b8f714610b71578063b11d7ec114610b90578063b129694e14610baf578063b1a3b25d14610bcf578063b88d4fde14610bee578063c23135dd14610c0d578063c87b56dd14610c39578063c907c3ec14610c58578063d1b8759b14610c78575f80fd5b806391a6459d1161019e57806391a6459d14610a4457806391d1485414610a6357806392ac98a514610a8257806393fd184414610aa157806395d89b4114610ab7578063982bf09014610acb5780639d76ea5814610aea578063a217fddf14610b0a578063a2e4cd2e14610b1d578063a375cb0514610b3c575f80fd5b80636eadde431461091757806370a082311461093657806374b6c106146109555780637ec2a7241461096b578063812eecd41461098b57806381a3c943146109aa5780638505fe95146109c95780638577a6d5146109e85780638932a90d14610a075780638da5cb5b14610a26575f80fd5b80632f54bf6e1161030a5780634cd38c1d116102985780634cd38c1d146107ce5780634d025fed146107ed5780634f6ccce71461082257806350878a471461084157806354b249fb14610860578063558b71e91461088f57806356e0d51f146108ae5780636207a8da146108c45780636352211e146108d95780636d8ea5b4146108f8575f80fd5b80632f54bf6e146106925780632f745c59146106c157806333818997146106e057806336568abe14610700578063389f07e81461071f57806339f469861461073f578063407dc5891461075e57806342842e0e1461077d57806342966c681461079c5780634609b39b146107bb575f80fd5b806313af40351161038757806313af40351461055d57806318160ddd1461057c578063183767da14610591578063217751bc146105a757806323b872dd146105c7578063248a9ca3146105e657806326e9ca0714610614578063282478df146106345780632d33dd5b146106535780632f2ff15d14610673575f80fd5b806301ffc9a714610404578063068208cd1461043857806306fdde0314610459578063081812fc1461047a578063095ea7b3146104a6578063097ba333146104c55780630c2db8d1146104f25780630f15023b1461051157806310e569731461053157806311a4c03a14610547575f80fd5b3661040057005b5f80fd5b34801561040f575f80fd5b5061042361041e366004614db6565b610dc7565b60405190151581526020015b60405180910390f35b348015610443575f80fd5b50610457610452366004614dd1565b610dd7565b005b348015610464575f80fd5b5061046d610e54565b60405161042f9190614e47565b348015610485575f80fd5b50610499610494366004614e59565b610ee1565b60405161042f9190614e70565b3480156104b1575f80fd5b506104576104c0366004614ea3565b610f07565b3480156104d0575f80fd5b506104e46104df366004614fb1565b610fa1565b60405190815260200161042f565b3480156104fd575f80fd5b5061045761050c36600461500e565b61103f565b34801561051c575f80fd5b50610c8354610499906001600160a01b031681565b34801561053c575f80fd5b506104e4610c855481565b348015610552575f80fd5b506104e4610c845481565b348015610568575f80fd5b5061045761057736600461504c565b611093565b348015610587575f80fd5b50610c87546104e4565b34801561059c575f80fd5b506104e46124075481565b3480156105b2575f80fd5b50610c8a54610499906001600160a01b031681565b3480156105d2575f80fd5b506104576105e136600461500e565b611124565b3480156105f1575f80fd5b506104e4610600366004614e59565b5f9081526097602052604090206001015490565b34801561061f575f80fd5b50610c8b54610499906001600160a01b031681565b34801561063f575f80fd5b5061045761064e366004614dd1565b611154565b34801561065e575f80fd5b50610c8954610499906001600160a01b031681565b34801561067e575f80fd5b5061045761068d366004615067565b6111d4565b34801561069d575f80fd5b506104236106ac36600461504c565b612bda546001600160a01b0390811691161490565b3480156106cc575f80fd5b506104e46106db366004614ea3565b6111f8565b6106f36106ee3660046151c2565b61124a565b60405161042f91906152c9565b34801561070b575f80fd5b5061045761071a366004615067565b611494565b34801561072a575f80fd5b50610c8f54610499906001600160a01b031681565b34801561074a575f80fd5b506104576107593660046152db565b611517565b348015610769575f80fd5b50610457610778366004614ea3565b611565565b348015610788575f80fd5b5061045761079736600461500e565b6115af565b3480156107a7575f80fd5b506104576107b6366004614e59565b6115c9565b6106f36107c93660046152fb565b61161b565b3480156107d9575f80fd5b506104576107e83660046152db565b6118ed565b3480156107f8575f80fd5b50610499610807366004614e59565b6110786020525f90815260409020546001600160a01b031681565b34801561082d575f80fd5b506104e461083c366004614e59565b611950565b34801561084c575f80fd5b5061042361085b366004615067565b611978565b34801561086b575f80fd5b506104e461087a366004614e59565b5f90815261107b602052604090206001015490565b34801561089a575f80fd5b506104576108a93660046152db565b611ac6565b3480156108b9575f80fd5b506104e46127f05481565b3480156108cf575f80fd5b5061201e546104e4565b3480156108e4575f80fd5b506104996108f3366004614e59565b611aea565b348015610903575f80fd5b5061042361091236600461504c565b611b05565b348015610922575f80fd5b50610457610931366004615475565b611ba5565b348015610941575f80fd5b506104e461095036600461504c565b611d1f565b348015610960575f80fd5b506104e4610c865481565b348015610976575f80fd5b50610c8c54610499906001600160a01b031681565b348015610996575f80fd5b506104e46109a536600461504c565b611d5e565b3480156109b5575f80fd5b506106f36109c43660046154f4565b611d79565b3480156109d4575f80fd5b506104576109e3366004615067565b611fe0565b3480156109f3575f80fd5b50610457610a02366004614e59565b612068565b348015610a12575f80fd5b50610457610a21366004615567565b6120a9565b348015610a31575f80fd5b50612bda546001600160a01b0316610499565b348015610a4f575f80fd5b5060c954610499906001600160a01b031681565b348015610a6e575f80fd5b50610423610a7d366004615067565b61211d565b348015610a8d575f80fd5b506104e4610a9c366004614e59565b6121d1565b348015610aac575f80fd5b506104e46110775481565b348015610ac2575f80fd5b5061046d6122bb565b348015610ad6575f80fd5b50610457610ae53660046155a5565b6123de565b348015610af5575f80fd5b506104b154610499906001600160a01b031681565b348015610b15575f80fd5b506104e45f81565b348015610b28575f80fd5b50610457610b37366004615067565b61252e565b348015610b47575f80fd5b506104e46127f15481565b348015610b5d575f80fd5b50610423610b6c366004614e59565b6125bc565b348015610b7c575f80fd5b50610423610b8b36600461504c565b61267c565b348015610b9b575f80fd5b50610457610baa366004615067565b612694565b348015610bba575f80fd5b50610c9154610499906001600160a01b031681565b348015610bda575f80fd5b506104e4610be93660046152db565b6126e2565b348015610bf9575f80fd5b50610457610c08366004615649565b612757565b348015610c18575f80fd5b506104e4610c2736600461504c565b6120236020525f908152604090205481565b348015610c44575f80fd5b5061046d610c53366004614e59565b612791565b348015610c63575f80fd5b50610c9054610499906001600160a01b031681565b348015610c83575f80fd5b50610457610c923660046156b0565b612a2d565b348015610ca2575f80fd5b50604051600f815260200161042f565b348015610cbd575f80fd5b50610457610ccc366004614e59565b612aab565b348015610cdc575f80fd5b50610c8e546104e4565b348015610cf1575f80fd5b50610457610d00366004615067565b612adc565b610457610d13366004615730565b612b00565b348015610d23575f80fd5b50610457610d3236600461500e565b612ba3565b348015610d42575f80fd5b50610457610d51366004614ea3565b612cd4565b348015610d61575f80fd5b50610457610d703660046152db565b612d35565b348015610d80575f80fd5b50610457612d47565b348015610d94575f80fd5b50610457610da3366004615794565b612d60565b348015610db3575f80fd5b50610457610dc2366004614e59565b612f23565b5f610dd182612f67565b92915050565b610de083612f71565b610de983612fa2565b610df283612fc8565b610dfb82612f71565b5f83815261107b6020526040902060010154610e189042906157da565b811115610e38576040516310e88eed60e31b815260040160405180910390fd5b610e4383825f613026565b610e4f82826001613026565b505050565b6114638054610e62906157ed565b80601f0160208091040260200160405190810160405280929190818152602001828054610e8e906157ed565b8015610ed95780601f10610eb057610100808354040283529160200191610ed9565b820191905f5260205f20905b815481529060010190602001808311610ebc57829003601f168201915b505050505081565b5f610eeb82612f71565b505f90815261107960205260409020546001600160a01b031690565b610f1081612fc8565b6001600160a01b0382163303610f3957604051637899146560e11b815260040160405180910390fd5b5f8181526110796020908152604080832080546001600160a01b0319166001600160a01b03878116918217909255611076909352818420549151859492909116917f8c5be1e5ebec7d5bd14f71427d1e84f3dd0314c0f7b2291e5b200ac8c7c3b92591a45050565b610c89545f906001600160a01b03161561103257610c895460405163221c1fd160e01b81526001600160a01b039091169063221c1fd190610fec90339088908890889060040161581f565b602060405180830381865afa158015611007573d5f803e3d5ffd5b505050506040513d601f19601f8201168201806040525081019061102b919061585c565b9050611038565b50610c85545b9392505050565b61104981336130a3565b6110665760405163075fd2b160e01b815260040160405180910390fd5b611071838383613118565b5f9081526110786020526040902080546001600160a01b031916331790555050565b61109b6132e9565b6001600160a01b0381166110c2576040516330c6e09f60e21b815260040160405180910390fd5b612bda80546001600160a01b038381166001600160a01b031983168117909355604080519190921680825260208201939093527f8be0079c531659141344cd1fd0a4f28419497f9722a3daafe3b4186f6b6457e0910160405180910390a15050565b61112d81612fc8565b5f8181526110786020526040902080546001600160a01b0319169055610e4f838383613118565b61115c6132e9565b805f0361117c5760405163e03b033d60e01b815260040160405180910390fd5b610c8e819055610c84839055610c8682905560408051848152602081018490529081018290527f9a09448a3f24d3a01ccc67103c7cddbeea820176a18182cc83d0bce585f26a5b9060600160405180910390a1505050565b5f828152609760205260409020600101546111ee8161331d565b610e4f8383613327565b5f61120283611d5e565b821061122157604051630471175760e11b815260040160405180910390fd5b506001600160a01b03919091165f90815261107c60209081526040808320938352929052205490565b60608451865114158061125f57508351865114155b1561127d576040516376b3b52560e11b815260040160405180910390fd5b5f86516001600160401b0381111561129757611297614ecd565b6040519080825280602002602001820160405280156112fb57816020015b6040805160e0810182525f808252602080830182905292820181905260608083018290526080830182905260a083015260c082015282525f199092019101816112b55790505b5090505f5b875181101561147e576040805160e081019091526104b15481906001600160a01b031661132d575f611348565b8a838151811061133f5761133f615873565b60200260200101515b815260200189838151811061135f5761135f615873565b60200260200101516001600160a01b0316815260200188838151811061138757611387615873565b60200260200101516001600160a01b031681526020018883815181106113af576113af615873565b60200260200101516001600160a01b031681526020018783815181106113d7576113d7615873565b60200260200101516001600160a01b031681526020018686848181106113ff576113ff615873565b90506020028101906114119190615887565b8080601f0160208091040260200160405190810160405280939291908181526020018383808284375f920182905250938552505050602090910152825183908390811061146057611460615873565b60200260200101819052508080611476906158c9565b915050611300565b506114888161161b565b98975050505050505050565b6001600160a01b03811633146115095760405162461bcd60e51b815260206004820152602f60248201527f416363657373436f6e74726f6c3a2063616e206f6e6c792072656e6f756e636560448201526e103937b632b9903337b91039b2b63360891b60648201526084015b60405180910390fd5b61151382826133ac565b5050565b61151f6132e9565b60408051838152602081018390527fd6867bc538320e67d7bdc35860c27c08486eb490b4fd9b820fff18fb28381d3c910160405180910390a16127f1919091556127f055565b5f81815261107860205260409020546001600160a01b0316331461159c5760405163075fd2b160e01b815260040160405180910390fd5b6115136115a882611aea565b8383613118565b610e4f83838360405180602001604052805f815250612757565b6115d281612f71565b6115db81612fc8565b6115ee6115e782611aea565b5f83613118565b610c878054905f6115fe836158e1565b909155505061107f8054905f611613836158c9565b919050555050565b60606116278251613412565b5f8083516001600160401b0381111561164257611642614ecd565b60405190808252806020026020018201604052801561166b578160200160208202803683370190505b5090505f805b8551811015611845575f8061173788848151811061169157611691615873565b60200260200101515f01518985815181106116ae576116ae615873565b6020026020010151602001518a86815181106116cc576116cc615873565b6020026020010151608001518b87815181106116ea576116ea615873565b6020026020010151604001518c888151811061170857611708615873565b6020026020010151606001518d898151811061172657611726615873565b602002602001015160a0015161344c565b909250905061174681876158f6565b95508185848151811061175b5761175b615873565b60200260200101818152505087838151811061177957611779615873565b602002602001015160c001518461179091906158f6565b93505f5b8884815181106117a6576117a6615873565b602002602001015160c0015181101561182f576117c3835f613554565b506117ce82886158f6565b96506117f7828a86815181106117e6576117e6615873565b6020026020010151606001516136ab565b61181d89858151811061180c5761180c615873565b60200260200101516040015161377b565b80611827816158c9565b915050611794565b505050808061183d906158c9565b915050611671565b5084516104b1546040517f11b468ecf06bc0fc24b28943bae35c968062beaa93da530a0916484cab5fd2449261188e928692869133916001600160a01b03909116908a90615909565b60405180910390a16118a0338461386b565b6118a983613913565b6118b1613a04565b5f5b85518110156118e3576118d186828151811061180c5761180c615873565b806118db816158c9565b9150506118b3565b5090949350505050565b6118f5613a78565b6118fe82612f71565b6119155f80516020615dba8339815191523361211d565b15801561192857506119263361267c565b155b1561194657604051631798fedb60e01b815260040160405180910390fd5b610e4f8282613554565b5f610c8754821061197457604051630471175760e11b815260040160405180910390fd5b5090565b5f82815261202060205260408120545f19148061199f57506104b1546001600160a01b0316155b156119bd57604051636cd40e1160e11b815260040160405180910390fd5b6119de6119c984611aea565b8360405180602001604052805f815250610fa1565b5f84815261201f60205260409020541080611a095750610c84545f8481526120206020526040902054115b80611a3257506104b1545f84815261202160205260409020546001600160a01b03908116911614155b15611a505760405163986739e760e01b815260040160405180910390fd5b5f612710610c8454612328611a65919061594e565b611a6f9190615965565b610c84545f86815261107b6020526040902060010154611a8f91906157da565b611a9991906158f6565b905080421015611abc576040516360d8ec3360e11b815260040160405180910390fd5b5060019392505050565b611acf82612f71565b611ad882612fa2565b611ae06132e9565b6115138282613a9c565b5f90815261107660205260409020546001600160a01b031690565b5f80611b1083611d1f565b610c8b54911091506001600160a01b031615611ba057610c8b5460405163084fdbc760e31b81526001600160a01b039091169063427ede3890611b6190309033905f90819089908990600401615984565b602060405180830381865afa158015611b7c573d5f803e3d5ffd5b505050506040513d601f19601f82011682018060405250810190610dd191906159bf565b919050565b5f54610100900460ff1615808015611bc357505f54600160ff909116105b80611be35750611bd230613ba1565b158015611be357505f5460ff166001145b611c465760405162461bcd60e51b815260206004820152602e60248201527f496e697469616c697a61626c653a20636f6e747261637420697320616c72656160448201526d191e481a5b9a5d1a585b1a5e995960921b6064820152608401611500565b5f805460ff191660011790558015611c67575f805461ff0019166101001790555b611c7086613bb0565b611c7c88888787613bdc565b611c868383613c1d565b611c8e613c44565b611c9a6103e86127f055565b611ca388613c54565b612bda80546001600160a01b0319166001600160a01b038a16179055611ccf6380ac58cd60e01b613ce5565b8015611d15575f805461ff0019169055604051600181527f7f26b83ff96e1f2b6a682f133852f6798a09c465da95921460cefb3847402498906020015b60405180910390a15b5050505050505050565b5f80611d2a83611d5e565b90505f5b81811015611d5757611d43610b6c85836111f8565b15611d4f576001909201915b600101611d2e565b5050919050565b6001600160a01b03165f90815261107e602052604090205490565b6060611d83613a78565b611d9a5f80516020615dba8339815191523361211d565b158015611dad5750611dab3361267c565b155b15611dcb57604051631798fedb60e01b815260040160405180910390fd5b5f866001600160401b03811115611de457611de4614ecd565b604051908082528060200260200182016040528015611e0d578160200160208202803683370190505b5090505f5b87811015611fd457611e89898983818110611e2f57611e2f615873565b9050602002016020810190611e44919061504c565b868684818110611e5657611e56615873565b9050602002016020810190611e6b919061504c565b898985818110611e7d57611e7d615873565b90506020020135613d63565b828281518110611e9b57611e9b615873565b6020908102919091010152610c91546001600160a01b031615611fc257610c915482516001600160a01b03909116906348a254b890849084908110611ee257611ee2615873565b6020026020010151338c8c86818110611efd57611efd615873565b9050602002016020810190611f12919061504c565b898987818110611f2457611f24615873565b9050602002016020810190611f39919061504c565b8c8c88818110611f4b57611f4b615873565b6040516001600160e01b031960e08a901b16815260048101979097526001600160a01b039586166024880152938516604487015250921660648401526020020135608482015260a4015f604051808303815f87803b158015611fab575f80fd5b505af1158015611fbd573d5f803e3d5ffd5b505050505b80611fcc816158c9565b915050611e12565b50979650505050505050565b611fe8613a78565b611ff182612f71565b5f82815261202260205260408120546001600160a01b03161561202b575f83815261202260205260409020546001600160a01b031661202d565b815b90506120398382611978565b50612044835f613554565b50610e4f8361205285611aea565b5f86815261201f60205260409020548490613e40565b6120706132e9565b6040518181527f0496ed1e61eb69727f9659a8e859288db4758ffb1f744d1c1424634f90a257f49060200160405180910390a161240755565b6120b56001600f6159de565b61ffff16610c8d5414806120ca5750610c8d54155b6121135760405162461bcd60e51b815260206004820152601a60248201527914d0d211535057d5915494d253d397d393d517d0d3d4949150d560321b6044820152606401611500565b5050600f610c8d55565b5f8281526097602090815260408083206001600160a01b038581168552925282205460c95460ff9091169116156110385760c954604051632c02f5ad60e01b8152600481018690526001600160a01b038581166024830152831515604483015290911690632c02f5ad90606401602060405180830381865afa1580156121a5573d5f803e3d5ffd5b505050506040513d601f19601f820116820180604052508101906121c991906159bf565b915050610dd1565b5f6121db82612fa2565b5f19610c8454036121ef575050610c855490565b5f82815261107b602052604081206001015461220c9042906157da565b9050610c84546127f1548261222191906158f6565b1061223157610c85549150612251565b610c845481610c8554612244919061594e565b61224e9190615965565b91505b6127f15415806122705750610c84546127f15461226e90836158f6565b105b156122b5575f6127106127f054610c855461228b919061594e565b6122959190615965565b9050808311156122b0576122a981846157da565b9250611d57565b5f9250505b50919050565b606061146480546122cb906157ed565b90505f0361234f57610c835f9054906101000a90046001600160a01b03166001600160a01b031663cec410526040518163ffffffff1660e01b81526004015f60405180830381865afa158015612323573d5f803e3d5ffd5b505050506040513d5f823e601f3d908101601f1916820160405261234a91908101906159f9565b905090565b611464805461235d906157ed565b80601f0160208091040260200160405190810160405280929190818152602001828054612389906157ed565b80156123d45780601f106123ab576101008083540402835291602001916123d4565b820191905f5260205f20905b8154815290600101906020018083116123b757829003601f168201915b5050505050905090565b6123e66132e9565b6123f0885f613efe565b6123fb876001613efe565b612406866002613efe565b612411856003613efe565b61241c846004613efe565b612427836005613efe565b612432826006613efe565b61243d816007613efe565b610c8980546001600160a01b038a81166001600160a01b03199283168117909355610c8a80548b83169084168117909155610c8c80548a84169085168117909155610c8b80548c85169086168117909155610c8f80548b86169087168117909155610c9080548b87169088168117909155610c9180548b8816908916811790915560c98054978b16979098168717909755604080519889526020890195909552938701919091526060860191909152608085015260a084015260c083019190915260e08201527f4a21a825c2b28d7dd6702a5068282d441d7b7cb48622e5f6c9413f66e0aed1329061010001611d0c565b6125366132e9565b61253f81613f48565b610c8580546104b18054928590556001600160a01b031983166001600160a01b0385811691821790925560408051848152602081018890529290941693820184905260608201529091907f3615065ccf48367ac483ac86701248e2e5ff55bdd9be845007d34a3b68d719d49060800160405180910390a150505050565b5f81815261107b6020526040812060010154610c8b5442909111906001600160a01b031615610dd157610c8b545f84815261107b60209081526040808320600101546110769092529182902054915163084fdbc760e31b81526001600160a01b039384169363427ede389361263d93309333938b9316908990600401615984565b602060405180830381865afa158015612658573d5f803e3d5ffd5b505050506040513d601f19601f8201168201806040525081019061103891906159bf565b5f610dd15f80516020615e1a8339815191528361211d565b61269d82612f71565b6126a782336130a3565b1580156126ba57506126b83361267c565b155b156126d85760405163866c2fa760e01b815260040160405180910390fd5b6115138282613fdc565b5f6126ec83612f71565b5f83815261107b60205260409020600101544281101561270f575f915050610dd1565b5f835f036127285761272142836157da565b905061272b565b50825b612710612407548261273d919061594e565b6127479190615965565b92505050610dd1565b5092915050565b612762848484611124565b61276e84848484614066565b61278b576040516303f8ea1560e41b815260040160405180910390fd5b50505050565b606080805f61279f30614118565b9050606085156127b9576127b28661412e565b92506127cb565b60405180602001604052805f81525092505b610c8c546001600160a01b03161561289d575f86815261107b6020526040902060010154610c8c546001600160a01b031663988b93ad303361280c8b611aea565b60405160e085901b6001600160e01b03191681526001600160a01b03938416600482015291831660248301529091166044820152606481018a90526084810184905260a4015f60405180830381865afa15801561286b573d5f803e3d5ffd5b505050506040513d5f823e601f3d908101601f1916820160405261289291908101906159f9565b979650505050505050565b61146580546128ab906157ed565b90505f0361294d57610c835f9054906101000a90046001600160a01b03166001600160a01b031663a998e9fb6040518163ffffffff1660e01b81526004015f60405180830381865afa158015612903573d5f803e3d5ffd5b505050506040513d5f823e601f3d908101601f1916820160405261292a91908101906159f9565b9350604051806040016040528060018152602001602f60f81b81525090506129fc565b611465805461295b906157ed565b80601f0160208091040260200160405190810160405280929190818152602001828054612987906157ed565b80156129d25780601f106129a9576101008083540402835291602001916129d2565b820191905f5260205f20905b8154815290600101906020018083116129b557829003601f168201915b5050505050935060405180602001604052805f815250905060405180602001604052805f81525091505b83828285604051602001612a139493929190615a6a565b604051602081830303815290604052945050505050919050565b612a356132e9565b611463612a43868883615b05565b50611464612a52848683615b05565b50611465612a61828483615b05565b507f1e6d6a19e45ae156dcf4155bc83cf8f59e98d536000998f0e95f4cd330ecfb3e611463611464611465604051612a9b93929190615c38565b60405180910390a1505050505050565b612ab481612f71565b612abd81612fa2565b612ac681612fc8565b5f612ad0826121d1565b90506115138282613a9c565b5f82815260976020526040902060010154612af68161331d565b610e4f83836133ac565b612b08613a78565b612b1184612f71565b612b1b845f613554565b505f612b65612b2986611aea565b8585858080601f0160208091040260200160405190810160405280939291908181526020018383808284375f92019190915250610fa192505050565b6104b1549091506001600160a01b031615612b8457612b8486826141bd565b612b8f8582866141de565b612b9b85338684613e40565b505050505050565b612bab6132e9565b5f6001600160a01b038416612bc1575047612c2f565b6040516370a0823160e01b81526001600160a01b038516906370a0823190612bed903090600401614e70565b602060405180830381865afa158015612c08573d5f803e3d5ffd5b505050506040513d601f19601f82011682018060405250810190612c2c919061585c565b90505b5f821580612c3c57508183115b15612c68575f8211612c61576040516303e09bb960e31b815260040160405180910390fd5b5080612c6b565b50815b836001600160a01b0316856001600160a01b0316336001600160a01b03167f342e7ff505a8a0364cd0dc2ff195c315e43bce86b204846ecd36913e117b109e84604051612cba91815260200190565b60405180910390a4612ccd85858361423f565b5050505050565b612cdc6132e9565b6001600160a01b0382165f818152612023602052604090819020839055517fa027572bb55de556a0df93bd38c3871aaf311245c2cd34f0da045aa33a66dbc590612d299084815260200190565b60405180910390a25050565b612d3d6132e9565b611513828261427b565b612d5e5f80516020615e1a83398151915233611494565b565b612d68613a78565b610c8754610c865411612d8e576040516331af695160e01b815260040160405180910390fd5b612d9782612fc8565b612da082612fa2565b612da86142d4565b5f82815261107660205260408120546001600160a01b0316908042612ddc865f90815261107b602052604090206001015490565b612de691906157da565b90505f612df23361267c565b612e0557612e0086866126e2565b612e07565b5f5b90505f612e1482876158f6565b905082811015612e3157859350612e2c87825f613026565b612e9c565b612e3a3361267c565b612e4d57612e4887876126e2565b612e4f565b5f5b9150612e5b82846157da565b5f88815261107b6020526040808220426001909101555191955088917f59f2fe866dd27a1c2d34115520888c3150365cbc931aab97fa88c4b9ab40b7959190a25b5f612eb18982612eac88426158f6565b613d63565b905080896001600160a01b0316876001600160a01b03165f80516020615dfa83398151915260405160405180910390a4612efb868a8360405180602001604052805f815250614066565b612f18576040516303f8ea1560e41b815260040160405180910390fd5b505050505050505050565b612f2b6132e9565b61201e8190556040518181527f4d816c1058de34c4241ba72c371fb3f2ea05147691b364f04d16bc967ae68a119060200160405180910390a150565b5f610dd18261430d565b5f81815261107b60205260408120549003612f9f576040516378fe247360e01b815260040160405180910390fd5b50565b612fab816125bc565b612f9f576040516306cfa7d760e11b815260040160405180910390fd5b612fd13361267c565b158015612fe55750612fe381336130a3565b155b801561300857505f81815261107960205260409020546001600160a01b03163314155b15612f9f5760405163e17c6d4560e01b815260040160405180910390fd5b61302f83612f71565b5f83815261107b602052604081206001015490821561308c575f19820361306957604051630471175760e11b815260040160405180910390fd5b428211156130825761307b84836158f6565b9050613099565b61307b84426158f6565b61309684836157da565b90505b612ccd858261427b565b5f82815261107860205260408120546001600160a01b03838116911614806131045750816001600160a01b03166130d984611aea565b6001600160a01b031614801561310457505f83815261107860205260409020546001600160a01b0316155b1561311157506001610dd1565b505f610dd1565b61312181612fa2565b6131296142d4565b826001600160a01b031661313c82611aea565b6001600160a01b0316146131635760405163075fd2b160e01b815260040160405180910390fd5b816001600160a01b0316836001600160a01b03160361319557604051633fbd1a4960e01b815260040160405180910390fd5b6131bd816131a23361267c565b6131b5576131b0835f6126e2565b6131b7565b5f5b5f613026565b5f81815261107b602052604090206131d483611d5e565b1580156131e957506001600160a01b03831615155b15613204576110778054905f6131fe836158c9565b91905055505b61320d82614317565b613217828461440c565b613220826144b6565b61322b825f806141de565b81836001600160a01b0316856001600160a01b03165f80516020615dfa83398151915260405160405180910390a4610c8f546001600160a01b03161561278b57610c8f5460018201546040516375b37aef60e01b8152306004820152602481018590523360448201526001600160a01b038781166064830152868116608483015260a48201929092529116906375b37aef9060c4015f604051808303815f87803b1580156132d7575f80fd5b505af1158015611d15573d5f803e3d5ffd5b6133005f80516020615e1a8339815191523361211d565b612d5e57604051632386d63160e21b815260040160405180910390fd5b612f9f81336144f1565b613331828261211d565b611513575f8281526097602090815260408083206001600160a01b03851684529091529020805460ff191660011790556133683390565b6001600160a01b0316816001600160a01b0316837f2f8788117e7eff1d82e926ec794901d17c78024a50270940304540a733656f0d60405160405180910390a45050565b6133b6828261211d565b15611513575f8281526097602090815260408083206001600160a01b0385168085529252808320805460ff1916905551339285917ff6391f5c32d9c69d2a47ea670b442974b53935d1edc7fd64eb21e047a839171b9190a45050565b61341a613a78565b610c865481610c875461342d91906158f6565b1115612f9f576040516331af695160e01b815260040160405180910390fd5b5f8061347387875f19610c84541461346c57610c8454612eac90426158f6565b5f19613d63565b9150613480878685610fa1565b905061348d8282876141de565b6104b1546001600160a01b0316156134a9576134a988826141bd565b6134b381856136ab565b610c89546001600160a01b03161561354957610c89546104b1546001600160a01b0391821691635e895f2991859133918c918b918a91899116156134f7578f6134f9565b345b6040518863ffffffff1660e01b815260040161351b9796959493929190615c70565b5f604051808303815f87803b158015613532575f80fd5b505af1158015613544573d5f803e3d5ffd5b505050505b965096945050505050565b5f82815261107b6020526040812060019081015490810161358857604051630fed19c160e11b815260040160405180910390fd5b5f8315613595578361359a565b610c84545b90505f1981036135ad575f1992506135d3565b428211156135c6576135bf81836158f6565b92506135d3565b6135d081426158f6565b92505b5f85815261107b6020526040908190206001018490555185907f3ca112768ff7861e008ace1c11570c52e404c043e585545b5957a1e20961dde39061361b9086815260200190565b60405180910390a2610c90546001600160a01b0316156136a357610c90546040516202d72d60e71b81526004810187905233602482015260448101859052606481018490526001600160a01b039091169063016b9680906084015f604051808303815f87803b15801561368c575f80fd5b505af115801561369e573d5f803e3d5ffd5b505050505b505092915050565b610c83546001600160a01b03163b1561375057610c835460405163939d9f1f60e01b8152600481018490526001600160a01b0383811660248301529091169063939d9f1f90620493e0906044015f604051808303815f88803b15801561370f575f80fd5b5087f193505050508015613721575060015b61151357610c835460405130915f80516020615dda83398151915291612d29916001600160a01b031690614e70565b610c835460405130915f80516020615dda83398151915291612d29916001600160a01b031690614e70565b6001600160a01b03811615612f9f576120236020527f7d36fb299e69498e4f50f1259e26de1410e0af62fd4a40ccabb60b72a53a9c87546001600160a01b0382165f9081526040902054156137e557506001600160a01b0381165f90815261202360205260409020545b8015611513575f61271082610c85546137fe919061594e565b6138089190615965565b6104b1546040519192507f7b738c16aedc7a7aa4707eff83812b3bac54bd9e9a5acc8d019203de206349889161384b916001600160a01b03169086908590615cbf565b60405180910390a16104b154610e4f906001600160a01b0316848361423f565b6104b1546001600160a01b0316156138f2576104b1546040516323b872dd60e01b81526001600160a01b03909116906323b872dd906138b290859030908690600401615cbf565b6020604051808303815f875af11580156138ce573d5f803e3d5ffd5b505050506040513d601f19601f82011682018060405250810190610e4f91906159bf565b80341015611513576040516306c3cddf60e41b815260040160405180910390fd5b610c83545f906001600160a01b03163b1561151357610c835f9054906101000a90046001600160a01b03166001600160a01b031663b0e21e8a6040518163ffffffff1660e01b8152600401602060405180830381865afa925050508015613997575060408051601f3d908101601f191682019092526139949181019061585c565b60015b6139c657610c835460405130915f80516020615dda83398151915291612d29916001600160a01b031690614e70565b6127106139d3828561594e565b6139dd9190615965565b91508115610e4f576104b154610c8354610e4f916001600160a01b0390811691168461423f565b61201e5415612d5e576104b15461201e54613a2a916001600160a01b031690339061423f565b61201e546104b154604080519283526001600160a01b03909116602083015233917f522a883b471164223f18b50f326da8671372b64b4792eac0e63d447e714c3e3b910160405180910390a2565b610c8d54600f14612d5e576040516302eae03b60e61b815260040160405180910390fd5b5f613aa683611aea565b9050613ab18361454a565b336001600160a01b0316816001600160a01b0316847f0a7068a9989857441c039a14a42b67ed71dd1fcfe5a9b17cc87b252e47bce52885604051613af791815260200190565b60405180910390a48115613b1d576104b154613b1d906001600160a01b0316828461423f565b613b28835f806141de565b610c8a546001600160a01b031615610e4f57610c8a5460405163b499b6c560e01b81526001600160a01b039091169063b499b6c590613b6f90339085908790600401615cbf565b5f604051808303815f87803b158015613b86575f80fd5b505af1158015613b98573d5f803e3d5ffd5b50505050505050565b6001600160a01b03163b151590565b613bb981613f48565b6104b180546001600160a01b0319166001600160a01b0392909216919091179055565b610c8380546001600160a01b03191633179055610c84839055610c85829055610c86819055613c09600f90565b61ffff16610c8d5550506001610c8e555050565b613c25614554565b611463613c33828483615b05565b50611513635b5e139f60e01b613ce5565b612d5e63780e9d6360e01b613ce5565b613c6b5f80516020615e1a833981519152806145be565b613c8f5f80516020615dba8339815191525f80516020615e1a8339815191526145be565b613c988161267c565b613cb357613cb35f80516020615e1a83398151915282614608565b613cca5f80516020615dba8339815191528261211d565b612f9f57612f9f5f80516020615dba83398151915282614608565b6001600160e01b03198082169003613d3f5760405162461bcd60e51b815260206004820152601c60248201527f4552433136353a20696e76616c696420696e74657266616365206964000000006044820152606401611500565b6001600160e01b0319165f908152606560205260409020805460ff19166001179055565b5f6001600160a01b038416613d8b57604051635963709b60e01b815260040160405180910390fd5b610c8780546001019081905561107f54613da4916158f6565b60408051808201825282815260208082018681525f85815261107b9092529290209051815590516001909101559050613ddc84611d5e565b158015613df157506001600160a01b03841615155b15613e0157611077805460010190555b613e0b818561440c565b613e158184613fdc565b60405181906001600160a01b038616905f905f80516020615dfa833981519152908290a49392505050565b6040805160018082528183019092525f916020808301908036833701905050905084815f81518110613e7457613e74615873565b60209081029190910101526104b1546040517f11b468ecf06bc0fc24b28943bae35c968062beaa93da530a0916484cab5fd24491613ec89184915f9160019133916001600160a01b03909116908990615909565b60405180910390a1613eda82846136ab565b613ee4848361386b565b613eec613a04565b613ef58361377b565b612ccd82613913565b6001600160a01b03821615801590613f255750613f23826001600160a01b0316613ba1565b155b1561151357604051636788e02b60e01b815260ff82166004820152602401611500565b6001600160a01b03811615801590613fbe57505f816001600160a01b03166318160ddd6040518163ffffffff1660e01b8152600401602060405180830381865afa158015613f98573d5f803e3d5ffd5b505050506040513d601f19601f82011682018060405250810190613fbc919061585c565b105b15612f9f5760405163684cae7960e11b815260040160405180910390fd5b5f82815261107860205260409020546001600160a01b03828116911614611513575f8281526110786020526040902080546001600160a01b0319166001600160a01b03831617905561402d826144b6565b6040516001600160a01b0382169083907f9d2895c45a420624de863a2f437b022d879f457bf7a829044055a10c5a6fd5e3905f90a35050565b5f614079846001600160a01b0316613ba1565b61408557506001614110565b604051630a85bd0160e11b81525f906001600160a01b0386169063150b7a02906140b99033908a9089908990600401615ce3565b6020604051808303815f875af11580156140d5573d5f803e3d5ffd5b505050506040513d601f19601f820116820180604052508101906140f99190615d15565b6001600160e01b031916630a85bd0160e11b149150505b949350505050565b6060610dd16001600160a01b0383166014614612565b60605f61413a83614783565b60010190505f816001600160401b0381111561415857614158614ecd565b6040519080825280601f01601f191660200182016040528015614182576020820181803683370190505b5090508181016020015b5f19016f181899199a1a9b1b9c1cb0b131b232b360811b600a86061a8153600a850494508461418c57509392505050565b80821015611513576040516330005fb160e21b815260040160405180910390fd5b5f92835261201f6020908152604080852093909355610c84546120208252838520556104b154612021825283852080546001600160a01b039283166001600160a01b0319918216179091556120229092529290932080549093169116179055565b8015610e4f576001600160a01b03831661426657610e4f6001600160a01b0383168261485a565b8261278b6001600160a01b038216848461496c565b5f82815261107b602090815260409182902060010180549084905582518181529182018490529184917feff98df468b347f5cf62ed3329054836e763fc673bf48dce3c41dd0612c5fc68910160405180910390a2505050565b61271061240754101580156142ef57506142ed3361267c565b155b15612d5e576040516323f21a3d60e21b815260040160405180910390fd5b5f610dd1826149be565b5f81815261107660205260408120546001600160a01b031690600161433b83611d5e565b61434591906157da565b5f84815261107d6020526040902054909150808214614399576001600160a01b0383165f90815261107c60209081526040808320858452825280832054848452818420819055835261107d90915290208190555b6001600160a01b0383165f90815261107c602090815260408083208584529091528120556143c683611d5e565b6001036143d85761107780545f190190555b6001600160a01b0383165f90815261107e602052604081208054600192906144019084906157da565b909155505050505050565b5f61441682611d5e565b9050610c8e54811015801561443357506001600160a01b03821615155b1561445157604051630bf6c32360e11b815260040160405180910390fd5b5f83815261107d602090815260408083208490556001600160a01b0390941680835261107c8252848320938352928152838220859055938152611076845282812080546001600160a01b0319168317905590815261107e909252902080546001019055565b5f81815261107960205260409020546001600160a01b031615612f9f575f9081526110796020526040902080546001600160a01b0319169055565b6144fb828261211d565b61151357614508816149e2565b6145138360206149f4565b604051602001614524929190615d30565b60408051601f198184030181529082905262461bcd60e51b825261150091600401614e47565b612f9f814261427b565b5f54610100900460ff16612d5e5760405162461bcd60e51b815260206004820152602b60248201527f496e697469616c697a61626c653a20636f6e7472616374206973206e6f74206960448201526a6e697469616c697a696e6760a81b6064820152608401611500565b5f82815260976020526040808220600101805490849055905190918391839186917fbd79b86ffe0ab8e8776151514217cd7cacd52c909f66475c3af44e129f0b00ff9190a4505050565b6115138282613327565b6060825f61462184600261594e565b61462c9060026158f6565b6001600160401b0381111561464357614643614ecd565b6040519080825280601f01601f19166020018201604052801561466d576020820181803683370190505b509050600360fc1b815f8151811061468757614687615873565b60200101906001600160f81b03191690815f1a905350600f60fb1b816001815181106146b5576146b5615873565b60200101906001600160f81b03191690815f1a9053505f6146d785600261594e565b6146e29060016158f6565b90505b6001811115614759576f181899199a1a9b1b9c1cb0b131b232b360811b83600f166010811061471657614716615873565b1a60f81b82828151811061472c5761472c615873565b60200101906001600160f81b03191690815f1a90535060049290921c91614752816158e1565b90506146e5565b5081156141105760405163e22e27eb60e01b81526004810186905260248101859052604401611500565b5f8072184f03e93ff9f4daa797ed6e38ed64bf6a1f0160401b83106147c15772184f03e93ff9f4daa797ed6e38ed64bf6a1f0160401b830492506040015b6d04ee2d6d415b85acef810000000083106147ed576d04ee2d6d415b85acef8100000000830492506020015b662386f26fc10000831061480b57662386f26fc10000830492506010015b6305f5e1008310614823576305f5e100830492506008015b612710831061483757612710830492506004015b60648310614849576064830492506002015b600a8310610dd15760010192915050565b804710156148aa5760405162461bcd60e51b815260206004820152601d60248201527f416464726573733a20696e73756666696369656e742062616c616e63650000006044820152606401611500565b5f826001600160a01b0316826040515f6040518083038185875af1925050503d805f81146148f3576040519150601f19603f3d011682016040523d82523d5f602084013e6148f8565b606091505b5050905080610e4f5760405162461bcd60e51b815260206004820152603a60248201527f416464726573733a20756e61626c6520746f2073656e642076616c75652c20726044820152791958da5c1a595b9d081b585e481a185d99481c995d995c9d195960321b6064820152608401611500565b604080516001600160a01b038416602482015260448082018490528251808303909101815260649091019091526020810180516001600160e01b031663a9059cbb60e01b179052610e4f908490614b89565b5f6001600160e01b03198216637965db0b60e01b1480610dd15750610dd182614c5c565b6060610dd16001600160a01b03831660145b60605f614a0283600261594e565b614a0d9060026158f6565b6001600160401b03811115614a2457614a24614ecd565b6040519080825280601f01601f191660200182016040528015614a4e576020820181803683370190505b509050600360fc1b815f81518110614a6857614a68615873565b60200101906001600160f81b03191690815f1a905350600f60fb1b81600181518110614a9657614a96615873565b60200101906001600160f81b03191690815f1a9053505f614ab884600261594e565b614ac39060016158f6565b90505b6001811115614b3a576f181899199a1a9b1b9c1cb0b131b232b360811b85600f1660108110614af757614af7615873565b1a60f81b828281518110614b0d57614b0d615873565b60200101906001600160f81b03191690815f1a90535060049490941c93614b33816158e1565b9050614ac6565b5083156110385760405162461bcd60e51b815260206004820181905260248201527f537472696e67733a20686578206c656e67746820696e73756666696369656e746044820152606401611500565b5f614bdd826040518060400160405280602081526020017f5361666545524332303a206c6f772d6c6576656c2063616c6c206661696c6564815250856001600160a01b0316614c969092919063ffffffff16565b905080515f1480614bfd575080806020019051810190614bfd91906159bf565b610e4f5760405162461bcd60e51b815260206004820152602a60248201527f5361666545524332303a204552433230206f7065726174696f6e20646964206e6044820152691bdd081cdd58d8d9595960b21b6064820152608401611500565b5f6301ffc9a760e01b6001600160e01b031983161480610dd15750506001600160e01b0319165f9081526065602052604090205460ff1690565b606061411084845f85855f80866001600160a01b03168587604051614cbb9190615d9e565b5f6040518083038185875af1925050503d805f8114614cf5576040519150601f19603f3d011682016040523d82523d5f602084013e614cfa565b606091505b50915091506128928783838760608315614d725782515f03614d6b57614d1f85613ba1565b614d6b5760405162461bcd60e51b815260206004820152601d60248201527f416464726573733a2063616c6c20746f206e6f6e2d636f6e74726163740000006044820152606401611500565b5081614110565b6141108383815115614d875781518083602001fd5b8060405162461bcd60e51b81526004016115009190614e47565b6001600160e01b031981168114612f9f575f80fd5b5f60208284031215614dc6575f80fd5b813561103881614da1565b5f805f60608486031215614de3575f80fd5b505081359360208301359350604090920135919050565b5f5b83811015614e14578181015183820152602001614dfc565b50505f910152565b5f8151808452614e33816020860160208601614dfa565b601f01601f19169290920160200192915050565b602081525f6110386020830184614e1c565b5f60208284031215614e69575f80fd5b5035919050565b6001600160a01b0391909116815260200190565b6001600160a01b0381168114612f9f575f80fd5b8035611ba081614e84565b5f8060408385031215614eb4575f80fd5b8235614ebf81614e84565b946020939093013593505050565b634e487b7160e01b5f52604160045260245ffd5b60405160e081016001600160401b0381118282101715614f0357614f03614ecd565b60405290565b604051601f8201601f191681016001600160401b0381118282101715614f3157614f31614ecd565b604052919050565b5f6001600160401b03821115614f5157614f51614ecd565b50601f01601f191660200190565b5f82601f830112614f6e575f80fd5b8135614f81614f7c82614f39565b614f09565b818152846020838601011115614f95575f80fd5b816020850160208301375f918101602001919091529392505050565b5f805f60608486031215614fc3575f80fd5b8335614fce81614e84565b92506020840135614fde81614e84565b915060408401356001600160401b03811115614ff8575f80fd5b61500486828701614f5f565b9150509250925092565b5f805f60608486031215615020575f80fd5b833561502b81614e84565b9250602084013561503b81614e84565b929592945050506040919091013590565b5f6020828403121561505c575f80fd5b813561103881614e84565b5f8060408385031215615078575f80fd5b82359150602083013561508a81614e84565b809150509250929050565b5f6001600160401b038211156150ad576150ad614ecd565b5060051b60200190565b5f82601f8301126150c6575f80fd5b813560206150d6614f7c83615095565b82815260059290921b840181019181810190868411156150f4575f80fd5b8286015b8481101561510f57803583529183019183016150f8565b509695505050505050565b5f82601f830112615129575f80fd5b81356020615139614f7c83615095565b82815260059290921b84018101918181019086841115615157575f80fd5b8286015b8481101561510f57803561516e81614e84565b835291830191830161515b565b5f8083601f84011261518b575f80fd5b5081356001600160401b038111156151a1575f80fd5b6020830191508360208260051b85010111156151bb575f80fd5b9250929050565b5f805f805f8060a087890312156151d7575f80fd5b86356001600160401b03808211156151ed575f80fd5b6151f98a838b016150b7565b9750602089013591508082111561520e575f80fd5b61521a8a838b0161511a565b9650604089013591508082111561522f575f80fd5b61523b8a838b0161511a565b95506060890135915080821115615250575f80fd5b61525c8a838b0161511a565b94506080890135915080821115615271575f80fd5b5061527e89828a0161517b565b979a9699509497509295939492505050565b5f8151808452602080850194508084015f5b838110156152be578151875295820195908201906001016152a2565b509495945050505050565b602081525f6110386020830184615290565b5f80604083850312156152ec575f80fd5b50508035926020909101359150565b5f602080838503121561530c575f80fd5b82356001600160401b0380821115615322575f80fd5b818501915085601f830112615335575f80fd5b8135615343614f7c82615095565b81815260059190911b83018401908481019088831115615361575f80fd5b8585015b8381101561542b5780358581111561537b575f80fd5b860160e0818c03601f19011215615391575f8081fd5b615399614ee1565b88820135815260406153ac818401614e98565b8a83015260606153bd818501614e98565b82840152608091506153d0828501614e98565b9083015260a06153e1848201614e98565b8284015260c0915081840135898111156153fa575f8081fd5b6154088f8d83880101614f5f565b918401919091525060e09290920135918101919091528352918601918601615365565b5098975050505050505050565b5f8083601f840112615448575f80fd5b5081356001600160401b0381111561545e575f80fd5b6020830191508360208285010111156151bb575f80fd5b5f805f805f805f60c0888a03121561548b575f80fd5b873561549681614e84565b96506020880135955060408801356154ad81614e84565b9450606088013593506080880135925060a08801356001600160401b038111156154d5575f80fd5b6154e18a828b01615438565b989b979a50959850939692959293505050565b5f805f805f8060608789031215615509575f80fd5b86356001600160401b038082111561551f575f80fd5b61552b8a838b0161517b565b90985096506020890135915080821115615543575f80fd5b61554f8a838b0161517b565b90965094506040890135915080821115615271575f80fd5b5f8060208385031215615578575f80fd5b82356001600160401b0381111561558d575f80fd5b61559985828601615438565b90969095509350505050565b5f805f805f805f80610100898b0312156155bd575f80fd5b88356155c881614e84565b975060208901356155d881614e84565b965060408901356155e881614e84565b955060608901356155f881614e84565b9450608089013561560881614e84565b935060a089013561561881614e84565b925060c089013561562881614e84565b915060e089013561563881614e84565b809150509295985092959890939650565b5f805f806080858703121561565c575f80fd5b843561566781614e84565b9350602085013561567781614e84565b92506040850135915060608501356001600160401b03811115615698575f80fd5b6156a487828801614f5f565b91505092959194509250565b5f805f805f80606087890312156156c5575f80fd5b86356001600160401b03808211156156db575f80fd5b6156e78a838b01615438565b909850965060208901359150808211156156ff575f80fd5b61570b8a838b01615438565b90965094506040890135915080821115615723575f80fd5b5061527e89828a01615438565b5f805f805f60808688031215615744575f80fd5b8535945060208601359350604086013561575d81614e84565b925060608601356001600160401b03811115615777575f80fd5b61578388828901615438565b969995985093965092949392505050565b5f805f606084860312156157a6575f80fd5b83356157b181614e84565b95602085013595506040909401359392505050565b634e487b7160e01b5f52601160045260245ffd5b81810381811115610dd157610dd16157c6565b600181811c9082168061580157607f821691505b6020821081036122b557634e487b7160e01b5f52602260045260245ffd5b6001600160a01b0385811682528481166020830152831660408201526080606082018190525f9061585290830184614e1c565b9695505050505050565b5f6020828403121561586c575f80fd5b5051919050565b634e487b7160e01b5f52603260045260245ffd5b5f808335601e1984360301811261589c575f80fd5b8301803591506001600160401b038211156158b5575f80fd5b6020019150368190038213156151bb575f80fd5b5f600182016158da576158da6157c6565b5060010190565b5f816158ef576158ef6157c6565b505f190190565b80820180821115610dd157610dd16157c6565b60c081525f61591b60c0830189615290565b60208301979097525060408101949094526001600160a01b0392831660608501529116608083015260a090910152919050565b8082028115828204841417610dd157610dd16157c6565b5f8261597f57634e487b7160e01b5f52601260045260245ffd5b500490565b6001600160a01b039687168152948616602086015260408501939093526060840191909152909216608082015290151560a082015260c00190565b5f602082840312156159cf575f80fd5b81518015158114611038575f80fd5b61ffff828116828216039080821115612750576127506157c6565b5f60208284031215615a09575f80fd5b81516001600160401b03811115615a1e575f80fd5b8201601f81018413615a2e575f80fd5b8051615a3c614f7c82614f39565b818152856020838501011115615a50575f80fd5b615a61826020830160208601614dfa565b95945050505050565b5f8551615a7b818460208a01614dfa565b855190830190615a8f818360208a01614dfa565b8551910190615aa2818360208901614dfa565b8451910190615ab5818360208801614dfa565b019695505050505050565b601f821115610e4f575f81815260208120601f850160051c81016020861015615ae65750805b601f850160051c820191505b81811015612b9b57828155600101615af2565b6001600160401b03831115615b1c57615b1c614ecd565b615b3083615b2a83546157ed565b83615ac0565b5f601f841160018114615b61575f8515615b4a5750838201355b5f19600387901b1c1916600186901b178355612ccd565b5f83815260209020601f19861690835b82811015615b915786850135825560209485019460019092019101615b71565b5086821015615bad575f1960f88860031b161c19848701351681555b505060018560011b0183555050505050565b5f8154615bcb816157ed565b808552602060018381168015615be85760018114615c0257615c2d565b60ff1985168884015283151560051b880183019550615c2d565b865f52825f205f5b85811015615c255781548a8201860152908301908401615c0a565b890184019650505b505050505092915050565b606081525f615c4a6060830186615bbf565b8281036020840152615c5c8186615bbf565b905082810360408401526158528185615bbf565b8781526001600160a01b03878116602083015286811660408301528516606082015260e0608082018190525f90615ca990830186614e1c565b60a08301949094525060c0015295945050505050565b6001600160a01b039384168152919092166020820152604081019190915260600190565b6001600160a01b03858116825284166020820152604081018390526080606082018190525f9061585290830184614e1c565b5f60208284031215615d25575f80fd5b815161103881614da1565b76020b1b1b2b9b9a1b7b73a3937b61d1030b1b1b7bab73a1604d1b81525f8351615d61816017850160208801614dfa565b7001034b99036b4b9b9b4b733903937b6329607d1b6017918401918201528351615d92816028840160208801614dfa565b01602801949350505050565b5f8251615daf818460208701614dfa565b919091019291505056feb309c40027c81d382c3b58d8de24207a34b27e1db369b1434e4a11311f154b5e6b18946261693dfd6c760d986b28ad2238b5b0267f8e5b6bc40a2f998e2f20acddf252ad1be2c89b69c2b068fc378daa952ba7f163c4a11628f55a4df523b3efb89cdd26cddd51301940bf2715f765b626b8a5a9e2681ac62dc83cc2db2530c0a264697066735822122015a3284159df0e800c9c426b604d50887b52142305f41d45245ed5a502df09b264736f6c63430008150033",
  "linkReferences": {},
  "deployedLinkReferences": {}
}