{
  "_format": "hh-sol-artifact-1",
  "contractName": "PublicLock",
  "sourceName": "contracts/PublicLock.sol",
  "abi": [
    {
      "anonymous": false,
      "inputs": [
        {
          "indexed": true,
          "internalType": "address",
          "name": "owner",
          "type": "address"
        },
        {
          "indexed": true,
          "internalType": "address",
          "name": "approved",
          "type": "address"
        },
        {
          "indexed": true,
          "internalType": "uint256",
          "name": "tokenId",
          "type": "uint256"
        }
      ],
      "name": "Approval",
      "type": "event"
    },
    {
      "anonymous": false,
      "inputs": [
        {
          "indexed": true,
          "internalType": "address",
          "name": "owner",
          "type": "address"
        },
        {
          "indexed": true,
          "internalType": "address",
          "name": "operator",
          "type": "address"
        },
        {
          "indexed": false,
          "internalType": "bool",
          "name": "approved",
          "type": "bool"
        }
      ],
      "name": "ApprovalForAll",
      "type": "event"
    },
    {
      "anonymous": false,
      "inputs": [
        {
          "indexed": true,
          "internalType": "uint256",
          "name": "tokenId",
          "type": "uint256"
        },
        {
          "indexed": true,
          "internalType": "address",
          "name": "owner",
          "type": "address"
        },
        {
          "indexed": true,
          "internalType": "address",
          "name": "sendTo",
          "type": "address"
        },
        {
          "indexed": false,
          "internalType": "uint256",
          "name": "refund",
          "type": "uint256"
        }
      ],
      "name": "CancelKey",
      "type": "event"
    },
    {
      "anonymous": false,
      "inputs": [
        {
          "indexed": true,
          "internalType": "uint256",
          "name": "_tokenId",
          "type": "uint256"
        },
        {
          "indexed": false,
          "internalType": "uint256",
          "name": "_amount",
          "type": "uint256"
        },
        {
          "indexed": false,
          "internalType": "bool",
          "name": "_timeAdded",
          "type": "bool"
        }
      ],
      "name": "ExpirationChanged",
      "type": "event"
    },
    {
      "anonymous": false,
      "inputs": [
        {
          "indexed": true,
          "internalType": "uint256",
          "name": "tokenId",
          "type": "uint256"
        }
      ],
      "name": "ExpireKey",
      "type": "event"
    },
    {
      "anonymous": false,
      "inputs": [
        {
          "indexed": true,
          "internalType": "address",
          "name": "receiver",
          "type": "address"
        },
        {
          "indexed": false,
          "internalType": "uint256",
          "name": "refundedAmount",
          "type": "uint256"
        },
        {
          "indexed": false,
          "internalType": "address",
          "name": "tokenAddress",
          "type": "address"
        }
      ],
      "name": "GasRefunded",
      "type": "event"
    },
    {
      "anonymous": false,
      "inputs": [
        {
          "indexed": true,
          "internalType": "uint256",
          "name": "tokenId",
          "type": "uint256"
        },
        {
          "indexed": false,
          "internalType": "uint256",
          "name": "newTimestamp",
          "type": "uint256"
        }
      ],
      "name": "KeyExtended",
      "type": "event"
    },
    {
      "anonymous": false,
      "inputs": [
        {
          "indexed": true,
          "internalType": "address",
          "name": "account",
          "type": "address"
        }
      ],
      "name": "KeyGranterAdded",
      "type": "event"
    },
    {
      "anonymous": false,
      "inputs": [
        {
          "indexed": true,
          "internalType": "address",
          "name": "account",
          "type": "address"
        }
      ],
      "name": "KeyGranterRemoved",
      "type": "event"
    },
    {
      "anonymous": false,
      "inputs": [
        {
          "indexed": true,
          "internalType": "uint256",
          "name": "_tokenId",
          "type": "uint256"
        },
        {
          "indexed": true,
          "internalType": "address",
          "name": "_newManager",
          "type": "address"
        }
      ],
      "name": "KeyManagerChanged",
      "type": "event"
    },
    {
      "anonymous": false,
      "inputs": [
        {
          "indexed": false,
          "internalType": "uint256",
          "name": "updatedRecordsCount",
          "type": "uint256"
        }
      ],
      "name": "KeysMigrated",
      "type": "event"
    },
    {
      "anonymous": false,
      "inputs": [
        {
          "indexed": true,
          "internalType": "address",
          "name": "account",
          "type": "address"
        }
      ],
      "name": "LockManagerAdded",
      "type": "event"
    },
    {
      "anonymous": false,
      "inputs": [
        {
          "indexed": true,
          "internalType": "address",
          "name": "account",
          "type": "address"
        }
      ],
      "name": "LockManagerRemoved",
      "type": "event"
    },
    {
      "anonymous": false,
      "inputs": [
        {
          "indexed": false,
          "internalType": "string",
          "name": "symbol",
          "type": "string"
        }
      ],
      "name": "NewLockSymbol",
      "type": "event"
    },
    {
      "anonymous": false,
      "inputs": [
        {
          "indexed": false,
          "internalType": "address",
          "name": "previousOwner",
          "type": "address"
        },
        {
          "indexed": false,
          "internalType": "address",
          "name": "newOwner",
          "type": "address"
        }
      ],
      "name": "OwnershipTransferred",
      "type": "event"
    },
    {
      "anonymous": false,
      "inputs": [
        {
          "indexed": false,
          "internalType": "uint256",
          "name": "oldKeyPrice",
          "type": "uint256"
        },
        {
          "indexed": false,
          "internalType": "uint256",
          "name": "keyPrice",
          "type": "uint256"
        },
        {
          "indexed": false,
          "internalType": "address",
          "name": "oldTokenAddress",
          "type": "address"
        },
        {
          "indexed": false,
          "internalType": "address",
          "name": "tokenAddress",
          "type": "address"
        }
      ],
      "name": "PricingChanged",
      "type": "event"
    },
    {
      "anonymous": false,
      "inputs": [
        {
          "indexed": false,
          "internalType": "uint256",
          "name": "freeTrialLength",
          "type": "uint256"
        },
        {
          "indexed": false,
          "internalType": "uint256",
          "name": "refundPenaltyBasisPoints",
          "type": "uint256"
        }
      ],
      "name": "RefundPenaltyChanged",
      "type": "event"
    },
    {
      "anonymous": false,
      "inputs": [
        {
          "indexed": true,
          "internalType": "address",
          "name": "owner",
          "type": "address"
        },
        {
          "indexed": false,
          "internalType": "uint256",
          "name": "newExpiration",
          "type": "uint256"
        }
      ],
      "name": "RenewKeyPurchase",
      "type": "event"
    },
    {
      "anonymous": false,
      "inputs": [
        {
          "indexed": true,
          "internalType": "bytes32",
          "name": "role",
          "type": "bytes32"
        },
        {
          "indexed": true,
          "internalType": "bytes32",
          "name": "previousAdminRole",
          "type": "bytes32"
        },
        {
          "indexed": true,
          "internalType": "bytes32",
          "name": "newAdminRole",
          "type": "bytes32"
        }
      ],
      "name": "RoleAdminChanged",
      "type": "event"
    },
    {
      "anonymous": false,
      "inputs": [
        {
          "indexed": true,
          "internalType": "bytes32",
          "name": "role",
          "type": "bytes32"
        },
        {
          "indexed": true,
          "internalType": "address",
          "name": "account",
          "type": "address"
        },
        {
          "indexed": true,
          "internalType": "address",
          "name": "sender",
          "type": "address"
        }
      ],
      "name": "RoleGranted",
      "type": "event"
    },
    {
      "anonymous": false,
      "inputs": [
        {
          "indexed": true,
          "internalType": "bytes32",
          "name": "role",
          "type": "bytes32"
        },
        {
          "indexed": true,
          "internalType": "address",
          "name": "account",
          "type": "address"
        },
        {
          "indexed": true,
          "internalType": "address",
          "name": "sender",
          "type": "address"
        }
      ],
      "name": "RoleRevoked",
      "type": "event"
    },
    {
      "anonymous": false,
      "inputs": [
        {
          "indexed": true,
          "internalType": "address",
          "name": "from",
          "type": "address"
        },
        {
          "indexed": true,
          "internalType": "address",
          "name": "to",
          "type": "address"
        },
        {
          "indexed": true,
          "internalType": "uint256",
          "name": "tokenId",
          "type": "uint256"
        }
      ],
      "name": "Transfer",
      "type": "event"
    },
    {
      "anonymous": false,
      "inputs": [
        {
          "indexed": false,
          "internalType": "uint256",
          "name": "transferFeeBasisPoints",
          "type": "uint256"
        }
      ],
      "name": "TransferFeeChanged",
      "type": "event"
    },
    {
      "anonymous": false,
      "inputs": [
        {
          "indexed": true,
          "internalType": "address",
          "name": "lockAddress",
          "type": "address"
        },
        {
          "indexed": false,
          "internalType": "address",
          "name": "unlockAddress",
          "type": "address"
        }
      ],
      "name": "UnlockCallFailed",
      "type": "event"
    },
    {
      "anonymous": false,
      "inputs": [
        {
          "indexed": true,
          "internalType": "address",
          "name": "sender",
          "type": "address"
        },
        {
          "indexed": true,
          "internalType": "address",
          "name": "tokenAddress",
          "type": "address"
        },
        {
          "indexed": true,
          "internalType": "address",
          "name": "beneficiary",
          "type": "address"
        },
        {
          "indexed": false,
          "internalType": "uint256",
          "name": "amount",
          "type": "uint256"
        }
      ],
      "name": "Withdrawal",
      "type": "event"
    },
    {
      "inputs": [],
      "name": "DEFAULT_ADMIN_ROLE",
      "outputs": [
        {
          "internalType": "bytes32",
          "name": "",
          "type": "bytes32"
        }
      ],
      "stateMutability": "view",
      "type": "function"
    },
    {
      "inputs": [],
      "name": "KEY_GRANTER_ROLE",
      "outputs": [
        {
          "internalType": "bytes32",
          "name": "",
          "type": "bytes32"
        }
      ],
      "stateMutability": "view",
      "type": "function"
    },
    {
      "inputs": [],
      "name": "LOCK_MANAGER_ROLE",
      "outputs": [
        {
          "internalType": "bytes32",
          "name": "",
          "type": "bytes32"
        }
      ],
      "stateMutability": "view",
      "type": "function"
    },
    {
      "inputs": [
        {
          "internalType": "address",
          "name": "account",
          "type": "address"
        }
      ],
      "name": "addKeyGranter",
      "outputs": [],
      "stateMutability": "nonpayable",
      "type": "function"
    },
    {
      "inputs": [
        {
          "internalType": "address",
          "name": "account",
          "type": "address"
        }
      ],
      "name": "addLockManager",
      "outputs": [],
      "stateMutability": "nonpayable",
      "type": "function"
    },
    {
      "inputs": [
        {
          "internalType": "address",
          "name": "_approved",
          "type": "address"
        },
        {
          "internalType": "uint256",
          "name": "_tokenId",
          "type": "uint256"
        }
      ],
      "name": "approve",
      "outputs": [],
      "stateMutability": "nonpayable",
      "type": "function"
    },
    {
      "inputs": [
        {
          "internalType": "address",
          "name": "_spender",
          "type": "address"
        },
        {
          "internalType": "uint256",
          "name": "_amount",
          "type": "uint256"
        }
      ],
      "name": "approveBeneficiary",
      "outputs": [
        {
          "internalType": "bool",
          "name": "",
          "type": "bool"
        }
      ],
      "stateMutability": "nonpayable",
      "type": "function"
    },
    {
      "inputs": [
        {
          "internalType": "address",
          "name": "_keyOwner",
          "type": "address"
        }
      ],
      "name": "balanceOf",
      "outputs": [
        {
          "internalType": "uint256",
          "name": "",
          "type": "uint256"
        }
      ],
      "stateMutability": "view",
      "type": "function"
    },
    {
      "inputs": [],
      "name": "beneficiary",
      "outputs": [
        {
          "internalType": "address payable",
          "name": "",
          "type": "address"
        }
      ],
      "stateMutability": "view",
      "type": "function"
    },
    {
      "inputs": [
        {
          "internalType": "uint256",
          "name": "_tokenId",
          "type": "uint256"
        }
      ],
      "name": "burn",
      "outputs": [],
      "stateMutability": "nonpayable",
      "type": "function"
    },
    {
      "inputs": [
        {
          "internalType": "uint256",
          "name": "_tokenId",
          "type": "uint256"
        }
      ],
      "name": "cancelAndRefund",
      "outputs": [],
      "stateMutability": "nonpayable",
      "type": "function"
    },
    {
      "inputs": [],
      "name": "expirationDuration",
      "outputs": [
        {
          "internalType": "uint256",
          "name": "",
          "type": "uint256"
        }
      ],
      "stateMutability": "view",
      "type": "function"
    },
    {
      "inputs": [
        {
          "internalType": "uint256",
          "name": "_tokenId",
          "type": "uint256"
        },
        {
          "internalType": "uint256",
          "name": "_amount",
          "type": "uint256"
        }
      ],
      "name": "expireAndRefundFor",
      "outputs": [],
      "stateMutability": "nonpayable",
      "type": "function"
    },
    {
      "inputs": [
        {
          "internalType": "uint256",
          "name": "_value",
          "type": "uint256"
        },
        {
          "internalType": "uint256",
          "name": "_tokenId",
          "type": "uint256"
        },
        {
          "internalType": "address",
          "name": "_referrer",
          "type": "address"
        },
        {
          "internalType": "bytes",
          "name": "_data",
          "type": "bytes"
        }
      ],
      "name": "extend",
      "outputs": [],
      "stateMutability": "payable",
      "type": "function"
    },
    {
      "inputs": [],
      "name": "freeTrialLength",
      "outputs": [
        {
          "internalType": "uint256",
          "name": "",
          "type": "uint256"
        }
      ],
      "stateMutability": "view",
      "type": "function"
    },
    {
      "inputs": [],
      "name": "gasRefundValue",
      "outputs": [
        {
          "internalType": "uint256",
          "name": "_refundValue",
          "type": "uint256"
        }
      ],
      "stateMutability": "view",
      "type": "function"
    },
    {
      "inputs": [
        {
          "internalType": "uint256",
          "name": "_tokenId",
          "type": "uint256"
        }
      ],
      "name": "getApproved",
      "outputs": [
        {
          "internalType": "address",
          "name": "",
          "type": "address"
        }
      ],
      "stateMutability": "view",
      "type": "function"
    },
    {
      "inputs": [
        {
          "internalType": "uint256",
          "name": "_tokenId",
          "type": "uint256"
        }
      ],
      "name": "getCancelAndRefundValue",
      "outputs": [
        {
          "internalType": "uint256",
          "name": "refund",
          "type": "uint256"
        }
      ],
      "stateMutability": "view",
      "type": "function"
    },
    {
      "inputs": [
        {
          "internalType": "address",
          "name": "_keyOwner",
          "type": "address"
        }
      ],
      "name": "getHasValidKey",
      "outputs": [
        {
          "internalType": "bool",
          "name": "isValid",
          "type": "bool"
        }
      ],
      "stateMutability": "view",
      "type": "function"
    },
    {
      "inputs": [
        {
          "internalType": "bytes32",
          "name": "role",
          "type": "bytes32"
        }
      ],
      "name": "getRoleAdmin",
      "outputs": [
        {
          "internalType": "bytes32",
          "name": "",
          "type": "bytes32"
        }
      ],
      "stateMutability": "view",
      "type": "function"
    },
    {
      "inputs": [
        {
          "internalType": "uint256",
          "name": "_tokenId",
          "type": "uint256"
        },
        {
          "internalType": "uint256",
          "name": "_time",
          "type": "uint256"
        }
      ],
      "name": "getTransferFee",
      "outputs": [
        {
          "internalType": "uint256",
          "name": "",
          "type": "uint256"
        }
      ],
      "stateMutability": "view",
      "type": "function"
    },
    {
      "inputs": [
        {
          "internalType": "address[]",
          "name": "_recipients",
          "type": "address[]"
        },
        {
          "internalType": "uint256[]",
          "name": "_expirationTimestamps",
          "type": "uint256[]"
        },
        {
          "internalType": "address[]",
          "name": "_keyManagers",
          "type": "address[]"
        }
      ],
      "name": "grantKeys",
      "outputs": [],
      "stateMutability": "nonpayable",
      "type": "function"
    },
    {
      "inputs": [
        {
          "internalType": "bytes32",
          "name": "role",
          "type": "bytes32"
        },
        {
          "internalType": "address",
          "name": "account",
          "type": "address"
        }
      ],
      "name": "grantRole",
      "outputs": [],
      "stateMutability": "nonpayable",
      "type": "function"
    },
    {
      "inputs": [
        {
          "internalType": "bytes32",
          "name": "role",
          "type": "bytes32"
        },
        {
          "internalType": "address",
          "name": "account",
          "type": "address"
        }
      ],
      "name": "hasRole",
      "outputs": [
        {
          "internalType": "bool",
          "name": "",
          "type": "bool"
        }
      ],
      "stateMutability": "view",
      "type": "function"
    },
    {
      "inputs": [
        {
          "internalType": "address payable",
          "name": "_lockCreator",
          "type": "address"
        },
        {
          "internalType": "uint256",
          "name": "_expirationDuration",
          "type": "uint256"
        },
        {
          "internalType": "address",
          "name": "_tokenAddress",
          "type": "address"
        },
        {
          "internalType": "uint256",
          "name": "_keyPrice",
          "type": "uint256"
        },
        {
          "internalType": "uint256",
          "name": "_maxNumberOfKeys",
          "type": "uint256"
        },
        {
          "internalType": "string",
          "name": "_lockName",
          "type": "string"
        }
      ],
      "name": "initialize",
      "outputs": [],
      "stateMutability": "nonpayable",
      "type": "function"
    },
    {
      "inputs": [
        {
          "internalType": "address",
          "name": "_owner",
          "type": "address"
        },
        {
          "internalType": "address",
          "name": "_operator",
          "type": "address"
        }
      ],
      "name": "isApprovedForAll",
      "outputs": [
        {
          "internalType": "bool",
          "name": "",
          "type": "bool"
        }
      ],
      "stateMutability": "view",
      "type": "function"
    },
    {
      "inputs": [
        {
          "internalType": "address",
          "name": "account",
          "type": "address"
        }
      ],
      "name": "isKeyGranter",
      "outputs": [
        {
          "internalType": "bool",
          "name": "",
          "type": "bool"
        }
      ],
      "stateMutability": "view",
      "type": "function"
    },
    {
      "inputs": [
        {
          "internalType": "address",
          "name": "account",
          "type": "address"
        }
      ],
      "name": "isLockManager",
      "outputs": [
        {
          "internalType": "bool",
          "name": "",
          "type": "bool"
        }
      ],
      "stateMutability": "view",
      "type": "function"
    },
    {
      "inputs": [
        {
          "internalType": "address",
          "name": "account",
          "type": "address"
        }
      ],
      "name": "isOwner",
      "outputs": [
        {
          "internalType": "bool",
          "name": "",
          "type": "bool"
        }
      ],
      "stateMutability": "view",
      "type": "function"
    },
    {
      "inputs": [
        {
          "internalType": "uint256",
          "name": "_tokenId",
          "type": "uint256"
        }
      ],
      "name": "isValidKey",
      "outputs": [
        {
          "internalType": "bool",
          "name": "",
          "type": "bool"
        }
      ],
      "stateMutability": "view",
      "type": "function"
    },
    {
      "inputs": [
        {
          "internalType": "uint256",
          "name": "_tokenId",
          "type": "uint256"
        }
      ],
      "name": "keyExpirationTimestampFor",
      "outputs": [
        {
          "internalType": "uint256",
          "name": "",
          "type": "uint256"
        }
      ],
      "stateMutability": "view",
      "type": "function"
    },
    {
      "inputs": [
        {
          "internalType": "uint256",
          "name": "",
          "type": "uint256"
        }
      ],
      "name": "keyManagerOf",
      "outputs": [
        {
          "internalType": "address",
          "name": "",
          "type": "address"
        }
      ],
      "stateMutability": "view",
      "type": "function"
    },
    {
      "inputs": [],
      "name": "keyPrice",
      "outputs": [
        {
          "internalType": "uint256",
          "name": "",
          "type": "uint256"
        }
      ],
      "stateMutability": "view",
      "type": "function"
    },
    {
      "inputs": [],
      "name": "maxKeysPerAddress",
      "outputs": [
        {
          "internalType": "uint256",
          "name": "",
          "type": "uint256"
        }
      ],
      "stateMutability": "view",
      "type": "function"
    },
    {
      "inputs": [],
      "name": "maxNumberOfKeys",
      "outputs": [
        {
          "internalType": "uint256",
          "name": "",
          "type": "uint256"
        }
      ],
      "stateMutability": "view",
      "type": "function"
    },
    {
      "inputs": [
        {
          "internalType": "uint256",
          "name": "_tokenIdFrom",
          "type": "uint256"
        },
        {
          "internalType": "uint256",
          "name": "_tokenIdTo",
          "type": "uint256"
        },
        {
          "internalType": "uint256",
          "name": "_amount",
          "type": "uint256"
        }
      ],
      "name": "mergeKeys",
      "outputs": [],
      "stateMutability": "nonpayable",
      "type": "function"
    },
    {
      "inputs": [
        {
          "internalType": "bytes",
          "name": "_calldata",
          "type": "bytes"
        }
      ],
      "name": "migrate",
      "outputs": [],
      "stateMutability": "nonpayable",
      "type": "function"
    },
    {
      "inputs": [],
      "name": "name",
      "outputs": [
        {
          "internalType": "string",
          "name": "",
          "type": "string"
        }
      ],
      "stateMutability": "view",
      "type": "function"
    },
    {
      "inputs": [],
      "name": "numberOfOwners",
      "outputs": [
        {
          "internalType": "uint256",
          "name": "",
          "type": "uint256"
        }
      ],
      "stateMutability": "view",
      "type": "function"
    },
    {
      "inputs": [],
      "name": "onKeyCancelHook",
      "outputs": [
        {
          "internalType": "contract ILockKeyCancelHook",
          "name": "",
          "type": "address"
        }
      ],
      "stateMutability": "view",
      "type": "function"
    },
    {
      "inputs": [],
      "name": "onKeyPurchaseHook",
      "outputs": [
        {
          "internalType": "contract ILockKeyPurchaseHook",
          "name": "",
          "type": "address"
        }
      ],
      "stateMutability": "view",
      "type": "function"
    },
    {
      "inputs": [],
      "name": "onTokenURIHook",
      "outputs": [
        {
          "internalType": "contract ILockTokenURIHook",
          "name": "",
          "type": "address"
        }
      ],
      "stateMutability": "view",
      "type": "function"
    },
    {
      "inputs": [],
      "name": "onValidKeyHook",
      "outputs": [
        {
          "internalType": "contract ILockValidKeyHook",
          "name": "",
          "type": "address"
        }
      ],
      "stateMutability": "view",
      "type": "function"
    },
    {
      "inputs": [],
      "name": "owner",
      "outputs": [
        {
          "internalType": "address",
          "name": "",
          "type": "address"
        }
      ],
      "stateMutability": "view",
      "type": "function"
    },
    {
      "inputs": [
        {
          "internalType": "uint256",
          "name": "_tokenId",
          "type": "uint256"
        }
      ],
      "name": "ownerOf",
      "outputs": [
        {
          "internalType": "address",
          "name": "",
          "type": "address"
        }
      ],
      "stateMutability": "view",
      "type": "function"
    },
    {
      "inputs": [],
      "name": "publicLockVersion",
      "outputs": [
        {
          "internalType": "uint16",
          "name": "",
          "type": "uint16"
        }
      ],
      "stateMutability": "pure",
      "type": "function"
    },
    {
      "inputs": [
        {
          "internalType": "uint256[]",
          "name": "_values",
          "type": "uint256[]"
        },
        {
          "internalType": "address[]",
          "name": "_recipients",
          "type": "address[]"
        },
        {
          "internalType": "address[]",
          "name": "_referrers",
          "type": "address[]"
        },
        {
          "internalType": "address[]",
          "name": "_keyManagers",
          "type": "address[]"
        },
        {
          "internalType": "bytes[]",
          "name": "_data",
          "type": "bytes[]"
        }
      ],
      "name": "purchase",
      "outputs": [],
      "stateMutability": "payable",
      "type": "function"
    },
    {
      "inputs": [
        {
          "internalType": "address",
          "name": "_recipient",
          "type": "address"
        },
        {
          "internalType": "address",
          "name": "_referrer",
          "type": "address"
        },
        {
          "internalType": "bytes",
          "name": "_data",
          "type": "bytes"
        }
      ],
      "name": "purchasePriceFor",
      "outputs": [
        {
          "internalType": "uint256",
          "name": "minKeyPrice",
          "type": "uint256"
        }
      ],
      "stateMutability": "view",
      "type": "function"
    },
    {
      "inputs": [],
      "name": "refundPenaltyBasisPoints",
      "outputs": [
        {
          "internalType": "uint256",
          "name": "",
          "type": "uint256"
        }
      ],
      "stateMutability": "view",
      "type": "function"
    },
    {
      "inputs": [
        {
          "internalType": "uint256",
          "name": "_tokenId",
          "type": "uint256"
        },
        {
          "internalType": "address",
          "name": "_referrer",
          "type": "address"
        }
      ],
      "name": "renewMembershipFor",
      "outputs": [],
      "stateMutability": "nonpayable",
      "type": "function"
    },
    {
      "inputs": [],
      "name": "renounceLockManager",
      "outputs": [],
      "stateMutability": "nonpayable",
      "type": "function"
    },
    {
      "inputs": [
        {
          "internalType": "bytes32",
          "name": "role",
          "type": "bytes32"
        },
        {
          "internalType": "address",
          "name": "account",
          "type": "address"
        }
      ],
      "name": "renounceRole",
      "outputs": [],
      "stateMutability": "nonpayable",
      "type": "function"
    },
    {
      "inputs": [
        {
          "internalType": "address",
          "name": "_granter",
          "type": "address"
        }
      ],
      "name": "revokeKeyGranter",
      "outputs": [],
      "stateMutability": "nonpayable",
      "type": "function"
    },
    {
      "inputs": [
        {
          "internalType": "bytes32",
          "name": "role",
          "type": "bytes32"
        },
        {
          "internalType": "address",
          "name": "account",
          "type": "address"
        }
      ],
      "name": "revokeRole",
      "outputs": [],
      "stateMutability": "nonpayable",
      "type": "function"
    },
    {
      "inputs": [
        {
          "internalType": "address",
          "name": "_from",
          "type": "address"
        },
        {
          "internalType": "address",
          "name": "_to",
          "type": "address"
        },
        {
          "internalType": "uint256",
          "name": "_tokenId",
          "type": "uint256"
        }
      ],
      "name": "safeTransferFrom",
      "outputs": [],
      "stateMutability": "nonpayable",
      "type": "function"
    },
    {
      "inputs": [
        {
          "internalType": "address",
          "name": "_from",
          "type": "address"
        },
        {
          "internalType": "address",
          "name": "_to",
          "type": "address"
        },
        {
          "internalType": "uint256",
          "name": "_tokenId",
          "type": "uint256"
        },
        {
          "internalType": "bytes",
          "name": "_data",
          "type": "bytes"
        }
      ],
      "name": "safeTransferFrom",
      "outputs": [],
      "stateMutability": "nonpayable",
      "type": "function"
    },
    {
      "inputs": [],
      "name": "schemaVersion",
      "outputs": [
        {
          "internalType": "uint256",
          "name": "",
          "type": "uint256"
        }
      ],
      "stateMutability": "view",
      "type": "function"
    },
    {
      "inputs": [
        {
          "internalType": "address",
          "name": "_to",
          "type": "address"
        },
        {
          "internalType": "bool",
          "name": "_approved",
          "type": "bool"
        }
      ],
      "name": "setApprovalForAll",
      "outputs": [],
      "stateMutability": "nonpayable",
      "type": "function"
    },
    {
      "inputs": [
        {
          "internalType": "string",
          "name": "_baseTokenURI",
          "type": "string"
        }
      ],
      "name": "setBaseTokenURI",
      "outputs": [],
      "stateMutability": "nonpayable",
      "type": "function"
    },
    {
      "inputs": [
        {
          "internalType": "address",
          "name": "_onKeyPurchaseHook",
          "type": "address"
        },
        {
          "internalType": "address",
          "name": "_onKeyCancelHook",
          "type": "address"
        },
        {
          "internalType": "address",
          "name": "_onValidKeyHook",
          "type": "address"
        },
        {
          "internalType": "address",
          "name": "_onTokenURIHook",
          "type": "address"
        }
      ],
      "name": "setEventHooks",
      "outputs": [],
      "stateMutability": "nonpayable",
      "type": "function"
    },
    {
      "inputs": [
        {
          "internalType": "uint256",
          "name": "_newExpirationDuration",
          "type": "uint256"
        }
      ],
      "name": "setExpirationDuration",
      "outputs": [],
      "stateMutability": "nonpayable",
      "type": "function"
    },
    {
      "inputs": [
        {
          "internalType": "uint256",
          "name": "_refundValue",
          "type": "uint256"
        }
      ],
      "name": "setGasRefundValue",
      "outputs": [],
      "stateMutability": "nonpayable",
      "type": "function"
    },
    {
      "inputs": [
        {
          "internalType": "uint256",
          "name": "_tokenId",
          "type": "uint256"
        },
        {
          "internalType": "address",
          "name": "_keyManager",
          "type": "address"
        }
      ],
      "name": "setKeyManagerOf",
      "outputs": [],
      "stateMutability": "nonpayable",
      "type": "function"
    },
    {
      "inputs": [
        {
          "internalType": "uint256",
          "name": "_maxKeys",
          "type": "uint256"
        }
      ],
      "name": "setMaxKeysPerAddress",
      "outputs": [],
      "stateMutability": "nonpayable",
      "type": "function"
    },
    {
      "inputs": [
        {
          "internalType": "uint256",
          "name": "_maxNumberOfKeys",
          "type": "uint256"
        }
      ],
      "name": "setMaxNumberOfKeys",
      "outputs": [],
      "stateMutability": "nonpayable",
      "type": "function"
    },
    {
      "inputs": [
        {
          "internalType": "address",
          "name": "account",
          "type": "address"
        }
      ],
      "name": "setOwner",
      "outputs": [],
      "stateMutability": "nonpayable",
      "type": "function"
    },
    {
      "inputs": [
        {
          "internalType": "address",
          "name": "_to",
          "type": "address"
        },
        {
          "internalType": "uint256",
          "name": "_tokenIdFrom",
          "type": "uint256"
        },
        {
          "internalType": "uint256",
          "name": "_timeShared",
          "type": "uint256"
        }
      ],
      "name": "shareKey",
      "outputs": [],
      "stateMutability": "nonpayable",
      "type": "function"
    },
    {
      "inputs": [
        {
          "internalType": "bytes4",
          "name": "interfaceId",
          "type": "bytes4"
        }
      ],
      "name": "supportsInterface",
      "outputs": [
        {
          "internalType": "bool",
          "name": "",
          "type": "bool"
        }
      ],
      "stateMutability": "view",
      "type": "function"
    },
    {
      "inputs": [],
      "name": "symbol",
      "outputs": [
        {
          "internalType": "string",
          "name": "",
          "type": "string"
        }
      ],
      "stateMutability": "view",
      "type": "function"
    },
    {
      "inputs": [],
      "name": "tokenAddress",
      "outputs": [
        {
          "internalType": "address",
          "name": "",
          "type": "address"
        }
      ],
      "stateMutability": "view",
      "type": "function"
    },
    {
      "inputs": [
        {
          "internalType": "uint256",
          "name": "_index",
          "type": "uint256"
        }
      ],
      "name": "tokenByIndex",
      "outputs": [
        {
          "internalType": "uint256",
          "name": "",
          "type": "uint256"
        }
      ],
      "stateMutability": "view",
      "type": "function"
    },
    {
      "inputs": [
        {
          "internalType": "address",
          "name": "_keyOwner",
          "type": "address"
        },
        {
          "internalType": "uint256",
          "name": "_index",
          "type": "uint256"
        }
      ],
      "name": "tokenOfOwnerByIndex",
      "outputs": [
        {
          "internalType": "uint256",
          "name": "",
          "type": "uint256"
        }
      ],
      "stateMutability": "view",
      "type": "function"
    },
    {
      "inputs": [
        {
          "internalType": "uint256",
          "name": "_tokenId",
          "type": "uint256"
        }
      ],
      "name": "tokenURI",
      "outputs": [
        {
          "internalType": "string",
          "name": "",
          "type": "string"
        }
      ],
      "stateMutability": "view",
      "type": "function"
    },
    {
      "inputs": [],
      "name": "totalSupply",
      "outputs": [
        {
          "internalType": "uint256",
          "name": "",
          "type": "uint256"
        }
      ],
      "stateMutability": "view",
      "type": "function"
    },
    {
      "inputs": [
        {
          "internalType": "uint256",
          "name": "_tokenId",
          "type": "uint256"
        },
        {
          "internalType": "address",
          "name": "_to",
          "type": "address"
        },
        {
          "internalType": "uint256",
          "name": "_valueBasisPoint",
          "type": "uint256"
        }
      ],
      "name": "transfer",
      "outputs": [
        {
          "internalType": "bool",
          "name": "success",
          "type": "bool"
        }
      ],
      "stateMutability": "nonpayable",
      "type": "function"
    },
    {
      "inputs": [],
      "name": "transferFeeBasisPoints",
      "outputs": [
        {
          "internalType": "uint256",
          "name": "",
          "type": "uint256"
        }
      ],
      "stateMutability": "view",
      "type": "function"
    },
    {
      "inputs": [
        {
          "internalType": "address",
          "name": "_from",
          "type": "address"
        },
        {
          "internalType": "address",
          "name": "_recipient",
          "type": "address"
        },
        {
          "internalType": "uint256",
          "name": "_tokenId",
          "type": "uint256"
        }
      ],
      "name": "transferFrom",
      "outputs": [],
      "stateMutability": "nonpayable",
      "type": "function"
    },
    {
      "inputs": [],
      "name": "unlockProtocol",
      "outputs": [
        {
          "internalType": "contract IUnlock",
          "name": "",
          "type": "address"
        }
      ],
      "stateMutability": "view",
      "type": "function"
    },
    {
      "inputs": [
        {
          "internalType": "address payable",
          "name": "_beneficiary",
          "type": "address"
        }
      ],
      "name": "updateBeneficiary",
      "outputs": [],
      "stateMutability": "nonpayable",
      "type": "function"
    },
    {
      "inputs": [
        {
          "internalType": "uint256",
          "name": "_keyPrice",
          "type": "uint256"
        },
        {
          "internalType": "address",
          "name": "_tokenAddress",
          "type": "address"
        }
      ],
      "name": "updateKeyPricing",
      "outputs": [],
      "stateMutability": "nonpayable",
      "type": "function"
    },
    {
      "inputs": [
        {
          "internalType": "string",
          "name": "_lockName",
          "type": "string"
        }
      ],
      "name": "updateLockName",
      "outputs": [],
      "stateMutability": "nonpayable",
      "type": "function"
    },
    {
      "inputs": [
        {
          "internalType": "string",
          "name": "_lockSymbol",
          "type": "string"
        }
      ],
      "name": "updateLockSymbol",
      "outputs": [],
      "stateMutability": "nonpayable",
      "type": "function"
    },
    {
      "inputs": [
        {
          "internalType": "uint256",
          "name": "_freeTrialLength",
          "type": "uint256"
        },
        {
          "internalType": "uint256",
          "name": "_refundPenaltyBasisPoints",
          "type": "uint256"
        }
      ],
      "name": "updateRefundPenalty",
      "outputs": [],
      "stateMutability": "nonpayable",
      "type": "function"
    },
    {
      "inputs": [],
      "name": "updateSchemaVersion",
      "outputs": [],
      "stateMutability": "nonpayable",
      "type": "function"
    },
    {
      "inputs": [
        {
          "internalType": "uint256",
          "name": "_transferFeeBasisPoints",
          "type": "uint256"
        }
      ],
      "name": "updateTransferFee",
      "outputs": [],
      "stateMutability": "nonpayable",
      "type": "function"
    },
    {
      "inputs": [
        {
          "internalType": "address",
          "name": "_tokenAddress",
          "type": "address"
        },
        {
          "internalType": "uint256",
          "name": "_amount",
          "type": "uint256"
        }
      ],
      "name": "withdraw",
      "outputs": [],
      "stateMutability": "nonpayable",
      "type": "function"
    },
    {
      "stateMutability": "payable",
      "type": "receive"
    }
  ],
  "bytecode": "0x608060405234801561001057600080fd5b50615ffc80620000216000396000f3fe6080604052600436106104395760003560e01c80636d8ea5b41161022b578063a98d36231161012f578063d32bfb6c116100b1578063d32bfb6c14610dbb578063d52e4a1014610ddb578063d547741f14610df1578063d813cc1914610e11578063e985e9c514610e24578063f0ba604014610e44578063f12c6b6e14610e59578063f32e8b2414610e79578063f3fef3a314610e8e578063f5766b3914610eae578063f8548e3614610ece57600080fd5b8063a98d362314610c4c578063aae4b8f714610c7f578063b11d7ec114610c9f578063b1a3b25d14610cbf578063b585a6d514610cdf578063b88d4fde14610cff578063bf4a927014610d1f578063c87b56dd14610d3f578063cb0703c614610d5f578063d1bbd49c14610d7f578063d250348514610d9b57600080fd5b80638ca2fbad116101b85780638ca2fbad14610b125780638da5cb5b14610b3457806391d1485414610b5357806392ac98a514610b7357806393fd184414610b9357806395d89b4114610baa5780639d76ea5814610bbf578063a217fddf14610be0578063a22cb46514610bf5578063a2e4cd2e14610c15578063a375cb0514610c3557600080fd5b80636d8ea5b4146109da5780636eadde43146109fa57806370a0823114610a1a57806374b6c10614610a3a578063782a4ade14610a515780637ec2a72414610a7157806381a3c94314610a925780638505fe9514610ab25780638577a6d514610ad25780638932a90d14610af257600080fd5b80632f54bf6e1161033d5780634e2ce6d3116102bf5780634e2ce6d3146108855780634f6ccce71461089c57806352b0f638146108bc57806354b249fb146108dc578063550ef3a81461090d578063558b71e91461092d578063564aa99d1461094d57806356e0d51f1461096d5780636207a8da14610984578063626485a31461099a5780636352211e146109ba57600080fd5b80632f54bf6e1461070a5780632f745c591461073a57806330176e131461075a57806331159a171461077a578063338189971461079a57806336568abe146107ad57806338af3eed146107cd57806339f46986146107ee57806342842e0e1461080e57806342966c681461082e5780634d025fed1461084e57600080fd5b806313af4035116103c657806313af4035146105a857806318160ddd146105c8578063183767da146105de578063217751bc146105f5578063231005091461061657806323b872dd14610638578063248a9ca31461065857806326e9ca07146106885780632af9162a146106a95780632d33dd5b146106c95780632f2ff15d146106ea57600080fd5b806301ffc9a714610445578063068208cd1461047a57806306fdde031461049c578063081812fc146104be578063095ea7b3146104eb578063097ba3331461050b5780630aaffd2a146105395780630f15023b1461055957806310e569731461057a57806311a4c03a1461059157600080fd5b3661044057005b600080fd5b34801561045157600080fd5b50610465610460366004615700565b610eee565b60405190151581526020015b60405180910390f35b34801561048657600080fd5b5061049a6104953660046158bc565b610eff565b005b3480156104a857600080fd5b506104b1610faa565b6040516104719190615b1d565b3480156104ca57600080fd5b506104de6104d93660046156c2565b611039565b6040516104719190615a1f565b3480156104f757600080fd5b5061049a6105063660046154f3565b611061565b34801561051757600080fd5b5061052b6105263660046153b8565b6110fc565b604051908152602001610471565b34801561054557600080fd5b5061049a610554366004615281565b6111ac565b34801561056557600080fd5b50610c83546104de906001600160a01b031681565b34801561058657600080fd5b5061052b610c855481565b34801561059d57600080fd5b5061052b610c845481565b3480156105b457600080fd5b5061049a6105c3366004615281565b6111fd565b3480156105d457600080fd5b50610c875461052b565b3480156105ea57600080fd5b5061052b6124075481565b34801561060157600080fd5b50610c8a546104de906001600160a01b031681565b34801561062257600080fd5b5061052b600080516020615f6783398151915281565b34801561064457600080fd5b5061049a610653366004615419565b6112bb565b34801561066457600080fd5b5061052b6106733660046156c2565b60009081526097602052604090206001015490565b34801561069457600080fd5b50610c8b546104de906001600160a01b031681565b3480156106b557600080fd5b5061049a6106c4366004615281565b61145f565b3480156106d557600080fd5b50610c89546104de906001600160a01b031681565b3480156106f657600080fd5b5061049a6107053660046156db565b6114b6565b34801561071657600080fd5b50610465610725366004615281565b612bda546001600160a01b0390811691161490565b34801561074657600080fd5b5061052b6107553660046154f3565b6114dc565b34801561076657600080fd5b5061049a61077536600461573a565b61155b565b34801561078657600080fd5b5061049a6107953660046156c2565b611570565b61049a6107a83660046155ed565b6115b8565b3480156107b957600080fd5b5061049a6107c83660046156db565b611a72565b3480156107d957600080fd5b50610c88546104de906001600160a01b031681565b3480156107fa57600080fd5b5061049a610809366004615831565b611af0565b34801561081a57600080fd5b5061049a610829366004615419565b611b3e565b34801561083a57600080fd5b5061049a6108493660046156c2565b611b59565b34801561085a57600080fd5b506104de6108693660046156c2565b611078602052600090815260409020546001600160a01b031681565b34801561089157600080fd5b5061052b610c8d5481565b3480156108a857600080fd5b5061052b6108b73660046156c2565b611baa565b3480156108c857600080fd5b506104656108d7366004615281565b611bf1565b3480156108e857600080fd5b5061052b6108f73660046156c2565b600090815261107b602052604090206001015490565b34801561091957600080fd5b5061049a61092836600461573a565b611c0b565b34801561093957600080fd5b5061049a610948366004615831565b611c20565b34801561095957600080fd5b5061049a610968366004615281565b611c44565b34801561097957600080fd5b5061052b6127f05481565b34801561099057600080fd5b5061201e5461052b565b3480156109a657600080fd5b5061049a6109b53660046156c2565b611c9b565b3480156109c657600080fd5b506104de6109d53660046156c2565b611ca9565b3480156109e657600080fd5b506104656109f5366004615281565b611cc5565b348015610a0657600080fd5b5061049a610a1536600461529e565b611dc2565b348015610a2657600080fd5b5061052b610a35366004615281565b611f26565b348015610a4657600080fd5b5061052b610c865481565b348015610a5d57600080fd5b5061049a610a6c36600461573a565b611f6b565b348015610a7d57600080fd5b50610c8c546104de906001600160a01b031681565b348015610a9e57600080fd5b5061049a610aad366004615554565b611fb2565b348015610abe57600080fd5b5061049a610acd3660046156db565b612104565b348015610ade57600080fd5b5061049a610aed3660046156c2565b6123da565b348015610afe57600080fd5b5061049a610b0d36600461573a565b61241b565b348015610b1e57600080fd5b5061052b600080516020615fa783398151915281565b348015610b4057600080fd5b50612bda546001600160a01b03166104de565b348015610b5f57600080fd5b50610465610b6e3660046156db565b61263e565b348015610b7f57600080fd5b5061052b610b8e3660046156c2565b612669565b348015610b9f57600080fd5b5061052b6110775481565b348015610bb657600080fd5b506104b1612759565b348015610bcb57600080fd5b506104b1546104de906001600160a01b031681565b348015610bec57600080fd5b5061052b600081565b348015610c0157600080fd5b5061049a610c103660046154c5565b612892565b348015610c2157600080fd5b5061049a610c303660046156db565b61294c565b348015610c4157600080fd5b5061052b6127f15481565b348015610c5857600080fd5b50610465610c673660046156c2565b600090815261107b6020526040902060010154421090565b348015610c8b57600080fd5b50610465610c9a366004615281565b6129da565b348015610cab57600080fd5b5061049a610cba3660046156db565b6129f4565b348015610ccb57600080fd5b5061052b610cda366004615831565b612a6c565b348015610ceb57600080fd5b50610465610cfa3660046154f3565b612adc565b348015610d0b57600080fd5b5061049a610d1a36600461545a565b612b6d565b348015610d2b57600080fd5b5061049a610d3a3660046156c2565b612ba0565b348015610d4b57600080fd5b506104b1610d5a3660046156c2565b612bf7565b348015610d6b57600080fd5b5061049a610d7a36600461535c565b612ea6565b348015610d8b57600080fd5b50604051600a8152602001610471565b348015610da757600080fd5b5061049a610db6366004615281565b61309d565b348015610dc757600080fd5b5061049a610dd63660046156c2565b6130f4565b348015610de757600080fd5b50610c8e5461052b565b348015610dfd57600080fd5b5061049a610e0c3660046156db565b613126565b61049a610e1f366004615853565b61314c565b348015610e3057600080fd5b50610465610e3f366004615323565b6132a7565b348015610e5057600080fd5b5061049a6132d6565b348015610e6557600080fd5b5061049a610e7436600461551f565b61331b565b348015610e8557600080fd5b5061049a613517565b348015610e9a57600080fd5b5061049a610ea93660046154f3565b613527565b348015610eba57600080fd5b5061049a610ec93660046156c2565b613686565b348015610eda57600080fd5b50610465610ee936600461580a565b613694565b6000610ef9826136f6565b92915050565b610f0883613701565b610f118361374e565b610f1a8361379f565b610f2382613701565b8042610f3f85600090815261107b602052604090206001015490565b610f499190615e41565b11610f8d5760405162461bcd60e51b815260206004820152600f60248201526e4e4f545f454e4f5547485f54494d4560881b60448201526064015b60405180910390fd5b610f9983826000613840565b610fa582826001613840565b505050565b6114638054610fb890615e9b565b80601f0160208091040260200160405190810160405280929190818152602001828054610fe490615e9b565b80156110315780601f1061100657610100808354040283529160200191611031565b820191906000526020600020905b81548152906001019060200180831161101457829003601f168201915b505050505081565b600061104482613701565b50600090815261107960205260409020546001600160a01b031690565b61106a8161379f565b336001600160a01b03831614156110935760405162461bcd60e51b8152600401610f8490615c38565b60008181526110796020908152604080832080546001600160a01b0319166001600160a01b03878116918217909255611076909352818420549151859492909116917f8c5be1e5ebec7d5bd14f71427d1e84f3dd0314c0f7b2291e5b200ac8c7c3b92591a45050565b610c89546000906001600160a01b03161561119f57610c895460405163221c1fd160e01b81526001600160a01b039091169063221c1fd190611148903390889088908890600401615aa2565b60206040518083038186803b15801561116057600080fd5b505afa158015611174573d6000803e3d6000fd5b505050506040513d601f19601f8201168201806040525081019061119891906157f1565b90506111a5565b50610c85545b9392505050565b6111b46138f6565b6001600160a01b0381166111da5760405162461bcd60e51b8152600401610f8490615b60565b610c8880546001600160a01b0319166001600160a01b0392909216919091179055565b611205613963565b6001600160a01b0381166112585760405162461bcd60e51b815260206004820152601a6024820152794f574e45525f43414e545f42455f414444524553535f5a45524f60301b6044820152606401610f84565b612bda80546001600160a01b038381166001600160a01b031983168117909355604080519190921680825260208201939093527f8be0079c531659141344cd1fd0a4f28419497f9722a3daafe3b4186f6b6457e091015b60405180910390a15050565b6112c48161374e565b6112cd8161379f565b826001600160a01b03166112e082611ca9565b6001600160a01b0316146113365760405162461bcd60e51b815260206004820152601c60248201527f5452414e534645525f46524f4d3a204e4f545f4b45595f4f574e4552000000006044820152606401610f84565b612710612407541061135a5760405162461bcd60e51b8152600401610f8490615b30565b6001600160a01b0382166113805760405162461bcd60e51b8152600401610f8490615b60565b816001600160a01b0316836001600160a01b031614156113b25760405162461bcd60e51b8152600401610f8490615be7565b6113c8816113c1836000612a6c565b6000613840565b600081815261107b602052604090206113e083611f26565b6113fb5761107780549060006113f583615ed0565b91905055505b611404826139bb565b61140e8284613ac2565b611419826000613b81565b61142282613c0e565b600082815261202060205260408082208290555183916001600160a01b038087169290881691600080516020615f8783398151915291a450505050565b611467613963565b61147f600080516020615f6783398151915282613126565b6040516001600160a01b038216907f766f6199fea59554b9ff688e413302b9200f85d74811c053c12d945ac6d8dd7a90600090a250565b6000828152609760205260409020600101546114d28133613c4b565b610fa58383613caf565b60006114e783611f26565b82106115315760405162461bcd60e51b81526020600482015260196024820152784f574e45525f494e4445585f4f55545f4f465f424f554e445360381b6044820152606401610f84565b506001600160a01b0391909116600090815261107c60209081526040808320938352929052205490565b611563613963565b610fa56114658383615039565b611578613963565b806115b25760405162461bcd60e51b815260206004820152600a6024820152694e554c4c5f56414c554560b01b6044820152606401610f84565b610c8e55565b6115c0613d35565b610c8754610c8654116115e55760405162461bcd60e51b8152600401610f8490615c11565b83518551146116315760405162461bcd60e51b81526020600482015260186024820152770929cac82989288bea48a8c8aa4a48aa4a6be988a9c8ea8960431b6044820152606401610f84565b82518551146116825760405162461bcd60e51b815260206004820152601b60248201527f494e56414c49445f4b45595f4d414e41474552535f4c454e47544800000000006044820152606401610f84565b60008060005b875181101561199d5760008882815181106116a5576116a5615f01565b6020026020010151905060006001600160a01b0316816001600160a01b031614156116e25760405162461bcd60e51b8152600401610f8490615b60565b600019610c8454141561171c576117158188848151811061170557611705615f01565b6020026020010151600019613d7d565b9250611751565b61174e8188848151811061173257611732615f01565b6020026020010151610c8454426117499190615da0565b613d7d565b92505b60006117cf828a858151811061176957611769615f01565b602002602001015189898781811061178357611783615f01565b90506020028101906117959190615ce0565b8080601f0160208091040260200160405190810160405280939291908181526020018383808284376000920191909152506110fc92505050565b90506117db8186615da0565b600085815261201f60209081526040808320859055610c84546120208352818420556104b18054612021909352922080546001600160a01b0319166001600160a01b0392831617905590549196501615611868578a838151811061184157611841615f01565b60200260200101518111156118685760405162461bcd60e51b8152600401610f8490615b89565b61188b818a858151811061187e5761187e615f01565b6020026020010151613e2d565b6104b1546000906001600160a01b0316156118bf578b84815181106118b2576118b2615f01565b60200260200101516118c1565b345b610c89549091506001600160a01b03161561198757610c89548a516001600160a01b0390911690639849965790339086908e908990811061190457611904615f01565b60200260200101518c8c8a81811061191e5761191e615f01565b90506020028101906119309190615ce0565b88886040518863ffffffff1660e01b81526004016119549796959493929190615a57565b600060405180830381600087803b15801561196e57600080fd5b505af1158015611982573d6000803e3d6000fd5b505050505b505050808061199590615ed0565b915050611688565b506104b1546001600160a01b031615611a40576104b1546040516323b872dd60e01b81526001600160a01b039091169081906323b872dd906119e790339030908890600401615a33565b602060405180830381600087803b158015611a0157600080fd5b505af1158015611a15573d6000803e3d6000fd5b505050506040513d601f19601f82011682018060405250810190611a3991906156a5565b5050611a60565b34821115611a605760405162461bcd60e51b8152600401610f8490615bbb565b611a68613f32565b5050505050505050565b6001600160a01b0381163314611ae25760405162461bcd60e51b815260206004820152602f60248201527f416363657373436f6e74726f6c3a2063616e206f6e6c792072656e6f756e636560448201526e103937b632b9903337b91039b2b63360891b6064820152608401610f84565b611aec82826140ba565b5050565b611af8613963565b60408051838152602081018390527fd6867bc538320e67d7bdc35860c27c08486eb490b4fd9b820fff18fb28381d3c910160405180910390a16127f1919091556127f055565b610fa583838360405180602001604052806000815250612b6d565b611b6281613701565b611b6b8161379f565b600081815261107660205260408082205490518392916001600160a01b031690600080516020615f87833981519152908390a4611ba781614121565b50565b6000610c87548210611bed5760405162461bcd60e51b815260206004820152600c60248201526b4f55545f4f465f52414e474560a01b6044820152606401610f84565b5090565b6000610ef9600080516020615f678339815191528361263e565b611c13613963565b610fa56114638383615039565b611c2982613701565b611c328261374e565b611c3a613963565b611aec828261415b565b611c4c613963565b611c64600080516020615f67833981519152826114b6565b6040516001600160a01b038216907f684f8a71407db0c334454ebe9c9b288549317893a20b10dc779ec5c118dcd12190600090a250565b611ca3613963565b610c8455565b600090815261107660205260409020546001600160a01b031690565b600080611cd183611f26565b90508015611d145760005b81811015611d1257611cf1610c6785836114dc565b15611d00575060019392505050565b80611d0a81615ed0565b915050611cdc565b505b610c8b546001600160a01b031615611dbc57610c8b546040516370b6638f60e11b81523060048201526001600160a01b0385811660248301526000604483015284151560648301529091169063e16cc71e9060840160206040518083038186803b158015611d8157600080fd5b505afa158015611d95573d6000803e3d6000fd5b505050506040513d601f19601f82011682018060405250810190611db991906156a5565b91505b50919050565b600054610100900460ff16611ddd5760005460ff1615611de1565b303b155b611e445760405162461bcd60e51b815260206004820152602e60248201527f496e697469616c697a61626c653a20636f6e747261637420697320616c72656160448201526d191e481a5b9a5d1a585b1a5e995960921b6064820152608401610f84565b600054610100900460ff16158015611e66576000805461ffff19166101011790555b611e6f86614262565b610c838054336001600160a01b031991821617909155610c8880549091166001600160a01b038a16179055610c84879055610c85859055610c86849055600a610c8d556001610c8e55611ec2838361428e565b611eca6142b4565b611ed66103e86127f055565b611edf886142c4565b612bda80546001600160a01b0319166001600160a01b038a16179055611f0b6380ac58cd60e01b61434c565b8015611a68576000805461ff00191690555050505050505050565b60006001600160a01b038216611f4e5760405162461bcd60e51b8152600401610f8490615b60565b506001600160a01b0316600090815261107e602052604090205490565b611f73613963565b611f806114648383615039565b507f8868e22e84ebf32da89b2ebcb0ac642816304ea3863b257f240df9098719cb9782826040516112af929190615b09565b611fba613d35565b611fc333611bf1565b80611fd25750611fd2336129da565b61201e5760405162461bcd60e51b815260206004820181905260248201527f4f4e4c595f4c4f434b5f4d414e414745525f4f525f4b45595f4752414e5445526044820152606401610f84565b60005b858110156120fb57600087878381811061203d5761203d615f01565b90506020020160208101906120529190615281565b6001600160a01b031614156120795760405162461bcd60e51b8152600401610f8490615b60565b6120e887878381811061208e5761208e615f01565b90506020020160208101906120a39190615281565b8484848181106120b5576120b5615f01565b90506020020160208101906120ca9190615281565b8787858181106120dc576120dc615f01565b90506020020135613d7d565b50806120f381615ed0565b915050612021565b50505050505050565b61210c613d35565b61211582613701565b60008281526120206020526040902054600019141561216a5760405162461bcd60e51b81526020600482015260116024820152704e4f4e5f4558504952494e475f4c4f434b60781b6044820152606401610f84565b6104b1546001600160a01b03166121b45760405162461bcd60e51b815260206004820152600e60248201526d4e4f4e5f45524332305f4c4f434b60901b6044820152606401610f84565b60006121d86121c284611ca9565b83604051806020016040528060008152506110fc565b600084815261201f602052604090205490915081146122295760405162461bcd60e51b815260206004820152600d60248201526c14149250d157d0d2105391d151609a1b6044820152606401610f84565b610c8454600084815261202060205260409020541461227d5760405162461bcd60e51b815260206004820152601060248201526f11155490551253d397d0d2105391d15160821b6044820152606401610f84565b6104b154600084815261202160205260409020546001600160a01b039081169116146122db5760405162461bcd60e51b815260206004820152600d60248201526c1513d2d15397d0d2105391d151609a1b6044820152606401610f84565b600083815261107b60205260409020600101544210156123295760405162461bcd60e51b81526020600482015260096024820152684e4f545f524541445960b81b6044820152606401610f84565b612332836143cb565b5061233d8183613e2d565b6104b1546001600160a01b0316806323b872dd61235986611ca9565b30856040518463ffffffff1660e01b815260040161237993929190615a33565b602060405180830381600087803b15801561239357600080fd5b505af11580156123a7573d6000803e3d6000fd5b505050506040513d601f19601f820116820180604052508101906123cb91906156a5565b506123d4613f32565b50505050565b6123e2613963565b6040518181527f0496ed1e61eb69727f9659a8e859288db4758ffb1f744d1c1424634f90a257f49060200160405180910390a161240755565b6124276001600a615e1e565b61ffff16610c8d54148061243c5750610c8d54155b6124855760405162461bcd60e51b815260206004820152601a60248201527914d0d211535057d5915494d253d397d393d517d0d3d4949150d560321b6044820152606401610f84565b610c8e54612494576001610c8e555b6000808060006124a4610c875490565b610c83549091506001600160a01b03163314156124c457606491506124d6565b6124d085870187615831565b90945091505b808211156124e2578091505b835b6124ee8386615da0565b8110156125f4576000612502826001615da0565b600081815261107660209081526040808320546001600160a01b031680845261107583529281902081518083019092528054808352600190910154928201929092529293509091901580159061255b5750602081015115155b156125de5760408051808201909152815181526020808301519082015261107b6000612588876001615da0565b81526020808201929092526040908101600090812084518155938301516001948501556001600160a01b03861681526110759092528120818155909101556125d08383613ac2565b866125da81615ed0565b9750505b50505080806125ec90615ed0565b9150506124e4565b5080821061260357600a610c8d555b6040518381527f4e075b7dcd463fe1b504dad3ccd1c4f87011a70c1e50f1805183df5d559834cd9060200160405180910390a1505050505050565b60009182526097602090815260408084206001600160a01b0393909316845291905290205460ff1690565b60006126748261374e565b600019610c8454141561268a575050610c855490565b600082815261107b60205260408120600101546126a8904290615e41565b9050610c84546127f154826126bd9190615da0565b106126cd57610c855491506126ed565b610c845481610c85546126e09190615dff565b6126ea9190615ddd565b91505b6127f154158061270c5750610c84546127f15461270a9083615da0565b105b15611dbc5760006127106127f054610c85546127289190615dff565b6127329190615ddd565b90508083111561274d576127468184615e41565b9250612752565b600092505b5050919050565b6060611464805461276990615e9b565b1515905061280157610c8360009054906101000a90046001600160a01b03166001600160a01b031663cec410526040518163ffffffff1660e01b815260040160006040518083038186803b1580156127c057600080fd5b505afa1580156127d4573d6000803e3d6000fd5b505050506040513d6000823e601f3d908101601f191682016040526127fc919081019061577b565b905090565b611464805461280f90615e9b565b80601f016020809104026020016040519081016040528092919081815260200182805461283b90615e9b565b80156128885780601f1061285d57610100808354040283529160200191612888565b820191906000526020600020905b81548152906001019060200180831161286b57829003601f168201915b5050505050905090565b6001600160a01b0382163314156128bb5760405162461bcd60e51b8152600401610f8490615c38565b61271061240754106128df5760405162461bcd60e51b8152600401610f8490615b30565b33600081815261107a602090815260408083206001600160a01b03871680855290835292819020805460ff191686151590811790915590519081529192917f17307eab39ab6107e8899845ad3d59bd9653f200f220920489ca2b5937696c31910160405180910390a35050565b612954613963565b61295d816144cc565b610c8580546104b18054928590556001600160a01b031983166001600160a01b0385811691821790925560408051848152602081018890529290941693820184905260608201529091907f3615065ccf48367ac483ac86701248e2e5ff55bdd9be845007d34a3b68d719d49060800160405180910390a150505050565b6000610ef9600080516020615fa78339815191528361263e565b6129fd82613701565b612a07823361458e565b80612a165750612a16336129da565b612a625760405162461bcd60e51b815260206004820152601f60248201527f554e415554484f52495a45445f4b45595f4d414e414745525f555044415445006044820152606401610f84565b611aec8282613b81565b6000612a7783613701565b600083815261107b602052604090206001015442811015612a9c576000915050610ef9565b600083612ab457612aad4283615e41565b9050612ab7565b50825b6127106124075482612ac99190615dff565b612ad39190615ddd565b92505050610ef9565b6000612ae66138f6565b6104b15460405163095ea7b360e01b81526001600160a01b038581166004830152602482018590529091169063095ea7b390604401602060405180830381600087803b158015612b3557600080fd5b505af1158015612b49573d6000803e3d6000fd5b505050506040513d601f19601f820116820180604052508101906111a591906156a5565b612b788484846112bb565b612b8484848484614606565b6123d45760405162461bcd60e51b8152600401610f8490615ca9565b612ba8613963565b610c8754811015612bf15760405162461bcd60e51b8152602060048201526013602482015272534d414c4c45525f5448414e5f535550504c5960681b6044820152606401610f84565b610c8655565b606080806000612c06306146c5565b905060608515612c2057612c19866148b0565b9250612c33565b6040518060200160405280600081525092505b610c8c546001600160a01b031615612d1957600086815261107b6020526040902060010154610c8c546001600160a01b031663988b93ad3033612c758b611ca9565b60405160e085901b6001600160e01b03191681526001600160a01b03938416600482015291831660248301529091166044820152606481018a90526084810184905260a40160006040518083038186803b158015612cd257600080fd5b505afa158015612ce6573d6000803e3d6000fd5b505050506040513d6000823e601f3d908101601f19168201604052612d0e919081019061577b565b979650505050505050565b6114658054612d2790615e9b565b15159050612ddd57610c8360009054906101000a90046001600160a01b03166001600160a01b031663a998e9fb6040518163ffffffff1660e01b815260040160006040518083038186803b158015612d7e57600080fd5b505afa158015612d92573d6000803e3d6000fd5b505050506040513d6000823e601f3d908101601f19168201604052612dba919081019061577b565b9350604051806040016040528060018152602001602f60f81b8152509050612e90565b6114658054612deb90615e9b565b80601f0160208091040260200160405190810160405280929190818152602001828054612e1790615e9b565b8015612e645780601f10612e3957610100808354040283529160200191612e64565b820191906000526020600020905b815481529060010190602001808311612e4757829003601f168201915b505050505093506040518060200160405280600081525090506040518060200160405280600081525091505b612e9c848383866149dc565b9695505050505050565b612eae613963565b6001600160a01b0384161580612ecd57506001600160a01b0384163b15155b612f145760405162461bcd60e51b8152602060048201526018602482015277494e56414c49445f4f4e5f4b45595f534f4c445f484f4f4b60401b6044820152606401610f84565b6001600160a01b0383161580612f3357506001600160a01b0383163b15155b612f7c5760405162461bcd60e51b815260206004820152601a602482015279494e56414c49445f4f4e5f4b45595f43414e43454c5f484f4f4b60301b6044820152606401610f84565b6001600160a01b0382161580612f9b57506001600160a01b0382163b15155b612fe35760405162461bcd60e51b8152602060048201526019602482015278494e56414c49445f4f4e5f56414c49445f4b45595f484f4f4b60381b6044820152606401610f84565b6001600160a01b038116158061300257506001600160a01b0381163b15155b61304a5760405162461bcd60e51b8152602060048201526019602482015278494e56414c49445f4f4e5f544f4b454e5f5552495f484f4f4b60381b6044820152606401610f84565b610c8980546001600160a01b039586166001600160a01b031991821617909155610c8a805494861694821694909417909355610c8c8054918516918416919091179055610c8b8054919093169116179055565b6130a5613963565b6130bd600080516020615fa7833981519152826114b6565b6040516001600160a01b038216907f91d5c045d5bd98bf59a379b259ebca05b93bf79af1845fdf87e3172385d4c7f790600090a250565b6130fd81613701565b6131068161374e565b61310f8161379f565b600061311a82612669565b9050611aec828261415b565b6000828152609760205260409020600101546131428133613c4b565b610fa583836140ba565b613154613d35565b61315d84613701565b613166846143cb565b5060006131b261317586611ca9565b8585858080601f0160208091040260200160405190810160405280939291908181526020018383808284376000920191909152506110fc92505050565b6104b1549091506001600160a01b03161561327757858111156131e75760405162461bcd60e51b8152600401610f8490615b89565b6104b1546040516323b872dd60e01b81526001600160a01b039091169081906323b872dd9061321e90339030908790600401615a33565b602060405180830381600087803b15801561323857600080fd5b505af115801561324c573d6000803e3d6000fd5b505050506040513d601f19601f8201168201806040525081019061327091906156a5565b5050613297565b348111156132975760405162461bcd60e51b8152600401610f8490615bbb565b61329f613f32565b505050505050565b6001600160a01b03918216600090815261107a6020908152604080832093909416825291909152205460ff1690565b6132ee600080516020615fa783398151915233611a72565b60405133907f42885193b8178d25fca25a38e6fcc93918501e91be06d85e0c8afb3bad95238090600090a2565b613323613d35565b610c8754610c8654116133485760405162461bcd60e51b8152600401610f8490615c11565b6133518261379f565b61335a8261374e565b612710612407541061337e5760405162461bcd60e51b8152600401610f8490615b30565b6001600160a01b0383166133a45760405162461bcd60e51b8152600401610f8490615b60565b600082815261107660205260409020546001600160a01b039081169084168114156133e15760405162461bcd60e51b8152600401610f8490615be7565b600083815261107b60205260408120600101548190613401904290615e41565b9050600061340f8686612a6c565b9050600061341d8287615da0565b90508281101561343b5785935061343687826000613840565b613493565b6134458784612a6c565b91506134518284615e41565b600088815261107b6020526040808220426001909101555191955088917f59f2fe866dd27a1c2d34115520888c3150365cbc931aab97fa88c4b9ab40b7959190a25b60006134a489826117498842615da0565b905080896001600160a01b0316876001600160a01b0316600080516020615f8783398151915260405160405180910390a46134f0868a8360405180602001604052806000815250614606565b61350c5760405162461bcd60e51b8152600401610f8490615ca9565b505050505050505050565b61351f613963565b600a610c8d55565b61352f6138f6565b60006001600160a01b0383166135465750476135c5565b6040516370a0823160e01b81526001600160a01b038416906370a0823190613572903090600401615a1f565b60206040518083038186803b15801561358a57600080fd5b505afa15801561359e573d6000803e3d6000fd5b505050506040513d601f19601f820116820180604052508101906135c291906157f1565b90505b60008215806135d357508183115b15613622576000821161361b5760405162461bcd60e51b815260206004820152601060248201526f4e4f545f454e4f5547485f46554e445360801b6044820152606401610f84565b5080613625565b50815b610c88546040518281526001600160a01b039182169186169033907f342e7ff505a8a0364cd0dc2ff195c315e43bce86b204846ecd36913e117b109e9060200160405180910390a4610c88546123d49085906001600160a01b031683614a0e565b61368e613963565b61201e55565b600061369f8461374e565b600061271083426136c088600090815261107b602052604090206001015490565b6136ca9190615e41565b6136d49190615dff565b6136de9190615ddd565b90506136eb84868361331b565b506001949350505050565b6000610ef982614a4a565b600081815261107b6020526040902060010154611ba75760405162461bcd60e51b815260206004820152600b60248201526a4e4f5f535543485f4b455960a81b6044820152606401610f84565b600081815261107b60205260409020600101544210611ba75760405162461bcd60e51b815260206004820152600d60248201526c12d15657d393d517d590531251609a1b6044820152606401610f84565b6137a9813361458e565b806137cb5750600081815261107960205260409020546001600160a01b031633145b806137f45750600081815261107660205260409020546137f4906001600160a01b0316336132a7565b611ba75760405162461bcd60e51b815260206004820152601c60248201527f4f4e4c595f4b45595f4d414e414745525f4f525f415050524f564544000000006044820152606401610f84565b61384983613701565b600083815261107b60205260409020600101548115613896574281111561388c576138748382615da0565b600085815261107b60205260409020600101556138b4565b6138748342615da0565b6138a08382615e41565b600085815261107b60205260409020600101555b60408051848152831515602082015285917fe9408df99703ae33a9d01185bcad328ea8683fb1f920da9c30959c192f21b5b3910160405180910390a250505050565b6138ff336129da565b806139155750610c88546001600160a01b031633145b6139615760405162461bcd60e51b815260206004820181905260248201527f4f4e4c595f4c4f434b5f4d414e414745525f4f525f42454e45464943494152596044820152606401610f84565b565b61397b600080516020615fa78339815191523361263e565b6139615760405162461bcd60e51b815260206004820152601160248201527027a7262cafa627a1a5afa6a0a720a3a2a960791b6044820152606401610f84565b600081815261107660205260408120546001600160a01b03169060016139e083611f26565b6139ea9190615e41565b600084815261107d6020526040902054909150808214613a40576001600160a01b038316600090815261107c60209081526040808320858452825280832054848452818420819055835261107d90915290208190555b6001600160a01b038316600090815261107c60209081526040808320858452909152812055613a6e83611f26565b60011415613a8d576110778054906000613a8783615e84565b91905055505b6001600160a01b038316600090815261107e60205260408120805460019290613ab7908490615e41565b909155505050505050565b6000613acd82611f26565b9050610c8e548110613b0c5760405162461bcd60e51b81526020600482015260086024820152674d41585f4b45595360c01b6044820152606401610f84565b600083815261107d602090815260408083208490556001600160a01b03851680845261107c83528184208585528352818420879055868452611076835281842080546001600160a01b03191682179055835261107e9091528120805460019290613b77908490615da0565b9091555050505050565b600082815261107860205260409020546001600160a01b03828116911614611aec5760008281526110786020526040902080546001600160a01b0319166001600160a01b038316179055613bd482613c0e565b6040516001600160a01b0382169083907f9d2895c45a420624de863a2f437b022d879f457bf7a829044055a10c5a6fd5e390600090a35050565b600081815261107960205260409020546001600160a01b031615611ba75760009081526110796020526040902080546001600160a01b0319169055565b613c55828261263e565b611aec57613c6d816001600160a01b03166014614a55565b613c78836020614a55565b604051602001613c899291906159b0565b60408051601f198184030181529082905262461bcd60e51b8252610f8491600401615b1d565b613cb9828261263e565b611aec5760008281526097602090815260408083206001600160a01b03851684529091529020805460ff19166001179055613cf13390565b6001600160a01b0316816001600160a01b0316837f2f8788117e7eff1d82e926ec794901d17c78024a50270940304540a733656f0d60405160405180910390a45050565b610c8d54600a146139615760405162461bcd60e51b8152602060048201526012602482015271135251d490551253d397d49154555254915160721b6044820152606401610f84565b610c87805460009182613d8f83615ed0565b9091555050610c87546040805180820182528281526020808201868152600085815261107b9092529290209051815590516001909101559050613dd184611f26565b613dec576110778054906000613de683615ed0565b91905055505b613df68185613ac2565b613e008184613b81565b60405181906001600160a01b03861690600090600080516020615f87833981519152908290a49392505050565b610c83546001600160a01b03163b15613ef457610c835460405163939d9f1f60e01b8152600481018490526001600160a01b0383811660248301529091169063939d9f1f90620493e090604401600060405180830381600088803b158015613e9457600080fd5b5087f193505050508015613ea6575060015b611aec57610c835460405130917f6b18946261693dfd6c760d986b28ad2238b5b0267f8e5b6bc40a2f998e2f20ac91613ee8916001600160a01b031690615a1f565b60405180910390a25050565b610c835460405130917f6b18946261693dfd6c760d986b28ad2238b5b0267f8e5b6bc40a2f998e2f20ac91613ee8916001600160a01b031690615a1f565b61201e5415613961576104b1546001600160a01b031615613fe0576104b15461201e546040516323b872dd60e01b81526001600160a01b039092169182916323b872dd91613f87913091339190600401615a33565b602060405180830381600087803b158015613fa157600080fd5b505af1158015613fb5573d6000803e3d6000fd5b505050506040513d601f19601f82011682018060405250810190613fd991906156a5565b505061406c565b61201e5460405160009133918381818185875af1925050503d8060008114614024576040519150601f19603f3d011682016040523d82523d6000602084013e614029565b606091505b505090508061406a5760405162461bcd60e51b815260206004820152600d60248201526c14915195539117d19052531151609a1b6044820152606401610f84565b505b61201e546104b154604080519283526001600160a01b03909116602083015233917f522a883b471164223f18b50f326da8671372b64b4792eac0e63d447e714c3e3b910160405180910390a2565b6140c4828261263e565b15611aec5760008281526097602090815260408083206001600160a01b0385168085529252808320805460ff1916905551339285917ff6391f5c32d9c69d2a47ea670b442974b53935d1edc7fd64eb21e047a839171b9190a45050565b61412a816139bb565b600090815261107b6020908152604080832042600190910155611076909152902080546001600160a01b0319169055565b600061416683611ca9565b905061417183614121565b336001600160a01b0316816001600160a01b0316847f0a7068a9989857441c039a14a42b67ed71dd1fcfe5a9b17cc87b252e47bce528856040516141b791815260200190565b60405180910390a481156141dd576104b1546141dd906001600160a01b03168284614a0e565b60008381526120206020526040812055610c8a546001600160a01b031615610fa557610c8a5460405163b499b6c560e01b81526001600160a01b039091169063b499b6c59061423490339085908790600401615a33565b600060405180830381600087803b15801561424e57600080fd5b505af11580156120fb573d6000803e3d6000fd5b61426b816144cc565b6104b180546001600160a01b0319166001600160a01b0392909216919091179055565b614296614bf0565b6142a36114638383615039565b50611aec635b5e139f60e01b61434c565b61396163780e9d6360e01b61434c565b6142dc600080516020615fa783398151915280614c27565b614302600080516020615f67833981519152600080516020615fa7833981519152614c27565b61430b816129da565b61432757614327600080516020615fa783398151915282614c72565b61433081611bf1565b611ba757611ba7600080516020615f6783398151915282614c72565b6001600160e01b031980821614156143a65760405162461bcd60e51b815260206004820152601c60248201527f4552433136353a20696e76616c696420696e74657266616365206964000000006044820152606401610f84565b6001600160e01b0319166000908152606560205260409020805460ff19166001179055565b600081815261107b60205260408120600101546000198114156144305760405162461bcd60e51b815260206004820152601c60248201527f43414e545f455854454e445f4e4f4e5f4558504952494e475f4b4559000000006044820152606401610f84565b600019610c84541415614447576000199150614475565b4281111561446457610c845461445d9082615da0565b9150614475565b610c84546144729042615da0565b91505b600083815261107b6020526040908190206001018390555183907f3ca112768ff7861e008ace1c11570c52e404c043e585545b5957a1e20961dde3906144be9085815260200190565b60405180910390a250919050565b6001600160a01b038116158061455257506000816001600160a01b03166318160ddd6040518163ffffffff1660e01b815260040160206040518083038186803b15801561451857600080fd5b505afa15801561452c573d6000803e3d6000fd5b505050506040513d601f19601f8201168201806040525081019061455091906157f1565b115b611ba75760405162461bcd60e51b815260206004820152600d60248201526c24a72b20a624a22faa27a5a2a760991b6044820152606401610f84565b600082815261107860205260408120546001600160a01b03838116911614806145f15750600083815261107860205260409020546001600160a01b03161580156145f15750816001600160a01b03166145e684611ca9565b6001600160a01b0316145b156145fe57506001610ef9565b506000610ef9565b60006001600160a01b0384163b61461f575060016146bd565b604051630a85bd0160e11b81526000906001600160a01b0386169063150b7a02906146549033908a9089908990600401615ad6565b602060405180830381600087803b15801561466e57600080fd5b505af1158015614682573d6000803e3d6000fd5b505050506040513d601f19601f820116820180604052508101906146a6919061571d565b6001600160e01b031916630a85bd0160e11b149150505b949350505050565b604080518082018252601081526f181899199a1a9b1b9c1cb0b131b232b360811b60208201528151602a80825260608281019094526001600160a01b0385169291600091602082018180368337019050509050600360fc1b8160008151811061473057614730615f01565b60200101906001600160f81b031916908160001a905350600f60fb1b8160018151811061475f5761475f615f01565b60200101906001600160f81b031916908160001a90535060005b60148110156148a7578260048561479184600c615da0565b602081106147a1576147a1615f01565b1a60f81b6001600160f81b031916901c60f81c60ff16815181106147c7576147c7615f01565b01602001516001600160f81b031916826147e2836002615dff565b6147ed906002615da0565b815181106147fd576147fd615f01565b60200101906001600160f81b031916908160001a905350828461482183600c615da0565b6020811061483157614831615f01565b825191901a600f1690811061484857614848615f01565b01602001516001600160f81b03191682614863836002615dff565b61486e906003615da0565b8151811061487e5761487e615f01565b60200101906001600160f81b031916908160001a9053508061489f81615ed0565b915050614779565b50949350505050565b606081806148d75750506040805180820190915260018152600360fc1b6020820152919050565b8260005b811561490157806148eb81615ed0565b91506148fa9050600a83615ddd565b91506148db565b6000816001600160401b0381111561491b5761491b615f17565b6040519080825280601f01601f191660200182016040528015614945576020820181803683370190505b509050815b84156149d25761495b600182615e41565b9050600061496a600a87615ddd565b61497590600a615dff565b61497f9087615e41565b61498a906030615db8565b905060008160f81b9050808484815181106149a7576149a7615f01565b60200101906001600160f81b031916908160001a9053506149c9600a88615ddd565b9650505061494a565b5095945050505050565b6060848484846040516020016149f59493929190615959565b6040516020818303038152906040529050949350505050565b8015610fa5576001600160a01b038316614a3557610fa56001600160a01b03831682614c7c565b826123d46001600160a01b0382168484614d92565b6000610ef982614de4565b60606000614a64836002615dff565b614a6f906002615da0565b6001600160401b03811115614a8657614a86615f17565b6040519080825280601f01601f191660200182016040528015614ab0576020820181803683370190505b509050600360fc1b81600081518110614acb57614acb615f01565b60200101906001600160f81b031916908160001a905350600f60fb1b81600181518110614afa57614afa615f01565b60200101906001600160f81b031916908160001a9053506000614b1e846002615dff565b614b29906001615da0565b90505b6001811115614ba1576f181899199a1a9b1b9c1cb0b131b232b360811b85600f1660108110614b5d57614b5d615f01565b1a60f81b828281518110614b7357614b73615f01565b60200101906001600160f81b031916908160001a90535060049490941c93614b9a81615e84565b9050614b2c565b5083156111a55760405162461bcd60e51b815260206004820181905260248201527f537472696e67733a20686578206c656e67746820696e73756666696369656e746044820152606401610f84565b600054610100900460ff16614c175760405162461bcd60e51b8152600401610f8490615c5e565b614c1f614e09565b613961614e09565b600082815260976020526040808220600101805490849055905190918391839186917fbd79b86ffe0ab8e8776151514217cd7cacd52c909f66475c3af44e129f0b00ff9190a4505050565b611aec8282613caf565b80471015614ccc5760405162461bcd60e51b815260206004820152601d60248201527f416464726573733a20696e73756666696369656e742062616c616e63650000006044820152606401610f84565b6000826001600160a01b03168260405160006040518083038185875af1925050503d8060008114614d19576040519150601f19603f3d011682016040523d82523d6000602084013e614d1e565b606091505b5050905080610fa55760405162461bcd60e51b815260206004820152603a60248201527f416464726573733a20756e61626c6520746f2073656e642076616c75652c20726044820152791958da5c1a595b9d081b585e481a185d99481c995d995c9d195960321b6064820152608401610f84565b604080516001600160a01b038416602482015260448082018490528251808303909101815260649091019091526020810180516001600160e01b031663a9059cbb60e01b179052610fa5908490614e30565b60006001600160e01b03198216637965db0b60e01b1480610ef95750610ef982614f02565b600054610100900460ff166139615760405162461bcd60e51b8152600401610f8490615c5e565b6000614e85826040518060400160405280602081526020017f5361666545524332303a206c6f772d6c6576656c2063616c6c206661696c6564815250856001600160a01b0316614f3e9092919063ffffffff16565b805190915015610fa55780806020019051810190614ea391906156a5565b610fa55760405162461bcd60e51b815260206004820152602a60248201527f5361666545524332303a204552433230206f7065726174696f6e20646964206e6044820152691bdd081cdd58d8d9595960b21b6064820152608401610f84565b60006301ffc9a760e01b6001600160e01b031983161480610ef95750506001600160e01b03191660009081526065602052604090205460ff1690565b60606146bd848460008585843b614f975760405162461bcd60e51b815260206004820152601d60248201527f416464726573733a2063616c6c20746f206e6f6e2d636f6e74726163740000006044820152606401610f84565b600080866001600160a01b03168587604051614fb3919061593d565b60006040518083038185875af1925050503d8060008114614ff0576040519150601f19603f3d011682016040523d82523d6000602084013e614ff5565b606091505b5091509150612d0e8282866060831561500f5750816111a5565b82511561501f5782518084602001fd5b8160405162461bcd60e51b8152600401610f849190615b1d565b82805461504590615e9b565b90600052602060002090601f01602090048101928261506757600085556150ad565b82601f106150805782800160ff198235161785556150ad565b828001600101855582156150ad579182015b828111156150ad578235825591602001919060010190615092565b50611bed9291505b80821115611bed57600081556001016150b5565b60008083601f8401126150db57600080fd5b5081356001600160401b038111156150f257600080fd5b6020830191508360208260051b850101111561510d57600080fd5b9250929050565b600082601f83011261512557600080fd5b8135602061513a61513583615d56565b615d26565b80838252828201915082860187848660051b890101111561515a57600080fd5b60005b8581101561518257813561517081615f2d565b8452928401929084019060010161515d565b5090979650505050505050565b600082601f8301126151a057600080fd5b813560206151b061513583615d56565b80838252828201915082860187848660051b89010111156151d057600080fd5b60005b85811015615182578135845292840192908401906001016151d3565b60008083601f84011261520157600080fd5b5081356001600160401b0381111561521857600080fd5b60208301915083602082850101111561510d57600080fd5b600082601f83011261524157600080fd5b813561524f61513582615d79565b81815284602083860101111561526457600080fd5b816020850160208301376000918101602001919091529392505050565b60006020828403121561529357600080fd5b81356111a581615f2d565b600080600080600080600060c0888a0312156152b957600080fd5b87356152c481615f2d565b96506020880135955060408801356152db81615f2d565b9450606088013593506080880135925060a08801356001600160401b0381111561530457600080fd5b6153108a828b016151ef565b989b979a50959850939692959293505050565b6000806040838503121561533657600080fd5b823561534181615f2d565b9150602083013561535181615f2d565b809150509250929050565b6000806000806080858703121561537257600080fd5b843561537d81615f2d565b9350602085013561538d81615f2d565b9250604085013561539d81615f2d565b915060608501356153ad81615f2d565b939692955090935050565b6000806000606084860312156153cd57600080fd5b83356153d881615f2d565b925060208401356153e881615f2d565b915060408401356001600160401b0381111561540357600080fd5b61540f86828701615230565b9150509250925092565b60008060006060848603121561542e57600080fd5b833561543981615f2d565b9250602084013561544981615f2d565b929592945050506040919091013590565b6000806000806080858703121561547057600080fd5b843561547b81615f2d565b9350602085013561548b81615f2d565b92506040850135915060608501356001600160401b038111156154ad57600080fd5b6154b987828801615230565b91505092959194509250565b600080604083850312156154d857600080fd5b82356154e381615f2d565b9150602083013561535181615f42565b6000806040838503121561550657600080fd5b823561551181615f2d565b946020939093013593505050565b60008060006060848603121561553457600080fd5b833561553f81615f2d565b95602085013595506040909401359392505050565b6000806000806000806060878903121561556d57600080fd5b86356001600160401b038082111561558457600080fd5b6155908a838b016150c9565b909850965060208901359150808211156155a957600080fd5b6155b58a838b016150c9565b909650945060408901359150808211156155ce57600080fd5b506155db89828a016150c9565b979a9699509497509295939492505050565b60008060008060008060a0878903121561560657600080fd5b86356001600160401b038082111561561d57600080fd5b6156298a838b0161518f565b9750602089013591508082111561563f57600080fd5b61564b8a838b01615114565b9650604089013591508082111561566157600080fd5b61566d8a838b01615114565b9550606089013591508082111561568357600080fd5b61568f8a838b01615114565b945060808901359150808211156155ce57600080fd5b6000602082840312156156b757600080fd5b81516111a581615f42565b6000602082840312156156d457600080fd5b5035919050565b600080604083850312156156ee57600080fd5b82359150602083013561535181615f2d565b60006020828403121561571257600080fd5b81356111a581615f50565b60006020828403121561572f57600080fd5b81516111a581615f50565b6000806020838503121561574d57600080fd5b82356001600160401b0381111561576357600080fd5b61576f858286016151ef565b90969095509350505050565b60006020828403121561578d57600080fd5b81516001600160401b038111156157a357600080fd5b8201601f810184136157b457600080fd5b80516157c261513582615d79565b8181528560208385010111156157d757600080fd5b6157e8826020830160208601615e58565b95945050505050565b60006020828403121561580357600080fd5b5051919050565b60008060006060848603121561581f57600080fd5b83359250602084013561544981615f2d565b6000806040838503121561584457600080fd5b50508035926020909101359150565b60008060008060006080868803121561586b57600080fd5b8535945060208601359350604086013561588481615f2d565b925060608601356001600160401b0381111561589f57600080fd5b6158ab888289016151ef565b969995985093965092949392505050565b6000806000606084860312156158d157600080fd5b505081359360208301359350604090920135919050565b81835281816020850137506000828201602090810191909152601f909101601f19169091010190565b60008151808452615929816020860160208601615e58565b601f01601f19169290920160200192915050565b6000825161594f818460208701615e58565b9190910192915050565b6000855161596b818460208a01615e58565b85519083019061597f818360208a01615e58565b8551910190615992818360208901615e58565b84519101906159a5818360208801615e58565b019695505050505050565b76020b1b1b2b9b9a1b7b73a3937b61d1030b1b1b7bab73a1604d1b8152600083516159e2816017850160208801615e58565b7001034b99036b4b9b9b4b733903937b6329607d1b6017918401918201528351615a13816028840160208801615e58565b01602801949350505050565b6001600160a01b0391909116815260200190565b6001600160a01b039384168152919092166020820152604081019190915260600190565b6001600160a01b03888116825287811660208301528616604082015260c060608201819052600090615a8c90830186886158e8565b60808301949094525060a0015295945050505050565b6001600160a01b038581168252848116602083015283166040820152608060608201819052600090612e9c90830184615911565b6001600160a01b0385811682528416602082015260408101839052608060608201819052600090612e9c90830184615911565b6020815260006146bd6020830184866158e8565b6020815260006111a56020830184615911565b60208082526016908201527512d15657d514905394d1915494d7d11254d05093115160521b604082015260600190565b6020808252600f908201526e494e56414c49445f4144445245535360881b604082015260600190565b602080825260189082015277494e53554646494349454e545f45524332305f56414c554560401b604082015260600190565b602080825260129082015271494e53554646494349454e545f56414c554560701b604082015260600190565b60208082526010908201526f2a2920a729a322a92faa27afa9a2a62360811b604082015260600190565b6020808252600d908201526c1313d0d2d7d4d3d31117d3d555609a1b604082015260600190565b6020808252600c908201526b20a8282927ab22afa9a2a62360a11b604082015260600190565b6020808252602b908201527f496e697469616c697a61626c653a20636f6e7472616374206973206e6f74206960408201526a6e697469616c697a696e6760a81b606082015260800190565b6020808252601d908201527f4e4f4e5f434f4d504c49414e545f4552433732315f5245434549564552000000604082015260600190565b6000808335601e19843603018112615cf757600080fd5b8301803591506001600160401b03821115615d1157600080fd5b60200191503681900382131561510d57600080fd5b604051601f8201601f191681016001600160401b0381118282101715615d4e57615d4e615f17565b604052919050565b60006001600160401b03821115615d6f57615d6f615f17565b5060051b60200190565b60006001600160401b03821115615d9257615d92615f17565b50601f01601f191660200190565b60008219821115615db357615db3615eeb565b500190565b600060ff821660ff84168060ff03821115615dd557615dd5615eeb565b019392505050565b600082615dfa57634e487b7160e01b600052601260045260246000fd5b500490565b6000816000190483118215151615615e1957615e19615eeb565b500290565b600061ffff83811690831681811015615e3957615e39615eeb565b039392505050565b600082821015615e5357615e53615eeb565b500390565b60005b83811015615e73578181015183820152602001615e5b565b838111156123d45750506000910152565b600081615e9357615e93615eeb565b506000190190565b600181811c90821680615eaf57607f821691505b60208210811415611dbc57634e487b7160e01b600052602260045260246000fd5b6000600019821415615ee457615ee4615eeb565b5060010190565b634e487b7160e01b600052601160045260246000fd5b634e487b7160e01b600052603260045260246000fd5b634e487b7160e01b600052604160045260246000fd5b6001600160a01b0381168114611ba757600080fd5b8015158114611ba757600080fd5b6001600160e01b031981168114611ba757600080fdfeb309c40027c81d382c3b58d8de24207a34b27e1db369b1434e4a11311f154b5eddf252ad1be2c89b69c2b068fc378daa952ba7f163c4a11628f55a4df523b3efb89cdd26cddd51301940bf2715f765b626b8a5a9e2681ac62dc83cc2db2530c0a26469706673582212203a48b4314efad6d217ec3d998672c0de580a74c1f82dfc8e36dd9776bba0bf2b64736f6c63430008070033",
  "linkReferences": {},
  "deployedLinkReferences": {}
}