{
  "_format": "hh-sol-artifact-1",
  "contractName": "PublicLock",
  "sourceName": "contracts/PublicLock.sol",
  "abi": [
    {
      "inputs": [],
      "name": "CANNOT_APPROVE_SELF",
      "type": "error"
    },
    {
      "inputs": [],
      "name": "CANT_BE_SMALLER_THAN_SUPPLY",
      "type": "error"
    },
    {
      "inputs": [],
      "name": "CANT_EXTEND_NON_EXPIRING_KEY",
      "type": "error"
    },
    {
      "inputs": [],
      "name": "GAS_REFUND_FAILED",
      "type": "error"
    },
    {
      "inputs": [],
      "name": "INSUFFICIENT_ERC20_VALUE",
      "type": "error"
    },
    {
      "inputs": [],
      "name": "INSUFFICIENT_VALUE",
      "type": "error"
    },
    {
      "inputs": [],
      "name": "INVALID_ADDRESS",
      "type": "error"
    },
    {
      "inputs": [
        {
          "internalType": "uint8",
          "name": "hookIndex",
          "type": "uint8"
        }
      ],
      "name": "INVALID_HOOK",
      "type": "error"
    },
    {
      "inputs": [],
      "name": "INVALID_LENGTH",
      "type": "error"
    },
    {
      "inputs": [],
      "name": "INVALID_TOKEN",
      "type": "error"
    },
    {
      "inputs": [],
      "name": "KEY_NOT_VALID",
      "type": "error"
    },
    {
      "inputs": [],
      "name": "KEY_TRANSFERS_DISABLED",
      "type": "error"
    },
    {
      "inputs": [],
      "name": "LOCK_HAS_CHANGED",
      "type": "error"
    },
    {
      "inputs": [],
      "name": "LOCK_SOLD_OUT",
      "type": "error"
    },
    {
      "inputs": [],
      "name": "MAX_KEYS_REACHED",
      "type": "error"
    },
    {
      "inputs": [],
      "name": "MIGRATION_REQUIRED",
      "type": "error"
    },
    {
      "inputs": [],
      "name": "NON_COMPLIANT_ERC721_RECEIVER",
      "type": "error"
    },
    {
      "inputs": [],
      "name": "NON_RENEWABLE_LOCK",
      "type": "error"
    },
    {
      "inputs": [],
      "name": "NOT_ENOUGH_FUNDS",
      "type": "error"
    },
    {
      "inputs": [],
      "name": "NOT_ENOUGH_TIME",
      "type": "error"
    },
    {
      "inputs": [],
      "name": "NOT_READY_FOR_RENEWAL",
      "type": "error"
    },
    {
      "inputs": [],
      "name": "NO_SUCH_KEY",
      "type": "error"
    },
    {
      "inputs": [],
      "name": "NULL_VALUE",
      "type": "error"
    },
    {
      "inputs": [],
      "name": "ONLY_KEY_MANAGER_OR_APPROVED",
      "type": "error"
    },
    {
      "inputs": [],
      "name": "ONLY_LOCK_MANAGER",
      "type": "error"
    },
    {
      "inputs": [],
      "name": "ONLY_LOCK_MANAGER_OR_KEY_GRANTER",
      "type": "error"
    },
    {
      "inputs": [],
      "name": "OUT_OF_RANGE",
      "type": "error"
    },
    {
      "inputs": [],
      "name": "OWNER_CANT_BE_ADDRESS_ZERO",
      "type": "error"
    },
    {
      "inputs": [],
      "name": "SCHEMA_VERSION_NOT_CORRECT",
      "type": "error"
    },
    {
      "inputs": [],
      "name": "TRANSFER_TO_SELF",
      "type": "error"
    },
    {
      "inputs": [],
      "name": "TransferFailed",
      "type": "error"
    },
    {
      "inputs": [],
      "name": "UNAUTHORIZED",
      "type": "error"
    },
    {
      "inputs": [],
      "name": "UNAUTHORIZED_KEY_MANAGER_UPDATE",
      "type": "error"
    },
    {
      "anonymous": false,
      "inputs": [
        {
          "indexed": true,
          "internalType": "address",
          "name": "owner",
          "type": "address"
        },
        {
          "indexed": true,
          "internalType": "address",
          "name": "approved",
          "type": "address"
        },
        {
          "indexed": true,
          "internalType": "uint256",
          "name": "tokenId",
          "type": "uint256"
        }
      ],
      "name": "Approval",
      "type": "event"
    },
    {
      "anonymous": false,
      "inputs": [
        {
          "indexed": true,
          "internalType": "address",
          "name": "owner",
          "type": "address"
        },
        {
          "indexed": true,
          "internalType": "address",
          "name": "operator",
          "type": "address"
        },
        {
          "indexed": false,
          "internalType": "bool",
          "name": "approved",
          "type": "bool"
        }
      ],
      "name": "ApprovalForAll",
      "type": "event"
    },
    {
      "anonymous": false,
      "inputs": [
        {
          "indexed": true,
          "internalType": "uint256",
          "name": "tokenId",
          "type": "uint256"
        },
        {
          "indexed": true,
          "internalType": "address",
          "name": "owner",
          "type": "address"
        },
        {
          "indexed": true,
          "internalType": "address",
          "name": "sendTo",
          "type": "address"
        },
        {
          "indexed": false,
          "internalType": "uint256",
          "name": "refund",
          "type": "uint256"
        }
      ],
      "name": "CancelKey",
      "type": "event"
    },
    {
      "anonymous": false,
      "inputs": [
        {
          "indexed": false,
          "internalType": "address",
          "name": "onKeyPurchaseHook",
          "type": "address"
        },
        {
          "indexed": false,
          "internalType": "address",
          "name": "onKeyCancelHook",
          "type": "address"
        },
        {
          "indexed": false,
          "internalType": "address",
          "name": "onValidKeyHook",
          "type": "address"
        },
        {
          "indexed": false,
          "internalType": "address",
          "name": "onTokenURIHook",
          "type": "address"
        },
        {
          "indexed": false,
          "internalType": "address",
          "name": "onKeyTransferHook",
          "type": "address"
        },
        {
          "indexed": false,
          "internalType": "address",
          "name": "onKeyExtendHook",
          "type": "address"
        },
        {
          "indexed": false,
          "internalType": "address",
          "name": "onKeyGrantHook",
          "type": "address"
        }
      ],
      "name": "EventHooksUpdated",
      "type": "event"
    },
    {
      "anonymous": false,
      "inputs": [
        {
          "indexed": true,
          "internalType": "uint256",
          "name": "tokenId",
          "type": "uint256"
        },
        {
          "indexed": false,
          "internalType": "uint256",
          "name": "newExpiration",
          "type": "uint256"
        },
        {
          "indexed": false,
          "internalType": "uint256",
          "name": "amount",
          "type": "uint256"
        },
        {
          "indexed": false,
          "internalType": "bool",
          "name": "timeAdded",
          "type": "bool"
        }
      ],
      "name": "ExpirationChanged",
      "type": "event"
    },
    {
      "anonymous": false,
      "inputs": [
        {
          "indexed": true,
          "internalType": "uint256",
          "name": "tokenId",
          "type": "uint256"
        }
      ],
      "name": "ExpireKey",
      "type": "event"
    },
    {
      "anonymous": false,
      "inputs": [
        {
          "indexed": false,
          "internalType": "uint256",
          "name": "refundValue",
          "type": "uint256"
        }
      ],
      "name": "GasRefundValueChanged",
      "type": "event"
    },
    {
      "anonymous": false,
      "inputs": [
        {
          "indexed": true,
          "internalType": "address",
          "name": "receiver",
          "type": "address"
        },
        {
          "indexed": false,
          "internalType": "uint256",
          "name": "refundedAmount",
          "type": "uint256"
        },
        {
          "indexed": false,
          "internalType": "address",
          "name": "tokenAddress",
          "type": "address"
        }
      ],
      "name": "GasRefunded",
      "type": "event"
    },
    {
      "anonymous": false,
      "inputs": [
        {
          "indexed": false,
          "internalType": "uint8",
          "name": "version",
          "type": "uint8"
        }
      ],
      "name": "Initialized",
      "type": "event"
    },
    {
      "anonymous": false,
      "inputs": [
        {
          "indexed": true,
          "internalType": "uint256",
          "name": "tokenId",
          "type": "uint256"
        },
        {
          "indexed": false,
          "internalType": "uint256",
          "name": "newTimestamp",
          "type": "uint256"
        }
      ],
      "name": "KeyExtended",
      "type": "event"
    },
    {
      "anonymous": false,
      "inputs": [
        {
          "indexed": true,
          "internalType": "address",
          "name": "account",
          "type": "address"
        }
      ],
      "name": "KeyGranterAdded",
      "type": "event"
    },
    {
      "anonymous": false,
      "inputs": [
        {
          "indexed": true,
          "internalType": "address",
          "name": "account",
          "type": "address"
        }
      ],
      "name": "KeyGranterRemoved",
      "type": "event"
    },
    {
      "anonymous": false,
      "inputs": [
        {
          "indexed": true,
          "internalType": "uint256",
          "name": "_tokenId",
          "type": "uint256"
        },
        {
          "indexed": true,
          "internalType": "address",
          "name": "_newManager",
          "type": "address"
        }
      ],
      "name": "KeyManagerChanged",
      "type": "event"
    },
    {
      "anonymous": false,
      "inputs": [
        {
          "indexed": false,
          "internalType": "uint256",
          "name": "updatedRecordsCount",
          "type": "uint256"
        }
      ],
      "name": "KeysMigrated",
      "type": "event"
    },
    {
      "anonymous": false,
      "inputs": [
        {
          "indexed": false,
          "internalType": "uint256",
          "name": "expirationDuration",
          "type": "uint256"
        },
        {
          "indexed": false,
          "internalType": "uint256",
          "name": "maxNumberOfKeys",
          "type": "uint256"
        },
        {
          "indexed": false,
          "internalType": "uint256",
          "name": "maxKeysPerAcccount",
          "type": "uint256"
        }
      ],
      "name": "LockConfig",
      "type": "event"
    },
    {
      "anonymous": false,
      "inputs": [
        {
          "indexed": true,
          "internalType": "address",
          "name": "account",
          "type": "address"
        }
      ],
      "name": "LockManagerAdded",
      "type": "event"
    },
    {
      "anonymous": false,
      "inputs": [
        {
          "indexed": true,
          "internalType": "address",
          "name": "account",
          "type": "address"
        }
      ],
      "name": "LockManagerRemoved",
      "type": "event"
    },
    {
      "anonymous": false,
      "inputs": [
        {
          "indexed": false,
          "internalType": "string",
          "name": "name",
          "type": "string"
        },
        {
          "indexed": false,
          "internalType": "string",
          "name": "symbol",
          "type": "string"
        },
        {
          "indexed": false,
          "internalType": "string",
          "name": "baseTokenURI",
          "type": "string"
        }
      ],
      "name": "LockMetadata",
      "type": "event"
    },
    {
      "anonymous": false,
      "inputs": [
        {
          "indexed": false,
          "internalType": "address",
          "name": "previousOwner",
          "type": "address"
        },
        {
          "indexed": false,
          "internalType": "address",
          "name": "newOwner",
          "type": "address"
        }
      ],
      "name": "OwnershipTransferred",
      "type": "event"
    },
    {
      "anonymous": false,
      "inputs": [
        {
          "indexed": false,
          "internalType": "uint256",
          "name": "oldKeyPrice",
          "type": "uint256"
        },
        {
          "indexed": false,
          "internalType": "uint256",
          "name": "keyPrice",
          "type": "uint256"
        },
        {
          "indexed": false,
          "internalType": "address",
          "name": "oldTokenAddress",
          "type": "address"
        },
        {
          "indexed": false,
          "internalType": "address",
          "name": "tokenAddress",
          "type": "address"
        }
      ],
      "name": "PricingChanged",
      "type": "event"
    },
    {
      "anonymous": false,
      "inputs": [
        {
          "indexed": true,
          "internalType": "address",
          "name": "referrer",
          "type": "address"
        },
        {
          "indexed": false,
          "internalType": "uint256",
          "name": "fee",
          "type": "uint256"
        }
      ],
      "name": "ReferrerFee",
      "type": "event"
    },
    {
      "anonymous": false,
      "inputs": [
        {
          "indexed": false,
          "internalType": "uint256",
          "name": "freeTrialLength",
          "type": "uint256"
        },
        {
          "indexed": false,
          "internalType": "uint256",
          "name": "refundPenaltyBasisPoints",
          "type": "uint256"
        }
      ],
      "name": "RefundPenaltyChanged",
      "type": "event"
    },
    {
      "anonymous": false,
      "inputs": [
        {
          "indexed": true,
          "internalType": "bytes32",
          "name": "role",
          "type": "bytes32"
        },
        {
          "indexed": true,
          "internalType": "bytes32",
          "name": "previousAdminRole",
          "type": "bytes32"
        },
        {
          "indexed": true,
          "internalType": "bytes32",
          "name": "newAdminRole",
          "type": "bytes32"
        }
      ],
      "name": "RoleAdminChanged",
      "type": "event"
    },
    {
      "anonymous": false,
      "inputs": [
        {
          "indexed": true,
          "internalType": "bytes32",
          "name": "role",
          "type": "bytes32"
        },
        {
          "indexed": true,
          "internalType": "address",
          "name": "account",
          "type": "address"
        },
        {
          "indexed": true,
          "internalType": "address",
          "name": "sender",
          "type": "address"
        }
      ],
      "name": "RoleGranted",
      "type": "event"
    },
    {
      "anonymous": false,
      "inputs": [
        {
          "indexed": true,
          "internalType": "bytes32",
          "name": "role",
          "type": "bytes32"
        },
        {
          "indexed": true,
          "internalType": "address",
          "name": "account",
          "type": "address"
        },
        {
          "indexed": true,
          "internalType": "address",
          "name": "sender",
          "type": "address"
        }
      ],
      "name": "RoleRevoked",
      "type": "event"
    },
    {
      "anonymous": false,
      "inputs": [
        {
          "indexed": true,
          "internalType": "address",
          "name": "from",
          "type": "address"
        },
        {
          "indexed": true,
          "internalType": "address",
          "name": "to",
          "type": "address"
        },
        {
          "indexed": true,
          "internalType": "uint256",
          "name": "tokenId",
          "type": "uint256"
        }
      ],
      "name": "Transfer",
      "type": "event"
    },
    {
      "anonymous": false,
      "inputs": [
        {
          "indexed": false,
          "internalType": "uint256",
          "name": "transferFeeBasisPoints",
          "type": "uint256"
        }
      ],
      "name": "TransferFeeChanged",
      "type": "event"
    },
    {
      "anonymous": false,
      "inputs": [
        {
          "indexed": true,
          "internalType": "address",
          "name": "lockAddress",
          "type": "address"
        },
        {
          "indexed": false,
          "internalType": "address",
          "name": "unlockAddress",
          "type": "address"
        }
      ],
      "name": "UnlockCallFailed",
      "type": "event"
    },
    {
      "anonymous": false,
      "inputs": [
        {
          "indexed": true,
          "internalType": "address",
          "name": "sender",
          "type": "address"
        },
        {
          "indexed": true,
          "internalType": "address",
          "name": "tokenAddress",
          "type": "address"
        },
        {
          "indexed": true,
          "internalType": "address",
          "name": "recipient",
          "type": "address"
        },
        {
          "indexed": false,
          "internalType": "uint256",
          "name": "amount",
          "type": "uint256"
        }
      ],
      "name": "Withdrawal",
      "type": "event"
    },
    {
      "inputs": [],
      "name": "DEFAULT_ADMIN_ROLE",
      "outputs": [
        {
          "internalType": "bytes32",
          "name": "",
          "type": "bytes32"
        }
      ],
      "stateMutability": "view",
      "type": "function"
    },
    {
      "inputs": [
        {
          "internalType": "address",
          "name": "account",
          "type": "address"
        }
      ],
      "name": "addLockManager",
      "outputs": [],
      "stateMutability": "nonpayable",
      "type": "function"
    },
    {
      "inputs": [
        {
          "internalType": "address",
          "name": "_approved",
          "type": "address"
        },
        {
          "internalType": "uint256",
          "name": "_tokenId",
          "type": "uint256"
        }
      ],
      "name": "approve",
      "outputs": [],
      "stateMutability": "nonpayable",
      "type": "function"
    },
    {
      "inputs": [
        {
          "internalType": "address",
          "name": "_keyOwner",
          "type": "address"
        }
      ],
      "name": "balanceOf",
      "outputs": [
        {
          "internalType": "uint256",
          "name": "balance",
          "type": "uint256"
        }
      ],
      "stateMutability": "view",
      "type": "function"
    },
    {
      "inputs": [
        {
          "internalType": "uint256",
          "name": "_tokenId",
          "type": "uint256"
        }
      ],
      "name": "burn",
      "outputs": [],
      "stateMutability": "nonpayable",
      "type": "function"
    },
    {
      "inputs": [
        {
          "internalType": "uint256",
          "name": "_tokenId",
          "type": "uint256"
        }
      ],
      "name": "cancelAndRefund",
      "outputs": [],
      "stateMutability": "nonpayable",
      "type": "function"
    },
    {
      "inputs": [],
      "name": "expirationDuration",
      "outputs": [
        {
          "internalType": "uint256",
          "name": "",
          "type": "uint256"
        }
      ],
      "stateMutability": "view",
      "type": "function"
    },
    {
      "inputs": [
        {
          "internalType": "uint256",
          "name": "_tokenId",
          "type": "uint256"
        },
        {
          "internalType": "uint256",
          "name": "_amount",
          "type": "uint256"
        }
      ],
      "name": "expireAndRefundFor",
      "outputs": [],
      "stateMutability": "nonpayable",
      "type": "function"
    },
    {
      "inputs": [
        {
          "internalType": "uint256",
          "name": "_value",
          "type": "uint256"
        },
        {
          "internalType": "uint256",
          "name": "_tokenId",
          "type": "uint256"
        },
        {
          "internalType": "address",
          "name": "_referrer",
          "type": "address"
        },
        {
          "internalType": "bytes",
          "name": "_data",
          "type": "bytes"
        }
      ],
      "name": "extend",
      "outputs": [],
      "stateMutability": "payable",
      "type": "function"
    },
    {
      "inputs": [],
      "name": "freeTrialLength",
      "outputs": [
        {
          "internalType": "uint256",
          "name": "",
          "type": "uint256"
        }
      ],
      "stateMutability": "view",
      "type": "function"
    },
    {
      "inputs": [],
      "name": "gasRefundValue",
      "outputs": [
        {
          "internalType": "uint256",
          "name": "_refundValue",
          "type": "uint256"
        }
      ],
      "stateMutability": "view",
      "type": "function"
    },
    {
      "inputs": [
        {
          "internalType": "uint256",
          "name": "_tokenId",
          "type": "uint256"
        }
      ],
      "name": "getApproved",
      "outputs": [
        {
          "internalType": "address",
          "name": "",
          "type": "address"
        }
      ],
      "stateMutability": "view",
      "type": "function"
    },
    {
      "inputs": [
        {
          "internalType": "uint256",
          "name": "_tokenId",
          "type": "uint256"
        }
      ],
      "name": "getCancelAndRefundValue",
      "outputs": [
        {
          "internalType": "uint256",
          "name": "refund",
          "type": "uint256"
        }
      ],
      "stateMutability": "view",
      "type": "function"
    },
    {
      "inputs": [
        {
          "internalType": "address",
          "name": "_keyOwner",
          "type": "address"
        }
      ],
      "name": "getHasValidKey",
      "outputs": [
        {
          "internalType": "bool",
          "name": "isValid",
          "type": "bool"
        }
      ],
      "stateMutability": "view",
      "type": "function"
    },
    {
      "inputs": [
        {
          "internalType": "bytes32",
          "name": "role",
          "type": "bytes32"
        }
      ],
      "name": "getRoleAdmin",
      "outputs": [
        {
          "internalType": "bytes32",
          "name": "",
          "type": "bytes32"
        }
      ],
      "stateMutability": "view",
      "type": "function"
    },
    {
      "inputs": [
        {
          "internalType": "uint256",
          "name": "_tokenId",
          "type": "uint256"
        },
        {
          "internalType": "uint256",
          "name": "_time",
          "type": "uint256"
        }
      ],
      "name": "getTransferFee",
      "outputs": [
        {
          "internalType": "uint256",
          "name": "",
          "type": "uint256"
        }
      ],
      "stateMutability": "view",
      "type": "function"
    },
    {
      "inputs": [
        {
          "internalType": "uint256",
          "name": "_tokenId",
          "type": "uint256"
        },
        {
          "internalType": "uint256",
          "name": "_duration",
          "type": "uint256"
        }
      ],
      "name": "grantKeyExtension",
      "outputs": [],
      "stateMutability": "nonpayable",
      "type": "function"
    },
    {
      "inputs": [
        {
          "internalType": "address[]",
          "name": "_recipients",
          "type": "address[]"
        },
        {
          "internalType": "uint256[]",
          "name": "_expirationTimestamps",
          "type": "uint256[]"
        },
        {
          "internalType": "address[]",
          "name": "_keyManagers",
          "type": "address[]"
        }
      ],
      "name": "grantKeys",
      "outputs": [
        {
          "internalType": "uint256[]",
          "name": "",
          "type": "uint256[]"
        }
      ],
      "stateMutability": "nonpayable",
      "type": "function"
    },
    {
      "inputs": [
        {
          "internalType": "bytes32",
          "name": "role",
          "type": "bytes32"
        },
        {
          "internalType": "address",
          "name": "account",
          "type": "address"
        }
      ],
      "name": "grantRole",
      "outputs": [],
      "stateMutability": "nonpayable",
      "type": "function"
    },
    {
      "inputs": [
        {
          "internalType": "bytes32",
          "name": "role",
          "type": "bytes32"
        },
        {
          "internalType": "address",
          "name": "account",
          "type": "address"
        }
      ],
      "name": "hasRole",
      "outputs": [
        {
          "internalType": "bool",
          "name": "",
          "type": "bool"
        }
      ],
      "stateMutability": "view",
      "type": "function"
    },
    {
      "inputs": [
        {
          "internalType": "address payable",
          "name": "_lockCreator",
          "type": "address"
        },
        {
          "internalType": "uint256",
          "name": "_expirationDuration",
          "type": "uint256"
        },
        {
          "internalType": "address",
          "name": "_tokenAddress",
          "type": "address"
        },
        {
          "internalType": "uint256",
          "name": "_keyPrice",
          "type": "uint256"
        },
        {
          "internalType": "uint256",
          "name": "_maxNumberOfKeys",
          "type": "uint256"
        },
        {
          "internalType": "string",
          "name": "_lockName",
          "type": "string"
        }
      ],
      "name": "initialize",
      "outputs": [],
      "stateMutability": "nonpayable",
      "type": "function"
    },
    {
      "inputs": [
        {
          "internalType": "address",
          "name": "_owner",
          "type": "address"
        },
        {
          "internalType": "address",
          "name": "_operator",
          "type": "address"
        }
      ],
      "name": "isApprovedForAll",
      "outputs": [
        {
          "internalType": "bool",
          "name": "",
          "type": "bool"
        }
      ],
      "stateMutability": "view",
      "type": "function"
    },
    {
      "inputs": [
        {
          "internalType": "address",
          "name": "account",
          "type": "address"
        }
      ],
      "name": "isLockManager",
      "outputs": [
        {
          "internalType": "bool",
          "name": "",
          "type": "bool"
        }
      ],
      "stateMutability": "view",
      "type": "function"
    },
    {
      "inputs": [
        {
          "internalType": "address",
          "name": "account",
          "type": "address"
        }
      ],
      "name": "isOwner",
      "outputs": [
        {
          "internalType": "bool",
          "name": "",
          "type": "bool"
        }
      ],
      "stateMutability": "view",
      "type": "function"
    },
    {
      "inputs": [
        {
          "internalType": "uint256",
          "name": "_tokenId",
          "type": "uint256"
        },
        {
          "internalType": "address",
          "name": "_referrer",
          "type": "address"
        }
      ],
      "name": "isRenewable",
      "outputs": [
        {
          "internalType": "bool",
          "name": "",
          "type": "bool"
        }
      ],
      "stateMutability": "view",
      "type": "function"
    },
    {
      "inputs": [
        {
          "internalType": "uint256",
          "name": "_tokenId",
          "type": "uint256"
        }
      ],
      "name": "isValidKey",
      "outputs": [
        {
          "internalType": "bool",
          "name": "",
          "type": "bool"
        }
      ],
      "stateMutability": "view",
      "type": "function"
    },
    {
      "inputs": [
        {
          "internalType": "uint256",
          "name": "_tokenId",
          "type": "uint256"
        }
      ],
      "name": "keyExpirationTimestampFor",
      "outputs": [
        {
          "internalType": "uint256",
          "name": "",
          "type": "uint256"
        }
      ],
      "stateMutability": "view",
      "type": "function"
    },
    {
      "inputs": [
        {
          "internalType": "uint256",
          "name": "",
          "type": "uint256"
        }
      ],
      "name": "keyManagerOf",
      "outputs": [
        {
          "internalType": "address",
          "name": "",
          "type": "address"
        }
      ],
      "stateMutability": "view",
      "type": "function"
    },
    {
      "inputs": [],
      "name": "keyPrice",
      "outputs": [
        {
          "internalType": "uint256",
          "name": "",
          "type": "uint256"
        }
      ],
      "stateMutability": "view",
      "type": "function"
    },
    {
      "inputs": [
        {
          "internalType": "address",
          "name": "_from",
          "type": "address"
        },
        {
          "internalType": "address",
          "name": "_recipient",
          "type": "address"
        },
        {
          "internalType": "uint256",
          "name": "_tokenId",
          "type": "uint256"
        }
      ],
      "name": "lendKey",
      "outputs": [],
      "stateMutability": "nonpayable",
      "type": "function"
    },
    {
      "inputs": [],
      "name": "maxKeysPerAddress",
      "outputs": [
        {
          "internalType": "uint256",
          "name": "",
          "type": "uint256"
        }
      ],
      "stateMutability": "view",
      "type": "function"
    },
    {
      "inputs": [],
      "name": "maxNumberOfKeys",
      "outputs": [
        {
          "internalType": "uint256",
          "name": "",
          "type": "uint256"
        }
      ],
      "stateMutability": "view",
      "type": "function"
    },
    {
      "inputs": [
        {
          "internalType": "uint256",
          "name": "_tokenIdFrom",
          "type": "uint256"
        },
        {
          "internalType": "uint256",
          "name": "_tokenIdTo",
          "type": "uint256"
        },
        {
          "internalType": "uint256",
          "name": "_amount",
          "type": "uint256"
        }
      ],
      "name": "mergeKeys",
      "outputs": [],
      "stateMutability": "nonpayable",
      "type": "function"
    },
    {
      "inputs": [
        {
          "internalType": "bytes",
          "name": "",
          "type": "bytes"
        }
      ],
      "name": "migrate",
      "outputs": [],
      "stateMutability": "nonpayable",
      "type": "function"
    },
    {
      "inputs": [],
      "name": "name",
      "outputs": [
        {
          "internalType": "string",
          "name": "",
          "type": "string"
        }
      ],
      "stateMutability": "view",
      "type": "function"
    },
    {
      "inputs": [],
      "name": "numberOfOwners",
      "outputs": [
        {
          "internalType": "uint256",
          "name": "",
          "type": "uint256"
        }
      ],
      "stateMutability": "view",
      "type": "function"
    },
    {
      "inputs": [],
      "name": "onKeyCancelHook",
      "outputs": [
        {
          "internalType": "contract ILockKeyCancelHook",
          "name": "",
          "type": "address"
        }
      ],
      "stateMutability": "view",
      "type": "function"
    },
    {
      "inputs": [],
      "name": "onKeyExtendHook",
      "outputs": [
        {
          "internalType": "contract ILockKeyExtendHook",
          "name": "",
          "type": "address"
        }
      ],
      "stateMutability": "view",
      "type": "function"
    },
    {
      "inputs": [],
      "name": "onKeyGrantHook",
      "outputs": [
        {
          "internalType": "contract ILockKeyGrantHook",
          "name": "",
          "type": "address"
        }
      ],
      "stateMutability": "view",
      "type": "function"
    },
    {
      "inputs": [],
      "name": "onKeyPurchaseHook",
      "outputs": [
        {
          "internalType": "contract ILockKeyPurchaseHook",
          "name": "",
          "type": "address"
        }
      ],
      "stateMutability": "view",
      "type": "function"
    },
    {
      "inputs": [],
      "name": "onKeyTransferHook",
      "outputs": [
        {
          "internalType": "contract ILockKeyTransferHook",
          "name": "",
          "type": "address"
        }
      ],
      "stateMutability": "view",
      "type": "function"
    },
    {
      "inputs": [],
      "name": "onTokenURIHook",
      "outputs": [
        {
          "internalType": "contract ILockTokenURIHook",
          "name": "",
          "type": "address"
        }
      ],
      "stateMutability": "view",
      "type": "function"
    },
    {
      "inputs": [],
      "name": "onValidKeyHook",
      "outputs": [
        {
          "internalType": "contract ILockValidKeyHook",
          "name": "",
          "type": "address"
        }
      ],
      "stateMutability": "view",
      "type": "function"
    },
    {
      "inputs": [],
      "name": "owner",
      "outputs": [
        {
          "internalType": "address",
          "name": "",
          "type": "address"
        }
      ],
      "stateMutability": "view",
      "type": "function"
    },
    {
      "inputs": [
        {
          "internalType": "uint256",
          "name": "_tokenId",
          "type": "uint256"
        }
      ],
      "name": "ownerOf",
      "outputs": [
        {
          "internalType": "address",
          "name": "",
          "type": "address"
        }
      ],
      "stateMutability": "view",
      "type": "function"
    },
    {
      "inputs": [],
      "name": "publicLockVersion",
      "outputs": [
        {
          "internalType": "uint16",
          "name": "",
          "type": "uint16"
        }
      ],
      "stateMutability": "pure",
      "type": "function"
    },
    {
      "inputs": [
        {
          "internalType": "uint256[]",
          "name": "_values",
          "type": "uint256[]"
        },
        {
          "internalType": "address[]",
          "name": "_recipients",
          "type": "address[]"
        },
        {
          "internalType": "address[]",
          "name": "_referrers",
          "type": "address[]"
        },
        {
          "internalType": "address[]",
          "name": "_keyManagers",
          "type": "address[]"
        },
        {
          "internalType": "bytes[]",
          "name": "_data",
          "type": "bytes[]"
        }
      ],
      "name": "purchase",
      "outputs": [
        {
          "internalType": "uint256[]",
          "name": "",
          "type": "uint256[]"
        }
      ],
      "stateMutability": "payable",
      "type": "function"
    },
    {
      "inputs": [
        {
          "internalType": "address",
          "name": "_recipient",
          "type": "address"
        },
        {
          "internalType": "address",
          "name": "_referrer",
          "type": "address"
        },
        {
          "internalType": "bytes",
          "name": "_data",
          "type": "bytes"
        }
      ],
      "name": "purchasePriceFor",
      "outputs": [
        {
          "internalType": "uint256",
          "name": "minKeyPrice",
          "type": "uint256"
        }
      ],
      "stateMutability": "view",
      "type": "function"
    },
    {
      "inputs": [
        {
          "internalType": "address",
          "name": "",
          "type": "address"
        }
      ],
      "name": "referrerFees",
      "outputs": [
        {
          "internalType": "uint256",
          "name": "",
          "type": "uint256"
        }
      ],
      "stateMutability": "view",
      "type": "function"
    },
    {
      "inputs": [],
      "name": "refundPenaltyBasisPoints",
      "outputs": [
        {
          "internalType": "uint256",
          "name": "",
          "type": "uint256"
        }
      ],
      "stateMutability": "view",
      "type": "function"
    },
    {
      "inputs": [
        {
          "internalType": "uint256",
          "name": "_tokenId",
          "type": "uint256"
        },
        {
          "internalType": "address",
          "name": "_referrer",
          "type": "address"
        }
      ],
      "name": "renewMembershipFor",
      "outputs": [],
      "stateMutability": "nonpayable",
      "type": "function"
    },
    {
      "inputs": [],
      "name": "renounceLockManager",
      "outputs": [],
      "stateMutability": "nonpayable",
      "type": "function"
    },
    {
      "inputs": [
        {
          "internalType": "bytes32",
          "name": "role",
          "type": "bytes32"
        },
        {
          "internalType": "address",
          "name": "account",
          "type": "address"
        }
      ],
      "name": "renounceRole",
      "outputs": [],
      "stateMutability": "nonpayable",
      "type": "function"
    },
    {
      "inputs": [
        {
          "internalType": "bytes32",
          "name": "role",
          "type": "bytes32"
        },
        {
          "internalType": "address",
          "name": "account",
          "type": "address"
        }
      ],
      "name": "revokeRole",
      "outputs": [],
      "stateMutability": "nonpayable",
      "type": "function"
    },
    {
      "inputs": [
        {
          "internalType": "address",
          "name": "_from",
          "type": "address"
        },
        {
          "internalType": "address",
          "name": "_to",
          "type": "address"
        },
        {
          "internalType": "uint256",
          "name": "_tokenId",
          "type": "uint256"
        }
      ],
      "name": "safeTransferFrom",
      "outputs": [],
      "stateMutability": "nonpayable",
      "type": "function"
    },
    {
      "inputs": [
        {
          "internalType": "address",
          "name": "_from",
          "type": "address"
        },
        {
          "internalType": "address",
          "name": "_to",
          "type": "address"
        },
        {
          "internalType": "uint256",
          "name": "_tokenId",
          "type": "uint256"
        },
        {
          "internalType": "bytes",
          "name": "_data",
          "type": "bytes"
        }
      ],
      "name": "safeTransferFrom",
      "outputs": [],
      "stateMutability": "nonpayable",
      "type": "function"
    },
    {
      "inputs": [],
      "name": "schemaVersion",
      "outputs": [
        {
          "internalType": "uint256",
          "name": "",
          "type": "uint256"
        }
      ],
      "stateMutability": "view",
      "type": "function"
    },
    {
      "inputs": [
        {
          "internalType": "address",
          "name": "_to",
          "type": "address"
        },
        {
          "internalType": "bool",
          "name": "_approved",
          "type": "bool"
        }
      ],
      "name": "setApprovalForAll",
      "outputs": [],
      "stateMutability": "nonpayable",
      "type": "function"
    },
    {
      "inputs": [
        {
          "internalType": "address",
          "name": "_onKeyPurchaseHook",
          "type": "address"
        },
        {
          "internalType": "address",
          "name": "_onKeyCancelHook",
          "type": "address"
        },
        {
          "internalType": "address",
          "name": "_onValidKeyHook",
          "type": "address"
        },
        {
          "internalType": "address",
          "name": "_onTokenURIHook",
          "type": "address"
        },
        {
          "internalType": "address",
          "name": "_onKeyTransferHook",
          "type": "address"
        },
        {
          "internalType": "address",
          "name": "_onKeyExtendHook",
          "type": "address"
        },
        {
          "internalType": "address",
          "name": "_onKeyGrantHook",
          "type": "address"
        }
      ],
      "name": "setEventHooks",
      "outputs": [],
      "stateMutability": "nonpayable",
      "type": "function"
    },
    {
      "inputs": [
        {
          "internalType": "uint256",
          "name": "_refundValue",
          "type": "uint256"
        }
      ],
      "name": "setGasRefundValue",
      "outputs": [],
      "stateMutability": "nonpayable",
      "type": "function"
    },
    {
      "inputs": [
        {
          "internalType": "uint256",
          "name": "_tokenId",
          "type": "uint256"
        },
        {
          "internalType": "address",
          "name": "_keyManager",
          "type": "address"
        }
      ],
      "name": "setKeyManagerOf",
      "outputs": [],
      "stateMutability": "nonpayable",
      "type": "function"
    },
    {
      "inputs": [
        {
          "internalType": "string",
          "name": "_lockName",
          "type": "string"
        },
        {
          "internalType": "string",
          "name": "_lockSymbol",
          "type": "string"
        },
        {
          "internalType": "string",
          "name": "_baseTokenURI",
          "type": "string"
        }
      ],
      "name": "setLockMetadata",
      "outputs": [],
      "stateMutability": "nonpayable",
      "type": "function"
    },
    {
      "inputs": [
        {
          "internalType": "address",
          "name": "account",
          "type": "address"
        }
      ],
      "name": "setOwner",
      "outputs": [],
      "stateMutability": "nonpayable",
      "type": "function"
    },
    {
      "inputs": [
        {
          "internalType": "address",
          "name": "_referrer",
          "type": "address"
        },
        {
          "internalType": "uint256",
          "name": "_feeBasisPoint",
          "type": "uint256"
        }
      ],
      "name": "setReferrerFee",
      "outputs": [],
      "stateMutability": "nonpayable",
      "type": "function"
    },
    {
      "inputs": [
        {
          "internalType": "address",
          "name": "_to",
          "type": "address"
        },
        {
          "internalType": "uint256",
          "name": "_tokenIdFrom",
          "type": "uint256"
        },
        {
          "internalType": "uint256",
          "name": "_timeShared",
          "type": "uint256"
        }
      ],
      "name": "shareKey",
      "outputs": [],
      "stateMutability": "nonpayable",
      "type": "function"
    },
    {
      "inputs": [
        {
          "internalType": "bytes4",
          "name": "interfaceId",
          "type": "bytes4"
        }
      ],
      "name": "supportsInterface",
      "outputs": [
        {
          "internalType": "bool",
          "name": "",
          "type": "bool"
        }
      ],
      "stateMutability": "view",
      "type": "function"
    },
    {
      "inputs": [],
      "name": "symbol",
      "outputs": [
        {
          "internalType": "string",
          "name": "",
          "type": "string"
        }
      ],
      "stateMutability": "view",
      "type": "function"
    },
    {
      "inputs": [],
      "name": "tokenAddress",
      "outputs": [
        {
          "internalType": "address",
          "name": "",
          "type": "address"
        }
      ],
      "stateMutability": "view",
      "type": "function"
    },
    {
      "inputs": [
        {
          "internalType": "uint256",
          "name": "_index",
          "type": "uint256"
        }
      ],
      "name": "tokenByIndex",
      "outputs": [
        {
          "internalType": "uint256",
          "name": "",
          "type": "uint256"
        }
      ],
      "stateMutability": "view",
      "type": "function"
    },
    {
      "inputs": [
        {
          "internalType": "address",
          "name": "_keyOwner",
          "type": "address"
        },
        {
          "internalType": "uint256",
          "name": "_index",
          "type": "uint256"
        }
      ],
      "name": "tokenOfOwnerByIndex",
      "outputs": [
        {
          "internalType": "uint256",
          "name": "",
          "type": "uint256"
        }
      ],
      "stateMutability": "view",
      "type": "function"
    },
    {
      "inputs": [
        {
          "internalType": "uint256",
          "name": "_tokenId",
          "type": "uint256"
        }
      ],
      "name": "tokenURI",
      "outputs": [
        {
          "internalType": "string",
          "name": "",
          "type": "string"
        }
      ],
      "stateMutability": "view",
      "type": "function"
    },
    {
      "inputs": [
        {
          "internalType": "address",
          "name": "_keyOwner",
          "type": "address"
        }
      ],
      "name": "totalKeys",
      "outputs": [
        {
          "internalType": "uint256",
          "name": "",
          "type": "uint256"
        }
      ],
      "stateMutability": "view",
      "type": "function"
    },
    {
      "inputs": [],
      "name": "totalSupply",
      "outputs": [
        {
          "internalType": "uint256",
          "name": "",
          "type": "uint256"
        }
      ],
      "stateMutability": "view",
      "type": "function"
    },
    {
      "inputs": [],
      "name": "transferFeeBasisPoints",
      "outputs": [
        {
          "internalType": "uint256",
          "name": "",
          "type": "uint256"
        }
      ],
      "stateMutability": "view",
      "type": "function"
    },
    {
      "inputs": [
        {
          "internalType": "address",
          "name": "_from",
          "type": "address"
        },
        {
          "internalType": "address",
          "name": "_recipient",
          "type": "address"
        },
        {
          "internalType": "uint256",
          "name": "_tokenId",
          "type": "uint256"
        }
      ],
      "name": "transferFrom",
      "outputs": [],
      "stateMutability": "nonpayable",
      "type": "function"
    },
    {
      "inputs": [
        {
          "internalType": "address",
          "name": "_recipient",
          "type": "address"
        },
        {
          "internalType": "uint256",
          "name": "_tokenId",
          "type": "uint256"
        }
      ],
      "name": "unlendKey",
      "outputs": [],
      "stateMutability": "nonpayable",
      "type": "function"
    },
    {
      "inputs": [],
      "name": "unlockProtocol",
      "outputs": [
        {
          "internalType": "contract IUnlock",
          "name": "",
          "type": "address"
        }
      ],
      "stateMutability": "view",
      "type": "function"
    },
    {
      "inputs": [
        {
          "internalType": "uint256",
          "name": "_keyPrice",
          "type": "uint256"
        },
        {
          "internalType": "address",
          "name": "_tokenAddress",
          "type": "address"
        }
      ],
      "name": "updateKeyPricing",
      "outputs": [],
      "stateMutability": "nonpayable",
      "type": "function"
    },
    {
      "inputs": [
        {
          "internalType": "uint256",
          "name": "_newExpirationDuration",
          "type": "uint256"
        },
        {
          "internalType": "uint256",
          "name": "_maxNumberOfKeys",
          "type": "uint256"
        },
        {
          "internalType": "uint256",
          "name": "_maxKeysPerAcccount",
          "type": "uint256"
        }
      ],
      "name": "updateLockConfig",
      "outputs": [],
      "stateMutability": "nonpayable",
      "type": "function"
    },
    {
      "inputs": [
        {
          "internalType": "uint256",
          "name": "_freeTrialLength",
          "type": "uint256"
        },
        {
          "internalType": "uint256",
          "name": "_refundPenaltyBasisPoints",
          "type": "uint256"
        }
      ],
      "name": "updateRefundPenalty",
      "outputs": [],
      "stateMutability": "nonpayable",
      "type": "function"
    },
    {
      "inputs": [],
      "name": "updateSchemaVersion",
      "outputs": [],
      "stateMutability": "nonpayable",
      "type": "function"
    },
    {
      "inputs": [
        {
          "internalType": "uint256",
          "name": "_transferFeeBasisPoints",
          "type": "uint256"
        }
      ],
      "name": "updateTransferFee",
      "outputs": [],
      "stateMutability": "nonpayable",
      "type": "function"
    },
    {
      "inputs": [
        {
          "internalType": "address",
          "name": "_tokenAddress",
          "type": "address"
        },
        {
          "internalType": "address payable",
          "name": "_recipient",
          "type": "address"
        },
        {
          "internalType": "uint256",
          "name": "_amount",
          "type": "uint256"
        }
      ],
      "name": "withdraw",
      "outputs": [],
      "stateMutability": "nonpayable",
      "type": "function"
    },
    {
      "stateMutability": "payable",
      "type": "receive"
    }
  ],
  "bytecode": "0x608060405234801561001057600080fd5b50615f9580620000216000396000f3fe6080604052600436106104185760003560e01c806370a0823111610220578063b11d7ec111610124578063d32bfb6c116100b1578063d32bfb6c14610d40578063d52e4a1014610d60578063d547741f14610d76578063d813cc1914610d96578063d9caed1214610da9578063debe2b0d14610dc9578063e985e9c514610de9578063f0ba604014610e09578063f12c6b6e14610e1e578063f32e8b2414610e3e578063f5766b3914610e5357600080fd5b8063b11d7ec114610bf4578063b129694e14610c14578063b1a3b25d14610c35578063b88d4fde14610c55578063c23135dd14610c75578063c87b56dd14610ca3578063c907c3ec14610cc3578063d1b8759b14610ce4578063d1bbd49c14610d04578063d250348514610d2057600080fd5b806391d14854116101ad57806391d1485414610abb57806392ac98a514610adb57806393fd184414610afb57806395d89b4114610b125780639d76ea5814610b27578063a217fddf14610b48578063a22cb46514610b5d578063a2e4cd2e14610b7d578063a375cb0514610b9d578063a98d362314610bb4578063aae4b8f714610bd457600080fd5b806370a082311461098457806374b6c106146109a457806374cac47d146109bb5780637ec2a724146109db578063812eecd4146109fc57806381a3c94314610a1c5780638505fe9514610a3c5780638577a6d514610a5c5780638932a90d14610a7c5780638da5cb5b14610a9c57600080fd5b80632f54bf6e116103275780634d025fed116102b45780634d025fed146108185780634e2ce6d31461084f5780634f6ccce71461086657806350878a471461088657806354b249fb146108a6578063558b71e9146108d757806356e0d51f146108f75780636207a8da1461090e5780636352211e146109245780636d8ea5b4146109445780636eadde431461096457600080fd5b80632f54bf6e146106c75780632f745c59146106f7578063338189971461071757806336568abe14610737578063389f07e81461075757806339f4698614610778578063407dc5891461079857806342842e0e146107b857806342966c68146107d85780634cd38c1d146107f857600080fd5b806313af4035116103a557806313af40351461058757806318160ddd146105a7578063183767da146105bd578063217751bc146105d457806323b872dd146105f5578063248a9ca31461061557806326e9ca0714610645578063282478df146106665780632d33dd5b146106865780632f2ff15d146106a757600080fd5b806301ffc9a714610424578063068208cd1461045957806306fdde031461047b578063081812fc1461049d578063095ea7b3146104ca578063097ba333146104ea5780630c2db8d1146105185780630f15023b1461053857806310e569731461055957806311a4c03a1461057057600080fd5b3661041f57005b600080fd5b34801561043057600080fd5b5061044461043f366004615044565b610e73565b60405190151581526020015b60405180910390f35b34801561046557600080fd5b50610479610474366004615061565b610e84565b005b34801561048757600080fd5b50610490610f03565b60405161045091906150e5565b3480156104a957600080fd5b506104bd6104b83660046150f8565b610f92565b6040516104509190615111565b3480156104d657600080fd5b506104796104e536600461513a565b610fba565b3480156104f657600080fd5b5061050a610505366004615229565b611055565b604051908152602001610450565b34801561052457600080fd5b5061047961053336600461528a565b6110f6565b34801561054457600080fd5b50610c83546104bd906001600160a01b031681565b34801561056557600080fd5b5061050a610c855481565b34801561057c57600080fd5b5061050a610c845481565b34801561059357600080fd5b506104796105a23660046152cb565b61114b565b3480156105b357600080fd5b50610c875461050a565b3480156105c957600080fd5b5061050a6124065481565b3480156105e057600080fd5b50610c8a546104bd906001600160a01b031681565b34801561060157600080fd5b5061047961061036600461528a565b6111dc565b34801561062157600080fd5b5061050a6106303660046150f8565b60009081526097602052604090206001015490565b34801561065157600080fd5b50610c8b546104bd906001600160a01b031681565b34801561067257600080fd5b50610479610681366004615061565b61120d565b34801561069257600080fd5b50610c89546104bd906001600160a01b031681565b3480156106b357600080fd5b506104796106c23660046152e8565b6112b2565b3480156106d357600080fd5b506104446106e23660046152cb565b612bd9546001600160a01b0390811691161490565b34801561070357600080fd5b5061050a61071236600461513a565b6112d7565b61072a610725366004615450565b61132b565b6040516104509190615527565b34801561074357600080fd5b506104796107523660046152e8565b611709565b34801561076357600080fd5b50610c8f546104bd906001600160a01b031681565b34801561078457600080fd5b5061047961079336600461556b565b61178c565b3480156107a457600080fd5b506104796107b336600461513a565b6117da565b3480156107c457600080fd5b506104796107d336600461528a565b611825565b3480156107e457600080fd5b506104796107f33660046150f8565b611840565b34801561080457600080fd5b5061047961081336600461556b565b6118b6565b34801561082457600080fd5b506104bd6108333660046150f8565b611078602052600090815260409020546001600160a01b031681565b34801561085b57600080fd5b5061050a610c8d5481565b34801561087257600080fd5b5061050a6108813660046150f8565b61191a565b34801561089257600080fd5b506104446108a13660046152e8565b611943565b3480156108b257600080fd5b5061050a6108c13660046150f8565b600090815261107b602052604090206001015490565b3480156108e357600080fd5b506104796108f236600461556b565b611a99565b34801561090357600080fd5b5061050a6127ef5481565b34801561091a57600080fd5b5061201d5461050a565b34801561093057600080fd5b506104bd61093f3660046150f8565b611abd565b34801561095057600080fd5b5061044461095f3660046152cb565b611ad9565b34801561097057600080fd5b5061047961097f3660046155ce565b611b8d565b34801561099057600080fd5b5061050a61099f3660046152cb565b611d0c565b3480156109b057600080fd5b5061050a610c865481565b3480156109c757600080fd5b506104796109d6366004615653565b611d5e565b3480156109e757600080fd5b50610c8c546104bd906001600160a01b031681565b348015610a0857600080fd5b5061050a610a173660046152cb565b61203f565b348015610a2857600080fd5b5061072a610a373660046156e9565b612085565b348015610a4857600080fd5b50610479610a573660046152e8565b6122f4565b348015610a6857600080fd5b50610479610a773660046150f8565b61235b565b348015610a8857600080fd5b50610479610a97366004615763565b61239c565b348015610aa857600080fd5b50612bd9546001600160a01b03166104bd565b348015610ac757600080fd5b50610444610ad63660046152e8565b6124a7565b348015610ae757600080fd5b5061050a610af63660046150f8565b6124d2565b348015610b0757600080fd5b5061050a6110775481565b348015610b1e57600080fd5b506104906125c1565b348015610b3357600080fd5b506104b1546104bd906001600160a01b031681565b348015610b5457600080fd5b5061050a600081565b348015610b6957600080fd5b50610479610b783660046157b2565b6126ec565b348015610b8957600080fd5b50610479610b983660046152e8565b61278a565b348015610ba957600080fd5b5061050a6127f05481565b348015610bc057600080fd5b50610444610bcf3660046150f8565b612818565b348015610be057600080fd5b50610444610bef3660046152cb565b6128dc565b348015610c0057600080fd5b50610479610c0f3660046152e8565b6128f6565b348015610c2057600080fd5b50610c91546104bd906001600160a01b031681565b348015610c4157600080fd5b5061050a610c5036600461556b565b612944565b348015610c6157600080fd5b50610479610c703660046157e0565b6129b7565b348015610c8157600080fd5b5061050a610c903660046152cb565b6120216020526000908152604090205481565b348015610caf57600080fd5b50610490610cbe3660046150f8565b6129f1565b348015610ccf57600080fd5b50610c90546104bd906001600160a01b031681565b348015610cf057600080fd5b50610479610cff36600461584b565b612c83565b348015610d1057600080fd5b50604051600d8152602001610450565b348015610d2c57600080fd5b50610479610d3b3660046152cb565b612cfe565b348015610d4c57600080fd5b50610479610d5b3660046150f8565b612d55565b348015610d6c57600080fd5b50610c8e5461050a565b348015610d8257600080fd5b50610479610d913660046152e8565b612d87565b610479610da43660046158d2565b612dac565b348015610db557600080fd5b50610479610dc436600461528a565b612e73565b348015610dd557600080fd5b50610479610de436600461513a565b612fa9565b348015610df557600080fd5b50610444610e0436600461593b565b61300b565b348015610e1557600080fd5b5061047961303a565b348015610e2a57600080fd5b50610479610e39366004615969565b61307f565b348015610e4a57600080fd5b5061047961321e565b348015610e5f57600080fd5b50610479610e6e3660046150f8565b61322e565b6000610e7e82613272565b92915050565b610e8d8361327d565b610e96836132af565b610e9f836132d5565b610ea88261327d565b600083815261107b6020526040902060010154610ec69042906159b4565b811115610ee6576040516310e88eed60e31b815260040160405180910390fd5b610ef28382600061339f565b610efe8282600161339f565b505050565b6114628054610f11906159cb565b80601f0160208091040260200160405190810160405280929190818152602001828054610f3d906159cb565b8015610f8a5780601f10610f5f57610100808354040283529160200191610f8a565b820191906000526020600020905b815481529060010190602001808311610f6d57829003601f168201915b505050505081565b6000610f9d8261327d565b50600090815261107960205260409020546001600160a01b031690565b610fc3816132d5565b6001600160a01b0382163303610fec57604051637899146560e11b815260040160405180910390fd5b60008181526110796020908152604080832080546001600160a01b0319166001600160a01b03878116918217909255611076909352818420549151859492909116917f8c5be1e5ebec7d5bd14f71427d1e84f3dd0314c0f7b2291e5b200ac8c7c3b92591a45050565b610c89546000906001600160a01b0316156110e957610c895460405163221c1fd160e01b81526001600160a01b039091169063221c1fd1906110a19033908890889088906004016159ff565b602060405180830381865afa1580156110be573d6000803e3d6000fd5b505050506040513d601f19601f820116820180604052508101906110e29190615a33565b90506110ef565b50610c85545b9392505050565b6111008133613471565b61111d5760405163075fd2b160e01b815260040160405180910390fd5b6111288383836134e9565b60009081526110786020526040902080546001600160a01b031916331790555050565b6111536136cf565b6001600160a01b03811661117a576040516330c6e09f60e21b815260040160405180910390fd5b612bd980546001600160a01b038381166001600160a01b031983168117909355604080519190921680825260208201939093527f8be0079c531659141344cd1fd0a4f28419497f9722a3daafe3b4186f6b6457e0910160405180910390a15050565b6111e5816132d5565b60008181526110786020526040902080546001600160a01b0319169055610efe8383836134e9565b6112156136cf565b806000036112365760405163e03b033d60e01b815260040160405180910390fd5b610c875482101561125a57604051631d00cd6b60e01b815260040160405180910390fd5b610c8e819055610c84839055610c8682905560408051848152602081018490529081018290527f9a09448a3f24d3a01ccc67103c7cddbeea820176a18182cc83d0bce585f26a5b9060600160405180910390a1505050565b6000828152609760205260409020600101546112cd81613706565b610efe8383613710565b60006112e28361203f565b821061130157604051630471175760e11b815260040160405180910390fd5b506001600160a01b0391909116600090815261107c60209081526040808320938352929052205490565b6060611335613796565b610c86548651610c87546113499190615a4c565b1115611368576040516331af695160e01b815260040160405180910390fd5b8451865114158061137b57508351865114155b15611399576040516376b3b52560e11b815260040160405180910390fd5b60008087516001600160401b038111156113b5576113b5615166565b6040519080825280602002602001820160405280156113de578160200160208202803683370190505b50905060005b88518110156116a057600089828151811061140157611401615a64565b602002602001015190506114508189848151811061142157611421615a64565b6020026020010151600019610c84541461144857610c84546114439042615a4c565b6137ba565b6000196137ba565b83838151811061146257611462615a64565b60200260200101818152505060006114ec828b858151811061148657611486615a64565b60200260200101518a8a878181106114a0576114a0615a64565b90506020028101906114b29190615a7a565b8080601f01602080910402602001604051908101604052809392919081815260200183838082843760009201919091525061105592505050565b90506114f88186615a4c565b945061151d84848151811061150f5761150f615a64565b602002602001015182613895565b6104b1546001600160a01b031615611552576115528c848151811061154457611544615a64565b602002602001015182613946565b611575818b858151811061156857611568615a64565b6020026020010151613967565b6104b1546000906001600160a01b0316156115a9578c848151811061159c5761159c615a64565b60200260200101516115ab565b345b610c89549091506001600160a01b03161561168a57610c895485516001600160a01b0390911690635e895f29908790879081106115ea576115ea615a64565b602002602001015133868f898151811061160657611606615a64565b60200260200101518e8e8b81811061162057611620615a64565b90506020028101906116329190615a7a565b89896040518963ffffffff1660e01b8152600401611657989796959493929190615ac0565b600060405180830381600087803b15801561167157600080fd5b505af1158015611685573d6000803e3d6000fd5b505050505b505050808061169890615b2a565b9150506113e4565b506116ab3383613a3c565b6116b482613ae7565b6116bc613bdb565b60005b87518110156116fc576116ea8882815181106116dd576116dd615a64565b6020026020010151613c4f565b806116f481615b2a565b9150506116bf565b5098975050505050505050565b6001600160a01b038116331461177e5760405162461bcd60e51b815260206004820152602f60248201527f416363657373436f6e74726f6c3a2063616e206f6e6c792072656e6f756e636560448201526e103937b632b9903337b91039b2b63360891b60648201526084015b60405180910390fd5b6117888282613cf7565b5050565b6117946136cf565b60408051838152602081018390527fd6867bc538320e67d7bdc35860c27c08486eb490b4fd9b820fff18fb28381d3c910160405180910390a16127f0919091556127ef55565b600081815261107860205260409020546001600160a01b031633146118125760405163075fd2b160e01b815260040160405180910390fd5b61178861181e82611abd565b83836134e9565b610efe838383604051806020016040528060008152506129b7565b6118498161327d565b611852816132d5565b600081815261107660205260408082205490518392916001600160a01b031690600080516020615f20833981519152908390a4600090815261107b6020908152604080832042600190910155611076909152902080546001600160a01b0319169055565b6118be613796565b6118c78261327d565b6118df600080516020615ee0833981519152336124a7565b1580156118f257506118f0336128dc565b155b1561191057604051631798fedb60e01b815260040160405180910390fd5b610efe8282613d5e565b6000610c8754821061193f57604051630471175760e11b815260040160405180910390fd5b5090565b600082815261201f6020526040812054600019148061196c57506104b1546001600160a01b0316155b1561198a57604051636cd40e1160e11b815260040160405180910390fd5b6119ac61199684611abd565b8360405180602001604052806000815250611055565b600084815261201e602052604090205410806119d95750610c8454600084815261201f6020526040902054115b80611a0357506104b154600084815261202060205260409020546001600160a01b03908116911614155b15611a215760405163986739e760e01b815260040160405180910390fd5b6000612710610c8454612328611a379190615b43565b611a419190615b62565b610c8454600086815261107b6020526040902060010154611a6291906159b4565b611a6c9190615a4c565b905080421015611a8f576040516360d8ec3360e11b815260040160405180910390fd5b5060019392505050565b611aa28261327d565b611aab826132af565b611ab36136cf565b6117888282613ebf565b600090815261107660205260409020546001600160a01b031690565b6000611ae482611d0c565b600003611b7a57610c8b546001600160a01b031615611b7a57610c8b5460405163084fdbc760e31b81526001600160a01b039091169063427ede3890611b399030903390600090819089908290600401615b84565b602060405180830381865afa158015611b56573d6000803e3d6000fd5b505050506040513d601f19601f82011682018060405250810190610e7e9190615bbf565b6001611b8583611d0c565b101592915050565b600054610100900460ff1615808015611bad5750600054600160ff909116105b80611bce5750611bbc30613fea565b158015611bce575060005460ff166001145b611c315760405162461bcd60e51b815260206004820152602e60248201527f496e697469616c697a61626c653a20636f6e747261637420697320616c72656160448201526d191e481a5b9a5d1a585b1a5e995960921b6064820152608401611775565b6000805460ff191660011790558015611c54576000805461ff0019166101001790555b611c5d86613ff9565b611c6988888787614025565b611c738383614066565b611c7b61408c565b611c876103e86127ef55565b611c908861409c565b612bd980546001600160a01b0319166001600160a01b038a16179055611cbc6380ac58cd60e01b614133565b8015611d02576000805461ff0019169055604051600181527f7f26b83ff96e1f2b6a682f133852f6798a09c465da95921460cefb38474024989060200160405180910390a15b5050505050505050565b600080611d188361203f565b905060005b81811015611d5757611d32610bcf85836112d7565b15611d455782611d4181615b2a565b9350505b80611d4f81615b2a565b915050611d1d565b5050919050565b611d666136cf565b6001600160a01b03871615801590611d8d5750611d8b876001600160a01b0316613fea565b155b15611dae57604051636788e02b60e01b815260006004820152602401611775565b6001600160a01b03861615801590611dd55750611dd3866001600160a01b0316613fea565b155b15611df657604051636788e02b60e01b815260016004820152602401611775565b6001600160a01b03851615801590611e1d5750611e1b856001600160a01b0316613fea565b155b15611e3e57604051636788e02b60e01b815260026004820152602401611775565b6001600160a01b03841615801590611e655750611e63846001600160a01b0316613fea565b155b15611e8657604051636788e02b60e01b815260036004820152602401611775565b6001600160a01b03831615801590611ead5750611eab836001600160a01b0316613fea565b155b15611ecd57604051636788e02b60e01b8152600481810152602401611775565b6001600160a01b03821615801590611ef45750611ef2826001600160a01b0316613fea565b155b15611f1557604051636788e02b60e01b815260056004820152602401611775565b6001600160a01b03811615801590611f3c5750611f3a816001600160a01b0316613fea565b155b15611f5d57604051636788e02b60e01b815260066004820152602401611775565b610c8980546001600160a01b038981166001600160a01b03199283168117909355610c8a80548a83169084168117909155610c8c80548984169085168117909155610c8b80548b85169086168117909155610c8f80548a86169087168117909155610c9080548a87169088168117909155610c918054968a16969097168617909655604080519788526020880194909452928601526060850152608084015260a083019190915260c08201527f0a851288e37fa9a8bc562891998524e95c286fe84f693c1921e0fd0792171af69060e00160405180910390a150505050505050565b60006001600160a01b03821661206857604051635963709b60e01b815260040160405180910390fd5b506001600160a01b0316600090815261107e602052604090205490565b606061208f613796565b6120a7600080516020615ee0833981519152336124a7565b1580156120ba57506120b8336128dc565b155b156120d857604051631798fedb60e01b815260040160405180910390fd5b6000866001600160401b038111156120f2576120f2615166565b60405190808252806020026020018201604052801561211b578160200160208202803683370190505b50905060005b878110156122e85761219889898381811061213e5761213e615a64565b905060200201602081019061215391906152cb565b86868481811061216557612165615a64565b905060200201602081019061217a91906152cb565b89898581811061218c5761218c615a64565b905060200201356137ba565b8282815181106121aa576121aa615a64565b6020908102919091010152610c91546001600160a01b0316156122d657610c915482516001600160a01b03909116906348a254b8908490849081106121f1576121f1615a64565b6020026020010151338c8c8681811061220c5761220c615a64565b905060200201602081019061222191906152cb565b89898781811061223357612233615a64565b905060200201602081019061224891906152cb565b8c8c8881811061225a5761225a615a64565b6040516001600160e01b031960e08a901b16815260048101979097526001600160a01b039586166024880152938516604487015250921660648401526020020135608482015260a401600060405180830381600087803b1580156122bd57600080fd5b505af11580156122d1573d6000803e3d6000fd5b505050505b806122e081615b2a565b915050612121565b50979650505050505050565b6122fc613796565b6123058261327d565b61230f8282611943565b5061231b826000613d5e565b50612329610c855482613967565b61233e61233583611abd565b610c8554613a3c565b612346613bdb565b61234f81613c4f565b611788610c8554613ae7565b6123636136cf565b6040518181527f0496ed1e61eb69727f9659a8e859288db4758ffb1f744d1c1424634f90a257f49060200160405180910390a161240655565b6123a86001600d615bdc565b61ffff16610c8d5414806123bd5750610c8d54155b6124065760405162461bcd60e51b815260206004820152601a60248201527914d0d211535057d5915494d253d397d393d517d0d3d4949150d560321b6044820152606401611775565b4660010361249d5760007384d085898f6ae4ae8c4225f2601f29a10335f6539050806001600160a01b031663ed9674bd6040518163ffffffff1660e01b8152600401600060405180830381600087803b15801561246257600080fd5b505af1158015612476573d6000803e3d6000fd5b5050610c8380546001600160a01b0319166001600160a01b03949094169390931790925550505b5050600d610c8d55565b60009182526097602090815260408084206001600160a01b0393909316845291905290205460ff1690565b60006124dd826132af565b600019610c8454036124f2575050610c855490565b600082815261107b60205260408120600101546125109042906159b4565b9050610c84546127f054826125259190615a4c565b1061253557610c85549150612555565b610c845481610c85546125489190615b43565b6125529190615b62565b91505b6127f05415806125745750610c84546127f0546125729083615a4c565b105b156125bb5760006127106127ef54610c85546125909190615b43565b61259a9190615b62565b9050808311156125b5576125ae81846159b4565b9250611d57565b60009250505b50919050565b606061146380546125d1906159cb565b905060000361265b57610c8360009054906101000a90046001600160a01b03166001600160a01b031663cec410526040518163ffffffff1660e01b8152600401600060405180830381865afa15801561262e573d6000803e3d6000fd5b505050506040513d6000823e601f3d908101601f191682016040526126569190810190615bff565b905090565b6114638054612669906159cb565b80601f0160208091040260200160405190810160405280929190818152602001828054612695906159cb565b80156126e25780601f106126b7576101008083540402835291602001916126e2565b820191906000526020600020905b8154815290600101906020018083116126c557829003601f168201915b5050505050905090565b6126f46141b2565b336001600160a01b0383160361271d57604051637899146560e11b815260040160405180910390fd5b33600081815261107a602090815260408083206001600160a01b03871680855290835292819020805460ff191686151590811790915590519081529192917f17307eab39ab6107e8899845ad3d59bd9653f200f220920489ca2b5937696c31910160405180910390a35050565b6127926136cf565b61279b816141eb565b610c8580546104b18054928590556001600160a01b031983166001600160a01b0385811691821790925560408051848152602081018890529290941693820184905260608201529091907f3615065ccf48367ac483ac86701248e2e5ff55bdd9be845007d34a3b68d719d49060800160405180910390a150505050565b600081815261107b6020526040812060010154610c8b5442909111906001600160a01b031615610e7e57610c8b54600084815261107b60209081526040808320600101546110769092529182902054915163084fdbc760e31b81526001600160a01b039384169363427ede389361289b93309333938b9316908990600401615b84565b602060405180830381865afa1580156128b8573d6000803e3d6000fd5b505050506040513d601f19601f820116820180604052508101906110ef9190615bbf565b6000610e7e600080516020615f40833981519152836124a7565b6128ff8261327d565b6129098233613471565b15801561291c575061291a336128dc565b155b1561293a5760405163866c2fa760e01b815260040160405180910390fd5b6117888282614282565b600061294f8361327d565b600083815261107b602052604090206001015442811015612974576000915050610e7e565b60008360000361298f5761298842836159b4565b9050612992565b50825b61271061240654826129a49190615b43565b6129ae9190615b62565b92505050610e7e565b6129c28484846111dc565b6129ce8484848461430f565b6129eb576040516303f8ea1560e41b815260040160405180910390fd5b50505050565b606080806000612a00306143c6565b905060608515612a1a57612a13866145b1565b9250612a2d565b6040518060200160405280600081525092505b610c8c546001600160a01b031615612b0457600086815261107b6020526040902060010154610c8c546001600160a01b031663988b93ad3033612a6f8b611abd565b60405160e085901b6001600160e01b03191681526001600160a01b03938416600482015291831660248301529091166044820152606481018a90526084810184905260a401600060405180830381865afa158015612ad1573d6000803e3d6000fd5b505050506040513d6000823e601f3d908101601f19168201604052612af99190810190615bff565b979650505050505050565b6114648054612b12906159cb565b9050600003612bba57610c8360009054906101000a90046001600160a01b03166001600160a01b031663a998e9fb6040518163ffffffff1660e01b8152600401600060405180830381865afa158015612b6f573d6000803e3d6000fd5b505050506040513d6000823e601f3d908101601f19168201604052612b979190810190615bff565b9350604051806040016040528060018152602001602f60f81b8152509050612c6d565b6114648054612bc8906159cb565b80601f0160208091040260200160405190810160405280929190818152602001828054612bf4906159cb565b8015612c415780601f10612c1657610100808354040283529160200191612c41565b820191906000526020600020905b815481529060010190602001808311612c2457829003601f168201915b505050505093506040518060200160405280600081525090506040518060200160405280600081525091505b612c79848383866146e1565b9695505050505050565b612c8b6136cf565b612c986114628787614f9e565b50612ca66114638585614f9e565b50612cb46114648383614f9e565b507f1e6d6a19e45ae156dcf4155bc83cf8f59e98d536000998f0e95f4cd330ecfb3e611462611463611464604051612cee93929190615d14565b60405180910390a1505050505050565b612d066136cf565b612d1e600080516020615f40833981519152826112b2565b6040516001600160a01b038216907f91d5c045d5bd98bf59a379b259ebca05b93bf79af1845fdf87e3172385d4c7f790600090a250565b612d5e8161327d565b612d67816132af565b612d70816132d5565b6000612d7b826124d2565b90506117888282613ebf565b600082815260976020526040902060010154612da281613706565b610efe8383613cf7565b612db4613796565b612dbd8461327d565b612dc8846000613d5e565b506000612e14612dd786611abd565b8585858080601f01602080910402602001604051908101604052809392919081815260200183838082843760009201919091525061105592505050565b6104b1549091506001600160a01b031615612e3357612e338682613946565b612e3d8185613967565b612e473382613a3c565b612e518582613895565b612e59613bdb565b612e6284613c4f565b612e6b81613ae7565b505050505050565b612e7b6136cf565b60006001600160a01b038416612e92575047612f02565b6040516370a0823160e01b81526001600160a01b038516906370a0823190612ebe903090600401615111565b602060405180830381865afa158015612edb573d6000803e3d6000fd5b505050506040513d601f19601f82011682018060405250810190612eff9190615a33565b90505b6000821580612f1057508183115b15612f3d5760008211612f36576040516303e09bb960e31b815260040160405180910390fd5b5080612f40565b50815b836001600160a01b0316856001600160a01b0316336001600160a01b03167f342e7ff505a8a0364cd0dc2ff195c315e43bce86b204846ecd36913e117b109e84604051612f8f91815260200190565b60405180910390a4612fa2858583614713565b5050505050565b612fb16136cf565b6001600160a01b0382166000818152612021602052604090819020839055517fa027572bb55de556a0df93bd38c3871aaf311245c2cd34f0da045aa33a66dbc590612fff9084815260200190565b60405180910390a25050565b6001600160a01b03918216600090815261107a6020908152604080832093909416825291909152205460ff1690565b613052600080516020615f4083398151915233611709565b60405133907f42885193b8178d25fca25a38e6fcc93918501e91be06d85e0c8afb3bad95238090600090a2565b613087613796565b610c8754610c8654116130ad576040516331af695160e01b815260040160405180910390fd5b6130b6826132d5565b6130bf826132af565b6130c76141b2565b600082815261107660205260408120546001600160a01b03169080426130fd86600090815261107b602052604090206001015490565b61310791906159b4565b905060006131158686612944565b905060006131238287615a4c565b9050828110156131415785935061313c8782600061339f565b613199565b61314b8784612944565b915061315782846159b4565b600088815261107b6020526040808220426001909101555191955088917f59f2fe866dd27a1c2d34115520888c3150365cbc931aab97fa88c4b9ab40b7959190a25b60006131aa89826114438842615a4c565b905080896001600160a01b0316876001600160a01b0316600080516020615f2083398151915260405160405180910390a46131f6868a836040518060200160405280600081525061430f565b613213576040516303f8ea1560e41b815260040160405180910390fd5b505050505050505050565b6132266136cf565b600d610c8d55565b6132366136cf565b61201d8190556040518181527f4d816c1058de34c4241ba72c371fb3f2ea05147691b364f04d16bc967ae68a119060200160405180910390a150565b6000610e7e8261474f565b600081815261107b602052604081205490036132ac576040516378fe247360e01b815260040160405180910390fd5b50565b6132b881612818565b6132ac576040516306cfa7d760e11b815260040160405180910390fd5b600081815261107860205260408120546001600160a01b03161561331157600082815261107860205260409020546001600160a01b031661332b565b600082815261107660205260409020546001600160a01b03165b9050613336336128dc565b15801561334a57506133488233613471565b155b801561336e5750600082815261107960205260409020546001600160a01b03163314155b8015613381575061337f813361300b565b155b156117885760405163e17c6d4560e01b815260040160405180910390fd5b6133a88361327d565b600083815261107b602052604090206001015481156133f557428111156133eb576133d38382615a4c565b600085815261107b6020526040902060010155613413565b6133d38342615a4c565b6133ff83826159b4565b600085815261107b60205260409020600101555b600084815261107b602090815260409182902060010154825190815290810185905283151581830152905185917f3c907806849e9204e0e26bb095dfe4b3071576c4323f766735c548211556d052919081900360600190a250505050565b600082815261107860205260408120546001600160a01b03838116911614806134d45750816001600160a01b03166134a884611abd565b6001600160a01b03161480156134d45750600083815261107860205260409020546001600160a01b0316155b156134e157506001610e7e565b506000610e7e565b6134f2816132af565b6134fa6141b2565b826001600160a01b031661350d82611abd565b6001600160a01b0316146135345760405163075fd2b160e01b815260040160405180910390fd5b6001600160a01b03821661355b57604051635963709b60e01b815260040160405180910390fd5b816001600160a01b0316836001600160a01b03160361358d57604051633fbd1a4960e01b815260040160405180910390fd5b6135a38161359c836000612944565b600061339f565b600081815261107b602052604090206135bb8361203f565b6000036135d95761107780549060006135d383615b2a565b91905055505b6135e28261475a565b6135ec8284614860565b6135f582614905565b600082815261201f6020908152604080832083905561201e9091528082208290555183916001600160a01b038087169290881691600080516020615f2083398151915291a4610c8f546001600160a01b0316156129eb57610c8f5460018201546040516375b37aef60e01b8152306004820152602481018590523360448201526001600160a01b038781166064830152868116608483015260a48201929092529116906375b37aef9060c401600060405180830381600087803b1580156136bb57600080fd5b505af1158015611d02573d6000803e3d6000fd5b6136e7600080516020615f40833981519152336124a7565b61370457604051632386d63160e21b815260040160405180910390fd5b565b6132ac8133614942565b61371a82826124a7565b6117885760008281526097602090815260408083206001600160a01b03851684529091529020805460ff191660011790556137523390565b6001600160a01b0316816001600160a01b0316837f2f8788117e7eff1d82e926ec794901d17c78024a50270940304540a733656f0d60405160405180910390a45050565b610c8d54600d14613704576040516302eae03b60e61b815260040160405180910390fd5b60006001600160a01b0384166137e357604051635963709b60e01b815260040160405180910390fd5b610c8780549060006137f483615b2a565b9091555050610c87546040805180820182528281526020808201868152600085815261107b90925292902090518155905160019091015590506138368461203f565b60000361385457611077805490600061384e83615b2a565b91905055505b61385e8185614860565b6138688184614282565b60405181906001600160a01b03861690600090600080516020615f20833981519152908290a49392505050565b600082815261201e602052604090205481146138be57600082815261201e602052604090208190555b610c8454600083815261201f6020526040902054146138ec57610c8454600083815261201f60205260409020555b6104b154600083815261202060205260409020546001600160a01b03908116911614611788576104b15460008381526120206020526040902080546001600160a01b0319166001600160a01b039092169190911790555050565b80821015611788576040516330005fb160e21b815260040160405180910390fd5b610c83546001600160a01b03163b15613a1057610c835460405163939d9f1f60e01b8152600481018490526001600160a01b0383811660248301529091169063939d9f1f90620493e090604401600060405180830381600088803b1580156139ce57600080fd5b5087f1935050505080156139e0575060015b61178857610c83546040513091600080516020615f0083398151915291612fff916001600160a01b031690615111565b610c83546040513091600080516020615f0083398151915291612fff916001600160a01b031690615111565b6104b1546001600160a01b031615613ac6576104b1546040516323b872dd60e01b81526001600160a01b03909116906323b872dd90613a8390859030908690600401615d4d565b6020604051808303816000875af1158015613aa2573d6000803e3d6000fd5b505050506040513d601f19601f82011682018060405250810190610efe9190615bbf565b80341015611788576040516306c3cddf60e41b815260040160405180910390fd5b610c83546000906001600160a01b03163b1561178857610c8360009054906101000a90046001600160a01b03166001600160a01b031663b0e21e8a6040518163ffffffff1660e01b8152600401602060405180830381865afa925050508015613b6d575060408051601f3d908101601f19168201909252613b6a91810190615a33565b60015b613b9d57610c83546040513091600080516020615f0083398151915291612fff916001600160a01b031690615111565b612710613baa8285615b43565b613bb49190615b62565b91508115610efe576104b154610c8354610efe916001600160a01b03908116911684614713565b61201d5415613704576104b15461201d54613c01916001600160a01b0316903390614713565b61201d546104b154604080519283526001600160a01b03909116602083015233917f522a883b471164223f18b50f326da8671372b64b4792eac0e63d447e714c3e3b910160405180910390a2565b6001600160a01b038116156132ac576120216020527fbbf49b187b4eec20543870e5a9a1eca860f6401d307ebc277f97ccb3ff47b08b546001600160a01b0382166000908152604090205415613cbb57506001600160a01b038116600090815261202160205260409020545b8015611788576104b154610c8554611788916001600160a01b031690849061271090613ce8908690615b43565b613cf29190615b62565b614713565b613d0182826124a7565b156117885760008281526097602090815260408083206001600160a01b0385168085529252808320805460ff1916905551339285917ff6391f5c32d9c69d2a47ea670b442974b53935d1edc7fd64eb21e047a839171b9190a45050565b600082815261107b60205260408120600190810154908101613d9357604051630fed19c160e11b815260040160405180910390fd5b60008315613da15783613da6565b610c84545b90506000198103613dbb576000199250613de1565b42821115613dd457613dcd8183615a4c565b9250613de1565b613dde8142615a4c565b92505b600085815261107b6020526040908190206001018490555185907f3ca112768ff7861e008ace1c11570c52e404c043e585545b5957a1e20961dde390613e2a9086815260200190565b60405180910390a2610c90546001600160a01b031615613eb757610c90546040516202d72d60e71b81526004810187905233602482015260448101859052606481018490526001600160a01b039091169063016b968090608401600060405180830381600087803b158015613e9e57600080fd5b505af1158015613eb2573d6000803e3d6000fd5b505050505b505092915050565b6000613eca83611abd565b600084815261107b60205260409020426001909101559050336001600160a01b0316816001600160a01b0316847f0a7068a9989857441c039a14a42b67ed71dd1fcfe5a9b17cc87b252e47bce52885604051613f2891815260200190565b60405180910390a48115613f4e576104b154613f4e906001600160a01b03168284614713565b600083815261201f6020908152604080832083905561201e909152812055610c8a546001600160a01b031615610efe57610c8a5460405163b499b6c560e01b81526001600160a01b039091169063b499b6c590613fb390339085908790600401615d4d565b600060405180830381600087803b158015613fcd57600080fd5b505af1158015613fe1573d6000803e3d6000fd5b50505050505050565b6001600160a01b03163b151590565b614002816141eb565b6104b180546001600160a01b0319166001600160a01b0392909216919091179055565b610c8380546001600160a01b03191633179055610c84839055610c85829055610c86819055614052600d90565b61ffff16610c8d5550506001610c8e555050565b61406e6149a6565b61407b6114628383614f9e565b50611788635b5e139f60e01b614133565b61370463780e9d6360e01b614133565b6140b4600080516020615f4083398151915280614a11565b6140da600080516020615ee0833981519152600080516020615f40833981519152614a11565b6140e3816128dc565b6140ff576140ff600080516020615f4083398151915282614a5c565b614117600080516020615ee0833981519152826124a7565b6132ac576132ac600080516020615ee083398151915282614a5c565b6001600160e01b0319808216900361418d5760405162461bcd60e51b815260206004820152601c60248201527f4552433136353a20696e76616c696420696e74657266616365206964000000006044820152606401611775565b6001600160e01b0319166000908152606560205260409020805460ff19166001179055565b61271061240654101580156141cd57506141cb336128dc565b155b15613704576040516323f21a3d60e21b815260040160405180910390fd5b6001600160a01b0381161580159061426457506000816001600160a01b03166318160ddd6040518163ffffffff1660e01b8152600401602060405180830381865afa15801561423e573d6000803e3d6000fd5b505050506040513d601f19601f820116820180604052508101906142629190615a33565b105b156132ac5760405163684cae7960e11b815260040160405180910390fd5b600082815261107860205260409020546001600160a01b038281169116146117885760008281526110786020526040902080546001600160a01b0319166001600160a01b0383161790556142d582614905565b6040516001600160a01b0382169083907f9d2895c45a420624de863a2f437b022d879f457bf7a829044055a10c5a6fd5e390600090a35050565b6000614323846001600160a01b0316613fea565b61432f575060016143be565b604051630a85bd0160e11b81526000906001600160a01b0386169063150b7a02906143649033908a9089908990600401615d71565b6020604051808303816000875af1158015614383573d6000803e3d6000fd5b505050506040513d601f19601f820116820180604052508101906143a79190615da4565b6001600160e01b031916630a85bd0160e11b149150505b949350505050565b604080518082018252601081526f181899199a1a9b1b9c1cb0b131b232b360811b60208201528151602a80825260608281019094526001600160a01b0385169291600091602082018180368337019050509050600360fc1b8160008151811061443157614431615a64565b60200101906001600160f81b031916908160001a905350600f60fb1b8160018151811061446057614460615a64565b60200101906001600160f81b031916908160001a90535060005b60148110156145a8578260048561449284600c615a4c565b602081106144a2576144a2615a64565b1a60f81b6001600160f81b031916901c60f81c60ff16815181106144c8576144c8615a64565b01602001516001600160f81b031916826144e3836002615b43565b6144ee906002615a4c565b815181106144fe576144fe615a64565b60200101906001600160f81b031916908160001a905350828461452283600c615a4c565b6020811061453257614532615a64565b825191901a600f1690811061454957614549615a64565b01602001516001600160f81b03191682614564836002615b43565b61456f906003615a4c565b8151811061457f5761457f615a64565b60200101906001600160f81b031916908160001a905350806145a081615b2a565b91505061447a565b50949350505050565b60608160008190036145dc5750506040805180820190915260018152600360fc1b6020820152919050565b8260005b811561460657806145f081615b2a565b91506145ff9050600a83615b62565b91506145e0565b6000816001600160401b0381111561462057614620615166565b6040519080825280601f01601f19166020018201604052801561464a576020820181803683370190505b509050815b84156146d7576146606001826159b4565b9050600061466f600a87615b62565b61467a90600a615b43565b61468490876159b4565b61468f906030615dc1565b905060008160f81b9050808484815181106146ac576146ac615a64565b60200101906001600160f81b031916908160001a9053506146ce600a88615b62565b9650505061464f565b5095945050505050565b6060848484846040516020016146fa9493929190615de6565b6040516020818303038152906040529050949350505050565b8015610efe576001600160a01b03831661473a57610efe6001600160a01b03831682614a66565b826129eb6001600160a01b0382168484614b7c565b6000610e7e82614bce565b600081815261107660205260408120546001600160a01b031690600161477f8361203f565b61478991906159b4565b600084815261107d60205260409020549091508082146147df576001600160a01b038316600090815261107c60209081526040808320858452825280832054848452818420819055835261107d90915290208190555b6001600160a01b038316600090815261107c6020908152604080832085845290915281205561480d8361203f565b60010361482b57611077805490600061482583615e3d565b91905055505b6001600160a01b038316600090815261107e602052604081208054600192906148559084906159b4565b909155505050505050565b600061486b8261203f565b9050610c8e54811061489057604051630bf6c32360e11b815260040160405180910390fd5b600083815261107d602090815260408083208490556001600160a01b03851680845261107c83528184208585528352818420879055868452611076835281842080546001600160a01b03191682179055835261107e90915281208054600192906148fb908490615a4c565b9091555050505050565b600081815261107960205260409020546001600160a01b0316156132ac5760009081526110796020526040902080546001600160a01b0319169055565b61494c82826124a7565b61178857614964816001600160a01b03166014614bf3565b61496f836020614bf3565b604051602001614980929190615e54565b60408051601f198184030181529082905262461bcd60e51b8252611775916004016150e5565b600054610100900460ff166137045760405162461bcd60e51b815260206004820152602b60248201527f496e697469616c697a61626c653a20636f6e7472616374206973206e6f74206960448201526a6e697469616c697a696e6760a81b6064820152608401611775565b600082815260976020526040808220600101805490849055905190918391839186917fbd79b86ffe0ab8e8776151514217cd7cacd52c909f66475c3af44e129f0b00ff9190a4505050565b6117888282613710565b80471015614ab65760405162461bcd60e51b815260206004820152601d60248201527f416464726573733a20696e73756666696369656e742062616c616e63650000006044820152606401611775565b6000826001600160a01b03168260405160006040518083038185875af1925050503d8060008114614b03576040519150601f19603f3d011682016040523d82523d6000602084013e614b08565b606091505b5050905080610efe5760405162461bcd60e51b815260206004820152603a60248201527f416464726573733a20756e61626c6520746f2073656e642076616c75652c20726044820152791958da5c1a595b9d081b585e481a185d99481c995d995c9d195960321b6064820152608401611775565b604080516001600160a01b038416602482015260448082018490528251808303909101815260649091019091526020810180516001600160e01b031663a9059cbb60e01b179052610efe908490614d8e565b60006001600160e01b03198216637965db0b60e01b1480610e7e5750610e7e82614e60565b60606000614c02836002615b43565b614c0d906002615a4c565b6001600160401b03811115614c2457614c24615166565b6040519080825280601f01601f191660200182016040528015614c4e576020820181803683370190505b509050600360fc1b81600081518110614c6957614c69615a64565b60200101906001600160f81b031916908160001a905350600f60fb1b81600181518110614c9857614c98615a64565b60200101906001600160f81b031916908160001a9053506000614cbc846002615b43565b614cc7906001615a4c565b90505b6001811115614d3f576f181899199a1a9b1b9c1cb0b131b232b360811b85600f1660108110614cfb57614cfb615a64565b1a60f81b828281518110614d1157614d11615a64565b60200101906001600160f81b031916908160001a90535060049490941c93614d3881615e3d565b9050614cca565b5083156110ef5760405162461bcd60e51b815260206004820181905260248201527f537472696e67733a20686578206c656e67746820696e73756666696369656e746044820152606401611775565b6000614de3826040518060400160405280602081526020017f5361666545524332303a206c6f772d6c6576656c2063616c6c206661696c6564815250856001600160a01b0316614e9c9092919063ffffffff16565b805190915015610efe5780806020019051810190614e019190615bbf565b610efe5760405162461bcd60e51b815260206004820152602a60248201527f5361666545524332303a204552433230206f7065726174696f6e20646964206e6044820152691bdd081cdd58d8d9595960b21b6064820152608401611775565b60006301ffc9a760e01b6001600160e01b031983161480610e7e5750506001600160e01b03191660009081526065602052604090205460ff1690565b60606143be848460008585614eb085613fea565b614efc5760405162461bcd60e51b815260206004820152601d60248201527f416464726573733a2063616c6c20746f206e6f6e2d636f6e74726163740000006044820152606401611775565b600080866001600160a01b03168587604051614f189190615ec3565b60006040518083038185875af1925050503d8060008114614f55576040519150601f19603f3d011682016040523d82523d6000602084013e614f5a565b606091505b5091509150612af982828660608315614f745750816110ef565b825115614f845782518084602001fd5b8160405162461bcd60e51b815260040161177591906150e5565b828054614faa906159cb565b90600052602060002090601f016020900481019282614fcc5760008555615012565b82601f10614fe55782800160ff19823516178555615012565b82800160010185558215615012579182015b82811115615012578235825591602001919060010190614ff7565b5061193f9291505b8082111561193f576000815560010161501a565b6001600160e01b0319811681146132ac57600080fd5b60006020828403121561505657600080fd5b81356110ef8161502e565b60008060006060848603121561507657600080fd5b505081359360208301359350604090920135919050565b60005b838110156150a8578181015183820152602001615090565b838111156129eb5750506000910152565b600081518084526150d181602086016020860161508d565b601f01601f19169290920160200192915050565b6020815260006110ef60208301846150b9565b60006020828403121561510a57600080fd5b5035919050565b6001600160a01b0391909116815260200190565b6001600160a01b03811681146132ac57600080fd5b6000806040838503121561514d57600080fd5b823561515881615125565b946020939093013593505050565b634e487b7160e01b600052604160045260246000fd5b604051601f8201601f191681016001600160401b03811182821017156151a4576151a4615166565b604052919050565b60006001600160401b038211156151c5576151c5615166565b50601f01601f191660200190565b600082601f8301126151e457600080fd5b81356151f76151f2826151ac565b61517c565b81815284602083860101111561520c57600080fd5b816020850160208301376000918101602001919091529392505050565b60008060006060848603121561523e57600080fd5b833561524981615125565b9250602084013561525981615125565b915060408401356001600160401b0381111561527457600080fd5b615280868287016151d3565b9150509250925092565b60008060006060848603121561529f57600080fd5b83356152aa81615125565b925060208401356152ba81615125565b929592945050506040919091013590565b6000602082840312156152dd57600080fd5b81356110ef81615125565b600080604083850312156152fb57600080fd5b82359150602083013561530d81615125565b809150509250929050565b60006001600160401b0382111561533157615331615166565b5060051b60200190565b600082601f83011261534c57600080fd5b8135602061535c6151f283615318565b82815260059290921b8401810191818101908684111561537b57600080fd5b8286015b84811015615396578035835291830191830161537f565b509695505050505050565b600082601f8301126153b257600080fd5b813560206153c26151f283615318565b82815260059290921b840181019181810190868411156153e157600080fd5b8286015b848110156153965780356153f881615125565b83529183019183016153e5565b60008083601f84011261541757600080fd5b5081356001600160401b0381111561542e57600080fd5b6020830191508360208260051b850101111561544957600080fd5b9250929050565b60008060008060008060a0878903121561546957600080fd5b86356001600160401b038082111561548057600080fd5b61548c8a838b0161533b565b975060208901359150808211156154a257600080fd5b6154ae8a838b016153a1565b965060408901359150808211156154c457600080fd5b6154d08a838b016153a1565b955060608901359150808211156154e657600080fd5b6154f28a838b016153a1565b9450608089013591508082111561550857600080fd5b5061551589828a01615405565b979a9699509497509295939492505050565b6020808252825182820181905260009190848201906040850190845b8181101561555f57835183529284019291840191600101615543565b50909695505050505050565b6000806040838503121561557e57600080fd5b50508035926020909101359150565b60008083601f84011261559f57600080fd5b5081356001600160401b038111156155b657600080fd5b60208301915083602082850101111561544957600080fd5b600080600080600080600060c0888a0312156155e957600080fd5b87356155f481615125565b965060208801359550604088013561560b81615125565b9450606088013593506080880135925060a08801356001600160401b0381111561563457600080fd5b6156408a828b0161558d565b989b979a50959850939692959293505050565b600080600080600080600060e0888a03121561566e57600080fd5b873561567981615125565b9650602088013561568981615125565b9550604088013561569981615125565b945060608801356156a981615125565b935060808801356156b981615125565b925060a08801356156c981615125565b915060c08801356156d981615125565b8091505092959891949750929550565b6000806000806000806060878903121561570257600080fd5b86356001600160401b038082111561571957600080fd5b6157258a838b01615405565b9098509650602089013591508082111561573e57600080fd5b61574a8a838b01615405565b9096509450604089013591508082111561550857600080fd5b6000806020838503121561577657600080fd5b82356001600160401b0381111561578c57600080fd5b6157988582860161558d565b90969095509350505050565b80151581146132ac57600080fd5b600080604083850312156157c557600080fd5b82356157d081615125565b9150602083013561530d816157a4565b600080600080608085870312156157f657600080fd5b843561580181615125565b9350602085013561581181615125565b92506040850135915060608501356001600160401b0381111561583357600080fd5b61583f878288016151d3565b91505092959194509250565b6000806000806000806060878903121561586457600080fd5b86356001600160401b038082111561587b57600080fd5b6158878a838b0161558d565b909850965060208901359150808211156158a057600080fd5b6158ac8a838b0161558d565b909650945060408901359150808211156158c557600080fd5b5061551589828a0161558d565b6000806000806000608086880312156158ea57600080fd5b8535945060208601359350604086013561590381615125565b925060608601356001600160401b0381111561591e57600080fd5b61592a8882890161558d565b969995985093965092949392505050565b6000806040838503121561594e57600080fd5b823561595981615125565b9150602083013561530d81615125565b60008060006060848603121561597e57600080fd5b833561598981615125565b95602085013595506040909401359392505050565b634e487b7160e01b600052601160045260246000fd5b6000828210156159c6576159c661599e565b500390565b600181811c908216806159df57607f821691505b6020821081036125bb57634e487b7160e01b600052602260045260246000fd5b6001600160a01b038581168252848116602083015283166040820152608060608201819052600090612c79908301846150b9565b600060208284031215615a4557600080fd5b5051919050565b60008219821115615a5f57615a5f61599e565b500190565b634e487b7160e01b600052603260045260246000fd5b6000808335601e19843603018112615a9157600080fd5b8301803591506001600160401b03821115615aab57600080fd5b60200191503681900382131561544957600080fd5b8881526001600160a01b03888116602083015287811660408301528616606082015260e06080820181905281018490526000610100858782850137600083870182015260a08301949094525060c0810191909152601f909201601f19169091010195945050505050565b600060018201615b3c57615b3c61599e565b5060010190565b6000816000190483118215151615615b5d57615b5d61599e565b500290565b600082615b7f57634e487b7160e01b600052601260045260246000fd5b500490565b6001600160a01b039687168152948616602086015260408501939093526060840191909152909216608082015290151560a082015260c00190565b600060208284031215615bd157600080fd5b81516110ef816157a4565b600061ffff83811690831681811015615bf757615bf761599e565b039392505050565b600060208284031215615c1157600080fd5b81516001600160401b03811115615c2757600080fd5b8201601f81018413615c3857600080fd5b8051615c466151f2826151ac565b818152856020838501011115615c5b57600080fd5b615c6c82602083016020860161508d565b95945050505050565b8054600090600181811c9080831680615c8f57607f831692505b60208084108203615cb057634e487b7160e01b600052602260045260246000fd5b83885260208801828015615ccb5760018114615cdc57615d07565b60ff19871682528282019750615d07565b60008981526020902060005b87811015615d0157815484820152908601908401615ce8565b83019850505b5050505050505092915050565b606081526000615d276060830186615c75565b8281036020840152615d398186615c75565b90508281036040840152612c798185615c75565b6001600160a01b039384168152919092166020820152604081019190915260600190565b6001600160a01b0385811682528416602082015260408101839052608060608201819052600090612c79908301846150b9565b600060208284031215615db657600080fd5b81516110ef8161502e565b600060ff821660ff84168060ff03821115615dde57615dde61599e565b019392505050565b60008551615df8818460208a0161508d565b855190830190615e0c818360208a0161508d565b8551910190615e1f81836020890161508d565b8451910190615e3281836020880161508d565b019695505050505050565b600081615e4c57615e4c61599e565b506000190190565b76020b1b1b2b9b9a1b7b73a3937b61d1030b1b1b7bab73a1604d1b815260008351615e8681601785016020880161508d565b7001034b99036b4b9b9b4b733903937b6329607d1b6017918401918201528351615eb781602884016020880161508d565b01602801949350505050565b60008251615ed581846020870161508d565b919091019291505056feb309c40027c81d382c3b58d8de24207a34b27e1db369b1434e4a11311f154b5e6b18946261693dfd6c760d986b28ad2238b5b0267f8e5b6bc40a2f998e2f20acddf252ad1be2c89b69c2b068fc378daa952ba7f163c4a11628f55a4df523b3efb89cdd26cddd51301940bf2715f765b626b8a5a9e2681ac62dc83cc2db2530c0a26469706673582212204bbe73b04ae39d8e61c23496517f5d70b2f52ae8742de21e0505c65641b1bc2464736f6c634300080d0033",
  "linkReferences": {},
  "deployedLinkReferences": {}
}