{
  "_format": "hh-sol-artifact-1",
  "contractName": "PublicLockV15",
  "sourceName": "contracts/PublicLock/PublicLockV15.sol",
  "abi": [
    {
      "inputs": [],
      "name": "CANNOT_APPROVE_SELF",
      "type": "error"
    },
    {
      "inputs": [],
      "name": "CANT_EXTEND_NON_EXPIRING_KEY",
      "type": "error"
    },
    {
      "inputs": [],
      "name": "GAS_REFUND_FAILED",
      "type": "error"
    },
    {
      "inputs": [],
      "name": "INSUFFICIENT_ERC20_VALUE",
      "type": "error"
    },
    {
      "inputs": [],
      "name": "INSUFFICIENT_VALUE",
      "type": "error"
    },
    {
      "inputs": [],
      "name": "INVALID_ADDRESS",
      "type": "error"
    },
    {
      "inputs": [
        {
          "internalType": "uint8",
          "name": "hookIndex",
          "type": "uint8"
        }
      ],
      "name": "INVALID_HOOK",
      "type": "error"
    },
    {
      "inputs": [],
      "name": "INVALID_LENGTH",
      "type": "error"
    },
    {
      "inputs": [],
      "name": "INVALID_TOKEN",
      "type": "error"
    },
    {
      "inputs": [],
      "name": "KEY_NOT_VALID",
      "type": "error"
    },
    {
      "inputs": [],
      "name": "KEY_TRANSFERS_DISABLED",
      "type": "error"
    },
    {
      "inputs": [],
      "name": "LOCK_HAS_CHANGED",
      "type": "error"
    },
    {
      "inputs": [],
      "name": "LOCK_SOLD_OUT",
      "type": "error"
    },
    {
      "inputs": [],
      "name": "MAX_KEYS_REACHED",
      "type": "error"
    },
    {
      "inputs": [],
      "name": "MIGRATION_REQUIRED",
      "type": "error"
    },
    {
      "inputs": [],
      "name": "NON_COMPLIANT_ERC721_RECEIVER",
      "type": "error"
    },
    {
      "inputs": [],
      "name": "NON_RENEWABLE_LOCK",
      "type": "error"
    },
    {
      "inputs": [],
      "name": "NOT_ENOUGH_FUNDS",
      "type": "error"
    },
    {
      "inputs": [],
      "name": "NOT_ENOUGH_TIME",
      "type": "error"
    },
    {
      "inputs": [],
      "name": "NOT_READY_FOR_RENEWAL",
      "type": "error"
    },
    {
      "inputs": [],
      "name": "NO_SUCH_KEY",
      "type": "error"
    },
    {
      "inputs": [],
      "name": "NULL_VALUE",
      "type": "error"
    },
    {
      "inputs": [],
      "name": "ONLY_KEY_MANAGER_OR_APPROVED",
      "type": "error"
    },
    {
      "inputs": [],
      "name": "ONLY_LOCK_MANAGER",
      "type": "error"
    },
    {
      "inputs": [],
      "name": "ONLY_LOCK_MANAGER_OR_KEY_GRANTER",
      "type": "error"
    },
    {
      "inputs": [],
      "name": "OUT_OF_RANGE",
      "type": "error"
    },
    {
      "inputs": [],
      "name": "OWNER_CANT_BE_ADDRESS_ZERO",
      "type": "error"
    },
    {
      "inputs": [],
      "name": "SCHEMA_VERSION_NOT_CORRECT",
      "type": "error"
    },
    {
      "inputs": [
        {
          "internalType": "uint256",
          "name": "value",
          "type": "uint256"
        },
        {
          "internalType": "uint256",
          "name": "length",
          "type": "uint256"
        }
      ],
      "name": "StringsInsufficientHexLength",
      "type": "error"
    },
    {
      "inputs": [],
      "name": "TRANSFER_TO_SELF",
      "type": "error"
    },
    {
      "inputs": [],
      "name": "TransferFailed",
      "type": "error"
    },
    {
      "inputs": [],
      "name": "UNAUTHORIZED",
      "type": "error"
    },
    {
      "inputs": [],
      "name": "UNAUTHORIZED_KEY_MANAGER_UPDATE",
      "type": "error"
    },
    {
      "anonymous": false,
      "inputs": [
        {
          "indexed": true,
          "internalType": "address",
          "name": "owner",
          "type": "address"
        },
        {
          "indexed": true,
          "internalType": "address",
          "name": "approved",
          "type": "address"
        },
        {
          "indexed": true,
          "internalType": "uint256",
          "name": "tokenId",
          "type": "uint256"
        }
      ],
      "name": "Approval",
      "type": "event"
    },
    {
      "anonymous": false,
      "inputs": [
        {
          "indexed": true,
          "internalType": "uint256",
          "name": "tokenId",
          "type": "uint256"
        },
        {
          "indexed": true,
          "internalType": "address",
          "name": "owner",
          "type": "address"
        },
        {
          "indexed": true,
          "internalType": "address",
          "name": "sendTo",
          "type": "address"
        },
        {
          "indexed": false,
          "internalType": "uint256",
          "name": "refund",
          "type": "uint256"
        }
      ],
      "name": "CancelKey",
      "type": "event"
    },
    {
      "anonymous": false,
      "inputs": [
        {
          "indexed": false,
          "internalType": "address",
          "name": "onKeyPurchaseHook",
          "type": "address"
        },
        {
          "indexed": false,
          "internalType": "address",
          "name": "onKeyCancelHook",
          "type": "address"
        },
        {
          "indexed": false,
          "internalType": "address",
          "name": "onValidKeyHook",
          "type": "address"
        },
        {
          "indexed": false,
          "internalType": "address",
          "name": "onTokenURIHook",
          "type": "address"
        },
        {
          "indexed": false,
          "internalType": "address",
          "name": "onKeyTransferHook",
          "type": "address"
        },
        {
          "indexed": false,
          "internalType": "address",
          "name": "onKeyExtendHook",
          "type": "address"
        },
        {
          "indexed": false,
          "internalType": "address",
          "name": "onKeyGrantHook",
          "type": "address"
        },
        {
          "indexed": false,
          "internalType": "address",
          "name": "onHasRoleHook",
          "type": "address"
        }
      ],
      "name": "EventHooksUpdated",
      "type": "event"
    },
    {
      "anonymous": false,
      "inputs": [
        {
          "indexed": true,
          "internalType": "uint256",
          "name": "tokenId",
          "type": "uint256"
        },
        {
          "indexed": false,
          "internalType": "uint256",
          "name": "prevExpiration",
          "type": "uint256"
        },
        {
          "indexed": false,
          "internalType": "uint256",
          "name": "newExpiration",
          "type": "uint256"
        }
      ],
      "name": "ExpirationChanged",
      "type": "event"
    },
    {
      "anonymous": false,
      "inputs": [
        {
          "indexed": true,
          "internalType": "uint256",
          "name": "tokenId",
          "type": "uint256"
        }
      ],
      "name": "ExpireKey",
      "type": "event"
    },
    {
      "anonymous": false,
      "inputs": [
        {
          "indexed": false,
          "internalType": "uint256",
          "name": "refundValue",
          "type": "uint256"
        }
      ],
      "name": "GasRefundValueChanged",
      "type": "event"
    },
    {
      "anonymous": false,
      "inputs": [
        {
          "indexed": true,
          "internalType": "address",
          "name": "receiver",
          "type": "address"
        },
        {
          "indexed": false,
          "internalType": "uint256",
          "name": "refundedAmount",
          "type": "uint256"
        },
        {
          "indexed": false,
          "internalType": "address",
          "name": "tokenAddress",
          "type": "address"
        }
      ],
      "name": "GasRefunded",
      "type": "event"
    },
    {
      "anonymous": false,
      "inputs": [
        {
          "indexed": false,
          "internalType": "uint8",
          "name": "version",
          "type": "uint8"
        }
      ],
      "name": "Initialized",
      "type": "event"
    },
    {
      "anonymous": false,
      "inputs": [
        {
          "indexed": true,
          "internalType": "uint256",
          "name": "tokenId",
          "type": "uint256"
        },
        {
          "indexed": false,
          "internalType": "uint256",
          "name": "newTimestamp",
          "type": "uint256"
        }
      ],
      "name": "KeyExtended",
      "type": "event"
    },
    {
      "anonymous": false,
      "inputs": [
        {
          "indexed": true,
          "internalType": "address",
          "name": "account",
          "type": "address"
        }
      ],
      "name": "KeyGranterAdded",
      "type": "event"
    },
    {
      "anonymous": false,
      "inputs": [
        {
          "indexed": true,
          "internalType": "address",
          "name": "account",
          "type": "address"
        }
      ],
      "name": "KeyGranterRemoved",
      "type": "event"
    },
    {
      "anonymous": false,
      "inputs": [
        {
          "indexed": true,
          "internalType": "uint256",
          "name": "_tokenId",
          "type": "uint256"
        },
        {
          "indexed": true,
          "internalType": "address",
          "name": "_newManager",
          "type": "address"
        }
      ],
      "name": "KeyManagerChanged",
      "type": "event"
    },
    {
      "anonymous": false,
      "inputs": [
        {
          "indexed": false,
          "internalType": "uint256",
          "name": "updatedRecordsCount",
          "type": "uint256"
        }
      ],
      "name": "KeysMigrated",
      "type": "event"
    },
    {
      "anonymous": false,
      "inputs": [
        {
          "indexed": false,
          "internalType": "uint256",
          "name": "expirationDuration",
          "type": "uint256"
        },
        {
          "indexed": false,
          "internalType": "uint256",
          "name": "maxNumberOfKeys",
          "type": "uint256"
        },
        {
          "indexed": false,
          "internalType": "uint256",
          "name": "maxKeysPerAcccount",
          "type": "uint256"
        }
      ],
      "name": "LockConfig",
      "type": "event"
    },
    {
      "anonymous": false,
      "inputs": [
        {
          "indexed": true,
          "internalType": "address",
          "name": "account",
          "type": "address"
        }
      ],
      "name": "LockManagerAdded",
      "type": "event"
    },
    {
      "anonymous": false,
      "inputs": [
        {
          "indexed": true,
          "internalType": "address",
          "name": "account",
          "type": "address"
        }
      ],
      "name": "LockManagerRemoved",
      "type": "event"
    },
    {
      "anonymous": false,
      "inputs": [
        {
          "indexed": false,
          "internalType": "string",
          "name": "name",
          "type": "string"
        },
        {
          "indexed": false,
          "internalType": "string",
          "name": "symbol",
          "type": "string"
        },
        {
          "indexed": false,
          "internalType": "string",
          "name": "baseTokenURI",
          "type": "string"
        }
      ],
      "name": "LockMetadata",
      "type": "event"
    },
    {
      "anonymous": false,
      "inputs": [
        {
          "indexed": false,
          "internalType": "address",
          "name": "previousOwner",
          "type": "address"
        },
        {
          "indexed": false,
          "internalType": "address",
          "name": "newOwner",
          "type": "address"
        }
      ],
      "name": "OwnershipTransferred",
      "type": "event"
    },
    {
      "anonymous": false,
      "inputs": [
        {
          "indexed": false,
          "internalType": "uint256[]",
          "name": "tokenIds",
          "type": "uint256[]"
        },
        {
          "indexed": false,
          "internalType": "uint256",
          "name": "purchases",
          "type": "uint256"
        },
        {
          "indexed": false,
          "internalType": "uint256",
          "name": "extensions",
          "type": "uint256"
        },
        {
          "indexed": false,
          "internalType": "address",
          "name": "payer",
          "type": "address"
        },
        {
          "indexed": false,
          "internalType": "address",
          "name": "tokenAddress",
          "type": "address"
        },
        {
          "indexed": false,
          "internalType": "uint256",
          "name": "totalPaid",
          "type": "uint256"
        }
      ],
      "name": "PaymentReceipt",
      "type": "event"
    },
    {
      "anonymous": false,
      "inputs": [
        {
          "indexed": false,
          "internalType": "uint256",
          "name": "oldKeyPrice",
          "type": "uint256"
        },
        {
          "indexed": false,
          "internalType": "uint256",
          "name": "keyPrice",
          "type": "uint256"
        },
        {
          "indexed": false,
          "internalType": "address",
          "name": "oldTokenAddress",
          "type": "address"
        },
        {
          "indexed": false,
          "internalType": "address",
          "name": "tokenAddress",
          "type": "address"
        }
      ],
      "name": "PricingChanged",
      "type": "event"
    },
    {
      "anonymous": false,
      "inputs": [
        {
          "indexed": true,
          "internalType": "address",
          "name": "referrer",
          "type": "address"
        },
        {
          "indexed": false,
          "internalType": "uint256",
          "name": "fee",
          "type": "uint256"
        }
      ],
      "name": "ReferrerFee",
      "type": "event"
    },
    {
      "anonymous": false,
      "inputs": [
        {
          "indexed": false,
          "internalType": "address",
          "name": "tokenAddress",
          "type": "address"
        },
        {
          "indexed": false,
          "internalType": "address",
          "name": "referrer",
          "type": "address"
        },
        {
          "indexed": false,
          "internalType": "uint256",
          "name": "fee",
          "type": "uint256"
        }
      ],
      "name": "ReferrerPaid",
      "type": "event"
    },
    {
      "anonymous": false,
      "inputs": [
        {
          "indexed": false,
          "internalType": "uint256",
          "name": "freeTrialLength",
          "type": "uint256"
        },
        {
          "indexed": false,
          "internalType": "uint256",
          "name": "refundPenaltyBasisPoints",
          "type": "uint256"
        }
      ],
      "name": "RefundPenaltyChanged",
      "type": "event"
    },
    {
      "anonymous": false,
      "inputs": [
        {
          "indexed": true,
          "internalType": "bytes32",
          "name": "role",
          "type": "bytes32"
        },
        {
          "indexed": true,
          "internalType": "bytes32",
          "name": "previousAdminRole",
          "type": "bytes32"
        },
        {
          "indexed": true,
          "internalType": "bytes32",
          "name": "newAdminRole",
          "type": "bytes32"
        }
      ],
      "name": "RoleAdminChanged",
      "type": "event"
    },
    {
      "anonymous": false,
      "inputs": [
        {
          "indexed": true,
          "internalType": "bytes32",
          "name": "role",
          "type": "bytes32"
        },
        {
          "indexed": true,
          "internalType": "address",
          "name": "account",
          "type": "address"
        },
        {
          "indexed": true,
          "internalType": "address",
          "name": "sender",
          "type": "address"
        }
      ],
      "name": "RoleGranted",
      "type": "event"
    },
    {
      "anonymous": false,
      "inputs": [
        {
          "indexed": true,
          "internalType": "bytes32",
          "name": "role",
          "type": "bytes32"
        },
        {
          "indexed": true,
          "internalType": "address",
          "name": "account",
          "type": "address"
        },
        {
          "indexed": true,
          "internalType": "address",
          "name": "sender",
          "type": "address"
        }
      ],
      "name": "RoleRevoked",
      "type": "event"
    },
    {
      "anonymous": false,
      "inputs": [
        {
          "indexed": true,
          "internalType": "address",
          "name": "from",
          "type": "address"
        },
        {
          "indexed": true,
          "internalType": "address",
          "name": "to",
          "type": "address"
        },
        {
          "indexed": true,
          "internalType": "uint256",
          "name": "tokenId",
          "type": "uint256"
        }
      ],
      "name": "Transfer",
      "type": "event"
    },
    {
      "anonymous": false,
      "inputs": [
        {
          "indexed": false,
          "internalType": "uint256",
          "name": "transferFeeBasisPoints",
          "type": "uint256"
        }
      ],
      "name": "TransferFeeChanged",
      "type": "event"
    },
    {
      "anonymous": false,
      "inputs": [
        {
          "indexed": true,
          "internalType": "address",
          "name": "lockAddress",
          "type": "address"
        },
        {
          "indexed": false,
          "internalType": "address",
          "name": "unlockAddress",
          "type": "address"
        }
      ],
      "name": "UnlockCallFailed",
      "type": "event"
    },
    {
      "anonymous": false,
      "inputs": [
        {
          "indexed": true,
          "internalType": "address",
          "name": "sender",
          "type": "address"
        },
        {
          "indexed": true,
          "internalType": "address",
          "name": "tokenAddress",
          "type": "address"
        },
        {
          "indexed": true,
          "internalType": "address",
          "name": "recipient",
          "type": "address"
        },
        {
          "indexed": false,
          "internalType": "uint256",
          "name": "amount",
          "type": "uint256"
        }
      ],
      "name": "Withdrawal",
      "type": "event"
    },
    {
      "inputs": [],
      "name": "DEFAULT_ADMIN_ROLE",
      "outputs": [
        {
          "internalType": "bytes32",
          "name": "",
          "type": "bytes32"
        }
      ],
      "stateMutability": "view",
      "type": "function"
    },
    {
      "inputs": [
        {
          "internalType": "address",
          "name": "_approved",
          "type": "address"
        },
        {
          "internalType": "uint256",
          "name": "_tokenId",
          "type": "uint256"
        }
      ],
      "name": "approve",
      "outputs": [],
      "stateMutability": "nonpayable",
      "type": "function"
    },
    {
      "inputs": [
        {
          "internalType": "address",
          "name": "_keyOwner",
          "type": "address"
        }
      ],
      "name": "balanceOf",
      "outputs": [
        {
          "internalType": "uint256",
          "name": "balance",
          "type": "uint256"
        }
      ],
      "stateMutability": "view",
      "type": "function"
    },
    {
      "inputs": [
        {
          "internalType": "uint256",
          "name": "_tokenId",
          "type": "uint256"
        }
      ],
      "name": "burn",
      "outputs": [],
      "stateMutability": "nonpayable",
      "type": "function"
    },
    {
      "inputs": [
        {
          "internalType": "uint256",
          "name": "_tokenId",
          "type": "uint256"
        }
      ],
      "name": "cancelAndRefund",
      "outputs": [],
      "stateMutability": "nonpayable",
      "type": "function"
    },
    {
      "inputs": [],
      "name": "expirationDuration",
      "outputs": [
        {
          "internalType": "uint256",
          "name": "",
          "type": "uint256"
        }
      ],
      "stateMutability": "view",
      "type": "function"
    },
    {
      "inputs": [
        {
          "internalType": "uint256",
          "name": "_tokenId",
          "type": "uint256"
        },
        {
          "internalType": "uint256",
          "name": "_amount",
          "type": "uint256"
        }
      ],
      "name": "expireAndRefundFor",
      "outputs": [],
      "stateMutability": "nonpayable",
      "type": "function"
    },
    {
      "inputs": [
        {
          "internalType": "uint256",
          "name": "_value",
          "type": "uint256"
        },
        {
          "internalType": "uint256",
          "name": "_tokenId",
          "type": "uint256"
        },
        {
          "internalType": "address",
          "name": "_referrer",
          "type": "address"
        },
        {
          "internalType": "bytes",
          "name": "_data",
          "type": "bytes"
        }
      ],
      "name": "extend",
      "outputs": [],
      "stateMutability": "payable",
      "type": "function"
    },
    {
      "inputs": [],
      "name": "freeTrialLength",
      "outputs": [
        {
          "internalType": "uint256",
          "name": "",
          "type": "uint256"
        }
      ],
      "stateMutability": "view",
      "type": "function"
    },
    {
      "inputs": [],
      "name": "gasRefundValue",
      "outputs": [
        {
          "internalType": "uint256",
          "name": "_refundValue",
          "type": "uint256"
        }
      ],
      "stateMutability": "view",
      "type": "function"
    },
    {
      "inputs": [
        {
          "internalType": "uint256",
          "name": "_tokenId",
          "type": "uint256"
        }
      ],
      "name": "getApproved",
      "outputs": [
        {
          "internalType": "address",
          "name": "",
          "type": "address"
        }
      ],
      "stateMutability": "view",
      "type": "function"
    },
    {
      "inputs": [
        {
          "internalType": "uint256",
          "name": "_tokenId",
          "type": "uint256"
        }
      ],
      "name": "getCancelAndRefundValue",
      "outputs": [
        {
          "internalType": "uint256",
          "name": "refund",
          "type": "uint256"
        }
      ],
      "stateMutability": "view",
      "type": "function"
    },
    {
      "inputs": [
        {
          "internalType": "address",
          "name": "_keyOwner",
          "type": "address"
        }
      ],
      "name": "getHasValidKey",
      "outputs": [
        {
          "internalType": "bool",
          "name": "isValid",
          "type": "bool"
        }
      ],
      "stateMutability": "view",
      "type": "function"
    },
    {
      "inputs": [
        {
          "internalType": "bytes32",
          "name": "role",
          "type": "bytes32"
        }
      ],
      "name": "getRoleAdmin",
      "outputs": [
        {
          "internalType": "bytes32",
          "name": "",
          "type": "bytes32"
        }
      ],
      "stateMutability": "view",
      "type": "function"
    },
    {
      "inputs": [
        {
          "internalType": "uint256",
          "name": "_tokenId",
          "type": "uint256"
        },
        {
          "internalType": "uint256",
          "name": "_time",
          "type": "uint256"
        }
      ],
      "name": "getTransferFee",
      "outputs": [
        {
          "internalType": "uint256",
          "name": "",
          "type": "uint256"
        }
      ],
      "stateMutability": "view",
      "type": "function"
    },
    {
      "inputs": [
        {
          "internalType": "uint256",
          "name": "_tokenId",
          "type": "uint256"
        },
        {
          "internalType": "uint256",
          "name": "_duration",
          "type": "uint256"
        }
      ],
      "name": "grantKeyExtension",
      "outputs": [],
      "stateMutability": "nonpayable",
      "type": "function"
    },
    {
      "inputs": [
        {
          "internalType": "address[]",
          "name": "_recipients",
          "type": "address[]"
        },
        {
          "internalType": "uint256[]",
          "name": "_expirationTimestamps",
          "type": "uint256[]"
        },
        {
          "internalType": "address[]",
          "name": "_keyManagers",
          "type": "address[]"
        }
      ],
      "name": "grantKeys",
      "outputs": [
        {
          "internalType": "uint256[]",
          "name": "",
          "type": "uint256[]"
        }
      ],
      "stateMutability": "nonpayable",
      "type": "function"
    },
    {
      "inputs": [
        {
          "internalType": "bytes32",
          "name": "role",
          "type": "bytes32"
        },
        {
          "internalType": "address",
          "name": "account",
          "type": "address"
        }
      ],
      "name": "grantRole",
      "outputs": [],
      "stateMutability": "nonpayable",
      "type": "function"
    },
    {
      "inputs": [
        {
          "internalType": "bytes32",
          "name": "role",
          "type": "bytes32"
        },
        {
          "internalType": "address",
          "name": "account",
          "type": "address"
        }
      ],
      "name": "hasRole",
      "outputs": [
        {
          "internalType": "bool",
          "name": "",
          "type": "bool"
        }
      ],
      "stateMutability": "view",
      "type": "function"
    },
    {
      "inputs": [
        {
          "internalType": "address payable",
          "name": "_lockCreator",
          "type": "address"
        },
        {
          "internalType": "uint256",
          "name": "_expirationDuration",
          "type": "uint256"
        },
        {
          "internalType": "address",
          "name": "_tokenAddress",
          "type": "address"
        },
        {
          "internalType": "uint256",
          "name": "_keyPrice",
          "type": "uint256"
        },
        {
          "internalType": "uint256",
          "name": "_maxNumberOfKeys",
          "type": "uint256"
        },
        {
          "internalType": "string",
          "name": "_lockName",
          "type": "string"
        }
      ],
      "name": "initialize",
      "outputs": [],
      "stateMutability": "nonpayable",
      "type": "function"
    },
    {
      "inputs": [
        {
          "internalType": "address",
          "name": "account",
          "type": "address"
        }
      ],
      "name": "isLockManager",
      "outputs": [
        {
          "internalType": "bool",
          "name": "",
          "type": "bool"
        }
      ],
      "stateMutability": "view",
      "type": "function"
    },
    {
      "inputs": [
        {
          "internalType": "address",
          "name": "account",
          "type": "address"
        }
      ],
      "name": "isOwner",
      "outputs": [
        {
          "internalType": "bool",
          "name": "",
          "type": "bool"
        }
      ],
      "stateMutability": "view",
      "type": "function"
    },
    {
      "inputs": [
        {
          "internalType": "uint256",
          "name": "_tokenId",
          "type": "uint256"
        },
        {
          "internalType": "address",
          "name": "_referrer",
          "type": "address"
        }
      ],
      "name": "isRenewable",
      "outputs": [
        {
          "internalType": "bool",
          "name": "",
          "type": "bool"
        }
      ],
      "stateMutability": "view",
      "type": "function"
    },
    {
      "inputs": [
        {
          "internalType": "uint256",
          "name": "_tokenId",
          "type": "uint256"
        }
      ],
      "name": "isValidKey",
      "outputs": [
        {
          "internalType": "bool",
          "name": "",
          "type": "bool"
        }
      ],
      "stateMutability": "view",
      "type": "function"
    },
    {
      "inputs": [
        {
          "internalType": "uint256",
          "name": "_tokenId",
          "type": "uint256"
        }
      ],
      "name": "keyExpirationTimestampFor",
      "outputs": [
        {
          "internalType": "uint256",
          "name": "",
          "type": "uint256"
        }
      ],
      "stateMutability": "view",
      "type": "function"
    },
    {
      "inputs": [
        {
          "internalType": "uint256",
          "name": "",
          "type": "uint256"
        }
      ],
      "name": "keyManagerOf",
      "outputs": [
        {
          "internalType": "address",
          "name": "",
          "type": "address"
        }
      ],
      "stateMutability": "view",
      "type": "function"
    },
    {
      "inputs": [],
      "name": "keyPrice",
      "outputs": [
        {
          "internalType": "uint256",
          "name": "",
          "type": "uint256"
        }
      ],
      "stateMutability": "view",
      "type": "function"
    },
    {
      "inputs": [
        {
          "internalType": "address",
          "name": "_from",
          "type": "address"
        },
        {
          "internalType": "address",
          "name": "_recipient",
          "type": "address"
        },
        {
          "internalType": "uint256",
          "name": "_tokenId",
          "type": "uint256"
        }
      ],
      "name": "lendKey",
      "outputs": [],
      "stateMutability": "nonpayable",
      "type": "function"
    },
    {
      "inputs": [],
      "name": "maxKeysPerAddress",
      "outputs": [
        {
          "internalType": "uint256",
          "name": "",
          "type": "uint256"
        }
      ],
      "stateMutability": "view",
      "type": "function"
    },
    {
      "inputs": [],
      "name": "maxNumberOfKeys",
      "outputs": [
        {
          "internalType": "uint256",
          "name": "",
          "type": "uint256"
        }
      ],
      "stateMutability": "view",
      "type": "function"
    },
    {
      "inputs": [
        {
          "internalType": "uint256",
          "name": "_tokenIdFrom",
          "type": "uint256"
        },
        {
          "internalType": "uint256",
          "name": "_tokenIdTo",
          "type": "uint256"
        },
        {
          "internalType": "uint256",
          "name": "_amount",
          "type": "uint256"
        }
      ],
      "name": "mergeKeys",
      "outputs": [],
      "stateMutability": "nonpayable",
      "type": "function"
    },
    {
      "inputs": [
        {
          "internalType": "bytes",
          "name": "",
          "type": "bytes"
        }
      ],
      "name": "migrate",
      "outputs": [],
      "stateMutability": "nonpayable",
      "type": "function"
    },
    {
      "inputs": [],
      "name": "name",
      "outputs": [
        {
          "internalType": "string",
          "name": "",
          "type": "string"
        }
      ],
      "stateMutability": "view",
      "type": "function"
    },
    {
      "inputs": [],
      "name": "numberOfOwners",
      "outputs": [
        {
          "internalType": "uint256",
          "name": "",
          "type": "uint256"
        }
      ],
      "stateMutability": "view",
      "type": "function"
    },
    {
      "inputs": [],
      "name": "onHasRoleHook",
      "outputs": [
        {
          "internalType": "contract ILockHasRoleHook",
          "name": "",
          "type": "address"
        }
      ],
      "stateMutability": "view",
      "type": "function"
    },
    {
      "inputs": [],
      "name": "onKeyCancelHook",
      "outputs": [
        {
          "internalType": "contract ILockKeyCancelHook",
          "name": "",
          "type": "address"
        }
      ],
      "stateMutability": "view",
      "type": "function"
    },
    {
      "inputs": [],
      "name": "onKeyExtendHook",
      "outputs": [
        {
          "internalType": "contract ILockKeyExtendHook",
          "name": "",
          "type": "address"
        }
      ],
      "stateMutability": "view",
      "type": "function"
    },
    {
      "inputs": [],
      "name": "onKeyGrantHook",
      "outputs": [
        {
          "internalType": "contract ILockKeyGrantHook",
          "name": "",
          "type": "address"
        }
      ],
      "stateMutability": "view",
      "type": "function"
    },
    {
      "inputs": [],
      "name": "onKeyPurchaseHook",
      "outputs": [
        {
          "internalType": "contract ILockKeyPurchaseHook",
          "name": "",
          "type": "address"
        }
      ],
      "stateMutability": "view",
      "type": "function"
    },
    {
      "inputs": [],
      "name": "onKeyTransferHook",
      "outputs": [
        {
          "internalType": "contract ILockKeyTransferHook",
          "name": "",
          "type": "address"
        }
      ],
      "stateMutability": "view",
      "type": "function"
    },
    {
      "inputs": [],
      "name": "onTokenURIHook",
      "outputs": [
        {
          "internalType": "contract ILockTokenURIHook",
          "name": "",
          "type": "address"
        }
      ],
      "stateMutability": "view",
      "type": "function"
    },
    {
      "inputs": [],
      "name": "onValidKeyHook",
      "outputs": [
        {
          "internalType": "contract ILockValidKeyHook",
          "name": "",
          "type": "address"
        }
      ],
      "stateMutability": "view",
      "type": "function"
    },
    {
      "inputs": [],
      "name": "owner",
      "outputs": [
        {
          "internalType": "address",
          "name": "",
          "type": "address"
        }
      ],
      "stateMutability": "view",
      "type": "function"
    },
    {
      "inputs": [
        {
          "internalType": "uint256",
          "name": "_tokenId",
          "type": "uint256"
        }
      ],
      "name": "ownerOf",
      "outputs": [
        {
          "internalType": "address",
          "name": "",
          "type": "address"
        }
      ],
      "stateMutability": "view",
      "type": "function"
    },
    {
      "inputs": [],
      "name": "publicLockVersion",
      "outputs": [
        {
          "internalType": "uint16",
          "name": "",
          "type": "uint16"
        }
      ],
      "stateMutability": "pure",
      "type": "function"
    },
    {
      "inputs": [
        {
          "internalType": "uint256[]",
          "name": "_values",
          "type": "uint256[]"
        },
        {
          "internalType": "address[]",
          "name": "_recipients",
          "type": "address[]"
        },
        {
          "internalType": "address[]",
          "name": "_referrers",
          "type": "address[]"
        },
        {
          "internalType": "address[]",
          "name": "_keyManagers",
          "type": "address[]"
        },
        {
          "internalType": "bytes[]",
          "name": "_data",
          "type": "bytes[]"
        }
      ],
      "name": "purchase",
      "outputs": [
        {
          "internalType": "uint256[]",
          "name": "",
          "type": "uint256[]"
        }
      ],
      "stateMutability": "payable",
      "type": "function"
    },
    {
      "inputs": [
        {
          "components": [
            {
              "internalType": "uint256",
              "name": "value",
              "type": "uint256"
            },
            {
              "internalType": "address",
              "name": "recipient",
              "type": "address"
            },
            {
              "internalType": "address",
              "name": "referrer",
              "type": "address"
            },
            {
              "internalType": "address",
              "name": "protocolReferrer",
              "type": "address"
            },
            {
              "internalType": "address",
              "name": "keyManager",
              "type": "address"
            },
            {
              "internalType": "bytes",
              "name": "data",
              "type": "bytes"
            },
            {
              "internalType": "uint256",
              "name": "additionalPeriods",
              "type": "uint256"
            }
          ],
          "internalType": "struct MixinPurchase.PurchaseArgs[]",
          "name": "purchaseArgs",
          "type": "tuple[]"
        }
      ],
      "name": "purchase",
      "outputs": [
        {
          "internalType": "uint256[]",
          "name": "",
          "type": "uint256[]"
        }
      ],
      "stateMutability": "payable",
      "type": "function"
    },
    {
      "inputs": [
        {
          "internalType": "address",
          "name": "_recipient",
          "type": "address"
        },
        {
          "internalType": "address",
          "name": "_referrer",
          "type": "address"
        },
        {
          "internalType": "bytes",
          "name": "_data",
          "type": "bytes"
        }
      ],
      "name": "purchasePriceFor",
      "outputs": [
        {
          "internalType": "uint256",
          "name": "minKeyPrice",
          "type": "uint256"
        }
      ],
      "stateMutability": "view",
      "type": "function"
    },
    {
      "inputs": [
        {
          "internalType": "address",
          "name": "",
          "type": "address"
        }
      ],
      "name": "referrerFees",
      "outputs": [
        {
          "internalType": "uint256",
          "name": "",
          "type": "uint256"
        }
      ],
      "stateMutability": "view",
      "type": "function"
    },
    {
      "inputs": [],
      "name": "refundPenaltyBasisPoints",
      "outputs": [
        {
          "internalType": "uint256",
          "name": "",
          "type": "uint256"
        }
      ],
      "stateMutability": "view",
      "type": "function"
    },
    {
      "inputs": [
        {
          "internalType": "uint256",
          "name": "_tokenId",
          "type": "uint256"
        },
        {
          "internalType": "address",
          "name": "_referrer",
          "type": "address"
        }
      ],
      "name": "renewMembershipFor",
      "outputs": [],
      "stateMutability": "nonpayable",
      "type": "function"
    },
    {
      "inputs": [
        {
          "internalType": "bytes32",
          "name": "role",
          "type": "bytes32"
        },
        {
          "internalType": "address",
          "name": "account",
          "type": "address"
        }
      ],
      "name": "renounceRole",
      "outputs": [],
      "stateMutability": "nonpayable",
      "type": "function"
    },
    {
      "inputs": [
        {
          "internalType": "bytes32",
          "name": "role",
          "type": "bytes32"
        },
        {
          "internalType": "address",
          "name": "account",
          "type": "address"
        }
      ],
      "name": "revokeRole",
      "outputs": [],
      "stateMutability": "nonpayable",
      "type": "function"
    },
    {
      "inputs": [
        {
          "internalType": "address",
          "name": "_from",
          "type": "address"
        },
        {
          "internalType": "address",
          "name": "_to",
          "type": "address"
        },
        {
          "internalType": "uint256",
          "name": "_tokenId",
          "type": "uint256"
        }
      ],
      "name": "safeTransferFrom",
      "outputs": [],
      "stateMutability": "nonpayable",
      "type": "function"
    },
    {
      "inputs": [
        {
          "internalType": "address",
          "name": "_from",
          "type": "address"
        },
        {
          "internalType": "address",
          "name": "_to",
          "type": "address"
        },
        {
          "internalType": "uint256",
          "name": "_tokenId",
          "type": "uint256"
        },
        {
          "internalType": "bytes",
          "name": "_data",
          "type": "bytes"
        }
      ],
      "name": "safeTransferFrom",
      "outputs": [],
      "stateMutability": "nonpayable",
      "type": "function"
    },
    {
      "inputs": [
        {
          "internalType": "address",
          "name": "_onKeyPurchaseHook",
          "type": "address"
        },
        {
          "internalType": "address",
          "name": "_onKeyCancelHook",
          "type": "address"
        },
        {
          "internalType": "address",
          "name": "_onValidKeyHook",
          "type": "address"
        },
        {
          "internalType": "address",
          "name": "_onTokenURIHook",
          "type": "address"
        },
        {
          "internalType": "address",
          "name": "_onKeyTransferHook",
          "type": "address"
        },
        {
          "internalType": "address",
          "name": "_onKeyExtendHook",
          "type": "address"
        },
        {
          "internalType": "address",
          "name": "_onKeyGrantHook",
          "type": "address"
        },
        {
          "internalType": "address",
          "name": "_onHasRoleHook",
          "type": "address"
        }
      ],
      "name": "setEventHooks",
      "outputs": [],
      "stateMutability": "nonpayable",
      "type": "function"
    },
    {
      "inputs": [
        {
          "internalType": "uint256",
          "name": "_refundValue",
          "type": "uint256"
        }
      ],
      "name": "setGasRefundValue",
      "outputs": [],
      "stateMutability": "nonpayable",
      "type": "function"
    },
    {
      "inputs": [
        {
          "internalType": "uint256",
          "name": "_tokenId",
          "type": "uint256"
        },
        {
          "internalType": "uint256",
          "name": "_newExpiration",
          "type": "uint256"
        }
      ],
      "name": "setKeyExpiration",
      "outputs": [],
      "stateMutability": "nonpayable",
      "type": "function"
    },
    {
      "inputs": [
        {
          "internalType": "uint256",
          "name": "_tokenId",
          "type": "uint256"
        },
        {
          "internalType": "address",
          "name": "_keyManager",
          "type": "address"
        }
      ],
      "name": "setKeyManagerOf",
      "outputs": [],
      "stateMutability": "nonpayable",
      "type": "function"
    },
    {
      "inputs": [
        {
          "internalType": "string",
          "name": "_lockName",
          "type": "string"
        },
        {
          "internalType": "string",
          "name": "_lockSymbol",
          "type": "string"
        },
        {
          "internalType": "string",
          "name": "_baseTokenURI",
          "type": "string"
        }
      ],
      "name": "setLockMetadata",
      "outputs": [],
      "stateMutability": "nonpayable",
      "type": "function"
    },
    {
      "inputs": [
        {
          "internalType": "address",
          "name": "account",
          "type": "address"
        }
      ],
      "name": "setOwner",
      "outputs": [],
      "stateMutability": "nonpayable",
      "type": "function"
    },
    {
      "inputs": [
        {
          "internalType": "address",
          "name": "_referrer",
          "type": "address"
        },
        {
          "internalType": "uint256",
          "name": "_feeBasisPoint",
          "type": "uint256"
        }
      ],
      "name": "setReferrerFee",
      "outputs": [],
      "stateMutability": "nonpayable",
      "type": "function"
    },
    {
      "inputs": [
        {
          "internalType": "address",
          "name": "_to",
          "type": "address"
        },
        {
          "internalType": "uint256",
          "name": "_tokenIdFrom",
          "type": "uint256"
        },
        {
          "internalType": "uint256",
          "name": "_timeShared",
          "type": "uint256"
        }
      ],
      "name": "shareKey",
      "outputs": [],
      "stateMutability": "nonpayable",
      "type": "function"
    },
    {
      "inputs": [
        {
          "internalType": "bytes4",
          "name": "interfaceId",
          "type": "bytes4"
        }
      ],
      "name": "supportsInterface",
      "outputs": [
        {
          "internalType": "bool",
          "name": "",
          "type": "bool"
        }
      ],
      "stateMutability": "view",
      "type": "function"
    },
    {
      "inputs": [],
      "name": "symbol",
      "outputs": [
        {
          "internalType": "string",
          "name": "",
          "type": "string"
        }
      ],
      "stateMutability": "view",
      "type": "function"
    },
    {
      "inputs": [],
      "name": "tokenAddress",
      "outputs": [
        {
          "internalType": "address",
          "name": "",
          "type": "address"
        }
      ],
      "stateMutability": "view",
      "type": "function"
    },
    {
      "inputs": [
        {
          "internalType": "uint256",
          "name": "_index",
          "type": "uint256"
        }
      ],
      "name": "tokenByIndex",
      "outputs": [
        {
          "internalType": "uint256",
          "name": "",
          "type": "uint256"
        }
      ],
      "stateMutability": "view",
      "type": "function"
    },
    {
      "inputs": [
        {
          "internalType": "address",
          "name": "_keyOwner",
          "type": "address"
        },
        {
          "internalType": "uint256",
          "name": "_index",
          "type": "uint256"
        }
      ],
      "name": "tokenOfOwnerByIndex",
      "outputs": [
        {
          "internalType": "uint256",
          "name": "",
          "type": "uint256"
        }
      ],
      "stateMutability": "view",
      "type": "function"
    },
    {
      "inputs": [
        {
          "internalType": "uint256",
          "name": "_tokenId",
          "type": "uint256"
        }
      ],
      "name": "tokenURI",
      "outputs": [
        {
          "internalType": "string",
          "name": "",
          "type": "string"
        }
      ],
      "stateMutability": "view",
      "type": "function"
    },
    {
      "inputs": [
        {
          "internalType": "address",
          "name": "_keyOwner",
          "type": "address"
        }
      ],
      "name": "totalKeys",
      "outputs": [
        {
          "internalType": "uint256",
          "name": "",
          "type": "uint256"
        }
      ],
      "stateMutability": "view",
      "type": "function"
    },
    {
      "inputs": [],
      "name": "totalSupply",
      "outputs": [
        {
          "internalType": "uint256",
          "name": "_totalKeysCreated",
          "type": "uint256"
        }
      ],
      "stateMutability": "view",
      "type": "function"
    },
    {
      "inputs": [],
      "name": "transferFeeBasisPoints",
      "outputs": [
        {
          "internalType": "uint256",
          "name": "",
          "type": "uint256"
        }
      ],
      "stateMutability": "view",
      "type": "function"
    },
    {
      "inputs": [
        {
          "internalType": "address",
          "name": "_from",
          "type": "address"
        },
        {
          "internalType": "address",
          "name": "_recipient",
          "type": "address"
        },
        {
          "internalType": "uint256",
          "name": "_tokenId",
          "type": "uint256"
        }
      ],
      "name": "transferFrom",
      "outputs": [],
      "stateMutability": "nonpayable",
      "type": "function"
    },
    {
      "inputs": [
        {
          "internalType": "address",
          "name": "_recipient",
          "type": "address"
        },
        {
          "internalType": "uint256",
          "name": "_tokenId",
          "type": "uint256"
        }
      ],
      "name": "unlendKey",
      "outputs": [],
      "stateMutability": "nonpayable",
      "type": "function"
    },
    {
      "inputs": [],
      "name": "unlockProtocol",
      "outputs": [
        {
          "internalType": "contract IUnlock",
          "name": "",
          "type": "address"
        }
      ],
      "stateMutability": "view",
      "type": "function"
    },
    {
      "inputs": [
        {
          "internalType": "uint256",
          "name": "_keyPrice",
          "type": "uint256"
        },
        {
          "internalType": "address",
          "name": "_tokenAddress",
          "type": "address"
        }
      ],
      "name": "updateKeyPricing",
      "outputs": [],
      "stateMutability": "nonpayable",
      "type": "function"
    },
    {
      "inputs": [
        {
          "internalType": "uint256",
          "name": "_newExpirationDuration",
          "type": "uint256"
        },
        {
          "internalType": "uint256",
          "name": "_maxNumberOfKeys",
          "type": "uint256"
        },
        {
          "internalType": "uint256",
          "name": "_maxKeysPerAcccount",
          "type": "uint256"
        }
      ],
      "name": "updateLockConfig",
      "outputs": [],
      "stateMutability": "nonpayable",
      "type": "function"
    },
    {
      "inputs": [
        {
          "internalType": "uint256",
          "name": "_freeTrialLength",
          "type": "uint256"
        },
        {
          "internalType": "uint256",
          "name": "_refundPenaltyBasisPoints",
          "type": "uint256"
        }
      ],
      "name": "updateRefundPenalty",
      "outputs": [],
      "stateMutability": "nonpayable",
      "type": "function"
    },
    {
      "inputs": [
        {
          "internalType": "uint256",
          "name": "_transferFeeBasisPoints",
          "type": "uint256"
        }
      ],
      "name": "updateTransferFee",
      "outputs": [],
      "stateMutability": "nonpayable",
      "type": "function"
    },
    {
      "inputs": [
        {
          "internalType": "address",
          "name": "_tokenAddress",
          "type": "address"
        },
        {
          "internalType": "address payable",
          "name": "_recipient",
          "type": "address"
        },
        {
          "internalType": "uint256",
          "name": "_amount",
          "type": "uint256"
        }
      ],
      "name": "withdraw",
      "outputs": [],
      "stateMutability": "nonpayable",
      "type": "function"
    },
    {
      "stateMutability": "payable",
      "type": "receive"
    }
  ],
  "bytecode": "0x608060405234801561000f575f80fd5b50615ffa806200001e5f395ff3fe6080604052600436106103ee575f3560e01c80636eadde4311610205578063a98d362311610116578063d1bbd49c116100a4578063d1bbd49c14610c8c578063d32bfb6c14610ca7578063d52e4a1014610cc6578063d547741f14610cdb578063d813cc1914610cfa578063d9caed1214610d0d578063debe2b0d14610d2c578063dec0f27814610d4b578063f12c6b6e14610d6a578063f5766b3914610d89575f80fd5b8063a98d362314610b47578063aae4b8f714610b66578063b11d7ec114610b85578063b129694e14610ba4578063b1a3b25d14610bc4578063b88d4fde14610be3578063c23135dd14610c02578063c87b56dd14610c2e578063c907c3ec14610c4d578063d1b8759b14610c6d575f80fd5b806391a6459d1161019357806391a6459d14610a3957806391d1485414610a5857806392ac98a514610a7757806393fd184414610a9657806395d89b4114610aac578063982bf09014610ac05780639d76ea5814610adf578063a217fddf14610aff578063a2e4cd2e14610b12578063a375cb0514610b31575f80fd5b80636eadde431461090c57806370a082311461092b57806374b6c1061461094a5780637ec2a72414610960578063812eecd41461098057806381a3c9431461099f5780638505fe95146109be5780638577a6d5146109dd5780638932a90d146109fc5780638da5cb5b14610a1b575f80fd5b80632f54bf6e116102ff5780634cd38c1d1161028d5780634cd38c1d146107c35780634d025fed146107e25780634f6ccce71461081757806350878a471461083657806354b249fb14610855578063558b71e91461088457806356e0d51f146108a35780636207a8da146108b95780636352211e146108ce5780636d8ea5b4146108ed575f80fd5b80632f54bf6e146106875780632f745c59146106b657806333818997146106d557806336568abe146106f5578063389f07e81461071457806339f4698614610734578063407dc5891461075357806342842e0e1461077257806342966c68146107915780634609b39b146107b0575f80fd5b806313af40351161037c57806313af40351461055257806318160ddd14610571578063183767da14610586578063217751bc1461059c57806323b872dd146105bc578063248a9ca3146105db57806326e9ca0714610609578063282478df146106295780632d33dd5b146106485780632f2ff15d14610668575f80fd5b806301ffc9a7146103f9578063068208cd1461042d57806306fdde031461044e578063081812fc1461046f578063095ea7b31461049b578063097ba333146104ba5780630c2db8d1146104e75780630f15023b1461050657806310e569731461052657806311a4c03a1461053c575f80fd5b366103f557005b5f80fd5b348015610404575f80fd5b50610418610413366004614f26565b610da8565b60405190151581526020015b60405180910390f35b348015610438575f80fd5b5061044c610447366004614f41565b610db8565b005b348015610459575f80fd5b50610462610e35565b6040516104249190614fb7565b34801561047a575f80fd5b5061048e610489366004614fc9565b610ec2565b6040516104249190614fe0565b3480156104a6575f80fd5b5061044c6104b5366004615013565b610ee8565b3480156104c5575f80fd5b506104d96104d4366004615121565b610f82565b604051908152602001610424565b3480156104f2575f80fd5b5061044c61050136600461517e565b611020565b348015610511575f80fd5b50610c835461048e906001600160a01b031681565b348015610531575f80fd5b506104d9610c855481565b348015610547575f80fd5b506104d9610c845481565b34801561055d575f80fd5b5061044c61056c3660046151bc565b611074565b34801561057c575f80fd5b50610c87546104d9565b348015610591575f80fd5b506104d96124085481565b3480156105a7575f80fd5b50610c8a5461048e906001600160a01b031681565b3480156105c7575f80fd5b5061044c6105d636600461517e565b611105565b3480156105e6575f80fd5b506104d96105f5366004614fc9565b5f9081526097602052604090206001015490565b348015610614575f80fd5b50610c8b5461048e906001600160a01b031681565b348015610634575f80fd5b5061044c610643366004614f41565b611135565b348015610653575f80fd5b50610c895461048e906001600160a01b031681565b348015610673575f80fd5b5061044c6106823660046151d7565b6111b5565b348015610692575f80fd5b506104186106a13660046151bc565b612bdb546001600160a01b0390811691161490565b3480156106c1575f80fd5b506104d96106d0366004615013565b6111d9565b6106e86106e3366004615332565b61122b565b6040516104249190615439565b348015610700575f80fd5b5061044c61070f3660046151d7565b6114a3565b34801561071f575f80fd5b50610c8f5461048e906001600160a01b031681565b34801561073f575f80fd5b5061044c61074e36600461544b565b611526565b34801561075e575f80fd5b5061044c61076d366004615013565b611574565b34801561077d575f80fd5b5061044c61078c36600461517e565b6115be565b34801561079c575f80fd5b5061044c6107ab366004614fc9565b6115d8565b6106e86107be36600461546b565b61162a565b3480156107ce575f80fd5b5061044c6107dd36600461544b565b6118e9565b3480156107ed575f80fd5b5061048e6107fc366004614fc9565b6110786020525f90815260409020546001600160a01b031681565b348015610822575f80fd5b506104d9610831366004614fc9565b61194c565b348015610841575f80fd5b506104186108503660046151d7565b611974565b348015610860575f80fd5b506104d961086f366004614fc9565b5f90815261107b602052604090206001015490565b34801561088f575f80fd5b5061044c61089e36600461544b565b611b45565b3480156108ae575f80fd5b506104d96127f15481565b3480156108c4575f80fd5b5061201e546104d9565b3480156108d9575f80fd5b5061048e6108e8366004614fc9565b611b69565b3480156108f8575f80fd5b506104186109073660046151bc565b611b84565b348015610917575f80fd5b5061044c6109263660046155d8565b611c24565b348015610936575f80fd5b506104d96109453660046151bc565b611d9e565b348015610955575f80fd5b506104d9610c865481565b34801561096b575f80fd5b50610c8c5461048e906001600160a01b031681565b34801561098b575f80fd5b506104d961099a3660046151bc565b611ddd565b3480156109aa575f80fd5b506106e86109b9366004615657565b611df8565b3480156109c9575f80fd5b5061044c6109d83660046151d7565b61205f565b3480156109e8575f80fd5b5061044c6109f7366004614fc9565b61218e565b348015610a07575f80fd5b5061044c610a163660046156ca565b6121cf565b348015610a26575f80fd5b50612bdb546001600160a01b031661048e565b348015610a44575f80fd5b5060c95461048e906001600160a01b031681565b348015610a63575f80fd5b50610418610a723660046151d7565b612243565b348015610a82575f80fd5b506104d9610a91366004614fc9565b6122f7565b348015610aa1575f80fd5b506104d96110775481565b348015610ab7575f80fd5b506104626123e1565b348015610acb575f80fd5b5061044c610ada366004615708565b612504565b348015610aea575f80fd5b506104b15461048e906001600160a01b031681565b348015610b0a575f80fd5b506104d95f81565b348015610b1d575f80fd5b5061044c610b2c3660046151d7565b61269c565b348015610b3c575f80fd5b506104d96127f25481565b348015610b52575f80fd5b50610418610b61366004614fc9565b61272a565b348015610b71575f80fd5b50610418610b803660046151bc565b6127ea565b348015610b90575f80fd5b5061044c610b9f3660046151d7565b612802565b348015610baf575f80fd5b50610c915461048e906001600160a01b031681565b348015610bcf575f80fd5b506104d9610bde36600461544b565b612850565b348015610bee575f80fd5b5061044c610bfd3660046157ac565b6128c5565b348015610c0d575f80fd5b506104d9610c1c3660046151bc565b6120226020525f908152604090205481565b348015610c39575f80fd5b50610462610c48366004614fc9565b6128f9565b348015610c58575f80fd5b50610c905461048e906001600160a01b031681565b348015610c78575f80fd5b5061044c610c87366004615813565b612b95565b348015610c97575f80fd5b50604051600f8152602001610424565b348015610cb2575f80fd5b5061044c610cc1366004614fc9565b612c13565b348015610cd1575f80fd5b50610c8e546104d9565b348015610ce6575f80fd5b5061044c610cf53660046151d7565b612c44565b61044c610d08366004615893565b612c68565b348015610d18575f80fd5b5061044c610d2736600461517e565b612dab565b348015610d37575f80fd5b5061044c610d46366004615013565b612edc565b348015610d56575f80fd5b5061044c610d6536600461544b565b612f3d565b348015610d75575f80fd5b5061044c610d843660046158f7565b612f4f565b348015610d94575f80fd5b5061044c610da3366004614fc9565b613112565b5f610db282613156565b92915050565b610dc183613160565b610dca83613191565b610dd3836131b7565b610ddc82613160565b5f83815261107b6020526040902060010154610df990429061593d565b811115610e19576040516310e88eed60e31b815260040160405180910390fd5b610e2483825f613215565b610e3082826001613215565b505050565b6114638054610e4390615950565b80601f0160208091040260200160405190810160405280929190818152602001828054610e6f90615950565b8015610eba5780601f10610e9157610100808354040283529160200191610eba565b820191905f5260205f20905b815481529060010190602001808311610e9d57829003601f168201915b505050505081565b5f610ecc82613160565b505f90815261107960205260409020546001600160a01b031690565b610ef1816131b7565b6001600160a01b0382163303610f1a57604051637899146560e11b815260040160405180910390fd5b5f8181526110796020908152604080832080546001600160a01b0319166001600160a01b03878116918217909255611076909352818420549151859492909116917f8c5be1e5ebec7d5bd14f71427d1e84f3dd0314c0f7b2291e5b200ac8c7c3b92591a45050565b610c89545f906001600160a01b03161561101357610c895460405163221c1fd160e01b81526001600160a01b039091169063221c1fd190610fcd903390889088908890600401615982565b602060405180830381865afa158015610fe8573d5f803e3d5ffd5b505050506040513d601f19601f8201168201806040525081019061100c91906159bf565b9050611019565b50610c85545b9392505050565b61102a8133613292565b6110475760405163075fd2b160e01b815260040160405180910390fd5b611052838383613307565b5f9081526110786020526040902080546001600160a01b031916331790555050565b61107c6134d8565b6001600160a01b0381166110a3576040516330c6e09f60e21b815260040160405180910390fd5b612bdb80546001600160a01b038381166001600160a01b031983168117909355604080519190921680825260208201939093527f8be0079c531659141344cd1fd0a4f28419497f9722a3daafe3b4186f6b6457e0910160405180910390a15050565b61110e816131b7565b5f8181526110786020526040902080546001600160a01b0319169055610e30838383613307565b61113d6134d8565b805f0361115d5760405163e03b033d60e01b815260040160405180910390fd5b610c8e819055610c84839055610c8682905560408051848152602081018490529081018290527f9a09448a3f24d3a01ccc67103c7cddbeea820176a18182cc83d0bce585f26a5b9060600160405180910390a1505050565b5f828152609760205260409020600101546111cf8161350e565b610e308383613518565b5f6111e383611ddd565b821061120257604051630471175760e11b815260040160405180910390fd5b506001600160a01b03919091165f90815261107c60209081526040808320938352929052205490565b6060611237865161359d565b8451865114158061124a57508351865114155b15611268576040516376b3b52560e11b815260040160405180910390fd5b5f8087516001600160401b038111156112835761128361503d565b6040519080825280602002602001820160405280156112ac578160200160208202803683370190505b5090505f5b88518110156113fe576104b1545f9081906113b9906001600160a01b03166112d9575f6112f4565b8c84815181106112eb576112eb6159d6565b60200260200101515b8c8581518110611306576113066159d6565b60200260200101518b8681518110611320576113206159d6565b60200260200101518d878151811061133a5761133a6159d6565b60200260200101518e8881518110611354576113546159d6565b60200260200101518d8d8a81811061136e5761136e6159d6565b905060200281019061138091906159ea565b8080601f0160208091040260200160405190810160405280939291908181526020018383808284375f920191909152506135d792505050565b90925090506113c88186615a2c565b9450818484815181106113dd576113dd6159d6565b602002602001018181525050505080806113f690615a3f565b9150506112b1565b5087516104b1546040515f80516020615f45833981519152926114349285925f9133916001600160a01b03909116908990615a57565b60405180910390a161144633836136df565b61144f82613787565b611457613878565b5f5b875181101561149657611484888281518110611477576114776159d6565b60200260200101516138ec565b8061148e81615a3f565b915050611459565b5098975050505050505050565b6001600160a01b03811633146115185760405162461bcd60e51b815260206004820152602f60248201527f416363657373436f6e74726f6c3a2063616e206f6e6c792072656e6f756e636560448201526e103937b632b9903337b91039b2b63360891b60648201526084015b60405180910390fd5b61152282826139dc565b5050565b61152e6134d8565b60408051838152602081018390527fd6867bc538320e67d7bdc35860c27c08486eb490b4fd9b820fff18fb28381d3c910160405180910390a16127f2919091556127f155565b5f81815261107860205260409020546001600160a01b031633146115ab5760405163075fd2b160e01b815260040160405180910390fd5b6115226115b782611b69565b8383613307565b610e3083838360405180602001604052805f8152506128c5565b6115e181613160565b6115ea816131b7565b6115fd6115f682611b69565b5f83613307565b610c878054905f61160d83615a9c565b909155505061107f8054905f61162283615a3f565b919050555050565b6060611636825161359d565b5f8083516001600160401b038111156116515761165161503d565b60405190808252806020026020018201604052801561167a578160200160208202803683370190505b5090505f805b8551811015611854575f806117468884815181106116a0576116a06159d6565b60200260200101515f01518985815181106116bd576116bd6159d6565b6020026020010151602001518a86815181106116db576116db6159d6565b6020026020010151608001518b87815181106116f9576116f96159d6565b6020026020010151604001518c8881518110611717576117176159d6565b6020026020010151606001518d8981518110611735576117356159d6565b602002602001015160a001516135d7565b90925090506117558187615a2c565b95508185848151811061176a5761176a6159d6565b602002602001018181525050878381518110611788576117886159d6565b602002602001015160c001518461179f9190615a2c565b93505f5b8884815181106117b5576117b56159d6565b602002602001015160c0015181101561183e576117d2835f613a42565b506117dd8288615a2c565b9650611806828a86815181106117f5576117f56159d6565b602002602001015160600151613b99565b61182c89858151811061181b5761181b6159d6565b6020026020010151604001516138ec565b8061183681615a3f565b9150506117a3565b505050808061184c90615a3f565b915050611680565b5084516104b1546040515f80516020615f458339815191529261188a928692869133916001600160a01b03909116908a90615a57565b60405180910390a161189c33846136df565b6118a583613787565b6118ad613878565b5f5b85518110156118df576118cd86828151811061181b5761181b6159d6565b806118d781615a3f565b9150506118af565b5090949350505050565b6118f1613c69565b6118fa82613160565b6119115f80516020615f2583398151915233612243565b1580156119245750611922336127ea565b155b1561194257604051631798fedb60e01b815260040160405180910390fd5b610e308282613a42565b5f610c8754821061197057604051630471175760e11b815260040160405180910390fd5b5090565b5f82815261202360205260408120600101545f19148061199e57506104b1546001600160a01b0316155b156119bc57604051636cd40e1160e11b815260040160405180910390fd5b5f83815261201f60205260408120549003611a51576119f26119dd84611b69565b8360405180602001604052805f815250610f82565b5f84815261202360205260409020541080611a205750610c84545f8481526120236020526040902060010154115b80611a4c57506104b1545f84815261202360205260409020600201546001600160a01b03908116911614155b611ab1565b611a5d6119dd84611b69565b5f84815261201f60205260409020541080611a885750610c84545f8481526120206020526040902054115b80611ab157506104b1545f84815261202160205260409020546001600160a01b03908116911614155b15611acf5760405163986739e760e01b815260040160405180910390fd5b5f612710610c8454612328611ae49190615ab1565b611aee9190615ac8565b610c84545f86815261107b6020526040902060010154611b0e919061593d565b611b189190615a2c565b905080421015611b3b576040516360d8ec3360e11b815260040160405180910390fd5b5060019392505050565b611b4e82613160565b611b5782613191565b611b5f6134d8565b6115228282613c8d565b5f90815261107660205260409020546001600160a01b031690565b5f80611b8f83611d9e565b610c8b54911091506001600160a01b031615611c1f57610c8b5460405163084fdbc760e31b81526001600160a01b039091169063427ede3890611be090309033905f90819089908990600401615ae7565b602060405180830381865afa158015611bfb573d5f803e3d5ffd5b505050506040513d601f19601f82011682018060405250810190610db29190615b22565b919050565b5f54610100900460ff1615808015611c4257505f54600160ff909116105b80611c625750611c5130613d89565b158015611c6257505f5460ff166001145b611cc55760405162461bcd60e51b815260206004820152602e60248201527f496e697469616c697a61626c653a20636f6e747261637420697320616c72656160448201526d191e481a5b9a5d1a585b1a5e995960921b606482015260840161150f565b5f805460ff191660011790558015611ce6575f805461ff0019166101001790555b611cef86613d98565b611cfb88888787613dc4565b611d058383613e05565b611d0d613e2c565b611d196103e86127f155565b611d2288613e3c565b612bdb80546001600160a01b0319166001600160a01b038a16179055611d4e6380ac58cd60e01b613ecd565b8015611d94575f805461ff0019169055604051600181527f7f26b83ff96e1f2b6a682f133852f6798a09c465da95921460cefb3847402498906020015b60405180910390a15b5050505050505050565b5f80611da983611ddd565b90505f5b81811015611dd657611dc2610b6185836111d9565b15611dce576001909201915b600101611dad565b5050919050565b6001600160a01b03165f90815261107e602052604090205490565b6060611e02613c69565b611e195f80516020615f2583398151915233612243565b158015611e2c5750611e2a336127ea565b155b15611e4a57604051631798fedb60e01b815260040160405180910390fd5b5f866001600160401b03811115611e6357611e6361503d565b604051908082528060200260200182016040528015611e8c578160200160208202803683370190505b5090505f5b8781101561205357611f08898983818110611eae57611eae6159d6565b9050602002016020810190611ec391906151bc565b868684818110611ed557611ed56159d6565b9050602002016020810190611eea91906151bc565b898985818110611efc57611efc6159d6565b90506020020135613f4b565b828281518110611f1a57611f1a6159d6565b6020908102919091010152610c91546001600160a01b03161561204157610c915482516001600160a01b03909116906348a254b890849084908110611f6157611f616159d6565b6020026020010151338c8c86818110611f7c57611f7c6159d6565b9050602002016020810190611f9191906151bc565b898987818110611fa357611fa36159d6565b9050602002016020810190611fb891906151bc565b8c8c88818110611fca57611fca6159d6565b6040516001600160e01b031960e08a901b16815260048101979097526001600160a01b039586166024880152938516604487015250921660648401526020020135608482015260a4015f604051808303815f87803b15801561202a575f80fd5b505af115801561203c573d5f803e3d5ffd5b505050505b8061204b81615a3f565b915050611e91565b50979650505050505050565b612067613c69565b61207082613160565b5f82815261202360205260408120600301546001600160a01b0316156120b0575f83815261202360205260409020600301546001600160a01b03166120b2565b815b90506120be8382611974565b506120c9835f613a42565b506040805160018082528183019092525f916020808301908036833701905050905083815f815181106120fe576120fe6159d6565b60209081029190910101526104b154610c85546040515f80516020615f45833981519152926121419285925f9260019233926001600160a01b0390921691615a57565b60405180910390a1612156610c855483613b99565b61216b61216285611b69565b610c85546136df565b612173613878565b61217c826138ec565b612188610c8554613787565b50505050565b6121966134d8565b6040518181527f0496ed1e61eb69727f9659a8e859288db4758ffb1f744d1c1424634f90a257f49060200160405180910390a161240855565b6121db6001600f615b41565b61ffff16610c8d5414806121f05750610c8d54155b6122395760405162461bcd60e51b815260206004820152601a60248201527914d0d211535057d5915494d253d397d393d517d0d3d4949150d560321b604482015260640161150f565b5050600f610c8d55565b5f8281526097602090815260408083206001600160a01b038581168552925282205460c95460ff9091169116156110195760c954604051632c02f5ad60e01b8152600481018690526001600160a01b038581166024830152831515604483015290911690632c02f5ad90606401602060405180830381865afa1580156122cb573d5f803e3d5ffd5b505050506040513d601f19601f820116820180604052508101906122ef9190615b22565b915050610db2565b5f61230182613191565b5f19610c845403612315575050610c855490565b5f82815261107b602052604081206001015461233290429061593d565b9050610c84546127f254826123479190615a2c565b1061235757610c85549150612377565b610c845481610c855461236a9190615ab1565b6123749190615ac8565b91505b6127f25415806123965750610c84546127f2546123949083615a2c565b105b156123db575f6127106127f154610c85546123b19190615ab1565b6123bb9190615ac8565b9050808311156123d6576123cf818461593d565b9250611dd6565b5f9250505b50919050565b606061146480546123f190615950565b90505f0361247557610c835f9054906101000a90046001600160a01b03166001600160a01b031663cec410526040518163ffffffff1660e01b81526004015f60405180830381865afa158015612449573d5f803e3d5ffd5b505050506040513d5f823e601f3d908101601f191682016040526124709190810190615b5c565b905090565b611464805461248390615950565b80601f01602080910402602001604051908101604052809291908181526020018280546124af90615950565b80156124fa5780601f106124d1576101008083540402835291602001916124fa565b820191905f5260205f20905b8154815290600101906020018083116124dd57829003601f168201915b5050505050905090565b61250c6134d8565b6001600160a01b038116158015906125335750612531816001600160a01b0316613d89565b155b1561255457604051636788e02b60e01b81526007600482015260240161150f565b61255e885f614028565b612569876001614028565b612574866002614028565b61257f856003614028565b61258a846004614028565b612595836005614028565b6125a0826006614028565b6125ab816007614028565b610c8980546001600160a01b038a81166001600160a01b03199283168117909355610c8a80548b83169084168117909155610c8c80548a84169085168117909155610c8b80548c85169086168117909155610c8f80548b86169087168117909155610c9080548b87169088168117909155610c9180548b8816908916811790915560c98054978b16979098168717909755604080519889526020890195909552938701919091526060860191909152608085015260a084015260c083019190915260e08201527f4a21a825c2b28d7dd6702a5068282d441d7b7cb48622e5f6c9413f66e0aed1329061010001611d8b565b6126a46134d8565b6126ad81614072565b610c8580546104b18054928590556001600160a01b031983166001600160a01b0385811691821790925560408051848152602081018890529290941693820184905260608201529091907f3615065ccf48367ac483ac86701248e2e5ff55bdd9be845007d34a3b68d719d49060800160405180910390a150505050565b5f81815261107b6020526040812060010154610c8b5442909111906001600160a01b031615610db257610c8b545f84815261107b60209081526040808320600101546110769092529182902054915163084fdbc760e31b81526001600160a01b039384169363427ede38936127ab93309333938b9316908990600401615ae7565b602060405180830381865afa1580156127c6573d5f803e3d5ffd5b505050506040513d601f19601f820116820180604052508101906110199190615b22565b5f610db25f80516020615fa583398151915283612243565b61280b82613160565b6128158233613292565b1580156128285750612826336127ea565b155b156128465760405163866c2fa760e01b815260040160405180910390fd5b6115228282614106565b5f61285a83613160565b5f83815261107b60205260409020600101544281101561287d575f915050610db2565b5f835f036128965761288f428361593d565b9050612899565b50825b61271061240854826128ab9190615ab1565b6128b59190615ac8565b92505050610db2565b5092915050565b6128d0848484611105565b6128dc84848484614190565b612188576040516303f8ea1560e41b815260040160405180910390fd5b606080805f61290730614242565b9050606085156129215761291a86614258565b9250612933565b60405180602001604052805f81525092505b610c8c546001600160a01b031615612a05575f86815261107b6020526040902060010154610c8c546001600160a01b031663988b93ad30336129748b611b69565b60405160e085901b6001600160e01b03191681526001600160a01b03938416600482015291831660248301529091166044820152606481018a90526084810184905260a4015f60405180830381865afa1580156129d3573d5f803e3d5ffd5b505050506040513d5f823e601f3d908101601f191682016040526129fa9190810190615b5c565b979650505050505050565b6114658054612a1390615950565b90505f03612ab557610c835f9054906101000a90046001600160a01b03166001600160a01b031663a998e9fb6040518163ffffffff1660e01b81526004015f60405180830381865afa158015612a6b573d5f803e3d5ffd5b505050506040513d5f823e601f3d908101601f19168201604052612a929190810190615b5c565b9350604051806040016040528060018152602001602f60f81b8152509050612b64565b6114658054612ac390615950565b80601f0160208091040260200160405190810160405280929190818152602001828054612aef90615950565b8015612b3a5780601f10612b1157610100808354040283529160200191612b3a565b820191905f5260205f20905b815481529060010190602001808311612b1d57829003601f168201915b5050505050935060405180602001604052805f815250905060405180602001604052805f81525091505b83828285604051602001612b7b9493929190615bcd565b604051602081830303815290604052945050505050919050565b612b9d6134d8565b611463612bab868883615c70565b50611464612bba848683615c70565b50611465612bc9828483615c70565b507f1e6d6a19e45ae156dcf4155bc83cf8f59e98d536000998f0e95f4cd330ecfb3e611463611464611465604051612c0393929190615da3565b60405180910390a1505050505050565b612c1c81613160565b612c2581613191565b612c2e816131b7565b5f612c38826122f7565b90506115228282613c8d565b5f82815260976020526040902060010154612c5e8161350e565b610e3083836139dc565b612c70613c69565b612c7984613160565b612c83845f613a42565b505f612ccd612c9186611b69565b8585858080601f0160208091040260200160405190810160405280939291908181526020018383808284375f92019190915250610f8292505050565b6104b1549091506001600160a01b031615612cec57612cec86826142e7565b6040805160018082528183019092525f916020808301908036833701905050905085815f81518110612d2057612d206159d6565b60209081029190910101526104b1546040515f80516020615f4583398151915291612d619184915f9160019133916001600160a01b03909116908990615a57565b60405180910390a1612d738286613b99565b612d7d33836136df565b612d88868387614308565b612d90613878565b612d99856138ec565b612da282613787565b50505050505050565b612db36134d8565b5f6001600160a01b038416612dc9575047612e37565b6040516370a0823160e01b81526001600160a01b038516906370a0823190612df5903090600401614fe0565b602060405180830381865afa158015612e10573d5f803e3d5ffd5b505050506040513d601f19601f82011682018060405250810190612e3491906159bf565b90505b5f821580612e4457508183115b15612e70575f8211612e69576040516303e09bb960e31b815260040160405180910390fd5b5080612e73565b50815b836001600160a01b0316856001600160a01b0316336001600160a01b03167f342e7ff505a8a0364cd0dc2ff195c315e43bce86b204846ecd36913e117b109e84604051612ec291815260200190565b60405180910390a4612ed58585836143af565b5050505050565b612ee46134d8565b6001600160a01b0382165f818152612022602052604090819020839055517fa027572bb55de556a0df93bd38c3871aaf311245c2cd34f0da045aa33a66dbc590612f319084815260200190565b60405180910390a25050565b612f456134d8565b61152282826143eb565b612f57613c69565b610c8754610c865411612f7d576040516331af695160e01b815260040160405180910390fd5b612f86826131b7565b612f8f82613191565b612f97614444565b5f82815261107660205260408120546001600160a01b0316908042612fcb865f90815261107b602052604090206001015490565b612fd5919061593d565b90505f612fe1336127ea565b612ff457612fef8686612850565b612ff6565b5f5b90505f6130038287615a2c565b9050828110156130205785935061301b87825f613215565b61308b565b613029336127ea565b61303c576130378787612850565b61303e565b5f5b915061304a828461593d565b5f88815261107b6020526040808220426001909101555191955088917f59f2fe866dd27a1c2d34115520888c3150365cbc931aab97fa88c4b9ab40b7959190a25b5f6130a0898261309b8842615a2c565b613f4b565b905080896001600160a01b0316876001600160a01b03165f80516020615f8583398151915260405160405180910390a46130ea868a8360405180602001604052805f815250614190565b613107576040516303f8ea1560e41b815260040160405180910390fd5b505050505050505050565b61311a6134d8565b61201e8190556040518181527f4d816c1058de34c4241ba72c371fb3f2ea05147691b364f04d16bc967ae68a119060200160405180910390a150565b5f610db28261447d565b5f81815261107b6020526040812054900361318e576040516378fe247360e01b815260040160405180910390fd5b50565b61319a8161272a565b61318e576040516306cfa7d760e11b815260040160405180910390fd5b6131c0336127ea565b1580156131d457506131d28133613292565b155b80156131f757505f81815261107960205260409020546001600160a01b03163314155b1561318e5760405163e17c6d4560e01b815260040160405180910390fd5b61321e83613160565b5f83815261107b602052604081206001015490821561327b575f19820361325857604051630471175760e11b815260040160405180910390fd5b428211156132715761326a8483615a2c565b9050613288565b61326a8442615a2c565b613285848361593d565b90505b612ed585826143eb565b5f82815261107860205260408120546001600160a01b03838116911614806132f35750816001600160a01b03166132c884611b69565b6001600160a01b03161480156132f357505f83815261107860205260409020546001600160a01b0316155b1561330057506001610db2565b505f610db2565b61331081613191565b613318614444565b826001600160a01b031661332b82611b69565b6001600160a01b0316146133525760405163075fd2b160e01b815260040160405180910390fd5b816001600160a01b0316836001600160a01b03160361338457604051633fbd1a4960e01b815260040160405180910390fd5b6133ac81613391336127ea565b6133a45761339f835f612850565b6133a6565b5f5b5f613215565b5f81815261107b602052604090206133c383611ddd565b1580156133d857506001600160a01b03831615155b156133f3576110778054905f6133ed83615a3f565b91905055505b6133fc82614487565b613406828461457c565b61340f82614626565b61341a825f80614308565b81836001600160a01b0316856001600160a01b03165f80516020615f8583398151915260405160405180910390a4610c8f546001600160a01b03161561218857610c8f5460018201546040516375b37aef60e01b8152306004820152602481018590523360448201526001600160a01b038781166064830152868116608483015260a48201929092529116906375b37aef9060c4015f604051808303815f87803b1580156134c6575f80fd5b505af1158015611d94573d5f803e3d5ffd5b6134ef5f80516020615fa583398151915233612243565b61350c57604051632386d63160e21b815260040160405180910390fd5b565b61318e8133614661565b6135228282612243565b611522575f8281526097602090815260408083206001600160a01b03851684529091529020805460ff191660011790556135593390565b6001600160a01b0316816001600160a01b0316837f2f8788117e7eff1d82e926ec794901d17c78024a50270940304540a733656f0d60405160405180910390a45050565b6135a5613c69565b610c865481610c87546135b89190615a2c565b111561318e576040516331af695160e01b815260040160405180910390fd5b5f806135fe87875f19610c8454146135f757610c845461309b9042615a2c565b5f19613f4b565b915061360b878685610f82565b9050613618828287614308565b6104b1546001600160a01b0316156136345761363488826142e7565b61363e8185613b99565b610c89546001600160a01b0316156136d457610c89546104b1546001600160a01b0391821691635e895f2991859133918c918b918a9189911615613682578f613684565b345b6040518863ffffffff1660e01b81526004016136a69796959493929190615ddb565b5f604051808303815f87803b1580156136bd575f80fd5b505af11580156136cf573d5f803e3d5ffd5b505050505b965096945050505050565b6104b1546001600160a01b031615613766576104b1546040516323b872dd60e01b81526001600160a01b03909116906323b872dd9061372690859030908690600401615e2a565b6020604051808303815f875af1158015613742573d5f803e3d5ffd5b505050506040513d601f19601f82011682018060405250810190610e309190615b22565b80341015611522576040516306c3cddf60e41b815260040160405180910390fd5b610c83545f906001600160a01b03163b1561152257610c835f9054906101000a90046001600160a01b03166001600160a01b031663b0e21e8a6040518163ffffffff1660e01b8152600401602060405180830381865afa92505050801561380b575060408051601f3d908101601f19168201909252613808918101906159bf565b60015b61383a57610c835460405130915f80516020615f6583398151915291612f31916001600160a01b031690614fe0565b6127106138478285615ab1565b6138519190615ac8565b91508115610e30576104b154610c8354610e30916001600160a01b039081169116846143af565b61201e541561350c576104b15461201e5461389e916001600160a01b03169033906143af565b61201e546104b154604080519283526001600160a01b03909116602083015233917f522a883b471164223f18b50f326da8671372b64b4792eac0e63d447e714c3e3b910160405180910390a2565b6001600160a01b0381161561318e576120226020527fbed07da93ba22716a54f603f075ff3d6567a94916ac6d58738883fb4a4b47ea6546001600160a01b0382165f90815260409020541561395657506001600160a01b0381165f90815261202260205260409020545b8015611522575f61271082610c855461396f9190615ab1565b6139799190615ac8565b6104b1546040519192507f7b738c16aedc7a7aa4707eff83812b3bac54bd9e9a5acc8d019203de20634988916139bc916001600160a01b03169086908590615e2a565b60405180910390a16104b154610e30906001600160a01b031684836143af565b6139e68282612243565b15611522575f8281526097602090815260408083206001600160a01b0385168085529252808320805460ff1916905551339285917ff6391f5c32d9c69d2a47ea670b442974b53935d1edc7fd64eb21e047a839171b9190a45050565b5f82815261107b60205260408120600190810154908101613a7657604051630fed19c160e11b815260040160405180910390fd5b5f8315613a835783613a88565b610c84545b90505f198103613a9b575f199250613ac1565b42821115613ab457613aad8183615a2c565b9250613ac1565b613abe8142615a2c565b92505b5f85815261107b6020526040908190206001018490555185907f3ca112768ff7861e008ace1c11570c52e404c043e585545b5957a1e20961dde390613b099086815260200190565b60405180910390a2610c90546001600160a01b031615613b9157610c90546040516202d72d60e71b81526004810187905233602482015260448101859052606481018490526001600160a01b039091169063016b9680906084015f604051808303815f87803b158015613b7a575f80fd5b505af1158015613b8c573d5f803e3d5ffd5b505050505b505092915050565b610c83546001600160a01b03163b15613c3e57610c835460405163939d9f1f60e01b8152600481018490526001600160a01b0383811660248301529091169063939d9f1f90620493e0906044015f604051808303815f88803b158015613bfd575f80fd5b5087f193505050508015613c0f575060015b61152257610c835460405130915f80516020615f6583398151915291612f31916001600160a01b031690614fe0565b610c835460405130915f80516020615f6583398151915291612f31916001600160a01b031690614fe0565b610c8d54600f1461350c576040516302eae03b60e61b815260040160405180910390fd5b5f613c9783611b69565b9050613ca2836146ba565b336001600160a01b0316816001600160a01b0316847f0a7068a9989857441c039a14a42b67ed71dd1fcfe5a9b17cc87b252e47bce52885604051613ce891815260200190565b60405180910390a48115613d0e576104b154613d0e906001600160a01b031682846143af565b613d19835f80614308565b610c8a546001600160a01b031615610e3057610c8a5460405163b499b6c560e01b81526001600160a01b039091169063b499b6c590613d6090339085908790600401615e2a565b5f604051808303815f87803b158015613d77575f80fd5b505af1158015612da2573d5f803e3d5ffd5b6001600160a01b03163b151590565b613da181614072565b6104b180546001600160a01b0319166001600160a01b0392909216919091179055565b610c8380546001600160a01b03191633179055610c84839055610c85829055610c86819055613df1600f90565b61ffff16610c8d5550506001610c8e555050565b613e0d6146c4565b611463613e1b828483615c70565b50611522635b5e139f60e01b613ecd565b61350c63780e9d6360e01b613ecd565b613e535f80516020615fa58339815191528061472e565b613e775f80516020615f258339815191525f80516020615fa583398151915261472e565b613e80816127ea565b613e9b57613e9b5f80516020615fa583398151915282614778565b613eb25f80516020615f2583398151915282612243565b61318e5761318e5f80516020615f2583398151915282614778565b6001600160e01b03198082169003613f275760405162461bcd60e51b815260206004820152601c60248201527f4552433136353a20696e76616c696420696e7465726661636520696400000000604482015260640161150f565b6001600160e01b0319165f908152606560205260409020805460ff19166001179055565b5f6001600160a01b038416613f7357604051635963709b60e01b815260040160405180910390fd5b610c8780546001019081905561107f54613f8c91615a2c565b60408051808201825282815260208082018681525f85815261107b9092529290209051815590516001909101559050613fc484611ddd565b158015613fd957506001600160a01b03841615155b15613fe957611077805460010190555b613ff3818561457c565b613ffd8184614106565b60405181906001600160a01b038616905f905f80516020615f85833981519152908290a49392505050565b6001600160a01b0382161580159061404f575061404d826001600160a01b0316613d89565b155b1561152257604051636788e02b60e01b815260ff8216600482015260240161150f565b6001600160a01b038116158015906140e857505f816001600160a01b03166318160ddd6040518163ffffffff1660e01b8152600401602060405180830381865afa1580156140c2573d5f803e3d5ffd5b505050506040513d601f19601f820116820180604052508101906140e691906159bf565b105b1561318e5760405163684cae7960e11b815260040160405180910390fd5b5f82815261107860205260409020546001600160a01b03828116911614611522575f8281526110786020526040902080546001600160a01b0319166001600160a01b03831617905561415782614626565b6040516001600160a01b0382169083907f9d2895c45a420624de863a2f437b022d879f457bf7a829044055a10c5a6fd5e3905f90a35050565b5f6141a3846001600160a01b0316613d89565b6141af5750600161423a565b604051630a85bd0160e11b81525f906001600160a01b0386169063150b7a02906141e39033908a9089908990600401615e4e565b6020604051808303815f875af11580156141ff573d5f803e3d5ffd5b505050506040513d601f19601f820116820180604052508101906142239190615e80565b6001600160e01b031916630a85bd0160e11b149150505b949350505050565b6060610db26001600160a01b0383166014614782565b60605f614264836148f3565b60010190505f816001600160401b038111156142825761428261503d565b6040519080825280601f01601f1916602001820160405280156142ac576020820181803683370190505b5090508181016020015b5f19016f181899199a1a9b1b9c1cb0b131b232b360811b600a86061a8153600a85049450846142b657509392505050565b80821015611522576040516330005fb160e21b815260040160405180910390fd5b60408051608081018252928352610c845460208085019182526104b1546001600160a01b03908116868501908152948116606087019081525f9788526120238352848820965187559251600187015593516002860180549186166001600160a01b0319928316179055915160039095018054959094169482169490941790925561201f83528084208490556120208352808420849055612021909252912080549091169055565b8015610e30576001600160a01b0383166143d657610e306001600160a01b038316826149ca565b826121886001600160a01b0382168484614adc565b5f82815261107b602090815260409182902060010180549084905582518181529182018490529184917feff98df468b347f5cf62ed3329054836e763fc673bf48dce3c41dd0612c5fc68910160405180910390a2505050565b612710612408541015801561445f575061445d336127ea565b155b1561350c576040516323f21a3d60e21b815260040160405180910390fd5b5f610db282614b2e565b5f81815261107660205260408120546001600160a01b03169060016144ab83611ddd565b6144b5919061593d565b5f84815261107d6020526040902054909150808214614509576001600160a01b0383165f90815261107c60209081526040808320858452825280832054848452818420819055835261107d90915290208190555b6001600160a01b0383165f90815261107c6020908152604080832085845290915281205561453683611ddd565b6001036145485761107780545f190190555b6001600160a01b0383165f90815261107e6020526040812080546001929061457190849061593d565b909155505050505050565b5f61458682611ddd565b9050610c8e5481101580156145a357506001600160a01b03821615155b156145c157604051630bf6c32360e11b815260040160405180910390fd5b5f83815261107d602090815260408083208490556001600160a01b0390941680835261107c8252848320938352928152838220859055938152611076845282812080546001600160a01b0319168317905590815261107e909252902080546001019055565b5f81815261107960205260409020546001600160a01b03161561318e575f9081526110796020526040902080546001600160a01b0319169055565b61466b8282612243565b6115225761467881614b52565b614683836020614b64565b604051602001614694929190615e9b565b60408051601f198184030181529082905262461bcd60e51b825261150f91600401614fb7565b61318e81426143eb565b5f54610100900460ff1661350c5760405162461bcd60e51b815260206004820152602b60248201527f496e697469616c697a61626c653a20636f6e7472616374206973206e6f74206960448201526a6e697469616c697a696e6760a81b606482015260840161150f565b5f82815260976020526040808220600101805490849055905190918391839186917fbd79b86ffe0ab8e8776151514217cd7cacd52c909f66475c3af44e129f0b00ff9190a4505050565b6115228282613518565b6060825f614791846002615ab1565b61479c906002615a2c565b6001600160401b038111156147b3576147b361503d565b6040519080825280601f01601f1916602001820160405280156147dd576020820181803683370190505b509050600360fc1b815f815181106147f7576147f76159d6565b60200101906001600160f81b03191690815f1a905350600f60fb1b81600181518110614825576148256159d6565b60200101906001600160f81b03191690815f1a9053505f614847856002615ab1565b614852906001615a2c565b90505b60018111156148c9576f181899199a1a9b1b9c1cb0b131b232b360811b83600f1660108110614886576148866159d6565b1a60f81b82828151811061489c5761489c6159d6565b60200101906001600160f81b03191690815f1a90535060049290921c916148c281615a9c565b9050614855565b50811561423a5760405163e22e27eb60e01b8152600481018690526024810185905260440161150f565b5f8072184f03e93ff9f4daa797ed6e38ed64bf6a1f0160401b83106149315772184f03e93ff9f4daa797ed6e38ed64bf6a1f0160401b830492506040015b6d04ee2d6d415b85acef8100000000831061495d576d04ee2d6d415b85acef8100000000830492506020015b662386f26fc10000831061497b57662386f26fc10000830492506010015b6305f5e1008310614993576305f5e100830492506008015b61271083106149a757612710830492506004015b606483106149b9576064830492506002015b600a8310610db25760010192915050565b80471015614a1a5760405162461bcd60e51b815260206004820152601d60248201527f416464726573733a20696e73756666696369656e742062616c616e6365000000604482015260640161150f565b5f826001600160a01b0316826040515f6040518083038185875af1925050503d805f8114614a63576040519150601f19603f3d011682016040523d82523d5f602084013e614a68565b606091505b5050905080610e305760405162461bcd60e51b815260206004820152603a60248201527f416464726573733a20756e61626c6520746f2073656e642076616c75652c20726044820152791958da5c1a595b9d081b585e481a185d99481c995d995c9d195960321b606482015260840161150f565b604080516001600160a01b038416602482015260448082018490528251808303909101815260649091019091526020810180516001600160e01b031663a9059cbb60e01b179052610e30908490614cf9565b5f6001600160e01b03198216637965db0b60e01b1480610db25750610db282614dcc565b6060610db26001600160a01b03831660145b60605f614b72836002615ab1565b614b7d906002615a2c565b6001600160401b03811115614b9457614b9461503d565b6040519080825280601f01601f191660200182016040528015614bbe576020820181803683370190505b509050600360fc1b815f81518110614bd857614bd86159d6565b60200101906001600160f81b03191690815f1a905350600f60fb1b81600181518110614c0657614c066159d6565b60200101906001600160f81b03191690815f1a9053505f614c28846002615ab1565b614c33906001615a2c565b90505b6001811115614caa576f181899199a1a9b1b9c1cb0b131b232b360811b85600f1660108110614c6757614c676159d6565b1a60f81b828281518110614c7d57614c7d6159d6565b60200101906001600160f81b03191690815f1a90535060049490941c93614ca381615a9c565b9050614c36565b5083156110195760405162461bcd60e51b815260206004820181905260248201527f537472696e67733a20686578206c656e67746820696e73756666696369656e74604482015260640161150f565b5f614d4d826040518060400160405280602081526020017f5361666545524332303a206c6f772d6c6576656c2063616c6c206661696c6564815250856001600160a01b0316614e069092919063ffffffff16565b905080515f1480614d6d575080806020019051810190614d6d9190615b22565b610e305760405162461bcd60e51b815260206004820152602a60248201527f5361666545524332303a204552433230206f7065726174696f6e20646964206e6044820152691bdd081cdd58d8d9595960b21b606482015260840161150f565b5f6301ffc9a760e01b6001600160e01b031983161480610db25750506001600160e01b0319165f9081526065602052604090205460ff1690565b606061423a84845f85855f80866001600160a01b03168587604051614e2b9190615f09565b5f6040518083038185875af1925050503d805f8114614e65576040519150601f19603f3d011682016040523d82523d5f602084013e614e6a565b606091505b50915091506129fa8783838760608315614ee25782515f03614edb57614e8f85613d89565b614edb5760405162461bcd60e51b815260206004820152601d60248201527f416464726573733a2063616c6c20746f206e6f6e2d636f6e7472616374000000604482015260640161150f565b508161423a565b61423a8383815115614ef75781518083602001fd5b8060405162461bcd60e51b815260040161150f9190614fb7565b6001600160e01b03198116811461318e575f80fd5b5f60208284031215614f36575f80fd5b813561101981614f11565b5f805f60608486031215614f53575f80fd5b505081359360208301359350604090920135919050565b5f5b83811015614f84578181015183820152602001614f6c565b50505f910152565b5f8151808452614fa3816020860160208601614f6a565b601f01601f19169290920160200192915050565b602081525f6110196020830184614f8c565b5f60208284031215614fd9575f80fd5b5035919050565b6001600160a01b0391909116815260200190565b6001600160a01b038116811461318e575f80fd5b8035611c1f81614ff4565b5f8060408385031215615024575f80fd5b823561502f81614ff4565b946020939093013593505050565b634e487b7160e01b5f52604160045260245ffd5b60405160e081016001600160401b03811182821017156150735761507361503d565b60405290565b604051601f8201601f191681016001600160401b03811182821017156150a1576150a161503d565b604052919050565b5f6001600160401b038211156150c1576150c161503d565b50601f01601f191660200190565b5f82601f8301126150de575f80fd5b81356150f16150ec826150a9565b615079565b818152846020838601011115615105575f80fd5b816020850160208301375f918101602001919091529392505050565b5f805f60608486031215615133575f80fd5b833561513e81614ff4565b9250602084013561514e81614ff4565b915060408401356001600160401b03811115615168575f80fd5b615174868287016150cf565b9150509250925092565b5f805f60608486031215615190575f80fd5b833561519b81614ff4565b925060208401356151ab81614ff4565b929592945050506040919091013590565b5f602082840312156151cc575f80fd5b813561101981614ff4565b5f80604083850312156151e8575f80fd5b8235915060208301356151fa81614ff4565b809150509250929050565b5f6001600160401b0382111561521d5761521d61503d565b5060051b60200190565b5f82601f830112615236575f80fd5b813560206152466150ec83615205565b82815260059290921b84018101918181019086841115615264575f80fd5b8286015b8481101561527f5780358352918301918301615268565b509695505050505050565b5f82601f830112615299575f80fd5b813560206152a96150ec83615205565b82815260059290921b840181019181810190868411156152c7575f80fd5b8286015b8481101561527f5780356152de81614ff4565b83529183019183016152cb565b5f8083601f8401126152fb575f80fd5b5081356001600160401b03811115615311575f80fd5b6020830191508360208260051b850101111561532b575f80fd5b9250929050565b5f805f805f8060a08789031215615347575f80fd5b86356001600160401b038082111561535d575f80fd5b6153698a838b01615227565b9750602089013591508082111561537e575f80fd5b61538a8a838b0161528a565b9650604089013591508082111561539f575f80fd5b6153ab8a838b0161528a565b955060608901359150808211156153c0575f80fd5b6153cc8a838b0161528a565b945060808901359150808211156153e1575f80fd5b506153ee89828a016152eb565b979a9699509497509295939492505050565b5f8151808452602080850194508084015f5b8381101561542e57815187529582019590820190600101615412565b509495945050505050565b602081525f6110196020830184615400565b5f806040838503121561545c575f80fd5b50508035926020909101359150565b5f602080838503121561547c575f80fd5b82356001600160401b0380821115615492575f80fd5b818501915085601f8301126154a5575f80fd5b81356154b36150ec82615205565b81815260059190911b830184019084810190888311156154d1575f80fd5b8585015b83811015611496578035858111156154eb575f80fd5b860160e0818c03601f19011215615501575f8081fd5b615509615051565b888201358152604061551c818401615008565b8a830152606061552d818501615008565b8284015260809150615540828501615008565b9083015260a0615551848201615008565b8284015260c09150818401358981111561556a575f8081fd5b6155788f8d838801016150cf565b918401919091525060e092909201359181019190915283529186019186016154d5565b5f8083601f8401126155ab575f80fd5b5081356001600160401b038111156155c1575f80fd5b60208301915083602082850101111561532b575f80fd5b5f805f805f805f60c0888a0312156155ee575f80fd5b87356155f981614ff4565b965060208801359550604088013561561081614ff4565b9450606088013593506080880135925060a08801356001600160401b03811115615638575f80fd5b6156448a828b0161559b565b989b979a50959850939692959293505050565b5f805f805f806060878903121561566c575f80fd5b86356001600160401b0380821115615682575f80fd5b61568e8a838b016152eb565b909850965060208901359150808211156156a6575f80fd5b6156b28a838b016152eb565b909650945060408901359150808211156153e1575f80fd5b5f80602083850312156156db575f80fd5b82356001600160401b038111156156f0575f80fd5b6156fc8582860161559b565b90969095509350505050565b5f805f805f805f80610100898b031215615720575f80fd5b883561572b81614ff4565b9750602089013561573b81614ff4565b9650604089013561574b81614ff4565b9550606089013561575b81614ff4565b9450608089013561576b81614ff4565b935060a089013561577b81614ff4565b925060c089013561578b81614ff4565b915060e089013561579b81614ff4565b809150509295985092959890939650565b5f805f80608085870312156157bf575f80fd5b84356157ca81614ff4565b935060208501356157da81614ff4565b92506040850135915060608501356001600160401b038111156157fb575f80fd5b615807878288016150cf565b91505092959194509250565b5f805f805f8060608789031215615828575f80fd5b86356001600160401b038082111561583e575f80fd5b61584a8a838b0161559b565b90985096506020890135915080821115615862575f80fd5b61586e8a838b0161559b565b90965094506040890135915080821115615886575f80fd5b506153ee89828a0161559b565b5f805f805f608086880312156158a7575f80fd5b853594506020860135935060408601356158c081614ff4565b925060608601356001600160401b038111156158da575f80fd5b6158e68882890161559b565b969995985093965092949392505050565b5f805f60608486031215615909575f80fd5b833561591481614ff4565b95602085013595506040909401359392505050565b634e487b7160e01b5f52601160045260245ffd5b81810381811115610db257610db2615929565b600181811c9082168061596457607f821691505b6020821081036123db57634e487b7160e01b5f52602260045260245ffd5b6001600160a01b0385811682528481166020830152831660408201526080606082018190525f906159b590830184614f8c565b9695505050505050565b5f602082840312156159cf575f80fd5b5051919050565b634e487b7160e01b5f52603260045260245ffd5b5f808335601e198436030181126159ff575f80fd5b8301803591506001600160401b03821115615a18575f80fd5b60200191503681900382131561532b575f80fd5b80820180821115610db257610db2615929565b5f60018201615a5057615a50615929565b5060010190565b60c081525f615a6960c0830189615400565b60208301979097525060408101949094526001600160a01b0392831660608501529116608083015260a090910152919050565b5f81615aaa57615aaa615929565b505f190190565b8082028115828204841417610db257610db2615929565b5f82615ae257634e487b7160e01b5f52601260045260245ffd5b500490565b6001600160a01b039687168152948616602086015260408501939093526060840191909152909216608082015290151560a082015260c00190565b5f60208284031215615b32575f80fd5b81518015158114611019575f80fd5b61ffff8281168282160390808211156128be576128be615929565b5f60208284031215615b6c575f80fd5b81516001600160401b03811115615b81575f80fd5b8201601f81018413615b91575f80fd5b8051615b9f6150ec826150a9565b818152856020838501011115615bb3575f80fd5b615bc4826020830160208601614f6a565b95945050505050565b5f8551615bde818460208a01614f6a565b855190830190615bf2818360208a01614f6a565b8551910190615c05818360208901614f6a565b8451910190615c18818360208801614f6a565b019695505050505050565b601f821115610e30575f81815260208120601f850160051c81016020861015615c495750805b601f850160051c820191505b81811015615c6857828155600101615c55565b505050505050565b6001600160401b03831115615c8757615c8761503d565b615c9b83615c958354615950565b83615c23565b5f601f841160018114615ccc575f8515615cb55750838201355b5f19600387901b1c1916600186901b178355612ed5565b5f83815260209020601f19861690835b82811015615cfc5786850135825560209485019460019092019101615cdc565b5086821015615d18575f1960f88860031b161c19848701351681555b505060018560011b0183555050505050565b5f8154615d3681615950565b808552602060018381168015615d535760018114615d6d57615d98565b60ff1985168884015283151560051b880183019550615d98565b865f52825f205f5b85811015615d905781548a8201860152908301908401615d75565b890184019650505b505050505092915050565b606081525f615db56060830186615d2a565b8281036020840152615dc78186615d2a565b905082810360408401526159b58185615d2a565b8781526001600160a01b03878116602083015286811660408301528516606082015260e0608082018190525f90615e1490830186614f8c565b60a08301949094525060c0015295945050505050565b6001600160a01b039384168152919092166020820152604081019190915260600190565b6001600160a01b03858116825284166020820152604081018390526080606082018190525f906159b590830184614f8c565b5f60208284031215615e90575f80fd5b815161101981614f11565b76020b1b1b2b9b9a1b7b73a3937b61d1030b1b1b7bab73a1604d1b81525f8351615ecc816017850160208801614f6a565b7001034b99036b4b9b9b4b733903937b6329607d1b6017918401918201528351615efd816028840160208801614f6a565b01602801949350505050565b5f8251615f1a818460208701614f6a565b919091019291505056feb309c40027c81d382c3b58d8de24207a34b27e1db369b1434e4a11311f154b5e11b468ecf06bc0fc24b28943bae35c968062beaa93da530a0916484cab5fd2446b18946261693dfd6c760d986b28ad2238b5b0267f8e5b6bc40a2f998e2f20acddf252ad1be2c89b69c2b068fc378daa952ba7f163c4a11628f55a4df523b3efb89cdd26cddd51301940bf2715f765b626b8a5a9e2681ac62dc83cc2db2530c0a2646970667358221220dc6d24fcede9b88f06d72bf57c6321a4cd0eb9809e38bed3217fdba429080d4464736f6c63430008150033",
  "linkReferences": {},
  "deployedLinkReferences": {}
}