{
  "_format": "hh-sol-artifact-1",
  "contractName": "PublicLock",
  "sourceName": "contracts/PublicLock.sol",
  "abi": [
    {
      "inputs": [],
      "name": "CANNOT_APPROVE_SELF",
      "type": "error"
    },
    {
      "inputs": [],
      "name": "CANT_BE_SMALLER_THAN_SUPPLY",
      "type": "error"
    },
    {
      "inputs": [],
      "name": "CANT_EXTEND_NON_EXPIRING_KEY",
      "type": "error"
    },
    {
      "inputs": [],
      "name": "GAS_REFUND_FAILED",
      "type": "error"
    },
    {
      "inputs": [],
      "name": "INSUFFICIENT_ERC20_VALUE",
      "type": "error"
    },
    {
      "inputs": [],
      "name": "INSUFFICIENT_VALUE",
      "type": "error"
    },
    {
      "inputs": [],
      "name": "INVALID_ADDRESS",
      "type": "error"
    },
    {
      "inputs": [
        {
          "internalType": "uint8",
          "name": "hookIndex",
          "type": "uint8"
        }
      ],
      "name": "INVALID_HOOK",
      "type": "error"
    },
    {
      "inputs": [],
      "name": "INVALID_LENGTH",
      "type": "error"
    },
    {
      "inputs": [],
      "name": "INVALID_TOKEN",
      "type": "error"
    },
    {
      "inputs": [],
      "name": "KEY_NOT_VALID",
      "type": "error"
    },
    {
      "inputs": [],
      "name": "KEY_TRANSFERS_DISABLED",
      "type": "error"
    },
    {
      "inputs": [],
      "name": "LOCK_HAS_CHANGED",
      "type": "error"
    },
    {
      "inputs": [],
      "name": "LOCK_SOLD_OUT",
      "type": "error"
    },
    {
      "inputs": [],
      "name": "MAX_KEYS_REACHED",
      "type": "error"
    },
    {
      "inputs": [],
      "name": "MIGRATION_REQUIRED",
      "type": "error"
    },
    {
      "inputs": [],
      "name": "NON_COMPLIANT_ERC721_RECEIVER",
      "type": "error"
    },
    {
      "inputs": [],
      "name": "NON_RENEWABLE_LOCK",
      "type": "error"
    },
    {
      "inputs": [],
      "name": "NOT_ENOUGH_FUNDS",
      "type": "error"
    },
    {
      "inputs": [],
      "name": "NOT_ENOUGH_TIME",
      "type": "error"
    },
    {
      "inputs": [],
      "name": "NOT_READY_FOR_RENEWAL",
      "type": "error"
    },
    {
      "inputs": [],
      "name": "NO_SUCH_KEY",
      "type": "error"
    },
    {
      "inputs": [],
      "name": "NULL_VALUE",
      "type": "error"
    },
    {
      "inputs": [],
      "name": "ONLY_KEY_MANAGER_OR_APPROVED",
      "type": "error"
    },
    {
      "inputs": [],
      "name": "ONLY_LOCK_MANAGER",
      "type": "error"
    },
    {
      "inputs": [],
      "name": "ONLY_LOCK_MANAGER_OR_BENEFICIARY",
      "type": "error"
    },
    {
      "inputs": [],
      "name": "ONLY_LOCK_MANAGER_OR_KEY_GRANTER",
      "type": "error"
    },
    {
      "inputs": [],
      "name": "OUT_OF_RANGE",
      "type": "error"
    },
    {
      "inputs": [],
      "name": "OWNER_CANT_BE_ADDRESS_ZERO",
      "type": "error"
    },
    {
      "inputs": [],
      "name": "SCHEMA_VERSION_NOT_CORRECT",
      "type": "error"
    },
    {
      "inputs": [],
      "name": "TRANSFER_TO_SELF",
      "type": "error"
    },
    {
      "inputs": [],
      "name": "UNAUTHORIZED",
      "type": "error"
    },
    {
      "inputs": [],
      "name": "UNAUTHORIZED_KEY_MANAGER_UPDATE",
      "type": "error"
    },
    {
      "anonymous": false,
      "inputs": [
        {
          "indexed": true,
          "internalType": "address",
          "name": "owner",
          "type": "address"
        },
        {
          "indexed": true,
          "internalType": "address",
          "name": "approved",
          "type": "address"
        },
        {
          "indexed": true,
          "internalType": "uint256",
          "name": "tokenId",
          "type": "uint256"
        }
      ],
      "name": "Approval",
      "type": "event"
    },
    {
      "anonymous": false,
      "inputs": [
        {
          "indexed": true,
          "internalType": "address",
          "name": "owner",
          "type": "address"
        },
        {
          "indexed": true,
          "internalType": "address",
          "name": "operator",
          "type": "address"
        },
        {
          "indexed": false,
          "internalType": "bool",
          "name": "approved",
          "type": "bool"
        }
      ],
      "name": "ApprovalForAll",
      "type": "event"
    },
    {
      "anonymous": false,
      "inputs": [
        {
          "indexed": true,
          "internalType": "uint256",
          "name": "tokenId",
          "type": "uint256"
        },
        {
          "indexed": true,
          "internalType": "address",
          "name": "owner",
          "type": "address"
        },
        {
          "indexed": true,
          "internalType": "address",
          "name": "sendTo",
          "type": "address"
        },
        {
          "indexed": false,
          "internalType": "uint256",
          "name": "refund",
          "type": "uint256"
        }
      ],
      "name": "CancelKey",
      "type": "event"
    },
    {
      "anonymous": false,
      "inputs": [
        {
          "indexed": true,
          "internalType": "uint256",
          "name": "_tokenId",
          "type": "uint256"
        },
        {
          "indexed": false,
          "internalType": "uint256",
          "name": "_amount",
          "type": "uint256"
        },
        {
          "indexed": false,
          "internalType": "bool",
          "name": "_timeAdded",
          "type": "bool"
        }
      ],
      "name": "ExpirationChanged",
      "type": "event"
    },
    {
      "anonymous": false,
      "inputs": [
        {
          "indexed": true,
          "internalType": "uint256",
          "name": "tokenId",
          "type": "uint256"
        }
      ],
      "name": "ExpireKey",
      "type": "event"
    },
    {
      "anonymous": false,
      "inputs": [
        {
          "indexed": true,
          "internalType": "address",
          "name": "receiver",
          "type": "address"
        },
        {
          "indexed": false,
          "internalType": "uint256",
          "name": "refundedAmount",
          "type": "uint256"
        },
        {
          "indexed": false,
          "internalType": "address",
          "name": "tokenAddress",
          "type": "address"
        }
      ],
      "name": "GasRefunded",
      "type": "event"
    },
    {
      "anonymous": false,
      "inputs": [
        {
          "indexed": false,
          "internalType": "uint8",
          "name": "version",
          "type": "uint8"
        }
      ],
      "name": "Initialized",
      "type": "event"
    },
    {
      "anonymous": false,
      "inputs": [
        {
          "indexed": true,
          "internalType": "uint256",
          "name": "tokenId",
          "type": "uint256"
        },
        {
          "indexed": false,
          "internalType": "uint256",
          "name": "newTimestamp",
          "type": "uint256"
        }
      ],
      "name": "KeyExtended",
      "type": "event"
    },
    {
      "anonymous": false,
      "inputs": [
        {
          "indexed": true,
          "internalType": "address",
          "name": "account",
          "type": "address"
        }
      ],
      "name": "KeyGranterAdded",
      "type": "event"
    },
    {
      "anonymous": false,
      "inputs": [
        {
          "indexed": true,
          "internalType": "address",
          "name": "account",
          "type": "address"
        }
      ],
      "name": "KeyGranterRemoved",
      "type": "event"
    },
    {
      "anonymous": false,
      "inputs": [
        {
          "indexed": true,
          "internalType": "uint256",
          "name": "_tokenId",
          "type": "uint256"
        },
        {
          "indexed": true,
          "internalType": "address",
          "name": "_newManager",
          "type": "address"
        }
      ],
      "name": "KeyManagerChanged",
      "type": "event"
    },
    {
      "anonymous": false,
      "inputs": [
        {
          "indexed": false,
          "internalType": "uint256",
          "name": "updatedRecordsCount",
          "type": "uint256"
        }
      ],
      "name": "KeysMigrated",
      "type": "event"
    },
    {
      "anonymous": false,
      "inputs": [
        {
          "indexed": true,
          "internalType": "address",
          "name": "account",
          "type": "address"
        }
      ],
      "name": "LockManagerAdded",
      "type": "event"
    },
    {
      "anonymous": false,
      "inputs": [
        {
          "indexed": true,
          "internalType": "address",
          "name": "account",
          "type": "address"
        }
      ],
      "name": "LockManagerRemoved",
      "type": "event"
    },
    {
      "anonymous": false,
      "inputs": [
        {
          "indexed": false,
          "internalType": "string",
          "name": "symbol",
          "type": "string"
        }
      ],
      "name": "NewLockSymbol",
      "type": "event"
    },
    {
      "anonymous": false,
      "inputs": [
        {
          "indexed": false,
          "internalType": "address",
          "name": "previousOwner",
          "type": "address"
        },
        {
          "indexed": false,
          "internalType": "address",
          "name": "newOwner",
          "type": "address"
        }
      ],
      "name": "OwnershipTransferred",
      "type": "event"
    },
    {
      "anonymous": false,
      "inputs": [
        {
          "indexed": false,
          "internalType": "uint256",
          "name": "oldKeyPrice",
          "type": "uint256"
        },
        {
          "indexed": false,
          "internalType": "uint256",
          "name": "keyPrice",
          "type": "uint256"
        },
        {
          "indexed": false,
          "internalType": "address",
          "name": "oldTokenAddress",
          "type": "address"
        },
        {
          "indexed": false,
          "internalType": "address",
          "name": "tokenAddress",
          "type": "address"
        }
      ],
      "name": "PricingChanged",
      "type": "event"
    },
    {
      "anonymous": false,
      "inputs": [
        {
          "indexed": false,
          "internalType": "uint256",
          "name": "freeTrialLength",
          "type": "uint256"
        },
        {
          "indexed": false,
          "internalType": "uint256",
          "name": "refundPenaltyBasisPoints",
          "type": "uint256"
        }
      ],
      "name": "RefundPenaltyChanged",
      "type": "event"
    },
    {
      "anonymous": false,
      "inputs": [
        {
          "indexed": true,
          "internalType": "bytes32",
          "name": "role",
          "type": "bytes32"
        },
        {
          "indexed": true,
          "internalType": "bytes32",
          "name": "previousAdminRole",
          "type": "bytes32"
        },
        {
          "indexed": true,
          "internalType": "bytes32",
          "name": "newAdminRole",
          "type": "bytes32"
        }
      ],
      "name": "RoleAdminChanged",
      "type": "event"
    },
    {
      "anonymous": false,
      "inputs": [
        {
          "indexed": true,
          "internalType": "bytes32",
          "name": "role",
          "type": "bytes32"
        },
        {
          "indexed": true,
          "internalType": "address",
          "name": "account",
          "type": "address"
        },
        {
          "indexed": true,
          "internalType": "address",
          "name": "sender",
          "type": "address"
        }
      ],
      "name": "RoleGranted",
      "type": "event"
    },
    {
      "anonymous": false,
      "inputs": [
        {
          "indexed": true,
          "internalType": "bytes32",
          "name": "role",
          "type": "bytes32"
        },
        {
          "indexed": true,
          "internalType": "address",
          "name": "account",
          "type": "address"
        },
        {
          "indexed": true,
          "internalType": "address",
          "name": "sender",
          "type": "address"
        }
      ],
      "name": "RoleRevoked",
      "type": "event"
    },
    {
      "anonymous": false,
      "inputs": [
        {
          "indexed": true,
          "internalType": "address",
          "name": "from",
          "type": "address"
        },
        {
          "indexed": true,
          "internalType": "address",
          "name": "to",
          "type": "address"
        },
        {
          "indexed": true,
          "internalType": "uint256",
          "name": "tokenId",
          "type": "uint256"
        }
      ],
      "name": "Transfer",
      "type": "event"
    },
    {
      "anonymous": false,
      "inputs": [
        {
          "indexed": false,
          "internalType": "uint256",
          "name": "transferFeeBasisPoints",
          "type": "uint256"
        }
      ],
      "name": "TransferFeeChanged",
      "type": "event"
    },
    {
      "anonymous": false,
      "inputs": [
        {
          "indexed": true,
          "internalType": "address",
          "name": "lockAddress",
          "type": "address"
        },
        {
          "indexed": false,
          "internalType": "address",
          "name": "unlockAddress",
          "type": "address"
        }
      ],
      "name": "UnlockCallFailed",
      "type": "event"
    },
    {
      "anonymous": false,
      "inputs": [
        {
          "indexed": true,
          "internalType": "address",
          "name": "sender",
          "type": "address"
        },
        {
          "indexed": true,
          "internalType": "address",
          "name": "tokenAddress",
          "type": "address"
        },
        {
          "indexed": true,
          "internalType": "address",
          "name": "beneficiary",
          "type": "address"
        },
        {
          "indexed": false,
          "internalType": "uint256",
          "name": "amount",
          "type": "uint256"
        }
      ],
      "name": "Withdrawal",
      "type": "event"
    },
    {
      "inputs": [],
      "name": "DEFAULT_ADMIN_ROLE",
      "outputs": [
        {
          "internalType": "bytes32",
          "name": "",
          "type": "bytes32"
        }
      ],
      "stateMutability": "view",
      "type": "function"
    },
    {
      "inputs": [],
      "name": "KEY_GRANTER_ROLE",
      "outputs": [
        {
          "internalType": "bytes32",
          "name": "",
          "type": "bytes32"
        }
      ],
      "stateMutability": "view",
      "type": "function"
    },
    {
      "inputs": [],
      "name": "LOCK_MANAGER_ROLE",
      "outputs": [
        {
          "internalType": "bytes32",
          "name": "",
          "type": "bytes32"
        }
      ],
      "stateMutability": "view",
      "type": "function"
    },
    {
      "inputs": [
        {
          "internalType": "address",
          "name": "account",
          "type": "address"
        }
      ],
      "name": "addKeyGranter",
      "outputs": [],
      "stateMutability": "nonpayable",
      "type": "function"
    },
    {
      "inputs": [
        {
          "internalType": "address",
          "name": "account",
          "type": "address"
        }
      ],
      "name": "addLockManager",
      "outputs": [],
      "stateMutability": "nonpayable",
      "type": "function"
    },
    {
      "inputs": [
        {
          "internalType": "address",
          "name": "_approved",
          "type": "address"
        },
        {
          "internalType": "uint256",
          "name": "_tokenId",
          "type": "uint256"
        }
      ],
      "name": "approve",
      "outputs": [],
      "stateMutability": "nonpayable",
      "type": "function"
    },
    {
      "inputs": [
        {
          "internalType": "address",
          "name": "_spender",
          "type": "address"
        },
        {
          "internalType": "uint256",
          "name": "_amount",
          "type": "uint256"
        }
      ],
      "name": "approveBeneficiary",
      "outputs": [
        {
          "internalType": "bool",
          "name": "",
          "type": "bool"
        }
      ],
      "stateMutability": "nonpayable",
      "type": "function"
    },
    {
      "inputs": [
        {
          "internalType": "address",
          "name": "_keyOwner",
          "type": "address"
        }
      ],
      "name": "balanceOf",
      "outputs": [
        {
          "internalType": "uint256",
          "name": "balance",
          "type": "uint256"
        }
      ],
      "stateMutability": "view",
      "type": "function"
    },
    {
      "inputs": [],
      "name": "beneficiary",
      "outputs": [
        {
          "internalType": "address payable",
          "name": "",
          "type": "address"
        }
      ],
      "stateMutability": "view",
      "type": "function"
    },
    {
      "inputs": [
        {
          "internalType": "uint256",
          "name": "_tokenId",
          "type": "uint256"
        }
      ],
      "name": "burn",
      "outputs": [],
      "stateMutability": "nonpayable",
      "type": "function"
    },
    {
      "inputs": [
        {
          "internalType": "uint256",
          "name": "_tokenId",
          "type": "uint256"
        }
      ],
      "name": "cancelAndRefund",
      "outputs": [],
      "stateMutability": "nonpayable",
      "type": "function"
    },
    {
      "inputs": [],
      "name": "expirationDuration",
      "outputs": [
        {
          "internalType": "uint256",
          "name": "",
          "type": "uint256"
        }
      ],
      "stateMutability": "view",
      "type": "function"
    },
    {
      "inputs": [
        {
          "internalType": "uint256",
          "name": "_tokenId",
          "type": "uint256"
        },
        {
          "internalType": "uint256",
          "name": "_amount",
          "type": "uint256"
        }
      ],
      "name": "expireAndRefundFor",
      "outputs": [],
      "stateMutability": "nonpayable",
      "type": "function"
    },
    {
      "inputs": [
        {
          "internalType": "uint256",
          "name": "_value",
          "type": "uint256"
        },
        {
          "internalType": "uint256",
          "name": "_tokenId",
          "type": "uint256"
        },
        {
          "internalType": "address",
          "name": "_referrer",
          "type": "address"
        },
        {
          "internalType": "bytes",
          "name": "_data",
          "type": "bytes"
        }
      ],
      "name": "extend",
      "outputs": [],
      "stateMutability": "payable",
      "type": "function"
    },
    {
      "inputs": [],
      "name": "freeTrialLength",
      "outputs": [
        {
          "internalType": "uint256",
          "name": "",
          "type": "uint256"
        }
      ],
      "stateMutability": "view",
      "type": "function"
    },
    {
      "inputs": [],
      "name": "gasRefundValue",
      "outputs": [
        {
          "internalType": "uint256",
          "name": "_refundValue",
          "type": "uint256"
        }
      ],
      "stateMutability": "view",
      "type": "function"
    },
    {
      "inputs": [
        {
          "internalType": "uint256",
          "name": "_tokenId",
          "type": "uint256"
        }
      ],
      "name": "getApproved",
      "outputs": [
        {
          "internalType": "address",
          "name": "",
          "type": "address"
        }
      ],
      "stateMutability": "view",
      "type": "function"
    },
    {
      "inputs": [
        {
          "internalType": "uint256",
          "name": "_tokenId",
          "type": "uint256"
        }
      ],
      "name": "getCancelAndRefundValue",
      "outputs": [
        {
          "internalType": "uint256",
          "name": "refund",
          "type": "uint256"
        }
      ],
      "stateMutability": "view",
      "type": "function"
    },
    {
      "inputs": [
        {
          "internalType": "address",
          "name": "_keyOwner",
          "type": "address"
        }
      ],
      "name": "getHasValidKey",
      "outputs": [
        {
          "internalType": "bool",
          "name": "isValid",
          "type": "bool"
        }
      ],
      "stateMutability": "view",
      "type": "function"
    },
    {
      "inputs": [
        {
          "internalType": "bytes32",
          "name": "role",
          "type": "bytes32"
        }
      ],
      "name": "getRoleAdmin",
      "outputs": [
        {
          "internalType": "bytes32",
          "name": "",
          "type": "bytes32"
        }
      ],
      "stateMutability": "view",
      "type": "function"
    },
    {
      "inputs": [
        {
          "internalType": "uint256",
          "name": "_tokenId",
          "type": "uint256"
        },
        {
          "internalType": "uint256",
          "name": "_time",
          "type": "uint256"
        }
      ],
      "name": "getTransferFee",
      "outputs": [
        {
          "internalType": "uint256",
          "name": "",
          "type": "uint256"
        }
      ],
      "stateMutability": "view",
      "type": "function"
    },
    {
      "inputs": [
        {
          "internalType": "uint256",
          "name": "_tokenId",
          "type": "uint256"
        }
      ],
      "name": "grantKeyExtension",
      "outputs": [],
      "stateMutability": "nonpayable",
      "type": "function"
    },
    {
      "inputs": [
        {
          "internalType": "address[]",
          "name": "_recipients",
          "type": "address[]"
        },
        {
          "internalType": "uint256[]",
          "name": "_expirationTimestamps",
          "type": "uint256[]"
        },
        {
          "internalType": "address[]",
          "name": "_keyManagers",
          "type": "address[]"
        }
      ],
      "name": "grantKeys",
      "outputs": [
        {
          "internalType": "uint256[]",
          "name": "",
          "type": "uint256[]"
        }
      ],
      "stateMutability": "nonpayable",
      "type": "function"
    },
    {
      "inputs": [
        {
          "internalType": "bytes32",
          "name": "role",
          "type": "bytes32"
        },
        {
          "internalType": "address",
          "name": "account",
          "type": "address"
        }
      ],
      "name": "grantRole",
      "outputs": [],
      "stateMutability": "nonpayable",
      "type": "function"
    },
    {
      "inputs": [
        {
          "internalType": "bytes32",
          "name": "role",
          "type": "bytes32"
        },
        {
          "internalType": "address",
          "name": "account",
          "type": "address"
        }
      ],
      "name": "hasRole",
      "outputs": [
        {
          "internalType": "bool",
          "name": "",
          "type": "bool"
        }
      ],
      "stateMutability": "view",
      "type": "function"
    },
    {
      "inputs": [
        {
          "internalType": "address payable",
          "name": "_lockCreator",
          "type": "address"
        },
        {
          "internalType": "uint256",
          "name": "_expirationDuration",
          "type": "uint256"
        },
        {
          "internalType": "address",
          "name": "_tokenAddress",
          "type": "address"
        },
        {
          "internalType": "uint256",
          "name": "_keyPrice",
          "type": "uint256"
        },
        {
          "internalType": "uint256",
          "name": "_maxNumberOfKeys",
          "type": "uint256"
        },
        {
          "internalType": "string",
          "name": "_lockName",
          "type": "string"
        }
      ],
      "name": "initialize",
      "outputs": [],
      "stateMutability": "nonpayable",
      "type": "function"
    },
    {
      "inputs": [
        {
          "internalType": "address",
          "name": "_owner",
          "type": "address"
        },
        {
          "internalType": "address",
          "name": "_operator",
          "type": "address"
        }
      ],
      "name": "isApprovedForAll",
      "outputs": [
        {
          "internalType": "bool",
          "name": "",
          "type": "bool"
        }
      ],
      "stateMutability": "view",
      "type": "function"
    },
    {
      "inputs": [
        {
          "internalType": "address",
          "name": "account",
          "type": "address"
        }
      ],
      "name": "isKeyGranter",
      "outputs": [
        {
          "internalType": "bool",
          "name": "",
          "type": "bool"
        }
      ],
      "stateMutability": "view",
      "type": "function"
    },
    {
      "inputs": [
        {
          "internalType": "address",
          "name": "account",
          "type": "address"
        }
      ],
      "name": "isLockManager",
      "outputs": [
        {
          "internalType": "bool",
          "name": "",
          "type": "bool"
        }
      ],
      "stateMutability": "view",
      "type": "function"
    },
    {
      "inputs": [
        {
          "internalType": "address",
          "name": "account",
          "type": "address"
        }
      ],
      "name": "isOwner",
      "outputs": [
        {
          "internalType": "bool",
          "name": "",
          "type": "bool"
        }
      ],
      "stateMutability": "view",
      "type": "function"
    },
    {
      "inputs": [
        {
          "internalType": "uint256",
          "name": "_tokenId",
          "type": "uint256"
        }
      ],
      "name": "isValidKey",
      "outputs": [
        {
          "internalType": "bool",
          "name": "",
          "type": "bool"
        }
      ],
      "stateMutability": "view",
      "type": "function"
    },
    {
      "inputs": [
        {
          "internalType": "uint256",
          "name": "_tokenId",
          "type": "uint256"
        }
      ],
      "name": "keyExpirationTimestampFor",
      "outputs": [
        {
          "internalType": "uint256",
          "name": "",
          "type": "uint256"
        }
      ],
      "stateMutability": "view",
      "type": "function"
    },
    {
      "inputs": [
        {
          "internalType": "uint256",
          "name": "",
          "type": "uint256"
        }
      ],
      "name": "keyManagerOf",
      "outputs": [
        {
          "internalType": "address",
          "name": "",
          "type": "address"
        }
      ],
      "stateMutability": "view",
      "type": "function"
    },
    {
      "inputs": [],
      "name": "keyPrice",
      "outputs": [
        {
          "internalType": "uint256",
          "name": "",
          "type": "uint256"
        }
      ],
      "stateMutability": "view",
      "type": "function"
    },
    {
      "inputs": [
        {
          "internalType": "address",
          "name": "_from",
          "type": "address"
        },
        {
          "internalType": "address",
          "name": "_recipient",
          "type": "address"
        },
        {
          "internalType": "uint256",
          "name": "_tokenId",
          "type": "uint256"
        }
      ],
      "name": "lendKey",
      "outputs": [],
      "stateMutability": "nonpayable",
      "type": "function"
    },
    {
      "inputs": [],
      "name": "maxKeysPerAddress",
      "outputs": [
        {
          "internalType": "uint256",
          "name": "",
          "type": "uint256"
        }
      ],
      "stateMutability": "view",
      "type": "function"
    },
    {
      "inputs": [],
      "name": "maxNumberOfKeys",
      "outputs": [
        {
          "internalType": "uint256",
          "name": "",
          "type": "uint256"
        }
      ],
      "stateMutability": "view",
      "type": "function"
    },
    {
      "inputs": [
        {
          "internalType": "uint256",
          "name": "_tokenIdFrom",
          "type": "uint256"
        },
        {
          "internalType": "uint256",
          "name": "_tokenIdTo",
          "type": "uint256"
        },
        {
          "internalType": "uint256",
          "name": "_amount",
          "type": "uint256"
        }
      ],
      "name": "mergeKeys",
      "outputs": [],
      "stateMutability": "nonpayable",
      "type": "function"
    },
    {
      "inputs": [
        {
          "internalType": "bytes",
          "name": "",
          "type": "bytes"
        }
      ],
      "name": "migrate",
      "outputs": [],
      "stateMutability": "nonpayable",
      "type": "function"
    },
    {
      "inputs": [],
      "name": "name",
      "outputs": [
        {
          "internalType": "string",
          "name": "",
          "type": "string"
        }
      ],
      "stateMutability": "view",
      "type": "function"
    },
    {
      "inputs": [],
      "name": "numberOfOwners",
      "outputs": [
        {
          "internalType": "uint256",
          "name": "",
          "type": "uint256"
        }
      ],
      "stateMutability": "view",
      "type": "function"
    },
    {
      "inputs": [],
      "name": "onKeyCancelHook",
      "outputs": [
        {
          "internalType": "contract ILockKeyCancelHook",
          "name": "",
          "type": "address"
        }
      ],
      "stateMutability": "view",
      "type": "function"
    },
    {
      "inputs": [],
      "name": "onKeyPurchaseHook",
      "outputs": [
        {
          "internalType": "contract ILockKeyPurchaseHook",
          "name": "",
          "type": "address"
        }
      ],
      "stateMutability": "view",
      "type": "function"
    },
    {
      "inputs": [],
      "name": "onKeyTransferHook",
      "outputs": [
        {
          "internalType": "contract ILockKeyTransferHook",
          "name": "",
          "type": "address"
        }
      ],
      "stateMutability": "view",
      "type": "function"
    },
    {
      "inputs": [],
      "name": "onTokenURIHook",
      "outputs": [
        {
          "internalType": "contract ILockTokenURIHook",
          "name": "",
          "type": "address"
        }
      ],
      "stateMutability": "view",
      "type": "function"
    },
    {
      "inputs": [],
      "name": "onValidKeyHook",
      "outputs": [
        {
          "internalType": "contract ILockValidKeyHook",
          "name": "",
          "type": "address"
        }
      ],
      "stateMutability": "view",
      "type": "function"
    },
    {
      "inputs": [],
      "name": "owner",
      "outputs": [
        {
          "internalType": "address",
          "name": "",
          "type": "address"
        }
      ],
      "stateMutability": "view",
      "type": "function"
    },
    {
      "inputs": [
        {
          "internalType": "uint256",
          "name": "_tokenId",
          "type": "uint256"
        }
      ],
      "name": "ownerOf",
      "outputs": [
        {
          "internalType": "address",
          "name": "",
          "type": "address"
        }
      ],
      "stateMutability": "view",
      "type": "function"
    },
    {
      "inputs": [],
      "name": "publicLockVersion",
      "outputs": [
        {
          "internalType": "uint16",
          "name": "",
          "type": "uint16"
        }
      ],
      "stateMutability": "pure",
      "type": "function"
    },
    {
      "inputs": [
        {
          "internalType": "uint256[]",
          "name": "_values",
          "type": "uint256[]"
        },
        {
          "internalType": "address[]",
          "name": "_recipients",
          "type": "address[]"
        },
        {
          "internalType": "address[]",
          "name": "_referrers",
          "type": "address[]"
        },
        {
          "internalType": "address[]",
          "name": "_keyManagers",
          "type": "address[]"
        },
        {
          "internalType": "bytes[]",
          "name": "_data",
          "type": "bytes[]"
        }
      ],
      "name": "purchase",
      "outputs": [
        {
          "internalType": "uint256[]",
          "name": "",
          "type": "uint256[]"
        }
      ],
      "stateMutability": "payable",
      "type": "function"
    },
    {
      "inputs": [
        {
          "internalType": "address",
          "name": "_recipient",
          "type": "address"
        },
        {
          "internalType": "address",
          "name": "_referrer",
          "type": "address"
        },
        {
          "internalType": "bytes",
          "name": "_data",
          "type": "bytes"
        }
      ],
      "name": "purchasePriceFor",
      "outputs": [
        {
          "internalType": "uint256",
          "name": "minKeyPrice",
          "type": "uint256"
        }
      ],
      "stateMutability": "view",
      "type": "function"
    },
    {
      "inputs": [
        {
          "internalType": "address",
          "name": "",
          "type": "address"
        }
      ],
      "name": "referrerFees",
      "outputs": [
        {
          "internalType": "uint256",
          "name": "",
          "type": "uint256"
        }
      ],
      "stateMutability": "view",
      "type": "function"
    },
    {
      "inputs": [],
      "name": "refundPenaltyBasisPoints",
      "outputs": [
        {
          "internalType": "uint256",
          "name": "",
          "type": "uint256"
        }
      ],
      "stateMutability": "view",
      "type": "function"
    },
    {
      "inputs": [
        {
          "internalType": "uint256",
          "name": "_tokenId",
          "type": "uint256"
        },
        {
          "internalType": "address",
          "name": "_referrer",
          "type": "address"
        }
      ],
      "name": "renewMembershipFor",
      "outputs": [],
      "stateMutability": "nonpayable",
      "type": "function"
    },
    {
      "inputs": [],
      "name": "renounceLockManager",
      "outputs": [],
      "stateMutability": "nonpayable",
      "type": "function"
    },
    {
      "inputs": [
        {
          "internalType": "bytes32",
          "name": "role",
          "type": "bytes32"
        },
        {
          "internalType": "address",
          "name": "account",
          "type": "address"
        }
      ],
      "name": "renounceRole",
      "outputs": [],
      "stateMutability": "nonpayable",
      "type": "function"
    },
    {
      "inputs": [
        {
          "internalType": "address",
          "name": "_granter",
          "type": "address"
        }
      ],
      "name": "revokeKeyGranter",
      "outputs": [],
      "stateMutability": "nonpayable",
      "type": "function"
    },
    {
      "inputs": [
        {
          "internalType": "bytes32",
          "name": "role",
          "type": "bytes32"
        },
        {
          "internalType": "address",
          "name": "account",
          "type": "address"
        }
      ],
      "name": "revokeRole",
      "outputs": [],
      "stateMutability": "nonpayable",
      "type": "function"
    },
    {
      "inputs": [
        {
          "internalType": "address",
          "name": "_from",
          "type": "address"
        },
        {
          "internalType": "address",
          "name": "_to",
          "type": "address"
        },
        {
          "internalType": "uint256",
          "name": "_tokenId",
          "type": "uint256"
        }
      ],
      "name": "safeTransferFrom",
      "outputs": [],
      "stateMutability": "nonpayable",
      "type": "function"
    },
    {
      "inputs": [
        {
          "internalType": "address",
          "name": "_from",
          "type": "address"
        },
        {
          "internalType": "address",
          "name": "_to",
          "type": "address"
        },
        {
          "internalType": "uint256",
          "name": "_tokenId",
          "type": "uint256"
        },
        {
          "internalType": "bytes",
          "name": "_data",
          "type": "bytes"
        }
      ],
      "name": "safeTransferFrom",
      "outputs": [],
      "stateMutability": "nonpayable",
      "type": "function"
    },
    {
      "inputs": [],
      "name": "schemaVersion",
      "outputs": [
        {
          "internalType": "uint256",
          "name": "",
          "type": "uint256"
        }
      ],
      "stateMutability": "view",
      "type": "function"
    },
    {
      "inputs": [
        {
          "internalType": "address",
          "name": "_to",
          "type": "address"
        },
        {
          "internalType": "bool",
          "name": "_approved",
          "type": "bool"
        }
      ],
      "name": "setApprovalForAll",
      "outputs": [],
      "stateMutability": "nonpayable",
      "type": "function"
    },
    {
      "inputs": [
        {
          "internalType": "string",
          "name": "_baseTokenURI",
          "type": "string"
        }
      ],
      "name": "setBaseTokenURI",
      "outputs": [],
      "stateMutability": "nonpayable",
      "type": "function"
    },
    {
      "inputs": [
        {
          "internalType": "address",
          "name": "_onKeyPurchaseHook",
          "type": "address"
        },
        {
          "internalType": "address",
          "name": "_onKeyCancelHook",
          "type": "address"
        },
        {
          "internalType": "address",
          "name": "_onValidKeyHook",
          "type": "address"
        },
        {
          "internalType": "address",
          "name": "_onTokenURIHook",
          "type": "address"
        },
        {
          "internalType": "address",
          "name": "_onKeyTransferHook",
          "type": "address"
        }
      ],
      "name": "setEventHooks",
      "outputs": [],
      "stateMutability": "nonpayable",
      "type": "function"
    },
    {
      "inputs": [
        {
          "internalType": "uint256",
          "name": "_newExpirationDuration",
          "type": "uint256"
        }
      ],
      "name": "setExpirationDuration",
      "outputs": [],
      "stateMutability": "nonpayable",
      "type": "function"
    },
    {
      "inputs": [
        {
          "internalType": "uint256",
          "name": "_refundValue",
          "type": "uint256"
        }
      ],
      "name": "setGasRefundValue",
      "outputs": [],
      "stateMutability": "nonpayable",
      "type": "function"
    },
    {
      "inputs": [
        {
          "internalType": "uint256",
          "name": "_tokenId",
          "type": "uint256"
        },
        {
          "internalType": "address",
          "name": "_keyManager",
          "type": "address"
        }
      ],
      "name": "setKeyManagerOf",
      "outputs": [],
      "stateMutability": "nonpayable",
      "type": "function"
    },
    {
      "inputs": [
        {
          "internalType": "uint256",
          "name": "_maxKeys",
          "type": "uint256"
        }
      ],
      "name": "setMaxKeysPerAddress",
      "outputs": [],
      "stateMutability": "nonpayable",
      "type": "function"
    },
    {
      "inputs": [
        {
          "internalType": "uint256",
          "name": "_maxNumberOfKeys",
          "type": "uint256"
        }
      ],
      "name": "setMaxNumberOfKeys",
      "outputs": [],
      "stateMutability": "nonpayable",
      "type": "function"
    },
    {
      "inputs": [
        {
          "internalType": "address",
          "name": "account",
          "type": "address"
        }
      ],
      "name": "setOwner",
      "outputs": [],
      "stateMutability": "nonpayable",
      "type": "function"
    },
    {
      "inputs": [
        {
          "internalType": "address",
          "name": "_referrer",
          "type": "address"
        },
        {
          "internalType": "uint256",
          "name": "_feeBasisPoint",
          "type": "uint256"
        }
      ],
      "name": "setReferrerFee",
      "outputs": [],
      "stateMutability": "nonpayable",
      "type": "function"
    },
    {
      "inputs": [
        {
          "internalType": "address",
          "name": "_to",
          "type": "address"
        },
        {
          "internalType": "uint256",
          "name": "_tokenIdFrom",
          "type": "uint256"
        },
        {
          "internalType": "uint256",
          "name": "_timeShared",
          "type": "uint256"
        }
      ],
      "name": "shareKey",
      "outputs": [],
      "stateMutability": "nonpayable",
      "type": "function"
    },
    {
      "inputs": [
        {
          "internalType": "bytes4",
          "name": "interfaceId",
          "type": "bytes4"
        }
      ],
      "name": "supportsInterface",
      "outputs": [
        {
          "internalType": "bool",
          "name": "",
          "type": "bool"
        }
      ],
      "stateMutability": "view",
      "type": "function"
    },
    {
      "inputs": [],
      "name": "symbol",
      "outputs": [
        {
          "internalType": "string",
          "name": "",
          "type": "string"
        }
      ],
      "stateMutability": "view",
      "type": "function"
    },
    {
      "inputs": [],
      "name": "tokenAddress",
      "outputs": [
        {
          "internalType": "address",
          "name": "",
          "type": "address"
        }
      ],
      "stateMutability": "view",
      "type": "function"
    },
    {
      "inputs": [
        {
          "internalType": "uint256",
          "name": "_index",
          "type": "uint256"
        }
      ],
      "name": "tokenByIndex",
      "outputs": [
        {
          "internalType": "uint256",
          "name": "",
          "type": "uint256"
        }
      ],
      "stateMutability": "view",
      "type": "function"
    },
    {
      "inputs": [
        {
          "internalType": "address",
          "name": "_keyOwner",
          "type": "address"
        },
        {
          "internalType": "uint256",
          "name": "_index",
          "type": "uint256"
        }
      ],
      "name": "tokenOfOwnerByIndex",
      "outputs": [
        {
          "internalType": "uint256",
          "name": "",
          "type": "uint256"
        }
      ],
      "stateMutability": "view",
      "type": "function"
    },
    {
      "inputs": [
        {
          "internalType": "uint256",
          "name": "_tokenId",
          "type": "uint256"
        }
      ],
      "name": "tokenURI",
      "outputs": [
        {
          "internalType": "string",
          "name": "",
          "type": "string"
        }
      ],
      "stateMutability": "view",
      "type": "function"
    },
    {
      "inputs": [
        {
          "internalType": "address",
          "name": "_keyOwner",
          "type": "address"
        }
      ],
      "name": "totalKeys",
      "outputs": [
        {
          "internalType": "uint256",
          "name": "",
          "type": "uint256"
        }
      ],
      "stateMutability": "view",
      "type": "function"
    },
    {
      "inputs": [],
      "name": "totalSupply",
      "outputs": [
        {
          "internalType": "uint256",
          "name": "",
          "type": "uint256"
        }
      ],
      "stateMutability": "view",
      "type": "function"
    },
    {
      "inputs": [
        {
          "internalType": "uint256",
          "name": "_tokenId",
          "type": "uint256"
        },
        {
          "internalType": "address",
          "name": "_to",
          "type": "address"
        },
        {
          "internalType": "uint256",
          "name": "_valueBasisPoint",
          "type": "uint256"
        }
      ],
      "name": "transfer",
      "outputs": [
        {
          "internalType": "bool",
          "name": "success",
          "type": "bool"
        }
      ],
      "stateMutability": "nonpayable",
      "type": "function"
    },
    {
      "inputs": [],
      "name": "transferFeeBasisPoints",
      "outputs": [
        {
          "internalType": "uint256",
          "name": "",
          "type": "uint256"
        }
      ],
      "stateMutability": "view",
      "type": "function"
    },
    {
      "inputs": [
        {
          "internalType": "address",
          "name": "_from",
          "type": "address"
        },
        {
          "internalType": "address",
          "name": "_recipient",
          "type": "address"
        },
        {
          "internalType": "uint256",
          "name": "_tokenId",
          "type": "uint256"
        }
      ],
      "name": "transferFrom",
      "outputs": [],
      "stateMutability": "nonpayable",
      "type": "function"
    },
    {
      "inputs": [
        {
          "internalType": "address",
          "name": "_recipient",
          "type": "address"
        },
        {
          "internalType": "uint256",
          "name": "_tokenId",
          "type": "uint256"
        }
      ],
      "name": "unlendKey",
      "outputs": [],
      "stateMutability": "nonpayable",
      "type": "function"
    },
    {
      "inputs": [],
      "name": "unlockProtocol",
      "outputs": [
        {
          "internalType": "contract IUnlock",
          "name": "",
          "type": "address"
        }
      ],
      "stateMutability": "view",
      "type": "function"
    },
    {
      "inputs": [
        {
          "internalType": "address payable",
          "name": "_beneficiary",
          "type": "address"
        }
      ],
      "name": "updateBeneficiary",
      "outputs": [],
      "stateMutability": "nonpayable",
      "type": "function"
    },
    {
      "inputs": [
        {
          "internalType": "uint256",
          "name": "_keyPrice",
          "type": "uint256"
        },
        {
          "internalType": "address",
          "name": "_tokenAddress",
          "type": "address"
        }
      ],
      "name": "updateKeyPricing",
      "outputs": [],
      "stateMutability": "nonpayable",
      "type": "function"
    },
    {
      "inputs": [
        {
          "internalType": "string",
          "name": "_lockName",
          "type": "string"
        }
      ],
      "name": "updateLockName",
      "outputs": [],
      "stateMutability": "nonpayable",
      "type": "function"
    },
    {
      "inputs": [
        {
          "internalType": "string",
          "name": "_lockSymbol",
          "type": "string"
        }
      ],
      "name": "updateLockSymbol",
      "outputs": [],
      "stateMutability": "nonpayable",
      "type": "function"
    },
    {
      "inputs": [
        {
          "internalType": "uint256",
          "name": "_freeTrialLength",
          "type": "uint256"
        },
        {
          "internalType": "uint256",
          "name": "_refundPenaltyBasisPoints",
          "type": "uint256"
        }
      ],
      "name": "updateRefundPenalty",
      "outputs": [],
      "stateMutability": "nonpayable",
      "type": "function"
    },
    {
      "inputs": [],
      "name": "updateSchemaVersion",
      "outputs": [],
      "stateMutability": "nonpayable",
      "type": "function"
    },
    {
      "inputs": [
        {
          "internalType": "uint256",
          "name": "_transferFeeBasisPoints",
          "type": "uint256"
        }
      ],
      "name": "updateTransferFee",
      "outputs": [],
      "stateMutability": "nonpayable",
      "type": "function"
    },
    {
      "inputs": [
        {
          "internalType": "address",
          "name": "_tokenAddress",
          "type": "address"
        },
        {
          "internalType": "uint256",
          "name": "_amount",
          "type": "uint256"
        }
      ],
      "name": "withdraw",
      "outputs": [],
      "stateMutability": "nonpayable",
      "type": "function"
    },
    {
      "stateMutability": "payable",
      "type": "receive"
    }
  ],
  "bytecode": "0x608060405234801561001057600080fd5b50615e4c80620000216000396000f3fe6080604052600436106104d65760003560e01c80636352211e11610287578063a98d362311610165578063d32bfb6c116100cc578063f0ba604011610085578063f0ba604014610fe2578063f12c6b6e14610ff7578063f32e8b2414611017578063f3fef3a31461102c578063f5766b391461104c578063f8548e361461106c57600080fd5b8063d32bfb6c14610f39578063d52e4a1014610f59578063d547741f14610f6f578063d813cc1914610f8f578063debe2b0d14610fa2578063e985e9c514610fc257600080fd5b8063b88d4fde1161011e578063b88d4fde14610e6f578063bf4a927014610e8f578063c23135dd14610eaf578063c87b56dd14610edd578063d1bbd49c14610efd578063d250348514610f1957600080fd5b8063a98d362314610d9c578063aae4b8f714610dcf578063b11d7ec114610def578063b1a3b25d14610e0f578063b506be2f14610e2f578063b585a6d514610e4f57600080fd5b80638932a90d1161020957806395d89b41116101c257806395d89b4114610cfa5780639d76ea5814610d0f578063a217fddf14610d30578063a22cb46514610d45578063a2e4cd2e14610d65578063a375cb0514610d8557600080fd5b80638932a90d14610c3d5780638ca2fbad14610c625780638da5cb5b14610c8457806391d1485414610ca357806392ac98a514610cc357806393fd184414610ce357600080fd5b80636352211e14610ae55780636d8ea5b414610b055780636eadde4314610b2557806370a0823114610b4557806374b6c10614610b65578063782a4ade14610b7c5780637ec2a72414610b9c578063812eecd414610bbd57806381a3c94314610bdd5780638505fe9514610bfd5780638577a6d514610c1d57600080fd5b80632f745c59116103b457806342966c6811610336578063550ef3a8116102ef578063550ef3a814610a38578063558b71e914610a58578063564aa99d14610a7857806356e0d51f14610a985780636207a8da14610aaf578063626485a314610ac557600080fd5b806342966c68146109595780634d025fed146109795780634e2ce6d3146109b05780634f6ccce7146109c757806352b0f638146109e757806354b249fb14610a0757600080fd5b80632f745c59146107f757806330176e131461081757806331159a1714610837578063338189971461085757806336568abe14610877578063389f07e81461089757806338af3eed146108b85780633916c781146108d957806339f46986146108f9578063407dc5891461091957806342842e0e1461093957600080fd5b806313af403511610458578063248a9ca311610411578063248a9ca31461071557806326e9ca07146107455780632af9162a146107665780632d33dd5b146107865780632f2ff15d146107a75780632f54bf6e146107c757600080fd5b806313af40351461066557806318160ddd14610685578063183767da1461069b578063217751bc146106b257806323100509146106d357806323b872dd146106f557600080fd5b806301ffc9a7146104e2578063068208cd1461051757806306fdde0314610539578063081812fc1461055b578063095ea7b314610588578063097ba333146105a85780630aaffd2a146105d65780630c2db8d1146105f65780630f15023b1461061657806310e569731461063757806311a4c03a1461064e57600080fd5b366104dd57005b600080fd5b3480156104ee57600080fd5b506105026104fd366004615051565b61108c565b60405190151581526020015b60405180910390f35b34801561052357600080fd5b5061053761053236600461506e565b61109d565b005b34801561054557600080fd5b5061054e61111c565b60405161050e91906150f2565b34801561056757600080fd5b5061057b610576366004615105565b6111ab565b60405161050e919061511e565b34801561059457600080fd5b506105376105a3366004615147565b6111d3565b3480156105b457600080fd5b506105c86105c3366004615236565b61126e565b60405190815260200161050e565b3480156105e257600080fd5b506105376105f1366004615297565b61130f565b34801561060257600080fd5b506105376106113660046152b4565b611361565b34801561062257600080fd5b50610c835461057b906001600160a01b031681565b34801561064357600080fd5b506105c8610c855481565b34801561065a57600080fd5b506105c8610c845481565b34801561067157600080fd5b50610537610680366004615297565b6113b6565b34801561069157600080fd5b50610c87546105c8565b3480156106a757600080fd5b506105c86124075481565b3480156106be57600080fd5b50610c8a5461057b906001600160a01b031681565b3480156106df57600080fd5b506105c8600080516020615db783398151915281565b34801561070157600080fd5b506105376107103660046152b4565b611448565b34801561072157600080fd5b506105c8610730366004615105565b60009081526097602052604090206001015490565b34801561075157600080fd5b50610c8b5461057b906001600160a01b031681565b34801561077257600080fd5b50610537610781366004615297565b611482565b34801561079257600080fd5b50610c895461057b906001600160a01b031681565b3480156107b357600080fd5b506105376107c23660046152f5565b6114d9565b3480156107d357600080fd5b506105026107e2366004615297565b612bda546001600160a01b0390811691161490565b34801561080357600080fd5b506105c8610812366004615147565b6114fe565b34801561082357600080fd5b5061053761083236600461536d565b611552565b34801561084357600080fd5b50610537610852366004615105565b611567565b61086a6108653660046154df565b611596565b60405161050e91906155b6565b34801561088357600080fd5b506105376108923660046152f5565b611a7c565b3480156108a357600080fd5b50610c8f5461057b906001600160a01b031681565b3480156108c457600080fd5b50610c885461057b906001600160a01b031681565b3480156108e557600080fd5b506105376108f43660046155fa565b611aff565b34801561090557600080fd5b5061053761091436600461566b565b611cd3565b34801561092557600080fd5b50610537610934366004615147565b611d21565b34801561094557600080fd5b506105376109543660046152b4565b611d75565b34801561096557600080fd5b50610537610974366004615105565b611d90565b34801561098557600080fd5b5061057b610994366004615105565b611078602052600090815260409020546001600160a01b031681565b3480156109bc57600080fd5b506105c8610c8d5481565b3480156109d357600080fd5b506105c86109e2366004615105565b611de1565b3480156109f357600080fd5b50610502610a02366004615297565b611e0a565b348015610a1357600080fd5b506105c8610a22366004615105565b600090815261107b602052604090206001015490565b348015610a4457600080fd5b50610537610a5336600461536d565b611e24565b348015610a6457600080fd5b50610537610a7336600461566b565b611e39565b348015610a8457600080fd5b50610537610a93366004615297565b611e5d565b348015610aa457600080fd5b506105c86127f05481565b348015610abb57600080fd5b5061201e546105c8565b348015610ad157600080fd5b50610537610ae0366004615105565b611eb4565b348015610af157600080fd5b5061057b610b00366004615105565b611ec2565b348015610b1157600080fd5b50610502610b20366004615297565b611ede565b348015610b3157600080fd5b50610537610b4036600461568d565b611fcc565b348015610b5157600080fd5b506105c8610b60366004615297565b6120e5565b348015610b7157600080fd5b506105c8610c865481565b348015610b8857600080fd5b50610537610b9736600461536d565b612137565b348015610ba857600080fd5b50610c8c5461057b906001600160a01b031681565b348015610bc957600080fd5b506105c8610bd8366004615297565b61217e565b348015610be957600080fd5b5061086a610bf8366004615712565b6121c4565b348015610c0957600080fd5b50610537610c183660046152f5565b612303565b348015610c2957600080fd5b50610537610c38366004615105565b6124d8565b348015610c4957600080fd5b50610537610c5836600461536d565b5050600b610c8d55565b348015610c6e57600080fd5b506105c8600080516020615df783398151915281565b348015610c9057600080fd5b50612bda546001600160a01b031661057b565b348015610caf57600080fd5b50610502610cbe3660046152f5565b612519565b348015610ccf57600080fd5b506105c8610cde366004615105565b612544565b348015610cef57600080fd5b506105c86110775481565b348015610d0657600080fd5b5061054e612631565b348015610d1b57600080fd5b506104b15461057b906001600160a01b031681565b348015610d3c57600080fd5b506105c8600081565b348015610d5157600080fd5b50610537610d6036600461579a565b61275c565b348015610d7157600080fd5b50610537610d803660046152f5565b612817565b348015610d9157600080fd5b506105c86127f15481565b348015610da857600080fd5b50610502610db7366004615105565b600090815261107b6020526040902060010154421090565b348015610ddb57600080fd5b50610502610dea366004615297565b6128a5565b348015610dfb57600080fd5b50610537610e0a3660046152f5565b6128bf565b348015610e1b57600080fd5b506105c8610e2a36600461566b565b61290d565b348015610e3b57600080fd5b50610537610e4a366004615105565b612980565b348015610e5b57600080fd5b50610502610e6a366004615147565b6129d4565b348015610e7b57600080fd5b50610537610e8a3660046157c8565b612a54565b348015610e9b57600080fd5b50610537610eaa366004615105565b612a88565b348015610ebb57600080fd5b506105c8610eca366004615297565b6120226020526000908152604090205481565b348015610ee957600080fd5b5061054e610ef8366004615105565b612aba565b348015610f0957600080fd5b50604051600b815260200161050e565b348015610f2557600080fd5b50610537610f34366004615297565b612d4c565b348015610f4557600080fd5b50610537610f54366004615105565b612da3565b348015610f6557600080fd5b50610c8e546105c8565b348015610f7b57600080fd5b50610537610f8a3660046152f5565b612dd5565b610537610f9d366004615833565b612dfa565b348015610fae57600080fd5b50610537610fbd366004615147565b613008565b348015610fce57600080fd5b50610502610fdd36600461589c565b61302d565b348015610fee57600080fd5b5061053761305c565b34801561100357600080fd5b506105376110123660046158ca565b6130a1565b34801561102357600080fd5b5061053761325d565b34801561103857600080fd5b50610537611047366004615147565b61326d565b34801561105857600080fd5b50610537611067366004615105565b61339b565b34801561107857600080fd5b506105026110873660046158ff565b6133a9565b60006110978261340b565b92915050565b6110a683613416565b6110af83613448565b6110b88361347a565b6110c182613416565b600083815261107b60205260409020600101546110df90429061593c565b8111156110ff576040516310e88eed60e31b815260040160405180910390fd5b61110b83826000613532565b61111782826001613532565b505050565b611463805461112a90615953565b80601f016020809104026020016040519081016040528092919081815260200182805461115690615953565b80156111a35780601f10611178576101008083540402835291602001916111a3565b820191906000526020600020905b81548152906001019060200180831161118657829003601f168201915b505050505081565b60006111b682613416565b50600090815261107960205260409020546001600160a01b031690565b6111dc8161347a565b6001600160a01b038216330361120557604051637899146560e11b815260040160405180910390fd5b60008181526110796020908152604080832080546001600160a01b0319166001600160a01b03878116918217909255611076909352818420549151859492909116917f8c5be1e5ebec7d5bd14f71427d1e84f3dd0314c0f7b2291e5b200ac8c7c3b92591a45050565b610c89546000906001600160a01b03161561130257610c895460405163221c1fd160e01b81526001600160a01b039091169063221c1fd1906112ba903390889088908890600401615987565b602060405180830381865afa1580156112d7573d6000803e3d6000fd5b505050506040513d601f19601f820116820180604052508101906112fb91906159bb565b9050611308565b50610c85545b9392505050565b6113176135e8565b6001600160a01b03811661133e57604051635963709b60e01b815260040160405180910390fd5b610c8880546001600160a01b0319166001600160a01b0392909216919091179055565b61136b813361362a565b6113885760405163075fd2b160e01b815260040160405180910390fd5b6113938383836136a2565b60009081526110786020526040902080546001600160a01b031916331790555050565b6113be6138a5565b6001600160a01b0381166113e5576040516330c6e09f60e21b815260040160405180910390fd5b612bda80546001600160a01b038381166001600160a01b031983168117909355604080519190921680825260208201939093527f8be0079c531659141344cd1fd0a4f28419497f9722a3daafe3b4186f6b6457e091015b60405180910390a15050565b61145181613448565b61145a8161347a565b60008181526110786020526040902080546001600160a01b03191690556111178383836136a2565b61148a6138a5565b6114a2600080516020615db783398151915282612dd5565b6040516001600160a01b038216907f766f6199fea59554b9ff688e413302b9200f85d74811c053c12d945ac6d8dd7a90600090a250565b6000828152609760205260409020600101546114f4816138da565b61111783836138e4565b60006115098361217e565b821061152857604051630471175760e11b815260040160405180910390fd5b506001600160a01b0391909116600090815261107c60209081526040808320938352929052205490565b61155a6138a5565b6111176114658383614fab565b61156f6138a5565b806000036115905760405163e03b033d60e01b815260040160405180910390fd5b610c8e55565b60606115a061396a565b610c86548651610c87546115b491906159d4565b11156115d3576040516331af695160e01b815260040160405180910390fd5b845186511415806115e657508351865114155b15611604576040516376b3b52560e11b815260040160405180910390fd5b600080600088516001600160401b0381111561162257611622615173565b60405190808252806020026020018201604052801561164b578160200160208202803683370190505b50905060005b89518110156119715760008a828151811061166e5761166e6159ec565b60200260200101519050600019610c8454036116b1576116aa818a848151811061169a5761169a6159ec565b602002602001015160001961398e565b93506116e6565b6116e3818a84815181106116c7576116c76159ec565b6020026020010151610c8454426116de91906159d4565b61398e565b93505b6000611764828c85815181106116fe576116fe6159ec565b60200260200101518b8b87818110611718576117186159ec565b905060200281019061172a9190615a02565b8080601f01602080910402602001604051908101604052809392919081815260200183838082843760009201919091525061126e92505050565b905061177081876159d4565b600086815261201f60209081526040808320859055610c84546120208352818420556104b15461202190925290912080546001600160a01b0319166001600160a01b03909216919091179055845190965085908590859081106117d5576117d56159ec565b60209081029190910101526104b1546001600160a01b0316158015906118135750808d8481518110611809576118096159ec565b6020026020010151105b15611831576040516330005fb160e21b815260040160405180910390fd5b611854818c8581518110611847576118476159ec565b6020026020010151613a69565b6104b1546000906001600160a01b031615611888578d848151811061187b5761187b6159ec565b602002602001015161188a565b345b610c89549091506001600160a01b03161561195b57610c8960009054906101000a90046001600160a01b03166001600160a01b0316639849965733858f88815181106118d8576118d86159ec565b60200260200101518e8e8a8181106118f2576118f26159ec565b90506020028101906119049190615a02565b88886040518863ffffffff1660e01b81526004016119289796959493929190615a71565b600060405180830381600087803b15801561194257600080fd5b505af1158015611956573d6000803e3d6000fd5b505050505b505050808061196990615abc565b915050611651565b506104b1546001600160a01b031615611a05576104b1546040516323b872dd60e01b81526001600160a01b039091169081906323b872dd906119bb90339030908990600401615ad5565b6020604051808303816000875af11580156119da573d6000803e3d6000fd5b505050506040513d601f19601f820116820180604052508101906119fe9190615af9565b5050611a26565b82341015611a26576040516306c3cddf60e41b815260040160405180910390fd5b611a2e613b6e565b60005b8851811015611a6e57611a5c898281518110611a4f57611a4f6159ec565b6020026020010151613cc5565b80611a6681615abc565b915050611a31565b509998505050505050505050565b6001600160a01b0381163314611af15760405162461bcd60e51b815260206004820152602f60248201527f416363657373436f6e74726f6c3a2063616e206f6e6c792072656e6f756e636560448201526e103937b632b9903337b91039b2b63360891b60648201526084015b60405180910390fd5b611afb8282613d5e565b5050565b611b076138a5565b6001600160a01b03851615801590611b2e5750611b2c856001600160a01b0316613dc5565b155b15611b4f57604051636788e02b60e01b815260006004820152602401611ae8565b6001600160a01b03841615801590611b765750611b74846001600160a01b0316613dc5565b155b15611b9757604051636788e02b60e01b815260016004820152602401611ae8565b6001600160a01b03831615801590611bbe5750611bbc836001600160a01b0316613dc5565b155b15611bdf57604051636788e02b60e01b815260026004820152602401611ae8565b6001600160a01b03821615801590611c065750611c04826001600160a01b0316613dc5565b155b15611c2757604051636788e02b60e01b815260036004820152602401611ae8565b6001600160a01b03811615801590611c4e5750611c4c816001600160a01b0316613dc5565b155b15611c6e57604051636788e02b60e01b8152600481810152602401611ae8565b610c8980546001600160a01b03199081166001600160a01b0397881617909155610c8a8054821695871695909517909455610c8c8054851692861692909217909155610c8b8054841692851692909217909155610c8f80549092169216919091179055565b611cdb6138a5565b60408051838152602081018390527fd6867bc538320e67d7bdc35860c27c08486eb490b4fd9b820fff18fb28381d3c910160405180910390a16127f1919091556127f055565b611d2a81613448565b600081815261107860205260409020546001600160a01b03163314611d625760405163075fd2b160e01b815260040160405180910390fd5b611afb611d6e82611ec2565b83836136a2565b61111783838360405180602001604052806000815250612a54565b611d9981613416565b611da28161347a565b600081815261107660205260408082205490518392916001600160a01b031690600080516020615dd7833981519152908390a4611dde81613dd4565b50565b6000610c87548210611e0657604051630471175760e11b815260040160405180910390fd5b5090565b6000611097600080516020615db783398151915283612519565b611e2c6138a5565b6111176114638383614fab565b611e4282613416565b611e4b82613448565b611e536138a5565b611afb8282613e0e565b611e656138a5565b611e7d600080516020615db7833981519152826114d9565b6040516001600160a01b038216907f684f8a71407db0c334454ebe9c9b288549317893a20b10dc779ec5c118dcd12190600090a250565b611ebc6138a5565b610c8455565b600090815261107660205260409020546001600160a01b031690565b600080611eea836120e5565b90508015611f2d5760005b81811015611f2b57611f0a610db785836114fe565b15611f19575060019392505050565b80611f2381615abc565b915050611ef5565b505b610c8b546001600160a01b031615611fc657610c8b546040516370b6638f60e11b81523060048201526001600160a01b0385811660248301526000604483015284151560648301529091169063e16cc71e90608401602060405180830381865afa158015611f9f573d6000803e3d6000fd5b505050506040513d601f19601f82011682018060405250810190611fc39190615af9565b91505b50919050565b6000611fd86001613f2c565b90508015611ff0576000805461ff0019166101001790555b611ff986613fbb565b610c838054336001600160a01b031991821617909155610c8880549091166001600160a01b038a16179055610c84879055610c85859055610c86849055600b610c8d556001610c8e5561204c8383613fe7565b61205461400d565b6120606103e86127f055565b6120698861401d565b612bda80546001600160a01b0319166001600160a01b038a161790556120956380ac58cd60e01b6140a5565b80156120db576000805461ff0019169055604051600181527f7f26b83ff96e1f2b6a682f133852f6798a09c465da95921460cefb38474024989060200160405180910390a15b5050505050505050565b6000806120f18361217e565b905060005b818110156121305761210b610db785836114fe565b1561211e578261211a81615abc565b9350505b8061212881615abc565b9150506120f6565b5050919050565b61213f6138a5565b61214c6114648383614fab565b507f8868e22e84ebf32da89b2ebcb0ac642816304ea3863b257f240df9098719cb97828260405161143c929190615b16565b60006001600160a01b0382166121a757604051635963709b60e01b815260040160405180910390fd5b506001600160a01b0316600090815261107e602052604090205490565b60606121ce61396a565b6121d733611e0a565b1580156121ea57506121e8336128a5565b155b1561220857604051631798fedb60e01b815260040160405180910390fd5b6000866001600160401b0381111561222257612222615173565b60405190808252806020026020018201604052801561224b578160200160208202803683370190505b50905060005b878110156122f7576122c889898381811061226e5761226e6159ec565b90506020020160208101906122839190615297565b868684818110612295576122956159ec565b90506020020160208101906122aa9190615297565b8989858181106122bc576122bc6159ec565b9050602002013561398e565b8282815181106122da576122da6159ec565b6020908102919091010152806122ef81615abc565b915050612251565b50979650505050505050565b61230b61396a565b61231482613416565b60008281526120206020526040902054600019148061233d57506104b1546001600160a01b0316155b1561235b57604051636cd40e1160e11b815260040160405180910390fd5b600061237f61236984611ec2565b836040518060200160405280600081525061126e565b600084815261201f6020526040902054909150811415806123b25750610c84546000848152612020602052604090205414155b806123dc57506104b154600084815261202160205260409020546001600160a01b03908116911614155b156123fa5760405163986739e760e01b815260040160405180910390fd5b600083815261107b602052604090206001015442101561242d576040516360d8ec3360e11b815260040160405180910390fd5b61243683614124565b506124418183613a69565b6104b1546001600160a01b0316806323b872dd61245d86611ec2565b30856040518463ffffffff1660e01b815260040161247d93929190615ad5565b6020604051808303816000875af115801561249c573d6000803e3d6000fd5b505050506040513d601f19601f820116820180604052508101906124c09190615af9565b506124c9613b6e565b6124d283613cc5565b50505050565b6124e06138a5565b6040518181527f0496ed1e61eb69727f9659a8e859288db4758ffb1f744d1c1424634f90a257f49060200160405180910390a161240755565b60009182526097602090815260408084206001600160a01b0393909316845291905290205460ff1690565b600061254f82613448565b600019610c845403612564575050610c855490565b600082815261107b602052604081206001015461258290429061593c565b9050610c84546127f1548261259791906159d4565b106125a757610c855491506125c7565b610c845481610c85546125ba9190615b2a565b6125c49190615b49565b91505b6127f15415806125e65750610c84546127f1546125e490836159d4565b105b15611fc65760006127106127f054610c85546126029190615b2a565b61260c9190615b49565b90508083111561262757612620818461593c565b9250612130565b5060009392505050565b6060611464805461264190615953565b90506000036126cb57610c8360009054906101000a90046001600160a01b03166001600160a01b031663cec410526040518163ffffffff1660e01b8152600401600060405180830381865afa15801561269e573d6000803e3d6000fd5b505050506040513d6000823e601f3d908101601f191682016040526126c69190810190615b6b565b905090565b61146480546126d990615953565b80601f016020809104026020016040519081016040528092919081815260200182805461270590615953565b80156127525780601f1061272757610100808354040283529160200191612752565b820191906000526020600020905b81548152906001019060200180831161273557829003601f168201915b5050505050905090565b336001600160a01b0383160361278557604051637899146560e11b815260040160405180910390fd5b61271061240754106127aa576040516323f21a3d60e21b815260040160405180910390fd5b33600081815261107a602090815260408083206001600160a01b03871680855290835292819020805460ff191686151590811790915590519081529192917f17307eab39ab6107e8899845ad3d59bd9653f200f220920489ca2b5937696c31910160405180910390a35050565b61281f6138a5565b612828816141f4565b610c8580546104b18054928590556001600160a01b031983166001600160a01b0385811691821790925560408051848152602081018890529290941693820184905260608201529091907f3615065ccf48367ac483ac86701248e2e5ff55bdd9be845007d34a3b68d719d49060800160405180910390a150505050565b6000611097600080516020615df783398151915283612519565b6128c882613416565b6128d2823361362a565b1580156128e557506128e3336128a5565b155b156129035760405163866c2fa760e01b815260040160405180910390fd5b611afb828261428b565b600061291883613416565b600083815261107b60205260409020600101544281101561293d576000915050611097565b60008360000361295857612951428361593c565b905061295b565b50825b612710612407548261296d9190615b2a565b6129779190615b49565b92505050611097565b61298861396a565b61299181613416565b61299a33611e0a565b1580156129ad57506129ab336128a5565b155b156129cb57604051631798fedb60e01b815260040160405180910390fd5b611afb81614124565b60006129de6135e8565b6104b15460405163095ea7b360e01b81526001600160a01b039091169063095ea7b390612a119086908690600401615be1565b6020604051808303816000875af1158015612a30573d6000803e3d6000fd5b505050506040513d601f19601f820116820180604052508101906113089190615af9565b612a5f848484611448565b612a6b84848484614318565b6124d2576040516303f8ea1560e41b815260040160405180910390fd5b612a906138a5565b610c8754811015612ab457604051631d00cd6b60e01b815260040160405180910390fd5b610c8655565b606080806000612ac9306143cf565b905060608515612ae357612adc866145ba565b9250612af6565b6040518060200160405280600081525092505b610c8c546001600160a01b031615612bcd57600086815261107b6020526040902060010154610c8c546001600160a01b031663988b93ad3033612b388b611ec2565b60405160e085901b6001600160e01b03191681526001600160a01b03938416600482015291831660248301529091166044820152606481018a90526084810184905260a401600060405180830381865afa158015612b9a573d6000803e3d6000fd5b505050506040513d6000823e601f3d908101601f19168201604052612bc29190810190615b6b565b979650505050505050565b6114658054612bdb90615953565b9050600003612c8357610c8360009054906101000a90046001600160a01b03166001600160a01b031663a998e9fb6040518163ffffffff1660e01b8152600401600060405180830381865afa158015612c38573d6000803e3d6000fd5b505050506040513d6000823e601f3d908101601f19168201604052612c609190810190615b6b565b9350604051806040016040528060018152602001602f60f81b8152509050612d36565b6114658054612c9190615953565b80601f0160208091040260200160405190810160405280929190818152602001828054612cbd90615953565b8015612d0a5780601f10612cdf57610100808354040283529160200191612d0a565b820191906000526020600020905b815481529060010190602001808311612ced57829003601f168201915b505050505093506040518060200160405280600081525090506040518060200160405280600081525091505b612d42848383866146ea565b9695505050505050565b612d546138a5565b612d6c600080516020615df7833981519152826114d9565b6040516001600160a01b038216907f91d5c045d5bd98bf59a379b259ebca05b93bf79af1845fdf87e3172385d4c7f790600090a250565b612dac81613416565b612db581613448565b612dbe8161347a565b6000612dc982612544565b9050611afb8282613e0e565b600082815260976020526040902060010154612df0816138da565b6111178383613d5e565b612e0261396a565b612e0b84613416565b612e1484614124565b506000612e60612e2386611ec2565b8585858080601f01602080910402602001604051908101604052809392919081815260200183838082843760009201919091525061126e92505050565b9050612e6c8185613a69565b6104b1546001600160a01b031615612f205780861015612e9f576040516330005fb160e21b815260040160405180910390fd5b6104b1546040516323b872dd60e01b81526001600160a01b039091169081906323b872dd90612ed690339030908790600401615ad5565b6020604051808303816000875af1158015612ef5573d6000803e3d6000fd5b505050506040513d601f19601f82011682018060405250810190612f199190615af9565b5050612f41565b80341015612f41576040516306c3cddf60e41b815260040160405180910390fd5b600085815261201f60205260409020548114612f6a57600085815261201f602052604090208190555b610c84546000868152612020602052604090205414612f9857610c8454600086815261202060205260409020555b6104b154600086815261202160205260409020546001600160a01b03908116911614612fef576104b15460008681526120216020526040902080546001600160a01b0319166001600160a01b039092169190911790555b612ff7613b6e565b61300084613cc5565b505050505050565b6130106138a5565b6001600160a01b0390911660009081526120226020526040902055565b6001600160a01b03918216600090815261107a6020908152604080832093909416825291909152205460ff1690565b613074600080516020615df783398151915233611a7c565b60405133907f42885193b8178d25fca25a38e6fcc93918501e91be06d85e0c8afb3bad95238090600090a2565b6130a961396a565b610c8754610c8654116130cf576040516331af695160e01b815260040160405180910390fd5b6130d88261347a565b6130e182613448565b6127106124075410613106576040516323f21a3d60e21b815260040160405180910390fd5b600082815261107660205260408120546001600160a01b031690804261313c86600090815261107b602052604090206001015490565b613146919061593c565b90506000613154868661290d565b9050600061316282876159d4565b9050828110156131805785935061317b87826000613532565b6131d8565b61318a878461290d565b9150613196828461593c565b600088815261107b6020526040808220426001909101555191955088917f59f2fe866dd27a1c2d34115520888c3150365cbc931aab97fa88c4b9ab40b7959190a25b60006131e989826116de88426159d4565b905080896001600160a01b0316876001600160a01b0316600080516020615dd783398151915260405160405180910390a4613235868a8360405180602001604052806000815250614318565b613252576040516303f8ea1560e41b815260040160405180910390fd5b505050505050505050565b6132656138a5565b600b610c8d55565b6132756135e8565b60006001600160a01b03831661328c5750476132fc565b6040516370a0823160e01b81526001600160a01b038416906370a08231906132b890309060040161511e565b602060405180830381865afa1580156132d5573d6000803e3d6000fd5b505050506040513d601f19601f820116820180604052508101906132f991906159bb565b90505b600082158061330a57508183115b156133375760008211613330576040516303e09bb960e31b815260040160405180910390fd5b508061333a565b50815b610c88546040518281526001600160a01b039182169186169033907f342e7ff505a8a0364cd0dc2ff195c315e43bce86b204846ecd36913e117b109e9060200160405180910390a4610c88546124d29085906001600160a01b03168361471c565b6133a36138a5565b61201e55565b60006133b484613448565b600061271083426133d588600090815261107b602052604090206001015490565b6133df919061593c565b6133e99190615b2a565b6133f39190615b49565b90506134008486836130a1565b506001949350505050565b600061109782614758565b600081815261107b60205260408120600101549003611dde576040516378fe247360e01b815260040160405180910390fd5b600081815261107b60205260409020600101544210611dde576040516306cfa7d760e11b815260040160405180910390fd5b600081815261107860205260408120546001600160a01b0316156134b657600082815261107860205260409020546001600160a01b03166134d0565b600082815261107660205260409020546001600160a01b03165b90506134dc823361362a565b1580156135015750600082815261107960205260409020546001600160a01b03163314155b80156135145750613512813361302d565b155b15611afb5760405163e17c6d4560e01b815260040160405180910390fd5b61353b83613416565b600083815261107b60205260409020600101548115613588574281111561357e5761356683826159d4565b600085815261107b60205260409020600101556135a6565b61356683426159d4565b613592838261593c565b600085815261107b60205260409020600101555b60408051848152831515602082015285917fe9408df99703ae33a9d01185bcad328ea8683fb1f920da9c30959c192f21b5b3910160405180910390a250505050565b6135f1336128a5565b15801561360a5750610c88546001600160a01b03163314155b156136285760405163c8f9577160e01b815260040160405180910390fd5b565b600082815261107860205260408120546001600160a01b038381169116148061368d5750816001600160a01b031661366184611ec2565b6001600160a01b031614801561368d5750600083815261107860205260409020546001600160a01b0316155b1561369a57506001611097565b506000611097565b6136ab81613448565b826001600160a01b03166136be82611ec2565b6001600160a01b0316146136e55760405163075fd2b160e01b815260040160405180910390fd5b612710612407541061370a576040516323f21a3d60e21b815260040160405180910390fd5b6001600160a01b03821661373157604051635963709b60e01b815260040160405180910390fd5b816001600160a01b0316836001600160a01b03160361376357604051633fbd1a4960e01b815260040160405180910390fd5b6137798161377283600061290d565b6000613532565b600081815261107b60205260409020613791836120e5565b6000036137af5761107780549060006137a983615abc565b91905055505b6137b882614763565b6137c28284614869565b6137cb8261490e565b60008281526120206020908152604080832083905561201f9091528082208290555183916001600160a01b038087169290881691600080516020615dd783398151915291a4610c8f546001600160a01b0316156124d257610c8f5460018201546040516375b37aef60e01b8152306004820152602481018590523360448201526001600160a01b038781166064830152868116608483015260a48201929092529116906375b37aef9060c401600060405180830381600087803b15801561389157600080fd5b505af11580156120db573d6000803e3d6000fd5b6138bd600080516020615df783398151915233612519565b61362857604051632386d63160e21b815260040160405180910390fd5b611dde813361494b565b6138ee8282612519565b611afb5760008281526097602090815260408083206001600160a01b03851684529091529020805460ff191660011790556139263390565b6001600160a01b0316816001600160a01b0316837f2f8788117e7eff1d82e926ec794901d17c78024a50270940304540a733656f0d60405160405180910390a45050565b610c8d54600b14613628576040516302eae03b60e61b815260040160405180910390fd5b60006001600160a01b0384166139b757604051635963709b60e01b815260040160405180910390fd5b610c8780549060006139c883615abc565b9091555050610c87546040805180820182528281526020808201868152600085815261107b9092529290209051815590516001909101559050613a0a8461217e565b600003613a28576110778054906000613a2283615abc565b91905055505b613a328185614869565b613a3c818461428b565b60405181906001600160a01b03861690600090600080516020615dd7833981519152908290a49392505050565b610c83546001600160a01b03163b15613b3057610c835460405163939d9f1f60e01b8152600481018490526001600160a01b0383811660248301529091169063939d9f1f90620493e090604401600060405180830381600088803b158015613ad057600080fd5b5087f193505050508015613ae2575060015b611afb57610c835460405130917f6b18946261693dfd6c760d986b28ad2238b5b0267f8e5b6bc40a2f998e2f20ac91613b24916001600160a01b03169061511e565b60405180910390a25050565b610c835460405130917f6b18946261693dfd6c760d986b28ad2238b5b0267f8e5b6bc40a2f998e2f20ac91613b24916001600160a01b03169061511e565b61201e5415613628576104b1546001600160a01b031615613c0a576104b15461201e5460405163a9059cbb60e01b81526001600160a01b0390921691829163a9059cbb91613bc0913391600401615be1565b6020604051808303816000875af1158015613bdf573d6000803e3d6000fd5b505050506040513d601f19601f82011682018060405250810190613c039190615af9565b5050613c77565b61201e5460405160009133918381818185875af1925050503d8060008114613c4e576040519150601f19603f3d011682016040523d82523d6000602084013e613c53565b606091505b5050905080613c755760405163045ed26b60e11b815260040160405180910390fd5b505b61201e546104b154604080519283526001600160a01b03909116602083015233917f522a883b471164223f18b50f326da8671372b64b4792eac0e63d447e714c3e3b910160405180910390a2565b6120226020527fbed07da93ba22716a54f603f075ff3d6567a94916ac6d58738883fb4a4b47ea6546001600160a01b0382166000908152604090205415613d2257506001600160a01b038116600090815261202260205260409020545b8015611afb576104b154610c8554611afb916001600160a01b031690849061271090613d4f908690615b2a565b613d599190615b49565b61471c565b613d688282612519565b15611afb5760008281526097602090815260408083206001600160a01b0385168085529252808320805460ff1916905551339285917ff6391f5c32d9c69d2a47ea670b442974b53935d1edc7fd64eb21e047a839171b9190a45050565b6001600160a01b03163b151590565b613ddd81614763565b600090815261107b6020908152604080832042600190910155611076909152902080546001600160a01b0319169055565b6000613e1983611ec2565b9050613e2483613dd4565b336001600160a01b0316816001600160a01b0316847f0a7068a9989857441c039a14a42b67ed71dd1fcfe5a9b17cc87b252e47bce52885604051613e6a91815260200190565b60405180910390a48115613e90576104b154613e90906001600160a01b0316828461471c565b60008381526120206020908152604080832083905561201f909152812055610c8a546001600160a01b03161561111757610c8a5460405163b499b6c560e01b81526001600160a01b039091169063b499b6c590613ef590339085908790600401615ad5565b600060405180830381600087803b158015613f0f57600080fd5b505af1158015613f23573d6000803e3d6000fd5b50505050505050565b60008054610100900460ff1615613f7a578160ff166001148015613f565750613f5430613dc5565b155b613f725760405162461bcd60e51b8152600401611ae890615bfa565b506000919050565b60005460ff808416911610613fa15760405162461bcd60e51b8152600401611ae890615bfa565b506000805460ff191660ff92909216919091179055600190565b613fc4816141f4565b6104b180546001600160a01b0319166001600160a01b0392909216919091179055565b613fef6149af565b613ffc6114638383614fab565b50611afb635b5e139f60e01b6140a5565b61362863780e9d6360e01b6140a5565b614035600080516020615df783398151915280614a1a565b61405b600080516020615db7833981519152600080516020615df7833981519152614a1a565b614064816128a5565b61408057614080600080516020615df783398151915282614a65565b61408981611e0a565b611dde57611dde600080516020615db783398151915282614a65565b6001600160e01b031980821690036140ff5760405162461bcd60e51b815260206004820152601c60248201527f4552433136353a20696e76616c696420696e74657266616365206964000000006044820152606401611ae8565b6001600160e01b0319166000908152606560205260409020805460ff19166001179055565b600081815261107b6020526040812060019081015490810161415957604051630fed19c160e11b815260040160405180910390fd5b600019610c84540361416f57600019915061419d565b4281111561418c57610c845461418590826159d4565b915061419d565b610c845461419a90426159d4565b91505b600083815261107b6020526040908190206001018390555183907f3ca112768ff7861e008ace1c11570c52e404c043e585545b5957a1e20961dde3906141e69085815260200190565b60405180910390a250919050565b6001600160a01b0381161580159061426d57506000816001600160a01b03166318160ddd6040518163ffffffff1660e01b8152600401602060405180830381865afa158015614247573d6000803e3d6000fd5b505050506040513d601f19601f8201168201806040525081019061426b91906159bb565b105b15611dde5760405163684cae7960e11b815260040160405180910390fd5b600082815261107860205260409020546001600160a01b03828116911614611afb5760008281526110786020526040902080546001600160a01b0319166001600160a01b0383161790556142de8261490e565b6040516001600160a01b0382169083907f9d2895c45a420624de863a2f437b022d879f457bf7a829044055a10c5a6fd5e390600090a35050565b600061432c846001600160a01b0316613dc5565b614338575060016143c7565b604051630a85bd0160e11b81526000906001600160a01b0386169063150b7a029061436d9033908a9089908990600401615c48565b6020604051808303816000875af115801561438c573d6000803e3d6000fd5b505050506040513d601f19601f820116820180604052508101906143b09190615c7b565b6001600160e01b031916630a85bd0160e11b149150505b949350505050565b604080518082018252601081526f181899199a1a9b1b9c1cb0b131b232b360811b60208201528151602a80825260608281019094526001600160a01b0385169291600091602082018180368337019050509050600360fc1b8160008151811061443a5761443a6159ec565b60200101906001600160f81b031916908160001a905350600f60fb1b81600181518110614469576144696159ec565b60200101906001600160f81b031916908160001a90535060005b60148110156145b1578260048561449b84600c6159d4565b602081106144ab576144ab6159ec565b1a60f81b6001600160f81b031916901c60f81c60ff16815181106144d1576144d16159ec565b01602001516001600160f81b031916826144ec836002615b2a565b6144f79060026159d4565b81518110614507576145076159ec565b60200101906001600160f81b031916908160001a905350828461452b83600c6159d4565b6020811061453b5761453b6159ec565b825191901a600f16908110614552576145526159ec565b01602001516001600160f81b0319168261456d836002615b2a565b6145789060036159d4565b81518110614588576145886159ec565b60200101906001600160f81b031916908160001a905350806145a981615abc565b915050614483565b50949350505050565b60608160008190036145e55750506040805180820190915260018152600360fc1b6020820152919050565b8260005b811561460f57806145f981615abc565b91506146089050600a83615b49565b91506145e9565b6000816001600160401b0381111561462957614629615173565b6040519080825280601f01601f191660200182016040528015614653576020820181803683370190505b509050815b84156146e05761466960018261593c565b90506000614678600a87615b49565b61468390600a615b2a565b61468d908761593c565b614698906030615c98565b905060008160f81b9050808484815181106146b5576146b56159ec565b60200101906001600160f81b031916908160001a9053506146d7600a88615b49565b96505050614658565b5095945050505050565b6060848484846040516020016147039493929190615cbd565b6040516020818303038152906040529050949350505050565b8015611117576001600160a01b038316614743576111176001600160a01b03831682614a6f565b826124d26001600160a01b0382168484614b85565b600061109782614bdb565b600081815261107660205260408120546001600160a01b0316906001614788836120e5565b614792919061593c565b600084815261107d60205260409020549091508082146147e8576001600160a01b038316600090815261107c60209081526040808320858452825280832054848452818420819055835261107d90915290208190555b6001600160a01b038316600090815261107c602090815260408083208584529091528120556148168361217e565b60010361483457611077805490600061482e83615d14565b91905055505b6001600160a01b038316600090815261107e6020526040812080546001929061485e90849061593c565b909155505050505050565b6000614874826120e5565b9050610c8e54811061489957604051630bf6c32360e11b815260040160405180910390fd5b600083815261107d602090815260408083208490556001600160a01b03851680845261107c83528184208585528352818420879055868452611076835281842080546001600160a01b03191682179055835261107e90915281208054600192906149049084906159d4565b9091555050505050565b600081815261107960205260409020546001600160a01b031615611dde5760009081526110796020526040902080546001600160a01b0319169055565b6149558282612519565b611afb5761496d816001600160a01b03166014614c00565b614978836020614c00565b604051602001614989929190615d2b565b60408051601f198184030181529082905262461bcd60e51b8252611ae8916004016150f2565b600054610100900460ff166136285760405162461bcd60e51b815260206004820152602b60248201527f496e697469616c697a61626c653a20636f6e7472616374206973206e6f74206960448201526a6e697469616c697a696e6760a81b6064820152608401611ae8565b600082815260976020526040808220600101805490849055905190918391839186917fbd79b86ffe0ab8e8776151514217cd7cacd52c909f66475c3af44e129f0b00ff9190a4505050565b611afb82826138e4565b80471015614abf5760405162461bcd60e51b815260206004820152601d60248201527f416464726573733a20696e73756666696369656e742062616c616e63650000006044820152606401611ae8565b6000826001600160a01b03168260405160006040518083038185875af1925050503d8060008114614b0c576040519150601f19603f3d011682016040523d82523d6000602084013e614b11565b606091505b50509050806111175760405162461bcd60e51b815260206004820152603a60248201527f416464726573733a20756e61626c6520746f2073656e642076616c75652c20726044820152791958da5c1a595b9d081b585e481a185d99481c995d995c9d195960321b6064820152608401611ae8565b6111178363a9059cbb60e01b8484604051602401614ba4929190615be1565b60408051601f198184030181529190526020810180516001600160e01b03166001600160e01b031990931692909217909152614d9b565b60006001600160e01b03198216637965db0b60e01b1480611097575061109782614e6d565b60606000614c0f836002615b2a565b614c1a9060026159d4565b6001600160401b03811115614c3157614c31615173565b6040519080825280601f01601f191660200182016040528015614c5b576020820181803683370190505b509050600360fc1b81600081518110614c7657614c766159ec565b60200101906001600160f81b031916908160001a905350600f60fb1b81600181518110614ca557614ca56159ec565b60200101906001600160f81b031916908160001a9053506000614cc9846002615b2a565b614cd49060016159d4565b90505b6001811115614d4c576f181899199a1a9b1b9c1cb0b131b232b360811b85600f1660108110614d0857614d086159ec565b1a60f81b828281518110614d1e57614d1e6159ec565b60200101906001600160f81b031916908160001a90535060049490941c93614d4581615d14565b9050614cd7565b5083156113085760405162461bcd60e51b815260206004820181905260248201527f537472696e67733a20686578206c656e67746820696e73756666696369656e746044820152606401611ae8565b6000614df0826040518060400160405280602081526020017f5361666545524332303a206c6f772d6c6576656c2063616c6c206661696c6564815250856001600160a01b0316614ea99092919063ffffffff16565b8051909150156111175780806020019051810190614e0e9190615af9565b6111175760405162461bcd60e51b815260206004820152602a60248201527f5361666545524332303a204552433230206f7065726174696f6e20646964206e6044820152691bdd081cdd58d8d9595960b21b6064820152608401611ae8565b60006301ffc9a760e01b6001600160e01b0319831614806110975750506001600160e01b03191660009081526065602052604090205460ff1690565b60606143c7848460008585614ebd85613dc5565b614f095760405162461bcd60e51b815260206004820152601d60248201527f416464726573733a2063616c6c20746f206e6f6e2d636f6e74726163740000006044820152606401611ae8565b600080866001600160a01b03168587604051614f259190615d9a565b60006040518083038185875af1925050503d8060008114614f62576040519150601f19603f3d011682016040523d82523d6000602084013e614f67565b606091505b5091509150612bc282828660608315614f81575081611308565b825115614f915782518084602001fd5b8160405162461bcd60e51b8152600401611ae891906150f2565b828054614fb790615953565b90600052602060002090601f016020900481019282614fd9576000855561501f565b82601f10614ff25782800160ff1982351617855561501f565b8280016001018555821561501f579182015b8281111561501f578235825591602001919060010190615004565b50611e069291505b80821115611e065760008155600101615027565b6001600160e01b031981168114611dde57600080fd5b60006020828403121561506357600080fd5b81356113088161503b565b60008060006060848603121561508357600080fd5b505081359360208301359350604090920135919050565b60005b838110156150b557818101518382015260200161509d565b838111156124d25750506000910152565b600081518084526150de81602086016020860161509a565b601f01601f19169290920160200192915050565b60208152600061130860208301846150c6565b60006020828403121561511757600080fd5b5035919050565b6001600160a01b0391909116815260200190565b6001600160a01b0381168114611dde57600080fd5b6000806040838503121561515a57600080fd5b823561516581615132565b946020939093013593505050565b634e487b7160e01b600052604160045260246000fd5b604051601f8201601f191681016001600160401b03811182821017156151b1576151b1615173565b604052919050565b60006001600160401b038211156151d2576151d2615173565b50601f01601f191660200190565b600082601f8301126151f157600080fd5b81356152046151ff826151b9565b615189565b81815284602083860101111561521957600080fd5b816020850160208301376000918101602001919091529392505050565b60008060006060848603121561524b57600080fd5b833561525681615132565b9250602084013561526681615132565b915060408401356001600160401b0381111561528157600080fd5b61528d868287016151e0565b9150509250925092565b6000602082840312156152a957600080fd5b813561130881615132565b6000806000606084860312156152c957600080fd5b83356152d481615132565b925060208401356152e481615132565b929592945050506040919091013590565b6000806040838503121561530857600080fd5b82359150602083013561531a81615132565b809150509250929050565b60008083601f84011261533757600080fd5b5081356001600160401b0381111561534e57600080fd5b60208301915083602082850101111561536657600080fd5b9250929050565b6000806020838503121561538057600080fd5b82356001600160401b0381111561539657600080fd5b6153a285828601615325565b90969095509350505050565b60006001600160401b038211156153c7576153c7615173565b5060051b60200190565b600082601f8301126153e257600080fd5b813560206153f26151ff836153ae565b82815260059290921b8401810191818101908684111561541157600080fd5b8286015b8481101561542c5780358352918301918301615415565b509695505050505050565b600082601f83011261544857600080fd5b813560206154586151ff836153ae565b82815260059290921b8401810191818101908684111561547757600080fd5b8286015b8481101561542c57803561548e81615132565b835291830191830161547b565b60008083601f8401126154ad57600080fd5b5081356001600160401b038111156154c457600080fd5b6020830191508360208260051b850101111561536657600080fd5b60008060008060008060a087890312156154f857600080fd5b86356001600160401b038082111561550f57600080fd5b61551b8a838b016153d1565b9750602089013591508082111561553157600080fd5b61553d8a838b01615437565b9650604089013591508082111561555357600080fd5b61555f8a838b01615437565b9550606089013591508082111561557557600080fd5b6155818a838b01615437565b9450608089013591508082111561559757600080fd5b506155a489828a0161549b565b979a9699509497509295939492505050565b6020808252825182820181905260009190848201906040850190845b818110156155ee578351835292840192918401916001016155d2565b50909695505050505050565b600080600080600060a0868803121561561257600080fd5b853561561d81615132565b9450602086013561562d81615132565b9350604086013561563d81615132565b9250606086013561564d81615132565b9150608086013561565d81615132565b809150509295509295909350565b6000806040838503121561567e57600080fd5b50508035926020909101359150565b600080600080600080600060c0888a0312156156a857600080fd5b87356156b381615132565b96506020880135955060408801356156ca81615132565b9450606088013593506080880135925060a08801356001600160401b038111156156f357600080fd5b6156ff8a828b01615325565b989b979a50959850939692959293505050565b6000806000806000806060878903121561572b57600080fd5b86356001600160401b038082111561574257600080fd5b61574e8a838b0161549b565b9098509650602089013591508082111561576757600080fd5b6157738a838b0161549b565b9096509450604089013591508082111561559757600080fd5b8015158114611dde57600080fd5b600080604083850312156157ad57600080fd5b82356157b881615132565b9150602083013561531a8161578c565b600080600080608085870312156157de57600080fd5b84356157e981615132565b935060208501356157f981615132565b92506040850135915060608501356001600160401b0381111561581b57600080fd5b615827878288016151e0565b91505092959194509250565b60008060008060006080868803121561584b57600080fd5b8535945060208601359350604086013561586481615132565b925060608601356001600160401b0381111561587f57600080fd5b61588b88828901615325565b969995985093965092949392505050565b600080604083850312156158af57600080fd5b82356158ba81615132565b9150602083013561531a81615132565b6000806000606084860312156158df57600080fd5b83356158ea81615132565b95602085013595506040909401359392505050565b60008060006060848603121561591457600080fd5b8335925060208401356152e481615132565b634e487b7160e01b600052601160045260246000fd5b60008282101561594e5761594e615926565b500390565b600181811c9082168061596757607f821691505b602082108103611fc657634e487b7160e01b600052602260045260246000fd5b6001600160a01b038581168252848116602083015283166040820152608060608201819052600090612d42908301846150c6565b6000602082840312156159cd57600080fd5b5051919050565b600082198211156159e7576159e7615926565b500190565b634e487b7160e01b600052603260045260246000fd5b6000808335601e19843603018112615a1957600080fd5b8301803591506001600160401b03821115615a3357600080fd5b60200191503681900382131561536657600080fd5b81835281816020850137506000828201602090810191909152601f909101601f19169091010190565b6001600160a01b03888116825287811660208301528616604082015260c060608201819052600090615aa69083018688615a48565b60808301949094525060a0015295945050505050565b600060018201615ace57615ace615926565b5060010190565b6001600160a01b039384168152919092166020820152604081019190915260600190565b600060208284031215615b0b57600080fd5b81516113088161578c565b6020815260006143c7602083018486615a48565b6000816000190483118215151615615b4457615b44615926565b500290565b600082615b6657634e487b7160e01b600052601260045260246000fd5b500490565b600060208284031215615b7d57600080fd5b81516001600160401b03811115615b9357600080fd5b8201601f81018413615ba457600080fd5b8051615bb26151ff826151b9565b818152856020838501011115615bc757600080fd5b615bd882602083016020860161509a565b95945050505050565b6001600160a01b03929092168252602082015260400190565b6020808252602e908201527f496e697469616c697a61626c653a20636f6e747261637420697320616c72656160408201526d191e481a5b9a5d1a585b1a5e995960921b606082015260800190565b6001600160a01b0385811682528416602082015260408101839052608060608201819052600090612d42908301846150c6565b600060208284031215615c8d57600080fd5b81516113088161503b565b600060ff821660ff84168060ff03821115615cb557615cb5615926565b019392505050565b60008551615ccf818460208a0161509a565b855190830190615ce3818360208a0161509a565b8551910190615cf681836020890161509a565b8451910190615d0981836020880161509a565b019695505050505050565b600081615d2357615d23615926565b506000190190565b76020b1b1b2b9b9a1b7b73a3937b61d1030b1b1b7bab73a1604d1b815260008351615d5d81601785016020880161509a565b7001034b99036b4b9b9b4b733903937b6329607d1b6017918401918201528351615d8e81602884016020880161509a565b01602801949350505050565b60008251615dac81846020870161509a565b919091019291505056feb309c40027c81d382c3b58d8de24207a34b27e1db369b1434e4a11311f154b5eddf252ad1be2c89b69c2b068fc378daa952ba7f163c4a11628f55a4df523b3efb89cdd26cddd51301940bf2715f765b626b8a5a9e2681ac62dc83cc2db2530c0a26469706673582212208c2c4a0dc8f35d7f596f1415979772bd06f40a04235bccaa491527bcb4d2fb1e64736f6c634300080d0033",
  "linkReferences": {},
  "deployedLinkReferences": {}
}