{
  "_format": "hh-sol-artifact-1",
  "contractName": "PublicLock",
  "sourceName": "src/contracts/PublicLock/PublicLockV9.sol",
  "abi": [
    {
      "anonymous": false,
      "inputs": [
        {
          "indexed": true,
          "internalType": "address",
          "name": "owner",
          "type": "address"
        },
        {
          "indexed": true,
          "internalType": "address",
          "name": "approved",
          "type": "address"
        },
        {
          "indexed": true,
          "internalType": "uint256",
          "name": "tokenId",
          "type": "uint256"
        }
      ],
      "name": "Approval",
      "type": "event"
    },
    {
      "anonymous": false,
      "inputs": [
        {
          "indexed": true,
          "internalType": "address",
          "name": "owner",
          "type": "address"
        },
        {
          "indexed": true,
          "internalType": "address",
          "name": "operator",
          "type": "address"
        },
        {
          "indexed": false,
          "internalType": "bool",
          "name": "approved",
          "type": "bool"
        }
      ],
      "name": "ApprovalForAll",
      "type": "event"
    },
    {
      "anonymous": false,
      "inputs": [
        {
          "indexed": true,
          "internalType": "uint256",
          "name": "tokenId",
          "type": "uint256"
        },
        {
          "indexed": true,
          "internalType": "address",
          "name": "owner",
          "type": "address"
        },
        {
          "indexed": true,
          "internalType": "address",
          "name": "sendTo",
          "type": "address"
        },
        {
          "indexed": false,
          "internalType": "uint256",
          "name": "refund",
          "type": "uint256"
        }
      ],
      "name": "CancelKey",
      "type": "event"
    },
    {
      "anonymous": false,
      "inputs": [],
      "name": "Disable",
      "type": "event"
    },
    {
      "anonymous": false,
      "inputs": [
        {
          "indexed": true,
          "internalType": "uint256",
          "name": "_tokenId",
          "type": "uint256"
        },
        {
          "indexed": false,
          "internalType": "uint256",
          "name": "_amount",
          "type": "uint256"
        },
        {
          "indexed": false,
          "internalType": "bool",
          "name": "_timeAdded",
          "type": "bool"
        }
      ],
      "name": "ExpirationChanged",
      "type": "event"
    },
    {
      "anonymous": false,
      "inputs": [
        {
          "indexed": true,
          "internalType": "uint256",
          "name": "tokenId",
          "type": "uint256"
        }
      ],
      "name": "ExpireKey",
      "type": "event"
    },
    {
      "anonymous": false,
      "inputs": [
        {
          "indexed": true,
          "internalType": "address",
          "name": "receiver",
          "type": "address"
        },
        {
          "indexed": false,
          "internalType": "uint256",
          "name": "refundedAmount",
          "type": "uint256"
        },
        {
          "indexed": false,
          "internalType": "address",
          "name": "tokenAddress",
          "type": "address"
        }
      ],
      "name": "GasRefunded",
      "type": "event"
    },
    {
      "anonymous": false,
      "inputs": [
        {
          "indexed": true,
          "internalType": "address",
          "name": "account",
          "type": "address"
        }
      ],
      "name": "KeyGranterAdded",
      "type": "event"
    },
    {
      "anonymous": false,
      "inputs": [
        {
          "indexed": true,
          "internalType": "address",
          "name": "account",
          "type": "address"
        }
      ],
      "name": "KeyGranterRemoved",
      "type": "event"
    },
    {
      "anonymous": false,
      "inputs": [
        {
          "indexed": true,
          "internalType": "uint256",
          "name": "_tokenId",
          "type": "uint256"
        },
        {
          "indexed": true,
          "internalType": "address",
          "name": "_newManager",
          "type": "address"
        }
      ],
      "name": "KeyManagerChanged",
      "type": "event"
    },
    {
      "anonymous": false,
      "inputs": [
        {
          "indexed": true,
          "internalType": "address",
          "name": "account",
          "type": "address"
        }
      ],
      "name": "LockManagerAdded",
      "type": "event"
    },
    {
      "anonymous": false,
      "inputs": [
        {
          "indexed": true,
          "internalType": "address",
          "name": "account",
          "type": "address"
        }
      ],
      "name": "LockManagerRemoved",
      "type": "event"
    },
    {
      "anonymous": false,
      "inputs": [
        {
          "indexed": false,
          "internalType": "string",
          "name": "symbol",
          "type": "string"
        }
      ],
      "name": "NewLockSymbol",
      "type": "event"
    },
    {
      "anonymous": false,
      "inputs": [
        {
          "indexed": false,
          "internalType": "uint256",
          "name": "oldKeyPrice",
          "type": "uint256"
        },
        {
          "indexed": false,
          "internalType": "uint256",
          "name": "keyPrice",
          "type": "uint256"
        },
        {
          "indexed": false,
          "internalType": "address",
          "name": "oldTokenAddress",
          "type": "address"
        },
        {
          "indexed": false,
          "internalType": "address",
          "name": "tokenAddress",
          "type": "address"
        }
      ],
      "name": "PricingChanged",
      "type": "event"
    },
    {
      "anonymous": false,
      "inputs": [
        {
          "indexed": false,
          "internalType": "uint256",
          "name": "freeTrialLength",
          "type": "uint256"
        },
        {
          "indexed": false,
          "internalType": "uint256",
          "name": "refundPenaltyBasisPoints",
          "type": "uint256"
        }
      ],
      "name": "RefundPenaltyChanged",
      "type": "event"
    },
    {
      "anonymous": false,
      "inputs": [
        {
          "indexed": true,
          "internalType": "address",
          "name": "owner",
          "type": "address"
        },
        {
          "indexed": false,
          "internalType": "uint256",
          "name": "newExpiration",
          "type": "uint256"
        }
      ],
      "name": "RenewKeyPurchase",
      "type": "event"
    },
    {
      "anonymous": false,
      "inputs": [
        {
          "indexed": true,
          "internalType": "bytes32",
          "name": "role",
          "type": "bytes32"
        },
        {
          "indexed": true,
          "internalType": "bytes32",
          "name": "previousAdminRole",
          "type": "bytes32"
        },
        {
          "indexed": true,
          "internalType": "bytes32",
          "name": "newAdminRole",
          "type": "bytes32"
        }
      ],
      "name": "RoleAdminChanged",
      "type": "event"
    },
    {
      "anonymous": false,
      "inputs": [
        {
          "indexed": true,
          "internalType": "bytes32",
          "name": "role",
          "type": "bytes32"
        },
        {
          "indexed": true,
          "internalType": "address",
          "name": "account",
          "type": "address"
        },
        {
          "indexed": true,
          "internalType": "address",
          "name": "sender",
          "type": "address"
        }
      ],
      "name": "RoleGranted",
      "type": "event"
    },
    {
      "anonymous": false,
      "inputs": [
        {
          "indexed": true,
          "internalType": "bytes32",
          "name": "role",
          "type": "bytes32"
        },
        {
          "indexed": true,
          "internalType": "address",
          "name": "account",
          "type": "address"
        },
        {
          "indexed": true,
          "internalType": "address",
          "name": "sender",
          "type": "address"
        }
      ],
      "name": "RoleRevoked",
      "type": "event"
    },
    {
      "anonymous": false,
      "inputs": [
        {
          "indexed": true,
          "internalType": "address",
          "name": "from",
          "type": "address"
        },
        {
          "indexed": true,
          "internalType": "address",
          "name": "to",
          "type": "address"
        },
        {
          "indexed": true,
          "internalType": "uint256",
          "name": "tokenId",
          "type": "uint256"
        }
      ],
      "name": "Transfer",
      "type": "event"
    },
    {
      "anonymous": false,
      "inputs": [
        {
          "indexed": false,
          "internalType": "uint256",
          "name": "transferFeeBasisPoints",
          "type": "uint256"
        }
      ],
      "name": "TransferFeeChanged",
      "type": "event"
    },
    {
      "anonymous": false,
      "inputs": [
        {
          "indexed": true,
          "internalType": "address",
          "name": "lockAddress",
          "type": "address"
        },
        {
          "indexed": false,
          "internalType": "address",
          "name": "unlockAddress",
          "type": "address"
        }
      ],
      "name": "UnlockCallFailed",
      "type": "event"
    },
    {
      "anonymous": false,
      "inputs": [
        {
          "indexed": true,
          "internalType": "address",
          "name": "sender",
          "type": "address"
        },
        {
          "indexed": true,
          "internalType": "address",
          "name": "tokenAddress",
          "type": "address"
        },
        {
          "indexed": true,
          "internalType": "address",
          "name": "beneficiary",
          "type": "address"
        },
        {
          "indexed": false,
          "internalType": "uint256",
          "name": "amount",
          "type": "uint256"
        }
      ],
      "name": "Withdrawal",
      "type": "event"
    },
    {
      "inputs": [],
      "name": "DEFAULT_ADMIN_ROLE",
      "outputs": [
        {
          "internalType": "bytes32",
          "name": "",
          "type": "bytes32"
        }
      ],
      "stateMutability": "view",
      "type": "function"
    },
    {
      "inputs": [],
      "name": "KEY_GRANTER_ROLE",
      "outputs": [
        {
          "internalType": "bytes32",
          "name": "",
          "type": "bytes32"
        }
      ],
      "stateMutability": "view",
      "type": "function"
    },
    {
      "inputs": [],
      "name": "LOCK_MANAGER_ROLE",
      "outputs": [
        {
          "internalType": "bytes32",
          "name": "",
          "type": "bytes32"
        }
      ],
      "stateMutability": "view",
      "type": "function"
    },
    {
      "inputs": [
        {
          "internalType": "address",
          "name": "account",
          "type": "address"
        }
      ],
      "name": "addKeyGranter",
      "outputs": [],
      "stateMutability": "nonpayable",
      "type": "function"
    },
    {
      "inputs": [
        {
          "internalType": "address",
          "name": "account",
          "type": "address"
        }
      ],
      "name": "addLockManager",
      "outputs": [],
      "stateMutability": "nonpayable",
      "type": "function"
    },
    {
      "inputs": [
        {
          "internalType": "address",
          "name": "_approved",
          "type": "address"
        },
        {
          "internalType": "uint256",
          "name": "_tokenId",
          "type": "uint256"
        }
      ],
      "name": "approve",
      "outputs": [],
      "stateMutability": "nonpayable",
      "type": "function"
    },
    {
      "inputs": [
        {
          "internalType": "address",
          "name": "_spender",
          "type": "address"
        },
        {
          "internalType": "uint256",
          "name": "_amount",
          "type": "uint256"
        }
      ],
      "name": "approveBeneficiary",
      "outputs": [
        {
          "internalType": "bool",
          "name": "",
          "type": "bool"
        }
      ],
      "stateMutability": "nonpayable",
      "type": "function"
    },
    {
      "inputs": [
        {
          "internalType": "address",
          "name": "_keyOwner",
          "type": "address"
        }
      ],
      "name": "balanceOf",
      "outputs": [
        {
          "internalType": "uint256",
          "name": "",
          "type": "uint256"
        }
      ],
      "stateMutability": "view",
      "type": "function"
    },
    {
      "inputs": [],
      "name": "beneficiary",
      "outputs": [
        {
          "internalType": "address payable",
          "name": "",
          "type": "address"
        }
      ],
      "stateMutability": "view",
      "type": "function"
    },
    {
      "inputs": [
        {
          "internalType": "uint256",
          "name": "_tokenId",
          "type": "uint256"
        }
      ],
      "name": "cancelAndRefund",
      "outputs": [],
      "stateMutability": "nonpayable",
      "type": "function"
    },
    {
      "inputs": [],
      "name": "disableLock",
      "outputs": [],
      "stateMutability": "nonpayable",
      "type": "function"
    },
    {
      "inputs": [],
      "name": "expirationDuration",
      "outputs": [
        {
          "internalType": "uint256",
          "name": "",
          "type": "uint256"
        }
      ],
      "stateMutability": "view",
      "type": "function"
    },
    {
      "inputs": [
        {
          "internalType": "address payable",
          "name": "_keyOwner",
          "type": "address"
        },
        {
          "internalType": "uint256",
          "name": "amount",
          "type": "uint256"
        }
      ],
      "name": "expireAndRefundFor",
      "outputs": [],
      "stateMutability": "nonpayable",
      "type": "function"
    },
    {
      "inputs": [],
      "name": "freeTrialLength",
      "outputs": [
        {
          "internalType": "uint256",
          "name": "",
          "type": "uint256"
        }
      ],
      "stateMutability": "view",
      "type": "function"
    },
    {
      "inputs": [],
      "name": "gasRefundValue",
      "outputs": [
        {
          "internalType": "uint256",
          "name": "_refundValue",
          "type": "uint256"
        }
      ],
      "stateMutability": "view",
      "type": "function"
    },
    {
      "inputs": [
        {
          "internalType": "uint256",
          "name": "_tokenId",
          "type": "uint256"
        }
      ],
      "name": "getApproved",
      "outputs": [
        {
          "internalType": "address",
          "name": "",
          "type": "address"
        }
      ],
      "stateMutability": "view",
      "type": "function"
    },
    {
      "inputs": [
        {
          "internalType": "address",
          "name": "_keyOwner",
          "type": "address"
        }
      ],
      "name": "getCancelAndRefundValueFor",
      "outputs": [
        {
          "internalType": "uint256",
          "name": "refund",
          "type": "uint256"
        }
      ],
      "stateMutability": "view",
      "type": "function"
    },
    {
      "inputs": [
        {
          "internalType": "address",
          "name": "_keyOwner",
          "type": "address"
        }
      ],
      "name": "getHasValidKey",
      "outputs": [
        {
          "internalType": "bool",
          "name": "isValid",
          "type": "bool"
        }
      ],
      "stateMutability": "view",
      "type": "function"
    },
    {
      "inputs": [
        {
          "internalType": "bytes32",
          "name": "role",
          "type": "bytes32"
        }
      ],
      "name": "getRoleAdmin",
      "outputs": [
        {
          "internalType": "bytes32",
          "name": "",
          "type": "bytes32"
        }
      ],
      "stateMutability": "view",
      "type": "function"
    },
    {
      "inputs": [
        {
          "internalType": "address",
          "name": "_account",
          "type": "address"
        }
      ],
      "name": "getTokenIdFor",
      "outputs": [
        {
          "internalType": "uint256",
          "name": "",
          "type": "uint256"
        }
      ],
      "stateMutability": "view",
      "type": "function"
    },
    {
      "inputs": [
        {
          "internalType": "address",
          "name": "_keyOwner",
          "type": "address"
        },
        {
          "internalType": "uint256",
          "name": "_time",
          "type": "uint256"
        }
      ],
      "name": "getTransferFee",
      "outputs": [
        {
          "internalType": "uint256",
          "name": "",
          "type": "uint256"
        }
      ],
      "stateMutability": "view",
      "type": "function"
    },
    {
      "inputs": [
        {
          "internalType": "address[]",
          "name": "_recipients",
          "type": "address[]"
        },
        {
          "internalType": "uint256[]",
          "name": "_expirationTimestamps",
          "type": "uint256[]"
        },
        {
          "internalType": "address[]",
          "name": "_keyManagers",
          "type": "address[]"
        }
      ],
      "name": "grantKeys",
      "outputs": [],
      "stateMutability": "nonpayable",
      "type": "function"
    },
    {
      "inputs": [
        {
          "internalType": "bytes32",
          "name": "role",
          "type": "bytes32"
        },
        {
          "internalType": "address",
          "name": "account",
          "type": "address"
        }
      ],
      "name": "grantRole",
      "outputs": [],
      "stateMutability": "nonpayable",
      "type": "function"
    },
    {
      "inputs": [
        {
          "internalType": "bytes32",
          "name": "role",
          "type": "bytes32"
        },
        {
          "internalType": "address",
          "name": "account",
          "type": "address"
        }
      ],
      "name": "hasRole",
      "outputs": [
        {
          "internalType": "bool",
          "name": "",
          "type": "bool"
        }
      ],
      "stateMutability": "view",
      "type": "function"
    },
    {
      "inputs": [
        {
          "internalType": "address payable",
          "name": "_lockCreator",
          "type": "address"
        },
        {
          "internalType": "uint256",
          "name": "_expirationDuration",
          "type": "uint256"
        },
        {
          "internalType": "address",
          "name": "_tokenAddress",
          "type": "address"
        },
        {
          "internalType": "uint256",
          "name": "_keyPrice",
          "type": "uint256"
        },
        {
          "internalType": "uint256",
          "name": "_maxNumberOfKeys",
          "type": "uint256"
        },
        {
          "internalType": "string",
          "name": "_lockName",
          "type": "string"
        }
      ],
      "name": "initialize",
      "outputs": [],
      "stateMutability": "nonpayable",
      "type": "function"
    },
    {
      "inputs": [],
      "name": "isAlive",
      "outputs": [
        {
          "internalType": "bool",
          "name": "",
          "type": "bool"
        }
      ],
      "stateMutability": "view",
      "type": "function"
    },
    {
      "inputs": [
        {
          "internalType": "address",
          "name": "_owner",
          "type": "address"
        },
        {
          "internalType": "address",
          "name": "_operator",
          "type": "address"
        }
      ],
      "name": "isApprovedForAll",
      "outputs": [
        {
          "internalType": "bool",
          "name": "",
          "type": "bool"
        }
      ],
      "stateMutability": "view",
      "type": "function"
    },
    {
      "inputs": [
        {
          "internalType": "address",
          "name": "account",
          "type": "address"
        }
      ],
      "name": "isKeyGranter",
      "outputs": [
        {
          "internalType": "bool",
          "name": "",
          "type": "bool"
        }
      ],
      "stateMutability": "view",
      "type": "function"
    },
    {
      "inputs": [
        {
          "internalType": "address",
          "name": "account",
          "type": "address"
        }
      ],
      "name": "isLockManager",
      "outputs": [
        {
          "internalType": "bool",
          "name": "",
          "type": "bool"
        }
      ],
      "stateMutability": "view",
      "type": "function"
    },
    {
      "inputs": [
        {
          "internalType": "address",
          "name": "_keyOwner",
          "type": "address"
        }
      ],
      "name": "keyExpirationTimestampFor",
      "outputs": [
        {
          "internalType": "uint256",
          "name": "",
          "type": "uint256"
        }
      ],
      "stateMutability": "view",
      "type": "function"
    },
    {
      "inputs": [
        {
          "internalType": "uint256",
          "name": "",
          "type": "uint256"
        }
      ],
      "name": "keyManagerOf",
      "outputs": [
        {
          "internalType": "address",
          "name": "",
          "type": "address"
        }
      ],
      "stateMutability": "view",
      "type": "function"
    },
    {
      "inputs": [],
      "name": "keyPrice",
      "outputs": [
        {
          "internalType": "uint256",
          "name": "",
          "type": "uint256"
        }
      ],
      "stateMutability": "view",
      "type": "function"
    },
    {
      "inputs": [],
      "name": "maxNumberOfKeys",
      "outputs": [
        {
          "internalType": "uint256",
          "name": "",
          "type": "uint256"
        }
      ],
      "stateMutability": "view",
      "type": "function"
    },
    {
      "inputs": [],
      "name": "name",
      "outputs": [
        {
          "internalType": "string",
          "name": "",
          "type": "string"
        }
      ],
      "stateMutability": "view",
      "type": "function"
    },
    {
      "inputs": [],
      "name": "numberOfOwners",
      "outputs": [
        {
          "internalType": "uint256",
          "name": "",
          "type": "uint256"
        }
      ],
      "stateMutability": "view",
      "type": "function"
    },
    {
      "inputs": [],
      "name": "onKeyCancelHook",
      "outputs": [
        {
          "internalType": "contract ILockKeyCancelHook",
          "name": "",
          "type": "address"
        }
      ],
      "stateMutability": "view",
      "type": "function"
    },
    {
      "inputs": [],
      "name": "onKeyPurchaseHook",
      "outputs": [
        {
          "internalType": "contract ILockKeyPurchaseHook",
          "name": "",
          "type": "address"
        }
      ],
      "stateMutability": "view",
      "type": "function"
    },
    {
      "inputs": [],
      "name": "onTokenURIHook",
      "outputs": [
        {
          "internalType": "contract ILockTokenURIHook",
          "name": "",
          "type": "address"
        }
      ],
      "stateMutability": "view",
      "type": "function"
    },
    {
      "inputs": [],
      "name": "onValidKeyHook",
      "outputs": [
        {
          "internalType": "contract ILockValidKeyHook",
          "name": "",
          "type": "address"
        }
      ],
      "stateMutability": "view",
      "type": "function"
    },
    {
      "inputs": [
        {
          "internalType": "uint256",
          "name": "_tokenId",
          "type": "uint256"
        }
      ],
      "name": "ownerOf",
      "outputs": [
        {
          "internalType": "address",
          "name": "",
          "type": "address"
        }
      ],
      "stateMutability": "view",
      "type": "function"
    },
    {
      "inputs": [],
      "name": "publicLockVersion",
      "outputs": [
        {
          "internalType": "uint16",
          "name": "",
          "type": "uint16"
        }
      ],
      "stateMutability": "pure",
      "type": "function"
    },
    {
      "inputs": [
        {
          "internalType": "uint256",
          "name": "_value",
          "type": "uint256"
        },
        {
          "internalType": "address",
          "name": "_recipient",
          "type": "address"
        },
        {
          "internalType": "address",
          "name": "_referrer",
          "type": "address"
        },
        {
          "internalType": "address",
          "name": "_keyManager",
          "type": "address"
        },
        {
          "internalType": "bytes",
          "name": "_data",
          "type": "bytes"
        }
      ],
      "name": "purchase",
      "outputs": [],
      "stateMutability": "payable",
      "type": "function"
    },
    {
      "inputs": [
        {
          "internalType": "address",
          "name": "_recipient",
          "type": "address"
        },
        {
          "internalType": "address",
          "name": "_referrer",
          "type": "address"
        },
        {
          "internalType": "bytes",
          "name": "_data",
          "type": "bytes"
        }
      ],
      "name": "purchasePriceFor",
      "outputs": [
        {
          "internalType": "uint256",
          "name": "minKeyPrice",
          "type": "uint256"
        }
      ],
      "stateMutability": "view",
      "type": "function"
    },
    {
      "inputs": [],
      "name": "refundPenaltyBasisPoints",
      "outputs": [
        {
          "internalType": "uint256",
          "name": "",
          "type": "uint256"
        }
      ],
      "stateMutability": "view",
      "type": "function"
    },
    {
      "inputs": [],
      "name": "renounceLockManager",
      "outputs": [],
      "stateMutability": "nonpayable",
      "type": "function"
    },
    {
      "inputs": [
        {
          "internalType": "bytes32",
          "name": "role",
          "type": "bytes32"
        },
        {
          "internalType": "address",
          "name": "account",
          "type": "address"
        }
      ],
      "name": "renounceRole",
      "outputs": [],
      "stateMutability": "nonpayable",
      "type": "function"
    },
    {
      "inputs": [
        {
          "internalType": "address",
          "name": "_granter",
          "type": "address"
        }
      ],
      "name": "revokeKeyGranter",
      "outputs": [],
      "stateMutability": "nonpayable",
      "type": "function"
    },
    {
      "inputs": [
        {
          "internalType": "bytes32",
          "name": "role",
          "type": "bytes32"
        },
        {
          "internalType": "address",
          "name": "account",
          "type": "address"
        }
      ],
      "name": "revokeRole",
      "outputs": [],
      "stateMutability": "nonpayable",
      "type": "function"
    },
    {
      "inputs": [
        {
          "internalType": "address",
          "name": "_from",
          "type": "address"
        },
        {
          "internalType": "address",
          "name": "_to",
          "type": "address"
        },
        {
          "internalType": "uint256",
          "name": "_tokenId",
          "type": "uint256"
        }
      ],
      "name": "safeTransferFrom",
      "outputs": [],
      "stateMutability": "nonpayable",
      "type": "function"
    },
    {
      "inputs": [
        {
          "internalType": "address",
          "name": "_from",
          "type": "address"
        },
        {
          "internalType": "address",
          "name": "_to",
          "type": "address"
        },
        {
          "internalType": "uint256",
          "name": "_tokenId",
          "type": "uint256"
        },
        {
          "internalType": "bytes",
          "name": "_data",
          "type": "bytes"
        }
      ],
      "name": "safeTransferFrom",
      "outputs": [],
      "stateMutability": "nonpayable",
      "type": "function"
    },
    {
      "inputs": [
        {
          "internalType": "address",
          "name": "_to",
          "type": "address"
        },
        {
          "internalType": "bool",
          "name": "_approved",
          "type": "bool"
        }
      ],
      "name": "setApprovalForAll",
      "outputs": [],
      "stateMutability": "nonpayable",
      "type": "function"
    },
    {
      "inputs": [
        {
          "internalType": "string",
          "name": "_baseTokenURI",
          "type": "string"
        }
      ],
      "name": "setBaseTokenURI",
      "outputs": [],
      "stateMutability": "nonpayable",
      "type": "function"
    },
    {
      "inputs": [
        {
          "internalType": "address",
          "name": "_onKeyPurchaseHook",
          "type": "address"
        },
        {
          "internalType": "address",
          "name": "_onKeyCancelHook",
          "type": "address"
        },
        {
          "internalType": "address",
          "name": "_onValidKeyHook",
          "type": "address"
        },
        {
          "internalType": "address",
          "name": "_onTokenURIHook",
          "type": "address"
        }
      ],
      "name": "setEventHooks",
      "outputs": [],
      "stateMutability": "nonpayable",
      "type": "function"
    },
    {
      "inputs": [
        {
          "internalType": "uint256",
          "name": "_newExpirationDuration",
          "type": "uint256"
        }
      ],
      "name": "setExpirationDuration",
      "outputs": [],
      "stateMutability": "nonpayable",
      "type": "function"
    },
    {
      "inputs": [
        {
          "internalType": "uint256",
          "name": "_refundValue",
          "type": "uint256"
        }
      ],
      "name": "setGasRefundValue",
      "outputs": [],
      "stateMutability": "nonpayable",
      "type": "function"
    },
    {
      "inputs": [
        {
          "internalType": "uint256",
          "name": "_tokenId",
          "type": "uint256"
        },
        {
          "internalType": "address",
          "name": "_keyManager",
          "type": "address"
        }
      ],
      "name": "setKeyManagerOf",
      "outputs": [],
      "stateMutability": "nonpayable",
      "type": "function"
    },
    {
      "inputs": [
        {
          "internalType": "uint256",
          "name": "_maxNumberOfKeys",
          "type": "uint256"
        }
      ],
      "name": "setMaxNumberOfKeys",
      "outputs": [],
      "stateMutability": "nonpayable",
      "type": "function"
    },
    {
      "inputs": [
        {
          "internalType": "address",
          "name": "_to",
          "type": "address"
        },
        {
          "internalType": "uint256",
          "name": "_tokenId",
          "type": "uint256"
        },
        {
          "internalType": "uint256",
          "name": "_timeShared",
          "type": "uint256"
        }
      ],
      "name": "shareKey",
      "outputs": [],
      "stateMutability": "nonpayable",
      "type": "function"
    },
    {
      "inputs": [
        {
          "internalType": "bytes4",
          "name": "interfaceId",
          "type": "bytes4"
        }
      ],
      "name": "supportsInterface",
      "outputs": [
        {
          "internalType": "bool",
          "name": "",
          "type": "bool"
        }
      ],
      "stateMutability": "view",
      "type": "function"
    },
    {
      "inputs": [],
      "name": "symbol",
      "outputs": [
        {
          "internalType": "string",
          "name": "",
          "type": "string"
        }
      ],
      "stateMutability": "view",
      "type": "function"
    },
    {
      "inputs": [],
      "name": "tokenAddress",
      "outputs": [
        {
          "internalType": "address",
          "name": "",
          "type": "address"
        }
      ],
      "stateMutability": "view",
      "type": "function"
    },
    {
      "inputs": [
        {
          "internalType": "uint256",
          "name": "_index",
          "type": "uint256"
        }
      ],
      "name": "tokenByIndex",
      "outputs": [
        {
          "internalType": "uint256",
          "name": "",
          "type": "uint256"
        }
      ],
      "stateMutability": "view",
      "type": "function"
    },
    {
      "inputs": [
        {
          "internalType": "address",
          "name": "_keyOwner",
          "type": "address"
        },
        {
          "internalType": "uint256",
          "name": "_index",
          "type": "uint256"
        }
      ],
      "name": "tokenOfOwnerByIndex",
      "outputs": [
        {
          "internalType": "uint256",
          "name": "",
          "type": "uint256"
        }
      ],
      "stateMutability": "view",
      "type": "function"
    },
    {
      "inputs": [
        {
          "internalType": "uint256",
          "name": "_tokenId",
          "type": "uint256"
        }
      ],
      "name": "tokenURI",
      "outputs": [
        {
          "internalType": "string",
          "name": "",
          "type": "string"
        }
      ],
      "stateMutability": "view",
      "type": "function"
    },
    {
      "inputs": [],
      "name": "totalSupply",
      "outputs": [
        {
          "internalType": "uint256",
          "name": "",
          "type": "uint256"
        }
      ],
      "stateMutability": "view",
      "type": "function"
    },
    {
      "inputs": [
        {
          "internalType": "address",
          "name": "_to",
          "type": "address"
        },
        {
          "internalType": "uint256",
          "name": "_value",
          "type": "uint256"
        }
      ],
      "name": "transfer",
      "outputs": [
        {
          "internalType": "bool",
          "name": "success",
          "type": "bool"
        }
      ],
      "stateMutability": "nonpayable",
      "type": "function"
    },
    {
      "inputs": [],
      "name": "transferFeeBasisPoints",
      "outputs": [
        {
          "internalType": "uint256",
          "name": "",
          "type": "uint256"
        }
      ],
      "stateMutability": "view",
      "type": "function"
    },
    {
      "inputs": [
        {
          "internalType": "address",
          "name": "_from",
          "type": "address"
        },
        {
          "internalType": "address",
          "name": "_recipient",
          "type": "address"
        },
        {
          "internalType": "uint256",
          "name": "_tokenId",
          "type": "uint256"
        }
      ],
      "name": "transferFrom",
      "outputs": [],
      "stateMutability": "nonpayable",
      "type": "function"
    },
    {
      "inputs": [],
      "name": "unlockProtocol",
      "outputs": [
        {
          "internalType": "contract IUnlock",
          "name": "",
          "type": "address"
        }
      ],
      "stateMutability": "view",
      "type": "function"
    },
    {
      "inputs": [
        {
          "internalType": "address payable",
          "name": "_beneficiary",
          "type": "address"
        }
      ],
      "name": "updateBeneficiary",
      "outputs": [],
      "stateMutability": "nonpayable",
      "type": "function"
    },
    {
      "inputs": [
        {
          "internalType": "uint256",
          "name": "_keyPrice",
          "type": "uint256"
        },
        {
          "internalType": "address",
          "name": "_tokenAddress",
          "type": "address"
        }
      ],
      "name": "updateKeyPricing",
      "outputs": [],
      "stateMutability": "nonpayable",
      "type": "function"
    },
    {
      "inputs": [
        {
          "internalType": "string",
          "name": "_lockName",
          "type": "string"
        }
      ],
      "name": "updateLockName",
      "outputs": [],
      "stateMutability": "nonpayable",
      "type": "function"
    },
    {
      "inputs": [
        {
          "internalType": "string",
          "name": "_lockSymbol",
          "type": "string"
        }
      ],
      "name": "updateLockSymbol",
      "outputs": [],
      "stateMutability": "nonpayable",
      "type": "function"
    },
    {
      "inputs": [
        {
          "internalType": "uint256",
          "name": "_freeTrialLength",
          "type": "uint256"
        },
        {
          "internalType": "uint256",
          "name": "_refundPenaltyBasisPoints",
          "type": "uint256"
        }
      ],
      "name": "updateRefundPenalty",
      "outputs": [],
      "stateMutability": "nonpayable",
      "type": "function"
    },
    {
      "inputs": [
        {
          "internalType": "uint256",
          "name": "_transferFeeBasisPoints",
          "type": "uint256"
        }
      ],
      "name": "updateTransferFee",
      "outputs": [],
      "stateMutability": "nonpayable",
      "type": "function"
    },
    {
      "inputs": [
        {
          "internalType": "address",
          "name": "_tokenAddress",
          "type": "address"
        },
        {
          "internalType": "uint256",
          "name": "_amount",
          "type": "uint256"
        }
      ],
      "name": "withdraw",
      "outputs": [],
      "stateMutability": "nonpayable",
      "type": "function"
    },
    {
      "stateMutability": "payable",
      "type": "receive"
    }
  ],
  "bytecode": "0x6080604052600061201e5534801561001657600080fd5b50615a8280620000276000396000f3fe60806040526004361061044b5760003560e01c806370a0823111610234578063aae4b8f71161012e578063d1bbd49c116100b6578063f0ba60401161007a578063f0ba604014610d4f578063f12c6b6e14610d64578063f3fef3a314610d84578063f5766b3914610da4578063fc42b58f14610dc457600080fd5b8063d1bbd49c14610cb3578063d250348514610ccf578063d32bfb6c14610cef578063d547741f14610d0f578063e985e9c514610d2f57600080fd5b8063b88d4fde116100fd578063b88d4fde14610c1e578063bf4a927014610c3e578063c1c98d0314610c5e578063c87b56dd14610c73578063cb0703c614610c9357600080fd5b8063aae4b8f714610b84578063abdf82ce14610ba4578063b11d7ec114610bde578063b585a6d514610bfe57600080fd5b806393fd1844116101bc578063a217fddf11610180578063a217fddf14610af8578063a22cb46514610b0d578063a2e4cd2e14610b2d578063a375cb0514610b4d578063a9059cbb14610b6457600080fd5b806393fd184414610a5457806395d89b4114610a6b578063970aaeb714610a8057806397aa390a14610ab75780639d76ea5814610ad757600080fd5b806381a3c9431161020357806381a3c943146109bf5780638577a6d5146109df5780638be4b870146109ff5780638ca2fbad14610a1257806391d1485414610a3457600080fd5b806370a082311461094757806374b6c10614610967578063782a4ade1461097e5780637ec2a7241461099e57600080fd5b80632f745c591161034557806352b0f638116102cd5780636207a8da116102915780636207a8da146108b1578063626485a3146108c75780636352211e146108e75780636d8ea5b4146109075780636eadde431461092757600080fd5b806352b0f6381461081a57806352d6a8e41461083a578063550ef3a81461085a578063564aa99d1461087a57806356e0d51f1461089a57600080fd5b806339f469861161031457806339f46986146107685780634136aa351461078857806342842e0e146107a35780634d025fed146107c35780634f6ccce7146107fa57600080fd5b80632f745c59146106e757806330176e131461070757806336568abe1461072757806338af3eed1461074757600080fd5b806318160ddd116103d3578063248a9ca311610397578063248a9ca31461063557806326e9ca07146106655780632af9162a146106865780632d33dd5b146106a65780632f2ff15d146106c757600080fd5b806318160ddd146105a5578063183767da146105bb578063217751bc146105d257806323100509146105f357806323b872dd1461061557600080fd5b8063097ba3331161041a578063097ba333146105085780630aaffd2a146105365780630f15023b1461055657806310e569731461057757806311a4c03a1461058e57600080fd5b806301ffc9a71461045757806306fdde031461048c578063081812fc146104ae578063095ea7b3146104e657600080fd5b3661045257005b600080fd5b34801561046357600080fd5b506104776104723660046152e6565b610de4565b60405190151581526020015b60405180910390f35b34801561049857600080fd5b506104a1610df5565b6040516104839190615672565b3480156104ba57600080fd5b506104ce6104c93660046152aa565b610e84565b6040516001600160a01b039091168152602001610483565b3480156104f257600080fd5b506105066105013660046151b3565b610f00565b005b34801561051457600080fd5b5061052861052336600461503e565b611035565b604051908152602001610483565b34801561054257600080fd5b50610506610551366004614ee1565b611081565b34801561056257600080fd5b50610c83546104ce906001600160a01b031681565b34801561058357600080fd5b50610528610c855481565b34801561059a57600080fd5b50610528610c845481565b3480156105b157600080fd5b50610c8754610528565b3480156105c757600080fd5b506105286124075481565b3480156105de57600080fd5b50610c8a546104ce906001600160a01b031681565b3480156105ff57600080fd5b506105286000805160206159ed83398151915281565b34801561062157600080fd5b506105066106303660046150a0565b611105565b34801561064157600080fd5b506105286106503660046152aa565b60009081526097602052604090206001015490565b34801561067157600080fd5b50610c8b546104ce906001600160a01b031681565b34801561069257600080fd5b506105066106a1366004614ee1565b611434565b3480156106b257600080fd5b50610c89546104ce906001600160a01b031681565b3480156106d357600080fd5b506105066106e23660046152c2565b6114b7565b3480156106f357600080fd5b506105286107023660046151b3565b6114e2565b34801561071357600080fd5b5061050661072236600461531e565b61156a565b34801561073357600080fd5b506105066107423660046152c2565b6115ab565b34801561075357600080fd5b50610c88546104ce906001600160a01b031681565b34801561077457600080fd5b5061050661078336600461544e565b611629565b34801561079457600080fd5b5061089a546104779060ff1681565b3480156107af57600080fd5b506105066107be3660046150a0565b6116a3565b3480156107cf57600080fd5b506104ce6107de3660046152aa565b611078602052600090815260409020546001600160a01b031681565b34801561080657600080fd5b506105286108153660046152aa565b6116be565b34801561082657600080fd5b50610477610835366004614ee1565b611705565b34801561084657600080fd5b50610528610855366004614ee1565b61171f565b34801561086657600080fd5b5061050661087536600461531e565b61172a565b34801561088657600080fd5b50610506610895366004614ee1565b61176b565b3480156108a657600080fd5b506105286127f05481565b3480156108bd57600080fd5b5061201e54610528565b3480156108d357600080fd5b506105066108e23660046152aa565b6117ee565b3480156108f357600080fd5b506104ce6109023660046152aa565b611828565b34801561091357600080fd5b50610477610922366004614ee1565b611844565b34801561093357600080fd5b50610506610942366004614f28565b61191d565b34801561095357600080fd5b50610528610962366004614ee1565b611a3c565b34801561097357600080fd5b50610528610c865481565b34801561098a57600080fd5b5061050661099936600461531e565b611a84565b3480156109aa57600080fd5b50610c8c546104ce906001600160a01b031681565b3480156109cb57600080fd5b506105066109da3660046151f9565b611b03565b3480156109eb57600080fd5b506105066109fa3660046152aa565b611d71565b610506610a0d3660046153de565b611dde565b348015610a1e57600080fd5b50610528600080516020615a2d83398151915281565b348015610a4057600080fd5b50610477610a4f3660046152c2565b61245e565b348015610a6057600080fd5b506105286110775481565b348015610a7757600080fd5b506104a1612489565b348015610a8c57600080fd5b50610528610a9b366004614ee1565b6001600160a01b03166000908152611075602052604090205490565b348015610ac357600080fd5b50610506610ad2366004614efd565b6125c2565b348015610ae357600080fd5b506104b1546104ce906001600160a01b031681565b348015610b0457600080fd5b50610528600081565b348015610b1957600080fd5b50610506610b28366004615186565b612626565b348015610b3957600080fd5b50610506610b483660046152c2565b6126fe565b348015610b5957600080fd5b506105286127f15481565b348015610b7057600080fd5b50610477610b7f3660046151b3565b612896565b348015610b9057600080fd5b50610477610b9f366004614ee1565b612905565b348015610bb057600080fd5b50610528610bbf366004614ee1565b6001600160a01b03166000908152611075602052604090206001015490565b348015610bea57600080fd5b50610506610bf93660046152c2565b61291f565b348015610c0a57600080fd5b50610477610c193660046151b3565b6129e3565b348015610c2a57600080fd5b50610506610c393660046150e0565b612aa7565b348015610c4a57600080fd5b50610506610c593660046152aa565b612b10565b348015610c6a57600080fd5b50610506612bb4565b348015610c7f57600080fd5b506104a1610c8e3660046152aa565b612c41565b348015610c9f57600080fd5b50610506610cae366004614fe3565b612ef8565b348015610cbf57600080fd5b5060405160098152602001610483565b348015610cdb57600080fd5b50610506610cea366004614ee1565b61312b565b348015610cfb57600080fd5b50610506610d0a3660046152aa565b6131ae565b348015610d1b57600080fd5b50610506610d2a3660046152c2565b613232565b348015610d3b57600080fd5b50610477610d4a366004614fab565b613258565b348015610d5b57600080fd5b506105066132f1565b348015610d7057600080fd5b50610506610d7f3660046151c5565b613336565b348015610d9057600080fd5b50610506610d9f3660046151b3565b61368b565b348015610db057600080fd5b50610506610dbf3660046152aa565b613818565b348015610dd057600080fd5b50610528610ddf3660046151b3565b613852565b6000610def826138cb565b92915050565b6114638054610e0390615937565b80601f0160208091040260200160405190810160405280929190818152602001828054610e2f90615937565b8015610e7c5780601f10610e5157610100808354040283529160200191610e7c565b820191906000526020600020905b815481529060010190602001808311610e5f57829003601f168201915b505050505081565b6000818152611076602052604081205482906001600160a01b0316610ede5760405162461bcd60e51b815260206004820152600b60248201526a4e4f5f535543485f4b455960a81b60448201526064015b60405180910390fd5b600083815261107960205260409020546001600160a01b031691505b50919050565b61089a5460ff16610f235760405162461bcd60e51b8152600401610ed590615796565b80610f2e81336138d6565b80610f3e5750610f3e813361394e565b80610f67575060008181526110766020526040902054610f67906001600160a01b031633613258565b610f835760405162461bcd60e51b8152600401610ed5906156d5565b336001600160a01b0384161415610fcb5760405162461bcd60e51b815260206004820152600c60248201526b20a8282927ab22afa9a2a62360a11b6044820152606401610ed5565b60008281526110796020908152604080832080546001600160a01b0319166001600160a01b03888116918217909255611076909352818420549151869492909116917f8c5be1e5ebec7d5bd14f71427d1e84f3dd0314c0f7b2291e5b200ac8c7c3b92591a4505050565b6000611078858585858080601f01602080910402602001604051908101604052809392919081815260200183838082843760009201919091525061397092505050565b95945050505050565b61108a33612905565b806110a05750610c88546001600160a01b031633145b6110bc5760405162461bcd60e51b8152600401610ed59061570c565b6001600160a01b0381166110e25760405162461bcd60e51b8152600401610ed590615685565b610c8880546001600160a01b0319166001600160a01b0392909216919091179055565b61089a5460ff166111285760405162461bcd60e51b8152600401610ed590615796565b8261113281611844565b61114e5760405162461bcd60e51b8152600401610ed5906156ae565b8161115981336138d6565b806111695750611169813361394e565b80611192575060008181526110766020526040902054611192906001600160a01b031633613258565b6111ae5760405162461bcd60e51b8152600401610ed5906156d5565b846001600160a01b03166111c184611828565b6001600160a01b0316146112175760405162461bcd60e51b815260206004820152601c60248201527f5452414e534645525f46524f4d3a204e4f545f4b45595f4f574e4552000000006044820152606401610ed5565b61271061240754106112645760405162461bcd60e51b815260206004820152601660248201527512d15657d514905394d1915494d7d11254d05093115160521b6044820152606401610ed5565b6001600160a01b03841661128a5760405162461bcd60e51b8152600401610ed590615685565b836001600160a01b0316856001600160a01b031614156112df5760405162461bcd60e51b815260206004820152601060248201526f2a2920a729a322a92faa27afa9a2a62360811b6044820152606401610ed5565b60006112ec866000613852565b6001600160a01b03808816600090815261107560205260408082209289168252812060018101549394509192906113269088908690613a1f565b8154611342578682556113398888613b1f565b61134287613b9d565b4281116113705760018084015490830155868255611361876000613bdc565b61136b8888613b1f565b6113f8565b600019610c845414156113d75760405162461bcd60e51b815260206004820152602960248201527f526563697069656e7420616c7265616479206f776e732061206e6f6e2d6578706044820152686972696e67206b657960b81b6064820152608401610ed5565b428184600101546113e89190615861565b6113f291906158dd565b60018301555b426001840155600080845560405188916001600160a01b03808c1692908d1691600080516020615a0d83398151915291a4505050505050505050565b61144c600080516020615a2d8339815191523361245e565b6114685760405162461bcd60e51b8152600401610ed590615741565b6114806000805160206159ed83398151915282613232565b6040516001600160a01b038216907f766f6199fea59554b9ff688e413302b9200f85d74811c053c12d945ac6d8dd7a90600090a250565b6000828152609760205260409020600101546114d38133613c69565b6114dd8383613ccd565b505050565b60006114ed83611a3c565b8210801561150357506001600160a01b03831615155b6115485760405162461bcd60e51b815260206004820152601660248201527527a7262cafa7a722afa5a2acafa822a92fa7aba722a960511b6044820152606401610ed5565b6001600160a01b038316600090815261107560205260409020545b9392505050565b611582600080516020615a2d8339815191523361245e565b61159e5760405162461bcd60e51b8152600401610ed590615741565b6114dd6114658383614dc9565b6001600160a01b038116331461161b5760405162461bcd60e51b815260206004820152602f60248201527f416363657373436f6e74726f6c3a2063616e206f6e6c792072656e6f756e636560448201526e103937b632b9903337b91039b2b63360891b6064820152608401610ed5565b6116258282613d53565b5050565b611641600080516020615a2d8339815191523361245e565b61165d5760405162461bcd60e51b8152600401610ed590615741565b60408051838152602081018390527fd6867bc538320e67d7bdc35860c27c08486eb490b4fd9b820fff18fb28381d3c910160405180910390a16127f1919091556127f055565b6114dd83838360405180602001604052806000815250612aa7565b6000610c875482106117015760405162461bcd60e51b815260206004820152600c60248201526b4f55545f4f465f52414e474560a01b6044820152606401610ed5565b5090565b6000610def6000805160206159ed8339815191528361245e565b6000610def82613dba565b611742600080516020615a2d8339815191523361245e565b61175e5760405162461bcd60e51b8152600401610ed590615741565b6114dd6114638383614dc9565b611783600080516020615a2d8339815191523361245e565b61179f5760405162461bcd60e51b8152600401610ed590615741565b6117b76000805160206159ed833981519152826114b7565b6040516001600160a01b038216907f684f8a71407db0c334454ebe9c9b288549317893a20b10dc779ec5c118dcd12190600090a250565b611806600080516020615a2d8339815191523361245e565b6118225760405162461bcd60e51b8152600401610ed590615741565b610c8455565b600090815261107660205260409020546001600160a01b031690565b6001600160a01b0380821660009081526110756020526040902060010154610c8b544290911191161561191857610c8b546001600160a01b0383811660008181526110756020526040908190206001015490516370b6638f60e11b815230600482015260248101929092526044820152831515606482015291169063e16cc71e9060840160206040518083038186803b1580156118e057600080fd5b505afa1580156118f4573d6000803e3d6000fd5b505050506040513d601f19601f82011682018060405250810190610def919061528e565b919050565b600054610100900460ff166119385760005460ff161561193c565b303b155b61199f5760405162461bcd60e51b815260206004820152602e60248201527f496e697469616c697a61626c653a20636f6e747261637420697320616c72656160448201526d191e481a5b9a5d1a585b1a5e995960921b6064820152608401610ed5565b600054610100900460ff161580156119c1576000805461ffff19166101011790555b6119ca86613eda565b6119dd61089a805460ff19166001179055565b6119e988888787613fb1565b6119f38383614053565b6119fb614079565b611a076103e86127f055565b611a108861408b565b611a206380ac58cd60e01b614113565b8015611a32576000805461ff00191690555b5050505050505050565b60006001600160a01b038216611a645760405162461bcd60e51b8152600401610ed590615685565b611a6d82611844565b611a78576000611a7b565b60015b60ff1692915050565b611a9c600080516020615a2d8339815191523361245e565b611ab85760405162461bcd60e51b8152600401610ed590615741565b611ac56114648383614dc9565b507f8868e22e84ebf32da89b2ebcb0ac642816304ea3863b257f240df9098719cb978282604051611af792919061565e565b60405180910390a15050565b611b0c33611705565b80611b1b5750611b1b33612905565b611b995760405162461bcd60e51b815260206004820152604360248201527f4d6978696e526f6c65733a2063616c6c657220646f6573206e6f74206861766560448201527f20746865204b65794772616e746572206f72204c6f636b4d616e6167657220726064820152626f6c6560e81b608482015260a401610ed5565b60005b85811015611d68576000878783818110611bc657634e487b7160e01b600052603260045260246000fd5b9050602002016020810190611bdb9190614ee1565b90506000868684818110611bff57634e487b7160e01b600052603260045260246000fd5b9050602002013590506000858585818110611c2a57634e487b7160e01b600052603260045260246000fd5b9050602002016020810190611c3f9190614ee1565b90506001600160a01b038316611c675760405162461bcd60e51b8152600401610ed590615685565b6001600160a01b03831660009081526110756020526040902060018101548311611cc65760405162461bcd60e51b815260206004820152601060248201526f414c52454144595f4f574e535f4b455960801b6044820152606401610ed5565b805480611ce357611cd682614192565b508054611ce38582613b1f565b611ced8184613bdc565b6040516001600160a01b0384169082907f9d2895c45a420624de863a2f437b022d879f457bf7a829044055a10c5a6fd5e390600090a36001820184905560405181906001600160a01b03871690600090600080516020615a0d833981519152908290a450505050508080611d609061596c565b915050611b9c565b50505050505050565b611d89600080516020615a2d8339815191523361245e565b611da55760405162461bcd60e51b8152600401610ed590615741565b6040518181527f0496ed1e61eb69727f9659a8e859288db4758ffb1f744d1c1424634f90a257f49060200160405180910390a161240755565b61089a5460ff16611e015760405162461bcd60e51b8152600401610ed590615796565b610c8754610c865411611e465760405162461bcd60e51b815260206004820152600d60248201526c1313d0d2d7d4d3d31117d3d555609a1b6044820152606401610ed5565b6001600160a01b038516611e6c5760405162461bcd60e51b8152600401610ed590615685565b6001600160a01b0385166000908152611075602052604081208054909181611f0857611e9783614192565b82549150611ea58883613b1f565b600019610c84541415611ebb5750600019611ecc565b610c8454611ec99042615861565b90505b60018301819055611edd8287613bdc565b60405182906001600160a01b038a1690600090600080516020615a0d833981519152908290a4612062565b4283600101541115611fe65760001983600101541415611f865760405162461bcd60e51b815260206004820152603360248201527f412076616c6964206e6f6e2d6578706972696e67206b65792063616e206e6f746044820152722062652070757263686173656420747769636560681b6064820152608401610ed5565b610c84548360010154611f999190615861565b600184018190556040518181529091506001600160a01b038916907f872bd7c99ad5e7b6ed7f0a890f348839cb8e225c9deaa3909afedae54c93d17d9060200160405180910390a2612062565b600019610c84541415611ffc575060001961200d565b610c845461200a9042615861565b90505b6001830181905561201e8287613bdc565b876001600160a01b03167f872bd7c99ad5e7b6ed7f0a890f348839cb8e225c9deaa3909afedae54c93d17d8260405161205991815260200190565b60405180910390a25b60006120a5898988888080601f01602080910402602001604051908101604052809392919081815260200183838082843760009201919091525061397092505050565b610c835460405163939d9f1f60e01b8152600481018390526001600160a01b038b8116602483015292935091169063939d9f1f90604401600060405180830381600087803b1580156120f657600080fd5b505af1925050508015612107575060015b61214f57610c83546040516001600160a01b03909116815230907f6b18946261693dfd6c760d986b28ad2238b5b0267f8e5b6bc40a2f998e2f20ac9060200160405180910390a25b6104b1546000906001600160a01b0316156121f957506104b1546040516323b872dd60e01b8152336004820152306024820152604481018c90528b916001600160a01b03169081906323b872dd90606401602060405180830381600087803b1580156121ba57600080fd5b505af11580156121ce573d6000803e3d6000fd5b505050506040513d601f19601f820116820180604052508101906121f2919061528e565b50506121fc565b50345b818110156122415760405162461bcd60e51b8152602060048201526012602482015271494e53554646494349454e545f56414c554560701b6044820152606401610ed5565b610c89546001600160a01b0316156122c357610c8954604051639849965760e01b81526001600160a01b03909116906398499657906122909033908e908e908d908d908a908a906004016155ac565b600060405180830381600087803b1580156122aa57600080fd5b505af11580156122be573d6000803e3d6000fd5b505050505b61201e5415612451576104b1546001600160a01b031615612377576104b15461201e546040516323b872dd60e01b815230600482015233602482015260448101919091526001600160a01b039091169081906323b872dd90606401602060405180830381600087803b15801561233857600080fd5b505af115801561234c573d6000803e3d6000fd5b505050506040513d601f19601f82011682018060405250810190612370919061528e565b5050612404565b61201e5460405160009133918381818185875af1925050503d80600081146123bb576040519150601f19603f3d011682016040523d82523d6000602084013e6123c0565b606091505b50509050806124025760405162461bcd60e51b815260206004820152600e60248201526d2932b33ab732103330b4b632b21760911b6044820152606401610ed5565b505b61201e546104b154604080519283526001600160a01b03909116602083015233917f522a883b471164223f18b50f326da8671372b64b4792eac0e63d447e714c3e3b910160405180910390a25b5050505050505050505050565b60009182526097602090815260408084206001600160a01b0393909316845291905290205460ff1690565b6060611464805461249990615937565b1515905061253157610c8360009054906101000a90046001600160a01b03166001600160a01b031663cec410526040518163ffffffff1660e01b815260040160006040518083038186803b1580156124f057600080fd5b505afa158015612504573d6000803e3d6000fd5b505050506040513d6000823e601f3d908101601f1916820160405261252c919081019061535d565b905090565b611464805461253f90615937565b80601f016020809104026020016040519081016040528092919081815260200182805461256b90615937565b80156125b85780601f1061258d576101008083540402835291602001916125b8565b820191906000526020600020905b81548152906001019060200180831161259b57829003601f168201915b5050505050905090565b6125da600080516020615a2d8339815191523361245e565b6125f65760405162461bcd60e51b8152600401610ed590615741565b8161260081611844565b61261c5760405162461bcd60e51b8152600401610ed5906156ae565b6114dd83836141b6565b61089a5460ff166126495760405162461bcd60e51b8152600401610ed590615796565b6001600160a01b0382163314156126915760405162461bcd60e51b815260206004820152600c60248201526b20a8282927ab22afa9a2a62360a11b6044820152606401610ed5565b33600081815261107a602090815260408083206001600160a01b03871680855290835292819020805460ff191686151590811790915590519081529192917f17307eab39ab6107e8899845ad3d59bd9653f200f220920489ca2b5937696c31910160405180910390a35050565b612716600080516020615a2d8339815191523361245e565b6127325760405162461bcd60e51b8152600401610ed590615741565b61089a5460ff166127555760405162461bcd60e51b8152600401610ed590615796565b610c85546104b1546001600160a01b0390811690831615806127e757506000836001600160a01b03166318160ddd6040518163ffffffff1660e01b815260040160206040518083038186803b1580156127ad57600080fd5b505afa1580156127c1573d6000803e3d6000fd5b505050506040513d601f19601f820116820180604052508101906127e591906153c6565b115b6128235760405162461bcd60e51b815260206004820152600d60248201526c24a72b20a624a22faa27a5a2a760991b6044820152606401610ed5565b610c858490556104b180546001600160a01b0319166001600160a01b0385811691821790925560408051858152602081018890529284169083015260608201527f3615065ccf48367ac483ac86701248e2e5ff55bdd9be845007d34a3b68d719d49060800160405180910390a150505050565b600080610c8454836128a891906158be565b336000908152611075602052604081206001810154929350916128cc9042906158dd565b9050808310156128ea576128e586836000015485613336565b6128f9565b6128f933878460000154611105565b50600195945050505050565b6000610def600080516020615a2d8339815191528361245e565b6000828152611076602052604090205482906001600160a01b03166129745760405162461bcd60e51b815260206004820152600b60248201526a4e4f5f535543485f4b455960a81b6044820152606401610ed5565b61297e83336138d6565b8061298d575061298d33612905565b6129d95760405162461bcd60e51b815260206004820152601f60248201527f554e415554484f52495a45445f4b45595f4d414e414745525f555044415445006044820152606401610ed5565b6114dd8383613bdc565b60006129ee33612905565b80612a045750610c88546001600160a01b031633145b612a205760405162461bcd60e51b8152600401610ed59061570c565b6104b15460405163095ea7b360e01b81526001600160a01b038581166004830152602482018590529091169063095ea7b390604401602060405180830381600087803b158015612a6f57600080fd5b505af1158015612a83573d6000803e3d6000fd5b505050506040513d601f19601f82011682018060405250810190611563919061528e565b612ab2848484611105565b612abe848484846142b1565b612b0a5760405162461bcd60e51b815260206004820152601d60248201527f4e4f4e5f434f4d504c49414e545f4552433732315f52454345495645520000006044820152606401610ed5565b50505050565b612b28600080516020615a2d8339815191523361245e565b612b445760405162461bcd60e51b8152600401610ed590615741565b610c87548111612bae5760405162461bcd60e51b815260206004820152602f60248201527f6d61784e756d6265724f664b65797320697320736d616c6c6572207468616e2060448201526e6578697374696e6720737570706c7960881b6064820152608401610ed5565b610c8655565b612bcc600080516020615a2d8339815191523361245e565b612be85760405162461bcd60e51b8152600401610ed590615741565b61089a5460ff16612c0b5760405162461bcd60e51b8152600401610ed590615796565b6040517f25a311358326fb18c62efc24bc28d3126acee8d2a67fd8b2145b757dc8bd1bc190600090a161089a805460ff19169055565b606080806000612c5030614370565b905060608515612c6a57612c63866145cb565b9250612c7d565b6040518060200160405280600081525092505b610c8c546001600160a01b031615612d6b576000612c9a87611828565b90506000612cc1826001600160a01b03166000908152611075602052604090206001015490565b610c8c5460405163988b93ad60e01b81523060048201523360248201526001600160a01b038581166044830152606482018c90526084820184905292935091169063988b93ad9060a40160006040518083038186803b158015612d2357600080fd5b505afa158015612d37573d6000803e3d6000fd5b505050506040513d6000823e601f3d908101601f19168201604052612d5f919081019061535d565b98975050505050505050565b6114658054612d7990615937565b15159050612e2f57610c8360009054906101000a90046001600160a01b03166001600160a01b031663a998e9fb6040518163ffffffff1660e01b815260040160006040518083038186803b158015612dd057600080fd5b505afa158015612de4573d6000803e3d6000fd5b505050506040513d6000823e601f3d908101601f19168201604052612e0c919081019061535d565b9350604051806040016040528060018152602001602f60f81b8152509050612ee2565b6114658054612e3d90615937565b80601f0160208091040260200160405190810160405280929190818152602001828054612e6990615937565b8015612eb65780601f10612e8b57610100808354040283529160200191612eb6565b820191906000526020600020905b815481529060010190602001808311612e9957829003601f168201915b505050505093506040518060200160405280600081525090506040518060200160405280600081525091505b612eee84838386614713565b9695505050505050565b612f10600080516020615a2d8339815191523361245e565b612f2c5760405162461bcd60e51b8152600401610ed590615741565b6001600160a01b0384161580612f4b57506001600160a01b0384163b15155b612f975760405162461bcd60e51b815260206004820152601860248201527f494e56414c49445f4f4e5f4b45595f534f4c445f484f4f4b00000000000000006044820152606401610ed5565b6001600160a01b0383161580612fb657506001600160a01b0383163b15155b6130025760405162461bcd60e51b815260206004820152601a60248201527f494e56414c49445f4f4e5f4b45595f43414e43454c5f484f4f4b0000000000006044820152606401610ed5565b6001600160a01b038216158061302157506001600160a01b0382163b15155b61306d5760405162461bcd60e51b815260206004820152601960248201527f494e56414c49445f4f4e5f56414c49445f4b45595f484f4f4b000000000000006044820152606401610ed5565b6001600160a01b038116158061308c57506001600160a01b0381163b15155b6130d85760405162461bcd60e51b815260206004820152601960248201527f494e56414c49445f4f4e5f544f4b454e5f5552495f484f4f4b000000000000006044820152606401610ed5565b610c8980546001600160a01b039586166001600160a01b031991821617909155610c8a805494861694821694909417909355610c8c8054918516918416919091179055610c8b8054919093169116179055565b613143600080516020615a2d8339815191523361245e565b61315f5760405162461bcd60e51b8152600401610ed590615741565b613177600080516020615a2d833981519152826114b7565b6040516001600160a01b038216907f91d5c045d5bd98bf59a379b259ebca05b93bf79af1845fdf87e3172385d4c7f790600090a250565b806131b981336138d6565b806131c957506131c9813361394e565b806131f25750600081815261107660205260409020546131f2906001600160a01b031633613258565b61320e5760405162461bcd60e51b8152600401610ed5906156d5565b600061321983611828565b9050600061322682613dba565b9050612b0a82826141b6565b60008281526097602052604090206001015461324e8133613c69565b6114dd8383613d53565b6001600160a01b03808316600090815261107560209081526040808320548084526110789092528220549192909116806132be575050506001600160a01b03808316600090815261107a602090815260408083209385168352929052205460ff16610def565b6001600160a01b03908116600090815261107a602090815260408083209387168352929052205460ff169150610def9050565b613309600080516020615a2d833981519152336115ab565b60405133907f42885193b8178d25fca25a38e6fcc93918501e91be06d85e0c8afb3bad95238090600090a2565b61089a5460ff166133595760405162461bcd60e51b8152600401610ed590615796565b8161336481336138d6565b806133745750613374813361394e565b8061339d57506000818152611076602052604090205461339d906001600160a01b031633613258565b6133b95760405162461bcd60e51b8152600401610ed5906156d5565b61271061240754106134065760405162461bcd60e51b815260206004820152601660248201527512d15657d514905394d1915494d7d11254d05093115160521b6044820152606401610ed5565b6001600160a01b03841661342c5760405162461bcd60e51b8152600401610ed590615685565b600083815261107660205260409020546001600160a01b031661344e81611844565b61346a5760405162461bcd60e51b8152600401610ed5906156ae565b846001600160a01b0316816001600160a01b031614156134bf5760405162461bcd60e51b815260206004820152601060248201526f2a2920a729a322a92faa27afa9a2a62360811b6044820152606401610ed5565b6001600160a01b038082166000908152611075602052604080822092881682528120805460018401549192909181906134f99042906158dd565b90506000613507878a613852565b90506000613515828b615861565b9050828110156135335789935061352e8b826000613a1f565b61357e565b61353d8884613852565b915061354982846158dd565b4260018901556040519094508b907f59f2fe866dd27a1c2d34115520888c3150365cbc931aab97fa88c4b9ab40b79590600090a25b846135c55761358c86614192565b8554945061359a8c86613b1f565b60405185906001600160a01b038e1690600090600080516020615a0d833981519152908290a46135db565b428660010154116135db576135db856000613bdc565b6135e785856001613a1f565b848c6001600160a01b0316896001600160a01b0316600080516020615a0d83398151915260405160405180910390a4613631888d87604051806020016040528060008152506142b1565b61367d5760405162461bcd60e51b815260206004820152601d60248201527f4e4f4e5f434f4d504c49414e545f4552433732315f52454345495645520000006044820152606401610ed5565b505050505050505050505050565b61369433612905565b806136aa5750610c88546001600160a01b031633145b6136c65760405162461bcd60e51b8152600401610ed59061570c565b60006001600160a01b0383166136dd575047613757565b6040516370a0823160e01b81523060048201526001600160a01b038416906370a082319060240160206040518083038186803b15801561371c57600080fd5b505afa158015613730573d6000803e3d6000fd5b505050506040513d601f19601f8201168201806040525081019061375491906153c6565b90505b600082158061376557508183115b156137b457600082116137ad5760405162461bcd60e51b815260206004820152601060248201526f4e4f545f454e4f5547485f46554e445360801b6044820152606401610ed5565b50806137b7565b50815b610c88546040518281526001600160a01b039182169186169033907f342e7ff505a8a0364cd0dc2ff195c315e43bce86b204846ecd36913e117b109e9060200160405180910390a4610c8854612b0a9085906001600160a01b031683614745565b613830600080516020615a2d8339815191523361245e565b61384c5760405162461bcd60e51b8152600401610ed590615741565b61201e55565b600061385d83611844565b61386957506000610def565b6001600160a01b0383166000908152611075602052604081209080846138a05742836001015461389991906158dd565b91506138a4565b8491505b61271061240754836138b691906158be565b6138c0919061589e565b9350610def92505050565b6000610def82614781565b600082815261107860205260408120546001600160a01b03838116911614806139395750600083815261107860205260409020546001600160a01b03161580156139395750816001600160a01b031661392e84611828565b6001600160a01b0316145b1561394657506001610def565b506000610def565b60009182526110796020526040909120546001600160a01b0391821691161490565b610c89546000906001600160a01b031615613a1357610c895460405163221c1fd160e01b81526001600160a01b039091169063221c1fd1906139bc9033908890889088906004016155f7565b60206040518083038186803b1580156139d457600080fd5b505afa1580156139e8573d6000803e3d6000fd5b505050506040513d601f19601f82011682018060405250810190613a0c91906153c6565b9050611563565b50610c85549392505050565b6000613a2a84611828565b90506001600160a01b038116613a755760405162461bcd60e51b815260206004820152601060248201526f4e4f4e5f4558495354454e545f4b455960801b6044820152606401610ed5565b6001600160a01b03811660009081526110756020526040812060018101549091613a9e84611844565b90508415613aca578015613ac057613ab68683615861565b6001840155613ada565b613ab68642615861565b613ad486836158dd565b60018401555b60408051878152861515602082015288917fe9408df99703ae33a9d01185bcad328ea8683fb1f920da9c30959c192f21b5b3910160405180910390a250505050505050565b6001600160a01b0382166000908152611075602090815260409182902082518084019093528054835260010154908201819052613b6d576110778054906000613b678361596c565b91905055505b5060009081526110766020526040902080546001600160a01b0319166001600160a01b0392909216919091179055565b600081815261107960205260409020546001600160a01b031615613bd95760008181526110796020526040902080546001600160a01b03191690555b50565b600082815261107860205260409020546001600160a01b038281169116146116255760008281526110786020526040902080546001600160a01b0319166001600160a01b038316179055613c2f82613b9d565b6040516001600160a01b0382169083907f9d2895c45a420624de863a2f437b022d879f457bf7a829044055a10c5a6fd5e390600090a35050565b613c73828261245e565b61162557613c8b816001600160a01b0316601461478c565b613c9683602061478c565b604051602001613ca7929190615537565b60408051601f198184030181529082905262461bcd60e51b8252610ed591600401615672565b613cd7828261245e565b6116255760008281526097602090815260408083206001600160a01b03851684529091529020805460ff19166001179055613d0f3390565b6001600160a01b0316816001600160a01b0316837f2f8788117e7eff1d82e926ec794901d17c78024a50270940304540a733656f0d60405160405180910390a45050565b613d5d828261245e565b156116255760008281526097602090815260408083206001600160a01b0385168085529252808320805460ff1916905551339285917ff6391f5c32d9c69d2a47ea670b442974b53935d1edc7fd64eb21e047a839171b9190a45050565b600081613dc681611844565b613de25760405162461bcd60e51b8152600401610ed5906156ae565b6001600160a01b038316600090815261107560205260409020610c84546000191415613e1457610c8554925050610efa565b6000428260010154613e2691906158dd565b9050610c84546127f15482613e3b9190615861565b10613e4b57610c85549350613e6b565b610c845481610c8554613e5e91906158be565b613e68919061589e565b93505b6127f1541580613e8a5750610c84546127f154613e889083615861565b105b15613ed25760006127106127f054610c8554613ea691906158be565b613eb0919061589e565b905080851115613ecb57613ec481866158dd565b9450613ed0565b600094505b505b505050919050565b6104b180546001600160a01b0319166001600160a01b0383169081179091551580613f7557506000816001600160a01b03166318160ddd6040518163ffffffff1660e01b815260040160206040518083038186803b158015613f3b57600080fd5b505afa158015613f4f573d6000803e3d6000fd5b505050506040513d601f19601f82011682018060405250810190613f7391906153c6565b115b613bd95760405162461bcd60e51b815260206004820152600d60248201526c24a72b20a624a22faa27a5a2a760991b6044820152606401610ed5565b63bbf81e008311156140055760405162461bcd60e51b815260206004820152601860248201527f4d41585f45585049524154494f4e5f3130305f594541525300000000000000006044820152606401610ed5565b610c838054336001600160a01b031991821617909155610c8880549091166001600160a01b038616179055821561403c5782614040565b6000195b610c8455610c8591909155610c86555050565b61405b61496d565b6140686114638383614dc9565b50611625635b5e139f60e01b614113565b61408963780e9d6360e01b614113565b565b6140a3600080516020615a2d833981519152806149a4565b6140c96000805160206159ed833981519152600080516020615a2d8339815191526149a4565b6140d281612905565b6140ee576140ee600080516020615a2d833981519152826149ef565b6140f781611705565b613bd957613bd96000805160206159ed833981519152826149ef565b6001600160e01b0319808216141561416d5760405162461bcd60e51b815260206004820152601c60248201527f4552433136353a20696e76616c696420696e74657266616365206964000000006044820152606401610ed5565b6001600160e01b0319166000908152606560205260409020805460ff19166001179055565b8054613bd957610c8780549060006141a98361596c565b9091555050610c87549055565b6001600160a01b0382166000818152611075602052604090819020805491519092339290917f0a7068a9989857441c039a14a42b67ed71dd1fcfe5a9b17cc87b252e47bce5289061420a9087815260200190565b60405180910390a44260018201558115614236576104b154614236906001600160a01b03168484614745565b610c8a546001600160a01b0316156114dd57610c8a5460405163b499b6c560e01b81523360048201526001600160a01b038581166024830152604482018590529091169063b499b6c590606401600060405180830381600087803b15801561429d57600080fd5b505af1158015611d68573d6000803e3d6000fd5b60006001600160a01b0384163b6142ca57506001614368565b604051630a85bd0160e11b81526000906001600160a01b0386169063150b7a02906142ff9033908a908990899060040161562b565b602060405180830381600087803b15801561431957600080fd5b505af115801561432d573d6000803e3d6000fd5b505050506040513d601f19601f820116820180604052508101906143519190615302565b6001600160e01b031916630a85bd0160e11b149150505b949350505050565b604080518082018252601081526f181899199a1a9b1b9c1cb0b131b232b360811b60208201528151602a80825260608281019094526001600160a01b0385169291600091602082018180368337019050509050600360fc1b816000815181106143e957634e487b7160e01b600052603260045260246000fd5b60200101906001600160f81b031916908160001a905350600f60fb1b8160018151811061442657634e487b7160e01b600052603260045260246000fd5b60200101906001600160f81b031916908160001a90535060005b60148110156145c2578260048561445884600c615861565b6020811061447657634e487b7160e01b600052603260045260246000fd5b1a60f81b6001600160f81b031916901c60f81c60ff16815181106144aa57634e487b7160e01b600052603260045260246000fd5b01602001516001600160f81b031916826144c58360026158be565b6144d0906002615861565b815181106144ee57634e487b7160e01b600052603260045260246000fd5b60200101906001600160f81b031916908160001a905350828461451283600c615861565b6020811061453057634e487b7160e01b600052603260045260246000fd5b825191901a600f1690811061455557634e487b7160e01b600052603260045260246000fd5b01602001516001600160f81b031916826145708360026158be565b61457b906003615861565b8151811061459957634e487b7160e01b600052603260045260246000fd5b60200101906001600160f81b031916908160001a905350806145ba8161596c565b915050614440565b50949350505050565b606081806145f25750506040805180820190915260018152600360fc1b6020820152919050565b8260005b811561461c57806146068161596c565b91506146159050600a8361589e565b91506145f6565b6000816001600160401b0381111561464457634e487b7160e01b600052604160045260246000fd5b6040519080825280601f01601f19166020018201604052801561466e576020820181803683370190505b509050815b8415614709576146846001826158dd565b90506000614693600a8761589e565b61469e90600a6158be565b6146a890876158dd565b6146b3906030615879565b905060008160f81b9050808484815181106146de57634e487b7160e01b600052603260045260246000fd5b60200101906001600160f81b031916908160001a905350614700600a8861589e565b96505050614673565b5095945050505050565b60608484848460405160200161472c94939291906154e0565b6040516020818303038152906040529050949350505050565b80156114dd576001600160a01b03831661476c576114dd6001600160a01b038316826149f9565b82612b0a6001600160a01b0382168484614b12565b6000610def82614b64565b6060600061479b8360026158be565b6147a6906002615861565b6001600160401b038111156147cb57634e487b7160e01b600052604160045260246000fd5b6040519080825280601f01601f1916602001820160405280156147f5576020820181803683370190505b509050600360fc1b8160008151811061481e57634e487b7160e01b600052603260045260246000fd5b60200101906001600160f81b031916908160001a905350600f60fb1b8160018151811061485b57634e487b7160e01b600052603260045260246000fd5b60200101906001600160f81b031916908160001a905350600061487f8460026158be565b61488a906001615861565b90505b600181111561491e576f181899199a1a9b1b9c1cb0b131b232b360811b85600f16601081106148cc57634e487b7160e01b600052603260045260246000fd5b1a60f81b8282815181106148f057634e487b7160e01b600052603260045260246000fd5b60200101906001600160f81b031916908160001a90535060049490941c9361491781615920565b905061488d565b5083156115635760405162461bcd60e51b815260206004820181905260248201527f537472696e67733a20686578206c656e67746820696e73756666696369656e746044820152606401610ed5565b600054610100900460ff166149945760405162461bcd60e51b8152600401610ed5906157bf565b61499c614b89565b614089614b89565b600082815260976020526040808220600101805490849055905190918391839186917fbd79b86ffe0ab8e8776151514217cd7cacd52c909f66475c3af44e129f0b00ff9190a4505050565b6116258282613ccd565b80471015614a495760405162461bcd60e51b815260206004820152601d60248201527f416464726573733a20696e73756666696369656e742062616c616e63650000006044820152606401610ed5565b6000826001600160a01b03168260405160006040518083038185875af1925050503d8060008114614a96576040519150601f19603f3d011682016040523d82523d6000602084013e614a9b565b606091505b50509050806114dd5760405162461bcd60e51b815260206004820152603a60248201527f416464726573733a20756e61626c6520746f2073656e642076616c75652c207260448201527f6563697069656e74206d617920686176652072657665727465640000000000006064820152608401610ed5565b604080516001600160a01b038416602482015260448082018490528251808303909101815260649091019091526020810180516001600160e01b031663a9059cbb60e01b1790526114dd908490614bb0565b60006001600160e01b03198216637965db0b60e01b1480610def5750610def82614c82565b600054610100900460ff166140895760405162461bcd60e51b8152600401610ed5906157bf565b6000614c05826040518060400160405280602081526020017f5361666545524332303a206c6f772d6c6576656c2063616c6c206661696c6564815250856001600160a01b0316614cbe9092919063ffffffff16565b8051909150156114dd5780806020019051810190614c23919061528e565b6114dd5760405162461bcd60e51b815260206004820152602a60248201527f5361666545524332303a204552433230206f7065726174696f6e20646964206e6044820152691bdd081cdd58d8d9595960b21b6064820152608401610ed5565b60006301ffc9a760e01b6001600160e01b031983161480610def5750506001600160e01b03191660009081526065602052604090205460ff1690565b6060614368848460008585843b614d175760405162461bcd60e51b815260206004820152601d60248201527f416464726573733a2063616c6c20746f206e6f6e2d636f6e74726163740000006044820152606401610ed5565b600080866001600160a01b03168587604051614d3391906154c4565b60006040518083038185875af1925050503d8060008114614d70576040519150601f19603f3d011682016040523d82523d6000602084013e614d75565b606091505b5091509150614d85828286614d90565b979650505050505050565b60608315614d9f575081611563565b825115614daf5782518084602001fd5b8160405162461bcd60e51b8152600401610ed59190615672565b828054614dd590615937565b90600052602060002090601f016020900481019282614df75760008555614e3d565b82601f10614e105782800160ff19823516178555614e3d565b82800160010185558215614e3d579182015b82811115614e3d578235825591602001919060010190614e22565b506117019291505b808211156117015760008155600101614e45565b60008083601f840112614e6a578182fd5b5081356001600160401b03811115614e80578182fd5b6020830191508360208260051b8501011115614e9b57600080fd5b9250929050565b60008083601f840112614eb3578182fd5b5081356001600160401b03811115614ec9578182fd5b602083019150836020828501011115614e9b57600080fd5b600060208284031215614ef2578081fd5b8135611563816159b3565b60008060408385031215614f0f578081fd5b8235614f1a816159b3565b946020939093013593505050565b600080600080600080600060c0888a031215614f42578283fd5b8735614f4d816159b3565b9650602088013595506040880135614f64816159b3565b9450606088013593506080880135925060a08801356001600160401b03811115614f8c578283fd5b614f988a828b01614ea2565b989b979a50959850939692959293505050565b60008060408385031215614fbd578182fd5b8235614fc8816159b3565b91506020830135614fd8816159b3565b809150509250929050565b60008060008060808587031215614ff8578384fd5b8435615003816159b3565b93506020850135615013816159b3565b92506040850135615023816159b3565b91506060850135615033816159b3565b939692955090935050565b60008060008060608587031215615053578384fd5b843561505e816159b3565b9350602085013561506e816159b3565b925060408501356001600160401b03811115615088578283fd5b61509487828801614ea2565b95989497509550505050565b6000806000606084860312156150b4578081fd5b83356150bf816159b3565b925060208401356150cf816159b3565b929592945050506040919091013590565b600080600080608085870312156150f5578182fd5b8435615100816159b3565b93506020850135615110816159b3565b92506040850135915060608501356001600160401b03811115615131578182fd5b8501601f81018713615141578182fd5b803561515461514f8261583a565b61580a565b818152886020838501011115615168578384fd5b81602084016020830137908101602001929092525092959194509250565b60008060408385031215615198578182fd5b82356151a3816159b3565b91506020830135614fd8816159c8565b60008060408385031215614f0f578182fd5b6000806000606084860312156151d9578081fd5b83356151e4816159b3565b95602085013595506040909401359392505050565b60008060008060008060608789031215615211578384fd5b86356001600160401b0380821115615227578586fd5b6152338a838b01614e59565b9098509650602089013591508082111561524b578586fd5b6152578a838b01614e59565b9096509450604089013591508082111561526f578384fd5b5061527c89828a01614e59565b979a9699509497509295939492505050565b60006020828403121561529f578081fd5b8151611563816159c8565b6000602082840312156152bb578081fd5b5035919050565b600080604083850312156152d4578182fd5b823591506020830135614fd8816159b3565b6000602082840312156152f7578081fd5b8135611563816159d6565b600060208284031215615313578081fd5b8151611563816159d6565b60008060208385031215615330578182fd5b82356001600160401b03811115615345578283fd5b61535185828601614ea2565b90969095509350505050565b60006020828403121561536e578081fd5b81516001600160401b03811115615383578182fd5b8201601f81018413615393578182fd5b80516153a161514f8261583a565b8181528560208385010111156153b5578384fd5b6110788260208301602086016158f4565b6000602082840312156153d7578081fd5b5051919050565b60008060008060008060a087890312156153f6578384fd5b863595506020870135615408816159b3565b94506040870135615418816159b3565b93506060870135615428816159b3565b925060808701356001600160401b03811115615442578283fd5b61527c89828a01614ea2565b60008060408385031215615460578182fd5b50508035926020909101359150565b81835281816020850137506000828201602090810191909152601f909101601f19169091010190565b600081518084526154b08160208601602086016158f4565b601f01601f19169290920160200192915050565b600082516154d68184602087016158f4565b9190910192915050565b600085516154f2818460208a016158f4565b855190830190615506818360208a016158f4565b85519101906155198183602089016158f4565b845191019061552c8183602088016158f4565b019695505050505050565b7f416363657373436f6e74726f6c3a206163636f756e742000000000000000000081526000835161556f8160178501602088016158f4565b7001034b99036b4b9b9b4b733903937b6329607d1b60179184019182015283516155a08160288401602088016158f4565b01602801949350505050565b6001600160a01b03888116825287811660208301528616604082015260c0606082018190526000906155e1908301868861546f565b60808301949094525060a0015295945050505050565b6001600160a01b038581168252848116602083015283166040820152608060608201819052600090612eee90830184615498565b6001600160a01b0385811682528416602082015260408101839052608060608201819052600090612eee90830184615498565b60208152600061436860208301848661546f565b6020815260006115636020830184615498565b6020808252600f908201526e494e56414c49445f4144445245535360881b604082015260600190565b6020808252600d908201526c12d15657d393d517d590531251609a1b604082015260600190565b6020808252601c908201527f4f4e4c595f4b45595f4d414e414745525f4f525f415050524f56454400000000604082015260600190565b6020808252818101527f4f4e4c595f4c4f434b5f4d414e414745525f4f525f42454e4546494349415259604082015260600190565b60208082526035908201527f4d6978696e526f6c65733a2063616c6c657220646f6573206e6f74206861766560408201527420746865204c6f636b4d616e6167657220726f6c6560581b606082015260800190565b6020808252600f908201526e1313d0d2d7d11154149150d0551151608a1b604082015260600190565b6020808252602b908201527f496e697469616c697a61626c653a20636f6e7472616374206973206e6f74206960408201526a6e697469616c697a696e6760a81b606082015260800190565b604051601f8201601f191681016001600160401b03811182821017156158325761583261599d565b604052919050565b60006001600160401b038211156158535761585361599d565b50601f01601f191660200190565b6000821982111561587457615874615987565b500190565b600060ff821660ff84168060ff0382111561589657615896615987565b019392505050565b6000826158b957634e487b7160e01b81526012600452602481fd5b500490565b60008160001904831182151516156158d8576158d8615987565b500290565b6000828210156158ef576158ef615987565b500390565b60005b8381101561590f5781810151838201526020016158f7565b83811115612b0a5750506000910152565b60008161592f5761592f615987565b506000190190565b600181811c9082168061594b57607f821691505b60208210811415610efa57634e487b7160e01b600052602260045260246000fd5b600060001982141561598057615980615987565b5060010190565b634e487b7160e01b600052601160045260246000fd5b634e487b7160e01b600052604160045260246000fd5b6001600160a01b0381168114613bd957600080fd5b8015158114613bd957600080fd5b6001600160e01b031981168114613bd957600080fdfeb309c40027c81d382c3b58d8de24207a34b27e1db369b1434e4a11311f154b5eddf252ad1be2c89b69c2b068fc378daa952ba7f163c4a11628f55a4df523b3efb89cdd26cddd51301940bf2715f765b626b8a5a9e2681ac62dc83cc2db2530c0a2646970667358221220a966aec0ea72cc36f07dd0afa1e277f5eb266146078b7651e59c22655e0639ae64736f6c63430008040033",
  "linkReferences": {},
  "deployedLinkReferences": {}
}