{
  "_format": "hh-sol-artifact-1",
  "contractName": "PublicLock",
  "sourceName": "contracts/PublicLock.sol",
  "abi": [
    {
      "anonymous": false,
      "inputs": [
        {
          "indexed": true,
          "internalType": "address",
          "name": "owner",
          "type": "address"
        },
        {
          "indexed": true,
          "internalType": "address",
          "name": "approved",
          "type": "address"
        },
        {
          "indexed": true,
          "internalType": "uint256",
          "name": "tokenId",
          "type": "uint256"
        }
      ],
      "name": "Approval",
      "type": "event"
    },
    {
      "anonymous": false,
      "inputs": [
        {
          "indexed": true,
          "internalType": "address",
          "name": "owner",
          "type": "address"
        },
        {
          "indexed": true,
          "internalType": "address",
          "name": "operator",
          "type": "address"
        },
        {
          "indexed": false,
          "internalType": "bool",
          "name": "approved",
          "type": "bool"
        }
      ],
      "name": "ApprovalForAll",
      "type": "event"
    },
    {
      "anonymous": false,
      "inputs": [
        {
          "indexed": true,
          "internalType": "uint256",
          "name": "tokenId",
          "type": "uint256"
        },
        {
          "indexed": true,
          "internalType": "address",
          "name": "owner",
          "type": "address"
        },
        {
          "indexed": true,
          "internalType": "address",
          "name": "sendTo",
          "type": "address"
        },
        {
          "indexed": false,
          "internalType": "uint256",
          "name": "refund",
          "type": "uint256"
        }
      ],
      "name": "CancelKey",
      "type": "event"
    },
    {
      "anonymous": false,
      "inputs": [],
      "name": "Disable",
      "type": "event"
    },
    {
      "anonymous": false,
      "inputs": [
        {
          "indexed": true,
          "internalType": "uint256",
          "name": "_tokenId",
          "type": "uint256"
        },
        {
          "indexed": false,
          "internalType": "uint256",
          "name": "_amount",
          "type": "uint256"
        },
        {
          "indexed": false,
          "internalType": "bool",
          "name": "_timeAdded",
          "type": "bool"
        }
      ],
      "name": "ExpirationChanged",
      "type": "event"
    },
    {
      "anonymous": false,
      "inputs": [
        {
          "indexed": true,
          "internalType": "uint256",
          "name": "tokenId",
          "type": "uint256"
        }
      ],
      "name": "ExpireKey",
      "type": "event"
    },
    {
      "anonymous": false,
      "inputs": [
        {
          "indexed": true,
          "internalType": "address",
          "name": "receiver",
          "type": "address"
        },
        {
          "indexed": false,
          "internalType": "uint256",
          "name": "refundedAmount",
          "type": "uint256"
        },
        {
          "indexed": false,
          "internalType": "address",
          "name": "tokenAddress",
          "type": "address"
        }
      ],
      "name": "GasRefunded",
      "type": "event"
    },
    {
      "anonymous": false,
      "inputs": [
        {
          "indexed": true,
          "internalType": "address",
          "name": "account",
          "type": "address"
        }
      ],
      "name": "KeyGranterAdded",
      "type": "event"
    },
    {
      "anonymous": false,
      "inputs": [
        {
          "indexed": true,
          "internalType": "address",
          "name": "account",
          "type": "address"
        }
      ],
      "name": "KeyGranterRemoved",
      "type": "event"
    },
    {
      "anonymous": false,
      "inputs": [
        {
          "indexed": true,
          "internalType": "uint256",
          "name": "_tokenId",
          "type": "uint256"
        },
        {
          "indexed": true,
          "internalType": "address",
          "name": "_newManager",
          "type": "address"
        }
      ],
      "name": "KeyManagerChanged",
      "type": "event"
    },
    {
      "anonymous": false,
      "inputs": [
        {
          "indexed": true,
          "internalType": "address",
          "name": "account",
          "type": "address"
        }
      ],
      "name": "LockManagerAdded",
      "type": "event"
    },
    {
      "anonymous": false,
      "inputs": [
        {
          "indexed": true,
          "internalType": "address",
          "name": "account",
          "type": "address"
        }
      ],
      "name": "LockManagerRemoved",
      "type": "event"
    },
    {
      "anonymous": false,
      "inputs": [
        {
          "indexed": false,
          "internalType": "string",
          "name": "symbol",
          "type": "string"
        }
      ],
      "name": "NewLockSymbol",
      "type": "event"
    },
    {
      "anonymous": false,
      "inputs": [
        {
          "indexed": false,
          "internalType": "uint256",
          "name": "oldKeyPrice",
          "type": "uint256"
        },
        {
          "indexed": false,
          "internalType": "uint256",
          "name": "keyPrice",
          "type": "uint256"
        },
        {
          "indexed": false,
          "internalType": "address",
          "name": "oldTokenAddress",
          "type": "address"
        },
        {
          "indexed": false,
          "internalType": "address",
          "name": "tokenAddress",
          "type": "address"
        }
      ],
      "name": "PricingChanged",
      "type": "event"
    },
    {
      "anonymous": false,
      "inputs": [
        {
          "indexed": false,
          "internalType": "uint256",
          "name": "freeTrialLength",
          "type": "uint256"
        },
        {
          "indexed": false,
          "internalType": "uint256",
          "name": "refundPenaltyBasisPoints",
          "type": "uint256"
        }
      ],
      "name": "RefundPenaltyChanged",
      "type": "event"
    },
    {
      "anonymous": false,
      "inputs": [
        {
          "indexed": true,
          "internalType": "address",
          "name": "owner",
          "type": "address"
        },
        {
          "indexed": false,
          "internalType": "uint256",
          "name": "newExpiration",
          "type": "uint256"
        }
      ],
      "name": "RenewKeyPurchase",
      "type": "event"
    },
    {
      "anonymous": false,
      "inputs": [
        {
          "indexed": true,
          "internalType": "bytes32",
          "name": "role",
          "type": "bytes32"
        },
        {
          "indexed": true,
          "internalType": "bytes32",
          "name": "previousAdminRole",
          "type": "bytes32"
        },
        {
          "indexed": true,
          "internalType": "bytes32",
          "name": "newAdminRole",
          "type": "bytes32"
        }
      ],
      "name": "RoleAdminChanged",
      "type": "event"
    },
    {
      "anonymous": false,
      "inputs": [
        {
          "indexed": true,
          "internalType": "bytes32",
          "name": "role",
          "type": "bytes32"
        },
        {
          "indexed": true,
          "internalType": "address",
          "name": "account",
          "type": "address"
        },
        {
          "indexed": true,
          "internalType": "address",
          "name": "sender",
          "type": "address"
        }
      ],
      "name": "RoleGranted",
      "type": "event"
    },
    {
      "anonymous": false,
      "inputs": [
        {
          "indexed": true,
          "internalType": "bytes32",
          "name": "role",
          "type": "bytes32"
        },
        {
          "indexed": true,
          "internalType": "address",
          "name": "account",
          "type": "address"
        },
        {
          "indexed": true,
          "internalType": "address",
          "name": "sender",
          "type": "address"
        }
      ],
      "name": "RoleRevoked",
      "type": "event"
    },
    {
      "anonymous": false,
      "inputs": [
        {
          "indexed": true,
          "internalType": "address",
          "name": "from",
          "type": "address"
        },
        {
          "indexed": true,
          "internalType": "address",
          "name": "to",
          "type": "address"
        },
        {
          "indexed": true,
          "internalType": "uint256",
          "name": "tokenId",
          "type": "uint256"
        }
      ],
      "name": "Transfer",
      "type": "event"
    },
    {
      "anonymous": false,
      "inputs": [
        {
          "indexed": false,
          "internalType": "uint256",
          "name": "transferFeeBasisPoints",
          "type": "uint256"
        }
      ],
      "name": "TransferFeeChanged",
      "type": "event"
    },
    {
      "anonymous": false,
      "inputs": [
        {
          "indexed": true,
          "internalType": "address",
          "name": "lockAddress",
          "type": "address"
        },
        {
          "indexed": false,
          "internalType": "address",
          "name": "unlockAddress",
          "type": "address"
        }
      ],
      "name": "UnlockCallFailed",
      "type": "event"
    },
    {
      "anonymous": false,
      "inputs": [
        {
          "indexed": true,
          "internalType": "address",
          "name": "sender",
          "type": "address"
        },
        {
          "indexed": true,
          "internalType": "address",
          "name": "tokenAddress",
          "type": "address"
        },
        {
          "indexed": true,
          "internalType": "address",
          "name": "beneficiary",
          "type": "address"
        },
        {
          "indexed": false,
          "internalType": "uint256",
          "name": "amount",
          "type": "uint256"
        }
      ],
      "name": "Withdrawal",
      "type": "event"
    },
    {
      "inputs": [],
      "name": "DEFAULT_ADMIN_ROLE",
      "outputs": [
        {
          "internalType": "bytes32",
          "name": "",
          "type": "bytes32"
        }
      ],
      "stateMutability": "view",
      "type": "function"
    },
    {
      "inputs": [],
      "name": "KEY_GRANTER_ROLE",
      "outputs": [
        {
          "internalType": "bytes32",
          "name": "",
          "type": "bytes32"
        }
      ],
      "stateMutability": "view",
      "type": "function"
    },
    {
      "inputs": [],
      "name": "LOCK_MANAGER_ROLE",
      "outputs": [
        {
          "internalType": "bytes32",
          "name": "",
          "type": "bytes32"
        }
      ],
      "stateMutability": "view",
      "type": "function"
    },
    {
      "inputs": [
        {
          "internalType": "address",
          "name": "account",
          "type": "address"
        }
      ],
      "name": "addKeyGranter",
      "outputs": [],
      "stateMutability": "nonpayable",
      "type": "function"
    },
    {
      "inputs": [
        {
          "internalType": "address",
          "name": "account",
          "type": "address"
        }
      ],
      "name": "addLockManager",
      "outputs": [],
      "stateMutability": "nonpayable",
      "type": "function"
    },
    {
      "inputs": [
        {
          "internalType": "address",
          "name": "_approved",
          "type": "address"
        },
        {
          "internalType": "uint256",
          "name": "_tokenId",
          "type": "uint256"
        }
      ],
      "name": "approve",
      "outputs": [],
      "stateMutability": "nonpayable",
      "type": "function"
    },
    {
      "inputs": [
        {
          "internalType": "address",
          "name": "_spender",
          "type": "address"
        },
        {
          "internalType": "uint256",
          "name": "_amount",
          "type": "uint256"
        }
      ],
      "name": "approveBeneficiary",
      "outputs": [
        {
          "internalType": "bool",
          "name": "",
          "type": "bool"
        }
      ],
      "stateMutability": "nonpayable",
      "type": "function"
    },
    {
      "inputs": [
        {
          "internalType": "address",
          "name": "_keyOwner",
          "type": "address"
        }
      ],
      "name": "balanceOf",
      "outputs": [
        {
          "internalType": "uint256",
          "name": "",
          "type": "uint256"
        }
      ],
      "stateMutability": "view",
      "type": "function"
    },
    {
      "inputs": [],
      "name": "beneficiary",
      "outputs": [
        {
          "internalType": "address payable",
          "name": "",
          "type": "address"
        }
      ],
      "stateMutability": "view",
      "type": "function"
    },
    {
      "inputs": [
        {
          "internalType": "uint256",
          "name": "_tokenId",
          "type": "uint256"
        }
      ],
      "name": "cancelAndRefund",
      "outputs": [],
      "stateMutability": "nonpayable",
      "type": "function"
    },
    {
      "inputs": [],
      "name": "disableLock",
      "outputs": [],
      "stateMutability": "nonpayable",
      "type": "function"
    },
    {
      "inputs": [],
      "name": "expirationDuration",
      "outputs": [
        {
          "internalType": "uint256",
          "name": "",
          "type": "uint256"
        }
      ],
      "stateMutability": "view",
      "type": "function"
    },
    {
      "inputs": [
        {
          "internalType": "address payable",
          "name": "_keyOwner",
          "type": "address"
        },
        {
          "internalType": "uint256",
          "name": "amount",
          "type": "uint256"
        }
      ],
      "name": "expireAndRefundFor",
      "outputs": [],
      "stateMutability": "nonpayable",
      "type": "function"
    },
    {
      "inputs": [],
      "name": "freeTrialLength",
      "outputs": [
        {
          "internalType": "uint256",
          "name": "",
          "type": "uint256"
        }
      ],
      "stateMutability": "view",
      "type": "function"
    },
    {
      "inputs": [],
      "name": "gasRefundValue",
      "outputs": [
        {
          "internalType": "uint256",
          "name": "_refundValue",
          "type": "uint256"
        }
      ],
      "stateMutability": "view",
      "type": "function"
    },
    {
      "inputs": [
        {
          "internalType": "uint256",
          "name": "_tokenId",
          "type": "uint256"
        }
      ],
      "name": "getApproved",
      "outputs": [
        {
          "internalType": "address",
          "name": "",
          "type": "address"
        }
      ],
      "stateMutability": "view",
      "type": "function"
    },
    {
      "inputs": [
        {
          "internalType": "address",
          "name": "_keyOwner",
          "type": "address"
        }
      ],
      "name": "getCancelAndRefundValueFor",
      "outputs": [
        {
          "internalType": "uint256",
          "name": "refund",
          "type": "uint256"
        }
      ],
      "stateMutability": "view",
      "type": "function"
    },
    {
      "inputs": [
        {
          "internalType": "address",
          "name": "_keyOwner",
          "type": "address"
        }
      ],
      "name": "getHasValidKey",
      "outputs": [
        {
          "internalType": "bool",
          "name": "isValid",
          "type": "bool"
        }
      ],
      "stateMutability": "view",
      "type": "function"
    },
    {
      "inputs": [
        {
          "internalType": "bytes32",
          "name": "role",
          "type": "bytes32"
        }
      ],
      "name": "getRoleAdmin",
      "outputs": [
        {
          "internalType": "bytes32",
          "name": "",
          "type": "bytes32"
        }
      ],
      "stateMutability": "view",
      "type": "function"
    },
    {
      "inputs": [
        {
          "internalType": "address",
          "name": "_account",
          "type": "address"
        }
      ],
      "name": "getTokenIdFor",
      "outputs": [
        {
          "internalType": "uint256",
          "name": "",
          "type": "uint256"
        }
      ],
      "stateMutability": "view",
      "type": "function"
    },
    {
      "inputs": [
        {
          "internalType": "address",
          "name": "_keyOwner",
          "type": "address"
        },
        {
          "internalType": "uint256",
          "name": "_time",
          "type": "uint256"
        }
      ],
      "name": "getTransferFee",
      "outputs": [
        {
          "internalType": "uint256",
          "name": "",
          "type": "uint256"
        }
      ],
      "stateMutability": "view",
      "type": "function"
    },
    {
      "inputs": [
        {
          "internalType": "address[]",
          "name": "_recipients",
          "type": "address[]"
        },
        {
          "internalType": "uint256[]",
          "name": "_expirationTimestamps",
          "type": "uint256[]"
        },
        {
          "internalType": "address[]",
          "name": "_keyManagers",
          "type": "address[]"
        }
      ],
      "name": "grantKeys",
      "outputs": [],
      "stateMutability": "nonpayable",
      "type": "function"
    },
    {
      "inputs": [
        {
          "internalType": "bytes32",
          "name": "role",
          "type": "bytes32"
        },
        {
          "internalType": "address",
          "name": "account",
          "type": "address"
        }
      ],
      "name": "grantRole",
      "outputs": [],
      "stateMutability": "nonpayable",
      "type": "function"
    },
    {
      "inputs": [
        {
          "internalType": "bytes32",
          "name": "role",
          "type": "bytes32"
        },
        {
          "internalType": "address",
          "name": "account",
          "type": "address"
        }
      ],
      "name": "hasRole",
      "outputs": [
        {
          "internalType": "bool",
          "name": "",
          "type": "bool"
        }
      ],
      "stateMutability": "view",
      "type": "function"
    },
    {
      "inputs": [
        {
          "internalType": "address payable",
          "name": "_lockCreator",
          "type": "address"
        },
        {
          "internalType": "uint256",
          "name": "_expirationDuration",
          "type": "uint256"
        },
        {
          "internalType": "address",
          "name": "_tokenAddress",
          "type": "address"
        },
        {
          "internalType": "uint256",
          "name": "_keyPrice",
          "type": "uint256"
        },
        {
          "internalType": "uint256",
          "name": "_maxNumberOfKeys",
          "type": "uint256"
        },
        {
          "internalType": "string",
          "name": "_lockName",
          "type": "string"
        }
      ],
      "name": "initialize",
      "outputs": [],
      "stateMutability": "nonpayable",
      "type": "function"
    },
    {
      "inputs": [],
      "name": "isAlive",
      "outputs": [
        {
          "internalType": "bool",
          "name": "",
          "type": "bool"
        }
      ],
      "stateMutability": "view",
      "type": "function"
    },
    {
      "inputs": [
        {
          "internalType": "address",
          "name": "_owner",
          "type": "address"
        },
        {
          "internalType": "address",
          "name": "_operator",
          "type": "address"
        }
      ],
      "name": "isApprovedForAll",
      "outputs": [
        {
          "internalType": "bool",
          "name": "",
          "type": "bool"
        }
      ],
      "stateMutability": "view",
      "type": "function"
    },
    {
      "inputs": [
        {
          "internalType": "address",
          "name": "account",
          "type": "address"
        }
      ],
      "name": "isKeyGranter",
      "outputs": [
        {
          "internalType": "bool",
          "name": "",
          "type": "bool"
        }
      ],
      "stateMutability": "view",
      "type": "function"
    },
    {
      "inputs": [
        {
          "internalType": "address",
          "name": "account",
          "type": "address"
        }
      ],
      "name": "isLockManager",
      "outputs": [
        {
          "internalType": "bool",
          "name": "",
          "type": "bool"
        }
      ],
      "stateMutability": "view",
      "type": "function"
    },
    {
      "inputs": [
        {
          "internalType": "address",
          "name": "_keyOwner",
          "type": "address"
        }
      ],
      "name": "keyExpirationTimestampFor",
      "outputs": [
        {
          "internalType": "uint256",
          "name": "",
          "type": "uint256"
        }
      ],
      "stateMutability": "view",
      "type": "function"
    },
    {
      "inputs": [
        {
          "internalType": "uint256",
          "name": "",
          "type": "uint256"
        }
      ],
      "name": "keyManagerOf",
      "outputs": [
        {
          "internalType": "address",
          "name": "",
          "type": "address"
        }
      ],
      "stateMutability": "view",
      "type": "function"
    },
    {
      "inputs": [],
      "name": "keyPrice",
      "outputs": [
        {
          "internalType": "uint256",
          "name": "",
          "type": "uint256"
        }
      ],
      "stateMutability": "view",
      "type": "function"
    },
    {
      "inputs": [],
      "name": "maxNumberOfKeys",
      "outputs": [
        {
          "internalType": "uint256",
          "name": "",
          "type": "uint256"
        }
      ],
      "stateMutability": "view",
      "type": "function"
    },
    {
      "inputs": [],
      "name": "name",
      "outputs": [
        {
          "internalType": "string",
          "name": "",
          "type": "string"
        }
      ],
      "stateMutability": "view",
      "type": "function"
    },
    {
      "inputs": [],
      "name": "numberOfOwners",
      "outputs": [
        {
          "internalType": "uint256",
          "name": "",
          "type": "uint256"
        }
      ],
      "stateMutability": "view",
      "type": "function"
    },
    {
      "inputs": [],
      "name": "onKeyCancelHook",
      "outputs": [
        {
          "internalType": "contract ILockKeyCancelHook",
          "name": "",
          "type": "address"
        }
      ],
      "stateMutability": "view",
      "type": "function"
    },
    {
      "inputs": [],
      "name": "onKeyPurchaseHook",
      "outputs": [
        {
          "internalType": "contract ILockKeyPurchaseHook",
          "name": "",
          "type": "address"
        }
      ],
      "stateMutability": "view",
      "type": "function"
    },
    {
      "inputs": [],
      "name": "onTokenURIHook",
      "outputs": [
        {
          "internalType": "contract ILockTokenURIHook",
          "name": "",
          "type": "address"
        }
      ],
      "stateMutability": "view",
      "type": "function"
    },
    {
      "inputs": [],
      "name": "onValidKeyHook",
      "outputs": [
        {
          "internalType": "contract ILockValidKeyHook",
          "name": "",
          "type": "address"
        }
      ],
      "stateMutability": "view",
      "type": "function"
    },
    {
      "inputs": [
        {
          "internalType": "uint256",
          "name": "_tokenId",
          "type": "uint256"
        }
      ],
      "name": "ownerOf",
      "outputs": [
        {
          "internalType": "address",
          "name": "",
          "type": "address"
        }
      ],
      "stateMutability": "view",
      "type": "function"
    },
    {
      "inputs": [
        {
          "internalType": "uint256",
          "name": "",
          "type": "uint256"
        }
      ],
      "name": "owners",
      "outputs": [
        {
          "internalType": "address",
          "name": "",
          "type": "address"
        }
      ],
      "stateMutability": "view",
      "type": "function"
    },
    {
      "inputs": [],
      "name": "publicLockVersion",
      "outputs": [
        {
          "internalType": "uint16",
          "name": "",
          "type": "uint16"
        }
      ],
      "stateMutability": "pure",
      "type": "function"
    },
    {
      "inputs": [
        {
          "internalType": "uint256",
          "name": "_value",
          "type": "uint256"
        },
        {
          "internalType": "address",
          "name": "_recipient",
          "type": "address"
        },
        {
          "internalType": "address",
          "name": "_referrer",
          "type": "address"
        },
        {
          "internalType": "address",
          "name": "_keyManager",
          "type": "address"
        },
        {
          "internalType": "bytes",
          "name": "_data",
          "type": "bytes"
        }
      ],
      "name": "purchase",
      "outputs": [],
      "stateMutability": "payable",
      "type": "function"
    },
    {
      "inputs": [
        {
          "internalType": "address",
          "name": "_recipient",
          "type": "address"
        },
        {
          "internalType": "address",
          "name": "_referrer",
          "type": "address"
        },
        {
          "internalType": "bytes",
          "name": "_data",
          "type": "bytes"
        }
      ],
      "name": "purchasePriceFor",
      "outputs": [
        {
          "internalType": "uint256",
          "name": "minKeyPrice",
          "type": "uint256"
        }
      ],
      "stateMutability": "view",
      "type": "function"
    },
    {
      "inputs": [],
      "name": "refundPenaltyBasisPoints",
      "outputs": [
        {
          "internalType": "uint256",
          "name": "",
          "type": "uint256"
        }
      ],
      "stateMutability": "view",
      "type": "function"
    },
    {
      "inputs": [],
      "name": "renounceLockManager",
      "outputs": [],
      "stateMutability": "nonpayable",
      "type": "function"
    },
    {
      "inputs": [
        {
          "internalType": "bytes32",
          "name": "role",
          "type": "bytes32"
        },
        {
          "internalType": "address",
          "name": "account",
          "type": "address"
        }
      ],
      "name": "renounceRole",
      "outputs": [],
      "stateMutability": "nonpayable",
      "type": "function"
    },
    {
      "inputs": [
        {
          "internalType": "address",
          "name": "_granter",
          "type": "address"
        }
      ],
      "name": "revokeKeyGranter",
      "outputs": [],
      "stateMutability": "nonpayable",
      "type": "function"
    },
    {
      "inputs": [
        {
          "internalType": "bytes32",
          "name": "role",
          "type": "bytes32"
        },
        {
          "internalType": "address",
          "name": "account",
          "type": "address"
        }
      ],
      "name": "revokeRole",
      "outputs": [],
      "stateMutability": "nonpayable",
      "type": "function"
    },
    {
      "inputs": [
        {
          "internalType": "address",
          "name": "_from",
          "type": "address"
        },
        {
          "internalType": "address",
          "name": "_to",
          "type": "address"
        },
        {
          "internalType": "uint256",
          "name": "_tokenId",
          "type": "uint256"
        }
      ],
      "name": "safeTransferFrom",
      "outputs": [],
      "stateMutability": "nonpayable",
      "type": "function"
    },
    {
      "inputs": [
        {
          "internalType": "address",
          "name": "_from",
          "type": "address"
        },
        {
          "internalType": "address",
          "name": "_to",
          "type": "address"
        },
        {
          "internalType": "uint256",
          "name": "_tokenId",
          "type": "uint256"
        },
        {
          "internalType": "bytes",
          "name": "_data",
          "type": "bytes"
        }
      ],
      "name": "safeTransferFrom",
      "outputs": [],
      "stateMutability": "nonpayable",
      "type": "function"
    },
    {
      "inputs": [
        {
          "internalType": "address",
          "name": "_to",
          "type": "address"
        },
        {
          "internalType": "bool",
          "name": "_approved",
          "type": "bool"
        }
      ],
      "name": "setApprovalForAll",
      "outputs": [],
      "stateMutability": "nonpayable",
      "type": "function"
    },
    {
      "inputs": [
        {
          "internalType": "string",
          "name": "_baseTokenURI",
          "type": "string"
        }
      ],
      "name": "setBaseTokenURI",
      "outputs": [],
      "stateMutability": "nonpayable",
      "type": "function"
    },
    {
      "inputs": [
        {
          "internalType": "address",
          "name": "_onKeyPurchaseHook",
          "type": "address"
        },
        {
          "internalType": "address",
          "name": "_onKeyCancelHook",
          "type": "address"
        },
        {
          "internalType": "address",
          "name": "_onValidKeyHook",
          "type": "address"
        },
        {
          "internalType": "address",
          "name": "_onTokenURIHook",
          "type": "address"
        }
      ],
      "name": "setEventHooks",
      "outputs": [],
      "stateMutability": "nonpayable",
      "type": "function"
    },
    {
      "inputs": [
        {
          "internalType": "uint256",
          "name": "_newExpirationDuration",
          "type": "uint256"
        }
      ],
      "name": "setExpirationDuration",
      "outputs": [],
      "stateMutability": "nonpayable",
      "type": "function"
    },
    {
      "inputs": [
        {
          "internalType": "uint256",
          "name": "_refundValue",
          "type": "uint256"
        }
      ],
      "name": "setGasRefundValue",
      "outputs": [],
      "stateMutability": "nonpayable",
      "type": "function"
    },
    {
      "inputs": [
        {
          "internalType": "uint256",
          "name": "_tokenId",
          "type": "uint256"
        },
        {
          "internalType": "address",
          "name": "_keyManager",
          "type": "address"
        }
      ],
      "name": "setKeyManagerOf",
      "outputs": [],
      "stateMutability": "nonpayable",
      "type": "function"
    },
    {
      "inputs": [
        {
          "internalType": "uint256",
          "name": "_maxNumberOfKeys",
          "type": "uint256"
        }
      ],
      "name": "setMaxNumberOfKeys",
      "outputs": [],
      "stateMutability": "nonpayable",
      "type": "function"
    },
    {
      "inputs": [
        {
          "internalType": "address",
          "name": "_to",
          "type": "address"
        },
        {
          "internalType": "uint256",
          "name": "_tokenId",
          "type": "uint256"
        },
        {
          "internalType": "uint256",
          "name": "_timeShared",
          "type": "uint256"
        }
      ],
      "name": "shareKey",
      "outputs": [],
      "stateMutability": "nonpayable",
      "type": "function"
    },
    {
      "inputs": [
        {
          "internalType": "bytes4",
          "name": "interfaceId",
          "type": "bytes4"
        }
      ],
      "name": "supportsInterface",
      "outputs": [
        {
          "internalType": "bool",
          "name": "",
          "type": "bool"
        }
      ],
      "stateMutability": "view",
      "type": "function"
    },
    {
      "inputs": [],
      "name": "symbol",
      "outputs": [
        {
          "internalType": "string",
          "name": "",
          "type": "string"
        }
      ],
      "stateMutability": "view",
      "type": "function"
    },
    {
      "inputs": [],
      "name": "tokenAddress",
      "outputs": [
        {
          "internalType": "address",
          "name": "",
          "type": "address"
        }
      ],
      "stateMutability": "view",
      "type": "function"
    },
    {
      "inputs": [
        {
          "internalType": "uint256",
          "name": "_index",
          "type": "uint256"
        }
      ],
      "name": "tokenByIndex",
      "outputs": [
        {
          "internalType": "uint256",
          "name": "",
          "type": "uint256"
        }
      ],
      "stateMutability": "view",
      "type": "function"
    },
    {
      "inputs": [
        {
          "internalType": "address",
          "name": "_keyOwner",
          "type": "address"
        },
        {
          "internalType": "uint256",
          "name": "_index",
          "type": "uint256"
        }
      ],
      "name": "tokenOfOwnerByIndex",
      "outputs": [
        {
          "internalType": "uint256",
          "name": "",
          "type": "uint256"
        }
      ],
      "stateMutability": "view",
      "type": "function"
    },
    {
      "inputs": [
        {
          "internalType": "uint256",
          "name": "_tokenId",
          "type": "uint256"
        }
      ],
      "name": "tokenURI",
      "outputs": [
        {
          "internalType": "string",
          "name": "",
          "type": "string"
        }
      ],
      "stateMutability": "view",
      "type": "function"
    },
    {
      "inputs": [],
      "name": "totalSupply",
      "outputs": [
        {
          "internalType": "uint256",
          "name": "",
          "type": "uint256"
        }
      ],
      "stateMutability": "view",
      "type": "function"
    },
    {
      "inputs": [
        {
          "internalType": "address",
          "name": "_to",
          "type": "address"
        },
        {
          "internalType": "uint256",
          "name": "_value",
          "type": "uint256"
        }
      ],
      "name": "transfer",
      "outputs": [
        {
          "internalType": "bool",
          "name": "success",
          "type": "bool"
        }
      ],
      "stateMutability": "nonpayable",
      "type": "function"
    },
    {
      "inputs": [],
      "name": "transferFeeBasisPoints",
      "outputs": [
        {
          "internalType": "uint256",
          "name": "",
          "type": "uint256"
        }
      ],
      "stateMutability": "view",
      "type": "function"
    },
    {
      "inputs": [
        {
          "internalType": "address",
          "name": "_from",
          "type": "address"
        },
        {
          "internalType": "address",
          "name": "_recipient",
          "type": "address"
        },
        {
          "internalType": "uint256",
          "name": "_tokenId",
          "type": "uint256"
        }
      ],
      "name": "transferFrom",
      "outputs": [],
      "stateMutability": "nonpayable",
      "type": "function"
    },
    {
      "inputs": [],
      "name": "unlockProtocol",
      "outputs": [
        {
          "internalType": "contract IUnlock",
          "name": "",
          "type": "address"
        }
      ],
      "stateMutability": "view",
      "type": "function"
    },
    {
      "inputs": [
        {
          "internalType": "address payable",
          "name": "_beneficiary",
          "type": "address"
        }
      ],
      "name": "updateBeneficiary",
      "outputs": [],
      "stateMutability": "nonpayable",
      "type": "function"
    },
    {
      "inputs": [
        {
          "internalType": "uint256",
          "name": "_keyPrice",
          "type": "uint256"
        },
        {
          "internalType": "address",
          "name": "_tokenAddress",
          "type": "address"
        }
      ],
      "name": "updateKeyPricing",
      "outputs": [],
      "stateMutability": "nonpayable",
      "type": "function"
    },
    {
      "inputs": [
        {
          "internalType": "string",
          "name": "_lockName",
          "type": "string"
        }
      ],
      "name": "updateLockName",
      "outputs": [],
      "stateMutability": "nonpayable",
      "type": "function"
    },
    {
      "inputs": [
        {
          "internalType": "string",
          "name": "_lockSymbol",
          "type": "string"
        }
      ],
      "name": "updateLockSymbol",
      "outputs": [],
      "stateMutability": "nonpayable",
      "type": "function"
    },
    {
      "inputs": [
        {
          "internalType": "uint256",
          "name": "_freeTrialLength",
          "type": "uint256"
        },
        {
          "internalType": "uint256",
          "name": "_refundPenaltyBasisPoints",
          "type": "uint256"
        }
      ],
      "name": "updateRefundPenalty",
      "outputs": [],
      "stateMutability": "nonpayable",
      "type": "function"
    },
    {
      "inputs": [
        {
          "internalType": "uint256",
          "name": "_transferFeeBasisPoints",
          "type": "uint256"
        }
      ],
      "name": "updateTransferFee",
      "outputs": [],
      "stateMutability": "nonpayable",
      "type": "function"
    },
    {
      "inputs": [
        {
          "internalType": "address",
          "name": "_tokenAddress",
          "type": "address"
        },
        {
          "internalType": "uint256",
          "name": "_amount",
          "type": "uint256"
        }
      ],
      "name": "withdraw",
      "outputs": [],
      "stateMutability": "nonpayable",
      "type": "function"
    },
    {
      "stateMutability": "payable",
      "type": "receive"
    }
  ],
  "bytecode": "0x6080604052600061201e5534801561001657600080fd5b50615b0d80620000276000396000f3fe6080604052600436106104565760003560e01c80636eadde431161023f578063a9059cbb11610139578063d1bbd49c116100b6578063f0ba60401161007a578063f0ba604014610d79578063f12c6b6e14610d8e578063f3fef3a314610dae578063f5766b3914610dce578063fc42b58f14610dee57600080fd5b8063d1bbd49c14610cdd578063d250348514610cf9578063d32bfb6c14610d19578063d547741f14610d39578063e985e9c514610d5957600080fd5b8063b88d4fde116100fd578063b88d4fde14610c48578063bf4a927014610c68578063c1c98d0314610c88578063c87b56dd14610c9d578063cb0703c614610cbd57600080fd5b8063a9059cbb14610b8e578063aae4b8f714610bae578063abdf82ce14610bce578063b11d7ec114610c08578063b585a6d514610c2857600080fd5b806391d14854116101c75780639d76ea581161018b5780639d76ea5814610b01578063a217fddf14610b22578063a22cb46514610b37578063a2e4cd2e14610b57578063a375cb0514610b7757600080fd5b806391d1485414610a5f57806393fd184414610a7f57806395d89b4114610a95578063970aaeb714610aaa57806397aa390a14610ae157600080fd5b80637ec2a7241161020e5780637ec2a724146109c957806381a3c943146109ea5780638577a6d514610a0a5780638be4b87014610a2a5780638ca2fbad14610a3d57600080fd5b80636eadde431461095257806370a082311461097257806374b6c10614610992578063782a4ade146109a957600080fd5b80632f2ff15d116103505780634f6ccce7116102d857806356e0d51f1161029c57806356e0d51f146108c55780636207a8da146108dc578063626485a3146108f25780636352211e146109125780636d8ea5b41461093257600080fd5b80634f6ccce71461082557806352b0f6381461084557806352d6a8e414610865578063550ef3a814610885578063564aa99d146108a557600080fd5b806338af3eed1161031f57806338af3eed1461077257806339f46986146107935780634136aa35146107b357806342842e0e146107ce5780634d025fed146107ee57600080fd5b80632f2ff15d146106f25780632f745c591461071257806330176e131461073257806336568abe1461075257600080fd5b806311a4c03a116103de57806323b872dd116103a257806323b872dd14610640578063248a9ca31461066057806326e9ca07146106905780632af9162a146106b15780632d33dd5b146106d157600080fd5b806311a4c03a146105b957806318160ddd146105d0578063183767da146105e6578063217751bc146105fd578063231005091461061e57600080fd5b8063095ea7b311610425578063095ea7b314610511578063097ba333146105335780630aaffd2a146105615780630f15023b1461058157806310e56973146105a257600080fd5b806301ffc9a714610462578063025e7c271461049757806306fdde03146104cf578063081812fc146104f157600080fd5b3661045d57005b600080fd5b34801561046e57600080fd5b5061048261047d366004615371565b610e0e565b60405190151581526020015b60405180910390f35b3480156104a357600080fd5b506104b76104b2366004615335565b610e1f565b6040516001600160a01b03909116815260200161048e565b3480156104db57600080fd5b506104e4610e4a565b60405161048e91906156fd565b3480156104fd57600080fd5b506104b761050c366004615335565b610ed9565b34801561051d57600080fd5b5061053161052c36600461523e565b610f55565b005b34801561053f57600080fd5b5061055361054e3660046150c9565b61108a565b60405190815260200161048e565b34801561056d57600080fd5b5061053161057c366004614f6c565b6110d6565b34801561058d57600080fd5b50610c83546104b7906001600160a01b031681565b3480156105ae57600080fd5b50610553610c855481565b3480156105c557600080fd5b50610553610c845481565b3480156105dc57600080fd5b50610c8754610553565b3480156105f257600080fd5b506105536124075481565b34801561060957600080fd5b50610c8a546104b7906001600160a01b031681565b34801561062a57600080fd5b50610553600080516020615a7883398151915281565b34801561064c57600080fd5b5061053161065b36600461512b565b61115a565b34801561066c57600080fd5b5061055361067b366004615335565b60009081526097602052604090206001015490565b34801561069c57600080fd5b50610c8b546104b7906001600160a01b031681565b3480156106bd57600080fd5b506105316106cc366004614f6c565b611489565b3480156106dd57600080fd5b50610c89546104b7906001600160a01b031681565b3480156106fe57600080fd5b5061053161070d36600461534d565b61150c565b34801561071e57600080fd5b5061055361072d36600461523e565b611537565b34801561073e57600080fd5b5061053161074d3660046153a9565b6115bf565b34801561075e57600080fd5b5061053161076d36600461534d565b611600565b34801561077e57600080fd5b50610c88546104b7906001600160a01b031681565b34801561079f57600080fd5b506105316107ae3660046154d9565b61167e565b3480156107bf57600080fd5b5061089a546104829060ff1681565b3480156107da57600080fd5b506105316107e936600461512b565b6116f8565b3480156107fa57600080fd5b506104b7610809366004615335565b611078602052600090815260409020546001600160a01b031681565b34801561083157600080fd5b50610553610840366004615335565b611713565b34801561085157600080fd5b50610482610860366004614f6c565b61175a565b34801561087157600080fd5b50610553610880366004614f6c565b611774565b34801561089157600080fd5b506105316108a03660046153a9565b61177f565b3480156108b157600080fd5b506105316108c0366004614f6c565b6117c0565b3480156108d157600080fd5b506105536127f05481565b3480156108e857600080fd5b5061201e54610553565b3480156108fe57600080fd5b5061053161090d366004615335565b611843565b34801561091e57600080fd5b506104b761092d366004615335565b61187d565b34801561093e57600080fd5b5061048261094d366004614f6c565b611899565b34801561095e57600080fd5b5061053161096d366004614fb3565b611972565b34801561097e57600080fd5b5061055361098d366004614f6c565b611a91565b34801561099e57600080fd5b50610553610c865481565b3480156109b557600080fd5b506105316109c43660046153a9565b611ad9565b3480156109d557600080fd5b50610c8c546104b7906001600160a01b031681565b3480156109f657600080fd5b50610531610a05366004615284565b611b58565b348015610a1657600080fd5b50610531610a25366004615335565b611dc6565b610531610a38366004615469565b611e33565b348015610a4957600080fd5b50610553600080516020615ab883398151915281565b348015610a6b57600080fd5b50610482610a7a36600461534d565b6124b3565b348015610a8b57600080fd5b5061107754610553565b348015610aa157600080fd5b506104e46124de565b348015610ab657600080fd5b50610553610ac5366004614f6c565b6001600160a01b03166000908152611075602052604090205490565b348015610aed57600080fd5b50610531610afc366004614f88565b612617565b348015610b0d57600080fd5b506104b1546104b7906001600160a01b031681565b348015610b2e57600080fd5b50610553600081565b348015610b4357600080fd5b50610531610b52366004615211565b61267b565b348015610b6357600080fd5b50610531610b7236600461534d565b612753565b348015610b8357600080fd5b506105536127f15481565b348015610b9a57600080fd5b50610482610ba936600461523e565b6128eb565b348015610bba57600080fd5b50610482610bc9366004614f6c565b61295a565b348015610bda57600080fd5b50610553610be9366004614f6c565b6001600160a01b03166000908152611075602052604090206001015490565b348015610c1457600080fd5b50610531610c2336600461534d565b612974565b348015610c3457600080fd5b50610482610c4336600461523e565b612a38565b348015610c5457600080fd5b50610531610c6336600461516b565b612afc565b348015610c7457600080fd5b50610531610c83366004615335565b612b65565b348015610c9457600080fd5b50610531612c09565b348015610ca957600080fd5b506104e4610cb8366004615335565b612c96565b348015610cc957600080fd5b50610531610cd836600461506e565b612f4d565b348015610ce957600080fd5b506040516009815260200161048e565b348015610d0557600080fd5b50610531610d14366004614f6c565b613180565b348015610d2557600080fd5b50610531610d34366004615335565b613203565b348015610d4557600080fd5b50610531610d5436600461534d565b613287565b348015610d6557600080fd5b50610482610d74366004615036565b6132ad565b348015610d8557600080fd5b50610531613346565b348015610d9a57600080fd5b50610531610da9366004615250565b61338b565b348015610dba57600080fd5b50610531610dc936600461523e565b6136e0565b348015610dda57600080fd5b50610531610de9366004615335565b61386d565b348015610dfa57600080fd5b50610553610e0936600461523e565b6138a7565b6000610e1982613920565b92915050565b6110778181548110610e3057600080fd5b6000918252602090912001546001600160a01b0316905081565b6114638054610e58906159c2565b80601f0160208091040260200160405190810160405280929190818152602001828054610e84906159c2565b8015610ed15780601f10610ea657610100808354040283529160200191610ed1565b820191906000526020600020905b815481529060010190602001808311610eb457829003601f168201915b505050505081565b6000818152611076602052604081205482906001600160a01b0316610f335760405162461bcd60e51b815260206004820152600b60248201526a4e4f5f535543485f4b455960a81b60448201526064015b60405180910390fd5b600083815261107960205260409020546001600160a01b031691505b50919050565b61089a5460ff16610f785760405162461bcd60e51b8152600401610f2a90615821565b80610f83813361392b565b80610f935750610f9381336139a3565b80610fbc575060008181526110766020526040902054610fbc906001600160a01b0316336132ad565b610fd85760405162461bcd60e51b8152600401610f2a90615760565b336001600160a01b03841614156110205760405162461bcd60e51b815260206004820152600c60248201526b20a8282927ab22afa9a2a62360a11b6044820152606401610f2a565b60008281526110796020908152604080832080546001600160a01b0319166001600160a01b03888116918217909255611076909352818420549151869492909116917f8c5be1e5ebec7d5bd14f71427d1e84f3dd0314c0f7b2291e5b200ac8c7c3b92591a4505050565b60006110cd858585858080601f0160208091040260200160405190810160405280939291908181526020018383808284376000920191909152506139c592505050565b95945050505050565b6110df3361295a565b806110f55750610c88546001600160a01b031633145b6111115760405162461bcd60e51b8152600401610f2a90615797565b6001600160a01b0381166111375760405162461bcd60e51b8152600401610f2a90615710565b610c8880546001600160a01b0319166001600160a01b0392909216919091179055565b61089a5460ff1661117d5760405162461bcd60e51b8152600401610f2a90615821565b8261118781611899565b6111a35760405162461bcd60e51b8152600401610f2a90615739565b816111ae813361392b565b806111be57506111be81336139a3565b806111e75750600081815261107660205260409020546111e7906001600160a01b0316336132ad565b6112035760405162461bcd60e51b8152600401610f2a90615760565b846001600160a01b03166112168461187d565b6001600160a01b03161461126c5760405162461bcd60e51b815260206004820152601c60248201527f5452414e534645525f46524f4d3a204e4f545f4b45595f4f574e4552000000006044820152606401610f2a565b61271061240754106112b95760405162461bcd60e51b815260206004820152601660248201527512d15657d514905394d1915494d7d11254d05093115160521b6044820152606401610f2a565b6001600160a01b0384166112df5760405162461bcd60e51b8152600401610f2a90615710565b836001600160a01b0316856001600160a01b031614156113345760405162461bcd60e51b815260206004820152601060248201526f2a2920a729a322a92faa27afa9a2a62360811b6044820152606401610f2a565b60006113418660006138a7565b6001600160a01b038088166000908152611075602052604080822092891682528120600181015493945091929061137b9088908690613a74565b81546113975786825561138e8888613b74565b61139787613c28565b4281116113c557600180840154908301558682556113b6876000613c67565b6113c08888613b74565b61144d565b600019610c8454141561142c5760405162461bcd60e51b815260206004820152602960248201527f526563697069656e7420616c7265616479206f776e732061206e6f6e2d6578706044820152686972696e67206b657960b81b6064820152608401610f2a565b4281846001015461143d91906158ec565b6114479190615968565b60018301555b426001840155600080845560405188916001600160a01b03808c1692908d1691600080516020615a9883398151915291a4505050505050505050565b6114a1600080516020615ab8833981519152336124b3565b6114bd5760405162461bcd60e51b8152600401610f2a906157cc565b6114d5600080516020615a7883398151915282613287565b6040516001600160a01b038216907f766f6199fea59554b9ff688e413302b9200f85d74811c053c12d945ac6d8dd7a90600090a250565b6000828152609760205260409020600101546115288133613cf4565b6115328383613d58565b505050565b600061154283611a91565b8210801561155857506001600160a01b03831615155b61159d5760405162461bcd60e51b815260206004820152601660248201527527a7262cafa7a722afa5a2acafa822a92fa7aba722a960511b6044820152606401610f2a565b6001600160a01b038316600090815261107560205260409020545b9392505050565b6115d7600080516020615ab8833981519152336124b3565b6115f35760405162461bcd60e51b8152600401610f2a906157cc565b6115326114658383614e54565b6001600160a01b03811633146116705760405162461bcd60e51b815260206004820152602f60248201527f416363657373436f6e74726f6c3a2063616e206f6e6c792072656e6f756e636560448201526e103937b632b9903337b91039b2b63360891b6064820152608401610f2a565b61167a8282613dde565b5050565b611696600080516020615ab8833981519152336124b3565b6116b25760405162461bcd60e51b8152600401610f2a906157cc565b60408051838152602081018390527fd6867bc538320e67d7bdc35860c27c08486eb490b4fd9b820fff18fb28381d3c910160405180910390a16127f1919091556127f055565b61153283838360405180602001604052806000815250612afc565b6000610c875482106117565760405162461bcd60e51b815260206004820152600c60248201526b4f55545f4f465f52414e474560a01b6044820152606401610f2a565b5090565b6000610e19600080516020615a78833981519152836124b3565b6000610e1982613e45565b611797600080516020615ab8833981519152336124b3565b6117b35760405162461bcd60e51b8152600401610f2a906157cc565b6115326114638383614e54565b6117d8600080516020615ab8833981519152336124b3565b6117f45760405162461bcd60e51b8152600401610f2a906157cc565b61180c600080516020615a788339815191528261150c565b6040516001600160a01b038216907f684f8a71407db0c334454ebe9c9b288549317893a20b10dc779ec5c118dcd12190600090a250565b61185b600080516020615ab8833981519152336124b3565b6118775760405162461bcd60e51b8152600401610f2a906157cc565b610c8455565b600090815261107660205260409020546001600160a01b031690565b6001600160a01b0380821660009081526110756020526040902060010154610c8b544290911191161561196d57610c8b546001600160a01b0383811660008181526110756020526040908190206001015490516370b6638f60e11b815230600482015260248101929092526044820152831515606482015291169063e16cc71e9060840160206040518083038186803b15801561193557600080fd5b505afa158015611949573d6000803e3d6000fd5b505050506040513d601f19601f82011682018060405250810190610e199190615319565b919050565b600054610100900460ff1661198d5760005460ff1615611991565b303b155b6119f45760405162461bcd60e51b815260206004820152602e60248201527f496e697469616c697a61626c653a20636f6e747261637420697320616c72656160448201526d191e481a5b9a5d1a585b1a5e995960921b6064820152608401610f2a565b600054610100900460ff16158015611a16576000805461ffff19166101011790555b611a1f86613f65565b611a3261089a805460ff19166001179055565b611a3e8888878761403c565b611a4883836140de565b611a50614104565b611a5c6103e86127f055565b611a6588614116565b611a756380ac58cd60e01b61419e565b8015611a87576000805461ff00191690555b5050505050505050565b60006001600160a01b038216611ab95760405162461bcd60e51b8152600401610f2a90615710565b611ac282611899565b611acd576000611ad0565b60015b60ff1692915050565b611af1600080516020615ab8833981519152336124b3565b611b0d5760405162461bcd60e51b8152600401610f2a906157cc565b611b1a6114648383614e54565b507f8868e22e84ebf32da89b2ebcb0ac642816304ea3863b257f240df9098719cb978282604051611b4c9291906156e9565b60405180910390a15050565b611b613361175a565b80611b705750611b703361295a565b611bee5760405162461bcd60e51b815260206004820152604360248201527f4d6978696e526f6c65733a2063616c6c657220646f6573206e6f74206861766560448201527f20746865204b65794772616e746572206f72204c6f636b4d616e6167657220726064820152626f6c6560e81b608482015260a401610f2a565b60005b85811015611dbd576000878783818110611c1b57634e487b7160e01b600052603260045260246000fd5b9050602002016020810190611c309190614f6c565b90506000868684818110611c5457634e487b7160e01b600052603260045260246000fd5b9050602002013590506000858585818110611c7f57634e487b7160e01b600052603260045260246000fd5b9050602002016020810190611c949190614f6c565b90506001600160a01b038316611cbc5760405162461bcd60e51b8152600401610f2a90615710565b6001600160a01b03831660009081526110756020526040902060018101548311611d1b5760405162461bcd60e51b815260206004820152601060248201526f414c52454144595f4f574e535f4b455960801b6044820152606401610f2a565b805480611d3857611d2b8261421d565b508054611d388582613b74565b611d428184613c67565b6040516001600160a01b0384169082907f9d2895c45a420624de863a2f437b022d879f457bf7a829044055a10c5a6fd5e390600090a36001820184905560405181906001600160a01b03871690600090600080516020615a98833981519152908290a450505050508080611db5906159f7565b915050611bf1565b50505050505050565b611dde600080516020615ab8833981519152336124b3565b611dfa5760405162461bcd60e51b8152600401610f2a906157cc565b6040518181527f0496ed1e61eb69727f9659a8e859288db4758ffb1f744d1c1424634f90a257f49060200160405180910390a161240755565b61089a5460ff16611e565760405162461bcd60e51b8152600401610f2a90615821565b610c8754610c865411611e9b5760405162461bcd60e51b815260206004820152600d60248201526c1313d0d2d7d4d3d31117d3d555609a1b6044820152606401610f2a565b6001600160a01b038516611ec15760405162461bcd60e51b8152600401610f2a90615710565b6001600160a01b0385166000908152611075602052604081208054909181611f5d57611eec8361421d565b82549150611efa8883613b74565b600019610c84541415611f105750600019611f21565b610c8454611f1e90426158ec565b90505b60018301819055611f328287613c67565b60405182906001600160a01b038a1690600090600080516020615a98833981519152908290a46120b7565b428360010154111561203b5760001983600101541415611fdb5760405162461bcd60e51b815260206004820152603360248201527f412076616c6964206e6f6e2d6578706972696e67206b65792063616e206e6f746044820152722062652070757263686173656420747769636560681b6064820152608401610f2a565b610c84548360010154611fee91906158ec565b600184018190556040518181529091506001600160a01b038916907f872bd7c99ad5e7b6ed7f0a890f348839cb8e225c9deaa3909afedae54c93d17d9060200160405180910390a26120b7565b600019610c845414156120515750600019612062565b610c845461205f90426158ec565b90505b600183018190556120738287613c67565b876001600160a01b03167f872bd7c99ad5e7b6ed7f0a890f348839cb8e225c9deaa3909afedae54c93d17d826040516120ae91815260200190565b60405180910390a25b60006120fa898988888080601f0160208091040260200160405190810160405280939291908181526020018383808284376000920191909152506139c592505050565b610c835460405163939d9f1f60e01b8152600481018390526001600160a01b038b8116602483015292935091169063939d9f1f90604401600060405180830381600087803b15801561214b57600080fd5b505af192505050801561215c575060015b6121a457610c83546040516001600160a01b03909116815230907f6b18946261693dfd6c760d986b28ad2238b5b0267f8e5b6bc40a2f998e2f20ac9060200160405180910390a25b6104b1546000906001600160a01b03161561224e57506104b1546040516323b872dd60e01b8152336004820152306024820152604481018c90528b916001600160a01b03169081906323b872dd90606401602060405180830381600087803b15801561220f57600080fd5b505af1158015612223573d6000803e3d6000fd5b505050506040513d601f19601f820116820180604052508101906122479190615319565b5050612251565b50345b818110156122965760405162461bcd60e51b8152602060048201526012602482015271494e53554646494349454e545f56414c554560701b6044820152606401610f2a565b610c89546001600160a01b03161561231857610c8954604051639849965760e01b81526001600160a01b03909116906398499657906122e59033908e908e908d908d908a908a90600401615637565b600060405180830381600087803b1580156122ff57600080fd5b505af1158015612313573d6000803e3d6000fd5b505050505b61201e54156124a6576104b1546001600160a01b0316156123cc576104b15461201e546040516323b872dd60e01b815230600482015233602482015260448101919091526001600160a01b039091169081906323b872dd90606401602060405180830381600087803b15801561238d57600080fd5b505af11580156123a1573d6000803e3d6000fd5b505050506040513d601f19601f820116820180604052508101906123c59190615319565b5050612459565b61201e5460405160009133918381818185875af1925050503d8060008114612410576040519150601f19603f3d011682016040523d82523d6000602084013e612415565b606091505b50509050806124575760405162461bcd60e51b815260206004820152600e60248201526d2932b33ab732103330b4b632b21760911b6044820152606401610f2a565b505b61201e546104b154604080519283526001600160a01b03909116602083015233917f522a883b471164223f18b50f326da8671372b64b4792eac0e63d447e714c3e3b910160405180910390a25b5050505050505050505050565b60009182526097602090815260408084206001600160a01b0393909316845291905290205460ff1690565b606061146480546124ee906159c2565b1515905061258657610c8360009054906101000a90046001600160a01b03166001600160a01b031663cec410526040518163ffffffff1660e01b815260040160006040518083038186803b15801561254557600080fd5b505afa158015612559573d6000803e3d6000fd5b505050506040513d6000823e601f3d908101601f1916820160405261258191908101906153e8565b905090565b6114648054612594906159c2565b80601f01602080910402602001604051908101604052809291908181526020018280546125c0906159c2565b801561260d5780601f106125e25761010080835404028352916020019161260d565b820191906000526020600020905b8154815290600101906020018083116125f057829003601f168201915b5050505050905090565b61262f600080516020615ab8833981519152336124b3565b61264b5760405162461bcd60e51b8152600401610f2a906157cc565b8161265581611899565b6126715760405162461bcd60e51b8152600401610f2a90615739565b6115328383614241565b61089a5460ff1661269e5760405162461bcd60e51b8152600401610f2a90615821565b6001600160a01b0382163314156126e65760405162461bcd60e51b815260206004820152600c60248201526b20a8282927ab22afa9a2a62360a11b6044820152606401610f2a565b33600081815261107a602090815260408083206001600160a01b03871680855290835292819020805460ff191686151590811790915590519081529192917f17307eab39ab6107e8899845ad3d59bd9653f200f220920489ca2b5937696c31910160405180910390a35050565b61276b600080516020615ab8833981519152336124b3565b6127875760405162461bcd60e51b8152600401610f2a906157cc565b61089a5460ff166127aa5760405162461bcd60e51b8152600401610f2a90615821565b610c85546104b1546001600160a01b03908116908316158061283c57506000836001600160a01b03166318160ddd6040518163ffffffff1660e01b815260040160206040518083038186803b15801561280257600080fd5b505afa158015612816573d6000803e3d6000fd5b505050506040513d601f19601f8201168201806040525081019061283a9190615451565b115b6128785760405162461bcd60e51b815260206004820152600d60248201526c24a72b20a624a22faa27a5a2a760991b6044820152606401610f2a565b610c858490556104b180546001600160a01b0319166001600160a01b0385811691821790925560408051858152602081018890529284169083015260608201527f3615065ccf48367ac483ac86701248e2e5ff55bdd9be845007d34a3b68d719d49060800160405180910390a150505050565b600080610c8454836128fd9190615949565b33600090815261107560205260408120600181015492935091612921904290615968565b90508083101561293f5761293a8683600001548561338b565b61294e565b61294e3387846000015461115a565b50600195945050505050565b6000610e19600080516020615ab8833981519152836124b3565b6000828152611076602052604090205482906001600160a01b03166129c95760405162461bcd60e51b815260206004820152600b60248201526a4e4f5f535543485f4b455960a81b6044820152606401610f2a565b6129d3833361392b565b806129e257506129e23361295a565b612a2e5760405162461bcd60e51b815260206004820152601f60248201527f554e415554484f52495a45445f4b45595f4d414e414745525f555044415445006044820152606401610f2a565b6115328383613c67565b6000612a433361295a565b80612a595750610c88546001600160a01b031633145b612a755760405162461bcd60e51b8152600401610f2a90615797565b6104b15460405163095ea7b360e01b81526001600160a01b038581166004830152602482018590529091169063095ea7b390604401602060405180830381600087803b158015612ac457600080fd5b505af1158015612ad8573d6000803e3d6000fd5b505050506040513d601f19601f820116820180604052508101906115b89190615319565b612b0784848461115a565b612b138484848461433c565b612b5f5760405162461bcd60e51b815260206004820152601d60248201527f4e4f4e5f434f4d504c49414e545f4552433732315f52454345495645520000006044820152606401610f2a565b50505050565b612b7d600080516020615ab8833981519152336124b3565b612b995760405162461bcd60e51b8152600401610f2a906157cc565b610c87548111612c035760405162461bcd60e51b815260206004820152602f60248201527f6d61784e756d6265724f664b65797320697320736d616c6c6572207468616e2060448201526e6578697374696e6720737570706c7960881b6064820152608401610f2a565b610c8655565b612c21600080516020615ab8833981519152336124b3565b612c3d5760405162461bcd60e51b8152600401610f2a906157cc565b61089a5460ff16612c605760405162461bcd60e51b8152600401610f2a90615821565b6040517f25a311358326fb18c62efc24bc28d3126acee8d2a67fd8b2145b757dc8bd1bc190600090a161089a805460ff19169055565b606080806000612ca5306143fb565b905060608515612cbf57612cb886614656565b9250612cd2565b6040518060200160405280600081525092505b610c8c546001600160a01b031615612dc0576000612cef8761187d565b90506000612d16826001600160a01b03166000908152611075602052604090206001015490565b610c8c5460405163988b93ad60e01b81523060048201523360248201526001600160a01b038581166044830152606482018c90526084820184905292935091169063988b93ad9060a40160006040518083038186803b158015612d7857600080fd5b505afa158015612d8c573d6000803e3d6000fd5b505050506040513d6000823e601f3d908101601f19168201604052612db491908101906153e8565b98975050505050505050565b6114658054612dce906159c2565b15159050612e8457610c8360009054906101000a90046001600160a01b03166001600160a01b031663a998e9fb6040518163ffffffff1660e01b815260040160006040518083038186803b158015612e2557600080fd5b505afa158015612e39573d6000803e3d6000fd5b505050506040513d6000823e601f3d908101601f19168201604052612e6191908101906153e8565b9350604051806040016040528060018152602001602f60f81b8152509050612f37565b6114658054612e92906159c2565b80601f0160208091040260200160405190810160405280929190818152602001828054612ebe906159c2565b8015612f0b5780601f10612ee057610100808354040283529160200191612f0b565b820191906000526020600020905b815481529060010190602001808311612eee57829003601f168201915b505050505093506040518060200160405280600081525090506040518060200160405280600081525091505b612f438483838661479e565b9695505050505050565b612f65600080516020615ab8833981519152336124b3565b612f815760405162461bcd60e51b8152600401610f2a906157cc565b6001600160a01b0384161580612fa057506001600160a01b0384163b15155b612fec5760405162461bcd60e51b815260206004820152601860248201527f494e56414c49445f4f4e5f4b45595f534f4c445f484f4f4b00000000000000006044820152606401610f2a565b6001600160a01b038316158061300b57506001600160a01b0383163b15155b6130575760405162461bcd60e51b815260206004820152601a60248201527f494e56414c49445f4f4e5f4b45595f43414e43454c5f484f4f4b0000000000006044820152606401610f2a565b6001600160a01b038216158061307657506001600160a01b0382163b15155b6130c25760405162461bcd60e51b815260206004820152601960248201527f494e56414c49445f4f4e5f56414c49445f4b45595f484f4f4b000000000000006044820152606401610f2a565b6001600160a01b03811615806130e157506001600160a01b0381163b15155b61312d5760405162461bcd60e51b815260206004820152601960248201527f494e56414c49445f4f4e5f544f4b454e5f5552495f484f4f4b000000000000006044820152606401610f2a565b610c8980546001600160a01b039586166001600160a01b031991821617909155610c8a805494861694821694909417909355610c8c8054918516918416919091179055610c8b8054919093169116179055565b613198600080516020615ab8833981519152336124b3565b6131b45760405162461bcd60e51b8152600401610f2a906157cc565b6131cc600080516020615ab88339815191528261150c565b6040516001600160a01b038216907f91d5c045d5bd98bf59a379b259ebca05b93bf79af1845fdf87e3172385d4c7f790600090a250565b8061320e813361392b565b8061321e575061321e81336139a3565b80613247575060008181526110766020526040902054613247906001600160a01b0316336132ad565b6132635760405162461bcd60e51b8152600401610f2a90615760565b600061326e8361187d565b9050600061327b82613e45565b9050612b5f8282614241565b6000828152609760205260409020600101546132a38133613cf4565b6115328383613dde565b6001600160a01b0380831660009081526110756020908152604080832054808452611078909252822054919290911680613313575050506001600160a01b03808316600090815261107a602090815260408083209385168352929052205460ff16610e19565b6001600160a01b03908116600090815261107a602090815260408083209387168352929052205460ff169150610e199050565b61335e600080516020615ab883398151915233611600565b60405133907f42885193b8178d25fca25a38e6fcc93918501e91be06d85e0c8afb3bad95238090600090a2565b61089a5460ff166133ae5760405162461bcd60e51b8152600401610f2a90615821565b816133b9813361392b565b806133c957506133c981336139a3565b806133f25750600081815261107660205260409020546133f2906001600160a01b0316336132ad565b61340e5760405162461bcd60e51b8152600401610f2a90615760565b612710612407541061345b5760405162461bcd60e51b815260206004820152601660248201527512d15657d514905394d1915494d7d11254d05093115160521b6044820152606401610f2a565b6001600160a01b0384166134815760405162461bcd60e51b8152600401610f2a90615710565b600083815261107660205260409020546001600160a01b03166134a381611899565b6134bf5760405162461bcd60e51b8152600401610f2a90615739565b846001600160a01b0316816001600160a01b031614156135145760405162461bcd60e51b815260206004820152601060248201526f2a2920a729a322a92faa27afa9a2a62360811b6044820152606401610f2a565b6001600160a01b0380821660009081526110756020526040808220928816825281208054600184015491929091819061354e904290615968565b9050600061355c878a6138a7565b9050600061356a828b6158ec565b905082811015613588578993506135838b826000613a74565b6135d3565b61359288846138a7565b915061359e8284615968565b4260018901556040519094508b907f59f2fe866dd27a1c2d34115520888c3150365cbc931aab97fa88c4b9ab40b79590600090a25b8461361a576135e18661421d565b855494506135ef8c86613b74565b60405185906001600160a01b038e1690600090600080516020615a98833981519152908290a4613630565b4286600101541161363057613630856000613c67565b61363c85856001613a74565b848c6001600160a01b0316896001600160a01b0316600080516020615a9883398151915260405160405180910390a4613686888d876040518060200160405280600081525061433c565b6136d25760405162461bcd60e51b815260206004820152601d60248201527f4e4f4e5f434f4d504c49414e545f4552433732315f52454345495645520000006044820152606401610f2a565b505050505050505050505050565b6136e93361295a565b806136ff5750610c88546001600160a01b031633145b61371b5760405162461bcd60e51b8152600401610f2a90615797565b60006001600160a01b0383166137325750476137ac565b6040516370a0823160e01b81523060048201526001600160a01b038416906370a082319060240160206040518083038186803b15801561377157600080fd5b505afa158015613785573d6000803e3d6000fd5b505050506040513d601f19601f820116820180604052508101906137a99190615451565b90505b60008215806137ba57508183115b1561380957600082116138025760405162461bcd60e51b815260206004820152601060248201526f4e4f545f454e4f5547485f46554e445360801b6044820152606401610f2a565b508061380c565b50815b610c88546040518281526001600160a01b039182169186169033907f342e7ff505a8a0364cd0dc2ff195c315e43bce86b204846ecd36913e117b109e9060200160405180910390a4610c8854612b5f9085906001600160a01b0316836147d0565b613885600080516020615ab8833981519152336124b3565b6138a15760405162461bcd60e51b8152600401610f2a906157cc565b61201e55565b60006138b283611899565b6138be57506000610e19565b6001600160a01b0383166000908152611075602052604081209080846138f5574283600101546138ee9190615968565b91506138f9565b8491505b612710612407548361390b9190615949565b6139159190615929565b9350610e1992505050565b6000610e198261480c565b600082815261107860205260408120546001600160a01b038381169116148061398e5750600083815261107860205260409020546001600160a01b031615801561398e5750816001600160a01b03166139838461187d565b6001600160a01b0316145b1561399b57506001610e19565b506000610e19565b60009182526110796020526040909120546001600160a01b0391821691161490565b610c89546000906001600160a01b031615613a6857610c895460405163221c1fd160e01b81526001600160a01b039091169063221c1fd190613a11903390889088908890600401615682565b60206040518083038186803b158015613a2957600080fd5b505afa158015613a3d573d6000803e3d6000fd5b505050506040513d601f19601f82011682018060405250810190613a619190615451565b90506115b8565b50610c85549392505050565b6000613a7f8461187d565b90506001600160a01b038116613aca5760405162461bcd60e51b815260206004820152601060248201526f4e4f4e5f4558495354454e545f4b455960801b6044820152606401610f2a565b6001600160a01b03811660009081526110756020526040812060018101549091613af384611899565b90508415613b1f578015613b1557613b0b86836158ec565b6001840155613b2f565b613b0b86426158ec565b613b298683615968565b60018401555b60408051878152861515602082015288917fe9408df99703ae33a9d01185bcad328ea8683fb1f920da9c30959c192f21b5b3910160405180910390a250505050505050565b6001600160a01b0382166000908152611075602090815260409182902082518084019093528054835260010154908201819052613bf85761107780546001810182556000919091527f5631318b2b6e5e40cc3db255c8b61aab69bc6c157c39883197395f7e6e7c69ef0180546001600160a01b0319166001600160a01b0385161790555b5060009081526110766020526040902080546001600160a01b0319166001600160a01b0392909216919091179055565b600081815261107960205260409020546001600160a01b031615613c645760008181526110796020526040902080546001600160a01b03191690555b50565b600082815261107860205260409020546001600160a01b0382811691161461167a5760008281526110786020526040902080546001600160a01b0319166001600160a01b038316179055613cba82613c28565b6040516001600160a01b0382169083907f9d2895c45a420624de863a2f437b022d879f457bf7a829044055a10c5a6fd5e390600090a35050565b613cfe82826124b3565b61167a57613d16816001600160a01b03166014614817565b613d21836020614817565b604051602001613d329291906155c2565b60408051601f198184030181529082905262461bcd60e51b8252610f2a916004016156fd565b613d6282826124b3565b61167a5760008281526097602090815260408083206001600160a01b03851684529091529020805460ff19166001179055613d9a3390565b6001600160a01b0316816001600160a01b0316837f2f8788117e7eff1d82e926ec794901d17c78024a50270940304540a733656f0d60405160405180910390a45050565b613de882826124b3565b1561167a5760008281526097602090815260408083206001600160a01b0385168085529252808320805460ff1916905551339285917ff6391f5c32d9c69d2a47ea670b442974b53935d1edc7fd64eb21e047a839171b9190a45050565b600081613e5181611899565b613e6d5760405162461bcd60e51b8152600401610f2a90615739565b6001600160a01b038316600090815261107560205260409020610c84546000191415613e9f57610c8554925050610f4f565b6000428260010154613eb19190615968565b9050610c84546127f15482613ec691906158ec565b10613ed657610c85549350613ef6565b610c845481610c8554613ee99190615949565b613ef39190615929565b93505b6127f1541580613f155750610c84546127f154613f1390836158ec565b105b15613f5d5760006127106127f054610c8554613f319190615949565b613f3b9190615929565b905080851115613f5657613f4f8186615968565b9450613f5b565b600094505b505b505050919050565b6104b180546001600160a01b0319166001600160a01b038316908117909155158061400057506000816001600160a01b03166318160ddd6040518163ffffffff1660e01b815260040160206040518083038186803b158015613fc657600080fd5b505afa158015613fda573d6000803e3d6000fd5b505050506040513d601f19601f82011682018060405250810190613ffe9190615451565b115b613c645760405162461bcd60e51b815260206004820152600d60248201526c24a72b20a624a22faa27a5a2a760991b6044820152606401610f2a565b63bbf81e008311156140905760405162461bcd60e51b815260206004820152601860248201527f4d41585f45585049524154494f4e5f3130305f594541525300000000000000006044820152606401610f2a565b610c838054336001600160a01b031991821617909155610c8880549091166001600160a01b03861617905582156140c757826140cb565b6000195b610c8455610c8591909155610c86555050565b6140e66149f8565b6140f36114638383614e54565b5061167a635b5e139f60e01b61419e565b61411463780e9d6360e01b61419e565b565b61412e600080516020615ab883398151915280614a2f565b614154600080516020615a78833981519152600080516020615ab8833981519152614a2f565b61415d8161295a565b61417957614179600080516020615ab883398151915282614a7a565b6141828161175a565b613c6457613c64600080516020615a7883398151915282614a7a565b6001600160e01b031980821614156141f85760405162461bcd60e51b815260206004820152601c60248201527f4552433136353a20696e76616c696420696e74657266616365206964000000006044820152606401610f2a565b6001600160e01b0319166000908152606560205260409020805460ff19166001179055565b8054613c6457610c878054906000614234836159f7565b9091555050610c87549055565b6001600160a01b0382166000818152611075602052604090819020805491519092339290917f0a7068a9989857441c039a14a42b67ed71dd1fcfe5a9b17cc87b252e47bce528906142959087815260200190565b60405180910390a442600182015581156142c1576104b1546142c1906001600160a01b031684846147d0565b610c8a546001600160a01b03161561153257610c8a5460405163b499b6c560e01b81523360048201526001600160a01b038581166024830152604482018590529091169063b499b6c590606401600060405180830381600087803b15801561432857600080fd5b505af1158015611dbd573d6000803e3d6000fd5b60006001600160a01b0384163b614355575060016143f3565b604051630a85bd0160e11b81526000906001600160a01b0386169063150b7a029061438a9033908a90899089906004016156b6565b602060405180830381600087803b1580156143a457600080fd5b505af11580156143b8573d6000803e3d6000fd5b505050506040513d601f19601f820116820180604052508101906143dc919061538d565b6001600160e01b031916630a85bd0160e11b149150505b949350505050565b604080518082018252601081526f181899199a1a9b1b9c1cb0b131b232b360811b60208201528151602a80825260608281019094526001600160a01b0385169291600091602082018180368337019050509050600360fc1b8160008151811061447457634e487b7160e01b600052603260045260246000fd5b60200101906001600160f81b031916908160001a905350600f60fb1b816001815181106144b157634e487b7160e01b600052603260045260246000fd5b60200101906001600160f81b031916908160001a90535060005b601481101561464d57826004856144e384600c6158ec565b6020811061450157634e487b7160e01b600052603260045260246000fd5b1a60f81b6001600160f81b031916901c60f81c60ff168151811061453557634e487b7160e01b600052603260045260246000fd5b01602001516001600160f81b03191682614550836002615949565b61455b9060026158ec565b8151811061457957634e487b7160e01b600052603260045260246000fd5b60200101906001600160f81b031916908160001a905350828461459d83600c6158ec565b602081106145bb57634e487b7160e01b600052603260045260246000fd5b825191901a600f169081106145e057634e487b7160e01b600052603260045260246000fd5b01602001516001600160f81b031916826145fb836002615949565b6146069060036158ec565b8151811061462457634e487b7160e01b600052603260045260246000fd5b60200101906001600160f81b031916908160001a90535080614645816159f7565b9150506144cb565b50949350505050565b6060818061467d5750506040805180820190915260018152600360fc1b6020820152919050565b8260005b81156146a75780614691816159f7565b91506146a09050600a83615929565b9150614681565b6000816001600160401b038111156146cf57634e487b7160e01b600052604160045260246000fd5b6040519080825280601f01601f1916602001820160405280156146f9576020820181803683370190505b509050815b84156147945761470f600182615968565b9050600061471e600a87615929565b61472990600a615949565b6147339087615968565b61473e906030615904565b905060008160f81b90508084848151811061476957634e487b7160e01b600052603260045260246000fd5b60200101906001600160f81b031916908160001a90535061478b600a88615929565b965050506146fe565b5095945050505050565b6060848484846040516020016147b7949392919061556b565b6040516020818303038152906040529050949350505050565b8015611532576001600160a01b0383166147f7576115326001600160a01b03831682614a84565b82612b5f6001600160a01b0382168484614b9d565b6000610e1982614bef565b60606000614826836002615949565b6148319060026158ec565b6001600160401b0381111561485657634e487b7160e01b600052604160045260246000fd5b6040519080825280601f01601f191660200182016040528015614880576020820181803683370190505b509050600360fc1b816000815181106148a957634e487b7160e01b600052603260045260246000fd5b60200101906001600160f81b031916908160001a905350600f60fb1b816001815181106148e657634e487b7160e01b600052603260045260246000fd5b60200101906001600160f81b031916908160001a905350600061490a846002615949565b6149159060016158ec565b90505b60018111156149a9576f181899199a1a9b1b9c1cb0b131b232b360811b85600f166010811061495757634e487b7160e01b600052603260045260246000fd5b1a60f81b82828151811061497b57634e487b7160e01b600052603260045260246000fd5b60200101906001600160f81b031916908160001a90535060049490941c936149a2816159ab565b9050614918565b5083156115b85760405162461bcd60e51b815260206004820181905260248201527f537472696e67733a20686578206c656e67746820696e73756666696369656e746044820152606401610f2a565b600054610100900460ff16614a1f5760405162461bcd60e51b8152600401610f2a9061584a565b614a27614c14565b614114614c14565b600082815260976020526040808220600101805490849055905190918391839186917fbd79b86ffe0ab8e8776151514217cd7cacd52c909f66475c3af44e129f0b00ff9190a4505050565b61167a8282613d58565b80471015614ad45760405162461bcd60e51b815260206004820152601d60248201527f416464726573733a20696e73756666696369656e742062616c616e63650000006044820152606401610f2a565b6000826001600160a01b03168260405160006040518083038185875af1925050503d8060008114614b21576040519150601f19603f3d011682016040523d82523d6000602084013e614b26565b606091505b50509050806115325760405162461bcd60e51b815260206004820152603a60248201527f416464726573733a20756e61626c6520746f2073656e642076616c75652c207260448201527f6563697069656e74206d617920686176652072657665727465640000000000006064820152608401610f2a565b604080516001600160a01b038416602482015260448082018490528251808303909101815260649091019091526020810180516001600160e01b031663a9059cbb60e01b179052611532908490614c3b565b60006001600160e01b03198216637965db0b60e01b1480610e195750610e1982614d0d565b600054610100900460ff166141145760405162461bcd60e51b8152600401610f2a9061584a565b6000614c90826040518060400160405280602081526020017f5361666545524332303a206c6f772d6c6576656c2063616c6c206661696c6564815250856001600160a01b0316614d499092919063ffffffff16565b8051909150156115325780806020019051810190614cae9190615319565b6115325760405162461bcd60e51b815260206004820152602a60248201527f5361666545524332303a204552433230206f7065726174696f6e20646964206e6044820152691bdd081cdd58d8d9595960b21b6064820152608401610f2a565b60006301ffc9a760e01b6001600160e01b031983161480610e195750506001600160e01b03191660009081526065602052604090205460ff1690565b60606143f3848460008585843b614da25760405162461bcd60e51b815260206004820152601d60248201527f416464726573733a2063616c6c20746f206e6f6e2d636f6e74726163740000006044820152606401610f2a565b600080866001600160a01b03168587604051614dbe919061554f565b60006040518083038185875af1925050503d8060008114614dfb576040519150601f19603f3d011682016040523d82523d6000602084013e614e00565b606091505b5091509150614e10828286614e1b565b979650505050505050565b60608315614e2a5750816115b8565b825115614e3a5782518084602001fd5b8160405162461bcd60e51b8152600401610f2a91906156fd565b828054614e60906159c2565b90600052602060002090601f016020900481019282614e825760008555614ec8565b82601f10614e9b5782800160ff19823516178555614ec8565b82800160010185558215614ec8579182015b82811115614ec8578235825591602001919060010190614ead565b506117569291505b808211156117565760008155600101614ed0565b60008083601f840112614ef5578182fd5b5081356001600160401b03811115614f0b578182fd5b6020830191508360208260051b8501011115614f2657600080fd5b9250929050565b60008083601f840112614f3e578182fd5b5081356001600160401b03811115614f54578182fd5b602083019150836020828501011115614f2657600080fd5b600060208284031215614f7d578081fd5b81356115b881615a3e565b60008060408385031215614f9a578081fd5b8235614fa581615a3e565b946020939093013593505050565b600080600080600080600060c0888a031215614fcd578283fd5b8735614fd881615a3e565b9650602088013595506040880135614fef81615a3e565b9450606088013593506080880135925060a08801356001600160401b03811115615017578283fd5b6150238a828b01614f2d565b989b979a50959850939692959293505050565b60008060408385031215615048578182fd5b823561505381615a3e565b9150602083013561506381615a3e565b809150509250929050565b60008060008060808587031215615083578384fd5b843561508e81615a3e565b9350602085013561509e81615a3e565b925060408501356150ae81615a3e565b915060608501356150be81615a3e565b939692955090935050565b600080600080606085870312156150de578384fd5b84356150e981615a3e565b935060208501356150f981615a3e565b925060408501356001600160401b03811115615113578283fd5b61511f87828801614f2d565b95989497509550505050565b60008060006060848603121561513f578081fd5b833561514a81615a3e565b9250602084013561515a81615a3e565b929592945050506040919091013590565b60008060008060808587031215615180578182fd5b843561518b81615a3e565b9350602085013561519b81615a3e565b92506040850135915060608501356001600160401b038111156151bc578182fd5b8501601f810187136151cc578182fd5b80356151df6151da826158c5565b615895565b8181528860208385010111156151f3578384fd5b81602084016020830137908101602001929092525092959194509250565b60008060408385031215615223578182fd5b823561522e81615a3e565b9150602083013561506381615a53565b60008060408385031215614f9a578182fd5b600080600060608486031215615264578081fd5b833561526f81615a3e565b95602085013595506040909401359392505050565b6000806000806000806060878903121561529c578384fd5b86356001600160401b03808211156152b2578586fd5b6152be8a838b01614ee4565b909850965060208901359150808211156152d6578586fd5b6152e28a838b01614ee4565b909650945060408901359150808211156152fa578384fd5b5061530789828a01614ee4565b979a9699509497509295939492505050565b60006020828403121561532a578081fd5b81516115b881615a53565b600060208284031215615346578081fd5b5035919050565b6000806040838503121561535f578182fd5b82359150602083013561506381615a3e565b600060208284031215615382578081fd5b81356115b881615a61565b60006020828403121561539e578081fd5b81516115b881615a61565b600080602083850312156153bb578182fd5b82356001600160401b038111156153d0578283fd5b6153dc85828601614f2d565b90969095509350505050565b6000602082840312156153f9578081fd5b81516001600160401b0381111561540e578182fd5b8201601f8101841361541e578182fd5b805161542c6151da826158c5565b818152856020838501011115615440578384fd5b6110cd82602083016020860161597f565b600060208284031215615462578081fd5b5051919050565b60008060008060008060a08789031215615481578384fd5b86359550602087013561549381615a3e565b945060408701356154a381615a3e565b935060608701356154b381615a3e565b925060808701356001600160401b038111156154cd578283fd5b61530789828a01614f2d565b600080604083850312156154eb578182fd5b50508035926020909101359150565b81835281816020850137506000828201602090810191909152601f909101601f19169091010190565b6000815180845261553b81602086016020860161597f565b601f01601f19169290920160200192915050565b6000825161556181846020870161597f565b9190910192915050565b6000855161557d818460208a0161597f565b855190830190615591818360208a0161597f565b85519101906155a481836020890161597f565b84519101906155b781836020880161597f565b019695505050505050565b7f416363657373436f6e74726f6c3a206163636f756e74200000000000000000008152600083516155fa81601785016020880161597f565b7001034b99036b4b9b9b4b733903937b6329607d1b601791840191820152835161562b81602884016020880161597f565b01602801949350505050565b6001600160a01b03888116825287811660208301528616604082015260c06060820181905260009061566c90830186886154fa565b60808301949094525060a0015295945050505050565b6001600160a01b038581168252848116602083015283166040820152608060608201819052600090612f4390830184615523565b6001600160a01b0385811682528416602082015260408101839052608060608201819052600090612f4390830184615523565b6020815260006143f36020830184866154fa565b6020815260006115b86020830184615523565b6020808252600f908201526e494e56414c49445f4144445245535360881b604082015260600190565b6020808252600d908201526c12d15657d393d517d590531251609a1b604082015260600190565b6020808252601c908201527f4f4e4c595f4b45595f4d414e414745525f4f525f415050524f56454400000000604082015260600190565b6020808252818101527f4f4e4c595f4c4f434b5f4d414e414745525f4f525f42454e4546494349415259604082015260600190565b60208082526035908201527f4d6978696e526f6c65733a2063616c6c657220646f6573206e6f74206861766560408201527420746865204c6f636b4d616e6167657220726f6c6560581b606082015260800190565b6020808252600f908201526e1313d0d2d7d11154149150d0551151608a1b604082015260600190565b6020808252602b908201527f496e697469616c697a61626c653a20636f6e7472616374206973206e6f74206960408201526a6e697469616c697a696e6760a81b606082015260800190565b604051601f8201601f191681016001600160401b03811182821017156158bd576158bd615a28565b604052919050565b60006001600160401b038211156158de576158de615a28565b50601f01601f191660200190565b600082198211156158ff576158ff615a12565b500190565b600060ff821660ff84168060ff0382111561592157615921615a12565b019392505050565b60008261594457634e487b7160e01b81526012600452602481fd5b500490565b600081600019048311821515161561596357615963615a12565b500290565b60008282101561597a5761597a615a12565b500390565b60005b8381101561599a578181015183820152602001615982565b83811115612b5f5750506000910152565b6000816159ba576159ba615a12565b506000190190565b600181811c908216806159d657607f821691505b60208210811415610f4f57634e487b7160e01b600052602260045260246000fd5b6000600019821415615a0b57615a0b615a12565b5060010190565b634e487b7160e01b600052601160045260246000fd5b634e487b7160e01b600052604160045260246000fd5b6001600160a01b0381168114613c6457600080fd5b8015158114613c6457600080fd5b6001600160e01b031981168114613c6457600080fdfeb309c40027c81d382c3b58d8de24207a34b27e1db369b1434e4a11311f154b5eddf252ad1be2c89b69c2b068fc378daa952ba7f163c4a11628f55a4df523b3efb89cdd26cddd51301940bf2715f765b626b8a5a9e2681ac62dc83cc2db2530c0a264697066735822122056efe172c5db83c8227097a987fb132b5b7092d264a941d22a476c1cc3c09bff64736f6c63430008040033",
  "linkReferences": {},
  "deployedLinkReferences": {}
}