{
  "contractName": "PublicLock",
  "abi": [
    {
      "anonymous": false,
      "inputs": [
        {
          "indexed": true,
          "internalType": "address",
          "name": "_owner",
          "type": "address"
        },
        {
          "indexed": true,
          "internalType": "address",
          "name": "_approved",
          "type": "address"
        },
        {
          "indexed": true,
          "internalType": "uint256",
          "name": "_tokenId",
          "type": "uint256"
        }
      ],
      "name": "Approval",
      "type": "event"
    },
    {
      "anonymous": false,
      "inputs": [
        {
          "indexed": true,
          "internalType": "address",
          "name": "_owner",
          "type": "address"
        },
        {
          "indexed": true,
          "internalType": "address",
          "name": "_operator",
          "type": "address"
        },
        {
          "indexed": false,
          "internalType": "bool",
          "name": "_approved",
          "type": "bool"
        }
      ],
      "name": "ApprovalForAll",
      "type": "event"
    },
    {
      "anonymous": false,
      "inputs": [
        {
          "indexed": true,
          "internalType": "uint256",
          "name": "tokenId",
          "type": "uint256"
        },
        {
          "indexed": true,
          "internalType": "address",
          "name": "owner",
          "type": "address"
        },
        {
          "indexed": true,
          "internalType": "address",
          "name": "sendTo",
          "type": "address"
        },
        {
          "indexed": false,
          "internalType": "uint256",
          "name": "refund",
          "type": "uint256"
        }
      ],
      "name": "CancelKey",
      "type": "event"
    },
    {
      "anonymous": false,
      "inputs": [
        {
          "indexed": false,
          "internalType": "uint256",
          "name": "balance",
          "type": "uint256"
        },
        {
          "indexed": true,
          "internalType": "address",
          "name": "owner",
          "type": "address"
        }
      ],
      "name": "Destroy",
      "type": "event"
    },
    {
      "anonymous": false,
      "inputs": [],
      "name": "Disable",
      "type": "event"
    },
    {
      "anonymous": false,
      "inputs": [
        {
          "indexed": true,
          "internalType": "uint256",
          "name": "tokenId",
          "type": "uint256"
        }
      ],
      "name": "ExpireKey",
      "type": "event"
    },
    {
      "anonymous": false,
      "inputs": [
        {
          "indexed": false,
          "internalType": "string",
          "name": "symbol",
          "type": "string"
        }
      ],
      "name": "NewLockSymbol",
      "type": "event"
    },
    {
      "anonymous": false,
      "inputs": [
        {
          "indexed": true,
          "internalType": "address",
          "name": "keyOwner",
          "type": "address"
        },
        {
          "indexed": false,
          "internalType": "uint256",
          "name": "nextAvailableNonce",
          "type": "uint256"
        }
      ],
      "name": "NonceChanged",
      "type": "event"
    },
    {
      "anonymous": false,
      "inputs": [
        {
          "indexed": true,
          "internalType": "address",
          "name": "previousOwner",
          "type": "address"
        },
        {
          "indexed": true,
          "internalType": "address",
          "name": "newOwner",
          "type": "address"
        }
      ],
      "name": "OwnershipTransferred",
      "type": "event"
    },
    {
      "anonymous": false,
      "inputs": [
        {
          "indexed": false,
          "internalType": "uint256",
          "name": "oldKeyPrice",
          "type": "uint256"
        },
        {
          "indexed": false,
          "internalType": "uint256",
          "name": "keyPrice",
          "type": "uint256"
        }
      ],
      "name": "PriceChanged",
      "type": "event"
    },
    {
      "anonymous": false,
      "inputs": [
        {
          "indexed": false,
          "internalType": "uint256",
          "name": "freeTrialLength",
          "type": "uint256"
        },
        {
          "indexed": false,
          "internalType": "uint256",
          "name": "refundPenaltyBasisPoints",
          "type": "uint256"
        }
      ],
      "name": "RefundPenaltyChanged",
      "type": "event"
    },
    {
      "anonymous": false,
      "inputs": [
        {
          "indexed": true,
          "internalType": "uint256",
          "name": "_tokenId",
          "type": "uint256"
        },
        {
          "indexed": false,
          "internalType": "uint256",
          "name": "_amount",
          "type": "uint256"
        },
        {
          "indexed": false,
          "internalType": "bool",
          "name": "_timeAdded",
          "type": "bool"
        }
      ],
      "name": "TimestampChanged",
      "type": "event"
    },
    {
      "anonymous": false,
      "inputs": [
        {
          "indexed": true,
          "internalType": "address",
          "name": "_from",
          "type": "address"
        },
        {
          "indexed": true,
          "internalType": "address",
          "name": "_to",
          "type": "address"
        },
        {
          "indexed": true,
          "internalType": "uint256",
          "name": "_tokenId",
          "type": "uint256"
        }
      ],
      "name": "Transfer",
      "type": "event"
    },
    {
      "anonymous": false,
      "inputs": [
        {
          "indexed": false,
          "internalType": "uint256",
          "name": "transferFeeBasisPoints",
          "type": "uint256"
        }
      ],
      "name": "TransferFeeChanged",
      "type": "event"
    },
    {
      "anonymous": false,
      "inputs": [
        {
          "indexed": true,
          "internalType": "address",
          "name": "sender",
          "type": "address"
        },
        {
          "indexed": true,
          "internalType": "address",
          "name": "tokenAddress",
          "type": "address"
        },
        {
          "indexed": true,
          "internalType": "address",
          "name": "beneficiary",
          "type": "address"
        },
        {
          "indexed": false,
          "internalType": "uint256",
          "name": "amount",
          "type": "uint256"
        }
      ],
      "name": "Withdrawal",
      "type": "event"
    },
    {
      "constant": true,
      "inputs": [],
      "name": "BASIS_POINTS_DEN",
      "outputs": [
        {
          "internalType": "uint256",
          "name": "",
          "type": "uint256"
        }
      ],
      "payable": false,
      "stateMutability": "view",
      "type": "function"
    },
    {
      "constant": false,
      "inputs": [
        {
          "internalType": "address",
          "name": "_approved",
          "type": "address"
        },
        {
          "internalType": "uint256",
          "name": "_tokenId",
          "type": "uint256"
        }
      ],
      "name": "approve",
      "outputs": [],
      "payable": true,
      "stateMutability": "payable",
      "type": "function"
    },
    {
      "constant": true,
      "inputs": [
        {
          "internalType": "address",
          "name": "_owner",
          "type": "address"
        }
      ],
      "name": "balanceOf",
      "outputs": [
        {
          "internalType": "uint256",
          "name": "",
          "type": "uint256"
        }
      ],
      "payable": false,
      "stateMutability": "view",
      "type": "function"
    },
    {
      "constant": true,
      "inputs": [],
      "name": "beneficiary",
      "outputs": [
        {
          "internalType": "address",
          "name": "",
          "type": "address"
        }
      ],
      "payable": false,
      "stateMutability": "view",
      "type": "function"
    },
    {
      "constant": false,
      "inputs": [],
      "name": "cancelAndRefund",
      "outputs": [],
      "payable": false,
      "stateMutability": "nonpayable",
      "type": "function"
    },
    {
      "constant": false,
      "inputs": [
        {
          "internalType": "address",
          "name": "_keyOwner",
          "type": "address"
        },
        {
          "internalType": "bytes",
          "name": "_signature",
          "type": "bytes"
        }
      ],
      "name": "cancelAndRefundFor",
      "outputs": [],
      "payable": false,
      "stateMutability": "nonpayable",
      "type": "function"
    },
    {
      "constant": false,
      "inputs": [],
      "name": "destroyLock",
      "outputs": [],
      "payable": false,
      "stateMutability": "nonpayable",
      "type": "function"
    },
    {
      "constant": false,
      "inputs": [],
      "name": "disableLock",
      "outputs": [],
      "payable": false,
      "stateMutability": "nonpayable",
      "type": "function"
    },
    {
      "constant": true,
      "inputs": [],
      "name": "erc1820",
      "outputs": [
        {
          "internalType": "contract IERC1820Registry",
          "name": "",
          "type": "address"
        }
      ],
      "payable": false,
      "stateMutability": "view",
      "type": "function"
    },
    {
      "constant": true,
      "inputs": [],
      "name": "expirationDuration",
      "outputs": [
        {
          "internalType": "uint256",
          "name": "",
          "type": "uint256"
        }
      ],
      "payable": false,
      "stateMutability": "view",
      "type": "function"
    },
    {
      "constant": false,
      "inputs": [
        {
          "internalType": "address",
          "name": "_owner",
          "type": "address"
        }
      ],
      "name": "expireKeyFor",
      "outputs": [],
      "payable": false,
      "stateMutability": "nonpayable",
      "type": "function"
    },
    {
      "constant": true,
      "inputs": [],
      "name": "freeTrialLength",
      "outputs": [
        {
          "internalType": "uint256",
          "name": "",
          "type": "uint256"
        }
      ],
      "payable": false,
      "stateMutability": "view",
      "type": "function"
    },
    {
      "constant": false,
      "inputs": [
        {
          "internalType": "address",
          "name": "_keyOwner",
          "type": "address"
        },
        {
          "internalType": "uint256",
          "name": "amount",
          "type": "uint256"
        }
      ],
      "name": "fullRefund",
      "outputs": [],
      "payable": false,
      "stateMutability": "nonpayable",
      "type": "function"
    },
    {
      "constant": true,
      "inputs": [
        {
          "internalType": "uint256",
          "name": "_tokenId",
          "type": "uint256"
        }
      ],
      "name": "getApproved",
      "outputs": [
        {
          "internalType": "address",
          "name": "",
          "type": "address"
        }
      ],
      "payable": false,
      "stateMutability": "view",
      "type": "function"
    },
    {
      "constant": true,
      "inputs": [
        {
          "internalType": "address",
          "name": "_tokenAddress",
          "type": "address"
        },
        {
          "internalType": "address",
          "name": "_account",
          "type": "address"
        }
      ],
      "name": "getBalance",
      "outputs": [
        {
          "internalType": "uint256",
          "name": "",
          "type": "uint256"
        }
      ],
      "payable": false,
      "stateMutability": "view",
      "type": "function"
    },
    {
      "constant": true,
      "inputs": [
        {
          "internalType": "address",
          "name": "_keyOwner",
          "type": "address"
        },
        {
          "internalType": "address",
          "name": "_txSender",
          "type": "address"
        }
      ],
      "name": "getCancelAndRefundApprovalHash",
      "outputs": [
        {
          "internalType": "bytes32",
          "name": "approvalHash",
          "type": "bytes32"
        }
      ],
      "payable": false,
      "stateMutability": "view",
      "type": "function"
    },
    {
      "constant": true,
      "inputs": [
        {
          "internalType": "address",
          "name": "_owner",
          "type": "address"
        }
      ],
      "name": "getCancelAndRefundValueFor",
      "outputs": [
        {
          "internalType": "uint256",
          "name": "refund",
          "type": "uint256"
        }
      ],
      "payable": false,
      "stateMutability": "view",
      "type": "function"
    },
    {
      "constant": true,
      "inputs": [
        {
          "internalType": "address",
          "name": "_owner",
          "type": "address"
        }
      ],
      "name": "getHasValidKey",
      "outputs": [
        {
          "internalType": "bool",
          "name": "",
          "type": "bool"
        }
      ],
      "payable": false,
      "stateMutability": "view",
      "type": "function"
    },
    {
      "constant": true,
      "inputs": [
        {
          "internalType": "uint256",
          "name": "_page",
          "type": "uint256"
        },
        {
          "internalType": "uint256",
          "name": "_pageSize",
          "type": "uint256"
        }
      ],
      "name": "getOwnersByPage",
      "outputs": [
        {
          "internalType": "address[]",
          "name": "",
          "type": "address[]"
        }
      ],
      "payable": false,
      "stateMutability": "view",
      "type": "function"
    },
    {
      "constant": true,
      "inputs": [
        {
          "internalType": "address",
          "name": "_account",
          "type": "address"
        }
      ],
      "name": "getTokenIdFor",
      "outputs": [
        {
          "internalType": "uint256",
          "name": "",
          "type": "uint256"
        }
      ],
      "payable": false,
      "stateMutability": "view",
      "type": "function"
    },
    {
      "constant": true,
      "inputs": [
        {
          "internalType": "address",
          "name": "_owner",
          "type": "address"
        },
        {
          "internalType": "uint256",
          "name": "_time",
          "type": "uint256"
        }
      ],
      "name": "getTransferFee",
      "outputs": [
        {
          "internalType": "uint256",
          "name": "",
          "type": "uint256"
        }
      ],
      "payable": false,
      "stateMutability": "view",
      "type": "function"
    },
    {
      "constant": false,
      "inputs": [
        {
          "internalType": "address[]",
          "name": "_recipients",
          "type": "address[]"
        },
        {
          "internalType": "uint256[]",
          "name": "_expirationTimestamps",
          "type": "uint256[]"
        }
      ],
      "name": "grantKeys",
      "outputs": [],
      "payable": false,
      "stateMutability": "nonpayable",
      "type": "function"
    },
    {
      "constant": false,
      "inputs": [
        {
          "internalType": "uint256",
          "name": "_nextAvailableNonce",
          "type": "uint256"
        }
      ],
      "name": "invalidateOffchainApproval",
      "outputs": [],
      "payable": false,
      "stateMutability": "nonpayable",
      "type": "function"
    },
    {
      "constant": true,
      "inputs": [],
      "name": "isAlive",
      "outputs": [
        {
          "internalType": "bool",
          "name": "",
          "type": "bool"
        }
      ],
      "payable": false,
      "stateMutability": "view",
      "type": "function"
    },
    {
      "constant": true,
      "inputs": [
        {
          "internalType": "address",
          "name": "_owner",
          "type": "address"
        },
        {
          "internalType": "address",
          "name": "_operator",
          "type": "address"
        }
      ],
      "name": "isApprovedForAll",
      "outputs": [
        {
          "internalType": "bool",
          "name": "",
          "type": "bool"
        }
      ],
      "payable": false,
      "stateMutability": "view",
      "type": "function"
    },
    {
      "constant": true,
      "inputs": [
        {
          "internalType": "uint256",
          "name": "_tokenId",
          "type": "uint256"
        },
        {
          "internalType": "address",
          "name": "_owner",
          "type": "address"
        }
      ],
      "name": "isKeyOwner",
      "outputs": [
        {
          "internalType": "bool",
          "name": "",
          "type": "bool"
        }
      ],
      "payable": false,
      "stateMutability": "view",
      "type": "function"
    },
    {
      "constant": true,
      "inputs": [],
      "name": "isOwner",
      "outputs": [
        {
          "internalType": "bool",
          "name": "",
          "type": "bool"
        }
      ],
      "payable": false,
      "stateMutability": "view",
      "type": "function"
    },
    {
      "constant": true,
      "inputs": [],
      "name": "keyCancelInterfaceId",
      "outputs": [
        {
          "internalType": "bytes32",
          "name": "",
          "type": "bytes32"
        }
      ],
      "payable": false,
      "stateMutability": "view",
      "type": "function"
    },
    {
      "constant": true,
      "inputs": [
        {
          "internalType": "address",
          "name": "_owner",
          "type": "address"
        }
      ],
      "name": "keyExpirationTimestampFor",
      "outputs": [
        {
          "internalType": "uint256",
          "name": "timestamp",
          "type": "uint256"
        }
      ],
      "payable": false,
      "stateMutability": "view",
      "type": "function"
    },
    {
      "constant": true,
      "inputs": [
        {
          "internalType": "address",
          "name": "",
          "type": "address"
        }
      ],
      "name": "keyOwnerToNonce",
      "outputs": [
        {
          "internalType": "uint256",
          "name": "",
          "type": "uint256"
        }
      ],
      "payable": false,
      "stateMutability": "view",
      "type": "function"
    },
    {
      "constant": true,
      "inputs": [],
      "name": "keyPrice",
      "outputs": [
        {
          "internalType": "uint256",
          "name": "",
          "type": "uint256"
        }
      ],
      "payable": false,
      "stateMutability": "view",
      "type": "function"
    },
    {
      "constant": true,
      "inputs": [],
      "name": "keySoldInterfaceId",
      "outputs": [
        {
          "internalType": "bytes32",
          "name": "",
          "type": "bytes32"
        }
      ],
      "payable": false,
      "stateMutability": "view",
      "type": "function"
    },
    {
      "constant": true,
      "inputs": [],
      "name": "maxNumberOfKeys",
      "outputs": [
        {
          "internalType": "uint256",
          "name": "",
          "type": "uint256"
        }
      ],
      "payable": false,
      "stateMutability": "view",
      "type": "function"
    },
    {
      "constant": true,
      "inputs": [],
      "name": "name",
      "outputs": [
        {
          "internalType": "string",
          "name": "",
          "type": "string"
        }
      ],
      "payable": false,
      "stateMutability": "view",
      "type": "function"
    },
    {
      "constant": true,
      "inputs": [],
      "name": "numberOfOwners",
      "outputs": [
        {
          "internalType": "uint256",
          "name": "",
          "type": "uint256"
        }
      ],
      "payable": false,
      "stateMutability": "view",
      "type": "function"
    },
    {
      "constant": true,
      "inputs": [],
      "name": "owner",
      "outputs": [
        {
          "internalType": "address",
          "name": "",
          "type": "address"
        }
      ],
      "payable": false,
      "stateMutability": "view",
      "type": "function"
    },
    {
      "constant": true,
      "inputs": [
        {
          "internalType": "uint256",
          "name": "",
          "type": "uint256"
        }
      ],
      "name": "ownerOf",
      "outputs": [
        {
          "internalType": "address",
          "name": "",
          "type": "address"
        }
      ],
      "payable": false,
      "stateMutability": "view",
      "type": "function"
    },
    {
      "constant": true,
      "inputs": [
        {
          "internalType": "uint256",
          "name": "",
          "type": "uint256"
        }
      ],
      "name": "owners",
      "outputs": [
        {
          "internalType": "address",
          "name": "",
          "type": "address"
        }
      ],
      "payable": false,
      "stateMutability": "view",
      "type": "function"
    },
    {
      "constant": true,
      "inputs": [],
      "name": "publicLockVersion",
      "outputs": [
        {
          "internalType": "uint256",
          "name": "",
          "type": "uint256"
        }
      ],
      "payable": false,
      "stateMutability": "pure",
      "type": "function"
    },
    {
      "constant": false,
      "inputs": [
        {
          "internalType": "uint256",
          "name": "_value",
          "type": "uint256"
        },
        {
          "internalType": "address",
          "name": "_recipient",
          "type": "address"
        },
        {
          "internalType": "address",
          "name": "_referrer",
          "type": "address"
        },
        {
          "internalType": "bytes",
          "name": "_data",
          "type": "bytes"
        }
      ],
      "name": "purchase",
      "outputs": [],
      "payable": true,
      "stateMutability": "payable",
      "type": "function"
    },
    {
      "constant": true,
      "inputs": [],
      "name": "refundPenaltyBasisPoints",
      "outputs": [
        {
          "internalType": "uint256",
          "name": "",
          "type": "uint256"
        }
      ],
      "payable": false,
      "stateMutability": "view",
      "type": "function"
    },
    {
      "constant": false,
      "inputs": [],
      "name": "renounceOwnership",
      "outputs": [],
      "payable": false,
      "stateMutability": "nonpayable",
      "type": "function"
    },
    {
      "constant": false,
      "inputs": [
        {
          "internalType": "address",
          "name": "_from",
          "type": "address"
        },
        {
          "internalType": "address",
          "name": "_to",
          "type": "address"
        },
        {
          "internalType": "uint256",
          "name": "_tokenId",
          "type": "uint256"
        }
      ],
      "name": "safeTransferFrom",
      "outputs": [],
      "payable": false,
      "stateMutability": "nonpayable",
      "type": "function"
    },
    {
      "constant": false,
      "inputs": [
        {
          "internalType": "address",
          "name": "_from",
          "type": "address"
        },
        {
          "internalType": "address",
          "name": "_to",
          "type": "address"
        },
        {
          "internalType": "uint256",
          "name": "_tokenId",
          "type": "uint256"
        },
        {
          "internalType": "bytes",
          "name": "_data",
          "type": "bytes"
        }
      ],
      "name": "safeTransferFrom",
      "outputs": [],
      "payable": false,
      "stateMutability": "nonpayable",
      "type": "function"
    },
    {
      "constant": false,
      "inputs": [
        {
          "internalType": "address",
          "name": "_to",
          "type": "address"
        },
        {
          "internalType": "bool",
          "name": "_approved",
          "type": "bool"
        }
      ],
      "name": "setApprovalForAll",
      "outputs": [],
      "payable": false,
      "stateMutability": "nonpayable",
      "type": "function"
    },
    {
      "constant": false,
      "inputs": [
        {
          "internalType": "string",
          "name": "_baseTokenURI",
          "type": "string"
        }
      ],
      "name": "setBaseTokenURI",
      "outputs": [],
      "payable": false,
      "stateMutability": "nonpayable",
      "type": "function"
    },
    {
      "constant": false,
      "inputs": [
        {
          "internalType": "address",
          "name": "_to",
          "type": "address"
        },
        {
          "internalType": "uint256",
          "name": "_tokenId",
          "type": "uint256"
        },
        {
          "internalType": "uint256",
          "name": "_timeShared",
          "type": "uint256"
        }
      ],
      "name": "shareKey",
      "outputs": [],
      "payable": false,
      "stateMutability": "nonpayable",
      "type": "function"
    },
    {
      "constant": true,
      "inputs": [
        {
          "internalType": "bytes4",
          "name": "interfaceId",
          "type": "bytes4"
        }
      ],
      "name": "supportsInterface",
      "outputs": [
        {
          "internalType": "bool",
          "name": "",
          "type": "bool"
        }
      ],
      "payable": false,
      "stateMutability": "view",
      "type": "function"
    },
    {
      "constant": true,
      "inputs": [],
      "name": "symbol",
      "outputs": [
        {
          "internalType": "string",
          "name": "",
          "type": "string"
        }
      ],
      "payable": false,
      "stateMutability": "view",
      "type": "function"
    },
    {
      "constant": true,
      "inputs": [],
      "name": "tokenAddress",
      "outputs": [
        {
          "internalType": "address",
          "name": "",
          "type": "address"
        }
      ],
      "payable": false,
      "stateMutability": "view",
      "type": "function"
    },
    {
      "constant": true,
      "inputs": [
        {
          "internalType": "uint256",
          "name": "_index",
          "type": "uint256"
        }
      ],
      "name": "tokenByIndex",
      "outputs": [
        {
          "internalType": "uint256",
          "name": "",
          "type": "uint256"
        }
      ],
      "payable": false,
      "stateMutability": "view",
      "type": "function"
    },
    {
      "constant": true,
      "inputs": [
        {
          "internalType": "address",
          "name": "_owner",
          "type": "address"
        },
        {
          "internalType": "uint256",
          "name": "_index",
          "type": "uint256"
        }
      ],
      "name": "tokenOfOwnerByIndex",
      "outputs": [
        {
          "internalType": "uint256",
          "name": "",
          "type": "uint256"
        }
      ],
      "payable": false,
      "stateMutability": "view",
      "type": "function"
    },
    {
      "constant": true,
      "inputs": [
        {
          "internalType": "uint256",
          "name": "_tokenId",
          "type": "uint256"
        }
      ],
      "name": "tokenURI",
      "outputs": [
        {
          "internalType": "string",
          "name": "",
          "type": "string"
        }
      ],
      "payable": false,
      "stateMutability": "view",
      "type": "function"
    },
    {
      "constant": true,
      "inputs": [],
      "name": "totalSupply",
      "outputs": [
        {
          "internalType": "uint256",
          "name": "",
          "type": "uint256"
        }
      ],
      "payable": false,
      "stateMutability": "view",
      "type": "function"
    },
    {
      "constant": true,
      "inputs": [],
      "name": "transferFeeBasisPoints",
      "outputs": [
        {
          "internalType": "uint256",
          "name": "",
          "type": "uint256"
        }
      ],
      "payable": false,
      "stateMutability": "view",
      "type": "function"
    },
    {
      "constant": false,
      "inputs": [
        {
          "internalType": "address",
          "name": "_from",
          "type": "address"
        },
        {
          "internalType": "address",
          "name": "_recipient",
          "type": "address"
        },
        {
          "internalType": "uint256",
          "name": "_tokenId",
          "type": "uint256"
        }
      ],
      "name": "transferFrom",
      "outputs": [],
      "payable": false,
      "stateMutability": "nonpayable",
      "type": "function"
    },
    {
      "constant": false,
      "inputs": [
        {
          "internalType": "address",
          "name": "newOwner",
          "type": "address"
        }
      ],
      "name": "transferOwnership",
      "outputs": [],
      "payable": false,
      "stateMutability": "nonpayable",
      "type": "function"
    },
    {
      "constant": true,
      "inputs": [],
      "name": "unlockProtocol",
      "outputs": [
        {
          "internalType": "contract IUnlock",
          "name": "",
          "type": "address"
        }
      ],
      "payable": false,
      "stateMutability": "view",
      "type": "function"
    },
    {
      "constant": false,
      "inputs": [
        {
          "internalType": "address",
          "name": "_beneficiary",
          "type": "address"
        }
      ],
      "name": "updateBeneficiary",
      "outputs": [],
      "payable": false,
      "stateMutability": "nonpayable",
      "type": "function"
    },
    {
      "constant": false,
      "inputs": [
        {
          "internalType": "uint256",
          "name": "_keyPrice",
          "type": "uint256"
        }
      ],
      "name": "updateKeyPrice",
      "outputs": [],
      "payable": false,
      "stateMutability": "nonpayable",
      "type": "function"
    },
    {
      "constant": false,
      "inputs": [
        {
          "internalType": "string",
          "name": "_lockName",
          "type": "string"
        }
      ],
      "name": "updateLockName",
      "outputs": [],
      "payable": false,
      "stateMutability": "nonpayable",
      "type": "function"
    },
    {
      "constant": false,
      "inputs": [
        {
          "internalType": "string",
          "name": "_lockSymbol",
          "type": "string"
        }
      ],
      "name": "updateLockSymbol",
      "outputs": [],
      "payable": false,
      "stateMutability": "nonpayable",
      "type": "function"
    },
    {
      "constant": false,
      "inputs": [
        {
          "internalType": "uint256",
          "name": "_freeTrialLength",
          "type": "uint256"
        },
        {
          "internalType": "uint256",
          "name": "_refundPenaltyBasisPoints",
          "type": "uint256"
        }
      ],
      "name": "updateRefundPenalty",
      "outputs": [],
      "payable": false,
      "stateMutability": "nonpayable",
      "type": "function"
    },
    {
      "constant": false,
      "inputs": [
        {
          "internalType": "uint256",
          "name": "_transferFeeBasisPoints",
          "type": "uint256"
        }
      ],
      "name": "updateTransferFee",
      "outputs": [],
      "payable": false,
      "stateMutability": "nonpayable",
      "type": "function"
    },
    {
      "constant": false,
      "inputs": [
        {
          "internalType": "address",
          "name": "_tokenAddress",
          "type": "address"
        },
        {
          "internalType": "uint256",
          "name": "_amount",
          "type": "uint256"
        }
      ],
      "name": "withdraw",
      "outputs": [],
      "payable": false,
      "stateMutability": "nonpayable",
      "type": "function"
    },
    {
      "constant": false,
      "inputs": [
        {
          "internalType": "address",
          "name": "_owner",
          "type": "address"
        },
        {
          "internalType": "uint256",
          "name": "_expirationDuration",
          "type": "uint256"
        },
        {
          "internalType": "address",
          "name": "_tokenAddress",
          "type": "address"
        },
        {
          "internalType": "uint256",
          "name": "_keyPrice",
          "type": "uint256"
        },
        {
          "internalType": "uint256",
          "name": "_maxNumberOfKeys",
          "type": "uint256"
        },
        {
          "internalType": "string",
          "name": "_lockName",
          "type": "string"
        }
      ],
      "name": "initialize",
      "outputs": [],
      "payable": false,
      "stateMutability": "nonpayable",
      "type": "function"
    },
    {
      "constant": false,
      "inputs": [],
      "name": "initialize",
      "outputs": [],
      "payable": false,
      "stateMutability": "nonpayable",
      "type": "function"
    },
    {
      "constant": false,
      "inputs": [
        {
          "internalType": "address",
          "name": "_tokenAddress",
          "type": "address"
        }
      ],
      "name": "initialize",
      "outputs": [],
      "payable": false,
      "stateMutability": "nonpayable",
      "type": "function"
    }
  ],
  "bytecode": "0x6080604052615592806100136000396000f3fe6080604052600436106103ef5760003560e01c806374b6c10611610208578063a843a4e711610118578063d1bbd49c116100ab578063f12c6b6e1161007a578063f12c6b6e146111e0578063f2fde38b1461121f578063f3fef3a314611252578063f7514bce1461128b578063fc42b58f146112c4576103ef565b8063d1bbd49c14611140578063d4fac45d14611155578063e7e2736e14611190578063e985e9c5146111a5576103ef565b8063b8968bb4116100e7578063b8968bb414611043578063c1c98d03146110ce578063c4d66de8146110e3578063c87b56dd14611116576103ef565b8063a843a4e714610f15578063abdf82ce14610f2a578063b3084f0814610f5d578063b88d4fde14610f72576103ef565b8063936d2aa41161019b578063994a8a711161016a578063994a8a7114610e445780639d76ea5814610e7d5780639f98d3cb14610e92578063a22cb46514610ec5578063a375cb0514610f00576103ef565b8063936d2aa414610dd257806393fd184414610de757806395d89b4114610dfc578063970aaeb714610e11576103ef565b80638577a6d5116101d75780638577a6d514610d435780638d0361fc14610d6d5780638da5cb5b14610da85780638f32d59b14610dbd576103ef565b806374b6c10614610bd3578063782a4ade14610be85780637c7c425314610c635780638129fc1c14610d2e576103ef565b806335576ad0116103035780634fd24d30116102965780636352211e116102655780636352211e14610a525780636d8ea5b414610a7c5780636eadde4314610aaf57806370a0823114610b8b578063715018a614610bbe576103ef565b80634fd24d301461097a57806352d6a8e41461098f578063550ef3a8146109c257806356e0d51f14610a3d576103ef565b80634136aa35116102d25780634136aa35146108c557806342842e0e146108da5780634bc5a1351461091d5780634f6ccce714610950576103ef565b806335576ad0146107c857806338af3eed146107f257806339f46986146108075780633f33133a14610837576103ef565b806310e56973116103865780631f1ec029116103555780631f1ec029146106925780632009dc65146106bc57806323b872dd146106d15780632f745c591461071457806330176e131461074d576103ef565b806310e569731461062c57806311a4c03a1461065357806318160ddd14610668578063183767da1461067d576103ef565b8063095ea7b3116103c2578063095ea7b3146105365780630aaffd2a146105645780630f15023b1461059757806310803b72146105ac576103ef565b806301ffc9a7146103f4578063025e7c271461043c57806306fdde0314610482578063081812fc1461050c575b600080fd5b34801561040057600080fd5b506104286004803603602081101561041757600080fd5b50356001600160e01b0319166112fd565b604080519115158252519081900360200190f35b34801561044857600080fd5b506104666004803603602081101561045f57600080fd5b5035611320565b604080516001600160a01b039092168252519081900360200190f35b34801561048e57600080fd5b50610497611347565b6040805160208082528351818301528351919283929083019185019080838360005b838110156104d15781810151838201526020016104b9565b50505050905090810190601f1680156104fe5780820380516001836020036101000a031916815260200191505b509250505060405180910390f35b34801561051857600080fd5b506104666004803603602081101561052f57600080fd5b50356113d5565b6105626004803603604081101561054c57600080fd5b506001600160a01b038135169060200135611435565b005b34801561057057600080fd5b506105626004803603602081101561058757600080fd5b50356001600160a01b03166115cb565b3480156105a357600080fd5b506104666116bc565b3480156105b857600080fd5b506105dc600480360360408110156105cf57600080fd5b50803590602001356116cb565b60408051602080825283518183015283519192839290830191858101910280838360005b83811015610618578181015183820152602001610600565b505050509050019250505060405180910390f35b34801561063857600080fd5b506106416117e3565b60408051918252519081900360200190f35b34801561065f57600080fd5b506106416117e9565b34801561067457600080fd5b506106416117ef565b34801561068957600080fd5b506106416117f5565b34801561069e57600080fd5b50610562600480360360208110156106b557600080fd5b50356117fb565b3480156106c857600080fd5b506105626118d9565b3480156106dd57600080fd5b50610562600480360360608110156106f457600080fd5b506001600160a01b038135811691602081013590911690604001356118f3565b34801561072057600080fd5b506106416004803603604081101561073757600080fd5b506001600160a01b038135169060200135611bac565b34801561075957600080fd5b506105626004803603602081101561077057600080fd5b810190602081018135600160201b81111561078a57600080fd5b82018360208201111561079c57600080fd5b803590602001918460018302840111600160201b831117156107bd57600080fd5b509092509050611c0a565b3480156107d457600080fd5b50610562600480360360208110156107eb57600080fd5b5035611c62565b3480156107fe57600080fd5b50610466611d04565b34801561081357600080fd5b506105626004803603604081101561082a57600080fd5b5080359060200135611d13565b6105626004803603608081101561084d57600080fd5b8135916001600160a01b03602082013581169260408301359091169190810190608081016060820135600160201b81111561088757600080fd5b82018360208201111561089957600080fd5b803590602001918460018302840111600160201b831117156108ba57600080fd5b509092509050611da0565b3480156108d157600080fd5b50610428612179565b3480156108e657600080fd5b50610562600480360360608110156108fd57600080fd5b506001600160a01b03813581169160208101359091169060400135612189565b34801561092957600080fd5b506106416004803603602081101561094057600080fd5b50356001600160a01b03166121a4565b34801561095c57600080fd5b506106416004803603602081101561097357600080fd5b50356121b6565b34801561098657600080fd5b50610641612201565b34801561099b57600080fd5b50610641600480360360208110156109b257600080fd5b50356001600160a01b0316612207565b3480156109ce57600080fd5b50610562600480360360208110156109e557600080fd5b810190602081018135600160201b8111156109ff57600080fd5b820183602082011115610a1157600080fd5b803590602001918460018302840111600160201b83111715610a3257600080fd5b509092509050612212565b348015610a4957600080fd5b50610641612265565b348015610a5e57600080fd5b5061046660048036036020811015610a7557600080fd5b503561226b565b348015610a8857600080fd5b5061042860048036036020811015610a9f57600080fd5b50356001600160a01b0316612286565b348015610abb57600080fd5b50610562600480360360c0811015610ad257600080fd5b6001600160a01b03823581169260208101359260408201359092169160608201359160808101359181019060c0810160a0820135600160201b811115610b1757600080fd5b820183602082011115610b2957600080fd5b803590602001918460018302840111600160201b83111715610b4a57600080fd5b91908080601f0160208091040260200160405190810160405280939291908181526020018383808284376000920191909152509295506122a6945050505050565b348015610b9757600080fd5b5061064160048036036020811015610bae57600080fd5b50356001600160a01b031661239d565b348015610bca57600080fd5b5061056261240c565b348015610bdf57600080fd5b5061064161249d565b348015610bf457600080fd5b5061056260048036036020811015610c0b57600080fd5b810190602081018135600160201b811115610c2557600080fd5b820183602082011115610c3757600080fd5b803590602001918460018302840111600160201b83111715610c5857600080fd5b5090925090506124a3565b348015610c6f57600080fd5b5061056260048036036040811015610c8657600080fd5b810190602081018135600160201b811115610ca057600080fd5b820183602082011115610cb257600080fd5b803590602001918460208302840111600160201b83111715610cd357600080fd5b919390929091602081019035600160201b811115610cf057600080fd5b820183602082011115610d0257600080fd5b803590602001918460208302840111600160201b83111715610d2357600080fd5b50909250905061255b565b348015610d3a57600080fd5b506105626126ec565b348015610d4f57600080fd5b5061056260048036036020811015610d6657600080fd5b50356126f4565b348015610d7957600080fd5b5061064160048036036040811015610d9057600080fd5b506001600160a01b0381358116916020013516612773565b348015610db457600080fd5b506104666127d7565b348015610dc957600080fd5b506104286127e7565b348015610dde57600080fd5b5061064161280d565b348015610df357600080fd5b50610641612831565b348015610e0857600080fd5b50610497612837565b348015610e1d57600080fd5b5061064160048036036020811015610e3457600080fd5b50356001600160a01b0316612a26565b348015610e5057600080fd5b5061042860048036036040811015610e6757600080fd5b50803590602001356001600160a01b0316612a90565b348015610e8957600080fd5b50610466612ab1565b348015610e9e57600080fd5b5061056260048036036020811015610eb557600080fd5b50356001600160a01b0316612ac0565b348015610ed157600080fd5b5061056260048036036040811015610ee857600080fd5b506001600160a01b0381351690602001351515612b9f565b348015610f0c57600080fd5b50610641612caa565b348015610f2157600080fd5b50610562612cb0565b348015610f3657600080fd5b5061064160048036036020811015610f4d57600080fd5b50356001600160a01b0316612da0565b348015610f6957600080fd5b50610641612e25565b348015610f7e57600080fd5b5061056260048036036080811015610f9557600080fd5b6001600160a01b03823581169260208101359091169160408201359190810190608081016060820135600160201b811115610fcf57600080fd5b820183602082011115610fe157600080fd5b803590602001918460018302840111600160201b8311171561100257600080fd5b91908080601f016020809104026020016040519081016040528093929190818152602001838380828437600092019190915250929550612e49945050505050565b34801561104f57600080fd5b506105626004803603604081101561106657600080fd5b6001600160a01b038235169190810190604081016020820135600160201b81111561109057600080fd5b8201836020820111156110a257600080fd5b803590602001918460018302840111600160201b831117156110c357600080fd5b509092509050612ffc565b3480156110da57600080fd5b50610562613117565b3480156110ef57600080fd5b506105626004803603602081101561110657600080fd5b50356001600160a01b03166131e6565b34801561112257600080fd5b506104976004803603602081101561113957600080fd5b50356132b5565b34801561114c57600080fd5b50610641613542565b34801561116157600080fd5b506106416004803603604081101561117857600080fd5b506001600160a01b0381358116916020013516613547565b34801561119c57600080fd5b506104666135f1565b3480156111b157600080fd5b50610428600480360360408110156111c857600080fd5b506001600160a01b0381358116916020013516613609565b3480156111ec57600080fd5b506105626004803603606081101561120357600080fd5b506001600160a01b038135169060208101359060400135613637565b34801561122b57600080fd5b506105626004803603602081101561124257600080fd5b50356001600160a01b03166139bd565b34801561125e57600080fd5b506105626004803603604081101561127557600080fd5b506001600160a01b038135169060200135613a0d565b34801561129757600080fd5b50610562600480360360408110156112ae57600080fd5b506001600160a01b038135169060200135613b67565b3480156112d057600080fd5b50610641600480360360408110156112e757600080fd5b506001600160a01b038135169060200135613c03565b6001600160e01b0319811660009081526033602052604090205460ff165b919050565b60a3818154811061132d57fe5b6000918252602090912001546001600160a01b0316905081565b60a4805460408051602060026001851615610100026000190190941693909304601f810184900484028201840190925281815292918301828280156113cd5780601f106113a2576101008083540402835291602001916113cd565b820191906000526020600020905b8154815290600101906020018083116113b057829003601f168201915b505050505081565b600081815260a760205260408120546001600160a01b03168061142f576040805162461bcd60e51b815260206004820152600d60248201526c1393d39157d054141493d59151609a1b604482015290519081900360640190fd5b92915050565b609a54600160a01b900460ff16611485576040805162461bcd60e51b815260206004820152600f60248201526e1313d0d2d7d11154149150d0551151608a1b604482015290519081900360640190fd5b806114908133612a90565b806114a057506114a08133613cac565b806114c85750600081815260a260205260409020546114c8906001600160a01b031633613609565b611516576040805162461bcd60e51b815260206004820152601a60248201527913d3931657d2d15657d3d5d3915497d3d497d054141493d5915160321b604482015290519081900360640190fd5b336001600160a01b0384161415611563576040805162461bcd60e51b815260206004820152600c60248201526b20a8282927ab22afa9a2a62360a11b604482015290519081900360640190fd5b600082815260a76020908152604080832080546001600160a01b0319166001600160a01b0388811691821790925560a2909352818420549151869492909116917f8c5be1e5ebec7d5bd14f71427d1e84f3dd0314c0f7b2291e5b200ac8c7c3b92591a4505050565b6115d36127d7565b6001600160a01b0316336001600160a01b031614806115fc575060a0546001600160a01b031633145b61164d576040805162461bcd60e51b815260206004820152601e60248201527f4f4e4c595f4c4f434b5f4f574e45525f4f525f42454e45464943494152590000604482015290519081900360640190fd5b6001600160a01b03811661169a576040805162461bcd60e51b815260206004820152600f60248201526e494e56414c49445f4144445245535360881b604482015290519081900360640190fd5b60a080546001600160a01b0319166001600160a01b0392909216919091179055565b609b546001600160a01b031681565b60a354606090611718576040805162461bcd60e51b81526020600482015260136024820152724e4f5f4f55545354414e44494e475f4b45595360681b604482015290519081900360640190fd5b60a354829084820290600090828401111561173b575060a3548181039250611740565b508082015b60608360405190808252806020026020018201604052801561176c578160200160208202803883390190505b5090506000835b838110156117d65760a3818154811061178857fe5b9060005260206000200160009054906101000a90046001600160a01b03168383815181106117b257fe5b6001600160a01b039092166020928302919091019091015260019182019101611773565b5090979650505050505050565b609d5481565b609c5481565b609f5481565b60a95481565b6118036127e7565b611842576040805162461bcd60e51b815260206004820181905260248201526000805160206154c6833981519152604482015290519081900360640190fd5b609a54600160a01b900460ff16611892576040805162461bcd60e51b815260206004820152600f60248201526e1313d0d2d7d11154149150d0551151608a1b604482015290519081900360640190fd5b609d805490829055604080518281526020810184905281517f8aa4fa52648a6d15edce8a179c792c86f3719d0cc3c572cf90f91948f0f2cb68929181900390910190a15050565b60006118e433613ccd565b90506118f03382613dd4565b50565b609a54600160a01b900460ff16611943576040805162461bcd60e51b815260206004820152600f60248201526e1313d0d2d7d11154149150d0551151608a1b604482015290519081900360640190fd5b8261194d81612286565b61198e576040805162461bcd60e51b815260206004820152600d60248201526c12d15657d393d517d590531251609a1b604482015290519081900360640190fd5b816119998133612a90565b806119a957506119a98133613cac565b806119d15750600081815260a260205260409020546119d1906001600160a01b031633613609565b611a1f576040805162461bcd60e51b815260206004820152601a60248201527913d3931657d2d15657d3d5d3915497d3d497d054141493d5915160321b604482015290519081900360640190fd5b61271060a95410611a70576040805162461bcd60e51b815260206004820152601660248201527512d15657d514905394d1915494d7d11254d05093115160521b604482015290519081900360640190fd5b6001600160a01b038416611abd576040805162461bcd60e51b815260206004820152600f60248201526e494e56414c49445f4144445245535360881b604482015290519081900360640190fd5b6000611aca866000613c03565b6001600160a01b03808816600090815260a1602052604080822092891682528120825460018201549495509293909291611b079083908790613e59565b8254611b1d578354808455611b1d908a90613f7b565b428111611b41576001808501549084015583548355611b3c8989613f7b565b611b5e565b6001840154611b589042830363ffffffff61400316565b60018401555b42600185015560008455611b718861405d565b87896001600160a01b03168b6001600160a01b031660008051602061551483398151915260405160405180910390a450505050505050505050565b60008115611bfa576040805162461bcd60e51b815260206004820152601660248201527527a7262cafa7a722afa5a2acafa822a92fa7aba722a960511b604482015290519081900360640190fd5b611c0383612a26565b9392505050565b611c126127e7565b611c51576040805162461bcd60e51b815260206004820181905260248201526000805160206154c6833981519152604482015290519081900360640190fd5b611c5d60a68383615342565b505050565b336000908152609960205260409020548111611cba576040805162461bcd60e51b81526020600482015260126024820152711393d390d157d053149150511657d554d15160721b604482015290519081900360640190fd5b33600081815260996020908152604091829020849055815184815291517ff5d035b703f1ad8d403dd02e821d04257acafc5f6c5d70a3907bd8abf33a2e0f9281900390910190a250565b60a0546001600160a01b031681565b611d1b6127e7565b611d5a576040805162461bcd60e51b815260206004820181905260248201526000805160206154c6833981519152604482015290519081900360640190fd5b604080518381526020810183905281517fd6867bc538320e67d7bdc35860c27c08486eb490b4fd9b820fff18fb28381d3c929181900390910190a160ab9190915560aa55565b609a54600160a01b900460ff16611df0576040805162461bcd60e51b815260206004820152600f60248201526e1313d0d2d7d11154149150d0551151608a1b604482015290519081900360640190fd5b609f54609e5411611e38576040805162461bcd60e51b815260206004820152600d60248201526c1313d0d2d7d4d3d31117d3d555609a1b604482015290519081900360640190fd5b6001600160a01b038416611e85576040805162461bcd60e51b815260206004820152600f60248201526e494e56414c49445f4144445245535360881b604482015290519081900360640190fd5b6001600160a01b038416600090815260a1602052604090208054611eba57611eac81614098565b611eba858260000154613f7b565b42816001015410611ee657609c546001820154611edc9163ffffffff61400316565b6001820155611ef1565b609c54420160018201555b609d54609b5460408051630cb175e360e01b81526001600160a01b03898116600483015260248201859052825160009586959094921692630cb175e3926044808301939192829003018186803b158015611f4a57600080fd5b505afa158015611f5e573d6000803e3d6000fd5b505050506040513d6040811015611f7457600080fd5b508051602090910151909350915080831115611f9257506000611f96565b8290035b821561200957609b5460408051633652466360e01b8152600481018690526024810185905290516001600160a01b039092169163365246639160448082019260009290919082900301818387803b158015611ff057600080fd5b505af1158015612004573d6000803e3d6000fd5b505050505b609b546001600160a01b031663939d9f1f826120248a612286565b61202f576000612031565b895b6040518363ffffffff1660e01b815260040180838152602001826001600160a01b03166001600160a01b0316815260200192505050600060405180830381600087803b15801561208057600080fd5b505af1158015612094573d6000803e3d6000fd5b505085546040519092506001600160a01b038b169150600090600080516020615514833981519152908290a4609a546001600160a01b03161561211e578089101561211b576040805162461bcd60e51b8152602060048201526012602482015271494e53554646494349454e545f56414c554560701b604482015290519081900360640190fd5b50875b6000612129826140ad565b905061216d8989838a8a8080601f01602080910402602001604051908101604052809392919081815260200183838082843760009201919091525061413b92505050565b50505050505050505050565b609a54600160a01b900460ff1681565b611c5d83838360405180602001604052806000815250612e49565b60996020526000908152604090205481565b6000609f5482106121fd576040805162461bcd60e51b815260206004820152600c60248201526b4f55545f4f465f52414e474560a01b604482015290519081900360640190fd5b5090565b61271081565b600061142f82613ccd565b61221a6127e7565b612259576040805162461bcd60e51b815260206004820181905260248201526000805160206154c6833981519152604482015290519081900360640190fd5b611c5d60a48383615342565b60aa5481565b60a2602052600090815260409020546001600160a01b031681565b6001600160a01b0316600090815260a16020526040902060010154421090565b600054610100900460ff16806122bf57506122bf6142f1565b806122cd575060005460ff16155b6123085760405162461bcd60e51b815260040180806020018281038252602e8152602001806154e6602e913960400191505060405180910390fd5b600054610100900460ff16158015612333576000805460ff1961ff0019909116610100171660011790555b61233c876142f7565b612345856131e6565b61234d6143e8565b612359878786866143fd565b61236282614493565b61236a6144bf565b6123726126ec565b6123826380ac58cd60e01b6144d1565b8015612394576000805461ff00191690555b50505050505050565b60006001600160a01b0382166123ec576040805162461bcd60e51b815260206004820152600f60248201526e494e56414c49445f4144445245535360881b604482015290519081900360640190fd5b6123f582612286565b612400576000612403565b60015b60ff1692915050565b6124146127e7565b612453576040805162461bcd60e51b815260206004820181905260248201526000805160206154c6833981519152604482015290519081900360640190fd5b6066546040516000916001600160a01b0316907f8be0079c531659141344cd1fd0a4f28419497f9722a3daafe3b4186f6b6457e0908390a3606680546001600160a01b0319169055565b609e5481565b6124ab6127e7565b6124ea576040805162461bcd60e51b815260206004820181905260248201526000805160206154c6833981519152604482015290519081900360640190fd5b6124f660a58383615342565b507f8868e22e84ebf32da89b2ebcb0ac642816304ea3863b257f240df9098719cb97828260405180806020018281038252848482818152602001925080828437600083820152604051601f909101601f19169092018290039550909350505050a15050565b6125636127e7565b6125a2576040805162461bcd60e51b815260206004820181905260248201526000805160206154c6833981519152604482015290519081900360640190fd5b60005b838110156126e55760008585838181106125bb57fe5b905060200201356001600160a01b0316905060008484848181106125db57fe5b60200291909101359150506001600160a01b038216612633576040805162461bcd60e51b815260206004820152600f60248201526e494e56414c49445f4144445245535360881b604482015290519081900360640190fd5b6001600160a01b038216600090815260a16020526040902060018101548211612696576040805162461bcd60e51b815260206004820152601060248201526f414c52454144595f4f574e535f4b455960801b604482015290519081900360640190fd5b61269f81614098565b6126ad838260000154613f7b565b6001810182905580546040516001600160a01b03851690600090600080516020615514833981519152908290a45050506001016125a5565b5050505050565b6103e860aa55565b6126fc6127e7565b61273b576040805162461bcd60e51b815260206004820181905260248201526000805160206154c6833981519152604482015290519081900360640190fd5b6040805182815290517f0496ed1e61eb69727f9659a8e859288db4758ffb1f744d1c1424634f90a257f49181900360200190a160a955565b6001600160a01b039190911660009081526099602090815260409182902054825130606090811b82850152603482019290925293901b6bffffffffffffffffffffffff19166054840152815180840360480181526068909301909152815191012090565b6066546001600160a01b03165b90565b6066546000906001600160a01b03166127fe614555565b6001600160a01b031614905090565b7fd6342b4bfdf66164985c9f5fe235f643a035ee12f507d7bd0f8c89e07e790f6881565b60a35490565b60a5546060906002600019610100600184161502019091160461299457609b60009054906101000a90046001600160a01b03166001600160a01b031663cec410526040518163ffffffff1660e01b815260040160006040518083038186803b1580156128a257600080fd5b505afa1580156128b6573d6000803e3d6000fd5b505050506040513d6000823e601f3d908101601f1916820160405260208110156128df57600080fd5b8101908080516040519392919084600160201b8211156128fe57600080fd5b90830190602082018581111561291357600080fd5b8251600160201b81118282018810171561292c57600080fd5b82525081516020918201929091019080838360005b83811015612959578181015183820152602001612941565b50505050905090810190601f1680156129865780820380516001836020036101000a031916815260200191505b5060405250505090506127e4565b60a5805460408051602060026001851615610100026000190190941693909304601f81018490048402820184019092528181529291830182828015612a1a5780601f106129ef57610100808354040283529160200191612a1a565b820191906000526020600020905b8154815290600101906020018083116129fd57829003601f168201915b505050505090506127e4565b600081612a3281612286565b612a73576040805162461bcd60e51b815260206004820152600d60248201526c12d15657d393d517d590531251609a1b604482015290519081900360640190fd5b50506001600160a01b0316600090815260a1602052604090205490565b600091825260a26020526040909120546001600160a01b0391821691161490565b609a546001600160a01b031681565b612ac86127e7565b612b07576040805162461bcd60e51b815260206004820181905260248201526000805160206154c6833981519152604482015290519081900360640190fd5b80612b1181612286565b612b52576040805162461bcd60e51b815260206004820152600d60248201526c12d15657d393d517d590531251609a1b604482015290519081900360640190fd5b6001600160a01b038216600090815260a160205260408082204260018201558054915190927f59f2fe866dd27a1c2d34115520888c3150365cbc931aab97fa88c4b9ab40b79591a2505050565b609a54600160a01b900460ff16612bef576040805162461bcd60e51b815260206004820152600f60248201526e1313d0d2d7d11154149150d0551151608a1b604482015290519081900360640190fd5b6001600160a01b038216331415612c3c576040805162461bcd60e51b815260206004820152600c60248201526b20a8282927ab22afa9a2a62360a11b604482015290519081900360640190fd5b33600081815260a8602090815260408083206001600160a01b03871680855290835292819020805460ff1916861515908117909155815190815290519293927f17307eab39ab6107e8899845ad3d59bd9653f200f220920489ca2b5937696c31929181900390910190a35050565b60ab5481565b612cb86127e7565b612cf7576040805162461bcd60e51b815260206004820181905260248201526000805160206154c6833981519152604482015290519081900360640190fd5b609a54600160a01b900460ff1615612d46576040805162461bcd60e51b815260206004820152600d60248201526c111254d050931157d1925494d5609a1b604482015290519081900360640190fd5b6040805130318152905133917fa053f2a7eceda47dde76e5939c5adf7b771e665fc84c8ef6feffc290a1eb1feb919081900360200190a2609a54612d9d906001600160a01b031633612d988230613547565b614559565b33ff5b6001600160a01b038116600090815260a160205260408120600101548290612e05576040805162461bcd60e51b81526020600482015260136024820152724841535f4e455645525f4f574e45445f4b455960681b604482015290519081900360640190fd5b50506001600160a01b0316600090815260a1602052604090206001015490565b7f4d99da10ff5120f726d35edd8dbd417bbe55d90453b8432acd284e650ee2c6f081565b609a54600160a01b900460ff16612e99576040805162461bcd60e51b815260206004820152600f60248201526e1313d0d2d7d11154149150d0551151608a1b604482015290519081900360640190fd5b81612ea48133612a90565b80612eb45750612eb48133613cac565b80612edc5750600081815260a26020526040902054612edc906001600160a01b031633613609565b612f2a576040805162461bcd60e51b815260206004820152601a60248201527913d3931657d2d15657d3d5d3915497d3d497d054141493d5915160321b604482015290519081900360640190fd5b600083815260a260205260409020546001600160a01b0316612f4b81612286565b612f8c576040805162461bcd60e51b815260206004820152600d60248201526c12d15657d393d517d590531251609a1b604482015290519081900360640190fd5b612f978686866118f3565b612fa3868686866145a6565b612ff4576040805162461bcd60e51b815260206004820152601d60248201527f4e4f4e5f434f4d504c49414e545f4552433732315f5245434549564552000000604482015290519081900360640190fd5b505050505050565b6130068333612773565b82828080601f016020809104026020016040519081016040528093929190818152602001838380828437600092019190915250879250506001600160a01b038216905061305b613055856146d9565b8461472a565b6001600160a01b0316146130aa576040805162461bcd60e51b8152602060048201526011602482015270494e56414c49445f5349474e415455524560781b604482015290519081900360640190fd5b6001600160a01b038116600081815260996020908152604091829020805460010190819055825190815291517ff5d035b703f1ad8d403dd02e821d04257acafc5f6c5d70a3907bd8abf33a2e0f9281900390910190a2600061310b87613ccd565b90506123948782613dd4565b61311f6127e7565b61315e576040805162461bcd60e51b815260206004820181905260248201526000805160206154c6833981519152604482015290519081900360640190fd5b609a54600160a01b900460ff166131ae576040805162461bcd60e51b815260206004820152600f60248201526e1313d0d2d7d11154149150d0551151608a1b604482015290519081900360640190fd5b6040517f25a311358326fb18c62efc24bc28d3126acee8d2a67fd8b2145b757dc8bd1bc190600090a1609a805460ff60a01b19169055565b609a80546001600160a01b0319166001600160a01b038316908117909155158061327457506000816001600160a01b03166318160ddd6040518163ffffffff1660e01b815260040160206040518083038186803b15801561324657600080fd5b505afa15801561325a573d6000803e3d6000fd5b505050506040513d602081101561327057600080fd5b5051115b6118f0576040805162461bcd60e51b815260206004820152600d60248201526c24a72b20a624a22faa27a5a2a760991b604482015290519081900360640190fd5b600081815260a2602052604090205460609082906001600160a01b0316613311576040805162461bcd60e51b815260206004820152600b60248201526a4e4f5f535543485f4b455960a81b604482015290519081900360640190fd5b60a6546060906002600019610100600184161502019091160461346e57609b60009054906101000a90046001600160a01b03166001600160a01b031663a998e9fb6040518163ffffffff1660e01b815260040160006040518083038186803b15801561337c57600080fd5b505afa158015613390573d6000803e3d6000fd5b505050506040513d6000823e601f3d908101601f1916820160405260208110156133b957600080fd5b8101908080516040519392919084600160201b8211156133d857600080fd5b9083019060208201858111156133ed57600080fd5b8251600160201b81118282018810171561340657600080fd5b82525081516020918201929091019080838360005b8381101561343357818101518382015260200161341b565b50505050905090810190601f1680156134605780820380516001836020036101000a031916815260200191505b5060405250505090506134fc565b60a6805460408051602060026001851615610100026000190190941693909304601f810184900484028201840190925281815292918301828280156134f45780601f106134c9576101008083540402835291602001916134f4565b820191906000526020600020905b8154815290600101906020018083116134d757829003601f168201915b505050505090505b61353a61350830614818565b604051806040016040528060018152602001602f60f81b81525061352b87614994565b8492919063ffffffff614a5816565b949350505050565b600590565b60006001600160a01b03831661356857506001600160a01b0381163161142f565b826001600160a01b03166370a08231836040518263ffffffff1660e01b815260040180826001600160a01b03166001600160a01b0316815260200191505060206040518083038186803b1580156135be57600080fd5b505afa1580156135d2573d6000803e3d6000fd5b505050506040513d60208110156135e857600080fd5b5051905061142f565b731820a4b7618bde71dce8cdc73aab6c95905fad2481565b6001600160a01b03918216600090815260a86020908152604080832093909416825291909152205460ff1690565b609a54600160a01b900460ff16613687576040805162461bcd60e51b815260206004820152600f60248201526e1313d0d2d7d11154149150d0551151608a1b604482015290519081900360640190fd5b816136928133612a90565b806136a257506136a28133613cac565b806136ca5750600081815260a260205260409020546136ca906001600160a01b031633613609565b613718576040805162461bcd60e51b815260206004820152601a60248201527913d3931657d2d15657d3d5d3915497d3d497d054141493d5915160321b604482015290519081900360640190fd5b61271060a95410613769576040805162461bcd60e51b815260206004820152601660248201527512d15657d514905394d1915494d7d11254d05093115160521b604482015290519081900360640190fd5b6001600160a01b0384166137b6576040805162461bcd60e51b815260206004820152600f60248201526e494e56414c49445f4144445245535360881b604482015290519081900360640190fd5b600083815260a260205260409020546001600160a01b03166137d781612286565b613818576040805162461bcd60e51b815260206004820152600d60248201526c12d15657d393d517d590531251609a1b604482015290519081900360640190fd5b6001600160a01b03808216600090815260a1602052604080822092881682528120805460018401549192909142900381613852878a613c03565b905060006138668a8363ffffffff61400316565b9050828110156138845789935061387f8b826000613e59565b6138c8565b61388e8884613c03565b42600189015560405181850395509092508b907f59f2fe866dd27a1c2d34115520888c3150365cbc931aab97fa88c4b9ab40b79590600090a25b8554613908576138d786614098565b6138e18c86613f7b565b60405185906001600160a01b038e1690600090600080516020615514833981519152908290a45b61391485856001613e59565b848c6001600160a01b0316896001600160a01b031660008051602061551483398151915260405160405180910390a461395e888d8d604051806020016040528060008152506145a6565b6139af576040805162461bcd60e51b815260206004820152601d60248201527f4e4f4e5f434f4d504c49414e545f4552433732315f5245434549564552000000604482015290519081900360640190fd5b505050505050505050505050565b6139c56127e7565b613a04576040805162461bcd60e51b815260206004820181905260248201526000805160206154c6833981519152604482015290519081900360640190fd5b6118f081614c0d565b613a156127d7565b6001600160a01b0316336001600160a01b03161480613a3e575060a0546001600160a01b031633145b613a8f576040805162461bcd60e51b815260206004820152601e60248201527f4f4e4c595f4c4f434b5f4f574e45525f4f525f42454e45464943494152590000604482015290519081900360640190fd5b6000613a9b8330613547565b90506000821580613aab57508183115b15613aff5760008211613af8576040805162461bcd60e51b815260206004820152601060248201526f4e4f545f454e4f5547485f46554e445360801b604482015290519081900360640190fd5b5080613b02565b50815b60a0546040805183815290516001600160a01b039283169287169133917f342e7ff505a8a0364cd0dc2ff195c315e43bce86b204846ecd36913e117b109e9181900360200190a460a054613b619085906001600160a01b031683614559565b50505050565b613b6f6127e7565b613bae576040805162461bcd60e51b815260206004820181905260248201526000805160206154c6833981519152604482015290519081900360640190fd5b81613bb881612286565b613bf9576040805162461bcd60e51b815260206004820152600d60248201526c12d15657d393d517d590531251609a1b604482015290519081900360640190fd5b611c5d8383613dd4565b600082613c0f81612286565b613c50576040805162461bcd60e51b815260206004820152600d60248201526c12d15657d393d517d590531251609a1b604482015290519081900360640190fd5b6001600160a01b038416600090815260a160205260408120908085613c7d57428360010154039150613c81565b8591505b612710613c9960a95484614cae90919063ffffffff16565b81613ca057fe5b04979650505050505050565b600091825260a76020526040909120546001600160a01b0391821691161490565b600081613cd981612286565b613d1a576040805162461bcd60e51b815260206004820152600d60248201526c12d15657d393d517d590531251609a1b604482015290519081900360640190fd5b6001600160a01b038316600090815260a1602052604090206001810154609c5460ab544290920391820110613d5357609d549350613d74565b609c54609d54613d69908363ffffffff614cae16565b81613d7057fe5b0493505b60ab541580613d885750609c5460ab548201105b15613dcc576000612710613da960aa54609d54614cae90919063ffffffff16565b81613db057fe5b04905080851115613dc5578085039450613dca565b600094505b505b505050919050565b6001600160a01b038216600081815260a1602090815260409182902080548351868152935191943394909391927f0a7068a9989857441c039a14a42b67ed71dd1fcfe5a9b17cc87b252e47bce528929181900390910190a44260018201558115613e4f57609a54613e4f906001600160a01b03168484614559565b611c5d8383614d07565b600083815260a260205260409020546001600160a01b031680613eb6576040805162461bcd60e51b815260206004820152601060248201526f4e4f4e5f4558495354454e545f4b455960801b604482015290519081900360640190fd5b6001600160a01b038116600090815260a16020526040812060018101549091613ede84612286565b90508415613f21578015613f0657613efc828763ffffffff61400316565b6001840155613f1c565b613f16428763ffffffff61400316565b60018401555b613f37565b613f31828763ffffffff614e3716565b60018401555b604080518781528615156020820152815189927fa2ede7ad01668310f921fcf6084901d08af350838c2744a013153e4968a7559d928290030190a250505050505050565b600081815260a260205260409020546001600160a01b03838116911614613fff5760a38054600181019091557f60859188cffe297f44dde29f2d2865634621f26215049caeb304ccba566a8b170180546001600160a01b0384166001600160a01b03199182168117909255600083815260a260205260409020805490911690911790555b5050565b600082820183811015611c03576040805162461bcd60e51b815260206004820152601b60248201527f536166654d6174683a206164646974696f6e206f766572666c6f770000000000604482015290519081900360640190fd5b600081815260a760205260409020546001600160a01b0316156118f057600090815260a76020526040902080546001600160a01b0319169055565b80546118f057609f8054600101908190559055565b6000811561131b57609a546001600160a01b0316614114578134101561410d576040805162461bcd60e51b815260206004820152601060248201526f4e4f545f454e4f5547485f46554e445360801b604482015290519081900360640190fd5b503461131b565b609a546001600160a01b03166141328133308663ffffffff614e7916565b8291505061131b565b60a0546040805163555ddc6560e11b81526001600160a01b0390921660048301527f4d99da10ff5120f726d35edd8dbd417bbe55d90453b8432acd284e650ee2c6f0602483015251600091731820a4b7618bde71dce8cdc73aab6c95905fad249163aabbb8ca91604480820192602092909190829003018186803b1580156141c257600080fd5b505afa1580156141d6573d6000803e3d6000fd5b505050506040513d60208110156141ec57600080fd5b505190506001600160a01b038116156126e557604051638d0f092560e01b815233600482018181526001600160a01b03888116602485015287811660448501526064840187905260a060848501908152865160a4860152865191861694638d0f092594938b938b938b938b939260c490910190602085019080838360005b8381101561428257818101518382015260200161426a565b50505050905090810190601f1680156142af5780820380516001836020036101000a031916815260200191505b509650505050505050600060405180830381600087803b1580156142d257600080fd5b505af11580156142e6573d6000803e3d6000fd5b505050505050505050565b303b1590565b600054610100900460ff168061431057506143106142f1565b8061431e575060005460ff16155b6143595760405162461bcd60e51b815260040180806020018281038252602e8152602001806154e6602e913960400191505060405180910390fd5b600054610100900460ff16158015614384576000805460ff1961ff0019909116610100171660011790555b606680546001600160a01b0319166001600160a01b0384811691909117918290556040519116906000907f8be0079c531659141344cd1fd0a4f28419497f9722a3daafe3b4186f6b6457e0908290a38015613fff576000805461ff00191690555050565b609a805460ff60a01b1916600160a01b179055565b63bbf81e00831115614456576040805162461bcd60e51b815260206004820152601860248201527f4d41585f45585049524154494f4e5f3130305f59454152530000000000000000604482015290519081900360640190fd5b609b8054336001600160a01b03199182161790915560a080549091166001600160a01b039590951694909417909355609c91909155609d55609e55565b61449b614ed3565b80516144ae9060a49060208401906153bc565b506118f0635b5e139f60e01b6144d1565b6144cf63780e9d6360e01b6144d1565b565b6001600160e01b03198082161415614530576040805162461bcd60e51b815260206004820152601c60248201527f4552433136353a20696e76616c696420696e7465726661636520696400000000604482015290519081900360640190fd5b6001600160e01b0319166000908152603360205260409020805460ff19166001179055565b3390565b8015611c5d576001600160a01b03831661458b576145866001600160a01b0383168263ffffffff614f8416565b611c5d565b82613b616001600160a01b038216848463ffffffff61506a16565b60006145ba846001600160a01b03166150bc565b6145c65750600161353a565b604051630a85bd0160e11b815233600482018181526001600160a01b03888116602485015260448401879052608060648501908152865160848601528651600095928a169463150b7a029490938c938b938b939260a4019060208501908083838e5b83811015614640578181015183820152602001614628565b50505050905090810190601f16801561466d5780820380516001836020036101000a031916815260200191505b5095505050505050602060405180830381600087803b15801561468f57600080fd5b505af11580156146a3573d6000803e3d6000fd5b505050506040513d60208110156146b957600080fd5b50516001600160e01b031916630a85bd0160e11b14915050949350505050565b604080517f19457468657265756d205369676e6564204d6573736167653a0a333200000000602080830191909152603c8083019490945282518083039094018452605c909101909152815191012090565b6000815160411461473d5750600061142f565b60208201516040830151606084015160001a7f7fffffffffffffffffffffffffffffff5d576e7357a4501ddfe92f46681b20a0821115614783576000935050505061142f565b8060ff16601b1415801561479b57508060ff16601c14155b156147ac576000935050505061142f565b6040805160008152602080820180845289905260ff8416828401526060820186905260808201859052915160019260a0808401939192601f1981019281900390910190855afa158015614803573d6000803e3d6000fd5b5050604051601f190151979650505050505050565b604080518082018252601081526f181899199a1a9b1b9c1cb0b131b232b360811b60208201528151602a80825260608281019094526001600160a01b03851692918491602082018180388339019050509050600360fc1b8160008151811061487c57fe5b60200101906001600160f81b031916908160001a905350600f60fb1b816001815181106148a557fe5b60200101906001600160f81b031916908160001a90535060005b601481101561498b578260048583600c01602081106148da57fe5b1a60f81b6001600160f81b031916901c60f81c60ff16815181106148fa57fe5b602001015160f81c60f81b82826002026002018151811061491757fe5b60200101906001600160f81b031916908160001a905350828482600c016020811061493e57fe5b825191901a600f1690811061494f57fe5b602001015160f81c60f81b82826002026003018151811061496c57fe5b60200101906001600160f81b031916908160001a9053506001016148bf565b50949350505050565b606081806149bb5750506040805180820190915260018152600360fc1b602082015261131b565b8260005b81156149d357600101600a820491506149bf565b6060816040519080825280601f01601f191660200182016040528015614a00576020820181803883390190505b50905060001982015b8415614a4e57600a850660300160f81b82828060019003935081518110614a2c57fe5b60200101906001600160f81b031916908160001a905350600a85049450614a09565b5095945050505050565b606080859050606085905060608590506060859050606081518351855187510101016040519080825280601f01601f191660200182016040528015614aa4576020820181803883390190505b509050806000805b8751811015614afd57878181518110614ac157fe5b602001015160f81c60f81b838380600101945081518110614ade57fe5b60200101906001600160f81b031916908160001a905350600101614aac565b5060005b8651811015614b5257868181518110614b1657fe5b602001015160f81c60f81b838380600101945081518110614b3357fe5b60200101906001600160f81b031916908160001a905350600101614b01565b5060005b8551811015614ba757858181518110614b6b57fe5b602001015160f81c60f81b838380600101945081518110614b8857fe5b60200101906001600160f81b031916908160001a905350600101614b56565b5060005b8451811015614bfc57848181518110614bc057fe5b602001015160f81c60f81b838380600101945081518110614bdd57fe5b60200101906001600160f81b031916908160001a905350600101614bab565b50909b9a5050505050505050505050565b6001600160a01b038116614c525760405162461bcd60e51b81526004018080602001828103825260268152602001806154456026913960400191505060405180910390fd5b6066546040516001600160a01b038084169216907f8be0079c531659141344cd1fd0a4f28419497f9722a3daafe3b4186f6b6457e090600090a3606680546001600160a01b0319166001600160a01b0392909216919091179055565b600082614cbd5750600061142f565b82820282848281614cca57fe5b0414611c035760405162461bcd60e51b81526004018080602001828103825260218152602001806154a56021913960400191505060405180910390fd5b60a0546040805163555ddc6560e11b81526001600160a01b0390921660048301527fd6342b4bfdf66164985c9f5fe235f643a035ee12f507d7bd0f8c89e07e790f68602483015251600091731820a4b7618bde71dce8cdc73aab6c95905fad249163aabbb8ca91604480820192602092909190829003018186803b158015614d8e57600080fd5b505afa158015614da2573d6000803e3d6000fd5b505050506040513d6020811015614db857600080fd5b505190506001600160a01b03811615611c5d576040805163c9877d7b60e01b81523360048201526001600160a01b0385811660248301526044820185905291519183169163c9877d7b9160648082019260009290919082900301818387803b158015614e2357600080fd5b505af1158015612394573d6000803e3d6000fd5b6000611c0383836040518060400160405280601e81526020017f536166654d6174683a207375627472616374696f6e206f766572666c6f7700008152506150f3565b604080516001600160a01b0385811660248301528416604482015260648082018490528251808303909101815260849091019091526020810180516001600160e01b03166323b872dd60e01b179052613b6190859061518a565b600054610100900460ff1680614eec5750614eec6142f1565b80614efa575060005460ff16155b614f355760405162461bcd60e51b815260040180806020018281038252602e8152602001806154e6602e913960400191505060405180910390fd5b600054610100900460ff16158015614f60576000805460ff1961ff0019909116610100171660011790555b614f706301ffc9a760e01b6144d1565b80156118f0576000805461ff001916905550565b3031811115614fda576040805162461bcd60e51b815260206004820152601d60248201527f416464726573733a20696e73756666696369656e742062616c616e6365000000604482015290519081900360640190fd5b6040516000906001600160a01b0384169083908381818185875af1925050503d8060008114615025576040519150601f19603f3d011682016040523d82523d6000602084013e61502a565b606091505b5050905080611c5d5760405162461bcd60e51b815260040180806020018281038252603a81526020018061546b603a913960400191505060405180910390fd5b604080516001600160a01b038416602482015260448082018490528251808303909101815260649091019091526020810180516001600160e01b031663a9059cbb60e01b179052611c5d90849061518a565b6000813f7fc5d2460186f7233c927e7db2dcc703c0e500b653ca82273b7bfad8045d85a470811580159061353a5750141592915050565b600081848411156151825760405162461bcd60e51b81526004018080602001828103825283818151815260200191508051906020019080838360005b8381101561514757818101518382015260200161512f565b50505050905090810190601f1680156151745780820380516001836020036101000a031916815260200191505b509250505060405180910390fd5b505050900390565b61519c826001600160a01b03166150bc565b6151ed576040805162461bcd60e51b815260206004820152601f60248201527f5361666545524332303a2063616c6c20746f206e6f6e2d636f6e747261637400604482015290519081900360640190fd5b60006060836001600160a01b0316836040518082805190602001908083835b6020831061522b5780518252601f19909201916020918201910161520c565b6001836020036101000a0380198251168184511680821785525050505050509050019150506000604051808303816000865af19150503d806000811461528d576040519150601f19603f3d011682016040523d82523d6000602084013e615292565b606091505b5091509150816152e9576040805162461bcd60e51b815260206004820181905260248201527f5361666545524332303a206c6f772d6c6576656c2063616c6c206661696c6564604482015290519081900360640190fd5b805115613b615780806020019051602081101561530557600080fd5b5051613b615760405162461bcd60e51b815260040180806020018281038252602a815260200180615534602a913960400191505060405180910390fd5b828054600181600116156101000203166002900490600052602060002090601f016020900481019282601f106153835782800160ff198235161785556153b0565b828001600101855582156153b0579182015b828111156153b0578235825591602001919060010190615395565b506121fd92915061542a565b828054600181600116156101000203166002900490600052602060002090601f016020900481019282601f106153fd57805160ff19168380011785556153b0565b828001600101855582156153b0579182015b828111156153b057825182559160200191906001019061540f565b6127e491905b808211156121fd576000815560010161543056fe4f776e61626c653a206e6577206f776e657220697320746865207a65726f2061646472657373416464726573733a20756e61626c6520746f2073656e642076616c75652c20726563697069656e74206d61792068617665207265766572746564536166654d6174683a206d756c7469706c69636174696f6e206f766572666c6f774f776e61626c653a2063616c6c6572206973206e6f7420746865206f776e6572436f6e747261637420696e7374616e63652068617320616c7265616479206265656e20696e697469616c697a6564ddf252ad1be2c89b69c2b068fc378daa952ba7f163c4a11628f55a4df523b3ef5361666545524332303a204552433230206f7065726174696f6e20646964206e6f742073756363656564a265627a7a7231582013b44e6afc5a7bb538a4b112863a2d1fc743d60c03c249977c5feaec0cbedecf64736f6c634300050c0032",
  "source": "pragma solidity 0.5.12;\n\nimport './interfaces/IERC721.sol';\nimport './interfaces/IERC721Enumerable.sol';\nimport './interfaces/IPublicLock.sol';\nimport '@openzeppelin/contracts-ethereum-package/contracts/ownership/Ownable.sol';\nimport '@openzeppelin/contracts-ethereum-package/contracts/introspection/ERC165.sol';\nimport '@openzeppelin/upgrades/contracts/Initializable.sol';\nimport './mixins/MixinApproval.sol';\nimport './mixins/MixinDisableAndDestroy.sol';\nimport './mixins/MixinERC721Enumerable.sol';\nimport './mixins/MixinEventHooks.sol';\nimport './mixins/MixinFunds.sol';\nimport './mixins/MixinGrantKeys.sol';\nimport './mixins/MixinKeys.sol';\nimport './mixins/MixinLockCore.sol';\nimport './mixins/MixinLockMetadata.sol';\nimport './mixins/MixinPurchase.sol';\nimport './mixins/MixinRefunds.sol';\nimport './mixins/MixinTransfer.sol';\nimport './mixins/MixinSignatures.sol';\n\n/**\n * @title The Lock contract\n * @author Julien Genestoux (unlock-protocol.com)\n * @dev ERC165 allows our contract to be queried to determine whether it implements a given interface.\n * Every ERC-721 compliant contract must implement the ERC165 interface.\n * https://eips.ethereum.org/EIPS/eip-721\n */\ncontract PublicLock is\n  IERC721Enumerable,\n  IERC721,\n  IPublicLock,\n  Initializable,\n  ERC165,\n  Ownable,\n  MixinSignatures,\n  MixinFunds,\n  MixinDisableAndDestroy,\n  MixinLockCore,\n  MixinKeys,\n  MixinLockMetadata,\n  MixinERC721Enumerable,\n  MixinEventHooks,\n  MixinGrantKeys,\n  MixinPurchase,\n  MixinApproval,\n  MixinTransfer,\n  MixinRefunds\n{\n  function initialize(\n    address _owner,\n    uint _expirationDuration,\n    address _tokenAddress,\n    uint _keyPrice,\n    uint _maxNumberOfKeys,\n    string memory _lockName\n  ) public\n    initializer()\n  {\n    Ownable.initialize(_owner);\n    MixinFunds.initialize(_tokenAddress);\n    MixinDisableAndDestroy.initialize();\n    MixinLockCore.initialize(_owner, _expirationDuration, _keyPrice, _maxNumberOfKeys);\n    MixinLockMetadata.initialize(_lockName);\n    MixinERC721Enumerable.initialize();\n    MixinRefunds.initialize();\n    // registering the interface for erc721 with ERC165.sol using\n    // the ID specified in the standard: https://eips.ethereum.org/EIPS/eip-721\n    _registerInterface(0x80ac58cd);\n  }\n}\n",
  "sourcePath": "/Users/overlord/DAPPS/unlock/smart-contracts/contracts/PublicLock.sol",
  "compiler": {
    "name": "solc",
    "version": "0.5.12+commit.7709ece9.Emscripten.clang"
  },
  "schemaVersion": "3.0.19",
  "updatedAt": "2019-12-05T19:29:02.406Z",
  "devdoc": {
    "author": "Julien Genestoux (unlock-protocol.com)",
    "details": "ERC165 allows our contract to be queried to determine whether it implements a given interface. Every ERC-721 compliant contract must implement the ERC165 interface. https://eips.ethereum.org/EIPS/eip-721",
    "methods": {
      "balanceOf(address)": {
        "return": "The number of NFTs owned by `_owner`, either 0 or 1."
      },
      "cancelAndRefund()": {
        "details": "Destroys the user's key and sends a refund based on the amount of time remaining."
      },
      "cancelAndRefundFor(address,bytes)": {
        "details": "Cancels a key owned by a different user and sends the funds to the msg.sender.",
        "params": {
          "_keyOwner": "this user's key will be canceled",
          "_signature": "getCancelAndRefundApprovalHash signed by the _keyOwner"
        }
      },
      "destroyLock()": {
        "details": "Used to clean up old lock contracts from the blockchain TODO: add a check to ensure all keys are INVALID!"
      },
      "disableLock()": {
        "details": "Used to disable lock before migrating keys and/or destroying contract"
      },
      "fullRefund(address,uint256)": {
        "details": "Invoked by the lock owner to destroy the user's ket and perform a refund and cancellation of the key"
      },
      "getCancelAndRefundApprovalHash(address,address)": {
        "details": "returns the hash to sign in order to allow another user to cancel on your behalf."
      },
      "getCancelAndRefundValueFor(address)": {
        "details": "Determines how much of a refund a key owner would receive if they issued a cancelAndRefund block.timestamp. Note that due to the time required to mine a tx, the actual refund amount will be lower than what the user reads from this call."
      },
      "getOwnersByPage(uint256,uint256)": {
        "params": {
          "_page": "the page of key owners requested when faceted by page size",
          "_pageSize": "the number of Key Owners requested per page"
        }
      },
      "getTokenIdFor(address)": {
        "return": "The tokenId of the NFT, else revert"
      },
      "getTransferFee(address,uint256)": {
        "params": {
          "_owner": "The owner of the key check the transfer fee for."
        }
      },
      "invalidateOffchainApproval(uint256)": {
        "details": "This can be used to invalidate a previously signed message."
      },
      "isApprovedForAll(address,address)": {
        "details": "Tells whether an operator is approved by a given owner",
        "params": {
          "_operator": "operator address which you want to query the approval of",
          "_owner": "owner address which you want to query the approval of"
        },
        "return": "bool whether the given operator is approved by the given owner"
      },
      "isOwner()": {
        "details": "Returns true if the caller is the current owner."
      },
      "keyExpirationTimestampFor(address)": {
        "details": "Returns the key's ExpirationTimestamp field for a given owner.",
        "params": {
          "_owner": "address of the user for whom we search the key"
        }
      },
      "owner()": {
        "details": "Returns the address of the current owner."
      },
      "purchase(uint256,address,address,bytes)": {
        "details": "Purchase functionSetting _value to keyPrice exactly doubles as a security feature. That way if the lock owner increases the price while my transaction is pending I can't be charged more than I expected (only applicable to ERC-20 when more than keyPrice is approved for spending).",
        "params": {
          "_data": "arbitrary data populated by the front-end which initiated the sale",
          "_recipient": "address of the recipient of the purchased key",
          "_referrer": "address of the user making the referral",
          "_value": "the number of tokens to pay for this purchase >= the current keyPrice - any applicable discount (_value is ignored when using ETH)"
        }
      },
      "renounceOwnership()": {
        "details": "Leaves the contract without owner. It will not be possible to call `onlyOwner` functions anymore. Can only be called by the current owner.     * > Note: Renouncing ownership will leave the contract without an owner, thereby removing any functionality that is only available to the owner."
      },
      "safeTransferFrom(address,address,uint256)": {
        "details": "This works identically to the other function with an extra data parameter, except this function just sets data to ''",
        "params": {
          "_from": "The current owner of the NFT",
          "_to": "The new owner",
          "_tokenId": "The NFT to transfer"
        }
      },
      "safeTransferFrom(address,address,uint256,bytes)": {
        "params": {
          "_data": "Additional data with no specified format, sent in call to `_to`",
          "_from": "The current owner of the NFT",
          "_to": "The new owner",
          "_tokenId": "The NFT to transfer"
        }
      },
      "setApprovalForAll(address,bool)": {
        "details": "Sets or unsets the approval of a given operator An operator is allowed to transfer all tokens of the sender on their behalf",
        "params": {
          "_approved": "representing the status of the approval to be set",
          "_to": "operator address to set the approval"
        }
      },
      "shareKey(address,uint256,uint256)": {
        "params": {
          "_timeShared": "The amount of time shared",
          "_to": "The recipient of the shared key",
          "_tokenId": "the key to share"
        }
      },
      "supportsInterface(bytes4)": {
        "details": "See {IERC165-supportsInterface}.     * Time complexity O(1), guaranteed to always use less than 30 000 gas."
      },
      "symbol()": {
        "details": "Gets the token symbol",
        "return": "string representing the token name"
      },
      "tokenByIndex(uint256)": {
        "details": "Throws if `_index` >= `totalSupply()`.",
        "params": {
          "_index": "A counter less than `totalSupply()`"
        },
        "return": "The token identifier for the `_index`th NFT,  (sort order not specified)"
      },
      "tokenOfOwnerByIndex(address,uint256)": {
        "details": "Throws if `_index` >= `balanceOf(_owner)` or if  `_owner` is the zero address, representing invalid NFTs.",
        "params": {
          "_index": "A counter less than `balanceOf(_owner)`",
          "_owner": "An address where we are interested in NFTs owned by them"
        },
        "return": "The token identifier for the `_index`th NFT assigned to `_owner`,   (sort order not specified)"
      },
      "tokenURI(uint256)": {
        "details": "Throws if `_tokenId` is not a valid NFT. URIs are defined in RFC 3986. The URI may point to a JSON file that conforms to the \"ERC721 Metadata JSON Schema\". https://github.com/ethereum/EIPs/blob/master/EIPS/eip-721.md"
      },
      "transferOwnership(address)": {
        "details": "Transfers ownership of the contract to a new account (`newOwner`). Can only be called by the current owner."
      },
      "withdraw(address,uint256)": {
        "details": "Called by owner to withdraw all funds from the lock and send them to the `beneficiary`.",
        "params": {
          "_amount": "specifies the max amount to withdraw, which may be reduced when considering the available balance. Set to 0 or MAX_UINT to withdraw everything.   * TODO: consider allowing anybody to trigger this as long as it goes to owner anyway? -- however be wary of draining funds as it breaks the `cancelAndRefund` and `fullRefund` use cases.",
          "_tokenAddress": "specifies the token address to withdraw or 0 for ETH. This is usually the same as `tokenAddress` in MixinFunds."
        }
      }
    },
    "title": "The Lock contract"
  },
  "userdoc": {
    "methods": {
      "approve(address,uint256)": {
        "notice": "This approves _approved to get ownership of _tokenId. Note: that since this is used for both purchase and transfer approvals the approved token may not exist."
      },
      "balanceOf(address)": {
        "notice": "In the specific case of a Lock, each owner can own only at most 1 key."
      },
      "expireKeyFor(address)": {
        "notice": "A function which lets the owner of the lock expire a users' key."
      },
      "getApproved(uint256)": {
        "notice": "Will return the approved recipient for a key, if any."
      },
      "getBalance(address,address)": {
        "notice": "Gets the current balance of the account provided."
      },
      "getHasValidKey(address)": {
        "notice": "Checks if the user has a non-expired key."
      },
      "getOwnersByPage(uint256,uint256)": {
        "notice": "A function which returns a subset of the keys for this Lock as an array"
      },
      "getTokenIdFor(address)": {
        "notice": "Find the tokenId for a given user"
      },
      "getTransferFee(address,uint256)": {
        "notice": "Determines how much of a fee a key owner would need to pay in order to transfer the key to another account.  This is pro-rated so the fee goes down overtime."
      },
      "grantKeys(address[],uint256[])": {
        "notice": "Allows the Lock owner to give a collection of users a key with no charge. Each key may be assigned a different expiration date."
      },
      "invalidateOffchainApproval(uint256)": {
        "notice": "Sets the minimum nonce for a valid off-chain approval message from the senders account."
      },
      "isKeyOwner(uint256,address)": {
        "notice": "Checks if the given address owns the given tokenId."
      },
      "numberOfOwners()": {
        "notice": "Public function which returns the total number of unique owners (both expired and valid).  This may be larger than totalSupply."
      },
      "safeTransferFrom(address,address,uint256)": {
        "notice": "Transfers the ownership of an NFT from one address to another address"
      },
      "safeTransferFrom(address,address,uint256,bytes)": {
        "notice": "Transfers the ownership of an NFT from one address to another address. When transfer is complete, this functions checks if `_to` is a smart contract (code size > 0). If so, it calls `onERC721Received` on `_to` and throws if the return value is not `bytes4(keccak256('onERC721Received(address,address,uint,bytes)'))`."
      },
      "setBaseTokenURI(string)": {
        "notice": "Allows the Lock owner to update the baseTokenURI for this Lock."
      },
      "shareKey(address,uint256,uint256)": {
        "notice": "Allows the key owner to safely share their key (parent key) by transferring a portion of the remaining time to a new key (child key)."
      },
      "tokenByIndex(uint256)": {
        "notice": "Enumerate valid NFTs"
      },
      "tokenOfOwnerByIndex(address,uint256)": {
        "notice": "Enumerate NFTs assigned to an owner"
      },
      "tokenURI(uint256)": {
        "notice": "A distinct Uniform Resource Identifier (URI) for a given asset."
      },
      "updateBeneficiary(address)": {
        "notice": "A function which lets the owner of the lock update the beneficiary account, which receives funds on withdrawal."
      },
      "updateKeyPrice(uint256)": {
        "notice": "A function which lets the owner of the lock to change the price for future purchases."
      },
      "updateLockName(string)": {
        "notice": "Allows the Lock owner to assign a descriptive name for this Lock."
      },
      "updateLockSymbol(string)": {
        "notice": "Allows the Lock owner to assign a Symbol for this Lock."
      },
      "updateRefundPenalty(uint256,uint256)": {
        "notice": "Allow the owner to change the refund penalty."
      },
      "updateTransferFee(uint256)": {
        "notice": "Allow the Lock owner to change the transfer fee."
      }
    }
  }
}