{
  "_format": "hh-sol-artifact-1",
  "contractName": "PublicLock",
  "sourceName": "contracts/PublicLock.sol",
  "abi": [
    {
      "inputs": [],
      "name": "CANNOT_APPROVE_SELF",
      "type": "error"
    },
    {
      "inputs": [],
      "name": "CANT_BE_SMALLER_THAN_SUPPLY",
      "type": "error"
    },
    {
      "inputs": [],
      "name": "CANT_EXTEND_NON_EXPIRING_KEY",
      "type": "error"
    },
    {
      "inputs": [],
      "name": "GAS_REFUND_FAILED",
      "type": "error"
    },
    {
      "inputs": [],
      "name": "INSUFFICIENT_ERC20_VALUE",
      "type": "error"
    },
    {
      "inputs": [],
      "name": "INSUFFICIENT_VALUE",
      "type": "error"
    },
    {
      "inputs": [],
      "name": "INVALID_ADDRESS",
      "type": "error"
    },
    {
      "inputs": [
        {
          "internalType": "uint8",
          "name": "hookIndex",
          "type": "uint8"
        }
      ],
      "name": "INVALID_HOOK",
      "type": "error"
    },
    {
      "inputs": [],
      "name": "INVALID_LENGTH",
      "type": "error"
    },
    {
      "inputs": [],
      "name": "INVALID_TOKEN",
      "type": "error"
    },
    {
      "inputs": [],
      "name": "KEY_NOT_VALID",
      "type": "error"
    },
    {
      "inputs": [],
      "name": "KEY_TRANSFERS_DISABLED",
      "type": "error"
    },
    {
      "inputs": [],
      "name": "LOCK_HAS_CHANGED",
      "type": "error"
    },
    {
      "inputs": [],
      "name": "LOCK_SOLD_OUT",
      "type": "error"
    },
    {
      "inputs": [],
      "name": "MAX_KEYS_REACHED",
      "type": "error"
    },
    {
      "inputs": [],
      "name": "MIGRATION_REQUIRED",
      "type": "error"
    },
    {
      "inputs": [],
      "name": "NON_COMPLIANT_ERC721_RECEIVER",
      "type": "error"
    },
    {
      "inputs": [],
      "name": "NON_RENEWABLE_LOCK",
      "type": "error"
    },
    {
      "inputs": [],
      "name": "NOT_ENOUGH_FUNDS",
      "type": "error"
    },
    {
      "inputs": [],
      "name": "NOT_ENOUGH_TIME",
      "type": "error"
    },
    {
      "inputs": [],
      "name": "NOT_READY_FOR_RENEWAL",
      "type": "error"
    },
    {
      "inputs": [],
      "name": "NO_SUCH_KEY",
      "type": "error"
    },
    {
      "inputs": [],
      "name": "NULL_VALUE",
      "type": "error"
    },
    {
      "inputs": [],
      "name": "ONLY_KEY_MANAGER_OR_APPROVED",
      "type": "error"
    },
    {
      "inputs": [],
      "name": "ONLY_LOCK_MANAGER",
      "type": "error"
    },
    {
      "inputs": [],
      "name": "ONLY_LOCK_MANAGER_OR_KEY_GRANTER",
      "type": "error"
    },
    {
      "inputs": [],
      "name": "OUT_OF_RANGE",
      "type": "error"
    },
    {
      "inputs": [],
      "name": "OWNER_CANT_BE_ADDRESS_ZERO",
      "type": "error"
    },
    {
      "inputs": [],
      "name": "SCHEMA_VERSION_NOT_CORRECT",
      "type": "error"
    },
    {
      "inputs": [],
      "name": "TRANSFER_TO_SELF",
      "type": "error"
    },
    {
      "inputs": [],
      "name": "UNAUTHORIZED",
      "type": "error"
    },
    {
      "inputs": [],
      "name": "UNAUTHORIZED_KEY_MANAGER_UPDATE",
      "type": "error"
    },
    {
      "anonymous": false,
      "inputs": [
        {
          "indexed": true,
          "internalType": "address",
          "name": "owner",
          "type": "address"
        },
        {
          "indexed": true,
          "internalType": "address",
          "name": "approved",
          "type": "address"
        },
        {
          "indexed": true,
          "internalType": "uint256",
          "name": "tokenId",
          "type": "uint256"
        }
      ],
      "name": "Approval",
      "type": "event"
    },
    {
      "anonymous": false,
      "inputs": [
        {
          "indexed": true,
          "internalType": "address",
          "name": "owner",
          "type": "address"
        },
        {
          "indexed": true,
          "internalType": "address",
          "name": "operator",
          "type": "address"
        },
        {
          "indexed": false,
          "internalType": "bool",
          "name": "approved",
          "type": "bool"
        }
      ],
      "name": "ApprovalForAll",
      "type": "event"
    },
    {
      "anonymous": false,
      "inputs": [
        {
          "indexed": true,
          "internalType": "uint256",
          "name": "tokenId",
          "type": "uint256"
        },
        {
          "indexed": true,
          "internalType": "address",
          "name": "owner",
          "type": "address"
        },
        {
          "indexed": true,
          "internalType": "address",
          "name": "sendTo",
          "type": "address"
        },
        {
          "indexed": false,
          "internalType": "uint256",
          "name": "refund",
          "type": "uint256"
        }
      ],
      "name": "CancelKey",
      "type": "event"
    },
    {
      "anonymous": false,
      "inputs": [
        {
          "indexed": true,
          "internalType": "uint256",
          "name": "tokenId",
          "type": "uint256"
        },
        {
          "indexed": false,
          "internalType": "uint256",
          "name": "newExpiration",
          "type": "uint256"
        },
        {
          "indexed": false,
          "internalType": "uint256",
          "name": "amount",
          "type": "uint256"
        },
        {
          "indexed": false,
          "internalType": "bool",
          "name": "timeAdded",
          "type": "bool"
        }
      ],
      "name": "ExpirationChanged",
      "type": "event"
    },
    {
      "anonymous": false,
      "inputs": [
        {
          "indexed": true,
          "internalType": "uint256",
          "name": "tokenId",
          "type": "uint256"
        }
      ],
      "name": "ExpireKey",
      "type": "event"
    },
    {
      "anonymous": false,
      "inputs": [
        {
          "indexed": true,
          "internalType": "address",
          "name": "receiver",
          "type": "address"
        },
        {
          "indexed": false,
          "internalType": "uint256",
          "name": "refundedAmount",
          "type": "uint256"
        },
        {
          "indexed": false,
          "internalType": "address",
          "name": "tokenAddress",
          "type": "address"
        }
      ],
      "name": "GasRefunded",
      "type": "event"
    },
    {
      "anonymous": false,
      "inputs": [
        {
          "indexed": false,
          "internalType": "uint8",
          "name": "version",
          "type": "uint8"
        }
      ],
      "name": "Initialized",
      "type": "event"
    },
    {
      "anonymous": false,
      "inputs": [
        {
          "indexed": true,
          "internalType": "uint256",
          "name": "tokenId",
          "type": "uint256"
        },
        {
          "indexed": false,
          "internalType": "uint256",
          "name": "newTimestamp",
          "type": "uint256"
        }
      ],
      "name": "KeyExtended",
      "type": "event"
    },
    {
      "anonymous": false,
      "inputs": [
        {
          "indexed": true,
          "internalType": "address",
          "name": "account",
          "type": "address"
        }
      ],
      "name": "KeyGranterAdded",
      "type": "event"
    },
    {
      "anonymous": false,
      "inputs": [
        {
          "indexed": true,
          "internalType": "address",
          "name": "account",
          "type": "address"
        }
      ],
      "name": "KeyGranterRemoved",
      "type": "event"
    },
    {
      "anonymous": false,
      "inputs": [
        {
          "indexed": true,
          "internalType": "uint256",
          "name": "_tokenId",
          "type": "uint256"
        },
        {
          "indexed": true,
          "internalType": "address",
          "name": "_newManager",
          "type": "address"
        }
      ],
      "name": "KeyManagerChanged",
      "type": "event"
    },
    {
      "anonymous": false,
      "inputs": [
        {
          "indexed": false,
          "internalType": "uint256",
          "name": "updatedRecordsCount",
          "type": "uint256"
        }
      ],
      "name": "KeysMigrated",
      "type": "event"
    },
    {
      "anonymous": false,
      "inputs": [
        {
          "indexed": false,
          "internalType": "uint256",
          "name": "expirationDuration",
          "type": "uint256"
        },
        {
          "indexed": false,
          "internalType": "uint256",
          "name": "maxNumberOfKeys",
          "type": "uint256"
        },
        {
          "indexed": false,
          "internalType": "uint256",
          "name": "maxKeysPerAcccount",
          "type": "uint256"
        }
      ],
      "name": "LockConfig",
      "type": "event"
    },
    {
      "anonymous": false,
      "inputs": [
        {
          "indexed": true,
          "internalType": "address",
          "name": "account",
          "type": "address"
        }
      ],
      "name": "LockManagerAdded",
      "type": "event"
    },
    {
      "anonymous": false,
      "inputs": [
        {
          "indexed": true,
          "internalType": "address",
          "name": "account",
          "type": "address"
        }
      ],
      "name": "LockManagerRemoved",
      "type": "event"
    },
    {
      "anonymous": false,
      "inputs": [
        {
          "indexed": false,
          "internalType": "string",
          "name": "name",
          "type": "string"
        },
        {
          "indexed": false,
          "internalType": "string",
          "name": "symbol",
          "type": "string"
        },
        {
          "indexed": false,
          "internalType": "string",
          "name": "baseTokenURI",
          "type": "string"
        }
      ],
      "name": "LockMetadata",
      "type": "event"
    },
    {
      "anonymous": false,
      "inputs": [
        {
          "indexed": false,
          "internalType": "address",
          "name": "previousOwner",
          "type": "address"
        },
        {
          "indexed": false,
          "internalType": "address",
          "name": "newOwner",
          "type": "address"
        }
      ],
      "name": "OwnershipTransferred",
      "type": "event"
    },
    {
      "anonymous": false,
      "inputs": [
        {
          "indexed": false,
          "internalType": "uint256",
          "name": "oldKeyPrice",
          "type": "uint256"
        },
        {
          "indexed": false,
          "internalType": "uint256",
          "name": "keyPrice",
          "type": "uint256"
        },
        {
          "indexed": false,
          "internalType": "address",
          "name": "oldTokenAddress",
          "type": "address"
        },
        {
          "indexed": false,
          "internalType": "address",
          "name": "tokenAddress",
          "type": "address"
        }
      ],
      "name": "PricingChanged",
      "type": "event"
    },
    {
      "anonymous": false,
      "inputs": [
        {
          "indexed": false,
          "internalType": "uint256",
          "name": "freeTrialLength",
          "type": "uint256"
        },
        {
          "indexed": false,
          "internalType": "uint256",
          "name": "refundPenaltyBasisPoints",
          "type": "uint256"
        }
      ],
      "name": "RefundPenaltyChanged",
      "type": "event"
    },
    {
      "anonymous": false,
      "inputs": [
        {
          "indexed": true,
          "internalType": "bytes32",
          "name": "role",
          "type": "bytes32"
        },
        {
          "indexed": true,
          "internalType": "bytes32",
          "name": "previousAdminRole",
          "type": "bytes32"
        },
        {
          "indexed": true,
          "internalType": "bytes32",
          "name": "newAdminRole",
          "type": "bytes32"
        }
      ],
      "name": "RoleAdminChanged",
      "type": "event"
    },
    {
      "anonymous": false,
      "inputs": [
        {
          "indexed": true,
          "internalType": "bytes32",
          "name": "role",
          "type": "bytes32"
        },
        {
          "indexed": true,
          "internalType": "address",
          "name": "account",
          "type": "address"
        },
        {
          "indexed": true,
          "internalType": "address",
          "name": "sender",
          "type": "address"
        }
      ],
      "name": "RoleGranted",
      "type": "event"
    },
    {
      "anonymous": false,
      "inputs": [
        {
          "indexed": true,
          "internalType": "bytes32",
          "name": "role",
          "type": "bytes32"
        },
        {
          "indexed": true,
          "internalType": "address",
          "name": "account",
          "type": "address"
        },
        {
          "indexed": true,
          "internalType": "address",
          "name": "sender",
          "type": "address"
        }
      ],
      "name": "RoleRevoked",
      "type": "event"
    },
    {
      "anonymous": false,
      "inputs": [
        {
          "indexed": true,
          "internalType": "address",
          "name": "from",
          "type": "address"
        },
        {
          "indexed": true,
          "internalType": "address",
          "name": "to",
          "type": "address"
        },
        {
          "indexed": true,
          "internalType": "uint256",
          "name": "tokenId",
          "type": "uint256"
        }
      ],
      "name": "Transfer",
      "type": "event"
    },
    {
      "anonymous": false,
      "inputs": [
        {
          "indexed": false,
          "internalType": "uint256",
          "name": "transferFeeBasisPoints",
          "type": "uint256"
        }
      ],
      "name": "TransferFeeChanged",
      "type": "event"
    },
    {
      "anonymous": false,
      "inputs": [
        {
          "indexed": true,
          "internalType": "address",
          "name": "lockAddress",
          "type": "address"
        },
        {
          "indexed": false,
          "internalType": "address",
          "name": "unlockAddress",
          "type": "address"
        }
      ],
      "name": "UnlockCallFailed",
      "type": "event"
    },
    {
      "anonymous": false,
      "inputs": [
        {
          "indexed": true,
          "internalType": "address",
          "name": "sender",
          "type": "address"
        },
        {
          "indexed": true,
          "internalType": "address",
          "name": "tokenAddress",
          "type": "address"
        },
        {
          "indexed": true,
          "internalType": "address",
          "name": "recipient",
          "type": "address"
        },
        {
          "indexed": false,
          "internalType": "uint256",
          "name": "amount",
          "type": "uint256"
        }
      ],
      "name": "Withdrawal",
      "type": "event"
    },
    {
      "inputs": [],
      "name": "DEFAULT_ADMIN_ROLE",
      "outputs": [
        {
          "internalType": "bytes32",
          "name": "",
          "type": "bytes32"
        }
      ],
      "stateMutability": "view",
      "type": "function"
    },
    {
      "inputs": [],
      "name": "KEY_GRANTER_ROLE",
      "outputs": [
        {
          "internalType": "bytes32",
          "name": "",
          "type": "bytes32"
        }
      ],
      "stateMutability": "view",
      "type": "function"
    },
    {
      "inputs": [],
      "name": "LOCK_MANAGER_ROLE",
      "outputs": [
        {
          "internalType": "bytes32",
          "name": "",
          "type": "bytes32"
        }
      ],
      "stateMutability": "view",
      "type": "function"
    },
    {
      "inputs": [
        {
          "internalType": "address",
          "name": "account",
          "type": "address"
        }
      ],
      "name": "addKeyGranter",
      "outputs": [],
      "stateMutability": "nonpayable",
      "type": "function"
    },
    {
      "inputs": [
        {
          "internalType": "address",
          "name": "account",
          "type": "address"
        }
      ],
      "name": "addLockManager",
      "outputs": [],
      "stateMutability": "nonpayable",
      "type": "function"
    },
    {
      "inputs": [
        {
          "internalType": "address",
          "name": "_approved",
          "type": "address"
        },
        {
          "internalType": "uint256",
          "name": "_tokenId",
          "type": "uint256"
        }
      ],
      "name": "approve",
      "outputs": [],
      "stateMutability": "nonpayable",
      "type": "function"
    },
    {
      "inputs": [
        {
          "internalType": "address",
          "name": "_keyOwner",
          "type": "address"
        }
      ],
      "name": "balanceOf",
      "outputs": [
        {
          "internalType": "uint256",
          "name": "balance",
          "type": "uint256"
        }
      ],
      "stateMutability": "view",
      "type": "function"
    },
    {
      "inputs": [
        {
          "internalType": "uint256",
          "name": "_tokenId",
          "type": "uint256"
        }
      ],
      "name": "burn",
      "outputs": [],
      "stateMutability": "nonpayable",
      "type": "function"
    },
    {
      "inputs": [
        {
          "internalType": "uint256",
          "name": "_tokenId",
          "type": "uint256"
        }
      ],
      "name": "cancelAndRefund",
      "outputs": [],
      "stateMutability": "nonpayable",
      "type": "function"
    },
    {
      "inputs": [],
      "name": "expirationDuration",
      "outputs": [
        {
          "internalType": "uint256",
          "name": "",
          "type": "uint256"
        }
      ],
      "stateMutability": "view",
      "type": "function"
    },
    {
      "inputs": [
        {
          "internalType": "uint256",
          "name": "_tokenId",
          "type": "uint256"
        },
        {
          "internalType": "uint256",
          "name": "_amount",
          "type": "uint256"
        }
      ],
      "name": "expireAndRefundFor",
      "outputs": [],
      "stateMutability": "nonpayable",
      "type": "function"
    },
    {
      "inputs": [
        {
          "internalType": "uint256",
          "name": "_value",
          "type": "uint256"
        },
        {
          "internalType": "uint256",
          "name": "_tokenId",
          "type": "uint256"
        },
        {
          "internalType": "address",
          "name": "_referrer",
          "type": "address"
        },
        {
          "internalType": "bytes",
          "name": "_data",
          "type": "bytes"
        }
      ],
      "name": "extend",
      "outputs": [],
      "stateMutability": "payable",
      "type": "function"
    },
    {
      "inputs": [],
      "name": "freeTrialLength",
      "outputs": [
        {
          "internalType": "uint256",
          "name": "",
          "type": "uint256"
        }
      ],
      "stateMutability": "view",
      "type": "function"
    },
    {
      "inputs": [],
      "name": "gasRefundValue",
      "outputs": [
        {
          "internalType": "uint256",
          "name": "_refundValue",
          "type": "uint256"
        }
      ],
      "stateMutability": "view",
      "type": "function"
    },
    {
      "inputs": [
        {
          "internalType": "uint256",
          "name": "_tokenId",
          "type": "uint256"
        }
      ],
      "name": "getApproved",
      "outputs": [
        {
          "internalType": "address",
          "name": "",
          "type": "address"
        }
      ],
      "stateMutability": "view",
      "type": "function"
    },
    {
      "inputs": [
        {
          "internalType": "uint256",
          "name": "_tokenId",
          "type": "uint256"
        }
      ],
      "name": "getCancelAndRefundValue",
      "outputs": [
        {
          "internalType": "uint256",
          "name": "refund",
          "type": "uint256"
        }
      ],
      "stateMutability": "view",
      "type": "function"
    },
    {
      "inputs": [
        {
          "internalType": "address",
          "name": "_keyOwner",
          "type": "address"
        }
      ],
      "name": "getHasValidKey",
      "outputs": [
        {
          "internalType": "bool",
          "name": "isValid",
          "type": "bool"
        }
      ],
      "stateMutability": "view",
      "type": "function"
    },
    {
      "inputs": [
        {
          "internalType": "bytes32",
          "name": "role",
          "type": "bytes32"
        }
      ],
      "name": "getRoleAdmin",
      "outputs": [
        {
          "internalType": "bytes32",
          "name": "",
          "type": "bytes32"
        }
      ],
      "stateMutability": "view",
      "type": "function"
    },
    {
      "inputs": [
        {
          "internalType": "uint256",
          "name": "_tokenId",
          "type": "uint256"
        },
        {
          "internalType": "uint256",
          "name": "_time",
          "type": "uint256"
        }
      ],
      "name": "getTransferFee",
      "outputs": [
        {
          "internalType": "uint256",
          "name": "",
          "type": "uint256"
        }
      ],
      "stateMutability": "view",
      "type": "function"
    },
    {
      "inputs": [
        {
          "internalType": "uint256",
          "name": "_tokenId",
          "type": "uint256"
        },
        {
          "internalType": "uint256",
          "name": "_duration",
          "type": "uint256"
        }
      ],
      "name": "grantKeyExtension",
      "outputs": [],
      "stateMutability": "nonpayable",
      "type": "function"
    },
    {
      "inputs": [
        {
          "internalType": "address[]",
          "name": "_recipients",
          "type": "address[]"
        },
        {
          "internalType": "uint256[]",
          "name": "_expirationTimestamps",
          "type": "uint256[]"
        },
        {
          "internalType": "address[]",
          "name": "_keyManagers",
          "type": "address[]"
        }
      ],
      "name": "grantKeys",
      "outputs": [
        {
          "internalType": "uint256[]",
          "name": "",
          "type": "uint256[]"
        }
      ],
      "stateMutability": "nonpayable",
      "type": "function"
    },
    {
      "inputs": [
        {
          "internalType": "bytes32",
          "name": "role",
          "type": "bytes32"
        },
        {
          "internalType": "address",
          "name": "account",
          "type": "address"
        }
      ],
      "name": "grantRole",
      "outputs": [],
      "stateMutability": "nonpayable",
      "type": "function"
    },
    {
      "inputs": [
        {
          "internalType": "bytes32",
          "name": "role",
          "type": "bytes32"
        },
        {
          "internalType": "address",
          "name": "account",
          "type": "address"
        }
      ],
      "name": "hasRole",
      "outputs": [
        {
          "internalType": "bool",
          "name": "",
          "type": "bool"
        }
      ],
      "stateMutability": "view",
      "type": "function"
    },
    {
      "inputs": [
        {
          "internalType": "address payable",
          "name": "_lockCreator",
          "type": "address"
        },
        {
          "internalType": "uint256",
          "name": "_expirationDuration",
          "type": "uint256"
        },
        {
          "internalType": "address",
          "name": "_tokenAddress",
          "type": "address"
        },
        {
          "internalType": "uint256",
          "name": "_keyPrice",
          "type": "uint256"
        },
        {
          "internalType": "uint256",
          "name": "_maxNumberOfKeys",
          "type": "uint256"
        },
        {
          "internalType": "string",
          "name": "_lockName",
          "type": "string"
        }
      ],
      "name": "initialize",
      "outputs": [],
      "stateMutability": "nonpayable",
      "type": "function"
    },
    {
      "inputs": [
        {
          "internalType": "address",
          "name": "_owner",
          "type": "address"
        },
        {
          "internalType": "address",
          "name": "_operator",
          "type": "address"
        }
      ],
      "name": "isApprovedForAll",
      "outputs": [
        {
          "internalType": "bool",
          "name": "",
          "type": "bool"
        }
      ],
      "stateMutability": "view",
      "type": "function"
    },
    {
      "inputs": [
        {
          "internalType": "address",
          "name": "account",
          "type": "address"
        }
      ],
      "name": "isKeyGranter",
      "outputs": [
        {
          "internalType": "bool",
          "name": "",
          "type": "bool"
        }
      ],
      "stateMutability": "view",
      "type": "function"
    },
    {
      "inputs": [
        {
          "internalType": "address",
          "name": "account",
          "type": "address"
        }
      ],
      "name": "isLockManager",
      "outputs": [
        {
          "internalType": "bool",
          "name": "",
          "type": "bool"
        }
      ],
      "stateMutability": "view",
      "type": "function"
    },
    {
      "inputs": [
        {
          "internalType": "address",
          "name": "account",
          "type": "address"
        }
      ],
      "name": "isOwner",
      "outputs": [
        {
          "internalType": "bool",
          "name": "",
          "type": "bool"
        }
      ],
      "stateMutability": "view",
      "type": "function"
    },
    {
      "inputs": [
        {
          "internalType": "uint256",
          "name": "_tokenId",
          "type": "uint256"
        }
      ],
      "name": "isValidKey",
      "outputs": [
        {
          "internalType": "bool",
          "name": "",
          "type": "bool"
        }
      ],
      "stateMutability": "view",
      "type": "function"
    },
    {
      "inputs": [
        {
          "internalType": "uint256",
          "name": "_tokenId",
          "type": "uint256"
        }
      ],
      "name": "keyExpirationTimestampFor",
      "outputs": [
        {
          "internalType": "uint256",
          "name": "",
          "type": "uint256"
        }
      ],
      "stateMutability": "view",
      "type": "function"
    },
    {
      "inputs": [
        {
          "internalType": "uint256",
          "name": "",
          "type": "uint256"
        }
      ],
      "name": "keyManagerOf",
      "outputs": [
        {
          "internalType": "address",
          "name": "",
          "type": "address"
        }
      ],
      "stateMutability": "view",
      "type": "function"
    },
    {
      "inputs": [],
      "name": "keyPrice",
      "outputs": [
        {
          "internalType": "uint256",
          "name": "",
          "type": "uint256"
        }
      ],
      "stateMutability": "view",
      "type": "function"
    },
    {
      "inputs": [
        {
          "internalType": "address",
          "name": "_from",
          "type": "address"
        },
        {
          "internalType": "address",
          "name": "_recipient",
          "type": "address"
        },
        {
          "internalType": "uint256",
          "name": "_tokenId",
          "type": "uint256"
        }
      ],
      "name": "lendKey",
      "outputs": [],
      "stateMutability": "nonpayable",
      "type": "function"
    },
    {
      "inputs": [],
      "name": "maxKeysPerAddress",
      "outputs": [
        {
          "internalType": "uint256",
          "name": "",
          "type": "uint256"
        }
      ],
      "stateMutability": "view",
      "type": "function"
    },
    {
      "inputs": [],
      "name": "maxNumberOfKeys",
      "outputs": [
        {
          "internalType": "uint256",
          "name": "",
          "type": "uint256"
        }
      ],
      "stateMutability": "view",
      "type": "function"
    },
    {
      "inputs": [
        {
          "internalType": "uint256",
          "name": "_tokenIdFrom",
          "type": "uint256"
        },
        {
          "internalType": "uint256",
          "name": "_tokenIdTo",
          "type": "uint256"
        },
        {
          "internalType": "uint256",
          "name": "_amount",
          "type": "uint256"
        }
      ],
      "name": "mergeKeys",
      "outputs": [],
      "stateMutability": "nonpayable",
      "type": "function"
    },
    {
      "inputs": [
        {
          "internalType": "bytes",
          "name": "",
          "type": "bytes"
        }
      ],
      "name": "migrate",
      "outputs": [],
      "stateMutability": "nonpayable",
      "type": "function"
    },
    {
      "inputs": [],
      "name": "name",
      "outputs": [
        {
          "internalType": "string",
          "name": "",
          "type": "string"
        }
      ],
      "stateMutability": "view",
      "type": "function"
    },
    {
      "inputs": [],
      "name": "numberOfOwners",
      "outputs": [
        {
          "internalType": "uint256",
          "name": "",
          "type": "uint256"
        }
      ],
      "stateMutability": "view",
      "type": "function"
    },
    {
      "inputs": [],
      "name": "onKeyCancelHook",
      "outputs": [
        {
          "internalType": "contract ILockKeyCancelHook",
          "name": "",
          "type": "address"
        }
      ],
      "stateMutability": "view",
      "type": "function"
    },
    {
      "inputs": [],
      "name": "onKeyExtendHook",
      "outputs": [
        {
          "internalType": "contract ILockKeyExtendHook",
          "name": "",
          "type": "address"
        }
      ],
      "stateMutability": "view",
      "type": "function"
    },
    {
      "inputs": [],
      "name": "onKeyGrantHook",
      "outputs": [
        {
          "internalType": "contract ILockKeyGrantHook",
          "name": "",
          "type": "address"
        }
      ],
      "stateMutability": "view",
      "type": "function"
    },
    {
      "inputs": [],
      "name": "onKeyPurchaseHook",
      "outputs": [
        {
          "internalType": "contract ILockKeyPurchaseHook",
          "name": "",
          "type": "address"
        }
      ],
      "stateMutability": "view",
      "type": "function"
    },
    {
      "inputs": [],
      "name": "onKeyTransferHook",
      "outputs": [
        {
          "internalType": "contract ILockKeyTransferHook",
          "name": "",
          "type": "address"
        }
      ],
      "stateMutability": "view",
      "type": "function"
    },
    {
      "inputs": [],
      "name": "onTokenURIHook",
      "outputs": [
        {
          "internalType": "contract ILockTokenURIHook",
          "name": "",
          "type": "address"
        }
      ],
      "stateMutability": "view",
      "type": "function"
    },
    {
      "inputs": [],
      "name": "onValidKeyHook",
      "outputs": [
        {
          "internalType": "contract ILockValidKeyHook",
          "name": "",
          "type": "address"
        }
      ],
      "stateMutability": "view",
      "type": "function"
    },
    {
      "inputs": [],
      "name": "owner",
      "outputs": [
        {
          "internalType": "address",
          "name": "",
          "type": "address"
        }
      ],
      "stateMutability": "view",
      "type": "function"
    },
    {
      "inputs": [
        {
          "internalType": "uint256",
          "name": "_tokenId",
          "type": "uint256"
        }
      ],
      "name": "ownerOf",
      "outputs": [
        {
          "internalType": "address",
          "name": "",
          "type": "address"
        }
      ],
      "stateMutability": "view",
      "type": "function"
    },
    {
      "inputs": [],
      "name": "publicLockVersion",
      "outputs": [
        {
          "internalType": "uint16",
          "name": "",
          "type": "uint16"
        }
      ],
      "stateMutability": "pure",
      "type": "function"
    },
    {
      "inputs": [
        {
          "internalType": "uint256[]",
          "name": "_values",
          "type": "uint256[]"
        },
        {
          "internalType": "address[]",
          "name": "_recipients",
          "type": "address[]"
        },
        {
          "internalType": "address[]",
          "name": "_referrers",
          "type": "address[]"
        },
        {
          "internalType": "address[]",
          "name": "_keyManagers",
          "type": "address[]"
        },
        {
          "internalType": "bytes[]",
          "name": "_data",
          "type": "bytes[]"
        }
      ],
      "name": "purchase",
      "outputs": [
        {
          "internalType": "uint256[]",
          "name": "",
          "type": "uint256[]"
        }
      ],
      "stateMutability": "payable",
      "type": "function"
    },
    {
      "inputs": [
        {
          "internalType": "address",
          "name": "_recipient",
          "type": "address"
        },
        {
          "internalType": "address",
          "name": "_referrer",
          "type": "address"
        },
        {
          "internalType": "bytes",
          "name": "_data",
          "type": "bytes"
        }
      ],
      "name": "purchasePriceFor",
      "outputs": [
        {
          "internalType": "uint256",
          "name": "minKeyPrice",
          "type": "uint256"
        }
      ],
      "stateMutability": "view",
      "type": "function"
    },
    {
      "inputs": [
        {
          "internalType": "address",
          "name": "",
          "type": "address"
        }
      ],
      "name": "referrerFees",
      "outputs": [
        {
          "internalType": "uint256",
          "name": "",
          "type": "uint256"
        }
      ],
      "stateMutability": "view",
      "type": "function"
    },
    {
      "inputs": [],
      "name": "refundPenaltyBasisPoints",
      "outputs": [
        {
          "internalType": "uint256",
          "name": "",
          "type": "uint256"
        }
      ],
      "stateMutability": "view",
      "type": "function"
    },
    {
      "inputs": [
        {
          "internalType": "uint256",
          "name": "_tokenId",
          "type": "uint256"
        },
        {
          "internalType": "address",
          "name": "_referrer",
          "type": "address"
        }
      ],
      "name": "renewMembershipFor",
      "outputs": [],
      "stateMutability": "nonpayable",
      "type": "function"
    },
    {
      "inputs": [],
      "name": "renounceLockManager",
      "outputs": [],
      "stateMutability": "nonpayable",
      "type": "function"
    },
    {
      "inputs": [
        {
          "internalType": "bytes32",
          "name": "role",
          "type": "bytes32"
        },
        {
          "internalType": "address",
          "name": "account",
          "type": "address"
        }
      ],
      "name": "renounceRole",
      "outputs": [],
      "stateMutability": "nonpayable",
      "type": "function"
    },
    {
      "inputs": [
        {
          "internalType": "address",
          "name": "_granter",
          "type": "address"
        }
      ],
      "name": "revokeKeyGranter",
      "outputs": [],
      "stateMutability": "nonpayable",
      "type": "function"
    },
    {
      "inputs": [
        {
          "internalType": "bytes32",
          "name": "role",
          "type": "bytes32"
        },
        {
          "internalType": "address",
          "name": "account",
          "type": "address"
        }
      ],
      "name": "revokeRole",
      "outputs": [],
      "stateMutability": "nonpayable",
      "type": "function"
    },
    {
      "inputs": [
        {
          "internalType": "address",
          "name": "_from",
          "type": "address"
        },
        {
          "internalType": "address",
          "name": "_to",
          "type": "address"
        },
        {
          "internalType": "uint256",
          "name": "_tokenId",
          "type": "uint256"
        }
      ],
      "name": "safeTransferFrom",
      "outputs": [],
      "stateMutability": "nonpayable",
      "type": "function"
    },
    {
      "inputs": [
        {
          "internalType": "address",
          "name": "_from",
          "type": "address"
        },
        {
          "internalType": "address",
          "name": "_to",
          "type": "address"
        },
        {
          "internalType": "uint256",
          "name": "_tokenId",
          "type": "uint256"
        },
        {
          "internalType": "bytes",
          "name": "_data",
          "type": "bytes"
        }
      ],
      "name": "safeTransferFrom",
      "outputs": [],
      "stateMutability": "nonpayable",
      "type": "function"
    },
    {
      "inputs": [],
      "name": "schemaVersion",
      "outputs": [
        {
          "internalType": "uint256",
          "name": "",
          "type": "uint256"
        }
      ],
      "stateMutability": "view",
      "type": "function"
    },
    {
      "inputs": [
        {
          "internalType": "address",
          "name": "_to",
          "type": "address"
        },
        {
          "internalType": "bool",
          "name": "_approved",
          "type": "bool"
        }
      ],
      "name": "setApprovalForAll",
      "outputs": [],
      "stateMutability": "nonpayable",
      "type": "function"
    },
    {
      "inputs": [
        {
          "internalType": "address",
          "name": "_onKeyPurchaseHook",
          "type": "address"
        },
        {
          "internalType": "address",
          "name": "_onKeyCancelHook",
          "type": "address"
        },
        {
          "internalType": "address",
          "name": "_onValidKeyHook",
          "type": "address"
        },
        {
          "internalType": "address",
          "name": "_onTokenURIHook",
          "type": "address"
        },
        {
          "internalType": "address",
          "name": "_onKeyTransferHook",
          "type": "address"
        },
        {
          "internalType": "address",
          "name": "_onKeyExtendHook",
          "type": "address"
        },
        {
          "internalType": "address",
          "name": "_onKeyGrantHook",
          "type": "address"
        }
      ],
      "name": "setEventHooks",
      "outputs": [],
      "stateMutability": "nonpayable",
      "type": "function"
    },
    {
      "inputs": [
        {
          "internalType": "uint256",
          "name": "_refundValue",
          "type": "uint256"
        }
      ],
      "name": "setGasRefundValue",
      "outputs": [],
      "stateMutability": "nonpayable",
      "type": "function"
    },
    {
      "inputs": [
        {
          "internalType": "uint256",
          "name": "_tokenId",
          "type": "uint256"
        },
        {
          "internalType": "address",
          "name": "_keyManager",
          "type": "address"
        }
      ],
      "name": "setKeyManagerOf",
      "outputs": [],
      "stateMutability": "nonpayable",
      "type": "function"
    },
    {
      "inputs": [
        {
          "internalType": "string",
          "name": "_lockName",
          "type": "string"
        },
        {
          "internalType": "string",
          "name": "_lockSymbol",
          "type": "string"
        },
        {
          "internalType": "string",
          "name": "_baseTokenURI",
          "type": "string"
        }
      ],
      "name": "setLockMetadata",
      "outputs": [],
      "stateMutability": "nonpayable",
      "type": "function"
    },
    {
      "inputs": [
        {
          "internalType": "address",
          "name": "account",
          "type": "address"
        }
      ],
      "name": "setOwner",
      "outputs": [],
      "stateMutability": "nonpayable",
      "type": "function"
    },
    {
      "inputs": [
        {
          "internalType": "address",
          "name": "_referrer",
          "type": "address"
        },
        {
          "internalType": "uint256",
          "name": "_feeBasisPoint",
          "type": "uint256"
        }
      ],
      "name": "setReferrerFee",
      "outputs": [],
      "stateMutability": "nonpayable",
      "type": "function"
    },
    {
      "inputs": [
        {
          "internalType": "address",
          "name": "_to",
          "type": "address"
        },
        {
          "internalType": "uint256",
          "name": "_tokenIdFrom",
          "type": "uint256"
        },
        {
          "internalType": "uint256",
          "name": "_timeShared",
          "type": "uint256"
        }
      ],
      "name": "shareKey",
      "outputs": [],
      "stateMutability": "nonpayable",
      "type": "function"
    },
    {
      "inputs": [
        {
          "internalType": "bytes4",
          "name": "interfaceId",
          "type": "bytes4"
        }
      ],
      "name": "supportsInterface",
      "outputs": [
        {
          "internalType": "bool",
          "name": "",
          "type": "bool"
        }
      ],
      "stateMutability": "view",
      "type": "function"
    },
    {
      "inputs": [],
      "name": "symbol",
      "outputs": [
        {
          "internalType": "string",
          "name": "",
          "type": "string"
        }
      ],
      "stateMutability": "view",
      "type": "function"
    },
    {
      "inputs": [],
      "name": "tokenAddress",
      "outputs": [
        {
          "internalType": "address",
          "name": "",
          "type": "address"
        }
      ],
      "stateMutability": "view",
      "type": "function"
    },
    {
      "inputs": [
        {
          "internalType": "uint256",
          "name": "_index",
          "type": "uint256"
        }
      ],
      "name": "tokenByIndex",
      "outputs": [
        {
          "internalType": "uint256",
          "name": "",
          "type": "uint256"
        }
      ],
      "stateMutability": "view",
      "type": "function"
    },
    {
      "inputs": [
        {
          "internalType": "address",
          "name": "_keyOwner",
          "type": "address"
        },
        {
          "internalType": "uint256",
          "name": "_index",
          "type": "uint256"
        }
      ],
      "name": "tokenOfOwnerByIndex",
      "outputs": [
        {
          "internalType": "uint256",
          "name": "",
          "type": "uint256"
        }
      ],
      "stateMutability": "view",
      "type": "function"
    },
    {
      "inputs": [
        {
          "internalType": "uint256",
          "name": "_tokenId",
          "type": "uint256"
        }
      ],
      "name": "tokenURI",
      "outputs": [
        {
          "internalType": "string",
          "name": "",
          "type": "string"
        }
      ],
      "stateMutability": "view",
      "type": "function"
    },
    {
      "inputs": [
        {
          "internalType": "address",
          "name": "_keyOwner",
          "type": "address"
        }
      ],
      "name": "totalKeys",
      "outputs": [
        {
          "internalType": "uint256",
          "name": "",
          "type": "uint256"
        }
      ],
      "stateMutability": "view",
      "type": "function"
    },
    {
      "inputs": [],
      "name": "totalSupply",
      "outputs": [
        {
          "internalType": "uint256",
          "name": "",
          "type": "uint256"
        }
      ],
      "stateMutability": "view",
      "type": "function"
    },
    {
      "inputs": [
        {
          "internalType": "uint256",
          "name": "_tokenId",
          "type": "uint256"
        },
        {
          "internalType": "address",
          "name": "_to",
          "type": "address"
        },
        {
          "internalType": "uint256",
          "name": "_valueBasisPoint",
          "type": "uint256"
        }
      ],
      "name": "transfer",
      "outputs": [
        {
          "internalType": "bool",
          "name": "success",
          "type": "bool"
        }
      ],
      "stateMutability": "nonpayable",
      "type": "function"
    },
    {
      "inputs": [],
      "name": "transferFeeBasisPoints",
      "outputs": [
        {
          "internalType": "uint256",
          "name": "",
          "type": "uint256"
        }
      ],
      "stateMutability": "view",
      "type": "function"
    },
    {
      "inputs": [
        {
          "internalType": "address",
          "name": "_from",
          "type": "address"
        },
        {
          "internalType": "address",
          "name": "_recipient",
          "type": "address"
        },
        {
          "internalType": "uint256",
          "name": "_tokenId",
          "type": "uint256"
        }
      ],
      "name": "transferFrom",
      "outputs": [],
      "stateMutability": "nonpayable",
      "type": "function"
    },
    {
      "inputs": [
        {
          "internalType": "address",
          "name": "_recipient",
          "type": "address"
        },
        {
          "internalType": "uint256",
          "name": "_tokenId",
          "type": "uint256"
        }
      ],
      "name": "unlendKey",
      "outputs": [],
      "stateMutability": "nonpayable",
      "type": "function"
    },
    {
      "inputs": [],
      "name": "unlockProtocol",
      "outputs": [
        {
          "internalType": "contract IUnlock",
          "name": "",
          "type": "address"
        }
      ],
      "stateMutability": "view",
      "type": "function"
    },
    {
      "inputs": [
        {
          "internalType": "uint256",
          "name": "_keyPrice",
          "type": "uint256"
        },
        {
          "internalType": "address",
          "name": "_tokenAddress",
          "type": "address"
        }
      ],
      "name": "updateKeyPricing",
      "outputs": [],
      "stateMutability": "nonpayable",
      "type": "function"
    },
    {
      "inputs": [
        {
          "internalType": "uint256",
          "name": "_newExpirationDuration",
          "type": "uint256"
        },
        {
          "internalType": "uint256",
          "name": "_maxNumberOfKeys",
          "type": "uint256"
        },
        {
          "internalType": "uint256",
          "name": "_maxKeysPerAcccount",
          "type": "uint256"
        }
      ],
      "name": "updateLockConfig",
      "outputs": [],
      "stateMutability": "nonpayable",
      "type": "function"
    },
    {
      "inputs": [
        {
          "internalType": "uint256",
          "name": "_freeTrialLength",
          "type": "uint256"
        },
        {
          "internalType": "uint256",
          "name": "_refundPenaltyBasisPoints",
          "type": "uint256"
        }
      ],
      "name": "updateRefundPenalty",
      "outputs": [],
      "stateMutability": "nonpayable",
      "type": "function"
    },
    {
      "inputs": [],
      "name": "updateSchemaVersion",
      "outputs": [],
      "stateMutability": "nonpayable",
      "type": "function"
    },
    {
      "inputs": [
        {
          "internalType": "uint256",
          "name": "_transferFeeBasisPoints",
          "type": "uint256"
        }
      ],
      "name": "updateTransferFee",
      "outputs": [],
      "stateMutability": "nonpayable",
      "type": "function"
    },
    {
      "inputs": [
        {
          "internalType": "address",
          "name": "_tokenAddress",
          "type": "address"
        },
        {
          "internalType": "address payable",
          "name": "_recipient",
          "type": "address"
        },
        {
          "internalType": "uint256",
          "name": "_amount",
          "type": "uint256"
        }
      ],
      "name": "withdraw",
      "outputs": [],
      "stateMutability": "nonpayable",
      "type": "function"
    },
    {
      "stateMutability": "payable",
      "type": "receive"
    }
  ],
  "bytecode": "0x608060405234801561001057600080fd5b50615e4280620000216000396000f3fe6080604052600436106104445760003560e01c80636eadde4311610236578063aae4b8f71161012f578063d52e4a10116100b1578063d52e4a1014610e07578063d547741f14610e1d578063d813cc1914610e3d578063d9caed1214610e50578063debe2b0d14610e70578063e985e9c514610e90578063f0ba604014610eb0578063f12c6b6e14610ec5578063f32e8b2414610ee5578063f5766b3914610efa578063f8548e3614610f1a57600080fd5b8063aae4b8f714610c9c578063b11d7ec114610cbc578063b1a3b25d14610cdc578063b88d4fde14610cfc578063c23135dd14610d1c578063c87b56dd14610d4a578063c907c3ec14610d6a578063d1b8759b14610d8b578063d1bbd49c14610dab578063d250348514610dc7578063d32bfb6c14610de757600080fd5b80638da5cb5b116101b85780638da5cb5b14610b5157806391d1485414610b7057806392ac98a514610b9057806393fd184414610bb057806395d89b4114610bc75780639d76ea5814610bdc578063a217fddf14610bfd578063a22cb46514610c12578063a2e4cd2e14610c32578063a375cb0514610c52578063a98d362314610c6957600080fd5b80636eadde43146109f257806370a0823114610a1257806374b6c10614610a325780637ec2a72414610a495780637f80557014610a6a578063812eecd414610a8a57806381a3c94314610aaa5780638505fe9514610aca5780638577a6d514610aea5780638932a90d14610b0a5780638ca2fbad14610b2f57600080fd5b80632f2ff15d116103485780634d025fed116102ca5780634d025fed146108865780634e2ce6d3146108bd5780634f6ccce7146108d457806352b0f638146108f457806354b249fb14610914578063558b71e914610945578063564aa99d1461096557806356e0d51f146109855780636207a8da1461099c5780636352211e146109b25780636d8ea5b4146109d257600080fd5b80632f2ff15d146107155780632f54bf6e146107355780632f745c5914610765578063338189971461078557806336568abe146107a5578063389f07e8146107c557806339f46986146107e6578063407dc5891461080657806342842e0e1461082657806342966c68146108465780634cd38c1d1461086657600080fd5b806313af4035116103d157806313af4035146105b357806318160ddd146105d3578063183767da146105e9578063217751bc14610600578063231005091461062157806323b872dd14610643578063248a9ca31461066357806326e9ca0714610693578063282478df146106b45780632af9162a146106d45780632d33dd5b146106f457600080fd5b806301ffc9a714610450578063068208cd1461048557806306fdde03146104a7578063081812fc146104c9578063095ea7b3146104f6578063097ba333146105165780630c2db8d1146105445780630f15023b1461056457806310e569731461058557806311a4c03a1461059c57600080fd5b3661044b57005b600080fd5b34801561045c57600080fd5b5061047061046b366004614f5c565b610f3a565b60405190151581526020015b60405180910390f35b34801561049157600080fd5b506104a56104a0366004614f79565b610f4b565b005b3480156104b357600080fd5b506104bc610fca565b60405161047c9190614ffd565b3480156104d557600080fd5b506104e96104e4366004615010565b611059565b60405161047c9190615029565b34801561050257600080fd5b506104a5610511366004615052565b611081565b34801561052257600080fd5b50610536610531366004615141565b61111c565b60405190815260200161047c565b34801561055057600080fd5b506104a561055f3660046151a2565b6111bd565b34801561057057600080fd5b50610c83546104e9906001600160a01b031681565b34801561059157600080fd5b50610536610c855481565b3480156105a857600080fd5b50610536610c845481565b3480156105bf57600080fd5b506104a56105ce3660046151e3565b611212565b3480156105df57600080fd5b50610c8754610536565b3480156105f557600080fd5b506105366124075481565b34801561060c57600080fd5b50610c8a546104e9906001600160a01b031681565b34801561062d57600080fd5b50610536600080516020615dad83398151915281565b34801561064f57600080fd5b506104a561065e3660046151a2565b6112a3565b34801561066f57600080fd5b5061053661067e366004615010565b60009081526097602052604090206001015490565b34801561069f57600080fd5b50610c8b546104e9906001600160a01b031681565b3480156106c057600080fd5b506104a56106cf366004614f79565b6112dd565b3480156106e057600080fd5b506104a56106ef3660046151e3565b611382565b34801561070057600080fd5b50610c89546104e9906001600160a01b031681565b34801561072157600080fd5b506104a5610730366004615200565b6113d9565b34801561074157600080fd5b506104706107503660046151e3565b612bda546001600160a01b0390811691161490565b34801561077157600080fd5b50610536610780366004615052565b6113fe565b610798610793366004615368565b611452565b60405161047c919061543f565b3480156107b157600080fd5b506104a56107c0366004615200565b61198b565b3480156107d157600080fd5b50610c8f546104e9906001600160a01b031681565b3480156107f257600080fd5b506104a5610801366004615483565b611a0e565b34801561081257600080fd5b506104a5610821366004615052565b611a5c565b34801561083257600080fd5b506104a56108413660046151a2565b611ab0565b34801561085257600080fd5b506104a5610861366004615010565b611acb565b34801561087257600080fd5b506104a5610881366004615483565b611b1c565b34801561089257600080fd5b506104e96108a1366004615010565b611078602052600090815260409020546001600160a01b031681565b3480156108c957600080fd5b50610536610c8d5481565b3480156108e057600080fd5b506105366108ef366004615010565b611b71565b34801561090057600080fd5b5061047061090f3660046151e3565b611b9a565b34801561092057600080fd5b5061053661092f366004615010565b600090815261107b602052604090206001015490565b34801561095157600080fd5b506104a5610960366004615483565b611bb4565b34801561097157600080fd5b506104a56109803660046151e3565b611bd8565b34801561099157600080fd5b506105366127f05481565b3480156109a857600080fd5b5061201e54610536565b3480156109be57600080fd5b506104e96109cd366004615010565b611c2f565b3480156109de57600080fd5b506104706109ed3660046151e3565b611c4b565b3480156109fe57600080fd5b506104a5610a0d3660046154e6565b611cf6565b348015610a1e57600080fd5b50610536610a2d3660046151e3565b611e75565b348015610a3e57600080fd5b50610536610c865481565b348015610a5557600080fd5b50610c8c546104e9906001600160a01b031681565b348015610a7657600080fd5b506104a5610a8536600461556b565b611ec7565b348015610a9657600080fd5b50610536610aa53660046151e3565b6120f4565b348015610ab657600080fd5b50610798610ac53660046155ed565b61213a565b348015610ad657600080fd5b506104a5610ae5366004615200565b612279565b348015610af657600080fd5b506104a5610b05366004615010565b612450565b348015610b1657600080fd5b506104a5610b25366004615667565b5050600c610c8d55565b348015610b3b57600080fd5b50610536600080516020615ded83398151915281565b348015610b5d57600080fd5b50612bda546001600160a01b03166104e9565b348015610b7c57600080fd5b50610470610b8b366004615200565b612491565b348015610b9c57600080fd5b50610536610bab366004615010565b6124bc565b348015610bbc57600080fd5b506105366110775481565b348015610bd357600080fd5b506104bc6125ab565b348015610be857600080fd5b506104b1546104e9906001600160a01b031681565b348015610c0957600080fd5b50610536600081565b348015610c1e57600080fd5b506104a5610c2d3660046156b6565b6126d6565b348015610c3e57600080fd5b506104a5610c4d366004615200565b612791565b348015610c5e57600080fd5b506105366127f15481565b348015610c7557600080fd5b50610470610c84366004615010565b600090815261107b6020526040902060010154421090565b348015610ca857600080fd5b50610470610cb73660046151e3565b61281f565b348015610cc857600080fd5b506104a5610cd7366004615200565b612839565b348015610ce857600080fd5b50610536610cf7366004615483565b612887565b348015610d0857600080fd5b506104a5610d173660046156e4565b6128fa565b348015610d2857600080fd5b50610536610d373660046151e3565b6120226020526000908152604090205481565b348015610d5657600080fd5b506104bc610d65366004615010565b61292e565b348015610d7657600080fd5b50610c90546104e9906001600160a01b031681565b348015610d9757600080fd5b506104a5610da636600461574f565b612bc0565b348015610db757600080fd5b50604051600c815260200161047c565b348015610dd357600080fd5b506104a5610de23660046151e3565b612c3b565b348015610df357600080fd5b506104a5610e02366004615010565b612c92565b348015610e1357600080fd5b50610c8e54610536565b348015610e2957600080fd5b506104a5610e38366004615200565b612cc4565b6104a5610e4b3660046157d6565b612ce9565b348015610e5c57600080fd5b506104a5610e6b3660046151a2565b612ef9565b348015610e7c57600080fd5b506104a5610e8b366004615052565b61302f565b348015610e9c57600080fd5b50610470610eab36600461583f565b613054565b348015610ebc57600080fd5b506104a5613083565b348015610ed157600080fd5b506104a5610ee036600461586d565b6130c8565b348015610ef157600080fd5b506104a5613284565b348015610f0657600080fd5b506104a5610f15366004615010565b613294565b348015610f2657600080fd5b50610470610f353660046158a2565b6132a2565b6000610f4582613304565b92915050565b610f548361330f565b610f5d8361333e565b610f6683613370565b610f6f8261330f565b600083815261107b6020526040902060010154610f8d9042906158df565b811115610fad576040516310e88eed60e31b815260040160405180910390fd5b610fb983826000613428565b610fc582826001613428565b505050565b6114638054610fd8906158f6565b80601f0160208091040260200160405190810160405280929190818152602001828054611004906158f6565b80156110515780601f1061102657610100808354040283529160200191611051565b820191906000526020600020905b81548152906001019060200180831161103457829003601f168201915b505050505081565b60006110648261330f565b50600090815261107960205260409020546001600160a01b031690565b61108a81613370565b6001600160a01b03821633036110b357604051637899146560e11b815260040160405180910390fd5b60008181526110796020908152604080832080546001600160a01b0319166001600160a01b03878116918217909255611076909352818420549151859492909116917f8c5be1e5ebec7d5bd14f71427d1e84f3dd0314c0f7b2291e5b200ac8c7c3b92591a45050565b610c89546000906001600160a01b0316156111b057610c895460405163221c1fd160e01b81526001600160a01b039091169063221c1fd19061116890339088908890889060040161592a565b602060405180830381865afa158015611185573d6000803e3d6000fd5b505050506040513d601f19601f820116820180604052508101906111a9919061595e565b90506111b6565b50610c85545b9392505050565b6111c781336134fa565b6111e45760405163075fd2b160e01b815260040160405180910390fd5b6111ef838383613572565b60009081526110786020526040902080546001600160a01b031916331790555050565b61121a613775565b6001600160a01b038116611241576040516330c6e09f60e21b815260040160405180910390fd5b612bda80546001600160a01b038381166001600160a01b031983168117909355604080519190921680825260208201939093527f8be0079c531659141344cd1fd0a4f28419497f9722a3daafe3b4186f6b6457e0910160405180910390a15050565b6112ac8161333e565b6112b581613370565b60008181526110786020526040902080546001600160a01b0319169055610fc5838383613572565b6112e5613775565b806000036113065760405163e03b033d60e01b815260040160405180910390fd5b610c875482101561132a57604051631d00cd6b60e01b815260040160405180910390fd5b610c8e819055610c84839055610c8682905560408051848152602081018490529081018290527f9a09448a3f24d3a01ccc67103c7cddbeea820176a18182cc83d0bce585f26a5b9060600160405180910390a1505050565b61138a613775565b6113a2600080516020615dad83398151915282612cc4565b6040516001600160a01b038216907f766f6199fea59554b9ff688e413302b9200f85d74811c053c12d945ac6d8dd7a90600090a250565b6000828152609760205260409020600101546113f4816137ac565b610fc583836137b6565b6000611409836120f4565b821061142857604051630471175760e11b815260040160405180910390fd5b506001600160a01b0391909116600090815261107c60209081526040808320938352929052205490565b606061145c61383c565b610c86548651610c87546114709190615977565b111561148f576040516331af695160e01b815260040160405180910390fd5b845186511415806114a257508351865114155b156114c0576040516376b3b52560e11b815260040160405180910390fd5b60008087516001600160401b038111156114dc576114dc61507e565b604051908082528060200260200182016040528015611505578160200160208202803683370190505b50905060005b88518110156118815760008982815181106115285761152861598f565b60200260200101519050611577818984815181106115485761154861598f565b6020026020010151600019610c84541461156f57610c845461156a9042615977565b613860565b600019613860565b8383815181106115895761158961598f565b6020026020010181815250506000611613828b85815181106115ad576115ad61598f565b60200260200101518a8a878181106115c7576115c761598f565b90506020028101906115d991906159a5565b8080601f01602080910402602001604051908101604052809392919081815260200183838082843760009201919091525061111c92505050565b905061161f8186615977565b94508061201f60008686815181106116395761163961598f565b6020026020010151815260200190815260200160002081905550610c8454612020600086868151811061166e5761166e61598f565b60200260200101518152602001908152602001600020819055506104b160009054906101000a90046001600160a01b031661202160008686815181106116b6576116b661598f565b602090810291909101810151825281019190915260400160002080546001600160a01b0319166001600160a01b039283161790556104b15416158015906117155750808c848151811061170b5761170b61598f565b6020026020010151105b15611733576040516330005fb160e21b815260040160405180910390fd5b611756818b85815181106117495761174961598f565b602002602001015161393b565b6104b1546000906001600160a01b03161561178a578c848151811061177d5761177d61598f565b602002602001015161178c565b345b610c89549091506001600160a01b03161561186b57610c895485516001600160a01b0390911690635e895f29908790879081106117cb576117cb61598f565b602002602001015133868f89815181106117e7576117e761598f565b60200260200101518e8e8b8181106118015761180161598f565b905060200281019061181391906159a5565b89896040518963ffffffff1660e01b81526004016118389897969594939291906159eb565b600060405180830381600087803b15801561185257600080fd5b505af1158015611866573d6000803e3d6000fd5b505050505b505050808061187990615a55565b91505061150b565b506104b1546001600160a01b031615611915576104b1546040516323b872dd60e01b81526001600160a01b039091169081906323b872dd906118cb90339030908890600401615a6e565b6020604051808303816000875af11580156118ea573d6000803e3d6000fd5b505050506040513d601f19601f8201168201806040525081019061190e9190615a92565b5050611936565b81341015611936576040516306c3cddf60e41b815260040160405180910390fd5b61193e613a40565b60005b875181101561197e5761196c88828151811061195f5761195f61598f565b6020026020010151613b9a565b8061197681615a55565b915050611941565b5098975050505050505050565b6001600160a01b0381163314611a005760405162461bcd60e51b815260206004820152602f60248201527f416363657373436f6e74726f6c3a2063616e206f6e6c792072656e6f756e636560448201526e103937b632b9903337b91039b2b63360891b60648201526084015b60405180910390fd5b611a0a8282613c33565b5050565b611a16613775565b60408051838152602081018390527fd6867bc538320e67d7bdc35860c27c08486eb490b4fd9b820fff18fb28381d3c910160405180910390a16127f1919091556127f055565b611a658161333e565b600081815261107860205260409020546001600160a01b03163314611a9d5760405163075fd2b160e01b815260040160405180910390fd5b611a0a611aa982611c2f565b8383613572565b610fc5838383604051806020016040528060008152506128fa565b611ad48161330f565b611add81613370565b600081815261107660205260408082205490518392916001600160a01b031690600080516020615dcd833981519152908390a4611b1981613c9a565b50565b611b2461383c565b611b2d8261330f565b611b3633611b9a565b158015611b495750611b473361281f565b155b15611b6757604051631798fedb60e01b815260040160405180910390fd5b610fc58282613ccb565b6000610c87548210611b9657604051630471175760e11b815260040160405180910390fd5b5090565b6000610f45600080516020615dad83398151915283612491565b611bbd8261330f565b611bc68261333e565b611bce613775565b611a0a8282613e2c565b611be0613775565b611bf8600080516020615dad833981519152826113d9565b6040516001600160a01b038216907f684f8a71407db0c334454ebe9c9b288549317893a20b10dc779ec5c118dcd12190600090a250565b600090815261107660205260409020546001600160a01b031690565b600080611c5783611e75565b610c8b54911091506001600160a01b031615611cf157610c8b546040516370b6638f60e11b81523060048201526001600160a01b0384811660248301526000604483015283151560648301529091169063e16cc71e90608401602060405180830381865afa158015611ccd573d6000803e3d6000fd5b505050506040513d601f19601f82011682018060405250810190610f459190615a92565b919050565b600054610100900460ff1615808015611d165750600054600160ff909116105b80611d375750611d2530613f4a565b158015611d37575060005460ff166001145b611d9a5760405162461bcd60e51b815260206004820152602e60248201527f496e697469616c697a61626c653a20636f6e747261637420697320616c72656160448201526d191e481a5b9a5d1a585b1a5e995960921b60648201526084016119f7565b6000805460ff191660011790558015611dbd576000805461ff0019166101001790555b611dc686613f59565b611dd288888787613f85565b611ddc8383613fc6565b611de4613fec565b611df06103e86127f055565b611df988613ffc565b612bda80546001600160a01b0319166001600160a01b038a16179055611e256380ac58cd60e01b614084565b8015611e6b576000805461ff0019169055604051600181527f7f26b83ff96e1f2b6a682f133852f6798a09c465da95921460cefb38474024989060200160405180910390a15b5050505050505050565b600080611e81836120f4565b905060005b81811015611ec057611e9b610c8485836113fe565b15611eae5782611eaa81615a55565b9350505b80611eb881615a55565b915050611e86565b5050919050565b611ecf613775565b6001600160a01b03861615801590611ef65750611ef4866001600160a01b0316613f4a565b155b15611f1757604051636788e02b60e01b8152600060048201526024016119f7565b6001600160a01b03851615801590611f3e5750611f3c856001600160a01b0316613f4a565b155b15611f5f57604051636788e02b60e01b8152600160048201526024016119f7565b6001600160a01b03841615801590611f865750611f84846001600160a01b0316613f4a565b155b15611fa757604051636788e02b60e01b8152600260048201526024016119f7565b6001600160a01b03831615801590611fce5750611fcc836001600160a01b0316613f4a565b155b15611fef57604051636788e02b60e01b8152600360048201526024016119f7565b6001600160a01b038216158015906120165750612014826001600160a01b0316613f4a565b155b1561203657604051636788e02b60e01b81526004818101526024016119f7565b6001600160a01b0381161580159061205d575061205b816001600160a01b0316613f4a565b155b1561207e57604051636788e02b60e01b8152600560048201526024016119f7565b610c8980546001600160a01b03199081166001600160a01b0398891617909155610c8a8054821696881696909617909555610c8c8054861693871693909317909255610c8b8054851693861693909317909255610c8f8054841692851692909217909155610c9080549092169216919091179055565b60006001600160a01b03821661211d57604051635963709b60e01b815260040160405180910390fd5b506001600160a01b0316600090815261107e602052604090205490565b606061214461383c565b61214d33611b9a565b158015612160575061215e3361281f565b155b1561217e57604051631798fedb60e01b815260040160405180910390fd5b6000866001600160401b038111156121985761219861507e565b6040519080825280602002602001820160405280156121c1578160200160208202803683370190505b50905060005b8781101561226d5761223e8989838181106121e4576121e461598f565b90506020020160208101906121f991906151e3565b86868481811061220b5761220b61598f565b905060200201602081019061222091906151e3565b8989858181106122325761223261598f565b90506020020135613860565b8282815181106122505761225061598f565b60209081029190910101528061226581615a55565b9150506121c7565b50979650505050505050565b61228161383c565b61228a8261330f565b6000828152612020602052604090205460001914806122b357506104b1546001600160a01b0316155b156122d157604051636cd40e1160e11b815260040160405180910390fd5b60006122f56122df84611c2f565b836040518060200160405280600081525061111c565b600084815261201f6020526040902054909150811415806123285750610c84546000848152612020602052604090205414155b8061235257506104b154600084815261202160205260409020546001600160a01b03908116911614155b156123705760405163986739e760e01b815260040160405180910390fd5b600083815261107b60205260409020600101544210156123a3576040516360d8ec3360e11b815260040160405180910390fd5b6123ae836000613ccb565b506123b9818361393b565b6104b1546001600160a01b0316806323b872dd6123d586611c2f565b30856040518463ffffffff1660e01b81526004016123f593929190615a6e565b6020604051808303816000875af1158015612414573d6000803e3d6000fd5b505050506040513d601f19601f820116820180604052508101906124389190615a92565b50612441613a40565b61244a83613b9a565b50505050565b612458613775565b6040518181527f0496ed1e61eb69727f9659a8e859288db4758ffb1f744d1c1424634f90a257f49060200160405180910390a161240755565b60009182526097602090815260408084206001600160a01b0393909316845291905290205460ff1690565b60006124c78261333e565b600019610c8454036124dc575050610c855490565b600082815261107b60205260408120600101546124fa9042906158df565b9050610c84546127f1548261250f9190615977565b1061251f57610c8554915061253f565b610c845481610c85546125329190615aaf565b61253c9190615ace565b91505b6127f154158061255e5750610c84546127f15461255c9083615977565b105b156125a55760006127106127f054610c855461257a9190615aaf565b6125849190615ace565b90508083111561259f5761259881846158df565b9250611ec0565b60009250505b50919050565b606061146480546125bb906158f6565b905060000361264557610c8360009054906101000a90046001600160a01b03166001600160a01b031663cec410526040518163ffffffff1660e01b8152600401600060405180830381865afa158015612618573d6000803e3d6000fd5b505050506040513d6000823e601f3d908101601f191682016040526126409190810190615af0565b905090565b6114648054612653906158f6565b80601f016020809104026020016040519081016040528092919081815260200182805461267f906158f6565b80156126cc5780601f106126a1576101008083540402835291602001916126cc565b820191906000526020600020905b8154815290600101906020018083116126af57829003601f168201915b5050505050905090565b336001600160a01b038316036126ff57604051637899146560e11b815260040160405180910390fd5b6127106124075410612724576040516323f21a3d60e21b815260040160405180910390fd5b33600081815261107a602090815260408083206001600160a01b03871680855290835292819020805460ff191686151590811790915590519081529192917f17307eab39ab6107e8899845ad3d59bd9653f200f220920489ca2b5937696c31910160405180910390a35050565b612799613775565b6127a281614103565b610c8580546104b18054928590556001600160a01b031983166001600160a01b0385811691821790925560408051848152602081018890529290941693820184905260608201529091907f3615065ccf48367ac483ac86701248e2e5ff55bdd9be845007d34a3b68d719d49060800160405180910390a150505050565b6000610f45600080516020615ded83398151915283612491565b6128428261330f565b61284c82336134fa565b15801561285f575061285d3361281f565b155b1561287d5760405163866c2fa760e01b815260040160405180910390fd5b611a0a828261419a565b60006128928361330f565b600083815261107b6020526040902060010154428110156128b7576000915050610f45565b6000836000036128d2576128cb42836158df565b90506128d5565b50825b61271061240754826128e79190615aaf565b6128f19190615ace565b92505050610f45565b6129058484846112a3565b61291184848484614227565b61244a576040516303f8ea1560e41b815260040160405180910390fd5b60608080600061293d306142de565b90506060851561295757612950866144c9565b925061296a565b6040518060200160405280600081525092505b610c8c546001600160a01b031615612a4157600086815261107b6020526040902060010154610c8c546001600160a01b031663988b93ad30336129ac8b611c2f565b60405160e085901b6001600160e01b03191681526001600160a01b03938416600482015291831660248301529091166044820152606481018a90526084810184905260a401600060405180830381865afa158015612a0e573d6000803e3d6000fd5b505050506040513d6000823e601f3d908101601f19168201604052612a369190810190615af0565b979650505050505050565b6114658054612a4f906158f6565b9050600003612af757610c8360009054906101000a90046001600160a01b03166001600160a01b031663a998e9fb6040518163ffffffff1660e01b8152600401600060405180830381865afa158015612aac573d6000803e3d6000fd5b505050506040513d6000823e601f3d908101601f19168201604052612ad49190810190615af0565b9350604051806040016040528060018152602001602f60f81b8152509050612baa565b6114658054612b05906158f6565b80601f0160208091040260200160405190810160405280929190818152602001828054612b31906158f6565b8015612b7e5780601f10612b5357610100808354040283529160200191612b7e565b820191906000526020600020905b815481529060010190602001808311612b6157829003601f168201915b505050505093506040518060200160405280600081525090506040518060200160405280600081525091505b612bb6848383866145f9565b9695505050505050565b612bc8613775565b612bd56114638787614eb6565b50612be36114648585614eb6565b50612bf16114658383614eb6565b507f1e6d6a19e45ae156dcf4155bc83cf8f59e98d536000998f0e95f4cd330ecfb3e611463611464611465604051612c2b93929190615c05565b60405180910390a1505050505050565b612c43613775565b612c5b600080516020615ded833981519152826113d9565b6040516001600160a01b038216907f91d5c045d5bd98bf59a379b259ebca05b93bf79af1845fdf87e3172385d4c7f790600090a250565b612c9b8161330f565b612ca48161333e565b612cad81613370565b6000612cb8826124bc565b9050611a0a8282613e2c565b600082815260976020526040902060010154612cdf816137ac565b610fc58383613c33565b612cf161383c565b612cfa8461330f565b612d05846000613ccb565b506000612d51612d1486611c2f565b8585858080601f01602080910402602001604051908101604052809392919081815260200183838082843760009201919091525061111c92505050565b9050612d5d818561393b565b6104b1546001600160a01b031615612e115780861015612d90576040516330005fb160e21b815260040160405180910390fd5b6104b1546040516323b872dd60e01b81526001600160a01b039091169081906323b872dd90612dc790339030908790600401615a6e565b6020604051808303816000875af1158015612de6573d6000803e3d6000fd5b505050506040513d601f19601f82011682018060405250810190612e0a9190615a92565b5050612e32565b80341015612e32576040516306c3cddf60e41b815260040160405180910390fd5b600085815261201f60205260409020548114612e5b57600085815261201f602052604090208190555b610c84546000868152612020602052604090205414612e8957610c8454600086815261202060205260409020555b6104b154600086815261202160205260409020546001600160a01b03908116911614612ee0576104b15460008681526120216020526040902080546001600160a01b0319166001600160a01b039092169190911790555b612ee8613a40565b612ef184613b9a565b505050505050565b612f01613775565b60006001600160a01b038416612f18575047612f88565b6040516370a0823160e01b81526001600160a01b038516906370a0823190612f44903090600401615029565b602060405180830381865afa158015612f61573d6000803e3d6000fd5b505050506040513d601f19601f82011682018060405250810190612f85919061595e565b90505b6000821580612f9657508183115b15612fc35760008211612fbc576040516303e09bb960e31b815260040160405180910390fd5b5080612fc6565b50815b836001600160a01b0316856001600160a01b0316336001600160a01b03167f342e7ff505a8a0364cd0dc2ff195c315e43bce86b204846ecd36913e117b109e8460405161301591815260200190565b60405180910390a461302885858361462b565b5050505050565b613037613775565b6001600160a01b0390911660009081526120226020526040902055565b6001600160a01b03918216600090815261107a6020908152604080832093909416825291909152205460ff1690565b61309b600080516020615ded8339815191523361198b565b60405133907f42885193b8178d25fca25a38e6fcc93918501e91be06d85e0c8afb3bad95238090600090a2565b6130d061383c565b610c8754610c8654116130f6576040516331af695160e01b815260040160405180910390fd5b6130ff82613370565b6131088261333e565b612710612407541061312d576040516323f21a3d60e21b815260040160405180910390fd5b600082815261107660205260408120546001600160a01b031690804261316386600090815261107b602052604090206001015490565b61316d91906158df565b9050600061317b8686612887565b905060006131898287615977565b9050828110156131a7578593506131a287826000613428565b6131ff565b6131b18784612887565b91506131bd82846158df565b600088815261107b6020526040808220426001909101555191955088917f59f2fe866dd27a1c2d34115520888c3150365cbc931aab97fa88c4b9ab40b7959190a25b6000613210898261156a8842615977565b905080896001600160a01b0316876001600160a01b0316600080516020615dcd83398151915260405160405180910390a461325c868a8360405180602001604052806000815250614227565b613279576040516303f8ea1560e41b815260040160405180910390fd5b505050505050505050565b61328c613775565b600c610c8d55565b61329c613775565b61201e55565b60006132ad8461333e565b600061271083426132ce88600090815261107b602052604090206001015490565b6132d891906158df565b6132e29190615aaf565b6132ec9190615ace565b90506132f98486836130c8565b506001949350505050565b6000610f4582614667565b600081815261107b60205260408120549003611b19576040516378fe247360e01b815260040160405180910390fd5b600081815261107b60205260409020600101544210611b19576040516306cfa7d760e11b815260040160405180910390fd5b600081815261107860205260408120546001600160a01b0316156133ac57600082815261107860205260409020546001600160a01b03166133c6565b600082815261107660205260409020546001600160a01b03165b90506133d282336134fa565b1580156133f75750600082815261107960205260409020546001600160a01b03163314155b801561340a57506134088133613054565b155b15611a0a5760405163e17c6d4560e01b815260040160405180910390fd5b6134318361330f565b600083815261107b6020526040902060010154811561347e57428111156134745761345c8382615977565b600085815261107b602052604090206001015561349c565b61345c8342615977565b61348883826158df565b600085815261107b60205260409020600101555b600084815261107b602090815260409182902060010154825190815290810185905283151581830152905185917f3c907806849e9204e0e26bb095dfe4b3071576c4323f766735c548211556d052919081900360600190a250505050565b600082815261107860205260408120546001600160a01b038381169116148061355d5750816001600160a01b031661353184611c2f565b6001600160a01b031614801561355d5750600083815261107860205260409020546001600160a01b0316155b1561356a57506001610f45565b506000610f45565b61357b8161333e565b826001600160a01b031661358e82611c2f565b6001600160a01b0316146135b55760405163075fd2b160e01b815260040160405180910390fd5b61271061240754106135da576040516323f21a3d60e21b815260040160405180910390fd5b6001600160a01b03821661360157604051635963709b60e01b815260040160405180910390fd5b816001600160a01b0316836001600160a01b03160361363357604051633fbd1a4960e01b815260040160405180910390fd5b61364981613642836000612887565b6000613428565b600081815261107b60205260409020613661836120f4565b60000361367f57611077805490600061367983615a55565b91905055505b61368882614672565b6136928284614778565b61369b8261481d565b60008281526120206020908152604080832083905561201f9091528082208290555183916001600160a01b038087169290881691600080516020615dcd83398151915291a4610c8f546001600160a01b03161561244a57610c8f5460018201546040516375b37aef60e01b8152306004820152602481018590523360448201526001600160a01b038781166064830152868116608483015260a48201929092529116906375b37aef9060c401600060405180830381600087803b15801561376157600080fd5b505af1158015611e6b573d6000803e3d6000fd5b61378d600080516020615ded83398151915233612491565b6137aa57604051632386d63160e21b815260040160405180910390fd5b565b611b19813361485a565b6137c08282612491565b611a0a5760008281526097602090815260408083206001600160a01b03851684529091529020805460ff191660011790556137f83390565b6001600160a01b0316816001600160a01b0316837f2f8788117e7eff1d82e926ec794901d17c78024a50270940304540a733656f0d60405160405180910390a45050565b610c8d54600c146137aa576040516302eae03b60e61b815260040160405180910390fd5b60006001600160a01b03841661388957604051635963709b60e01b815260040160405180910390fd5b610c87805490600061389a83615a55565b9091555050610c87546040805180820182528281526020808201868152600085815261107b90925292902090518155905160019091015590506138dc846120f4565b6000036138fa5761107780549060006138f483615a55565b91905055505b6139048185614778565b61390e818461419a565b60405181906001600160a01b03861690600090600080516020615dcd833981519152908290a49392505050565b610c83546001600160a01b03163b15613a0257610c835460405163939d9f1f60e01b8152600481018490526001600160a01b0383811660248301529091169063939d9f1f90620493e090604401600060405180830381600088803b1580156139a257600080fd5b5087f1935050505080156139b4575060015b611a0a57610c835460405130917f6b18946261693dfd6c760d986b28ad2238b5b0267f8e5b6bc40a2f998e2f20ac916139f6916001600160a01b031690615029565b60405180910390a25050565b610c835460405130917f6b18946261693dfd6c760d986b28ad2238b5b0267f8e5b6bc40a2f998e2f20ac916139f6916001600160a01b031690615029565b61201e54156137aa576104b1546001600160a01b031615613adf576104b15461201e5460405163a9059cbb60e01b815233600482015260248101919091526001600160a01b0390911690819063a9059cbb906044016020604051808303816000875af1158015613ab4573d6000803e3d6000fd5b505050506040513d601f19601f82011682018060405250810190613ad89190615a92565b5050613b4c565b61201e5460405160009133918381818185875af1925050503d8060008114613b23576040519150601f19603f3d011682016040523d82523d6000602084013e613b28565b606091505b5050905080613b4a5760405163045ed26b60e11b815260040160405180910390fd5b505b61201e546104b154604080519283526001600160a01b03909116602083015233917f522a883b471164223f18b50f326da8671372b64b4792eac0e63d447e714c3e3b910160405180910390a2565b6120226020527fbed07da93ba22716a54f603f075ff3d6567a94916ac6d58738883fb4a4b47ea6546001600160a01b0382166000908152604090205415613bf757506001600160a01b038116600090815261202260205260409020545b8015611a0a576104b154610c8554611a0a916001600160a01b031690849061271090613c24908690615aaf565b613c2e9190615ace565b61462b565b613c3d8282612491565b15611a0a5760008281526097602090815260408083206001600160a01b0385168085529252808320805460ff1916905551339285917ff6391f5c32d9c69d2a47ea670b442974b53935d1edc7fd64eb21e047a839171b9190a45050565b600090815261107b6020908152604080832042600190910155611076909152902080546001600160a01b0319169055565b600082815261107b60205260408120600190810154908101613d0057604051630fed19c160e11b815260040160405180910390fd5b60008315613d0e5783613d13565b610c84545b90506000198103613d28576000199250613d4e565b42821115613d4157613d3a8183615977565b9250613d4e565b613d4b8142615977565b92505b600085815261107b6020526040908190206001018490555185907f3ca112768ff7861e008ace1c11570c52e404c043e585545b5957a1e20961dde390613d979086815260200190565b60405180910390a2610c90546001600160a01b031615613e2457610c90546040516202d72d60e71b81526004810187905233602482015260448101859052606481018490526001600160a01b039091169063016b968090608401600060405180830381600087803b158015613e0b57600080fd5b505af1158015613e1f573d6000803e3d6000fd5b505050505b505092915050565b6000613e3783611c2f565b9050613e4283613c9a565b336001600160a01b0316816001600160a01b0316847f0a7068a9989857441c039a14a42b67ed71dd1fcfe5a9b17cc87b252e47bce52885604051613e8891815260200190565b60405180910390a48115613eae576104b154613eae906001600160a01b0316828461462b565b60008381526120206020908152604080832083905561201f909152812055610c8a546001600160a01b031615610fc557610c8a5460405163b499b6c560e01b81526001600160a01b039091169063b499b6c590613f1390339085908790600401615a6e565b600060405180830381600087803b158015613f2d57600080fd5b505af1158015613f41573d6000803e3d6000fd5b50505050505050565b6001600160a01b03163b151590565b613f6281614103565b6104b180546001600160a01b0319166001600160a01b0392909216919091179055565b610c8380546001600160a01b03191633179055610c84839055610c85829055610c86819055613fb2600c90565b61ffff16610c8d5550506001610c8e555050565b613fce6148be565b613fdb6114638383614eb6565b50611a0a635b5e139f60e01b614084565b6137aa63780e9d6360e01b614084565b614014600080516020615ded83398151915280614929565b61403a600080516020615dad833981519152600080516020615ded833981519152614929565b6140438161281f565b61405f5761405f600080516020615ded83398151915282614974565b61406881611b9a565b611b1957611b19600080516020615dad83398151915282614974565b6001600160e01b031980821690036140de5760405162461bcd60e51b815260206004820152601c60248201527f4552433136353a20696e76616c696420696e746572666163652069640000000060448201526064016119f7565b6001600160e01b0319166000908152606560205260409020805460ff19166001179055565b6001600160a01b0381161580159061417c57506000816001600160a01b03166318160ddd6040518163ffffffff1660e01b8152600401602060405180830381865afa158015614156573d6000803e3d6000fd5b505050506040513d601f19601f8201168201806040525081019061417a919061595e565b105b15611b195760405163684cae7960e11b815260040160405180910390fd5b600082815261107860205260409020546001600160a01b03828116911614611a0a5760008281526110786020526040902080546001600160a01b0319166001600160a01b0383161790556141ed8261481d565b6040516001600160a01b0382169083907f9d2895c45a420624de863a2f437b022d879f457bf7a829044055a10c5a6fd5e390600090a35050565b600061423b846001600160a01b0316613f4a565b614247575060016142d6565b604051630a85bd0160e11b81526000906001600160a01b0386169063150b7a029061427c9033908a9089908990600401615c3e565b6020604051808303816000875af115801561429b573d6000803e3d6000fd5b505050506040513d601f19601f820116820180604052508101906142bf9190615c71565b6001600160e01b031916630a85bd0160e11b149150505b949350505050565b604080518082018252601081526f181899199a1a9b1b9c1cb0b131b232b360811b60208201528151602a80825260608281019094526001600160a01b0385169291600091602082018180368337019050509050600360fc1b816000815181106143495761434961598f565b60200101906001600160f81b031916908160001a905350600f60fb1b816001815181106143785761437861598f565b60200101906001600160f81b031916908160001a90535060005b60148110156144c057826004856143aa84600c615977565b602081106143ba576143ba61598f565b1a60f81b6001600160f81b031916901c60f81c60ff16815181106143e0576143e061598f565b01602001516001600160f81b031916826143fb836002615aaf565b614406906002615977565b815181106144165761441661598f565b60200101906001600160f81b031916908160001a905350828461443a83600c615977565b6020811061444a5761444a61598f565b825191901a600f169081106144615761446161598f565b01602001516001600160f81b0319168261447c836002615aaf565b614487906003615977565b815181106144975761449761598f565b60200101906001600160f81b031916908160001a905350806144b881615a55565b915050614392565b50949350505050565b60608160008190036144f45750506040805180820190915260018152600360fc1b6020820152919050565b8260005b811561451e578061450881615a55565b91506145179050600a83615ace565b91506144f8565b6000816001600160401b038111156145385761453861507e565b6040519080825280601f01601f191660200182016040528015614562576020820181803683370190505b509050815b84156145ef576145786001826158df565b90506000614587600a87615ace565b61459290600a615aaf565b61459c90876158df565b6145a7906030615c8e565b905060008160f81b9050808484815181106145c4576145c461598f565b60200101906001600160f81b031916908160001a9053506145e6600a88615ace565b96505050614567565b5095945050505050565b6060848484846040516020016146129493929190615cb3565b6040516020818303038152906040529050949350505050565b8015610fc5576001600160a01b03831661465257610fc56001600160a01b0383168261497e565b8261244a6001600160a01b0382168484614a94565b6000610f4582614ae6565b600081815261107660205260408120546001600160a01b0316906001614697836120f4565b6146a191906158df565b600084815261107d60205260409020549091508082146146f7576001600160a01b038316600090815261107c60209081526040808320858452825280832054848452818420819055835261107d90915290208190555b6001600160a01b038316600090815261107c60209081526040808320858452909152812055614725836120f4565b60010361474357611077805490600061473d83615d0a565b91905055505b6001600160a01b038316600090815261107e6020526040812080546001929061476d9084906158df565b909155505050505050565b6000614783826120f4565b9050610c8e5481106147a857604051630bf6c32360e11b815260040160405180910390fd5b600083815261107d602090815260408083208490556001600160a01b03851680845261107c83528184208585528352818420879055868452611076835281842080546001600160a01b03191682179055835261107e9091528120805460019290614813908490615977565b9091555050505050565b600081815261107960205260409020546001600160a01b031615611b195760009081526110796020526040902080546001600160a01b0319169055565b6148648282612491565b611a0a5761487c816001600160a01b03166014614b0b565b614887836020614b0b565b604051602001614898929190615d21565b60408051601f198184030181529082905262461bcd60e51b82526119f791600401614ffd565b600054610100900460ff166137aa5760405162461bcd60e51b815260206004820152602b60248201527f496e697469616c697a61626c653a20636f6e7472616374206973206e6f74206960448201526a6e697469616c697a696e6760a81b60648201526084016119f7565b600082815260976020526040808220600101805490849055905190918391839186917fbd79b86ffe0ab8e8776151514217cd7cacd52c909f66475c3af44e129f0b00ff9190a4505050565b611a0a82826137b6565b804710156149ce5760405162461bcd60e51b815260206004820152601d60248201527f416464726573733a20696e73756666696369656e742062616c616e636500000060448201526064016119f7565b6000826001600160a01b03168260405160006040518083038185875af1925050503d8060008114614a1b576040519150601f19603f3d011682016040523d82523d6000602084013e614a20565b606091505b5050905080610fc55760405162461bcd60e51b815260206004820152603a60248201527f416464726573733a20756e61626c6520746f2073656e642076616c75652c20726044820152791958da5c1a595b9d081b585e481a185d99481c995d995c9d195960321b60648201526084016119f7565b604080516001600160a01b038416602482015260448082018490528251808303909101815260649091019091526020810180516001600160e01b031663a9059cbb60e01b179052610fc5908490614ca6565b60006001600160e01b03198216637965db0b60e01b1480610f455750610f4582614d78565b60606000614b1a836002615aaf565b614b25906002615977565b6001600160401b03811115614b3c57614b3c61507e565b6040519080825280601f01601f191660200182016040528015614b66576020820181803683370190505b509050600360fc1b81600081518110614b8157614b8161598f565b60200101906001600160f81b031916908160001a905350600f60fb1b81600181518110614bb057614bb061598f565b60200101906001600160f81b031916908160001a9053506000614bd4846002615aaf565b614bdf906001615977565b90505b6001811115614c57576f181899199a1a9b1b9c1cb0b131b232b360811b85600f1660108110614c1357614c1361598f565b1a60f81b828281518110614c2957614c2961598f565b60200101906001600160f81b031916908160001a90535060049490941c93614c5081615d0a565b9050614be2565b5083156111b65760405162461bcd60e51b815260206004820181905260248201527f537472696e67733a20686578206c656e67746820696e73756666696369656e7460448201526064016119f7565b6000614cfb826040518060400160405280602081526020017f5361666545524332303a206c6f772d6c6576656c2063616c6c206661696c6564815250856001600160a01b0316614db49092919063ffffffff16565b805190915015610fc55780806020019051810190614d199190615a92565b610fc55760405162461bcd60e51b815260206004820152602a60248201527f5361666545524332303a204552433230206f7065726174696f6e20646964206e6044820152691bdd081cdd58d8d9595960b21b60648201526084016119f7565b60006301ffc9a760e01b6001600160e01b031983161480610f455750506001600160e01b03191660009081526065602052604090205460ff1690565b60606142d6848460008585614dc885613f4a565b614e145760405162461bcd60e51b815260206004820152601d60248201527f416464726573733a2063616c6c20746f206e6f6e2d636f6e747261637400000060448201526064016119f7565b600080866001600160a01b03168587604051614e309190615d90565b60006040518083038185875af1925050503d8060008114614e6d576040519150601f19603f3d011682016040523d82523d6000602084013e614e72565b606091505b5091509150612a3682828660608315614e8c5750816111b6565b825115614e9c5782518084602001fd5b8160405162461bcd60e51b81526004016119f79190614ffd565b828054614ec2906158f6565b90600052602060002090601f016020900481019282614ee45760008555614f2a565b82601f10614efd5782800160ff19823516178555614f2a565b82800160010185558215614f2a579182015b82811115614f2a578235825591602001919060010190614f0f565b50611b969291505b80821115611b965760008155600101614f32565b6001600160e01b031981168114611b1957600080fd5b600060208284031215614f6e57600080fd5b81356111b681614f46565b600080600060608486031215614f8e57600080fd5b505081359360208301359350604090920135919050565b60005b83811015614fc0578181015183820152602001614fa8565b8381111561244a5750506000910152565b60008151808452614fe9816020860160208601614fa5565b601f01601f19169290920160200192915050565b6020815260006111b66020830184614fd1565b60006020828403121561502257600080fd5b5035919050565b6001600160a01b0391909116815260200190565b6001600160a01b0381168114611b1957600080fd5b6000806040838503121561506557600080fd5b82356150708161503d565b946020939093013593505050565b634e487b7160e01b600052604160045260246000fd5b604051601f8201601f191681016001600160401b03811182821017156150bc576150bc61507e565b604052919050565b60006001600160401b038211156150dd576150dd61507e565b50601f01601f191660200190565b600082601f8301126150fc57600080fd5b813561510f61510a826150c4565b615094565b81815284602083860101111561512457600080fd5b816020850160208301376000918101602001919091529392505050565b60008060006060848603121561515657600080fd5b83356151618161503d565b925060208401356151718161503d565b915060408401356001600160401b0381111561518c57600080fd5b615198868287016150eb565b9150509250925092565b6000806000606084860312156151b757600080fd5b83356151c28161503d565b925060208401356151d28161503d565b929592945050506040919091013590565b6000602082840312156151f557600080fd5b81356111b68161503d565b6000806040838503121561521357600080fd5b8235915060208301356152258161503d565b809150509250929050565b60006001600160401b038211156152495761524961507e565b5060051b60200190565b600082601f83011261526457600080fd5b8135602061527461510a83615230565b82815260059290921b8401810191818101908684111561529357600080fd5b8286015b848110156152ae5780358352918301918301615297565b509695505050505050565b600082601f8301126152ca57600080fd5b813560206152da61510a83615230565b82815260059290921b840181019181810190868411156152f957600080fd5b8286015b848110156152ae5780356153108161503d565b83529183019183016152fd565b60008083601f84011261532f57600080fd5b5081356001600160401b0381111561534657600080fd5b6020830191508360208260051b850101111561536157600080fd5b9250929050565b60008060008060008060a0878903121561538157600080fd5b86356001600160401b038082111561539857600080fd5b6153a48a838b01615253565b975060208901359150808211156153ba57600080fd5b6153c68a838b016152b9565b965060408901359150808211156153dc57600080fd5b6153e88a838b016152b9565b955060608901359150808211156153fe57600080fd5b61540a8a838b016152b9565b9450608089013591508082111561542057600080fd5b5061542d89828a0161531d565b979a9699509497509295939492505050565b6020808252825182820181905260009190848201906040850190845b818110156154775783518352928401929184019160010161545b565b50909695505050505050565b6000806040838503121561549657600080fd5b50508035926020909101359150565b60008083601f8401126154b757600080fd5b5081356001600160401b038111156154ce57600080fd5b60208301915083602082850101111561536157600080fd5b600080600080600080600060c0888a03121561550157600080fd5b873561550c8161503d565b96506020880135955060408801356155238161503d565b9450606088013593506080880135925060a08801356001600160401b0381111561554c57600080fd5b6155588a828b016154a5565b989b979a50959850939692959293505050565b60008060008060008060c0878903121561558457600080fd5b863561558f8161503d565b9550602087013561559f8161503d565b945060408701356155af8161503d565b935060608701356155bf8161503d565b925060808701356155cf8161503d565b915060a08701356155df8161503d565b809150509295509295509295565b6000806000806000806060878903121561560657600080fd5b86356001600160401b038082111561561d57600080fd5b6156298a838b0161531d565b9098509650602089013591508082111561564257600080fd5b61564e8a838b0161531d565b9096509450604089013591508082111561542057600080fd5b6000806020838503121561567a57600080fd5b82356001600160401b0381111561569057600080fd5b61569c858286016154a5565b90969095509350505050565b8015158114611b1957600080fd5b600080604083850312156156c957600080fd5b82356156d48161503d565b91506020830135615225816156a8565b600080600080608085870312156156fa57600080fd5b84356157058161503d565b935060208501356157158161503d565b92506040850135915060608501356001600160401b0381111561573757600080fd5b615743878288016150eb565b91505092959194509250565b6000806000806000806060878903121561576857600080fd5b86356001600160401b038082111561577f57600080fd5b61578b8a838b016154a5565b909850965060208901359150808211156157a457600080fd5b6157b08a838b016154a5565b909650945060408901359150808211156157c957600080fd5b5061542d89828a016154a5565b6000806000806000608086880312156157ee57600080fd5b853594506020860135935060408601356158078161503d565b925060608601356001600160401b0381111561582257600080fd5b61582e888289016154a5565b969995985093965092949392505050565b6000806040838503121561585257600080fd5b823561585d8161503d565b915060208301356152258161503d565b60008060006060848603121561588257600080fd5b833561588d8161503d565b95602085013595506040909401359392505050565b6000806000606084860312156158b757600080fd5b8335925060208401356151d28161503d565b634e487b7160e01b600052601160045260246000fd5b6000828210156158f1576158f16158c9565b500390565b600181811c9082168061590a57607f821691505b6020821081036125a557634e487b7160e01b600052602260045260246000fd5b6001600160a01b038581168252848116602083015283166040820152608060608201819052600090612bb690830184614fd1565b60006020828403121561597057600080fd5b5051919050565b6000821982111561598a5761598a6158c9565b500190565b634e487b7160e01b600052603260045260246000fd5b6000808335601e198436030181126159bc57600080fd5b8301803591506001600160401b038211156159d657600080fd5b60200191503681900382131561536157600080fd5b8881526001600160a01b03888116602083015287811660408301528616606082015260e06080820181905281018490526000610100858782850137600083870182015260a08301949094525060c0810191909152601f909201601f19169091010195945050505050565b600060018201615a6757615a676158c9565b5060010190565b6001600160a01b039384168152919092166020820152604081019190915260600190565b600060208284031215615aa457600080fd5b81516111b6816156a8565b6000816000190483118215151615615ac957615ac96158c9565b500290565b600082615aeb57634e487b7160e01b600052601260045260246000fd5b500490565b600060208284031215615b0257600080fd5b81516001600160401b03811115615b1857600080fd5b8201601f81018413615b2957600080fd5b8051615b3761510a826150c4565b818152856020838501011115615b4c57600080fd5b615b5d826020830160208601614fa5565b95945050505050565b8054600090600181811c9080831680615b8057607f831692505b60208084108203615ba157634e487b7160e01b600052602260045260246000fd5b83885260208801828015615bbc5760018114615bcd57615bf8565b60ff19871682528282019750615bf8565b60008981526020902060005b87811015615bf257815484820152908601908401615bd9565b83019850505b5050505050505092915050565b606081526000615c186060830186615b66565b8281036020840152615c2a8186615b66565b90508281036040840152612bb68185615b66565b6001600160a01b0385811682528416602082015260408101839052608060608201819052600090612bb690830184614fd1565b600060208284031215615c8357600080fd5b81516111b681614f46565b600060ff821660ff84168060ff03821115615cab57615cab6158c9565b019392505050565b60008551615cc5818460208a01614fa5565b855190830190615cd9818360208a01614fa5565b8551910190615cec818360208901614fa5565b8451910190615cff818360208801614fa5565b019695505050505050565b600081615d1957615d196158c9565b506000190190565b76020b1b1b2b9b9a1b7b73a3937b61d1030b1b1b7bab73a1604d1b815260008351615d53816017850160208801614fa5565b7001034b99036b4b9b9b4b733903937b6329607d1b6017918401918201528351615d84816028840160208801614fa5565b01602801949350505050565b60008251615da2818460208701614fa5565b919091019291505056feb309c40027c81d382c3b58d8de24207a34b27e1db369b1434e4a11311f154b5eddf252ad1be2c89b69c2b068fc378daa952ba7f163c4a11628f55a4df523b3efb89cdd26cddd51301940bf2715f765b626b8a5a9e2681ac62dc83cc2db2530c0a2646970667358221220c2b080bf5f56d62a43244ffbcb08a9af4dba6e4d0c805d5a2eb9982c4708ca8564736f6c634300080d0033",
  "linkReferences": {},
  "deployedLinkReferences": {}
}