{
  "contractName": "PublicLock",
  "abi": [
    {
      "constant": true,
      "inputs": [
        {
          "name": "interfaceId",
          "type": "bytes4"
        }
      ],
      "name": "supportsInterface",
      "outputs": [
        {
          "name": "",
          "type": "bool"
        }
      ],
      "payable": false,
      "stateMutability": "view",
      "type": "function"
    },
    {
      "constant": true,
      "inputs": [
        {
          "name": "",
          "type": "uint256"
        }
      ],
      "name": "owners",
      "outputs": [
        {
          "name": "",
          "type": "address"
        }
      ],
      "payable": false,
      "stateMutability": "view",
      "type": "function"
    },
    {
      "constant": true,
      "inputs": [],
      "name": "name",
      "outputs": [
        {
          "name": "",
          "type": "string"
        }
      ],
      "payable": false,
      "stateMutability": "view",
      "type": "function"
    },
    {
      "constant": true,
      "inputs": [
        {
          "name": "_tokenId",
          "type": "uint256"
        }
      ],
      "name": "getApproved",
      "outputs": [
        {
          "name": "",
          "type": "address"
        }
      ],
      "payable": false,
      "stateMutability": "view",
      "type": "function"
    },
    {
      "constant": false,
      "inputs": [
        {
          "name": "_approved",
          "type": "address"
        },
        {
          "name": "_tokenId",
          "type": "uint256"
        }
      ],
      "name": "approve",
      "outputs": [],
      "payable": true,
      "stateMutability": "payable",
      "type": "function"
    },
    {
      "constant": true,
      "inputs": [],
      "name": "refundPenaltyDenominator",
      "outputs": [
        {
          "name": "",
          "type": "uint256"
        }
      ],
      "payable": false,
      "stateMutability": "view",
      "type": "function"
    },
    {
      "constant": true,
      "inputs": [],
      "name": "refundPenaltyNumerator",
      "outputs": [
        {
          "name": "",
          "type": "uint256"
        }
      ],
      "payable": false,
      "stateMutability": "view",
      "type": "function"
    },
    {
      "constant": true,
      "inputs": [],
      "name": "unlockProtocol",
      "outputs": [
        {
          "name": "",
          "type": "address"
        }
      ],
      "payable": false,
      "stateMutability": "view",
      "type": "function"
    },
    {
      "constant": true,
      "inputs": [
        {
          "name": "_page",
          "type": "uint256"
        },
        {
          "name": "_pageSize",
          "type": "uint256"
        }
      ],
      "name": "getOwnersByPage",
      "outputs": [
        {
          "name": "",
          "type": "address[]"
        }
      ],
      "payable": false,
      "stateMutability": "view",
      "type": "function"
    },
    {
      "constant": true,
      "inputs": [],
      "name": "keyPrice",
      "outputs": [
        {
          "name": "",
          "type": "uint256"
        }
      ],
      "payable": false,
      "stateMutability": "view",
      "type": "function"
    },
    {
      "constant": true,
      "inputs": [],
      "name": "expirationDuration",
      "outputs": [
        {
          "name": "",
          "type": "uint256"
        }
      ],
      "payable": false,
      "stateMutability": "view",
      "type": "function"
    },
    {
      "constant": false,
      "inputs": [
        {
          "name": "",
          "type": "address"
        },
        {
          "name": "",
          "type": "address"
        },
        {
          "name": "",
          "type": "uint256"
        },
        {
          "name": "",
          "type": "bytes"
        }
      ],
      "name": "onERC721Received",
      "outputs": [
        {
          "name": "",
          "type": "bytes4"
        }
      ],
      "payable": false,
      "stateMutability": "nonpayable",
      "type": "function"
    },
    {
      "constant": true,
      "inputs": [],
      "name": "totalSupply",
      "outputs": [
        {
          "name": "",
          "type": "uint256"
        }
      ],
      "payable": false,
      "stateMutability": "view",
      "type": "function"
    },
    {
      "constant": false,
      "inputs": [
        {
          "name": "_keyPrice",
          "type": "uint256"
        }
      ],
      "name": "updateKeyPrice",
      "outputs": [],
      "payable": false,
      "stateMutability": "nonpayable",
      "type": "function"
    },
    {
      "constant": false,
      "inputs": [],
      "name": "cancelAndRefund",
      "outputs": [],
      "payable": false,
      "stateMutability": "nonpayable",
      "type": "function"
    },
    {
      "constant": false,
      "inputs": [
        {
          "name": "_from",
          "type": "address"
        },
        {
          "name": "_recipient",
          "type": "address"
        },
        {
          "name": "_tokenId",
          "type": "uint256"
        }
      ],
      "name": "transferFrom",
      "outputs": [],
      "payable": true,
      "stateMutability": "payable",
      "type": "function"
    },
    {
      "constant": false,
      "inputs": [
        {
          "name": "_baseTokenURI",
          "type": "string"
        }
      ],
      "name": "setBaseTokenURI",
      "outputs": [],
      "payable": false,
      "stateMutability": "nonpayable",
      "type": "function"
    },
    {
      "constant": false,
      "inputs": [
        {
          "name": "_refundPenaltyNumerator",
          "type": "uint256"
        },
        {
          "name": "_refundPenaltyDenominator",
          "type": "uint256"
        }
      ],
      "name": "updateRefundPenalty",
      "outputs": [],
      "payable": false,
      "stateMutability": "nonpayable",
      "type": "function"
    },
    {
      "constant": true,
      "inputs": [],
      "name": "numberOfKeysSold",
      "outputs": [
        {
          "name": "",
          "type": "uint256"
        }
      ],
      "payable": false,
      "stateMutability": "view",
      "type": "function"
    },
    {
      "constant": false,
      "inputs": [],
      "name": "withdraw",
      "outputs": [],
      "payable": false,
      "stateMutability": "nonpayable",
      "type": "function"
    },
    {
      "constant": false,
      "inputs": [
        {
          "name": "_transferFeeNumerator",
          "type": "uint256"
        },
        {
          "name": "_transferFeeDenominator",
          "type": "uint256"
        }
      ],
      "name": "updateTransferFee",
      "outputs": [],
      "payable": false,
      "stateMutability": "nonpayable",
      "type": "function"
    },
    {
      "constant": true,
      "inputs": [],
      "name": "isAlive",
      "outputs": [
        {
          "name": "",
          "type": "bool"
        }
      ],
      "payable": false,
      "stateMutability": "view",
      "type": "function"
    },
    {
      "constant": false,
      "inputs": [
        {
          "name": "_from",
          "type": "address"
        },
        {
          "name": "_to",
          "type": "address"
        },
        {
          "name": "_tokenId",
          "type": "uint256"
        }
      ],
      "name": "safeTransferFrom",
      "outputs": [],
      "payable": true,
      "stateMutability": "payable",
      "type": "function"
    },
    {
      "constant": true,
      "inputs": [
        {
          "name": "_a",
          "type": "string"
        },
        {
          "name": "_b",
          "type": "string"
        },
        {
          "name": "_c",
          "type": "string"
        },
        {
          "name": "_d",
          "type": "string"
        }
      ],
      "name": "strConcat",
      "outputs": [
        {
          "name": "_concatenatedString",
          "type": "string"
        }
      ],
      "payable": false,
      "stateMutability": "pure",
      "type": "function"
    },
    {
      "constant": true,
      "inputs": [
        {
          "name": "",
          "type": "address"
        }
      ],
      "name": "keyOwnerToNonce",
      "outputs": [
        {
          "name": "",
          "type": "uint256"
        }
      ],
      "payable": false,
      "stateMutability": "view",
      "type": "function"
    },
    {
      "constant": true,
      "inputs": [
        {
          "name": "_i",
          "type": "uint256"
        }
      ],
      "name": "uint2Str",
      "outputs": [
        {
          "name": "_uintAsString",
          "type": "string"
        }
      ],
      "payable": false,
      "stateMutability": "pure",
      "type": "function"
    },
    {
      "constant": true,
      "inputs": [
        {
          "name": "_owner",
          "type": "address"
        }
      ],
      "name": "getCancelAndRefundValueFor",
      "outputs": [
        {
          "name": "refund",
          "type": "uint256"
        }
      ],
      "payable": false,
      "stateMutability": "view",
      "type": "function"
    },
    {
      "constant": false,
      "inputs": [
        {
          "name": "_lockName",
          "type": "string"
        }
      ],
      "name": "updateLockName",
      "outputs": [],
      "payable": false,
      "stateMutability": "nonpayable",
      "type": "function"
    },
    {
      "constant": true,
      "inputs": [
        {
          "name": "_addr",
          "type": "address"
        }
      ],
      "name": "address2Str",
      "outputs": [
        {
          "name": "",
          "type": "string"
        }
      ],
      "payable": false,
      "stateMutability": "pure",
      "type": "function"
    },
    {
      "constant": false,
      "inputs": [],
      "name": "incrementNonce",
      "outputs": [],
      "payable": false,
      "stateMutability": "nonpayable",
      "type": "function"
    },
    {
      "constant": true,
      "inputs": [
        {
          "name": "_tokenId",
          "type": "uint256"
        }
      ],
      "name": "ownerOf",
      "outputs": [
        {
          "name": "",
          "type": "address"
        }
      ],
      "payable": false,
      "stateMutability": "view",
      "type": "function"
    },
    {
      "constant": true,
      "inputs": [
        {
          "name": "_owner",
          "type": "address"
        }
      ],
      "name": "getHasValidKey",
      "outputs": [
        {
          "name": "",
          "type": "bool"
        }
      ],
      "payable": false,
      "stateMutability": "view",
      "type": "function"
    },
    {
      "constant": true,
      "inputs": [
        {
          "name": "_owner",
          "type": "address"
        }
      ],
      "name": "balanceOf",
      "outputs": [
        {
          "name": "",
          "type": "uint256"
        }
      ],
      "payable": false,
      "stateMutability": "view",
      "type": "function"
    },
    {
      "constant": false,
      "inputs": [
        {
          "name": "_recipient",
          "type": "address"
        },
        {
          "name": "_referrer",
          "type": "address"
        }
      ],
      "name": "purchaseForFrom",
      "outputs": [],
      "payable": true,
      "stateMutability": "payable",
      "type": "function"
    },
    {
      "constant": false,
      "inputs": [],
      "name": "renounceOwnership",
      "outputs": [],
      "payable": false,
      "stateMutability": "nonpayable",
      "type": "function"
    },
    {
      "constant": false,
      "inputs": [
        {
          "name": "_amount",
          "type": "uint256"
        }
      ],
      "name": "partialWithdraw",
      "outputs": [],
      "payable": false,
      "stateMutability": "nonpayable",
      "type": "function"
    },
    {
      "constant": true,
      "inputs": [],
      "name": "maxNumberOfKeys",
      "outputs": [
        {
          "name": "",
          "type": "uint256"
        }
      ],
      "payable": false,
      "stateMutability": "view",
      "type": "function"
    },
    {
      "constant": false,
      "inputs": [
        {
          "name": "_lockSymbol",
          "type": "string"
        }
      ],
      "name": "updateLockSymbol",
      "outputs": [],
      "payable": false,
      "stateMutability": "nonpayable",
      "type": "function"
    },
    {
      "constant": false,
      "inputs": [
        {
          "name": "_recipients",
          "type": "address[]"
        },
        {
          "name": "_expirationTimestamps",
          "type": "uint256[]"
        }
      ],
      "name": "grantKeys",
      "outputs": [],
      "payable": false,
      "stateMutability": "nonpayable",
      "type": "function"
    },
    {
      "constant": true,
      "inputs": [
        {
          "name": "_owner",
          "type": "address"
        }
      ],
      "name": "getTransferFee",
      "outputs": [
        {
          "name": "",
          "type": "uint256"
        }
      ],
      "payable": false,
      "stateMutability": "view",
      "type": "function"
    },
    {
      "constant": true,
      "inputs": [
        {
          "name": "_keyOwner",
          "type": "address"
        },
        {
          "name": "_txSender",
          "type": "address"
        }
      ],
      "name": "getCancelAndRefundApprovalHash",
      "outputs": [
        {
          "name": "approvalHash",
          "type": "bytes32"
        }
      ],
      "payable": false,
      "stateMutability": "view",
      "type": "function"
    },
    {
      "constant": true,
      "inputs": [],
      "name": "owner",
      "outputs": [
        {
          "name": "",
          "type": "address"
        }
      ],
      "payable": false,
      "stateMutability": "view",
      "type": "function"
    },
    {
      "constant": true,
      "inputs": [],
      "name": "isOwner",
      "outputs": [
        {
          "name": "",
          "type": "bool"
        }
      ],
      "payable": false,
      "stateMutability": "view",
      "type": "function"
    },
    {
      "constant": true,
      "inputs": [],
      "name": "transferFeeNumerator",
      "outputs": [
        {
          "name": "",
          "type": "uint256"
        }
      ],
      "payable": false,
      "stateMutability": "view",
      "type": "function"
    },
    {
      "constant": true,
      "inputs": [],
      "name": "numberOfOwners",
      "outputs": [
        {
          "name": "",
          "type": "uint256"
        }
      ],
      "payable": false,
      "stateMutability": "view",
      "type": "function"
    },
    {
      "constant": true,
      "inputs": [],
      "name": "symbol",
      "outputs": [
        {
          "name": "",
          "type": "string"
        }
      ],
      "payable": false,
      "stateMutability": "view",
      "type": "function"
    },
    {
      "constant": true,
      "inputs": [
        {
          "name": "_account",
          "type": "address"
        }
      ],
      "name": "getTokenIdFor",
      "outputs": [
        {
          "name": "",
          "type": "uint256"
        }
      ],
      "payable": false,
      "stateMutability": "view",
      "type": "function"
    },
    {
      "constant": true,
      "inputs": [
        {
          "name": "_tokenId",
          "type": "uint256"
        },
        {
          "name": "_owner",
          "type": "address"
        }
      ],
      "name": "isKeyOwner",
      "outputs": [
        {
          "name": "",
          "type": "bool"
        }
      ],
      "payable": false,
      "stateMutability": "view",
      "type": "function"
    },
    {
      "constant": false,
      "inputs": [
        {
          "name": "_recipient",
          "type": "address"
        },
        {
          "name": "_expirationTimestamp",
          "type": "uint256"
        }
      ],
      "name": "grantKey",
      "outputs": [],
      "payable": false,
      "stateMutability": "nonpayable",
      "type": "function"
    },
    {
      "constant": true,
      "inputs": [],
      "name": "tokenAddress",
      "outputs": [
        {
          "name": "",
          "type": "address"
        }
      ],
      "payable": false,
      "stateMutability": "view",
      "type": "function"
    },
    {
      "constant": false,
      "inputs": [
        {
          "name": "_owner",
          "type": "address"
        }
      ],
      "name": "expireKeyFor",
      "outputs": [],
      "payable": false,
      "stateMutability": "nonpayable",
      "type": "function"
    },
    {
      "constant": false,
      "inputs": [
        {
          "name": "_to",
          "type": "address"
        },
        {
          "name": "_approved",
          "type": "bool"
        }
      ],
      "name": "setApprovalForAll",
      "outputs": [],
      "payable": false,
      "stateMutability": "nonpayable",
      "type": "function"
    },
    {
      "constant": false,
      "inputs": [],
      "name": "destroyLock",
      "outputs": [],
      "payable": false,
      "stateMutability": "nonpayable",
      "type": "function"
    },
    {
      "constant": true,
      "inputs": [
        {
          "name": "_owner",
          "type": "address"
        }
      ],
      "name": "keyExpirationTimestampFor",
      "outputs": [
        {
          "name": "timestamp",
          "type": "uint256"
        }
      ],
      "payable": false,
      "stateMutability": "view",
      "type": "function"
    },
    {
      "constant": false,
      "inputs": [
        {
          "name": "_from",
          "type": "address"
        },
        {
          "name": "_to",
          "type": "address"
        },
        {
          "name": "_tokenId",
          "type": "uint256"
        },
        {
          "name": "_data",
          "type": "bytes"
        }
      ],
      "name": "safeTransferFrom",
      "outputs": [],
      "payable": true,
      "stateMutability": "payable",
      "type": "function"
    },
    {
      "constant": false,
      "inputs": [
        {
          "name": "_keyOwner",
          "type": "address"
        },
        {
          "name": "_signature",
          "type": "bytes"
        }
      ],
      "name": "cancelAndRefundFor",
      "outputs": [],
      "payable": false,
      "stateMutability": "nonpayable",
      "type": "function"
    },
    {
      "constant": false,
      "inputs": [],
      "name": "disableLock",
      "outputs": [],
      "payable": false,
      "stateMutability": "nonpayable",
      "type": "function"
    },
    {
      "constant": false,
      "inputs": [
        {
          "name": "sender",
          "type": "address"
        }
      ],
      "name": "initialize",
      "outputs": [],
      "payable": false,
      "stateMutability": "nonpayable",
      "type": "function"
    },
    {
      "constant": true,
      "inputs": [
        {
          "name": "_tokenId",
          "type": "uint256"
        }
      ],
      "name": "tokenURI",
      "outputs": [
        {
          "name": "",
          "type": "string"
        }
      ],
      "payable": false,
      "stateMutability": "view",
      "type": "function"
    },
    {
      "constant": true,
      "inputs": [],
      "name": "transferFeeDenominator",
      "outputs": [
        {
          "name": "",
          "type": "uint256"
        }
      ],
      "payable": false,
      "stateMutability": "view",
      "type": "function"
    },
    {
      "constant": true,
      "inputs": [
        {
          "name": "_owner",
          "type": "address"
        },
        {
          "name": "_operator",
          "type": "address"
        }
      ],
      "name": "isApprovedForAll",
      "outputs": [
        {
          "name": "",
          "type": "bool"
        }
      ],
      "payable": false,
      "stateMutability": "view",
      "type": "function"
    },
    {
      "constant": false,
      "inputs": [
        {
          "name": "newOwner",
          "type": "address"
        }
      ],
      "name": "transferOwnership",
      "outputs": [],
      "payable": false,
      "stateMutability": "nonpayable",
      "type": "function"
    },
    {
      "constant": false,
      "inputs": [
        {
          "name": "_recipient",
          "type": "address"
        }
      ],
      "name": "purchaseFor",
      "outputs": [],
      "payable": true,
      "stateMutability": "payable",
      "type": "function"
    },
    {
      "constant": false,
      "inputs": [
        {
          "name": "_recipients",
          "type": "address[]"
        },
        {
          "name": "_expirationTimestamp",
          "type": "uint256"
        }
      ],
      "name": "grantKeys",
      "outputs": [],
      "payable": false,
      "stateMutability": "nonpayable",
      "type": "function"
    },
    {
      "inputs": [
        {
          "name": "_owner",
          "type": "address"
        },
        {
          "name": "_expirationDuration",
          "type": "uint256"
        },
        {
          "name": "_tokenAddress",
          "type": "address"
        },
        {
          "name": "_keyPrice",
          "type": "uint256"
        },
        {
          "name": "_maxNumberOfKeys",
          "type": "uint256"
        },
        {
          "name": "_lockName",
          "type": "string"
        }
      ],
      "payable": false,
      "stateMutability": "nonpayable",
      "type": "constructor"
    },
    {
      "payable": false,
      "stateMutability": "nonpayable",
      "type": "fallback"
    },
    {
      "anonymous": false,
      "inputs": [
        {
          "indexed": true,
          "name": "tokenId",
          "type": "uint256"
        },
        {
          "indexed": true,
          "name": "owner",
          "type": "address"
        },
        {
          "indexed": true,
          "name": "sendTo",
          "type": "address"
        },
        {
          "indexed": false,
          "name": "refund",
          "type": "uint256"
        }
      ],
      "name": "CancelKey",
      "type": "event"
    },
    {
      "anonymous": false,
      "inputs": [
        {
          "indexed": false,
          "name": "oldRefundPenaltyNumerator",
          "type": "uint256"
        },
        {
          "indexed": false,
          "name": "oldRefundPenaltyDenominator",
          "type": "uint256"
        },
        {
          "indexed": false,
          "name": "refundPenaltyNumerator",
          "type": "uint256"
        },
        {
          "indexed": false,
          "name": "refundPenaltyDenominator",
          "type": "uint256"
        }
      ],
      "name": "RefundPenaltyChanged",
      "type": "event"
    },
    {
      "anonymous": false,
      "inputs": [
        {
          "indexed": false,
          "name": "oldTransferFeeNumerator",
          "type": "uint256"
        },
        {
          "indexed": false,
          "name": "oldTransferFeeDenominator",
          "type": "uint256"
        },
        {
          "indexed": false,
          "name": "transferFeeNumerator",
          "type": "uint256"
        },
        {
          "indexed": false,
          "name": "transferFeeDenominator",
          "type": "uint256"
        }
      ],
      "name": "TransferFeeChanged",
      "type": "event"
    },
    {
      "anonymous": false,
      "inputs": [
        {
          "indexed": false,
          "name": "symbol",
          "type": "string"
        }
      ],
      "name": "NewLockSymbol",
      "type": "event"
    },
    {
      "anonymous": false,
      "inputs": [
        {
          "indexed": false,
          "name": "tokenId",
          "type": "uint256"
        }
      ],
      "name": "ExpireKey",
      "type": "event"
    },
    {
      "anonymous": false,
      "inputs": [
        {
          "indexed": false,
          "name": "oldKeyPrice",
          "type": "uint256"
        },
        {
          "indexed": false,
          "name": "keyPrice",
          "type": "uint256"
        }
      ],
      "name": "PriceChanged",
      "type": "event"
    },
    {
      "anonymous": false,
      "inputs": [
        {
          "indexed": true,
          "name": "_sender",
          "type": "address"
        },
        {
          "indexed": false,
          "name": "_amount",
          "type": "uint256"
        }
      ],
      "name": "Withdrawal",
      "type": "event"
    },
    {
      "anonymous": false,
      "inputs": [
        {
          "indexed": false,
          "name": "balance",
          "type": "uint256"
        },
        {
          "indexed": true,
          "name": "owner",
          "type": "address"
        }
      ],
      "name": "Destroy",
      "type": "event"
    },
    {
      "anonymous": false,
      "inputs": [],
      "name": "Disable",
      "type": "event"
    },
    {
      "anonymous": false,
      "inputs": [
        {
          "indexed": true,
          "name": "previousOwner",
          "type": "address"
        },
        {
          "indexed": true,
          "name": "newOwner",
          "type": "address"
        }
      ],
      "name": "OwnershipTransferred",
      "type": "event"
    },
    {
      "anonymous": false,
      "inputs": [
        {
          "indexed": true,
          "name": "_from",
          "type": "address"
        },
        {
          "indexed": true,
          "name": "_to",
          "type": "address"
        },
        {
          "indexed": true,
          "name": "_tokenId",
          "type": "uint256"
        }
      ],
      "name": "Transfer",
      "type": "event"
    },
    {
      "anonymous": false,
      "inputs": [
        {
          "indexed": true,
          "name": "_owner",
          "type": "address"
        },
        {
          "indexed": true,
          "name": "_approved",
          "type": "address"
        },
        {
          "indexed": true,
          "name": "_tokenId",
          "type": "uint256"
        }
      ],
      "name": "Approval",
      "type": "event"
    },
    {
      "anonymous": false,
      "inputs": [
        {
          "indexed": true,
          "name": "_owner",
          "type": "address"
        },
        {
          "indexed": true,
          "name": "_operator",
          "type": "address"
        },
        {
          "indexed": false,
          "name": "_approved",
          "type": "bool"
        }
      ],
      "name": "ApprovalForAll",
      "type": "event"
    },
    {
      "constant": true,
      "inputs": [],
      "name": "publicLockVersion",
      "outputs": [
        {
          "name": "",
          "type": "uint16"
        }
      ],
      "payable": false,
      "stateMutability": "pure",
      "type": "function"
    }
  ],
  "bytecode": "0x6080604052600060755560646076556001607755600a6078553480156200002557600080fd5b50604051620049ab380380620049ab833981018060405260c08110156200004b57600080fd5b8151602083015160408401516060850151608086015160a087018051959794969395929491938201926401000000008111156200008757600080fd5b820160208101848111156200009b57600080fd5b8151640100000000811182820187101715620000b657600080fd5b50509291905050508085848487620000db6301ffc9a760e01b6200030260201b60201c565b6001600160a01b03811615806200015957506000816001600160a01b03166318160ddd6040518163ffffffff1660e01b815260040160206040518083038186803b1580156200012957600080fd5b505afa1580156200013e573d6000803e3d6000fd5b505050506040513d60208110156200015557600080fd5b5051115b620001c557604080517f08c379a000000000000000000000000000000000000000000000000000000000815260206004820152600d60248201527f494e56414c49445f544f4b454e00000000000000000000000000000000000000604482015290519081900360640190fd5b60678054600160a01b60ff02196001600160a01b039093166001600160a01b031990911617919091167401000000000000000000000000000000000000000017905563bbf81e008311156200027b57604080517f08c379a000000000000000000000000000000000000000000000000000000000815260206004820152601860248201527f4d41585f45585049524154494f4e5f3130305f59454152530000000000000000604482015290519081900360640190fd5b606880546001600160a01b03191633179055606992909255606a55606b558051620002ae90607090602084019062000488565b50620002c7635b5e139f60e01b6200030260201b60201c565b50620002e06380ac58cd60e01b6200030260201b60201c565b620002f6866200036f60201b62002ff81760201c565b5050505050506200052a565b7fffffffff0000000000000000000000000000000000000000000000000000000080821614156200033257600080fd5b7fffffffff00000000000000000000000000000000000000000000000000000000166000908152602081905260409020805460ff19166001179055565b600154610100900460ff1680620003915750620003916200048160201b60201c565b80620003a0575060015460ff16155b620003f7576040517f08c379a000000000000000000000000000000000000000000000000000000000815260040180806020018281038252602e8152602001806200497d602e913960400191505060405180910390fd5b6001805461010061ff00198216811760ff19168317909255603480546001600160a01b0319166001600160a01b0385811691909117918290556040519390920460ff16929116906000907f8be0079c531659141344cd1fd0a4f28419497f9722a3daafe3b4186f6b6457e0908290a3600180549115156101000261ff001990921691909117905550565b303b155b90565b828054600181600116156101000203166002900490600052602060002090601f016020900481019282601f10620004cb57805160ff1916838001178555620004fb565b82800160010185558215620004fb579182015b82811115620004fb578251825591602001919060010190620004de565b50620005099291506200050d565b5090565b6200048591905b8082111562000509576000815560010162000514565b614443806200053a6000396000f3fe6080604052600436106103ce5760003560e01c806370a08231116101fd5780639b3f0b1711610118578063c1c98d03116100ab578063d42cfc411161007a578063d42cfc411461136e578063e985e9c514611383578063f2fde38b146113be578063f6e4641f146113f1578063f8faf94214611417576103ce565b8063c1c98d03146112d0578063c4d66de8146112e5578063c87b56dd14611318578063d1bbd49c14611342576103ce565b8063a843a4e7116100e7578063a843a4e714611139578063abdf82ce1461114e578063b88d4fde14611181578063b8968bb414611245576103ce565b80639b3f0b171461107d5780639d76ea58146110b65780639f98d3cb146110cb578063a22cb465146110fe576103ce565b80638d0361fc1161019057806393fd18441161015f57806393fd184414610fe757806395d89b4114610ffc578063970aaeb714611011578063994a8a7114611044576103ce565b80638d0361fc14610f6d5780638da5cb5b14610fa85780638f32d59b14610fbd5780638f98ce8f14610fd2576103ce565b806374b6c106116101cc57806374b6c10614610ddf578063782a4ade14610df45780637c7c425314610e6f57806383cb0fa914610f3a576103ce565b806370a0823114610d3f57806370efb77014610d72578063715018a614610da057806371d2ee6c14610db5576103ce565b806330176e13116102ed5780634bc5a135116102805780635fdb97e11161024f5780635fdb97e114610c9a578063627cdcb914610ccd5780636352211e14610ce25780636d8ea5b414610d0c576103ce565b80634bc5a13514610b8f5780634c7a12a014610bc257806352d6a8e414610bec578063550ef3a814610c1f576103ce565b80633d3359cb116102bc5780633d3359cb146108d45780634136aa351461090457806342842e0e1461091957806345e965cd1461094f576103ce565b806330176e13146107ff57806339f469861461087a5780633ba70e31146108aa5780633ccfd60b146108bf576103ce565b806310803b721161036557806318160ddd1161033457806318160ddd146107755780631f1ec0291461078a5780632009dc65146107b457806323b872dd146107c9576103ce565b806310803b72146105dd57806310e569731461065d57806311a4c03a14610672578063150b7a0214610687576103ce565b8063095ea7b3116103a1578063095ea7b31461055e5780630c79130f1461058c5780630ed3e2cc146105b35780630f15023b146105c8576103ce565b806301ffc9a71461041c578063025e7c271461046457806306fdde03146104aa578063081812fc14610534575b3480156103da57600080fd5b5060408051600160e51b62461bcd02815260206004820152600b6024820152600160a81b6a4e4f5f46414c4c4241434b02604482015290519081900360640190fd5b34801561042857600080fd5b506104506004803603602081101561043f57600080fd5b50356001600160e01b031916611492565b604080519115158252519081900360200190f35b34801561047057600080fd5b5061048e6004803603602081101561048757600080fd5b50356114b5565b604080516001600160a01b039092168252519081900360200190f35b3480156104b657600080fd5b506104bf6114dc565b6040805160208082528351818301528351919283929083019185019080838360005b838110156104f95781810151838201526020016104e1565b50505050905090810190601f1680156105265780820380516001836020036101000a031916815260200191505b509250505060405180910390f35b34801561054057600080fd5b5061048e6004803603602081101561055757600080fd5b5035611573565b61058a6004803603604081101561057457600080fd5b506001600160a01b038135169060200135611584565b005b34801561059857600080fd5b506105a1611723565b60408051918252519081900360200190f35b3480156105bf57600080fd5b506105a1611729565b3480156105d457600080fd5b5061048e61172f565b3480156105e957600080fd5b5061060d6004803603604081101561060057600080fd5b508035906020013561173e565b60408051602080825283518183015283519192839290830191858101910280838360005b83811015610649578181015183820152602001610631565b505050509050019250505060405180910390f35b34801561066957600080fd5b506105a1611863565b34801561067e57600080fd5b506105a1611869565b34801561069357600080fd5b50610758600480360360808110156106aa57600080fd5b6001600160a01b03823581169260208101359091169160408201359190810190608081016060820135600160201b8111156106e457600080fd5b8201836020820111156106f657600080fd5b803590602001918460018302840111600160201b8311171561071757600080fd5b91908080601f01602080910402602001604051908101604052809392919081815260200183838082843760009201919091525092955061186f945050505050565b604080516001600160e01b03199092168252519081900360200190f35b34801561078157600080fd5b506105a1611883565b34801561079657600080fd5b5061058a600480360360208110156107ad57600080fd5b5035611889565b3480156107c057600080fd5b5061058a611937565b61058a600480360360608110156107df57600080fd5b506001600160a01b03813581169160208101359091169060400135611942565b34801561080b57600080fd5b5061058a6004803603602081101561082257600080fd5b810190602081018135600160201b81111561083c57600080fd5b82018360208201111561084e57600080fd5b803590602001918460018302840111600160201b8311171561086f57600080fd5b509092509050611ba4565b34801561088657600080fd5b5061058a6004803603604081101561089d57600080fd5b5080359060200135611bc6565b3480156108b657600080fd5b506105a1611c76565b3480156108cb57600080fd5b5061058a611c7c565b3480156108e057600080fd5b5061058a600480360360408110156108f757600080fd5b5080359060200135611cf4565b34801561091057600080fd5b50610450611da4565b61058a6004803603606081101561092f57600080fd5b506001600160a01b03813581169160208101359091169060400135611db4565b34801561095b57600080fd5b506104bf6004803603608081101561097257600080fd5b810190602081018135600160201b81111561098c57600080fd5b82018360208201111561099e57600080fd5b803590602001918460018302840111600160201b831117156109bf57600080fd5b91908080601f0160208091040260200160405190810160405280939291908181526020018383808284376000920191909152509295949360208101935035915050600160201b811115610a1157600080fd5b820183602082011115610a2357600080fd5b803590602001918460018302840111600160201b83111715610a4457600080fd5b91908080601f0160208091040260200160405190810160405280939291908181526020018383808284376000920191909152509295949360208101935035915050600160201b811115610a9657600080fd5b820183602082011115610aa857600080fd5b803590602001918460018302840111600160201b83111715610ac957600080fd5b91908080601f0160208091040260200160405190810160405280939291908181526020018383808284376000920191909152509295949360208101935035915050600160201b811115610b1b57600080fd5b820183602082011115610b2d57600080fd5b803590602001918460018302840111600160201b83111715610b4e57600080fd5b91908080601f016020809104026020016040519081016040528093929190818152602001838380828437600092019190915250929550611dcf945050505050565b348015610b9b57600080fd5b506105a160048036036020811015610bb257600080fd5b50356001600160a01b0316611f84565b348015610bce57600080fd5b506104bf60048036036020811015610be557600080fd5b5035611f96565b348015610bf857600080fd5b506105a160048036036020811015610c0f57600080fd5b50356001600160a01b031661205d565b348015610c2b57600080fd5b5061058a60048036036020811015610c4257600080fd5b810190602081018135600160201b811115610c5c57600080fd5b820183602082011115610c6e57600080fd5b803590602001918460018302840111600160201b83111715610c8f57600080fd5b509092509050612068565b348015610ca657600080fd5b506104bf60048036036020811015610cbd57600080fd5b50356001600160a01b0316612085565b348015610cd957600080fd5b5061058a61221d565b348015610cee57600080fd5b5061048e60048036036020811015610d0557600080fd5b5035612235565b348015610d1857600080fd5b5061045060048036036020811015610d2f57600080fd5b50356001600160a01b03166122b1565b348015610d4b57600080fd5b506105a160048036036020811015610d6257600080fd5b50356001600160a01b03166122d1565b61058a60048036036040811015610d8857600080fd5b506001600160a01b0381358116916020013516612346565b348015610dac57600080fd5b5061058a6123f7565b348015610dc157600080fd5b5061058a60048036036020811015610dd857600080fd5b5035612452565b348015610deb57600080fd5b506105a1612523565b348015610e0057600080fd5b5061058a60048036036020811015610e1757600080fd5b810190602081018135600160201b811115610e3157600080fd5b820183602082011115610e4357600080fd5b803590602001918460018302840111600160201b83111715610e6457600080fd5b509092509050612529565b348015610e7b57600080fd5b5061058a60048036036040811015610e9257600080fd5b810190602081018135600160201b811115610eac57600080fd5b820183602082011115610ebe57600080fd5b803590602001918460208302840111600160201b83111715610edf57600080fd5b919390929091602081019035600160201b811115610efc57600080fd5b820183602082011115610f0e57600080fd5b803590602001918460208302840111600160201b83111715610f2f57600080fd5b5090925090506125ab565b348015610f4657600080fd5b506105a160048036036020811015610f5d57600080fd5b50356001600160a01b031661260d565b348015610f7957600080fd5b506105a160048036036040811015610f9057600080fd5b506001600160a01b03813581169160200135166126d6565b348015610fb457600080fd5b5061048e61272d565b348015610fc957600080fd5b5061045061273c565b348015610fde57600080fd5b506105a161274d565b348015610ff357600080fd5b506105a1612753565b34801561100857600080fd5b506104bf612759565b34801561101d57600080fd5b506105a16004803603602081101561103457600080fd5b50356001600160a01b03166128e4565b34801561105057600080fd5b506104506004803603604081101561106757600080fd5b50803590602001356001600160a01b0316612954565b34801561108957600080fd5b5061058a600480360360408110156110a057600080fd5b506001600160a01b038135169060200135612975565b3480156110c257600080fd5b5061048e612990565b3480156110d757600080fd5b5061058a600480360360208110156110ee57600080fd5b50356001600160a01b031661299f565b34801561110a57600080fd5b5061058a6004803603604081101561112157600080fd5b506001600160a01b0381351690602001351515612a5c565b34801561114557600080fd5b5061058a612b73565b34801561115a57600080fd5b506105a16004803603602081101561117157600080fd5b50356001600160a01b0316612c32565b61058a6004803603608081101561119757600080fd5b6001600160a01b03823581169260208101359091169160408201359190810190608081016060820135600160201b8111156111d157600080fd5b8201836020820111156111e357600080fd5b803590602001918460018302840111600160201b8311171561120457600080fd5b91908080601f016020809104026020016040519081016040528093929190818152602001838380828437600092019190915250929550612cc4945050505050565b34801561125157600080fd5b5061058a6004803603604081101561126857600080fd5b6001600160a01b038235169190810190604081016020820135600160201b81111561129257600080fd5b8201836020820111156112a457600080fd5b803590602001918460018302840111600160201b831117156112c557600080fd5b509092509050612e67565b3480156112dc57600080fd5b5061058a612f48565b3480156112f157600080fd5b5061058a6004803603602081101561130857600080fd5b50356001600160a01b0316612ff8565b34801561132457600080fd5b506104bf6004803603602081101561133b57600080fd5b50356130e7565b34801561134e57600080fd5b50611357613308565b6040805161ffff9092168252519081900360200190f35b34801561137a57600080fd5b506105a161330d565b34801561138f57600080fd5b50610450600480360360408110156113a657600080fd5b506001600160a01b0381358116916020013516613313565b3480156113ca57600080fd5b5061058a600480360360208110156113e157600080fd5b50356001600160a01b0316613341565b61058a6004803603602081101561140757600080fd5b50356001600160a01b031661335b565b34801561142357600080fd5b5061058a6004803603604081101561143a57600080fd5b810190602081018135600160201b81111561145457600080fd5b82018360208201111561146657600080fd5b803590602001918460208302840111600160201b8311171561148757600080fd5b9193509150356133bc565b6001600160e01b0319811660009081526020819052604090205460ff165b919050565b606f81815481106114c257fe5b6000918252602090912001546001600160a01b0316905081565b60708054604080516020601f60026000196101006001881615020190951694909404938401819004810282018101909252828152606093909290918301828280156115685780601f1061153d57610100808354040283529160200191611568565b820191906000526020600020905b81548152906001019060200180831161154b57829003601f168201915b505050505090505b90565b600061157e8261340b565b92915050565b606754600160a01b900460ff166115da5760408051600160e51b62461bcd02815260206004820152600f60248201526001608a1b6e1313d0d2d7d11154149150d055115102604482015290519081900360640190fd5b806115e58133612954565b806115f557506115f58133613478565b8061160d575061160d61160782612235565b33613313565b6116615760408051600160e51b62461bcd02815260206004820152601a60248201527f4f4e4c595f4b45595f4f574e45525f4f525f415050524f564544000000000000604482015290519081900360640190fd5b336001600160a01b03841614156116b45760408051600160e51b62461bcd02815260206004820152600c6024820152600160a11b6b20a8282927ab22afa9a2a62302604482015290519081900360640190fd5b600082815260736020526040902080546001600160a01b0319166001600160a01b03851690811790915582906116e982612235565b6001600160a01b03167f8c5be1e5ebec7d5bd14f71427d1e84f3dd0314c0f7b2291e5b200ac8c7c3b92560405160405180910390a4505050565b60785481565b60775481565b6068546001600160a01b031681565b606f546060906117985760408051600160e51b62461bcd02815260206004820152601360248201527f4e4f5f4f55545354414e44494e475f4b45595300000000000000000000000000604482015290519081900360640190fd5b606f5482908482029060009082840111156117bb5750606f5481810392506117c0565b508082015b6060836040519080825280602002602001820160405280156117ec578160200160208202803883390190505b5090506000835b8381101561185657606f818154811061180857fe5b9060005260206000200160009054906101000a90046001600160a01b031683838151811061183257fe5b6001600160a01b0390921660209283029190910190910152600191820191016117f3565b5090979650505050505050565b606a5481565b60695481565b600160e11b630a85bd01025b949350505050565b606c5490565b61189161273c565b61189a57600080fd5b606754600160a01b900460ff166118f05760408051600160e51b62461bcd02815260206004820152600f60248201526001608a1b6e1313d0d2d7d11154149150d055115102604482015290519081900360640190fd5b606a805490829055604080518281526020810184905281517f8aa4fa52648a6d15edce8a179c792c86f3719d0cc3c572cf90f91948f0f2cb68929181900390910190a15050565b61194033613499565b565b606754600160a01b900460ff166119985760408051600160e51b62461bcd02815260206004820152600f60248201526001608a1b6e1313d0d2d7d11154149150d055115102604482015290519081900360640190fd5b826119a2816122b1565b6119e95760408051600160e51b62461bcd02815260206004820152600d60248201526001609a1b6c12d15657d393d517d59053125102604482015290519081900360640190fd5b816119f48133612954565b80611a045750611a048133613478565b80611a165750611a1661160782612235565b611a6a5760408051600160e51b62461bcd02815260206004820152601a60248201527f4f4e4c595f4b45595f4f574e45525f4f525f415050524f564544000000000000604482015290519081900360640190fd5b6001600160a01b038416611abd5760408051600160e51b62461bcd02815260206004820152600f6024820152600160881b6e494e56414c49445f4144445245535302604482015290519081900360640190fd5b611ace611ac98661260d565b61350e565b6000611ad986613740565b90506000611ae686613740565b6001810154815491925090611b05578254808355611b0590889061375a565b428111611b29576001808401549083015582548255611b24878761375a565b611b46565b6001830154611b409042830363ffffffff6137e116565b60018301555b42600184015560008355611b59866137fa565b85876001600160a01b0316896001600160a01b03167fddf252ad1be2c89b69c2b068fc378daa952ba7f163c4a11628f55a4df523b3ef60405160405180910390a45050505050505050565b611bac61273c565b611bb557600080fd5b611bc160728383614351565b505050565b611bce61273c565b611bd757600080fd5b80611c1e5760408051600160e51b62461bcd02815260206004820152600c6024820152600160a01b6b494e56414c49445f5241544502604482015290519081900360640190fd5b60775460785460408051928352602083019190915281810184905260608201839052517fa7d13855fe99b8c8b2780f36ff9e06133878b66a664a951b2375fe2296cc00089181900360800190a1607791909155607855565b606c5481565b611c8461273c565b611c8d57600080fd5b6000611c9830613835565b905060008111611ce85760408051600160e51b62461bcd0281526020600482015260106024820152600160801b6f4e4f545f454e4f5547485f46554e445302604482015290519081900360640190fd5b611cf1816138dc565b50565b611cfc61273c565b611d0557600080fd5b80611d4c5760408051600160e51b62461bcd02815260206004820152600c6024820152600160a01b6b494e56414c49445f5241544502604482015290519081900360640190fd5b60755460765460408051928352602083019190915281810184905260608201839052517ff0cc3b8bd450a20cce7720453e064b35cf490baa5d53c7c6ef8b2e1b02898a7d9181900360800190a1607591909155607655565b606754600160a01b900460ff1681565b611bc183838360405180602001604052806000815250612cc4565b606080859050606085905060608590506060859050606081518351855187510101016040519080825280601f01601f191660200182016040528015611e1b576020820181803883390190505b509050806000805b8751811015611e7457878181518110611e3857fe5b602001015160f81c60f81b838380600101945081518110611e5557fe5b60200101906001600160f81b031916908160001a905350600101611e23565b5060005b8651811015611ec957868181518110611e8d57fe5b602001015160f81c60f81b838380600101945081518110611eaa57fe5b60200101906001600160f81b031916908160001a905350600101611e78565b5060005b8551811015611f1e57858181518110611ee257fe5b602001015160f81c60f81b838380600101945081518110611eff57fe5b60200101906001600160f81b031916908160001a905350600101611ecd565b5060005b8451811015611f7357848181518110611f3757fe5b602001015160f81c60f81b838380600101945081518110611f5457fe5b60200101906001600160f81b031916908160001a905350600101611f22565b50909b9a5050505050505050505050565b60796020526000908152604090205481565b60608180611fc05750506040805180820190915260018152600160fc1b60030260208201526114b0565b8260005b8115611fd857600101600a82049150611fc4565b6060816040519080825280601f01601f191660200182016040528015612005576020820181803883390190505b50905060001982015b841561205357600a850660300160f81b8282806001900393508151811061203157fe5b60200101906001600160f81b031916908160001a905350600a8504945061200e565b5095945050505050565b600061157e82613926565b61207061273c565b61207957600080fd5b611bc160708383614351565b604080518082018252601081527f303132333435363738396162636465660000000000000000000000000000000060208201528151602a80825260608281019094526001600160a01b03851692918491602082018180388339019050509050600160fc1b600302816000815181106120f957fe5b60200101906001600160f81b031916908160001a905350600160fb1b600f028160018151811061212557fe5b60200101906001600160f81b031916908160001a90535060005b6014811015612214578260048583600c016020811061215a57fe5b1a60f81b6001600160f81b031916901c60f81c60ff168151811061217a57fe5b602001015160f81c60f81b82826002026002018151811061219757fe5b60200101906001600160f81b031916908160001a905350828482600c01602081106121be57fe5b1a60f81b600f60f81b1660f81c60ff16815181106121d857fe5b602001015160f81c60f81b8282600202600301815181106121f557fe5b60200101906001600160f81b031916908160001a90535060010161213f565b50949350505050565b33600090815260796020526040902080546001019055565b6000818152606e602052604081205482906001600160a01b03166122945760408051600160e51b62461bcd02815260206004820152600b6024820152600160a81b6a4e4f5f535543485f4b455902604482015290519081900360640190fd5b50506000908152606e60205260409020546001600160a01b031690565b6001600160a01b03166000908152606d6020526040902060010154421090565b60006001600160a01b0382166123265760408051600160e51b62461bcd02815260206004820152600f6024820152600160881b6e494e56414c49445f4144445245535302604482015290519081900360640190fd5b61232f826122b1565b61233a57600061233d565b60015b60ff1692915050565b606754600160a01b900460ff1661239c5760408051600160e51b62461bcd02815260206004820152600f60248201526001608a1b6e1313d0d2d7d11154149150d055115102604482015290519081900360640190fd5b806123a6816122b1565b6123ed5760408051600160e51b62461bcd02815260206004820152600d60248201526001609a1b6c12d15657d393d517d59053125102604482015290519081900360640190fd5b611bc18383613a0b565b6123ff61273c565b61240857600080fd5b6034546040516000916001600160a01b0316907f8be0079c531659141344cd1fd0a4f28419497f9722a3daafe3b4186f6b6457e0908390a3603480546001600160a01b0319169055565b61245a61273c565b61246357600080fd5b600081116124bb5760408051600160e51b62461bcd02815260206004820152601160248201527f475245415445525f5448414e5f5a45524f000000000000000000000000000000604482015290519081900360640190fd5b60006124c630613835565b9050818110156125165760408051600160e51b62461bcd0281526020600482015260106024820152600160801b6f4e4f545f454e4f5547485f46554e445302604482015290519081900360640190fd5b61251f826138dc565b5050565b606b5481565b61253161273c565b61253a57600080fd5b61254660718383614351565b507f8868e22e84ebf32da89b2ebcb0ac642816304ea3863b257f240df9098719cb97828260405180806020018281038252848482818152602001925080828437600083820152604051601f909101601f19169092018290039550909350505050a15050565b6125b361273c565b6125bc57600080fd5b60005b83811015612606576125fe8585838181106125d657fe5b905060200201356001600160a01b03168484848181106125f257fe5b90506020020135613cf1565b6001016125bf565b5050505050565b600081612619816122b1565b6126605760408051600160e51b62461bcd02815260206004820152600d60248201526001609a1b6c12d15657d393d517d59053125102604482015290519081900360640190fd5b600061266b84613740565b905060004282600101540390506000606954821061268c5750606a546126ad565b606954606a546126a2908463ffffffff613e0716565b816126a957fe5b0490505b6076546075546126c490839063ffffffff613e0716565b816126cb57fe5b049695505050505050565b6001600160a01b0391821660009081526079602090815260409182902054825130606090811b8285015260348201929092529390941690931b60548301528051808303604801815260689092019052805191012090565b6034546001600160a01b031690565b6034546001600160a01b0316331490565b60755481565b606f5490565b6071546060906002600019610100600184161502019091160461285257606860009054906101000a90046001600160a01b03166001600160a01b03166335a750de6040518163ffffffff1660e01b815260040160006040518083038186803b1580156127c457600080fd5b505afa1580156127d8573d6000803e3d6000fd5b505050506040513d6000823e601f3d908101601f19168201604052602081101561280157600080fd5b810190808051600160201b81111561281857600080fd5b8201602081018481111561282b57600080fd5b8151600160201b81118282018710171561284457600080fd5b509094506115709350505050565b6071805460408051602060026001851615610100026000190190941693909304601f810184900484028201840190925281815292918301828280156128d85780601f106128ad576101008083540402835291602001916128d8565b820191906000526020600020905b8154815290600101906020018083116128bb57829003601f168201915b50505050509050611570565b6000816128f0816122b1565b6129375760408051600160e51b62461bcd02815260206004820152600d60248201526001609a1b6c12d15657d393d517d59053125102604482015290519081900360640190fd5b50506001600160a01b03166000908152606d602052604090205490565b6000918252606e6020526040909120546001600160a01b0391821691161490565b61297d61273c565b61298657600080fd5b61251f8282613cf1565b6067546001600160a01b031681565b6129a761273c565b6129b057600080fd5b806129ba816122b1565b612a015760408051600160e51b62461bcd02815260206004820152600d60248201526001609a1b6c12d15657d393d517d59053125102604482015290519081900360640190fd5b6001600160a01b0382166000908152606d602090815260409182902042600182015580548351908152925190927f59f2fe866dd27a1c2d34115520888c3150365cbc931aab97fa88c4b9ab40b79592908290030190a1505050565b606754600160a01b900460ff16612ab25760408051600160e51b62461bcd02815260206004820152600f60248201526001608a1b6e1313d0d2d7d11154149150d055115102604482015290519081900360640190fd5b6001600160a01b038216331415612b055760408051600160e51b62461bcd02815260206004820152600c6024820152600160a11b6b20a8282927ab22afa9a2a62302604482015290519081900360640190fd5b3360008181526074602090815260408083206001600160a01b03871680855290835292819020805460ff1916861515908117909155815190815290519293927f17307eab39ab6107e8899845ad3d59bd9653f200f220920489ca2b5937696c31929181900390910190a35050565b612b7b61273c565b612b8457600080fd5b606754600160a01b900460ff1615612be65760408051600160e51b62461bcd02815260206004820152600d60248201527f44495341424c455f464952535400000000000000000000000000000000000000604482015290519081900360640190fd5b6040805130318152905133917fa053f2a7eceda47dde76e5939c5adf7b771e665fc84c8ef6feffc290a1eb1feb919081900360200190a2612c2f33612c2a30613835565b613e2e565b33ff5b6001600160a01b0381166000908152606d60205260408120600101548290612ca45760408051600160e51b62461bcd02815260206004820152601360248201527f4841535f4e455645525f4f574e45445f4b455900000000000000000000000000604482015290519081900360640190fd5b50506001600160a01b03166000908152606d602052604090206001015490565b606754600160a01b900460ff16612d1a5760408051600160e51b62461bcd02815260206004820152600f60248201526001608a1b6e1313d0d2d7d11154149150d055115102604482015290519081900360640190fd5b81612d258133612954565b80612d355750612d358133613478565b80612d475750612d4761160782612235565b612d9b5760408051600160e51b62461bcd02815260206004820152601a60248201527f4f4e4c595f4b45595f4f574e45525f4f525f415050524f564544000000000000604482015290519081900360640190fd5b612da483612235565b612dad816122b1565b612df45760408051600160e51b62461bcd02815260206004820152600d60248201526001609a1b6c12d15657d393d517d59053125102604482015290519081900360640190fd5b612dff868686611942565b612e0b86868686614049565b612e5f5760408051600160e51b62461bcd02815260206004820152601d60248201527f4e4f4e5f434f4d504c49414e545f4552433732315f5245434549564552000000604482015290519081900360640190fd5b505050505050565b826001600160a01b0316612ec2612e86612e8186336126d6565b614182565b84848080601f0160208091040260200160405190810160405280939291908181526020018383808284376000920191909152506141d392505050565b6001600160a01b031614612f205760408051600160e51b62461bcd02815260206004820152601160248201527f494e56414c49445f5349474e4154555245000000000000000000000000000000604482015290519081900360640190fd5b6001600160a01b038316600090815260796020526040902080546001019055611bc183613499565b612f5061273c565b612f5957600080fd5b606754600160a01b900460ff16612faf5760408051600160e51b62461bcd02815260206004820152600f60248201526001608a1b6e1313d0d2d7d11154149150d055115102604482015290519081900360640190fd5b6040517f25a311358326fb18c62efc24bc28d3126acee8d2a67fd8b2145b757dc8bd1bc190600090a16067805474ff000000000000000000000000000000000000000019169055565b600154610100900460ff168061301157506130116142c1565b8061301f575060015460ff16155b61305d57604051600160e51b62461bcd02815260040180806020018281038252602e8152602001806143ea602e913960400191505060405180910390fd5b6001805461010061ff00198216811760ff19168317909255603480546001600160a01b0319166001600160a01b0385811691909117918290556040519390920460ff16929116906000907f8be0079c531659141344cd1fd0a4f28419497f9722a3daafe3b4186f6b6457e0908290a3600180549115156101000261ff001990921691909117905550565b6000818152606e602052604090205460609082906001600160a01b03166131495760408051600160e51b62461bcd02815260206004820152600b6024820152600160a81b6a4e4f5f535543485f4b455902604482015290519081900360640190fd5b6072546060906002600019610100600184161502019091160461324257606860009054906101000a90046001600160a01b03166001600160a01b0316637ff94bb26040518163ffffffff1660e01b815260040160006040518083038186803b1580156131b457600080fd5b505afa1580156131c8573d6000803e3d6000fd5b505050506040513d6000823e601f3d908101601f1916820160405260208110156131f157600080fd5b810190808051600160201b81111561320857600080fd5b8201602081018481111561321b57600080fd5b8151600160201b81118282018710171561323457600080fd5b509094506132d09350505050565b6072805460408051602060026001851615610100026000190190941693909304601f810184900484028201840190925281815292918301828280156132c85780601f1061329d576101008083540402835291602001916132c8565b820191906000526020600020905b8154815290600101906020018083116132ab57829003601f168201915b505050505090505b61187b816132dd30612085565b604051806040016040528060018152602001600160f81b602f0281525061330388611f96565b611dcf565b600390565b60765481565b6001600160a01b03918216600090815260746020908152604080832093909416825291909152205460ff1690565b61334961273c565b61335257600080fd5b611cf1816142c7565b606754600160a01b900460ff166133b15760408051600160e51b62461bcd02815260206004820152600f60248201526001608a1b6e1313d0d2d7d11154149150d055115102604482015290519081900360640190fd5b611cf1816000613a0b565b6133c461273c565b6133cd57600080fd5b60005b82811015613405576133fd8484838181106133e757fe5b905060200201356001600160a01b031683613cf1565b6001016133d0565b50505050565b6000818152607360205260408120546001600160a01b03168061157e5760408051600160e51b62461bcd02815260206004820152600d60248201527f4e4f4e455f415050524f56454400000000000000000000000000000000000000604482015290519081900360640190fd5b600091825260736020526040909120546001600160a01b0391821691161490565b60006134a482613740565b905060006134b183613926565b825460408051838152905192935033926001600160a01b03871692917f0a7068a9989857441c039a14a42b67ed71dd1fcfe5a9b17cc87b252e47bce528919081900360200190a44260018301558015611bc157611bc13382613e2e565b8015611cf1576067546001600160a01b031661357757803410156135725760408051600160e51b62461bcd0281526020600482015260106024820152600160801b6f4e4f545f454e4f5547485f46554e445302604482015290519081900360640190fd5b611cf1565b60675460408051600160e01b6370a0823102815230600482015290516001600160a01b039092169160009183916370a0823191602480820192602092909190829003018186803b1580156135ca57600080fd5b505afa1580156135de573d6000803e3d6000fd5b505050506040513d60208110156135f457600080fd5b505160408051600160e01b6323b872dd0281523360048201523060248201526044810186905290519192506001600160a01b038416916323b872dd916064808201926020929091908290030181600087803b15801561365257600080fd5b505af1158015613666573d6000803e3d6000fd5b505050506040513d602081101561367c57600080fd5b505060408051600160e01b6370a08231028152306004820152905182916001600160a01b038516916370a0823191602480820192602092909190829003018186803b1580156136ca57600080fd5b505afa1580156136de573d6000803e3d6000fd5b505050506040513d60208110156136f457600080fd5b505111611bc15760408051600160e51b62461bcd02815260206004820152600f60248201526001608a1b6e1514905394d1915497d1905253115102604482015290519081900360640190fd5b6001600160a01b03166000908152606d6020526040902090565b6000818152606e60205260409020546001600160a01b0383811691161461251f57606f8054600181019091557f39f2babe526038520877fc7c33d81accf578af4a06c5fa6b0d038cae36e127110180546001600160a01b0384166001600160a01b031991821681179092556000838152606e60205260409020805490911690911790555050565b6000828201838110156137f357600080fd5b9392505050565b6000818152607360205260409020546001600160a01b031615611cf157600090815260736020526040902080546001600160a01b0319169055565b6067546000906001600160a01b031661385957506001600160a01b038116316114b0565b60675460408051600160e01b6370a082310281526001600160a01b038581166004830152915191909216916370a08231916024808301926020929190829003018186803b1580156138a957600080fd5b505afa1580156138bd573d6000803e3d6000fd5b505050506040513d60208110156138d357600080fd5b505190506114b0565b6138ed6138e761272d565b82613e2e565b60408051828152905133917f7fcf532c15f0a6db0bd6d0e038bea71d30d808c7d98cb3bf7268a95bf5081b65919081900360200190a250565b600081613932816122b1565b6139795760408051600160e51b62461bcd02815260206004820152600d60248201526001609a1b6c12d15657d393d517d59053125102604482015290519081900360640190fd5b600061398484613740565b9050600042826001015403905060695481106139a457606a5493506139c5565b606954606a546139ba908363ffffffff613e0716565b816139c157fe5b0493505b60006078546139e1607754606a54613e0790919063ffffffff16565b816139e857fe5b049050808511156139fd578085039450613a02565b600094505b50505050919050565b606c54606b5411613a665760408051600160e51b62461bcd02815260206004820152600d60248201527f4c4f434b5f534f4c445f4f555400000000000000000000000000000000000000604482015290519081900360640190fd5b6001600160a01b038216613ab95760408051600160e51b62461bcd02815260206004820152600f6024820152600160881b6e494e56414c49445f4144445245535302604482015290519081900360640190fd5b606a5460685460408051600160e01b630cb175e30281526001600160a01b03868116600483015260248201859052825160009586959094921692630cb175e3926044808301939192829003018186803b158015613b1557600080fd5b505afa158015613b29573d6000803e3d6000fd5b505050506040513d6040811015613b3f57600080fd5b50805160209091015190935091508080841115613b5e57506000613b63565b508281035b613b6c8161350e565b6000613b7787613740565b6001810154815491925090613bac57613b8f82614336565b613b9d88836000015461375a565b60695442016001830155613bc6565b606954613bc090829063ffffffff6137e116565b60018301555b8515613c3c5760685460408051600160e01b6336524663028152600481018990526024810188905290516001600160a01b039092169163365246639160448082019260009290919082900301818387803b158015613c2357600080fd5b505af1158015613c37573d6000803e3d6000fd5b505050505b60685460408051600160e01b63939d9f1f028152600481018690526001600160a01b038a811660248301529151919092169163939d9f1f91604480830192600092919082900301818387803b158015613c9457600080fd5b505af1158015613ca8573d6000803e3d6000fd5b5050606c546040519092506001600160a01b038b1691506000907fddf252ad1be2c89b69c2b068fc378daa952ba7f163c4a11628f55a4df523b3ef908290a45050505050505050565b6001600160a01b038216613d445760408051600160e51b62461bcd02815260206004820152600f6024820152600160881b6e494e56414c49445f4144445245535302604482015290519081900360640190fd5b6000613d4f83613740565b905080600101548211613dac5760408051600160e51b62461bcd02815260206004820152601060248201527f414c52454144595f4f574e535f4b455900000000000000000000000000000000604482015290519081900360640190fd5b613db581614336565b613dc383826000015461375a565b6001810182905580546040516001600160a01b038516906000907fddf252ad1be2c89b69c2b068fc378daa952ba7f163c4a11628f55a4df523b3ef908290a4505050565b600082613e165750600061157e565b82820282848281613e2357fe5b04146137f357600080fd5b801561251f576067546001600160a01b0316613e80576040516001600160a01b0383169082156108fc029083906000818181858888f19350505050158015613e7a573d6000803e3d6000fd5b5061251f565b60675460408051600160e01b6370a082310281526001600160a01b0385811660048301529151919092169160009183916370a08231916024808301926020929190829003018186803b158015613ed557600080fd5b505afa158015613ee9573d6000803e3d6000fd5b505050506040513d6020811015613eff57600080fd5b505160408051600160e01b63a9059cbb0281526001600160a01b0387811660048301526024820187905291519293509084169163a9059cbb916044808201926020929091908290030181600087803b158015613f5a57600080fd5b505af1158015613f6e573d6000803e3d6000fd5b505050506040513d6020811015613f8457600080fd5b505060408051600160e01b6370a082310281526001600160a01b038681166004830152915183928516916370a08231916024808301926020929190829003018186803b158015613fd357600080fd5b505afa158015613fe7573d6000803e3d6000fd5b505050506040513d6020811015613ffd57600080fd5b5051116134055760408051600160e51b62461bcd02815260206004820152600f60248201526001608a1b6e1514905394d1915497d1905253115102604482015290519081900360640190fd5b600061405d846001600160a01b031661434b565b6140695750600161187b565b604051600160e11b630a85bd0102815233600482018181526001600160a01b03888116602485015260448401879052608060648501908152865160848601528651600095928a169463150b7a029490938c938b938b939260a4019060208501908083838e5b838110156140e65781810151838201526020016140ce565b50505050905090810190601f1680156141135780820380516001836020036101000a031916815260200191505b5095505050505050602060405180830381600087803b15801561413557600080fd5b505af1158015614149573d6000803e3d6000fd5b505050506040513d602081101561415f57600080fd5b50516001600160e01b031916600160e11b630a85bd010214915050949350505050565b604080517f19457468657265756d205369676e6564204d6573736167653a0a333200000000602080830191909152603c8083019490945282518083039094018452605c909101909152815191012090565b600081516041146141e65750600061157e565b60208201516040830151606084015160001a7f7fffffffffffffffffffffffffffffff5d576e7357a4501ddfe92f46681b20a082111561422c576000935050505061157e565b8060ff16601b1415801561424457508060ff16601c14155b15614255576000935050505061157e565b6040805160008152602080820180845289905260ff8416828401526060820186905260808201859052915160019260a0808401939192601f1981019281900390910190855afa1580156142ac573d6000803e3d6000fd5b5050604051601f190151979650505050505050565b303b1590565b6001600160a01b0381166142da57600080fd5b6034546040516001600160a01b038084169216907f8be0079c531659141344cd1fd0a4f28419497f9722a3daafe3b4186f6b6457e090600090a3603480546001600160a01b0319166001600160a01b0392909216919091179055565b8054611cf157606c8054600101908190559055565b3b151590565b828054600181600116156101000203166002900490600052602060002090601f016020900481019282601f106143925782800160ff198235161785556143bf565b828001600101855582156143bf579182015b828111156143bf5782358255916020019190600101906143a4565b506143cb9291506143cf565b5090565b61157091905b808211156143cb57600081556001016143d556fe436f6e747261637420696e7374616e63652068617320616c7265616479206265656e20696e697469616c697a6564a165627a7a7230582031474d01281aa90a56dde5554eed5c93cdafcfbf9c58bfb981584096593435520029436f6e747261637420696e7374616e63652068617320616c7265616479206265656e20696e697469616c697a6564",
  "source": "pragma solidity 0.5.7;\n\nimport './interfaces/IERC721.sol';\nimport 'openzeppelin-eth/contracts/ownership/Ownable.sol';\nimport 'openzeppelin-solidity/contracts/introspection/ERC165.sol';\nimport 'openzeppelin-solidity/contracts/token/ERC721/ERC721Holder.sol';\nimport './mixins/MixinApproval.sol';\nimport './mixins/MixinDisableAndDestroy.sol';\nimport './mixins/MixinFunds.sol';\nimport './mixins/MixinGrantKeys.sol';\nimport './mixins/MixinKeys.sol';\nimport './mixins/MixinLockCore.sol';\nimport './mixins/MixinLockMetadata.sol';\nimport './mixins/MixinNoFallback.sol';\nimport './mixins/MixinPurchase.sol';\nimport './mixins/MixinRefunds.sol';\nimport './mixins/MixinTransfer.sol';\n\n\n/**\n * @title The Lock contract\n * @author Julien Genestoux (unlock-protocol.com)\n * Eventually: implement ERC721.\n * @dev ERC165 allows our contract to be queried to determine whether it implements a given interface.\n * Every ERC-721 compliant contract must implement the ERC165 interface.\n * https://eips.ethereum.org/EIPS/eip-721\n */\ncontract PublicLock is\n  IERC721,\n  MixinNoFallback,\n  ERC165,\n  Ownable,\n  ERC721Holder,\n  MixinFunds,\n  MixinDisableAndDestroy,\n  MixinLockCore,\n  MixinKeys,\n  MixinLockMetadata,\n  MixinGrantKeys,\n  MixinPurchase,\n  MixinApproval,\n  MixinTransfer,\n  MixinRefunds\n{\n  constructor(\n    address _owner,\n    uint _expirationDuration,\n    address _tokenAddress,\n    uint _keyPrice,\n    uint _maxNumberOfKeys,\n    string memory _lockName\n  )\n    public\n    MixinFunds(_tokenAddress)\n    MixinLockCore(_expirationDuration, _keyPrice, _maxNumberOfKeys)\n    MixinLockMetadata(_lockName)\n  {\n    // registering the interface for erc721 with ERC165.sol using\n    // the ID specified in the standard: https://eips.ethereum.org/EIPS/eip-721\n    _registerInterface(0x80ac58cd);\n    // We must manually initialize Ownable.sol\n    Ownable.initialize(_owner);\n  }\n\n  // The version number of the current implementation on this network\n  function publicLockVersion(\n  ) external pure\n    returns (uint16)\n  {\n    return 3;\n  }\n}\n",
  "sourcePath": "/Users/julien/repos/unlock/smart-contracts/contracts/PublicLock.sol",
  "compiler": {
    "name": "solc",
    "version": "0.5.7+commit.6da8b019.Emscripten.clang"
  },
  "schemaVersion": "3.0.9",
  "updatedAt": "2019-05-21T02:16:43.430Z",
  "devdoc": {
    "author": "Julien Genestoux (unlock-protocol.com) Eventually: implement ERC721.",
    "details": "ERC165 allows our contract to be queried to determine whether it implements a given interface. Every ERC-721 compliant contract must implement the ERC165 interface. https://eips.ethereum.org/EIPS/eip-721",
    "methods": {
      "balanceOf(address)": {
        "return": "The number of NFTs owned by `_owner`, either 0 or 1."
      },
      "cancelAndRefund()": {
        "details": "Destroys the user's key and sends a refund based on the amount of time remaining."
      },
      "cancelAndRefundFor(address,bytes)": {
        "details": "Cancels a key owned by a different user and sends the funds to the msg.sender.",
        "params": {
          "_keyOwner": "this user's key will be canceled",
          "_signature": "getCancelAndRefundApprovalHash signed by the _keyOwner"
        }
      },
      "destroyLock()": {
        "details": "Used to clean up old lock contracts from the blockchain TODO: add a check to ensure all keys are INVALID!"
      },
      "disableLock()": {
        "details": "Used to disable lock before migrating keys and/or destroying contract"
      },
      "getCancelAndRefundApprovalHash(address,address)": {
        "details": "returns the hash to sign in order to allow another user to cancel on your behalf."
      },
      "getCancelAndRefundValueFor(address)": {
        "details": "Determines how much of a refund a key owner would receive if they issued a cancelAndRefund block.timestamp. Note that due to the time required to mine a tx, the actual refund amount will be lower than what the user reads from this call."
      },
      "getOwnersByPage(uint256,uint256)": {
        "params": {
          "_page": "the page of key owners requested when faceted by page size",
          "_pageSize": "the number of Key Owners requested per page"
        }
      },
      "getTokenIdFor(address)": {
        "return": "The tokenId of the NFT, else revert"
      },
      "getTransferFee(address)": {
        "params": {
          "_owner": "The owner of the key check the transfer fee for."
        }
      },
      "incrementNonce()": {
        "details": "Increments the current nonce for the msg.sender. This can be used to invalidate a previously signed message."
      },
      "initialize(address)": {
        "details": "The Ownable constructor sets the original `owner` of the contract to the sender account."
      },
      "isApprovedForAll(address,address)": {
        "details": "Tells whether an operator is approved by a given owner",
        "params": {
          "_operator": "operator address which you want to query the approval of",
          "_owner": "owner address which you want to query the approval of"
        },
        "return": "bool whether the given operator is approved by the given owner"
      },
      "isOwner()": {
        "return": "true if `msg.sender` is the owner of the contract."
      },
      "keyExpirationTimestampFor(address)": {
        "details": "Returns the key's ExpirationTimestamp field for a given owner.",
        "params": {
          "_owner": "address of the user for whom we search the key"
        }
      },
      "name()": {
        "details": "Gets the token name",
        "return": "string representing the token name"
      },
      "owner()": {
        "return": "the address of the owner."
      },
      "ownerOf(uint256)": {
        "return": "The address of the owner of the NFT, if applicable"
      },
      "partialWithdraw(uint256)": {
        "details": "Called by owner to partially withdraw funds from the lock. TODO: consider allowing anybody to trigger this as long as it goes to owner anyway?"
      },
      "purchaseFor(address)": {
        "details": "Purchase function, public version, with no referrer.",
        "params": {
          "_recipient": "address of the recipient of the purchased key"
        }
      },
      "purchaseForFrom(address,address)": {
        "details": "Purchase function, public version, with referrer.",
        "params": {
          "_recipient": "address of the recipient of the purchased key",
          "_referrer": "address of the user making the referral"
        }
      },
      "renounceOwnership()": {
        "details": "Allows the current owner to relinquish control of the contract."
      },
      "safeTransferFrom(address,address,uint256)": {
        "details": "This works identically to the other function with an extra data parameter, except this function just sets data to ''",
        "params": {
          "_from": "The current owner of the NFT",
          "_to": "The new owner",
          "_tokenId": "The NFT to transfer"
        }
      },
      "safeTransferFrom(address,address,uint256,bytes)": {
        "params": {
          "_data": "Additional data with no specified format, sent in call to `_to`",
          "_from": "The current owner of the NFT",
          "_to": "The new owner",
          "_tokenId": "The NFT to transfer"
        }
      },
      "setApprovalForAll(address,bool)": {
        "details": "Sets or unsets the approval of a given operator An operator is allowed to transfer all tokens of the sender on their behalf",
        "params": {
          "_approved": "representing the status of the approval to be set",
          "_to": "operator address to set the approval"
        }
      },
      "supportsInterface(bytes4)": {
        "details": "implement supportsInterface(bytes4) using a lookup table"
      },
      "symbol()": {
        "details": "Gets the token symbol",
        "return": "string representing the token name"
      },
      "tokenURI(uint256)": {
        "details": "Throws if `_tokenId` is not a valid NFT. URIs are defined in RFC 3986. The URI may point to a JSON file that conforms to the \"ERC721 Metadata JSON Schema\". https://github.com/ethereum/EIPs/blob/master/EIPS/eip-721.md"
      },
      "transferOwnership(address)": {
        "details": "Allows the current owner to transfer control of the contract to a newOwner.",
        "params": {
          "newOwner": "The address to transfer ownership to."
        }
      },
      "withdraw()": {
        "details": "Called by owner to withdraw all funds from the lock. TODO: consider allowing anybody to trigger this as long as it goes to owner anyway?"
      }
    },
    "title": "The Lock contract"
  },
  "userdoc": {
    "methods": {
      "approve(address,uint256)": {
        "notice": "This approves _approved to get ownership of _tokenId. Note: that since this is used for both purchase and transfer approvals the approved token may not exist."
      },
      "balanceOf(address)": {
        "notice": "In the specific case of a Lock, each owner can own only at most 1 key."
      },
      "expireKeyFor(address)": {
        "notice": "A function which lets the owner of the lock expire a users' key."
      },
      "getApproved(uint256)": {
        "notice": "external version Will return the approved recipient for a key, if any."
      },
      "getHasValidKey(address)": {
        "notice": "Checks if the user has a non-expired key."
      },
      "getOwnersByPage(uint256,uint256)": {
        "notice": "A function which returns a subset of the keys for this Lock as an array"
      },
      "getTokenIdFor(address)": {
        "notice": "Find the tokenId for a given user"
      },
      "getTransferFee(address)": {
        "notice": "Determines how much of a fee a key owner would need to pay in order to transfer the key to another account.  This is pro-rated so the fee goes down overtime."
      },
      "grantKey(address,uint256)": {
        "notice": "Allows the Lock owner to give a user a key with no charge."
      },
      "grantKeys(address[],uint256)": {
        "notice": "Allows the Lock owner to give a collection of users a key with no charge. All keys granted have the same expiration date."
      },
      "grantKeys(address[],uint256[])": {
        "notice": "Allows the Lock owner to give a collection of users a key with no charge. Each key may be assigned a different expiration date."
      },
      "isKeyOwner(uint256,address)": {
        "notice": "Checks if the given address owns the given tokenId."
      },
      "numberOfOwners()": {
        "notice": "Public function which returns the total number of unique owners (both expired and valid).  This may be larger than totalSupply."
      },
      "ownerOf(uint256)": {
        "notice": "ERC721: Find the owner of an NFT"
      },
      "renounceOwnership()": {
        "notice": "Renouncing to ownership will leave the contract without an owner. It will not be possible to call the functions with the `onlyOwner` modifier anymore."
      },
      "safeTransferFrom(address,address,uint256)": {
        "notice": "Transfers the ownership of an NFT from one address to another address"
      },
      "safeTransferFrom(address,address,uint256,bytes)": {
        "notice": "Transfers the ownership of an NFT from one address to another address. When transfer is complete, this functions checks if `_to` is a smart contract (code size > 0). If so, it calls `onERC721Received` on `_to` and throws if the return value is not `bytes4(keccak256('onERC721Received(address,address,uint,bytes)'))`."
      },
      "setBaseTokenURI(string)": {
        "notice": "Allows the Lock owner to update the baseTokenURI for this Lock."
      },
      "tokenURI(uint256)": {
        "notice": "A distinct Uniform Resource Identifier (URI) for a given asset."
      },
      "totalSupply()": {
        "notice": "Public function which returns the total number of unique keys sold (both expired and valid)"
      },
      "transferFrom(address,address,uint256)": {
        "notice": "This is payable because at some point we want to allow the LOCK to capture a fee on 2ndary market transactions..."
      },
      "updateKeyPrice(uint256)": {
        "notice": "A function which lets the owner of the lock to change the price for future purchases."
      },
      "updateLockName(string)": {
        "notice": "Allows the Lock owner to assign a descriptive name for this Lock."
      },
      "updateLockSymbol(string)": {
        "notice": "Allows the Lock owner to assign a Symbol for this Lock."
      },
      "updateRefundPenalty(uint256,uint256)": {
        "notice": "Allow the owner to change the refund penalty."
      },
      "updateTransferFee(uint256,uint256)": {
        "notice": "Allow the Lock owner to change the transfer fee."
      }
    }
  }
}