{
  "contractName": "PublicLock",
  "abi": [
    {
      "anonymous": false,
      "inputs": [
        {
          "indexed": true,
          "internalType": "address",
          "name": "owner",
          "type": "address"
        },
        {
          "indexed": true,
          "internalType": "address",
          "name": "approved",
          "type": "address"
        },
        {
          "indexed": true,
          "internalType": "uint256",
          "name": "tokenId",
          "type": "uint256"
        }
      ],
      "name": "Approval",
      "type": "event"
    },
    {
      "anonymous": false,
      "inputs": [
        {
          "indexed": true,
          "internalType": "address",
          "name": "owner",
          "type": "address"
        },
        {
          "indexed": true,
          "internalType": "address",
          "name": "operator",
          "type": "address"
        },
        {
          "indexed": false,
          "internalType": "bool",
          "name": "approved",
          "type": "bool"
        }
      ],
      "name": "ApprovalForAll",
      "type": "event"
    },
    {
      "anonymous": false,
      "inputs": [
        {
          "indexed": true,
          "internalType": "uint256",
          "name": "tokenId",
          "type": "uint256"
        },
        {
          "indexed": true,
          "internalType": "address",
          "name": "owner",
          "type": "address"
        },
        {
          "indexed": true,
          "internalType": "address",
          "name": "sendTo",
          "type": "address"
        },
        {
          "indexed": false,
          "internalType": "uint256",
          "name": "refund",
          "type": "uint256"
        }
      ],
      "name": "CancelKey",
      "type": "event"
    },
    {
      "anonymous": false,
      "inputs": [
        {
          "indexed": false,
          "internalType": "uint256",
          "name": "balance",
          "type": "uint256"
        },
        {
          "indexed": true,
          "internalType": "address",
          "name": "owner",
          "type": "address"
        }
      ],
      "name": "Destroy",
      "type": "event"
    },
    {
      "anonymous": false,
      "inputs": [],
      "name": "Disable",
      "type": "event"
    },
    {
      "anonymous": false,
      "inputs": [
        {
          "indexed": true,
          "internalType": "uint256",
          "name": "tokenId",
          "type": "uint256"
        }
      ],
      "name": "ExpireKey",
      "type": "event"
    },
    {
      "anonymous": false,
      "inputs": [
        {
          "indexed": true,
          "internalType": "address",
          "name": "account",
          "type": "address"
        }
      ],
      "name": "LockManagerAdded",
      "type": "event"
    },
    {
      "anonymous": false,
      "inputs": [
        {
          "indexed": true,
          "internalType": "address",
          "name": "account",
          "type": "address"
        }
      ],
      "name": "LockManagerRemoved",
      "type": "event"
    },
    {
      "anonymous": false,
      "inputs": [
        {
          "indexed": false,
          "internalType": "string",
          "name": "symbol",
          "type": "string"
        }
      ],
      "name": "NewLockSymbol",
      "type": "event"
    },
    {
      "anonymous": false,
      "inputs": [
        {
          "indexed": true,
          "internalType": "address",
          "name": "keyOwner",
          "type": "address"
        },
        {
          "indexed": false,
          "internalType": "uint256",
          "name": "nextAvailableNonce",
          "type": "uint256"
        }
      ],
      "name": "NonceChanged",
      "type": "event"
    },
    {
      "anonymous": false,
      "inputs": [
        {
          "indexed": true,
          "internalType": "address",
          "name": "previousOwner",
          "type": "address"
        },
        {
          "indexed": true,
          "internalType": "address",
          "name": "newOwner",
          "type": "address"
        }
      ],
      "name": "OwnershipTransferred",
      "type": "event"
    },
    {
      "anonymous": false,
      "inputs": [
        {
          "indexed": false,
          "internalType": "uint256",
          "name": "oldKeyPrice",
          "type": "uint256"
        },
        {
          "indexed": false,
          "internalType": "uint256",
          "name": "keyPrice",
          "type": "uint256"
        },
        {
          "indexed": false,
          "internalType": "address",
          "name": "oldTokenAddress",
          "type": "address"
        },
        {
          "indexed": false,
          "internalType": "address",
          "name": "tokenAddress",
          "type": "address"
        }
      ],
      "name": "PricingChanged",
      "type": "event"
    },
    {
      "anonymous": false,
      "inputs": [
        {
          "indexed": false,
          "internalType": "uint256",
          "name": "freeTrialLength",
          "type": "uint256"
        },
        {
          "indexed": false,
          "internalType": "uint256",
          "name": "refundPenaltyBasisPoints",
          "type": "uint256"
        }
      ],
      "name": "RefundPenaltyChanged",
      "type": "event"
    },
    {
      "anonymous": false,
      "inputs": [
        {
          "indexed": true,
          "internalType": "uint256",
          "name": "_tokenId",
          "type": "uint256"
        },
        {
          "indexed": false,
          "internalType": "uint256",
          "name": "_amount",
          "type": "uint256"
        },
        {
          "indexed": false,
          "internalType": "bool",
          "name": "_timeAdded",
          "type": "bool"
        }
      ],
      "name": "TimestampChanged",
      "type": "event"
    },
    {
      "anonymous": false,
      "inputs": [
        {
          "indexed": true,
          "internalType": "address",
          "name": "from",
          "type": "address"
        },
        {
          "indexed": true,
          "internalType": "address",
          "name": "to",
          "type": "address"
        },
        {
          "indexed": true,
          "internalType": "uint256",
          "name": "tokenId",
          "type": "uint256"
        }
      ],
      "name": "Transfer",
      "type": "event"
    },
    {
      "anonymous": false,
      "inputs": [
        {
          "indexed": false,
          "internalType": "uint256",
          "name": "transferFeeBasisPoints",
          "type": "uint256"
        }
      ],
      "name": "TransferFeeChanged",
      "type": "event"
    },
    {
      "anonymous": false,
      "inputs": [
        {
          "indexed": true,
          "internalType": "address",
          "name": "sender",
          "type": "address"
        },
        {
          "indexed": true,
          "internalType": "address",
          "name": "tokenAddress",
          "type": "address"
        },
        {
          "indexed": true,
          "internalType": "address",
          "name": "beneficiary",
          "type": "address"
        },
        {
          "indexed": false,
          "internalType": "uint256",
          "name": "amount",
          "type": "uint256"
        }
      ],
      "name": "Withdrawal",
      "type": "event"
    },
    {
      "constant": true,
      "inputs": [],
      "name": "BASIS_POINTS_DEN",
      "outputs": [
        {
          "internalType": "uint256",
          "name": "",
          "type": "uint256"
        }
      ],
      "payable": false,
      "stateMutability": "view",
      "type": "function"
    },
    {
      "constant": true,
      "inputs": [],
      "name": "CANCEL_TYPEHASH",
      "outputs": [
        {
          "internalType": "bytes32",
          "name": "",
          "type": "bytes32"
        }
      ],
      "payable": false,
      "stateMutability": "view",
      "type": "function"
    },
    {
      "constant": false,
      "inputs": [
        {
          "internalType": "address",
          "name": "account",
          "type": "address"
        }
      ],
      "name": "addLockManager",
      "outputs": [],
      "payable": false,
      "stateMutability": "nonpayable",
      "type": "function"
    },
    {
      "constant": false,
      "inputs": [
        {
          "internalType": "address",
          "name": "_approved",
          "type": "address"
        },
        {
          "internalType": "uint256",
          "name": "_tokenId",
          "type": "uint256"
        }
      ],
      "name": "approve",
      "outputs": [],
      "payable": false,
      "stateMutability": "nonpayable",
      "type": "function"
    },
    {
      "constant": true,
      "inputs": [
        {
          "internalType": "address",
          "name": "_owner",
          "type": "address"
        }
      ],
      "name": "balanceOf",
      "outputs": [
        {
          "internalType": "uint256",
          "name": "",
          "type": "uint256"
        }
      ],
      "payable": false,
      "stateMutability": "view",
      "type": "function"
    },
    {
      "constant": true,
      "inputs": [],
      "name": "beneficiary",
      "outputs": [
        {
          "internalType": "address",
          "name": "",
          "type": "address"
        }
      ],
      "payable": false,
      "stateMutability": "view",
      "type": "function"
    },
    {
      "constant": false,
      "inputs": [],
      "name": "cancelAndRefund",
      "outputs": [],
      "payable": false,
      "stateMutability": "nonpayable",
      "type": "function"
    },
    {
      "constant": false,
      "inputs": [
        {
          "internalType": "address",
          "name": "_keyOwner",
          "type": "address"
        },
        {
          "internalType": "uint8",
          "name": "_v",
          "type": "uint8"
        },
        {
          "internalType": "bytes32",
          "name": "_r",
          "type": "bytes32"
        },
        {
          "internalType": "bytes32",
          "name": "_s",
          "type": "bytes32"
        }
      ],
      "name": "cancelAndRefundFor",
      "outputs": [],
      "payable": false,
      "stateMutability": "nonpayable",
      "type": "function"
    },
    {
      "constant": false,
      "inputs": [],
      "name": "destroyLock",
      "outputs": [],
      "payable": false,
      "stateMutability": "nonpayable",
      "type": "function"
    },
    {
      "constant": false,
      "inputs": [],
      "name": "disableLock",
      "outputs": [],
      "payable": false,
      "stateMutability": "nonpayable",
      "type": "function"
    },
    {
      "constant": true,
      "inputs": [],
      "name": "erc1820",
      "outputs": [
        {
          "internalType": "contract IERC1820Registry",
          "name": "",
          "type": "address"
        }
      ],
      "payable": false,
      "stateMutability": "view",
      "type": "function"
    },
    {
      "constant": true,
      "inputs": [],
      "name": "expirationDuration",
      "outputs": [
        {
          "internalType": "uint256",
          "name": "",
          "type": "uint256"
        }
      ],
      "payable": false,
      "stateMutability": "view",
      "type": "function"
    },
    {
      "constant": false,
      "inputs": [
        {
          "internalType": "address",
          "name": "_owner",
          "type": "address"
        }
      ],
      "name": "expireKeyFor",
      "outputs": [],
      "payable": false,
      "stateMutability": "nonpayable",
      "type": "function"
    },
    {
      "constant": true,
      "inputs": [],
      "name": "freeTrialLength",
      "outputs": [
        {
          "internalType": "uint256",
          "name": "",
          "type": "uint256"
        }
      ],
      "payable": false,
      "stateMutability": "view",
      "type": "function"
    },
    {
      "constant": false,
      "inputs": [
        {
          "internalType": "address",
          "name": "_keyOwner",
          "type": "address"
        },
        {
          "internalType": "uint256",
          "name": "amount",
          "type": "uint256"
        }
      ],
      "name": "fullRefund",
      "outputs": [],
      "payable": false,
      "stateMutability": "nonpayable",
      "type": "function"
    },
    {
      "constant": true,
      "inputs": [
        {
          "internalType": "uint256",
          "name": "_tokenId",
          "type": "uint256"
        }
      ],
      "name": "getApproved",
      "outputs": [
        {
          "internalType": "address",
          "name": "",
          "type": "address"
        }
      ],
      "payable": false,
      "stateMutability": "view",
      "type": "function"
    },
    {
      "constant": true,
      "inputs": [
        {
          "internalType": "address",
          "name": "_tokenAddress",
          "type": "address"
        },
        {
          "internalType": "address",
          "name": "_account",
          "type": "address"
        }
      ],
      "name": "getBalance",
      "outputs": [
        {
          "internalType": "uint256",
          "name": "",
          "type": "uint256"
        }
      ],
      "payable": false,
      "stateMutability": "view",
      "type": "function"
    },
    {
      "constant": true,
      "inputs": [
        {
          "internalType": "address",
          "name": "_keyOwner",
          "type": "address"
        },
        {
          "internalType": "address",
          "name": "_txSender",
          "type": "address"
        }
      ],
      "name": "getCancelAndRefundApprovalHash",
      "outputs": [
        {
          "internalType": "bytes32",
          "name": "approvalHash",
          "type": "bytes32"
        }
      ],
      "payable": false,
      "stateMutability": "view",
      "type": "function"
    },
    {
      "constant": true,
      "inputs": [
        {
          "internalType": "address",
          "name": "_owner",
          "type": "address"
        }
      ],
      "name": "getCancelAndRefundValueFor",
      "outputs": [
        {
          "internalType": "uint256",
          "name": "refund",
          "type": "uint256"
        }
      ],
      "payable": false,
      "stateMutability": "view",
      "type": "function"
    },
    {
      "constant": true,
      "inputs": [
        {
          "internalType": "address",
          "name": "_owner",
          "type": "address"
        }
      ],
      "name": "getHasValidKey",
      "outputs": [
        {
          "internalType": "bool",
          "name": "",
          "type": "bool"
        }
      ],
      "payable": false,
      "stateMutability": "view",
      "type": "function"
    },
    {
      "constant": true,
      "inputs": [
        {
          "internalType": "uint256",
          "name": "_page",
          "type": "uint256"
        },
        {
          "internalType": "uint256",
          "name": "_pageSize",
          "type": "uint256"
        }
      ],
      "name": "getOwnersByPage",
      "outputs": [
        {
          "internalType": "address[]",
          "name": "",
          "type": "address[]"
        }
      ],
      "payable": false,
      "stateMutability": "view",
      "type": "function"
    },
    {
      "constant": true,
      "inputs": [
        {
          "internalType": "address",
          "name": "_account",
          "type": "address"
        }
      ],
      "name": "getTokenIdFor",
      "outputs": [
        {
          "internalType": "uint256",
          "name": "",
          "type": "uint256"
        }
      ],
      "payable": false,
      "stateMutability": "view",
      "type": "function"
    },
    {
      "constant": true,
      "inputs": [
        {
          "internalType": "address",
          "name": "_owner",
          "type": "address"
        },
        {
          "internalType": "uint256",
          "name": "_time",
          "type": "uint256"
        }
      ],
      "name": "getTransferFee",
      "outputs": [
        {
          "internalType": "uint256",
          "name": "",
          "type": "uint256"
        }
      ],
      "payable": false,
      "stateMutability": "view",
      "type": "function"
    },
    {
      "constant": false,
      "inputs": [
        {
          "internalType": "address[]",
          "name": "_recipients",
          "type": "address[]"
        },
        {
          "internalType": "uint256[]",
          "name": "_expirationTimestamps",
          "type": "uint256[]"
        }
      ],
      "name": "grantKeys",
      "outputs": [],
      "payable": false,
      "stateMutability": "nonpayable",
      "type": "function"
    },
    {
      "constant": false,
      "inputs": [
        {
          "internalType": "uint256",
          "name": "_nextAvailableNonce",
          "type": "uint256"
        }
      ],
      "name": "invalidateOffchainApproval",
      "outputs": [],
      "payable": false,
      "stateMutability": "nonpayable",
      "type": "function"
    },
    {
      "constant": true,
      "inputs": [],
      "name": "isAlive",
      "outputs": [
        {
          "internalType": "bool",
          "name": "",
          "type": "bool"
        }
      ],
      "payable": false,
      "stateMutability": "view",
      "type": "function"
    },
    {
      "constant": true,
      "inputs": [
        {
          "internalType": "address",
          "name": "_owner",
          "type": "address"
        },
        {
          "internalType": "address",
          "name": "_operator",
          "type": "address"
        }
      ],
      "name": "isApprovedForAll",
      "outputs": [
        {
          "internalType": "bool",
          "name": "",
          "type": "bool"
        }
      ],
      "payable": false,
      "stateMutability": "view",
      "type": "function"
    },
    {
      "constant": true,
      "inputs": [
        {
          "internalType": "uint256",
          "name": "_tokenId",
          "type": "uint256"
        },
        {
          "internalType": "address",
          "name": "_owner",
          "type": "address"
        }
      ],
      "name": "isKeyOwner",
      "outputs": [
        {
          "internalType": "bool",
          "name": "",
          "type": "bool"
        }
      ],
      "payable": false,
      "stateMutability": "view",
      "type": "function"
    },
    {
      "constant": true,
      "inputs": [
        {
          "internalType": "address",
          "name": "account",
          "type": "address"
        }
      ],
      "name": "isLockManager",
      "outputs": [
        {
          "internalType": "bool",
          "name": "",
          "type": "bool"
        }
      ],
      "payable": false,
      "stateMutability": "view",
      "type": "function"
    },
    {
      "constant": true,
      "inputs": [],
      "name": "isOwner",
      "outputs": [
        {
          "internalType": "bool",
          "name": "",
          "type": "bool"
        }
      ],
      "payable": false,
      "stateMutability": "view",
      "type": "function"
    },
    {
      "constant": true,
      "inputs": [],
      "name": "keyCancelInterfaceId",
      "outputs": [
        {
          "internalType": "bytes32",
          "name": "",
          "type": "bytes32"
        }
      ],
      "payable": false,
      "stateMutability": "view",
      "type": "function"
    },
    {
      "constant": true,
      "inputs": [
        {
          "internalType": "address",
          "name": "_owner",
          "type": "address"
        }
      ],
      "name": "keyExpirationTimestampFor",
      "outputs": [
        {
          "internalType": "uint256",
          "name": "timestamp",
          "type": "uint256"
        }
      ],
      "payable": false,
      "stateMutability": "view",
      "type": "function"
    },
    {
      "constant": true,
      "inputs": [
        {
          "internalType": "address",
          "name": "",
          "type": "address"
        }
      ],
      "name": "keyOwnerToNonce",
      "outputs": [
        {
          "internalType": "uint256",
          "name": "",
          "type": "uint256"
        }
      ],
      "payable": false,
      "stateMutability": "view",
      "type": "function"
    },
    {
      "constant": true,
      "inputs": [],
      "name": "keyPrice",
      "outputs": [
        {
          "internalType": "uint256",
          "name": "",
          "type": "uint256"
        }
      ],
      "payable": false,
      "stateMutability": "view",
      "type": "function"
    },
    {
      "constant": true,
      "inputs": [],
      "name": "keySoldInterfaceId",
      "outputs": [
        {
          "internalType": "bytes32",
          "name": "",
          "type": "bytes32"
        }
      ],
      "payable": false,
      "stateMutability": "view",
      "type": "function"
    },
    {
      "constant": true,
      "inputs": [],
      "name": "maxNumberOfKeys",
      "outputs": [
        {
          "internalType": "uint256",
          "name": "",
          "type": "uint256"
        }
      ],
      "payable": false,
      "stateMutability": "view",
      "type": "function"
    },
    {
      "constant": true,
      "inputs": [],
      "name": "name",
      "outputs": [
        {
          "internalType": "string",
          "name": "",
          "type": "string"
        }
      ],
      "payable": false,
      "stateMutability": "view",
      "type": "function"
    },
    {
      "constant": true,
      "inputs": [],
      "name": "numberOfOwners",
      "outputs": [
        {
          "internalType": "uint256",
          "name": "",
          "type": "uint256"
        }
      ],
      "payable": false,
      "stateMutability": "view",
      "type": "function"
    },
    {
      "constant": true,
      "inputs": [],
      "name": "owner",
      "outputs": [
        {
          "internalType": "address",
          "name": "",
          "type": "address"
        }
      ],
      "payable": false,
      "stateMutability": "view",
      "type": "function"
    },
    {
      "constant": true,
      "inputs": [
        {
          "internalType": "uint256",
          "name": "_tokenId",
          "type": "uint256"
        }
      ],
      "name": "ownerOf",
      "outputs": [
        {
          "internalType": "address",
          "name": "",
          "type": "address"
        }
      ],
      "payable": false,
      "stateMutability": "view",
      "type": "function"
    },
    {
      "constant": true,
      "inputs": [
        {
          "internalType": "uint256",
          "name": "",
          "type": "uint256"
        }
      ],
      "name": "owners",
      "outputs": [
        {
          "internalType": "address",
          "name": "",
          "type": "address"
        }
      ],
      "payable": false,
      "stateMutability": "view",
      "type": "function"
    },
    {
      "constant": true,
      "inputs": [],
      "name": "publicLockVersion",
      "outputs": [
        {
          "internalType": "uint256",
          "name": "",
          "type": "uint256"
        }
      ],
      "payable": false,
      "stateMutability": "pure",
      "type": "function"
    },
    {
      "constant": false,
      "inputs": [
        {
          "internalType": "uint256",
          "name": "_value",
          "type": "uint256"
        },
        {
          "internalType": "address",
          "name": "_recipient",
          "type": "address"
        },
        {
          "internalType": "address",
          "name": "_referrer",
          "type": "address"
        },
        {
          "internalType": "bytes",
          "name": "_data",
          "type": "bytes"
        }
      ],
      "name": "purchase",
      "outputs": [],
      "payable": true,
      "stateMutability": "payable",
      "type": "function"
    },
    {
      "constant": true,
      "inputs": [],
      "name": "refundPenaltyBasisPoints",
      "outputs": [
        {
          "internalType": "uint256",
          "name": "",
          "type": "uint256"
        }
      ],
      "payable": false,
      "stateMutability": "view",
      "type": "function"
    },
    {
      "constant": false,
      "inputs": [],
      "name": "renounceLockManager",
      "outputs": [],
      "payable": false,
      "stateMutability": "nonpayable",
      "type": "function"
    },
    {
      "constant": false,
      "inputs": [],
      "name": "renounceOwnership",
      "outputs": [],
      "payable": false,
      "stateMutability": "nonpayable",
      "type": "function"
    },
    {
      "constant": false,
      "inputs": [
        {
          "internalType": "address",
          "name": "_from",
          "type": "address"
        },
        {
          "internalType": "address",
          "name": "_to",
          "type": "address"
        },
        {
          "internalType": "uint256",
          "name": "_tokenId",
          "type": "uint256"
        }
      ],
      "name": "safeTransferFrom",
      "outputs": [],
      "payable": false,
      "stateMutability": "nonpayable",
      "type": "function"
    },
    {
      "constant": false,
      "inputs": [
        {
          "internalType": "address",
          "name": "_from",
          "type": "address"
        },
        {
          "internalType": "address",
          "name": "_to",
          "type": "address"
        },
        {
          "internalType": "uint256",
          "name": "_tokenId",
          "type": "uint256"
        },
        {
          "internalType": "bytes",
          "name": "_data",
          "type": "bytes"
        }
      ],
      "name": "safeTransferFrom",
      "outputs": [],
      "payable": false,
      "stateMutability": "nonpayable",
      "type": "function"
    },
    {
      "constant": false,
      "inputs": [
        {
          "internalType": "address",
          "name": "_to",
          "type": "address"
        },
        {
          "internalType": "bool",
          "name": "_approved",
          "type": "bool"
        }
      ],
      "name": "setApprovalForAll",
      "outputs": [],
      "payable": false,
      "stateMutability": "nonpayable",
      "type": "function"
    },
    {
      "constant": false,
      "inputs": [
        {
          "internalType": "string",
          "name": "_baseTokenURI",
          "type": "string"
        }
      ],
      "name": "setBaseTokenURI",
      "outputs": [],
      "payable": false,
      "stateMutability": "nonpayable",
      "type": "function"
    },
    {
      "constant": false,
      "inputs": [
        {
          "internalType": "address",
          "name": "_to",
          "type": "address"
        },
        {
          "internalType": "uint256",
          "name": "_tokenId",
          "type": "uint256"
        },
        {
          "internalType": "uint256",
          "name": "_timeShared",
          "type": "uint256"
        }
      ],
      "name": "shareKey",
      "outputs": [],
      "payable": false,
      "stateMutability": "nonpayable",
      "type": "function"
    },
    {
      "constant": true,
      "inputs": [
        {
          "internalType": "bytes4",
          "name": "interfaceId",
          "type": "bytes4"
        }
      ],
      "name": "supportsInterface",
      "outputs": [
        {
          "internalType": "bool",
          "name": "",
          "type": "bool"
        }
      ],
      "payable": false,
      "stateMutability": "view",
      "type": "function"
    },
    {
      "constant": true,
      "inputs": [],
      "name": "symbol",
      "outputs": [
        {
          "internalType": "string",
          "name": "",
          "type": "string"
        }
      ],
      "payable": false,
      "stateMutability": "view",
      "type": "function"
    },
    {
      "constant": true,
      "inputs": [],
      "name": "tokenAddress",
      "outputs": [
        {
          "internalType": "address",
          "name": "",
          "type": "address"
        }
      ],
      "payable": false,
      "stateMutability": "view",
      "type": "function"
    },
    {
      "constant": true,
      "inputs": [
        {
          "internalType": "uint256",
          "name": "_index",
          "type": "uint256"
        }
      ],
      "name": "tokenByIndex",
      "outputs": [
        {
          "internalType": "uint256",
          "name": "",
          "type": "uint256"
        }
      ],
      "payable": false,
      "stateMutability": "view",
      "type": "function"
    },
    {
      "constant": true,
      "inputs": [
        {
          "internalType": "address",
          "name": "_owner",
          "type": "address"
        },
        {
          "internalType": "uint256",
          "name": "_index",
          "type": "uint256"
        }
      ],
      "name": "tokenOfOwnerByIndex",
      "outputs": [
        {
          "internalType": "uint256",
          "name": "",
          "type": "uint256"
        }
      ],
      "payable": false,
      "stateMutability": "view",
      "type": "function"
    },
    {
      "constant": true,
      "inputs": [
        {
          "internalType": "uint256",
          "name": "_tokenId",
          "type": "uint256"
        }
      ],
      "name": "tokenURI",
      "outputs": [
        {
          "internalType": "string",
          "name": "",
          "type": "string"
        }
      ],
      "payable": false,
      "stateMutability": "view",
      "type": "function"
    },
    {
      "constant": true,
      "inputs": [],
      "name": "totalSupply",
      "outputs": [
        {
          "internalType": "uint256",
          "name": "",
          "type": "uint256"
        }
      ],
      "payable": false,
      "stateMutability": "view",
      "type": "function"
    },
    {
      "constant": true,
      "inputs": [],
      "name": "transferFeeBasisPoints",
      "outputs": [
        {
          "internalType": "uint256",
          "name": "",
          "type": "uint256"
        }
      ],
      "payable": false,
      "stateMutability": "view",
      "type": "function"
    },
    {
      "constant": false,
      "inputs": [
        {
          "internalType": "address",
          "name": "_from",
          "type": "address"
        },
        {
          "internalType": "address",
          "name": "_recipient",
          "type": "address"
        },
        {
          "internalType": "uint256",
          "name": "_tokenId",
          "type": "uint256"
        }
      ],
      "name": "transferFrom",
      "outputs": [],
      "payable": false,
      "stateMutability": "nonpayable",
      "type": "function"
    },
    {
      "constant": false,
      "inputs": [
        {
          "internalType": "address",
          "name": "newOwner",
          "type": "address"
        }
      ],
      "name": "transferOwnership",
      "outputs": [],
      "payable": false,
      "stateMutability": "nonpayable",
      "type": "function"
    },
    {
      "constant": true,
      "inputs": [],
      "name": "unlockProtocol",
      "outputs": [
        {
          "internalType": "contract IUnlock",
          "name": "",
          "type": "address"
        }
      ],
      "payable": false,
      "stateMutability": "view",
      "type": "function"
    },
    {
      "constant": false,
      "inputs": [
        {
          "internalType": "address",
          "name": "_beneficiary",
          "type": "address"
        }
      ],
      "name": "updateBeneficiary",
      "outputs": [],
      "payable": false,
      "stateMutability": "nonpayable",
      "type": "function"
    },
    {
      "constant": false,
      "inputs": [
        {
          "internalType": "uint256",
          "name": "_keyPrice",
          "type": "uint256"
        },
        {
          "internalType": "address",
          "name": "_tokenAddress",
          "type": "address"
        }
      ],
      "name": "updateKeyPricing",
      "outputs": [],
      "payable": false,
      "stateMutability": "nonpayable",
      "type": "function"
    },
    {
      "constant": false,
      "inputs": [
        {
          "internalType": "string",
          "name": "_lockName",
          "type": "string"
        }
      ],
      "name": "updateLockName",
      "outputs": [],
      "payable": false,
      "stateMutability": "nonpayable",
      "type": "function"
    },
    {
      "constant": false,
      "inputs": [
        {
          "internalType": "string",
          "name": "_lockSymbol",
          "type": "string"
        }
      ],
      "name": "updateLockSymbol",
      "outputs": [],
      "payable": false,
      "stateMutability": "nonpayable",
      "type": "function"
    },
    {
      "constant": false,
      "inputs": [
        {
          "internalType": "uint256",
          "name": "_freeTrialLength",
          "type": "uint256"
        },
        {
          "internalType": "uint256",
          "name": "_refundPenaltyBasisPoints",
          "type": "uint256"
        }
      ],
      "name": "updateRefundPenalty",
      "outputs": [],
      "payable": false,
      "stateMutability": "nonpayable",
      "type": "function"
    },
    {
      "constant": false,
      "inputs": [
        {
          "internalType": "uint256",
          "name": "_transferFeeBasisPoints",
          "type": "uint256"
        }
      ],
      "name": "updateTransferFee",
      "outputs": [],
      "payable": false,
      "stateMutability": "nonpayable",
      "type": "function"
    },
    {
      "constant": false,
      "inputs": [
        {
          "internalType": "address",
          "name": "_tokenAddress",
          "type": "address"
        },
        {
          "internalType": "uint256",
          "name": "_amount",
          "type": "uint256"
        }
      ],
      "name": "withdraw",
      "outputs": [],
      "payable": false,
      "stateMutability": "nonpayable",
      "type": "function"
    },
    {
      "constant": false,
      "inputs": [
        {
          "internalType": "address",
          "name": "_owner",
          "type": "address"
        },
        {
          "internalType": "uint256",
          "name": "_expirationDuration",
          "type": "uint256"
        },
        {
          "internalType": "address",
          "name": "_tokenAddress",
          "type": "address"
        },
        {
          "internalType": "uint256",
          "name": "_keyPrice",
          "type": "uint256"
        },
        {
          "internalType": "uint256",
          "name": "_maxNumberOfKeys",
          "type": "uint256"
        },
        {
          "internalType": "string",
          "name": "_lockName",
          "type": "string"
        }
      ],
      "name": "initialize",
      "outputs": [],
      "payable": false,
      "stateMutability": "nonpayable",
      "type": "function"
    },
    {
      "constant": false,
      "inputs": [],
      "name": "initialize",
      "outputs": [],
      "payable": false,
      "stateMutability": "nonpayable",
      "type": "function"
    },
    {
      "constant": false,
      "inputs": [
        {
          "internalType": "address",
          "name": "sender",
          "type": "address"
        }
      ],
      "name": "initialize",
      "outputs": [],
      "payable": false,
      "stateMutability": "nonpayable",
      "type": "function"
    }
  ],
  "bytecode": "0x60806040526159e4806100136000396000f3fe60806040526004361061041b5760003560e01c80637c7c42531161021e578063abdf82ce11610123578063d4fac45d116100ab578063f12c6b6e1161007a578063f12c6b6e14611275578063f2fde38b146112b4578063f3fef3a3146112e7578063f7514bce14611320578063fc42b58f146113595761041b565b8063d4fac45d146111d5578063e7e2736e14611210578063e985e9c514611225578063f0ba6040146112605761041b565b8063c4d66de8116100f2578063c4d66de8146110e8578063c87b56dd1461111b578063ca51773114611145578063d1bbd49c1461118d578063d2503485146111a25761041b565b8063abdf82ce14610fba578063b3084f0814610fed578063b88d4fde14611002578063c1c98d03146110d35761041b565b8063970aaeb7116101a6578063a22cb46511610175578063a22cb46514610ee9578063a2e4cd2e14610f24578063a375cb0514610f5d578063a843a4e714610f72578063aae4b8f714610f875761041b565b8063970aaeb714610e35578063994a8a7114610e685780639d76ea5814610ea15780639f98d3cb14610eb65761041b565b80638da5cb5b116101ed5780638da5cb5b14610dcc5780638f32d59b14610de1578063936d2aa414610df657806393fd184414610e0b57806395d89b4114610e205761041b565b80637c7c425314610c875780638129fc1c14610d525780638577a6d514610d675780638d0361fc14610d915761041b565b806339f469861161032457806356e0d51f116102ac57806370a082311161027b57806370a0823114610b9a578063715018a614610bcd57806373fca6ea14610be257806374b6c10614610bf7578063782a4ade14610c0c5761041b565b806356e0d51f14610a4c5780636352211e14610a615780636d8ea5b414610a8b5780636eadde4314610abe5761041b565b80634bc5a135116102f35780634bc5a1351461092c5780634f6ccce71461095f5780634fd24d301461098957806352d6a8e41461099e578063550ef3a8146109d15761041b565b806339f46986146108165780633f33133a146108465780634136aa35146108d457806342842e0e146108e95761041b565b806311a4c03a116103a757806323b872dd1161037657806323b872dd146106e05780632f745c591461072357806330176e131461075c57806335576ad0146107d757806338af3eed146108015761041b565b806311a4c03a1461068c57806318160ddd146106a1578063183767da146106b65780632009dc65146106cb5761041b565b8063095ea7b3116103ee578063095ea7b3146105625780630aaffd2a1461059d5780630f15023b146105d057806310803b72146105e557806310e56973146106655761041b565b806301ffc9a714610420578063025e7c271461046857806306fdde03146104ae578063081812fc14610538575b600080fd5b34801561042c57600080fd5b506104546004803603602081101561044357600080fd5b50356001600160e01b031916611392565b604080519115158252519081900360200190f35b34801561047457600080fd5b506104926004803603602081101561048b57600080fd5b50356113b5565b604080516001600160a01b039092168252519081900360200190f35b3480156104ba57600080fd5b506104c36113dc565b6040805160208082528351818301528351919283929083019185019080838360005b838110156104fd5781810151838201526020016104e5565b50505050905090810190601f16801561052a5780820380516001836020036101000a031916815260200191505b509250505060405180910390f35b34801561054457600080fd5b506104926004803603602081101561055b57600080fd5b503561146a565b34801561056e57600080fd5b5061059b6004803603604081101561058557600080fd5b506001600160a01b0381351690602001356114ca565b005b3480156105a957600080fd5b5061059b600480360360208110156105c057600080fd5b50356001600160a01b0316611660565b3480156105dc57600080fd5b50610492611751565b3480156105f157600080fd5b506106156004803603604081101561060857600080fd5b5080359060200135611760565b60408051602080825283518183015283519192839290830191858101910280838360005b83811015610651578181015183820152602001610639565b505050509050019250505060405180910390f35b34801561067157600080fd5b5061067a611878565b60408051918252519081900360200190f35b34801561069857600080fd5b5061067a61187e565b3480156106ad57600080fd5b5061067a611884565b3480156106c257600080fd5b5061067a61188b565b3480156106d757600080fd5b5061059b611891565b3480156106ec57600080fd5b5061059b6004803603606081101561070357600080fd5b506001600160a01b038135811691602081013590911690604001356118ab565b34801561072f57600080fd5b5061067a6004803603604081101561074657600080fd5b506001600160a01b038135169060200135611b64565b34801561076857600080fd5b5061059b6004803603602081101561077f57600080fd5b810190602081018135600160201b81111561079957600080fd5b8201836020820111156107ab57600080fd5b803590602001918460018302840111600160201b831117156107cc57600080fd5b509092509050611bc2565b3480156107e357600080fd5b5061059b600480360360208110156107fa57600080fd5b5035611c1a565b34801561080d57600080fd5b50610492611cbc565b34801561082257600080fd5b5061059b6004803603604081101561083957600080fd5b5080359060200135611ccb565b61059b6004803603608081101561085c57600080fd5b8135916001600160a01b03602082013581169260408301359091169190810190608081016060820135600160201b81111561089657600080fd5b8201836020820111156108a857600080fd5b803590602001918460018302840111600160201b831117156108c957600080fd5b509092509050611d58565b3480156108e057600080fd5b50610454612131565b3480156108f557600080fd5b5061059b6004803603606081101561090c57600080fd5b506001600160a01b03813581169160208101359091169060400135612141565b34801561093857600080fd5b5061067a6004803603602081101561094f57600080fd5b50356001600160a01b031661215c565b34801561096b57600080fd5b5061067a6004803603602081101561098257600080fd5b503561216e565b34801561099557600080fd5b5061067a6121b9565b3480156109aa57600080fd5b5061067a600480360360208110156109c157600080fd5b50356001600160a01b03166121bf565b3480156109dd57600080fd5b5061059b600480360360208110156109f457600080fd5b810190602081018135600160201b811115610a0e57600080fd5b820183602082011115610a2057600080fd5b803590602001918460018302840111600160201b83111715610a4157600080fd5b5090925090506121ca565b348015610a5857600080fd5b5061067a61221d565b348015610a6d57600080fd5b5061049260048036036020811015610a8457600080fd5b5035612223565b348015610a9757600080fd5b5061045460048036036020811015610aae57600080fd5b50356001600160a01b0316612299565b348015610aca57600080fd5b5061059b600480360360c0811015610ae157600080fd5b6001600160a01b03823581169260208101359260408201359092169160608201359160808101359181019060c0810160a0820135600160201b811115610b2657600080fd5b820183602082011115610b3857600080fd5b803590602001918460018302840111600160201b83111715610b5957600080fd5b91908080601f0160208091040260200160405190810160405280939291908181526020018383808284376000920191909152509295506122b9945050505050565b348015610ba657600080fd5b5061067a60048036036020811015610bbd57600080fd5b50356001600160a01b03166123b9565b348015610bd957600080fd5b5061059b612428565b348015610bee57600080fd5b5061067a6124b9565b348015610c0357600080fd5b5061067a6124d4565b348015610c1857600080fd5b5061059b60048036036020811015610c2f57600080fd5b810190602081018135600160201b811115610c4957600080fd5b820183602082011115610c5b57600080fd5b803590602001918460018302840111600160201b83111715610c7c57600080fd5b5090925090506124da565b348015610c9357600080fd5b5061059b60048036036040811015610caa57600080fd5b810190602081018135600160201b811115610cc457600080fd5b820183602082011115610cd657600080fd5b803590602001918460208302840111600160201b83111715610cf757600080fd5b919390929091602081019035600160201b811115610d1457600080fd5b820183602082011115610d2657600080fd5b803590602001918460208302840111600160201b83111715610d4757600080fd5b509092509050612592565b348015610d5e57600080fd5b5061059b612723565b348015610d7357600080fd5b5061059b60048036036020811015610d8a57600080fd5b50356127d4565b348015610d9d57600080fd5b5061067a60048036036040811015610db457600080fd5b506001600160a01b0381358116916020013516612853565b348015610dd857600080fd5b506104926128dc565b348015610ded57600080fd5b506104546128eb565b348015610e0257600080fd5b5061067a612911565b348015610e1757600080fd5b5061067a612935565b348015610e2c57600080fd5b506104c361293b565b348015610e4157600080fd5b5061067a60048036036020811015610e5857600080fd5b50356001600160a01b0316612b2a565b348015610e7457600080fd5b5061045460048036036040811015610e8b57600080fd5b50803590602001356001600160a01b0316612b94565b348015610ead57600080fd5b50610492612bb5565b348015610ec257600080fd5b5061059b60048036036020811015610ed957600080fd5b50356001600160a01b0316612bc4565b348015610ef557600080fd5b5061059b60048036036040811015610f0c57600080fd5b506001600160a01b0381351690602001351515612ca3565b348015610f3057600080fd5b5061059b60048036036040811015610f4757600080fd5b50803590602001356001600160a01b0316612dae565b348015610f6957600080fd5b5061067a612f7d565b348015610f7e57600080fd5b5061059b612f83565b348015610f9357600080fd5b5061045460048036036020811015610faa57600080fd5b50356001600160a01b0316613072565b348015610fc657600080fd5b5061067a60048036036020811015610fdd57600080fd5b50356001600160a01b0316613085565b348015610ff957600080fd5b5061067a61310a565b34801561100e57600080fd5b5061059b6004803603608081101561102557600080fd5b6001600160a01b03823581169260208101359091169160408201359190810190608081016060820135600160201b81111561105f57600080fd5b82018360208201111561107157600080fd5b803590602001918460018302840111600160201b8311171561109257600080fd5b91908080601f01602080910402602001604051908101604052809392919081815260200183838082843760009201919091525092955061312e945050505050565b3480156110df57600080fd5b5061059b6132e1565b3480156110f457600080fd5b5061059b6004803603602081101561110b57600080fd5b50356001600160a01b03166133b0565b34801561112757600080fd5b506104c36004803603602081101561113e57600080fd5b50356134a2565b34801561115157600080fd5b5061059b6004803603608081101561116857600080fd5b506001600160a01b038135169060ff602082013516906040810135906060013561372f565b34801561119957600080fd5b5061067a613872565b3480156111ae57600080fd5b5061059b600480360360208110156111c557600080fd5b50356001600160a01b0316613877565b3480156111e157600080fd5b5061067a600480360360408110156111f857600080fd5b506001600160a01b0381358116916020013516613906565b34801561121c57600080fd5b506104926139b0565b34801561123157600080fd5b506104546004803603604081101561124857600080fd5b506001600160a01b03813581169160200135166139c8565b34801561126c57600080fd5b5061059b6139f6565b34801561128157600080fd5b5061059b6004803603606081101561129857600080fd5b506001600160a01b038135169060208101359060400135613a34565b3480156112c057600080fd5b5061059b600480360360208110156112d757600080fd5b50356001600160a01b0316613dba565b3480156112f357600080fd5b5061059b6004803603604081101561130a57600080fd5b506001600160a01b038135169060200135613e0a565b34801561132c57600080fd5b5061059b6004803603604081101561134357600080fd5b506001600160a01b038135169060200135613f64565b34801561136557600080fd5b5061067a6004803603604081101561137c57600080fd5b506001600160a01b038135169060200135614000565b6001600160e01b0319811660009081526033602052604090205460ff165b919050565b60a481815481106113c257fe5b6000918252602090912001546001600160a01b0316905081565b60a5805460408051602060026001851615610100026000190190941693909304601f810184900484028201840190925281815292918301828280156114625780601f1061143757610100808354040283529160200191611462565b820191906000526020600020905b81548152906001019060200180831161144557829003601f168201915b505050505081565b600081815260a860205260408120546001600160a01b0316806114c4576040805162461bcd60e51b815260206004820152600d60248201526c1393d39157d054141493d59151609a1b604482015290519081900360640190fd5b92915050565b609a54600160a01b900460ff1661151a576040805162461bcd60e51b815260206004820152600f60248201526e1313d0d2d7d11154149150d0551151608a1b604482015290519081900360640190fd5b806115258133612b94565b80611535575061153581336140a9565b8061155d5750600081815260a3602052604090205461155d906001600160a01b0316336139c8565b6115ab576040805162461bcd60e51b815260206004820152601a60248201527913d3931657d2d15657d3d5d3915497d3d497d054141493d5915160321b604482015290519081900360640190fd5b336001600160a01b03841614156115f8576040805162461bcd60e51b815260206004820152600c60248201526b20a8282927ab22afa9a2a62360a11b604482015290519081900360640190fd5b600082815260a86020908152604080832080546001600160a01b0319166001600160a01b0388811691821790925560a3909352818420549151869492909116917f8c5be1e5ebec7d5bd14f71427d1e84f3dd0314c0f7b2291e5b200ac8c7c3b92591a4505050565b6116686128dc565b6001600160a01b0316336001600160a01b03161480611691575060a1546001600160a01b031633145b6116e2576040805162461bcd60e51b815260206004820152601e60248201527f4f4e4c595f4c4f434b5f4f574e45525f4f525f42454e45464943494152590000604482015290519081900360640190fd5b6001600160a01b03811661172f576040805162461bcd60e51b815260206004820152600f60248201526e494e56414c49445f4144445245535360881b604482015290519081900360640190fd5b60a180546001600160a01b0319166001600160a01b0392909216919091179055565b609c546001600160a01b031681565b60a4546060906117ad576040805162461bcd60e51b81526020600482015260136024820152724e4f5f4f55545354414e44494e475f4b45595360681b604482015290519081900360640190fd5b60a45482908482029060009082840111156117d0575060a45481810392506117d5565b508082015b606083604051908082528060200260200182016040528015611801578160200160208202803883390190505b5090506000835b8381101561186b5760a4818154811061181d57fe5b9060005260206000200160009054906101000a90046001600160a01b031683838151811061184757fe5b6001600160a01b039092166020928302919091019091015260019182019101611808565b5090979650505050505050565b609e5481565b609d5481565b60a0545b90565b60aa5481565b600061189c336140ca565b90506118a833826141d1565b50565b609a54600160a01b900460ff166118fb576040805162461bcd60e51b815260206004820152600f60248201526e1313d0d2d7d11154149150d0551151608a1b604482015290519081900360640190fd5b8261190581612299565b611946576040805162461bcd60e51b815260206004820152600d60248201526c12d15657d393d517d590531251609a1b604482015290519081900360640190fd5b816119518133612b94565b80611961575061196181336140a9565b806119895750600081815260a36020526040902054611989906001600160a01b0316336139c8565b6119d7576040805162461bcd60e51b815260206004820152601a60248201527913d3931657d2d15657d3d5d3915497d3d497d054141493d5915160321b604482015290519081900360640190fd5b61271060aa5410611a28576040805162461bcd60e51b815260206004820152601660248201527512d15657d514905394d1915494d7d11254d05093115160521b604482015290519081900360640190fd5b6001600160a01b038416611a75576040805162461bcd60e51b815260206004820152600f60248201526e494e56414c49445f4144445245535360881b604482015290519081900360640190fd5b6000611a82866000614000565b6001600160a01b03808816600090815260a2602052604080822092891682528120825460018201549495509293909291611abf9083908790614256565b8254611ad5578354808455611ad5908a90614378565b428111611af9576001808501549084015583548355611af48989614378565b611b16565b6001840154611b109042830363ffffffff6143ff16565b60018401555b42600185015560008455611b2988614459565b87896001600160a01b03168b6001600160a01b031660008051602061596683398151915260405160405180910390a450505050505050505050565b60008115611bb2576040805162461bcd60e51b815260206004820152601660248201527527a7262cafa7a722afa5a2acafa822a92fa7aba722a960511b604482015290519081900360640190fd5b611bbb83612b2a565b9392505050565b611bca6128eb565b611c09576040805162461bcd60e51b815260206004820181905260248201526000805160206158f6833981519152604482015290519081900360640190fd5b611c1560a783836156f1565b505050565b336000908152609960205260409020548111611c72576040805162461bcd60e51b81526020600482015260126024820152711393d390d157d053149150511657d554d15160721b604482015290519081900360640190fd5b33600081815260996020908152604091829020849055815184815291517ff5d035b703f1ad8d403dd02e821d04257acafc5f6c5d70a3907bd8abf33a2e0f9281900390910190a250565b60a1546001600160a01b031681565b611cd36128eb565b611d12576040805162461bcd60e51b815260206004820181905260248201526000805160206158f6833981519152604482015290519081900360640190fd5b604080518381526020810183905281517fd6867bc538320e67d7bdc35860c27c08486eb490b4fd9b820fff18fb28381d3c929181900390910190a160ac9190915560ab55565b609a54600160a01b900460ff16611da8576040805162461bcd60e51b815260206004820152600f60248201526e1313d0d2d7d11154149150d0551151608a1b604482015290519081900360640190fd5b60a054609f5411611df0576040805162461bcd60e51b815260206004820152600d60248201526c1313d0d2d7d4d3d31117d3d555609a1b604482015290519081900360640190fd5b6001600160a01b038416611e3d576040805162461bcd60e51b815260206004820152600f60248201526e494e56414c49445f4144445245535360881b604482015290519081900360640190fd5b6001600160a01b038416600090815260a2602052604090208054611e7257611e6481614494565b611e72858260000154614378565b42816001015410611e9e57609d546001820154611e949163ffffffff6143ff16565b6001820155611ea9565b609d54420160018201555b609e54609c5460408051630cb175e360e01b81526001600160a01b03898116600483015260248201859052825160009586959094921692630cb175e3926044808301939192829003018186803b158015611f0257600080fd5b505afa158015611f16573d6000803e3d6000fd5b505050506040513d6040811015611f2c57600080fd5b508051602090910151909350915080831115611f4a57506000611f4e565b8290035b8215611fc157609c5460408051633652466360e01b8152600481018690526024810185905290516001600160a01b039092169163365246639160448082019260009290919082900301818387803b158015611fa857600080fd5b505af1158015611fbc573d6000803e3d6000fd5b505050505b609c546001600160a01b031663939d9f1f82611fdc8a612299565b611fe7576000611fe9565b895b6040518363ffffffff1660e01b815260040180838152602001826001600160a01b03166001600160a01b0316815260200192505050600060405180830381600087803b15801561203857600080fd5b505af115801561204c573d6000803e3d6000fd5b505085546040519092506001600160a01b038b169150600090600080516020615966833981519152908290a4609a546001600160a01b0316156120d657808910156120d3576040805162461bcd60e51b8152602060048201526012602482015271494e53554646494349454e545f56414c554560701b604482015290519081900360640190fd5b50875b60006120e1826144a9565b90506121258989838a8a8080601f01602080910402602001604051908101604052809392919081815260200183838082843760009201919091525061453792505050565b50505050505050505050565b609a54600160a01b900460ff1681565b611c158383836040518060200160405280600081525061312e565b60996020526000908152604090205481565b600060a05482106121b5576040805162461bcd60e51b815260206004820152600c60248201526b4f55545f4f465f52414e474560a01b604482015290519081900360640190fd5b5090565b61271081565b60006114c4826140ca565b6121d26128eb565b612211576040805162461bcd60e51b815260206004820181905260248201526000805160206158f6833981519152604482015290519081900360640190fd5b611c1560a583836156f1565b60ab5481565b600081815260a3602052604081205482906001600160a01b031661227c576040805162461bcd60e51b815260206004820152600b60248201526a4e4f5f535543485f4b455960a81b604482015290519081900360640190fd5b5050600090815260a360205260409020546001600160a01b031690565b6001600160a01b0316600090815260a26020526040902060010154421090565b600054610100900460ff16806122d257506122d26146ed565b806122e0575060005460ff16155b61231b5760405162461bcd60e51b815260040180806020018281038252602e815260200180615938602e913960400191505060405180910390fd5b600054610100900460ff16158015612346576000805460ff1961ff0019909116610100171660011790555b61234f876133b0565b612358856146f3565b6123606147c2565b61236c878786866147d7565b6123758261486d565b61237d614899565b6123856148ab565b61238e876148b3565b61239e6380ac58cd60e01b6148d1565b80156123b0576000805461ff00191690555b50505050505050565b60006001600160a01b038216612408576040805162461bcd60e51b815260206004820152600f60248201526e494e56414c49445f4144445245535360881b604482015290519081900360640190fd5b61241182612299565b61241c57600061241f565b60015b60ff1692915050565b6124306128eb565b61246f576040805162461bcd60e51b815260206004820181905260248201526000805160206158f6833981519152604482015290519081900360640190fd5b6066546040516000916001600160a01b0316907f8be0079c531659141344cd1fd0a4f28419497f9722a3daafe3b4186f6b6457e0908390a3606680546001600160a01b0319169055565b6040518060256157f482396025019050604051809103902081565b609f5481565b6124e26128eb565b612521576040805162461bcd60e51b815260206004820181905260248201526000805160206158f6833981519152604482015290519081900360640190fd5b61252d60a683836156f1565b507f8868e22e84ebf32da89b2ebcb0ac642816304ea3863b257f240df9098719cb97828260405180806020018281038252848482818152602001925080828437600083820152604051601f909101601f19169092018290039550909350505050a15050565b61259a6128eb565b6125d9576040805162461bcd60e51b815260206004820181905260248201526000805160206158f6833981519152604482015290519081900360640190fd5b60005b8381101561271c5760008585838181106125f257fe5b905060200201356001600160a01b03169050600084848481811061261257fe5b60200291909101359150506001600160a01b03821661266a576040805162461bcd60e51b815260206004820152600f60248201526e494e56414c49445f4144445245535360881b604482015290519081900360640190fd5b6001600160a01b038216600090815260a260205260409020600181015482116126cd576040805162461bcd60e51b815260206004820152601060248201526f414c52454144595f4f574e535f4b455960801b604482015290519081900360640190fd5b6126d681614494565b6126e4838260000154614378565b6001810182905580546040516001600160a01b03851690600090600080516020615966833981519152908290a45050506001016125dc565b5050505050565b600054610100900460ff168061273c575061273c6146ed565b8061274a575060005460ff16155b6127855760405162461bcd60e51b815260040180806020018281038252602e815260200180615938602e913960400191505060405180910390fd5b600054610100900460ff161580156127b0576000805460ff1961ff0019909116610100171660011790555b6127c06301ffc9a760e01b6148d1565b80156118a8576000805461ff001916905550565b6127dc6128eb565b61281b576040805162461bcd60e51b815260206004820181905260248201526000805160206158f6833981519152604482015290519081900360640190fd5b6040805182815290517f0496ed1e61eb69727f9659a8e859288db4758ffb1f744d1c1424634f90a257f49181900360200190a160aa55565b60003060405180806157f460259139604080519182900360250182206001600160a01b03881660009081526099602090815290839020546bffffffffffffffffffffffff19606097881b811683870152603486019390935260548501529487901b1660748301528051606881840301815260889092019052805192019190912091505092915050565b6066546001600160a01b031690565b6066546000906001600160a01b0316612902614955565b6001600160a01b031614905090565b7fd6342b4bfdf66164985c9f5fe235f643a035ee12f507d7bd0f8c89e07e790f6881565b60a45490565b60a65460609060026000196101006001841615020190911604612a9857609c60009054906101000a90046001600160a01b03166001600160a01b031663cec410526040518163ffffffff1660e01b815260040160006040518083038186803b1580156129a657600080fd5b505afa1580156129ba573d6000803e3d6000fd5b505050506040513d6000823e601f3d908101601f1916820160405260208110156129e357600080fd5b8101908080516040519392919084600160201b821115612a0257600080fd5b908301906020820185811115612a1757600080fd5b8251600160201b811182820188101715612a3057600080fd5b82525081516020918201929091019080838360005b83811015612a5d578181015183820152602001612a45565b50505050905090810190601f168015612a8a5780820380516001836020036101000a031916815260200191505b506040525050509050611888565b60a6805460408051602060026001851615610100026000190190941693909304601f81018490048402820184019092528181529291830182828015612b1e5780601f10612af357610100808354040283529160200191612b1e565b820191906000526020600020905b815481529060010190602001808311612b0157829003601f168201915b50505050509050611888565b600081612b3681612299565b612b77576040805162461bcd60e51b815260206004820152600d60248201526c12d15657d393d517d590531251609a1b604482015290519081900360640190fd5b50506001600160a01b0316600090815260a2602052604090205490565b600091825260a36020526040909120546001600160a01b0391821691161490565b609a546001600160a01b031681565b612bcc6128eb565b612c0b576040805162461bcd60e51b815260206004820181905260248201526000805160206158f6833981519152604482015290519081900360640190fd5b80612c1581612299565b612c56576040805162461bcd60e51b815260206004820152600d60248201526c12d15657d393d517d590531251609a1b604482015290519081900360640190fd5b6001600160a01b038216600090815260a260205260408082204260018201558054915190927f59f2fe866dd27a1c2d34115520888c3150365cbc931aab97fa88c4b9ab40b79591a2505050565b609a54600160a01b900460ff16612cf3576040805162461bcd60e51b815260206004820152600f60248201526e1313d0d2d7d11154149150d0551151608a1b604482015290519081900360640190fd5b6001600160a01b038216331415612d40576040805162461bcd60e51b815260206004820152600c60248201526b20a8282927ab22afa9a2a62360a11b604482015290519081900360640190fd5b33600081815260a9602090815260408083206001600160a01b03871680855290835292819020805460ff1916861515908117909155815190815290519293927f17307eab39ab6107e8899845ad3d59bd9653f200f220920489ca2b5937696c31929181900390910190a35050565b612db733613072565b612df25760405162461bcd60e51b815260040180806020018281038252603b81526020018061583f603b913960400191505060405180910390fd5b609a54600160a01b900460ff16612e42576040805162461bcd60e51b815260206004820152600f60248201526e1313d0d2d7d11154149150d0551151608a1b604482015290519081900360640190fd5b609e54609a546001600160a01b039081169083161580612ec657506000836001600160a01b03166318160ddd6040518163ffffffff1660e01b815260040160206040518083038186803b158015612e9857600080fd5b505afa158015612eac573d6000803e3d6000fd5b505050506040513d6020811015612ec257600080fd5b5051115b612f07576040805162461bcd60e51b815260206004820152600d60248201526c24a72b20a624a22faa27a5a2a760991b604482015290519081900360640190fd5b609e849055609a80546001600160a01b0319166001600160a01b038581169190911791829055604080518581526020810188905284831681830152929091166060830152517f3615065ccf48367ac483ac86701248e2e5ff55bdd9be845007d34a3b68d719d4916080908290030190a150505050565b60ac5481565b612f8b6128eb565b612fca576040805162461bcd60e51b815260206004820181905260248201526000805160206158f6833981519152604482015290519081900360640190fd5b609a54600160a01b900460ff1615613019576040805162461bcd60e51b815260206004820152600d60248201526c111254d050931157d1925494d5609a1b604482015290519081900360640190fd5b60408051478152905133917fa053f2a7eceda47dde76e5939c5adf7b771e665fc84c8ef6feffc290a1eb1feb919081900360200190a2609a5461306f906001600160a01b03163361306a8230613906565b614959565b33ff5b60006114c4609b8363ffffffff6149a616565b6001600160a01b038116600090815260a2602052604081206001015482906130ea576040805162461bcd60e51b81526020600482015260136024820152724841535f4e455645525f4f574e45445f4b455960681b604482015290519081900360640190fd5b50506001600160a01b0316600090815260a2602052604090206001015490565b7f4d99da10ff5120f726d35edd8dbd417bbe55d90453b8432acd284e650ee2c6f081565b609a54600160a01b900460ff1661317e576040805162461bcd60e51b815260206004820152600f60248201526e1313d0d2d7d11154149150d0551151608a1b604482015290519081900360640190fd5b816131898133612b94565b80613199575061319981336140a9565b806131c15750600081815260a360205260409020546131c1906001600160a01b0316336139c8565b61320f576040805162461bcd60e51b815260206004820152601a60248201527913d3931657d2d15657d3d5d3915497d3d497d054141493d5915160321b604482015290519081900360640190fd5b600083815260a360205260409020546001600160a01b031661323081612299565b613271576040805162461bcd60e51b815260206004820152600d60248201526c12d15657d393d517d590531251609a1b604482015290519081900360640190fd5b61327c8686866118ab565b61328886868686614a0d565b6132d9576040805162461bcd60e51b815260206004820152601d60248201527f4e4f4e5f434f4d504c49414e545f4552433732315f5245434549564552000000604482015290519081900360640190fd5b505050505050565b6132e96128eb565b613328576040805162461bcd60e51b815260206004820181905260248201526000805160206158f6833981519152604482015290519081900360640190fd5b609a54600160a01b900460ff16613378576040805162461bcd60e51b815260206004820152600f60248201526e1313d0d2d7d11154149150d0551151608a1b604482015290519081900360640190fd5b6040517f25a311358326fb18c62efc24bc28d3126acee8d2a67fd8b2145b757dc8bd1bc190600090a1609a805460ff60a01b19169055565b600054610100900460ff16806133c957506133c96146ed565b806133d7575060005460ff16155b6134125760405162461bcd60e51b815260040180806020018281038252602e815260200180615938602e913960400191505060405180910390fd5b600054610100900460ff1615801561343d576000805460ff1961ff0019909116610100171660011790555b606680546001600160a01b0319166001600160a01b0384811691909117918290556040519116906000907f8be0079c531659141344cd1fd0a4f28419497f9722a3daafe3b4186f6b6457e0908290a3801561349e576000805461ff00191690555b5050565b600081815260a3602052604090205460609082906001600160a01b03166134fe576040805162461bcd60e51b815260206004820152600b60248201526a4e4f5f535543485f4b455960a81b604482015290519081900360640190fd5b60a7546060906002600019610100600184161502019091160461365b57609c60009054906101000a90046001600160a01b03166001600160a01b031663a998e9fb6040518163ffffffff1660e01b815260040160006040518083038186803b15801561356957600080fd5b505afa15801561357d573d6000803e3d6000fd5b505050506040513d6000823e601f3d908101601f1916820160405260208110156135a657600080fd5b8101908080516040519392919084600160201b8211156135c557600080fd5b9083019060208201858111156135da57600080fd5b8251600160201b8111828201881017156135f357600080fd5b82525081516020918201929091019080838360005b83811015613620578181015183820152602001613608565b50505050905090810190601f16801561364d5780820380516001836020036101000a031916815260200191505b5060405250505090506136e9565b60a7805460408051602060026001851615610100026000190190941693909304601f810184900484028201840190925281815292918301828280156136e15780601f106136b6576101008083540402835291602001916136e1565b820191906000526020600020905b8154815290600101906020018083116136c457829003601f168201915b505050505090505b6137276136f530614b40565b604051806040016040528060018152602001602f60f81b81525061371887614cbc565b8492919063ffffffff614d8016565b949350505050565b6137398433612853565b84848484836001600160a01b0316600161375287614f35565b85858560405160008152602001604052604051808581526020018460ff1660ff1681526020018381526020018281526020019450505050506020604051602081039080840390855afa1580156137ac573d6000803e3d6000fd5b505050602060405103516001600160a01b031614613805576040805162461bcd60e51b8152602060048201526011602482015270494e56414c49445f5349474e415455524560781b604482015290519081900360640190fd5b6001600160a01b038416600081815260996020908152604091829020805460010190819055825190815291517ff5d035b703f1ad8d403dd02e821d04257acafc5f6c5d70a3907bd8abf33a2e0f9281900390910190a260006138668a6140ca565b90506121258a826141d1565b600690565b61387f6128eb565b6138be576040805162461bcd60e51b815260206004820181905260248201526000805160206158f6833981519152604482015290519081900360640190fd5b6138cf609b8263ffffffff614f8616565b6040516001600160a01b038216907f91d5c045d5bd98bf59a379b259ebca05b93bf79af1845fdf87e3172385d4c7f790600090a250565b60006001600160a01b03831661392757506001600160a01b038116316114c4565b826001600160a01b03166370a08231836040518263ffffffff1660e01b815260040180826001600160a01b03166001600160a01b0316815260200191505060206040518083038186803b15801561397d57600080fd5b505afa158015613991573d6000803e3d6000fd5b505050506040513d60208110156139a757600080fd5b505190506114c4565b731820a4b7618bde71dce8cdc73aab6c95905fad2481565b6001600160a01b03918216600090815260a96020908152604080832093909416825291909152205460ff1690565b613a07609b3363ffffffff61500716565b60405133907f42885193b8178d25fca25a38e6fcc93918501e91be06d85e0c8afb3bad95238090600090a2565b609a54600160a01b900460ff16613a84576040805162461bcd60e51b815260206004820152600f60248201526e1313d0d2d7d11154149150d0551151608a1b604482015290519081900360640190fd5b81613a8f8133612b94565b80613a9f5750613a9f81336140a9565b80613ac75750600081815260a36020526040902054613ac7906001600160a01b0316336139c8565b613b15576040805162461bcd60e51b815260206004820152601a60248201527913d3931657d2d15657d3d5d3915497d3d497d054141493d5915160321b604482015290519081900360640190fd5b61271060aa5410613b66576040805162461bcd60e51b815260206004820152601660248201527512d15657d514905394d1915494d7d11254d05093115160521b604482015290519081900360640190fd5b6001600160a01b038416613bb3576040805162461bcd60e51b815260206004820152600f60248201526e494e56414c49445f4144445245535360881b604482015290519081900360640190fd5b600083815260a360205260409020546001600160a01b0316613bd481612299565b613c15576040805162461bcd60e51b815260206004820152600d60248201526c12d15657d393d517d590531251609a1b604482015290519081900360640190fd5b6001600160a01b03808216600090815260a2602052604080822092881682528120805460018401549192909142900381613c4f878a614000565b90506000613c638a8363ffffffff6143ff16565b905082811015613c8157899350613c7c8b826000614256565b613cc5565b613c8b8884614000565b42600189015560405181850395509092508b907f59f2fe866dd27a1c2d34115520888c3150365cbc931aab97fa88c4b9ab40b79590600090a25b8554613d0557613cd486614494565b613cde8c86614378565b60405185906001600160a01b038e1690600090600080516020615966833981519152908290a45b613d1185856001614256565b848c6001600160a01b0316896001600160a01b031660008051602061596683398151915260405160405180910390a4613d5b888d8d60405180602001604052806000815250614a0d565b613dac576040805162461bcd60e51b815260206004820152601d60248201527f4e4f4e5f434f4d504c49414e545f4552433732315f5245434549564552000000604482015290519081900360640190fd5b505050505050505050505050565b613dc26128eb565b613e01576040805162461bcd60e51b815260206004820181905260248201526000805160206158f6833981519152604482015290519081900360640190fd5b6118a88161506e565b613e126128dc565b6001600160a01b0316336001600160a01b03161480613e3b575060a1546001600160a01b031633145b613e8c576040805162461bcd60e51b815260206004820152601e60248201527f4f4e4c595f4c4f434b5f4f574e45525f4f525f42454e45464943494152590000604482015290519081900360640190fd5b6000613e988330613906565b90506000821580613ea857508183115b15613efc5760008211613ef5576040805162461bcd60e51b815260206004820152601060248201526f4e4f545f454e4f5547485f46554e445360801b604482015290519081900360640190fd5b5080613eff565b50815b60a1546040805183815290516001600160a01b039283169287169133917f342e7ff505a8a0364cd0dc2ff195c315e43bce86b204846ecd36913e117b109e9181900360200190a460a154613f5e9085906001600160a01b031683614959565b50505050565b613f6c6128eb565b613fab576040805162461bcd60e51b815260206004820181905260248201526000805160206158f6833981519152604482015290519081900360640190fd5b81613fb581612299565b613ff6576040805162461bcd60e51b815260206004820152600d60248201526c12d15657d393d517d590531251609a1b604482015290519081900360640190fd5b611c1583836141d1565b60008261400c81612299565b61404d576040805162461bcd60e51b815260206004820152600d60248201526c12d15657d393d517d590531251609a1b604482015290519081900360640190fd5b6001600160a01b038416600090815260a26020526040812090808561407a5742836001015403915061407e565b8591505b61271061409660aa548461510f90919063ffffffff16565b8161409d57fe5b04979650505050505050565b600091825260a86020526040909120546001600160a01b0391821691161490565b6000816140d681612299565b614117576040805162461bcd60e51b815260206004820152600d60248201526c12d15657d393d517d590531251609a1b604482015290519081900360640190fd5b6001600160a01b038316600090815260a2602052604090206001810154609d5460ac54429092039182011061415057609e549350614171565b609d54609e54614166908363ffffffff61510f16565b8161416d57fe5b0493505b60ac5415806141855750609d5460ac548201105b156141c95760006127106141a660ab54609e5461510f90919063ffffffff16565b816141ad57fe5b049050808511156141c25780850394506141c7565b600094505b505b505050919050565b6001600160a01b038216600081815260a2602090815260409182902080548351868152935191943394909391927f0a7068a9989857441c039a14a42b67ed71dd1fcfe5a9b17cc87b252e47bce528929181900390910190a4426001820155811561424c57609a5461424c906001600160a01b03168484614959565b611c158383615168565b600083815260a360205260409020546001600160a01b0316806142b3576040805162461bcd60e51b815260206004820152601060248201526f4e4f4e5f4558495354454e545f4b455960801b604482015290519081900360640190fd5b6001600160a01b038116600090815260a260205260408120600181015490916142db84612299565b9050841561431e578015614303576142f9828763ffffffff6143ff16565b6001840155614319565b614313428763ffffffff6143ff16565b60018401555b614334565b61432e828763ffffffff61529816565b60018401555b604080518781528615156020820152815189927fa2ede7ad01668310f921fcf6084901d08af350838c2744a013153e4968a7559d928290030190a250505050505050565b600081815260a360205260409020546001600160a01b0383811691161461349e5760a48054600181019091557fe434dc35da084cf8d7e8186688ea2dacb53db7003d427af3abf351bd9d0a4e8d0180546001600160a01b0384166001600160a01b03199182168117909255600083815260a360205260409020805490911690911790555050565b600082820183811015611bbb576040805162461bcd60e51b815260206004820152601b60248201527f536166654d6174683a206164646974696f6e206f766572666c6f770000000000604482015290519081900360640190fd5b600081815260a860205260409020546001600160a01b0316156118a857600090815260a86020526040902080546001600160a01b0319169055565b80546118a85760a08054600101908190559055565b600081156113b057609a546001600160a01b03166145105781341015614509576040805162461bcd60e51b815260206004820152601060248201526f4e4f545f454e4f5547485f46554e445360801b604482015290519081900360640190fd5b50346113b0565b609a546001600160a01b031661452e8133308663ffffffff6152da16565b829150506113b0565b60a1546040805163555ddc6560e11b81526001600160a01b0390921660048301527f4d99da10ff5120f726d35edd8dbd417bbe55d90453b8432acd284e650ee2c6f0602483015251600091731820a4b7618bde71dce8cdc73aab6c95905fad249163aabbb8ca91604480820192602092909190829003018186803b1580156145be57600080fd5b505afa1580156145d2573d6000803e3d6000fd5b505050506040513d60208110156145e857600080fd5b505190506001600160a01b0381161561271c57604051638d0f092560e01b815233600482018181526001600160a01b03888116602485015287811660448501526064840187905260a060848501908152865160a4860152865191861694638d0f092594938b938b938b938b939260c490910190602085019080838360005b8381101561467e578181015183820152602001614666565b50505050905090810190601f1680156146ab5780820380516001836020036101000a031916815260200191505b509650505050505050600060405180830381600087803b1580156146ce57600080fd5b505af11580156146e2573d6000803e3d6000fd5b505050505050505050565b303b1590565b609a80546001600160a01b0319166001600160a01b038316908117909155158061478157506000816001600160a01b03166318160ddd6040518163ffffffff1660e01b815260040160206040518083038186803b15801561475357600080fd5b505afa158015614767573d6000803e3d6000fd5b505050506040513d602081101561477d57600080fd5b5051115b6118a8576040805162461bcd60e51b815260206004820152600d60248201526c24a72b20a624a22faa27a5a2a760991b604482015290519081900360640190fd5b609a805460ff60a01b1916600160a01b179055565b63bbf81e00831115614830576040805162461bcd60e51b815260206004820152601860248201527f4d41585f45585049524154494f4e5f3130305f59454152530000000000000000604482015290519081900360640190fd5b609c8054336001600160a01b03199182161790915560a180549091166001600160a01b039590951694909417909355609d91909155609e55609f55565b614875612723565b80516148889060a590602084019061576b565b506118a8635b5e139f60e01b6148d1565b6148a963780e9d6360e01b6148d1565b565b6103e860ab55565b6148bc81613072565b6118a8576118a8609b8263ffffffff614f8616565b6001600160e01b03198082161415614930576040805162461bcd60e51b815260206004820152601c60248201527f4552433136353a20696e76616c696420696e7465726661636520696400000000604482015290519081900360640190fd5b6001600160e01b0319166000908152603360205260409020805460ff19166001179055565b3390565b8015611c15576001600160a01b03831661498b576149866001600160a01b0383168263ffffffff61533416565b611c15565b82613f5e6001600160a01b038216848463ffffffff61541916565b60006001600160a01b0382166149ed5760405162461bcd60e51b81526004018080602001828103825260228152602001806159166022913960400191505060405180910390fd5b506001600160a01b03166000908152602091909152604090205460ff1690565b6000614a21846001600160a01b031661546b565b614a2d57506001613727565b604051630a85bd0160e11b815233600482018181526001600160a01b03888116602485015260448401879052608060648501908152865160848601528651600095928a169463150b7a029490938c938b938b939260a4019060208501908083838e5b83811015614aa7578181015183820152602001614a8f565b50505050905090810190601f168015614ad45780820380516001836020036101000a031916815260200191505b5095505050505050602060405180830381600087803b158015614af657600080fd5b505af1158015614b0a573d6000803e3d6000fd5b505050506040513d6020811015614b2057600080fd5b50516001600160e01b031916630a85bd0160e11b14915050949350505050565b604080518082018252601081526f181899199a1a9b1b9c1cb0b131b232b360811b60208201528151602a80825260608281019094526001600160a01b03851692918491602082018180388339019050509050600360fc1b81600081518110614ba457fe5b60200101906001600160f81b031916908160001a905350600f60fb1b81600181518110614bcd57fe5b60200101906001600160f81b031916908160001a90535060005b6014811015614cb3578260048583600c0160208110614c0257fe5b1a60f81b6001600160f81b031916901c60f81c60ff1681518110614c2257fe5b602001015160f81c60f81b828260020260020181518110614c3f57fe5b60200101906001600160f81b031916908160001a905350828482600c0160208110614c6657fe5b825191901a600f16908110614c7757fe5b602001015160f81c60f81b828260020260030181518110614c9457fe5b60200101906001600160f81b031916908160001a905350600101614be7565b50949350505050565b60608180614ce35750506040805180820190915260018152600360fc1b60208201526113b0565b8260005b8115614cfb57600101600a82049150614ce7565b6060816040519080825280601f01601f191660200182016040528015614d28576020820181803883390190505b50905060001982015b8415614d7657600a850660300160f81b82828060019003935081518110614d5457fe5b60200101906001600160f81b031916908160001a905350600a85049450614d31565b5095945050505050565b606080859050606085905060608590506060859050606081518351855187510101016040519080825280601f01601f191660200182016040528015614dcc576020820181803883390190505b509050806000805b8751811015614e2557878181518110614de957fe5b602001015160f81c60f81b838380600101945081518110614e0657fe5b60200101906001600160f81b031916908160001a905350600101614dd4565b5060005b8651811015614e7a57868181518110614e3e57fe5b602001015160f81c60f81b838380600101945081518110614e5b57fe5b60200101906001600160f81b031916908160001a905350600101614e29565b5060005b8551811015614ecf57858181518110614e9357fe5b602001015160f81c60f81b838380600101945081518110614eb057fe5b60200101906001600160f81b031916908160001a905350600101614e7e565b5060005b8451811015614f2457848181518110614ee857fe5b602001015160f81c60f81b838380600101945081518110614f0557fe5b60200101906001600160f81b031916908160001a905350600101614ed3565b50909b9a5050505050505050505050565b604080517f19457468657265756d205369676e6564204d6573736167653a0a333200000000602080830191909152603c8083019490945282518083039094018452605c909101909152815191012090565b614f9082826149a6565b15614fe2576040805162461bcd60e51b815260206004820152601f60248201527f526f6c65733a206163636f756e7420616c72656164792068617320726f6c6500604482015290519081900360640190fd5b6001600160a01b0316600090815260209190915260409020805460ff19166001179055565b61501182826149a6565b61504c5760405162461bcd60e51b81526004018080602001828103825260218152602001806158b46021913960400191505060405180910390fd5b6001600160a01b0316600090815260209190915260409020805460ff19169055565b6001600160a01b0381166150b35760405162461bcd60e51b81526004018080602001828103825260268152602001806158196026913960400191505060405180910390fd5b6066546040516001600160a01b038084169216907f8be0079c531659141344cd1fd0a4f28419497f9722a3daafe3b4186f6b6457e090600090a3606680546001600160a01b0319166001600160a01b0392909216919091179055565b60008261511e575060006114c4565b8282028284828161512b57fe5b0414611bbb5760405162461bcd60e51b81526004018080602001828103825260218152602001806158d56021913960400191505060405180910390fd5b60a1546040805163555ddc6560e11b81526001600160a01b0390921660048301527fd6342b4bfdf66164985c9f5fe235f643a035ee12f507d7bd0f8c89e07e790f68602483015251600091731820a4b7618bde71dce8cdc73aab6c95905fad249163aabbb8ca91604480820192602092909190829003018186803b1580156151ef57600080fd5b505afa158015615203573d6000803e3d6000fd5b505050506040513d602081101561521957600080fd5b505190506001600160a01b03811615611c15576040805163c9877d7b60e01b81523360048201526001600160a01b0385811660248301526044820185905291519183169163c9877d7b9160648082019260009290919082900301818387803b15801561528457600080fd5b505af11580156123b0573d6000803e3d6000fd5b6000611bbb83836040518060400160405280601e81526020017f536166654d6174683a207375627472616374696f6e206f766572666c6f7700008152506154a2565b604080516001600160a01b0385811660248301528416604482015260648082018490528251808303909101815260849091019091526020810180516001600160e01b03166323b872dd60e01b179052613f5e908590615539565b80471015615389576040805162461bcd60e51b815260206004820152601d60248201527f416464726573733a20696e73756666696369656e742062616c616e6365000000604482015290519081900360640190fd5b6040516000906001600160a01b0384169083908381818185875af1925050503d80600081146153d4576040519150601f19603f3d011682016040523d82523d6000602084013e6153d9565b606091505b5050905080611c155760405162461bcd60e51b815260040180806020018281038252603a81526020018061587a603a913960400191505060405180910390fd5b604080516001600160a01b038416602482015260448082018490528251808303909101815260649091019091526020810180516001600160e01b031663a9059cbb60e01b179052611c15908490615539565b6000813f7fc5d2460186f7233c927e7db2dcc703c0e500b653ca82273b7bfad8045d85a47081158015906137275750141592915050565b600081848411156155315760405162461bcd60e51b81526004018080602001828103825283818151815260200191508051906020019080838360005b838110156154f65781810151838201526020016154de565b50505050905090810190601f1680156155235780820380516001836020036101000a031916815260200191505b509250505060405180910390fd5b505050900390565b61554b826001600160a01b031661546b565b61559c576040805162461bcd60e51b815260206004820152601f60248201527f5361666545524332303a2063616c6c20746f206e6f6e2d636f6e747261637400604482015290519081900360640190fd5b60006060836001600160a01b0316836040518082805190602001908083835b602083106155da5780518252601f1990920191602091820191016155bb565b6001836020036101000a0380198251168184511680821785525050505050509050019150506000604051808303816000865af19150503d806000811461563c576040519150601f19603f3d011682016040523d82523d6000602084013e615641565b606091505b509150915081615698576040805162461bcd60e51b815260206004820181905260248201527f5361666545524332303a206c6f772d6c6576656c2063616c6c206661696c6564604482015290519081900360640190fd5b805115613f5e578080602001905160208110156156b457600080fd5b5051613f5e5760405162461bcd60e51b815260040180806020018281038252602a815260200180615986602a913960400191505060405180910390fd5b828054600181600116156101000203166002900490600052602060002090601f016020900481019282601f106157325782800160ff1982351617855561575f565b8280016001018555821561575f579182015b8281111561575f578235825591602001919060010190615744565b506121b59291506157d9565b828054600181600116156101000203166002900490600052602060002090601f016020900481019282601f106157ac57805160ff191683800117855561575f565b8280016001018555821561575f579182015b8281111561575f5782518255916020019190600101906157be565b61188891905b808211156121b557600081556001016157df56fe63616e63656c416e64526566756e64466f722861646472657373205f6b65794f776e6572294f776e61626c653a206e6577206f776e657220697320746865207a65726f20616464726573734d6978696e4c6f636b4d616e616765723a2063616c6c657220646f6573206e6f74206861766520746865204c6f636b4d616e6167657220726f6c65416464726573733a20756e61626c6520746f2073656e642076616c75652c20726563697069656e74206d61792068617665207265766572746564526f6c65733a206163636f756e7420646f6573206e6f74206861766520726f6c65536166654d6174683a206d756c7469706c69636174696f6e206f766572666c6f774f776e61626c653a2063616c6c6572206973206e6f7420746865206f776e6572526f6c65733a206163636f756e7420697320746865207a65726f2061646472657373436f6e747261637420696e7374616e63652068617320616c7265616479206265656e20696e697469616c697a6564ddf252ad1be2c89b69c2b068fc378daa952ba7f163c4a11628f55a4df523b3ef5361666545524332303a204552433230206f7065726174696f6e20646964206e6f742073756363656564a265627a7a723158200699dda614bcab2e903ef2411b51464fc64ec2c573008b8f0d5cc966a4a6001164736f6c634300050e0032",
  "source": "pragma solidity 0.5.14;\n\n\nimport './interfaces/IPublicLock.sol';\nimport '@openzeppelin/contracts-ethereum-package/contracts/ownership/Ownable.sol';\nimport '@openzeppelin/contracts-ethereum-package/contracts/introspection/ERC165.sol';\nimport './mixins/MixinApproval.sol';\nimport './mixins/MixinDisableAndDestroy.sol';\nimport './mixins/MixinERC721Enumerable.sol';\nimport './mixins/MixinEventHooks.sol';\nimport './mixins/MixinFunds.sol';\nimport './mixins/MixinGrantKeys.sol';\nimport './mixins/MixinKeys.sol';\nimport './mixins/MixinLockCore.sol';\nimport './mixins/MixinLockMetadata.sol';\nimport './mixins/MixinPurchase.sol';\nimport './mixins/MixinRefunds.sol';\nimport './mixins/MixinTransfer.sol';\nimport './mixins/MixinSignatures.sol';\nimport './mixins/MixinLockManagerRole.sol';\n\n\n/**\n * @title The Lock contract\n * @author Julien Genestoux (unlock-protocol.com)\n * @dev ERC165 allows our contract to be queried to determine whether it implements a given interface.\n * Every ERC-721 compliant contract must implement the ERC165 interface.\n * https://eips.ethereum.org/EIPS/eip-721\n */\ncontract PublicLock is\n  IPublicLock,\n  ERC165,\n  Ownable,\n  MixinSignatures,\n  MixinFunds,\n  MixinDisableAndDestroy,\n  MixinLockManagerRole,\n  MixinLockCore,\n  MixinKeys,\n  MixinLockMetadata,\n  MixinERC721Enumerable,\n  MixinEventHooks,\n  MixinGrantKeys,\n  MixinPurchase,\n  MixinApproval,\n  MixinTransfer,\n  MixinRefunds\n{\n  function initialize(\n    address _owner,\n    uint _expirationDuration,\n    address _tokenAddress,\n    uint _keyPrice,\n    uint _maxNumberOfKeys,\n    string memory _lockName\n  ) public\n    initializer()\n  {\n    Ownable.initialize(_owner);\n    MixinFunds._initializeMixinFunds(_tokenAddress);\n    MixinDisableAndDestroy._initializeMixinDisableAndDestroy();\n    MixinLockCore._initializeMixinLockCore(_owner, _expirationDuration, _keyPrice, _maxNumberOfKeys);\n    MixinLockMetadata._initializeMixinLockMetadata(_lockName);\n    MixinERC721Enumerable._initializeMixinERC721Enumerable();\n    MixinRefunds._initializeMixinRefunds();\n    MixinLockManagerRole._initializeMixinLockManagerRole(_owner);\n    // registering the interface for erc721 with ERC165.sol using\n    // the ID specified in the standard: https://eips.ethereum.org/EIPS/eip-721\n    _registerInterface(0x80ac58cd);\n  }\n}\n",
  "sourcePath": "/Users/overlord/DAPPS/unlock/smart-contracts/contracts/PublicLock.sol",
  "compiler": {
    "name": "solc",
    "version": "0.5.14+commit.01f1aaa4.Emscripten.clang"
  },
  "schemaVersion": "3.0.20",
  "updatedAt": "2020-01-15T23:36:50.899Z",
  "devdoc": {
    "author": "Julien Genestoux (unlock-protocol.com)",
    "details": "ERC165 allows our contract to be queried to determine whether it implements a given interface. Every ERC-721 compliant contract must implement the ERC165 interface. https://eips.ethereum.org/EIPS/eip-721",
    "methods": {
      "balanceOf(address)": {
        "return": "The number of NFTs owned by `_owner`, either 0 or 1."
      },
      "cancelAndRefund()": {
        "details": "Destroys the user's key and sends a refund based on the amount of time remaining."
      },
      "cancelAndRefundFor(address,uint8,bytes32,bytes32)": {
        "details": "Cancels a key owned by a different user and sends the funds to the msg.sender.",
        "params": {
          "_keyOwner": "this user's key will be canceled",
          "_v": "_r _s getCancelAndRefundApprovalHash signed by the _keyOwner"
        }
      },
      "destroyLock()": {
        "details": "Used to clean up old lock contracts from the blockchain TODO: add a check to ensure all keys are INVALID!"
      },
      "disableLock()": {
        "details": "Used to disable lock before migrating keys and/or destroying contract"
      },
      "fullRefund(address,uint256)": {
        "details": "Invoked by the lock owner to destroy the user's ket and perform a refund and cancellation of the key"
      },
      "getCancelAndRefundApprovalHash(address,address)": {
        "details": "this can be computed in JS instead of read from the contract.",
        "params": {
          "_keyOwner": "The key owner's address (also the message signer)",
          "_txSender": "The address cancelling cancel on behalf of the keyOwner"
        },
        "return": "approvalHash The hash to sign"
      },
      "getCancelAndRefundValueFor(address)": {
        "details": "Determines how much of a refund a key owner would receive if they issued a cancelAndRefund block.timestamp. Note that due to the time required to mine a tx, the actual refund amount will be lower than what the user reads from this call."
      },
      "getOwnersByPage(uint256,uint256)": {
        "params": {
          "_page": "the page of key owners requested when faceted by page size",
          "_pageSize": "the number of Key Owners requested per page"
        }
      },
      "getTokenIdFor(address)": {
        "return": "The tokenId of the NFT, else revert"
      },
      "getTransferFee(address,uint256)": {
        "params": {
          "_owner": "The owner of the key check the transfer fee for."
        }
      },
      "initialize(address)": {
        "details": "Initializes the contract setting the deployer as the initial owner."
      },
      "invalidateOffchainApproval(uint256)": {
        "details": "This can be used to invalidate a previously signed message."
      },
      "isApprovedForAll(address,address)": {
        "details": "Tells whether an operator is approved by a given owner",
        "params": {
          "_operator": "operator address which you want to query the approval of",
          "_owner": "owner address which you want to query the approval of"
        },
        "return": "bool whether the given operator is approved by the given owner"
      },
      "isOwner()": {
        "details": "Returns true if the caller is the current owner."
      },
      "keyExpirationTimestampFor(address)": {
        "details": "Returns the key's ExpirationTimestamp field for a given owner.",
        "params": {
          "_owner": "address of the user for whom we search the key"
        }
      },
      "owner()": {
        "details": "Returns the address of the current owner."
      },
      "purchase(uint256,address,address,bytes)": {
        "details": "Purchase functionSetting _value to keyPrice exactly doubles as a security feature. That way if the lock owner increases the price while my transaction is pending I can't be charged more than I expected (only applicable to ERC-20 when more than keyPrice is approved for spending).",
        "params": {
          "_data": "arbitrary data populated by the front-end which initiated the sale",
          "_recipient": "address of the recipient of the purchased key",
          "_referrer": "address of the user making the referral",
          "_value": "the number of tokens to pay for this purchase >= the current keyPrice - any applicable discount (_value is ignored when using ETH)"
        }
      },
      "renounceOwnership()": {
        "details": "Leaves the contract without owner. It will not be possible to call `onlyOwner` functions anymore. Can only be called by the current owner.     * > Note: Renouncing ownership will leave the contract without an owner, thereby removing any functionality that is only available to the owner."
      },
      "safeTransferFrom(address,address,uint256)": {
        "details": "This works identically to the other function with an extra data parameter, except this function just sets data to ''",
        "params": {
          "_from": "The current owner of the NFT",
          "_to": "The new owner",
          "_tokenId": "The NFT to transfer"
        }
      },
      "safeTransferFrom(address,address,uint256,bytes)": {
        "params": {
          "_data": "Additional data with no specified format, sent in call to `_to`",
          "_from": "The current owner of the NFT",
          "_to": "The new owner",
          "_tokenId": "The NFT to transfer"
        }
      },
      "setApprovalForAll(address,bool)": {
        "details": "Sets or unsets the approval of a given operator An operator is allowed to transfer all tokens of the sender on their behalf",
        "params": {
          "_approved": "representing the status of the approval to be set",
          "_to": "operator address to set the approval"
        }
      },
      "shareKey(address,uint256,uint256)": {
        "params": {
          "_timeShared": "The amount of time shared",
          "_to": "The recipient of the shared key",
          "_tokenId": "the key to share"
        }
      },
      "supportsInterface(bytes4)": {
        "details": "See {IERC165-supportsInterface}.     * Time complexity O(1), guaranteed to always use less than 30 000 gas."
      },
      "symbol()": {
        "details": "Gets the token symbol",
        "return": "string representing the token name"
      },
      "tokenByIndex(uint256)": {
        "details": "Throws if `_index` >= `totalSupply()`.",
        "params": {
          "_index": "A counter less than `totalSupply()`"
        },
        "return": "The token identifier for the `_index`th NFT,  (sort order not specified)"
      },
      "tokenOfOwnerByIndex(address,uint256)": {
        "details": "Throws if `_index` >= `balanceOf(_owner)` or if  `_owner` is the zero address, representing invalid NFTs.",
        "params": {
          "_index": "A counter less than `balanceOf(_owner)`",
          "_owner": "An address where we are interested in NFTs owned by them"
        },
        "return": "The token identifier for the `_index`th NFT assigned to `_owner`,   (sort order not specified)"
      },
      "tokenURI(uint256)": {
        "details": "Throws if `_tokenId` is not a valid NFT. URIs are defined in RFC 3986. The URI may point to a JSON file that conforms to the \"ERC721 Metadata JSON Schema\". https://github.com/ethereum/EIPs/blob/master/EIPS/eip-721.md"
      },
      "transferOwnership(address)": {
        "details": "Transfers ownership of the contract to a new account (`newOwner`). Can only be called by the current owner."
      },
      "withdraw(address,uint256)": {
        "details": "Called by owner to withdraw all funds from the lock and send them to the `beneficiary`.",
        "params": {
          "_amount": "specifies the max amount to withdraw, which may be reduced when considering the available balance. Set to 0 or MAX_UINT to withdraw everything.   * TODO: consider allowing anybody to trigger this as long as it goes to owner anyway? -- however be wary of draining funds as it breaks the `cancelAndRefund` and `fullRefund` use cases.",
          "_tokenAddress": "specifies the token address to withdraw or 0 for ETH. This is usually the same as `tokenAddress` in MixinFunds."
        }
      }
    },
    "title": "The Lock contract"
  },
  "userdoc": {
    "methods": {
      "approve(address,uint256)": {
        "notice": "This approves _approved to get ownership of _tokenId. Note: that since this is used for both purchase and transfer approvals the approved token may not exist."
      },
      "balanceOf(address)": {
        "notice": "In the specific case of a Lock, each owner can own only at most 1 key."
      },
      "expireKeyFor(address)": {
        "notice": "A function which lets the owner of the lock expire a users' key."
      },
      "getApproved(uint256)": {
        "notice": "Will return the approved recipient for a key, if any."
      },
      "getBalance(address,address)": {
        "notice": "Gets the current balance of the account provided."
      },
      "getCancelAndRefundApprovalHash(address,address)": {
        "notice": "returns the hash to sign in order to allow another user to cancel on your behalf."
      },
      "getHasValidKey(address)": {
        "notice": "Checks if the user has a non-expired key."
      },
      "getOwnersByPage(uint256,uint256)": {
        "notice": "A function which returns a subset of the keys for this Lock as an array"
      },
      "getTokenIdFor(address)": {
        "notice": "Find the tokenId for a given user"
      },
      "getTransferFee(address,uint256)": {
        "notice": "Determines how much of a fee a key owner would need to pay in order to transfer the key to another account.  This is pro-rated so the fee goes down overtime."
      },
      "grantKeys(address[],uint256[])": {
        "notice": "Allows the Lock owner to give a collection of users a key with no charge. Each key may be assigned a different expiration date."
      },
      "invalidateOffchainApproval(uint256)": {
        "notice": "Sets the minimum nonce for a valid off-chain approval message from the senders account."
      },
      "isKeyOwner(uint256,address)": {
        "notice": "Checks if the given address owns the given tokenId."
      },
      "numberOfOwners()": {
        "notice": "Public function which returns the total number of unique owners (both expired and valid).  This may be larger than totalSupply."
      },
      "safeTransferFrom(address,address,uint256)": {
        "notice": "Transfers the ownership of an NFT from one address to another address"
      },
      "safeTransferFrom(address,address,uint256,bytes)": {
        "notice": "Transfers the ownership of an NFT from one address to another address. When transfer is complete, this functions checks if `_to` is a smart contract (code size > 0). If so, it calls `onERC721Received` on `_to` and throws if the return value is not `bytes4(keccak256('onERC721Received(address,address,uint,bytes)'))`."
      },
      "setBaseTokenURI(string)": {
        "notice": "Allows the Lock owner to update the baseTokenURI for this Lock."
      },
      "shareKey(address,uint256,uint256)": {
        "notice": "Allows the key owner to safely share their key (parent key) by transferring a portion of the remaining time to a new key (child key)."
      },
      "tokenByIndex(uint256)": {
        "notice": "Enumerate valid NFTs"
      },
      "tokenOfOwnerByIndex(address,uint256)": {
        "notice": "Enumerate NFTs assigned to an owner"
      },
      "tokenURI(uint256)": {
        "notice": "A distinct Uniform Resource Identifier (URI) for a given asset."
      },
      "updateBeneficiary(address)": {
        "notice": "A function which lets the owner of the lock update the beneficiary account, which receives funds on withdrawal."
      },
      "updateKeyPricing(uint256,address)": {
        "notice": "A function which lets the owner of the lock change the pricing for future purchases. This consists of 2 parts: The token address and the price in the given token. In order to set the token to ETH, use 0 for the token Address."
      },
      "updateLockName(string)": {
        "notice": "Allows the Lock owner to assign a descriptive name for this Lock."
      },
      "updateLockSymbol(string)": {
        "notice": "Allows the Lock owner to assign a Symbol for this Lock."
      },
      "updateRefundPenalty(uint256,uint256)": {
        "notice": "Allow the owner to change the refund penalty."
      },
      "updateTransferFee(uint256)": {
        "notice": "Allow the Lock owner to change the transfer fee."
      }
    }
  }
}