{
  "contractName": "PublicLock",
  "abi": [
    {
      "constant": true,
      "inputs": [
        {
          "name": "interfaceId",
          "type": "bytes4"
        }
      ],
      "name": "supportsInterface",
      "outputs": [
        {
          "name": "",
          "type": "bool"
        }
      ],
      "payable": false,
      "stateMutability": "view",
      "type": "function"
    },
    {
      "constant": true,
      "inputs": [
        {
          "name": "",
          "type": "uint256"
        }
      ],
      "name": "owners",
      "outputs": [
        {
          "name": "",
          "type": "address"
        }
      ],
      "payable": false,
      "stateMutability": "view",
      "type": "function"
    },
    {
      "constant": true,
      "inputs": [],
      "name": "name",
      "outputs": [
        {
          "name": "",
          "type": "string"
        }
      ],
      "payable": false,
      "stateMutability": "view",
      "type": "function"
    },
    {
      "constant": true,
      "inputs": [
        {
          "name": "_tokenId",
          "type": "uint256"
        }
      ],
      "name": "getApproved",
      "outputs": [
        {
          "name": "",
          "type": "address"
        }
      ],
      "payable": false,
      "stateMutability": "view",
      "type": "function"
    },
    {
      "constant": false,
      "inputs": [
        {
          "name": "_approved",
          "type": "address"
        },
        {
          "name": "_tokenId",
          "type": "uint256"
        }
      ],
      "name": "approve",
      "outputs": [],
      "payable": true,
      "stateMutability": "payable",
      "type": "function"
    },
    {
      "constant": true,
      "inputs": [],
      "name": "refundPenaltyDenominator",
      "outputs": [
        {
          "name": "",
          "type": "uint256"
        }
      ],
      "payable": false,
      "stateMutability": "view",
      "type": "function"
    },
    {
      "constant": true,
      "inputs": [],
      "name": "refundPenaltyNumerator",
      "outputs": [
        {
          "name": "",
          "type": "uint256"
        }
      ],
      "payable": false,
      "stateMutability": "view",
      "type": "function"
    },
    {
      "constant": true,
      "inputs": [],
      "name": "unlockProtocol",
      "outputs": [
        {
          "name": "",
          "type": "address"
        }
      ],
      "payable": false,
      "stateMutability": "view",
      "type": "function"
    },
    {
      "constant": true,
      "inputs": [
        {
          "name": "_page",
          "type": "uint256"
        },
        {
          "name": "_pageSize",
          "type": "uint256"
        }
      ],
      "name": "getOwnersByPage",
      "outputs": [
        {
          "name": "",
          "type": "address[]"
        }
      ],
      "payable": false,
      "stateMutability": "view",
      "type": "function"
    },
    {
      "constant": true,
      "inputs": [],
      "name": "keyPrice",
      "outputs": [
        {
          "name": "",
          "type": "uint256"
        }
      ],
      "payable": false,
      "stateMutability": "view",
      "type": "function"
    },
    {
      "constant": true,
      "inputs": [],
      "name": "expirationDuration",
      "outputs": [
        {
          "name": "",
          "type": "uint256"
        }
      ],
      "payable": false,
      "stateMutability": "view",
      "type": "function"
    },
    {
      "constant": false,
      "inputs": [
        {
          "name": "",
          "type": "address"
        },
        {
          "name": "",
          "type": "address"
        },
        {
          "name": "",
          "type": "uint256"
        },
        {
          "name": "",
          "type": "bytes"
        }
      ],
      "name": "onERC721Received",
      "outputs": [
        {
          "name": "",
          "type": "bytes4"
        }
      ],
      "payable": false,
      "stateMutability": "nonpayable",
      "type": "function"
    },
    {
      "constant": true,
      "inputs": [],
      "name": "totalSupply",
      "outputs": [
        {
          "name": "",
          "type": "uint256"
        }
      ],
      "payable": false,
      "stateMutability": "view",
      "type": "function"
    },
    {
      "constant": false,
      "inputs": [
        {
          "name": "_keyPrice",
          "type": "uint256"
        }
      ],
      "name": "updateKeyPrice",
      "outputs": [],
      "payable": false,
      "stateMutability": "nonpayable",
      "type": "function"
    },
    {
      "constant": false,
      "inputs": [],
      "name": "cancelAndRefund",
      "outputs": [],
      "payable": false,
      "stateMutability": "nonpayable",
      "type": "function"
    },
    {
      "constant": false,
      "inputs": [
        {
          "name": "_from",
          "type": "address"
        },
        {
          "name": "_recipient",
          "type": "address"
        },
        {
          "name": "_tokenId",
          "type": "uint256"
        }
      ],
      "name": "transferFrom",
      "outputs": [],
      "payable": true,
      "stateMutability": "payable",
      "type": "function"
    },
    {
      "constant": false,
      "inputs": [
        {
          "name": "_refundPenaltyNumerator",
          "type": "uint256"
        },
        {
          "name": "_refundPenaltyDenominator",
          "type": "uint256"
        }
      ],
      "name": "updateRefundPenalty",
      "outputs": [],
      "payable": false,
      "stateMutability": "nonpayable",
      "type": "function"
    },
    {
      "constant": true,
      "inputs": [],
      "name": "numberOfKeysSold",
      "outputs": [
        {
          "name": "",
          "type": "uint256"
        }
      ],
      "payable": false,
      "stateMutability": "view",
      "type": "function"
    },
    {
      "constant": false,
      "inputs": [],
      "name": "withdraw",
      "outputs": [],
      "payable": false,
      "stateMutability": "nonpayable",
      "type": "function"
    },
    {
      "constant": false,
      "inputs": [
        {
          "name": "_transferFeeNumerator",
          "type": "uint256"
        },
        {
          "name": "_transferFeeDenominator",
          "type": "uint256"
        }
      ],
      "name": "updateTransferFee",
      "outputs": [],
      "payable": false,
      "stateMutability": "nonpayable",
      "type": "function"
    },
    {
      "constant": true,
      "inputs": [],
      "name": "isAlive",
      "outputs": [
        {
          "name": "",
          "type": "bool"
        }
      ],
      "payable": false,
      "stateMutability": "view",
      "type": "function"
    },
    {
      "constant": false,
      "inputs": [
        {
          "name": "_from",
          "type": "address"
        },
        {
          "name": "_to",
          "type": "address"
        },
        {
          "name": "_tokenId",
          "type": "uint256"
        }
      ],
      "name": "safeTransferFrom",
      "outputs": [],
      "payable": true,
      "stateMutability": "payable",
      "type": "function"
    },
    {
      "constant": true,
      "inputs": [
        {
          "name": "_owner",
          "type": "address"
        }
      ],
      "name": "getCancelAndRefundValueFor",
      "outputs": [
        {
          "name": "refund",
          "type": "uint256"
        }
      ],
      "payable": false,
      "stateMutability": "view",
      "type": "function"
    },
    {
      "constant": false,
      "inputs": [
        {
          "name": "_lockName",
          "type": "string"
        }
      ],
      "name": "updateLockName",
      "outputs": [],
      "payable": false,
      "stateMutability": "nonpayable",
      "type": "function"
    },
    {
      "constant": true,
      "inputs": [
        {
          "name": "_tokenId",
          "type": "uint256"
        }
      ],
      "name": "ownerOf",
      "outputs": [
        {
          "name": "",
          "type": "address"
        }
      ],
      "payable": false,
      "stateMutability": "view",
      "type": "function"
    },
    {
      "constant": true,
      "inputs": [
        {
          "name": "_owner",
          "type": "address"
        }
      ],
      "name": "getHasValidKey",
      "outputs": [
        {
          "name": "",
          "type": "bool"
        }
      ],
      "payable": false,
      "stateMutability": "view",
      "type": "function"
    },
    {
      "constant": true,
      "inputs": [
        {
          "name": "_owner",
          "type": "address"
        }
      ],
      "name": "balanceOf",
      "outputs": [
        {
          "name": "",
          "type": "uint256"
        }
      ],
      "payable": false,
      "stateMutability": "view",
      "type": "function"
    },
    {
      "constant": false,
      "inputs": [
        {
          "name": "_recipient",
          "type": "address"
        },
        {
          "name": "_referrer",
          "type": "address"
        }
      ],
      "name": "purchaseForFrom",
      "outputs": [],
      "payable": true,
      "stateMutability": "payable",
      "type": "function"
    },
    {
      "constant": false,
      "inputs": [],
      "name": "renounceOwnership",
      "outputs": [],
      "payable": false,
      "stateMutability": "nonpayable",
      "type": "function"
    },
    {
      "constant": false,
      "inputs": [
        {
          "name": "_amount",
          "type": "uint256"
        }
      ],
      "name": "partialWithdraw",
      "outputs": [],
      "payable": false,
      "stateMutability": "nonpayable",
      "type": "function"
    },
    {
      "constant": true,
      "inputs": [],
      "name": "maxNumberOfKeys",
      "outputs": [
        {
          "name": "",
          "type": "uint256"
        }
      ],
      "payable": false,
      "stateMutability": "view",
      "type": "function"
    },
    {
      "constant": false,
      "inputs": [
        {
          "name": "_recipients",
          "type": "address[]"
        },
        {
          "name": "_expirationTimestamps",
          "type": "uint256[]"
        }
      ],
      "name": "grantKeys",
      "outputs": [],
      "payable": false,
      "stateMutability": "nonpayable",
      "type": "function"
    },
    {
      "constant": true,
      "inputs": [
        {
          "name": "_owner",
          "type": "address"
        }
      ],
      "name": "getTransferFee",
      "outputs": [
        {
          "name": "",
          "type": "uint256"
        }
      ],
      "payable": false,
      "stateMutability": "view",
      "type": "function"
    },
    {
      "constant": true,
      "inputs": [],
      "name": "owner",
      "outputs": [
        {
          "name": "",
          "type": "address"
        }
      ],
      "payable": false,
      "stateMutability": "view",
      "type": "function"
    },
    {
      "constant": true,
      "inputs": [],
      "name": "isOwner",
      "outputs": [
        {
          "name": "",
          "type": "bool"
        }
      ],
      "payable": false,
      "stateMutability": "view",
      "type": "function"
    },
    {
      "constant": true,
      "inputs": [],
      "name": "transferFeeNumerator",
      "outputs": [
        {
          "name": "",
          "type": "uint256"
        }
      ],
      "payable": false,
      "stateMutability": "view",
      "type": "function"
    },
    {
      "constant": true,
      "inputs": [],
      "name": "numberOfOwners",
      "outputs": [
        {
          "name": "",
          "type": "uint256"
        }
      ],
      "payable": false,
      "stateMutability": "view",
      "type": "function"
    },
    {
      "constant": true,
      "inputs": [
        {
          "name": "_account",
          "type": "address"
        }
      ],
      "name": "getTokenIdFor",
      "outputs": [
        {
          "name": "",
          "type": "uint256"
        }
      ],
      "payable": false,
      "stateMutability": "view",
      "type": "function"
    },
    {
      "constant": true,
      "inputs": [
        {
          "name": "_tokenId",
          "type": "uint256"
        },
        {
          "name": "_owner",
          "type": "address"
        }
      ],
      "name": "isKeyOwner",
      "outputs": [
        {
          "name": "",
          "type": "bool"
        }
      ],
      "payable": false,
      "stateMutability": "view",
      "type": "function"
    },
    {
      "constant": false,
      "inputs": [
        {
          "name": "_recipient",
          "type": "address"
        },
        {
          "name": "_expirationTimestamp",
          "type": "uint256"
        }
      ],
      "name": "grantKey",
      "outputs": [],
      "payable": false,
      "stateMutability": "nonpayable",
      "type": "function"
    },
    {
      "constant": true,
      "inputs": [],
      "name": "tokenAddress",
      "outputs": [
        {
          "name": "",
          "type": "address"
        }
      ],
      "payable": false,
      "stateMutability": "view",
      "type": "function"
    },
    {
      "constant": false,
      "inputs": [
        {
          "name": "_owner",
          "type": "address"
        }
      ],
      "name": "expireKeyFor",
      "outputs": [],
      "payable": false,
      "stateMutability": "nonpayable",
      "type": "function"
    },
    {
      "constant": false,
      "inputs": [
        {
          "name": "_to",
          "type": "address"
        },
        {
          "name": "_approved",
          "type": "bool"
        }
      ],
      "name": "setApprovalForAll",
      "outputs": [],
      "payable": false,
      "stateMutability": "nonpayable",
      "type": "function"
    },
    {
      "constant": false,
      "inputs": [],
      "name": "destroyLock",
      "outputs": [],
      "payable": false,
      "stateMutability": "nonpayable",
      "type": "function"
    },
    {
      "constant": true,
      "inputs": [
        {
          "name": "_owner",
          "type": "address"
        }
      ],
      "name": "keyExpirationTimestampFor",
      "outputs": [
        {
          "name": "timestamp",
          "type": "uint256"
        }
      ],
      "payable": false,
      "stateMutability": "view",
      "type": "function"
    },
    {
      "constant": false,
      "inputs": [
        {
          "name": "_from",
          "type": "address"
        },
        {
          "name": "_to",
          "type": "address"
        },
        {
          "name": "_tokenId",
          "type": "uint256"
        },
        {
          "name": "_data",
          "type": "bytes"
        }
      ],
      "name": "safeTransferFrom",
      "outputs": [],
      "payable": true,
      "stateMutability": "payable",
      "type": "function"
    },
    {
      "constant": false,
      "inputs": [],
      "name": "disableLock",
      "outputs": [],
      "payable": false,
      "stateMutability": "nonpayable",
      "type": "function"
    },
    {
      "constant": false,
      "inputs": [
        {
          "name": "sender",
          "type": "address"
        }
      ],
      "name": "initialize",
      "outputs": [],
      "payable": false,
      "stateMutability": "nonpayable",
      "type": "function"
    },
    {
      "constant": true,
      "inputs": [],
      "name": "publicLockVersion",
      "outputs": [
        {
          "name": "",
          "type": "uint8"
        }
      ],
      "payable": false,
      "stateMutability": "view",
      "type": "function"
    },
    {
      "constant": true,
      "inputs": [],
      "name": "transferFeeDenominator",
      "outputs": [
        {
          "name": "",
          "type": "uint256"
        }
      ],
      "payable": false,
      "stateMutability": "view",
      "type": "function"
    },
    {
      "constant": true,
      "inputs": [
        {
          "name": "_owner",
          "type": "address"
        },
        {
          "name": "_operator",
          "type": "address"
        }
      ],
      "name": "isApprovedForAll",
      "outputs": [
        {
          "name": "",
          "type": "bool"
        }
      ],
      "payable": false,
      "stateMutability": "view",
      "type": "function"
    },
    {
      "constant": false,
      "inputs": [
        {
          "name": "newOwner",
          "type": "address"
        }
      ],
      "name": "transferOwnership",
      "outputs": [],
      "payable": false,
      "stateMutability": "nonpayable",
      "type": "function"
    },
    {
      "constant": false,
      "inputs": [
        {
          "name": "_recipient",
          "type": "address"
        }
      ],
      "name": "purchaseFor",
      "outputs": [],
      "payable": true,
      "stateMutability": "payable",
      "type": "function"
    },
    {
      "constant": false,
      "inputs": [
        {
          "name": "_recipients",
          "type": "address[]"
        },
        {
          "name": "_expirationTimestamp",
          "type": "uint256"
        }
      ],
      "name": "grantKeys",
      "outputs": [],
      "payable": false,
      "stateMutability": "nonpayable",
      "type": "function"
    },
    {
      "inputs": [
        {
          "name": "_owner",
          "type": "address"
        },
        {
          "name": "_expirationDuration",
          "type": "uint256"
        },
        {
          "name": "_tokenAddress",
          "type": "address"
        },
        {
          "name": "_keyPrice",
          "type": "uint256"
        },
        {
          "name": "_maxNumberOfKeys",
          "type": "uint256"
        }
      ],
      "payable": false,
      "stateMutability": "nonpayable",
      "type": "constructor"
    },
    {
      "payable": false,
      "stateMutability": "nonpayable",
      "type": "fallback"
    },
    {
      "anonymous": false,
      "inputs": [
        {
          "indexed": true,
          "name": "tokenId",
          "type": "uint256"
        },
        {
          "indexed": true,
          "name": "owner",
          "type": "address"
        },
        {
          "indexed": false,
          "name": "refund",
          "type": "uint256"
        }
      ],
      "name": "CancelKey",
      "type": "event"
    },
    {
      "anonymous": false,
      "inputs": [
        {
          "indexed": false,
          "name": "oldRefundPenaltyNumerator",
          "type": "uint256"
        },
        {
          "indexed": false,
          "name": "oldRefundPenaltyDenominator",
          "type": "uint256"
        },
        {
          "indexed": false,
          "name": "refundPenaltyNumerator",
          "type": "uint256"
        },
        {
          "indexed": false,
          "name": "refundPenaltyDenominator",
          "type": "uint256"
        }
      ],
      "name": "RefundPenaltyChanged",
      "type": "event"
    },
    {
      "anonymous": false,
      "inputs": [
        {
          "indexed": false,
          "name": "oldTransferFeeNumerator",
          "type": "uint256"
        },
        {
          "indexed": false,
          "name": "oldTransferFeeDenominator",
          "type": "uint256"
        },
        {
          "indexed": false,
          "name": "transferFeeNumerator",
          "type": "uint256"
        },
        {
          "indexed": false,
          "name": "transferFeeDenominator",
          "type": "uint256"
        }
      ],
      "name": "TransferFeeChanged",
      "type": "event"
    },
    {
      "anonymous": false,
      "inputs": [
        {
          "indexed": false,
          "name": "tokenId",
          "type": "uint256"
        }
      ],
      "name": "ExpireKey",
      "type": "event"
    },
    {
      "anonymous": false,
      "inputs": [
        {
          "indexed": false,
          "name": "oldKeyPrice",
          "type": "uint256"
        },
        {
          "indexed": false,
          "name": "keyPrice",
          "type": "uint256"
        }
      ],
      "name": "PriceChanged",
      "type": "event"
    },
    {
      "anonymous": false,
      "inputs": [
        {
          "indexed": true,
          "name": "_sender",
          "type": "address"
        },
        {
          "indexed": false,
          "name": "_amount",
          "type": "uint256"
        }
      ],
      "name": "Withdrawal",
      "type": "event"
    },
    {
      "anonymous": false,
      "inputs": [
        {
          "indexed": false,
          "name": "balance",
          "type": "uint256"
        },
        {
          "indexed": true,
          "name": "owner",
          "type": "address"
        }
      ],
      "name": "Destroy",
      "type": "event"
    },
    {
      "anonymous": false,
      "inputs": [],
      "name": "Disable",
      "type": "event"
    },
    {
      "anonymous": false,
      "inputs": [
        {
          "indexed": true,
          "name": "previousOwner",
          "type": "address"
        },
        {
          "indexed": true,
          "name": "newOwner",
          "type": "address"
        }
      ],
      "name": "OwnershipTransferred",
      "type": "event"
    },
    {
      "anonymous": false,
      "inputs": [
        {
          "indexed": true,
          "name": "_from",
          "type": "address"
        },
        {
          "indexed": true,
          "name": "_to",
          "type": "address"
        },
        {
          "indexed": true,
          "name": "_tokenId",
          "type": "uint256"
        }
      ],
      "name": "Transfer",
      "type": "event"
    },
    {
      "anonymous": false,
      "inputs": [
        {
          "indexed": true,
          "name": "_owner",
          "type": "address"
        },
        {
          "indexed": true,
          "name": "_approved",
          "type": "address"
        },
        {
          "indexed": true,
          "name": "_tokenId",
          "type": "uint256"
        }
      ],
      "name": "Approval",
      "type": "event"
    },
    {
      "anonymous": false,
      "inputs": [
        {
          "indexed": true,
          "name": "_owner",
          "type": "address"
        },
        {
          "indexed": true,
          "name": "_operator",
          "type": "address"
        },
        {
          "indexed": false,
          "name": "_approved",
          "type": "bool"
        }
      ],
      "name": "ApprovalForAll",
      "type": "event"
    }
  ],
  "bytecode": "0x6080604052600060745560646075556001607655600a6077553480156200002557600080fd5b5060405160a08062003831833981018060405260a08110156200004757600080fd5b508051602080830151604084015160608501516080909501519394919390928490839083906001908790620000a2907f01ffc9a70000000000000000000000000000000000000000000000000000000090620002cb811b901c565b6001600160a01b03811615806200012057506000816001600160a01b03166318160ddd6040518163ffffffff1660e01b815260040160206040518083038186803b158015620000f057600080fd5b505afa15801562000105573d6000803e3d6000fd5b505050506040513d60208110156200011c57600080fd5b5051115b6200018c57604080517f08c379a000000000000000000000000000000000000000000000000000000000815260206004820152600d60248201527f494e56414c49445f544f4b454e00000000000000000000000000000000000000604482015290519081900360640190fd5b60688054600160a01b60ff02196001600160a01b039093166001600160a01b031990911617919091167401000000000000000000000000000000000000000017905563bbf81e008411156200024257604080517f08c379a000000000000000000000000000000000000000000000000000000000815260206004820152601860248201527f4d41585f45585049524154494f4e5f3130305f59454152530000000000000000604482015290519081900360640190fd5b606980546001600160a01b03191633179055606a93909355606b91909155606c55606e805460ff90921660ff19909216919091179055620002aa7f80ac58cd00000000000000000000000000000000000000000000000000000000620002cb602090811b901c565b620002c0856200033860201b620023341760201c565b505050505062000450565b7fffffffff000000000000000000000000000000000000000000000000000000008082161415620002fb57600080fd5b7fffffffff00000000000000000000000000000000000000000000000000000000166000908152602081905260409020805460ff19166001179055565b600154610100900460ff16806200035a57506200035a6200044a60201b60201c565b8062000369575060015460ff16155b620003c0576040517f08c379a000000000000000000000000000000000000000000000000000000000815260040180806020018281038252602e81526020018062003803602e913960400191505060405180910390fd5b6001805461010061ff00198216811760ff19168317909255603480546001600160a01b0319166001600160a01b0385811691909117918290556040519390920460ff16929116906000907f8be0079c531659141344cd1fd0a4f28419497f9722a3daafe3b4186f6b6457e0908290a3600180549115156101000261ff001990921691909117905550565b303b1590565b6133a380620004606000396000f3fe6080604052600436106103355760003560e01c806370efb770116101ab5780639d76ea58116100f7578063c4d66de811610095578063e985e9c51161006f578063e985e9c514610e09578063f2fde38b14610e44578063f6e4641f14610e77578063f8faf94214610e9d57610335565b8063c4d66de814610d96578063d1bbd49c14610dc9578063d42cfc4114610df457610335565b8063a843a4e7116100d1578063a843a4e714610c75578063abdf82ce14610c8a578063b88d4fde14610cbd578063c1c98d0314610d8157610335565b80639d76ea5814610bf25780639f98d3cb14610c07578063a22cb46514610c3a57610335565b80638da5cb5b1161016457806393fd18441161013e57806393fd184414610b38578063970aaeb714610b4d578063994a8a7114610b805780639b3f0b1714610bb957610335565b80638da5cb5b14610af95780638f32d59b14610b0e5780638f98ce8f14610b2357610335565b806370efb77014610979578063715018a6146109a757806371d2ee6c146109bc57806374b6c106146109e65780637c7c4253146109fb57806383cb0fa914610ac657610335565b80631f1ec029116102855780634136aa3511610223578063550ef3a8116101fd578063550ef3a81461086e5780636352211e146108e95780636d8ea5b41461091357806370a082311461094657610335565b80634136aa35146107f057806342842e0e1461080557806352d6a8e41461083b57610335565b806339f469861161025f57806339f46986146107665780633ba70e31146107965780633ccfd60b146107ab5780633d3359cb146107c057610335565b80631f1ec029146106f15780632009dc651461071b57806323b872dd1461073057610335565b80630ed3e2cc116102f257806310e56973116102cc57806310e56973146105c457806311a4c03a146105d9578063150b7a02146105ee57806318160ddd146106dc57610335565b80630ed3e2cc1461051a5780630f15023b1461052f57806310803b721461054457610335565b806301ffc9a714610383578063025e7c27146103cb57806306fdde0314610411578063081812fc1461049b578063095ea7b3146104c55780630c79130f146104f3575b34801561034157600080fd5b5060408051600160e51b62461bcd02815260206004820152600b6024820152600160a81b6a4e4f5f46414c4c4241434b02604482015290519081900360640190fd5b34801561038f57600080fd5b506103b7600480360360208110156103a657600080fd5b50356001600160e01b031916610f18565b604080519115158252519081900360200190f35b3480156103d757600080fd5b506103f5600480360360208110156103ee57600080fd5b5035610f3b565b604080516001600160a01b039092168252519081900360200190f35b34801561041d57600080fd5b50610426610f62565b6040805160208082528351818301528351919283929083019185019080838360005b83811015610460578181015183820152602001610448565b50505050905090810190601f16801561048d5780820380516001836020036101000a031916815260200191505b509250505060405180910390f35b3480156104a757600080fd5b506103f5600480360360208110156104be57600080fd5b5035610ff9565b6104f1600480360360408110156104db57600080fd5b506001600160a01b03813516906020013561100a565b005b3480156104ff57600080fd5b506105086111a9565b60408051918252519081900360200190f35b34801561052657600080fd5b506105086111af565b34801561053b57600080fd5b506103f56111b5565b34801561055057600080fd5b506105746004803603604081101561056757600080fd5b50803590602001356111c4565b60408051602080825283518183015283519192839290830191858101910280838360005b838110156105b0578181015183820152602001610598565b505050509050019250505060405180910390f35b3480156105d057600080fd5b506105086112e9565b3480156105e557600080fd5b506105086112ef565b3480156105fa57600080fd5b506106bf6004803603608081101561061157600080fd5b6001600160a01b03823581169260208101359091169160408201359190810190608081016060820135600160201b81111561064b57600080fd5b82018360208201111561065d57600080fd5b803590602001918460018302840111600160201b8311171561067e57600080fd5b91908080601f0160208091040260200160405190810160405280939291908181526020018383808284376000920191909152509295506112f5945050505050565b604080516001600160e01b03199092168252519081900360200190f35b3480156106e857600080fd5b50610508611309565b3480156106fd57600080fd5b506104f16004803603602081101561071457600080fd5b503561130f565b34801561072757600080fd5b506104f16113bd565b6104f16004803603606081101561074657600080fd5b506001600160a01b03813581169160208101359091169060400135611429565b34801561077257600080fd5b506104f16004803603604081101561078957600080fd5b508035906020013561167c565b3480156107a257600080fd5b5061050861172c565b3480156107b757600080fd5b506104f1611732565b3480156107cc57600080fd5b506104f1600480360360408110156107e357600080fd5b50803590602001356117aa565b3480156107fc57600080fd5b506103b761185a565b6104f16004803603606081101561081b57600080fd5b506001600160a01b0381358116916020810135909116906040013561186a565b34801561084757600080fd5b506105086004803603602081101561085e57600080fd5b50356001600160a01b031661188a565b34801561087a57600080fd5b506104f16004803603602081101561089157600080fd5b810190602081018135600160201b8111156108ab57600080fd5b8201836020820111156108bd57600080fd5b803590602001918460018302840111600160201b831117156108de57600080fd5b509092509050611895565b3480156108f557600080fd5b506103f56004803603602081101561090c57600080fd5b50356118b2565b34801561091f57600080fd5b506103b76004803603602081101561093657600080fd5b50356001600160a01b031661192e565b34801561095257600080fd5b506105086004803603602081101561096957600080fd5b50356001600160a01b031661194e565b6104f16004803603604081101561098f57600080fd5b506001600160a01b03813581169160200135166119d6565b3480156109b357600080fd5b506104f1611a87565b3480156109c857600080fd5b506104f1600480360360208110156109df57600080fd5b5035611ae2565b3480156109f257600080fd5b50610508611baf565b348015610a0757600080fd5b506104f160048036036040811015610a1e57600080fd5b810190602081018135600160201b811115610a3857600080fd5b820183602082011115610a4a57600080fd5b803590602001918460208302840111600160201b83111715610a6b57600080fd5b919390929091602081019035600160201b811115610a8857600080fd5b820183602082011115610a9a57600080fd5b803590602001918460208302840111600160201b83111715610abb57600080fd5b509092509050611bb5565b348015610ad257600080fd5b5061050860048036036020811015610ae957600080fd5b50356001600160a01b0316611c17565b348015610b0557600080fd5b506103f5611ce0565b348015610b1a57600080fd5b506103b7611cef565b348015610b2f57600080fd5b50610508611d00565b348015610b4457600080fd5b50610508611d06565b348015610b5957600080fd5b5061050860048036036020811015610b7057600080fd5b50356001600160a01b0316611d0c565b348015610b8c57600080fd5b506103b760048036036040811015610ba357600080fd5b50803590602001356001600160a01b0316611d8f565b348015610bc557600080fd5b506104f160048036036040811015610bdc57600080fd5b506001600160a01b038135169060200135611db0565b348015610bfe57600080fd5b506103f5611dcb565b348015610c1357600080fd5b506104f160048036036020811015610c2a57600080fd5b50356001600160a01b0316611dda565b348015610c4657600080fd5b506104f160048036036040811015610c5d57600080fd5b506001600160a01b0381351690602001351515611e97565b348015610c8157600080fd5b506104f1611fae565b348015610c9657600080fd5b5061050860048036036020811015610cad57600080fd5b50356001600160a01b031661205b565b6104f160048036036080811015610cd357600080fd5b6001600160a01b03823581169260208101359091169160408201359190810190608081016060820135600160201b811115610d0d57600080fd5b820183602082011115610d1f57600080fd5b803590602001918460018302840111600160201b83111715610d4057600080fd5b91908080601f0160208091040260200160405190810160405280939291908181526020018383808284376000920191909152509295506120e1945050505050565b348015610d8d57600080fd5b506104f1612284565b348015610da257600080fd5b506104f160048036036020811015610db957600080fd5b50356001600160a01b0316612334565b348015610dd557600080fd5b50610dde612423565b6040805160ff9092168252519081900360200190f35b348015610e0057600080fd5b5061050861242c565b348015610e1557600080fd5b506103b760048036036040811015610e2c57600080fd5b506001600160a01b0381358116916020013516612432565b348015610e5057600080fd5b506104f160048036036020811015610e6757600080fd5b50356001600160a01b0316612460565b6104f160048036036020811015610e8d57600080fd5b50356001600160a01b031661247a565b348015610ea957600080fd5b506104f160048036036040811015610ec057600080fd5b810190602081018135600160201b811115610eda57600080fd5b820183602082011115610eec57600080fd5b803590602001918460208302840111600160201b83111715610f0d57600080fd5b9193509150356124db565b6001600160e01b0319811660009081526020819052604090205460ff165b919050565b60718181548110610f4857fe5b6000918252602090912001546001600160a01b0316905081565b60678054604080516020601f6002600019610100600188161502019095169490940493840181900481028201810190925282815260609390929091830182828015610fee5780601f10610fc357610100808354040283529160200191610fee565b820191906000526020600020905b815481529060010190602001808311610fd157829003601f168201915b505050505090505b90565b60006110048261252a565b92915050565b606854600160a01b900460ff166110605760408051600160e51b62461bcd02815260206004820152600f60248201526001608a1b6e1313d0d2d7d11154149150d055115102604482015290519081900360640190fd5b8061106b8133611d8f565b8061107b575061107b8133612597565b80611093575061109361108d826118b2565b33612432565b6110e75760408051600160e51b62461bcd02815260206004820152601a60248201527f4f4e4c595f4b45595f4f574e45525f4f525f415050524f564544000000000000604482015290519081900360640190fd5b336001600160a01b038416141561113a5760408051600160e51b62461bcd02815260206004820152600c6024820152600160a11b6b20a8282927ab22afa9a2a62302604482015290519081900360640190fd5b600082815260726020526040902080546001600160a01b0319166001600160a01b038516908117909155829061116f826118b2565b6001600160a01b03167f8c5be1e5ebec7d5bd14f71427d1e84f3dd0314c0f7b2291e5b200ac8c7c3b92560405160405180910390a4505050565b60775481565b60765481565b6069546001600160a01b031681565b60715460609061121e5760408051600160e51b62461bcd02815260206004820152601360248201527f4e4f5f4f55545354414e44494e475f4b45595300000000000000000000000000604482015290519081900360640190fd5b607154829084820290600090828401111561124157506071548181039250611246565b508082015b606083604051908082528060200260200182016040528015611272578160200160208202803883390190505b5090506000835b838110156112dc576071818154811061128e57fe5b9060005260206000200160009054906101000a90046001600160a01b03168383815181106112b857fe5b6001600160a01b039092166020928302919091019091015260019182019101611279565b5090979650505050505050565b606b5481565b606a5481565b600160e11b630a85bd01025b949350505050565b606d5490565b611317611cef565b61132057600080fd5b606854600160a01b900460ff166113765760408051600160e51b62461bcd02815260206004820152600f60248201526001608a1b6e1313d0d2d7d11154149150d055115102604482015290519081900360640190fd5b606b805490829055604080518281526020810184905281517f8aa4fa52648a6d15edce8a179c792c86f3719d0cc3c572cf90f91948f0f2cb68929181900390910190a15050565b60006113c8336125b8565b905060006113d5336125d2565b825460408051838152905192935033927f6f64cc1e7c0b20e2221d29714cd68b961e800f1ae03450a17c8bc0510e02bf729181900360200190a342600183015580156114255761142533826126b7565b5050565b606854600160a01b900460ff1661147f5760408051600160e51b62461bcd02815260206004820152600f60248201526001608a1b6e1313d0d2d7d11154149150d055115102604482015290519081900360640190fd5b826114898161192e565b6114d05760408051600160e51b62461bcd02815260206004820152600d60248201526001609a1b6c12d15657d393d517d59053125102604482015290519081900360640190fd5b816114db8133611d8f565b806114eb57506114eb8133612597565b806114fd57506114fd61108d826118b2565b6115515760408051600160e51b62461bcd02815260206004820152601a60248201527f4f4e4c595f4b45595f4f574e45525f4f525f415050524f564544000000000000604482015290519081900360640190fd5b6001600160a01b0384166115a45760408051600160e51b62461bcd02815260206004820152600f6024820152600160881b6e494e56414c49445f4144445245535302604482015290519081900360640190fd5b6115b56115b086611c17565b6128cc565b60006115c0866125b8565b905060006115cd866125b8565b60018101548154919250906115e157825482555b6115ef878360000154612af8565b4281116116055760018084015490830155611622565b600183015461161c9042830363ffffffff612b7f16565b60018301555b42600184015561163186612b98565b85876001600160a01b0316896001600160a01b03167fddf252ad1be2c89b69c2b068fc378daa952ba7f163c4a11628f55a4df523b3ef60405160405180910390a45050505050505050565b611684611cef565b61168d57600080fd5b806116d45760408051600160e51b62461bcd02815260206004820152600c6024820152600160a01b6b494e56414c49445f5241544502604482015290519081900360640190fd5b60765460775460408051928352602083019190915281810184905260608201839052517fa7d13855fe99b8c8b2780f36ff9e06133878b66a664a951b2375fe2296cc00089181900360800190a1607691909155607755565b606d5481565b61173a611cef565b61174357600080fd5b600061174e30612bd3565b90506000811161179e5760408051600160e51b62461bcd0281526020600482015260106024820152600160801b6f4e4f545f454e4f5547485f46554e445302604482015290519081900360640190fd5b6117a781612c7a565b50565b6117b2611cef565b6117bb57600080fd5b806118025760408051600160e51b62461bcd02815260206004820152600c6024820152600160a01b6b494e56414c49445f5241544502604482015290519081900360640190fd5b60745460755460408051928352602083019190915281810184905260608201839052517ff0cc3b8bd450a20cce7720453e064b35cf490baa5d53c7c6ef8b2e1b02898a7d9181900360800190a1607491909155607555565b606854600160a01b900460ff1681565b611885838383604051806020016040528060008152506120e1565b505050565b6000611004826125d2565b61189d611cef565b6118a657600080fd5b611885606783836132b1565b60008181526070602052604081205482906001600160a01b03166119115760408051600160e51b62461bcd02815260206004820152600b6024820152600160a81b6a4e4f5f535543485f4b455902604482015290519081900360640190fd5b50506000908152607060205260409020546001600160a01b031690565b6001600160a01b03166000908152606f6020526040902060010154421090565b60006001600160a01b0382166119a35760408051600160e51b62461bcd02815260206004820152600f6024820152600160881b6e494e56414c49445f4144445245535302604482015290519081900360640190fd5b6001600160a01b0382166000908152606f60205260409020600101546119ca5760006119cd565b60015b60ff1692915050565b606854600160a01b900460ff16611a2c5760408051600160e51b62461bcd02815260206004820152600f60248201526001608a1b6e1313d0d2d7d11154149150d055115102604482015290519081900360640190fd5b80611a368161192e565b611a7d5760408051600160e51b62461bcd02815260206004820152600d60248201526001609a1b6c12d15657d393d517d59053125102604482015290519081900360640190fd5b6118858383612cc4565b611a8f611cef565b611a9857600080fd5b6034546040516000916001600160a01b0316907f8be0079c531659141344cd1fd0a4f28419497f9722a3daafe3b4186f6b6457e0908390a3603480546001600160a01b0319169055565b611aea611cef565b611af357600080fd5b60008111611b4b5760408051600160e51b62461bcd02815260206004820152601160248201527f475245415445525f5448414e5f5a45524f000000000000000000000000000000604482015290519081900360640190fd5b6000611b5630612bd3565b905081811015611ba65760408051600160e51b62461bcd0281526020600482015260106024820152600160801b6f4e4f545f454e4f5547485f46554e445302604482015290519081900360640190fd5b61142582612c7a565b606c5481565b611bbd611cef565b611bc657600080fd5b60005b83811015611c1057611c08858583818110611be057fe5b905060200201356001600160a01b0316848484818110611bfc57fe5b90506020020135612fab565b600101611bc9565b5050505050565b600081611c238161192e565b611c6a5760408051600160e51b62461bcd02815260206004820152600d60248201526001609a1b6c12d15657d393d517d59053125102604482015290519081900360640190fd5b6000611c75846125b8565b905060004282600101540390506000606a548210611c965750606b54611cb7565b606a54606b54611cac908463ffffffff6130c116565b81611cb357fe5b0490505b607554607454611cce90839063ffffffff6130c116565b81611cd557fe5b049695505050505050565b6034546001600160a01b031690565b6034546001600160a01b0316331490565b60745481565b60715490565b6001600160a01b0381166000908152606f602052604081206001810154839190611d715760408051600160e51b62461bcd02815260206004820152600b6024820152600160a81b6a4e4f5f535543485f4b455902604482015290519081900360640190fd5b5050506001600160a01b03166000908152606f602052604090205490565b600091825260706020526040909120546001600160a01b0391821691161490565b611db8611cef565b611dc157600080fd5b6114258282612fab565b6068546001600160a01b031681565b611de2611cef565b611deb57600080fd5b80611df58161192e565b611e3c5760408051600160e51b62461bcd02815260206004820152600d60248201526001609a1b6c12d15657d393d517d59053125102604482015290519081900360640190fd5b6001600160a01b0382166000908152606f602090815260409182902042600182015580548351908152925190927f59f2fe866dd27a1c2d34115520888c3150365cbc931aab97fa88c4b9ab40b79592908290030190a1505050565b606854600160a01b900460ff16611eed5760408051600160e51b62461bcd02815260206004820152600f60248201526001608a1b6e1313d0d2d7d11154149150d055115102604482015290519081900360640190fd5b6001600160a01b038216331415611f405760408051600160e51b62461bcd02815260206004820152600c6024820152600160a11b6b20a8282927ab22afa9a2a62302604482015290519081900360640190fd5b3360008181526073602090815260408083206001600160a01b03871680855290835292819020805460ff1916861515908117909155815190815290519293927f17307eab39ab6107e8899845ad3d59bd9653f200f220920489ca2b5937696c31929181900390910190a35050565b611fb6611cef565b611fbf57600080fd5b606854600160a01b900460ff16156120215760408051600160e51b62461bcd02815260206004820152600d60248201527f44495341424c455f464952535400000000000000000000000000000000000000604482015290519081900360640190fd5b6040805130318152905133917fa053f2a7eceda47dde76e5939c5adf7b771e665fc84c8ef6feffc290a1eb1feb919081900360200190a233ff5b6001600160a01b0381166000908152606f6020526040812060018101548391906120c05760408051600160e51b62461bcd02815260206004820152600b6024820152600160a81b6a4e4f5f535543485f4b455902604482015290519081900360640190fd5b5050506001600160a01b03166000908152606f602052604090206001015490565b606854600160a01b900460ff166121375760408051600160e51b62461bcd02815260206004820152600f60248201526001608a1b6e1313d0d2d7d11154149150d055115102604482015290519081900360640190fd5b816121428133611d8f565b8061215257506121528133612597565b80612164575061216461108d826118b2565b6121b85760408051600160e51b62461bcd02815260206004820152601a60248201527f4f4e4c595f4b45595f4f574e45525f4f525f415050524f564544000000000000604482015290519081900360640190fd5b6121c1836118b2565b6121ca8161192e565b6122115760408051600160e51b62461bcd02815260206004820152600d60248201526001609a1b6c12d15657d393d517d59053125102604482015290519081900360640190fd5b61221c868686611429565b612228868686866130e8565b61227c5760408051600160e51b62461bcd02815260206004820152601d60248201527f4e4f4e5f434f4d504c49414e545f4552433732315f5245434549564552000000604482015290519081900360640190fd5b505050505050565b61228c611cef565b61229557600080fd5b606854600160a01b900460ff166122eb5760408051600160e51b62461bcd02815260206004820152600f60248201526001608a1b6e1313d0d2d7d11154149150d055115102604482015290519081900360640190fd5b6040517f25a311358326fb18c62efc24bc28d3126acee8d2a67fd8b2145b757dc8bd1bc190600090a16068805474ff000000000000000000000000000000000000000019169055565b600154610100900460ff168061234d575061234d613221565b8061235b575060015460ff16155b61239957604051600160e51b62461bcd02815260040180806020018281038252602e81526020018061334a602e913960400191505060405180910390fd5b6001805461010061ff00198216811760ff19168317909255603480546001600160a01b0319166001600160a01b0385811691909117918290556040519390920460ff16929116906000907f8be0079c531659141344cd1fd0a4f28419497f9722a3daafe3b4186f6b6457e0908290a3600180549115156101000261ff001990921691909117905550565b606e5460ff1681565b60755481565b6001600160a01b03918216600090815260736020908152604080832093909416825291909152205460ff1690565b612468611cef565b61247157600080fd5b6117a781613227565b606854600160a01b900460ff166124d05760408051600160e51b62461bcd02815260206004820152600f60248201526001608a1b6e1313d0d2d7d11154149150d055115102604482015290519081900360640190fd5b6117a7816000612cc4565b6124e3611cef565b6124ec57600080fd5b60005b828110156125245761251c84848381811061250657fe5b905060200201356001600160a01b031683612fab565b6001016124ef565b50505050565b6000818152607260205260408120546001600160a01b0316806110045760408051600160e51b62461bcd02815260206004820152600d60248201527f4e4f4e455f415050524f56454400000000000000000000000000000000000000604482015290519081900360640190fd5b600091825260726020526040909120546001600160a01b0391821691161490565b6001600160a01b03166000908152606f6020526040902090565b6000816125de8161192e565b6126255760408051600160e51b62461bcd02815260206004820152600d60248201526001609a1b6c12d15657d393d517d59053125102604482015290519081900360640190fd5b6000612630846125b8565b90506000428260010154039050606a54811061265057606b549350612671565b606a54606b54612666908363ffffffff6130c116565b8161266d57fe5b0493505b600060775461268d607654606b546130c190919063ffffffff16565b8161269457fe5b049050808511156126a95780850394506126ae565b600094505b50505050919050565b6068546001600160a01b0316612703576040516001600160a01b0383169082156108fc029083906000818181858888f193505050501580156126fd573d6000803e3d6000fd5b50611425565b60685460408051600160e01b6370a082310281526001600160a01b0385811660048301529151919092169160009183916370a08231916024808301926020929190829003018186803b15801561275857600080fd5b505afa15801561276c573d6000803e3d6000fd5b505050506040513d602081101561278257600080fd5b505160408051600160e01b63a9059cbb0281526001600160a01b0387811660048301526024820187905291519293509084169163a9059cbb916044808201926020929091908290030181600087803b1580156127dd57600080fd5b505af11580156127f1573d6000803e3d6000fd5b505050506040513d602081101561280757600080fd5b505060408051600160e01b6370a082310281526001600160a01b038681166004830152915183928516916370a08231916024808301926020929190829003018186803b15801561285657600080fd5b505afa15801561286a573d6000803e3d6000fd5b505050506040513d602081101561288057600080fd5b5051116125245760408051600160e51b62461bcd02815260206004820152600f60248201526001608a1b6e1514905394d1915497d1905253115102604482015290519081900360640190fd5b6068546001600160a01b031661292f578034101561292a5760408051600160e51b62461bcd0281526020600482015260106024820152600160801b6f4e4f545f454e4f5547485f46554e445302604482015290519081900360640190fd5b6117a7565b60685460408051600160e01b6370a0823102815230600482015290516001600160a01b039092169160009183916370a0823191602480820192602092909190829003018186803b15801561298257600080fd5b505afa158015612996573d6000803e3d6000fd5b505050506040513d60208110156129ac57600080fd5b505160408051600160e01b6323b872dd0281523360048201523060248201526044810186905290519192506001600160a01b038416916323b872dd916064808201926020929091908290030181600087803b158015612a0a57600080fd5b505af1158015612a1e573d6000803e3d6000fd5b505050506040513d6020811015612a3457600080fd5b505060408051600160e01b6370a08231028152306004820152905182916001600160a01b038516916370a0823191602480820192602092909190829003018186803b158015612a8257600080fd5b505afa158015612a96573d6000803e3d6000fd5b505050506040513d6020811015612aac57600080fd5b5051116118855760408051600160e51b62461bcd02815260206004820152600f60248201526001608a1b6e1514905394d1915497d1905253115102604482015290519081900360640190fd5b6000818152607060205260409020546001600160a01b038381169116146114255760718054600181019091557fa1fcd19bfe8c32a61095b6bfbb2664842857e148fcbb5188386c8cd40348d5b60180546001600160a01b0384166001600160a01b031991821681179092556000838152607060205260409020805490911690911790555050565b600082820183811015612b9157600080fd5b9392505050565b6000818152607260205260409020546001600160a01b0316156117a757600090815260726020526040902080546001600160a01b0319169055565b6068546000906001600160a01b0316612bf757506001600160a01b03811631610f36565b60685460408051600160e01b6370a082310281526001600160a01b038581166004830152915191909216916370a08231916024808301926020929190829003018186803b158015612c4757600080fd5b505afa158015612c5b573d6000803e3d6000fd5b505050506040513d6020811015612c7157600080fd5b50519050610f36565b612c8b612c85611ce0565b826126b7565b60408051828152905133917f7fcf532c15f0a6db0bd6d0e038bea71d30d808c7d98cb3bf7268a95bf5081b65919081900360200190a250565b606d54606c5411612d1f5760408051600160e51b62461bcd02815260206004820152600d60248201527f4c4f434b5f534f4c445f4f555400000000000000000000000000000000000000604482015290519081900360640190fd5b6001600160a01b038216612d725760408051600160e51b62461bcd02815260206004820152600f6024820152600160881b6e494e56414c49445f4144445245535302604482015290519081900360640190fd5b606b5460695460408051600160e01b630cb175e30281526001600160a01b03868116600483015260248201859052825160009586959094921692630cb175e3926044808301939192829003018186803b158015612dce57600080fd5b505afa158015612de2573d6000803e3d6000fd5b505050506040513d6040811015612df857600080fd5b50805160209091015190935091508080841115612e1757506000612e1c565b508281035b612e25816128cc565b6000612e30876125b8565b600181015490915042811015612e6657612e4982613296565b612e57888360000154612af8565b606a5442016001830155612e80565b606a54612e7a90829063ffffffff612b7f16565b60018301555b8515612ef65760695460408051600160e01b6336524663028152600481018990526024810188905290516001600160a01b039092169163365246639160448082019260009290919082900301818387803b158015612edd57600080fd5b505af1158015612ef1573d6000803e3d6000fd5b505050505b60695460408051600160e01b63939d9f1f028152600481018690526001600160a01b038a811660248301529151919092169163939d9f1f91604480830192600092919082900301818387803b158015612f4e57600080fd5b505af1158015612f62573d6000803e3d6000fd5b5050606d546040519092506001600160a01b038b1691506000907fddf252ad1be2c89b69c2b068fc378daa952ba7f163c4a11628f55a4df523b3ef908290a45050505050505050565b6001600160a01b038216612ffe5760408051600160e51b62461bcd02815260206004820152600f6024820152600160881b6e494e56414c49445f4144445245535302604482015290519081900360640190fd5b6000613009836125b8565b9050806001015482116130665760408051600160e51b62461bcd02815260206004820152601060248201527f414c52454144595f4f574e535f4b455900000000000000000000000000000000604482015290519081900360640190fd5b61306f81613296565b61307d838260000154612af8565b6001810182905580546040516001600160a01b038516906000907fddf252ad1be2c89b69c2b068fc378daa952ba7f163c4a11628f55a4df523b3ef908290a4505050565b6000826130d057506000611004565b828202828482816130dd57fe5b0414612b9157600080fd5b60006130fc846001600160a01b03166132ab565b61310857506001611301565b604051600160e11b630a85bd0102815233600482018181526001600160a01b03888116602485015260448401879052608060648501908152865160848601528651600095928a169463150b7a029490938c938b938b939260a4019060208501908083838e5b8381101561318557818101518382015260200161316d565b50505050905090810190601f1680156131b25780820380516001836020036101000a031916815260200191505b5095505050505050602060405180830381600087803b1580156131d457600080fd5b505af11580156131e8573d6000803e3d6000fd5b505050506040513d60208110156131fe57600080fd5b50516001600160e01b031916600160e11b630a85bd010214915050949350505050565b303b1590565b6001600160a01b03811661323a57600080fd5b6034546040516001600160a01b038084169216907f8be0079c531659141344cd1fd0a4f28419497f9722a3daafe3b4186f6b6457e090600090a3603480546001600160a01b0319166001600160a01b0392909216919091179055565b80546117a757606d8054600101908190559055565b3b151590565b828054600181600116156101000203166002900490600052602060002090601f016020900481019282601f106132f25782800160ff1982351617855561331f565b8280016001018555821561331f579182015b8281111561331f578235825591602001919060010190613304565b5061332b92915061332f565b5090565b610ff691905b8082111561332b576000815560010161333556fe436f6e747261637420696e7374616e63652068617320616c7265616479206265656e20696e697469616c697a6564a165627a7a7230582090e2645e8f5c8a27b9aa3e516ad14db63bd34f8938f3f859e51115419dc428460029436f6e747261637420696e7374616e63652068617320616c7265616479206265656e20696e697469616c697a6564",
  "source": "pragma solidity 0.5.7;\n\nimport './interfaces/IERC721.sol';\nimport 'openzeppelin-eth/contracts/ownership/Ownable.sol';\nimport 'openzeppelin-solidity/contracts/introspection/ERC165.sol';\nimport 'openzeppelin-solidity/contracts/token/ERC721/ERC721Holder.sol';\nimport './mixins/MixinApproval.sol';\nimport './mixins/MixinDisableAndDestroy.sol';\nimport './mixins/MixinFunds.sol';\nimport './mixins/MixinGrantKeys.sol';\nimport './mixins/MixinKeys.sol';\nimport './mixins/MixinLockCore.sol';\nimport './mixins/MixinLockMetadata.sol';\nimport './mixins/MixinNoFallback.sol';\nimport './mixins/MixinPurchase.sol';\nimport './mixins/MixinRefunds.sol';\nimport './mixins/MixinTransfer.sol';\n\n\n/**\n * @title The Lock contract\n * @author Julien Genestoux (unlock-protocol.com)\n * Eventually: implement ERC721.\n * @dev ERC165 allows our contract to be queried to determine whether it implements a given interface.\n * Every ERC-721 compliant contract must implement the ERC165 interface.\n * https://eips.ethereum.org/EIPS/eip-721\n */\ncontract PublicLock is\n  IERC721,\n  MixinNoFallback,\n  ERC165,\n  Ownable,\n  ERC721Holder,\n  MixinLockMetadata,\n  MixinFunds,\n  MixinDisableAndDestroy,\n  MixinLockCore,\n  MixinKeys,\n  MixinGrantKeys,\n  MixinPurchase,\n  MixinApproval,\n  MixinTransfer,\n  MixinRefunds\n{\n  constructor(\n    address _owner,\n    uint _expirationDuration,\n    address _tokenAddress,\n    uint _keyPrice,\n    uint _maxNumberOfKeys\n  )\n    public\n    MixinFunds(_tokenAddress)\n    MixinLockCore(_expirationDuration, _keyPrice, _maxNumberOfKeys, 1)\n  {\n    // registering the interface for erc721 with ERC165.sol using\n    // the ID specified in the standard: https://eips.ethereum.org/EIPS/eip-721\n    _registerInterface(0x80ac58cd);\n    // We must manually initialize Ownable.sol\n    Ownable.initialize(_owner);\n  }\n}\n",
  "sourcePath": "/Users/julien/repos/unlock-shadow/smart-contracts/contracts/PublicLock.sol",
  "compiler": {
    "name": "solc",
    "version": "0.5.7+commit.6da8b019.Emscripten.clang"
  },
  "schemaVersion": "3.0.6",
  "updatedAt": "2019-04-18T21:59:58.635Z",
  "devdoc": {
    "author": "Julien Genestoux (unlock-protocol.com) Eventually: implement ERC721.",
    "details": "ERC165 allows our contract to be queried to determine whether it implements a given interface. Every ERC-721 compliant contract must implement the ERC165 interface. https://eips.ethereum.org/EIPS/eip-721",
    "methods": {
      "balanceOf(address)": {
        "return": "The number of NFTs owned by `_owner`, either 0 or 1."
      },
      "cancelAndRefund()": {
        "details": "Destroys the user's key and sends a refund based on the amount of time remaining."
      },
      "destroyLock()": {
        "details": "Used to clean up old lock contracts from the blockchain TODO: add a check to ensure all keys are INVALID!"
      },
      "disableLock()": {
        "details": "Used to disable lock before migrating keys and/or destroying contract"
      },
      "getCancelAndRefundValueFor(address)": {
        "details": "Determines how much of a refund a key owner would receive if they issued a cancelAndRefund block.timestamp. Note that due to the time required to mine a tx, the actual refund amount will be lower than what the user reads from this call."
      },
      "getOwnersByPage(uint256,uint256)": {
        "params": {
          "_page": "the page of key owners requested when faceted by page size",
          "_pageSize": "the number of Key Owners requested per page"
        }
      },
      "getTokenIdFor(address)": {
        "return": "The tokenId of the NFT, else revert"
      },
      "getTransferFee(address)": {
        "params": {
          "_owner": "The owner of the key check the transfer fee for."
        }
      },
      "initialize(address)": {
        "details": "The Ownable constructor sets the original `owner` of the contract to the sender account."
      },
      "isApprovedForAll(address,address)": {
        "details": "Tells whether an operator is approved by a given owner",
        "params": {
          "_operator": "operator address which you want to query the approval of",
          "_owner": "owner address which you want to query the approval of"
        },
        "return": "bool whether the given operator is approved by the given owner"
      },
      "isOwner()": {
        "return": "true if `msg.sender` is the owner of the contract."
      },
      "keyExpirationTimestampFor(address)": {
        "details": "Returns the key's ExpirationTimestamp field for a given owner.",
        "params": {
          "_owner": "address of the user for whom we search the key"
        }
      },
      "name()": {
        "details": "Gets the token name",
        "return": "string representing the token name"
      },
      "owner()": {
        "return": "the address of the owner."
      },
      "ownerOf(uint256)": {
        "return": "The address of the owner of the NFT, if applicable"
      },
      "partialWithdraw(uint256)": {
        "details": "Called by owner to partially withdraw funds from the lock. TODO: consider allowing anybody to trigger this as long as it goes to owner anyway?"
      },
      "purchaseFor(address)": {
        "details": "Purchase function, public version, with no referrer.",
        "params": {
          "_recipient": "address of the recipient of the purchased key"
        }
      },
      "purchaseForFrom(address,address)": {
        "details": "Purchase function, public version, with referrer.",
        "params": {
          "_recipient": "address of the recipient of the purchased key",
          "_referrer": "address of the user making the referral"
        }
      },
      "renounceOwnership()": {
        "details": "Allows the current owner to relinquish control of the contract."
      },
      "safeTransferFrom(address,address,uint256)": {
        "details": "This works identically to the other function with an extra data parameter, except this function just sets data to ''",
        "params": {
          "_from": "The current owner of the NFT",
          "_to": "The new owner",
          "_tokenId": "The NFT to transfer"
        }
      },
      "safeTransferFrom(address,address,uint256,bytes)": {
        "params": {
          "_data": "Additional data with no specified format, sent in call to `_to`",
          "_from": "The current owner of the NFT",
          "_to": "The new owner",
          "_tokenId": "The NFT to transfer"
        }
      },
      "setApprovalForAll(address,bool)": {
        "details": "Sets or unsets the approval of a given operator An operator is allowed to transfer all tokens of the sender on their behalf",
        "params": {
          "_approved": "representing the status of the approval to be set",
          "_to": "operator address to set the approval"
        }
      },
      "supportsInterface(bytes4)": {
        "details": "implement supportsInterface(bytes4) using a lookup table"
      },
      "transferOwnership(address)": {
        "details": "Allows the current owner to transfer control of the contract to a newOwner.",
        "params": {
          "newOwner": "The address to transfer ownership to."
        }
      },
      "withdraw()": {
        "details": "Called by owner to withdraw all funds from the lock. TODO: consider allowing anybody to trigger this as long as it goes to owner anyway?"
      }
    },
    "title": "The Lock contract"
  },
  "userdoc": {
    "methods": {
      "approve(address,uint256)": {
        "notice": "This approves _approved to get ownership of _tokenId. Note: that since this is used for both purchase and transfer approvals the approved token may not exist."
      },
      "balanceOf(address)": {
        "notice": "In the specific case of a Lock, each owner can own only at most 1 key."
      },
      "expireKeyFor(address)": {
        "notice": "A function which lets the owner of the lock expire a users' key."
      },
      "getApproved(uint256)": {
        "notice": "external version Will return the approved recipient for a key, if any."
      },
      "getHasValidKey(address)": {
        "notice": "Checks if the user has a non-expired key."
      },
      "getOwnersByPage(uint256,uint256)": {
        "notice": "A function which returns a subset of the keys for this Lock as an array"
      },
      "getTokenIdFor(address)": {
        "notice": "Find the tokenId for a given user"
      },
      "getTransferFee(address)": {
        "notice": "Determines how much of a fee a key owner would need to pay in order to transfer the key to another account.  This is pro-rated so the fee goes down overtime."
      },
      "grantKey(address,uint256)": {
        "notice": "Allows the Lock owner to give a user a key with no charge."
      },
      "grantKeys(address[],uint256)": {
        "notice": "Allows the Lock owner to give a collection of users a key with no charge. All keys granted have the same expiration date."
      },
      "grantKeys(address[],uint256[])": {
        "notice": "Allows the Lock owner to give a collection of users a key with no charge. Each key may be assigned a different expiration date."
      },
      "isKeyOwner(uint256,address)": {
        "notice": "Checks if the given address owns the given tokenId."
      },
      "numberOfOwners()": {
        "notice": "Public function which returns the total number of unique owners (both expired and valid).  This may be larger than totalSupply."
      },
      "ownerOf(uint256)": {
        "notice": "ERC721: Find the owner of an NFT"
      },
      "renounceOwnership()": {
        "notice": "Renouncing to ownership will leave the contract without an owner. It will not be possible to call the functions with the `onlyOwner` modifier anymore."
      },
      "safeTransferFrom(address,address,uint256)": {
        "notice": "Transfers the ownership of an NFT from one address to another address"
      },
      "safeTransferFrom(address,address,uint256,bytes)": {
        "notice": "Transfers the ownership of an NFT from one address to another address. When transfer is complete, this functions checks if `_to` is a smart contract (code size > 0). If so, it calls `onERC721Received` on `_to` and throws if the return value is not `bytes4(keccak256('onERC721Received(address,address,uint,bytes)'))`."
      },
      "totalSupply()": {
        "notice": "Public function which returns the total number of unique keys sold (both expired and valid)"
      },
      "transferFrom(address,address,uint256)": {
        "notice": "This is payable because at some point we want to allow the LOCK to capture a fee on 2ndary market transactions..."
      },
      "updateKeyPrice(uint256)": {
        "notice": "A function which lets the owner of the lock to change the price for future purchases."
      },
      "updateLockName(string)": {
        "notice": "Allows the Lock owner to assign a descriptive name for this Lock."
      },
      "updateRefundPenalty(uint256,uint256)": {
        "notice": "Allow the owner to change the refund penalty."
      },
      "updateTransferFee(uint256,uint256)": {
        "notice": "Allow the Lock owner to change the transfer fee."
      }
    }
  }
}