{
  "_format": "hh-sol-artifact-1",
  "contractName": "AllowListHook",
  "sourceName": "contracts/AllowListHook.flatten.sol",
  "abi": [
    {
      "inputs": [],
      "name": "NOT_AUTHORIZED",
      "type": "error"
    },
    {
      "anonymous": false,
      "inputs": [
        {
          "indexed": false,
          "internalType": "address",
          "name": "lockAddress",
          "type": "address"
        },
        {
          "indexed": false,
          "internalType": "bytes32",
          "name": "root",
          "type": "bytes32"
        }
      ],
      "name": "MerkleRootSet",
      "type": "event"
    },
    {
      "inputs": [
        {
          "internalType": "address",
          "name": "",
          "type": "address"
        },
        {
          "internalType": "address",
          "name": "recipient",
          "type": "address"
        },
        {
          "internalType": "address",
          "name": "",
          "type": "address"
        },
        {
          "internalType": "bytes",
          "name": "proof",
          "type": "bytes"
        }
      ],
      "name": "keyPurchasePrice",
      "outputs": [
        {
          "internalType": "uint256",
          "name": "minKeyPrice",
          "type": "uint256"
        }
      ],
      "stateMutability": "view",
      "type": "function"
    },
    {
      "inputs": [
        {
          "internalType": "uint256",
          "name": "",
          "type": "uint256"
        },
        {
          "internalType": "address",
          "name": "",
          "type": "address"
        },
        {
          "internalType": "address",
          "name": "",
          "type": "address"
        },
        {
          "internalType": "address",
          "name": "",
          "type": "address"
        },
        {
          "internalType": "bytes",
          "name": "",
          "type": "bytes"
        },
        {
          "internalType": "uint256",
          "name": "",
          "type": "uint256"
        },
        {
          "internalType": "uint256",
          "name": "",
          "type": "uint256"
        }
      ],
      "name": "onKeyPurchase",
      "outputs": [],
      "stateMutability": "nonpayable",
      "type": "function"
    },
    {
      "inputs": [
        {
          "internalType": "address",
          "name": "",
          "type": "address"
        }
      ],
      "name": "roots",
      "outputs": [
        {
          "internalType": "bytes32",
          "name": "",
          "type": "bytes32"
        }
      ],
      "stateMutability": "view",
      "type": "function"
    },
    {
      "inputs": [
        {
          "internalType": "address",
          "name": "lockAddress",
          "type": "address"
        },
        {
          "internalType": "bytes32",
          "name": "root",
          "type": "bytes32"
        }
      ],
      "name": "setMerkleRootForLock",
      "outputs": [],
      "stateMutability": "nonpayable",
      "type": "function"
    }
  ],
  "bytecode": "0x608060405234801561000f575f80fd5b506106a48061001d5f395ff3fe608060405234801561000f575f80fd5b506004361061004a575f3560e01c8063221c1fd11461004e578063317e0401146100735780635e895f2914610088578063a4546876146100a0575b5f80fd5b61006161005c366004610478565b6100bf565b60405190815260200160405180910390f35b6100866100813660046104e9565b6101f5565b005b610086610096366004610511565b5050505050505050565b6100616100ae366004610599565b5f6020819052908152604090205481565b604080516001600160a01b03861660208201526001918101919091525f90819060600160408051601f198184030181528282528051602091820120908301520160405160208183030381529060405280519060200120905061016d61015885858080601f0160208091040260200160405190810160405280939291908181526020018383808284375f920191909152506102d092505050565b335f9081526020819052604090205483610386565b61018a57604051633d83866f60e01b815260040160405180910390fd5b336001600160a01b03166310e569736040518163ffffffff1660e01b8152600401602060405180830381865afa1580156101c6573d5f803e3d5ffd5b505050506040513d601f19601f820116820180604052508101906101ea91906105b2565b979650505050505050565b60405163aae4b8f760e01b815233600482015282906001600160a01b0382169063aae4b8f790602401602060405180830381865afa158015610239573d5f803e3d5ffd5b505050506040513d601f19601f8201168201806040525081019061025d91906105c9565b61027a57604051633d83866f60e01b815260040160405180910390fd5b6001600160a01b0383165f8181526020818152604091829020859055815192835282018490527f4ef92811960c6617dd84b673329cb6c4d277e6356640f9025b52373798fd62a4910160405180910390a1505050565b60605f602083516102e191906105fc565b90505f8167ffffffffffffffff8111156102fd576102fd61061b565b604051908082528060200260200182016040528015610326578160200160208202803683370190505b5090505f60205b8551811161037c575f8187015190508084848151811061034f5761034f61062f565b60209081029190910101528261036481610643565b93505050806020610375919061065b565b905061032d565b5090949350505050565b5f82610392858461039b565b14949350505050565b5f81815b84518110156103df576103cb828683815181106103be576103be61062f565b60200260200101516103e9565b9150806103d781610643565b91505061039f565b5090505b92915050565b5f818310610403575f828152602084905260409020610411565b5f8381526020839052604090205b9392505050565b80356001600160a01b038116811461042e575f80fd5b919050565b5f8083601f840112610443575f80fd5b50813567ffffffffffffffff81111561045a575f80fd5b602083019150836020828501011115610471575f80fd5b9250929050565b5f805f805f6080868803121561048c575f80fd5b61049586610418565b94506104a360208701610418565b93506104b160408701610418565b9250606086013567ffffffffffffffff8111156104cc575f80fd5b6104d888828901610433565b969995985093965092949392505050565b5f80604083850312156104fa575f80fd5b61050383610418565b946020939093013593505050565b5f805f805f805f8060e0898b031215610528575f80fd5b8835975061053860208a01610418565b965061054660408a01610418565b955061055460608a01610418565b9450608089013567ffffffffffffffff81111561056f575f80fd5b61057b8b828c01610433565b999c989b5096999598969760a08701359660c0013595509350505050565b5f602082840312156105a9575f80fd5b61041182610418565b5f602082840312156105c2575f80fd5b5051919050565b5f602082840312156105d9575f80fd5b81518015158114610411575f80fd5b634e487b7160e01b5f52601160045260245ffd5b5f8261061657634e487b7160e01b5f52601260045260245ffd5b500490565b634e487b7160e01b5f52604160045260245ffd5b634e487b7160e01b5f52603260045260245ffd5b5f60018201610654576106546105e8565b5060010190565b808201808211156103e3576103e36105e856fea2646970667358221220b44221ae7b87967adaf1a7f28d6b84580e885001eb71fe69d0f30d79f18354b964736f6c63430008150033",
  "linkReferences": {},
  "deployedLinkReferences": {}
}