{
  "_format": "hh-sol-artifact-1",
  "contractName": "UnlockV14",
  "sourceName": "contracts/Unlock/UnlockV14.sol",
  "abi": [
    {
      "inputs": [],
      "name": "Unlock__ALREADY_DEPLOYED",
      "type": "error"
    },
    {
      "inputs": [
        {
          "internalType": "uint256",
          "name": "callIndex",
          "type": "uint256"
        }
      ],
      "name": "Unlock__FAILED_LOCK_CALL",
      "type": "error"
    },
    {
      "inputs": [],
      "name": "Unlock__INVALID_AMOUNT",
      "type": "error"
    },
    {
      "inputs": [],
      "name": "Unlock__INVALID_TOKEN",
      "type": "error"
    },
    {
      "inputs": [],
      "name": "Unlock__MANAGER_ONLY",
      "type": "error"
    },
    {
      "inputs": [
        {
          "internalType": "address",
          "name": "lockAddress",
          "type": "address"
        }
      ],
      "name": "Unlock__MISSING_LOCK",
      "type": "error"
    },
    {
      "inputs": [],
      "name": "Unlock__MISSING_LOCK_TEMPLATE",
      "type": "error"
    },
    {
      "inputs": [],
      "name": "Unlock__MISSING_PROXY_ADMIN",
      "type": "error"
    },
    {
      "inputs": [],
      "name": "Unlock__MISSING_TEMPLATE",
      "type": "error"
    },
    {
      "inputs": [],
      "name": "Unlock__VERSION_TOO_HIGH",
      "type": "error"
    },
    {
      "anonymous": false,
      "inputs": [
        {
          "indexed": false,
          "internalType": "address",
          "name": "governanceToken",
          "type": "address"
        },
        {
          "indexed": false,
          "internalType": "address",
          "name": "weth",
          "type": "address"
        },
        {
          "indexed": false,
          "internalType": "uint256",
          "name": "estimatedGasForPurchase",
          "type": "uint256"
        },
        {
          "indexed": false,
          "internalType": "string",
          "name": "globalTokenSymbol",
          "type": "string"
        },
        {
          "indexed": false,
          "internalType": "string",
          "name": "globalTokenURI",
          "type": "string"
        },
        {
          "indexed": false,
          "internalType": "uint256",
          "name": "chainId",
          "type": "uint256"
        }
      ],
      "name": "ConfigUnlock",
      "type": "event"
    },
    {
      "anonymous": false,
      "inputs": [
        {
          "indexed": false,
          "internalType": "uint256",
          "name": "grossNetworkProduct",
          "type": "uint256"
        },
        {
          "indexed": false,
          "internalType": "uint256",
          "name": "_valueInETH",
          "type": "uint256"
        },
        {
          "indexed": false,
          "internalType": "address",
          "name": "tokenAddress",
          "type": "address"
        },
        {
          "indexed": false,
          "internalType": "uint256",
          "name": "value",
          "type": "uint256"
        },
        {
          "indexed": false,
          "internalType": "address",
          "name": "lockAddress",
          "type": "address"
        }
      ],
      "name": "GNPChanged",
      "type": "event"
    },
    {
      "anonymous": false,
      "inputs": [
        {
          "indexed": false,
          "internalType": "address",
          "name": "lockAddress",
          "type": "address"
        }
      ],
      "name": "LockBurned",
      "type": "event"
    },
    {
      "anonymous": false,
      "inputs": [
        {
          "indexed": false,
          "internalType": "address",
          "name": "lockAddress",
          "type": "address"
        },
        {
          "indexed": false,
          "internalType": "uint16",
          "name": "version",
          "type": "uint16"
        }
      ],
      "name": "LockUpgraded",
      "type": "event"
    },
    {
      "anonymous": false,
      "inputs": [
        {
          "indexed": true,
          "internalType": "address",
          "name": "lockOwner",
          "type": "address"
        },
        {
          "indexed": true,
          "internalType": "address",
          "name": "newLockAddress",
          "type": "address"
        }
      ],
      "name": "NewLock",
      "type": "event"
    },
    {
      "anonymous": false,
      "inputs": [
        {
          "indexed": true,
          "internalType": "address",
          "name": "previousOwner",
          "type": "address"
        },
        {
          "indexed": true,
          "internalType": "address",
          "name": "newOwner",
          "type": "address"
        }
      ],
      "name": "OwnershipTransferred",
      "type": "event"
    },
    {
      "anonymous": false,
      "inputs": [
        {
          "indexed": false,
          "internalType": "uint256",
          "name": "grossNetworkProduct",
          "type": "uint256"
        },
        {
          "indexed": false,
          "internalType": "uint256",
          "name": "totalDiscountGranted",
          "type": "uint256"
        }
      ],
      "name": "ResetTrackedValue",
      "type": "event"
    },
    {
      "anonymous": false,
      "inputs": [
        {
          "indexed": false,
          "internalType": "address",
          "name": "publicLockAddress",
          "type": "address"
        }
      ],
      "name": "SetLockTemplate",
      "type": "event"
    },
    {
      "anonymous": false,
      "inputs": [
        {
          "indexed": true,
          "internalType": "address",
          "name": "oldAddress",
          "type": "address"
        },
        {
          "indexed": true,
          "internalType": "address",
          "name": "newAddress",
          "type": "address"
        }
      ],
      "name": "SwapBurnerChanged",
      "type": "event"
    },
    {
      "anonymous": false,
      "inputs": [
        {
          "indexed": true,
          "internalType": "address",
          "name": "impl",
          "type": "address"
        },
        {
          "indexed": true,
          "internalType": "uint16",
          "name": "version",
          "type": "uint16"
        }
      ],
      "name": "UnlockTemplateAdded",
      "type": "event"
    },
    {
      "inputs": [
        {
          "internalType": "address",
          "name": "sender",
          "type": "address"
        }
      ],
      "name": "__initializeOwnable",
      "outputs": [],
      "stateMutability": "nonpayable",
      "type": "function"
    },
    {
      "inputs": [
        {
          "internalType": "address",
          "name": "impl",
          "type": "address"
        },
        {
          "internalType": "uint16",
          "name": "version",
          "type": "uint16"
        }
      ],
      "name": "addLockTemplate",
      "outputs": [],
      "stateMutability": "nonpayable",
      "type": "function"
    },
    {
      "inputs": [
        {
          "internalType": "address",
          "name": "lockAddress",
          "type": "address"
        }
      ],
      "name": "burnLock",
      "outputs": [],
      "stateMutability": "nonpayable",
      "type": "function"
    },
    {
      "inputs": [],
      "name": "burnedLockImpl",
      "outputs": [
        {
          "internalType": "address",
          "name": "",
          "type": "address"
        }
      ],
      "stateMutability": "view",
      "type": "function"
    },
    {
      "inputs": [],
      "name": "chainId",
      "outputs": [
        {
          "internalType": "uint256",
          "name": "",
          "type": "uint256"
        }
      ],
      "stateMutability": "view",
      "type": "function"
    },
    {
      "inputs": [
        {
          "internalType": "address",
          "name": "",
          "type": "address"
        },
        {
          "internalType": "uint256",
          "name": "",
          "type": "uint256"
        }
      ],
      "name": "computeAvailableDiscountFor",
      "outputs": [
        {
          "internalType": "uint256",
          "name": "discount",
          "type": "uint256"
        },
        {
          "internalType": "uint256",
          "name": "tokens",
          "type": "uint256"
        }
      ],
      "stateMutability": "pure",
      "type": "function"
    },
    {
      "inputs": [
        {
          "internalType": "address",
          "name": "_governanceToken",
          "type": "address"
        },
        {
          "internalType": "address",
          "name": "_weth",
          "type": "address"
        },
        {
          "internalType": "uint256",
          "name": "_estimatedGasForPurchase",
          "type": "uint256"
        },
        {
          "internalType": "string",
          "name": "_symbol",
          "type": "string"
        },
        {
          "internalType": "string",
          "name": "_URI",
          "type": "string"
        },
        {
          "internalType": "uint256",
          "name": "_chainId",
          "type": "uint256"
        }
      ],
      "name": "configUnlock",
      "outputs": [],
      "stateMutability": "nonpayable",
      "type": "function"
    },
    {
      "inputs": [
        {
          "internalType": "uint256",
          "name": "_expirationDuration",
          "type": "uint256"
        },
        {
          "internalType": "address",
          "name": "_tokenAddress",
          "type": "address"
        },
        {
          "internalType": "uint256",
          "name": "_keyPrice",
          "type": "uint256"
        },
        {
          "internalType": "uint256",
          "name": "_maxNumberOfKeys",
          "type": "uint256"
        },
        {
          "internalType": "string",
          "name": "_lockName",
          "type": "string"
        },
        {
          "internalType": "bytes12",
          "name": "",
          "type": "bytes12"
        }
      ],
      "name": "createLock",
      "outputs": [
        {
          "internalType": "address",
          "name": "",
          "type": "address"
        }
      ],
      "stateMutability": "nonpayable",
      "type": "function"
    },
    {
      "inputs": [
        {
          "internalType": "bytes",
          "name": "data",
          "type": "bytes"
        }
      ],
      "name": "createUpgradeableLock",
      "outputs": [
        {
          "internalType": "address",
          "name": "",
          "type": "address"
        }
      ],
      "stateMutability": "nonpayable",
      "type": "function"
    },
    {
      "inputs": [
        {
          "internalType": "bytes",
          "name": "data",
          "type": "bytes"
        },
        {
          "internalType": "uint16",
          "name": "lockVersion",
          "type": "uint16"
        },
        {
          "internalType": "bytes[]",
          "name": "transactions",
          "type": "bytes[]"
        }
      ],
      "name": "createUpgradeableLockAtVersion",
      "outputs": [
        {
          "internalType": "address",
          "name": "newLock",
          "type": "address"
        }
      ],
      "stateMutability": "nonpayable",
      "type": "function"
    },
    {
      "inputs": [
        {
          "internalType": "bytes",
          "name": "data",
          "type": "bytes"
        },
        {
          "internalType": "uint16",
          "name": "lockVersion",
          "type": "uint16"
        }
      ],
      "name": "createUpgradeableLockAtVersion",
      "outputs": [
        {
          "internalType": "address",
          "name": "",
          "type": "address"
        }
      ],
      "stateMutability": "nonpayable",
      "type": "function"
    },
    {
      "inputs": [],
      "name": "estimatedGasForPurchase",
      "outputs": [
        {
          "internalType": "uint256",
          "name": "",
          "type": "uint256"
        }
      ],
      "stateMutability": "view",
      "type": "function"
    },
    {
      "inputs": [],
      "name": "getAdmin",
      "outputs": [
        {
          "internalType": "address",
          "name": "",
          "type": "address"
        }
      ],
      "stateMutability": "view",
      "type": "function"
    },
    {
      "inputs": [],
      "name": "getGlobalBaseTokenURI",
      "outputs": [
        {
          "internalType": "string",
          "name": "",
          "type": "string"
        }
      ],
      "stateMutability": "view",
      "type": "function"
    },
    {
      "inputs": [],
      "name": "getGlobalTokenSymbol",
      "outputs": [
        {
          "internalType": "string",
          "name": "",
          "type": "string"
        }
      ],
      "stateMutability": "view",
      "type": "function"
    },
    {
      "inputs": [],
      "name": "globalBaseTokenURI",
      "outputs": [
        {
          "internalType": "string",
          "name": "",
          "type": "string"
        }
      ],
      "stateMutability": "view",
      "type": "function"
    },
    {
      "inputs": [],
      "name": "globalTokenSymbol",
      "outputs": [
        {
          "internalType": "string",
          "name": "",
          "type": "string"
        }
      ],
      "stateMutability": "view",
      "type": "function"
    },
    {
      "inputs": [],
      "name": "governanceToken",
      "outputs": [
        {
          "internalType": "address",
          "name": "",
          "type": "address"
        }
      ],
      "stateMutability": "view",
      "type": "function"
    },
    {
      "inputs": [],
      "name": "grossNetworkProduct",
      "outputs": [
        {
          "internalType": "uint256",
          "name": "",
          "type": "uint256"
        }
      ],
      "stateMutability": "view",
      "type": "function"
    },
    {
      "inputs": [
        {
          "internalType": "address",
          "name": "_unlockOwner",
          "type": "address"
        }
      ],
      "name": "initialize",
      "outputs": [],
      "stateMutability": "nonpayable",
      "type": "function"
    },
    {
      "inputs": [],
      "name": "initializeProxyAdmin",
      "outputs": [],
      "stateMutability": "nonpayable",
      "type": "function"
    },
    {
      "inputs": [],
      "name": "isOwner",
      "outputs": [
        {
          "internalType": "bool",
          "name": "",
          "type": "bool"
        }
      ],
      "stateMutability": "view",
      "type": "function"
    },
    {
      "inputs": [
        {
          "internalType": "address",
          "name": "",
          "type": "address"
        }
      ],
      "name": "locks",
      "outputs": [
        {
          "internalType": "bool",
          "name": "deployed",
          "type": "bool"
        },
        {
          "internalType": "uint256",
          "name": "totalSales",
          "type": "uint256"
        },
        {
          "internalType": "uint256",
          "name": "yieldedDiscountTokens",
          "type": "uint256"
        }
      ],
      "stateMutability": "view",
      "type": "function"
    },
    {
      "inputs": [],
      "name": "networkBaseFee",
      "outputs": [
        {
          "internalType": "uint256",
          "name": "",
          "type": "uint256"
        }
      ],
      "stateMutability": "view",
      "type": "function"
    },
    {
      "inputs": [],
      "name": "owner",
      "outputs": [
        {
          "internalType": "address",
          "name": "",
          "type": "address"
        }
      ],
      "stateMutability": "view",
      "type": "function"
    },
    {
      "inputs": [],
      "name": "postLockUpgrade",
      "outputs": [],
      "stateMutability": "nonpayable",
      "type": "function"
    },
    {
      "inputs": [],
      "name": "protocolFee",
      "outputs": [
        {
          "internalType": "uint256",
          "name": "",
          "type": "uint256"
        }
      ],
      "stateMutability": "view",
      "type": "function"
    },
    {
      "inputs": [],
      "name": "proxyAdminAddress",
      "outputs": [
        {
          "internalType": "address",
          "name": "",
          "type": "address"
        }
      ],
      "stateMutability": "view",
      "type": "function"
    },
    {
      "inputs": [],
      "name": "publicLockAddress",
      "outputs": [
        {
          "internalType": "address",
          "name": "",
          "type": "address"
        }
      ],
      "stateMutability": "view",
      "type": "function"
    },
    {
      "inputs": [
        {
          "internalType": "uint16",
          "name": "_version",
          "type": "uint16"
        }
      ],
      "name": "publicLockImpls",
      "outputs": [
        {
          "internalType": "address",
          "name": "",
          "type": "address"
        }
      ],
      "stateMutability": "view",
      "type": "function"
    },
    {
      "inputs": [],
      "name": "publicLockLatestVersion",
      "outputs": [
        {
          "internalType": "uint16",
          "name": "",
          "type": "uint16"
        }
      ],
      "stateMutability": "view",
      "type": "function"
    },
    {
      "inputs": [
        {
          "internalType": "address",
          "name": "_impl",
          "type": "address"
        }
      ],
      "name": "publicLockVersions",
      "outputs": [
        {
          "internalType": "uint16",
          "name": "",
          "type": "uint16"
        }
      ],
      "stateMutability": "view",
      "type": "function"
    },
    {
      "inputs": [
        {
          "internalType": "uint256",
          "name": "",
          "type": "uint256"
        },
        {
          "internalType": "uint256",
          "name": "",
          "type": "uint256"
        }
      ],
      "name": "recordConsumedDiscount",
      "outputs": [],
      "stateMutability": "view",
      "type": "function"
    },
    {
      "inputs": [
        {
          "internalType": "uint256",
          "name": "_value",
          "type": "uint256"
        },
        {
          "internalType": "address",
          "name": "_referrer",
          "type": "address"
        }
      ],
      "name": "recordKeyPurchase",
      "outputs": [],
      "stateMutability": "nonpayable",
      "type": "function"
    },
    {
      "inputs": [
        {
          "internalType": "address",
          "name": "lock",
          "type": "address"
        }
      ],
      "name": "removeLock",
      "outputs": [],
      "stateMutability": "nonpayable",
      "type": "function"
    },
    {
      "inputs": [],
      "name": "renounceOwnership",
      "outputs": [],
      "stateMutability": "nonpayable",
      "type": "function"
    },
    {
      "inputs": [
        {
          "internalType": "uint256",
          "name": "_grossNetworkProduct",
          "type": "uint256"
        },
        {
          "internalType": "uint256",
          "name": "_totalDiscountGranted",
          "type": "uint256"
        }
      ],
      "name": "resetTrackedValue",
      "outputs": [],
      "stateMutability": "nonpayable",
      "type": "function"
    },
    {
      "inputs": [
        {
          "internalType": "address",
          "name": "implAddress",
          "type": "address"
        }
      ],
      "name": "setBurnedLockImpl",
      "outputs": [],
      "stateMutability": "nonpayable",
      "type": "function"
    },
    {
      "inputs": [
        {
          "internalType": "address",
          "name": "_publicLockAddress",
          "type": "address"
        }
      ],
      "name": "setLockTemplate",
      "outputs": [],
      "stateMutability": "nonpayable",
      "type": "function"
    },
    {
      "inputs": [
        {
          "internalType": "address",
          "name": "_tokenAddress",
          "type": "address"
        },
        {
          "internalType": "address",
          "name": "_oracleAddress",
          "type": "address"
        }
      ],
      "name": "setOracle",
      "outputs": [],
      "stateMutability": "nonpayable",
      "type": "function"
    },
    {
      "inputs": [
        {
          "internalType": "uint256",
          "name": "_protocolFee",
          "type": "uint256"
        }
      ],
      "name": "setProtocolFee",
      "outputs": [],
      "stateMutability": "nonpayable",
      "type": "function"
    },
    {
      "inputs": [
        {
          "internalType": "address",
          "name": "_swapBurnerAddress",
          "type": "address"
        }
      ],
      "name": "setSwapBurner",
      "outputs": [],
      "stateMutability": "nonpayable",
      "type": "function"
    },
    {
      "inputs": [
        {
          "internalType": "address",
          "name": "token",
          "type": "address"
        },
        {
          "internalType": "uint256",
          "name": "amount",
          "type": "uint256"
        },
        {
          "internalType": "uint24",
          "name": "poolFee",
          "type": "uint24"
        }
      ],
      "name": "swapAndBurn",
      "outputs": [],
      "stateMutability": "nonpayable",
      "type": "function"
    },
    {
      "inputs": [],
      "name": "swapBurnerAddress",
      "outputs": [
        {
          "internalType": "address",
          "name": "",
          "type": "address"
        }
      ],
      "stateMutability": "view",
      "type": "function"
    },
    {
      "inputs": [],
      "name": "totalDiscountGranted",
      "outputs": [
        {
          "internalType": "uint256",
          "name": "",
          "type": "uint256"
        }
      ],
      "stateMutability": "view",
      "type": "function"
    },
    {
      "inputs": [
        {
          "internalType": "address",
          "name": "newOwner",
          "type": "address"
        }
      ],
      "name": "transferOwnership",
      "outputs": [],
      "stateMutability": "nonpayable",
      "type": "function"
    },
    {
      "inputs": [
        {
          "internalType": "address",
          "name": "token",
          "type": "address"
        },
        {
          "internalType": "address",
          "name": "to",
          "type": "address"
        },
        {
          "internalType": "uint256",
          "name": "amount",
          "type": "uint256"
        }
      ],
      "name": "transferTokens",
      "outputs": [],
      "stateMutability": "nonpayable",
      "type": "function"
    },
    {
      "inputs": [],
      "name": "udt",
      "outputs": [
        {
          "internalType": "address",
          "name": "",
          "type": "address"
        }
      ],
      "stateMutability": "view",
      "type": "function"
    },
    {
      "inputs": [
        {
          "internalType": "address",
          "name": "",
          "type": "address"
        }
      ],
      "name": "uniswapOracles",
      "outputs": [
        {
          "internalType": "contract IUniswapOracleV3",
          "name": "",
          "type": "address"
        }
      ],
      "stateMutability": "view",
      "type": "function"
    },
    {
      "inputs": [],
      "name": "unlockVersion",
      "outputs": [
        {
          "internalType": "uint16",
          "name": "",
          "type": "uint16"
        }
      ],
      "stateMutability": "pure",
      "type": "function"
    },
    {
      "inputs": [
        {
          "internalType": "address payable",
          "name": "lockAddress",
          "type": "address"
        },
        {
          "internalType": "uint16",
          "name": "version",
          "type": "uint16"
        }
      ],
      "name": "upgradeLock",
      "outputs": [
        {
          "internalType": "address",
          "name": "",
          "type": "address"
        }
      ],
      "stateMutability": "nonpayable",
      "type": "function"
    },
    {
      "inputs": [],
      "name": "weth",
      "outputs": [
        {
          "internalType": "address",
          "name": "",
          "type": "address"
        }
      ],
      "stateMutability": "view",
      "type": "function"
    },
    {
      "stateMutability": "payable",
      "type": "receive"
    }
  ],
  "bytecode": "0x608060405234801561000f575f80fd5b506143498061001d5f395ff3fe608060405260043610620002f6575f3560e01c80638da5cb5b116200018a578063c4d66de811620000da578063d6e9e803116200008e578063d6e9e80314620009b1578063da89c7e914620009c8578063ed9674bd14620009ec578063ef67fde61462000a03578063f2fde38b1462000a27578063f83289911462000a4b578063f96dae0a1462000a6c575f80fd5b8063c4d66de814620008fb578063c7d7d0c9146200091f578063caeee3a31462000936578063ccf54648146200095a578063cd93b532146200097e578063cec41052146200099a575f80fd5b8063a5eb88fc116200013e578063a5eb88fc146200082c578063a64b6e5f1462000850578063a998e9fb1462000874578063b0ca0c83146200088b578063b0e21e8a14620008af578063b5e60fc514620008c6578063ba5ea0d514620008e7575f80fd5b80638da5cb5b146200076f5780638f32d59b146200078e578063939d9f1f14620007b6578063963a947814620007da5780639a8a059214620007fe578063a082eb0e1462000815575f80fd5b80635979e75511620002465780636bfe257d11620001fa5780636bfe257d14620006715780636e9960c31462000695578063715018a614620006d3578063743bbc2f14620006ea578063787dce3d14620007105780637d8fb64114620007345780637ff94bb21462000758575f80fd5b80635979e75514620005375780635c38eb3a14620005585780635de9a137146200057c5780635e8be58f14620005dc578063666018a514620005fd5780636bced5a21462000639575f80fd5b80633fc8cef311620002aa5780633fc8cef3146200044d5780634220bd46146200046e57806342d9210614620004835780634452c2b214620004a757806346f3639f14620004cb578063487a8a7614620004ef5780634a387bef1462000513575f80fd5b80630cb175e31462000321578063210ebead146200035f57806325772ad91462000392578063262d0a8514620003e257806335a750de1462000403578063365246631462000429575f80fd5b366200031d575f34116200031b576040516188f160e11b815260040160405180910390fd5b005b5f80fd5b3480156200032d575f80fd5b50620003456200033f366004620023ff565b62000a8b565b604080519283526020830191909152015b60405180910390f35b3480156200036b575f80fd5b50620003836200037d366004620024e0565b62000a95565b6040516200035691906200258a565b3480156200039e575f80fd5b50620003ce620003b03660046200259e565b6001600160a01b03165f9081526073602052604090205461ffff1690565b60405161ffff909116815260200162000356565b348015620003ee575f80fd5b50606e5462000383906001600160a01b031681565b3480156200040f575f80fd5b506200041a62000b7d565b60405162000356919062002601565b34801562000435575f80fd5b506200031b6200044736600462002615565b62000c15565b34801562000459575f80fd5b50606d5462000383906001600160a01b031681565b3480156200047a575f80fd5b50600e620003ce565b3480156200048f575f80fd5b5062000383620004a136600462002676565b62000c4a565b348015620004b3575f80fd5b5062000383620004c536600462002709565b62000caf565b348015620004d7575f80fd5b506200031b620004e93660046200273e565b62000cce565b348015620004fb575f80fd5b50620003836200050d36600462002788565b62000d99565b3480156200051f575f80fd5b506200031b620005313660046200259e565b62000ed8565b34801562000543575f80fd5b5060715462000383906001600160a01b031681565b34801562000564575f80fd5b506200031b62000576366004620027dc565b62000f2c565b34801562000588575f80fd5b50620005be6200059a3660046200259e565b60686020525f908152604090208054600182015460029092015460ff909116919083565b60408051931515845260208401929092529082015260600162000356565b348015620005e8575f80fd5b5060785462000383906001600160a01b031681565b34801562000609575f80fd5b50620003836200061b3660046200280d565b61ffff165f908152607460205260409020546001600160a01b031690565b34801562000645575f80fd5b5062000383620006573660046200259e565b606c6020525f90815260409020546001600160a01b031681565b3480156200067d575f80fd5b506200031b6200068f3660046200259e565b62000fee565b348015620006a1575f80fd5b507fb53127684a568b3173ae13b9f8a6016e243e63b6e8ee1178d6a717850b5d6103546001600160a01b031662000383565b348015620006df575f80fd5b506200031b62001068565b348015620006f6575f80fd5b5062000701606f5481565b60405190815260200162000356565b3480156200071c575f80fd5b506200031b6200072e3660046200282b565b6200109e565b34801562000740575f80fd5b506200031b6200075236600462002843565b620010cc565b34801562000764575f80fd5b506200041a620011a1565b3480156200077b575f80fd5b506033546001600160a01b031662000383565b3480156200079a575f80fd5b50620007a5620011b2565b604051901515815260200162000356565b348015620007c2575f80fd5b506200031b620007d4366004620028ec565b620011c3565b348015620007e6575f80fd5b506200031b620007f836600462002615565b620015da565b3480156200080a575f80fd5b506200070160705481565b34801562000821575f80fd5b506200070160675481565b34801562000838575f80fd5b506200031b6200084a3660046200259e565b6200164b565b3480156200085c575f80fd5b506200031b6200086e36600462002912565b62001696565b34801562000880575f80fd5b506200041a620016d1565b34801562000897575f80fd5b506200031b620008a93660046200259e565b62001765565b348015620008bb575f80fd5b506200070160765481565b348015620008d2575f80fd5b5060775462000383906001600160a01b031681565b348015620008f3575f80fd5b504862000701565b34801562000907575f80fd5b506200031b620009193660046200259e565b62001821565b3480156200092b575f80fd5b506200031b620018ab565b34801562000942575f80fd5b506200031b6200095436600462002955565b6200190c565b34801562000966575f80fd5b50620003836200097836600462002955565b62001aa4565b3480156200098a575f80fd5b50607554620003ce9061ffff1681565b348015620009a6575f80fd5b506200041a62001cf6565b348015620009bd575f80fd5b506200070160665481565b348015620009d4575f80fd5b506200031b620009e63660046200259e565b62001d05565b348015620009f8575f80fd5b506200031b62001df7565b34801562000a0f575f80fd5b506200031b62000a213660046200259e565b6200201e565b34801562000a33575f80fd5b506200031b62000a453660046200259e565b62002101565b34801562000a57575f80fd5b50606b5462000383906001600160a01b031681565b34801562000a78575f80fd5b50606e546001600160a01b031662000383565b5f805b9250929050565b5f62000aa2858562000d99565b90505f5b8281101562000b74575f826001600160a01b031685858481811062000acf5762000acf62002986565b905060200281019062000ae391906200299a565b60405162000af3929190620029df565b5f604051808303815f865af19150503d805f811462000b2e576040519150601f19603f3d011682016040523d82523d5f602084013e62000b33565b606091505b505090508062000b5e57604051636c91d7a560e01b8152600481018390526024015b60405180910390fd5b508062000b6b8162002a02565b91505062000aa6565b50949350505050565b6060606a805462000b8e9062002a1d565b80601f016020809104026020016040519081016040528092919081815260200182805462000bbc9062002a1d565b801562000c0b5780601f1062000be15761010080835404028352916020019162000c0b565b820191905f5260205f20905b81548152906001019060200180831162000bed57829003601f168201915b5050505050905090565b335f9081526068602052604090205460ff1662000c465760405162461bcd60e51b815260040162000b559062002a57565b5050565b5f803389898989898960405160240162000c6b979695949392919062002aa3565b60408051601f198184030181529190526020810180516001600160e01b0316636eadde4360e01b179052905062000ca28162000caf565b9998505050505050505050565b6075545f90819062000cc790849061ffff1662000d99565b9392505050565b606e546001600160a01b039081169084160362000cfe57604051639ad9605560e01b815260040160405180910390fd5b60775462000d189084906001600160a01b0316846200217d565b607754604051632ef8e16760e01b81526001600160a01b03858116600483015262ffffff8416602483015290911690632ef8e167906044016020604051808303815f875af115801562000d6d573d5f803e3d5ffd5b505050506040513d601f19601f8201168201806040525081019062000d93919062002ae2565b50505050565b6071545f906001600160a01b031662000dc5576040516320ad73f360e21b815260040160405180910390fd5b61ffff82165f908152607460205260409020546001600160a01b03168062000e005760405163adf2276360e01b815260040160405180910390fd5b6071546040515f9183916001600160a01b0390911690879062000e2390620023ce565b62000e319392919062002afa565b604051809103905ff08015801562000e4b573d5f803e3d5ffd5b506040805160608101825260018082525f60208084018281528486018381526001600160a01b03881680855260689093528684209551865460ff191690151517865590519385019390935591516002909301929092559151929350839233917f01017ed19df0c7f8acc436147b234b09664a9fb4797b4fa3fb9e599c2eb67be791a3925050505b92915050565b62000ee2620011b2565b62000f015760405162461bcd60e51b815260040162000b559062002b30565b6001600160a01b03165f908152606860205260408120805460ff191681556001810182905560020155565b62000f36620011b2565b62000f555760405162461bcd60e51b815260040162000b559062002b30565b6001600160a01b038281165f908152606c6020526040902080546001600160a01b03191691831691821790551562000c4657606d5460405163c640752d60e01b81526001600160a01b038084169263c640752d9262000fbb928792169060040162002b54565b5f604051808303815f87803b15801562000fd3575f80fd5b505af115801562000fe6573d5f803e3d5ffd5b505050505050565b62000ff8620011b2565b620010175760405162461bcd60e51b815260040162000b559062002b30565b607780546001600160a01b038381166001600160a01b0319831681179093556040519116919082907f26e432617b34430aab046f96a2e212643861596cb69dcca785a8045a23ed0722905f90a35050565b62001072620011b2565b620010915760405162461bcd60e51b815260040162000b559062002b30565b6200109c5f62002234565b565b620010a8620011b2565b620010c75760405162461bcd60e51b815260040162000b559062002b30565b607655565b620010d6620011b2565b620010f55760405162461bcd60e51b815260040162000b559062002b30565b606e80546001600160a01b03808b166001600160a01b031992831617909255606d8054928a1692909116919091179055606f869055606a6200113985878362002bb7565b5060696200114983858362002bb7565b5060708190556040517fa14230a1687e9bb8cdc0f3931d27c3a806e88c1c2235ba7756d6911feb35be67906200118f908a908a908a908a908a908a908a908a9062002c7e565b60405180910390a15050505050505050565b60606069805462000b8e9062002a1d565b6033546001600160a01b0316331490565b335f9081526068602052604090205460ff16620011f45760405162461bcd60e51b815260040162000b559062002a57565b811562000c46575f80336001600160a01b0316639d76ea586040518163ffffffff1660e01b8152600401602060405180830381865afa1580156200123a573d5f803e3d5ffd5b505050506040513d601f19601f8201168201806040525081019062001260919062002cde565b90506001600160a01b03811615801590620012895750606d546001600160a01b03828116911614155b1562001334576001600160a01b038082165f908152606c60205260409020541680156200132d57606d5460405163c1e553e760e01b81526001600160a01b038084169263c1e553e792620012e79287928b9291169060040162002cfc565b6020604051808303815f875af115801562001304573d5f803e3d5ffd5b505050506040513d601f19601f820116820180604052508101906200132a919062002ae2565b92505b5062001338565b8391505b620013468282863362002285565b335f90815260686020526040812060010180548492906200136990849062002d1f565b909155505081158015906200138657506001600160a01b03831615155b8015620013fa5750600d336001600160a01b031663d1bbd49c6040518163ffffffff1660e01b8152600401602060405180830381865afa158015620013cd573d5f803e3d5ffd5b505050506040513d601f19601f82011682018060405250810190620013f3919062002d35565b61ffff1610155b1562000d9357606e546001600160a01b039081165f908152606c6020526040902054168015620015d357606e54606d5460405163c1e553e760e01b81525f926001600160a01b038086169363c1e553e79362001460938316928a92169060040162002cfc565b6020604051808303815f875af11580156200147d573d5f803e3d5ffd5b505050506040513d601f19601f82011682018060405250810190620014a3919062002ae2565b90505f600261271060765484620014bb919062002d53565b620014c7919062002d6d565b620014d3919062002d6d565b90508015620015d057606e546040516370a0823160e01b815282916001600160a01b0316906370a08231906200150e9030906004016200258a565b602060405180830381865afa1580156200152a573d5f803e3d5ffd5b505050506040513d601f19601f8201168201806040525081019062001550919062002ae2565b1115620015d057606e5460405163a9059cbb60e01b81526001600160a01b038881166004830152602482018490529091169063a9059cbb906044016020604051808303815f875af1158015620015a8573d5f803e3d5ffd5b505050506040513d601f19601f82011682018060405250810190620015ce919062002da2565b505b50505b5050505050565b620015e4620011b2565b620016035760405162461bcd60e51b815260040162000b559062002b30565b6066829055606781905560408051838152602081018390527f7b2ce3c83b45f79993ff2cbf5651caff2dfe04010b4846e03066b84e3e4059bb91015b60405180910390a15050565b62001655620011b2565b620016745760405162461bcd60e51b815260040162000b559062002b30565b607880546001600160a01b0319166001600160a01b0392909216919091179055565b620016a0620011b2565b620016bf5760405162461bcd60e51b815260040162000b559062002b30565b620016cc8383836200217d565b505050565b60698054620016e09062002a1d565b80601f01602080910402602001604051908101604052809291908181526020018280546200170e9062002a1d565b80156200175d5780601f1062001733576101008083540402835291602001916200175d565b820191905f5260205f20905b8154815290600101906020018083116200173f57829003601f168201915b505050505081565b5f54610100900460ff1662001780575f5460ff161562001784565b303b155b620017a35760405162461bcd60e51b815260040162000b559062002dbe565b5f54610100900460ff16158015620017c4575f805461ffff19166101011790555b603380546001600160a01b0319166001600160a01b0384169081179091556040515f907f8be0079c531659141344cd1fd0a4f28419497f9722a3daafe3b4186f6b6457e0908290a3801562000c46575f805461ff00191690555050565b5f54610100900460ff166200183c575f5460ff161562001840565b303b155b6200185f5760405162461bcd60e51b815260040162000b559062002dbe565b5f54610100900460ff1615801562001880575f805461ffff19166101011790555b6200188b8262001765565b62001895620022f6565b50801562000c46575f805461ff00191690555050565b620018b5620011b2565b620018d45760405162461bcd60e51b815260040162000b559062002b30565b6071546001600160a01b031615620018ff5760405163feb51c9f60e01b815260040160405180910390fd5b62001909620022f6565b50565b62001916620011b2565b620019355760405162461bcd60e51b815260040162000b559062002b30565b604051636eadde4360e01b81523060048201525f6024820181905260448201819052606482018190526084820181905260c060a483015260c48201526001600160a01b03831690636eadde439060e4015f604051808303815f87803b1580156200199d575f80fd5b505af1925050508015620019af575060015b1562001a3257604051631b2b455f60e11b81527fb89cdd26cddd51301940bf2715f765b626b8a5a9e2681ac62dc83cc2db2530c060048201523060248201526001600160a01b038316906336568abe906044015f604051808303815f87803b15801562001a1a575f80fd5b505af115801562001a2d573d5f803e3d5ffd5b505050505b6001600160a01b0382165f818152607360209081526040808320805461ffff191661ffff8716908117909155808452607490925280832080546001600160a01b03191685179055519092917fd36d021c4aa145e30eadc73e34284101030d688b9eb9413a4dc3af40ab1d474891a35050565b6071545f906001600160a01b031662001ad0576040516320ad73f360e21b815260040160405180910390fd5b62001adc833362002352565b151560011462001aff576040516305167ffd60e51b815260040160405180910390fd5b5f8390505f816001600160a01b031663d1bbd49c6040518163ffffffff1660e01b8152600401602060405180830381865afa15801562001b41573d5f803e3d5ffd5b505050506040513d601f19601f8201168201806040525081019062001b67919062002d35565b905062001b7681600162002deb565b61ffff168461ffff161462001b9e576040516337bb006160e01b815260040160405180910390fd5b61ffff84165f908152607460205260409020546001600160a01b03168062001bd957604051636b53d5c760e11b815260040160405180910390fd5b60725460405163266a23b160e21b815287916001600160a01b0316906399a88ec49062001c0d908490869060040162002b54565b5f604051808303815f87803b15801562001c25575f80fd5b505af115801562001c38573d5f803e3d5ffd5b5050604051638932a90d60e01b8152602060048201526002602482015261060f60f31b60448201526001600160a01b0387169250638932a90d91506064015f604051808303815f87803b15801562001c8e575f80fd5b505af115801562001ca1573d5f803e3d5ffd5b5050604080516001600160a01b038b16815261ffff8a1660208201527f5e7b70a9e6f0b4c7cf2657cf563ce85eed3aebb7731396118d01a195d218fd5e935001905060405180910390a1509495945050505050565b606a8054620016e09062002a1d565b6071546001600160a01b031662001d2f576040516320ad73f360e21b815260040160405180910390fd5b62001d3b813362002352565b151560011462001d5e576040516305167ffd60e51b815260040160405180910390fd5b60725460785460405163266a23b160e21b815283926001600160a01b03908116926399a88ec49262001d97928692169060040162002b54565b5f604051808303815f87803b15801562001daf575f80fd5b505af115801562001dc2573d5f803e3d5ffd5b505050507fdce3429a8f143bb863bb21cf095d7494484ab4223db8336b5a7273051765638c826040516200163f91906200258a565b335f9081526068602052604090205460ff1615801562001e7d5750336001600160a01b031663d1bbd49c6040518163ffffffff1660e01b8152600401602060405180830381865afa15801562001e4f573d5f803e3d5ffd5b505050506040513d601f19601f8201168201806040525081019062001e75919062002d35565b61ffff16600d145b801562001e8a5750466001145b801562001f1e5750336001600160a01b0316630f15023b6040518163ffffffff1660e01b8152600401602060405180830381865afa15801562001ecf573d5f803e3d5ffd5b505050506040513d601f19601f8201168201806040525081019062001ef5919062002cde565b6001600160a01b0316733d5409cce1d45233de1d4ebdee74b8e004abdd136001600160a01b0316145b156200109c57604051635de9a13760e01b8152733d5409cce1d45233de1d4ebdee74b8e004abdd13905f90819081908490635de9a1379062001f659033906004016200258a565b606060405180830381865afa15801562001f81573d5f803e3d5ffd5b505050506040513d601f19601f8201168201806040525081019062001fa7919062002e10565b925092509250821562002001576040805160608101825284151581526020808201858152828401858152335f9081526068909352939091209151825460ff1916901515178255516001820155905160029091015562000d93565b3360405163411789a760e11b815260040162000b5591906200258a565b62002028620011b2565b620020475760405162461bcd60e51b815260040162000b559062002b30565b6001600160a01b0381165f9081526073602052604081205461ffff169003620020835760405163adf2276360e01b815260040160405180910390fd5b6001600160a01b0381165f8181526073602052604090819020546075805461ffff191661ffff909216919091179055606b80546001600160a01b031916909217909155517f4fa58418e580e78539e8d3d8d17d94dbaca0927533953c8248f313e6f8927c2190620020f69083906200258a565b60405180910390a150565b6200210b620011b2565b6200212a5760405162461bcd60e51b815260040162000b559062002b30565b6001600160a01b038116620021725760405162461bcd60e51b815260206004820152600d60248201526c24a72b20a624a22fa7aba722a960991b604482015260640162000b55565b620019098162002234565b6001600160a01b03831615620022005760405163a9059cbb60e01b81526001600160a01b0383811660048301526024820183905284169063a9059cbb906044016020604051808303815f875af1158015620021da573d5f803e3d5ffd5b505050506040513d601f19601f8201168201806040525081019062000d93919062002da2565b6040516001600160a01b0383169082156108fc029083905f818181858888f1935050505015801562000d93573d5f803e3d5ffd5b603380546001600160a01b038381166001600160a01b0319831681179093556040519116919082907f8be0079c531659141344cd1fd0a4f28419497f9722a3daafe3b4186f6b6457e0905f90a35050565b8360665462002295919062002d1f565b606681905560408051918252602082018690526001600160a01b03858116838301526060830185905283166080830152517f3b50eb9d9b4a8db204f2928c9e572c2865b0d02803493ccb6aa256848323ebb79181900360a00190a150505050565b5f6040516200230590620023dc565b604051809103905ff0801580156200231f573d5f803e3d5ffd5b50607280546001600160a01b03929092166001600160a01b03199283168117909155607180549092168117909155919050565b60405163aae4b8f760e01b81525f9083906001600160a01b0382169063aae4b8f790620023849086906004016200258a565b602060405180830381865afa158015620023a0573d5f803e3d5ffd5b505050506040513d601f19601f82011682018060405250810190620023c6919062002da2565b949350505050565b610df48062002e4683390190565b6106da8062003c3a83390190565b6001600160a01b038116811462001909575f80fd5b5f806040838503121562002411575f80fd5b82356200241e81620023ea565b946020939093013593505050565b634e487b7160e01b5f52604160045260245ffd5b5f82601f83011262002450575f80fd5b81356001600160401b03808211156200246d576200246d6200242c565b604051601f8301601f19908116603f011681019082821181831017156200249857620024986200242c565b81604052838152866020858801011115620024b1575f80fd5b836020870160208301375f602085830101528094505050505092915050565b61ffff8116811462001909575f80fd5b5f805f8060608587031215620024f4575f80fd5b84356001600160401b03808211156200250b575f80fd5b620025198883890162002440565b9550602087013591506200252d82620024d0565b9093506040860135908082111562002543575f80fd5b818701915087601f83011262002557575f80fd5b81358181111562002566575f80fd5b8860208260051b85010111156200257b575f80fd5b95989497505060200194505050565b6001600160a01b0391909116815260200190565b5f60208284031215620025af575f80fd5b813562000cc781620023ea565b5f81518084525f5b81811015620025e257602081850181015186830182015201620025c4565b505f602082860101526020601f19601f83011685010191505092915050565b602081525f62000cc76020830184620025bc565b5f806040838503121562002627575f80fd5b50508035926020909101359150565b5f8083601f84011262002647575f80fd5b5081356001600160401b038111156200265e575f80fd5b60208301915083602082850101111562000a8e575f80fd5b5f805f805f805f60c0888a0312156200268d575f80fd5b873596506020880135620026a181620023ea565b9550604088013594506060880135935060808801356001600160401b03811115620026ca575f80fd5b620026d88a828b0162002636565b90945092505060a08801356001600160a01b031981168114620026f9575f80fd5b8091505092959891949750929550565b5f602082840312156200271a575f80fd5b81356001600160401b0381111562002730575f80fd5b620023c68482850162002440565b5f805f6060848603121562002751575f80fd5b83356200275e81620023ea565b925060208401359150604084013562ffffff811681146200277d575f80fd5b809150509250925092565b5f80604083850312156200279a575f80fd5b82356001600160401b03811115620027b0575f80fd5b620027be8582860162002440565b9250506020830135620027d181620024d0565b809150509250929050565b5f8060408385031215620027ee575f80fd5b8235620027fb81620023ea565b91506020830135620027d181620023ea565b5f602082840312156200281e575f80fd5b813562000cc781620024d0565b5f602082840312156200283c575f80fd5b5035919050565b5f805f805f805f8060c0898b0312156200285b575f80fd5b88356200286881620023ea565b975060208901356200287a81620023ea565b96506040890135955060608901356001600160401b03808211156200289d575f80fd5b620028ab8c838d0162002636565b909750955060808b0135915080821115620028c4575f80fd5b50620028d38b828c0162002636565b999c989b50969995989497949560a00135949350505050565b5f8060408385031215620028fe575f80fd5b823591506020830135620027d181620023ea565b5f805f6060848603121562002925575f80fd5b83356200293281620023ea565b925060208401356200294481620023ea565b929592945050506040919091013590565b5f806040838503121562002967575f80fd5b82356200297481620023ea565b91506020830135620027d181620024d0565b634e487b7160e01b5f52603260045260245ffd5b5f808335601e19843603018112620029b0575f80fd5b8301803591506001600160401b03821115620029ca575f80fd5b60200191503681900382131562000a8e575f80fd5b818382375f9101908152919050565b634e487b7160e01b5f52601160045260245ffd5b5f6001820162002a165762002a16620029ee565b5060010190565b600181811c9082168062002a3257607f821691505b60208210810362002a5157634e487b7160e01b5f52602260045260245ffd5b50919050565b6020808252600a90820152694f4e4c595f4c4f434b5360b01b604082015260600190565b81835281816020850137505f828201602090810191909152601f909101601f19169091010190565b5f60018060a01b03808a16835288602084015280881660408401525085606083015284608083015260c060a083015262000ca260c08301848662002a7b565b5f6020828403121562002af3575f80fd5b5051919050565b6001600160a01b038481168252831660208201526060604082018190525f9062002b2790830184620025bc565b95945050505050565b6020808252600a908201526927a7262cafa7aba722a960b11b604082015260600190565b6001600160a01b0392831681529116602082015260400190565b601f821115620016cc575f81815260208120601f850160051c8101602086101562002b965750805b601f850160051c820191505b8181101562000fe65782815560010162002ba2565b6001600160401b0383111562002bd15762002bd16200242c565b62002be98362002be2835462002a1d565b8362002b6e565b5f601f84116001811462002c1d575f851562002c055750838201355b5f19600387901b1c1916600186901b178355620015d3565b5f83815260209020601f19861690835b8281101562002c4f578685013582556020948501946001909201910162002c2d565b508682101562002c6c575f1960f88860031b161c19848701351681555b505060018560011b0183555050505050565b6001600160a01b038981168252881660208201526040810187905260c0606082018190525f9062002cb3908301878962002a7b565b828103608084015262002cc881868862002a7b565b9150508260a08301529998505050505050505050565b5f6020828403121562002cef575f80fd5b815162000cc781620023ea565b6001600160a01b0393841681526020810192909252909116604082015260600190565b8082018082111562000ed25762000ed2620029ee565b5f6020828403121562002d46575f80fd5b815162000cc781620024d0565b808202811582820484141762000ed25762000ed2620029ee565b5f8262002d8857634e487b7160e01b5f52601260045260245ffd5b500490565b8051801515811462002d9d575f80fd5b919050565b5f6020828403121562002db3575f80fd5b62000cc78262002d8d565b6020808252601390820152721053149150511657d253925512505312569151606a1b604082015260600190565b61ffff81811683821601908082111562002e095762002e09620029ee565b5092915050565b5f805f6060848603121562002e23575f80fd5b62002e2e8462002d8d565b92506020840151915060408401519050925092509256fe608060405260405162000df438038062000df4833981016040819052620000269162000415565b82816200003582825f6200004c565b50620000439050826200007d565b50505062000540565b6200005783620000ee565b5f82511180620000645750805b1562000078576200007683836200012f565b505b505050565b7f7e644d79422f17c01e4894b5f4f588d331ebfa28653d42ae832dc59e38c9798f620000be5f8051602062000dad833981519152546001600160a01b031690565b604080516001600160a01b03928316815291841660208301520160405180910390a1620000eb816200015e565b50565b620000f981620001fb565b6040516001600160a01b038216907fbc7cd75a20ee27fd9adebab32041f755214dbc6bffa90cc0225b39da2e5c2d3b905f90a250565b606062000157838360405180606001604052806027815260200162000dcd6027913962000292565b9392505050565b6001600160a01b038116620001c95760405162461bcd60e51b815260206004820152602660248201527f455243313936373a206e65772061646d696e20697320746865207a65726f206160448201526564647265737360d01b60648201526084015b60405180910390fd5b805f8051602062000dad8339815191525b80546001600160a01b0319166001600160a01b039290921691909117905550565b6001600160a01b0381163b6200026a5760405162461bcd60e51b815260206004820152602d60248201527f455243313936373a206e657720696d706c656d656e746174696f6e206973206e60448201526c1bdd08184818dbdb9d1c9858dd609a1b6064820152608401620001c0565b807f360894a13ba1a3210667c828492db98dca3e2076cc3735a920a3ca505d382bbc620001da565b60605f80856001600160a01b031685604051620002b09190620004ef565b5f60405180830381855af49150503d805f8114620002ea576040519150601f19603f3d011682016040523d82523d5f602084013e620002ef565b606091505b50909250905062000303868383876200030d565b9695505050505050565b60608315620003805782515f0362000378576001600160a01b0385163b620003785760405162461bcd60e51b815260206004820152601d60248201527f416464726573733a2063616c6c20746f206e6f6e2d636f6e74726163740000006044820152606401620001c0565b50816200038c565b6200038c838362000394565b949350505050565b815115620003a55781518083602001fd5b8060405162461bcd60e51b8152600401620001c091906200050c565b80516001600160a01b0381168114620003d8575f80fd5b919050565b634e487b7160e01b5f52604160045260245ffd5b5f5b838110156200040d578181015183820152602001620003f3565b50505f910152565b5f805f6060848603121562000428575f80fd5b6200043384620003c1565b92506200044360208501620003c1565b60408501519092506001600160401b038082111562000460575f80fd5b818601915086601f83011262000474575f80fd5b815181811115620004895762000489620003dd565b604051601f8201601f19908116603f01168101908382118183101715620004b457620004b4620003dd565b81604052828152896020848701011115620004cd575f80fd5b620004e0836020830160208801620003f1565b80955050505050509250925092565b5f825162000502818460208701620003f1565b9190910192915050565b602081525f82518060208401526200052c816040850160208701620003f1565b601f01601f19169190910160400192915050565b61085f806200054e5f395ff3fe60806040523661001357610011610017565b005b6100115b61001f610168565b6001600160a01b0316330361015e5760606001600160e01b03195f35166364d3180d60e11b81016100595761005261019a565b9150610156565b63587086bd60e11b6001600160e01b0319821601610079576100526101ed565b63070d7c6960e41b6001600160e01b031982160161009957610052610231565b621eb96f60e61b6001600160e01b03198216016100b857610052610261565b63a39f25e560e01b6001600160e01b03198216016100d8576100526102a0565b60405162461bcd60e51b815260206004820152604260248201527f5472616e73706172656e745570677261646561626c6550726f78793a2061646d60448201527f696e2063616e6e6f742066616c6c6261636b20746f2070726f78792074617267606482015261195d60f21b608482015260a4015b60405180910390fd5b815160208301f35b6101666102b3565b565b5f7fb53127684a568b3173ae13b9f8a6016e243e63b6e8ee1178d6a717850b5d61035b546001600160a01b0316919050565b60606101a46102c3565b5f6101b23660048184610668565b8101906101bf91906106aa565b90506101da8160405180602001604052805f8152505f6102cd565b505060408051602081019091525f815290565b60605f806101fe3660048184610668565b81019061020b91906106d7565b9150915061021b828260016102cd565b60405180602001604052805f8152509250505090565b606061023b6102c3565b5f6102493660048184610668565b81019061025691906106aa565b90506101da816102f8565b606061026b6102c3565b5f610274610168565b604080516001600160a01b03831660208201529192500160405160208183030381529060405291505090565b60606102aa6102c3565b5f61027461034f565b6101666102be61034f565b61035d565b3415610166575f80fd5b6102d68361037b565b5f825111806102e25750805b156102f3576102f183836103ba565b505b505050565b7f7e644d79422f17c01e4894b5f4f588d331ebfa28653d42ae832dc59e38c9798f610321610168565b604080516001600160a01b03928316815291841660208301520160405180910390a161034c816103e6565b50565b5f61035861048f565b905090565b365f80375f80365f845af43d5f803e808015610377573d5ff35b3d5ffd5b610384816104b6565b6040516001600160a01b038216907fbc7cd75a20ee27fd9adebab32041f755214dbc6bffa90cc0225b39da2e5c2d3b905f90a250565b60606103df83836040518060600160405280602781526020016108036027913961054a565b9392505050565b6001600160a01b03811661044b5760405162461bcd60e51b815260206004820152602660248201527f455243313936373a206e65772061646d696e20697320746865207a65726f206160448201526564647265737360d01b606482015260840161014d565b807fb53127684a568b3173ae13b9f8a6016e243e63b6e8ee1178d6a717850b5d61035b80546001600160a01b0319166001600160a01b039290921691909117905550565b5f7f360894a13ba1a3210667c828492db98dca3e2076cc3735a920a3ca505d382bbc61018b565b6001600160a01b0381163b6105235760405162461bcd60e51b815260206004820152602d60248201527f455243313936373a206e657720696d706c656d656e746174696f6e206973206e60448201526c1bdd08184818dbdb9d1c9858dd609a1b606482015260840161014d565b807f360894a13ba1a3210667c828492db98dca3e2076cc3735a920a3ca505d382bbc61046e565b60605f80856001600160a01b03168560405161056691906107b5565b5f60405180830381855af49150503d805f811461059e576040519150601f19603f3d011682016040523d82523d5f602084013e6105a3565b606091505b50915091506105b4868383876105be565b9695505050505050565b6060831561062c5782515f03610625576001600160a01b0385163b6106255760405162461bcd60e51b815260206004820152601d60248201527f416464726573733a2063616c6c20746f206e6f6e2d636f6e7472616374000000604482015260640161014d565b5081610636565b610636838361063e565b949350505050565b81511561064e5781518083602001fd5b8060405162461bcd60e51b815260040161014d91906107d0565b5f8085851115610676575f80fd5b83861115610682575f80fd5b5050820193919092039150565b80356001600160a01b03811681146106a5575f80fd5b919050565b5f602082840312156106ba575f80fd5b6103df8261068f565b634e487b7160e01b5f52604160045260245ffd5b5f80604083850312156106e8575f80fd5b6106f18361068f565b9150602083013567ffffffffffffffff8082111561070d575f80fd5b818501915085601f830112610720575f80fd5b813581811115610732576107326106c3565b604051601f8201601f19908116603f0116810190838211818310171561075a5761075a6106c3565b81604052828152886020848701011115610772575f80fd5b826020860160208301375f6020848301015280955050505050509250929050565b5f5b838110156107ad578181015183820152602001610795565b50505f910152565b5f82516107c6818460208701610793565b9190910192915050565b602081525f82518060208401526107ee816040850160208701610793565b601f01601f1916919091016040019291505056fe416464726573733a206c6f772d6c6576656c2064656c65676174652063616c6c206661696c6564a264697066735822122091fbb21c8d5c49d26c0a27d3886c5050b7e1c1a4b98dfe36ff6108ea7a432c6b64736f6c63430008150033b53127684a568b3173ae13b9f8a6016e243e63b6e8ee1178d6a717850b5d6103416464726573733a206c6f772d6c6576656c2064656c65676174652063616c6c206661696c6564608060405234801561000f575f80fd5b506100193361001e565b61006d565b5f80546001600160a01b038381166001600160a01b0319831681178455604051919092169283917f8be0079c531659141344cd1fd0a4f28419497f9722a3daafe3b4186f6b6457e09190a35050565b6106608061007a5f395ff3fe60806040526004361061006a575f3560e01c8063204e1c7a1461006e578063715018a6146100a35780637eff275e146100b95780638da5cb5b146100d85780639623609d146100f457806399a88ec414610107578063f2fde38b14610126578063f3b7dead14610145575b5f80fd5b348015610079575f80fd5b5061008d610088366004610464565b610164565b60405161009a9190610486565b60405180910390f35b3480156100ae575f80fd5b506100b76101ef565b005b3480156100c4575f80fd5b506100b76100d336600461049a565b610202565b3480156100e3575f80fd5b505f546001600160a01b031661008d565b6100b76101023660046104e5565b610267565b348015610112575f80fd5b506100b761012136600461049a565b6102d2565b348015610131575f80fd5b506100b7610140366004610464565b610306565b348015610150575f80fd5b5061008d61015f366004610464565b610384565b5f805f836001600160a01b031660405161018890635c60da1b60e01b815260040190565b5f60405180830381855afa9150503d805f81146101c0576040519150601f19603f3d011682016040523d82523d5f602084013e6101c5565b606091505b5091509150816101d3575f80fd5b808060200190518101906101e791906105b4565b949350505050565b6101f76103a8565b6102005f610401565b565b61020a6103a8565b6040516308f2839760e41b81526001600160a01b03831690638f28397090610236908490600401610486565b5f604051808303815f87803b15801561024d575f80fd5b505af115801561025f573d5f803e3d5ffd5b505050505050565b61026f6103a8565b60405163278f794360e11b81526001600160a01b03841690634f1ef28690349061029f90869086906004016105cf565b5f604051808303818588803b1580156102b6575f80fd5b505af11580156102c8573d5f803e3d5ffd5b5050505050505050565b6102da6103a8565b604051631b2ce7f360e11b81526001600160a01b03831690633659cfe690610236908490600401610486565b61030e6103a8565b6001600160a01b0381166103785760405162461bcd60e51b815260206004820152602660248201527f4f776e61626c653a206e6577206f776e657220697320746865207a65726f206160448201526564647265737360d01b60648201526084015b60405180910390fd5b61038181610401565b50565b5f805f836001600160a01b0316604051610188906303e1469160e61b815260040190565b5f546001600160a01b031633146102005760405162461bcd60e51b815260206004820181905260248201527f4f776e61626c653a2063616c6c6572206973206e6f7420746865206f776e6572604482015260640161036f565b5f80546001600160a01b038381166001600160a01b0319831681178455604051919092169283917f8be0079c531659141344cd1fd0a4f28419497f9722a3daafe3b4186f6b6457e09190a35050565b6001600160a01b0381168114610381575f80fd5b5f60208284031215610474575f80fd5b813561047f81610450565b9392505050565b6001600160a01b0391909116815260200190565b5f80604083850312156104ab575f80fd5b82356104b681610450565b915060208301356104c681610450565b809150509250929050565b634e487b7160e01b5f52604160045260245ffd5b5f805f606084860312156104f7575f80fd5b833561050281610450565b9250602084013561051281610450565b9150604084013567ffffffffffffffff8082111561052e575f80fd5b818601915086601f830112610541575f80fd5b813581811115610553576105536104d1565b604051601f8201601f19908116603f0116810190838211818310171561057b5761057b6104d1565b81604052828152896020848701011115610593575f80fd5b826020860160208301375f6020848301015280955050505050509250925092565b5f602082840312156105c4575f80fd5b815161047f81610450565b60018060a01b03831681525f602060408184015283518060408501525f5b81811015610609578581018301518582016060015282016105ed565b505f606082860101526060601f19601f83011685010192505050939250505056fea264697066735822122023d47b96cb6884b5a1765234ca2c93761e727d45ebfa279561fc4c76f4694e4a64736f6c63430008150033a26469706673582212206a0dbde6b6e3972a01977843958a00174b5daa8cd898a4180120dc9e19acf86d64736f6c63430008150033",
  "linkReferences": {},
  "deployedLinkReferences": {}
}