{
  "_format": "hh-sol-artifact-1",
  "contractName": "Unlock",
  "sourceName": "contracts/Unlock.sol",
  "abi": [
    {
      "inputs": [
        {
          "internalType": "address",
          "name": "lockAddress",
          "type": "address"
        }
      ],
      "name": "LockDoesNotExist",
      "type": "error"
    },
    {
      "inputs": [],
      "name": "Unlock__ALREADY_DEPLOYED",
      "type": "error"
    },
    {
      "inputs": [],
      "name": "Unlock__MANAGER_ONLY",
      "type": "error"
    },
    {
      "inputs": [],
      "name": "Unlock__MISSING_LOCK_TEMPLATE",
      "type": "error"
    },
    {
      "inputs": [],
      "name": "Unlock__MISSING_PROXY_ADMIN",
      "type": "error"
    },
    {
      "inputs": [],
      "name": "Unlock__MISSING_TEMPLATE",
      "type": "error"
    },
    {
      "inputs": [],
      "name": "Unlock__VERSION_TOO_HIGH",
      "type": "error"
    },
    {
      "anonymous": false,
      "inputs": [
        {
          "indexed": false,
          "internalType": "address",
          "name": "udt",
          "type": "address"
        },
        {
          "indexed": false,
          "internalType": "address",
          "name": "weth",
          "type": "address"
        },
        {
          "indexed": false,
          "internalType": "uint256",
          "name": "estimatedGasForPurchase",
          "type": "uint256"
        },
        {
          "indexed": false,
          "internalType": "string",
          "name": "globalTokenSymbol",
          "type": "string"
        },
        {
          "indexed": false,
          "internalType": "string",
          "name": "globalTokenURI",
          "type": "string"
        },
        {
          "indexed": false,
          "internalType": "uint256",
          "name": "chainId",
          "type": "uint256"
        }
      ],
      "name": "ConfigUnlock",
      "type": "event"
    },
    {
      "anonymous": false,
      "inputs": [
        {
          "indexed": false,
          "internalType": "uint256",
          "name": "grossNetworkProduct",
          "type": "uint256"
        },
        {
          "indexed": false,
          "internalType": "uint256",
          "name": "_valueInETH",
          "type": "uint256"
        },
        {
          "indexed": false,
          "internalType": "address",
          "name": "tokenAddress",
          "type": "address"
        },
        {
          "indexed": false,
          "internalType": "uint256",
          "name": "value",
          "type": "uint256"
        },
        {
          "indexed": false,
          "internalType": "address",
          "name": "lockAddress",
          "type": "address"
        }
      ],
      "name": "GNPChanged",
      "type": "event"
    },
    {
      "anonymous": false,
      "inputs": [
        {
          "indexed": false,
          "internalType": "address",
          "name": "lockAddress",
          "type": "address"
        },
        {
          "indexed": false,
          "internalType": "uint16",
          "name": "version",
          "type": "uint16"
        }
      ],
      "name": "LockUpgraded",
      "type": "event"
    },
    {
      "anonymous": false,
      "inputs": [
        {
          "indexed": true,
          "internalType": "address",
          "name": "lockOwner",
          "type": "address"
        },
        {
          "indexed": true,
          "internalType": "address",
          "name": "newLockAddress",
          "type": "address"
        }
      ],
      "name": "NewLock",
      "type": "event"
    },
    {
      "anonymous": false,
      "inputs": [
        {
          "indexed": true,
          "internalType": "address",
          "name": "previousOwner",
          "type": "address"
        },
        {
          "indexed": true,
          "internalType": "address",
          "name": "newOwner",
          "type": "address"
        }
      ],
      "name": "OwnershipTransferred",
      "type": "event"
    },
    {
      "anonymous": false,
      "inputs": [
        {
          "indexed": false,
          "internalType": "uint256",
          "name": "grossNetworkProduct",
          "type": "uint256"
        },
        {
          "indexed": false,
          "internalType": "uint256",
          "name": "totalDiscountGranted",
          "type": "uint256"
        }
      ],
      "name": "ResetTrackedValue",
      "type": "event"
    },
    {
      "anonymous": false,
      "inputs": [
        {
          "indexed": false,
          "internalType": "address",
          "name": "publicLockAddress",
          "type": "address"
        }
      ],
      "name": "SetLockTemplate",
      "type": "event"
    },
    {
      "anonymous": false,
      "inputs": [
        {
          "indexed": true,
          "internalType": "address",
          "name": "impl",
          "type": "address"
        },
        {
          "indexed": true,
          "internalType": "uint16",
          "name": "version",
          "type": "uint16"
        }
      ],
      "name": "UnlockTemplateAdded",
      "type": "event"
    },
    {
      "inputs": [
        {
          "internalType": "address",
          "name": "sender",
          "type": "address"
        }
      ],
      "name": "__initializeOwnable",
      "outputs": [],
      "stateMutability": "nonpayable",
      "type": "function"
    },
    {
      "inputs": [
        {
          "internalType": "address",
          "name": "impl",
          "type": "address"
        },
        {
          "internalType": "uint16",
          "name": "version",
          "type": "uint16"
        }
      ],
      "name": "addLockTemplate",
      "outputs": [],
      "stateMutability": "nonpayable",
      "type": "function"
    },
    {
      "inputs": [],
      "name": "chainId",
      "outputs": [
        {
          "internalType": "uint256",
          "name": "",
          "type": "uint256"
        }
      ],
      "stateMutability": "view",
      "type": "function"
    },
    {
      "inputs": [
        {
          "internalType": "address",
          "name": "",
          "type": "address"
        },
        {
          "internalType": "uint256",
          "name": "",
          "type": "uint256"
        }
      ],
      "name": "computeAvailableDiscountFor",
      "outputs": [
        {
          "internalType": "uint256",
          "name": "discount",
          "type": "uint256"
        },
        {
          "internalType": "uint256",
          "name": "tokens",
          "type": "uint256"
        }
      ],
      "stateMutability": "pure",
      "type": "function"
    },
    {
      "inputs": [
        {
          "internalType": "address",
          "name": "_udt",
          "type": "address"
        },
        {
          "internalType": "address",
          "name": "_weth",
          "type": "address"
        },
        {
          "internalType": "uint256",
          "name": "_estimatedGasForPurchase",
          "type": "uint256"
        },
        {
          "internalType": "string",
          "name": "_symbol",
          "type": "string"
        },
        {
          "internalType": "string",
          "name": "_URI",
          "type": "string"
        },
        {
          "internalType": "uint256",
          "name": "_chainId",
          "type": "uint256"
        }
      ],
      "name": "configUnlock",
      "outputs": [],
      "stateMutability": "nonpayable",
      "type": "function"
    },
    {
      "inputs": [
        {
          "internalType": "uint256",
          "name": "_expirationDuration",
          "type": "uint256"
        },
        {
          "internalType": "address",
          "name": "_tokenAddress",
          "type": "address"
        },
        {
          "internalType": "uint256",
          "name": "_keyPrice",
          "type": "uint256"
        },
        {
          "internalType": "uint256",
          "name": "_maxNumberOfKeys",
          "type": "uint256"
        },
        {
          "internalType": "string",
          "name": "_lockName",
          "type": "string"
        },
        {
          "internalType": "bytes12",
          "name": "",
          "type": "bytes12"
        }
      ],
      "name": "createLock",
      "outputs": [
        {
          "internalType": "address",
          "name": "",
          "type": "address"
        }
      ],
      "stateMutability": "nonpayable",
      "type": "function"
    },
    {
      "inputs": [
        {
          "internalType": "bytes",
          "name": "data",
          "type": "bytes"
        }
      ],
      "name": "createUpgradeableLock",
      "outputs": [
        {
          "internalType": "address",
          "name": "",
          "type": "address"
        }
      ],
      "stateMutability": "nonpayable",
      "type": "function"
    },
    {
      "inputs": [
        {
          "internalType": "bytes",
          "name": "data",
          "type": "bytes"
        },
        {
          "internalType": "uint16",
          "name": "_lockVersion",
          "type": "uint16"
        }
      ],
      "name": "createUpgradeableLockAtVersion",
      "outputs": [
        {
          "internalType": "address",
          "name": "",
          "type": "address"
        }
      ],
      "stateMutability": "nonpayable",
      "type": "function"
    },
    {
      "inputs": [],
      "name": "estimatedGasForPurchase",
      "outputs": [
        {
          "internalType": "uint256",
          "name": "",
          "type": "uint256"
        }
      ],
      "stateMutability": "view",
      "type": "function"
    },
    {
      "inputs": [],
      "name": "getAdmin",
      "outputs": [
        {
          "internalType": "address",
          "name": "",
          "type": "address"
        }
      ],
      "stateMutability": "view",
      "type": "function"
    },
    {
      "inputs": [],
      "name": "getGlobalBaseTokenURI",
      "outputs": [
        {
          "internalType": "string",
          "name": "",
          "type": "string"
        }
      ],
      "stateMutability": "view",
      "type": "function"
    },
    {
      "inputs": [],
      "name": "getGlobalTokenSymbol",
      "outputs": [
        {
          "internalType": "string",
          "name": "",
          "type": "string"
        }
      ],
      "stateMutability": "view",
      "type": "function"
    },
    {
      "inputs": [],
      "name": "globalBaseTokenURI",
      "outputs": [
        {
          "internalType": "string",
          "name": "",
          "type": "string"
        }
      ],
      "stateMutability": "view",
      "type": "function"
    },
    {
      "inputs": [],
      "name": "globalTokenSymbol",
      "outputs": [
        {
          "internalType": "string",
          "name": "",
          "type": "string"
        }
      ],
      "stateMutability": "view",
      "type": "function"
    },
    {
      "inputs": [],
      "name": "grossNetworkProduct",
      "outputs": [
        {
          "internalType": "uint256",
          "name": "",
          "type": "uint256"
        }
      ],
      "stateMutability": "view",
      "type": "function"
    },
    {
      "inputs": [
        {
          "internalType": "address",
          "name": "_unlockOwner",
          "type": "address"
        }
      ],
      "name": "initialize",
      "outputs": [],
      "stateMutability": "nonpayable",
      "type": "function"
    },
    {
      "inputs": [],
      "name": "initializeProxyAdmin",
      "outputs": [],
      "stateMutability": "nonpayable",
      "type": "function"
    },
    {
      "inputs": [],
      "name": "isOwner",
      "outputs": [
        {
          "internalType": "bool",
          "name": "",
          "type": "bool"
        }
      ],
      "stateMutability": "view",
      "type": "function"
    },
    {
      "inputs": [
        {
          "internalType": "address",
          "name": "",
          "type": "address"
        }
      ],
      "name": "locks",
      "outputs": [
        {
          "internalType": "bool",
          "name": "deployed",
          "type": "bool"
        },
        {
          "internalType": "uint256",
          "name": "totalSales",
          "type": "uint256"
        },
        {
          "internalType": "uint256",
          "name": "yieldedDiscountTokens",
          "type": "uint256"
        }
      ],
      "stateMutability": "view",
      "type": "function"
    },
    {
      "inputs": [],
      "name": "networkBaseFee",
      "outputs": [
        {
          "internalType": "uint256",
          "name": "",
          "type": "uint256"
        }
      ],
      "stateMutability": "view",
      "type": "function"
    },
    {
      "inputs": [],
      "name": "owner",
      "outputs": [
        {
          "internalType": "address",
          "name": "",
          "type": "address"
        }
      ],
      "stateMutability": "view",
      "type": "function"
    },
    {
      "inputs": [],
      "name": "postLockUpgrade",
      "outputs": [],
      "stateMutability": "nonpayable",
      "type": "function"
    },
    {
      "inputs": [],
      "name": "protocolFee",
      "outputs": [
        {
          "internalType": "uint256",
          "name": "",
          "type": "uint256"
        }
      ],
      "stateMutability": "view",
      "type": "function"
    },
    {
      "inputs": [],
      "name": "proxyAdminAddress",
      "outputs": [
        {
          "internalType": "address",
          "name": "",
          "type": "address"
        }
      ],
      "stateMutability": "view",
      "type": "function"
    },
    {
      "inputs": [],
      "name": "publicLockAddress",
      "outputs": [
        {
          "internalType": "address",
          "name": "",
          "type": "address"
        }
      ],
      "stateMutability": "view",
      "type": "function"
    },
    {
      "inputs": [
        {
          "internalType": "uint16",
          "name": "_version",
          "type": "uint16"
        }
      ],
      "name": "publicLockImpls",
      "outputs": [
        {
          "internalType": "address",
          "name": "",
          "type": "address"
        }
      ],
      "stateMutability": "view",
      "type": "function"
    },
    {
      "inputs": [],
      "name": "publicLockLatestVersion",
      "outputs": [
        {
          "internalType": "uint16",
          "name": "",
          "type": "uint16"
        }
      ],
      "stateMutability": "view",
      "type": "function"
    },
    {
      "inputs": [
        {
          "internalType": "address",
          "name": "_impl",
          "type": "address"
        }
      ],
      "name": "publicLockVersions",
      "outputs": [
        {
          "internalType": "uint16",
          "name": "",
          "type": "uint16"
        }
      ],
      "stateMutability": "view",
      "type": "function"
    },
    {
      "inputs": [
        {
          "internalType": "uint256",
          "name": "",
          "type": "uint256"
        },
        {
          "internalType": "uint256",
          "name": "",
          "type": "uint256"
        }
      ],
      "name": "recordConsumedDiscount",
      "outputs": [],
      "stateMutability": "view",
      "type": "function"
    },
    {
      "inputs": [
        {
          "internalType": "uint256",
          "name": "_value",
          "type": "uint256"
        },
        {
          "internalType": "address",
          "name": "_referrer",
          "type": "address"
        }
      ],
      "name": "recordKeyPurchase",
      "outputs": [],
      "stateMutability": "nonpayable",
      "type": "function"
    },
    {
      "inputs": [],
      "name": "renounceOwnership",
      "outputs": [],
      "stateMutability": "nonpayable",
      "type": "function"
    },
    {
      "inputs": [
        {
          "internalType": "uint256",
          "name": "_grossNetworkProduct",
          "type": "uint256"
        },
        {
          "internalType": "uint256",
          "name": "_totalDiscountGranted",
          "type": "uint256"
        }
      ],
      "name": "resetTrackedValue",
      "outputs": [],
      "stateMutability": "nonpayable",
      "type": "function"
    },
    {
      "inputs": [
        {
          "internalType": "address",
          "name": "_publicLockAddress",
          "type": "address"
        }
      ],
      "name": "setLockTemplate",
      "outputs": [],
      "stateMutability": "nonpayable",
      "type": "function"
    },
    {
      "inputs": [
        {
          "internalType": "address",
          "name": "_tokenAddress",
          "type": "address"
        },
        {
          "internalType": "address",
          "name": "_oracleAddress",
          "type": "address"
        }
      ],
      "name": "setOracle",
      "outputs": [],
      "stateMutability": "nonpayable",
      "type": "function"
    },
    {
      "inputs": [
        {
          "internalType": "uint256",
          "name": "_protocolFee",
          "type": "uint256"
        }
      ],
      "name": "setProtocolFee",
      "outputs": [],
      "stateMutability": "nonpayable",
      "type": "function"
    },
    {
      "inputs": [],
      "name": "totalDiscountGranted",
      "outputs": [
        {
          "internalType": "uint256",
          "name": "",
          "type": "uint256"
        }
      ],
      "stateMutability": "view",
      "type": "function"
    },
    {
      "inputs": [
        {
          "internalType": "address",
          "name": "newOwner",
          "type": "address"
        }
      ],
      "name": "transferOwnership",
      "outputs": [],
      "stateMutability": "nonpayable",
      "type": "function"
    },
    {
      "inputs": [],
      "name": "udt",
      "outputs": [
        {
          "internalType": "address",
          "name": "",
          "type": "address"
        }
      ],
      "stateMutability": "view",
      "type": "function"
    },
    {
      "inputs": [
        {
          "internalType": "address",
          "name": "",
          "type": "address"
        }
      ],
      "name": "uniswapOracles",
      "outputs": [
        {
          "internalType": "contract IUniswapOracleV3",
          "name": "",
          "type": "address"
        }
      ],
      "stateMutability": "view",
      "type": "function"
    },
    {
      "inputs": [],
      "name": "unlockVersion",
      "outputs": [
        {
          "internalType": "uint16",
          "name": "",
          "type": "uint16"
        }
      ],
      "stateMutability": "pure",
      "type": "function"
    },
    {
      "inputs": [
        {
          "internalType": "address payable",
          "name": "lockAddress",
          "type": "address"
        },
        {
          "internalType": "uint16",
          "name": "version",
          "type": "uint16"
        }
      ],
      "name": "upgradeLock",
      "outputs": [
        {
          "internalType": "address",
          "name": "",
          "type": "address"
        }
      ],
      "stateMutability": "nonpayable",
      "type": "function"
    },
    {
      "inputs": [],
      "name": "weth",
      "outputs": [
        {
          "internalType": "address",
          "name": "",
          "type": "address"
        }
      ],
      "stateMutability": "view",
      "type": "function"
    },
    {
      "stateMutability": "payable",
      "type": "receive"
    }
  ],
  "bytecode": "0x608060405234801561001057600080fd5b50613d77806100206000396000f3fe608060405260043610620002435760003560e01c80638da5cb5b1162000131578063c4d66de811620000b4578063c4d66de81462000735578063c7d7d0c9146200075a578063caeee3a31462000772578063ccf546481462000797578063cd93b53214620007bc578063cec4105214620007d9578063d6e9e80314620007f1578063ed9674bd1462000809578063ef67fde61462000821578063f2fde38b1462000846578063f8328991146200086b57600080fd5b80638da5cb5b14620006085780638f32d59b1462000628578063939d9f1f1462000651578063963a947814620006765780639a8a0592146200069b578063a082eb0e14620006b3578063a998e9fb14620006cb578063b0ca0c8314620006e3578063b0e21e8a1462000708578063ba5ea0d5146200072057600080fd5b80635979e75511620001c65780635979e75514620004075780635c38eb3a14620004295780635de9a137146200044e578063666018a514620004b05780636bced5a214620004ee5780636e9960c31462000528578063715018a61462000567578063743bbc2f146200057f578063787dce3d14620005a65780637d8fb64114620005cb5780637ff94bb214620005f057600080fd5b80630cb175e3146200025057806325772ad9146200028f578063262d0a8514620002e157806335a750de14620003125780633652466314620003395780633fc8cef314620003605780634220bd46146200038257806342d9210614620003985780634452c2b214620003bd578063487a8a7614620003e257600080fd5b366200024b57005b600080fd5b3480156200025d57600080fd5b50620002756200026f3660046200200b565b6200088d565b604080519283526020830191909152015b60405180910390f35b3480156200029c57600080fd5b50620002cd620002ae3660046200203a565b6001600160a01b031660009081526073602052604090205461ffff1690565b60405161ffff909116815260200162000286565b348015620002ee57600080fd5b50606e5462000303906001600160a01b031681565b6040516200028691906200205a565b3480156200031f57600080fd5b506200032a62000898565b604051620002869190620020be565b3480156200034657600080fd5b506200035e62000358366004620020d3565b62000932565b005b3480156200036d57600080fd5b50606d5462000303906001600160a01b031681565b3480156200038f57600080fd5b50600c620002cd565b348015620003a557600080fd5b5062000303620003b73660046200213a565b62000971565b348015620003ca57600080fd5b5062000303620003dc3660046200227e565b620009d7565b348015620003ef57600080fd5b506200030362000401366004620022c7565b620009f7565b3480156200041457600080fd5b5060715462000303906001600160a01b031681565b3480156200043657600080fd5b506200035e620004483660046200231e565b62000b3b565b3480156200045b57600080fd5b50620004926200046d3660046200203a565b60686020526000908152604090208054600182015460029092015460ff909116919083565b60408051931515845260208401929092529082015260600162000286565b348015620004bd57600080fd5b5062000303620004cf36600462002351565b61ffff166000908152607460205260409020546001600160a01b031690565b348015620004fb57600080fd5b50620003036200050d3660046200203a565b606c602052600090815260409020546001600160a01b031681565b3480156200053557600080fd5b507fb53127684a568b3173ae13b9f8a6016e243e63b6e8ee1178d6a717850b5d6103546001600160a01b031662000303565b3480156200057457600080fd5b506200035e62000c04565b3480156200058c57600080fd5b5062000597606f5481565b60405190815260200162000286565b348015620005b357600080fd5b506200035e620005c536600462002371565b62000c3b565b348015620005d857600080fd5b506200035e620005ea3660046200238b565b62000c69565b348015620005fd57600080fd5b506200032a62000d3c565b3480156200061557600080fd5b506033546001600160a01b031662000303565b3480156200063557600080fd5b506200064062000d4d565b604051901515815260200162000286565b3480156200065e57600080fd5b506200035e620006703660046200243b565b62000d5e565b3480156200068357600080fd5b506200035e62000695366004620020d3565b6200135d565b348015620006a857600080fd5b506200059760705481565b348015620006c057600080fd5b506200059760675481565b348015620006d857600080fd5b506200032a620013cd565b348015620006f057600080fd5b506200035e620007023660046200203a565b62001463565b3480156200071557600080fd5b506200059760765481565b3480156200072d57600080fd5b504862000597565b3480156200074257600080fd5b506200035e620007543660046200203a565b62001525565b3480156200076757600080fd5b506200035e620015b4565b3480156200077f57600080fd5b506200035e6200079136600462002463565b62001615565b348015620007a457600080fd5b5062000303620007b636600462002463565b620016e3565b348015620007c957600080fd5b50607554620002cd9061ffff1681565b348015620007e657600080fd5b506200032a62001946565b348015620007fe57600080fd5b506200059760665481565b3480156200081657600080fd5b506200035e62001955565b3480156200082e57600080fd5b506200035e620008403660046200203a565b62001bbf565b3480156200085357600080fd5b506200035e620008653660046200203a565b62001d1a565b3480156200087857600080fd5b50606b5462000303906001600160a01b031681565b6000805b9250929050565b6060606a8054620008a99062002496565b80601f0160208091040260200160405190810160405280929190818152602001828054620008d79062002496565b8015620009285780601f10620008fc5761010080835404028352916020019162000928565b820191906000526020600020905b8154815290600101906020018083116200090a57829003601f168201915b5050505050905090565b3360009081526068602052604090205460ff166200096d5760405162461bcd60e51b81526004016200096490620024d2565b60405180910390fd5b5050565b600080338989898989896040516024016200099397969594939291906200251f565b60408051601f198184030181529190526020810180516001600160e01b0316636eadde4360e01b1790529050620009ca81620009d7565b9998505050505050505050565b6075546000908190620009f090849061ffff16620009f7565b9392505050565b6071546000906001600160a01b031662000a24576040516320ad73f360e21b815260040160405180910390fd5b61ffff82166000908152607460205260409020546001600160a01b03168062000a605760405163adf2276360e01b815260040160405180910390fd5b60715460405160009183916001600160a01b0390911690879062000a849062001f33565b62000a92939291906200255f565b604051809103906000f08015801562000aaf573d6000803e3d6000fd5b50604080516060810182526001808252600060208084018281528486018381526001600160a01b03881680855260689093528684209551865460ff191690151517865590519385019390935591516002909301929092559151929350839233917f01017ed19df0c7f8acc436147b234b09664a9fb4797b4fa3fb9e599c2eb67be791a395945050505050565b62000b4562000d4d565b62000b645760405162461bcd60e51b8152600401620009649062002596565b6001600160a01b038281166000908152606c6020526040902080546001600160a01b0319169183169182179055156200096d57606d5460405163c640752d60e01b81526001600160a01b03848116600483015291821660248201529082169063c640752d90604401600060405180830381600087803b15801562000be757600080fd5b505af115801562000bfc573d6000803e3d6000fd5b505050505050565b62000c0e62000d4d565b62000c2d5760405162461bcd60e51b8152600401620009649062002596565b62000c39600062001d91565b565b62000c4562000d4d565b62000c645760405162461bcd60e51b8152600401620009649062002596565b607655565b62000c7362000d4d565b62000c925760405162461bcd60e51b8152600401620009649062002596565b606e80546001600160a01b03808b166001600160a01b031992831617909255606d8054928a1692909116919091179055606f86905562000cd5606a868662001f41565b5062000ce46069848462001f41565b5060708190556040517fa14230a1687e9bb8cdc0f3931d27c3a806e88c1c2235ba7756d6911feb35be679062000d2a908a908a908a908a908a908a908a908a90620025ba565b60405180910390a15050505050505050565b606060698054620008a99062002496565b6033546001600160a01b0316331490565b3360009081526068602052604090205460ff1662000d905760405162461bcd60e51b81526004016200096490620024d2565b81156200096d57600080336001600160a01b0316639d76ea586040518163ffffffff1660e01b8152600401602060405180830381865afa15801562000dd9573d6000803e3d6000fd5b505050506040513d601f19601f8201168201806040525081019062000dff91906200261b565b90506001600160a01b0381161580159062000e285750606d546001600160a01b03828116911614155b1562000ed7576001600160a01b038082166000908152606c602052604090205416801562000ed057606d5460405163c1e553e760e01b81526001600160a01b038084169263c1e553e79262000e879287928b929116906004016200263b565b6020604051808303816000875af115801562000ea7573d6000803e3d6000fd5b505050506040513d601f19601f8201168201806040525081019062000ecd91906200265e565b92505b5062000edb565b8391505b62000ee98282863362001de3565b336000908152606860205260408120600101805484929062000f0d9084906200268e565b90915550506001600160a01b0383161580159062000f945750600d336001600160a01b031663d1bbd49c6040518163ffffffff1660e01b8152600401602060405180830381865afa15801562000f67573d6000803e3d6000fd5b505050506040513d601f19601f8201168201806040525081019062000f8d9190620026a9565b61ffff1611155b156200135757606e546001600160a01b039081166000908152606c60205260409020541680156200135557606e54606d5460405163c1e553e760e01b81526000926001600160a01b038086169363c1e553e7936200100493831692670de0b6b3a76400009216906004016200263b565b6020604051808303816000875af115801562001024573d6000803e3d6000fd5b505050506040513d601f19601f820116820180604052508101906200104a91906200265e565b606e546040516370a0823160e01b81529192506000916001600160a01b03909116906370a0823190620010829030906004016200205a565b602060405180830381865afa158015620010a0573d6000803e3d6000fd5b505050506040513d601f19601f82011682018060405250810190620010c691906200265e565b90506000306001600160a01b031663ba5ea0d56040518163ffffffff1660e01b8152600401602060405180830381865afa92505050801562001127575060408051601f3d908101601f1916820190925262001124918101906200265e565b60015b62001135575060646200114e565b806000036200114857606491506200114c565b8091505b505b600083606483606f54620011639190620026c9565b62001178906806c6b935b8bbd40000620026c9565b620011849190620026eb565b620011909190620026eb565b60665490915060009080620011a78a6002620026c9565b620011b39190620026eb565b620011c09060026200268e565b620011cc8a87620026c9565b620011d89190620026eb565b620011e49190620026eb565b905080821115620011f3578091505b81156200134f57600060646200120b846014620026c9565b620012179190620026eb565b9050828511156200134d57606e546001600160a01b031663a9059cbb8b6200124084876200270e565b6040516001600160e01b031960e085901b1681526001600160a01b03909216600483015260248201526044016020604051808303816000875af11580156200128c573d6000803e3d6000fd5b505050506040513d601f19601f82011682018060405250810190620012b291906200273e565b50606e546001600160a01b031663a9059cbb620012d76033546001600160a01b031690565b6040516001600160e01b031960e084901b1681526001600160a01b039091166004820152602481018490526044016020604051808303816000875af115801562001325573d6000803e3d6000fd5b505050506040513d601f19601f820116820180604052508101906200134b91906200273e565b505b505b50505050505b505b50505050565b6200136762000d4d565b620013865760405162461bcd60e51b8152600401620009649062002596565b6066829055606781905560408051838152602081018390527f7b2ce3c83b45f79993ff2cbf5651caff2dfe04010b4846e03066b84e3e4059bb910160405180910390a15050565b60698054620013dc9062002496565b80601f01602080910402602001604051908101604052809291908181526020018280546200140a9062002496565b80156200145b5780601f106200142f576101008083540402835291602001916200145b565b820191906000526020600020905b8154815290600101906020018083116200143d57829003601f168201915b505050505081565b600054610100900460ff16620014805760005460ff161562001484565b303b155b620014a35760405162461bcd60e51b815260040162000964906200275c565b600054610100900460ff16158015620014c6576000805461ffff19166101011790555b603380546001600160a01b0319166001600160a01b0384169081179091556040516000907f8be0079c531659141344cd1fd0a4f28419497f9722a3daafe3b4186f6b6457e0908290a380156200096d576000805461ff00191690555050565b600054610100900460ff16620015425760005460ff161562001546565b303b155b620015655760405162461bcd60e51b815260040162000964906200275c565b600054610100900460ff1615801562001588576000805461ffff19166101011790555b620015938262001463565b6200159d62001e54565b5080156200096d576000805461ff00191690555050565b620015be62000d4d565b620015dd5760405162461bcd60e51b8152600401620009649062002596565b6071546001600160a01b031615620016085760405163feb51c9f60e01b815260040160405180910390fd5b6200161262001e54565b50565b6200161f62000d4d565b6200163e5760405162461bcd60e51b8152600401620009649062002596565b6001600160a01b0382166000818152607360209081526040808320805461ffff191661ffff8781169182179092558085526074909352922080546001600160a01b031916909317909255607554161015620016a5576075805461ffff191661ffff83161790555b60405161ffff8216906001600160a01b038416907fd36d021c4aa145e30eadc73e34284101030d688b9eb9413a4dc3af40ab1d474890600090a35050565b6071546000906001600160a01b031662001710576040516320ad73f360e21b815260040160405180910390fd5b6200171c833362001eb4565b15156001146200173f576040516305167ffd60e51b815260040160405180910390fd5b60008390506000816001600160a01b031663d1bbd49c6040518163ffffffff1660e01b8152600401602060405180830381865afa15801562001785573d6000803e3d6000fd5b505050506040513d601f19601f82011682018060405250810190620017ab9190620026a9565b9050620017ba81600162002789565b61ffff168461ffff1614620017e2576040516337bb006160e01b815260040160405180910390fd5b61ffff84166000908152607460205260409020546001600160a01b0316806200181e57604051636b53d5c760e11b815260040160405180910390fd5b60725460405163266a23b160e21b81526001600160a01b0380891660048301528381166024830152889216906399a88ec490604401600060405180830381600087803b1580156200186e57600080fd5b505af115801562001883573d6000803e3d6000fd5b5050604051638932a90d60e01b8152602060048201526002602482015261060f60f31b60448201526001600160a01b0387169250638932a90d9150606401600060405180830381600087803b158015620018dc57600080fd5b505af1158015620018f1573d6000803e3d6000fd5b5050604080516001600160a01b038b16815261ffff8a1660208201527f5e7b70a9e6f0b4c7cf2657cf563ce85eed3aebb7731396118d01a195d218fd5e935001905060405180910390a1509495945050505050565b606a8054620013dc9062002496565b3360009081526068602052604090205460ff16158015620019de5750336001600160a01b031663d1bbd49c6040518163ffffffff1660e01b8152600401602060405180830381865afa158015620019b0573d6000803e3d6000fd5b505050506040513d601f19601f82011682018060405250810190620019d69190620026a9565b61ffff16600d145b801562001a615750306001600160a01b0316336001600160a01b0316630f15023b6040518163ffffffff1660e01b8152600401602060405180830381865afa15801562001a2f573d6000803e3d6000fd5b505050506040513d601f19601f8201168201806040525081019062001a5591906200261b565b6001600160a01b031614155b1562000c39576000336001600160a01b0316630f15023b6040518163ffffffff1660e01b8152600401602060405180830381865afa15801562001aa8573d6000803e3d6000fd5b505050506040513d601f19601f8201168201806040525081019062001ace91906200261b565b90506000806000836001600160a01b0316635de9a137336040518263ffffffff1660e01b815260040162001b0391906200205a565b606060405180830381865afa15801562001b21573d6000803e3d6000fd5b505050506040513d601f19601f8201168201806040525081019062001b479190620027b2565b925092509250821562001ba25760408051606081018252841515815260208082018581528284018581523360009081526068909352939091209151825460ff1916901515178255516001820155905160029091015562001357565b336040516308543ec960e21b81526004016200096491906200205a565b62001bc962000d4d565b62001be85760405162461bcd60e51b8152600401620009649062002596565b604051636eadde4360e01b815230600482015260006024820181905260448201819052606482018190526084820181905260c060a483015260c48201526001600160a01b03821690636eadde439060e401600060405180830381600087803b15801562001c5457600080fd5b505af115801562001c69573d6000803e3d6000fd5b50505050806001600160a01b031663f0ba60406040518163ffffffff1660e01b8152600401600060405180830381600087803b15801562001ca957600080fd5b505af115801562001cbe573d6000803e3d6000fd5b5050606b80546001600160a01b0319166001600160a01b03851617905550506040517f4fa58418e580e78539e8d3d8d17d94dbaca0927533953c8248f313e6f8927c219062001d0f9083906200205a565b60405180910390a150565b62001d2462000d4d565b62001d435760405162461bcd60e51b8152600401620009649062002596565b6001600160a01b03811662001d8b5760405162461bcd60e51b815260206004820152600d60248201526c24a72b20a624a22fa7aba722a960991b604482015260640162000964565b62001612815b603380546001600160a01b038381166001600160a01b0319831681179093556040519116919082907f8be0079c531659141344cd1fd0a4f28419497f9722a3daafe3b4186f6b6457e090600090a35050565b8360665462001df391906200268e565b606681905560408051918252602082018690526001600160a01b03858116838301526060830185905283166080830152517f3b50eb9d9b4a8db204f2928c9e572c2865b0d02803493ccb6aa256848323ebb79181900360a00190a150505050565b600060405162001e649062001fd0565b604051809103906000f08015801562001e81573d6000803e3d6000fd5b50607280546001600160a01b03929092166001600160a01b03199283168117909155607180549092168117909155919050565b60405163aae4b8f760e01b815260009083906001600160a01b0382169063aae4b8f79062001ee79086906004016200205a565b602060405180830381865afa15801562001f05573d6000803e3d6000fd5b505050506040513d601f19601f8201168201806040525081019062001f2b91906200273e565b949350505050565b610e4180620027eb83390190565b82805462001f4f9062002496565b90600052602060002090601f01602090048101928262001f73576000855562001fbe565b82601f1062001f8e5782800160ff1982351617855562001fbe565b8280016001018555821562001fbe579182015b8281111562001fbe57823582559160200191906001019062001fa1565b5062001fcc92915062001fde565b5090565b610716806200362c83390190565b5b8082111562001fcc576000815560010162001fdf565b6001600160a01b03811681146200161257600080fd5b600080604083850312156200201f57600080fd5b82356200202c8162001ff5565b946020939093013593505050565b6000602082840312156200204d57600080fd5b8135620009f08162001ff5565b6001600160a01b0391909116815260200190565b6000815180845260005b81811015620020965760208185018101518683018201520162002078565b81811115620020a9576000602083870101525b50601f01601f19169290920160200192915050565b602081526000620009f060208301846200206e565b60008060408385031215620020e757600080fd5b50508035926020909101359150565b60008083601f8401126200210957600080fd5b5081356001600160401b038111156200212157600080fd5b6020830191508360208285010111156200089157600080fd5b600080600080600080600060c0888a0312156200215657600080fd5b8735965060208801356200216a8162001ff5565b9550604088013594506060880135935060808801356001600160401b038111156200219457600080fd5b620021a28a828b01620020f6565b90945092505060a08801356001600160a01b031981168114620021c457600080fd5b8091505092959891949750929550565b634e487b7160e01b600052604160045260246000fd5b600082601f830112620021fc57600080fd5b81356001600160401b0380821115620022195762002219620021d4565b604051601f8301601f19908116603f01168101908282118183101715620022445762002244620021d4565b816040528381528660208588010111156200225e57600080fd5b836020870160208301376000602085830101528094505050505092915050565b6000602082840312156200229157600080fd5b81356001600160401b03811115620022a857600080fd5b62001f2b84828501620021ea565b61ffff811681146200161257600080fd5b60008060408385031215620022db57600080fd5b82356001600160401b03811115620022f257600080fd5b6200230085828601620021ea565b92505060208301356200231381620022b6565b809150509250929050565b600080604083850312156200233257600080fd5b82356200233f8162001ff5565b91506020830135620023138162001ff5565b6000602082840312156200236457600080fd5b8135620009f081620022b6565b6000602082840312156200238457600080fd5b5035919050565b60008060008060008060008060c0898b031215620023a857600080fd5b8835620023b58162001ff5565b97506020890135620023c78162001ff5565b96506040890135955060608901356001600160401b0380821115620023eb57600080fd5b620023f98c838d01620020f6565b909750955060808b01359150808211156200241357600080fd5b50620024228b828c01620020f6565b999c989b50969995989497949560a00135949350505050565b600080604083850312156200244f57600080fd5b823591506020830135620023138162001ff5565b600080604083850312156200247757600080fd5b8235620024848162001ff5565b915060208301356200231381620022b6565b600181811c90821680620024ab57607f821691505b602082108103620024cc57634e487b7160e01b600052602260045260246000fd5b50919050565b6020808252600a90820152694f4e4c595f4c4f434b5360b01b604082015260600190565b81835281816020850137506000828201602090810191909152601f909101601f19169091010190565b600060018060a01b03808a16835288602084015280881660408401525085606083015284608083015260c060a0830152620009ca60c083018486620024f6565b6001600160a01b038481168252831660208201526060604082018190526000906200258d908301846200206e565b95945050505050565b6020808252600a908201526927a7262cafa7aba722a960b11b604082015260600190565b6001600160a01b038981168252881660208201526040810187905260c060608201819052600090620025f09083018789620024f6565b828103608084015262002605818688620024f6565b9150508260a08301529998505050505050505050565b6000602082840312156200262e57600080fd5b8151620009f08162001ff5565b6001600160a01b0393841681526020810192909252909116604082015260600190565b6000602082840312156200267157600080fd5b5051919050565b634e487b7160e01b600052601160045260246000fd5b60008219821115620026a457620026a462002678565b500190565b600060208284031215620026bc57600080fd5b8151620009f081620022b6565b6000816000190483118215151615620026e657620026e662002678565b500290565b6000826200270957634e487b7160e01b600052601260045260246000fd5b500490565b60008282101562002723576200272362002678565b500390565b805180151581146200273957600080fd5b919050565b6000602082840312156200275157600080fd5b620009f08262002728565b6020808252601390820152721053149150511657d253925512505312569151606a1b604082015260600190565b600061ffff808316818516808303821115620027a957620027a962002678565b01949350505050565b600080600060608486031215620027c857600080fd5b620027d38462002728565b92506020840151915060408401519050925092509256fe608060405260405162000e4138038062000e41833981016040819052620000269162000490565b828162000036828260006200004d565b50620000449050826200008a565b505050620005c3565b6200005883620000e5565b600082511180620000665750805b1562000085576200008383836200012760201b6200022e1760201c565b505b505050565b7f7e644d79422f17c01e4894b5f4f588d331ebfa28653d42ae832dc59e38c9798f620000b562000156565b604080516001600160a01b03928316815291841660208301520160405180910390a1620000e2816200018f565b50565b620000f08162000244565b6040516001600160a01b038216907fbc7cd75a20ee27fd9adebab32041f755214dbc6bffa90cc0225b39da2e5c2d3b90600090a250565b60606200014f838360405180606001604052806027815260200162000e1a60279139620002f8565b9392505050565b60006200018060008051602062000dfa83398151915260001b620003de60201b620001ea1760201c565b546001600160a01b0316919050565b6001600160a01b038116620001fa5760405162461bcd60e51b815260206004820152602660248201527f455243313936373a206e65772061646d696e20697320746865207a65726f206160448201526564647265737360d01b60648201526084015b60405180910390fd5b806200022360008051602062000dfa83398151915260001b620003de60201b620001ea1760201c565b80546001600160a01b0319166001600160a01b039290921691909117905550565b6200025a81620003e160201b6200025a1760201c565b620002be5760405162461bcd60e51b815260206004820152602d60248201527f455243313936373a206e657720696d706c656d656e746174696f6e206973206e60448201526c1bdd08184818dbdb9d1c9858dd609a1b6064820152608401620001f1565b80620002237f360894a13ba1a3210667c828492db98dca3e2076cc3735a920a3ca505d382bbc60001b620003de60201b620001ea1760201c565b60606001600160a01b0384163b620003625760405162461bcd60e51b815260206004820152602660248201527f416464726573733a2064656c65676174652063616c6c20746f206e6f6e2d636f6044820152651b9d1c9858dd60d21b6064820152608401620001f1565b600080856001600160a01b0316856040516200037f919062000570565b600060405180830381855af49150503d8060008114620003bc576040519150601f19603f3d011682016040523d82523d6000602084013e620003c1565b606091505b509092509050620003d4828286620003f0565b9695505050505050565b90565b6001600160a01b03163b151590565b60608315620004015750816200014f565b825115620004125782518084602001fd5b8160405162461bcd60e51b8152600401620001f191906200058e565b80516001600160a01b03811681146200044657600080fd5b919050565b634e487b7160e01b600052604160045260246000fd5b60005b838110156200047e57818101518382015260200162000464565b83811115620000835750506000910152565b600080600060608486031215620004a657600080fd5b620004b1846200042e565b9250620004c1602085016200042e565b60408501519092506001600160401b0380821115620004df57600080fd5b818601915086601f830112620004f457600080fd5b8151818111156200050957620005096200044b565b604051601f8201601f19908116603f011681019083821181831017156200053457620005346200044b565b816040528281528960208487010111156200054e57600080fd5b6200056183602083016020880162000461565b80955050505050509250925092565b600082516200058481846020870162000461565b9190910192915050565b6020815260008251806020840152620005af81604085016020870162000461565b601f01601f19169190910160400192915050565b61082780620005d36000396000f3fe60806040526004361061004e5760003560e01c80633659cfe6146100655780634f1ef286146100855780635c60da1b146100985780638f283970146100c9578063f851a440146100e95761005d565b3661005d5761005b6100fe565b005b61005b6100fe565b34801561007157600080fd5b5061005b6100803660046106b1565b610118565b61005b6100933660046106cc565b610155565b3480156100a457600080fd5b506100ad6101bc565b6040516001600160a01b03909116815260200160405180910390f35b3480156100d557600080fd5b5061005b6100e43660046106b1565b6101ed565b3480156100f557600080fd5b506100ad61020d565b610106610269565b6101166101116102fe565b610308565b565b61012061032c565b6001600160a01b0316330361014d5761014a8160405180602001604052806000815250600061035f565b50565b61014a6100fe565b61015d61032c565b6001600160a01b031633036101b4576101af8383838080601f0160208091040260200160405190810160405280939291908181526020018383808284376000920191909152506001925061035f915050565b505050565b6101af6100fe565b60006101c661032c565b6001600160a01b031633036101e2576101dd6102fe565b905090565b6101ea6100fe565b90565b6101f561032c565b6001600160a01b0316330361014d5761014a8161038a565b600061021761032c565b6001600160a01b031633036101e2576101dd61032c565b606061025383836040518060600160405280602781526020016107cb602791396103de565b9392505050565b6001600160a01b03163b151590565b61027161032c565b6001600160a01b031633036101165760405162461bcd60e51b815260206004820152604260248201527f5472616e73706172656e745570677261646561626c6550726f78793a2061646d60448201527f696e2063616e6e6f742066616c6c6261636b20746f2070726f78792074617267606482015261195d60f21b608482015260a4015b60405180910390fd5b60006101dd6104b9565b3660008037600080366000845af43d6000803e808015610327573d6000f35b3d6000fd5b60007fb53127684a568b3173ae13b9f8a6016e243e63b6e8ee1178d6a717850b5d61035b546001600160a01b0316919050565b610368836104e1565b6000825111806103755750805b156101af57610384838361022e565b50505050565b7f7e644d79422f17c01e4894b5f4f588d331ebfa28653d42ae832dc59e38c9798f6103b361032c565b604080516001600160a01b03928316815291841660208301520160405180910390a161014a81610521565b60606103e98461025a565b6104445760405162461bcd60e51b815260206004820152602660248201527f416464726573733a2064656c65676174652063616c6c20746f206e6f6e2d636f6044820152651b9d1c9858dd60d21b60648201526084016102f5565b600080856001600160a01b03168560405161045f919061077b565b600060405180830381855af49150503d806000811461049a576040519150601f19603f3d011682016040523d82523d6000602084013e61049f565b606091505b50915091506104af8282866105ca565b9695505050505050565b60007f360894a13ba1a3210667c828492db98dca3e2076cc3735a920a3ca505d382bbc610350565b6104ea81610603565b6040516001600160a01b038216907fbc7cd75a20ee27fd9adebab32041f755214dbc6bffa90cc0225b39da2e5c2d3b90600090a250565b6001600160a01b0381166105865760405162461bcd60e51b815260206004820152602660248201527f455243313936373a206e65772061646d696e20697320746865207a65726f206160448201526564647265737360d01b60648201526084016102f5565b807fb53127684a568b3173ae13b9f8a6016e243e63b6e8ee1178d6a717850b5d61035b80546001600160a01b0319166001600160a01b039290921691909117905550565b606083156105d9575081610253565b8251156105e95782518084602001fd5b8160405162461bcd60e51b81526004016102f59190610797565b61060c8161025a565b61066e5760405162461bcd60e51b815260206004820152602d60248201527f455243313936373a206e657720696d706c656d656e746174696f6e206973206e60448201526c1bdd08184818dbdb9d1c9858dd609a1b60648201526084016102f5565b807f360894a13ba1a3210667c828492db98dca3e2076cc3735a920a3ca505d382bbc6105a9565b80356001600160a01b03811681146106ac57600080fd5b919050565b6000602082840312156106c357600080fd5b61025382610695565b6000806000604084860312156106e157600080fd5b6106ea84610695565b9250602084013567ffffffffffffffff8082111561070757600080fd5b818601915086601f83011261071b57600080fd5b81358181111561072a57600080fd5b87602082850101111561073c57600080fd5b6020830194508093505050509250925092565b60005b8381101561076a578181015183820152602001610752565b838111156103845750506000910152565b6000825161078d81846020870161074f565b9190910192915050565b60208152600082518060208401526107b681604085016020870161074f565b601f01601f1916919091016040019291505056fe416464726573733a206c6f772d6c6576656c2064656c65676174652063616c6c206661696c6564a26469706673582212209c601e965f4c5e139f6a3fa4da20a06f6602ae76bb5674cc43a59db730d8c88a64736f6c634300080d0033b53127684a568b3173ae13b9f8a6016e243e63b6e8ee1178d6a717850b5d6103416464726573733a206c6f772d6c6576656c2064656c65676174652063616c6c206661696c6564608060405234801561001057600080fd5b5061001a3361001f565b61006f565b600080546001600160a01b038381166001600160a01b0319831681178455604051919092169283917f8be0079c531659141344cd1fd0a4f28419497f9722a3daafe3b4186f6b6457e09190a35050565b6106988061007e6000396000f3fe60806040526004361061006b5760003560e01c8063204e1c7a14610070578063715018a6146100a65780637eff275e146100bd5780638da5cb5b146100dd5780639623609d146100fb57806399a88ec41461010e578063f2fde38b1461012e578063f3b7dead1461014e575b600080fd5b34801561007c57600080fd5b5061009061008b366004610483565b61016e565b60405161009d91906104a7565b60405180910390f35b3480156100b257600080fd5b506100bb6101ff565b005b3480156100c957600080fd5b506100bb6100d83660046104bb565b610213565b3480156100e957600080fd5b506000546001600160a01b0316610090565b6100bb61010936600461050a565b61027d565b34801561011a57600080fd5b506100bb6101293660046104bb565b6102ec565b34801561013a57600080fd5b506100bb610149366004610483565b610320565b34801561015a57600080fd5b50610090610169366004610483565b61039e565b6000806000836001600160a01b031660405161019490635c60da1b60e01b815260040190565b600060405180830381855afa9150503d80600081146101cf576040519150601f19603f3d011682016040523d82523d6000602084013e6101d4565b606091505b5091509150816101e357600080fd5b808060200190518101906101f791906105e0565b949350505050565b6102076103c4565b610211600061041e565b565b61021b6103c4565b6040516308f2839760e41b81526001600160a01b03831690638f283970906102479084906004016104a7565b600060405180830381600087803b15801561026157600080fd5b505af1158015610275573d6000803e3d6000fd5b505050505050565b6102856103c4565b60405163278f794360e11b81526001600160a01b03841690634f1ef2869034906102b590869086906004016105fd565b6000604051808303818588803b1580156102ce57600080fd5b505af11580156102e2573d6000803e3d6000fd5b5050505050505050565b6102f46103c4565b604051631b2ce7f360e11b81526001600160a01b03831690633659cfe6906102479084906004016104a7565b6103286103c4565b6001600160a01b0381166103925760405162461bcd60e51b815260206004820152602660248201527f4f776e61626c653a206e6577206f776e657220697320746865207a65726f206160448201526564647265737360d01b60648201526084015b60405180910390fd5b61039b8161041e565b50565b6000806000836001600160a01b0316604051610194906303e1469160e61b815260040190565b6000546001600160a01b031633146102115760405162461bcd60e51b815260206004820181905260248201527f4f776e61626c653a2063616c6c6572206973206e6f7420746865206f776e65726044820152606401610389565b600080546001600160a01b038381166001600160a01b0319831681178455604051919092169283917f8be0079c531659141344cd1fd0a4f28419497f9722a3daafe3b4186f6b6457e09190a35050565b6001600160a01b038116811461039b57600080fd5b60006020828403121561049557600080fd5b81356104a08161046e565b9392505050565b6001600160a01b0391909116815260200190565b600080604083850312156104ce57600080fd5b82356104d98161046e565b915060208301356104e98161046e565b809150509250929050565b634e487b7160e01b600052604160045260246000fd5b60008060006060848603121561051f57600080fd5b833561052a8161046e565b9250602084013561053a8161046e565b9150604084013567ffffffffffffffff8082111561055757600080fd5b818601915086601f83011261056b57600080fd5b81358181111561057d5761057d6104f4565b604051601f8201601f19908116603f011681019083821181831017156105a5576105a56104f4565b816040528281528960208487010111156105be57600080fd5b8260208601602083013760006020848301015280955050505050509250925092565b6000602082840312156105f257600080fd5b81516104a08161046e565b60018060a01b038316815260006020604081840152835180604085015260005b818110156106395785810183015185820160600152820161061d565b8181111561064b576000606083870101525b50601f01601f19169290920160600194935050505056fea2646970667358221220f8fdbec919b52e38a0cbb80a799de9a463aa2ff7495c8395ab11ce6d0198f15664736f6c634300080d0033a264697066735822122013381cf4ef7f8fcbb86fa8ac9bb8a60ab5217bb4f92c22cbccd243912a9fec1664736f6c634300080d0033",
  "linkReferences": {},
  "deployedLinkReferences": {}
}