{
  "_format": "hh-sol-artifact-1",
  "contractName": "Unlock",
  "sourceName": "contracts/Unlock.sol",
  "abi": [
    {
      "anonymous": false,
      "inputs": [
        {
          "indexed": false,
          "internalType": "address",
          "name": "udt",
          "type": "address"
        },
        {
          "indexed": false,
          "internalType": "address",
          "name": "weth",
          "type": "address"
        },
        {
          "indexed": false,
          "internalType": "uint256",
          "name": "estimatedGasForPurchase",
          "type": "uint256"
        },
        {
          "indexed": false,
          "internalType": "string",
          "name": "globalTokenSymbol",
          "type": "string"
        },
        {
          "indexed": false,
          "internalType": "string",
          "name": "globalTokenURI",
          "type": "string"
        },
        {
          "indexed": false,
          "internalType": "uint256",
          "name": "chainId",
          "type": "uint256"
        }
      ],
      "name": "ConfigUnlock",
      "type": "event"
    },
    {
      "anonymous": false,
      "inputs": [
        {
          "indexed": false,
          "internalType": "address",
          "name": "lockAddress",
          "type": "address"
        },
        {
          "indexed": false,
          "internalType": "uint16",
          "name": "version",
          "type": "uint16"
        }
      ],
      "name": "LockUpgraded",
      "type": "event"
    },
    {
      "anonymous": false,
      "inputs": [
        {
          "indexed": true,
          "internalType": "address",
          "name": "lockOwner",
          "type": "address"
        },
        {
          "indexed": true,
          "internalType": "address",
          "name": "newLockAddress",
          "type": "address"
        }
      ],
      "name": "NewLock",
      "type": "event"
    },
    {
      "anonymous": false,
      "inputs": [
        {
          "indexed": true,
          "internalType": "address",
          "name": "previousOwner",
          "type": "address"
        },
        {
          "indexed": true,
          "internalType": "address",
          "name": "newOwner",
          "type": "address"
        }
      ],
      "name": "OwnershipTransferred",
      "type": "event"
    },
    {
      "anonymous": false,
      "inputs": [
        {
          "indexed": false,
          "internalType": "uint256",
          "name": "grossNetworkProduct",
          "type": "uint256"
        },
        {
          "indexed": false,
          "internalType": "uint256",
          "name": "totalDiscountGranted",
          "type": "uint256"
        }
      ],
      "name": "ResetTrackedValue",
      "type": "event"
    },
    {
      "anonymous": false,
      "inputs": [
        {
          "indexed": false,
          "internalType": "address",
          "name": "publicLockAddress",
          "type": "address"
        }
      ],
      "name": "SetLockTemplate",
      "type": "event"
    },
    {
      "anonymous": false,
      "inputs": [
        {
          "indexed": true,
          "internalType": "address",
          "name": "impl",
          "type": "address"
        },
        {
          "indexed": true,
          "internalType": "uint16",
          "name": "version",
          "type": "uint16"
        }
      ],
      "name": "UnlockTemplateAdded",
      "type": "event"
    },
    {
      "inputs": [
        {
          "internalType": "address",
          "name": "sender",
          "type": "address"
        }
      ],
      "name": "__initializeOwnable",
      "outputs": [],
      "stateMutability": "nonpayable",
      "type": "function"
    },
    {
      "inputs": [
        {
          "internalType": "address",
          "name": "impl",
          "type": "address"
        },
        {
          "internalType": "uint16",
          "name": "version",
          "type": "uint16"
        }
      ],
      "name": "addLockTemplate",
      "outputs": [],
      "stateMutability": "nonpayable",
      "type": "function"
    },
    {
      "inputs": [],
      "name": "chainId",
      "outputs": [
        {
          "internalType": "uint256",
          "name": "",
          "type": "uint256"
        }
      ],
      "stateMutability": "view",
      "type": "function"
    },
    {
      "inputs": [
        {
          "internalType": "address",
          "name": "",
          "type": "address"
        },
        {
          "internalType": "uint256",
          "name": "",
          "type": "uint256"
        }
      ],
      "name": "computeAvailableDiscountFor",
      "outputs": [
        {
          "internalType": "uint256",
          "name": "discount",
          "type": "uint256"
        },
        {
          "internalType": "uint256",
          "name": "tokens",
          "type": "uint256"
        }
      ],
      "stateMutability": "pure",
      "type": "function"
    },
    {
      "inputs": [
        {
          "internalType": "address",
          "name": "_udt",
          "type": "address"
        },
        {
          "internalType": "address",
          "name": "_weth",
          "type": "address"
        },
        {
          "internalType": "uint256",
          "name": "_estimatedGasForPurchase",
          "type": "uint256"
        },
        {
          "internalType": "string",
          "name": "_symbol",
          "type": "string"
        },
        {
          "internalType": "string",
          "name": "_URI",
          "type": "string"
        },
        {
          "internalType": "uint256",
          "name": "_chainId",
          "type": "uint256"
        }
      ],
      "name": "configUnlock",
      "outputs": [],
      "stateMutability": "nonpayable",
      "type": "function"
    },
    {
      "inputs": [
        {
          "internalType": "bytes",
          "name": "data",
          "type": "bytes"
        }
      ],
      "name": "createLock",
      "outputs": [
        {
          "internalType": "address",
          "name": "",
          "type": "address"
        }
      ],
      "stateMutability": "nonpayable",
      "type": "function"
    },
    {
      "inputs": [],
      "name": "estimatedGasForPurchase",
      "outputs": [
        {
          "internalType": "uint256",
          "name": "",
          "type": "uint256"
        }
      ],
      "stateMutability": "view",
      "type": "function"
    },
    {
      "inputs": [],
      "name": "getGlobalBaseTokenURI",
      "outputs": [
        {
          "internalType": "string",
          "name": "",
          "type": "string"
        }
      ],
      "stateMutability": "view",
      "type": "function"
    },
    {
      "inputs": [],
      "name": "getGlobalTokenSymbol",
      "outputs": [
        {
          "internalType": "string",
          "name": "",
          "type": "string"
        }
      ],
      "stateMutability": "view",
      "type": "function"
    },
    {
      "inputs": [],
      "name": "globalBaseTokenURI",
      "outputs": [
        {
          "internalType": "string",
          "name": "",
          "type": "string"
        }
      ],
      "stateMutability": "view",
      "type": "function"
    },
    {
      "inputs": [],
      "name": "globalTokenSymbol",
      "outputs": [
        {
          "internalType": "string",
          "name": "",
          "type": "string"
        }
      ],
      "stateMutability": "view",
      "type": "function"
    },
    {
      "inputs": [],
      "name": "grossNetworkProduct",
      "outputs": [
        {
          "internalType": "uint256",
          "name": "",
          "type": "uint256"
        }
      ],
      "stateMutability": "view",
      "type": "function"
    },
    {
      "inputs": [
        {
          "internalType": "address",
          "name": "_unlockOwner",
          "type": "address"
        }
      ],
      "name": "initialize",
      "outputs": [],
      "stateMutability": "nonpayable",
      "type": "function"
    },
    {
      "inputs": [],
      "name": "initializeProxyAdmin",
      "outputs": [],
      "stateMutability": "nonpayable",
      "type": "function"
    },
    {
      "inputs": [],
      "name": "isOwner",
      "outputs": [
        {
          "internalType": "bool",
          "name": "",
          "type": "bool"
        }
      ],
      "stateMutability": "view",
      "type": "function"
    },
    {
      "inputs": [
        {
          "internalType": "address",
          "name": "",
          "type": "address"
        }
      ],
      "name": "locks",
      "outputs": [
        {
          "internalType": "bool",
          "name": "deployed",
          "type": "bool"
        },
        {
          "internalType": "uint256",
          "name": "totalSales",
          "type": "uint256"
        },
        {
          "internalType": "uint256",
          "name": "yieldedDiscountTokens",
          "type": "uint256"
        }
      ],
      "stateMutability": "view",
      "type": "function"
    },
    {
      "inputs": [],
      "name": "owner",
      "outputs": [
        {
          "internalType": "address",
          "name": "",
          "type": "address"
        }
      ],
      "stateMutability": "view",
      "type": "function"
    },
    {
      "inputs": [],
      "name": "proxyAdminAddress",
      "outputs": [
        {
          "internalType": "address",
          "name": "",
          "type": "address"
        }
      ],
      "stateMutability": "view",
      "type": "function"
    },
    {
      "inputs": [],
      "name": "publicLockAddress",
      "outputs": [
        {
          "internalType": "address",
          "name": "",
          "type": "address"
        }
      ],
      "stateMutability": "view",
      "type": "function"
    },
    {
      "inputs": [
        {
          "internalType": "uint16",
          "name": "_version",
          "type": "uint16"
        }
      ],
      "name": "publicLockImpls",
      "outputs": [
        {
          "internalType": "address",
          "name": "",
          "type": "address"
        }
      ],
      "stateMutability": "view",
      "type": "function"
    },
    {
      "inputs": [],
      "name": "publicLockLatestVersion",
      "outputs": [
        {
          "internalType": "uint16",
          "name": "",
          "type": "uint16"
        }
      ],
      "stateMutability": "view",
      "type": "function"
    },
    {
      "inputs": [
        {
          "internalType": "address",
          "name": "_impl",
          "type": "address"
        }
      ],
      "name": "publicLockVersions",
      "outputs": [
        {
          "internalType": "uint16",
          "name": "",
          "type": "uint16"
        }
      ],
      "stateMutability": "view",
      "type": "function"
    },
    {
      "inputs": [
        {
          "internalType": "uint256",
          "name": "",
          "type": "uint256"
        },
        {
          "internalType": "uint256",
          "name": "",
          "type": "uint256"
        }
      ],
      "name": "recordConsumedDiscount",
      "outputs": [],
      "stateMutability": "view",
      "type": "function"
    },
    {
      "inputs": [
        {
          "internalType": "uint256",
          "name": "_value",
          "type": "uint256"
        },
        {
          "internalType": "address",
          "name": "_referrer",
          "type": "address"
        }
      ],
      "name": "recordKeyPurchase",
      "outputs": [],
      "stateMutability": "nonpayable",
      "type": "function"
    },
    {
      "inputs": [],
      "name": "renounceOwnership",
      "outputs": [],
      "stateMutability": "nonpayable",
      "type": "function"
    },
    {
      "inputs": [
        {
          "internalType": "uint256",
          "name": "_grossNetworkProduct",
          "type": "uint256"
        },
        {
          "internalType": "uint256",
          "name": "_totalDiscountGranted",
          "type": "uint256"
        }
      ],
      "name": "resetTrackedValue",
      "outputs": [],
      "stateMutability": "nonpayable",
      "type": "function"
    },
    {
      "inputs": [
        {
          "internalType": "address",
          "name": "_publicLockAddress",
          "type": "address"
        }
      ],
      "name": "setLockTemplate",
      "outputs": [],
      "stateMutability": "nonpayable",
      "type": "function"
    },
    {
      "inputs": [
        {
          "internalType": "address",
          "name": "_tokenAddress",
          "type": "address"
        },
        {
          "internalType": "address",
          "name": "_oracleAddress",
          "type": "address"
        }
      ],
      "name": "setOracle",
      "outputs": [],
      "stateMutability": "nonpayable",
      "type": "function"
    },
    {
      "inputs": [],
      "name": "totalDiscountGranted",
      "outputs": [
        {
          "internalType": "uint256",
          "name": "",
          "type": "uint256"
        }
      ],
      "stateMutability": "view",
      "type": "function"
    },
    {
      "inputs": [
        {
          "internalType": "address",
          "name": "newOwner",
          "type": "address"
        }
      ],
      "name": "transferOwnership",
      "outputs": [],
      "stateMutability": "nonpayable",
      "type": "function"
    },
    {
      "inputs": [],
      "name": "udt",
      "outputs": [
        {
          "internalType": "address",
          "name": "",
          "type": "address"
        }
      ],
      "stateMutability": "view",
      "type": "function"
    },
    {
      "inputs": [
        {
          "internalType": "address",
          "name": "",
          "type": "address"
        }
      ],
      "name": "uniswapOracles",
      "outputs": [
        {
          "internalType": "contract IUniswapOracle",
          "name": "",
          "type": "address"
        }
      ],
      "stateMutability": "view",
      "type": "function"
    },
    {
      "inputs": [],
      "name": "unlockVersion",
      "outputs": [
        {
          "internalType": "uint16",
          "name": "",
          "type": "uint16"
        }
      ],
      "stateMutability": "pure",
      "type": "function"
    },
    {
      "inputs": [
        {
          "internalType": "address payable",
          "name": "lockAddress",
          "type": "address"
        },
        {
          "internalType": "uint16",
          "name": "version",
          "type": "uint16"
        }
      ],
      "name": "upgradeLock",
      "outputs": [
        {
          "internalType": "address",
          "name": "",
          "type": "address"
        }
      ],
      "stateMutability": "nonpayable",
      "type": "function"
    },
    {
      "inputs": [],
      "name": "weth",
      "outputs": [
        {
          "internalType": "address",
          "name": "",
          "type": "address"
        }
      ],
      "stateMutability": "view",
      "type": "function"
    }
  ],
  "bytecode": "0x608060405234801561001057600080fd5b50613999806100206000396000f3fe60806040523480156200001157600080fd5b50600436106200023d5760003560e01c80638da5cb5b116200013d578063c7d7d0c911620000bb578063cec410521162000086578063cec41052146200055a578063d6e9e8031462000564578063ef67fde6146200056e578063f2fde38b1462000585578063f8328991146200059c57600080fd5b8063c7d7d0c91462000513578063caeee3a3146200051d578063ccf546481462000534578063cd93b532146200054b57600080fd5b80639a8a059211620001085780639a8a059214620004c7578063a082eb0e14620004d1578063a998e9fb14620004db578063b0ca0c8314620004e5578063c4d66de814620004fc57600080fd5b80638da5cb5b14620004685780638f32d59b146200047a578063939d9f1f1462000499578063963a947814620004b057600080fd5b80635979e75511620001cb5780636bced5a211620001965780636bced5a214620003f8578063715018a61462000424578063743bbc2f146200042e5780637d8fb64114620004475780637ff94bb2146200045e57600080fd5b80635979e75514620003495780635c38eb3a146200035d5780635de9a1371462000374578063666018a514620003c857600080fd5b806335a750de116200020c57806335a750de14620002fb5780633652466314620003145780633fc8cef3146200032d5780634220bd46146200034157600080fd5b80630cb175e314620002425780630d40d279146200027357806325772ad914620002a3578063262d0a8514620002e7575b600080fd5b620002596200025336600462001e21565b620005b0565b604080519283526020830191909152015b60405180910390f35b6200028a6200028436600462001e71565b620005bb565b6040516001600160a01b0390911681526020016200026a565b620002d3620002b436600462001cac565b6001600160a01b031660009081526073602052604090205461ffff1690565b60405161ffff90911681526020016200026a565b606e546200028a906001600160a01b031681565b6200030562000742565b6040516200026a9190620020d4565b6200032b6200032536600462001fa3565b620007dc565b005b606d546200028a906001600160a01b031681565b600a620002d3565b6071546200028a906001600160a01b031681565b6200032b6200036e36600462001d2e565b6200082e565b620003aa6200038536600462001cac565b60686020526000908152604090208054600182015460029092015460ff909116919083565b6040805193151584526020840192909252908201526060016200026a565b6200028a620003d936600462001f25565b61ffff166000908152607460205260409020546001600160a01b031690565b6200028a6200040936600462001cac565b606c602052600090815260409020546001600160a01b031681565b6200032b620008fb565b62000438606f5481565b6040519081526020016200026a565b6200032b6200045836600462001d60565b62000936565b6200030562000a0d565b6033546001600160a01b03166200028a565b6033546001600160a01b0316331460405190151581526020016200026a565b6200032b620004aa36600462001f7c565b62000a1e565b6200032b620004c136600462001fa3565b62001246565b6200043860705481565b6200043860675481565b62000305620012ba565b6200032b620004f636600462001cac565b62001350565b6200032b6200050d36600462001cac565b62001412565b6200032b620014a1565b6200032b6200052e36600462001e0e565b62001509565b6200028a6200054536600462001cf1565b620015db565b607554620002d39061ffff1681565b6200030562001866565b6200043860665481565b6200032b6200057f36600462001cac565b62001875565b6200032b6200059636600462001cac565b620019d1565b606b546200028a906001600160a01b031681565b6000805b9250929050565b6071546000906001600160a01b0316620006145760405162461bcd60e51b81526020600482015260156024820152741c1c9bde1e50591b5a5b881a5cc81b9bdd081cd95d605a1b60448201526064015b60405180910390fd5b606b546001600160a01b0316620006665760405162461bcd60e51b81526020600482015260156024820152744d495353494e475f4c4f434b5f54454d504c41544560581b60448201526064016200060b565b606b546071546040516000926001600160a01b0390811692169085906200068d9062001ba7565b6200069b939291906200203c565b604051809103906000f080158015620006b8573d6000803e3d6000fd5b50604080516060810182526001808252600060208084018281528486018381526001600160a01b03881680855260689093528684209551865460ff191690151517865590519385019390935591516002909301929092559151929350839233917f01017ed19df0c7f8acc436147b234b09664a9fb4797b4fa3fb9e599c2eb67be791a39392505050565b6060606a805462000753906200220d565b80601f016020809104026020016040519081016040528092919081815260200182805462000781906200220d565b8015620007d25780601f10620007a657610100808354040283529160200191620007d2565b820191906000526020600020905b815481529060010190602001808311620007b457829003601f168201915b5050505050905090565b3360009081526068602052604090205460ff166200082a5760405162461bcd60e51b815260206004820152600a6024820152694f4e4c595f4c4f434b5360b01b60448201526064016200060b565b5050565b6033546001600160a01b031633146200085b5760405162461bcd60e51b81526004016200060b9062002137565b6001600160a01b038281166000908152606c6020526040902080546001600160a01b0319169183169182179055156200082a57606d5460405163c640752d60e01b81526001600160a01b03848116600483015291821660248201529082169063c640752d90604401600060405180830381600087803b158015620008de57600080fd5b505af1158015620008f3573d6000803e3d6000fd5b505050505050565b6033546001600160a01b03163314620009285760405162461bcd60e51b81526004016200060b9062002137565b62000934600062001a6b565b565b6033546001600160a01b03163314620009635760405162461bcd60e51b81526004016200060b9062002137565b606e80546001600160a01b03808b166001600160a01b031992831617909255606d8054928a1692909116919091179055606f869055620009a6606a868662001bb5565b50620009b56069848462001bb5565b5060708190556040517fa14230a1687e9bb8cdc0f3931d27c3a806e88c1c2235ba7756d6911feb35be6790620009fb908a908a908a908a908a908a908a908a9062002073565b60405180910390a15050505050505050565b60606069805462000753906200220d565b3360009081526068602052604090205460ff1662000a6c5760405162461bcd60e51b815260206004820152600a6024820152694f4e4c595f4c4f434b5360b01b60448201526064016200060b565b81156200082a57600080336001600160a01b0316639d76ea586040518163ffffffff1660e01b815260040160206040518083038186803b15801562000ab057600080fd5b505afa15801562000ac5573d6000803e3d6000fd5b505050506040513d601f19601f8201168201806040525081019062000aeb919062001cd2565b90506001600160a01b0381161580159062000b145750606d546001600160a01b03828116911614155b1562000bd8576001600160a01b038082166000908152606c602052604090205416801562000bd157606d5460405163c1e553e760e01b81526001600160a01b0384811660048301526024820188905291821660448201529082169063c1e553e790606401602060405180830381600087803b15801562000b9357600080fd5b505af115801562000ba8573d6000803e3d6000fd5b505050506040513d601f19601f8201168201806040525081019062000bce919062001f63565b92505b5062000bdc565b8391505b8160665462000bec919062002195565b606655336000908152606860205260408120600101805484929062000c1390849062002195565b90915550506001600160a01b038316156200124057606e546001600160a01b039081166000908152606c60205260409020541680156200123e57606e54606d5460405163c1e553e760e01b81526001600160a01b039283166004820152670de0b6b3a76400006024820152908216604482015260009183169063c1e553e790606401602060405180830381600087803b15801562000cb057600080fd5b505af115801562000cc5573d6000803e3d6000fd5b505050506040513d601f19601f8201168201806040525081019062000ceb919062001f63565b905060008160643a606f5462000d029190620021d1565b62000d17906806c6b935b8bbd40000620021d1565b62000d239190620021b0565b62000d2f9190620021b0565b905060006001607054111562000e16576066548062000d50886002620021d1565b62000d5c9190620021b0565b62000d6990600262002195565b606e546040516370a0823160e01b815230600482015289916001600160a01b0316906370a0823190602401602060405180830381600087803b15801562000daf57600080fd5b505af115801562000dc4573d6000803e3d6000fd5b505050506040513d601f19601f8201168201806040525081019062000dea919062001f63565b62000df69190620021d1565b62000e029190620021b0565b62000e0e9190620021b0565b905062000ecf565b606654600287606e60009054906101000a90046001600160a01b03166001600160a01b03166318160ddd6040518163ffffffff1660e01b8152600401602060405180830381600087803b15801562000e6d57600080fd5b505af115801562000e82573d6000803e3d6000fd5b505050506040513d601f19601f8201168201806040525081019062000ea8919062001f63565b62000eb49190620021d1565b62000ec09190620021b0565b62000ecc9190620021b0565b90505b8082111562000edc578091505b81156200123a576000606462000ef4846014620021d1565b62000f009190620021b0565b905060016070541115620010ed57606e546040516370a0823160e01b81523060048201526000916001600160a01b0316906370a0823190602401602060405180830381600087803b15801562000f5557600080fd5b505af115801562000f6a573d6000803e3d6000fd5b505050506040513d601f19601f8201168201806040525081019062000f90919062001f63565b905083811115620010e657606e546001600160a01b031663a9059cbb8a62000fb98588620021f3565b6040516001600160e01b031960e085901b1681526001600160a01b0390921660048301526024820152604401602060405180830381600087803b1580156200100057600080fd5b505af115801562001015573d6000803e3d6000fd5b505050506040513d601f19601f820116820180604052508101906200103b919062001e4f565b50606e546001600160a01b031663a9059cbb620010606033546001600160a01b031690565b6040516001600160e01b031960e084901b1681526001600160a01b03909116600482015260248101859052604401602060405180830381600087803b158015620010a957600080fd5b505af1158015620010be573d6000803e3d6000fd5b505050506040513d601f19601f82011682018060405250810190620010e4919062001e4f565b505b5062001238565b606e546001600160a01b03166340c10f19896200110b8487620021f3565b6040516001600160e01b031960e085901b1681526001600160a01b0390921660048301526024820152604401602060405180830381600087803b1580156200115257600080fd5b505af115801562001167573d6000803e3d6000fd5b505050506040513d601f19601f820116820180604052508101906200118d919062001e4f565b50606e546001600160a01b03166340c10f19620011b26033546001600160a01b031690565b6040516001600160e01b031960e084901b1681526001600160a01b03909116600482015260248101849052604401602060405180830381600087803b158015620011fb57600080fd5b505af115801562001210573d6000803e3d6000fd5b505050506040513d601f19601f8201168201806040525081019062001236919062001e4f565b505b505b5050505b505b50505050565b6033546001600160a01b03163314620012735760405162461bcd60e51b81526004016200060b9062002137565b6066829055606781905560408051838152602081018390527f7b2ce3c83b45f79993ff2cbf5651caff2dfe04010b4846e03066b84e3e4059bb910160405180910390a15050565b60698054620012c9906200220d565b80601f0160208091040260200160405190810160405280929190818152602001828054620012f7906200220d565b8015620013485780601f106200131c5761010080835404028352916020019162001348565b820191906000526020600020905b8154815290600101906020018083116200132a57829003601f168201915b505050505081565b600054610100900460ff166200136d5760005460ff161562001371565b303b155b620013905760405162461bcd60e51b81526004016200060b90620020e9565b600054610100900460ff16158015620013b3576000805461ffff19166101011790555b603380546001600160a01b0319166001600160a01b0384169081179091556040516000907f8be0079c531659141344cd1fd0a4f28419497f9722a3daafe3b4186f6b6457e0908290a380156200082a576000805461ff00191690555050565b600054610100900460ff166200142f5760005460ff161562001433565b303b155b620014525760405162461bcd60e51b81526004016200060b90620020e9565b600054610100900460ff1615801562001475576000805461ffff19166101011790555b620014808262001350565b6200148a62001abd565b5080156200082a576000805461ff00191690555050565b6071546001600160a01b031615620014fc5760405162461bcd60e51b815260206004820152601b60248201527f50726f787941646d696e20616c7265616479206465706c6f796564000000000060448201526064016200060b565b6200150662001abd565b50565b6033546001600160a01b03163314620015365760405162461bcd60e51b81526004016200060b9062002137565b6001600160a01b0382166000818152607360209081526040808320805461ffff191661ffff8781169182179092558085526074909352922080546001600160a01b0319169093179092556075541610156200159d576075805461ffff191661ffff83161790555b60405161ffff8216906001600160a01b038416907fd36d021c4aa145e30eadc73e34284101030d688b9eb9413a4dc3af40ab1d474890600090a35050565b6071546000906001600160a01b0316620016305760405162461bcd60e51b81526020600482015260156024820152741c1c9bde1e50591b5a5b881a5cc81b9bdd081cd95d605a1b60448201526064016200060b565b6200163c833362001b1d565b15156001146200169b5760405162461bcd60e51b8152602060048201526024808201527f63616c6c6572206973206e6f742061206d616e61676572206f662074686973206044820152636c6f636b60e01b60648201526084016200060b565b60008390506000816001600160a01b031663d1bbd49c6040518163ffffffff1660e01b815260040160206040518083038186803b158015620016dc57600080fd5b505afa158015620016f1573d6000803e3d6000fd5b505050506040513d601f19601f8201168201806040525081019062001717919062001f44565b9050620017268160016200216c565b61ffff168461ffff1614620017945760405162461bcd60e51b815260206004820152602d60248201527f76657273696f6e206572726f723a206f6e6c79202b3120696e6372656d656e7460448201526c1cc8185c9948185b1b1bddd959609a1b60648201526084016200060b565b61ffff84166000908152607460205260409081902054607254915163266a23b160e21b81526001600160a01b0388811660048301529182166024820181905292889216906399a88ec490604401600060405180830381600087803b158015620017fc57600080fd5b505af115801562001811573d6000803e3d6000fd5b5050604080516001600160a01b038b16815261ffff8a1660208201527f5e7b70a9e6f0b4c7cf2657cf563ce85eed3aebb7731396118d01a195d218fd5e935001905060405180910390a1509495945050505050565b606a8054620012c9906200220d565b6033546001600160a01b03163314620018a25760405162461bcd60e51b81526004016200060b9062002137565b604051636eadde4360e01b815230600482015260006024820181905260448201819052606482018190526084820181905260c060a483015260c48201526001600160a01b03821690636eadde439060e401600060405180830381600087803b1580156200190e57600080fd5b505af115801562001923573d6000803e3d6000fd5b50505050806001600160a01b031663f0ba60406040518163ffffffff1660e01b8152600401600060405180830381600087803b1580156200196357600080fd5b505af115801562001978573d6000803e3d6000fd5b5050606b80546001600160a01b0319166001600160a01b0385169081179091556040519081527f4fa58418e580e78539e8d3d8d17d94dbaca0927533953c8248f313e6f8927c219250602001905060405180910390a150565b6033546001600160a01b03163314620019fe5760405162461bcd60e51b81526004016200060b9062002137565b6001600160a01b03811662001a655760405162461bcd60e51b815260206004820152602660248201527f4f776e61626c653a206e6577206f776e657220697320746865207a65726f206160448201526564647265737360d01b60648201526084016200060b565b62001506815b603380546001600160a01b038381166001600160a01b0319831681179093556040519116919082907f8be0079c531659141344cd1fd0a4f28419497f9722a3daafe3b4186f6b6457e090600090a35050565b600060405162001acd9062001c44565b604051809103906000f08015801562001aea573d6000803e3d6000fd5b50607280546001600160a01b03929092166001600160a01b03199283168117909155607180549092168117909155919050565b60405163aae4b8f760e01b81526001600160a01b038281166004830152600091849182169063aae4b8f79060240160206040518083038186803b15801562001b6457600080fd5b505afa15801562001b79573d6000803e3d6000fd5b505050506040513d601f19601f8201168201806040525081019062001b9f919062001e4f565b949350505050565b610f2f806200229e83390190565b82805462001bc3906200220d565b90600052602060002090601f01602090048101928262001be7576000855562001c32565b82601f1062001c025782800160ff1982351617855562001c32565b8280016001018555821562001c32579182015b8281111562001c3257823582559160200191906001019062001c15565b5062001c4092915062001c52565b5090565b61079780620031cd83390190565b5b8082111562001c40576000815560010162001c53565b60008083601f84011262001c7b578182fd5b50813567ffffffffffffffff81111562001c93578182fd5b602083019150836020828501011115620005b457600080fd5b60006020828403121562001cbe578081fd5b813562001ccb8162002276565b9392505050565b60006020828403121562001ce4578081fd5b815162001ccb8162002276565b6000806040838503121562001d04578081fd5b823562001d118162002276565b9150602083013562001d23816200228c565b809150509250929050565b6000806040838503121562001d41578182fd5b823562001d4e8162002276565b9150602083013562001d238162002276565b60008060008060008060008060c0898b03121562001d7c578384fd5b883562001d898162002276565b9750602089013562001d9b8162002276565b965060408901359550606089013567ffffffffffffffff8082111562001dbf578586fd5b62001dcd8c838d0162001c69565b909750955060808b013591508082111562001de6578485fd5b5062001df58b828c0162001c69565b999c989b50969995989497949560a00135949350505050565b6000806040838503121562001d04578182fd5b6000806040838503121562001e34578182fd5b823562001e418162002276565b946020939093013593505050565b60006020828403121562001e61578081fd5b8151801515811462001ccb578182fd5b60006020828403121562001e83578081fd5b813567ffffffffffffffff8082111562001e9b578283fd5b818401915084601f83011262001eaf578283fd5b81358181111562001ec45762001ec462002260565b604051601f8201601f19908116603f0116810190838211818310171562001eef5762001eef62002260565b8160405282815287602084870101111562001f08578586fd5b826020860160208301379182016020019490945295945050505050565b60006020828403121562001f37578081fd5b813562001ccb816200228c565b60006020828403121562001f56578081fd5b815162001ccb816200228c565b60006020828403121562001f75578081fd5b5051919050565b6000806040838503121562001f8f578182fd5b82359150602083013562001d238162002276565b6000806040838503121562001fb6578182fd5b50508035926020909101359150565b60008151808452815b8181101562001fec5760208185018101518683018201520162001fce565b8181111562001ffe5782602083870101525b50601f01601f19169290920160200192915050565b81835281816020850137506000828201602090810191909152601f909101601f19169091010190565b6001600160a01b038481168252831660208201526060604082018190526000906200206a9083018462001fc5565b95945050505050565b6001600160a01b038981168252881660208201526040810187905260c060608201819052600090620020a9908301878962002013565b8281036080840152620020be81868862002013565b9150508260a08301529998505050505050505050565b60208152600062001ccb602083018462001fc5565b6020808252602e908201527f496e697469616c697a61626c653a20636f6e747261637420697320616c72656160408201526d191e481a5b9a5d1a585b1a5e995960921b606082015260800190565b6020808252818101527f4f776e61626c653a2063616c6c6572206973206e6f7420746865206f776e6572604082015260600190565b600061ffff8083168185168083038211156200218c576200218c6200224a565b01949350505050565b60008219821115620021ab57620021ab6200224a565b500190565b600082620021cc57634e487b7160e01b81526012600452602481fd5b500490565b6000816000190483118215151615620021ee57620021ee6200224a565b500290565b6000828210156200220857620022086200224a565b500390565b600181811c908216806200222257607f821691505b602082108114156200224457634e487b7160e01b600052602260045260246000fd5b50919050565b634e487b7160e01b600052601160045260246000fd5b634e487b7160e01b600052604160045260246000fd5b6001600160a01b03811681146200150657600080fd5b61ffff811681146200150657600080fdfe608060405260405162000f2f38038062000f2f8339810160408190526200002691620004da565b82816200005560017f360894a13ba1a3210667c828492db98dca3e2076cc3735a920a3ca505d382bbd62000609565b60008051602062000ee8833981519152146200008157634e487b7160e01b600052600160045260246000fd5b6200008f82826000620000ff565b50620000bf905060017fb53127684a568b3173ae13b9f8a6016e243e63b6e8ee1178d6a717850b5d610462000609565b60008051602062000ec883398151915214620000eb57634e487b7160e01b600052600160045260246000fd5b620000f6826200013c565b50505062000672565b6200010a8362000197565b600082511180620001185750805b156200013757620001358383620001d960201b620002601760201c565b505b505050565b7f7e644d79422f17c01e4894b5f4f588d331ebfa28653d42ae832dc59e38c9798f6200016762000208565b604080516001600160a01b03928316815291841660208301520160405180910390a1620001948162000241565b50565b620001a281620002f6565b6040516001600160a01b038216907fbc7cd75a20ee27fd9adebab32041f755214dbc6bffa90cc0225b39da2e5c2d3b90600090a250565b606062000201838360405180606001604052806027815260200162000f086027913962000399565b9392505050565b60006200023260008051602062000ec883398151915260001b6200047660201b620002081760201c565b546001600160a01b0316919050565b6001600160a01b038116620002ac5760405162461bcd60e51b815260206004820152602660248201527f455243313936373a206e65772061646d696e20697320746865207a65726f206160448201526564647265737360d01b60648201526084015b60405180910390fd5b80620002d560008051602062000ec883398151915260001b6200047660201b620002081760201c565b80546001600160a01b0319166001600160a01b039290921691909117905550565b6200030c816200047960201b6200028c1760201c565b620003705760405162461bcd60e51b815260206004820152602d60248201527f455243313936373a206e657720696d706c656d656e746174696f6e206973206e60448201526c1bdd08184818dbdb9d1c9858dd609a1b6064820152608401620002a3565b80620002d560008051602062000ee883398151915260001b6200047660201b620002081760201c565b6060833b620003fa5760405162461bcd60e51b815260206004820152602660248201527f416464726573733a2064656c65676174652063616c6c20746f206e6f6e2d636f6044820152651b9d1c9858dd60d21b6064820152608401620002a3565b600080856001600160a01b031685604051620004179190620005b6565b600060405180830381855af49150503d806000811462000454576040519150601f19603f3d011682016040523d82523d6000602084013e62000459565b606091505b5090925090506200046c8282866200047f565b9695505050505050565b90565b3b151590565b606083156200049057508162000201565b825115620004a15782518084602001fd5b8160405162461bcd60e51b8152600401620002a39190620005d4565b80516001600160a01b0381168114620004d557600080fd5b919050565b600080600060608486031215620004ef578283fd5b620004fa84620004bd565b92506200050a60208501620004bd565b60408501519092506001600160401b038082111562000527578283fd5b818601915086601f8301126200053b578283fd5b8151818111156200055057620005506200065c565b604051601f8201601f19908116603f011681019083821181831017156200057b576200057b6200065c565b8160405282815289602084870101111562000594578586fd5b620005a78360208301602088016200062d565b80955050505050509250925092565b60008251620005ca8184602087016200062d565b9190910192915050565b6020815260008251806020840152620005f58160408501602087016200062d565b601f01601f19169190910160400192915050565b6000828210156200062857634e487b7160e01b81526011600452602481fd5b500390565b60005b838110156200064a57818101518382015260200162000630565b83811115620001355750506000910152565b634e487b7160e01b600052604160045260246000fd5b61084680620006826000396000f3fe60806040526004361061004e5760003560e01c80633659cfe6146100655780634f1ef286146100855780635c60da1b146100985780638f283970146100c9578063f851a440146100e95761005d565b3661005d5761005b6100fe565b005b61005b6100fe565b34801561007157600080fd5b5061005b6100803660046106d6565b610118565b61005b6100933660046106f0565b61015f565b3480156100a457600080fd5b506100ad6101d0565b6040516001600160a01b03909116815260200160405180910390f35b3480156100d557600080fd5b5061005b6100e43660046106d6565b61020b565b3480156100f557600080fd5b506100ad610235565b610106610292565b610116610111610331565b61033b565b565b61012061035f565b6001600160a01b0316336001600160a01b031614156101575761015481604051806020016040528060008152506000610392565b50565b6101546100fe565b61016761035f565b6001600160a01b0316336001600160a01b031614156101c8576101c38383838080601f01602080910402602001604051908101604052809392919081815260200183838082843760009201919091525060019250610392915050565b505050565b6101c36100fe565b60006101da61035f565b6001600160a01b0316336001600160a01b03161415610200576101fb610331565b905090565b6102086100fe565b90565b61021361035f565b6001600160a01b0316336001600160a01b0316141561015757610154816103bd565b600061023f61035f565b6001600160a01b0316336001600160a01b03161415610200576101fb61035f565b606061028583836040518060600160405280602781526020016107ea60279139610411565b9392505050565b3b151590565b61029a61035f565b6001600160a01b0316336001600160a01b031614156101165760405162461bcd60e51b815260206004820152604260248201527f5472616e73706172656e745570677261646561626c6550726f78793a2061646d60448201527f696e2063616e6e6f742066616c6c6261636b20746f2070726f78792074617267606482015261195d60f21b608482015260a4015b60405180910390fd5b60006101fb6104e5565b3660008037600080366000845af43d6000803e80801561035a573d6000f35b3d6000fd5b60007fb53127684a568b3173ae13b9f8a6016e243e63b6e8ee1178d6a717850b5d61035b546001600160a01b0316919050565b61039b8361050d565b6000825111806103a85750805b156101c3576103b78383610260565b50505050565b7f7e644d79422f17c01e4894b5f4f588d331ebfa28653d42ae832dc59e38c9798f6103e661035f565b604080516001600160a01b03928316815291841660208301520160405180910390a16101548161054d565b6060833b6104705760405162461bcd60e51b815260206004820152602660248201527f416464726573733a2064656c65676174652063616c6c20746f206e6f6e2d636f6044820152651b9d1c9858dd60d21b6064820152608401610328565b600080856001600160a01b03168560405161048b919061076e565b600060405180830381855af49150503d80600081146104c6576040519150601f19603f3d011682016040523d82523d6000602084013e6104cb565b606091505b50915091506104db8282866105f6565b9695505050505050565b60007f360894a13ba1a3210667c828492db98dca3e2076cc3735a920a3ca505d382bbc610383565b6105168161062f565b6040516001600160a01b038216907fbc7cd75a20ee27fd9adebab32041f755214dbc6bffa90cc0225b39da2e5c2d3b90600090a250565b6001600160a01b0381166105b25760405162461bcd60e51b815260206004820152602660248201527f455243313936373a206e65772061646d696e20697320746865207a65726f206160448201526564647265737360d01b6064820152608401610328565b807fb53127684a568b3173ae13b9f8a6016e243e63b6e8ee1178d6a717850b5d61035b80546001600160a01b0319166001600160a01b039290921691909117905550565b60608315610605575081610285565b8251156106155782518084602001fd5b8160405162461bcd60e51b8152600401610328919061078a565b803b6106935760405162461bcd60e51b815260206004820152602d60248201527f455243313936373a206e657720696d706c656d656e746174696f6e206973206e60448201526c1bdd08184818dbdb9d1c9858dd609a1b6064820152608401610328565b807f360894a13ba1a3210667c828492db98dca3e2076cc3735a920a3ca505d382bbc6105d5565b80356001600160a01b03811681146106d157600080fd5b919050565b6000602082840312156106e7578081fd5b610285826106ba565b600080600060408486031215610704578182fd5b61070d846106ba565b9250602084013567ffffffffffffffff80821115610729578384fd5b818601915086601f83011261073c578384fd5b81358181111561074a578485fd5b87602082850101111561075b578485fd5b6020830194508093505050509250925092565b600082516107808184602087016107bd565b9190910192915050565b60208152600082518060208401526107a98160408501602087016107bd565b601f01601f19169190910160400192915050565b60005b838110156107d85781810151838201526020016107c0565b838111156103b7575050600091015256fe416464726573733a206c6f772d6c6576656c2064656c65676174652063616c6c206661696c6564a264697066735822122052c8a36e7b4143b5b94afe65687d28722a5b2e3055b6e9b4e846782a7baba5d564736f6c63430008040033b53127684a568b3173ae13b9f8a6016e243e63b6e8ee1178d6a717850b5d6103360894a13ba1a3210667c828492db98dca3e2076cc3735a920a3ca505d382bbc416464726573733a206c6f772d6c6576656c2064656c65676174652063616c6c206661696c6564608060405234801561001057600080fd5b5061001a3361001f565b61006f565b600080546001600160a01b038381166001600160a01b0319831681178455604051919092169283917f8be0079c531659141344cd1fd0a4f28419497f9722a3daafe3b4186f6b6457e09190a35050565b6107198061007e6000396000f3fe60806040526004361061007b5760003560e01c80639623609d1161004e5780639623609d1461011157806399a88ec414610124578063f2fde38b14610144578063f3b7dead1461016457600080fd5b8063204e1c7a14610080578063715018a6146100bc5780637eff275e146100d35780638da5cb5b146100f3575b600080fd5b34801561008c57600080fd5b506100a061009b3660046104d8565b610184565b6040516001600160a01b03909116815260200160405180910390f35b3480156100c857600080fd5b506100d1610215565b005b3480156100df57600080fd5b506100d16100ee366004610517565b610254565b3480156100ff57600080fd5b506000546001600160a01b03166100a0565b6100d161011f36600461054f565b6102de565b34801561013057600080fd5b506100d161013f366004610517565b61036f565b34801561015057600080fd5b506100d161015f3660046104d8565b6103c7565b34801561017057600080fd5b506100a061017f3660046104d8565b610462565b6000806000836001600160a01b03166040516101aa90635c60da1b60e01b815260040190565b600060405180830381855afa9150503d80600081146101e5576040519150601f19603f3d011682016040523d82523d6000602084013e6101ea565b606091505b5091509150816101f957600080fd5b8080602001905181019061020d91906104fb565b949350505050565b6000546001600160a01b031633146102485760405162461bcd60e51b815260040161023f90610683565b60405180910390fd5b6102526000610488565b565b6000546001600160a01b0316331461027e5760405162461bcd60e51b815260040161023f90610683565b6040516308f2839760e41b81526001600160a01b038281166004830152831690638f283970906024015b600060405180830381600087803b1580156102c257600080fd5b505af11580156102d6573d6000803e3d6000fd5b505050505050565b6000546001600160a01b031633146103085760405162461bcd60e51b815260040161023f90610683565b60405163278f794360e11b81526001600160a01b03841690634f1ef2869034906103389086908690600401610620565b6000604051808303818588803b15801561035157600080fd5b505af1158015610365573d6000803e3d6000fd5b5050505050505050565b6000546001600160a01b031633146103995760405162461bcd60e51b815260040161023f90610683565b604051631b2ce7f360e11b81526001600160a01b038281166004830152831690633659cfe6906024016102a8565b6000546001600160a01b031633146103f15760405162461bcd60e51b815260040161023f90610683565b6001600160a01b0381166104565760405162461bcd60e51b815260206004820152602660248201527f4f776e61626c653a206e6577206f776e657220697320746865207a65726f206160448201526564647265737360d01b606482015260840161023f565b61045f81610488565b50565b6000806000836001600160a01b03166040516101aa906303e1469160e61b815260040190565b600080546001600160a01b038381166001600160a01b0319831681178455604051919092169283917f8be0079c531659141344cd1fd0a4f28419497f9722a3daafe3b4186f6b6457e09190a35050565b6000602082840312156104e9578081fd5b81356104f4816106ce565b9392505050565b60006020828403121561050c578081fd5b81516104f4816106ce565b60008060408385031215610529578081fd5b8235610534816106ce565b91506020830135610544816106ce565b809150509250929050565b600080600060608486031215610563578081fd5b833561056e816106ce565b9250602084013561057e816106ce565b9150604084013567ffffffffffffffff8082111561059a578283fd5b818601915086601f8301126105ad578283fd5b8135818111156105bf576105bf6106b8565b604051601f8201601f19908116603f011681019083821181831017156105e7576105e76106b8565b816040528281528960208487010111156105ff578586fd5b82602086016020830137856020848301015280955050505050509250925092565b60018060a01b0383168152600060206040818401528351806040850152825b8181101561065b5785810183015185820160600152820161063f565b8181111561066c5783606083870101525b50601f01601f191692909201606001949350505050565b6020808252818101527f4f776e61626c653a2063616c6c6572206973206e6f7420746865206f776e6572604082015260600190565b634e487b7160e01b600052604160045260246000fd5b6001600160a01b038116811461045f57600080fdfea26469706673582212206bfbd5a7c3c7a5d031162740bbd1c9d20c20cd2f6c27b9b174aaeb71dc40a23564736f6c63430008040033a26469706673582212207e74c5ef74ff72f505866527828f565a7f24207481cb5bfa272bcf1e52ed3db364736f6c63430008040033",
  "linkReferences": {},
  "deployedLinkReferences": {}
}