{
  "_format": "hh-sol-artifact-1",
  "contractName": "Unlock",
  "sourceName": "contracts/Unlock.sol",
  "abi": [
    {
      "anonymous": false,
      "inputs": [
        {
          "indexed": false,
          "internalType": "address",
          "name": "udt",
          "type": "address"
        },
        {
          "indexed": false,
          "internalType": "address",
          "name": "weth",
          "type": "address"
        },
        {
          "indexed": false,
          "internalType": "uint256",
          "name": "estimatedGasForPurchase",
          "type": "uint256"
        },
        {
          "indexed": false,
          "internalType": "string",
          "name": "globalTokenSymbol",
          "type": "string"
        },
        {
          "indexed": false,
          "internalType": "string",
          "name": "globalTokenURI",
          "type": "string"
        },
        {
          "indexed": false,
          "internalType": "uint256",
          "name": "chainId",
          "type": "uint256"
        }
      ],
      "name": "ConfigUnlock",
      "type": "event"
    },
    {
      "anonymous": false,
      "inputs": [
        {
          "indexed": false,
          "internalType": "uint256",
          "name": "grossNetworkProduct",
          "type": "uint256"
        },
        {
          "indexed": false,
          "internalType": "uint256",
          "name": "_valueInETH",
          "type": "uint256"
        },
        {
          "indexed": false,
          "internalType": "address",
          "name": "tokenAddress",
          "type": "address"
        },
        {
          "indexed": false,
          "internalType": "uint256",
          "name": "value",
          "type": "uint256"
        },
        {
          "indexed": false,
          "internalType": "address",
          "name": "lockAddress",
          "type": "address"
        }
      ],
      "name": "GNPChanged",
      "type": "event"
    },
    {
      "anonymous": false,
      "inputs": [
        {
          "indexed": false,
          "internalType": "address",
          "name": "lockAddress",
          "type": "address"
        },
        {
          "indexed": false,
          "internalType": "uint16",
          "name": "version",
          "type": "uint16"
        }
      ],
      "name": "LockUpgraded",
      "type": "event"
    },
    {
      "anonymous": false,
      "inputs": [
        {
          "indexed": true,
          "internalType": "address",
          "name": "lockOwner",
          "type": "address"
        },
        {
          "indexed": true,
          "internalType": "address",
          "name": "newLockAddress",
          "type": "address"
        }
      ],
      "name": "NewLock",
      "type": "event"
    },
    {
      "anonymous": false,
      "inputs": [
        {
          "indexed": true,
          "internalType": "address",
          "name": "previousOwner",
          "type": "address"
        },
        {
          "indexed": true,
          "internalType": "address",
          "name": "newOwner",
          "type": "address"
        }
      ],
      "name": "OwnershipTransferred",
      "type": "event"
    },
    {
      "anonymous": false,
      "inputs": [
        {
          "indexed": false,
          "internalType": "uint256",
          "name": "grossNetworkProduct",
          "type": "uint256"
        },
        {
          "indexed": false,
          "internalType": "uint256",
          "name": "totalDiscountGranted",
          "type": "uint256"
        }
      ],
      "name": "ResetTrackedValue",
      "type": "event"
    },
    {
      "anonymous": false,
      "inputs": [
        {
          "indexed": false,
          "internalType": "address",
          "name": "publicLockAddress",
          "type": "address"
        }
      ],
      "name": "SetLockTemplate",
      "type": "event"
    },
    {
      "anonymous": false,
      "inputs": [
        {
          "indexed": true,
          "internalType": "address",
          "name": "impl",
          "type": "address"
        },
        {
          "indexed": true,
          "internalType": "uint16",
          "name": "version",
          "type": "uint16"
        }
      ],
      "name": "UnlockTemplateAdded",
      "type": "event"
    },
    {
      "inputs": [
        {
          "internalType": "address",
          "name": "sender",
          "type": "address"
        }
      ],
      "name": "__initializeOwnable",
      "outputs": [],
      "stateMutability": "nonpayable",
      "type": "function"
    },
    {
      "inputs": [
        {
          "internalType": "address",
          "name": "impl",
          "type": "address"
        },
        {
          "internalType": "uint16",
          "name": "version",
          "type": "uint16"
        }
      ],
      "name": "addLockTemplate",
      "outputs": [],
      "stateMutability": "nonpayable",
      "type": "function"
    },
    {
      "inputs": [],
      "name": "chainId",
      "outputs": [
        {
          "internalType": "uint256",
          "name": "",
          "type": "uint256"
        }
      ],
      "stateMutability": "view",
      "type": "function"
    },
    {
      "inputs": [
        {
          "internalType": "address",
          "name": "",
          "type": "address"
        },
        {
          "internalType": "uint256",
          "name": "",
          "type": "uint256"
        }
      ],
      "name": "computeAvailableDiscountFor",
      "outputs": [
        {
          "internalType": "uint256",
          "name": "discount",
          "type": "uint256"
        },
        {
          "internalType": "uint256",
          "name": "tokens",
          "type": "uint256"
        }
      ],
      "stateMutability": "pure",
      "type": "function"
    },
    {
      "inputs": [
        {
          "internalType": "address",
          "name": "_udt",
          "type": "address"
        },
        {
          "internalType": "address",
          "name": "_weth",
          "type": "address"
        },
        {
          "internalType": "uint256",
          "name": "_estimatedGasForPurchase",
          "type": "uint256"
        },
        {
          "internalType": "string",
          "name": "_symbol",
          "type": "string"
        },
        {
          "internalType": "string",
          "name": "_URI",
          "type": "string"
        },
        {
          "internalType": "uint256",
          "name": "_chainId",
          "type": "uint256"
        }
      ],
      "name": "configUnlock",
      "outputs": [],
      "stateMutability": "nonpayable",
      "type": "function"
    },
    {
      "inputs": [
        {
          "internalType": "uint256",
          "name": "_expirationDuration",
          "type": "uint256"
        },
        {
          "internalType": "address",
          "name": "_tokenAddress",
          "type": "address"
        },
        {
          "internalType": "uint256",
          "name": "_keyPrice",
          "type": "uint256"
        },
        {
          "internalType": "uint256",
          "name": "_maxNumberOfKeys",
          "type": "uint256"
        },
        {
          "internalType": "string",
          "name": "_lockName",
          "type": "string"
        },
        {
          "internalType": "bytes12",
          "name": "",
          "type": "bytes12"
        }
      ],
      "name": "createLock",
      "outputs": [
        {
          "internalType": "address",
          "name": "",
          "type": "address"
        }
      ],
      "stateMutability": "nonpayable",
      "type": "function"
    },
    {
      "inputs": [
        {
          "internalType": "bytes",
          "name": "data",
          "type": "bytes"
        }
      ],
      "name": "createUpgradeableLock",
      "outputs": [
        {
          "internalType": "address",
          "name": "",
          "type": "address"
        }
      ],
      "stateMutability": "nonpayable",
      "type": "function"
    },
    {
      "inputs": [
        {
          "internalType": "bytes",
          "name": "data",
          "type": "bytes"
        },
        {
          "internalType": "uint16",
          "name": "_lockVersion",
          "type": "uint16"
        }
      ],
      "name": "createUpgradeableLockAtVersion",
      "outputs": [
        {
          "internalType": "address",
          "name": "",
          "type": "address"
        }
      ],
      "stateMutability": "nonpayable",
      "type": "function"
    },
    {
      "inputs": [],
      "name": "estimatedGasForPurchase",
      "outputs": [
        {
          "internalType": "uint256",
          "name": "",
          "type": "uint256"
        }
      ],
      "stateMutability": "view",
      "type": "function"
    },
    {
      "inputs": [],
      "name": "getGlobalBaseTokenURI",
      "outputs": [
        {
          "internalType": "string",
          "name": "",
          "type": "string"
        }
      ],
      "stateMutability": "view",
      "type": "function"
    },
    {
      "inputs": [],
      "name": "getGlobalTokenSymbol",
      "outputs": [
        {
          "internalType": "string",
          "name": "",
          "type": "string"
        }
      ],
      "stateMutability": "view",
      "type": "function"
    },
    {
      "inputs": [],
      "name": "globalBaseTokenURI",
      "outputs": [
        {
          "internalType": "string",
          "name": "",
          "type": "string"
        }
      ],
      "stateMutability": "view",
      "type": "function"
    },
    {
      "inputs": [],
      "name": "globalTokenSymbol",
      "outputs": [
        {
          "internalType": "string",
          "name": "",
          "type": "string"
        }
      ],
      "stateMutability": "view",
      "type": "function"
    },
    {
      "inputs": [],
      "name": "grossNetworkProduct",
      "outputs": [
        {
          "internalType": "uint256",
          "name": "",
          "type": "uint256"
        }
      ],
      "stateMutability": "view",
      "type": "function"
    },
    {
      "inputs": [
        {
          "internalType": "address",
          "name": "_unlockOwner",
          "type": "address"
        }
      ],
      "name": "initialize",
      "outputs": [],
      "stateMutability": "nonpayable",
      "type": "function"
    },
    {
      "inputs": [],
      "name": "initializeProxyAdmin",
      "outputs": [],
      "stateMutability": "nonpayable",
      "type": "function"
    },
    {
      "inputs": [],
      "name": "isOwner",
      "outputs": [
        {
          "internalType": "bool",
          "name": "",
          "type": "bool"
        }
      ],
      "stateMutability": "view",
      "type": "function"
    },
    {
      "inputs": [
        {
          "internalType": "address",
          "name": "",
          "type": "address"
        }
      ],
      "name": "locks",
      "outputs": [
        {
          "internalType": "bool",
          "name": "deployed",
          "type": "bool"
        },
        {
          "internalType": "uint256",
          "name": "totalSales",
          "type": "uint256"
        },
        {
          "internalType": "uint256",
          "name": "yieldedDiscountTokens",
          "type": "uint256"
        }
      ],
      "stateMutability": "view",
      "type": "function"
    },
    {
      "inputs": [],
      "name": "networkBaseFee",
      "outputs": [
        {
          "internalType": "uint256",
          "name": "",
          "type": "uint256"
        }
      ],
      "stateMutability": "view",
      "type": "function"
    },
    {
      "inputs": [],
      "name": "owner",
      "outputs": [
        {
          "internalType": "address",
          "name": "",
          "type": "address"
        }
      ],
      "stateMutability": "view",
      "type": "function"
    },
    {
      "inputs": [],
      "name": "proxyAdminAddress",
      "outputs": [
        {
          "internalType": "address",
          "name": "",
          "type": "address"
        }
      ],
      "stateMutability": "view",
      "type": "function"
    },
    {
      "inputs": [],
      "name": "publicLockAddress",
      "outputs": [
        {
          "internalType": "address",
          "name": "",
          "type": "address"
        }
      ],
      "stateMutability": "view",
      "type": "function"
    },
    {
      "inputs": [
        {
          "internalType": "uint16",
          "name": "_version",
          "type": "uint16"
        }
      ],
      "name": "publicLockImpls",
      "outputs": [
        {
          "internalType": "address",
          "name": "",
          "type": "address"
        }
      ],
      "stateMutability": "view",
      "type": "function"
    },
    {
      "inputs": [],
      "name": "publicLockLatestVersion",
      "outputs": [
        {
          "internalType": "uint16",
          "name": "",
          "type": "uint16"
        }
      ],
      "stateMutability": "view",
      "type": "function"
    },
    {
      "inputs": [
        {
          "internalType": "address",
          "name": "_impl",
          "type": "address"
        }
      ],
      "name": "publicLockVersions",
      "outputs": [
        {
          "internalType": "uint16",
          "name": "",
          "type": "uint16"
        }
      ],
      "stateMutability": "view",
      "type": "function"
    },
    {
      "inputs": [
        {
          "internalType": "uint256",
          "name": "",
          "type": "uint256"
        },
        {
          "internalType": "uint256",
          "name": "",
          "type": "uint256"
        }
      ],
      "name": "recordConsumedDiscount",
      "outputs": [],
      "stateMutability": "view",
      "type": "function"
    },
    {
      "inputs": [
        {
          "internalType": "uint256",
          "name": "_value",
          "type": "uint256"
        },
        {
          "internalType": "address",
          "name": "_referrer",
          "type": "address"
        }
      ],
      "name": "recordKeyPurchase",
      "outputs": [],
      "stateMutability": "nonpayable",
      "type": "function"
    },
    {
      "inputs": [],
      "name": "renounceOwnership",
      "outputs": [],
      "stateMutability": "nonpayable",
      "type": "function"
    },
    {
      "inputs": [
        {
          "internalType": "uint256",
          "name": "_grossNetworkProduct",
          "type": "uint256"
        },
        {
          "internalType": "uint256",
          "name": "_totalDiscountGranted",
          "type": "uint256"
        }
      ],
      "name": "resetTrackedValue",
      "outputs": [],
      "stateMutability": "nonpayable",
      "type": "function"
    },
    {
      "inputs": [
        {
          "internalType": "address",
          "name": "_publicLockAddress",
          "type": "address"
        }
      ],
      "name": "setLockTemplate",
      "outputs": [],
      "stateMutability": "nonpayable",
      "type": "function"
    },
    {
      "inputs": [
        {
          "internalType": "address",
          "name": "_tokenAddress",
          "type": "address"
        },
        {
          "internalType": "address",
          "name": "_oracleAddress",
          "type": "address"
        }
      ],
      "name": "setOracle",
      "outputs": [],
      "stateMutability": "nonpayable",
      "type": "function"
    },
    {
      "inputs": [],
      "name": "totalDiscountGranted",
      "outputs": [
        {
          "internalType": "uint256",
          "name": "",
          "type": "uint256"
        }
      ],
      "stateMutability": "view",
      "type": "function"
    },
    {
      "inputs": [
        {
          "internalType": "address",
          "name": "newOwner",
          "type": "address"
        }
      ],
      "name": "transferOwnership",
      "outputs": [],
      "stateMutability": "nonpayable",
      "type": "function"
    },
    {
      "inputs": [],
      "name": "udt",
      "outputs": [
        {
          "internalType": "address",
          "name": "",
          "type": "address"
        }
      ],
      "stateMutability": "view",
      "type": "function"
    },
    {
      "inputs": [
        {
          "internalType": "address",
          "name": "",
          "type": "address"
        }
      ],
      "name": "uniswapOracles",
      "outputs": [
        {
          "internalType": "contract IUniswapOracle",
          "name": "",
          "type": "address"
        }
      ],
      "stateMutability": "view",
      "type": "function"
    },
    {
      "inputs": [],
      "name": "unlockVersion",
      "outputs": [
        {
          "internalType": "uint16",
          "name": "",
          "type": "uint16"
        }
      ],
      "stateMutability": "pure",
      "type": "function"
    },
    {
      "inputs": [
        {
          "internalType": "address payable",
          "name": "lockAddress",
          "type": "address"
        },
        {
          "internalType": "uint16",
          "name": "version",
          "type": "uint16"
        }
      ],
      "name": "upgradeLock",
      "outputs": [
        {
          "internalType": "address",
          "name": "",
          "type": "address"
        }
      ],
      "stateMutability": "nonpayable",
      "type": "function"
    },
    {
      "inputs": [],
      "name": "weth",
      "outputs": [
        {
          "internalType": "address",
          "name": "",
          "type": "address"
        }
      ],
      "stateMutability": "view",
      "type": "function"
    }
  ],
  "bytecode": "0x608060405234801561001057600080fd5b50613ccc806100206000396000f3fe60806040523480156200001157600080fd5b50600436106200021d5760003560e01c80638da5cb5b1162000127578063c4d66de811620000b6578063c4d66de81462000503578063c7d7d0c9146200051a578063caeee3a31462000524578063ccf54648146200053b578063cd93b5321462000552578063cec410521462000561578063d6e9e803146200056b578063ef67fde61462000575578063f2fde38b146200058c578063f832899114620005a357600080fd5b80638da5cb5b146200046c5780638f32d59b146200047e578063939d9f1f1462000499578063963a947814620004b05780639a8a059214620004c7578063a082eb0e14620004d1578063a998e9fb14620004db578063b0ca0c8314620004e5578063ba5ea0d514620004fc57600080fd5b8063487a8a7611620001b0578063487a8a7614620003365780635979e755146200034d5780635c38eb3a14620003615780635de9a1371462000378578063666018a514620003cc5780636bced5a214620003fc578063715018a61462000428578063743bbc2f14620004325780637d8fb641146200044b5780637ff94bb2146200046257600080fd5b80630cb175e3146200022257806325772ad91462000253578063262d0a85146200029757806335a750de14620002ba5780633652466314620002d35780633fc8cef314620002ec5780634220bd46146200030057806342d9210614620003085780634452c2b2146200031f575b600080fd5b620002396200023336600462001ffe565b620005b7565b604080519283526020830191909152015b60405180910390f35b620002836200026436600462001e9d565b6001600160a01b031660009081526073602052604090205461ffff1690565b60405161ffff90911681526020016200024a565b606e54620002ab906001600160a01b031681565b6040516200024a91906200228d565b620002c4620005c2565b6040516200024a9190620023b5565b620002ea620002e4366004620021f1565b6200065c565b005b606d54620002ab906001600160a01b031681565b600b62000283565b620002ab6200031936600462002157565b6200069b565b620002ab6200033036600462002051565b62000701565b620002ab6200034736600462002089565b62000721565b607154620002ab906001600160a01b031681565b620002ea6200037236600462001f1b565b6200088e565b620003ae6200038936600462001e9d565b60686020526000908152604090208054600182015460029092015460ff909116919083565b6040805193151584526020840192909252908201526060016200024a565b620002ab620003dd366004620020d5565b61ffff166000908152607460205260409020546001600160a01b031690565b620002ab6200040d36600462001e9d565b606c602052600090815260409020546001600160a01b031681565b620002ea62000957565b6200043c606f5481565b6040519081526020016200024a565b620002ea6200045c36600462001f4e565b6200098e565b620002c462000a61565b6033546001600160a01b0316620002ab565b6200048862000a72565b60405190151581526020016200024a565b620002ea620004aa3660046200212f565b62000a83565b620002ea620004c1366004620021f1565b620012ee565b6200043c60705481565b6200043c60675481565b620002c46200135e565b620002ea620004f636600462001e9d565b620013f4565b486200043c565b620002ea6200051436600462001e9d565b620014b6565b620002ea62001545565b620002ea6200053536600462001edd565b620015c9565b620002ab6200054c36600462001edd565b62001697565b607554620002839061ffff1681565b620002c462001970565b6200043c60665481565b620002ea6200058636600462001e9d565b6200197f565b620002ea6200059d36600462001e9d565b62001ada565b606b54620002ab906001600160a01b031681565b6000805b9250929050565b6060606a8054620005d3906200250f565b80601f016020809104026020016040519081016040528092919081815260200182805462000601906200250f565b8015620006525780601f10620006265761010080835404028352916020019162000652565b820191906000526020600020905b8154815290600101906020018083116200063457829003601f168201915b5050505050905090565b3360009081526068602052604090205460ff16620006975760405162461bcd60e51b81526004016200068e90620023f7565b60405180910390fd5b5050565b60008033898989898989604051602401620006bd979695949392919062002375565b60408051601f198184030181529190526020810180516001600160e01b0316636eadde4360e01b1790529050620006f48162000701565b9998505050505050505050565b60755460009081906200071a90849061ffff1662000721565b9392505050565b6071546000906001600160a01b03166200074f5760405162461bcd60e51b81526004016200068e906200241b565b61ffff82166000908152607460205260409020546001600160a01b031680620007b35760405162461bcd60e51b81526020600482015260156024820152744d495353494e475f4c4f434b5f54454d504c41544560581b60448201526064016200068e565b60715460405160009183916001600160a01b03909116908790620007d79062001d03565b620007e593929190620022a1565b604051809103906000f08015801562000802573d6000803e3d6000fd5b50604080516060810182526001808252600060208084018281528486018381526001600160a01b03881680855260689093528684209551865460ff191690151517865590519385019390935591516002909301929092559151929350839233917f01017ed19df0c7f8acc436147b234b09664a9fb4797b4fa3fb9e599c2eb67be791a395945050505050565b6200089862000a72565b620008b75760405162461bcd60e51b81526004016200068e9062002448565b6001600160a01b038281166000908152606c6020526040902080546001600160a01b0319169183169182179055156200069757606d5460405163c640752d60e01b81526001600160a01b03848116600483015291821660248201529082169063c640752d90604401600060405180830381600087803b1580156200093a57600080fd5b505af11580156200094f573d6000803e3d6000fd5b505050505050565b6200096162000a72565b620009805760405162461bcd60e51b81526004016200068e9062002448565b6200098c600062001b51565b565b6200099862000a72565b620009b75760405162461bcd60e51b81526004016200068e9062002448565b606e80546001600160a01b03808b166001600160a01b031992831617909255606d8054928a1692909116919091179055606f869055620009fa606a868662001d11565b5062000a096069848462001d11565b5060708190556040517fa14230a1687e9bb8cdc0f3931d27c3a806e88c1c2235ba7756d6911feb35be679062000a4f908a908a908a908a908a908a908a908a90620022d8565b60405180910390a15050505050505050565b606060698054620005d3906200250f565b6033546001600160a01b0316331490565b3360009081526068602052604090205460ff1662000ab55760405162461bcd60e51b81526004016200068e90620023f7565b81156200069757600080336001600160a01b0316639d76ea586040518163ffffffff1660e01b815260040160206040518083038186803b15801562000af957600080fd5b505afa15801562000b0e573d6000803e3d6000fd5b505050506040513d601f19601f8201168201806040525081019062000b34919062001ebd565b90506001600160a01b0381161580159062000b5d5750606d546001600160a01b03828116911614155b1562000c1c576001600160a01b038082166000908152606c602052604090205416801562000c1557606d5460405163c1e553e760e01b81526001600160a01b038084169263c1e553e79262000bbc9287928b9291169060040162002339565b602060405180830381600087803b15801562000bd757600080fd5b505af115801562000bec573d6000803e3d6000fd5b505050506040513d601f19601f8201168201806040525081019062000c12919062002115565b92505b5062000c20565b8391505b62000c2e8282863362001ba3565b336000908152606860205260408120600101805484929062000c5290849062002495565b90915550506001600160a01b03831615620012e857606e546001600160a01b039081166000908152606c6020526040902054168015620012e657606e54606d5460405163c1e553e760e01b81526000926001600160a01b038086169363c1e553e79362000cd193831692670de0b6b3a764000092169060040162002339565b602060405180830381600087803b15801562000cec57600080fd5b505af115801562000d01573d6000803e3d6000fd5b505050506040513d601f19601f8201168201806040525081019062000d27919062002115565b90506000306001600160a01b031663ba5ea0d56040518163ffffffff1660e01b815260040160206040518083038186803b15801562000d6557600080fd5b505afa92505050801562000d98575060408051601f3d908101601f1916820190925262000d959181019062002115565b60015b62000da65750606462000dbc565b8062000db6576064915062000dba565b8091505b505b600082606483606f5462000dd19190620024d3565b62000de6906806c6b935b8bbd40000620024d3565b62000df29190620024b0565b62000dfe9190620024b0565b905060006001607054111562000eec576066548062000e1f896002620024d3565b62000e2b9190620024b0565b62000e3890600262002495565b606e546040516370a0823160e01b81528a916001600160a01b0316906370a082319062000e6a9030906004016200228d565b602060405180830381600087803b15801562000e8557600080fd5b505af115801562000e9a573d6000803e3d6000fd5b505050506040513d601f19601f8201168201806040525081019062000ec0919062002115565b62000ecc9190620024d3565b62000ed89190620024b0565b62000ee49190620024b0565b905062000fa5565b606654600288606e60009054906101000a90046001600160a01b03166001600160a01b03166318160ddd6040518163ffffffff1660e01b8152600401602060405180830381600087803b15801562000f4357600080fd5b505af115801562000f58573d6000803e3d6000fd5b505050506040513d601f19601f8201168201806040525081019062000f7e919062002115565b62000f8a9190620024d3565b62000f969190620024b0565b62000fa29190620024b0565b90505b8082111562000fb2578091505b8115620012e1576000606462000fca846014620024d3565b62000fd69190620024b0565b905060016070541115620011af57606e546040516370a0823160e01b81526000916001600160a01b0316906370a0823190620010179030906004016200228d565b602060405180830381600087803b1580156200103257600080fd5b505af115801562001047573d6000803e3d6000fd5b505050506040513d601f19601f820116820180604052508101906200106d919062002115565b905083811115620011a857606e546001600160a01b031663a9059cbb8b620010968588620024f5565b6040518363ffffffff1660e01b8152600401620010b59291906200235c565b602060405180830381600087803b158015620010d057600080fd5b505af1158015620010e5573d6000803e3d6000fd5b505050506040513d601f19601f820116820180604052508101906200110b91906200202d565b50606e546001600160a01b031663a9059cbb620011306033546001600160a01b031690565b846040518363ffffffff1660e01b8152600401620011509291906200235c565b602060405180830381600087803b1580156200116b57600080fd5b505af115801562001180573d6000803e3d6000fd5b505050506040513d601f19601f82011682018060405250810190620011a691906200202d565b505b50620012df565b606e546001600160a01b03166340c10f198a620011cd8487620024f5565b6040518363ffffffff1660e01b8152600401620011ec9291906200235c565b602060405180830381600087803b1580156200120757600080fd5b505af11580156200121c573d6000803e3d6000fd5b505050506040513d601f19601f820116820180604052508101906200124291906200202d565b50606e546001600160a01b03166340c10f19620012676033546001600160a01b031690565b836040518363ffffffff1660e01b8152600401620012879291906200235c565b602060405180830381600087803b158015620012a257600080fd5b505af1158015620012b7573d6000803e3d6000fd5b505050506040513d601f19601f82011682018060405250810190620012dd91906200202d565b505b505b505050505b505b50505050565b620012f862000a72565b620013175760405162461bcd60e51b81526004016200068e9062002448565b6066829055606781905560408051838152602081018390527f7b2ce3c83b45f79993ff2cbf5651caff2dfe04010b4846e03066b84e3e4059bb910160405180910390a15050565b606980546200136d906200250f565b80601f01602080910402602001604051908101604052809291908181526020018280546200139b906200250f565b8015620013ec5780601f10620013c057610100808354040283529160200191620013ec565b820191906000526020600020905b815481529060010190602001808311620013ce57829003601f168201915b505050505081565b600054610100900460ff16620014115760005460ff161562001415565b303b155b620014345760405162461bcd60e51b81526004016200068e90620023ca565b600054610100900460ff1615801562001457576000805461ffff19166101011790555b603380546001600160a01b0319166001600160a01b0384169081179091556040516000907f8be0079c531659141344cd1fd0a4f28419497f9722a3daafe3b4186f6b6457e0908290a3801562000697576000805461ff00191690555050565b600054610100900460ff16620014d35760005460ff1615620014d7565b303b155b620014f65760405162461bcd60e51b81526004016200068e90620023ca565b600054610100900460ff1615801562001519576000805461ffff19166101011790555b6200152482620013f4565b6200152e62001c14565b50801562000697576000805461ff00191690555050565b6200154f62000a72565b6200156e5760405162461bcd60e51b81526004016200068e9062002448565b6071546001600160a01b031615620015bc5760405162461bcd60e51b815260206004820152601060248201526f1053149150511657d111541313d6515160821b60448201526064016200068e565b620015c662001c14565b50565b620015d362000a72565b620015f25760405162461bcd60e51b81526004016200068e9062002448565b6001600160a01b0382166000818152607360209081526040808320805461ffff191661ffff8781169182179092558085526074909352922080546001600160a01b03191690931790925560755416101562001659576075805461ffff191661ffff83161790555b60405161ffff8216906001600160a01b038416907fd36d021c4aa145e30eadc73e34284101030d688b9eb9413a4dc3af40ab1d474890600090a35050565b6071546000906001600160a01b0316620016c55760405162461bcd60e51b81526004016200068e906200241b565b620016d1833362001c74565b1515600114620017135760405162461bcd60e51b815260206004820152600c60248201526b4d414e414745525f4f4e4c5960a01b60448201526064016200068e565b60008390506000816001600160a01b031663d1bbd49c6040518163ffffffff1660e01b815260040160206040518083038186803b1580156200175457600080fd5b505afa15801562001769573d6000803e3d6000fd5b505050506040513d601f19601f820116820180604052508101906200178f9190620020f5565b90506200179e8160016200246c565b61ffff168461ffff1614620017e95760405162461bcd60e51b815260206004820152601060248201526f0ac8aa4a6929e9cbea89e9ebe90928e960831b60448201526064016200068e565b61ffff84166000908152607460205260409020546001600160a01b031680620018485760405162461bcd60e51b815260206004820152601060248201526f4d495353494e475f54454d504c41544560801b60448201526064016200068e565b60725460405163266a23b160e21b81526001600160a01b0380891660048301528381166024830152889216906399a88ec490604401600060405180830381600087803b1580156200189857600080fd5b505af1158015620018ad573d6000803e3d6000fd5b5050604051638932a90d60e01b8152602060048201526002602482015261060f60f31b60448201526001600160a01b0387169250638932a90d9150606401600060405180830381600087803b1580156200190657600080fd5b505af11580156200191b573d6000803e3d6000fd5b5050604080516001600160a01b038b16815261ffff8a1660208201527f5e7b70a9e6f0b4c7cf2657cf563ce85eed3aebb7731396118d01a195d218fd5e935001905060405180910390a1509495945050505050565b606a80546200136d906200250f565b6200198962000a72565b620019a85760405162461bcd60e51b81526004016200068e9062002448565b604051636eadde4360e01b815230600482015260006024820181905260448201819052606482018190526084820181905260c060a483015260c48201526001600160a01b03821690636eadde439060e401600060405180830381600087803b15801562001a1457600080fd5b505af115801562001a29573d6000803e3d6000fd5b50505050806001600160a01b031663f0ba60406040518163ffffffff1660e01b8152600401600060405180830381600087803b15801562001a6957600080fd5b505af115801562001a7e573d6000803e3d6000fd5b5050606b80546001600160a01b0319166001600160a01b03851617905550506040517f4fa58418e580e78539e8d3d8d17d94dbaca0927533953c8248f313e6f8927c219062001acf9083906200228d565b60405180910390a150565b62001ae462000a72565b62001b035760405162461bcd60e51b81526004016200068e9062002448565b6001600160a01b03811662001b4b5760405162461bcd60e51b815260206004820152600d60248201526c24a72b20a624a22fa7aba722a960991b60448201526064016200068e565b620015c6815b603380546001600160a01b038381166001600160a01b0319831681179093556040519116919082907f8be0079c531659141344cd1fd0a4f28419497f9722a3daafe3b4186f6b6457e090600090a35050565b8360665462001bb3919062002495565b606681905560408051918252602082018690526001600160a01b03858116838301526060830185905283166080830152517f3b50eb9d9b4a8db204f2928c9e572c2865b0d02803493ccb6aa256848323ebb79181900360a00190a150505050565b600060405162001c249062001da0565b604051809103906000f08015801562001c41573d6000803e3d6000fd5b50607280546001600160a01b03929092166001600160a01b03199283168117909155607180549092168117909155919050565b60405163aae4b8f760e01b815260009083906001600160a01b0382169063aae4b8f79062001ca79086906004016200228d565b60206040518083038186803b15801562001cc057600080fd5b505afa15801562001cd5573d6000803e3d6000fd5b505050506040513d601f19601f8201168201806040525081019062001cfb91906200202d565b949350505050565b610f3980620025a083390190565b82805462001d1f906200250f565b90600052602060002090601f01602090048101928262001d43576000855562001d8e565b82601f1062001d5e5782800160ff1982351617855562001d8e565b8280016001018555821562001d8e579182015b8281111562001d8e57823582559160200191906001019062001d71565b5062001d9c92915062001dae565b5090565b6107be80620034d983390190565b5b8082111562001d9c576000815560010162001daf565b600082601f83011262001dd757600080fd5b81356001600160401b038082111562001df45762001df462002562565b604051601f8301601f19908116603f0116810190828211818310171562001e1f5762001e1f62002562565b8160405283815286602085880101111562001e3957600080fd5b836020870160208301376000602085830101528094505050505092915050565b60008083601f84011262001e6c57600080fd5b5081356001600160401b0381111562001e8457600080fd5b602083019150836020828501011115620005bb57600080fd5b60006020828403121562001eb057600080fd5b81356200071a8162002578565b60006020828403121562001ed057600080fd5b81516200071a8162002578565b6000806040838503121562001ef157600080fd5b823562001efe8162002578565b9150602083013562001f10816200258e565b809150509250929050565b6000806040838503121562001f2f57600080fd5b823562001f3c8162002578565b9150602083013562001f108162002578565b60008060008060008060008060c0898b03121562001f6b57600080fd5b883562001f788162002578565b9750602089013562001f8a8162002578565b96506040890135955060608901356001600160401b038082111562001fae57600080fd5b62001fbc8c838d0162001e59565b909750955060808b013591508082111562001fd657600080fd5b5062001fe58b828c0162001e59565b999c989b50969995989497949560a00135949350505050565b600080604083850312156200201257600080fd5b82356200201f8162002578565b946020939093013593505050565b6000602082840312156200204057600080fd5b815180151581146200071a57600080fd5b6000602082840312156200206457600080fd5b81356001600160401b038111156200207b57600080fd5b62001cfb8482850162001dc5565b600080604083850312156200209d57600080fd5b82356001600160401b03811115620020b457600080fd5b620020c28582860162001dc5565b925050602083013562001f10816200258e565b600060208284031215620020e857600080fd5b81356200071a816200258e565b6000602082840312156200210857600080fd5b81516200071a816200258e565b6000602082840312156200212857600080fd5b5051919050565b600080604083850312156200214357600080fd5b82359150602083013562001f108162002578565b600080600080600080600060c0888a0312156200217357600080fd5b873596506020880135620021878162002578565b9550604088013594506060880135935060808801356001600160401b03811115620021b157600080fd5b620021bf8a828b0162001e59565b90945092505060a08801356001600160a01b031981168114620021e157600080fd5b8091505092959891949750929550565b600080604083850312156200220557600080fd5b50508035926020909101359150565b6000815180845260005b818110156200223c576020818501810151868301820152016200221e565b818111156200224f576000602083870101525b50601f01601f19169290920160200192915050565b81835281816020850137506000828201602090810191909152601f909101601f19169091010190565b6001600160a01b0391909116815260200190565b6001600160a01b03848116825283166020820152606060408201819052600090620022cf9083018462002214565b95945050505050565b6001600160a01b038981168252881660208201526040810187905260c0606082018190526000906200230e908301878962002264565b82810360808401526200232381868862002264565b9150508260a08301529998505050505050505050565b6001600160a01b0393841681526020810192909252909116604082015260600190565b6001600160a01b03929092168252602082015260400190565b600060018060a01b03808a16835288602084015280881660408401525085606083015284608083015260c060a0830152620006f460c08301848662002264565b6020815260006200071a602083018462002214565b6020808252601390820152721053149150511657d253925512505312569151606a1b604082015260600190565b6020808252600a90820152694f4e4c595f4c4f434b5360b01b604082015260600190565b60208082526013908201527226a4a9a9a4a723afa82927ac2cafa0a226a4a760691b604082015260600190565b6020808252600a908201526927a7262cafa7aba722a960b11b604082015260600190565b600061ffff8083168185168083038211156200248c576200248c6200254c565b01949350505050565b60008219821115620024ab57620024ab6200254c565b500190565b600082620024ce57634e487b7160e01b600052601260045260246000fd5b500490565b6000816000190483118215151615620024f057620024f06200254c565b500290565b6000828210156200250a576200250a6200254c565b500390565b600181811c908216806200252457607f821691505b602082108114156200254657634e487b7160e01b600052602260045260246000fd5b50919050565b634e487b7160e01b600052601160045260246000fd5b634e487b7160e01b600052604160045260246000fd5b6001600160a01b0381168114620015c657600080fd5b61ffff81168114620015c657600080fdfe608060405260405162000f3938038062000f398339810160408190526200002691620004c2565b82816200005560017f360894a13ba1a3210667c828492db98dca3e2076cc3735a920a3ca505d382bbd620005f5565b60008051602062000ef2833981519152146200007557620000756200064a565b6200008382826000620000e7565b50620000b3905060017fb53127684a568b3173ae13b9f8a6016e243e63b6e8ee1178d6a717850b5d6104620005f5565b60008051602062000ed283398151915214620000d357620000d36200064a565b620000de8262000124565b50505062000676565b620000f2836200017f565b600082511180620001005750805b156200011f576200011d8383620001c160201b620002601760201c565b505b505050565b7f7e644d79422f17c01e4894b5f4f588d331ebfa28653d42ae832dc59e38c9798f6200014f620001f0565b604080516001600160a01b03928316815291841660208301520160405180910390a16200017c8162000229565b50565b6200018a81620002de565b6040516001600160a01b038216907fbc7cd75a20ee27fd9adebab32041f755214dbc6bffa90cc0225b39da2e5c2d3b90600090a250565b6060620001e9838360405180606001604052806027815260200162000f126027913962000381565b9392505050565b60006200021a60008051602062000ed283398151915260001b6200045e60201b620002081760201c565b546001600160a01b0316919050565b6001600160a01b038116620002945760405162461bcd60e51b815260206004820152602660248201527f455243313936373a206e65772061646d696e20697320746865207a65726f206160448201526564647265737360d01b60648201526084015b60405180910390fd5b80620002bd60008051602062000ed283398151915260001b6200045e60201b620002081760201c565b80546001600160a01b0319166001600160a01b039290921691909117905550565b620002f4816200046160201b6200028c1760201c565b620003585760405162461bcd60e51b815260206004820152602d60248201527f455243313936373a206e657720696d706c656d656e746174696f6e206973206e60448201526c1bdd08184818dbdb9d1c9858dd609a1b60648201526084016200028b565b80620002bd60008051602062000ef283398151915260001b6200045e60201b620002081760201c565b6060833b620003e25760405162461bcd60e51b815260206004820152602660248201527f416464726573733a2064656c65676174652063616c6c20746f206e6f6e2d636f6044820152651b9d1c9858dd60d21b60648201526084016200028b565b600080856001600160a01b031685604051620003ff9190620005a2565b600060405180830381855af49150503d80600081146200043c576040519150601f19603f3d011682016040523d82523d6000602084013e62000441565b606091505b5090925090506200045482828662000467565b9695505050505050565b90565b3b151590565b6060831562000478575081620001e9565b825115620004895782518084602001fd5b8160405162461bcd60e51b81526004016200028b9190620005c0565b80516001600160a01b0381168114620004bd57600080fd5b919050565b600080600060608486031215620004d857600080fd5b620004e384620004a5565b9250620004f360208501620004a5565b60408501519092506001600160401b03808211156200051157600080fd5b818601915086601f8301126200052657600080fd5b8151818111156200053b576200053b62000660565b604051601f8201601f19908116603f0116810190838211818310171562000566576200056662000660565b816040528281528960208487010111156200058057600080fd5b620005938360208301602088016200061b565b80955050505050509250925092565b60008251620005b68184602087016200061b565b9190910192915050565b6020815260008251806020840152620005e18160408501602087016200061b565b601f01601f19169190910160400192915050565b6000828210156200061657634e487b7160e01b600052601160045260246000fd5b500390565b60005b83811015620006385781810151838201526020016200061e565b838111156200011d5750506000910152565b634e487b7160e01b600052600160045260246000fd5b634e487b7160e01b600052604160045260246000fd5b61084c80620006866000396000f3fe60806040526004361061004e5760003560e01c80633659cfe6146100655780634f1ef286146100855780635c60da1b146100985780638f283970146100c9578063f851a440146100e95761005d565b3661005d5761005b6100fe565b005b61005b6100fe565b34801561007157600080fd5b5061005b6100803660046106d6565b610118565b61005b6100933660046106f1565b61015f565b3480156100a457600080fd5b506100ad6101d0565b6040516001600160a01b03909116815260200160405180910390f35b3480156100d557600080fd5b5061005b6100e43660046106d6565b61020b565b3480156100f557600080fd5b506100ad610235565b610106610292565b610116610111610331565b61033b565b565b61012061035f565b6001600160a01b0316336001600160a01b031614156101575761015481604051806020016040528060008152506000610392565b50565b6101546100fe565b61016761035f565b6001600160a01b0316336001600160a01b031614156101c8576101c38383838080601f01602080910402602001604051908101604052809392919081815260200183838082843760009201919091525060019250610392915050565b505050565b6101c36100fe565b60006101da61035f565b6001600160a01b0316336001600160a01b03161415610200576101fb610331565b905090565b6102086100fe565b90565b61021361035f565b6001600160a01b0316336001600160a01b0316141561015757610154816103bd565b600061023f61035f565b6001600160a01b0316336001600160a01b03161415610200576101fb61035f565b606061028583836040518060600160405280602781526020016107f060279139610411565b9392505050565b3b151590565b61029a61035f565b6001600160a01b0316336001600160a01b031614156101165760405162461bcd60e51b815260206004820152604260248201527f5472616e73706172656e745570677261646561626c6550726f78793a2061646d60448201527f696e2063616e6e6f742066616c6c6261636b20746f2070726f78792074617267606482015261195d60f21b608482015260a4015b60405180910390fd5b60006101fb6104e5565b3660008037600080366000845af43d6000803e80801561035a573d6000f35b3d6000fd5b60007fb53127684a568b3173ae13b9f8a6016e243e63b6e8ee1178d6a717850b5d61035b546001600160a01b0316919050565b61039b8361050d565b6000825111806103a85750805b156101c3576103b78383610260565b50505050565b7f7e644d79422f17c01e4894b5f4f588d331ebfa28653d42ae832dc59e38c9798f6103e661035f565b604080516001600160a01b03928316815291841660208301520160405180910390a16101548161054d565b6060833b6104705760405162461bcd60e51b815260206004820152602660248201527f416464726573733a2064656c65676174652063616c6c20746f206e6f6e2d636f6044820152651b9d1c9858dd60d21b6064820152608401610328565b600080856001600160a01b03168560405161048b9190610774565b600060405180830381855af49150503d80600081146104c6576040519150601f19603f3d011682016040523d82523d6000602084013e6104cb565b606091505b50915091506104db8282866105f6565b9695505050505050565b60007f360894a13ba1a3210667c828492db98dca3e2076cc3735a920a3ca505d382bbc610383565b6105168161062f565b6040516001600160a01b038216907fbc7cd75a20ee27fd9adebab32041f755214dbc6bffa90cc0225b39da2e5c2d3b90600090a250565b6001600160a01b0381166105b25760405162461bcd60e51b815260206004820152602660248201527f455243313936373a206e65772061646d696e20697320746865207a65726f206160448201526564647265737360d01b6064820152608401610328565b807fb53127684a568b3173ae13b9f8a6016e243e63b6e8ee1178d6a717850b5d61035b80546001600160a01b0319166001600160a01b039290921691909117905550565b60608315610605575081610285565b8251156106155782518084602001fd5b8160405162461bcd60e51b81526004016103289190610790565b803b6106935760405162461bcd60e51b815260206004820152602d60248201527f455243313936373a206e657720696d706c656d656e746174696f6e206973206e60448201526c1bdd08184818dbdb9d1c9858dd609a1b6064820152608401610328565b807f360894a13ba1a3210667c828492db98dca3e2076cc3735a920a3ca505d382bbc6105d5565b80356001600160a01b03811681146106d157600080fd5b919050565b6000602082840312156106e857600080fd5b610285826106ba565b60008060006040848603121561070657600080fd5b61070f846106ba565b9250602084013567ffffffffffffffff8082111561072c57600080fd5b818601915086601f83011261074057600080fd5b81358181111561074f57600080fd5b87602082850101111561076157600080fd5b6020830194508093505050509250925092565b600082516107868184602087016107c3565b9190910192915050565b60208152600082518060208401526107af8160408501602087016107c3565b601f01601f19169190910160400192915050565b60005b838110156107de5781810151838201526020016107c6565b838111156103b7575050600091015256fe416464726573733a206c6f772d6c6576656c2064656c65676174652063616c6c206661696c6564a264697066735822122069013180797a320073b51923c269b12cc1f6ad3ad59099b708d6ca452b6c416864736f6c63430008070033b53127684a568b3173ae13b9f8a6016e243e63b6e8ee1178d6a717850b5d6103360894a13ba1a3210667c828492db98dca3e2076cc3735a920a3ca505d382bbc416464726573733a206c6f772d6c6576656c2064656c65676174652063616c6c206661696c6564608060405234801561001057600080fd5b5061001a3361001f565b61006f565b600080546001600160a01b038381166001600160a01b0319831681178455604051919092169283917f8be0079c531659141344cd1fd0a4f28419497f9722a3daafe3b4186f6b6457e09190a35050565b6107408061007e6000396000f3fe60806040526004361061006b5760003560e01c8063204e1c7a14610070578063715018a6146100a65780637eff275e146100bd5780638da5cb5b146100dd5780639623609d146100f257806399a88ec414610105578063f2fde38b14610125578063f3b7dead14610145575b600080fd5b34801561007c57600080fd5b5061009061008b3660046104e1565b610165565b60405161009d9190610631565b60405180910390f35b3480156100b257600080fd5b506100bb6101f6565b005b3480156100c957600080fd5b506100bb6100d8366004610522565b61023a565b3480156100e957600080fd5b506100906102cb565b6100bb61010036600461055b565b6102da565b34801561011157600080fd5b506100bb610120366004610522565b610370565b34801561013157600080fd5b506100bb6101403660046104e1565b6103cb565b34801561015157600080fd5b506100906101603660046104e1565b61046b565b6000806000836001600160a01b031660405161018b90635c60da1b60e01b815260040190565b600060405180830381855afa9150503d80600081146101c6576040519150601f19603f3d011682016040523d82523d6000602084013e6101cb565b606091505b5091509150816101da57600080fd5b808060200190518101906101ee9190610505565b949350505050565b336101ff6102cb565b6001600160a01b03161461022e5760405162461bcd60e51b8152600401610225906106aa565b60405180910390fd5b6102386000610491565b565b336102436102cb565b6001600160a01b0316146102695760405162461bcd60e51b8152600401610225906106aa565b6040516308f2839760e41b81526001600160a01b03831690638f28397090610295908490600401610631565b600060405180830381600087803b1580156102af57600080fd5b505af11580156102c3573d6000803e3d6000fd5b505050505050565b6000546001600160a01b031690565b336102e36102cb565b6001600160a01b0316146103095760405162461bcd60e51b8152600401610225906106aa565b60405163278f794360e11b81526001600160a01b03841690634f1ef2869034906103399086908690600401610645565b6000604051808303818588803b15801561035257600080fd5b505af1158015610366573d6000803e3d6000fd5b5050505050505050565b336103796102cb565b6001600160a01b03161461039f5760405162461bcd60e51b8152600401610225906106aa565b604051631b2ce7f360e11b81526001600160a01b03831690633659cfe690610295908490600401610631565b336103d46102cb565b6001600160a01b0316146103fa5760405162461bcd60e51b8152600401610225906106aa565b6001600160a01b03811661045f5760405162461bcd60e51b815260206004820152602660248201527f4f776e61626c653a206e6577206f776e657220697320746865207a65726f206160448201526564647265737360d01b6064820152608401610225565b61046881610491565b50565b6000806000836001600160a01b031660405161018b906303e1469160e61b815260040190565b600080546001600160a01b038381166001600160a01b0319831681178455604051919092169283917f8be0079c531659141344cd1fd0a4f28419497f9722a3daafe3b4186f6b6457e09190a35050565b6000602082840312156104f357600080fd5b81356104fe816106f5565b9392505050565b60006020828403121561051757600080fd5b81516104fe816106f5565b6000806040838503121561053557600080fd5b8235610540816106f5565b91506020830135610550816106f5565b809150509250929050565b60008060006060848603121561057057600080fd5b833561057b816106f5565b9250602084013561058b816106f5565b9150604084013567ffffffffffffffff808211156105a857600080fd5b818601915086601f8301126105bc57600080fd5b8135818111156105ce576105ce6106df565b604051601f8201601f19908116603f011681019083821181831017156105f6576105f66106df565b8160405282815289602084870101111561060f57600080fd5b8260208601602083013760006020848301015280955050505050509250925092565b6001600160a01b0391909116815260200190565b60018060a01b038316815260006020604081840152835180604085015260005b8181101561068157858101830151858201606001528201610665565b81811115610693576000606083870101525b50601f01601f191692909201606001949350505050565b6020808252818101527f4f776e61626c653a2063616c6c6572206973206e6f7420746865206f776e6572604082015260600190565b634e487b7160e01b600052604160045260246000fd5b6001600160a01b038116811461046857600080fdfea2646970667358221220125c3f15bab352eefb1c849f6ce22a786402ca0e764b273ba139e89ca5d91fd764736f6c63430008070033a26469706673582212208276f85b113e4c6bf61a01f1e095ec615afd8bb29e629b7aac28d14a42b0636b64736f6c63430008070033",
  "linkReferences": {},
  "deployedLinkReferences": {}
}