{
  "_format": "hh-sol-artifact-1",
  "contractName": "Unlock",
  "sourceName": "contracts/Unlock.sol",
  "abi": [
    {
      "anonymous": false,
      "inputs": [
        {
          "indexed": false,
          "internalType": "address",
          "name": "udt",
          "type": "address"
        },
        {
          "indexed": false,
          "internalType": "address",
          "name": "weth",
          "type": "address"
        },
        {
          "indexed": false,
          "internalType": "uint256",
          "name": "estimatedGasForPurchase",
          "type": "uint256"
        },
        {
          "indexed": false,
          "internalType": "string",
          "name": "globalTokenSymbol",
          "type": "string"
        },
        {
          "indexed": false,
          "internalType": "string",
          "name": "globalTokenURI",
          "type": "string"
        },
        {
          "indexed": false,
          "internalType": "uint256",
          "name": "chainId",
          "type": "uint256"
        }
      ],
      "name": "ConfigUnlock",
      "type": "event"
    },
    {
      "anonymous": false,
      "inputs": [
        {
          "indexed": false,
          "internalType": "address",
          "name": "lockAddress",
          "type": "address"
        },
        {
          "indexed": false,
          "internalType": "uint16",
          "name": "version",
          "type": "uint16"
        }
      ],
      "name": "LockUpgraded",
      "type": "event"
    },
    {
      "anonymous": false,
      "inputs": [
        {
          "indexed": true,
          "internalType": "address",
          "name": "lockOwner",
          "type": "address"
        },
        {
          "indexed": true,
          "internalType": "address",
          "name": "newLockAddress",
          "type": "address"
        }
      ],
      "name": "NewLock",
      "type": "event"
    },
    {
      "anonymous": false,
      "inputs": [
        {
          "indexed": true,
          "internalType": "address",
          "name": "previousOwner",
          "type": "address"
        },
        {
          "indexed": true,
          "internalType": "address",
          "name": "newOwner",
          "type": "address"
        }
      ],
      "name": "OwnershipTransferred",
      "type": "event"
    },
    {
      "anonymous": false,
      "inputs": [
        {
          "indexed": false,
          "internalType": "uint256",
          "name": "grossNetworkProduct",
          "type": "uint256"
        },
        {
          "indexed": false,
          "internalType": "uint256",
          "name": "totalDiscountGranted",
          "type": "uint256"
        }
      ],
      "name": "ResetTrackedValue",
      "type": "event"
    },
    {
      "anonymous": false,
      "inputs": [
        {
          "indexed": false,
          "internalType": "address",
          "name": "publicLockAddress",
          "type": "address"
        }
      ],
      "name": "SetLockTemplate",
      "type": "event"
    },
    {
      "anonymous": false,
      "inputs": [
        {
          "indexed": true,
          "internalType": "address",
          "name": "impl",
          "type": "address"
        },
        {
          "indexed": true,
          "internalType": "uint16",
          "name": "version",
          "type": "uint16"
        }
      ],
      "name": "UnlockTemplateAdded",
      "type": "event"
    },
    {
      "inputs": [
        {
          "internalType": "address",
          "name": "sender",
          "type": "address"
        }
      ],
      "name": "__initializeOwnable",
      "outputs": [],
      "stateMutability": "nonpayable",
      "type": "function"
    },
    {
      "inputs": [
        {
          "internalType": "address",
          "name": "impl",
          "type": "address"
        },
        {
          "internalType": "uint16",
          "name": "version",
          "type": "uint16"
        }
      ],
      "name": "addLockTemplate",
      "outputs": [],
      "stateMutability": "nonpayable",
      "type": "function"
    },
    {
      "inputs": [],
      "name": "chainId",
      "outputs": [
        {
          "internalType": "uint256",
          "name": "",
          "type": "uint256"
        }
      ],
      "stateMutability": "view",
      "type": "function"
    },
    {
      "inputs": [
        {
          "internalType": "address",
          "name": "",
          "type": "address"
        },
        {
          "internalType": "uint256",
          "name": "",
          "type": "uint256"
        }
      ],
      "name": "computeAvailableDiscountFor",
      "outputs": [
        {
          "internalType": "uint256",
          "name": "discount",
          "type": "uint256"
        },
        {
          "internalType": "uint256",
          "name": "tokens",
          "type": "uint256"
        }
      ],
      "stateMutability": "pure",
      "type": "function"
    },
    {
      "inputs": [
        {
          "internalType": "address",
          "name": "_udt",
          "type": "address"
        },
        {
          "internalType": "address",
          "name": "_weth",
          "type": "address"
        },
        {
          "internalType": "uint256",
          "name": "_estimatedGasForPurchase",
          "type": "uint256"
        },
        {
          "internalType": "string",
          "name": "_symbol",
          "type": "string"
        },
        {
          "internalType": "string",
          "name": "_URI",
          "type": "string"
        },
        {
          "internalType": "uint256",
          "name": "_chainId",
          "type": "uint256"
        }
      ],
      "name": "configUnlock",
      "outputs": [],
      "stateMutability": "nonpayable",
      "type": "function"
    },
    {
      "inputs": [
        {
          "internalType": "uint256",
          "name": "_expirationDuration",
          "type": "uint256"
        },
        {
          "internalType": "address",
          "name": "_tokenAddress",
          "type": "address"
        },
        {
          "internalType": "uint256",
          "name": "_keyPrice",
          "type": "uint256"
        },
        {
          "internalType": "uint256",
          "name": "_maxNumberOfKeys",
          "type": "uint256"
        },
        {
          "internalType": "string",
          "name": "_lockName",
          "type": "string"
        },
        {
          "internalType": "bytes12",
          "name": "",
          "type": "bytes12"
        }
      ],
      "name": "createLock",
      "outputs": [
        {
          "internalType": "address",
          "name": "",
          "type": "address"
        }
      ],
      "stateMutability": "nonpayable",
      "type": "function"
    },
    {
      "inputs": [
        {
          "internalType": "bytes",
          "name": "data",
          "type": "bytes"
        }
      ],
      "name": "createUpgradeableLock",
      "outputs": [
        {
          "internalType": "address",
          "name": "",
          "type": "address"
        }
      ],
      "stateMutability": "nonpayable",
      "type": "function"
    },
    {
      "inputs": [],
      "name": "estimatedGasForPurchase",
      "outputs": [
        {
          "internalType": "uint256",
          "name": "",
          "type": "uint256"
        }
      ],
      "stateMutability": "view",
      "type": "function"
    },
    {
      "inputs": [],
      "name": "getGlobalBaseTokenURI",
      "outputs": [
        {
          "internalType": "string",
          "name": "",
          "type": "string"
        }
      ],
      "stateMutability": "view",
      "type": "function"
    },
    {
      "inputs": [],
      "name": "getGlobalTokenSymbol",
      "outputs": [
        {
          "internalType": "string",
          "name": "",
          "type": "string"
        }
      ],
      "stateMutability": "view",
      "type": "function"
    },
    {
      "inputs": [],
      "name": "globalBaseTokenURI",
      "outputs": [
        {
          "internalType": "string",
          "name": "",
          "type": "string"
        }
      ],
      "stateMutability": "view",
      "type": "function"
    },
    {
      "inputs": [],
      "name": "globalTokenSymbol",
      "outputs": [
        {
          "internalType": "string",
          "name": "",
          "type": "string"
        }
      ],
      "stateMutability": "view",
      "type": "function"
    },
    {
      "inputs": [],
      "name": "grossNetworkProduct",
      "outputs": [
        {
          "internalType": "uint256",
          "name": "",
          "type": "uint256"
        }
      ],
      "stateMutability": "view",
      "type": "function"
    },
    {
      "inputs": [
        {
          "internalType": "address",
          "name": "_unlockOwner",
          "type": "address"
        }
      ],
      "name": "initialize",
      "outputs": [],
      "stateMutability": "nonpayable",
      "type": "function"
    },
    {
      "inputs": [],
      "name": "initializeProxyAdmin",
      "outputs": [],
      "stateMutability": "nonpayable",
      "type": "function"
    },
    {
      "inputs": [],
      "name": "isOwner",
      "outputs": [
        {
          "internalType": "bool",
          "name": "",
          "type": "bool"
        }
      ],
      "stateMutability": "view",
      "type": "function"
    },
    {
      "inputs": [
        {
          "internalType": "address",
          "name": "",
          "type": "address"
        }
      ],
      "name": "locks",
      "outputs": [
        {
          "internalType": "bool",
          "name": "deployed",
          "type": "bool"
        },
        {
          "internalType": "uint256",
          "name": "totalSales",
          "type": "uint256"
        },
        {
          "internalType": "uint256",
          "name": "yieldedDiscountTokens",
          "type": "uint256"
        }
      ],
      "stateMutability": "view",
      "type": "function"
    },
    {
      "inputs": [],
      "name": "owner",
      "outputs": [
        {
          "internalType": "address",
          "name": "",
          "type": "address"
        }
      ],
      "stateMutability": "view",
      "type": "function"
    },
    {
      "inputs": [],
      "name": "proxyAdminAddress",
      "outputs": [
        {
          "internalType": "address",
          "name": "",
          "type": "address"
        }
      ],
      "stateMutability": "view",
      "type": "function"
    },
    {
      "inputs": [],
      "name": "publicLockAddress",
      "outputs": [
        {
          "internalType": "address",
          "name": "",
          "type": "address"
        }
      ],
      "stateMutability": "view",
      "type": "function"
    },
    {
      "inputs": [
        {
          "internalType": "uint16",
          "name": "_version",
          "type": "uint16"
        }
      ],
      "name": "publicLockImpls",
      "outputs": [
        {
          "internalType": "address",
          "name": "",
          "type": "address"
        }
      ],
      "stateMutability": "view",
      "type": "function"
    },
    {
      "inputs": [],
      "name": "publicLockLatestVersion",
      "outputs": [
        {
          "internalType": "uint16",
          "name": "",
          "type": "uint16"
        }
      ],
      "stateMutability": "view",
      "type": "function"
    },
    {
      "inputs": [
        {
          "internalType": "address",
          "name": "_impl",
          "type": "address"
        }
      ],
      "name": "publicLockVersions",
      "outputs": [
        {
          "internalType": "uint16",
          "name": "",
          "type": "uint16"
        }
      ],
      "stateMutability": "view",
      "type": "function"
    },
    {
      "inputs": [
        {
          "internalType": "uint256",
          "name": "",
          "type": "uint256"
        },
        {
          "internalType": "uint256",
          "name": "",
          "type": "uint256"
        }
      ],
      "name": "recordConsumedDiscount",
      "outputs": [],
      "stateMutability": "view",
      "type": "function"
    },
    {
      "inputs": [
        {
          "internalType": "uint256",
          "name": "_value",
          "type": "uint256"
        },
        {
          "internalType": "address",
          "name": "_referrer",
          "type": "address"
        }
      ],
      "name": "recordKeyPurchase",
      "outputs": [],
      "stateMutability": "nonpayable",
      "type": "function"
    },
    {
      "inputs": [],
      "name": "renounceOwnership",
      "outputs": [],
      "stateMutability": "nonpayable",
      "type": "function"
    },
    {
      "inputs": [
        {
          "internalType": "uint256",
          "name": "_grossNetworkProduct",
          "type": "uint256"
        },
        {
          "internalType": "uint256",
          "name": "_totalDiscountGranted",
          "type": "uint256"
        }
      ],
      "name": "resetTrackedValue",
      "outputs": [],
      "stateMutability": "nonpayable",
      "type": "function"
    },
    {
      "inputs": [
        {
          "internalType": "address",
          "name": "_publicLockAddress",
          "type": "address"
        }
      ],
      "name": "setLockTemplate",
      "outputs": [],
      "stateMutability": "nonpayable",
      "type": "function"
    },
    {
      "inputs": [
        {
          "internalType": "address",
          "name": "_tokenAddress",
          "type": "address"
        },
        {
          "internalType": "address",
          "name": "_oracleAddress",
          "type": "address"
        }
      ],
      "name": "setOracle",
      "outputs": [],
      "stateMutability": "nonpayable",
      "type": "function"
    },
    {
      "inputs": [],
      "name": "totalDiscountGranted",
      "outputs": [
        {
          "internalType": "uint256",
          "name": "",
          "type": "uint256"
        }
      ],
      "stateMutability": "view",
      "type": "function"
    },
    {
      "inputs": [
        {
          "internalType": "address",
          "name": "newOwner",
          "type": "address"
        }
      ],
      "name": "transferOwnership",
      "outputs": [],
      "stateMutability": "nonpayable",
      "type": "function"
    },
    {
      "inputs": [],
      "name": "udt",
      "outputs": [
        {
          "internalType": "address",
          "name": "",
          "type": "address"
        }
      ],
      "stateMutability": "view",
      "type": "function"
    },
    {
      "inputs": [
        {
          "internalType": "address",
          "name": "",
          "type": "address"
        }
      ],
      "name": "uniswapOracles",
      "outputs": [
        {
          "internalType": "contract IUniswapOracle",
          "name": "",
          "type": "address"
        }
      ],
      "stateMutability": "view",
      "type": "function"
    },
    {
      "inputs": [],
      "name": "unlockVersion",
      "outputs": [
        {
          "internalType": "uint16",
          "name": "",
          "type": "uint16"
        }
      ],
      "stateMutability": "pure",
      "type": "function"
    },
    {
      "inputs": [
        {
          "internalType": "address payable",
          "name": "lockAddress",
          "type": "address"
        },
        {
          "internalType": "uint16",
          "name": "version",
          "type": "uint16"
        }
      ],
      "name": "upgradeLock",
      "outputs": [
        {
          "internalType": "address",
          "name": "",
          "type": "address"
        }
      ],
      "stateMutability": "nonpayable",
      "type": "function"
    },
    {
      "inputs": [],
      "name": "weth",
      "outputs": [
        {
          "internalType": "address",
          "name": "",
          "type": "address"
        }
      ],
      "stateMutability": "view",
      "type": "function"
    }
  ],
  "bytecode": "0x608060405234801561001057600080fd5b50613b6d806100206000396000f3fe60806040523480156200001157600080fd5b5060043610620002495760003560e01c80638da5cb5b116200013d578063c7d7d0c911620000bb578063cec410521162000086578063cec41052146200057d578063d6e9e8031462000587578063ef67fde61462000591578063f2fde38b14620005a8578063f832899114620005bf57600080fd5b8063c7d7d0c91462000536578063caeee3a31462000540578063ccf546481462000557578063cd93b532146200056e57600080fd5b80639a8a059211620001085780639a8a059214620004ea578063a082eb0e14620004f4578063a998e9fb14620004fe578063b0ca0c831462000508578063c4d66de8146200051f57600080fd5b80638da5cb5b146200048b5780638f32d59b146200049d578063939d9f1f14620004bc578063963a947814620004d357600080fd5b80635979e75511620001cb5780636bced5a211620001965780636bced5a2146200041b578063715018a61462000447578063743bbc2f14620004515780637d8fb641146200046a5780637ff94bb2146200048157600080fd5b80635979e755146200036c5780635c38eb3a14620003805780635de9a1371462000397578063666018a514620003eb57600080fd5b80633652466311620002185780633652466314620003095780633fc8cef314620003225780634220bd46146200033657806342d92106146200033e5780634452c2b2146200035557600080fd5b80630cb175e3146200024e57806325772ad9146200027f578063262d0a8514620002c357806335a750de14620002f0575b600080fd5b620002656200025f36600462001f1d565b620005d3565b604080519283526020830191909152015b60405180910390f35b620002af6200029036600462001da8565b6001600160a01b031660009081526073602052604090205461ffff1690565b60405161ffff909116815260200162000276565b606e54620002d7906001600160a01b031681565b6040516001600160a01b03909116815260200162000276565b620002fa620005de565b604051620002769190620022a8565b620003206200031a36600462002137565b62000678565b005b606d54620002d7906001600160a01b031681565b600a620002af565b620002d76200034f3660046200209f565b620006ce565b620002d76200036636600462001f6d565b62000734565b607154620002d7906001600160a01b031681565b620003206200039136600462001e2a565b620008b7565b620003cd620003a836600462001da8565b60686020526000908152604090208054600182015460029092015460ff909116919083565b60408051931515845260208401929092529082015260600162000276565b620002d7620003fc36600462002021565b61ffff166000908152607460205260409020546001600160a01b031690565b620002d76200042c36600462001da8565b606c602052600090815260409020546001600160a01b031681565b6200032062000984565b6200045b606f5481565b60405190815260200162000276565b620003206200047b36600462001e5c565b620009bf565b620002fa62000a96565b6033546001600160a01b0316620002d7565b6033546001600160a01b03163314604051901515815260200162000276565b62000320620004cd36600462002078565b62000aa7565b62000320620004e436600462002137565b620012cf565b6200045b60705481565b6200045b60675481565b620002fa62001343565b620003206200051936600462001da8565b620013d9565b620003206200053036600462001da8565b6200149b565b620003206200152a565b620003206200055136600462001f0a565b62001592565b620002d76200056836600462001ded565b62001664565b607554620002af9061ffff1681565b620002fa62001962565b6200045b60665481565b62000320620005a236600462001da8565b62001971565b62000320620005b936600462001da8565b62001acd565b606b54620002d7906001600160a01b031681565b6000805b9250929050565b6060606a8054620005ef90620023e1565b80601f01602080910402602001604051908101604052809291908181526020018280546200061d90620023e1565b80156200066e5780601f1062000642576101008083540402835291602001916200066e565b820191906000526020600020905b8154815290600101906020018083116200065057829003601f168201915b5050505050905090565b3360009081526068602052604090205460ff16620006ca5760405162461bcd60e51b815260206004820152600a6024820152694f4e4c595f4c4f434b5360b01b60448201526064015b60405180910390fd5b5050565b60008033898989898989604051602401620006f0979695949392919062002268565b60408051601f198184030181529190526020810180516001600160e01b0316636eadde4360e01b1790529050620007278162000734565b9998505050505050505050565b6071546000906001600160a01b0316620007895760405162461bcd60e51b81526020600482015260156024820152741c1c9bde1e50591b5a5b881a5cc81b9bdd081cd95d605a1b6044820152606401620006c1565b606b546001600160a01b0316620007db5760405162461bcd60e51b81526020600482015260156024820152744d495353494e475f4c4f434b5f54454d504c41544560581b6044820152606401620006c1565b606b546071546040516000926001600160a01b039081169216908590620008029062001ca3565b6200081093929190620021d0565b604051809103906000f0801580156200082d573d6000803e3d6000fd5b50604080516060810182526001808252600060208084018281528486018381526001600160a01b03881680855260689093528684209551865460ff191690151517865590519385019390935591516002909301929092559151929350839233917f01017ed19df0c7f8acc436147b234b09664a9fb4797b4fa3fb9e599c2eb67be791a39392505050565b6033546001600160a01b03163314620008e45760405162461bcd60e51b8152600401620006c1906200230b565b6001600160a01b038281166000908152606c6020526040902080546001600160a01b031916918316918217905515620006ca57606d5460405163c640752d60e01b81526001600160a01b03848116600483015291821660248201529082169063c640752d90604401600060405180830381600087803b1580156200096757600080fd5b505af11580156200097c573d6000803e3d6000fd5b505050505050565b6033546001600160a01b03163314620009b15760405162461bcd60e51b8152600401620006c1906200230b565b620009bd600062001b67565b565b6033546001600160a01b03163314620009ec5760405162461bcd60e51b8152600401620006c1906200230b565b606e80546001600160a01b03808b166001600160a01b031992831617909255606d8054928a1692909116919091179055606f86905562000a2f606a868662001cb1565b5062000a3e6069848462001cb1565b5060708190556040517fa14230a1687e9bb8cdc0f3931d27c3a806e88c1c2235ba7756d6911feb35be679062000a84908a908a908a908a908a908a908a908a9062002207565b60405180910390a15050505050505050565b606060698054620005ef90620023e1565b3360009081526068602052604090205460ff1662000af55760405162461bcd60e51b815260206004820152600a6024820152694f4e4c595f4c4f434b5360b01b6044820152606401620006c1565b8115620006ca57600080336001600160a01b0316639d76ea586040518163ffffffff1660e01b815260040160206040518083038186803b15801562000b3957600080fd5b505afa15801562000b4e573d6000803e3d6000fd5b505050506040513d601f19601f8201168201806040525081019062000b74919062001dce565b90506001600160a01b0381161580159062000b9d5750606d546001600160a01b03828116911614155b1562000c61576001600160a01b038082166000908152606c602052604090205416801562000c5a57606d5460405163c1e553e760e01b81526001600160a01b0384811660048301526024820188905291821660448201529082169063c1e553e790606401602060405180830381600087803b15801562000c1c57600080fd5b505af115801562000c31573d6000803e3d6000fd5b505050506040513d601f19601f8201168201806040525081019062000c5791906200205f565b92505b5062000c65565b8391505b8160665462000c75919062002369565b606655336000908152606860205260408120600101805484929062000c9c90849062002369565b90915550506001600160a01b03831615620012c957606e546001600160a01b039081166000908152606c6020526040902054168015620012c757606e54606d5460405163c1e553e760e01b81526001600160a01b039283166004820152670de0b6b3a76400006024820152908216604482015260009183169063c1e553e790606401602060405180830381600087803b15801562000d3957600080fd5b505af115801562000d4e573d6000803e3d6000fd5b505050506040513d601f19601f8201168201806040525081019062000d7491906200205f565b905060008160643a606f5462000d8b9190620023a5565b62000da0906806c6b935b8bbd40000620023a5565b62000dac919062002384565b62000db8919062002384565b905060006001607054111562000e9f576066548062000dd9886002620023a5565b62000de5919062002384565b62000df290600262002369565b606e546040516370a0823160e01b815230600482015289916001600160a01b0316906370a0823190602401602060405180830381600087803b15801562000e3857600080fd5b505af115801562000e4d573d6000803e3d6000fd5b505050506040513d601f19601f8201168201806040525081019062000e7391906200205f565b62000e7f9190620023a5565b62000e8b919062002384565b62000e97919062002384565b905062000f58565b606654600287606e60009054906101000a90046001600160a01b03166001600160a01b03166318160ddd6040518163ffffffff1660e01b8152600401602060405180830381600087803b15801562000ef657600080fd5b505af115801562000f0b573d6000803e3d6000fd5b505050506040513d601f19601f8201168201806040525081019062000f3191906200205f565b62000f3d9190620023a5565b62000f49919062002384565b62000f55919062002384565b90505b8082111562000f65578091505b8115620012c3576000606462000f7d846014620023a5565b62000f89919062002384565b9050600160705411156200117657606e546040516370a0823160e01b81523060048201526000916001600160a01b0316906370a0823190602401602060405180830381600087803b15801562000fde57600080fd5b505af115801562000ff3573d6000803e3d6000fd5b505050506040513d601f19601f820116820180604052508101906200101991906200205f565b9050838111156200116f57606e546001600160a01b031663a9059cbb8a620010428588620023c7565b6040516001600160e01b031960e085901b1681526001600160a01b0390921660048301526024820152604401602060405180830381600087803b1580156200108957600080fd5b505af11580156200109e573d6000803e3d6000fd5b505050506040513d601f19601f82011682018060405250810190620010c4919062001f4b565b50606e546001600160a01b031663a9059cbb620010e96033546001600160a01b031690565b6040516001600160e01b031960e084901b1681526001600160a01b03909116600482015260248101859052604401602060405180830381600087803b1580156200113257600080fd5b505af115801562001147573d6000803e3d6000fd5b505050506040513d601f19601f820116820180604052508101906200116d919062001f4b565b505b50620012c1565b606e546001600160a01b03166340c10f1989620011948487620023c7565b6040516001600160e01b031960e085901b1681526001600160a01b0390921660048301526024820152604401602060405180830381600087803b158015620011db57600080fd5b505af1158015620011f0573d6000803e3d6000fd5b505050506040513d601f19601f8201168201806040525081019062001216919062001f4b565b50606e546001600160a01b03166340c10f196200123b6033546001600160a01b031690565b6040516001600160e01b031960e084901b1681526001600160a01b03909116600482015260248101849052604401602060405180830381600087803b1580156200128457600080fd5b505af115801562001299573d6000803e3d6000fd5b505050506040513d601f19601f82011682018060405250810190620012bf919062001f4b565b505b505b5050505b505b50505050565b6033546001600160a01b03163314620012fc5760405162461bcd60e51b8152600401620006c1906200230b565b6066829055606781905560408051838152602081018390527f7b2ce3c83b45f79993ff2cbf5651caff2dfe04010b4846e03066b84e3e4059bb910160405180910390a15050565b606980546200135290620023e1565b80601f01602080910402602001604051908101604052809291908181526020018280546200138090620023e1565b8015620013d15780601f10620013a557610100808354040283529160200191620013d1565b820191906000526020600020905b815481529060010190602001808311620013b357829003601f168201915b505050505081565b600054610100900460ff16620013f65760005460ff1615620013fa565b303b155b620014195760405162461bcd60e51b8152600401620006c190620022bd565b600054610100900460ff161580156200143c576000805461ffff19166101011790555b603380546001600160a01b0319166001600160a01b0384169081179091556040516000907f8be0079c531659141344cd1fd0a4f28419497f9722a3daafe3b4186f6b6457e0908290a38015620006ca576000805461ff00191690555050565b600054610100900460ff16620014b85760005460ff1615620014bc565b303b155b620014db5760405162461bcd60e51b8152600401620006c190620022bd565b600054610100900460ff16158015620014fe576000805461ffff19166101011790555b6200150982620013d9565b6200151362001bb9565b508015620006ca576000805461ff00191690555050565b6071546001600160a01b031615620015855760405162461bcd60e51b815260206004820152601b60248201527f50726f787941646d696e20616c7265616479206465706c6f79656400000000006044820152606401620006c1565b6200158f62001bb9565b50565b6033546001600160a01b03163314620015bf5760405162461bcd60e51b8152600401620006c1906200230b565b6001600160a01b0382166000818152607360209081526040808320805461ffff191661ffff8781169182179092558085526074909352922080546001600160a01b03191690931790925560755416101562001626576075805461ffff191661ffff83161790555b60405161ffff8216906001600160a01b038416907fd36d021c4aa145e30eadc73e34284101030d688b9eb9413a4dc3af40ab1d474890600090a35050565b6071546000906001600160a01b0316620016b95760405162461bcd60e51b81526020600482015260156024820152741c1c9bde1e50591b5a5b881a5cc81b9bdd081cd95d605a1b6044820152606401620006c1565b620016c5833362001c19565b1515600114620017245760405162461bcd60e51b8152602060048201526024808201527f63616c6c6572206973206e6f742061206d616e61676572206f662074686973206044820152636c6f636b60e01b6064820152608401620006c1565b60008390506000816001600160a01b031663d1bbd49c6040518163ffffffff1660e01b815260040160206040518083038186803b1580156200176557600080fd5b505afa1580156200177a573d6000803e3d6000fd5b505050506040513d601f19601f82011682018060405250810190620017a0919062002040565b9050620017af81600162002340565b61ffff168461ffff16146200181d5760405162461bcd60e51b815260206004820152602d60248201527f76657273696f6e206572726f723a206f6e6c79202b3120696e6372656d656e7460448201526c1cc8185c9948185b1b1bddd959609a1b6064820152608401620006c1565b61ffff84166000908152607460205260409020546001600160a01b031680620018a85760405162461bcd60e51b815260206004820152603660248201527f746869732076657273696f6e206e756d62657220686173206e6f20636f72726560448201527573706f6e64696e67206c6f636b2074656d706c61746560501b6064820152608401620006c1565b60725460405163266a23b160e21b81526001600160a01b0380891660048301528381166024830152889216906399a88ec490604401600060405180830381600087803b158015620018f857600080fd5b505af11580156200190d573d6000803e3d6000fd5b5050604080516001600160a01b038b16815261ffff8a1660208201527f5e7b70a9e6f0b4c7cf2657cf563ce85eed3aebb7731396118d01a195d218fd5e935001905060405180910390a1509495945050505050565b606a80546200135290620023e1565b6033546001600160a01b031633146200199e5760405162461bcd60e51b8152600401620006c1906200230b565b604051636eadde4360e01b815230600482015260006024820181905260448201819052606482018190526084820181905260c060a483015260c48201526001600160a01b03821690636eadde439060e401600060405180830381600087803b15801562001a0a57600080fd5b505af115801562001a1f573d6000803e3d6000fd5b50505050806001600160a01b031663f0ba60406040518163ffffffff1660e01b8152600401600060405180830381600087803b15801562001a5f57600080fd5b505af115801562001a74573d6000803e3d6000fd5b5050606b80546001600160a01b0319166001600160a01b0385169081179091556040519081527f4fa58418e580e78539e8d3d8d17d94dbaca0927533953c8248f313e6f8927c219250602001905060405180910390a150565b6033546001600160a01b0316331462001afa5760405162461bcd60e51b8152600401620006c1906200230b565b6001600160a01b03811662001b615760405162461bcd60e51b815260206004820152602660248201527f4f776e61626c653a206e6577206f776e657220697320746865207a65726f206160448201526564647265737360d01b6064820152608401620006c1565b6200158f815b603380546001600160a01b038381166001600160a01b0319831681179093556040519116919082907f8be0079c531659141344cd1fd0a4f28419497f9722a3daafe3b4186f6b6457e090600090a35050565b600060405162001bc99062001d40565b604051809103906000f08015801562001be6573d6000803e3d6000fd5b50607280546001600160a01b03929092166001600160a01b03199283168117909155607180549092168117909155919050565b60405163aae4b8f760e01b81526001600160a01b038281166004830152600091849182169063aae4b8f79060240160206040518083038186803b15801562001c6057600080fd5b505afa15801562001c75573d6000803e3d6000fd5b505050506040513d601f19601f8201168201806040525081019062001c9b919062001f4b565b949350505050565b610f2f806200247283390190565b82805462001cbf90620023e1565b90600052602060002090601f01602090048101928262001ce3576000855562001d2e565b82601f1062001cfe5782800160ff1982351617855562001d2e565b8280016001018555821562001d2e579182015b8281111562001d2e57823582559160200191906001019062001d11565b5062001d3c92915062001d4e565b5090565b61079780620033a183390190565b5b8082111562001d3c576000815560010162001d4f565b60008083601f84011262001d77578182fd5b50813567ffffffffffffffff81111562001d8f578182fd5b602083019150836020828501011115620005d757600080fd5b60006020828403121562001dba578081fd5b813562001dc7816200244a565b9392505050565b60006020828403121562001de0578081fd5b815162001dc7816200244a565b6000806040838503121562001e00578081fd5b823562001e0d816200244a565b9150602083013562001e1f8162002460565b809150509250929050565b6000806040838503121562001e3d578182fd5b823562001e4a816200244a565b9150602083013562001e1f816200244a565b60008060008060008060008060c0898b03121562001e78578384fd5b883562001e85816200244a565b9750602089013562001e97816200244a565b965060408901359550606089013567ffffffffffffffff8082111562001ebb578586fd5b62001ec98c838d0162001d65565b909750955060808b013591508082111562001ee2578485fd5b5062001ef18b828c0162001d65565b999c989b50969995989497949560a00135949350505050565b6000806040838503121562001e00578182fd5b6000806040838503121562001f30578182fd5b823562001f3d816200244a565b946020939093013593505050565b60006020828403121562001f5d578081fd5b8151801515811462001dc7578182fd5b60006020828403121562001f7f578081fd5b813567ffffffffffffffff8082111562001f97578283fd5b818401915084601f83011262001fab578283fd5b81358181111562001fc05762001fc062002434565b604051601f8201601f19908116603f0116810190838211818310171562001feb5762001feb62002434565b8160405282815287602084870101111562002004578586fd5b826020860160208301379182016020019490945295945050505050565b60006020828403121562002033578081fd5b813562001dc78162002460565b60006020828403121562002052578081fd5b815162001dc78162002460565b60006020828403121562002071578081fd5b5051919050565b600080604083850312156200208b578182fd5b82359150602083013562001e1f816200244a565b600080600080600080600060c0888a031215620020ba578081fd5b873596506020880135620020ce816200244a565b95506040880135945060608801359350608088013567ffffffffffffffff811115620020f8578182fd5b620021068a828b0162001d65565b90945092505060a08801356001600160a01b03198116811462002127578182fd5b8091505092959891949750929550565b600080604083850312156200214a578182fd5b50508035926020909101359150565b60008151808452815b81811015620021805760208185018101518683018201520162002162565b81811115620021925782602083870101525b50601f01601f19169290920160200192915050565b81835281816020850137506000828201602090810191909152601f909101601f19169091010190565b6001600160a01b03848116825283166020820152606060408201819052600090620021fe9083018462002159565b95945050505050565b6001600160a01b038981168252881660208201526040810187905260c0606082018190526000906200223d9083018789620021a7565b828103608084015262002252818688620021a7565b9150508260a08301529998505050505050505050565b600060018060a01b03808a16835288602084015280881660408401525085606083015284608083015260c060a08301526200072760c083018486620021a7565b60208152600062001dc7602083018462002159565b6020808252602e908201527f496e697469616c697a61626c653a20636f6e747261637420697320616c72656160408201526d191e481a5b9a5d1a585b1a5e995960921b606082015260800190565b6020808252818101527f4f776e61626c653a2063616c6c6572206973206e6f7420746865206f776e6572604082015260600190565b600061ffff8083168185168083038211156200236057620023606200241e565b01949350505050565b600082198211156200237f576200237f6200241e565b500190565b600082620023a057634e487b7160e01b81526012600452602481fd5b500490565b6000816000190483118215151615620023c257620023c26200241e565b500290565b600082821015620023dc57620023dc6200241e565b500390565b600181811c90821680620023f657607f821691505b602082108114156200241857634e487b7160e01b600052602260045260246000fd5b50919050565b634e487b7160e01b600052601160045260246000fd5b634e487b7160e01b600052604160045260246000fd5b6001600160a01b03811681146200158f57600080fd5b61ffff811681146200158f57600080fdfe608060405260405162000f2f38038062000f2f8339810160408190526200002691620004da565b82816200005560017f360894a13ba1a3210667c828492db98dca3e2076cc3735a920a3ca505d382bbd62000609565b60008051602062000ee8833981519152146200008157634e487b7160e01b600052600160045260246000fd5b6200008f82826000620000ff565b50620000bf905060017fb53127684a568b3173ae13b9f8a6016e243e63b6e8ee1178d6a717850b5d610462000609565b60008051602062000ec883398151915214620000eb57634e487b7160e01b600052600160045260246000fd5b620000f6826200013c565b50505062000672565b6200010a8362000197565b600082511180620001185750805b156200013757620001358383620001d960201b620002601760201c565b505b505050565b7f7e644d79422f17c01e4894b5f4f588d331ebfa28653d42ae832dc59e38c9798f6200016762000208565b604080516001600160a01b03928316815291841660208301520160405180910390a1620001948162000241565b50565b620001a281620002f6565b6040516001600160a01b038216907fbc7cd75a20ee27fd9adebab32041f755214dbc6bffa90cc0225b39da2e5c2d3b90600090a250565b606062000201838360405180606001604052806027815260200162000f086027913962000399565b9392505050565b60006200023260008051602062000ec883398151915260001b6200047660201b620002081760201c565b546001600160a01b0316919050565b6001600160a01b038116620002ac5760405162461bcd60e51b815260206004820152602660248201527f455243313936373a206e65772061646d696e20697320746865207a65726f206160448201526564647265737360d01b60648201526084015b60405180910390fd5b80620002d560008051602062000ec883398151915260001b6200047660201b620002081760201c565b80546001600160a01b0319166001600160a01b039290921691909117905550565b6200030c816200047960201b6200028c1760201c565b620003705760405162461bcd60e51b815260206004820152602d60248201527f455243313936373a206e657720696d706c656d656e746174696f6e206973206e60448201526c1bdd08184818dbdb9d1c9858dd609a1b6064820152608401620002a3565b80620002d560008051602062000ee883398151915260001b6200047660201b620002081760201c565b6060833b620003fa5760405162461bcd60e51b815260206004820152602660248201527f416464726573733a2064656c65676174652063616c6c20746f206e6f6e2d636f6044820152651b9d1c9858dd60d21b6064820152608401620002a3565b600080856001600160a01b031685604051620004179190620005b6565b600060405180830381855af49150503d806000811462000454576040519150601f19603f3d011682016040523d82523d6000602084013e62000459565b606091505b5090925090506200046c8282866200047f565b9695505050505050565b90565b3b151590565b606083156200049057508162000201565b825115620004a15782518084602001fd5b8160405162461bcd60e51b8152600401620002a39190620005d4565b80516001600160a01b0381168114620004d557600080fd5b919050565b600080600060608486031215620004ef578283fd5b620004fa84620004bd565b92506200050a60208501620004bd565b60408501519092506001600160401b038082111562000527578283fd5b818601915086601f8301126200053b578283fd5b8151818111156200055057620005506200065c565b604051601f8201601f19908116603f011681019083821181831017156200057b576200057b6200065c565b8160405282815289602084870101111562000594578586fd5b620005a78360208301602088016200062d565b80955050505050509250925092565b60008251620005ca8184602087016200062d565b9190910192915050565b6020815260008251806020840152620005f58160408501602087016200062d565b601f01601f19169190910160400192915050565b6000828210156200062857634e487b7160e01b81526011600452602481fd5b500390565b60005b838110156200064a57818101518382015260200162000630565b83811115620001355750506000910152565b634e487b7160e01b600052604160045260246000fd5b61084680620006826000396000f3fe60806040526004361061004e5760003560e01c80633659cfe6146100655780634f1ef286146100855780635c60da1b146100985780638f283970146100c9578063f851a440146100e95761005d565b3661005d5761005b6100fe565b005b61005b6100fe565b34801561007157600080fd5b5061005b6100803660046106d6565b610118565b61005b6100933660046106f0565b61015f565b3480156100a457600080fd5b506100ad6101d0565b6040516001600160a01b03909116815260200160405180910390f35b3480156100d557600080fd5b5061005b6100e43660046106d6565b61020b565b3480156100f557600080fd5b506100ad610235565b610106610292565b610116610111610331565b61033b565b565b61012061035f565b6001600160a01b0316336001600160a01b031614156101575761015481604051806020016040528060008152506000610392565b50565b6101546100fe565b61016761035f565b6001600160a01b0316336001600160a01b031614156101c8576101c38383838080601f01602080910402602001604051908101604052809392919081815260200183838082843760009201919091525060019250610392915050565b505050565b6101c36100fe565b60006101da61035f565b6001600160a01b0316336001600160a01b03161415610200576101fb610331565b905090565b6102086100fe565b90565b61021361035f565b6001600160a01b0316336001600160a01b0316141561015757610154816103bd565b600061023f61035f565b6001600160a01b0316336001600160a01b03161415610200576101fb61035f565b606061028583836040518060600160405280602781526020016107ea60279139610411565b9392505050565b3b151590565b61029a61035f565b6001600160a01b0316336001600160a01b031614156101165760405162461bcd60e51b815260206004820152604260248201527f5472616e73706172656e745570677261646561626c6550726f78793a2061646d60448201527f696e2063616e6e6f742066616c6c6261636b20746f2070726f78792074617267606482015261195d60f21b608482015260a4015b60405180910390fd5b60006101fb6104e5565b3660008037600080366000845af43d6000803e80801561035a573d6000f35b3d6000fd5b60007fb53127684a568b3173ae13b9f8a6016e243e63b6e8ee1178d6a717850b5d61035b546001600160a01b0316919050565b61039b8361050d565b6000825111806103a85750805b156101c3576103b78383610260565b50505050565b7f7e644d79422f17c01e4894b5f4f588d331ebfa28653d42ae832dc59e38c9798f6103e661035f565b604080516001600160a01b03928316815291841660208301520160405180910390a16101548161054d565b6060833b6104705760405162461bcd60e51b815260206004820152602660248201527f416464726573733a2064656c65676174652063616c6c20746f206e6f6e2d636f6044820152651b9d1c9858dd60d21b6064820152608401610328565b600080856001600160a01b03168560405161048b919061076e565b600060405180830381855af49150503d80600081146104c6576040519150601f19603f3d011682016040523d82523d6000602084013e6104cb565b606091505b50915091506104db8282866105f6565b9695505050505050565b60007f360894a13ba1a3210667c828492db98dca3e2076cc3735a920a3ca505d382bbc610383565b6105168161062f565b6040516001600160a01b038216907fbc7cd75a20ee27fd9adebab32041f755214dbc6bffa90cc0225b39da2e5c2d3b90600090a250565b6001600160a01b0381166105b25760405162461bcd60e51b815260206004820152602660248201527f455243313936373a206e65772061646d696e20697320746865207a65726f206160448201526564647265737360d01b6064820152608401610328565b807fb53127684a568b3173ae13b9f8a6016e243e63b6e8ee1178d6a717850b5d61035b80546001600160a01b0319166001600160a01b039290921691909117905550565b60608315610605575081610285565b8251156106155782518084602001fd5b8160405162461bcd60e51b8152600401610328919061078a565b803b6106935760405162461bcd60e51b815260206004820152602d60248201527f455243313936373a206e657720696d706c656d656e746174696f6e206973206e60448201526c1bdd08184818dbdb9d1c9858dd609a1b6064820152608401610328565b807f360894a13ba1a3210667c828492db98dca3e2076cc3735a920a3ca505d382bbc6105d5565b80356001600160a01b03811681146106d157600080fd5b919050565b6000602082840312156106e7578081fd5b610285826106ba565b600080600060408486031215610704578182fd5b61070d846106ba565b9250602084013567ffffffffffffffff80821115610729578384fd5b818601915086601f83011261073c578384fd5b81358181111561074a578485fd5b87602082850101111561075b578485fd5b6020830194508093505050509250925092565b600082516107808184602087016107bd565b9190910192915050565b60208152600082518060208401526107a98160408501602087016107bd565b601f01601f19169190910160400192915050565b60005b838110156107d85781810151838201526020016107c0565b838111156103b7575050600091015256fe416464726573733a206c6f772d6c6576656c2064656c65676174652063616c6c206661696c6564a264697066735822122052c8a36e7b4143b5b94afe65687d28722a5b2e3055b6e9b4e846782a7baba5d564736f6c63430008040033b53127684a568b3173ae13b9f8a6016e243e63b6e8ee1178d6a717850b5d6103360894a13ba1a3210667c828492db98dca3e2076cc3735a920a3ca505d382bbc416464726573733a206c6f772d6c6576656c2064656c65676174652063616c6c206661696c6564608060405234801561001057600080fd5b5061001a3361001f565b61006f565b600080546001600160a01b038381166001600160a01b0319831681178455604051919092169283917f8be0079c531659141344cd1fd0a4f28419497f9722a3daafe3b4186f6b6457e09190a35050565b6107198061007e6000396000f3fe60806040526004361061007b5760003560e01c80639623609d1161004e5780639623609d1461011157806399a88ec414610124578063f2fde38b14610144578063f3b7dead1461016457600080fd5b8063204e1c7a14610080578063715018a6146100bc5780637eff275e146100d35780638da5cb5b146100f3575b600080fd5b34801561008c57600080fd5b506100a061009b3660046104d8565b610184565b6040516001600160a01b03909116815260200160405180910390f35b3480156100c857600080fd5b506100d1610215565b005b3480156100df57600080fd5b506100d16100ee366004610517565b610254565b3480156100ff57600080fd5b506000546001600160a01b03166100a0565b6100d161011f36600461054f565b6102de565b34801561013057600080fd5b506100d161013f366004610517565b61036f565b34801561015057600080fd5b506100d161015f3660046104d8565b6103c7565b34801561017057600080fd5b506100a061017f3660046104d8565b610462565b6000806000836001600160a01b03166040516101aa90635c60da1b60e01b815260040190565b600060405180830381855afa9150503d80600081146101e5576040519150601f19603f3d011682016040523d82523d6000602084013e6101ea565b606091505b5091509150816101f957600080fd5b8080602001905181019061020d91906104fb565b949350505050565b6000546001600160a01b031633146102485760405162461bcd60e51b815260040161023f90610683565b60405180910390fd5b6102526000610488565b565b6000546001600160a01b0316331461027e5760405162461bcd60e51b815260040161023f90610683565b6040516308f2839760e41b81526001600160a01b038281166004830152831690638f283970906024015b600060405180830381600087803b1580156102c257600080fd5b505af11580156102d6573d6000803e3d6000fd5b505050505050565b6000546001600160a01b031633146103085760405162461bcd60e51b815260040161023f90610683565b60405163278f794360e11b81526001600160a01b03841690634f1ef2869034906103389086908690600401610620565b6000604051808303818588803b15801561035157600080fd5b505af1158015610365573d6000803e3d6000fd5b5050505050505050565b6000546001600160a01b031633146103995760405162461bcd60e51b815260040161023f90610683565b604051631b2ce7f360e11b81526001600160a01b038281166004830152831690633659cfe6906024016102a8565b6000546001600160a01b031633146103f15760405162461bcd60e51b815260040161023f90610683565b6001600160a01b0381166104565760405162461bcd60e51b815260206004820152602660248201527f4f776e61626c653a206e6577206f776e657220697320746865207a65726f206160448201526564647265737360d01b606482015260840161023f565b61045f81610488565b50565b6000806000836001600160a01b03166040516101aa906303e1469160e61b815260040190565b600080546001600160a01b038381166001600160a01b0319831681178455604051919092169283917f8be0079c531659141344cd1fd0a4f28419497f9722a3daafe3b4186f6b6457e09190a35050565b6000602082840312156104e9578081fd5b81356104f4816106ce565b9392505050565b60006020828403121561050c578081fd5b81516104f4816106ce565b60008060408385031215610529578081fd5b8235610534816106ce565b91506020830135610544816106ce565b809150509250929050565b600080600060608486031215610563578081fd5b833561056e816106ce565b9250602084013561057e816106ce565b9150604084013567ffffffffffffffff8082111561059a578283fd5b818601915086601f8301126105ad578283fd5b8135818111156105bf576105bf6106b8565b604051601f8201601f19908116603f011681019083821181831017156105e7576105e76106b8565b816040528281528960208487010111156105ff578586fd5b82602086016020830137856020848301015280955050505050509250925092565b60018060a01b0383168152600060206040818401528351806040850152825b8181101561065b5785810183015185820160600152820161063f565b8181111561066c5783606083870101525b50601f01601f191692909201606001949350505050565b6020808252818101527f4f776e61626c653a2063616c6c6572206973206e6f7420746865206f776e6572604082015260600190565b634e487b7160e01b600052604160045260246000fd5b6001600160a01b038116811461045f57600080fdfea26469706673582212206bfbd5a7c3c7a5d031162740bbd1c9d20c20cd2f6c27b9b174aaeb71dc40a23564736f6c63430008040033a2646970667358221220ebfd7faa21c9e895ee13ea2caa53a9dc336bf1008d200e1ce16e01eac2d85e9164736f6c63430008040033",
  "linkReferences": {},
  "deployedLinkReferences": {}
}