{
  "_format": "hh-sol-artifact-1",
  "contractName": "UnlockV13",
  "sourceName": "contracts/Unlock/UnlockV13.sol",
  "abi": [
    {
      "inputs": [],
      "name": "Unlock__ALREADY_DEPLOYED",
      "type": "error"
    },
    {
      "inputs": [],
      "name": "Unlock__INVALID_AMOUNT",
      "type": "error"
    },
    {
      "inputs": [],
      "name": "Unlock__INVALID_TOKEN",
      "type": "error"
    },
    {
      "inputs": [],
      "name": "Unlock__MANAGER_ONLY",
      "type": "error"
    },
    {
      "inputs": [
        {
          "internalType": "address",
          "name": "lockAddress",
          "type": "address"
        }
      ],
      "name": "Unlock__MISSING_LOCK",
      "type": "error"
    },
    {
      "inputs": [],
      "name": "Unlock__MISSING_LOCK_TEMPLATE",
      "type": "error"
    },
    {
      "inputs": [],
      "name": "Unlock__MISSING_PROXY_ADMIN",
      "type": "error"
    },
    {
      "inputs": [],
      "name": "Unlock__MISSING_TEMPLATE",
      "type": "error"
    },
    {
      "inputs": [],
      "name": "Unlock__VERSION_TOO_HIGH",
      "type": "error"
    },
    {
      "anonymous": false,
      "inputs": [
        {
          "indexed": false,
          "internalType": "address",
          "name": "udt",
          "type": "address"
        },
        {
          "indexed": false,
          "internalType": "address",
          "name": "weth",
          "type": "address"
        },
        {
          "indexed": false,
          "internalType": "uint256",
          "name": "estimatedGasForPurchase",
          "type": "uint256"
        },
        {
          "indexed": false,
          "internalType": "string",
          "name": "globalTokenSymbol",
          "type": "string"
        },
        {
          "indexed": false,
          "internalType": "string",
          "name": "globalTokenURI",
          "type": "string"
        },
        {
          "indexed": false,
          "internalType": "uint256",
          "name": "chainId",
          "type": "uint256"
        }
      ],
      "name": "ConfigUnlock",
      "type": "event"
    },
    {
      "anonymous": false,
      "inputs": [
        {
          "indexed": false,
          "internalType": "uint256",
          "name": "grossNetworkProduct",
          "type": "uint256"
        },
        {
          "indexed": false,
          "internalType": "uint256",
          "name": "_valueInETH",
          "type": "uint256"
        },
        {
          "indexed": false,
          "internalType": "address",
          "name": "tokenAddress",
          "type": "address"
        },
        {
          "indexed": false,
          "internalType": "uint256",
          "name": "value",
          "type": "uint256"
        },
        {
          "indexed": false,
          "internalType": "address",
          "name": "lockAddress",
          "type": "address"
        }
      ],
      "name": "GNPChanged",
      "type": "event"
    },
    {
      "anonymous": false,
      "inputs": [
        {
          "indexed": false,
          "internalType": "address",
          "name": "lockAddress",
          "type": "address"
        },
        {
          "indexed": false,
          "internalType": "uint16",
          "name": "version",
          "type": "uint16"
        }
      ],
      "name": "LockUpgraded",
      "type": "event"
    },
    {
      "anonymous": false,
      "inputs": [
        {
          "indexed": true,
          "internalType": "address",
          "name": "lockOwner",
          "type": "address"
        },
        {
          "indexed": true,
          "internalType": "address",
          "name": "newLockAddress",
          "type": "address"
        }
      ],
      "name": "NewLock",
      "type": "event"
    },
    {
      "anonymous": false,
      "inputs": [
        {
          "indexed": true,
          "internalType": "address",
          "name": "previousOwner",
          "type": "address"
        },
        {
          "indexed": true,
          "internalType": "address",
          "name": "newOwner",
          "type": "address"
        }
      ],
      "name": "OwnershipTransferred",
      "type": "event"
    },
    {
      "anonymous": false,
      "inputs": [
        {
          "indexed": false,
          "internalType": "uint256",
          "name": "grossNetworkProduct",
          "type": "uint256"
        },
        {
          "indexed": false,
          "internalType": "uint256",
          "name": "totalDiscountGranted",
          "type": "uint256"
        }
      ],
      "name": "ResetTrackedValue",
      "type": "event"
    },
    {
      "anonymous": false,
      "inputs": [
        {
          "indexed": false,
          "internalType": "address",
          "name": "publicLockAddress",
          "type": "address"
        }
      ],
      "name": "SetLockTemplate",
      "type": "event"
    },
    {
      "anonymous": false,
      "inputs": [
        {
          "indexed": true,
          "internalType": "address",
          "name": "oldAddress",
          "type": "address"
        },
        {
          "indexed": true,
          "internalType": "address",
          "name": "newAddress",
          "type": "address"
        }
      ],
      "name": "SwapBurnerChanged",
      "type": "event"
    },
    {
      "anonymous": false,
      "inputs": [
        {
          "indexed": true,
          "internalType": "address",
          "name": "impl",
          "type": "address"
        },
        {
          "indexed": true,
          "internalType": "uint16",
          "name": "version",
          "type": "uint16"
        }
      ],
      "name": "UnlockTemplateAdded",
      "type": "event"
    },
    {
      "inputs": [
        {
          "internalType": "address",
          "name": "sender",
          "type": "address"
        }
      ],
      "name": "__initializeOwnable",
      "outputs": [],
      "stateMutability": "nonpayable",
      "type": "function"
    },
    {
      "inputs": [
        {
          "internalType": "address",
          "name": "impl",
          "type": "address"
        },
        {
          "internalType": "uint16",
          "name": "version",
          "type": "uint16"
        }
      ],
      "name": "addLockTemplate",
      "outputs": [],
      "stateMutability": "nonpayable",
      "type": "function"
    },
    {
      "inputs": [],
      "name": "chainId",
      "outputs": [
        {
          "internalType": "uint256",
          "name": "",
          "type": "uint256"
        }
      ],
      "stateMutability": "view",
      "type": "function"
    },
    {
      "inputs": [
        {
          "internalType": "address",
          "name": "",
          "type": "address"
        },
        {
          "internalType": "uint256",
          "name": "",
          "type": "uint256"
        }
      ],
      "name": "computeAvailableDiscountFor",
      "outputs": [
        {
          "internalType": "uint256",
          "name": "discount",
          "type": "uint256"
        },
        {
          "internalType": "uint256",
          "name": "tokens",
          "type": "uint256"
        }
      ],
      "stateMutability": "pure",
      "type": "function"
    },
    {
      "inputs": [
        {
          "internalType": "address",
          "name": "_udt",
          "type": "address"
        },
        {
          "internalType": "address",
          "name": "_weth",
          "type": "address"
        },
        {
          "internalType": "uint256",
          "name": "_estimatedGasForPurchase",
          "type": "uint256"
        },
        {
          "internalType": "string",
          "name": "_symbol",
          "type": "string"
        },
        {
          "internalType": "string",
          "name": "_URI",
          "type": "string"
        },
        {
          "internalType": "uint256",
          "name": "_chainId",
          "type": "uint256"
        }
      ],
      "name": "configUnlock",
      "outputs": [],
      "stateMutability": "nonpayable",
      "type": "function"
    },
    {
      "inputs": [
        {
          "internalType": "uint256",
          "name": "_expirationDuration",
          "type": "uint256"
        },
        {
          "internalType": "address",
          "name": "_tokenAddress",
          "type": "address"
        },
        {
          "internalType": "uint256",
          "name": "_keyPrice",
          "type": "uint256"
        },
        {
          "internalType": "uint256",
          "name": "_maxNumberOfKeys",
          "type": "uint256"
        },
        {
          "internalType": "string",
          "name": "_lockName",
          "type": "string"
        },
        {
          "internalType": "bytes12",
          "name": "",
          "type": "bytes12"
        }
      ],
      "name": "createLock",
      "outputs": [
        {
          "internalType": "address",
          "name": "",
          "type": "address"
        }
      ],
      "stateMutability": "nonpayable",
      "type": "function"
    },
    {
      "inputs": [
        {
          "internalType": "bytes",
          "name": "data",
          "type": "bytes"
        }
      ],
      "name": "createUpgradeableLock",
      "outputs": [
        {
          "internalType": "address",
          "name": "",
          "type": "address"
        }
      ],
      "stateMutability": "nonpayable",
      "type": "function"
    },
    {
      "inputs": [
        {
          "internalType": "bytes",
          "name": "data",
          "type": "bytes"
        },
        {
          "internalType": "uint16",
          "name": "_lockVersion",
          "type": "uint16"
        }
      ],
      "name": "createUpgradeableLockAtVersion",
      "outputs": [
        {
          "internalType": "address",
          "name": "",
          "type": "address"
        }
      ],
      "stateMutability": "nonpayable",
      "type": "function"
    },
    {
      "inputs": [],
      "name": "estimatedGasForPurchase",
      "outputs": [
        {
          "internalType": "uint256",
          "name": "",
          "type": "uint256"
        }
      ],
      "stateMutability": "view",
      "type": "function"
    },
    {
      "inputs": [],
      "name": "getAdmin",
      "outputs": [
        {
          "internalType": "address",
          "name": "",
          "type": "address"
        }
      ],
      "stateMutability": "view",
      "type": "function"
    },
    {
      "inputs": [],
      "name": "getGlobalBaseTokenURI",
      "outputs": [
        {
          "internalType": "string",
          "name": "",
          "type": "string"
        }
      ],
      "stateMutability": "view",
      "type": "function"
    },
    {
      "inputs": [],
      "name": "getGlobalTokenSymbol",
      "outputs": [
        {
          "internalType": "string",
          "name": "",
          "type": "string"
        }
      ],
      "stateMutability": "view",
      "type": "function"
    },
    {
      "inputs": [],
      "name": "globalBaseTokenURI",
      "outputs": [
        {
          "internalType": "string",
          "name": "",
          "type": "string"
        }
      ],
      "stateMutability": "view",
      "type": "function"
    },
    {
      "inputs": [],
      "name": "globalTokenSymbol",
      "outputs": [
        {
          "internalType": "string",
          "name": "",
          "type": "string"
        }
      ],
      "stateMutability": "view",
      "type": "function"
    },
    {
      "inputs": [],
      "name": "grossNetworkProduct",
      "outputs": [
        {
          "internalType": "uint256",
          "name": "",
          "type": "uint256"
        }
      ],
      "stateMutability": "view",
      "type": "function"
    },
    {
      "inputs": [
        {
          "internalType": "address",
          "name": "_unlockOwner",
          "type": "address"
        }
      ],
      "name": "initialize",
      "outputs": [],
      "stateMutability": "nonpayable",
      "type": "function"
    },
    {
      "inputs": [],
      "name": "initializeProxyAdmin",
      "outputs": [],
      "stateMutability": "nonpayable",
      "type": "function"
    },
    {
      "inputs": [],
      "name": "isOwner",
      "outputs": [
        {
          "internalType": "bool",
          "name": "",
          "type": "bool"
        }
      ],
      "stateMutability": "view",
      "type": "function"
    },
    {
      "inputs": [
        {
          "internalType": "address",
          "name": "",
          "type": "address"
        }
      ],
      "name": "locks",
      "outputs": [
        {
          "internalType": "bool",
          "name": "deployed",
          "type": "bool"
        },
        {
          "internalType": "uint256",
          "name": "totalSales",
          "type": "uint256"
        },
        {
          "internalType": "uint256",
          "name": "yieldedDiscountTokens",
          "type": "uint256"
        }
      ],
      "stateMutability": "view",
      "type": "function"
    },
    {
      "inputs": [],
      "name": "networkBaseFee",
      "outputs": [
        {
          "internalType": "uint256",
          "name": "",
          "type": "uint256"
        }
      ],
      "stateMutability": "view",
      "type": "function"
    },
    {
      "inputs": [],
      "name": "owner",
      "outputs": [
        {
          "internalType": "address",
          "name": "",
          "type": "address"
        }
      ],
      "stateMutability": "view",
      "type": "function"
    },
    {
      "inputs": [],
      "name": "postLockUpgrade",
      "outputs": [],
      "stateMutability": "nonpayable",
      "type": "function"
    },
    {
      "inputs": [],
      "name": "protocolFee",
      "outputs": [
        {
          "internalType": "uint256",
          "name": "",
          "type": "uint256"
        }
      ],
      "stateMutability": "view",
      "type": "function"
    },
    {
      "inputs": [],
      "name": "proxyAdminAddress",
      "outputs": [
        {
          "internalType": "address",
          "name": "",
          "type": "address"
        }
      ],
      "stateMutability": "view",
      "type": "function"
    },
    {
      "inputs": [],
      "name": "publicLockAddress",
      "outputs": [
        {
          "internalType": "address",
          "name": "",
          "type": "address"
        }
      ],
      "stateMutability": "view",
      "type": "function"
    },
    {
      "inputs": [
        {
          "internalType": "uint16",
          "name": "_version",
          "type": "uint16"
        }
      ],
      "name": "publicLockImpls",
      "outputs": [
        {
          "internalType": "address",
          "name": "",
          "type": "address"
        }
      ],
      "stateMutability": "view",
      "type": "function"
    },
    {
      "inputs": [],
      "name": "publicLockLatestVersion",
      "outputs": [
        {
          "internalType": "uint16",
          "name": "",
          "type": "uint16"
        }
      ],
      "stateMutability": "view",
      "type": "function"
    },
    {
      "inputs": [
        {
          "internalType": "address",
          "name": "_impl",
          "type": "address"
        }
      ],
      "name": "publicLockVersions",
      "outputs": [
        {
          "internalType": "uint16",
          "name": "",
          "type": "uint16"
        }
      ],
      "stateMutability": "view",
      "type": "function"
    },
    {
      "inputs": [
        {
          "internalType": "uint256",
          "name": "",
          "type": "uint256"
        },
        {
          "internalType": "uint256",
          "name": "",
          "type": "uint256"
        }
      ],
      "name": "recordConsumedDiscount",
      "outputs": [],
      "stateMutability": "view",
      "type": "function"
    },
    {
      "inputs": [
        {
          "internalType": "uint256",
          "name": "_value",
          "type": "uint256"
        },
        {
          "internalType": "address",
          "name": "_referrer",
          "type": "address"
        }
      ],
      "name": "recordKeyPurchase",
      "outputs": [],
      "stateMutability": "nonpayable",
      "type": "function"
    },
    {
      "inputs": [
        {
          "internalType": "address",
          "name": "lock",
          "type": "address"
        }
      ],
      "name": "removeLock",
      "outputs": [],
      "stateMutability": "nonpayable",
      "type": "function"
    },
    {
      "inputs": [],
      "name": "renounceOwnership",
      "outputs": [],
      "stateMutability": "nonpayable",
      "type": "function"
    },
    {
      "inputs": [
        {
          "internalType": "uint256",
          "name": "_grossNetworkProduct",
          "type": "uint256"
        },
        {
          "internalType": "uint256",
          "name": "_totalDiscountGranted",
          "type": "uint256"
        }
      ],
      "name": "resetTrackedValue",
      "outputs": [],
      "stateMutability": "nonpayable",
      "type": "function"
    },
    {
      "inputs": [
        {
          "internalType": "address",
          "name": "_publicLockAddress",
          "type": "address"
        }
      ],
      "name": "setLockTemplate",
      "outputs": [],
      "stateMutability": "nonpayable",
      "type": "function"
    },
    {
      "inputs": [
        {
          "internalType": "address",
          "name": "_tokenAddress",
          "type": "address"
        },
        {
          "internalType": "address",
          "name": "_oracleAddress",
          "type": "address"
        }
      ],
      "name": "setOracle",
      "outputs": [],
      "stateMutability": "nonpayable",
      "type": "function"
    },
    {
      "inputs": [
        {
          "internalType": "uint256",
          "name": "_protocolFee",
          "type": "uint256"
        }
      ],
      "name": "setProtocolFee",
      "outputs": [],
      "stateMutability": "nonpayable",
      "type": "function"
    },
    {
      "inputs": [
        {
          "internalType": "address",
          "name": "_swapBurnerAddress",
          "type": "address"
        }
      ],
      "name": "setSwapBurner",
      "outputs": [],
      "stateMutability": "nonpayable",
      "type": "function"
    },
    {
      "inputs": [
        {
          "internalType": "address",
          "name": "token",
          "type": "address"
        },
        {
          "internalType": "uint256",
          "name": "amount",
          "type": "uint256"
        },
        {
          "internalType": "uint24",
          "name": "poolFee",
          "type": "uint24"
        }
      ],
      "name": "swapAndBurn",
      "outputs": [],
      "stateMutability": "nonpayable",
      "type": "function"
    },
    {
      "inputs": [],
      "name": "swapBurnerAddress",
      "outputs": [
        {
          "internalType": "address",
          "name": "",
          "type": "address"
        }
      ],
      "stateMutability": "view",
      "type": "function"
    },
    {
      "inputs": [],
      "name": "totalDiscountGranted",
      "outputs": [
        {
          "internalType": "uint256",
          "name": "",
          "type": "uint256"
        }
      ],
      "stateMutability": "view",
      "type": "function"
    },
    {
      "inputs": [
        {
          "internalType": "address",
          "name": "newOwner",
          "type": "address"
        }
      ],
      "name": "transferOwnership",
      "outputs": [],
      "stateMutability": "nonpayable",
      "type": "function"
    },
    {
      "inputs": [
        {
          "internalType": "address",
          "name": "token",
          "type": "address"
        },
        {
          "internalType": "address",
          "name": "to",
          "type": "address"
        },
        {
          "internalType": "uint256",
          "name": "amount",
          "type": "uint256"
        }
      ],
      "name": "transferTokens",
      "outputs": [],
      "stateMutability": "nonpayable",
      "type": "function"
    },
    {
      "inputs": [],
      "name": "udt",
      "outputs": [
        {
          "internalType": "address",
          "name": "",
          "type": "address"
        }
      ],
      "stateMutability": "view",
      "type": "function"
    },
    {
      "inputs": [
        {
          "internalType": "address",
          "name": "",
          "type": "address"
        }
      ],
      "name": "uniswapOracles",
      "outputs": [
        {
          "internalType": "contract IUniswapOracleV3",
          "name": "",
          "type": "address"
        }
      ],
      "stateMutability": "view",
      "type": "function"
    },
    {
      "inputs": [],
      "name": "unlockVersion",
      "outputs": [
        {
          "internalType": "uint16",
          "name": "",
          "type": "uint16"
        }
      ],
      "stateMutability": "pure",
      "type": "function"
    },
    {
      "inputs": [
        {
          "internalType": "address payable",
          "name": "lockAddress",
          "type": "address"
        },
        {
          "internalType": "uint16",
          "name": "version",
          "type": "uint16"
        }
      ],
      "name": "upgradeLock",
      "outputs": [
        {
          "internalType": "address",
          "name": "",
          "type": "address"
        }
      ],
      "stateMutability": "nonpayable",
      "type": "function"
    },
    {
      "inputs": [],
      "name": "weth",
      "outputs": [
        {
          "internalType": "address",
          "name": "",
          "type": "address"
        }
      ],
      "stateMutability": "view",
      "type": "function"
    },
    {
      "stateMutability": "payable",
      "type": "receive"
    }
  ],
  "bytecode": "0x608060405234801561000f575f80fd5b50613fb18061001d5f395ff3fe608060405260043610620002aa575f3560e01c80637ff94bb21162000172578063ba5ea0d511620000ce578063cec410521162000082578063cec4105214620008e5578063d6e9e80314620008fc578063ed9674bd1462000913578063ef67fde6146200092a578063f2fde38b146200094e578063f83289911462000972575f80fd5b8063ba5ea0d51462000832578063c4d66de81462000846578063c7d7d0c9146200086a578063caeee3a31462000881578063ccf5464814620008a5578063cd93b53214620008c9575f80fd5b8063a082eb0e1162000126578063a082eb0e1462000784578063a64b6e5f146200079b578063a998e9fb14620007bf578063b0ca0c8314620007d6578063b0e21e8a14620007fa578063b5e60fc51462000811575f80fd5b80637ff94bb214620006c75780638da5cb5b14620006de5780638f32d59b14620006fd578063939d9f1f1462000725578063963a947814620007495780639a8a0592146200076d575f80fd5b80634a387bef11620002225780636bfe257d11620001d65780636bfe257d14620005e05780636e9960c31462000604578063715018a61462000642578063743bbc2f1462000659578063787dce3d146200067f5780637d8fb64114620006a3575f80fd5b80634a387bef14620004a35780635979e75514620004c75780635c38eb3a14620004e85780635de9a137146200050c578063666018a5146200056c5780636bced5a214620005a8575f80fd5b80630cb175e314620002d557806325772ad91462000313578063262d0a85146200036357806335a750de14620003935780633652466314620003b95780633fc8cef314620003dd5780634220bd4614620003fe57806342d9210614620004135780634452c2b2146200043757806346f3639f146200045b578063487a8a76146200047f575f80fd5b36620002d1575f3411620002cf576040516188f160e11b815260040160405180910390fd5b005b5f80fd5b348015620002e1575f80fd5b50620002f9620002f3366004620021ae565b62000993565b604080519283526020830191909152015b60405180910390f35b3480156200031f575f80fd5b506200034f62000331366004620021db565b6001600160a01b03165f9081526073602052604090205461ffff1690565b60405161ffff90911681526020016200030a565b3480156200036f575f80fd5b50606e5462000384906001600160a01b031681565b6040516200030a9190620021f9565b3480156200039f575f80fd5b50620003aa6200099d565b6040516200030a919062002252565b348015620003c5575f80fd5b50620002cf620003d736600462002266565b62000a35565b348015620003e9575f80fd5b50606d5462000384906001600160a01b031681565b3480156200040a575f80fd5b50600d6200034f565b3480156200041f575f80fd5b506200038462000431366004620022c7565b62000a73565b34801562000443575f80fd5b506200038462000455366004620023fe565b62000ad8565b34801562000467575f80fd5b50620002cf6200047936600462002433565b62000af7565b3480156200048b575f80fd5b50620003846200049d3660046200248d565b62000bc2565b348015620004af575f80fd5b50620002cf620004c1366004620021db565b62000d01565b348015620004d3575f80fd5b5060715462000384906001600160a01b031681565b348015620004f4575f80fd5b50620002cf62000506366004620024e1565b62000d55565b34801562000518575f80fd5b506200054e6200052a366004620021db565b60686020525f908152604090208054600182015460029092015460ff909116919083565b6040805193151584526020840192909252908201526060016200030a565b34801562000578575f80fd5b50620003846200058a36600462002512565b61ffff165f908152607460205260409020546001600160a01b031690565b348015620005b4575f80fd5b5062000384620005c6366004620021db565b606c6020525f90815260409020546001600160a01b031681565b348015620005ec575f80fd5b50620002cf620005fe366004620021db565b62000e18565b34801562000610575f80fd5b507fb53127684a568b3173ae13b9f8a6016e243e63b6e8ee1178d6a717850b5d6103546001600160a01b031662000384565b3480156200064e575f80fd5b50620002cf62000e92565b34801562000665575f80fd5b5062000670606f5481565b6040519081526020016200030a565b3480156200068b575f80fd5b50620002cf6200069d36600462002530565b62000ec8565b348015620006af575f80fd5b50620002cf620006c136600462002548565b62000ef6565b348015620006d3575f80fd5b50620003aa62000fcb565b348015620006ea575f80fd5b506033546001600160a01b031662000384565b34801562000709575f80fd5b506200071462000fdc565b60405190151581526020016200030a565b34801562000731575f80fd5b50620002cf62000743366004620025f1565b62000fed565b34801562000755575f80fd5b50620002cf6200076736600462002266565b620014f2565b34801562000779575f80fd5b506200067060705481565b34801562000790575f80fd5b506200067060675481565b348015620007a7575f80fd5b50620002cf620007b936600462002617565b62001562565b348015620007cb575f80fd5b50620003aa6200159d565b348015620007e2575f80fd5b50620002cf620007f4366004620021db565b62001631565b34801562000806575f80fd5b506200067060765481565b3480156200081d575f80fd5b5060775462000384906001600160a01b031681565b3480156200083e575f80fd5b504862000670565b34801562000852575f80fd5b50620002cf62000864366004620021db565b620016ed565b34801562000876575f80fd5b50620002cf62001777565b3480156200088d575f80fd5b50620002cf6200089f3660046200265a565b620017d8565b348015620008b1575f80fd5b5062000384620008c33660046200265a565b62001944565b348015620008d5575f80fd5b506075546200034f9061ffff1681565b348015620008f1575f80fd5b50620003aa62001b97565b34801562000908575f80fd5b506200067060665481565b3480156200091f575f80fd5b50620002cf62001ba6565b34801562000936575f80fd5b50620002cf62000948366004620021db565b62001dcd565b3480156200095a575f80fd5b50620002cf6200096c366004620021db565b62001eb0565b3480156200097e575f80fd5b50606b5462000384906001600160a01b031681565b5f805b9250929050565b6060606a8054620009ae906200268b565b80601f0160208091040260200160405190810160405280929190818152602001828054620009dc906200268b565b801562000a2b5780601f1062000a015761010080835404028352916020019162000a2b565b820191905f5260205f20905b81548152906001019060200180831162000a0d57829003601f168201915b5050505050905090565b335f9081526068602052604090205460ff1662000a6f5760405162461bcd60e51b815260040162000a6690620026c5565b60405180910390fd5b5050565b5f803389898989898960405160240162000a94979695949392919062002711565b60408051601f198184030181529190526020810180516001600160e01b0316636eadde4360e01b179052905062000acb8162000ad8565b9998505050505050505050565b6075545f90819062000af090849061ffff1662000bc2565b9392505050565b606e546001600160a01b039081169084160362000b2757604051639ad9605560e01b815260040160405180910390fd5b60775462000b419084906001600160a01b03168462001f2c565b607754604051632ef8e16760e01b81526001600160a01b03858116600483015262ffffff8416602483015290911690632ef8e167906044016020604051808303815f875af115801562000b96573d5f803e3d5ffd5b505050506040513d601f19601f8201168201806040525081019062000bbc919062002750565b50505050565b6071545f906001600160a01b031662000bee576040516320ad73f360e21b815260040160405180910390fd5b61ffff82165f908152607460205260409020546001600160a01b03168062000c295760405163adf2276360e01b815260040160405180910390fd5b6071546040515f9183916001600160a01b0390911690879062000c4c906200217d565b62000c5a9392919062002768565b604051809103905ff08015801562000c74573d5f803e3d5ffd5b506040805160608101825260018082525f60208084018281528486018381526001600160a01b03881680855260689093528684209551865460ff191690151517865590519385019390935591516002909301929092559151929350839233917f01017ed19df0c7f8acc436147b234b09664a9fb4797b4fa3fb9e599c2eb67be791a3925050505b92915050565b62000d0b62000fdc565b62000d2a5760405162461bcd60e51b815260040162000a66906200279e565b6001600160a01b03165f908152606860205260408120805460ff191681556001810182905560020155565b62000d5f62000fdc565b62000d7e5760405162461bcd60e51b815260040162000a66906200279e565b6001600160a01b038281165f908152606c6020526040902080546001600160a01b03191691831691821790551562000a6f57606d5460405163c640752d60e01b81526001600160a01b03848116600483015291821660248201529082169063c640752d906044015f604051808303815f87803b15801562000dfd575f80fd5b505af115801562000e10573d5f803e3d5ffd5b505050505050565b62000e2262000fdc565b62000e415760405162461bcd60e51b815260040162000a66906200279e565b607780546001600160a01b038381166001600160a01b0319831681179093556040519116919082907f26e432617b34430aab046f96a2e212643861596cb69dcca785a8045a23ed0722905f90a35050565b62000e9c62000fdc565b62000ebb5760405162461bcd60e51b815260040162000a66906200279e565b62000ec65f62001fe3565b565b62000ed262000fdc565b62000ef15760405162461bcd60e51b815260040162000a66906200279e565b607655565b62000f0062000fdc565b62000f1f5760405162461bcd60e51b815260040162000a66906200279e565b606e80546001600160a01b03808b166001600160a01b031992831617909255606d8054928a1692909116919091179055606f869055606a62000f638587836200280b565b50606962000f738385836200280b565b5060708190556040517fa14230a1687e9bb8cdc0f3931d27c3a806e88c1c2235ba7756d6911feb35be679062000fb9908a908a908a908a908a908a908a908a90620028d2565b60405180910390a15050505050505050565b606060698054620009ae906200268b565b6033546001600160a01b0316331490565b335f9081526068602052604090205460ff166200101e5760405162461bcd60e51b815260040162000a6690620026c5565b811562000a6f575f80336001600160a01b0316639d76ea586040518163ffffffff1660e01b8152600401602060405180830381865afa15801562001064573d5f803e3d5ffd5b505050506040513d601f19601f820116820180604052508101906200108a919062002932565b90506001600160a01b03811615801590620010b35750606d546001600160a01b03828116911614155b156200115e576001600160a01b038082165f908152606c60205260409020541680156200115757606d5460405163c1e553e760e01b81526001600160a01b038084169263c1e553e792620011119287928b9291169060040162002950565b6020604051808303815f875af11580156200112e573d5f803e3d5ffd5b505050506040513d601f19601f8201168201806040525081019062001154919062002750565b92505b5062001162565b8391505b620011708282863362002034565b335f90815260686020526040812060010180548492906200119390849062002987565b90915550506001600160a01b03831615801590620012185750600d336001600160a01b031663d1bbd49c6040518163ffffffff1660e01b8152600401602060405180830381865afa158015620011eb573d5f803e3d5ffd5b505050506040513d601f19601f820116820180604052508101906200121191906200299d565b61ffff1610155b1562000bbc57606e546001600160a01b039081165f908152606c6020526040902054168015620014eb57606e54606d5460405163c1e553e760e01b81525f926001600160a01b038086169363c1e553e7936200128693831692670de0b6b3a764000092169060040162002950565b6020604051808303815f875af1158015620012a3573d5f803e3d5ffd5b505050506040513d601f19601f82011682018060405250810190620012c9919062002750565b606e546040516370a0823160e01b81529192505f916001600160a01b03909116906370a082319062001300903090600401620021f9565b602060405180830381865afa1580156200131c573d5f803e3d5ffd5b505050506040513d601f19601f8201168201806040525081019062001342919062002750565b90505f306001600160a01b031663ba5ea0d56040518163ffffffff1660e01b8152600401602060405180830381865afa925050508015620013a2575060408051601f3d908101601f191682019092526200139f9181019062002750565b60015b620013b057506064620013c8565b805f03620013c25760649150620013c6565b8091505b505b5f8382606f54620013da9190620029bb565b620013ee90670de0b6b3a7640000620029bb565b620013fa9190620029d5565b6066549091505f9080620014108a6002620029bb565b6200141c9190620029d5565b6200142990600262002987565b620014358a87620029bb565b620014419190620029d5565b6200144d9190620029d5565b9050808211156200145c578091505b8115620014e55781841115620014e557606e5460405163a9059cbb60e01b81526001600160a01b038b81166004830152602482018590529091169063a9059cbb906044016020604051808303815f875af1158015620014bd573d5f803e3d5ffd5b505050506040513d601f19601f82011682018060405250810190620014e3919062002a0a565b505b50505050505b5050505050565b620014fc62000fdc565b6200151b5760405162461bcd60e51b815260040162000a66906200279e565b6066829055606781905560408051838152602081018390527f7b2ce3c83b45f79993ff2cbf5651caff2dfe04010b4846e03066b84e3e4059bb910160405180910390a15050565b6200156c62000fdc565b6200158b5760405162461bcd60e51b815260040162000a66906200279e565b6200159883838362001f2c565b505050565b60698054620015ac906200268b565b80601f0160208091040260200160405190810160405280929190818152602001828054620015da906200268b565b8015620016295780601f10620015ff5761010080835404028352916020019162001629565b820191905f5260205f20905b8154815290600101906020018083116200160b57829003601f168201915b505050505081565b5f54610100900460ff166200164c575f5460ff161562001650565b303b155b6200166f5760405162461bcd60e51b815260040162000a669062002a26565b5f54610100900460ff1615801562001690575f805461ffff19166101011790555b603380546001600160a01b0319166001600160a01b0384169081179091556040515f907f8be0079c531659141344cd1fd0a4f28419497f9722a3daafe3b4186f6b6457e0908290a3801562000a6f575f805461ff00191690555050565b5f54610100900460ff1662001708575f5460ff16156200170c565b303b155b6200172b5760405162461bcd60e51b815260040162000a669062002a26565b5f54610100900460ff161580156200174c575f805461ffff19166101011790555b620017578262001631565b62001761620020a5565b50801562000a6f575f805461ff00191690555050565b6200178162000fdc565b620017a05760405162461bcd60e51b815260040162000a66906200279e565b6071546001600160a01b031615620017cb5760405163feb51c9f60e01b815260040160405180910390fd5b620017d5620020a5565b50565b620017e262000fdc565b620018015760405162461bcd60e51b815260040162000a66906200279e565b604051636eadde4360e01b81523060048201525f6024820181905260448201819052606482018190526084820181905260c060a483015260c48201526001600160a01b03831690636eadde439060e4015f604051808303815f87803b15801562001869575f80fd5b505af19250505080156200187b575060015b15620018d257816001600160a01b031663f0ba60406040518163ffffffff1660e01b81526004015f604051808303815f87803b158015620018ba575f80fd5b505af1158015620018cd573d5f803e3d5ffd5b505050505b6001600160a01b0382165f818152607360209081526040808320805461ffff191661ffff8716908117909155808452607490925280832080546001600160a01b03191685179055519092917fd36d021c4aa145e30eadc73e34284101030d688b9eb9413a4dc3af40ab1d474891a35050565b6071545f906001600160a01b031662001970576040516320ad73f360e21b815260040160405180910390fd5b6200197c833362002101565b15156001146200199f576040516305167ffd60e51b815260040160405180910390fd5b5f8390505f816001600160a01b031663d1bbd49c6040518163ffffffff1660e01b8152600401602060405180830381865afa158015620019e1573d5f803e3d5ffd5b505050506040513d601f19601f8201168201806040525081019062001a0791906200299d565b905062001a1681600162002a53565b61ffff168461ffff161462001a3e576040516337bb006160e01b815260040160405180910390fd5b61ffff84165f908152607460205260409020546001600160a01b03168062001a7957604051636b53d5c760e11b815260040160405180910390fd5b60725460405163266a23b160e21b81526001600160a01b0380891660048301528381166024830152889216906399a88ec4906044015f604051808303815f87803b15801562001ac6575f80fd5b505af115801562001ad9573d5f803e3d5ffd5b5050604051638932a90d60e01b8152602060048201526002602482015261060f60f31b60448201526001600160a01b0387169250638932a90d91506064015f604051808303815f87803b15801562001b2f575f80fd5b505af115801562001b42573d5f803e3d5ffd5b5050604080516001600160a01b038b16815261ffff8a1660208201527f5e7b70a9e6f0b4c7cf2657cf563ce85eed3aebb7731396118d01a195d218fd5e935001905060405180910390a1509495945050505050565b606a8054620015ac906200268b565b335f9081526068602052604090205460ff1615801562001c2c5750336001600160a01b031663d1bbd49c6040518163ffffffff1660e01b8152600401602060405180830381865afa15801562001bfe573d5f803e3d5ffd5b505050506040513d601f19601f8201168201806040525081019062001c2491906200299d565b61ffff16600d145b801562001c395750466001145b801562001ccd5750336001600160a01b0316630f15023b6040518163ffffffff1660e01b8152600401602060405180830381865afa15801562001c7e573d5f803e3d5ffd5b505050506040513d601f19601f8201168201806040525081019062001ca4919062002932565b6001600160a01b0316733d5409cce1d45233de1d4ebdee74b8e004abdd136001600160a01b0316145b1562000ec657604051635de9a13760e01b8152733d5409cce1d45233de1d4ebdee74b8e004abdd13905f90819081908490635de9a1379062001d14903390600401620021f9565b606060405180830381865afa15801562001d30573d5f803e3d5ffd5b505050506040513d601f19601f8201168201806040525081019062001d56919062002a78565b925092509250821562001db0576040805160608101825284151581526020808201858152828401858152335f9081526068909352939091209151825460ff1916901515178255516001820155905160029091015562000bbc565b3360405163411789a760e11b815260040162000a669190620021f9565b62001dd762000fdc565b62001df65760405162461bcd60e51b815260040162000a66906200279e565b6001600160a01b0381165f9081526073602052604081205461ffff16900362001e325760405163adf2276360e01b815260040160405180910390fd5b6001600160a01b0381165f8181526073602052604090819020546075805461ffff191661ffff909216919091179055606b80546001600160a01b031916909217909155517f4fa58418e580e78539e8d3d8d17d94dbaca0927533953c8248f313e6f8927c219062001ea5908390620021f9565b60405180910390a150565b62001eba62000fdc565b62001ed95760405162461bcd60e51b815260040162000a66906200279e565b6001600160a01b03811662001f215760405162461bcd60e51b815260206004820152600d60248201526c24a72b20a624a22fa7aba722a960991b604482015260640162000a66565b620017d58162001fe3565b6001600160a01b0383161562001faf5760405163a9059cbb60e01b81526001600160a01b0383811660048301526024820183905284169063a9059cbb906044016020604051808303815f875af115801562001f89573d5f803e3d5ffd5b505050506040513d601f19601f8201168201806040525081019062000bbc919062002a0a565b6040516001600160a01b0383169082156108fc029083905f818181858888f1935050505015801562000bbc573d5f803e3d5ffd5b603380546001600160a01b038381166001600160a01b0319831681179093556040519116919082907f8be0079c531659141344cd1fd0a4f28419497f9722a3daafe3b4186f6b6457e0905f90a35050565b8360665462002044919062002987565b606681905560408051918252602082018690526001600160a01b03858116838301526060830185905283166080830152517f3b50eb9d9b4a8db204f2928c9e572c2865b0d02803493ccb6aa256848323ebb79181900360a00190a150505050565b5f604051620020b4906200218b565b604051809103905ff080158015620020ce573d5f803e3d5ffd5b50607280546001600160a01b03929092166001600160a01b03199283168117909155607180549092168117909155919050565b60405163aae4b8f760e01b81525f9083906001600160a01b0382169063aae4b8f79062002133908690600401620021f9565b602060405180830381865afa1580156200214f573d5f803e3d5ffd5b505050506040513d601f19601f8201168201806040525081019062002175919062002a0a565b949350505050565b610df48062002aae83390190565b6106da80620038a283390190565b6001600160a01b0381168114620017d5575f80fd5b5f8060408385031215620021c0575f80fd5b8235620021cd8162002199565b946020939093013593505050565b5f60208284031215620021ec575f80fd5b813562000af08162002199565b6001600160a01b0391909116815260200190565b5f81518084525f5b81811015620022335760208185018101518683018201520162002215565b505f602082860101526020601f19601f83011685010191505092915050565b602081525f62000af060208301846200220d565b5f806040838503121562002278575f80fd5b50508035926020909101359150565b5f8083601f84011262002298575f80fd5b5081356001600160401b03811115620022af575f80fd5b60208301915083602082850101111562000996575f80fd5b5f805f805f805f60c0888a031215620022de575f80fd5b873596506020880135620022f28162002199565b9550604088013594506060880135935060808801356001600160401b038111156200231b575f80fd5b620023298a828b0162002287565b90945092505060a08801356001600160a01b0319811681146200234a575f80fd5b8091505092959891949750929550565b634e487b7160e01b5f52604160045260245ffd5b5f82601f8301126200237e575f80fd5b81356001600160401b03808211156200239b576200239b6200235a565b604051601f8301601f19908116603f01168101908282118183101715620023c657620023c66200235a565b81604052838152866020858801011115620023df575f80fd5b836020870160208301375f602085830101528094505050505092915050565b5f602082840312156200240f575f80fd5b81356001600160401b0381111562002425575f80fd5b62002175848285016200236e565b5f805f6060848603121562002446575f80fd5b8335620024538162002199565b925060208401359150604084013562ffffff8116811462002472575f80fd5b809150509250925092565b61ffff81168114620017d5575f80fd5b5f80604083850312156200249f575f80fd5b82356001600160401b03811115620024b5575f80fd5b620024c3858286016200236e565b9250506020830135620024d6816200247d565b809150509250929050565b5f8060408385031215620024f3575f80fd5b8235620025008162002199565b91506020830135620024d68162002199565b5f6020828403121562002523575f80fd5b813562000af0816200247d565b5f6020828403121562002541575f80fd5b5035919050565b5f805f805f805f8060c0898b03121562002560575f80fd5b88356200256d8162002199565b975060208901356200257f8162002199565b96506040890135955060608901356001600160401b0380821115620025a2575f80fd5b620025b08c838d0162002287565b909750955060808b0135915080821115620025c9575f80fd5b50620025d88b828c0162002287565b999c989b50969995989497949560a00135949350505050565b5f806040838503121562002603575f80fd5b823591506020830135620024d68162002199565b5f805f606084860312156200262a575f80fd5b8335620026378162002199565b92506020840135620026498162002199565b929592945050506040919091013590565b5f80604083850312156200266c575f80fd5b8235620026798162002199565b91506020830135620024d6816200247d565b600181811c90821680620026a057607f821691505b602082108103620026bf57634e487b7160e01b5f52602260045260245ffd5b50919050565b6020808252600a90820152694f4e4c595f4c4f434b5360b01b604082015260600190565b81835281816020850137505f828201602090810191909152601f909101601f19169091010190565b5f60018060a01b03808a16835288602084015280881660408401525085606083015284608083015260c060a083015262000acb60c083018486620026e9565b5f6020828403121562002761575f80fd5b5051919050565b6001600160a01b038481168252831660208201526060604082018190525f9062002795908301846200220d565b95945050505050565b6020808252600a908201526927a7262cafa7aba722a960b11b604082015260600190565b601f82111562001598575f81815260208120601f850160051c81016020861015620027ea5750805b601f850160051c820191505b8181101562000e1057828155600101620027f6565b6001600160401b038311156200282557620028256200235a565b6200283d836200283683546200268b565b83620027c2565b5f601f84116001811462002871575f8515620028595750838201355b5f19600387901b1c1916600186901b178355620014eb565b5f83815260209020601f19861690835b82811015620028a3578685013582556020948501946001909201910162002881565b5086821015620028c0575f1960f88860031b161c19848701351681555b505060018560011b0183555050505050565b6001600160a01b038981168252881660208201526040810187905260c0606082018190525f90620029079083018789620026e9565b82810360808401526200291c818688620026e9565b9150508260a08301529998505050505050505050565b5f6020828403121562002943575f80fd5b815162000af08162002199565b6001600160a01b0393841681526020810192909252909116604082015260600190565b634e487b7160e01b5f52601160045260245ffd5b8082018082111562000cfb5762000cfb62002973565b5f60208284031215620029ae575f80fd5b815162000af0816200247d565b808202811582820484141762000cfb5762000cfb62002973565b5f82620029f057634e487b7160e01b5f52601260045260245ffd5b500490565b8051801515811462002a05575f80fd5b919050565b5f6020828403121562002a1b575f80fd5b62000af082620029f5565b6020808252601390820152721053149150511657d253925512505312569151606a1b604082015260600190565b61ffff81811683821601908082111562002a715762002a7162002973565b5092915050565b5f805f6060848603121562002a8b575f80fd5b62002a9684620029f5565b92506020840151915060408401519050925092509256fe608060405260405162000df438038062000df4833981016040819052620000269162000415565b82816200003582825f6200004c565b50620000439050826200007d565b50505062000540565b6200005783620000ee565b5f82511180620000645750805b1562000078576200007683836200012f565b505b505050565b7f7e644d79422f17c01e4894b5f4f588d331ebfa28653d42ae832dc59e38c9798f620000be5f8051602062000dad833981519152546001600160a01b031690565b604080516001600160a01b03928316815291841660208301520160405180910390a1620000eb816200015e565b50565b620000f981620001fb565b6040516001600160a01b038216907fbc7cd75a20ee27fd9adebab32041f755214dbc6bffa90cc0225b39da2e5c2d3b905f90a250565b606062000157838360405180606001604052806027815260200162000dcd6027913962000292565b9392505050565b6001600160a01b038116620001c95760405162461bcd60e51b815260206004820152602660248201527f455243313936373a206e65772061646d696e20697320746865207a65726f206160448201526564647265737360d01b60648201526084015b60405180910390fd5b805f8051602062000dad8339815191525b80546001600160a01b0319166001600160a01b039290921691909117905550565b6001600160a01b0381163b6200026a5760405162461bcd60e51b815260206004820152602d60248201527f455243313936373a206e657720696d706c656d656e746174696f6e206973206e60448201526c1bdd08184818dbdb9d1c9858dd609a1b6064820152608401620001c0565b807f360894a13ba1a3210667c828492db98dca3e2076cc3735a920a3ca505d382bbc620001da565b60605f80856001600160a01b031685604051620002b09190620004ef565b5f60405180830381855af49150503d805f8114620002ea576040519150601f19603f3d011682016040523d82523d5f602084013e620002ef565b606091505b50909250905062000303868383876200030d565b9695505050505050565b60608315620003805782515f0362000378576001600160a01b0385163b620003785760405162461bcd60e51b815260206004820152601d60248201527f416464726573733a2063616c6c20746f206e6f6e2d636f6e74726163740000006044820152606401620001c0565b50816200038c565b6200038c838362000394565b949350505050565b815115620003a55781518083602001fd5b8060405162461bcd60e51b8152600401620001c091906200050c565b80516001600160a01b0381168114620003d8575f80fd5b919050565b634e487b7160e01b5f52604160045260245ffd5b5f5b838110156200040d578181015183820152602001620003f3565b50505f910152565b5f805f6060848603121562000428575f80fd5b6200043384620003c1565b92506200044360208501620003c1565b60408501519092506001600160401b038082111562000460575f80fd5b818601915086601f83011262000474575f80fd5b815181811115620004895762000489620003dd565b604051601f8201601f19908116603f01168101908382118183101715620004b457620004b4620003dd565b81604052828152896020848701011115620004cd575f80fd5b620004e0836020830160208801620003f1565b80955050505050509250925092565b5f825162000502818460208701620003f1565b9190910192915050565b602081525f82518060208401526200052c816040850160208701620003f1565b601f01601f19169190910160400192915050565b61085f806200054e5f395ff3fe60806040523661001357610011610017565b005b6100115b61001f610168565b6001600160a01b0316330361015e5760606001600160e01b03195f35166364d3180d60e11b81016100595761005261019a565b9150610156565b63587086bd60e11b6001600160e01b0319821601610079576100526101ed565b63070d7c6960e41b6001600160e01b031982160161009957610052610231565b621eb96f60e61b6001600160e01b03198216016100b857610052610261565b63a39f25e560e01b6001600160e01b03198216016100d8576100526102a0565b60405162461bcd60e51b815260206004820152604260248201527f5472616e73706172656e745570677261646561626c6550726f78793a2061646d60448201527f696e2063616e6e6f742066616c6c6261636b20746f2070726f78792074617267606482015261195d60f21b608482015260a4015b60405180910390fd5b815160208301f35b6101666102b3565b565b5f7fb53127684a568b3173ae13b9f8a6016e243e63b6e8ee1178d6a717850b5d61035b546001600160a01b0316919050565b60606101a46102c3565b5f6101b23660048184610668565b8101906101bf91906106aa565b90506101da8160405180602001604052805f8152505f6102cd565b505060408051602081019091525f815290565b60605f806101fe3660048184610668565b81019061020b91906106d7565b9150915061021b828260016102cd565b60405180602001604052805f8152509250505090565b606061023b6102c3565b5f6102493660048184610668565b81019061025691906106aa565b90506101da816102f8565b606061026b6102c3565b5f610274610168565b604080516001600160a01b03831660208201529192500160405160208183030381529060405291505090565b60606102aa6102c3565b5f61027461034f565b6101666102be61034f565b61035d565b3415610166575f80fd5b6102d68361037b565b5f825111806102e25750805b156102f3576102f183836103ba565b505b505050565b7f7e644d79422f17c01e4894b5f4f588d331ebfa28653d42ae832dc59e38c9798f610321610168565b604080516001600160a01b03928316815291841660208301520160405180910390a161034c816103e6565b50565b5f61035861048f565b905090565b365f80375f80365f845af43d5f803e808015610377573d5ff35b3d5ffd5b610384816104b6565b6040516001600160a01b038216907fbc7cd75a20ee27fd9adebab32041f755214dbc6bffa90cc0225b39da2e5c2d3b905f90a250565b60606103df83836040518060600160405280602781526020016108036027913961054a565b9392505050565b6001600160a01b03811661044b5760405162461bcd60e51b815260206004820152602660248201527f455243313936373a206e65772061646d696e20697320746865207a65726f206160448201526564647265737360d01b606482015260840161014d565b807fb53127684a568b3173ae13b9f8a6016e243e63b6e8ee1178d6a717850b5d61035b80546001600160a01b0319166001600160a01b039290921691909117905550565b5f7f360894a13ba1a3210667c828492db98dca3e2076cc3735a920a3ca505d382bbc61018b565b6001600160a01b0381163b6105235760405162461bcd60e51b815260206004820152602d60248201527f455243313936373a206e657720696d706c656d656e746174696f6e206973206e60448201526c1bdd08184818dbdb9d1c9858dd609a1b606482015260840161014d565b807f360894a13ba1a3210667c828492db98dca3e2076cc3735a920a3ca505d382bbc61046e565b60605f80856001600160a01b03168560405161056691906107b5565b5f60405180830381855af49150503d805f811461059e576040519150601f19603f3d011682016040523d82523d5f602084013e6105a3565b606091505b50915091506105b4868383876105be565b9695505050505050565b6060831561062c5782515f03610625576001600160a01b0385163b6106255760405162461bcd60e51b815260206004820152601d60248201527f416464726573733a2063616c6c20746f206e6f6e2d636f6e7472616374000000604482015260640161014d565b5081610636565b610636838361063e565b949350505050565b81511561064e5781518083602001fd5b8060405162461bcd60e51b815260040161014d91906107d0565b5f8085851115610676575f80fd5b83861115610682575f80fd5b5050820193919092039150565b80356001600160a01b03811681146106a5575f80fd5b919050565b5f602082840312156106ba575f80fd5b6103df8261068f565b634e487b7160e01b5f52604160045260245ffd5b5f80604083850312156106e8575f80fd5b6106f18361068f565b9150602083013567ffffffffffffffff8082111561070d575f80fd5b818501915085601f830112610720575f80fd5b813581811115610732576107326106c3565b604051601f8201601f19908116603f0116810190838211818310171561075a5761075a6106c3565b81604052828152886020848701011115610772575f80fd5b826020860160208301375f6020848301015280955050505050509250929050565b5f5b838110156107ad578181015183820152602001610795565b50505f910152565b5f82516107c6818460208701610793565b9190910192915050565b602081525f82518060208401526107ee816040850160208701610793565b601f01601f1916919091016040019291505056fe416464726573733a206c6f772d6c6576656c2064656c65676174652063616c6c206661696c6564a2646970667358221220f16b8581e6f101d21304fcac66ad9b78ec02c3958ff0468de88f168a48cd9e1864736f6c63430008150033b53127684a568b3173ae13b9f8a6016e243e63b6e8ee1178d6a717850b5d6103416464726573733a206c6f772d6c6576656c2064656c65676174652063616c6c206661696c6564608060405234801561000f575f80fd5b506100193361001e565b61006d565b5f80546001600160a01b038381166001600160a01b0319831681178455604051919092169283917f8be0079c531659141344cd1fd0a4f28419497f9722a3daafe3b4186f6b6457e09190a35050565b6106608061007a5f395ff3fe60806040526004361061006a575f3560e01c8063204e1c7a1461006e578063715018a6146100a35780637eff275e146100b95780638da5cb5b146100d85780639623609d146100f457806399a88ec414610107578063f2fde38b14610126578063f3b7dead14610145575b5f80fd5b348015610079575f80fd5b5061008d610088366004610464565b610164565b60405161009a9190610486565b60405180910390f35b3480156100ae575f80fd5b506100b76101ef565b005b3480156100c4575f80fd5b506100b76100d336600461049a565b610202565b3480156100e3575f80fd5b505f546001600160a01b031661008d565b6100b76101023660046104e5565b610267565b348015610112575f80fd5b506100b761012136600461049a565b6102d2565b348015610131575f80fd5b506100b7610140366004610464565b610306565b348015610150575f80fd5b5061008d61015f366004610464565b610384565b5f805f836001600160a01b031660405161018890635c60da1b60e01b815260040190565b5f60405180830381855afa9150503d805f81146101c0576040519150601f19603f3d011682016040523d82523d5f602084013e6101c5565b606091505b5091509150816101d3575f80fd5b808060200190518101906101e791906105b4565b949350505050565b6101f76103a8565b6102005f610401565b565b61020a6103a8565b6040516308f2839760e41b81526001600160a01b03831690638f28397090610236908490600401610486565b5f604051808303815f87803b15801561024d575f80fd5b505af115801561025f573d5f803e3d5ffd5b505050505050565b61026f6103a8565b60405163278f794360e11b81526001600160a01b03841690634f1ef28690349061029f90869086906004016105cf565b5f604051808303818588803b1580156102b6575f80fd5b505af11580156102c8573d5f803e3d5ffd5b5050505050505050565b6102da6103a8565b604051631b2ce7f360e11b81526001600160a01b03831690633659cfe690610236908490600401610486565b61030e6103a8565b6001600160a01b0381166103785760405162461bcd60e51b815260206004820152602660248201527f4f776e61626c653a206e6577206f776e657220697320746865207a65726f206160448201526564647265737360d01b60648201526084015b60405180910390fd5b61038181610401565b50565b5f805f836001600160a01b0316604051610188906303e1469160e61b815260040190565b5f546001600160a01b031633146102005760405162461bcd60e51b815260206004820181905260248201527f4f776e61626c653a2063616c6c6572206973206e6f7420746865206f776e6572604482015260640161036f565b5f80546001600160a01b038381166001600160a01b0319831681178455604051919092169283917f8be0079c531659141344cd1fd0a4f28419497f9722a3daafe3b4186f6b6457e09190a35050565b6001600160a01b0381168114610381575f80fd5b5f60208284031215610474575f80fd5b813561047f81610450565b9392505050565b6001600160a01b0391909116815260200190565b5f80604083850312156104ab575f80fd5b82356104b681610450565b915060208301356104c681610450565b809150509250929050565b634e487b7160e01b5f52604160045260245ffd5b5f805f606084860312156104f7575f80fd5b833561050281610450565b9250602084013561051281610450565b9150604084013567ffffffffffffffff8082111561052e575f80fd5b818601915086601f830112610541575f80fd5b813581811115610553576105536104d1565b604051601f8201601f19908116603f0116810190838211818310171561057b5761057b6104d1565b81604052828152896020848701011115610593575f80fd5b826020860160208301375f6020848301015280955050505050509250925092565b5f602082840312156105c4575f80fd5b815161047f81610450565b60018060a01b03831681525f602060408184015283518060408501525f5b81811015610609578581018301518582016060015282016105ed565b505f606082860101526060601f19601f83011685010192505050939250505056fea264697066735822122055cbef92a77d3dcd69c0c5bdfaec0833dbd642c476ca3dcbc2366330534fae6164736f6c63430008150033a2646970667358221220fe5e654cd95c5a26abe927d8c087380014f66d2b2b54500d8d8d0c687942a49564736f6c63430008150033",
  "linkReferences": {},
  "deployedLinkReferences": {}
}