{
  "_format": "hh-sol-artifact-1",
  "contractName": "Unlock",
  "sourceName": "contracts/Unlock.sol",
  "abi": [
    {
      "inputs": [],
      "name": "Unlock__ALREADY_DEPLOYED",
      "type": "error"
    },
    {
      "inputs": [],
      "name": "Unlock__INVALID_AMOUNT",
      "type": "error"
    },
    {
      "inputs": [],
      "name": "Unlock__MANAGER_ONLY",
      "type": "error"
    },
    {
      "inputs": [
        {
          "internalType": "address",
          "name": "lockAddress",
          "type": "address"
        }
      ],
      "name": "Unlock__MISSING_LOCK",
      "type": "error"
    },
    {
      "inputs": [],
      "name": "Unlock__MISSING_LOCK_TEMPLATE",
      "type": "error"
    },
    {
      "inputs": [],
      "name": "Unlock__MISSING_PROXY_ADMIN",
      "type": "error"
    },
    {
      "inputs": [],
      "name": "Unlock__MISSING_TEMPLATE",
      "type": "error"
    },
    {
      "inputs": [],
      "name": "Unlock__VERSION_TOO_HIGH",
      "type": "error"
    },
    {
      "anonymous": false,
      "inputs": [
        {
          "indexed": false,
          "internalType": "address",
          "name": "udt",
          "type": "address"
        },
        {
          "indexed": false,
          "internalType": "address",
          "name": "weth",
          "type": "address"
        },
        {
          "indexed": false,
          "internalType": "uint256",
          "name": "estimatedGasForPurchase",
          "type": "uint256"
        },
        {
          "indexed": false,
          "internalType": "string",
          "name": "globalTokenSymbol",
          "type": "string"
        },
        {
          "indexed": false,
          "internalType": "string",
          "name": "globalTokenURI",
          "type": "string"
        },
        {
          "indexed": false,
          "internalType": "uint256",
          "name": "chainId",
          "type": "uint256"
        }
      ],
      "name": "ConfigUnlock",
      "type": "event"
    },
    {
      "anonymous": false,
      "inputs": [
        {
          "indexed": false,
          "internalType": "uint256",
          "name": "grossNetworkProduct",
          "type": "uint256"
        },
        {
          "indexed": false,
          "internalType": "uint256",
          "name": "_valueInETH",
          "type": "uint256"
        },
        {
          "indexed": false,
          "internalType": "address",
          "name": "tokenAddress",
          "type": "address"
        },
        {
          "indexed": false,
          "internalType": "uint256",
          "name": "value",
          "type": "uint256"
        },
        {
          "indexed": false,
          "internalType": "address",
          "name": "lockAddress",
          "type": "address"
        }
      ],
      "name": "GNPChanged",
      "type": "event"
    },
    {
      "anonymous": false,
      "inputs": [
        {
          "indexed": false,
          "internalType": "address",
          "name": "lockAddress",
          "type": "address"
        },
        {
          "indexed": false,
          "internalType": "uint16",
          "name": "version",
          "type": "uint16"
        }
      ],
      "name": "LockUpgraded",
      "type": "event"
    },
    {
      "anonymous": false,
      "inputs": [
        {
          "indexed": true,
          "internalType": "address",
          "name": "lockOwner",
          "type": "address"
        },
        {
          "indexed": true,
          "internalType": "address",
          "name": "newLockAddress",
          "type": "address"
        }
      ],
      "name": "NewLock",
      "type": "event"
    },
    {
      "anonymous": false,
      "inputs": [
        {
          "indexed": true,
          "internalType": "address",
          "name": "previousOwner",
          "type": "address"
        },
        {
          "indexed": true,
          "internalType": "address",
          "name": "newOwner",
          "type": "address"
        }
      ],
      "name": "OwnershipTransferred",
      "type": "event"
    },
    {
      "anonymous": false,
      "inputs": [
        {
          "indexed": false,
          "internalType": "uint256",
          "name": "grossNetworkProduct",
          "type": "uint256"
        },
        {
          "indexed": false,
          "internalType": "uint256",
          "name": "totalDiscountGranted",
          "type": "uint256"
        }
      ],
      "name": "ResetTrackedValue",
      "type": "event"
    },
    {
      "anonymous": false,
      "inputs": [
        {
          "indexed": false,
          "internalType": "address",
          "name": "publicLockAddress",
          "type": "address"
        }
      ],
      "name": "SetLockTemplate",
      "type": "event"
    },
    {
      "anonymous": false,
      "inputs": [
        {
          "indexed": true,
          "internalType": "address",
          "name": "impl",
          "type": "address"
        },
        {
          "indexed": true,
          "internalType": "uint16",
          "name": "version",
          "type": "uint16"
        }
      ],
      "name": "UnlockTemplateAdded",
      "type": "event"
    },
    {
      "inputs": [
        {
          "internalType": "address",
          "name": "sender",
          "type": "address"
        }
      ],
      "name": "__initializeOwnable",
      "outputs": [],
      "stateMutability": "nonpayable",
      "type": "function"
    },
    {
      "inputs": [
        {
          "internalType": "address",
          "name": "impl",
          "type": "address"
        },
        {
          "internalType": "uint16",
          "name": "version",
          "type": "uint16"
        }
      ],
      "name": "addLockTemplate",
      "outputs": [],
      "stateMutability": "nonpayable",
      "type": "function"
    },
    {
      "inputs": [],
      "name": "chainId",
      "outputs": [
        {
          "internalType": "uint256",
          "name": "",
          "type": "uint256"
        }
      ],
      "stateMutability": "view",
      "type": "function"
    },
    {
      "inputs": [
        {
          "internalType": "address",
          "name": "",
          "type": "address"
        },
        {
          "internalType": "uint256",
          "name": "",
          "type": "uint256"
        }
      ],
      "name": "computeAvailableDiscountFor",
      "outputs": [
        {
          "internalType": "uint256",
          "name": "discount",
          "type": "uint256"
        },
        {
          "internalType": "uint256",
          "name": "tokens",
          "type": "uint256"
        }
      ],
      "stateMutability": "pure",
      "type": "function"
    },
    {
      "inputs": [
        {
          "internalType": "address",
          "name": "_udt",
          "type": "address"
        },
        {
          "internalType": "address",
          "name": "_weth",
          "type": "address"
        },
        {
          "internalType": "uint256",
          "name": "_estimatedGasForPurchase",
          "type": "uint256"
        },
        {
          "internalType": "string",
          "name": "_symbol",
          "type": "string"
        },
        {
          "internalType": "string",
          "name": "_URI",
          "type": "string"
        },
        {
          "internalType": "uint256",
          "name": "_chainId",
          "type": "uint256"
        }
      ],
      "name": "configUnlock",
      "outputs": [],
      "stateMutability": "nonpayable",
      "type": "function"
    },
    {
      "inputs": [
        {
          "internalType": "uint256",
          "name": "_expirationDuration",
          "type": "uint256"
        },
        {
          "internalType": "address",
          "name": "_tokenAddress",
          "type": "address"
        },
        {
          "internalType": "uint256",
          "name": "_keyPrice",
          "type": "uint256"
        },
        {
          "internalType": "uint256",
          "name": "_maxNumberOfKeys",
          "type": "uint256"
        },
        {
          "internalType": "string",
          "name": "_lockName",
          "type": "string"
        },
        {
          "internalType": "bytes12",
          "name": "",
          "type": "bytes12"
        }
      ],
      "name": "createLock",
      "outputs": [
        {
          "internalType": "address",
          "name": "",
          "type": "address"
        }
      ],
      "stateMutability": "nonpayable",
      "type": "function"
    },
    {
      "inputs": [
        {
          "internalType": "bytes",
          "name": "data",
          "type": "bytes"
        }
      ],
      "name": "createUpgradeableLock",
      "outputs": [
        {
          "internalType": "address",
          "name": "",
          "type": "address"
        }
      ],
      "stateMutability": "nonpayable",
      "type": "function"
    },
    {
      "inputs": [
        {
          "internalType": "bytes",
          "name": "data",
          "type": "bytes"
        },
        {
          "internalType": "uint16",
          "name": "_lockVersion",
          "type": "uint16"
        }
      ],
      "name": "createUpgradeableLockAtVersion",
      "outputs": [
        {
          "internalType": "address",
          "name": "",
          "type": "address"
        }
      ],
      "stateMutability": "nonpayable",
      "type": "function"
    },
    {
      "inputs": [],
      "name": "estimatedGasForPurchase",
      "outputs": [
        {
          "internalType": "uint256",
          "name": "",
          "type": "uint256"
        }
      ],
      "stateMutability": "view",
      "type": "function"
    },
    {
      "inputs": [],
      "name": "getAdmin",
      "outputs": [
        {
          "internalType": "address",
          "name": "",
          "type": "address"
        }
      ],
      "stateMutability": "view",
      "type": "function"
    },
    {
      "inputs": [],
      "name": "getGlobalBaseTokenURI",
      "outputs": [
        {
          "internalType": "string",
          "name": "",
          "type": "string"
        }
      ],
      "stateMutability": "view",
      "type": "function"
    },
    {
      "inputs": [],
      "name": "getGlobalTokenSymbol",
      "outputs": [
        {
          "internalType": "string",
          "name": "",
          "type": "string"
        }
      ],
      "stateMutability": "view",
      "type": "function"
    },
    {
      "inputs": [],
      "name": "globalBaseTokenURI",
      "outputs": [
        {
          "internalType": "string",
          "name": "",
          "type": "string"
        }
      ],
      "stateMutability": "view",
      "type": "function"
    },
    {
      "inputs": [],
      "name": "globalTokenSymbol",
      "outputs": [
        {
          "internalType": "string",
          "name": "",
          "type": "string"
        }
      ],
      "stateMutability": "view",
      "type": "function"
    },
    {
      "inputs": [],
      "name": "grossNetworkProduct",
      "outputs": [
        {
          "internalType": "uint256",
          "name": "",
          "type": "uint256"
        }
      ],
      "stateMutability": "view",
      "type": "function"
    },
    {
      "inputs": [
        {
          "internalType": "address",
          "name": "_unlockOwner",
          "type": "address"
        }
      ],
      "name": "initialize",
      "outputs": [],
      "stateMutability": "nonpayable",
      "type": "function"
    },
    {
      "inputs": [],
      "name": "initializeProxyAdmin",
      "outputs": [],
      "stateMutability": "nonpayable",
      "type": "function"
    },
    {
      "inputs": [],
      "name": "isOwner",
      "outputs": [
        {
          "internalType": "bool",
          "name": "",
          "type": "bool"
        }
      ],
      "stateMutability": "view",
      "type": "function"
    },
    {
      "inputs": [
        {
          "internalType": "address",
          "name": "",
          "type": "address"
        }
      ],
      "name": "locks",
      "outputs": [
        {
          "internalType": "bool",
          "name": "deployed",
          "type": "bool"
        },
        {
          "internalType": "uint256",
          "name": "totalSales",
          "type": "uint256"
        },
        {
          "internalType": "uint256",
          "name": "yieldedDiscountTokens",
          "type": "uint256"
        }
      ],
      "stateMutability": "view",
      "type": "function"
    },
    {
      "inputs": [],
      "name": "networkBaseFee",
      "outputs": [
        {
          "internalType": "uint256",
          "name": "",
          "type": "uint256"
        }
      ],
      "stateMutability": "view",
      "type": "function"
    },
    {
      "inputs": [],
      "name": "owner",
      "outputs": [
        {
          "internalType": "address",
          "name": "",
          "type": "address"
        }
      ],
      "stateMutability": "view",
      "type": "function"
    },
    {
      "inputs": [],
      "name": "postLockUpgrade",
      "outputs": [],
      "stateMutability": "nonpayable",
      "type": "function"
    },
    {
      "inputs": [],
      "name": "protocolFee",
      "outputs": [
        {
          "internalType": "uint256",
          "name": "",
          "type": "uint256"
        }
      ],
      "stateMutability": "view",
      "type": "function"
    },
    {
      "inputs": [],
      "name": "proxyAdminAddress",
      "outputs": [
        {
          "internalType": "address",
          "name": "",
          "type": "address"
        }
      ],
      "stateMutability": "view",
      "type": "function"
    },
    {
      "inputs": [],
      "name": "publicLockAddress",
      "outputs": [
        {
          "internalType": "address",
          "name": "",
          "type": "address"
        }
      ],
      "stateMutability": "view",
      "type": "function"
    },
    {
      "inputs": [
        {
          "internalType": "uint16",
          "name": "_version",
          "type": "uint16"
        }
      ],
      "name": "publicLockImpls",
      "outputs": [
        {
          "internalType": "address",
          "name": "",
          "type": "address"
        }
      ],
      "stateMutability": "view",
      "type": "function"
    },
    {
      "inputs": [],
      "name": "publicLockLatestVersion",
      "outputs": [
        {
          "internalType": "uint16",
          "name": "",
          "type": "uint16"
        }
      ],
      "stateMutability": "view",
      "type": "function"
    },
    {
      "inputs": [
        {
          "internalType": "address",
          "name": "_impl",
          "type": "address"
        }
      ],
      "name": "publicLockVersions",
      "outputs": [
        {
          "internalType": "uint16",
          "name": "",
          "type": "uint16"
        }
      ],
      "stateMutability": "view",
      "type": "function"
    },
    {
      "inputs": [
        {
          "internalType": "uint256",
          "name": "",
          "type": "uint256"
        },
        {
          "internalType": "uint256",
          "name": "",
          "type": "uint256"
        }
      ],
      "name": "recordConsumedDiscount",
      "outputs": [],
      "stateMutability": "view",
      "type": "function"
    },
    {
      "inputs": [
        {
          "internalType": "uint256",
          "name": "_value",
          "type": "uint256"
        },
        {
          "internalType": "address",
          "name": "_referrer",
          "type": "address"
        }
      ],
      "name": "recordKeyPurchase",
      "outputs": [],
      "stateMutability": "nonpayable",
      "type": "function"
    },
    {
      "inputs": [],
      "name": "renounceOwnership",
      "outputs": [],
      "stateMutability": "nonpayable",
      "type": "function"
    },
    {
      "inputs": [
        {
          "internalType": "uint256",
          "name": "_grossNetworkProduct",
          "type": "uint256"
        },
        {
          "internalType": "uint256",
          "name": "_totalDiscountGranted",
          "type": "uint256"
        }
      ],
      "name": "resetTrackedValue",
      "outputs": [],
      "stateMutability": "nonpayable",
      "type": "function"
    },
    {
      "inputs": [
        {
          "internalType": "address",
          "name": "_publicLockAddress",
          "type": "address"
        }
      ],
      "name": "setLockTemplate",
      "outputs": [],
      "stateMutability": "nonpayable",
      "type": "function"
    },
    {
      "inputs": [
        {
          "internalType": "address",
          "name": "_tokenAddress",
          "type": "address"
        },
        {
          "internalType": "address",
          "name": "_oracleAddress",
          "type": "address"
        }
      ],
      "name": "setOracle",
      "outputs": [],
      "stateMutability": "nonpayable",
      "type": "function"
    },
    {
      "inputs": [
        {
          "internalType": "uint256",
          "name": "_protocolFee",
          "type": "uint256"
        }
      ],
      "name": "setProtocolFee",
      "outputs": [],
      "stateMutability": "nonpayable",
      "type": "function"
    },
    {
      "inputs": [],
      "name": "totalDiscountGranted",
      "outputs": [
        {
          "internalType": "uint256",
          "name": "",
          "type": "uint256"
        }
      ],
      "stateMutability": "view",
      "type": "function"
    },
    {
      "inputs": [
        {
          "internalType": "address",
          "name": "newOwner",
          "type": "address"
        }
      ],
      "name": "transferOwnership",
      "outputs": [],
      "stateMutability": "nonpayable",
      "type": "function"
    },
    {
      "inputs": [],
      "name": "udt",
      "outputs": [
        {
          "internalType": "address",
          "name": "",
          "type": "address"
        }
      ],
      "stateMutability": "view",
      "type": "function"
    },
    {
      "inputs": [
        {
          "internalType": "address",
          "name": "",
          "type": "address"
        }
      ],
      "name": "uniswapOracles",
      "outputs": [
        {
          "internalType": "contract IUniswapOracleV3",
          "name": "",
          "type": "address"
        }
      ],
      "stateMutability": "view",
      "type": "function"
    },
    {
      "inputs": [],
      "name": "unlockVersion",
      "outputs": [
        {
          "internalType": "uint16",
          "name": "",
          "type": "uint16"
        }
      ],
      "stateMutability": "pure",
      "type": "function"
    },
    {
      "inputs": [
        {
          "internalType": "address payable",
          "name": "lockAddress",
          "type": "address"
        },
        {
          "internalType": "uint16",
          "name": "version",
          "type": "uint16"
        }
      ],
      "name": "upgradeLock",
      "outputs": [
        {
          "internalType": "address",
          "name": "",
          "type": "address"
        }
      ],
      "stateMutability": "nonpayable",
      "type": "function"
    },
    {
      "inputs": [],
      "name": "weth",
      "outputs": [
        {
          "internalType": "address",
          "name": "",
          "type": "address"
        }
      ],
      "stateMutability": "view",
      "type": "function"
    },
    {
      "stateMutability": "payable",
      "type": "receive"
    }
  ],
  "bytecode": "0x608060405234801561001057600080fd5b50613de4806100206000396000f3fe608060405260043610620002435760003560e01c80638da5cb5b1162000131578063c4d66de811620000b4578063c4d66de81462000753578063c7d7d0c91462000778578063caeee3a31462000790578063ccf5464814620007b5578063cd93b53214620007da578063cec4105214620007f7578063d6e9e803146200080f578063ed9674bd1462000827578063ef67fde6146200083f578063f2fde38b1462000864578063f8328991146200088957600080fd5b80638da5cb5b14620006265780638f32d59b1462000646578063939d9f1f146200066f578063963a947814620006945780639a8a059214620006b9578063a082eb0e14620006d1578063a998e9fb14620006e9578063b0ca0c831462000701578063b0e21e8a1462000726578063ba5ea0d5146200073e57600080fd5b80635979e75511620001c65780635979e75514620004255780635c38eb3a14620004475780635de9a137146200046c578063666018a514620004ce5780636bced5a2146200050c5780636e9960c31462000546578063715018a61462000585578063743bbc2f146200059d578063787dce3d14620005c45780637d8fb64114620005e95780637ff94bb2146200060e57600080fd5b80630cb175e3146200027057806325772ad914620002af578063262d0a85146200030157806335a750de14620003325780633652466314620003595780633fc8cef3146200037e5780634220bd4614620003a057806342d9210614620003b65780634452c2b214620003db578063487a8a76146200040057600080fd5b366200026b576000341162000269576040516188f160e11b815260040160405180910390fd5b005b600080fd5b3480156200027d57600080fd5b50620002956200028f3660046200205b565b620008ab565b604080519283526020830191909152015b60405180910390f35b348015620002bc57600080fd5b50620002ed620002ce3660046200208a565b6001600160a01b031660009081526073602052604090205461ffff1690565b60405161ffff9091168152602001620002a6565b3480156200030e57600080fd5b50606e5462000323906001600160a01b031681565b604051620002a69190620020aa565b3480156200033f57600080fd5b506200034a620008b6565b604051620002a691906200210e565b3480156200036657600080fd5b50620002696200037836600462002123565b62000950565b3480156200038b57600080fd5b50606d5462000323906001600160a01b031681565b348015620003ad57600080fd5b50600c620002ed565b348015620003c357600080fd5b5062000323620003d53660046200218a565b6200098f565b348015620003e857600080fd5b5062000323620003fa366004620022ce565b620009f5565b3480156200040d57600080fd5b50620003236200041f36600462002317565b62000a15565b3480156200043257600080fd5b5060715462000323906001600160a01b031681565b3480156200045457600080fd5b5062000269620004663660046200236e565b62000b59565b3480156200047957600080fd5b50620004b06200048b3660046200208a565b60686020526000908152604090208054600182015460029092015460ff909116919083565b604080519315158452602084019290925290820152606001620002a6565b348015620004db57600080fd5b5062000323620004ed366004620023a1565b61ffff166000908152607460205260409020546001600160a01b031690565b3480156200051957600080fd5b50620003236200052b3660046200208a565b606c602052600090815260409020546001600160a01b031681565b3480156200055357600080fd5b507fb53127684a568b3173ae13b9f8a6016e243e63b6e8ee1178d6a717850b5d6103546001600160a01b031662000323565b3480156200059257600080fd5b506200026962000c22565b348015620005aa57600080fd5b50620005b5606f5481565b604051908152602001620002a6565b348015620005d157600080fd5b5062000269620005e3366004620023c1565b62000c59565b348015620005f657600080fd5b506200026962000608366004620023db565b62000c87565b3480156200061b57600080fd5b506200034a62000d5a565b3480156200063357600080fd5b506033546001600160a01b031662000323565b3480156200065357600080fd5b506200065e62000d6b565b6040519015158152602001620002a6565b3480156200067c57600080fd5b50620002696200068e3660046200248b565b62000d7c565b348015620006a157600080fd5b5062000269620006b336600462002123565b6200137b565b348015620006c657600080fd5b50620005b560705481565b348015620006de57600080fd5b50620005b560675481565b348015620006f657600080fd5b506200034a620013eb565b3480156200070e57600080fd5b5062000269620007203660046200208a565b62001481565b3480156200073357600080fd5b50620005b560765481565b3480156200074b57600080fd5b5048620005b5565b3480156200076057600080fd5b5062000269620007723660046200208a565b62001543565b3480156200078557600080fd5b5062000269620015d2565b3480156200079d57600080fd5b5062000269620007af366004620024b3565b62001633565b348015620007c257600080fd5b5062000323620007d4366004620024b3565b620017a9565b348015620007e757600080fd5b50607554620002ed9061ffff1681565b3480156200080457600080fd5b506200034a62001a0c565b3480156200081c57600080fd5b50620005b560665481565b3480156200083457600080fd5b506200026962001a1b565b3480156200084c57600080fd5b50620002696200085e3660046200208a565b62001c85565b3480156200087157600080fd5b5062000269620008833660046200208a565b62001d6a565b3480156200089657600080fd5b50606b5462000323906001600160a01b031681565b6000805b9250929050565b6060606a8054620008c790620024e6565b80601f0160208091040260200160405190810160405280929190818152602001828054620008f590620024e6565b8015620009465780601f106200091a5761010080835404028352916020019162000946565b820191906000526020600020905b8154815290600101906020018083116200092857829003601f168201915b5050505050905090565b3360009081526068602052604090205460ff166200098b5760405162461bcd60e51b8152600401620009829062002522565b60405180910390fd5b5050565b60008033898989898989604051602401620009b197969594939291906200256f565b60408051601f198184030181529190526020810180516001600160e01b0316636eadde4360e01b1790529050620009e881620009f5565b9998505050505050505050565b607554600090819062000a0e90849061ffff1662000a15565b9392505050565b6071546000906001600160a01b031662000a42576040516320ad73f360e21b815260040160405180910390fd5b61ffff82166000908152607460205260409020546001600160a01b03168062000a7e5760405163adf2276360e01b815260040160405180910390fd5b60715460405160009183916001600160a01b0390911690879062000aa29062001f83565b62000ab093929190620025af565b604051809103906000f08015801562000acd573d6000803e3d6000fd5b50604080516060810182526001808252600060208084018281528486018381526001600160a01b03881680855260689093528684209551865460ff191690151517865590519385019390935591516002909301929092559151929350839233917f01017ed19df0c7f8acc436147b234b09664a9fb4797b4fa3fb9e599c2eb67be791a395945050505050565b62000b6362000d6b565b62000b825760405162461bcd60e51b81526004016200098290620025e6565b6001600160a01b038281166000908152606c6020526040902080546001600160a01b0319169183169182179055156200098b57606d5460405163c640752d60e01b81526001600160a01b03848116600483015291821660248201529082169063c640752d90604401600060405180830381600087803b15801562000c0557600080fd5b505af115801562000c1a573d6000803e3d6000fd5b505050505050565b62000c2c62000d6b565b62000c4b5760405162461bcd60e51b81526004016200098290620025e6565b62000c57600062001de1565b565b62000c6362000d6b565b62000c825760405162461bcd60e51b81526004016200098290620025e6565b607655565b62000c9162000d6b565b62000cb05760405162461bcd60e51b81526004016200098290620025e6565b606e80546001600160a01b03808b166001600160a01b031992831617909255606d8054928a1692909116919091179055606f86905562000cf3606a868662001f91565b5062000d026069848462001f91565b5060708190556040517fa14230a1687e9bb8cdc0f3931d27c3a806e88c1c2235ba7756d6911feb35be679062000d48908a908a908a908a908a908a908a908a906200260a565b60405180910390a15050505050505050565b606060698054620008c790620024e6565b6033546001600160a01b0316331490565b3360009081526068602052604090205460ff1662000dae5760405162461bcd60e51b8152600401620009829062002522565b81156200098b57600080336001600160a01b0316639d76ea586040518163ffffffff1660e01b8152600401602060405180830381865afa15801562000df7573d6000803e3d6000fd5b505050506040513d601f19601f8201168201806040525081019062000e1d91906200266b565b90506001600160a01b0381161580159062000e465750606d546001600160a01b03828116911614155b1562000ef5576001600160a01b038082166000908152606c602052604090205416801562000eee57606d5460405163c1e553e760e01b81526001600160a01b038084169263c1e553e79262000ea59287928b929116906004016200268b565b6020604051808303816000875af115801562000ec5573d6000803e3d6000fd5b505050506040513d601f19601f8201168201806040525081019062000eeb9190620026ae565b92505b5062000ef9565b8391505b62000f078282863362001e33565b336000908152606860205260408120600101805484929062000f2b908490620026de565b90915550506001600160a01b0383161580159062000fb25750600d336001600160a01b031663d1bbd49c6040518163ffffffff1660e01b8152600401602060405180830381865afa15801562000f85573d6000803e3d6000fd5b505050506040513d601f19601f8201168201806040525081019062000fab9190620026f9565b61ffff1611155b156200137557606e546001600160a01b039081166000908152606c60205260409020541680156200137357606e54606d5460405163c1e553e760e01b81526000926001600160a01b038086169363c1e553e7936200102293831692670de0b6b3a76400009216906004016200268b565b6020604051808303816000875af115801562001042573d6000803e3d6000fd5b505050506040513d601f19601f82011682018060405250810190620010689190620026ae565b606e546040516370a0823160e01b81529192506000916001600160a01b03909116906370a0823190620010a0903090600401620020aa565b602060405180830381865afa158015620010be573d6000803e3d6000fd5b505050506040513d601f19601f82011682018060405250810190620010e49190620026ae565b90506000306001600160a01b031663ba5ea0d56040518163ffffffff1660e01b8152600401602060405180830381865afa92505050801562001145575060408051601f3d908101601f191682019092526200114291810190620026ae565b60015b62001153575060646200116c565b806000036200116657606491506200116a565b8091505b505b600083606483606f5462001181919062002719565b62001196906806c6b935b8bbd4000062002719565b620011a291906200273b565b620011ae91906200273b565b60665490915060009080620011c58a600262002719565b620011d191906200273b565b620011de906002620026de565b620011ea8a8762002719565b620011f691906200273b565b6200120291906200273b565b90508082111562001211578091505b81156200136d57600060646200122984601462002719565b6200123591906200273b565b9050828511156200136b57606e546001600160a01b031663a9059cbb8b6200125e84876200275e565b6040516001600160e01b031960e085901b1681526001600160a01b03909216600483015260248201526044016020604051808303816000875af1158015620012aa573d6000803e3d6000fd5b505050506040513d601f19601f82011682018060405250810190620012d091906200278e565b50606e546001600160a01b031663a9059cbb620012f56033546001600160a01b031690565b6040516001600160e01b031960e084901b1681526001600160a01b039091166004820152602481018490526044016020604051808303816000875af115801562001343573d6000803e3d6000fd5b505050506040513d601f19601f820116820180604052508101906200136991906200278e565b505b505b50505050505b505b50505050565b6200138562000d6b565b620013a45760405162461bcd60e51b81526004016200098290620025e6565b6066829055606781905560408051838152602081018390527f7b2ce3c83b45f79993ff2cbf5651caff2dfe04010b4846e03066b84e3e4059bb910160405180910390a15050565b60698054620013fa90620024e6565b80601f01602080910402602001604051908101604052809291908181526020018280546200142890620024e6565b8015620014795780601f106200144d5761010080835404028352916020019162001479565b820191906000526020600020905b8154815290600101906020018083116200145b57829003601f168201915b505050505081565b600054610100900460ff166200149e5760005460ff1615620014a2565b303b155b620014c15760405162461bcd60e51b81526004016200098290620027ac565b600054610100900460ff16158015620014e4576000805461ffff19166101011790555b603380546001600160a01b0319166001600160a01b0384169081179091556040516000907f8be0079c531659141344cd1fd0a4f28419497f9722a3daafe3b4186f6b6457e0908290a380156200098b576000805461ff00191690555050565b600054610100900460ff16620015605760005460ff161562001564565b303b155b620015835760405162461bcd60e51b81526004016200098290620027ac565b600054610100900460ff16158015620015a6576000805461ffff19166101011790555b620015b18262001481565b620015bb62001ea4565b5080156200098b576000805461ff00191690555050565b620015dc62000d6b565b620015fb5760405162461bcd60e51b81526004016200098290620025e6565b6071546001600160a01b031615620016265760405163feb51c9f60e01b815260040160405180910390fd5b6200163062001ea4565b50565b6200163d62000d6b565b6200165c5760405162461bcd60e51b81526004016200098290620025e6565b604051636eadde4360e01b815230600482015260006024820181905260448201819052606482018190526084820181905260c060a483015260c48201526001600160a01b03831690636eadde439060e401600060405180830381600087803b158015620016c857600080fd5b505af1158015620016dd573d6000803e3d6000fd5b50505050816001600160a01b031663f0ba60406040518163ffffffff1660e01b8152600401600060405180830381600087803b1580156200171d57600080fd5b505af115801562001732573d6000803e3d6000fd5b505050506001600160a01b0382166000818152607360209081526040808320805461ffff191661ffff8716908117909155808452607490925280832080546001600160a01b03191685179055519092917fd36d021c4aa145e30eadc73e34284101030d688b9eb9413a4dc3af40ab1d474891a35050565b6071546000906001600160a01b0316620017d6576040516320ad73f360e21b815260040160405180910390fd5b620017e2833362001f04565b151560011462001805576040516305167ffd60e51b815260040160405180910390fd5b60008390506000816001600160a01b031663d1bbd49c6040518163ffffffff1660e01b8152600401602060405180830381865afa1580156200184b573d6000803e3d6000fd5b505050506040513d601f19601f82011682018060405250810190620018719190620026f9565b905062001880816001620027d9565b61ffff168461ffff1614620018a8576040516337bb006160e01b815260040160405180910390fd5b61ffff84166000908152607460205260409020546001600160a01b031680620018e457604051636b53d5c760e11b815260040160405180910390fd5b60725460405163266a23b160e21b81526001600160a01b0380891660048301528381166024830152889216906399a88ec490604401600060405180830381600087803b1580156200193457600080fd5b505af115801562001949573d6000803e3d6000fd5b5050604051638932a90d60e01b8152602060048201526002602482015261060f60f31b60448201526001600160a01b0387169250638932a90d9150606401600060405180830381600087803b158015620019a257600080fd5b505af1158015620019b7573d6000803e3d6000fd5b5050604080516001600160a01b038b16815261ffff8a1660208201527f5e7b70a9e6f0b4c7cf2657cf563ce85eed3aebb7731396118d01a195d218fd5e935001905060405180910390a1509495945050505050565b606a8054620013fa90620024e6565b3360009081526068602052604090205460ff1615801562001aa45750336001600160a01b031663d1bbd49c6040518163ffffffff1660e01b8152600401602060405180830381865afa15801562001a76573d6000803e3d6000fd5b505050506040513d601f19601f8201168201806040525081019062001a9c9190620026f9565b61ffff16600d145b801562001b275750306001600160a01b0316336001600160a01b0316630f15023b6040518163ffffffff1660e01b8152600401602060405180830381865afa15801562001af5573d6000803e3d6000fd5b505050506040513d601f19601f8201168201806040525081019062001b1b91906200266b565b6001600160a01b031614155b1562000c57576000336001600160a01b0316630f15023b6040518163ffffffff1660e01b8152600401602060405180830381865afa15801562001b6e573d6000803e3d6000fd5b505050506040513d601f19601f8201168201806040525081019062001b9491906200266b565b90506000806000836001600160a01b0316635de9a137336040518263ffffffff1660e01b815260040162001bc99190620020aa565b606060405180830381865afa15801562001be7573d6000803e3d6000fd5b505050506040513d601f19601f8201168201806040525081019062001c0d919062002802565b925092509250821562001c685760408051606081018252841515815260208082018581528284018581523360009081526068909352939091209151825460ff1916901515178255516001820155905160029091015562001375565b3360405163411789a760e11b8152600401620009829190620020aa565b62001c8f62000d6b565b62001cae5760405162461bcd60e51b81526004016200098290620025e6565b6001600160a01b03811660009081526073602052604081205461ffff16900362001ceb5760405163adf2276360e01b815260040160405180910390fd5b6001600160a01b03811660008181526073602052604090819020546075805461ffff191661ffff909216919091179055606b80546001600160a01b031916909217909155517f4fa58418e580e78539e8d3d8d17d94dbaca0927533953c8248f313e6f8927c219062001d5f908390620020aa565b60405180910390a150565b62001d7462000d6b565b62001d935760405162461bcd60e51b81526004016200098290620025e6565b6001600160a01b03811662001ddb5760405162461bcd60e51b815260206004820152600d60248201526c24a72b20a624a22fa7aba722a960991b604482015260640162000982565b62001630815b603380546001600160a01b038381166001600160a01b0319831681179093556040519116919082907f8be0079c531659141344cd1fd0a4f28419497f9722a3daafe3b4186f6b6457e090600090a35050565b8360665462001e439190620026de565b606681905560408051918252602082018690526001600160a01b03858116838301526060830185905283166080830152517f3b50eb9d9b4a8db204f2928c9e572c2865b0d02803493ccb6aa256848323ebb79181900360a00190a150505050565b600060405162001eb49062002020565b604051809103906000f08015801562001ed1573d6000803e3d6000fd5b50607280546001600160a01b03929092166001600160a01b03199283168117909155607180549092168117909155919050565b60405163aae4b8f760e01b815260009083906001600160a01b0382169063aae4b8f79062001f37908690600401620020aa565b602060405180830381865afa15801562001f55573d6000803e3d6000fd5b505050506040513d601f19601f8201168201806040525081019062001f7b91906200278e565b949350505050565b610e5e806200283b83390190565b82805462001f9f90620024e6565b90600052602060002090601f01602090048101928262001fc357600085556200200e565b82601f1062001fde5782800160ff198235161785556200200e565b828001600101855582156200200e579182015b828111156200200e57823582559160200191906001019062001ff1565b506200201c9291506200202e565b5090565b610716806200369983390190565b5b808211156200201c57600081556001016200202f565b6001600160a01b03811681146200163057600080fd5b600080604083850312156200206f57600080fd5b82356200207c8162002045565b946020939093013593505050565b6000602082840312156200209d57600080fd5b813562000a0e8162002045565b6001600160a01b0391909116815260200190565b6000815180845260005b81811015620020e657602081850181015186830182015201620020c8565b81811115620020f9576000602083870101525b50601f01601f19169290920160200192915050565b60208152600062000a0e6020830184620020be565b600080604083850312156200213757600080fd5b50508035926020909101359150565b60008083601f8401126200215957600080fd5b5081356001600160401b038111156200217157600080fd5b602083019150836020828501011115620008af57600080fd5b600080600080600080600060c0888a031215620021a657600080fd5b873596506020880135620021ba8162002045565b9550604088013594506060880135935060808801356001600160401b03811115620021e457600080fd5b620021f28a828b0162002146565b90945092505060a08801356001600160a01b0319811681146200221457600080fd5b8091505092959891949750929550565b634e487b7160e01b600052604160045260246000fd5b600082601f8301126200224c57600080fd5b81356001600160401b038082111562002269576200226962002224565b604051601f8301601f19908116603f0116810190828211818310171562002294576200229462002224565b81604052838152866020858801011115620022ae57600080fd5b836020870160208301376000602085830101528094505050505092915050565b600060208284031215620022e157600080fd5b81356001600160401b03811115620022f857600080fd5b62001f7b848285016200223a565b61ffff811681146200163057600080fd5b600080604083850312156200232b57600080fd5b82356001600160401b038111156200234257600080fd5b62002350858286016200223a565b9250506020830135620023638162002306565b809150509250929050565b600080604083850312156200238257600080fd5b82356200238f8162002045565b91506020830135620023638162002045565b600060208284031215620023b457600080fd5b813562000a0e8162002306565b600060208284031215620023d457600080fd5b5035919050565b60008060008060008060008060c0898b031215620023f857600080fd5b8835620024058162002045565b97506020890135620024178162002045565b96506040890135955060608901356001600160401b03808211156200243b57600080fd5b620024498c838d0162002146565b909750955060808b01359150808211156200246357600080fd5b50620024728b828c0162002146565b999c989b50969995989497949560a00135949350505050565b600080604083850312156200249f57600080fd5b823591506020830135620023638162002045565b60008060408385031215620024c757600080fd5b8235620024d48162002045565b91506020830135620023638162002306565b600181811c90821680620024fb57607f821691505b6020821081036200251c57634e487b7160e01b600052602260045260246000fd5b50919050565b6020808252600a90820152694f4e4c595f4c4f434b5360b01b604082015260600190565b81835281816020850137506000828201602090810191909152601f909101601f19169091010190565b600060018060a01b03808a16835288602084015280881660408401525085606083015284608083015260c060a0830152620009e860c08301848662002546565b6001600160a01b03848116825283166020820152606060408201819052600090620025dd90830184620020be565b95945050505050565b6020808252600a908201526927a7262cafa7aba722a960b11b604082015260600190565b6001600160a01b038981168252881660208201526040810187905260c06060820181905260009062002640908301878962002546565b82810360808401526200265581868862002546565b9150508260a08301529998505050505050505050565b6000602082840312156200267e57600080fd5b815162000a0e8162002045565b6001600160a01b0393841681526020810192909252909116604082015260600190565b600060208284031215620026c157600080fd5b5051919050565b634e487b7160e01b600052601160045260246000fd5b60008219821115620026f457620026f4620026c8565b500190565b6000602082840312156200270c57600080fd5b815162000a0e8162002306565b6000816000190483118215151615620027365762002736620026c8565b500290565b6000826200275957634e487b7160e01b600052601260045260246000fd5b500490565b600082821015620027735762002773620026c8565b500390565b805180151581146200278957600080fd5b919050565b600060208284031215620027a157600080fd5b62000a0e8262002778565b6020808252601390820152721053149150511657d253925512505312569151606a1b604082015260600190565b600061ffff808316818516808303821115620027f957620027f9620026c8565b01949350505050565b6000806000606084860312156200281857600080fd5b620028238462002778565b92506020840151915060408401519050925092509256fe608060405260405162000e5e38038062000e5e8339810160408190526200002691620004a0565b828162000036828260006200004d565b50620000449050826200008a565b505050620005d3565b6200005883620000e5565b600082511180620000665750805b1562000085576200008383836200012760201b6200022e1760201c565b505b505050565b7f7e644d79422f17c01e4894b5f4f588d331ebfa28653d42ae832dc59e38c9798f620000b562000156565b604080516001600160a01b03928316815291841660208301520160405180910390a1620000e2816200018f565b50565b620000f08162000244565b6040516001600160a01b038216907fbc7cd75a20ee27fd9adebab32041f755214dbc6bffa90cc0225b39da2e5c2d3b90600090a250565b60606200014f838360405180606001604052806027815260200162000e3760279139620002f8565b9392505050565b60006200018060008051602062000e1783398151915260001b6200037760201b620001ea1760201c565b546001600160a01b0316919050565b6001600160a01b038116620001fa5760405162461bcd60e51b815260206004820152602660248201527f455243313936373a206e65772061646d696e20697320746865207a65726f206160448201526564647265737360d01b60648201526084015b60405180910390fd5b806200022360008051602062000e1783398151915260001b6200037760201b620001ea1760201c565b80546001600160a01b0319166001600160a01b039290921691909117905550565b6200025a816200037a60201b6200025a1760201c565b620002be5760405162461bcd60e51b815260206004820152602d60248201527f455243313936373a206e657720696d706c656d656e746174696f6e206973206e60448201526c1bdd08184818dbdb9d1c9858dd609a1b6064820152608401620001f1565b80620002237f360894a13ba1a3210667c828492db98dca3e2076cc3735a920a3ca505d382bbc60001b6200037760201b620001ea1760201c565b6060600080856001600160a01b03168560405162000317919062000580565b600060405180830381855af49150503d806000811462000354576040519150601f19603f3d011682016040523d82523d6000602084013e62000359565b606091505b5090925090506200036d8683838762000389565b9695505050505050565b90565b6001600160a01b03163b151590565b60608315620003fd578251600003620003f5576001600160a01b0385163b620003f55760405162461bcd60e51b815260206004820152601d60248201527f416464726573733a2063616c6c20746f206e6f6e2d636f6e74726163740000006044820152606401620001f1565b508162000409565b62000409838362000411565b949350505050565b815115620004225781518083602001fd5b8060405162461bcd60e51b8152600401620001f191906200059e565b80516001600160a01b03811681146200045657600080fd5b919050565b634e487b7160e01b600052604160045260246000fd5b60005b838110156200048e57818101518382015260200162000474565b83811115620000835750506000910152565b600080600060608486031215620004b657600080fd5b620004c1846200043e565b9250620004d1602085016200043e565b60408501519092506001600160401b0380821115620004ef57600080fd5b818601915086601f8301126200050457600080fd5b8151818111156200051957620005196200045b565b604051601f8201601f19908116603f011681019083821181831017156200054457620005446200045b565b816040528281528960208487010111156200055e57600080fd5b6200057183602083016020880162000471565b80955050505050509250925092565b600082516200059481846020870162000471565b9190910192915050565b6020815260008251806020840152620005bf81604085016020870162000471565b601f01601f19169190910160400192915050565b61083480620005e36000396000f3fe60806040526004361061004e5760003560e01c80633659cfe6146100655780634f1ef286146100855780635c60da1b146100985780638f283970146100c9578063f851a440146100e95761005d565b3661005d5761005b6100fe565b005b61005b6100fe565b34801561007157600080fd5b5061005b6100803660046106be565b610118565b61005b6100933660046106d9565b610155565b3480156100a457600080fd5b506100ad6101bc565b6040516001600160a01b03909116815260200160405180910390f35b3480156100d557600080fd5b5061005b6100e43660046106be565b6101ed565b3480156100f557600080fd5b506100ad61020d565b610106610269565b6101166101116102fe565b610308565b565b61012061032c565b6001600160a01b0316330361014d5761014a8160405180602001604052806000815250600061035f565b50565b61014a6100fe565b61015d61032c565b6001600160a01b031633036101b4576101af8383838080601f0160208091040260200160405190810160405280939291908181526020018383808284376000920191909152506001925061035f915050565b505050565b6101af6100fe565b60006101c661032c565b6001600160a01b031633036101e2576101dd6102fe565b905090565b6101ea6100fe565b90565b6101f561032c565b6001600160a01b0316330361014d5761014a8161038a565b600061021761032c565b6001600160a01b031633036101e2576101dd61032c565b606061025383836040518060600160405280602781526020016107d8602791396103de565b9392505050565b6001600160a01b03163b151590565b61027161032c565b6001600160a01b031633036101165760405162461bcd60e51b815260206004820152604260248201527f5472616e73706172656e745570677261646561626c6550726f78793a2061646d60448201527f696e2063616e6e6f742066616c6c6261636b20746f2070726f78792074617267606482015261195d60f21b608482015260a4015b60405180910390fd5b60006101dd610456565b3660008037600080366000845af43d6000803e808015610327573d6000f35b3d6000fd5b60007fb53127684a568b3173ae13b9f8a6016e243e63b6e8ee1178d6a717850b5d61035b546001600160a01b0316919050565b6103688361047e565b6000825111806103755750805b156101af57610384838361022e565b50505050565b7f7e644d79422f17c01e4894b5f4f588d331ebfa28653d42ae832dc59e38c9798f6103b361032c565b604080516001600160a01b03928316815291841660208301520160405180910390a161014a816104be565b6060600080856001600160a01b0316856040516103fb9190610788565b600060405180830381855af49150503d8060008114610436576040519150601f19603f3d011682016040523d82523d6000602084013e61043b565b606091505b509150915061044c86838387610567565b9695505050505050565b60007f360894a13ba1a3210667c828492db98dca3e2076cc3735a920a3ca505d382bbc610350565b610487816105e6565b6040516001600160a01b038216907fbc7cd75a20ee27fd9adebab32041f755214dbc6bffa90cc0225b39da2e5c2d3b90600090a250565b6001600160a01b0381166105235760405162461bcd60e51b815260206004820152602660248201527f455243313936373a206e65772061646d696e20697320746865207a65726f206160448201526564647265737360d01b60648201526084016102f5565b807fb53127684a568b3173ae13b9f8a6016e243e63b6e8ee1178d6a717850b5d61035b80546001600160a01b0319166001600160a01b039290921691909117905550565b606083156105d45782516000036105cd576105818561025a565b6105cd5760405162461bcd60e51b815260206004820152601d60248201527f416464726573733a2063616c6c20746f206e6f6e2d636f6e747261637400000060448201526064016102f5565b50816105de565b6105de8383610678565b949350505050565b6105ef8161025a565b6106515760405162461bcd60e51b815260206004820152602d60248201527f455243313936373a206e657720696d706c656d656e746174696f6e206973206e60448201526c1bdd08184818dbdb9d1c9858dd609a1b60648201526084016102f5565b807f360894a13ba1a3210667c828492db98dca3e2076cc3735a920a3ca505d382bbc610546565b8151156106885781518083602001fd5b8060405162461bcd60e51b81526004016102f591906107a4565b80356001600160a01b03811681146106b957600080fd5b919050565b6000602082840312156106d057600080fd5b610253826106a2565b6000806000604084860312156106ee57600080fd5b6106f7846106a2565b9250602084013567ffffffffffffffff8082111561071457600080fd5b818601915086601f83011261072857600080fd5b81358181111561073757600080fd5b87602082850101111561074957600080fd5b6020830194508093505050509250925092565b60005b8381101561077757818101518382015260200161075f565b838111156103845750506000910152565b6000825161079a81846020870161075c565b9190910192915050565b60208152600082518060208401526107c381604085016020870161075c565b601f01601f1916919091016040019291505056fe416464726573733a206c6f772d6c6576656c2064656c65676174652063616c6c206661696c6564a26469706673582212201069a7ba14bb4d426cc9af4d04bd7708c140c48ab14d8dee50cea6f0629de78864736f6c634300080d0033b53127684a568b3173ae13b9f8a6016e243e63b6e8ee1178d6a717850b5d6103416464726573733a206c6f772d6c6576656c2064656c65676174652063616c6c206661696c6564608060405234801561001057600080fd5b5061001a3361001f565b61006f565b600080546001600160a01b038381166001600160a01b0319831681178455604051919092169283917f8be0079c531659141344cd1fd0a4f28419497f9722a3daafe3b4186f6b6457e09190a35050565b6106988061007e6000396000f3fe60806040526004361061006b5760003560e01c8063204e1c7a14610070578063715018a6146100a65780637eff275e146100bd5780638da5cb5b146100dd5780639623609d146100fb57806399a88ec41461010e578063f2fde38b1461012e578063f3b7dead1461014e575b600080fd5b34801561007c57600080fd5b5061009061008b366004610483565b61016e565b60405161009d91906104a7565b60405180910390f35b3480156100b257600080fd5b506100bb6101ff565b005b3480156100c957600080fd5b506100bb6100d83660046104bb565b610213565b3480156100e957600080fd5b506000546001600160a01b0316610090565b6100bb61010936600461050a565b61027d565b34801561011a57600080fd5b506100bb6101293660046104bb565b6102ec565b34801561013a57600080fd5b506100bb610149366004610483565b610320565b34801561015a57600080fd5b50610090610169366004610483565b61039e565b6000806000836001600160a01b031660405161019490635c60da1b60e01b815260040190565b600060405180830381855afa9150503d80600081146101cf576040519150601f19603f3d011682016040523d82523d6000602084013e6101d4565b606091505b5091509150816101e357600080fd5b808060200190518101906101f791906105e0565b949350505050565b6102076103c4565b610211600061041e565b565b61021b6103c4565b6040516308f2839760e41b81526001600160a01b03831690638f283970906102479084906004016104a7565b600060405180830381600087803b15801561026157600080fd5b505af1158015610275573d6000803e3d6000fd5b505050505050565b6102856103c4565b60405163278f794360e11b81526001600160a01b03841690634f1ef2869034906102b590869086906004016105fd565b6000604051808303818588803b1580156102ce57600080fd5b505af11580156102e2573d6000803e3d6000fd5b5050505050505050565b6102f46103c4565b604051631b2ce7f360e11b81526001600160a01b03831690633659cfe6906102479084906004016104a7565b6103286103c4565b6001600160a01b0381166103925760405162461bcd60e51b815260206004820152602660248201527f4f776e61626c653a206e6577206f776e657220697320746865207a65726f206160448201526564647265737360d01b60648201526084015b60405180910390fd5b61039b8161041e565b50565b6000806000836001600160a01b0316604051610194906303e1469160e61b815260040190565b6000546001600160a01b031633146102115760405162461bcd60e51b815260206004820181905260248201527f4f776e61626c653a2063616c6c6572206973206e6f7420746865206f776e65726044820152606401610389565b600080546001600160a01b038381166001600160a01b0319831681178455604051919092169283917f8be0079c531659141344cd1fd0a4f28419497f9722a3daafe3b4186f6b6457e09190a35050565b6001600160a01b038116811461039b57600080fd5b60006020828403121561049557600080fd5b81356104a08161046e565b9392505050565b6001600160a01b0391909116815260200190565b600080604083850312156104ce57600080fd5b82356104d98161046e565b915060208301356104e98161046e565b809150509250929050565b634e487b7160e01b600052604160045260246000fd5b60008060006060848603121561051f57600080fd5b833561052a8161046e565b9250602084013561053a8161046e565b9150604084013567ffffffffffffffff8082111561055757600080fd5b818601915086601f83011261056b57600080fd5b81358181111561057d5761057d6104f4565b604051601f8201601f19908116603f011681019083821181831017156105a5576105a56104f4565b816040528281528960208487010111156105be57600080fd5b8260208601602083013760006020848301015280955050505050509250925092565b6000602082840312156105f257600080fd5b81516104a08161046e565b60018060a01b038316815260006020604081840152835180604085015260005b818110156106395785810183015185820160600152820161061d565b8181111561064b576000606083870101525b50601f01601f19169290920160600194935050505056fea26469706673582212204573abbc4f4cfab57fa1ad0302ef3e449ffb827b303a21ccfd5cdfec26da5af164736f6c634300080d0033a264697066735822122084aa04f3da56bf56c73a28343b3969513c45a206d75c91741f5b4daedd18329b64736f6c634300080d0033",
  "linkReferences": {},
  "deployedLinkReferences": {}
}