{
  "contractName": "PublicLock",
  "abi": [
    {
      "anonymous": false,
      "inputs": [
        {
          "indexed": true,
          "internalType": "address",
          "name": "owner",
          "type": "address"
        },
        {
          "indexed": true,
          "internalType": "address",
          "name": "approved",
          "type": "address"
        },
        {
          "indexed": true,
          "internalType": "uint256",
          "name": "tokenId",
          "type": "uint256"
        }
      ],
      "name": "Approval",
      "type": "event"
    },
    {
      "anonymous": false,
      "inputs": [
        {
          "indexed": true,
          "internalType": "address",
          "name": "owner",
          "type": "address"
        },
        {
          "indexed": true,
          "internalType": "address",
          "name": "operator",
          "type": "address"
        },
        {
          "indexed": false,
          "internalType": "bool",
          "name": "approved",
          "type": "bool"
        }
      ],
      "name": "ApprovalForAll",
      "type": "event"
    },
    {
      "anonymous": false,
      "inputs": [
        {
          "indexed": true,
          "internalType": "uint256",
          "name": "tokenId",
          "type": "uint256"
        },
        {
          "indexed": true,
          "internalType": "address",
          "name": "owner",
          "type": "address"
        },
        {
          "indexed": true,
          "internalType": "address",
          "name": "sendTo",
          "type": "address"
        },
        {
          "indexed": false,
          "internalType": "uint256",
          "name": "refund",
          "type": "uint256"
        }
      ],
      "name": "CancelKey",
      "type": "event"
    },
    {
      "anonymous": false,
      "inputs": [],
      "name": "Disable",
      "type": "event"
    },
    {
      "anonymous": false,
      "inputs": [
        {
          "indexed": true,
          "internalType": "uint256",
          "name": "_tokenId",
          "type": "uint256"
        },
        {
          "indexed": false,
          "internalType": "uint256",
          "name": "_amount",
          "type": "uint256"
        },
        {
          "indexed": false,
          "internalType": "bool",
          "name": "_timeAdded",
          "type": "bool"
        }
      ],
      "name": "ExpirationChanged",
      "type": "event"
    },
    {
      "anonymous": false,
      "inputs": [
        {
          "indexed": true,
          "internalType": "uint256",
          "name": "tokenId",
          "type": "uint256"
        }
      ],
      "name": "ExpireKey",
      "type": "event"
    },
    {
      "anonymous": false,
      "inputs": [
        {
          "indexed": true,
          "internalType": "address",
          "name": "account",
          "type": "address"
        }
      ],
      "name": "KeyGranterAdded",
      "type": "event"
    },
    {
      "anonymous": false,
      "inputs": [
        {
          "indexed": true,
          "internalType": "address",
          "name": "account",
          "type": "address"
        }
      ],
      "name": "KeyGranterRemoved",
      "type": "event"
    },
    {
      "anonymous": false,
      "inputs": [
        {
          "indexed": true,
          "internalType": "uint256",
          "name": "_tokenId",
          "type": "uint256"
        },
        {
          "indexed": true,
          "internalType": "address",
          "name": "_newManager",
          "type": "address"
        }
      ],
      "name": "KeyManagerChanged",
      "type": "event"
    },
    {
      "anonymous": false,
      "inputs": [
        {
          "indexed": true,
          "internalType": "address",
          "name": "account",
          "type": "address"
        }
      ],
      "name": "LockManagerAdded",
      "type": "event"
    },
    {
      "anonymous": false,
      "inputs": [
        {
          "indexed": true,
          "internalType": "address",
          "name": "account",
          "type": "address"
        }
      ],
      "name": "LockManagerRemoved",
      "type": "event"
    },
    {
      "anonymous": false,
      "inputs": [
        {
          "indexed": false,
          "internalType": "string",
          "name": "symbol",
          "type": "string"
        }
      ],
      "name": "NewLockSymbol",
      "type": "event"
    },
    {
      "anonymous": false,
      "inputs": [
        {
          "indexed": true,
          "internalType": "address",
          "name": "keyManager",
          "type": "address"
        },
        {
          "indexed": false,
          "internalType": "uint256",
          "name": "nextAvailableNonce",
          "type": "uint256"
        }
      ],
      "name": "NonceChanged",
      "type": "event"
    },
    {
      "anonymous": false,
      "inputs": [
        {
          "indexed": false,
          "internalType": "uint256",
          "name": "oldKeyPrice",
          "type": "uint256"
        },
        {
          "indexed": false,
          "internalType": "uint256",
          "name": "keyPrice",
          "type": "uint256"
        },
        {
          "indexed": false,
          "internalType": "address",
          "name": "oldTokenAddress",
          "type": "address"
        },
        {
          "indexed": false,
          "internalType": "address",
          "name": "tokenAddress",
          "type": "address"
        }
      ],
      "name": "PricingChanged",
      "type": "event"
    },
    {
      "anonymous": false,
      "inputs": [
        {
          "indexed": false,
          "internalType": "uint256",
          "name": "freeTrialLength",
          "type": "uint256"
        },
        {
          "indexed": false,
          "internalType": "uint256",
          "name": "refundPenaltyBasisPoints",
          "type": "uint256"
        }
      ],
      "name": "RefundPenaltyChanged",
      "type": "event"
    },
    {
      "anonymous": false,
      "inputs": [
        {
          "indexed": true,
          "internalType": "address",
          "name": "owner",
          "type": "address"
        },
        {
          "indexed": false,
          "internalType": "uint256",
          "name": "newExpiration",
          "type": "uint256"
        }
      ],
      "name": "RenewKeyPurchase",
      "type": "event"
    },
    {
      "anonymous": false,
      "inputs": [
        {
          "indexed": true,
          "internalType": "address",
          "name": "from",
          "type": "address"
        },
        {
          "indexed": true,
          "internalType": "address",
          "name": "to",
          "type": "address"
        },
        {
          "indexed": true,
          "internalType": "uint256",
          "name": "tokenId",
          "type": "uint256"
        }
      ],
      "name": "Transfer",
      "type": "event"
    },
    {
      "anonymous": false,
      "inputs": [
        {
          "indexed": false,
          "internalType": "uint256",
          "name": "transferFeeBasisPoints",
          "type": "uint256"
        }
      ],
      "name": "TransferFeeChanged",
      "type": "event"
    },
    {
      "anonymous": false,
      "inputs": [
        {
          "indexed": true,
          "internalType": "address",
          "name": "sender",
          "type": "address"
        },
        {
          "indexed": true,
          "internalType": "address",
          "name": "tokenAddress",
          "type": "address"
        },
        {
          "indexed": true,
          "internalType": "address",
          "name": "beneficiary",
          "type": "address"
        },
        {
          "indexed": false,
          "internalType": "uint256",
          "name": "amount",
          "type": "uint256"
        }
      ],
      "name": "Withdrawal",
      "type": "event"
    },
    {
      "payable": true,
      "stateMutability": "payable",
      "type": "fallback"
    },
    {
      "constant": false,
      "inputs": [
        {
          "internalType": "address",
          "name": "account",
          "type": "address"
        }
      ],
      "name": "addKeyGranter",
      "outputs": [],
      "payable": false,
      "stateMutability": "nonpayable",
      "type": "function"
    },
    {
      "constant": false,
      "inputs": [
        {
          "internalType": "address",
          "name": "account",
          "type": "address"
        }
      ],
      "name": "addLockManager",
      "outputs": [],
      "payable": false,
      "stateMutability": "nonpayable",
      "type": "function"
    },
    {
      "constant": false,
      "inputs": [
        {
          "internalType": "address",
          "name": "_approved",
          "type": "address"
        },
        {
          "internalType": "uint256",
          "name": "_tokenId",
          "type": "uint256"
        }
      ],
      "name": "approve",
      "outputs": [],
      "payable": false,
      "stateMutability": "nonpayable",
      "type": "function"
    },
    {
      "constant": false,
      "inputs": [
        {
          "internalType": "address",
          "name": "_spender",
          "type": "address"
        },
        {
          "internalType": "uint256",
          "name": "_amount",
          "type": "uint256"
        }
      ],
      "name": "approveBeneficiary",
      "outputs": [
        {
          "internalType": "bool",
          "name": "",
          "type": "bool"
        }
      ],
      "payable": false,
      "stateMutability": "nonpayable",
      "type": "function"
    },
    {
      "constant": true,
      "inputs": [
        {
          "internalType": "address",
          "name": "_keyOwner",
          "type": "address"
        }
      ],
      "name": "balanceOf",
      "outputs": [
        {
          "internalType": "uint256",
          "name": "",
          "type": "uint256"
        }
      ],
      "payable": false,
      "stateMutability": "view",
      "type": "function"
    },
    {
      "constant": true,
      "inputs": [],
      "name": "beneficiary",
      "outputs": [
        {
          "internalType": "address",
          "name": "",
          "type": "address"
        }
      ],
      "payable": false,
      "stateMutability": "view",
      "type": "function"
    },
    {
      "constant": false,
      "inputs": [
        {
          "internalType": "uint256",
          "name": "_tokenId",
          "type": "uint256"
        }
      ],
      "name": "cancelAndRefund",
      "outputs": [],
      "payable": false,
      "stateMutability": "nonpayable",
      "type": "function"
    },
    {
      "constant": false,
      "inputs": [
        {
          "internalType": "address",
          "name": "_keyManager",
          "type": "address"
        },
        {
          "internalType": "uint8",
          "name": "_v",
          "type": "uint8"
        },
        {
          "internalType": "bytes32",
          "name": "_r",
          "type": "bytes32"
        },
        {
          "internalType": "bytes32",
          "name": "_s",
          "type": "bytes32"
        },
        {
          "internalType": "uint256",
          "name": "_tokenId",
          "type": "uint256"
        }
      ],
      "name": "cancelAndRefundFor",
      "outputs": [],
      "payable": false,
      "stateMutability": "nonpayable",
      "type": "function"
    },
    {
      "constant": false,
      "inputs": [],
      "name": "disableLock",
      "outputs": [],
      "payable": false,
      "stateMutability": "nonpayable",
      "type": "function"
    },
    {
      "constant": true,
      "inputs": [],
      "name": "expirationDuration",
      "outputs": [
        {
          "internalType": "uint256",
          "name": "",
          "type": "uint256"
        }
      ],
      "payable": false,
      "stateMutability": "view",
      "type": "function"
    },
    {
      "constant": false,
      "inputs": [
        {
          "internalType": "address",
          "name": "_keyOwner",
          "type": "address"
        },
        {
          "internalType": "uint256",
          "name": "amount",
          "type": "uint256"
        }
      ],
      "name": "expireAndRefundFor",
      "outputs": [],
      "payable": false,
      "stateMutability": "nonpayable",
      "type": "function"
    },
    {
      "constant": true,
      "inputs": [],
      "name": "freeTrialLength",
      "outputs": [
        {
          "internalType": "uint256",
          "name": "",
          "type": "uint256"
        }
      ],
      "payable": false,
      "stateMutability": "view",
      "type": "function"
    },
    {
      "constant": true,
      "inputs": [
        {
          "internalType": "uint256",
          "name": "_tokenId",
          "type": "uint256"
        }
      ],
      "name": "getApproved",
      "outputs": [
        {
          "internalType": "address",
          "name": "",
          "type": "address"
        }
      ],
      "payable": false,
      "stateMutability": "view",
      "type": "function"
    },
    {
      "constant": true,
      "inputs": [
        {
          "internalType": "address",
          "name": "_tokenAddress",
          "type": "address"
        },
        {
          "internalType": "address",
          "name": "_account",
          "type": "address"
        }
      ],
      "name": "getBalance",
      "outputs": [
        {
          "internalType": "uint256",
          "name": "",
          "type": "uint256"
        }
      ],
      "payable": false,
      "stateMutability": "view",
      "type": "function"
    },
    {
      "constant": true,
      "inputs": [
        {
          "internalType": "address",
          "name": "_keyManager",
          "type": "address"
        },
        {
          "internalType": "address",
          "name": "_txSender",
          "type": "address"
        }
      ],
      "name": "getCancelAndRefundApprovalHash",
      "outputs": [
        {
          "internalType": "bytes32",
          "name": "approvalHash",
          "type": "bytes32"
        }
      ],
      "payable": false,
      "stateMutability": "view",
      "type": "function"
    },
    {
      "constant": true,
      "inputs": [
        {
          "internalType": "address",
          "name": "_keyOwner",
          "type": "address"
        }
      ],
      "name": "getCancelAndRefundValueFor",
      "outputs": [
        {
          "internalType": "uint256",
          "name": "refund",
          "type": "uint256"
        }
      ],
      "payable": false,
      "stateMutability": "view",
      "type": "function"
    },
    {
      "constant": true,
      "inputs": [
        {
          "internalType": "address",
          "name": "_keyOwner",
          "type": "address"
        }
      ],
      "name": "getHasValidKey",
      "outputs": [
        {
          "internalType": "bool",
          "name": "",
          "type": "bool"
        }
      ],
      "payable": false,
      "stateMutability": "view",
      "type": "function"
    },
    {
      "constant": true,
      "inputs": [
        {
          "internalType": "uint256",
          "name": "_page",
          "type": "uint256"
        },
        {
          "internalType": "uint256",
          "name": "_pageSize",
          "type": "uint256"
        }
      ],
      "name": "getOwnersByPage",
      "outputs": [
        {
          "internalType": "address[]",
          "name": "",
          "type": "address[]"
        }
      ],
      "payable": false,
      "stateMutability": "view",
      "type": "function"
    },
    {
      "constant": true,
      "inputs": [
        {
          "internalType": "address",
          "name": "_account",
          "type": "address"
        }
      ],
      "name": "getTokenIdFor",
      "outputs": [
        {
          "internalType": "uint256",
          "name": "",
          "type": "uint256"
        }
      ],
      "payable": false,
      "stateMutability": "view",
      "type": "function"
    },
    {
      "constant": true,
      "inputs": [
        {
          "internalType": "address",
          "name": "_keyOwner",
          "type": "address"
        },
        {
          "internalType": "uint256",
          "name": "_time",
          "type": "uint256"
        }
      ],
      "name": "getTransferFee",
      "outputs": [
        {
          "internalType": "uint256",
          "name": "",
          "type": "uint256"
        }
      ],
      "payable": false,
      "stateMutability": "view",
      "type": "function"
    },
    {
      "constant": false,
      "inputs": [
        {
          "internalType": "address[]",
          "name": "_recipients",
          "type": "address[]"
        },
        {
          "internalType": "uint256[]",
          "name": "_expirationTimestamps",
          "type": "uint256[]"
        },
        {
          "internalType": "address[]",
          "name": "_keyManagers",
          "type": "address[]"
        }
      ],
      "name": "grantKeys",
      "outputs": [],
      "payable": false,
      "stateMutability": "nonpayable",
      "type": "function"
    },
    {
      "constant": false,
      "inputs": [
        {
          "internalType": "uint256",
          "name": "_nextAvailableNonce",
          "type": "uint256"
        }
      ],
      "name": "invalidateOffchainApproval",
      "outputs": [],
      "payable": false,
      "stateMutability": "nonpayable",
      "type": "function"
    },
    {
      "constant": true,
      "inputs": [],
      "name": "isAlive",
      "outputs": [
        {
          "internalType": "bool",
          "name": "",
          "type": "bool"
        }
      ],
      "payable": false,
      "stateMutability": "view",
      "type": "function"
    },
    {
      "constant": true,
      "inputs": [
        {
          "internalType": "address",
          "name": "_owner",
          "type": "address"
        },
        {
          "internalType": "address",
          "name": "_operator",
          "type": "address"
        }
      ],
      "name": "isApprovedForAll",
      "outputs": [
        {
          "internalType": "bool",
          "name": "",
          "type": "bool"
        }
      ],
      "payable": false,
      "stateMutability": "view",
      "type": "function"
    },
    {
      "constant": true,
      "inputs": [
        {
          "internalType": "address",
          "name": "account",
          "type": "address"
        }
      ],
      "name": "isKeyGranter",
      "outputs": [
        {
          "internalType": "bool",
          "name": "",
          "type": "bool"
        }
      ],
      "payable": false,
      "stateMutability": "view",
      "type": "function"
    },
    {
      "constant": true,
      "inputs": [
        {
          "internalType": "uint256",
          "name": "_tokenId",
          "type": "uint256"
        },
        {
          "internalType": "address",
          "name": "_keyOwner",
          "type": "address"
        }
      ],
      "name": "isKeyOwner",
      "outputs": [
        {
          "internalType": "bool",
          "name": "",
          "type": "bool"
        }
      ],
      "payable": false,
      "stateMutability": "view",
      "type": "function"
    },
    {
      "constant": true,
      "inputs": [
        {
          "internalType": "address",
          "name": "account",
          "type": "address"
        }
      ],
      "name": "isLockManager",
      "outputs": [
        {
          "internalType": "bool",
          "name": "",
          "type": "bool"
        }
      ],
      "payable": false,
      "stateMutability": "view",
      "type": "function"
    },
    {
      "constant": true,
      "inputs": [
        {
          "internalType": "address",
          "name": "_keyOwner",
          "type": "address"
        }
      ],
      "name": "keyExpirationTimestampFor",
      "outputs": [
        {
          "internalType": "uint256",
          "name": "",
          "type": "uint256"
        }
      ],
      "payable": false,
      "stateMutability": "view",
      "type": "function"
    },
    {
      "constant": true,
      "inputs": [
        {
          "internalType": "uint256",
          "name": "",
          "type": "uint256"
        }
      ],
      "name": "keyManagerOf",
      "outputs": [
        {
          "internalType": "address",
          "name": "",
          "type": "address"
        }
      ],
      "payable": false,
      "stateMutability": "view",
      "type": "function"
    },
    {
      "constant": true,
      "inputs": [
        {
          "internalType": "address",
          "name": "",
          "type": "address"
        }
      ],
      "name": "keyManagerToNonce",
      "outputs": [
        {
          "internalType": "uint256",
          "name": "",
          "type": "uint256"
        }
      ],
      "payable": false,
      "stateMutability": "view",
      "type": "function"
    },
    {
      "constant": true,
      "inputs": [],
      "name": "keyPrice",
      "outputs": [
        {
          "internalType": "uint256",
          "name": "",
          "type": "uint256"
        }
      ],
      "payable": false,
      "stateMutability": "view",
      "type": "function"
    },
    {
      "constant": true,
      "inputs": [],
      "name": "maxNumberOfKeys",
      "outputs": [
        {
          "internalType": "uint256",
          "name": "",
          "type": "uint256"
        }
      ],
      "payable": false,
      "stateMutability": "view",
      "type": "function"
    },
    {
      "constant": true,
      "inputs": [],
      "name": "name",
      "outputs": [
        {
          "internalType": "string",
          "name": "",
          "type": "string"
        }
      ],
      "payable": false,
      "stateMutability": "view",
      "type": "function"
    },
    {
      "constant": true,
      "inputs": [],
      "name": "numberOfOwners",
      "outputs": [
        {
          "internalType": "uint256",
          "name": "",
          "type": "uint256"
        }
      ],
      "payable": false,
      "stateMutability": "view",
      "type": "function"
    },
    {
      "constant": true,
      "inputs": [],
      "name": "onKeyCancelHook",
      "outputs": [
        {
          "internalType": "contract ILockKeyCancelHook",
          "name": "",
          "type": "address"
        }
      ],
      "payable": false,
      "stateMutability": "view",
      "type": "function"
    },
    {
      "constant": true,
      "inputs": [],
      "name": "onKeyPurchaseHook",
      "outputs": [
        {
          "internalType": "contract ILockKeyPurchaseHook",
          "name": "",
          "type": "address"
        }
      ],
      "payable": false,
      "stateMutability": "view",
      "type": "function"
    },
    {
      "constant": true,
      "inputs": [
        {
          "internalType": "uint256",
          "name": "_tokenId",
          "type": "uint256"
        }
      ],
      "name": "ownerOf",
      "outputs": [
        {
          "internalType": "address",
          "name": "",
          "type": "address"
        }
      ],
      "payable": false,
      "stateMutability": "view",
      "type": "function"
    },
    {
      "constant": true,
      "inputs": [
        {
          "internalType": "uint256",
          "name": "",
          "type": "uint256"
        }
      ],
      "name": "owners",
      "outputs": [
        {
          "internalType": "address",
          "name": "",
          "type": "address"
        }
      ],
      "payable": false,
      "stateMutability": "view",
      "type": "function"
    },
    {
      "constant": true,
      "inputs": [],
      "name": "publicLockVersion",
      "outputs": [
        {
          "internalType": "uint256",
          "name": "",
          "type": "uint256"
        }
      ],
      "payable": false,
      "stateMutability": "pure",
      "type": "function"
    },
    {
      "constant": false,
      "inputs": [
        {
          "internalType": "uint256",
          "name": "_value",
          "type": "uint256"
        },
        {
          "internalType": "address",
          "name": "_recipient",
          "type": "address"
        },
        {
          "internalType": "address",
          "name": "_referrer",
          "type": "address"
        },
        {
          "internalType": "bytes",
          "name": "_data",
          "type": "bytes"
        }
      ],
      "name": "purchase",
      "outputs": [],
      "payable": true,
      "stateMutability": "payable",
      "type": "function"
    },
    {
      "constant": true,
      "inputs": [
        {
          "internalType": "address",
          "name": "_recipient",
          "type": "address"
        },
        {
          "internalType": "address",
          "name": "_referrer",
          "type": "address"
        },
        {
          "internalType": "bytes",
          "name": "_data",
          "type": "bytes"
        }
      ],
      "name": "purchasePriceFor",
      "outputs": [
        {
          "internalType": "uint256",
          "name": "minKeyPrice",
          "type": "uint256"
        }
      ],
      "payable": false,
      "stateMutability": "view",
      "type": "function"
    },
    {
      "constant": true,
      "inputs": [],
      "name": "refundPenaltyBasisPoints",
      "outputs": [
        {
          "internalType": "uint256",
          "name": "",
          "type": "uint256"
        }
      ],
      "payable": false,
      "stateMutability": "view",
      "type": "function"
    },
    {
      "constant": false,
      "inputs": [],
      "name": "renounceLockManager",
      "outputs": [],
      "payable": false,
      "stateMutability": "nonpayable",
      "type": "function"
    },
    {
      "constant": false,
      "inputs": [
        {
          "internalType": "address",
          "name": "_granter",
          "type": "address"
        }
      ],
      "name": "revokeKeyGranter",
      "outputs": [],
      "payable": false,
      "stateMutability": "nonpayable",
      "type": "function"
    },
    {
      "constant": false,
      "inputs": [
        {
          "internalType": "address",
          "name": "_from",
          "type": "address"
        },
        {
          "internalType": "address",
          "name": "_to",
          "type": "address"
        },
        {
          "internalType": "uint256",
          "name": "_tokenId",
          "type": "uint256"
        }
      ],
      "name": "safeTransferFrom",
      "outputs": [],
      "payable": false,
      "stateMutability": "nonpayable",
      "type": "function"
    },
    {
      "constant": false,
      "inputs": [
        {
          "internalType": "address",
          "name": "_from",
          "type": "address"
        },
        {
          "internalType": "address",
          "name": "_to",
          "type": "address"
        },
        {
          "internalType": "uint256",
          "name": "_tokenId",
          "type": "uint256"
        },
        {
          "internalType": "bytes",
          "name": "_data",
          "type": "bytes"
        }
      ],
      "name": "safeTransferFrom",
      "outputs": [],
      "payable": false,
      "stateMutability": "nonpayable",
      "type": "function"
    },
    {
      "constant": false,
      "inputs": [
        {
          "internalType": "address",
          "name": "_to",
          "type": "address"
        },
        {
          "internalType": "bool",
          "name": "_approved",
          "type": "bool"
        }
      ],
      "name": "setApprovalForAll",
      "outputs": [],
      "payable": false,
      "stateMutability": "nonpayable",
      "type": "function"
    },
    {
      "constant": false,
      "inputs": [
        {
          "internalType": "string",
          "name": "_baseTokenURI",
          "type": "string"
        }
      ],
      "name": "setBaseTokenURI",
      "outputs": [],
      "payable": false,
      "stateMutability": "nonpayable",
      "type": "function"
    },
    {
      "constant": false,
      "inputs": [
        {
          "internalType": "address",
          "name": "_onKeyPurchaseHook",
          "type": "address"
        },
        {
          "internalType": "address",
          "name": "_onKeyCancelHook",
          "type": "address"
        }
      ],
      "name": "setEventHooks",
      "outputs": [],
      "payable": false,
      "stateMutability": "nonpayable",
      "type": "function"
    },
    {
      "constant": false,
      "inputs": [
        {
          "internalType": "uint256",
          "name": "_tokenId",
          "type": "uint256"
        },
        {
          "internalType": "address",
          "name": "_keyManager",
          "type": "address"
        }
      ],
      "name": "setKeyManagerOf",
      "outputs": [],
      "payable": false,
      "stateMutability": "nonpayable",
      "type": "function"
    },
    {
      "constant": false,
      "inputs": [
        {
          "internalType": "address",
          "name": "_to",
          "type": "address"
        },
        {
          "internalType": "uint256",
          "name": "_tokenId",
          "type": "uint256"
        },
        {
          "internalType": "uint256",
          "name": "_timeShared",
          "type": "uint256"
        }
      ],
      "name": "shareKey",
      "outputs": [],
      "payable": false,
      "stateMutability": "nonpayable",
      "type": "function"
    },
    {
      "constant": true,
      "inputs": [
        {
          "internalType": "bytes4",
          "name": "interfaceId",
          "type": "bytes4"
        }
      ],
      "name": "supportsInterface",
      "outputs": [
        {
          "internalType": "bool",
          "name": "",
          "type": "bool"
        }
      ],
      "payable": false,
      "stateMutability": "view",
      "type": "function"
    },
    {
      "constant": true,
      "inputs": [],
      "name": "symbol",
      "outputs": [
        {
          "internalType": "string",
          "name": "",
          "type": "string"
        }
      ],
      "payable": false,
      "stateMutability": "view",
      "type": "function"
    },
    {
      "constant": true,
      "inputs": [],
      "name": "tokenAddress",
      "outputs": [
        {
          "internalType": "address",
          "name": "",
          "type": "address"
        }
      ],
      "payable": false,
      "stateMutability": "view",
      "type": "function"
    },
    {
      "constant": true,
      "inputs": [
        {
          "internalType": "uint256",
          "name": "_index",
          "type": "uint256"
        }
      ],
      "name": "tokenByIndex",
      "outputs": [
        {
          "internalType": "uint256",
          "name": "",
          "type": "uint256"
        }
      ],
      "payable": false,
      "stateMutability": "view",
      "type": "function"
    },
    {
      "constant": true,
      "inputs": [
        {
          "internalType": "address",
          "name": "_keyOwner",
          "type": "address"
        },
        {
          "internalType": "uint256",
          "name": "_index",
          "type": "uint256"
        }
      ],
      "name": "tokenOfOwnerByIndex",
      "outputs": [
        {
          "internalType": "uint256",
          "name": "",
          "type": "uint256"
        }
      ],
      "payable": false,
      "stateMutability": "view",
      "type": "function"
    },
    {
      "constant": true,
      "inputs": [
        {
          "internalType": "uint256",
          "name": "_tokenId",
          "type": "uint256"
        }
      ],
      "name": "tokenURI",
      "outputs": [
        {
          "internalType": "string",
          "name": "",
          "type": "string"
        }
      ],
      "payable": false,
      "stateMutability": "view",
      "type": "function"
    },
    {
      "constant": true,
      "inputs": [],
      "name": "totalSupply",
      "outputs": [
        {
          "internalType": "uint256",
          "name": "",
          "type": "uint256"
        }
      ],
      "payable": false,
      "stateMutability": "view",
      "type": "function"
    },
    {
      "constant": false,
      "inputs": [
        {
          "internalType": "address",
          "name": "_to",
          "type": "address"
        },
        {
          "internalType": "uint256",
          "name": "_value",
          "type": "uint256"
        }
      ],
      "name": "transfer",
      "outputs": [
        {
          "internalType": "bool",
          "name": "success",
          "type": "bool"
        }
      ],
      "payable": false,
      "stateMutability": "nonpayable",
      "type": "function"
    },
    {
      "constant": true,
      "inputs": [],
      "name": "transferFeeBasisPoints",
      "outputs": [
        {
          "internalType": "uint256",
          "name": "",
          "type": "uint256"
        }
      ],
      "payable": false,
      "stateMutability": "view",
      "type": "function"
    },
    {
      "constant": false,
      "inputs": [
        {
          "internalType": "address",
          "name": "_from",
          "type": "address"
        },
        {
          "internalType": "address",
          "name": "_recipient",
          "type": "address"
        },
        {
          "internalType": "uint256",
          "name": "_tokenId",
          "type": "uint256"
        }
      ],
      "name": "transferFrom",
      "outputs": [],
      "payable": false,
      "stateMutability": "nonpayable",
      "type": "function"
    },
    {
      "constant": true,
      "inputs": [],
      "name": "unlockProtocol",
      "outputs": [
        {
          "internalType": "contract IUnlock",
          "name": "",
          "type": "address"
        }
      ],
      "payable": false,
      "stateMutability": "view",
      "type": "function"
    },
    {
      "constant": false,
      "inputs": [
        {
          "internalType": "address",
          "name": "_beneficiary",
          "type": "address"
        }
      ],
      "name": "updateBeneficiary",
      "outputs": [],
      "payable": false,
      "stateMutability": "nonpayable",
      "type": "function"
    },
    {
      "constant": false,
      "inputs": [
        {
          "internalType": "uint256",
          "name": "_keyPrice",
          "type": "uint256"
        },
        {
          "internalType": "address",
          "name": "_tokenAddress",
          "type": "address"
        }
      ],
      "name": "updateKeyPricing",
      "outputs": [],
      "payable": false,
      "stateMutability": "nonpayable",
      "type": "function"
    },
    {
      "constant": false,
      "inputs": [
        {
          "internalType": "string",
          "name": "_lockName",
          "type": "string"
        }
      ],
      "name": "updateLockName",
      "outputs": [],
      "payable": false,
      "stateMutability": "nonpayable",
      "type": "function"
    },
    {
      "constant": false,
      "inputs": [
        {
          "internalType": "string",
          "name": "_lockSymbol",
          "type": "string"
        }
      ],
      "name": "updateLockSymbol",
      "outputs": [],
      "payable": false,
      "stateMutability": "nonpayable",
      "type": "function"
    },
    {
      "constant": false,
      "inputs": [
        {
          "internalType": "uint256",
          "name": "_freeTrialLength",
          "type": "uint256"
        },
        {
          "internalType": "uint256",
          "name": "_refundPenaltyBasisPoints",
          "type": "uint256"
        }
      ],
      "name": "updateRefundPenalty",
      "outputs": [],
      "payable": false,
      "stateMutability": "nonpayable",
      "type": "function"
    },
    {
      "constant": false,
      "inputs": [
        {
          "internalType": "uint256",
          "name": "_transferFeeBasisPoints",
          "type": "uint256"
        }
      ],
      "name": "updateTransferFee",
      "outputs": [],
      "payable": false,
      "stateMutability": "nonpayable",
      "type": "function"
    },
    {
      "constant": false,
      "inputs": [
        {
          "internalType": "address",
          "name": "_tokenAddress",
          "type": "address"
        },
        {
          "internalType": "uint256",
          "name": "_amount",
          "type": "uint256"
        }
      ],
      "name": "withdraw",
      "outputs": [],
      "payable": false,
      "stateMutability": "nonpayable",
      "type": "function"
    },
    {
      "constant": false,
      "inputs": [
        {
          "internalType": "address",
          "name": "_lockCreator",
          "type": "address"
        },
        {
          "internalType": "uint256",
          "name": "_expirationDuration",
          "type": "uint256"
        },
        {
          "internalType": "address",
          "name": "_tokenAddress",
          "type": "address"
        },
        {
          "internalType": "uint256",
          "name": "_keyPrice",
          "type": "uint256"
        },
        {
          "internalType": "uint256",
          "name": "_maxNumberOfKeys",
          "type": "uint256"
        },
        {
          "internalType": "string",
          "name": "_lockName",
          "type": "string"
        }
      ],
      "name": "initialize",
      "outputs": [],
      "payable": false,
      "stateMutability": "nonpayable",
      "type": "function"
    },
    {
      "constant": false,
      "inputs": [],
      "name": "initialize",
      "outputs": [],
      "payable": false,
      "stateMutability": "nonpayable",
      "type": "function"
    }
  ],
  "bytecode": "0x608060405234801561001057600080fd5b50615b5a80620000216000396000f3fe6080604052600436106104105760003560e01c806370a082311161021e578063abdf82ce11610123578063d2503485116100ab578063f0ba60401161007a578063f0ba604014611405578063f12c6b6e1461141a578063f3fef3a314611459578063fc42b58f14611492578063fe72e4c1146114cb57610410565b8063d250348514611332578063d32bfb6c14611365578063d4fac45d1461138f578063e985e9c5146113ca57610410565b8063b585a6d5116100f2578063b585a6d5146111d4578063b88d4fde1461120d578063c1c98d03146112de578063c87b56dd146112f3578063d1bbd49c1461131d57610410565b8063abdf82ce146110df578063ad0e0a4d14611112578063b11d7ec11461114d578063b2e0f6e71461118657610410565b8063970aaeb7116101a6578063a22cb46511610175578063a22cb46514610fea578063a2e4cd2e14611025578063a375cb051461105e578063a9059cbb14611073578063aae4b8f7146110ac57610410565b8063970aaeb714610f3057806397aa390a14610f63578063994a8a7114610f9c5780639d76ea5814610fd557610410565b806381a3c943116101ed57806381a3c94314610d865780638577a6d514610ea15780638d0361fc14610ecb57806393fd184414610f0657806395d89b4114610f1b57610410565b806370a0823114610cae57806374b6c10614610ce1578063782a4ade14610cf65780638129fc1c14610d7157610410565b80632f745c59116103245780634f6ccce7116102ac578063564aa99d1161027b578063564aa99d14610b2d57806356e0d51f14610b605780636352211e14610b755780636d8ea5b414610b9f5780636eadde4314610bd257610410565b80634f6ccce714610a2257806352b0f63814610a4c57806352d6a8e414610a7f578063550ef3a814610ab257610410565b806339f46986116102f357806339f46986146108e25780633f33133a146109125780634136aa35146109a057806342842e0e146109b55780634d025fed146109f857610410565b80632f745c59146107ef57806330176e131461082857806335576ad0146108a357806338af3eed146108cd57610410565b806310803b72116103a7578063183767da11610376578063183767da1461073a578063217751bc1461074f57806323b872dd146107645780632af9162a146107a75780632d33dd5b146107da57610410565b806310803b721461067b57806310e56973146106fb57806311a4c03a1461071057806318160ddd1461072557610410565b8063095ea7b3116103e3578063095ea7b314610554578063097ba3331461058d5780630aaffd2a146106335780630f15023b1461066657610410565b806301ffc9a714610412578063025e7c271461045a57806306fdde03146104a0578063081812fc1461052a575b005b34801561041e57600080fd5b506104466004803603602081101561043557600080fd5b50356001600160e01b0319166114fe565b604080519115158252519081900360200190f35b34801561046657600080fd5b506104846004803603602081101561047d57600080fd5b5035611521565b604080516001600160a01b039092168252519081900360200190f35b3480156104ac57600080fd5b506104b5611548565b6040805160208082528351818301528351919283929083019185019080838360005b838110156104ef5781810151838201526020016104d7565b50505050905090810190601f16801561051c5780820380516001836020036101000a031916815260200191505b509250505060405180910390f35b34801561053657600080fd5b506104846004803603602081101561054d57600080fd5b50356115d6565b34801561056057600080fd5b506104106004803603604081101561057757600080fd5b506001600160a01b03813516906020013561164c565b34801561059957600080fd5b50610621600480360360608110156105b057600080fd5b6001600160a01b038235811692602081013590911691810190606081016040820135600160201b8111156105e357600080fd5b8201836020820111156105f557600080fd5b803590602001918460018302840111600160201b8311171561061657600080fd5b5090925090506117d3565b60408051918252519081900360200190f35b34801561063f57600080fd5b506104106004803603602081101561065657600080fd5b50356001600160a01b0316611822565b34801561067257600080fd5b506104846118ff565b34801561068757600080fd5b506106ab6004803603604081101561069e57600080fd5b508035906020013561190e565b60408051602080825283518183015283519192839290830191858101910280838360005b838110156106e75781810151838201526020016106cf565b505050509050019250505060405180910390f35b34801561070757600080fd5b506106216119de565b34801561071c57600080fd5b506106216119e4565b34801561073157600080fd5b506106216119ea565b34801561074657600080fd5b506106216119f1565b34801561075b57600080fd5b506104846119f7565b34801561077057600080fd5b506104106004803603606081101561078757600080fd5b506001600160a01b03813581169160208101359091169060400135611a06565b3480156107b357600080fd5b50610410600480360360208110156107ca57600080fd5b50356001600160a01b0316611d05565b3480156107e657600080fd5b50610484611d91565b3480156107fb57600080fd5b506106216004803603604081101561081257600080fd5b506001600160a01b038135169060200135611da0565b34801561083457600080fd5b506104106004803603602081101561084b57600080fd5b810190602081018135600160201b81111561086557600080fd5b82018360208201111561087757600080fd5b803590602001918460018302840111600160201b8311171561089857600080fd5b509092509050611dfe565b3480156108af57600080fd5b50610410600480360360208110156108c657600080fd5b5035611e53565b3480156108d957600080fd5b50610484611ef5565b3480156108ee57600080fd5b506104106004803603604081101561090557600080fd5b5080359060200135611f04565b6104106004803603608081101561092857600080fd5b8135916001600160a01b03602082013581169260408301359091169190810190608081016060820135600160201b81111561096257600080fd5b82018360208201111561097457600080fd5b803590602001918460018302840111600160201b8311171561099557600080fd5b509092509050611f8e565b3480156109ac57600080fd5b506104466124be565b3480156109c157600080fd5b50610410600480360360608110156109d857600080fd5b506001600160a01b038135811691602081013590911690604001356124ce565b348015610a0457600080fd5b5061048460048036036020811015610a1b57600080fd5b50356124e9565b348015610a2e57600080fd5b5061062160048036036020811015610a4557600080fd5b5035612504565b348015610a5857600080fd5b5061044660048036036020811015610a6f57600080fd5b50356001600160a01b031661254f565b348015610a8b57600080fd5b5061062160048036036020811015610aa257600080fd5b50356001600160a01b0316612562565b348015610abe57600080fd5b5061041060048036036020811015610ad557600080fd5b810190602081018135600160201b811115610aef57600080fd5b820183602082011115610b0157600080fd5b803590602001918460018302840111600160201b83111715610b2257600080fd5b50909250905061256d565b348015610b3957600080fd5b5061041060048036036020811015610b5057600080fd5b50356001600160a01b03166125bd565b348015610b6c57600080fd5b50610621612649565b348015610b8157600080fd5b5061048460048036036020811015610b9857600080fd5b503561264f565b348015610bab57600080fd5b5061044660048036036020811015610bc257600080fd5b50356001600160a01b031661266a565b348015610bde57600080fd5b50610410600480360360c0811015610bf557600080fd5b6001600160a01b03823581169260208101359260408201359092169160608201359160808101359181019060c0810160a0820135600160201b811115610c3a57600080fd5b820183602082011115610c4c57600080fd5b803590602001918460018302840111600160201b83111715610c6d57600080fd5b91908080601f01602080910402602001604051908101604052809392919081815260200183838082843760009201919091525092955061268a945050505050565b348015610cba57600080fd5b5061062160048036036020811015610cd157600080fd5b50356001600160a01b031661278a565b348015610ced57600080fd5b506106216127f9565b348015610d0257600080fd5b5061041060048036036020811015610d1957600080fd5b810190602081018135600160201b811115610d3357600080fd5b820183602082011115610d4557600080fd5b803590602001918460018302840111600160201b83111715610d6657600080fd5b5090925090506127ff565b348015610d7d57600080fd5b506104106128b4565b348015610d9257600080fd5b5061041060048036036060811015610da957600080fd5b810190602081018135600160201b811115610dc357600080fd5b820183602082011115610dd557600080fd5b803590602001918460208302840111600160201b83111715610df657600080fd5b919390929091602081019035600160201b811115610e1357600080fd5b820183602082011115610e2557600080fd5b803590602001918460208302840111600160201b83111715610e4657600080fd5b919390929091602081019035600160201b811115610e6357600080fd5b820183602082011115610e7557600080fd5b803590602001918460208302840111600160201b83111715610e9657600080fd5b509092509050612966565b348015610ead57600080fd5b5061041060048036036020811015610ec457600080fd5b5035612b73565b348015610ed757600080fd5b5061062160048036036040811015610eee57600080fd5b506001600160a01b0381358116916020013516612bef565b348015610f1257600080fd5b50610621612c7a565b348015610f2757600080fd5b506104b5612c80565b348015610f3c57600080fd5b5061062160048036036020811015610f5357600080fd5b50356001600160a01b0316612e6f565b348015610f6f57600080fd5b5061041060048036036040811015610f8657600080fd5b506001600160a01b038135169060200135612e8a565b348015610fa857600080fd5b5061044660048036036040811015610fbf57600080fd5b50803590602001356001600160a01b0316612f23565b348015610fe157600080fd5b50610484612f44565b348015610ff657600080fd5b506104106004803603604081101561100d57600080fd5b506001600160a01b0381351690602001351515612f53565b34801561103157600080fd5b506104106004803603604081101561104857600080fd5b50803590602001356001600160a01b031661305e565b34801561106a57600080fd5b5061062161322d565b34801561107f57600080fd5b506104466004803603604081101561109657600080fd5b506001600160a01b038135169060200135613233565b3480156110b857600080fd5b50610446600480360360208110156110cf57600080fd5b50356001600160a01b031661329a565b3480156110eb57600080fd5b506106216004803603602081101561110257600080fd5b50356001600160a01b03166132ad565b34801561111e57600080fd5b506104106004803603604081101561113557600080fd5b506001600160a01b03813581169160200135166132cb565b34801561115957600080fd5b506104106004803603604081101561117057600080fd5b50803590602001356001600160a01b0316613425565b34801561119257600080fd5b50610410600480360360a08110156111a957600080fd5b506001600160a01b038135169060ff60208201351690604081013590606081013590608001356134f2565b3480156111e057600080fd5b50610446600480360360408110156111f757600080fd5b506001600160a01b038135169060200135613642565b34801561121957600080fd5b506104106004803603608081101561123057600080fd5b6001600160a01b03823581169260208101359091169160408201359190810190608081016060820135600160201b81111561126a57600080fd5b82018360208201111561127c57600080fd5b803590602001918460018302840111600160201b8311171561129d57600080fd5b91908080601f01602080910402602001604051908101604052809392919081815260200183838082843760009201919091525092955061373c945050505050565b3480156112ea57600080fd5b506104106137aa565b3480156112ff57600080fd5b506104b56004803603602081101561131657600080fd5b5035613876565b34801561132957600080fd5b50610621613af0565b34801561133e57600080fd5b506104106004803603602081101561135557600080fd5b50356001600160a01b0316613af5565b34801561137157600080fd5b506104106004803603602081101561138857600080fd5b5035613b81565b34801561139b57600080fd5b50610621600480360360408110156113b257600080fd5b506001600160a01b0381358116916020013516613c27565b3480156113d657600080fd5b50610446600480360360408110156113ed57600080fd5b506001600160a01b0381358116916020013516613cd1565b34801561141157600080fd5b50610410613d66565b34801561142657600080fd5b506104106004803603606081101561143d57600080fd5b506001600160a01b038135169060208101359060400135613da4565b34801561146557600080fd5b506104106004803603604081101561147c57600080fd5b506001600160a01b03813516906020013561412a565b34801561149e57600080fd5b50610621600480360360408110156114b557600080fd5b506001600160a01b03813516906020013561426b565b3480156114d757600080fd5b50610621600480360360208110156114ee57600080fd5b50356001600160a01b03166142de565b6001600160e01b0319811660009081526033602052604090205460ff165b919050565b6074818154811061152e57fe5b6000918252602090912001546001600160a01b0316905081565b6078805460408051602060026001851615610100026000190190941693909304601f810184900484028201840190925281815292918301828280156115ce5780601f106115a3576101008083540402835291602001916115ce565b820191906000526020600020905b8154815290600101906020018083116115b157829003601f168201915b505050505081565b60008181526073602052604081205482906001600160a01b031661162f576040805162461bcd60e51b815260206004820152600b60248201526a4e4f5f535543485f4b455960a81b604482015290519081900360640190fd5b50506000908152607660205260409020546001600160a01b031690565b606954600160a01b900460ff1661169c576040805162461bcd60e51b815260206004820152600f60248201526e1313d0d2d7d11154149150d0551151608a1b604482015290519081900360640190fd5b806116a781336142f0565b806116b757506116b78133614352565b806116df57506000818152607360205260409020546116df906001600160a01b031633613cd1565b61171e576040805162461bcd60e51b815260206004820152601c60248201526000805160206159e2833981519152604482015290519081900360640190fd5b336001600160a01b038416141561176b576040805162461bcd60e51b815260206004820152600c60248201526b20a8282927ab22afa9a2a62360a11b604482015290519081900360640190fd5b600082815260766020908152604080832080546001600160a01b0319166001600160a01b038881169182179092556073909352818420549151869492909116917f8c5be1e5ebec7d5bd14f71427d1e84f3dd0314c0f7b2291e5b200ac8c7c3b92591a4505050565b6000611816858585858080601f01602080910402602001604051908101604052809392919081815260200183838082843760009201919091525061437392505050565b50909695505050505050565b606f546001600160a01b031633148061183f575061183f3361329a565b611890576040805162461bcd60e51b815260206004820152601f60248201527f4f4e4c595f42454e45464943494152595f4f525f4c4f434b4d414e4147455200604482015290519081900360640190fd5b6001600160a01b0381166118dd576040805162461bcd60e51b815260206004820152600f60248201526e494e56414c49445f4144445245535360881b604482015290519081900360640190fd5b606f80546001600160a01b0319166001600160a01b0392909216919091179055565b606a546001600160a01b031681565b607454606090829084820290600090828401111561193457506074548181039250611939565b508082015b606083604051908082528060200260200182016040528015611965578160200160208202803883390190505b5090506000835b838110156119cf576074818154811061198157fe5b9060005260206000200160009054906101000a90046001600160a01b03168383815181106119ab57fe5b6001600160a01b03909216602092830291909101909101526001918201910161196c565b50909450505050505b92915050565b606c5481565b606b5481565b606e545b90565b607b5481565b6071546001600160a01b031681565b606954600160a01b900460ff16611a56576040805162461bcd60e51b815260206004820152600f60248201526e1313d0d2d7d11154149150d0551151608a1b604482015290519081900360640190fd5b82611a608161266a565b611aa1576040805162461bcd60e51b815260206004820152600d60248201526c12d15657d393d517d590531251609a1b604482015290519081900360640190fd5b81611aac81336142f0565b80611abc5750611abc8133614352565b80611ae45750600081815260736020526040902054611ae4906001600160a01b031633613cd1565b611b23576040805162461bcd60e51b815260206004820152601c60248201526000805160206159e2833981519152604482015290519081900360640190fd5b611b2d8386612f23565b611b7e576040805162461bcd60e51b815260206004820152601c60248201527f5452414e534645525f46524f4d3a204e4f545f4b45595f4f574e455200000000604482015290519081900360640190fd5b612710607b5410611bcf576040805162461bcd60e51b815260206004820152601660248201527512d15657d514905394d1915494d7d11254d05093115160521b604482015290519081900360640190fd5b6001600160a01b038416611c1c576040805162461bcd60e51b815260206004820152600f60248201526e494e56414c49445f4144445245535360881b604482015290519081900360640190fd5b6000611c2986600061426b565b6001600160a01b03808816600090815260726020526040808220928916825281206001810154939450919290611c62908890869061457f565b8154611c7e57868255611c7588886146a1565b611c7e87614729565b428111611cac5760018084015490830155868255611c9d876000614764565b611ca788886146a1565b611cc9565b6001830154611cc39042830363ffffffff6147e616565b60018301555b426001840155600080845560405188916001600160a01b03808c1692908d1691600080516020615adc83398151915291a4505050505050505050565b611d0e3361329a565b611d495760405162461bcd60e51b815260040180806020018281038252603b81526020018061596d603b913960400191505060405180910390fd5b611d5a60678263ffffffff61484016565b6040516001600160a01b038216907f766f6199fea59554b9ff688e413302b9200f85d74811c053c12d945ac6d8dd7a90600090a250565b6070546001600160a01b031681565b60008115611dee576040805162461bcd60e51b815260206004820152601660248201527527a7262cafa7a722afa5a2acafa822a92fa7aba722a960511b604482015290519081900360640190fd5b611df783612e6f565b9392505050565b611e073361329a565b611e425760405162461bcd60e51b815260040180806020018281038252603b81526020018061596d603b913960400191505060405180910390fd5b611e4e607a8383615845565b505050565b336000908152606860205260409020548111611eab576040805162461bcd60e51b81526020600482015260126024820152711393d390d157d053149150511657d554d15160721b604482015290519081900360640190fd5b33600081815260686020908152604091829020849055815184815291517ff5d035b703f1ad8d403dd02e821d04257acafc5f6c5d70a3907bd8abf33a2e0f9281900390910190a250565b606f546001600160a01b031681565b611f0d3361329a565b611f485760405162461bcd60e51b815260040180806020018281038252603b81526020018061596d603b913960400191505060405180910390fd5b604080518381526020810183905281517fd6867bc538320e67d7bdc35860c27c08486eb490b4fd9b820fff18fb28381d3c929181900390910190a1607d91909155607c55565b606954600160a01b900460ff16611fde576040805162461bcd60e51b815260206004820152600f60248201526e1313d0d2d7d11154149150d0551151608a1b604482015290519081900360640190fd5b606e54606d5411612026576040805162461bcd60e51b815260206004820152600d60248201526c1313d0d2d7d4d3d31117d3d555609a1b604482015290519081900360640190fd5b6001600160a01b038416612073576040805162461bcd60e51b815260206004820152600f60248201526e494e56414c49445f4144445245535360881b604482015290519081900360640190fd5b6001600160a01b038416600090815260726020526040812080549091816120e35761209d836148a7565b825491506120ab87836146a1565b50606b5442016001830181905560405182906001600160a01b03891690600090600080516020615adc833981519152908290a46121ab565b428360010154111561215357606b5460018401546121069163ffffffff6147e616565b600184018190556040805182815290519192506001600160a01b038916917f872bd7c99ad5e7b6ed7f0a890f348839cb8e225c9deaa3909afedae54c93d17d9181900360200190a26121ab565b50606b5442016001830181905561216b826000614764565b6040805182815290516001600160a01b038916917f872bd7c99ad5e7b6ed7f0a890f348839cb8e225c9deaa3909afedae54c93d17d919081900360200190a25b60008060006121f18a8a8a8a8080601f01602080910402602001604051908101604052809392919081815260200183838082843760009201919091525061437392505050565b91945092509050811561226b57606a5460408051633652466360e01b8152600481018590526024810184905290516001600160a01b039092169163365246639160448082019260009290919082900301818387803b15801561225257600080fd5b505af1158015612266573d6000803e3d6000fd5b505050505b606a546001600160a01b031663939d9f1f846122868c61266a565b80156122a457508c6001600160a01b03168c6001600160a01b031614155b6122af5760006122b1565b8b5b6040518363ffffffff1660e01b815260040180838152602001826001600160a01b03166001600160a01b0316815260200192505050600060405180830381600087803b15801561230057600080fd5b505af1158015612314573d6000803e3d6000fd5b5050606954600092506001600160a01b031615905061235457506069548b906001600160a01b031661234e8133308563ffffffff6148bc16565b50612357565b50345b838110156123a1576040805162461bcd60e51b8152602060048201526012602482015271494e53554646494349454e545f56414c554560701b604482015290519081900360640190fd5b6070546001600160a01b0316156124b057607060009054906101000a90046001600160a01b03166001600160a01b03166398499657338d8d8d8d8a886040518863ffffffff1660e01b815260040180886001600160a01b03166001600160a01b03168152602001876001600160a01b03166001600160a01b03168152602001866001600160a01b03166001600160a01b03168152602001806020018481526020018381526020018281038252868682818152602001925080828437600081840152601f19601f82011690508083019250505098505050505050505050600060405180830381600087803b15801561249757600080fd5b505af11580156124ab573d6000803e3d6000fd5b505050505b505050505050505050505050565b606954600160a01b900460ff1681565b611e4e8383836040518060200160405280600081525061373c565b6075602052600090815260409020546001600160a01b031681565b6000606e54821061254b576040805162461bcd60e51b815260206004820152600c60248201526b4f55545f4f465f52414e474560a01b604482015290519081900360640190fd5b5090565b60006119d860678363ffffffff61491616565b60006119d88261497d565b6125763361329a565b6125b15760405162461bcd60e51b815260040180806020018281038252603b81526020018061596d603b913960400191505060405180910390fd5b611e4e60788383615845565b6125c63361329a565b6126015760405162461bcd60e51b815260040180806020018281038252603b81526020018061596d603b913960400191505060405180910390fd5b61261260678263ffffffff614a8416565b6040516001600160a01b038216907f684f8a71407db0c334454ebe9c9b288549317893a20b10dc779ec5c118dcd12190600090a250565b607c5481565b6000908152607360205260409020546001600160a01b031690565b6001600160a01b0316600090815260726020526040902060010154421090565b600054610100900460ff16806126a357506126a3614b05565b806126b1575060005460ff16155b6126ec5760405162461bcd60e51b815260040180806020018281038252602e815260200180615aae602e913960400191505060405180910390fd5b600054610100900460ff16158015612717576000805460ff1961ff0019909116610100171660011790555b61272085614b0b565b612728614bda565b61273487878686614bef565b61273d82614c85565b612745614cb1565b61274d614cc3565b61275687614ccb565b61275f87614ce9565b61276f6380ac58cd60e01b614d07565b8015612781576000805461ff00191690555b50505050505050565b60006001600160a01b0382166127d9576040805162461bcd60e51b815260206004820152600f60248201526e494e56414c49445f4144445245535360881b604482015290519081900360640190fd5b6127e28261266a565b6127ed5760006127f0565b60015b60ff1692915050565b606d5481565b6128083361329a565b6128435760405162461bcd60e51b815260040180806020018281038252603b81526020018061596d603b913960400191505060405180910390fd5b61284f60798383615845565b507f8868e22e84ebf32da89b2ebcb0ac642816304ea3863b257f240df9098719cb97828260405180806020018281038252848482818152602001925080828437600083820152604051601f909101601f19169092018290039550909350505050a15050565b600054610100900460ff16806128cd57506128cd614b05565b806128db575060005460ff16155b6129165760405162461bcd60e51b815260040180806020018281038252602e815260200180615aae602e913960400191505060405180910390fd5b600054610100900460ff16158015612941576000805460ff1961ff0019909116610100171660011790555b6129516301ffc9a760e01b614d07565b8015612963576000805461ff00191690555b50565b61296f3361254f565b8061297e575061297e3361329a565b6129b95760405162461bcd60e51b8152600401808060200182810382526048815260200180615a026048913960600191505060405180910390fd5b60005b858110156127815760008787838181106129d257fe5b905060200201356001600160a01b0316905060008686848181106129f257fe5b9050602002013590506000858585818110612a0957fe5b905060200201356001600160a01b0316905060006001600160a01b0316836001600160a01b03161415612a75576040805162461bcd60e51b815260206004820152600f60248201526e494e56414c49445f4144445245535360881b604482015290519081900360640190fd5b6001600160a01b038316600090815260726020526040902060018101548311612ad8576040805162461bcd60e51b815260206004820152601060248201526f414c52454144595f4f574e535f4b455960801b604482015290519081900360640190fd5b805480612af557612ae8826148a7565b508054612af585826146a1565b612aff8184614764565b6040516001600160a01b0384169082907f9d2895c45a420624de863a2f437b022d879f457bf7a829044055a10c5a6fd5e390600090a36001820184905560405181906001600160a01b03871690600090600080516020615adc833981519152908290a45050600190930192506129bc915050565b612b7c3361329a565b612bb75760405162461bcd60e51b815260040180806020018281038252603b81526020018061596d603b913960400191505060405180910390fd5b6040805182815290517f0496ed1e61eb69727f9659a8e859288db4758ffb1f744d1c1424634f90a257f49181900360200190a1607b55565b600030604051808061594860259139604080519182900360250182206001600160a01b03881660009081526068602081815291849020546bffffffffffffffffffffffff19606098891b811684880152603487019490945260548601529588901b90911660748401528151808403909501855260889092019052825192019190912091505092915050565b60745490565b60795460609060026000196101006001841615020190911604612ddd57606a60009054906101000a90046001600160a01b03166001600160a01b031663cec410526040518163ffffffff1660e01b815260040160006040518083038186803b158015612ceb57600080fd5b505afa158015612cff573d6000803e3d6000fd5b505050506040513d6000823e601f3d908101601f191682016040526020811015612d2857600080fd5b8101908080516040519392919084600160201b821115612d4757600080fd5b908301906020820185811115612d5c57600080fd5b8251600160201b811182820188101715612d7557600080fd5b82525081516020918201929091019080838360005b83811015612da2578181015183820152602001612d8a565b50505050905090810190601f168015612dcf5780820380516001836020036101000a031916815260200191505b5060405250505090506119ee565b6079805460408051602060026001851615610100026000190190941693909304601f81018490048402820184019092528181529291830182828015612e635780601f10612e3857610100808354040283529160200191612e63565b820191906000526020600020905b815481529060010190602001808311612e4657829003601f168201915b505050505090506119ee565b6001600160a01b031660009081526072602052604090205490565b612e933361329a565b612ece5760405162461bcd60e51b815260040180806020018281038252603b81526020018061596d603b913960400191505060405180910390fd5b81612ed88161266a565b612f19576040805162461bcd60e51b815260206004820152600d60248201526c12d15657d393d517d590531251609a1b604482015290519081900360640190fd5b611e4e8383614d8b565b600091825260736020526040909120546001600160a01b0391821691161490565b6069546001600160a01b031681565b606954600160a01b900460ff16612fa3576040805162461bcd60e51b815260206004820152600f60248201526e1313d0d2d7d11154149150d0551151608a1b604482015290519081900360640190fd5b6001600160a01b038216331415612ff0576040805162461bcd60e51b815260206004820152600c60248201526b20a8282927ab22afa9a2a62360a11b604482015290519081900360640190fd5b3360008181526077602090815260408083206001600160a01b03871680855290835292819020805460ff1916861515908117909155815190815290519293927f17307eab39ab6107e8899845ad3d59bd9653f200f220920489ca2b5937696c31929181900390910190a35050565b6130673361329a565b6130a25760405162461bcd60e51b815260040180806020018281038252603b81526020018061596d603b913960400191505060405180910390fd5b606954600160a01b900460ff166130f2576040805162461bcd60e51b815260206004820152600f60248201526e1313d0d2d7d11154149150d0551151608a1b604482015290519081900360640190fd5b606c546069546001600160a01b03908116908316158061317657506000836001600160a01b03166318160ddd6040518163ffffffff1660e01b815260040160206040518083038186803b15801561314857600080fd5b505afa15801561315c573d6000803e3d6000fd5b505050506040513d602081101561317257600080fd5b5051115b6131b7576040805162461bcd60e51b815260206004820152600d60248201526c24a72b20a624a22faa27a5a2a760991b604482015290519081900360640190fd5b606c849055606980546001600160a01b0319166001600160a01b038581169190911791829055604080518581526020810188905284831681830152929091166060830152517f3615065ccf48367ac483ac86701248e2e5ff55bdd9be845007d34a3b68d719d4916080908290030190a150505050565b607d5481565b606b54336000908152607260205260408120600181015491928402918390613261904263ffffffff614e8616565b90508083101561327f5761327a86836000015485613da4565b61328e565b61328e33878460000154611a06565b50600195945050505050565b60006119d860668363ffffffff61491616565b6001600160a01b031660009081526072602052604090206001015490565b6132d43361329a565b61330f5760405162461bcd60e51b815260040180806020018281038252603b81526020018061596d603b913960400191505060405180910390fd5b6001600160a01b03821615806133325750613332826001600160a01b0316614ec8565b613383576040805162461bcd60e51b815260206004820152601860248201527f494e56414c49445f4f4e5f4b45595f534f4c445f484f4f4b0000000000000000604482015290519081900360640190fd5b6001600160a01b03811615806133a657506133a6816001600160a01b0316614ec8565b6133f7576040805162461bcd60e51b815260206004820152601a60248201527f494e56414c49445f4f4e5f4b45595f43414e43454c5f484f4f4b000000000000604482015290519081900360640190fd5b607080546001600160a01b039384166001600160a01b03199182161790915560718054929093169116179055565b60008281526073602052604090205482906001600160a01b031661347e576040805162461bcd60e51b815260206004820152600b60248201526a4e4f5f535543485f4b455960a81b604482015290519081900360640190fd5b61348883336142f0565b8061349757506134973361329a565b6134e8576040805162461bcd60e51b815260206004820152601f60248201527f554e415554484f52495a45445f4b45595f4d414e414745525f55504441544500604482015290519081900360640190fd5b611e4e8383614764565b6134fc8533612bef565b85858585836001600160a01b0316600161351587614f04565b85858560405160008152602001604052604051808581526020018460ff1660ff1681526020018381526020018281526020019450505050506020604051602081039080840390855afa15801561356f573d6000803e3d6000fd5b505050602060405103516001600160a01b0316146135c8576040805162461bcd60e51b8152602060048201526011602482015270494e56414c49445f5349474e415455524560781b604482015290519081900360640190fd5b6001600160a01b038416600081815260686020908152604091829020805460010190819055825190815291517ff5d035b703f1ad8d403dd02e821d04257acafc5f6c5d70a3907bd8abf33a2e0f9281900390910190a260006136298761264f565b905060006136368261497d565b90506124b08282614d8b565b600061364d3361329a565b806136625750606f546001600160a01b031633145b6136b3576040805162461bcd60e51b815260206004820181905260248201527f4f4e4c595f4c4f434b5f4d414e414745525f4f525f42454e4546494349415259604482015290519081900360640190fd5b6069546040805163095ea7b360e01b81526001600160a01b038681166004830152602482018690529151919092169163095ea7b39160448083019260209291908290030181600087803b15801561370957600080fd5b505af115801561371d573d6000803e3d6000fd5b505050506040513d602081101561373357600080fd5b50519392505050565b613747848484611a06565b61375384848484614f55565b6137a4576040805162461bcd60e51b815260206004820152601d60248201527f4e4f4e5f434f4d504c49414e545f4552433732315f5245434549564552000000604482015290519081900360640190fd5b50505050565b6137b33361329a565b6137ee5760405162461bcd60e51b815260040180806020018281038252603b81526020018061596d603b913960400191505060405180910390fd5b606954600160a01b900460ff1661383e576040805162461bcd60e51b815260206004820152600f60248201526e1313d0d2d7d11154149150d0551151608a1b604482015290519081900360640190fd5b6040517f25a311358326fb18c62efc24bc28d3126acee8d2a67fd8b2145b757dc8bd1bc190600090a16069805460ff60a01b19169055565b606080808061388430615088565b90506060851561389e5761389786615204565b92506138b1565b6040518060200160405280600081525092505b607a5460026000196101006001841615020190911604613a2257606a60009054906101000a90046001600160a01b03166001600160a01b031663a998e9fb6040518163ffffffff1660e01b815260040160006040518083038186803b15801561391957600080fd5b505afa15801561392d573d6000803e3d6000fd5b505050506040513d6000823e601f3d908101601f19168201604052602081101561395657600080fd5b8101908080516040519392919084600160201b82111561397557600080fd5b90830190602082018581111561398a57600080fd5b8251600160201b8111828201881017156139a357600080fd5b82525081516020918201929091019080838360005b838110156139d05781810151838201526020016139b8565b50505050905090810190601f1680156139fd5780820380516001836020036101000a031916815260200191505b506040818101905260018152602f60f81b6020820152939750929350613ad492505050565b607a805460408051602060026001851615610100026000190190941693909304601f81018490048402820184019092528181529291830182828015613aa85780601f10613a7d57610100808354040283529160200191613aa8565b820191906000526020600020905b815481529060010190602001808311613a8b57829003601f168201915b505050505093506040518060200160405280600081525090506040518060200160405280600081525091505b613ae68483838663ffffffff6152c816565b9695505050505050565b600890565b613afe3361329a565b613b395760405162461bcd60e51b815260040180806020018281038252603b81526020018061596d603b913960400191505060405180910390fd5b613b4a60668263ffffffff614a8416565b6040516001600160a01b038216907f91d5c045d5bd98bf59a379b259ebca05b93bf79af1845fdf87e3172385d4c7f790600090a250565b80613b8c81336142f0565b80613b9c5750613b9c8133614352565b80613bc45750600081815260736020526040902054613bc4906001600160a01b031633613cd1565b613c03576040805162461bcd60e51b815260206004820152601c60248201526000805160206159e2833981519152604482015290519081900360640190fd5b6000613c0e8361264f565b90506000613c1b8261497d565b90506137a48282614d8b565b60006001600160a01b038316613c4857506001600160a01b038116316119d8565b826001600160a01b03166370a08231836040518263ffffffff1660e01b815260040180826001600160a01b03166001600160a01b0316815260200191505060206040518083038186803b158015613c9e57600080fd5b505afa158015613cb2573d6000803e3d6000fd5b505050506040513d6020811015613cc857600080fd5b505190506119d8565b6001600160a01b038083166000908152607260209081526040808320548084526075909252822054919290911680613d34575050506001600160a01b0380831660009081526077602090815260408083209385168352929052205460ff166119d8565b6001600160a01b0390811660009081526077602090815260408083209387168352929052205460ff1691506119d89050565b613d7760663363ffffffff61484016565b60405133907f42885193b8178d25fca25a38e6fcc93918501e91be06d85e0c8afb3bad95238090600090a2565b606954600160a01b900460ff16613df4576040805162461bcd60e51b815260206004820152600f60248201526e1313d0d2d7d11154149150d0551151608a1b604482015290519081900360640190fd5b81613dff81336142f0565b80613e0f5750613e0f8133614352565b80613e375750600081815260736020526040902054613e37906001600160a01b031633613cd1565b613e76576040805162461bcd60e51b815260206004820152601c60248201526000805160206159e2833981519152604482015290519081900360640190fd5b612710607b5410613ec7576040805162461bcd60e51b815260206004820152601660248201527512d15657d514905394d1915494d7d11254d05093115160521b604482015290519081900360640190fd5b6001600160a01b038416613f14576040805162461bcd60e51b815260206004820152600f60248201526e494e56414c49445f4144445245535360881b604482015290519081900360640190fd5b6000838152607360205260409020546001600160a01b0316613f358161266a565b613f76576040805162461bcd60e51b815260206004820152600d60248201526c12d15657d393d517d590531251609a1b604482015290519081900360640190fd5b6001600160a01b0380821660009081526072602052604080822092881682528120805460018401549192909142900381613fb0878a61426b565b90506000613fc48a8363ffffffff6147e616565b905082811015613fe257899350613fdd8b82600061457f565b614026565b613fec888461426b565b42600189015560405181850395509092508b907f59f2fe866dd27a1c2d34115520888c3150365cbc931aab97fa88c4b9ab40b79590600090a25b8461406d57614034866148a7565b855494506140428c866146a1565b60405185906001600160a01b038e1690600090600080516020615adc833981519152908290a4614083565b4286600101541161408357614083856000614764565b61408f8585600161457f565b848c6001600160a01b0316896001600160a01b0316600080516020615adc83398151915260405160405180910390a46140d9888d8d60405180602001604052806000815250614f55565b6124b0576040805162461bcd60e51b815260206004820152601d60248201527f4e4f4e5f434f4d504c49414e545f4552433732315f5245434549564552000000604482015290519081900360640190fd5b6141333361329a565b806141485750606f546001600160a01b031633145b614199576040805162461bcd60e51b815260206004820181905260248201527f4f4e4c595f4c4f434b5f4d414e414745525f4f525f42454e4546494349415259604482015290519081900360640190fd5b60006141a58330613c27565b905060008215806141b557508183115b156142095760008211614202576040805162461bcd60e51b815260206004820152601060248201526f4e4f545f454e4f5547485f46554e445360801b604482015290519081900360640190fd5b508061420c565b50815b606f546040805183815290516001600160a01b039283169287169133917f342e7ff505a8a0364cd0dc2ff195c315e43bce86b204846ecd36913e117b109e9181900360200190a4606f546137a49085906001600160a01b031683615419565b60006142768361266a565b614282575060006119d8565b6001600160a01b03831660009081526072602052604081209080846142af574283600101540391506142b3565b8491505b6127106142cb607b548461546690919063ffffffff16565b816142d257fe5b0493506119d892505050565b60686020526000908152604090205481565b6000828152607560205260408120546001600160a01b038381169116148061433d57506000838152607560205260409020546001600160a01b031615801561433d575061433d8383612f23565b1561434a575060016119d8565b5060006119d8565b600091825260766020526040909120546001600160a01b0391821691161490565b607054600090819081906001600160a01b0316156144875760705460405163221c1fd160e01b815233600482018181526001600160a01b038a811660248501528981166044850152608060648501908152895160848601528951919095169463221c1fd1948c938c938c93919260a40190602085019080838360005b838110156144075781810151838201526020016143ef565b50505050905090810190601f1680156144345780820380516001836020036101000a031916815260200191505b509550505050505060206040518083038186803b15801561445457600080fd5b505afa158015614468573d6000803e3d6000fd5b505050506040513d602081101561447e57600080fd5b5051925061448d565b606c5492505b821561457657606a5460408051630cb175e360e01b81526001600160a01b038981166004830152602482018790528251931692630cb175e392604480840193919291829003018186803b1580156144e357600080fd5b505afa1580156144f7573d6000803e3d6000fd5b505050506040513d604081101561450d57600080fd5b508051602090910151909250905082821115614570576040805162461bcd60e51b815260206004820152601c60248201527f494e56414c49445f444953434f554e545f46524f4d5f554e4c4f434b00000000604482015290519081900360640190fd5b81830392505b93509350939050565b6000838152607360205260409020546001600160a01b0316806145dc576040805162461bcd60e51b815260206004820152601060248201526f4e4f4e5f4558495354454e545f4b455960801b604482015290519081900360640190fd5b6001600160a01b0381166000908152607260205260408120600181015490916146048461266a565b9050841561464757801561462c57614622828763ffffffff6147e616565b6001840155614642565b61463c428763ffffffff6147e616565b60018401555b61465d565b614657828763ffffffff614e8616565b60018401555b604080518781528615156020820152815189927fe9408df99703ae33a9d01185bcad328ea8683fb1f920da9c30959c192f21b5b3928290030190a250505050505050565b6000818152607360205260409020546001600160a01b038381169116146147255760748054600181019091557f19a0b39aa25ac793b5f6e9a0534364cc0b3fd1ea9b651e79c7f50a59d48ef8130180546001600160a01b0384166001600160a01b031991821681179092556000838152607360205260409020805490911690911790555b5050565b6000818152607660205260409020546001600160a01b03161561296357600090815260766020526040902080546001600160a01b0319169055565b6000828152607560205260409020546001600160a01b0382811691161461472557600082815260756020526040902080546001600160a01b0319166001600160a01b0383161790556147b582614729565b60405160009083907f9d2895c45a420624de863a2f437b022d879f457bf7a829044055a10c5a6fd5e3908390a35050565b600082820183811015611df7576040805162461bcd60e51b815260206004820152601b60248201527f536166654d6174683a206164646974696f6e206f766572666c6f770000000000604482015290519081900360640190fd5b61484a8282614916565b6148855760405162461bcd60e51b8152600401808060200182810382526021815260200180615a4a6021913960400191505060405180910390fd5b6001600160a01b0316600090815260209190915260409020805460ff19169055565b805461296357606e8054600101908190559055565b604080516001600160a01b0385811660248301528416604482015260648082018490528251808303909101815260849091019091526020810180516001600160e01b03166323b872dd60e01b1790526137a49085906154bf565b60006001600160a01b03821661495d5760405162461bcd60e51b8152600401808060200182810382526022815260200180615a8c6022913960400191505060405180910390fd5b506001600160a01b03166000908152602091909152604090205460ff1690565b6000816149898161266a565b6149ca576040805162461bcd60e51b815260206004820152600d60248201526c12d15657d393d517d590531251609a1b604482015290519081900360640190fd5b6001600160a01b03831660009081526072602052604090206001810154606b54607d544290920391820110614a0357606c549350614a24565b606b54606c54614a19908363ffffffff61546616565b81614a2057fe5b0493505b607d541580614a385750606b54607d548201105b15614a7c576000612710614a59607c54606c5461546690919063ffffffff16565b81614a6057fe5b04905080851115614a75578085039450614a7a565b600094505b505b505050919050565b614a8e8282614916565b15614ae0576040805162461bcd60e51b815260206004820152601f60248201527f526f6c65733a206163636f756e7420616c72656164792068617320726f6c6500604482015290519081900360640190fd5b6001600160a01b0316600090815260209190915260409020805460ff19166001179055565b303b1590565b606980546001600160a01b0319166001600160a01b0383169081179091551580614b9957506000816001600160a01b03166318160ddd6040518163ffffffff1660e01b815260040160206040518083038186803b158015614b6b57600080fd5b505afa158015614b7f573d6000803e3d6000fd5b505050506040513d6020811015614b9557600080fd5b5051115b612963576040805162461bcd60e51b815260206004820152600d60248201526c24a72b20a624a22faa27a5a2a760991b604482015290519081900360640190fd5b6069805460ff60a01b1916600160a01b179055565b63bbf81e00831115614c48576040805162461bcd60e51b815260206004820152601860248201527f4d41585f45585049524154494f4e5f3130305f59454152530000000000000000604482015290519081900360640190fd5b606a8054336001600160a01b031991821617909155606f80549091166001600160a01b039590951694909417909355606b91909155606c55606d55565b614c8d6128b4565b8051614ca09060789060208401906158bf565b50612963635b5e139f60e01b614d07565b614cc163780e9d6360e01b614d07565b565b6103e8607c55565b614cd48161329a565b6129635761296360668263ffffffff614a8416565b614cf28161254f565b6129635761296360678263ffffffff614a8416565b6001600160e01b03198082161415614d66576040805162461bcd60e51b815260206004820152601c60248201527f4552433136353a20696e76616c696420696e7465726661636520696400000000604482015290519081900360640190fd5b6001600160e01b0319166000908152603360205260409020805460ff19166001179055565b6001600160a01b03821660008181526072602090815260409182902080548351868152935191943394909391927f0a7068a9989857441c039a14a42b67ed71dd1fcfe5a9b17cc87b252e47bce528929181900390910190a44260018201558115614e0657606954614e06906001600160a01b03168484615419565b6071546001600160a01b031615611e4e576071546040805163b499b6c560e01b81523360048201526001600160a01b038681166024830152604482018690529151919092169163b499b6c591606480830192600092919082900301818387803b158015614e7257600080fd5b505af1158015612781573d6000803e3d6000fd5b6000611df783836040518060400160405280601e81526020017f536166654d6174683a207375627472616374696f6e206f766572666c6f770000815250615677565b6000813f7fc5d2460186f7233c927e7db2dcc703c0e500b653ca82273b7bfad8045d85a470818114801590614efc57508115155b949350505050565b604080517f19457468657265756d205369676e6564204d6573736167653a0a333200000000602080830191909152603c8083019490945282518083039094018452605c909101909152815191012090565b6000614f69846001600160a01b0316614ec8565b614f7557506001614efc565b604051630a85bd0160e11b815233600482018181526001600160a01b03888116602485015260448401879052608060648501908152865160848601528651600095928a169463150b7a029490938c938b938b939260a4019060208501908083838e5b83811015614fef578181015183820152602001614fd7565b50505050905090810190601f16801561501c5780820380516001836020036101000a031916815260200191505b5095505050505050602060405180830381600087803b15801561503e57600080fd5b505af1158015615052573d6000803e3d6000fd5b505050506040513d602081101561506857600080fd5b50516001600160e01b031916630a85bd0160e11b14915050949350505050565b604080518082018252601081526f181899199a1a9b1b9c1cb0b131b232b360811b60208201528151602a80825260608281019094526001600160a01b03851692918491602082018180388339019050509050600360fc1b816000815181106150ec57fe5b60200101906001600160f81b031916908160001a905350600f60fb1b8160018151811061511557fe5b60200101906001600160f81b031916908160001a90535060005b60148110156151fb578260048583600c016020811061514a57fe5b1a60f81b6001600160f81b031916901c60f81c60ff168151811061516a57fe5b602001015160f81c60f81b82826002026002018151811061518757fe5b60200101906001600160f81b031916908160001a905350828482600c01602081106151ae57fe5b825191901a600f169081106151bf57fe5b602001015160f81c60f81b8282600202600301815181106151dc57fe5b60200101906001600160f81b031916908160001a90535060010161512f565b50949350505050565b6060818061522b5750506040805180820190915260018152600360fc1b602082015261151c565b8260005b811561524357600101600a8204915061522f565b6060816040519080825280601f01601f191660200182016040528015615270576020820181803883390190505b50905060001982015b84156152be57600a850660300160f81b8282806001900393508151811061529c57fe5b60200101906001600160f81b031916908160001a905350600a85049450615279565b5095945050505050565b6060848484846040516020018085805190602001908083835b602083106153005780518252601f1990920191602091820191016152e1565b51815160209384036101000a600019018019909216911617905287519190930192870191508083835b602083106153485780518252601f199092019160209182019101615329565b51815160209384036101000a600019018019909216911617905286519190930192860191508083835b602083106153905780518252601f199092019160209182019101615371565b51815160209384036101000a600019018019909216911617905285519190930192850191508083835b602083106153d85780518252601f1990920191602091820191016153b9565b6001836020036101000a0380198251168184511680821785525050505050509050019450505050506040516020818303038152906040529050949350505050565b8015611e4e576001600160a01b03831661544b576154466001600160a01b0383168263ffffffff61570e16565b611e4e565b826137a46001600160a01b038216848463ffffffff6157f316565b600082615475575060006119d8565b8282028284828161548257fe5b0414611df75760405162461bcd60e51b8152600401808060200182810382526021815260200180615a6b6021913960400191505060405180910390fd5b6154d1826001600160a01b0316614ec8565b615522576040805162461bcd60e51b815260206004820152601f60248201527f5361666545524332303a2063616c6c20746f206e6f6e2d636f6e747261637400604482015290519081900360640190fd5b60006060836001600160a01b0316836040518082805190602001908083835b602083106155605780518252601f199092019160209182019101615541565b6001836020036101000a0380198251168184511680821785525050505050509050019150506000604051808303816000865af19150503d80600081146155c2576040519150601f19603f3d011682016040523d82523d6000602084013e6155c7565b606091505b50915091508161561e576040805162461bcd60e51b815260206004820181905260248201527f5361666545524332303a206c6f772d6c6576656c2063616c6c206661696c6564604482015290519081900360640190fd5b8051156137a45780806020019051602081101561563a57600080fd5b50516137a45760405162461bcd60e51b815260040180806020018281038252602a815260200180615afc602a913960400191505060405180910390fd5b600081848411156157065760405162461bcd60e51b81526004018080602001828103825283818151815260200191508051906020019080838360005b838110156156cb5781810151838201526020016156b3565b50505050905090810190601f1680156156f85780820380516001836020036101000a031916815260200191505b509250505060405180910390fd5b505050900390565b80471015615763576040805162461bcd60e51b815260206004820152601d60248201527f416464726573733a20696e73756666696369656e742062616c616e6365000000604482015290519081900360640190fd5b6040516000906001600160a01b0384169083908381818185875af1925050503d80600081146157ae576040519150601f19603f3d011682016040523d82523d6000602084013e6157b3565b606091505b5050905080611e4e5760405162461bcd60e51b815260040180806020018281038252603a8152602001806159a8603a913960400191505060405180910390fd5b604080516001600160a01b038416602482015260448082018490528251808303909101815260649091019091526020810180516001600160e01b031663a9059cbb60e01b179052611e4e9084906154bf565b828054600181600116156101000203166002900490600052602060002090601f016020900481019282601f106158865782800160ff198235161785556158b3565b828001600101855582156158b3579182015b828111156158b3578235825591602001919060010190615898565b5061254b92915061592d565b828054600181600116156101000203166002900490600052602060002090601f016020900481019282601f1061590057805160ff19168380011785556158b3565b828001600101855582156158b3579182015b828111156158b3578251825591602001919060010190615912565b6119ee91905b8082111561254b576000815560010161593356fe63616e63656c416e64526566756e64466f722861646472657373205f6b65794f776e6572294d6978696e4c6f636b4d616e616765723a2063616c6c657220646f6573206e6f74206861766520746865204c6f636b4d616e6167657220726f6c65416464726573733a20756e61626c6520746f2073656e642076616c75652c20726563697069656e74206d617920686176652072657665727465644f4e4c595f4b45595f4d414e414745525f4f525f415050524f564544000000004d6978696e4b65794772616e7465723a2063616c6c657220646f6573206e6f74206861766520746865204b65794772616e746572206f72204c6f636b4d616e6167657220726f6c65526f6c65733a206163636f756e7420646f6573206e6f74206861766520726f6c65536166654d6174683a206d756c7469706c69636174696f6e206f766572666c6f77526f6c65733a206163636f756e7420697320746865207a65726f2061646472657373436f6e747261637420696e7374616e63652068617320616c7265616479206265656e20696e697469616c697a6564ddf252ad1be2c89b69c2b068fc378daa952ba7f163c4a11628f55a4df523b3ef5361666545524332303a204552433230206f7065726174696f6e20646964206e6f742073756363656564a265627a7a723158209749e0c6496e968cb0d91da8eb9608ffcbbdceecce35d34911522be79830c67764736f6c63430005110032",
  "source": "pragma solidity 0.5.17;\r\n\r\n\r\nimport './interfaces/IPublicLock.sol';\r\nimport '@openzeppelin/upgrades/contracts/Initializable.sol';\r\nimport '@openzeppelin/contracts-ethereum-package/contracts/introspection/ERC165.sol';\r\nimport './mixins/MixinDisable.sol';\r\nimport './mixins/MixinERC721Enumerable.sol';\r\nimport './mixins/MixinFunds.sol';\r\nimport './mixins/MixinGrantKeys.sol';\r\nimport './mixins/MixinKeys.sol';\r\nimport './mixins/MixinLockCore.sol';\r\nimport './mixins/MixinLockMetadata.sol';\r\nimport './mixins/MixinPurchase.sol';\r\nimport './mixins/MixinRefunds.sol';\r\nimport './mixins/MixinTransfer.sol';\r\nimport './mixins/MixinSignatures.sol';\r\nimport './mixins/MixinLockManagerRole.sol';\r\nimport './mixins/MixinKeyGranterRole.sol';\r\n\r\n\r\n/**\r\n * @title The Lock contract\r\n * @author Julien Genestoux (unlock-protocol.com)\r\n * @dev ERC165 allows our contract to be queried to determine whether it implements a given interface.\r\n * Every ERC-721 compliant contract must implement the ERC165 interface.\r\n * https://eips.ethereum.org/EIPS/eip-721\r\n */\r\ncontract PublicLock is\r\n  IPublicLock,\r\n  Initializable,\r\n  ERC165,\r\n  MixinLockManagerRole,\r\n  MixinKeyGranterRole,\r\n  MixinSignatures,\r\n  MixinFunds,\r\n  MixinDisable,\r\n  MixinLockCore,\r\n  MixinKeys,\r\n  MixinLockMetadata,\r\n  MixinERC721Enumerable,\r\n  MixinGrantKeys,\r\n  MixinPurchase,\r\n  MixinTransfer,\r\n  MixinRefunds\r\n{\r\n  function initialize(\r\n    address _lockCreator,\r\n    uint _expirationDuration,\r\n    address _tokenAddress,\r\n    uint _keyPrice,\r\n    uint _maxNumberOfKeys,\r\n    string memory _lockName\r\n  ) public\r\n    initializer()\r\n  {\r\n    MixinFunds._initializeMixinFunds(_tokenAddress);\r\n    MixinDisable._initializeMixinDisable();\r\n    MixinLockCore._initializeMixinLockCore(_lockCreator, _expirationDuration, _keyPrice, _maxNumberOfKeys);\r\n    MixinLockMetadata._initializeMixinLockMetadata(_lockName);\r\n    MixinERC721Enumerable._initializeMixinERC721Enumerable();\r\n    MixinRefunds._initializeMixinRefunds();\r\n    MixinLockManagerRole._initializeMixinLockManagerRole(_lockCreator);\r\n    MixinKeyGranterRole._initializeMixinKeyGranterRole(_lockCreator);\r\n    // registering the interface for erc721 with ERC165.sol using\r\n    // the ID specified in the standard: https://eips.ethereum.org/EIPS/eip-721\r\n    _registerInterface(0x80ac58cd);\r\n  }\r\n\r\n  /**\r\n   * @notice Allow the contract to accept tips in ETH sent directly to the contract.\r\n   * @dev This is okay to use even if the lock is priced in ERC-20 tokens\r\n   */\r\n  function() external payable {}\r\n}\r\n",
  "sourcePath": "D:\\unlock\\smart-contracts\\contracts\\PublicLock.sol",
  "compiler": {
    "name": "solc",
    "version": "0.5.17+commit.d19bba13.Emscripten.clang"
  },
  "schemaVersion": "3.2.0",
  "updatedAt": "2020-07-11T18:54:37.073Z",
  "devdoc": {
    "author": "Julien Genestoux (unlock-protocol.com)",
    "details": "ERC165 allows our contract to be queried to determine whether it implements a given interface. Every ERC-721 compliant contract must implement the ERC165 interface. https://eips.ethereum.org/EIPS/eip-721",
    "methods": {
      "balanceOf(address)": {
        "return": "The number of NFTs owned by `_keyOwner`, either 0 or 1."
      },
      "cancelAndRefund(uint256)": {
        "details": "Destroys the key and sends a refund based on the amount of time remaining.",
        "params": {
          "_tokenId": "The id of the key to cancel."
        }
      },
      "cancelAndRefundFor(address,uint8,bytes32,bytes32,uint256)": {
        "details": "Cancels a key managed by a different user and sends the funds to the msg.sender.",
        "params": {
          "_keyManager": "the key managed by this user will be canceled",
          "_tokenId": "The key to cancel",
          "_v": "_r _s getCancelAndRefundApprovalHash signed by the _keyOwner"
        }
      },
      "disableLock()": {
        "details": "Used to disable lock before migrating keys and/or destroying contract"
      },
      "expireAndRefundFor(address,uint256)": {
        "details": "Invoked by the lock owner to destroy the user's ket and perform a refund and cancellation of the key"
      },
      "getApproved(uint256)": {
        "details": "Throws if `_tokenId` is not a valid NFT.",
        "params": {
          "_tokenId": "The NFT to find the approved address for"
        },
        "return": "The approved address for this NFT, or the zero address if there is none"
      },
      "getCancelAndRefundApprovalHash(address,address)": {
        "details": "this can be computed in JS instead of read from the contract.",
        "params": {
          "_keyManager": "The key manager's address (also the message signer)",
          "_txSender": "The address cancelling cancel on behalf of the keyOwner"
        },
        "return": "approvalHash The hash to sign"
      },
      "getCancelAndRefundValueFor(address)": {
        "details": "Determines how much of a refund a key owner would receive if they issued a cancelAndRefund block.timestamp. Note that due to the time required to mine a tx, the actual refund amount will be lower than what the user reads from this call."
      },
      "getOwnersByPage(uint256,uint256)": {
        "params": {
          "_page": "the page of key owners requested when faceted by page size",
          "_pageSize": "the number of Key Owners requested per page"
        }
      },
      "getTokenIdFor(address)": {
        "return": "The tokenId of the NFT, else returns 0"
      },
      "getTransferFee(address,uint256)": {
        "params": {
          "_keyOwner": "The owner of the key check the transfer fee for."
        }
      },
      "invalidateOffchainApproval(uint256)": {
        "details": "This can be used to invalidate a previously signed message."
      },
      "isApprovedForAll(address,address)": {
        "details": "Tells whether an operator is approved by a given keyManager",
        "params": {
          "_operator": "operator address which you want to query the approval of",
          "_owner": "owner address which you want to query the approval of"
        },
        "return": "bool whether the given operator is approved by the given owner"
      },
      "keyExpirationTimestampFor(address)": {
        "details": "Returns the key's ExpirationTimestamp field for a given owner.Returns 0 if the owner has never owned a key for this lock",
        "params": {
          "_keyOwner": "address of the user for whom we search the key"
        }
      },
      "purchase(uint256,address,address,bytes)": {
        "details": "Purchase functionSetting _value to keyPrice exactly doubles as a security feature. That way if the lock owner increases the price while my transaction is pending I can't be charged more than I expected (only applicable to ERC-20 when more than keyPrice is approved for spending).",
        "params": {
          "_data": "arbitrary data populated by the front-end which initiated the sale",
          "_recipient": "address of the recipient of the purchased key",
          "_referrer": "address of the user making the referral",
          "_value": "the number of tokens to pay for this purchase >= the current keyPrice - any applicable discount (_value is ignored when using ETH)"
        }
      },
      "purchasePriceFor(address,address,bytes)": {
        "details": "minKeyPrice considers any discount from Unlock or the OnKeyPurchase hook"
      },
      "safeTransferFrom(address,address,uint256)": {
        "details": "This works identically to the other function with an extra data parameter, except this function just sets data to ''",
        "params": {
          "_from": "The current owner of the NFT",
          "_to": "The new owner",
          "_tokenId": "The NFT to transfer"
        }
      },
      "safeTransferFrom(address,address,uint256,bytes)": {
        "params": {
          "_data": "Additional data with no specified format, sent in call to `_to`",
          "_from": "The current owner of the NFT",
          "_to": "The new owner",
          "_tokenId": "The NFT to transfer"
        }
      },
      "setApprovalForAll(address,bool)": {
        "details": "Sets or unsets the approval of a given operator An operator is allowed to transfer all tokens of the sender on their behalf",
        "params": {
          "_approved": "representing the status of the approval to be set",
          "_to": "operator address to set the approval"
        }
      },
      "setKeyManagerOf(uint256,address)": {
        "params": {
          "_keyManager": "The address with the manager's rights for the given key. Setting _keyManager to address(0) means the keyOwner is also the keyManager",
          "_tokenId": "The id of the key to assign rights for"
        }
      },
      "shareKey(address,uint256,uint256)": {
        "params": {
          "_timeShared": "The amount of time shared",
          "_to": "The recipient of the shared key",
          "_tokenId": "the key to share"
        }
      },
      "supportsInterface(bytes4)": {
        "details": "See {IERC165-supportsInterface}.     * Time complexity O(1), guaranteed to always use less than 30 000 gas."
      },
      "symbol()": {
        "details": "Gets the token symbol",
        "return": "string representing the token name"
      },
      "tokenByIndex(uint256)": {
        "details": "Throws if `_index` >= `totalSupply()`.",
        "params": {
          "_index": "A counter less than `totalSupply()`"
        },
        "return": "The token identifier for the `_index`th NFT,  (sort order not specified)"
      },
      "tokenOfOwnerByIndex(address,uint256)": {
        "details": "Throws if `_index` >= `balanceOf(_keyOwner)` or if  `_keyOwner` is the zero address, representing invalid NFTs.",
        "params": {
          "_index": "A counter less than `balanceOf(_keyOwner)`",
          "_keyOwner": "An address where we are interested in NFTs owned by them"
        },
        "return": "The token identifier for the `_index`th NFT assigned to `_keyOwner`,   (sort order not specified)"
      },
      "tokenURI(uint256)": {
        "details": "URIs are defined in RFC 3986. The URI may point to a JSON file that conforms to the \"ERC721 Metadata JSON Schema\". https://github.com/ethereum/EIPs/blob/master/EIPS/eip-721.md",
        "params": {
          "_tokenId": "The iD of the token  for which we want to retrieve the URI. If 0 is passed here, we just return the appropriate baseTokenURI. If a custom URI has been set we don't return the lock address. It may be included in the custom baseTokenURI if needed."
        }
      },
      "transfer(address,uint256)": {
        "details": "The typical use case would be to call this with _value 1, which is on par with calling `transferFrom`. If the user has more than `expirationDuration` time remaining this may use the `shareKey` function to send some but not all of the token.",
        "params": {
          "_value": "sends a token with _value * expirationDuration (the amount of time remaining on a standard purchase)."
        }
      },
      "withdraw(address,uint256)": {
        "details": "Called by owner to withdraw all funds from the lock and send them to the `beneficiary`.",
        "params": {
          "_amount": "specifies the max amount to withdraw, which may be reduced when considering the available balance. Set to 0 or MAX_UINT to withdraw everything.    * TODO: consider allowing anybody to trigger this as long as it goes to owner anyway? -- however be wary of draining funds as it breaks the `cancelAndRefund` and `expireAndRefundFor` use cases.",
          "_tokenAddress": "specifies the token address to withdraw or 0 for ETH. This is usually the same as `tokenAddress` in MixinFunds."
        }
      }
    },
    "title": "The Lock contract"
  },
  "userdoc": {
    "methods": {
      "approve(address,uint256)": {
        "notice": "This approves _approved to get ownership of _tokenId. Note: that since this is used for both purchase and transfer approvals the approved token may not exist."
      },
      "approveBeneficiary(address,uint256)": {
        "notice": "An ERC-20 style approval, allowing the spender to transfer funds directly from this lock."
      },
      "balanceOf(address)": {
        "notice": "In the specific case of a Lock, each owner can own only at most 1 key."
      },
      "getApproved(uint256)": {
        "notice": "Get the approved address for a single NFT"
      },
      "getBalance(address,address)": {
        "notice": "Gets the current balance of the account provided."
      },
      "getCancelAndRefundApprovalHash(address,address)": {
        "notice": "returns the hash to sign in order to allow another user to cancel on your behalf."
      },
      "getHasValidKey(address)": {
        "notice": "Checks if the user has a non-expired key."
      },
      "getOwnersByPage(uint256,uint256)": {
        "notice": "A function which returns a subset of the keys for this Lock as an array"
      },
      "getTokenIdFor(address)": {
        "notice": "Find the tokenId for a given user"
      },
      "getTransferFee(address,uint256)": {
        "notice": "Determines how much of a fee a key owner would need to pay in order to transfer the key to another account.  This is pro-rated so the fee goes down overtime."
      },
      "grantKeys(address[],uint256[],address[])": {
        "notice": "Allows the Lock owner to give a collection of users a key with no charge. Each key may be assigned a different expiration date."
      },
      "invalidateOffchainApproval(uint256)": {
        "notice": "Sets the minimum nonce for a valid off-chain approval message from the senders account."
      },
      "isKeyOwner(uint256,address)": {
        "notice": "Checks if the given address owns the given tokenId."
      },
      "numberOfOwners()": {
        "notice": "Public function which returns the total number of unique owners (both expired and valid).  This may be larger than totalSupply."
      },
      "purchasePriceFor(address,address,bytes)": {
        "notice": "returns the minimum price paid for a purchase with these params."
      },
      "safeTransferFrom(address,address,uint256)": {
        "notice": "Transfers the ownership of an NFT from one address to another address"
      },
      "safeTransferFrom(address,address,uint256,bytes)": {
        "notice": "Transfers the ownership of an NFT from one address to another address. When transfer is complete, this functions checks if `_to` is a smart contract (code size > 0). If so, it calls `onERC721Received` on `_to` and throws if the return value is not `bytes4(keccak256('onERC721Received(address,address,uint,bytes)'))`."
      },
      "setBaseTokenURI(string)": {
        "notice": "Allows the Lock owner to update the baseTokenURI for this Lock."
      },
      "setEventHooks(address,address)": {
        "notice": "Allows a lock manager to add or remove an event hook"
      },
      "setKeyManagerOf(uint256,address)": {
        "notice": "Public function for updating transfer and cancel rights for a given key"
      },
      "shareKey(address,uint256,uint256)": {
        "notice": "Allows the key owner to safely share their key (parent key) by transferring a portion of the remaining time to a new key (child key)."
      },
      "tokenByIndex(uint256)": {
        "notice": "Enumerate valid NFTs"
      },
      "tokenOfOwnerByIndex(address,uint256)": {
        "notice": "Enumerate NFTs assigned to an owner"
      },
      "tokenURI(uint256)": {
        "notice": "A distinct Uniform Resource Identifier (URI) for a given asset."
      },
      "transfer(address,uint256)": {
        "notice": "An ERC-20 style transfer."
      },
      "updateBeneficiary(address)": {
        "notice": "A function which lets the owner of the lock update the beneficiary account, which receives funds on withdrawal."
      },
      "updateKeyPricing(uint256,address)": {
        "notice": "A function which lets the owner of the lock change the pricing for future purchases. This consists of 2 parts: The token address and the price in the given token. In order to set the token to ETH, use 0 for the token Address."
      },
      "updateLockName(string)": {
        "notice": "Allows the Lock owner to assign a descriptive name for this Lock."
      },
      "updateLockSymbol(string)": {
        "notice": "Allows the Lock owner to assign a Symbol for this Lock."
      },
      "updateRefundPenalty(uint256,uint256)": {
        "notice": "Allow the owner to change the refund penalty."
      },
      "updateTransferFee(uint256)": {
        "notice": "Allow the Lock owner to change the transfer fee."
      }
    }
  }
}