{
  "_format": "hh-sol-artifact-1",
  "contractName": "PublicLock",
  "sourceName": "contracts/PublicLock.sol",
  "abi": [
    {
      "inputs": [],
      "name": "CANNOT_APPROVE_SELF",
      "type": "error"
    },
    {
      "inputs": [],
      "name": "CANT_BE_SMALLER_THAN_SUPPLY",
      "type": "error"
    },
    {
      "inputs": [],
      "name": "CANT_EXTEND_NON_EXPIRING_KEY",
      "type": "error"
    },
    {
      "inputs": [],
      "name": "GAS_REFUND_FAILED",
      "type": "error"
    },
    {
      "inputs": [],
      "name": "INSUFFICIENT_ERC20_VALUE",
      "type": "error"
    },
    {
      "inputs": [],
      "name": "INSUFFICIENT_VALUE",
      "type": "error"
    },
    {
      "inputs": [],
      "name": "INVALID_ADDRESS",
      "type": "error"
    },
    {
      "inputs": [
        {
          "internalType": "uint8",
          "name": "hookIndex",
          "type": "uint8"
        }
      ],
      "name": "INVALID_HOOK",
      "type": "error"
    },
    {
      "inputs": [],
      "name": "INVALID_LENGTH",
      "type": "error"
    },
    {
      "inputs": [],
      "name": "INVALID_TOKEN",
      "type": "error"
    },
    {
      "inputs": [],
      "name": "KEY_NOT_VALID",
      "type": "error"
    },
    {
      "inputs": [],
      "name": "KEY_TRANSFERS_DISABLED",
      "type": "error"
    },
    {
      "inputs": [],
      "name": "LOCK_HAS_CHANGED",
      "type": "error"
    },
    {
      "inputs": [],
      "name": "LOCK_SOLD_OUT",
      "type": "error"
    },
    {
      "inputs": [],
      "name": "MAX_KEYS_REACHED",
      "type": "error"
    },
    {
      "inputs": [],
      "name": "MIGRATION_REQUIRED",
      "type": "error"
    },
    {
      "inputs": [],
      "name": "NON_COMPLIANT_ERC721_RECEIVER",
      "type": "error"
    },
    {
      "inputs": [],
      "name": "NON_RENEWABLE_LOCK",
      "type": "error"
    },
    {
      "inputs": [],
      "name": "NOT_ENOUGH_FUNDS",
      "type": "error"
    },
    {
      "inputs": [],
      "name": "NOT_ENOUGH_TIME",
      "type": "error"
    },
    {
      "inputs": [],
      "name": "NOT_READY_FOR_RENEWAL",
      "type": "error"
    },
    {
      "inputs": [],
      "name": "NO_SUCH_KEY",
      "type": "error"
    },
    {
      "inputs": [],
      "name": "NULL_VALUE",
      "type": "error"
    },
    {
      "inputs": [],
      "name": "ONLY_KEY_MANAGER_OR_APPROVED",
      "type": "error"
    },
    {
      "inputs": [],
      "name": "ONLY_LOCK_MANAGER",
      "type": "error"
    },
    {
      "inputs": [],
      "name": "ONLY_LOCK_MANAGER_OR_BENEFICIARY",
      "type": "error"
    },
    {
      "inputs": [],
      "name": "ONLY_LOCK_MANAGER_OR_KEY_GRANTER",
      "type": "error"
    },
    {
      "inputs": [],
      "name": "OUT_OF_RANGE",
      "type": "error"
    },
    {
      "inputs": [],
      "name": "OWNER_CANT_BE_ADDRESS_ZERO",
      "type": "error"
    },
    {
      "inputs": [],
      "name": "SCHEMA_VERSION_NOT_CORRECT",
      "type": "error"
    },
    {
      "inputs": [],
      "name": "TRANSFER_TO_SELF",
      "type": "error"
    },
    {
      "inputs": [],
      "name": "UNAUTHORIZED",
      "type": "error"
    },
    {
      "inputs": [],
      "name": "UNAUTHORIZED_KEY_MANAGER_UPDATE",
      "type": "error"
    },
    {
      "anonymous": false,
      "inputs": [
        {
          "indexed": true,
          "internalType": "address",
          "name": "owner",
          "type": "address"
        },
        {
          "indexed": true,
          "internalType": "address",
          "name": "approved",
          "type": "address"
        },
        {
          "indexed": true,
          "internalType": "uint256",
          "name": "tokenId",
          "type": "uint256"
        }
      ],
      "name": "Approval",
      "type": "event"
    },
    {
      "anonymous": false,
      "inputs": [
        {
          "indexed": true,
          "internalType": "address",
          "name": "owner",
          "type": "address"
        },
        {
          "indexed": true,
          "internalType": "address",
          "name": "operator",
          "type": "address"
        },
        {
          "indexed": false,
          "internalType": "bool",
          "name": "approved",
          "type": "bool"
        }
      ],
      "name": "ApprovalForAll",
      "type": "event"
    },
    {
      "anonymous": false,
      "inputs": [
        {
          "indexed": true,
          "internalType": "uint256",
          "name": "tokenId",
          "type": "uint256"
        },
        {
          "indexed": true,
          "internalType": "address",
          "name": "owner",
          "type": "address"
        },
        {
          "indexed": true,
          "internalType": "address",
          "name": "sendTo",
          "type": "address"
        },
        {
          "indexed": false,
          "internalType": "uint256",
          "name": "refund",
          "type": "uint256"
        }
      ],
      "name": "CancelKey",
      "type": "event"
    },
    {
      "anonymous": false,
      "inputs": [
        {
          "indexed": true,
          "internalType": "uint256",
          "name": "_tokenId",
          "type": "uint256"
        },
        {
          "indexed": false,
          "internalType": "uint256",
          "name": "_amount",
          "type": "uint256"
        },
        {
          "indexed": false,
          "internalType": "bool",
          "name": "_timeAdded",
          "type": "bool"
        }
      ],
      "name": "ExpirationChanged",
      "type": "event"
    },
    {
      "anonymous": false,
      "inputs": [
        {
          "indexed": true,
          "internalType": "uint256",
          "name": "tokenId",
          "type": "uint256"
        }
      ],
      "name": "ExpireKey",
      "type": "event"
    },
    {
      "anonymous": false,
      "inputs": [
        {
          "indexed": true,
          "internalType": "address",
          "name": "receiver",
          "type": "address"
        },
        {
          "indexed": false,
          "internalType": "uint256",
          "name": "refundedAmount",
          "type": "uint256"
        },
        {
          "indexed": false,
          "internalType": "address",
          "name": "tokenAddress",
          "type": "address"
        }
      ],
      "name": "GasRefunded",
      "type": "event"
    },
    {
      "anonymous": false,
      "inputs": [
        {
          "indexed": false,
          "internalType": "uint8",
          "name": "version",
          "type": "uint8"
        }
      ],
      "name": "Initialized",
      "type": "event"
    },
    {
      "anonymous": false,
      "inputs": [
        {
          "indexed": true,
          "internalType": "uint256",
          "name": "tokenId",
          "type": "uint256"
        },
        {
          "indexed": false,
          "internalType": "uint256",
          "name": "newTimestamp",
          "type": "uint256"
        }
      ],
      "name": "KeyExtended",
      "type": "event"
    },
    {
      "anonymous": false,
      "inputs": [
        {
          "indexed": true,
          "internalType": "address",
          "name": "account",
          "type": "address"
        }
      ],
      "name": "KeyGranterAdded",
      "type": "event"
    },
    {
      "anonymous": false,
      "inputs": [
        {
          "indexed": true,
          "internalType": "address",
          "name": "account",
          "type": "address"
        }
      ],
      "name": "KeyGranterRemoved",
      "type": "event"
    },
    {
      "anonymous": false,
      "inputs": [
        {
          "indexed": true,
          "internalType": "uint256",
          "name": "_tokenId",
          "type": "uint256"
        },
        {
          "indexed": true,
          "internalType": "address",
          "name": "_newManager",
          "type": "address"
        }
      ],
      "name": "KeyManagerChanged",
      "type": "event"
    },
    {
      "anonymous": false,
      "inputs": [
        {
          "indexed": false,
          "internalType": "uint256",
          "name": "updatedRecordsCount",
          "type": "uint256"
        }
      ],
      "name": "KeysMigrated",
      "type": "event"
    },
    {
      "anonymous": false,
      "inputs": [
        {
          "indexed": true,
          "internalType": "address",
          "name": "account",
          "type": "address"
        }
      ],
      "name": "LockManagerAdded",
      "type": "event"
    },
    {
      "anonymous": false,
      "inputs": [
        {
          "indexed": true,
          "internalType": "address",
          "name": "account",
          "type": "address"
        }
      ],
      "name": "LockManagerRemoved",
      "type": "event"
    },
    {
      "anonymous": false,
      "inputs": [
        {
          "indexed": false,
          "internalType": "string",
          "name": "symbol",
          "type": "string"
        }
      ],
      "name": "NewLockSymbol",
      "type": "event"
    },
    {
      "anonymous": false,
      "inputs": [
        {
          "indexed": false,
          "internalType": "address",
          "name": "previousOwner",
          "type": "address"
        },
        {
          "indexed": false,
          "internalType": "address",
          "name": "newOwner",
          "type": "address"
        }
      ],
      "name": "OwnershipTransferred",
      "type": "event"
    },
    {
      "anonymous": false,
      "inputs": [
        {
          "indexed": false,
          "internalType": "uint256",
          "name": "oldKeyPrice",
          "type": "uint256"
        },
        {
          "indexed": false,
          "internalType": "uint256",
          "name": "keyPrice",
          "type": "uint256"
        },
        {
          "indexed": false,
          "internalType": "address",
          "name": "oldTokenAddress",
          "type": "address"
        },
        {
          "indexed": false,
          "internalType": "address",
          "name": "tokenAddress",
          "type": "address"
        }
      ],
      "name": "PricingChanged",
      "type": "event"
    },
    {
      "anonymous": false,
      "inputs": [
        {
          "indexed": false,
          "internalType": "uint256",
          "name": "freeTrialLength",
          "type": "uint256"
        },
        {
          "indexed": false,
          "internalType": "uint256",
          "name": "refundPenaltyBasisPoints",
          "type": "uint256"
        }
      ],
      "name": "RefundPenaltyChanged",
      "type": "event"
    },
    {
      "anonymous": false,
      "inputs": [
        {
          "indexed": true,
          "internalType": "bytes32",
          "name": "role",
          "type": "bytes32"
        },
        {
          "indexed": true,
          "internalType": "bytes32",
          "name": "previousAdminRole",
          "type": "bytes32"
        },
        {
          "indexed": true,
          "internalType": "bytes32",
          "name": "newAdminRole",
          "type": "bytes32"
        }
      ],
      "name": "RoleAdminChanged",
      "type": "event"
    },
    {
      "anonymous": false,
      "inputs": [
        {
          "indexed": true,
          "internalType": "bytes32",
          "name": "role",
          "type": "bytes32"
        },
        {
          "indexed": true,
          "internalType": "address",
          "name": "account",
          "type": "address"
        },
        {
          "indexed": true,
          "internalType": "address",
          "name": "sender",
          "type": "address"
        }
      ],
      "name": "RoleGranted",
      "type": "event"
    },
    {
      "anonymous": false,
      "inputs": [
        {
          "indexed": true,
          "internalType": "bytes32",
          "name": "role",
          "type": "bytes32"
        },
        {
          "indexed": true,
          "internalType": "address",
          "name": "account",
          "type": "address"
        },
        {
          "indexed": true,
          "internalType": "address",
          "name": "sender",
          "type": "address"
        }
      ],
      "name": "RoleRevoked",
      "type": "event"
    },
    {
      "anonymous": false,
      "inputs": [
        {
          "indexed": true,
          "internalType": "address",
          "name": "from",
          "type": "address"
        },
        {
          "indexed": true,
          "internalType": "address",
          "name": "to",
          "type": "address"
        },
        {
          "indexed": true,
          "internalType": "uint256",
          "name": "tokenId",
          "type": "uint256"
        }
      ],
      "name": "Transfer",
      "type": "event"
    },
    {
      "anonymous": false,
      "inputs": [
        {
          "indexed": false,
          "internalType": "uint256",
          "name": "transferFeeBasisPoints",
          "type": "uint256"
        }
      ],
      "name": "TransferFeeChanged",
      "type": "event"
    },
    {
      "anonymous": false,
      "inputs": [
        {
          "indexed": true,
          "internalType": "address",
          "name": "lockAddress",
          "type": "address"
        },
        {
          "indexed": false,
          "internalType": "address",
          "name": "unlockAddress",
          "type": "address"
        }
      ],
      "name": "UnlockCallFailed",
      "type": "event"
    },
    {
      "anonymous": false,
      "inputs": [
        {
          "indexed": true,
          "internalType": "address",
          "name": "sender",
          "type": "address"
        },
        {
          "indexed": true,
          "internalType": "address",
          "name": "tokenAddress",
          "type": "address"
        },
        {
          "indexed": true,
          "internalType": "address",
          "name": "beneficiary",
          "type": "address"
        },
        {
          "indexed": false,
          "internalType": "uint256",
          "name": "amount",
          "type": "uint256"
        }
      ],
      "name": "Withdrawal",
      "type": "event"
    },
    {
      "inputs": [],
      "name": "DEFAULT_ADMIN_ROLE",
      "outputs": [
        {
          "internalType": "bytes32",
          "name": "",
          "type": "bytes32"
        }
      ],
      "stateMutability": "view",
      "type": "function"
    },
    {
      "inputs": [],
      "name": "KEY_GRANTER_ROLE",
      "outputs": [
        {
          "internalType": "bytes32",
          "name": "",
          "type": "bytes32"
        }
      ],
      "stateMutability": "view",
      "type": "function"
    },
    {
      "inputs": [],
      "name": "LOCK_MANAGER_ROLE",
      "outputs": [
        {
          "internalType": "bytes32",
          "name": "",
          "type": "bytes32"
        }
      ],
      "stateMutability": "view",
      "type": "function"
    },
    {
      "inputs": [
        {
          "internalType": "address",
          "name": "account",
          "type": "address"
        }
      ],
      "name": "addKeyGranter",
      "outputs": [],
      "stateMutability": "nonpayable",
      "type": "function"
    },
    {
      "inputs": [
        {
          "internalType": "address",
          "name": "account",
          "type": "address"
        }
      ],
      "name": "addLockManager",
      "outputs": [],
      "stateMutability": "nonpayable",
      "type": "function"
    },
    {
      "inputs": [
        {
          "internalType": "address",
          "name": "_approved",
          "type": "address"
        },
        {
          "internalType": "uint256",
          "name": "_tokenId",
          "type": "uint256"
        }
      ],
      "name": "approve",
      "outputs": [],
      "stateMutability": "nonpayable",
      "type": "function"
    },
    {
      "inputs": [
        {
          "internalType": "address",
          "name": "_spender",
          "type": "address"
        },
        {
          "internalType": "uint256",
          "name": "_amount",
          "type": "uint256"
        }
      ],
      "name": "approveBeneficiary",
      "outputs": [
        {
          "internalType": "bool",
          "name": "",
          "type": "bool"
        }
      ],
      "stateMutability": "nonpayable",
      "type": "function"
    },
    {
      "inputs": [
        {
          "internalType": "address",
          "name": "_keyOwner",
          "type": "address"
        }
      ],
      "name": "balanceOf",
      "outputs": [
        {
          "internalType": "uint256",
          "name": "balance",
          "type": "uint256"
        }
      ],
      "stateMutability": "view",
      "type": "function"
    },
    {
      "inputs": [],
      "name": "beneficiary",
      "outputs": [
        {
          "internalType": "address payable",
          "name": "",
          "type": "address"
        }
      ],
      "stateMutability": "view",
      "type": "function"
    },
    {
      "inputs": [
        {
          "internalType": "uint256",
          "name": "_tokenId",
          "type": "uint256"
        }
      ],
      "name": "burn",
      "outputs": [],
      "stateMutability": "nonpayable",
      "type": "function"
    },
    {
      "inputs": [
        {
          "internalType": "uint256",
          "name": "_tokenId",
          "type": "uint256"
        }
      ],
      "name": "cancelAndRefund",
      "outputs": [],
      "stateMutability": "nonpayable",
      "type": "function"
    },
    {
      "inputs": [],
      "name": "expirationDuration",
      "outputs": [
        {
          "internalType": "uint256",
          "name": "",
          "type": "uint256"
        }
      ],
      "stateMutability": "view",
      "type": "function"
    },
    {
      "inputs": [
        {
          "internalType": "uint256",
          "name": "_tokenId",
          "type": "uint256"
        },
        {
          "internalType": "uint256",
          "name": "_amount",
          "type": "uint256"
        }
      ],
      "name": "expireAndRefundFor",
      "outputs": [],
      "stateMutability": "nonpayable",
      "type": "function"
    },
    {
      "inputs": [
        {
          "internalType": "uint256",
          "name": "_value",
          "type": "uint256"
        },
        {
          "internalType": "uint256",
          "name": "_tokenId",
          "type": "uint256"
        },
        {
          "internalType": "address",
          "name": "_referrer",
          "type": "address"
        },
        {
          "internalType": "bytes",
          "name": "_data",
          "type": "bytes"
        }
      ],
      "name": "extend",
      "outputs": [],
      "stateMutability": "payable",
      "type": "function"
    },
    {
      "inputs": [],
      "name": "freeTrialLength",
      "outputs": [
        {
          "internalType": "uint256",
          "name": "",
          "type": "uint256"
        }
      ],
      "stateMutability": "view",
      "type": "function"
    },
    {
      "inputs": [],
      "name": "gasRefundValue",
      "outputs": [
        {
          "internalType": "uint256",
          "name": "_refundValue",
          "type": "uint256"
        }
      ],
      "stateMutability": "view",
      "type": "function"
    },
    {
      "inputs": [
        {
          "internalType": "uint256",
          "name": "_tokenId",
          "type": "uint256"
        }
      ],
      "name": "getApproved",
      "outputs": [
        {
          "internalType": "address",
          "name": "",
          "type": "address"
        }
      ],
      "stateMutability": "view",
      "type": "function"
    },
    {
      "inputs": [
        {
          "internalType": "uint256",
          "name": "_tokenId",
          "type": "uint256"
        }
      ],
      "name": "getCancelAndRefundValue",
      "outputs": [
        {
          "internalType": "uint256",
          "name": "refund",
          "type": "uint256"
        }
      ],
      "stateMutability": "view",
      "type": "function"
    },
    {
      "inputs": [
        {
          "internalType": "address",
          "name": "_keyOwner",
          "type": "address"
        }
      ],
      "name": "getHasValidKey",
      "outputs": [
        {
          "internalType": "bool",
          "name": "isValid",
          "type": "bool"
        }
      ],
      "stateMutability": "view",
      "type": "function"
    },
    {
      "inputs": [
        {
          "internalType": "bytes32",
          "name": "role",
          "type": "bytes32"
        }
      ],
      "name": "getRoleAdmin",
      "outputs": [
        {
          "internalType": "bytes32",
          "name": "",
          "type": "bytes32"
        }
      ],
      "stateMutability": "view",
      "type": "function"
    },
    {
      "inputs": [
        {
          "internalType": "uint256",
          "name": "_tokenId",
          "type": "uint256"
        },
        {
          "internalType": "uint256",
          "name": "_time",
          "type": "uint256"
        }
      ],
      "name": "getTransferFee",
      "outputs": [
        {
          "internalType": "uint256",
          "name": "",
          "type": "uint256"
        }
      ],
      "stateMutability": "view",
      "type": "function"
    },
    {
      "inputs": [
        {
          "internalType": "uint256",
          "name": "_tokenId",
          "type": "uint256"
        },
        {
          "internalType": "uint256",
          "name": "_duration",
          "type": "uint256"
        }
      ],
      "name": "grantKeyExtension",
      "outputs": [],
      "stateMutability": "nonpayable",
      "type": "function"
    },
    {
      "inputs": [
        {
          "internalType": "address[]",
          "name": "_recipients",
          "type": "address[]"
        },
        {
          "internalType": "uint256[]",
          "name": "_expirationTimestamps",
          "type": "uint256[]"
        },
        {
          "internalType": "address[]",
          "name": "_keyManagers",
          "type": "address[]"
        }
      ],
      "name": "grantKeys",
      "outputs": [
        {
          "internalType": "uint256[]",
          "name": "",
          "type": "uint256[]"
        }
      ],
      "stateMutability": "nonpayable",
      "type": "function"
    },
    {
      "inputs": [
        {
          "internalType": "bytes32",
          "name": "role",
          "type": "bytes32"
        },
        {
          "internalType": "address",
          "name": "account",
          "type": "address"
        }
      ],
      "name": "grantRole",
      "outputs": [],
      "stateMutability": "nonpayable",
      "type": "function"
    },
    {
      "inputs": [
        {
          "internalType": "bytes32",
          "name": "role",
          "type": "bytes32"
        },
        {
          "internalType": "address",
          "name": "account",
          "type": "address"
        }
      ],
      "name": "hasRole",
      "outputs": [
        {
          "internalType": "bool",
          "name": "",
          "type": "bool"
        }
      ],
      "stateMutability": "view",
      "type": "function"
    },
    {
      "inputs": [
        {
          "internalType": "address payable",
          "name": "_lockCreator",
          "type": "address"
        },
        {
          "internalType": "uint256",
          "name": "_expirationDuration",
          "type": "uint256"
        },
        {
          "internalType": "address",
          "name": "_tokenAddress",
          "type": "address"
        },
        {
          "internalType": "uint256",
          "name": "_keyPrice",
          "type": "uint256"
        },
        {
          "internalType": "uint256",
          "name": "_maxNumberOfKeys",
          "type": "uint256"
        },
        {
          "internalType": "string",
          "name": "_lockName",
          "type": "string"
        }
      ],
      "name": "initialize",
      "outputs": [],
      "stateMutability": "nonpayable",
      "type": "function"
    },
    {
      "inputs": [
        {
          "internalType": "address",
          "name": "_owner",
          "type": "address"
        },
        {
          "internalType": "address",
          "name": "_operator",
          "type": "address"
        }
      ],
      "name": "isApprovedForAll",
      "outputs": [
        {
          "internalType": "bool",
          "name": "",
          "type": "bool"
        }
      ],
      "stateMutability": "view",
      "type": "function"
    },
    {
      "inputs": [
        {
          "internalType": "address",
          "name": "account",
          "type": "address"
        }
      ],
      "name": "isKeyGranter",
      "outputs": [
        {
          "internalType": "bool",
          "name": "",
          "type": "bool"
        }
      ],
      "stateMutability": "view",
      "type": "function"
    },
    {
      "inputs": [
        {
          "internalType": "address",
          "name": "account",
          "type": "address"
        }
      ],
      "name": "isLockManager",
      "outputs": [
        {
          "internalType": "bool",
          "name": "",
          "type": "bool"
        }
      ],
      "stateMutability": "view",
      "type": "function"
    },
    {
      "inputs": [
        {
          "internalType": "address",
          "name": "account",
          "type": "address"
        }
      ],
      "name": "isOwner",
      "outputs": [
        {
          "internalType": "bool",
          "name": "",
          "type": "bool"
        }
      ],
      "stateMutability": "view",
      "type": "function"
    },
    {
      "inputs": [
        {
          "internalType": "uint256",
          "name": "_tokenId",
          "type": "uint256"
        }
      ],
      "name": "isValidKey",
      "outputs": [
        {
          "internalType": "bool",
          "name": "",
          "type": "bool"
        }
      ],
      "stateMutability": "view",
      "type": "function"
    },
    {
      "inputs": [
        {
          "internalType": "uint256",
          "name": "_tokenId",
          "type": "uint256"
        }
      ],
      "name": "keyExpirationTimestampFor",
      "outputs": [
        {
          "internalType": "uint256",
          "name": "",
          "type": "uint256"
        }
      ],
      "stateMutability": "view",
      "type": "function"
    },
    {
      "inputs": [
        {
          "internalType": "uint256",
          "name": "",
          "type": "uint256"
        }
      ],
      "name": "keyManagerOf",
      "outputs": [
        {
          "internalType": "address",
          "name": "",
          "type": "address"
        }
      ],
      "stateMutability": "view",
      "type": "function"
    },
    {
      "inputs": [],
      "name": "keyPrice",
      "outputs": [
        {
          "internalType": "uint256",
          "name": "",
          "type": "uint256"
        }
      ],
      "stateMutability": "view",
      "type": "function"
    },
    {
      "inputs": [
        {
          "internalType": "address",
          "name": "_from",
          "type": "address"
        },
        {
          "internalType": "address",
          "name": "_recipient",
          "type": "address"
        },
        {
          "internalType": "uint256",
          "name": "_tokenId",
          "type": "uint256"
        }
      ],
      "name": "lendKey",
      "outputs": [],
      "stateMutability": "nonpayable",
      "type": "function"
    },
    {
      "inputs": [],
      "name": "maxKeysPerAddress",
      "outputs": [
        {
          "internalType": "uint256",
          "name": "",
          "type": "uint256"
        }
      ],
      "stateMutability": "view",
      "type": "function"
    },
    {
      "inputs": [],
      "name": "maxNumberOfKeys",
      "outputs": [
        {
          "internalType": "uint256",
          "name": "",
          "type": "uint256"
        }
      ],
      "stateMutability": "view",
      "type": "function"
    },
    {
      "inputs": [
        {
          "internalType": "uint256",
          "name": "_tokenIdFrom",
          "type": "uint256"
        },
        {
          "internalType": "uint256",
          "name": "_tokenIdTo",
          "type": "uint256"
        },
        {
          "internalType": "uint256",
          "name": "_amount",
          "type": "uint256"
        }
      ],
      "name": "mergeKeys",
      "outputs": [],
      "stateMutability": "nonpayable",
      "type": "function"
    },
    {
      "inputs": [
        {
          "internalType": "bytes",
          "name": "",
          "type": "bytes"
        }
      ],
      "name": "migrate",
      "outputs": [],
      "stateMutability": "nonpayable",
      "type": "function"
    },
    {
      "inputs": [],
      "name": "name",
      "outputs": [
        {
          "internalType": "string",
          "name": "",
          "type": "string"
        }
      ],
      "stateMutability": "view",
      "type": "function"
    },
    {
      "inputs": [],
      "name": "numberOfOwners",
      "outputs": [
        {
          "internalType": "uint256",
          "name": "",
          "type": "uint256"
        }
      ],
      "stateMutability": "view",
      "type": "function"
    },
    {
      "inputs": [],
      "name": "onKeyCancelHook",
      "outputs": [
        {
          "internalType": "contract ILockKeyCancelHook",
          "name": "",
          "type": "address"
        }
      ],
      "stateMutability": "view",
      "type": "function"
    },
    {
      "inputs": [],
      "name": "onKeyPurchaseHook",
      "outputs": [
        {
          "internalType": "contract ILockKeyPurchaseHook",
          "name": "",
          "type": "address"
        }
      ],
      "stateMutability": "view",
      "type": "function"
    },
    {
      "inputs": [],
      "name": "onKeyTransferHook",
      "outputs": [
        {
          "internalType": "contract ILockKeyTransferHook",
          "name": "",
          "type": "address"
        }
      ],
      "stateMutability": "view",
      "type": "function"
    },
    {
      "inputs": [],
      "name": "onTokenURIHook",
      "outputs": [
        {
          "internalType": "contract ILockTokenURIHook",
          "name": "",
          "type": "address"
        }
      ],
      "stateMutability": "view",
      "type": "function"
    },
    {
      "inputs": [],
      "name": "onValidKeyHook",
      "outputs": [
        {
          "internalType": "contract ILockValidKeyHook",
          "name": "",
          "type": "address"
        }
      ],
      "stateMutability": "view",
      "type": "function"
    },
    {
      "inputs": [],
      "name": "owner",
      "outputs": [
        {
          "internalType": "address",
          "name": "",
          "type": "address"
        }
      ],
      "stateMutability": "view",
      "type": "function"
    },
    {
      "inputs": [
        {
          "internalType": "uint256",
          "name": "_tokenId",
          "type": "uint256"
        }
      ],
      "name": "ownerOf",
      "outputs": [
        {
          "internalType": "address",
          "name": "",
          "type": "address"
        }
      ],
      "stateMutability": "view",
      "type": "function"
    },
    {
      "inputs": [],
      "name": "publicLockVersion",
      "outputs": [
        {
          "internalType": "uint16",
          "name": "",
          "type": "uint16"
        }
      ],
      "stateMutability": "pure",
      "type": "function"
    },
    {
      "inputs": [
        {
          "internalType": "uint256[]",
          "name": "_values",
          "type": "uint256[]"
        },
        {
          "internalType": "address[]",
          "name": "_recipients",
          "type": "address[]"
        },
        {
          "internalType": "address[]",
          "name": "_referrers",
          "type": "address[]"
        },
        {
          "internalType": "address[]",
          "name": "_keyManagers",
          "type": "address[]"
        },
        {
          "internalType": "bytes[]",
          "name": "_data",
          "type": "bytes[]"
        }
      ],
      "name": "purchase",
      "outputs": [
        {
          "internalType": "uint256[]",
          "name": "",
          "type": "uint256[]"
        }
      ],
      "stateMutability": "payable",
      "type": "function"
    },
    {
      "inputs": [
        {
          "internalType": "address",
          "name": "_recipient",
          "type": "address"
        },
        {
          "internalType": "address",
          "name": "_referrer",
          "type": "address"
        },
        {
          "internalType": "bytes",
          "name": "_data",
          "type": "bytes"
        }
      ],
      "name": "purchasePriceFor",
      "outputs": [
        {
          "internalType": "uint256",
          "name": "minKeyPrice",
          "type": "uint256"
        }
      ],
      "stateMutability": "view",
      "type": "function"
    },
    {
      "inputs": [
        {
          "internalType": "address",
          "name": "",
          "type": "address"
        }
      ],
      "name": "referrerFees",
      "outputs": [
        {
          "internalType": "uint256",
          "name": "",
          "type": "uint256"
        }
      ],
      "stateMutability": "view",
      "type": "function"
    },
    {
      "inputs": [],
      "name": "refundPenaltyBasisPoints",
      "outputs": [
        {
          "internalType": "uint256",
          "name": "",
          "type": "uint256"
        }
      ],
      "stateMutability": "view",
      "type": "function"
    },
    {
      "inputs": [
        {
          "internalType": "uint256",
          "name": "_tokenId",
          "type": "uint256"
        },
        {
          "internalType": "address",
          "name": "_referrer",
          "type": "address"
        }
      ],
      "name": "renewMembershipFor",
      "outputs": [],
      "stateMutability": "nonpayable",
      "type": "function"
    },
    {
      "inputs": [],
      "name": "renounceLockManager",
      "outputs": [],
      "stateMutability": "nonpayable",
      "type": "function"
    },
    {
      "inputs": [
        {
          "internalType": "bytes32",
          "name": "role",
          "type": "bytes32"
        },
        {
          "internalType": "address",
          "name": "account",
          "type": "address"
        }
      ],
      "name": "renounceRole",
      "outputs": [],
      "stateMutability": "nonpayable",
      "type": "function"
    },
    {
      "inputs": [
        {
          "internalType": "address",
          "name": "_granter",
          "type": "address"
        }
      ],
      "name": "revokeKeyGranter",
      "outputs": [],
      "stateMutability": "nonpayable",
      "type": "function"
    },
    {
      "inputs": [
        {
          "internalType": "bytes32",
          "name": "role",
          "type": "bytes32"
        },
        {
          "internalType": "address",
          "name": "account",
          "type": "address"
        }
      ],
      "name": "revokeRole",
      "outputs": [],
      "stateMutability": "nonpayable",
      "type": "function"
    },
    {
      "inputs": [
        {
          "internalType": "address",
          "name": "_from",
          "type": "address"
        },
        {
          "internalType": "address",
          "name": "_to",
          "type": "address"
        },
        {
          "internalType": "uint256",
          "name": "_tokenId",
          "type": "uint256"
        }
      ],
      "name": "safeTransferFrom",
      "outputs": [],
      "stateMutability": "nonpayable",
      "type": "function"
    },
    {
      "inputs": [
        {
          "internalType": "address",
          "name": "_from",
          "type": "address"
        },
        {
          "internalType": "address",
          "name": "_to",
          "type": "address"
        },
        {
          "internalType": "uint256",
          "name": "_tokenId",
          "type": "uint256"
        },
        {
          "internalType": "bytes",
          "name": "_data",
          "type": "bytes"
        }
      ],
      "name": "safeTransferFrom",
      "outputs": [],
      "stateMutability": "nonpayable",
      "type": "function"
    },
    {
      "inputs": [],
      "name": "schemaVersion",
      "outputs": [
        {
          "internalType": "uint256",
          "name": "",
          "type": "uint256"
        }
      ],
      "stateMutability": "view",
      "type": "function"
    },
    {
      "inputs": [
        {
          "internalType": "address",
          "name": "_to",
          "type": "address"
        },
        {
          "internalType": "bool",
          "name": "_approved",
          "type": "bool"
        }
      ],
      "name": "setApprovalForAll",
      "outputs": [],
      "stateMutability": "nonpayable",
      "type": "function"
    },
    {
      "inputs": [
        {
          "internalType": "string",
          "name": "_baseTokenURI",
          "type": "string"
        }
      ],
      "name": "setBaseTokenURI",
      "outputs": [],
      "stateMutability": "nonpayable",
      "type": "function"
    },
    {
      "inputs": [
        {
          "internalType": "address",
          "name": "_onKeyPurchaseHook",
          "type": "address"
        },
        {
          "internalType": "address",
          "name": "_onKeyCancelHook",
          "type": "address"
        },
        {
          "internalType": "address",
          "name": "_onValidKeyHook",
          "type": "address"
        },
        {
          "internalType": "address",
          "name": "_onTokenURIHook",
          "type": "address"
        },
        {
          "internalType": "address",
          "name": "_onKeyTransferHook",
          "type": "address"
        }
      ],
      "name": "setEventHooks",
      "outputs": [],
      "stateMutability": "nonpayable",
      "type": "function"
    },
    {
      "inputs": [
        {
          "internalType": "uint256",
          "name": "_newExpirationDuration",
          "type": "uint256"
        }
      ],
      "name": "setExpirationDuration",
      "outputs": [],
      "stateMutability": "nonpayable",
      "type": "function"
    },
    {
      "inputs": [
        {
          "internalType": "uint256",
          "name": "_refundValue",
          "type": "uint256"
        }
      ],
      "name": "setGasRefundValue",
      "outputs": [],
      "stateMutability": "nonpayable",
      "type": "function"
    },
    {
      "inputs": [
        {
          "internalType": "uint256",
          "name": "_tokenId",
          "type": "uint256"
        },
        {
          "internalType": "address",
          "name": "_keyManager",
          "type": "address"
        }
      ],
      "name": "setKeyManagerOf",
      "outputs": [],
      "stateMutability": "nonpayable",
      "type": "function"
    },
    {
      "inputs": [
        {
          "internalType": "uint256",
          "name": "_maxKeys",
          "type": "uint256"
        }
      ],
      "name": "setMaxKeysPerAddress",
      "outputs": [],
      "stateMutability": "nonpayable",
      "type": "function"
    },
    {
      "inputs": [
        {
          "internalType": "uint256",
          "name": "_maxNumberOfKeys",
          "type": "uint256"
        }
      ],
      "name": "setMaxNumberOfKeys",
      "outputs": [],
      "stateMutability": "nonpayable",
      "type": "function"
    },
    {
      "inputs": [
        {
          "internalType": "address",
          "name": "account",
          "type": "address"
        }
      ],
      "name": "setOwner",
      "outputs": [],
      "stateMutability": "nonpayable",
      "type": "function"
    },
    {
      "inputs": [
        {
          "internalType": "address",
          "name": "_referrer",
          "type": "address"
        },
        {
          "internalType": "uint256",
          "name": "_feeBasisPoint",
          "type": "uint256"
        }
      ],
      "name": "setReferrerFee",
      "outputs": [],
      "stateMutability": "nonpayable",
      "type": "function"
    },
    {
      "inputs": [
        {
          "internalType": "address",
          "name": "_to",
          "type": "address"
        },
        {
          "internalType": "uint256",
          "name": "_tokenIdFrom",
          "type": "uint256"
        },
        {
          "internalType": "uint256",
          "name": "_timeShared",
          "type": "uint256"
        }
      ],
      "name": "shareKey",
      "outputs": [],
      "stateMutability": "nonpayable",
      "type": "function"
    },
    {
      "inputs": [
        {
          "internalType": "bytes4",
          "name": "interfaceId",
          "type": "bytes4"
        }
      ],
      "name": "supportsInterface",
      "outputs": [
        {
          "internalType": "bool",
          "name": "",
          "type": "bool"
        }
      ],
      "stateMutability": "view",
      "type": "function"
    },
    {
      "inputs": [],
      "name": "symbol",
      "outputs": [
        {
          "internalType": "string",
          "name": "",
          "type": "string"
        }
      ],
      "stateMutability": "view",
      "type": "function"
    },
    {
      "inputs": [],
      "name": "tokenAddress",
      "outputs": [
        {
          "internalType": "address",
          "name": "",
          "type": "address"
        }
      ],
      "stateMutability": "view",
      "type": "function"
    },
    {
      "inputs": [
        {
          "internalType": "uint256",
          "name": "_index",
          "type": "uint256"
        }
      ],
      "name": "tokenByIndex",
      "outputs": [
        {
          "internalType": "uint256",
          "name": "",
          "type": "uint256"
        }
      ],
      "stateMutability": "view",
      "type": "function"
    },
    {
      "inputs": [
        {
          "internalType": "address",
          "name": "_keyOwner",
          "type": "address"
        },
        {
          "internalType": "uint256",
          "name": "_index",
          "type": "uint256"
        }
      ],
      "name": "tokenOfOwnerByIndex",
      "outputs": [
        {
          "internalType": "uint256",
          "name": "",
          "type": "uint256"
        }
      ],
      "stateMutability": "view",
      "type": "function"
    },
    {
      "inputs": [
        {
          "internalType": "uint256",
          "name": "_tokenId",
          "type": "uint256"
        }
      ],
      "name": "tokenURI",
      "outputs": [
        {
          "internalType": "string",
          "name": "",
          "type": "string"
        }
      ],
      "stateMutability": "view",
      "type": "function"
    },
    {
      "inputs": [
        {
          "internalType": "address",
          "name": "_keyOwner",
          "type": "address"
        }
      ],
      "name": "totalKeys",
      "outputs": [
        {
          "internalType": "uint256",
          "name": "",
          "type": "uint256"
        }
      ],
      "stateMutability": "view",
      "type": "function"
    },
    {
      "inputs": [],
      "name": "totalSupply",
      "outputs": [
        {
          "internalType": "uint256",
          "name": "",
          "type": "uint256"
        }
      ],
      "stateMutability": "view",
      "type": "function"
    },
    {
      "inputs": [
        {
          "internalType": "uint256",
          "name": "_tokenId",
          "type": "uint256"
        },
        {
          "internalType": "address",
          "name": "_to",
          "type": "address"
        },
        {
          "internalType": "uint256",
          "name": "_valueBasisPoint",
          "type": "uint256"
        }
      ],
      "name": "transfer",
      "outputs": [
        {
          "internalType": "bool",
          "name": "success",
          "type": "bool"
        }
      ],
      "stateMutability": "nonpayable",
      "type": "function"
    },
    {
      "inputs": [],
      "name": "transferFeeBasisPoints",
      "outputs": [
        {
          "internalType": "uint256",
          "name": "",
          "type": "uint256"
        }
      ],
      "stateMutability": "view",
      "type": "function"
    },
    {
      "inputs": [
        {
          "internalType": "address",
          "name": "_from",
          "type": "address"
        },
        {
          "internalType": "address",
          "name": "_recipient",
          "type": "address"
        },
        {
          "internalType": "uint256",
          "name": "_tokenId",
          "type": "uint256"
        }
      ],
      "name": "transferFrom",
      "outputs": [],
      "stateMutability": "nonpayable",
      "type": "function"
    },
    {
      "inputs": [
        {
          "internalType": "address",
          "name": "_recipient",
          "type": "address"
        },
        {
          "internalType": "uint256",
          "name": "_tokenId",
          "type": "uint256"
        }
      ],
      "name": "unlendKey",
      "outputs": [],
      "stateMutability": "nonpayable",
      "type": "function"
    },
    {
      "inputs": [],
      "name": "unlockProtocol",
      "outputs": [
        {
          "internalType": "contract IUnlock",
          "name": "",
          "type": "address"
        }
      ],
      "stateMutability": "view",
      "type": "function"
    },
    {
      "inputs": [
        {
          "internalType": "address payable",
          "name": "_beneficiary",
          "type": "address"
        }
      ],
      "name": "updateBeneficiary",
      "outputs": [],
      "stateMutability": "nonpayable",
      "type": "function"
    },
    {
      "inputs": [
        {
          "internalType": "uint256",
          "name": "_keyPrice",
          "type": "uint256"
        },
        {
          "internalType": "address",
          "name": "_tokenAddress",
          "type": "address"
        }
      ],
      "name": "updateKeyPricing",
      "outputs": [],
      "stateMutability": "nonpayable",
      "type": "function"
    },
    {
      "inputs": [
        {
          "internalType": "string",
          "name": "_lockName",
          "type": "string"
        }
      ],
      "name": "updateLockName",
      "outputs": [],
      "stateMutability": "nonpayable",
      "type": "function"
    },
    {
      "inputs": [
        {
          "internalType": "string",
          "name": "_lockSymbol",
          "type": "string"
        }
      ],
      "name": "updateLockSymbol",
      "outputs": [],
      "stateMutability": "nonpayable",
      "type": "function"
    },
    {
      "inputs": [
        {
          "internalType": "uint256",
          "name": "_freeTrialLength",
          "type": "uint256"
        },
        {
          "internalType": "uint256",
          "name": "_refundPenaltyBasisPoints",
          "type": "uint256"
        }
      ],
      "name": "updateRefundPenalty",
      "outputs": [],
      "stateMutability": "nonpayable",
      "type": "function"
    },
    {
      "inputs": [],
      "name": "updateSchemaVersion",
      "outputs": [],
      "stateMutability": "nonpayable",
      "type": "function"
    },
    {
      "inputs": [
        {
          "internalType": "uint256",
          "name": "_transferFeeBasisPoints",
          "type": "uint256"
        }
      ],
      "name": "updateTransferFee",
      "outputs": [],
      "stateMutability": "nonpayable",
      "type": "function"
    },
    {
      "inputs": [
        {
          "internalType": "address",
          "name": "_tokenAddress",
          "type": "address"
        },
        {
          "internalType": "uint256",
          "name": "_amount",
          "type": "uint256"
        }
      ],
      "name": "withdraw",
      "outputs": [],
      "stateMutability": "nonpayable",
      "type": "function"
    },
    {
      "stateMutability": "payable",
      "type": "receive"
    }
  ],
  "bytecode": "0x608060405234801561001057600080fd5b50615e5d80620000216000396000f3fe6080604052600436106104d65760003560e01c8063626485a311610287578063a375cb0511610165578063d32bfb6c116100cc578063f0ba604011610085578063f0ba604014610fe2578063f12c6b6e14610ff7578063f32e8b2414611017578063f3fef3a31461102c578063f5766b391461104c578063f8548e361461106c57600080fd5b8063d32bfb6c14610f39578063d52e4a1014610f59578063d547741f14610f6f578063d813cc1914610f8f578063debe2b0d14610fa2578063e985e9c514610fc257600080fd5b8063b88d4fde1161011e578063b88d4fde14610e6f578063bf4a927014610e8f578063c23135dd14610eaf578063c87b56dd14610edd578063d1bbd49c14610efd578063d250348514610f1957600080fd5b8063a375cb0514610da5578063a98d362314610dbc578063aae4b8f714610def578063b11d7ec114610e0f578063b1a3b25d14610e2f578063b585a6d514610e4f57600080fd5b80638577a6d51161020957806393fd1844116101c257806393fd184414610d0357806395d89b4114610d1a5780639d76ea5814610d2f578063a217fddf14610d50578063a22cb46514610d65578063a2e4cd2e14610d8557600080fd5b80638577a6d514610c3d5780638932a90d14610c5d5780638ca2fbad14610c825780638da5cb5b14610ca457806391d1485414610cc357806392ac98a514610ce357600080fd5b8063626485a314610ae55780636352211e14610b055780636d8ea5b414610b255780636eadde4314610b4557806370a0823114610b6557806374b6c10614610b85578063782a4ade14610b9c5780637ec2a72414610bbc578063812eecd414610bdd57806381a3c94314610bfd5780638505fe9514610c1d57600080fd5b80632f745c59116103b457806342966c681161033657806354b249fb116102ef57806354b249fb14610a27578063550ef3a814610a58578063558b71e914610a78578063564aa99d14610a9857806356e0d51f14610ab85780636207a8da14610acf57600080fd5b806342966c68146109595780634cd38c1d146109795780634d025fed146109995780634e2ce6d3146109d05780634f6ccce7146109e757806352b0f63814610a0757600080fd5b80632f745c59146107f757806330176e131461081757806331159a1714610837578063338189971461085757806336568abe14610877578063389f07e81461089757806338af3eed146108b85780633916c781146108d957806339f46986146108f9578063407dc5891461091957806342842e0e1461093957600080fd5b806313af403511610458578063248a9ca311610411578063248a9ca31461071557806326e9ca07146107455780632af9162a146107665780632d33dd5b146107865780632f2ff15d146107a75780632f54bf6e146107c757600080fd5b806313af40351461066557806318160ddd14610685578063183767da1461069b578063217751bc146106b257806323100509146106d357806323b872dd146106f557600080fd5b806301ffc9a7146104e2578063068208cd1461051757806306fdde0314610539578063081812fc1461055b578063095ea7b314610588578063097ba333146105a85780630aaffd2a146105d65780630c2db8d1146105f65780630f15023b1461061657806310e569731461063757806311a4c03a1461064e57600080fd5b366104dd57005b600080fd5b3480156104ee57600080fd5b506105026104fd366004615062565b61108c565b60405190151581526020015b60405180910390f35b34801561052357600080fd5b5061053761053236600461507f565b61109d565b005b34801561054557600080fd5b5061054e61111c565b60405161050e9190615103565b34801561056757600080fd5b5061057b610576366004615116565b6111ab565b60405161050e919061512f565b34801561059457600080fd5b506105376105a3366004615158565b6111d3565b3480156105b457600080fd5b506105c86105c3366004615247565b61126e565b60405190815260200161050e565b3480156105e257600080fd5b506105376105f13660046152a8565b61130f565b34801561060257600080fd5b506105376106113660046152c5565b611361565b34801561062257600080fd5b50610c835461057b906001600160a01b031681565b34801561064357600080fd5b506105c8610c855481565b34801561065a57600080fd5b506105c8610c845481565b34801561067157600080fd5b506105376106803660046152a8565b6113b6565b34801561069157600080fd5b50610c87546105c8565b3480156106a757600080fd5b506105c86124075481565b3480156106be57600080fd5b50610c8a5461057b906001600160a01b031681565b3480156106df57600080fd5b506105c8600080516020615dc883398151915281565b34801561070157600080fd5b506105376107103660046152c5565b611448565b34801561072157600080fd5b506105c8610730366004615116565b60009081526097602052604090206001015490565b34801561075157600080fd5b50610c8b5461057b906001600160a01b031681565b34801561077257600080fd5b506105376107813660046152a8565b611482565b34801561079257600080fd5b50610c895461057b906001600160a01b031681565b3480156107b357600080fd5b506105376107c2366004615306565b6114d9565b3480156107d357600080fd5b506105026107e23660046152a8565b612bda546001600160a01b0390811691161490565b34801561080357600080fd5b506105c8610812366004615158565b6114fe565b34801561082357600080fd5b5061053761083236600461537e565b611552565b34801561084357600080fd5b50610537610852366004615116565b611567565b61086a6108653660046154f0565b611596565b60405161050e91906155c7565b34801561088357600080fd5b50610537610892366004615306565b611a7c565b3480156108a357600080fd5b50610c8f5461057b906001600160a01b031681565b3480156108c457600080fd5b50610c885461057b906001600160a01b031681565b3480156108e557600080fd5b506105376108f436600461560b565b611aff565b34801561090557600080fd5b5061053761091436600461567c565b611cd3565b34801561092557600080fd5b50610537610934366004615158565b611d21565b34801561094557600080fd5b506105376109543660046152c5565b611d75565b34801561096557600080fd5b50610537610974366004615116565b611d90565b34801561098557600080fd5b5061053761099436600461567c565b611de1565b3480156109a557600080fd5b5061057b6109b4366004615116565b611078602052600090815260409020546001600160a01b031681565b3480156109dc57600080fd5b506105c8610c8d5481565b3480156109f357600080fd5b506105c8610a02366004615116565b611e36565b348015610a1357600080fd5b50610502610a223660046152a8565b611e5f565b348015610a3357600080fd5b506105c8610a42366004615116565b600090815261107b602052604090206001015490565b348015610a6457600080fd5b50610537610a7336600461537e565b611e79565b348015610a8457600080fd5b50610537610a9336600461567c565b611e8e565b348015610aa457600080fd5b50610537610ab33660046152a8565b611eb2565b348015610ac457600080fd5b506105c86127f05481565b348015610adb57600080fd5b5061201e546105c8565b348015610af157600080fd5b50610537610b00366004615116565b611f09565b348015610b1157600080fd5b5061057b610b20366004615116565b611f17565b348015610b3157600080fd5b50610502610b403660046152a8565b611f33565b348015610b5157600080fd5b50610537610b6036600461569e565b612021565b348015610b7157600080fd5b506105c8610b803660046152a8565b61213a565b348015610b9157600080fd5b506105c8610c865481565b348015610ba857600080fd5b50610537610bb736600461537e565b61218c565b348015610bc857600080fd5b50610c8c5461057b906001600160a01b031681565b348015610be957600080fd5b506105c8610bf83660046152a8565b6121d3565b348015610c0957600080fd5b5061086a610c18366004615723565b612219565b348015610c2957600080fd5b50610537610c38366004615306565b612358565b348015610c4957600080fd5b50610537610c58366004615116565b61252f565b348015610c6957600080fd5b50610537610c7836600461537e565b5050600b610c8d55565b348015610c8e57600080fd5b506105c8600080516020615e0883398151915281565b348015610cb057600080fd5b50612bda546001600160a01b031661057b565b348015610ccf57600080fd5b50610502610cde366004615306565b612570565b348015610cef57600080fd5b506105c8610cfe366004615116565b61259b565b348015610d0f57600080fd5b506105c86110775481565b348015610d2657600080fd5b5061054e612688565b348015610d3b57600080fd5b506104b15461057b906001600160a01b031681565b348015610d5c57600080fd5b506105c8600081565b348015610d7157600080fd5b50610537610d803660046157ab565b6127b3565b348015610d9157600080fd5b50610537610da0366004615306565b61286e565b348015610db157600080fd5b506105c86127f15481565b348015610dc857600080fd5b50610502610dd7366004615116565b600090815261107b6020526040902060010154421090565b348015610dfb57600080fd5b50610502610e0a3660046152a8565b6128fc565b348015610e1b57600080fd5b50610537610e2a366004615306565b612916565b348015610e3b57600080fd5b506105c8610e4a36600461567c565b612964565b348015610e5b57600080fd5b50610502610e6a366004615158565b6129d7565b348015610e7b57600080fd5b50610537610e8a3660046157d9565b612a57565b348015610e9b57600080fd5b50610537610eaa366004615116565b612a8b565b348015610ebb57600080fd5b506105c8610eca3660046152a8565b6120226020526000908152604090205481565b348015610ee957600080fd5b5061054e610ef8366004615116565b612abd565b348015610f0957600080fd5b50604051600b815260200161050e565b348015610f2557600080fd5b50610537610f343660046152a8565b612d4f565b348015610f4557600080fd5b50610537610f54366004615116565b612da6565b348015610f6557600080fd5b50610c8e546105c8565b348015610f7b57600080fd5b50610537610f8a366004615306565b612dd8565b610537610f9d366004615844565b612dfd565b348015610fae57600080fd5b50610537610fbd366004615158565b61300d565b348015610fce57600080fd5b50610502610fdd3660046158ad565b613032565b348015610fee57600080fd5b50610537613061565b34801561100357600080fd5b506105376110123660046158db565b6130a6565b34801561102357600080fd5b50610537613262565b34801561103857600080fd5b50610537611047366004615158565b613272565b34801561105857600080fd5b50610537611067366004615116565b6133a0565b34801561107857600080fd5b50610502611087366004615910565b6133ae565b600061109782613410565b92915050565b6110a68361341b565b6110af8361344d565b6110b88361347f565b6110c18261341b565b600083815261107b60205260409020600101546110df90429061594d565b8111156110ff576040516310e88eed60e31b815260040160405180910390fd5b61110b83826000613537565b61111782826001613537565b505050565b611463805461112a90615964565b80601f016020809104026020016040519081016040528092919081815260200182805461115690615964565b80156111a35780601f10611178576101008083540402835291602001916111a3565b820191906000526020600020905b81548152906001019060200180831161118657829003601f168201915b505050505081565b60006111b68261341b565b50600090815261107960205260409020546001600160a01b031690565b6111dc8161347f565b6001600160a01b038216330361120557604051637899146560e11b815260040160405180910390fd5b60008181526110796020908152604080832080546001600160a01b0319166001600160a01b03878116918217909255611076909352818420549151859492909116917f8c5be1e5ebec7d5bd14f71427d1e84f3dd0314c0f7b2291e5b200ac8c7c3b92591a45050565b610c89546000906001600160a01b03161561130257610c895460405163221c1fd160e01b81526001600160a01b039091169063221c1fd1906112ba903390889088908890600401615998565b602060405180830381865afa1580156112d7573d6000803e3d6000fd5b505050506040513d601f19601f820116820180604052508101906112fb91906159cc565b9050611308565b50610c85545b9392505050565b6113176135ed565b6001600160a01b03811661133e57604051635963709b60e01b815260040160405180910390fd5b610c8880546001600160a01b0319166001600160a01b0392909216919091179055565b61136b813361362f565b6113885760405163075fd2b160e01b815260040160405180910390fd5b6113938383836136a7565b60009081526110786020526040902080546001600160a01b031916331790555050565b6113be6138aa565b6001600160a01b0381166113e5576040516330c6e09f60e21b815260040160405180910390fd5b612bda80546001600160a01b038381166001600160a01b031983168117909355604080519190921680825260208201939093527f8be0079c531659141344cd1fd0a4f28419497f9722a3daafe3b4186f6b6457e091015b60405180910390a15050565b6114518161344d565b61145a8161347f565b60008181526110786020526040902080546001600160a01b03191690556111178383836136a7565b61148a6138aa565b6114a2600080516020615dc883398151915282612dd8565b6040516001600160a01b038216907f766f6199fea59554b9ff688e413302b9200f85d74811c053c12d945ac6d8dd7a90600090a250565b6000828152609760205260409020600101546114f4816138df565b61111783836138e9565b6000611509836121d3565b821061152857604051630471175760e11b815260040160405180910390fd5b506001600160a01b0391909116600090815261107c60209081526040808320938352929052205490565b61155a6138aa565b6111176114658383614fbc565b61156f6138aa565b806000036115905760405163e03b033d60e01b815260040160405180910390fd5b610c8e55565b60606115a061396f565b610c86548651610c87546115b491906159e5565b11156115d3576040516331af695160e01b815260040160405180910390fd5b845186511415806115e657508351865114155b15611604576040516376b3b52560e11b815260040160405180910390fd5b600080600088516001600160401b0381111561162257611622615184565b60405190808252806020026020018201604052801561164b578160200160208202803683370190505b50905060005b89518110156119715760008a828151811061166e5761166e6159fd565b60200260200101519050600019610c8454036116b1576116aa818a848151811061169a5761169a6159fd565b6020026020010151600019613993565b93506116e6565b6116e3818a84815181106116c7576116c76159fd565b6020026020010151610c8454426116de91906159e5565b613993565b93505b6000611764828c85815181106116fe576116fe6159fd565b60200260200101518b8b87818110611718576117186159fd565b905060200281019061172a9190615a13565b8080601f01602080910402602001604051908101604052809392919081815260200183838082843760009201919091525061126e92505050565b905061177081876159e5565b600086815261201f60209081526040808320859055610c84546120208352818420556104b15461202190925290912080546001600160a01b0319166001600160a01b03909216919091179055845190965085908590859081106117d5576117d56159fd565b60209081029190910101526104b1546001600160a01b0316158015906118135750808d8481518110611809576118096159fd565b6020026020010151105b15611831576040516330005fb160e21b815260040160405180910390fd5b611854818c8581518110611847576118476159fd565b6020026020010151613a6e565b6104b1546000906001600160a01b031615611888578d848151811061187b5761187b6159fd565b602002602001015161188a565b345b610c89549091506001600160a01b03161561195b57610c8960009054906101000a90046001600160a01b03166001600160a01b0316639849965733858f88815181106118d8576118d86159fd565b60200260200101518e8e8a8181106118f2576118f26159fd565b90506020028101906119049190615a13565b88886040518863ffffffff1660e01b81526004016119289796959493929190615a82565b600060405180830381600087803b15801561194257600080fd5b505af1158015611956573d6000803e3d6000fd5b505050505b505050808061196990615acd565b915050611651565b506104b1546001600160a01b031615611a05576104b1546040516323b872dd60e01b81526001600160a01b039091169081906323b872dd906119bb90339030908990600401615ae6565b6020604051808303816000875af11580156119da573d6000803e3d6000fd5b505050506040513d601f19601f820116820180604052508101906119fe9190615b0a565b5050611a26565b82341015611a26576040516306c3cddf60e41b815260040160405180910390fd5b611a2e613b73565b60005b8851811015611a6e57611a5c898281518110611a4f57611a4f6159fd565b6020026020010151613cca565b80611a6681615acd565b915050611a31565b509998505050505050505050565b6001600160a01b0381163314611af15760405162461bcd60e51b815260206004820152602f60248201527f416363657373436f6e74726f6c3a2063616e206f6e6c792072656e6f756e636560448201526e103937b632b9903337b91039b2b63360891b60648201526084015b60405180910390fd5b611afb8282613d63565b5050565b611b076138aa565b6001600160a01b03851615801590611b2e5750611b2c856001600160a01b0316613dca565b155b15611b4f57604051636788e02b60e01b815260006004820152602401611ae8565b6001600160a01b03841615801590611b765750611b74846001600160a01b0316613dca565b155b15611b9757604051636788e02b60e01b815260016004820152602401611ae8565b6001600160a01b03831615801590611bbe5750611bbc836001600160a01b0316613dca565b155b15611bdf57604051636788e02b60e01b815260026004820152602401611ae8565b6001600160a01b03821615801590611c065750611c04826001600160a01b0316613dca565b155b15611c2757604051636788e02b60e01b815260036004820152602401611ae8565b6001600160a01b03811615801590611c4e5750611c4c816001600160a01b0316613dca565b155b15611c6e57604051636788e02b60e01b8152600481810152602401611ae8565b610c8980546001600160a01b03199081166001600160a01b0397881617909155610c8a8054821695871695909517909455610c8c8054851692861692909217909155610c8b8054841692851692909217909155610c8f80549092169216919091179055565b611cdb6138aa565b60408051838152602081018390527fd6867bc538320e67d7bdc35860c27c08486eb490b4fd9b820fff18fb28381d3c910160405180910390a16127f1919091556127f055565b611d2a8161344d565b600081815261107860205260409020546001600160a01b03163314611d625760405163075fd2b160e01b815260040160405180910390fd5b611afb611d6e82611f17565b83836136a7565b61111783838360405180602001604052806000815250612a57565b611d998161341b565b611da28161347f565b600081815261107660205260408082205490518392916001600160a01b031690600080516020615de8833981519152908390a4611dde81613dd9565b50565b611de961396f565b611df28261341b565b611dfb33611e5f565b158015611e0e5750611e0c336128fc565b155b15611e2c57604051631798fedb60e01b815260040160405180910390fd5b6111178282613e13565b6000610c87548210611e5b57604051630471175760e11b815260040160405180910390fd5b5090565b6000611097600080516020615dc883398151915283612570565b611e816138aa565b6111176114638383614fbc565b611e978261341b565b611ea08261344d565b611ea86138aa565b611afb8282613eef565b611eba6138aa565b611ed2600080516020615dc8833981519152826114d9565b6040516001600160a01b038216907f684f8a71407db0c334454ebe9c9b288549317893a20b10dc779ec5c118dcd12190600090a250565b611f116138aa565b610c8455565b600090815261107660205260409020546001600160a01b031690565b600080611f3f8361213a565b90508015611f825760005b81811015611f8057611f5f610dd785836114fe565b15611f6e575060019392505050565b80611f7881615acd565b915050611f4a565b505b610c8b546001600160a01b03161561201b57610c8b546040516370b6638f60e11b81523060048201526001600160a01b0385811660248301526000604483015284151560648301529091169063e16cc71e90608401602060405180830381865afa158015611ff4573d6000803e3d6000fd5b505050506040513d601f19601f820116820180604052508101906120189190615b0a565b91505b50919050565b600061202d600161400d565b90508015612045576000805461ff0019166101001790555b61204e8661409c565b610c838054336001600160a01b031991821617909155610c8880549091166001600160a01b038a16179055610c84879055610c85859055610c86849055600b610c8d556001610c8e556120a183836140c8565b6120a96140ee565b6120b56103e86127f055565b6120be886140fe565b612bda80546001600160a01b0319166001600160a01b038a161790556120ea6380ac58cd60e01b614186565b8015612130576000805461ff0019169055604051600181527f7f26b83ff96e1f2b6a682f133852f6798a09c465da95921460cefb38474024989060200160405180910390a15b5050505050505050565b600080612146836121d3565b905060005b8181101561218557612160610dd785836114fe565b15612173578261216f81615acd565b9350505b8061217d81615acd565b91505061214b565b5050919050565b6121946138aa565b6121a16114648383614fbc565b507f8868e22e84ebf32da89b2ebcb0ac642816304ea3863b257f240df9098719cb97828260405161143c929190615b27565b60006001600160a01b0382166121fc57604051635963709b60e01b815260040160405180910390fd5b506001600160a01b0316600090815261107e602052604090205490565b606061222361396f565b61222c33611e5f565b15801561223f575061223d336128fc565b155b1561225d57604051631798fedb60e01b815260040160405180910390fd5b6000866001600160401b0381111561227757612277615184565b6040519080825280602002602001820160405280156122a0578160200160208202803683370190505b50905060005b8781101561234c5761231d8989838181106122c3576122c36159fd565b90506020020160208101906122d891906152a8565b8686848181106122ea576122ea6159fd565b90506020020160208101906122ff91906152a8565b898985818110612311576123116159fd565b90506020020135613993565b82828151811061232f5761232f6159fd565b60209081029190910101528061234481615acd565b9150506122a6565b50979650505050505050565b61236061396f565b6123698261341b565b60008281526120206020526040902054600019148061239257506104b1546001600160a01b0316155b156123b057604051636cd40e1160e11b815260040160405180910390fd5b60006123d46123be84611f17565b836040518060200160405280600081525061126e565b600084815261201f6020526040902054909150811415806124075750610c84546000848152612020602052604090205414155b8061243157506104b154600084815261202160205260409020546001600160a01b03908116911614155b1561244f5760405163986739e760e01b815260040160405180910390fd5b600083815261107b6020526040902060010154421015612482576040516360d8ec3360e11b815260040160405180910390fd5b61248d836000613e13565b506124988183613a6e565b6104b1546001600160a01b0316806323b872dd6124b486611f17565b30856040518463ffffffff1660e01b81526004016124d493929190615ae6565b6020604051808303816000875af11580156124f3573d6000803e3d6000fd5b505050506040513d601f19601f820116820180604052508101906125179190615b0a565b50612520613b73565b61252983613cca565b50505050565b6125376138aa565b6040518181527f0496ed1e61eb69727f9659a8e859288db4758ffb1f744d1c1424634f90a257f49060200160405180910390a161240755565b60009182526097602090815260408084206001600160a01b0393909316845291905290205460ff1690565b60006125a68261344d565b600019610c8454036125bb575050610c855490565b600082815261107b60205260408120600101546125d990429061594d565b9050610c84546127f154826125ee91906159e5565b106125fe57610c8554915061261e565b610c845481610c85546126119190615b3b565b61261b9190615b5a565b91505b6127f154158061263d5750610c84546127f15461263b90836159e5565b105b1561201b5760006127106127f054610c85546126599190615b3b565b6126639190615b5a565b90508083111561267e57612677818461594d565b9250612185565b5060009392505050565b6060611464805461269890615964565b905060000361272257610c8360009054906101000a90046001600160a01b03166001600160a01b031663cec410526040518163ffffffff1660e01b8152600401600060405180830381865afa1580156126f5573d6000803e3d6000fd5b505050506040513d6000823e601f3d908101601f1916820160405261271d9190810190615b7c565b905090565b611464805461273090615964565b80601f016020809104026020016040519081016040528092919081815260200182805461275c90615964565b80156127a95780601f1061277e576101008083540402835291602001916127a9565b820191906000526020600020905b81548152906001019060200180831161278c57829003601f168201915b5050505050905090565b336001600160a01b038316036127dc57604051637899146560e11b815260040160405180910390fd5b6127106124075410612801576040516323f21a3d60e21b815260040160405180910390fd5b33600081815261107a602090815260408083206001600160a01b03871680855290835292819020805460ff191686151590811790915590519081529192917f17307eab39ab6107e8899845ad3d59bd9653f200f220920489ca2b5937696c31910160405180910390a35050565b6128766138aa565b61287f81614205565b610c8580546104b18054928590556001600160a01b031983166001600160a01b0385811691821790925560408051848152602081018890529290941693820184905260608201529091907f3615065ccf48367ac483ac86701248e2e5ff55bdd9be845007d34a3b68d719d49060800160405180910390a150505050565b6000611097600080516020615e0883398151915283612570565b61291f8261341b565b612929823361362f565b15801561293c575061293a336128fc565b155b1561295a5760405163866c2fa760e01b815260040160405180910390fd5b611afb828261429c565b600061296f8361341b565b600083815261107b602052604090206001015442811015612994576000915050611097565b6000836000036129af576129a8428361594d565b90506129b2565b50825b61271061240754826129c49190615b3b565b6129ce9190615b5a565b92505050611097565b60006129e16135ed565b6104b15460405163095ea7b360e01b81526001600160a01b039091169063095ea7b390612a149086908690600401615bf2565b6020604051808303816000875af1158015612a33573d6000803e3d6000fd5b505050506040513d601f19601f820116820180604052508101906113089190615b0a565b612a62848484611448565b612a6e84848484614329565b612529576040516303f8ea1560e41b815260040160405180910390fd5b612a936138aa565b610c8754811015612ab757604051631d00cd6b60e01b815260040160405180910390fd5b610c8655565b606080806000612acc306143e0565b905060608515612ae657612adf866145cb565b9250612af9565b6040518060200160405280600081525092505b610c8c546001600160a01b031615612bd057600086815261107b6020526040902060010154610c8c546001600160a01b031663988b93ad3033612b3b8b611f17565b60405160e085901b6001600160e01b03191681526001600160a01b03938416600482015291831660248301529091166044820152606481018a90526084810184905260a401600060405180830381865afa158015612b9d573d6000803e3d6000fd5b505050506040513d6000823e601f3d908101601f19168201604052612bc59190810190615b7c565b979650505050505050565b6114658054612bde90615964565b9050600003612c8657610c8360009054906101000a90046001600160a01b03166001600160a01b031663a998e9fb6040518163ffffffff1660e01b8152600401600060405180830381865afa158015612c3b573d6000803e3d6000fd5b505050506040513d6000823e601f3d908101601f19168201604052612c639190810190615b7c565b9350604051806040016040528060018152602001602f60f81b8152509050612d39565b6114658054612c9490615964565b80601f0160208091040260200160405190810160405280929190818152602001828054612cc090615964565b8015612d0d5780601f10612ce257610100808354040283529160200191612d0d565b820191906000526020600020905b815481529060010190602001808311612cf057829003601f168201915b505050505093506040518060200160405280600081525090506040518060200160405280600081525091505b612d45848383866146fb565b9695505050505050565b612d576138aa565b612d6f600080516020615e08833981519152826114d9565b6040516001600160a01b038216907f91d5c045d5bd98bf59a379b259ebca05b93bf79af1845fdf87e3172385d4c7f790600090a250565b612daf8161341b565b612db88161344d565b612dc18161347f565b6000612dcc8261259b565b9050611afb8282613eef565b600082815260976020526040902060010154612df3816138df565b6111178383613d63565b612e0561396f565b612e0e8461341b565b612e19846000613e13565b506000612e65612e2886611f17565b8585858080601f01602080910402602001604051908101604052809392919081815260200183838082843760009201919091525061126e92505050565b9050612e718185613a6e565b6104b1546001600160a01b031615612f255780861015612ea4576040516330005fb160e21b815260040160405180910390fd5b6104b1546040516323b872dd60e01b81526001600160a01b039091169081906323b872dd90612edb90339030908790600401615ae6565b6020604051808303816000875af1158015612efa573d6000803e3d6000fd5b505050506040513d601f19601f82011682018060405250810190612f1e9190615b0a565b5050612f46565b80341015612f46576040516306c3cddf60e41b815260040160405180910390fd5b600085815261201f60205260409020548114612f6f57600085815261201f602052604090208190555b610c84546000868152612020602052604090205414612f9d57610c8454600086815261202060205260409020555b6104b154600086815261202160205260409020546001600160a01b03908116911614612ff4576104b15460008681526120216020526040902080546001600160a01b0319166001600160a01b039092169190911790555b612ffc613b73565b61300584613cca565b505050505050565b6130156138aa565b6001600160a01b0390911660009081526120226020526040902055565b6001600160a01b03918216600090815261107a6020908152604080832093909416825291909152205460ff1690565b613079600080516020615e0883398151915233611a7c565b60405133907f42885193b8178d25fca25a38e6fcc93918501e91be06d85e0c8afb3bad95238090600090a2565b6130ae61396f565b610c8754610c8654116130d4576040516331af695160e01b815260040160405180910390fd5b6130dd8261347f565b6130e68261344d565b612710612407541061310b576040516323f21a3d60e21b815260040160405180910390fd5b600082815261107660205260408120546001600160a01b031690804261314186600090815261107b602052604090206001015490565b61314b919061594d565b905060006131598686612964565b9050600061316782876159e5565b9050828110156131855785935061318087826000613537565b6131dd565b61318f8784612964565b915061319b828461594d565b600088815261107b6020526040808220426001909101555191955088917f59f2fe866dd27a1c2d34115520888c3150365cbc931aab97fa88c4b9ab40b7959190a25b60006131ee89826116de88426159e5565b905080896001600160a01b0316876001600160a01b0316600080516020615de883398151915260405160405180910390a461323a868a8360405180602001604052806000815250614329565b613257576040516303f8ea1560e41b815260040160405180910390fd5b505050505050505050565b61326a6138aa565b600b610c8d55565b61327a6135ed565b60006001600160a01b038316613291575047613301565b6040516370a0823160e01b81526001600160a01b038416906370a08231906132bd90309060040161512f565b602060405180830381865afa1580156132da573d6000803e3d6000fd5b505050506040513d601f19601f820116820180604052508101906132fe91906159cc565b90505b600082158061330f57508183115b1561333c5760008211613335576040516303e09bb960e31b815260040160405180910390fd5b508061333f565b50815b610c88546040518281526001600160a01b039182169186169033907f342e7ff505a8a0364cd0dc2ff195c315e43bce86b204846ecd36913e117b109e9060200160405180910390a4610c88546125299085906001600160a01b03168361472d565b6133a86138aa565b61201e55565b60006133b98461344d565b600061271083426133da88600090815261107b602052604090206001015490565b6133e4919061594d565b6133ee9190615b3b565b6133f89190615b5a565b90506134058486836130a6565b506001949350505050565b600061109782614769565b600081815261107b60205260408120600101549003611dde576040516378fe247360e01b815260040160405180910390fd5b600081815261107b60205260409020600101544210611dde576040516306cfa7d760e11b815260040160405180910390fd5b600081815261107860205260408120546001600160a01b0316156134bb57600082815261107860205260409020546001600160a01b03166134d5565b600082815261107660205260409020546001600160a01b03165b90506134e1823361362f565b1580156135065750600082815261107960205260409020546001600160a01b03163314155b801561351957506135178133613032565b155b15611afb5760405163e17c6d4560e01b815260040160405180910390fd5b6135408361341b565b600083815261107b6020526040902060010154811561358d57428111156135835761356b83826159e5565b600085815261107b60205260409020600101556135ab565b61356b83426159e5565b613597838261594d565b600085815261107b60205260409020600101555b60408051848152831515602082015285917fe9408df99703ae33a9d01185bcad328ea8683fb1f920da9c30959c192f21b5b3910160405180910390a250505050565b6135f6336128fc565b15801561360f5750610c88546001600160a01b03163314155b1561362d5760405163c8f9577160e01b815260040160405180910390fd5b565b600082815261107860205260408120546001600160a01b03838116911614806136925750816001600160a01b031661366684611f17565b6001600160a01b03161480156136925750600083815261107860205260409020546001600160a01b0316155b1561369f57506001611097565b506000611097565b6136b08161344d565b826001600160a01b03166136c382611f17565b6001600160a01b0316146136ea5760405163075fd2b160e01b815260040160405180910390fd5b612710612407541061370f576040516323f21a3d60e21b815260040160405180910390fd5b6001600160a01b03821661373657604051635963709b60e01b815260040160405180910390fd5b816001600160a01b0316836001600160a01b03160361376857604051633fbd1a4960e01b815260040160405180910390fd5b61377e81613777836000612964565b6000613537565b600081815261107b602052604090206137968361213a565b6000036137b45761107780549060006137ae83615acd565b91905055505b6137bd82614774565b6137c7828461487a565b6137d08261491f565b60008281526120206020908152604080832083905561201f9091528082208290555183916001600160a01b038087169290881691600080516020615de883398151915291a4610c8f546001600160a01b03161561252957610c8f5460018201546040516375b37aef60e01b8152306004820152602481018590523360448201526001600160a01b038781166064830152868116608483015260a48201929092529116906375b37aef9060c401600060405180830381600087803b15801561389657600080fd5b505af1158015612130573d6000803e3d6000fd5b6138c2600080516020615e0883398151915233612570565b61362d57604051632386d63160e21b815260040160405180910390fd5b611dde813361495c565b6138f38282612570565b611afb5760008281526097602090815260408083206001600160a01b03851684529091529020805460ff1916600117905561392b3390565b6001600160a01b0316816001600160a01b0316837f2f8788117e7eff1d82e926ec794901d17c78024a50270940304540a733656f0d60405160405180910390a45050565b610c8d54600b1461362d576040516302eae03b60e61b815260040160405180910390fd5b60006001600160a01b0384166139bc57604051635963709b60e01b815260040160405180910390fd5b610c8780549060006139cd83615acd565b9091555050610c87546040805180820182528281526020808201868152600085815261107b9092529290209051815590516001909101559050613a0f846121d3565b600003613a2d576110778054906000613a2783615acd565b91905055505b613a37818561487a565b613a41818461429c565b60405181906001600160a01b03861690600090600080516020615de8833981519152908290a49392505050565b610c83546001600160a01b03163b15613b3557610c835460405163939d9f1f60e01b8152600481018490526001600160a01b0383811660248301529091169063939d9f1f90620493e090604401600060405180830381600088803b158015613ad557600080fd5b5087f193505050508015613ae7575060015b611afb57610c835460405130917f6b18946261693dfd6c760d986b28ad2238b5b0267f8e5b6bc40a2f998e2f20ac91613b29916001600160a01b03169061512f565b60405180910390a25050565b610c835460405130917f6b18946261693dfd6c760d986b28ad2238b5b0267f8e5b6bc40a2f998e2f20ac91613b29916001600160a01b03169061512f565b61201e541561362d576104b1546001600160a01b031615613c0f576104b15461201e5460405163a9059cbb60e01b81526001600160a01b0390921691829163a9059cbb91613bc5913391600401615bf2565b6020604051808303816000875af1158015613be4573d6000803e3d6000fd5b505050506040513d601f19601f82011682018060405250810190613c089190615b0a565b5050613c7c565b61201e5460405160009133918381818185875af1925050503d8060008114613c53576040519150601f19603f3d011682016040523d82523d6000602084013e613c58565b606091505b5050905080613c7a5760405163045ed26b60e11b815260040160405180910390fd5b505b61201e546104b154604080519283526001600160a01b03909116602083015233917f522a883b471164223f18b50f326da8671372b64b4792eac0e63d447e714c3e3b910160405180910390a2565b6120226020527fbed07da93ba22716a54f603f075ff3d6567a94916ac6d58738883fb4a4b47ea6546001600160a01b0382166000908152604090205415613d2757506001600160a01b038116600090815261202260205260409020545b8015611afb576104b154610c8554611afb916001600160a01b031690849061271090613d54908690615b3b565b613d5e9190615b5a565b61472d565b613d6d8282612570565b15611afb5760008281526097602090815260408083206001600160a01b0385168085529252808320805460ff1916905551339285917ff6391f5c32d9c69d2a47ea670b442974b53935d1edc7fd64eb21e047a839171b9190a45050565b6001600160a01b03163b151590565b613de281614774565b600090815261107b6020908152604080832042600190910155611076909152902080546001600160a01b0319169055565b600082815261107b60205260408120600190810154908101613e4857604051630fed19c160e11b815260040160405180910390fd5b60008315613e565783613e5b565b610c84545b90506000198103613e70576000199250613e96565b42821115613e8957613e8281836159e5565b9250613e96565b613e9381426159e5565b92505b600085815261107b6020526040908190206001018490555185907f3ca112768ff7861e008ace1c11570c52e404c043e585545b5957a1e20961dde390613edf9086815260200190565b60405180910390a2505092915050565b6000613efa83611f17565b9050613f0583613dd9565b336001600160a01b0316816001600160a01b0316847f0a7068a9989857441c039a14a42b67ed71dd1fcfe5a9b17cc87b252e47bce52885604051613f4b91815260200190565b60405180910390a48115613f71576104b154613f71906001600160a01b0316828461472d565b60008381526120206020908152604080832083905561201f909152812055610c8a546001600160a01b03161561111757610c8a5460405163b499b6c560e01b81526001600160a01b039091169063b499b6c590613fd690339085908790600401615ae6565b600060405180830381600087803b158015613ff057600080fd5b505af1158015614004573d6000803e3d6000fd5b50505050505050565b60008054610100900460ff161561405b578160ff166001148015614037575061403530613dca565b155b6140535760405162461bcd60e51b8152600401611ae890615c0b565b506000919050565b60005460ff8084169116106140825760405162461bcd60e51b8152600401611ae890615c0b565b506000805460ff191660ff92909216919091179055600190565b6140a581614205565b6104b180546001600160a01b0319166001600160a01b0392909216919091179055565b6140d06149c0565b6140dd6114638383614fbc565b50611afb635b5e139f60e01b614186565b61362d63780e9d6360e01b614186565b614116600080516020615e0883398151915280614a2b565b61413c600080516020615dc8833981519152600080516020615e08833981519152614a2b565b614145816128fc565b61416157614161600080516020615e0883398151915282614a76565b61416a81611e5f565b611dde57611dde600080516020615dc883398151915282614a76565b6001600160e01b031980821690036141e05760405162461bcd60e51b815260206004820152601c60248201527f4552433136353a20696e76616c696420696e74657266616365206964000000006044820152606401611ae8565b6001600160e01b0319166000908152606560205260409020805460ff19166001179055565b6001600160a01b0381161580159061427e57506000816001600160a01b03166318160ddd6040518163ffffffff1660e01b8152600401602060405180830381865afa158015614258573d6000803e3d6000fd5b505050506040513d601f19601f8201168201806040525081019061427c91906159cc565b105b15611dde5760405163684cae7960e11b815260040160405180910390fd5b600082815261107860205260409020546001600160a01b03828116911614611afb5760008281526110786020526040902080546001600160a01b0319166001600160a01b0383161790556142ef8261491f565b6040516001600160a01b0382169083907f9d2895c45a420624de863a2f437b022d879f457bf7a829044055a10c5a6fd5e390600090a35050565b600061433d846001600160a01b0316613dca565b614349575060016143d8565b604051630a85bd0160e11b81526000906001600160a01b0386169063150b7a029061437e9033908a9089908990600401615c59565b6020604051808303816000875af115801561439d573d6000803e3d6000fd5b505050506040513d601f19601f820116820180604052508101906143c19190615c8c565b6001600160e01b031916630a85bd0160e11b149150505b949350505050565b604080518082018252601081526f181899199a1a9b1b9c1cb0b131b232b360811b60208201528151602a80825260608281019094526001600160a01b0385169291600091602082018180368337019050509050600360fc1b8160008151811061444b5761444b6159fd565b60200101906001600160f81b031916908160001a905350600f60fb1b8160018151811061447a5761447a6159fd565b60200101906001600160f81b031916908160001a90535060005b60148110156145c257826004856144ac84600c6159e5565b602081106144bc576144bc6159fd565b1a60f81b6001600160f81b031916901c60f81c60ff16815181106144e2576144e26159fd565b01602001516001600160f81b031916826144fd836002615b3b565b6145089060026159e5565b81518110614518576145186159fd565b60200101906001600160f81b031916908160001a905350828461453c83600c6159e5565b6020811061454c5761454c6159fd565b825191901a600f16908110614563576145636159fd565b01602001516001600160f81b0319168261457e836002615b3b565b6145899060036159e5565b81518110614599576145996159fd565b60200101906001600160f81b031916908160001a905350806145ba81615acd565b915050614494565b50949350505050565b60608160008190036145f65750506040805180820190915260018152600360fc1b6020820152919050565b8260005b8115614620578061460a81615acd565b91506146199050600a83615b5a565b91506145fa565b6000816001600160401b0381111561463a5761463a615184565b6040519080825280601f01601f191660200182016040528015614664576020820181803683370190505b509050815b84156146f15761467a60018261594d565b90506000614689600a87615b5a565b61469490600a615b3b565b61469e908761594d565b6146a9906030615ca9565b905060008160f81b9050808484815181106146c6576146c66159fd565b60200101906001600160f81b031916908160001a9053506146e8600a88615b5a565b96505050614669565b5095945050505050565b6060848484846040516020016147149493929190615cce565b6040516020818303038152906040529050949350505050565b8015611117576001600160a01b038316614754576111176001600160a01b03831682614a80565b826125296001600160a01b0382168484614b96565b600061109782614bec565b600081815261107660205260408120546001600160a01b03169060016147998361213a565b6147a3919061594d565b600084815261107d60205260409020549091508082146147f9576001600160a01b038316600090815261107c60209081526040808320858452825280832054848452818420819055835261107d90915290208190555b6001600160a01b038316600090815261107c60209081526040808320858452909152812055614827836121d3565b60010361484557611077805490600061483f83615d25565b91905055505b6001600160a01b038316600090815261107e6020526040812080546001929061486f90849061594d565b909155505050505050565b60006148858261213a565b9050610c8e5481106148aa57604051630bf6c32360e11b815260040160405180910390fd5b600083815261107d602090815260408083208490556001600160a01b03851680845261107c83528184208585528352818420879055868452611076835281842080546001600160a01b03191682179055835261107e90915281208054600192906149159084906159e5565b9091555050505050565b600081815261107960205260409020546001600160a01b031615611dde5760009081526110796020526040902080546001600160a01b0319169055565b6149668282612570565b611afb5761497e816001600160a01b03166014614c11565b614989836020614c11565b60405160200161499a929190615d3c565b60408051601f198184030181529082905262461bcd60e51b8252611ae891600401615103565b600054610100900460ff1661362d5760405162461bcd60e51b815260206004820152602b60248201527f496e697469616c697a61626c653a20636f6e7472616374206973206e6f74206960448201526a6e697469616c697a696e6760a81b6064820152608401611ae8565b600082815260976020526040808220600101805490849055905190918391839186917fbd79b86ffe0ab8e8776151514217cd7cacd52c909f66475c3af44e129f0b00ff9190a4505050565b611afb82826138e9565b80471015614ad05760405162461bcd60e51b815260206004820152601d60248201527f416464726573733a20696e73756666696369656e742062616c616e63650000006044820152606401611ae8565b6000826001600160a01b03168260405160006040518083038185875af1925050503d8060008114614b1d576040519150601f19603f3d011682016040523d82523d6000602084013e614b22565b606091505b50509050806111175760405162461bcd60e51b815260206004820152603a60248201527f416464726573733a20756e61626c6520746f2073656e642076616c75652c20726044820152791958da5c1a595b9d081b585e481a185d99481c995d995c9d195960321b6064820152608401611ae8565b6111178363a9059cbb60e01b8484604051602401614bb5929190615bf2565b60408051601f198184030181529190526020810180516001600160e01b03166001600160e01b031990931692909217909152614dac565b60006001600160e01b03198216637965db0b60e01b1480611097575061109782614e7e565b60606000614c20836002615b3b565b614c2b9060026159e5565b6001600160401b03811115614c4257614c42615184565b6040519080825280601f01601f191660200182016040528015614c6c576020820181803683370190505b509050600360fc1b81600081518110614c8757614c876159fd565b60200101906001600160f81b031916908160001a905350600f60fb1b81600181518110614cb657614cb66159fd565b60200101906001600160f81b031916908160001a9053506000614cda846002615b3b565b614ce59060016159e5565b90505b6001811115614d5d576f181899199a1a9b1b9c1cb0b131b232b360811b85600f1660108110614d1957614d196159fd565b1a60f81b828281518110614d2f57614d2f6159fd565b60200101906001600160f81b031916908160001a90535060049490941c93614d5681615d25565b9050614ce8565b5083156113085760405162461bcd60e51b815260206004820181905260248201527f537472696e67733a20686578206c656e67746820696e73756666696369656e746044820152606401611ae8565b6000614e01826040518060400160405280602081526020017f5361666545524332303a206c6f772d6c6576656c2063616c6c206661696c6564815250856001600160a01b0316614eba9092919063ffffffff16565b8051909150156111175780806020019051810190614e1f9190615b0a565b6111175760405162461bcd60e51b815260206004820152602a60248201527f5361666545524332303a204552433230206f7065726174696f6e20646964206e6044820152691bdd081cdd58d8d9595960b21b6064820152608401611ae8565b60006301ffc9a760e01b6001600160e01b0319831614806110975750506001600160e01b03191660009081526065602052604090205460ff1690565b60606143d8848460008585614ece85613dca565b614f1a5760405162461bcd60e51b815260206004820152601d60248201527f416464726573733a2063616c6c20746f206e6f6e2d636f6e74726163740000006044820152606401611ae8565b600080866001600160a01b03168587604051614f369190615dab565b60006040518083038185875af1925050503d8060008114614f73576040519150601f19603f3d011682016040523d82523d6000602084013e614f78565b606091505b5091509150612bc582828660608315614f92575081611308565b825115614fa25782518084602001fd5b8160405162461bcd60e51b8152600401611ae89190615103565b828054614fc890615964565b90600052602060002090601f016020900481019282614fea5760008555615030565b82601f106150035782800160ff19823516178555615030565b82800160010185558215615030579182015b82811115615030578235825591602001919060010190615015565b50611e5b9291505b80821115611e5b5760008155600101615038565b6001600160e01b031981168114611dde57600080fd5b60006020828403121561507457600080fd5b81356113088161504c565b60008060006060848603121561509457600080fd5b505081359360208301359350604090920135919050565b60005b838110156150c65781810151838201526020016150ae565b838111156125295750506000910152565b600081518084526150ef8160208601602086016150ab565b601f01601f19169290920160200192915050565b60208152600061130860208301846150d7565b60006020828403121561512857600080fd5b5035919050565b6001600160a01b0391909116815260200190565b6001600160a01b0381168114611dde57600080fd5b6000806040838503121561516b57600080fd5b823561517681615143565b946020939093013593505050565b634e487b7160e01b600052604160045260246000fd5b604051601f8201601f191681016001600160401b03811182821017156151c2576151c2615184565b604052919050565b60006001600160401b038211156151e3576151e3615184565b50601f01601f191660200190565b600082601f83011261520257600080fd5b8135615215615210826151ca565b61519a565b81815284602083860101111561522a57600080fd5b816020850160208301376000918101602001919091529392505050565b60008060006060848603121561525c57600080fd5b833561526781615143565b9250602084013561527781615143565b915060408401356001600160401b0381111561529257600080fd5b61529e868287016151f1565b9150509250925092565b6000602082840312156152ba57600080fd5b813561130881615143565b6000806000606084860312156152da57600080fd5b83356152e581615143565b925060208401356152f581615143565b929592945050506040919091013590565b6000806040838503121561531957600080fd5b82359150602083013561532b81615143565b809150509250929050565b60008083601f84011261534857600080fd5b5081356001600160401b0381111561535f57600080fd5b60208301915083602082850101111561537757600080fd5b9250929050565b6000806020838503121561539157600080fd5b82356001600160401b038111156153a757600080fd5b6153b385828601615336565b90969095509350505050565b60006001600160401b038211156153d8576153d8615184565b5060051b60200190565b600082601f8301126153f357600080fd5b81356020615403615210836153bf565b82815260059290921b8401810191818101908684111561542257600080fd5b8286015b8481101561543d5780358352918301918301615426565b509695505050505050565b600082601f83011261545957600080fd5b81356020615469615210836153bf565b82815260059290921b8401810191818101908684111561548857600080fd5b8286015b8481101561543d57803561549f81615143565b835291830191830161548c565b60008083601f8401126154be57600080fd5b5081356001600160401b038111156154d557600080fd5b6020830191508360208260051b850101111561537757600080fd5b60008060008060008060a0878903121561550957600080fd5b86356001600160401b038082111561552057600080fd5b61552c8a838b016153e2565b9750602089013591508082111561554257600080fd5b61554e8a838b01615448565b9650604089013591508082111561556457600080fd5b6155708a838b01615448565b9550606089013591508082111561558657600080fd5b6155928a838b01615448565b945060808901359150808211156155a857600080fd5b506155b589828a016154ac565b979a9699509497509295939492505050565b6020808252825182820181905260009190848201906040850190845b818110156155ff578351835292840192918401916001016155e3565b50909695505050505050565b600080600080600060a0868803121561562357600080fd5b853561562e81615143565b9450602086013561563e81615143565b9350604086013561564e81615143565b9250606086013561565e81615143565b9150608086013561566e81615143565b809150509295509295909350565b6000806040838503121561568f57600080fd5b50508035926020909101359150565b600080600080600080600060c0888a0312156156b957600080fd5b87356156c481615143565b96506020880135955060408801356156db81615143565b9450606088013593506080880135925060a08801356001600160401b0381111561570457600080fd5b6157108a828b01615336565b989b979a50959850939692959293505050565b6000806000806000806060878903121561573c57600080fd5b86356001600160401b038082111561575357600080fd5b61575f8a838b016154ac565b9098509650602089013591508082111561577857600080fd5b6157848a838b016154ac565b909650945060408901359150808211156155a857600080fd5b8015158114611dde57600080fd5b600080604083850312156157be57600080fd5b82356157c981615143565b9150602083013561532b8161579d565b600080600080608085870312156157ef57600080fd5b84356157fa81615143565b9350602085013561580a81615143565b92506040850135915060608501356001600160401b0381111561582c57600080fd5b615838878288016151f1565b91505092959194509250565b60008060008060006080868803121561585c57600080fd5b8535945060208601359350604086013561587581615143565b925060608601356001600160401b0381111561589057600080fd5b61589c88828901615336565b969995985093965092949392505050565b600080604083850312156158c057600080fd5b82356158cb81615143565b9150602083013561532b81615143565b6000806000606084860312156158f057600080fd5b83356158fb81615143565b95602085013595506040909401359392505050565b60008060006060848603121561592557600080fd5b8335925060208401356152f581615143565b634e487b7160e01b600052601160045260246000fd5b60008282101561595f5761595f615937565b500390565b600181811c9082168061597857607f821691505b60208210810361201b57634e487b7160e01b600052602260045260246000fd5b6001600160a01b038581168252848116602083015283166040820152608060608201819052600090612d45908301846150d7565b6000602082840312156159de57600080fd5b5051919050565b600082198211156159f8576159f8615937565b500190565b634e487b7160e01b600052603260045260246000fd5b6000808335601e19843603018112615a2a57600080fd5b8301803591506001600160401b03821115615a4457600080fd5b60200191503681900382131561537757600080fd5b81835281816020850137506000828201602090810191909152601f909101601f19169091010190565b6001600160a01b03888116825287811660208301528616604082015260c060608201819052600090615ab79083018688615a59565b60808301949094525060a0015295945050505050565b600060018201615adf57615adf615937565b5060010190565b6001600160a01b039384168152919092166020820152604081019190915260600190565b600060208284031215615b1c57600080fd5b81516113088161579d565b6020815260006143d8602083018486615a59565b6000816000190483118215151615615b5557615b55615937565b500290565b600082615b7757634e487b7160e01b600052601260045260246000fd5b500490565b600060208284031215615b8e57600080fd5b81516001600160401b03811115615ba457600080fd5b8201601f81018413615bb557600080fd5b8051615bc3615210826151ca565b818152856020838501011115615bd857600080fd5b615be98260208301602086016150ab565b95945050505050565b6001600160a01b03929092168252602082015260400190565b6020808252602e908201527f496e697469616c697a61626c653a20636f6e747261637420697320616c72656160408201526d191e481a5b9a5d1a585b1a5e995960921b606082015260800190565b6001600160a01b0385811682528416602082015260408101839052608060608201819052600090612d45908301846150d7565b600060208284031215615c9e57600080fd5b81516113088161504c565b600060ff821660ff84168060ff03821115615cc657615cc6615937565b019392505050565b60008551615ce0818460208a016150ab565b855190830190615cf4818360208a016150ab565b8551910190615d078183602089016150ab565b8451910190615d1a8183602088016150ab565b019695505050505050565b600081615d3457615d34615937565b506000190190565b76020b1b1b2b9b9a1b7b73a3937b61d1030b1b1b7bab73a1604d1b815260008351615d6e8160178501602088016150ab565b7001034b99036b4b9b9b4b733903937b6329607d1b6017918401918201528351615d9f8160288401602088016150ab565b01602801949350505050565b60008251615dbd8184602087016150ab565b919091019291505056feb309c40027c81d382c3b58d8de24207a34b27e1db369b1434e4a11311f154b5eddf252ad1be2c89b69c2b068fc378daa952ba7f163c4a11628f55a4df523b3efb89cdd26cddd51301940bf2715f765b626b8a5a9e2681ac62dc83cc2db2530c0a2646970667358221220b668d1221ec5bf106e7778d1d923e33202686301094e29fa6691fed7e7140ef064736f6c634300080d0033",
  "linkReferences": {},
  "deployedLinkReferences": {}
}