{
  "contractName": "Lock",
  "abi": [
    {
      "constant": true,
      "inputs": [
        {
          "name": "",
          "type": "uint256"
        }
      ],
      "name": "owners",
      "outputs": [
        {
          "name": "",
          "type": "address"
        }
      ],
      "payable": false,
      "stateMutability": "view",
      "type": "function"
    },
    {
      "constant": true,
      "inputs": [],
      "name": "unlockProtocol",
      "outputs": [
        {
          "name": "",
          "type": "address"
        }
      ],
      "payable": false,
      "stateMutability": "view",
      "type": "function"
    },
    {
      "constant": true,
      "inputs": [],
      "name": "keyPrice",
      "outputs": [
        {
          "name": "",
          "type": "uint256"
        }
      ],
      "payable": false,
      "stateMutability": "view",
      "type": "function"
    },
    {
      "constant": true,
      "inputs": [],
      "name": "expirationDuration",
      "outputs": [
        {
          "name": "",
          "type": "uint256"
        }
      ],
      "payable": false,
      "stateMutability": "view",
      "type": "function"
    },
    {
      "constant": true,
      "inputs": [],
      "name": "keyReleaseMechanism",
      "outputs": [
        {
          "name": "",
          "type": "uint8"
        }
      ],
      "payable": false,
      "stateMutability": "view",
      "type": "function"
    },
    {
      "constant": false,
      "inputs": [],
      "name": "renounceOwnership",
      "outputs": [],
      "payable": false,
      "stateMutability": "nonpayable",
      "type": "function"
    },
    {
      "constant": true,
      "inputs": [],
      "name": "maxNumberOfKeys",
      "outputs": [
        {
          "name": "",
          "type": "uint256"
        }
      ],
      "payable": false,
      "stateMutability": "view",
      "type": "function"
    },
    {
      "constant": true,
      "inputs": [],
      "name": "owner",
      "outputs": [
        {
          "name": "",
          "type": "address"
        }
      ],
      "payable": false,
      "stateMutability": "view",
      "type": "function"
    },
    {
      "constant": false,
      "inputs": [
        {
          "name": "_newOwner",
          "type": "address"
        }
      ],
      "name": "transferOwnership",
      "outputs": [],
      "payable": false,
      "stateMutability": "nonpayable",
      "type": "function"
    },
    {
      "inputs": [
        {
          "name": "_owner",
          "type": "address"
        },
        {
          "name": "_keyReleaseMechanism",
          "type": "uint8"
        },
        {
          "name": "_expirationDuration",
          "type": "uint256"
        },
        {
          "name": "_keyPrice",
          "type": "uint256"
        },
        {
          "name": "_maxNumberOfKeys",
          "type": "uint256"
        }
      ],
      "payable": false,
      "stateMutability": "nonpayable",
      "type": "constructor"
    },
    {
      "anonymous": false,
      "inputs": [
        {
          "indexed": true,
          "name": "previousOwner",
          "type": "address"
        }
      ],
      "name": "OwnershipRenounced",
      "type": "event"
    },
    {
      "anonymous": false,
      "inputs": [
        {
          "indexed": true,
          "name": "previousOwner",
          "type": "address"
        },
        {
          "indexed": true,
          "name": "newOwner",
          "type": "address"
        }
      ],
      "name": "OwnershipTransferred",
      "type": "event"
    },
    {
      "anonymous": false,
      "inputs": [
        {
          "indexed": true,
          "name": "_from",
          "type": "address"
        },
        {
          "indexed": true,
          "name": "_to",
          "type": "address"
        },
        {
          "indexed": false,
          "name": "_tokenId",
          "type": "uint256"
        }
      ],
      "name": "Transfer",
      "type": "event"
    },
    {
      "anonymous": false,
      "inputs": [
        {
          "indexed": true,
          "name": "_owner",
          "type": "address"
        },
        {
          "indexed": true,
          "name": "_approved",
          "type": "address"
        },
        {
          "indexed": false,
          "name": "_tokenId",
          "type": "uint256"
        }
      ],
      "name": "Approval",
      "type": "event"
    },
    {
      "anonymous": false,
      "inputs": [
        {
          "indexed": true,
          "name": "_owner",
          "type": "address"
        },
        {
          "indexed": true,
          "name": "_operator",
          "type": "address"
        },
        {
          "indexed": false,
          "name": "_approved",
          "type": "bool"
        }
      ],
      "name": "ApprovalForAll",
      "type": "event"
    },
    {
      "constant": false,
      "inputs": [
        {
          "name": "_recipient",
          "type": "address"
        },
        {
          "name": "_data",
          "type": "bytes"
        }
      ],
      "name": "purchaseFor",
      "outputs": [],
      "payable": true,
      "stateMutability": "payable",
      "type": "function"
    },
    {
      "constant": false,
      "inputs": [
        {
          "name": "_recipient",
          "type": "address"
        },
        {
          "name": "_referrer",
          "type": "address"
        },
        {
          "name": "_data",
          "type": "bytes"
        }
      ],
      "name": "purchaseForFrom",
      "outputs": [],
      "payable": true,
      "stateMutability": "payable",
      "type": "function"
    },
    {
      "constant": false,
      "inputs": [
        {
          "name": "_from",
          "type": "address"
        },
        {
          "name": "_recipient",
          "type": "address"
        },
        {
          "name": "_tokenId",
          "type": "uint256"
        }
      ],
      "name": "transferFrom",
      "outputs": [],
      "payable": true,
      "stateMutability": "payable",
      "type": "function"
    },
    {
      "constant": false,
      "inputs": [],
      "name": "withdraw",
      "outputs": [],
      "payable": false,
      "stateMutability": "nonpayable",
      "type": "function"
    },
    {
      "constant": false,
      "inputs": [
        {
          "name": "_approved",
          "type": "address"
        },
        {
          "name": "_tokenId",
          "type": "uint256"
        }
      ],
      "name": "approve",
      "outputs": [],
      "payable": true,
      "stateMutability": "payable",
      "type": "function"
    },
    {
      "constant": true,
      "inputs": [
        {
          "name": "_owner",
          "type": "address"
        }
      ],
      "name": "balanceOf",
      "outputs": [
        {
          "name": "",
          "type": "uint256"
        }
      ],
      "payable": false,
      "stateMutability": "view",
      "type": "function"
    },
    {
      "constant": true,
      "inputs": [
        {
          "name": "_tokenId",
          "type": "uint256"
        }
      ],
      "name": "ownerOf",
      "outputs": [
        {
          "name": "",
          "type": "address"
        }
      ],
      "payable": false,
      "stateMutability": "view",
      "type": "function"
    },
    {
      "constant": true,
      "inputs": [
        {
          "name": "_tokenId",
          "type": "uint256"
        }
      ],
      "name": "getApproved",
      "outputs": [
        {
          "name": "",
          "type": "address"
        }
      ],
      "payable": false,
      "stateMutability": "view",
      "type": "function"
    },
    {
      "constant": true,
      "inputs": [],
      "name": "outstandingKeys",
      "outputs": [
        {
          "name": "",
          "type": "uint256"
        }
      ],
      "payable": false,
      "stateMutability": "view",
      "type": "function"
    },
    {
      "constant": false,
      "inputs": [
        {
          "name": "_owner",
          "type": "address"
        }
      ],
      "name": "expireKeyFor",
      "outputs": [],
      "payable": false,
      "stateMutability": "nonpayable",
      "type": "function"
    },
    {
      "constant": false,
      "inputs": [
        {
          "name": "_keyPrice",
          "type": "uint256"
        }
      ],
      "name": "updateKeyPrice",
      "outputs": [],
      "payable": false,
      "stateMutability": "nonpayable",
      "type": "function"
    },
    {
      "constant": true,
      "inputs": [
        {
          "name": "_owner",
          "type": "address"
        }
      ],
      "name": "keyDataFor",
      "outputs": [
        {
          "name": "data",
          "type": "bytes"
        }
      ],
      "payable": false,
      "stateMutability": "view",
      "type": "function"
    },
    {
      "constant": true,
      "inputs": [
        {
          "name": "_owner",
          "type": "address"
        }
      ],
      "name": "keyExpirationTimestampFor",
      "outputs": [
        {
          "name": "timestamp",
          "type": "uint256"
        }
      ],
      "payable": false,
      "stateMutability": "view",
      "type": "function"
    }
  ],
  "bytecode": "0x608060405234801561001057600080fd5b5060405160a08061167083398101604090815281516020830151918301516060840151608090940151600080546001805433600160a060020a031991821681178084559382161716600160a060020a038716179092559395929385919060a060020a60ff0219167401000000000000000000000000000000000000000083600281111561009957fe5b021790555060029290925560035560045550506115b5806100bb6000396000f30060806040526004361061010e5763ffffffff60e060020a600035041663025e7c278114610113578063081812fc14610147578063095ea7b31461015f5780630f15023b1461017857806310e569731461018d57806311a4c03a146101b45780631f1ec029146101c957806323b872dd146101e15780633ccfd60b146101fe57806347a510151461021357806347dc10851461024c57806353b704d0146102615780636352211e1461028157806370a0823114610299578063715018a6146102ba57806374b6c106146102cf5780638da5cb5b146102e45780639f98d3cb146102f9578063abdf82ce1461031a578063d44fa14a1461033b578063d8125eb3146103d1578063f2fde38b146103f9575b600080fd5b34801561011f57600080fd5b5061012b60043561041a565b60408051600160a060020a039092168252519081900360200190f35b34801561015357600080fd5b5061012b600435610442565b610176600160a060020a0360043516602435610453565b005b34801561018457600080fd5b5061012b6105c1565b34801561019957600080fd5b506101a26105d0565b60408051918252519081900360200190f35b3480156101c057600080fd5b506101a26105d6565b3480156101d557600080fd5b506101766004356105dc565b610176600160a060020a03600435811690602435166044356105f8565b34801561020a57600080fd5b5061017661095a565b34801561021f57600080fd5b50610228610a0a565b6040518082600281111561023857fe5b60ff16815260200191505060405180910390f35b34801561025857600080fd5b506101a2610a1a565b61017660048035600160a060020a03169060248035908101910135610a21565b34801561028d57600080fd5b5061012b600435610a62565b3480156102a557600080fd5b506101a2600160a060020a0360043516610acb565b3480156102c657600080fd5b50610176610b5f565b3480156102db57600080fd5b506101a2610bcb565b3480156102f057600080fd5b5061012b610bd1565b34801561030557600080fd5b50610176600160a060020a0360043516610be0565b34801561032657600080fd5b506101a2600160a060020a0360043516610c88565b34801561034757600080fd5b5061035c600160a060020a0360043516610d07565b6040805160208082528351818301528351919283929083019185019080838360005b8381101561039657818101518382015260200161037e565b50505050905090810190601f1680156103c35780820380516001836020036101000a031916815260200191505b509250505060405180910390f35b610176600160a060020a03600480358216916024803590911691604435918201910135610e1a565b34801561040557600080fd5b50610176600160a060020a0360043516610ed0565b600680548290811061042857fe5b600091825260209091200154600160a060020a0316905081565b600061044d82610ef3565b92915050565b80600260015460a060020a900460ff16600281111561046e57fe5b14156104ea576040805160e560020a62461bcd02815260206004820152602a60248201527f4f6e6c7920616c6c6f776564206f6e207075626c6963206f722072657374726960448201527f63746564206c6f636b7300000000000000000000000000000000000000000000606482015290519081900360840190fd5b600054600160a060020a031633148061052d5750600160a060020a0381163314801561052d5750600060015460a060020a900460ff16600281111561052b57fe5b145b151561053857600080fd5b600160a060020a038316151561054d57600080fd5b600160a060020a03828116600081815260076020908152604091829020805473ffffffffffffffffffffffffffffffffffffffff19169488169485179055815186815291517f8c5be1e5ebec7d5bd14f71427d1e84f3dd0314c0f7b2291e5b200ac8c7c3b9259281900390910190a3505050565b600154600160a060020a031681565b60035481565b60025481565b600054600160a060020a031633146105f357600080fd5b600355565b6006546004546000911061067c576040805160e560020a62461bcd02815260206004820152602360248201527f4d6178696d756d206e756d626572206f66206b65797320616c7265616479207360448201527f6f6c640000000000000000000000000000000000000000000000000000000000606482015290519081900360840190fd5b600060015460a060020a900460ff16600281111561069657fe5b146106eb576040805160e560020a62461bcd02815260206004820152601c60248201527f4f6e6c7920616c6c6f776564206f6e207075626c6963206c6f636b7300000000604482015290519081900360640190fd5b600160a060020a0382166000908152600560205260408120805484921061074a576040805160e560020a62461bcd02815260206004820152600b602482015260008051602061156a833981519152604482015290519081900360640190fd5b83600160a060020a03811633148061077257503361076782610ef3565b600160a060020a0316145b15156107c8576040805160e560020a62461bcd02815260206004820181905260248201527f4f6e6c79206b6579206f776e6572206f7220617070726f766564206f776e6572604482015290519081900360640190fd5b600160a060020a03861615156107dd57600080fd5b600160a060020a038616600090815260056020526040902054935083151561085857600680546001810182556000919091527ff652222313e28459528d920b65115c16c04f3efc82aaedc97be59f3f377c0d3f01805473ffffffffffffffffffffffffffffffffffffffff1916600160a060020a0388161790555b42841161088757600160a060020a038088166000908152600560205260408082205492891682529020556108b4565b600160a060020a038088166000908152600560205260408082205492891682529020429186019190910390555b600160a060020a0387811660009081526005602052604080822092891682529020600191820180546108fb939283019260029082161561010002600019019091160461145c565b50600160a060020a0380881660008181526005602090815260409182902042905581518981529151938a16937fddf252ad1be2c89b69c2b068fc378daa952ba7f163c4a11628f55a4df523b3ef9281900390910190a350505050505050565b60008054600160a060020a0316331461097257600080fd5b503031600081116109cd576040805160e560020a62461bcd02815260206004820152601060248201527f4e6f7420656e6f7567682066756e647300000000000000000000000000000000604482015290519081900360640190fd5b60008054604051600160a060020a039091169183156108fc02918491818181858888f19350505050158015610a06573d6000803e3d6000fd5b5050565b60015460a060020a900460ff1681565b6006545b90565b610a5d83600084848080601f01602080910402602001604051908101604052809392919081815260200183838082843750610f1c945050505050565b505050565b600160a060020a038116600090815260056020526040812080548391908310610ac3576040805160e560020a62461bcd02815260206004820152600b602482015260008051602061156a833981519152604482015290519081900360640190fd5b509192915050565b600160a060020a038116600090815260056020526040812080548391908310610b2c576040805160e560020a62461bcd02815260206004820152600b602482015260008051602061156a833981519152604482015290519081900360640190fd5b600160a060020a03841660009081526005602052604081205411610b51576000610b54565b60015b60ff16949350505050565b600054600160a060020a03163314610b7657600080fd5b60008054604051600160a060020a03909116917ff8df31144d9c2f0f6b59d69b8b98abd5459d07f2742c4df920b25aae33c6482091a26000805473ffffffffffffffffffffffffffffffffffffffff19169055565b60045481565b600054600160a060020a031681565b600054600160a060020a03163314610bf757600080fd5b600160a060020a038116600090815260056020526040902080548291904210610c6a576040805160e560020a62461bcd02815260206004820152601060248201527f4b6579206973206e6f742076616c696400000000000000000000000000000000604482015290519081900360640190fd5b5050600160a060020a03166000908152600560205260409020429055565b600160a060020a038116600090815260056020526040812080548391908310610ce9576040805160e560020a62461bcd02815260206004820152600b602482015260008051602061156a833981519152604482015290519081900360640190fd5b505050600160a060020a031660009081526005602052604090205490565b600160a060020a0381166000908152600560205260408120805460609284929111610d6a576040805160e560020a62461bcd02815260206004820152600b602482015260008051602061156a833981519152604482015290519081900360640190fd5b600160a060020a038416600090815260056020908152604091829020600190810180548451600293821615610100026000190190911692909204601f810184900484028301840190945283825290929091830182828015610e0c5780601f10610de157610100808354040283529160200191610e0c565b820191906000526020600020905b815481529060010190602001808311610def57829003601f168201915b505050505092505050919050565b600160a060020a038316600090815260056020526040902080548491904210610e8d576040805160e560020a62461bcd02815260206004820152601060248201527f4b6579206973206e6f742076616c696400000000000000000000000000000000604482015290519081900360640190fd5b610ec8868686868080601f01602080910402602001604051908101604052809392919081815260200183838082843750610f1c945050505050565b505050505050565b600054600160a060020a03163314610ee757600080fd5b610ef0816113df565b50565b600160a060020a0380821660009081526007602052604081205490911680151561044d57600080fd5b6000806000806000600680549050600454111515610faa576040805160e560020a62461bcd02815260206004820152602360248201527f4d6178696d756d206e756d626572206f66206b65797320616c7265616479207360448201527f6f6c640000000000000000000000000000000000000000000000000000000000606482015290519081900360840190fd5b87600060015460a060020a900460ff166002811115610fc557fe5b148061100b57506001805460a060020a900460ff166002811115610fe557fe5b14801561100b5750600160a060020a03811661100081610ef3565b600160a060020a0316145b1515611087576040805160e560020a62461bcd02815260206004820152603960248201527f4f6e6c79207075626c6963206c6f636b73206f7220726573747269636564207760448201527f69746820616e20617070726f76656420726563697069656e7400000000000000606482015290519081900360840190fd5b600160a060020a038916151561109c57600080fd5b600154600354604080517f0cb175e3000000000000000000000000000000000000000000000000000000008152600160a060020a038d81166004830152602482019390935281519290931698508892630cb175e392604480830193928290030181600087803b15801561110e57600080fd5b505af1158015611122573d6000803e3d6000fd5b505050506040513d604081101561113857600080fd5b508051602090910151600354919650945092508285111561115c5760009250611164565b846003540392505b348311156111bc576040805160e560020a62461bcd02815260206004820152601260248201527f496e73756666696369656e742066756e64730000000000000000000000000000604482015290519081900360640190fd5b600160a060020a0389166000908152600560205260409020549150428210156112525760068054600181019091557ff652222313e28459528d920b65115c16c04f3efc82aaedc97be59f3f377c0d3f01805473ffffffffffffffffffffffffffffffffffffffff1916600160a060020a038b16908117909155600254600091825260056020526040909120429091019055611273565b600254600160a060020a038a16600090815260056020526040902090830190555b600160a060020a038916600090815260056020908152604090912088516112a2926001909201918a01906114e1565b5060008511156113165785600160a060020a0316633652466386866040518363ffffffff1660e060020a0281526004018083815260200182815260200192505050600060405180830381600087803b1580156112fd57600080fd5b505af1158015611311573d6000803e3d6000fd5b505050505b85600160a060020a031663939d9f1f848a6040518363ffffffff1660e060020a0281526004018083815260200182600160a060020a0316600160a060020a0316815260200192505050600060405180830381600087803b15801561137957600080fd5b505af115801561138d573d6000803e3d6000fd5b505060408051600160a060020a038d168082529151919350600092507fddf252ad1be2c89b69c2b068fc378daa952ba7f163c4a11628f55a4df523b3ef919081900360200190a3505050505050505050565b600160a060020a03811615156113f457600080fd5b60008054604051600160a060020a03808516939216917f8be0079c531659141344cd1fd0a4f28419497f9722a3daafe3b4186f6b6457e091a36000805473ffffffffffffffffffffffffffffffffffffffff1916600160a060020a0392909216919091179055565b828054600181600116156101000203166002900490600052602060002090601f016020900481019282601f1061149557805485556114d1565b828001600101855582156114d157600052602060002091601f016020900482015b828111156114d15782548255916001019190600101906114b6565b506114dd92915061154f565b5090565b828054600181600116156101000203166002900490600052602060002090601f016020900481019282601f1061152257805160ff19168380011785556114d1565b828001600101855582156114d1579182015b828111156114d1578251825591602001919060010190611534565b610a1e91905b808211156114dd576000815560010161155556004e6f2073756368206b6579000000000000000000000000000000000000000000a165627a7a72305820980beeb9011988cee5c63843b04a46a8230b5b4d87ec22e768f614194e035b4b0029",
  "source": "pragma solidity 0.4.24;\n\nimport \"./interfaces/ILock.sol\";\nimport \"./Unlock.sol\";\n\n/**\n * TODO: consider error codes rather than strings\n */\n\n/**\n * @title The Lock contract\n * @author Julien Genestoux (unlock-protocol.com)\n * Eventually: implement ERC721.\n *  TODO: consider using a _private version for each method that is being invoked by the\n * public one as this seems to be a pattern.\n */\ncontract Lock is ILock {\n\n  // The struct for a key\n  struct Key {\n    uint expirationTimestamp;\n    bytes data; // Note: This can be expensive?\n  }\n\n  // Fields\n  // Unlock Protocol address\n  // TODO: should we make that private/internal?\n  address public unlockProtocol;\n\n  // Key release mechanism\n  enum KeyReleaseMechanisms { Public, Restricted, Private }\n  KeyReleaseMechanisms public keyReleaseMechanism;\n\n  // Duration in seconds for which the keys are valid, after creation\n  // should we take a smaller type use less gas?\n  // TODO: add support for a timestamp instead of duration\n  uint public expirationDuration;\n\n  // price in wei of the next key\n  // TODO: allow support for a keyPriceCalculator which could set prices dynamically\n  uint public keyPrice;\n\n  // Max number of keys sold if the keyReleaseMechanism is public\n  uint public maxNumberOfKeys;\n\n  // Keys\n  // Each owner can have at most exactly one key\n  // TODO: could we use public here? (this could be confusing though because it getter will\n  // return 0 values when missing a key)\n  mapping (address => Key) internal keyByOwner;\n\n  // Addresses of owners are also stored in an array.\n  // Addresses are never removed by design to avoid abuses around referals\n  address[] public owners;\n\n  // Keeping track of approved transfers\n  // This is a mapping of addresses which have approved\n  // the transfer of a key to another address where their key can be transfered\n  // Note: the approver may actually NOT have a key... and there can only\n  // be a single approved beneficiary\n  // Note 2: for transfer, both addresses will be different\n  // Note 3: for sales (new keys on restricted locks), both addresses will be the same\n  mapping (address => address) internal approved;\n\n  /**\n   * MODIFIERS\n   */\n  // Ensure the lock is public\n  modifier onlyPublic() {\n    require(keyReleaseMechanism == KeyReleaseMechanisms.Public, \"Only allowed on public locks\");\n    _;\n  }\n\n  // Ensure that the sender is either the lock owner or the key owner on a public lock\n  modifier onlyLockOwnerOnRestrictedOrKeyOwnerInPublic(\n    uint256 _tokenId\n  ) {\n    require(keyReleaseMechanism != KeyReleaseMechanisms.Private, \"Only allowed on public or restricted locks\");\n\n    require(\n      owner == msg.sender ||\n      (address(_tokenId) == msg.sender && keyReleaseMechanism == KeyReleaseMechanisms.Public)\n    );\n    _;\n  }\n\n  // Ensures that an owner has a key\n  modifier hasKey(\n    address _owner\n  ) {\n    Key storage key = keyByOwner[_owner];\n    require(\n      key.expirationTimestamp > 0, \"No such key\"\n    );\n    _;\n  }\n\n  // Ensures that an owner has a valid key\n  modifier hasValidKey(\n    address _owner\n  ) {\n    Key storage key = keyByOwner[_owner];\n    require(\n      key.expirationTimestamp > now, \"Key is not valid\"\n    );\n    _;\n  }\n\n  // Ensure that the caller owns the token\n  modifier onlyKeyOwner(\n    uint256 _tokenId\n  ) {\n    require(\n      address(_tokenId) == msg.sender\n    );\n    _;\n  }\n\n  // Ensures that the lock is public\n  // or that the sender has been approved on restricted locks\n  modifier onlyPublicOrApproved(\n    address _recipient\n  ) {\n    require(keyReleaseMechanism == KeyReleaseMechanisms.Public ||\n      (keyReleaseMechanism == KeyReleaseMechanisms.Restricted\n        && _getApproved(uint256(_recipient)) == _recipient),\n        \"Only public locks or restriced with an approved recipient\");\n    _;\n  }\n\n  // Ensure that the caller has a key\n  // or that the caller has been approved\n  // for ownership of that key\n  modifier onlyKeyOwnerOrApproved(\n    uint256 _tokenId\n  ) {\n    require(\n      address(_tokenId) == msg.sender\n      || _getApproved(_tokenId) == msg.sender\n    , \"Only key owner or approved owner\");\n    _;\n  }\n\n  // Ensure that the Lock has not sold all of its keys.\n  modifier notSoldOut() {\n    require(maxNumberOfKeys > owners.length, \"Maximum number of keys already sold\");\n    _;\n  }\n\n  // Constructor\n  constructor(\n    address _owner,\n    KeyReleaseMechanisms _keyReleaseMechanism,\n    uint _expirationDuration,\n    uint _keyPrice,\n    uint _maxNumberOfKeys\n  )\n    public {\n      unlockProtocol = msg.sender; // Make sure we link back to Unlock's smart contract. (TODO: handle upgrades?)\n      owner = _owner;\n      keyReleaseMechanism = _keyReleaseMechanism;\n      expirationDuration = _expirationDuration;\n      keyPrice = _keyPrice;\n      maxNumberOfKeys = _maxNumberOfKeys;\n    }\n\n  /**\n  * @dev Purchase function, public version, with no referrer.\n  * @param _recipient address of the recipient of the purchased key\n  * @param _data optional marker for the key\n  */\n  function purchaseFor(\n    address _recipient,\n    bytes _data\n  )\n    external\n    payable\n  {\n    return _purchaseFor(_recipient, address(0), _data);\n  }\n\n  /**\n  * @dev Purchase function, public version, with referrer.\n  * @param _recipient address of the recipient of the purchased key\n  * @param _referrer address of the user making the referral\n  * @param _data optional marker for the key\n  */\n  function purchaseForFrom(\n    address _recipient,\n    address _referrer,\n    bytes _data\n  )\n    external\n    payable\n    hasValidKey(_referrer)\n  {\n    return _purchaseFor(_recipient, _referrer, _data);\n  }\n\n  /**\n   * This is payable because at some point we want to allow the LOCK to capture a fee on 2ndary\n   * market transactions...\n   */\n  function transferFrom(\n    address _from,\n    address _recipient,\n    uint256 _tokenId\n  )\n    external\n    payable\n    notSoldOut()\n    onlyPublic()\n    hasKey(address(_tokenId))\n    onlyKeyOwnerOrApproved(_tokenId)\n  {\n    require(_recipient != address(0));\n\n    uint previousExpiration = keyByOwner[_recipient].expirationTimestamp;\n\n    if (previousExpiration == 0) {\n      // The recipient did not have a key previously\n      owners.push(_recipient);\n    }\n\n    if (previousExpiration <= now) {\n      // The recipient did not have a key, or had a key but it expired. The new expiration is the\n      // sender's key expiration\n      keyByOwner[_recipient].expirationTimestamp = keyByOwner[_from].expirationTimestamp;\n    } else {\n      // The recipient has a non expired key. We just add them the corresponding remaining time\n      keyByOwner[_recipient].expirationTimestamp =\n        keyByOwner[_from].expirationTimestamp + previousExpiration - now;\n    }\n    // Overwite data in all cases\n    keyByOwner[_recipient].data = keyByOwner[_from].data;\n\n    // Effectively expiring the key for the previous owner\n    keyByOwner[_from].expirationTimestamp = now;\n\n    // trigger event\n    emit Transfer(\n      _from,\n      _recipient,\n      _tokenId\n    );\n  }\n\n  /**\n   * @dev Called by owner to wiwthdraw all funds from the lock.\n   * TODO: consider allowing anybody to trigger this as long as it goes to owner anyway?\n   * TODO: consider partial withdraws?\n   * TODO: check for re-entrency?\n   */\n  function withdraw(\n  )\n    external\n    onlyOwner\n  {\n    uint256 balance = address(this).balance;\n    require(balance > 0, \"Not enough funds\");\n    owner.transfer(balance);\n  }\n\n  /**\n   * This approves _approved to get ownership of _tokenId.\n   * Note: that since this is used for both purchase and transfer approvals\n   * the approved token may not exist.\n   */\n  function approve(\n    address _approved,\n    uint256 _tokenId\n  )\n    external\n    payable\n    onlyLockOwnerOnRestrictedOrKeyOwnerInPublic(_tokenId)\n  {\n    require(_approved != address(0));\n\n    approved[address(_tokenId)] = _approved;\n    emit Approval(address(_tokenId), _approved, _tokenId);\n  }\n\n  /**\n   * In the specific case of a Lock, each owner can own only at most 1 key.\n   * @return The number of NFTs owned by `_owner`, either 0 or 1.\n  */\n  function balanceOf(\n    address _owner\n  )\n    external\n    view\n    hasKey(_owner)\n    returns (uint256)\n  {\n    return keyByOwner[_owner].expirationTimestamp > 0 ? 1 : 0;\n  }\n\n  /**\n   * @notice ERC721: Find the owner of an NFT\n   * @return The address of the owner of the NFT, if applicable\n  */\n  function ownerOf(\n    uint256 _tokenId\n  )\n    external\n    view\n    hasKey(address(_tokenId))\n    returns (address)\n  {\n    return address(_tokenId);\n  }\n\n  /**\n   * external version\n   * Will return the approved recipient for a key, if any.\n   */\n  function getApproved(\n    uint256 _tokenId\n  )\n    external\n    view\n    returns (address)\n  {\n    return _getApproved(_tokenId);\n  }\n\n  /**\n   * Public function which returns the total number of keys (both expired and valid)\n   */\n  function outstandingKeys()\n    public\n    view\n    returns (uint)\n  {\n    return owners.length;\n  }\n\n  /**\n   * A function which lets the owner of the lock expire a users' key.\n   */\n  function expireKeyFor(\n    address _owner\n  )\n    public\n    onlyOwner\n    hasValidKey(_owner)\n  {\n    keyByOwner[_owner].expirationTimestamp = now; // Effectively expiring the key\n  }\n  \n  /**\n   * A function which lets the owner of the lock to change the price for future purchases.\n   */\n  function updateKeyPrice(\n    uint _keyPrice\n  )\n    external\n    onlyOwner\n  {\n    keyPrice = _keyPrice;\n  }\n\n  /**\n  * @dev Returns the key's data field for a given owner.\n  * @param _owner address of the user for whom we search the key\n  */\n  function keyDataFor(\n    address _owner\n  )\n    public\n    view\n    hasKey(_owner)\n    returns (bytes data)\n  {\n    return keyByOwner[_owner].data;\n  }\n\n  /**\n  * @dev Returns the key's ExpirationTimestamp field for a given owner.\n  * @param _owner address of the user for whom we search the key\n  */\n  function keyExpirationTimestampFor(\n    address _owner\n  )\n    public\n    view\n    hasKey(_owner)\n    returns (uint timestamp)\n  {\n    return keyByOwner[_owner].expirationTimestamp;\n  }\n\n  /**\n  * @dev Purchase function: this lets a user purchase a key from the lock for another user\n  * @param _recipient address of the recipient of the purchased key\n  * @param _data optional marker for the key\n  * This will fail if\n  *  - the keyReleaseMechanism is private\n  *  - the keyReleaseMechanism is Approved and the recipient has not been previously approved\n  *  - the amount value is smaller than the price\n  *  - the recipient already owns a key\n  * TODO: next version of solidity will allow for message to be added to require.\n  */\n  function _purchaseFor(\n    address _recipient,\n    address _referrer,\n    bytes _data\n  )\n    internal\n    notSoldOut()\n    onlyPublicOrApproved(_recipient)\n  {\n    require(_recipient != address(0));\n\n    // Let's get the actual price for the key from the Unlock smart contract\n    Unlock unlock = Unlock(unlockProtocol);\n    uint discount;\n    uint tokens;\n    (discount, tokens) = unlock.computeAvailableDiscountFor(_recipient, keyPrice);\n    uint netPrice = keyPrice;\n    if (discount > keyPrice) {\n      netPrice = 0;\n    } else {\n      netPrice = keyPrice - discount;\n    }\n\n    // We explicitly allow for greater amounts to allow \"donations\" or partial refunds after\n    // discounts (TODO implement partial refunds)\n    require(msg.value >= netPrice, \"Insufficient funds\");\n    // TODO: If there is more than the required price, then let's return whatever is extra\n    // extra (CAREFUL: re-entrency!)\n\n    // Assign the key\n    uint previousExpiration = keyByOwner[_recipient].expirationTimestamp;\n    if (previousExpiration < now) {\n      owners.push(_recipient);\n      keyByOwner[_recipient].expirationTimestamp = now + expirationDuration;\n    } else {\n      // This is an existing owner trying to extend their key\n      keyByOwner[_recipient].expirationTimestamp = previousExpiration + expirationDuration;\n    }\n    // Overwite data in all cases\n    keyByOwner[_recipient].data = _data;\n\n    if (discount > 0) {\n      unlock.recordConsumedDiscount(discount, tokens);\n    }\n\n    unlock.recordKeyPurchase(netPrice, _referrer);\n\n    // trigger event\n    emit Transfer(\n      0, // This is a creation.\n      _recipient,\n      uint256(_recipient) // Note: since each user can own a single token, we use the current\n      // owner (new!) for the token id\n    );\n  }\n\n  /**\n   * Will return the approved recipient for a key transfer or ownership.\n   * Note: this does not check that a corresponding key\n   * actually exists.\n   */\n  function _getApproved(\n    uint256 _tokenId\n  )\n    internal\n    view\n    returns (address)\n  {\n    address approvedRecipient = approved[address(_tokenId)];\n    require(approvedRecipient != address(0));\n    return approvedRecipient;\n  }\n\n}\n",
  "sourcePath": "/Users/julien/repos/unlock/smart-contracts/contracts/Lock.sol",
  "compiler": {
    "name": "solc",
    "version": "0.4.24+commit.e67f0147.Emscripten.clang"
  },
  "schemaVersion": "2.0.0",
  "updatedAt": "2018-09-28T15:09:04.389Z"
}