{
  "contractName": "Lock",
  "abi": [
    {
      "constant": true,
      "inputs": [
        {
          "name": "",
          "type": "uint256"
        }
      ],
      "name": "owners",
      "outputs": [
        {
          "name": "",
          "type": "address"
        }
      ],
      "payable": false,
      "stateMutability": "view",
      "type": "function"
    },
    {
      "constant": true,
      "inputs": [],
      "name": "unlockProtocol",
      "outputs": [
        {
          "name": "",
          "type": "address"
        }
      ],
      "payable": false,
      "stateMutability": "view",
      "type": "function"
    },
    {
      "constant": true,
      "inputs": [],
      "name": "keyPrice",
      "outputs": [
        {
          "name": "",
          "type": "uint256"
        }
      ],
      "payable": false,
      "stateMutability": "view",
      "type": "function"
    },
    {
      "constant": true,
      "inputs": [],
      "name": "expirationDuration",
      "outputs": [
        {
          "name": "",
          "type": "uint256"
        }
      ],
      "payable": false,
      "stateMutability": "view",
      "type": "function"
    },
    {
      "constant": true,
      "inputs": [],
      "name": "keyReleaseMechanism",
      "outputs": [
        {
          "name": "",
          "type": "uint8"
        }
      ],
      "payable": false,
      "stateMutability": "view",
      "type": "function"
    },
    {
      "constant": true,
      "inputs": [],
      "name": "maxNumberOfKeys",
      "outputs": [
        {
          "name": "",
          "type": "uint256"
        }
      ],
      "payable": false,
      "stateMutability": "view",
      "type": "function"
    },
    {
      "constant": true,
      "inputs": [],
      "name": "owner",
      "outputs": [
        {
          "name": "",
          "type": "address"
        }
      ],
      "payable": false,
      "stateMutability": "view",
      "type": "function"
    },
    {
      "constant": false,
      "inputs": [
        {
          "name": "newOwner",
          "type": "address"
        }
      ],
      "name": "transferOwnership",
      "outputs": [],
      "payable": false,
      "stateMutability": "nonpayable",
      "type": "function"
    },
    {
      "inputs": [
        {
          "name": "_owner",
          "type": "address"
        },
        {
          "name": "_keyReleaseMechanism",
          "type": "uint8"
        },
        {
          "name": "_expirationDuration",
          "type": "uint256"
        },
        {
          "name": "_keyPrice",
          "type": "uint256"
        },
        {
          "name": "_maxNumberOfKeys",
          "type": "uint256"
        }
      ],
      "payable": false,
      "stateMutability": "nonpayable",
      "type": "constructor"
    },
    {
      "anonymous": false,
      "inputs": [
        {
          "indexed": true,
          "name": "_from",
          "type": "address"
        },
        {
          "indexed": true,
          "name": "_to",
          "type": "address"
        },
        {
          "indexed": false,
          "name": "_tokenId",
          "type": "uint256"
        }
      ],
      "name": "Transfer",
      "type": "event"
    },
    {
      "anonymous": false,
      "inputs": [
        {
          "indexed": true,
          "name": "_owner",
          "type": "address"
        },
        {
          "indexed": true,
          "name": "_approved",
          "type": "address"
        },
        {
          "indexed": false,
          "name": "_tokenId",
          "type": "uint256"
        }
      ],
      "name": "Approval",
      "type": "event"
    },
    {
      "anonymous": false,
      "inputs": [
        {
          "indexed": true,
          "name": "_owner",
          "type": "address"
        },
        {
          "indexed": true,
          "name": "_operator",
          "type": "address"
        },
        {
          "indexed": false,
          "name": "_approved",
          "type": "bool"
        }
      ],
      "name": "ApprovalForAll",
      "type": "event"
    },
    {
      "anonymous": false,
      "inputs": [
        {
          "indexed": true,
          "name": "previousOwner",
          "type": "address"
        },
        {
          "indexed": true,
          "name": "newOwner",
          "type": "address"
        }
      ],
      "name": "OwnershipTransferred",
      "type": "event"
    },
    {
      "constant": false,
      "inputs": [
        {
          "name": "_recipient",
          "type": "address"
        },
        {
          "name": "_data",
          "type": "bytes"
        }
      ],
      "name": "purchaseFor",
      "outputs": [],
      "payable": true,
      "stateMutability": "payable",
      "type": "function"
    },
    {
      "constant": false,
      "inputs": [
        {
          "name": "_recipient",
          "type": "address"
        },
        {
          "name": "_referrer",
          "type": "address"
        },
        {
          "name": "_data",
          "type": "bytes"
        }
      ],
      "name": "purchaseForFrom",
      "outputs": [],
      "payable": true,
      "stateMutability": "payable",
      "type": "function"
    },
    {
      "constant": false,
      "inputs": [
        {
          "name": "_from",
          "type": "address"
        },
        {
          "name": "_recipient",
          "type": "address"
        },
        {
          "name": "_tokenId",
          "type": "uint256"
        }
      ],
      "name": "transferFrom",
      "outputs": [],
      "payable": true,
      "stateMutability": "payable",
      "type": "function"
    },
    {
      "constant": false,
      "inputs": [],
      "name": "withdraw",
      "outputs": [],
      "payable": false,
      "stateMutability": "nonpayable",
      "type": "function"
    },
    {
      "constant": false,
      "inputs": [
        {
          "name": "_approved",
          "type": "address"
        },
        {
          "name": "_tokenId",
          "type": "uint256"
        }
      ],
      "name": "approve",
      "outputs": [],
      "payable": true,
      "stateMutability": "payable",
      "type": "function"
    },
    {
      "constant": true,
      "inputs": [
        {
          "name": "_owner",
          "type": "address"
        }
      ],
      "name": "balanceOf",
      "outputs": [
        {
          "name": "",
          "type": "uint256"
        }
      ],
      "payable": false,
      "stateMutability": "view",
      "type": "function"
    },
    {
      "constant": true,
      "inputs": [
        {
          "name": "_tokenId",
          "type": "uint256"
        }
      ],
      "name": "ownerOf",
      "outputs": [
        {
          "name": "",
          "type": "address"
        }
      ],
      "payable": false,
      "stateMutability": "view",
      "type": "function"
    },
    {
      "constant": true,
      "inputs": [
        {
          "name": "_tokenId",
          "type": "uint256"
        }
      ],
      "name": "getApproved",
      "outputs": [
        {
          "name": "",
          "type": "address"
        }
      ],
      "payable": false,
      "stateMutability": "view",
      "type": "function"
    },
    {
      "constant": true,
      "inputs": [],
      "name": "outstandingKeys",
      "outputs": [
        {
          "name": "",
          "type": "uint256"
        }
      ],
      "payable": false,
      "stateMutability": "view",
      "type": "function"
    },
    {
      "constant": false,
      "inputs": [
        {
          "name": "_owner",
          "type": "address"
        }
      ],
      "name": "expireKeyFor",
      "outputs": [],
      "payable": false,
      "stateMutability": "nonpayable",
      "type": "function"
    },
    {
      "constant": true,
      "inputs": [
        {
          "name": "_owner",
          "type": "address"
        }
      ],
      "name": "keyDataFor",
      "outputs": [
        {
          "name": "data",
          "type": "bytes"
        }
      ],
      "payable": false,
      "stateMutability": "view",
      "type": "function"
    },
    {
      "constant": true,
      "inputs": [
        {
          "name": "_owner",
          "type": "address"
        }
      ],
      "name": "keyExpirationTimestampFor",
      "outputs": [
        {
          "name": "timestamp",
          "type": "uint256"
        }
      ],
      "payable": false,
      "stateMutability": "view",
      "type": "function"
    }
  ],
  "bytecode": "0x608060405234801561001057600080fd5b5060405160a08061159983398101604090815281516020830151918301516060840151608090940151600080546001805433600160a060020a031991821681178084559382161716600160a060020a038716179092559395929385919060a060020a60ff0219167401000000000000000000000000000000000000000083600281111561009957fe5b021790555060029290925560035560045550506114de806100bb6000396000f3006080604052600436106100f85763ffffffff60e060020a600035041663025e7c2781146100fd578063081812fc14610131578063095ea7b3146101495780630f15023b1461016257806310e569731461017757806311a4c03a1461019e57806323b872dd146101b35780633ccfd60b146101d057806347a51015146101e557806347dc10851461021e57806353b704d0146102335780636352211e1461025357806370a082311461026b57806374b6c1061461028c5780638da5cb5b146102a15780639f98d3cb146102b6578063abdf82ce146102d7578063d44fa14a146102f8578063d8125eb31461038e578063f2fde38b146103b6575b600080fd5b34801561010957600080fd5b506101156004356103d7565b60408051600160a060020a039092168252519081900360200190f35b34801561013d57600080fd5b506101156004356103ff565b610160600160a060020a0360043516602435610410565b005b34801561016e57600080fd5b5061011561057e565b34801561018357600080fd5b5061018c61058d565b60408051918252519081900360200190f35b3480156101aa57600080fd5b5061018c610593565b610160600160a060020a0360043581169060243516604435610599565b3480156101dc57600080fd5b506101606108fb565b3480156101f157600080fd5b506101fa6109ab565b6040518082600281111561020a57fe5b60ff16815260200191505060405180910390f35b34801561022a57600080fd5b5061018c6109bb565b61016060048035600160a060020a031690602480359081019101356109c2565b34801561025f57600080fd5b50610115600435610a03565b34801561027757600080fd5b5061018c600160a060020a0360043516610a6c565b34801561029857600080fd5b5061018c610b00565b3480156102ad57600080fd5b50610115610b06565b3480156102c257600080fd5b50610160600160a060020a0360043516610b15565b3480156102e357600080fd5b5061018c600160a060020a0360043516610bbd565b34801561030457600080fd5b50610319600160a060020a0360043516610c3c565b6040805160208082528351818301528351919283929083019185019080838360005b8381101561035357818101518382015260200161033b565b50505050905090810190601f1680156103805780820380516001836020036101000a031916815260200191505b509250505060405180910390f35b610160600160a060020a03600480358216916024803590911691604435918201910135610d4f565b3480156103c257600080fd5b50610160600160a060020a0360043516610e05565b60068054829081106103e557fe5b600091825260209091200154600160a060020a0316905081565b600061040a82610e99565b92915050565b80600260015460a060020a900460ff16600281111561042b57fe5b14156104a7576040805160e560020a62461bcd02815260206004820152602a60248201527f4f6e6c7920616c6c6f776564206f6e207075626c6963206f722072657374726960448201527f63746564206c6f636b7300000000000000000000000000000000000000000000606482015290519081900360840190fd5b600054600160a060020a03163314806104ea5750600160a060020a038116331480156104ea5750600060015460a060020a900460ff1660028111156104e857fe5b145b15156104f557600080fd5b600160a060020a038316151561050a57600080fd5b600160a060020a03828116600081815260076020908152604091829020805473ffffffffffffffffffffffffffffffffffffffff19169488169485179055815186815291517f8c5be1e5ebec7d5bd14f71427d1e84f3dd0314c0f7b2291e5b200ac8c7c3b9259281900390910190a3505050565b600154600160a060020a031681565b60035481565b60025481565b6006546004546000911061061d576040805160e560020a62461bcd02815260206004820152602360248201527f4d6178696d756d206e756d626572206f66206b65797320616c7265616479207360448201527f6f6c640000000000000000000000000000000000000000000000000000000000606482015290519081900360840190fd5b600060015460a060020a900460ff16600281111561063757fe5b1461068c576040805160e560020a62461bcd02815260206004820152601c60248201527f4f6e6c7920616c6c6f776564206f6e207075626c6963206c6f636b7300000000604482015290519081900360640190fd5b600160a060020a038216600090815260056020526040812080548492106106eb576040805160e560020a62461bcd02815260206004820152600b6024820152600080516020611493833981519152604482015290519081900360640190fd5b83600160a060020a03811633148061071357503361070882610e99565b600160a060020a0316145b1515610769576040805160e560020a62461bcd02815260206004820181905260248201527f4f6e6c79206b6579206f776e6572206f7220617070726f766564206f776e6572604482015290519081900360640190fd5b600160a060020a038616151561077e57600080fd5b600160a060020a03861660009081526005602052604090205493508315156107f957600680546001810182556000919091527ff652222313e28459528d920b65115c16c04f3efc82aaedc97be59f3f377c0d3f01805473ffffffffffffffffffffffffffffffffffffffff1916600160a060020a0388161790555b42841161082857600160a060020a03808816600090815260056020526040808220549289168252902055610855565b600160a060020a038088166000908152600560205260408082205492891682529020429186019190910390555b600160a060020a03878116600090815260056020526040808220928916825290206001918201805461089c9392830192600290821615610100026000190190911604611385565b50600160a060020a0380881660008181526005602090815260409182902042905581518981529151938a16937fddf252ad1be2c89b69c2b068fc378daa952ba7f163c4a11628f55a4df523b3ef9281900390910190a350505050505050565b60008054600160a060020a0316331461091357600080fd5b5030316000811161096e576040805160e560020a62461bcd02815260206004820152601060248201527f4e6f7420656e6f7567682066756e647300000000000000000000000000000000604482015290519081900360640190fd5b60008054604051600160a060020a039091169183156108fc02918491818181858888f193505050501580156109a7573d6000803e3d6000fd5b5050565b60015460a060020a900460ff1681565b6006545b90565b6109fe83600084848080601f01602080910402602001604051908101604052809392919081815260200183838082843750610ec2945050505050565b505050565b600160a060020a038116600090815260056020526040812080548391908310610a64576040805160e560020a62461bcd02815260206004820152600b6024820152600080516020611493833981519152604482015290519081900360640190fd5b509192915050565b600160a060020a038116600090815260056020526040812080548391908310610acd576040805160e560020a62461bcd02815260206004820152600b6024820152600080516020611493833981519152604482015290519081900360640190fd5b600160a060020a03841660009081526005602052604081205411610af2576000610af5565b60015b60ff16949350505050565b60045481565b600054600160a060020a031681565b600054600160a060020a03163314610b2c57600080fd5b600160a060020a038116600090815260056020526040902080548291904210610b9f576040805160e560020a62461bcd02815260206004820152601060248201527f4b6579206973206e6f742076616c696400000000000000000000000000000000604482015290519081900360640190fd5b5050600160a060020a03166000908152600560205260409020429055565b600160a060020a038116600090815260056020526040812080548391908310610c1e576040805160e560020a62461bcd02815260206004820152600b6024820152600080516020611493833981519152604482015290519081900360640190fd5b505050600160a060020a031660009081526005602052604090205490565b600160a060020a0381166000908152600560205260408120805460609284929111610c9f576040805160e560020a62461bcd02815260206004820152600b6024820152600080516020611493833981519152604482015290519081900360640190fd5b600160a060020a038416600090815260056020908152604091829020600190810180548451600293821615610100026000190190911692909204601f810184900484028301840190945283825290929091830182828015610d415780601f10610d1657610100808354040283529160200191610d41565b820191906000526020600020905b815481529060010190602001808311610d2457829003601f168201915b505050505092505050919050565b600160a060020a038316600090815260056020526040902080548491904210610dc2576040805160e560020a62461bcd02815260206004820152601060248201527f4b6579206973206e6f742076616c696400000000000000000000000000000000604482015290519081900360640190fd5b610dfd868686868080601f01602080910402602001604051908101604052809392919081815260200183838082843750610ec2945050505050565b505050505050565b600054600160a060020a03163314610e1c57600080fd5b600160a060020a0381161515610e3157600080fd5b60008054604051600160a060020a03808516939216917f8be0079c531659141344cd1fd0a4f28419497f9722a3daafe3b4186f6b6457e091a36000805473ffffffffffffffffffffffffffffffffffffffff1916600160a060020a0392909216919091179055565b600160a060020a0380821660009081526007602052604081205490911680151561040a57600080fd5b6000806000806000600680549050600454111515610f50576040805160e560020a62461bcd02815260206004820152602360248201527f4d6178696d756d206e756d626572206f66206b65797320616c7265616479207360448201527f6f6c640000000000000000000000000000000000000000000000000000000000606482015290519081900360840190fd5b87600060015460a060020a900460ff166002811115610f6b57fe5b1480610fb157506001805460a060020a900460ff166002811115610f8b57fe5b148015610fb15750600160a060020a038116610fa681610e99565b600160a060020a0316145b151561102d576040805160e560020a62461bcd02815260206004820152603960248201527f4f6e6c79207075626c6963206c6f636b73206f7220726573747269636564207760448201527f69746820616e20617070726f76656420726563697069656e7400000000000000606482015290519081900360840190fd5b600160a060020a038916151561104257600080fd5b600154600354604080517f0cb175e3000000000000000000000000000000000000000000000000000000008152600160a060020a038d81166004830152602482019390935281519290931698508892630cb175e392604480830193928290030181600087803b1580156110b457600080fd5b505af11580156110c8573d6000803e3d6000fd5b505050506040513d60408110156110de57600080fd5b5080516020909101516003549196509450925082851115611102576000925061110a565b846003540392505b34831115611162576040805160e560020a62461bcd02815260206004820152601260248201527f496e73756666696369656e742066756e64730000000000000000000000000000604482015290519081900360640190fd5b600160a060020a0389166000908152600560205260409020549150428210156111f85760068054600181019091557ff652222313e28459528d920b65115c16c04f3efc82aaedc97be59f3f377c0d3f01805473ffffffffffffffffffffffffffffffffffffffff1916600160a060020a038b16908117909155600254600091825260056020526040909120429091019055611219565b600254600160a060020a038a16600090815260056020526040902090830190555b600160a060020a03891660009081526005602090815260409091208851611248926001909201918a019061140a565b5060008511156112bc5785600160a060020a0316633652466386866040518363ffffffff1660e060020a0281526004018083815260200182815260200192505050600060405180830381600087803b1580156112a357600080fd5b505af11580156112b7573d6000803e3d6000fd5b505050505b85600160a060020a031663939d9f1f848a6040518363ffffffff1660e060020a0281526004018083815260200182600160a060020a0316600160a060020a0316815260200192505050600060405180830381600087803b15801561131f57600080fd5b505af1158015611333573d6000803e3d6000fd5b505060408051600160a060020a038d168082529151919350600092507fddf252ad1be2c89b69c2b068fc378daa952ba7f163c4a11628f55a4df523b3ef919081900360200190a3505050505050505050565b828054600181600116156101000203166002900490600052602060002090601f016020900481019282601f106113be57805485556113fa565b828001600101855582156113fa57600052602060002091601f016020900482015b828111156113fa5782548255916001019190600101906113df565b50611406929150611478565b5090565b828054600181600116156101000203166002900490600052602060002090601f016020900481019282601f1061144b57805160ff19168380011785556113fa565b828001600101855582156113fa579182015b828111156113fa57825182559160200191906001019061145d565b6109bf91905b80821115611406576000815560010161147e56004e6f2073756368206b6579000000000000000000000000000000000000000000a165627a7a72305820875845a4befc607bf2217b8fa711e6deff2b2f6b4694f844dc82f166b330d8a70029",
  "source": "pragma solidity 0.4.24;\n\nimport \"openzeppelin-solidity/contracts/ownership/Ownable.sol\";\nimport \"./ERC721.sol\";\nimport \"./Unlock.sol\";\n\n/**\n * TODO: consider error codes rather than strings\n */\n\n/**\n * @title The Lock contract\n * @author Julien Genestoux (unlock-protocol.com)\n * Eventually: implement ERC721.\n * @dev The Lock smart contract is an ERC721 compatible smart contract.\n *  However, is has some specificities:\n *  - Since each address owns at most one single key, the tokenId is equal to the owner\n *  - Each address owns at most one single key (ERC721 allows for multiple owned NFTs)\n *  - When transfering the key, we actually reset the expiration date on the transfered key to now\n *    and assign its previous expiration date to the new owner. This is important because it prevents\n *    some abuse around referrals.\n *  TODO: consider using a _private version for each method that is being invoked by the\n * public one as this seems to be a pattern.\n */\ncontract Lock is Ownable, ERC721 {\n\n  // The struct for a key\n  struct Key {\n    uint expirationTimestamp;\n    bytes data; // Note: This can be expensive?\n  }\n\n  // Fields\n  // Unlock Protocol address\n  // TODO: should we make that private/internal?\n  address public unlockProtocol;\n\n  // Key release mechanism\n  enum KeyReleaseMechanisms { Public, Restricted, Private }\n  KeyReleaseMechanisms public keyReleaseMechanism;\n\n  // Duration in seconds for which the keys are valid, after creation\n  // should we take a smaller type use less gas?\n  // TODO: add support for a timestamp instead of duration\n  uint public expirationDuration;\n\n  // price in wei of the next key\n  // TODO: allow support for a keyPriceCalculator which could set prices dynamically\n  uint public keyPrice;\n\n  // Max number of keys sold if the keyReleaseMechanism is public\n  uint public maxNumberOfKeys;\n\n  // Keys\n  // Each owner can have at most exactly one key\n  // TODO: could we use public here? (this could be confusing though because it getter will\n  // return 0 values when missing a key)\n  mapping (address => Key) internal keyByOwner;\n\n  // Addresses of owners are also stored in an array.\n  // Addresses are never removed by design to avoid abuses around referals\n  address[] public owners;\n\n  // Keeping track of approved transfers\n  // This is a mapping of addresses which have approved\n  // the transfer of a key to another address where their key can be transfered\n  // Note: the approver may actually NOT have a key... and there can only\n  // be a single approved beneficiary\n  // Note 2: for transfer, both addresses will be different\n  // Note 3: for sales (new keys on restricted locks), both addresses will be the same\n  mapping (address => address) internal approved;\n\n  /**\n   * MODIFIERS\n   */\n  // Ensure the lock is public\n  modifier onlyPublic() {\n    require(keyReleaseMechanism == KeyReleaseMechanisms.Public, \"Only allowed on public locks\");\n    _;\n  }\n\n  // Ensure that the sender is either the lock owner or the key owner on a public lock\n  modifier onlyLockOwnerOnRestrictedOrKeyOwnerInPublic(\n    uint256 _tokenId\n  ) {\n    require(keyReleaseMechanism != KeyReleaseMechanisms.Private, \"Only allowed on public or restricted locks\");\n\n    require(\n      owner == msg.sender ||\n      (address(_tokenId) == msg.sender && keyReleaseMechanism == KeyReleaseMechanisms.Public)\n    );\n    _;\n  }\n\n  // Ensures that an owner has a key\n  modifier hasKey(\n    address _owner\n  ) {\n    Key storage key = keyByOwner[_owner];\n    require(\n      key.expirationTimestamp > 0, \"No such key\"\n    );\n    _;\n  }\n\n  // Ensures that an owner has a valid key\n  modifier hasValidKey(\n    address _owner\n  ) {\n    Key storage key = keyByOwner[_owner];\n    require(\n      key.expirationTimestamp > now, \"Key is not valid\"\n    );\n    _;\n  }\n\n  // Ensure that the caller owns the token\n  modifier onlyKeyOwner(\n    uint256 _tokenId\n  ) {\n    require(\n      address(_tokenId) == msg.sender\n    );\n    _;\n  }\n\n  // Ensures that the lock is public\n  // or that the sender has been approved on restricted locks\n  modifier onlyPublicOrApproved(\n    address _recipient\n  ) {\n    require(keyReleaseMechanism == KeyReleaseMechanisms.Public ||\n      (keyReleaseMechanism == KeyReleaseMechanisms.Restricted\n        && _getApproved(uint256(_recipient)) == _recipient),\n        \"Only public locks or restriced with an approved recipient\");\n    _;\n  }\n\n  // Ensure that the caller has a key\n  // or that the caller has been approved\n  // for ownership of that key\n  modifier onlyKeyOwnerOrApproved(\n    uint256 _tokenId\n  ) {\n    require(\n      address(_tokenId) == msg.sender\n      || _getApproved(_tokenId) == msg.sender\n    , \"Only key owner or approved owner\");\n    _;\n  }\n\n  // Ensure that the Lock has not sold all of its keys.\n  modifier notSoldOut() {\n    require(maxNumberOfKeys > owners.length, \"Maximum number of keys already sold\");\n    _;\n  }\n\n  // Constructor\n  constructor(\n    address _owner,\n    KeyReleaseMechanisms _keyReleaseMechanism,\n    uint _expirationDuration,\n    uint _keyPrice,\n    uint _maxNumberOfKeys\n  )\n    public {\n      unlockProtocol = msg.sender; // Make sure we link back to Unlock's smart contract. (TODO: handle upgrades?)\n      owner = _owner;\n      keyReleaseMechanism = _keyReleaseMechanism;\n      expirationDuration = _expirationDuration;\n      keyPrice = _keyPrice;\n      maxNumberOfKeys = _maxNumberOfKeys;\n    }\n\n  /**\n  * @dev Purchase function, public version, with no referrer.\n  * @param _recipient address of the recipient of the purchased key\n  * @param _data optional marker for the key\n  */\n  function purchaseFor(\n    address _recipient,\n    bytes _data\n  )\n    external\n    payable\n  {\n    return _purchaseFor(_recipient, address(0), _data);\n  }\n\n  /**\n  * @dev Purchase function, public version, with referrer.\n  * @param _recipient address of the recipient of the purchased key\n  * @param _referrer address of the user making the referral\n  * @param _data optional marker for the key\n  */\n  function purchaseForFrom(\n    address _recipient,\n    address _referrer,\n    bytes _data\n  )\n    external\n    payable\n    hasValidKey(_referrer)\n  {\n    return _purchaseFor(_recipient, _referrer, _data);\n  }\n\n  /**\n   * This is payable because at some point we want to allow the LOCK to capture a fee on 2ndary\n   * market transactions...\n   */\n  function transferFrom(\n    address _from,\n    address _recipient,\n    uint256 _tokenId\n  )\n    external\n    payable\n    notSoldOut()\n    onlyPublic()\n    hasKey(address(_tokenId))\n    onlyKeyOwnerOrApproved(_tokenId)\n  {\n    require(_recipient != address(0));\n\n    uint previousExpiration = keyByOwner[_recipient].expirationTimestamp;\n\n    if (previousExpiration == 0) {\n      // The recipient did not have a key previously\n      owners.push(_recipient);\n    }\n\n    if (previousExpiration <= now) {\n      // The recipient did not have a key, or had a key but it expired. The new expiration is the\n      // sender's key expiration\n      keyByOwner[_recipient].expirationTimestamp = keyByOwner[_from].expirationTimestamp;\n    } else {\n      // The recipient has a non expired key. We just add them the corresponding remaining time\n      keyByOwner[_recipient].expirationTimestamp =\n        keyByOwner[_from].expirationTimestamp + previousExpiration - now;\n    }\n    // Overwite data in all cases\n    keyByOwner[_recipient].data = keyByOwner[_from].data;\n\n    // Effectively expiring the key for the previous owner\n    keyByOwner[_from].expirationTimestamp = now;\n\n    // trigger event\n    emit Transfer(\n      _from,\n      _recipient,\n      _tokenId\n    );\n  }\n\n  /**\n   * @dev Called by owner to wiwthdraw all funds from the lock.\n   * TODO: consider allowing anybody to trigger this as long as it goes to owner anyway?\n   * TODO: consider partial withdraws?\n   * TODO: check for re-entrency?\n   */\n  function withdraw(\n  )\n    external\n    onlyOwner\n  {\n    uint256 balance = address(this).balance;\n    require(balance > 0, \"Not enough funds\");\n    owner.transfer(balance);\n  }\n\n  /**\n   * This approves _approved to get ownership of _tokenId.\n   * Note: that since this is used for both purchase and transfer approvals\n   * the approved token may not exist.\n   */\n  function approve(\n    address _approved,\n    uint256 _tokenId\n  )\n    external\n    payable\n    onlyLockOwnerOnRestrictedOrKeyOwnerInPublic(_tokenId)\n  {\n    require(_approved != address(0));\n\n    approved[address(_tokenId)] = _approved;\n    emit Approval(address(_tokenId), _approved, _tokenId);\n  }\n\n  /**\n   * In the specific case of a Lock, each owner can own only at most 1 key.\n   * @return The number of NFTs owned by `_owner`, either 0 or 1.\n  */\n  function balanceOf(\n    address _owner\n  )\n    external\n    view\n    hasKey(_owner)\n    returns (uint256)\n  {\n    return keyByOwner[_owner].expirationTimestamp > 0 ? 1 : 0;\n  }\n\n  /**\n   * @notice ERC721: Find the owner of an NFT\n   * @return The address of the owner of the NFT, if applicable\n  */\n  function ownerOf(\n    uint256 _tokenId\n  )\n    external\n    view\n    hasKey(address(_tokenId))\n    returns (address)\n  {\n    return address(_tokenId);\n  }\n\n  /**\n   * external version\n   * Will return the approved recipient for a key, if any.\n   */\n  function getApproved(\n    uint256 _tokenId\n  )\n    external\n    view\n    returns (address)\n  {\n    return _getApproved(_tokenId);\n  }\n\n  /**\n   * Public function which returns the total number of keys (both expired and valid)\n   */\n  function outstandingKeys()\n    public\n    view\n    returns (uint)\n  {\n    return owners.length;\n  }\n\n  /**\n   * A function which lets the owner of the lock expire a users' key.\n   */\n  function expireKeyFor(\n    address _owner\n  )\n    public\n    onlyOwner\n    hasValidKey(_owner)\n  {\n    keyByOwner[_owner].expirationTimestamp = now; // Effectively expiring the key\n  }\n\n  /**\n  * @dev Returns the key's data field for a given owner.\n  * @param _owner address of the user for whom we search the key\n  */\n  function keyDataFor(\n    address _owner\n  )\n    public\n    view\n    hasKey(_owner)\n    returns (bytes data)\n  {\n    return keyByOwner[_owner].data;\n  }\n\n  /**\n  * @dev Returns the key's ExpirationTimestamp field for a given owner.\n  * @param _owner address of the user for whom we search the key\n  */\n  function keyExpirationTimestampFor(\n    address _owner\n  )\n    public\n    view\n    hasKey(_owner)\n    returns (uint timestamp)\n  {\n    return keyByOwner[_owner].expirationTimestamp;\n  }\n\n  /**\n  * @dev Purchase function: this lets a user purchase a key from the lock for another user\n  * @param _recipient address of the recipient of the purchased key\n  * @param _data optional marker for the key\n  * This will fail if\n  *  - the keyReleaseMechanism is private\n  *  - the keyReleaseMechanism is Approved and the recipient has not been previously approved\n  *  - the amount value is smaller than the price\n  *  - the recipient already owns a key\n  * TODO: next version of solidity will allow for message to be added to require.\n  */\n  function _purchaseFor(\n    address _recipient,\n    address _referrer,\n    bytes _data\n  )\n    internal\n    notSoldOut()\n    onlyPublicOrApproved(_recipient)\n  {\n    require(_recipient != address(0));\n\n    // Let's get the actual price for the key from the Unlock smart contract\n    Unlock unlock = Unlock(unlockProtocol);\n    uint discount;\n    uint tokens;\n    (discount, tokens) = unlock.computeAvailableDiscountFor(_recipient, keyPrice);\n    uint netPrice = keyPrice;\n    if (discount > keyPrice) {\n      netPrice = 0;\n    } else {\n      netPrice = keyPrice - discount;\n    }\n\n    // We explicitly allow for greater amounts to allow \"donations\" or partial refunds after\n    // discounts (TODO implement partial refunds)\n    require(msg.value >= netPrice, \"Insufficient funds\");\n    // TODO: If there is more than the required price, then let's return whatever is extra\n    // extra (CAREFUL: re-entrency!)\n\n    // Assign the key\n    uint previousExpiration = keyByOwner[_recipient].expirationTimestamp;\n    if (previousExpiration < now) {\n      owners.push(_recipient);\n      keyByOwner[_recipient].expirationTimestamp = now + expirationDuration;\n    } else {\n      // This is an existing owner trying to extend their key\n      keyByOwner[_recipient].expirationTimestamp = previousExpiration + expirationDuration;\n    }\n    // Overwite data in all cases\n    keyByOwner[_recipient].data = _data;\n\n    if (discount > 0) {\n      unlock.recordConsumedDiscount(discount, tokens);\n    }\n\n    unlock.recordKeyPurchase(netPrice, _referrer);\n\n    // trigger event\n    emit Transfer(\n      0, // This is a creation.\n      _recipient,\n      uint256(_recipient) // Note: since each user can own a single token, we use the current\n      // owner (new!) for the token id\n    );\n  }\n\n  /**\n   * Will return the approved recipient for a key transfer or ownership.\n   * Note: this does not check that a corresponding key\n   * actually exists.\n   */\n  function _getApproved(\n    uint256 _tokenId\n  )\n    internal\n    view\n    returns (address)\n  {\n    address approvedRecipient = approved[address(_tokenId)];\n    require(approvedRecipient != address(0));\n    return approvedRecipient;\n  }\n\n}\n",
  "sourcePath": "/Users/ben/Code/UnlockMono/unlock/smart-contracts/contracts/Lock.sol",
  "compiler": {
    "name": "solc",
    "version": "0.4.24+commit.e67f0147.Emscripten.clang"
  },
  "schemaVersion": "2.0.0",
  "updatedAt": "2018-08-21T14:48:14.687Z"
}