{
  "contractName": "Migratable",
  "abi": [
    {
      "anonymous": false,
      "inputs": [
        {
          "indexed": false,
          "name": "contractName",
          "type": "string"
        },
        {
          "indexed": false,
          "name": "migrationId",
          "type": "string"
        }
      ],
      "name": "Migrated",
      "type": "event"
    },
    {
      "constant": true,
      "inputs": [
        {
          "name": "contractName",
          "type": "string"
        },
        {
          "name": "migrationId",
          "type": "string"
        }
      ],
      "name": "isMigrated",
      "outputs": [
        {
          "name": "",
          "type": "bool"
        }
      ],
      "payable": false,
      "stateMutability": "view",
      "type": "function"
    },
    {
      "constant": false,
      "inputs": [],
      "name": "initialize",
      "outputs": [],
      "payable": false,
      "stateMutability": "nonpayable",
      "type": "function"
    }
  ],
  "bytecode": "0x608060405234801561001057600080fd5b50610628806100206000396000f30060806040526004361061004b5763ffffffff7c01000000000000000000000000000000000000000000000000000000006000350416638129fc1c8114610050578063c0bac1a814610067575b600080fd5b34801561005c57600080fd5b50610065610112565b005b34801561007357600080fd5b506040805160206004803580820135601f81018490048402850184019095528484526100fe94369492936024939284019190819084018382808284375050604080516020601f89358b018035918201839004830284018301909452808352979a9998810197919650918201945092508291508401838280828437509497506104959650505050505050565b604080519115158252519081900360200190f35b6040805190810160405280600a81526020017f4d696772617461626c65000000000000000000000000000000000000000000008152506040805190810160405280600581526020017f312e322e310000000000000000000000000000000000000000000000000000008152506101bd826040805190810160405280600b81526020017f696e697469616c697a656400000000000000000000000000000000000000000081525061055c565b6101c7828261055c565b7fdd117a11c22118c9dee4b5a67ce578bc44529dce21ee0ccc439588fbb9fb4ea38282604051808060200180602001838103835285818151815260200191508051906020019080838360005b8381101561022b578181015183820152602001610213565b50505050905090810190601f1680156102585780820380516001836020036101000a031916815260200191505b50838103825284518152845160209182019186019080838360005b8381101561028b578181015183820152602001610273565b50505050905090810190601f1680156102b85780820380516001836020036101000a031916815260200191505b5094505050505060405180910390a160016000836040518082805190602001908083835b602083106102fb5780518252601f1990920191602091820191016102dc565b51815160209384036101000a6000190180199092169116179052920194855250604051938490038101842086519094879450925082918401908083835b602083106103575780518252601f199092019160209182019101610338565b51815160209384036101000a60001901801990921691161790529201948552506040519384900381018420805460ff19169515159590951790945550508351600192600092869290918291908401908083835b602083106103c95780518252601f1990920191602091820191016103aa565b51815160209384036101000a60001901801990921691161790529201948552506040805194859003820185208582018252600b8087527f696e697469616c697a656400000000000000000000000000000000000000000093870193845291519095945092508291908083835b602083106104545780518252601f199092019160209182019101610435565b51815160209384036101000a60001901801990921691161790529201948552506040519384900301909220805460ff19169315159390931790925550505050565b600080836040518082805190602001908083835b602083106104c85780518252601f1990920191602091820191016104a9565b51815160209384036101000a6000190180199092169116179052920194855250604051938490038101842086519094879450925082918401908083835b602083106105245780518252601f199092019160209182019101610505565b51815160209384036101000a600019018019909216911617905292019485525060405193849003019092205460ff1695945050505050565b6105668282610495565b156105f857604080517f08c379a000000000000000000000000000000000000000000000000000000000815260206004820152603260248201527f52657175657374656420746172676574206d6967726174696f6e20494420686160448201527f7320616c7265616479206265656e2072756e0000000000000000000000000000606482015290519081900360840190fd5b50505600a165627a7a7230582016c23032c1e50d6a87b2bbf176645158cc39000ec54196589613dc71e8cf2d3f0029",
  "source": "pragma solidity ^0.4.24;\n\n\n/**\n * @title Migratable\n * Helper contract to support intialization and migration schemes between\n * different implementations of a contract in the context of upgradeability.\n * To use it, replace the constructor with a function that has the\n * `isInitializer` modifier starting with `\"0\"` as `migrationId`.\n * When you want to apply some migration code during an upgrade, increase\n * the `migrationId`. Or, if the migration code must be applied only after\n * another migration has been already applied, use the `isMigration` modifier.\n * This helper supports multiple inheritance.\n * WARNING: It is the developer's responsibility to ensure that migrations are\n * applied in a correct order, or that they are run at all.\n * See `Initializable` for a simpler version.\n */\ncontract Migratable {\n  /**\n   * @dev Emitted when the contract applies a migration.\n   * @param contractName Name of the Contract.\n   * @param migrationId Identifier of the migration applied.\n   */\n  event Migrated(string contractName, string migrationId);\n\n  /**\n   * @dev Mapping of the already applied migrations.\n   * (contractName => (migrationId => bool))\n   */\n  mapping (string => mapping (string => bool)) internal migrated;\n\n  /**\n   * @dev Internal migration id used to specify that a contract has already been initialized.\n   */\n  string constant private INITIALIZED_ID = \"initialized\";\n\n\n  /**\n   * @dev Modifier to use in the initialization function of a contract.\n   * @param contractName Name of the contract.\n   * @param migrationId Identifier of the migration.\n   */\n  modifier isInitializer(string contractName, string migrationId) {\n    validateMigrationIsPending(contractName, INITIALIZED_ID);\n    validateMigrationIsPending(contractName, migrationId);\n    _;\n    emit Migrated(contractName, migrationId);\n    migrated[contractName][migrationId] = true;\n    migrated[contractName][INITIALIZED_ID] = true;\n  }\n\n  /**\n   * @dev Modifier to use in the migration of a contract.\n   * @param contractName Name of the contract.\n   * @param requiredMigrationId Identifier of the previous migration, required\n   * to apply new one.\n   * @param newMigrationId Identifier of the new migration to be applied.\n   */\n  modifier isMigration(string contractName, string requiredMigrationId, string newMigrationId) {\n    require(isMigrated(contractName, requiredMigrationId), \"Prerequisite migration ID has not been run yet\");\n    validateMigrationIsPending(contractName, newMigrationId);\n    _;\n    emit Migrated(contractName, newMigrationId);\n    migrated[contractName][newMigrationId] = true;\n  }\n\n  /**\n   * @dev Returns true if the contract migration was applied.\n   * @param contractName Name of the contract.\n   * @param migrationId Identifier of the migration.\n   * @return true if the contract migration was applied, false otherwise.\n   */\n  function isMigrated(string contractName, string migrationId) public view returns(bool) {\n    return migrated[contractName][migrationId];\n  }\n\n  /**\n   * @dev Initializer that marks the contract as initialized.\n   * It is important to run this if you had deployed a previous version of a Migratable contract.\n   * For more information see https://github.com/zeppelinos/zos-lib/issues/158.\n   */\n  function initialize() isInitializer(\"Migratable\", \"1.2.1\") public {\n  }\n\n  /**\n   * @dev Reverts if the requested migration was already executed.\n   * @param contractName Name of the contract.\n   * @param migrationId Identifier of the migration.\n   */\n  function validateMigrationIsPending(string contractName, string migrationId) private view {\n    require(!isMigrated(contractName, migrationId), \"Requested target migration ID has already been run\");\n  }\n}\n",
  "sourcePath": "zos-lib/contracts/migrations/Migratable.sol",
  "compiler": {
    "name": "solc",
    "version": "0.4.24+commit.e67f0147.Emscripten.clang"
  },
  "schemaVersion": "2.0.1",
  "updatedAt": "2018-08-22T03:56:40.745Z"
}