{
  "contractName": "PublicLock",
  "abi": [
    {
      "constant": true,
      "inputs": [
        {
          "name": "",
          "type": "uint256"
        }
      ],
      "name": "owners",
      "outputs": [
        {
          "name": "",
          "type": "address"
        }
      ],
      "payable": false,
      "stateMutability": "view",
      "type": "function"
    },
    {
      "constant": true,
      "inputs": [],
      "name": "unlockProtocol",
      "outputs": [
        {
          "name": "",
          "type": "address"
        }
      ],
      "payable": false,
      "stateMutability": "view",
      "type": "function"
    },
    {
      "constant": true,
      "inputs": [],
      "name": "keyPrice",
      "outputs": [
        {
          "name": "",
          "type": "uint256"
        }
      ],
      "payable": false,
      "stateMutability": "view",
      "type": "function"
    },
    {
      "constant": true,
      "inputs": [],
      "name": "expirationDuration",
      "outputs": [
        {
          "name": "",
          "type": "uint256"
        }
      ],
      "payable": false,
      "stateMutability": "view",
      "type": "function"
    },
    {
      "constant": false,
      "inputs": [],
      "name": "renounceOwnership",
      "outputs": [],
      "payable": false,
      "stateMutability": "nonpayable",
      "type": "function"
    },
    {
      "constant": true,
      "inputs": [],
      "name": "maxNumberOfKeys",
      "outputs": [
        {
          "name": "",
          "type": "uint256"
        }
      ],
      "payable": false,
      "stateMutability": "view",
      "type": "function"
    },
    {
      "constant": true,
      "inputs": [],
      "name": "owner",
      "outputs": [
        {
          "name": "",
          "type": "address"
        }
      ],
      "payable": false,
      "stateMutability": "view",
      "type": "function"
    },
    {
      "constant": false,
      "inputs": [
        {
          "name": "_newOwner",
          "type": "address"
        }
      ],
      "name": "transferOwnership",
      "outputs": [],
      "payable": false,
      "stateMutability": "nonpayable",
      "type": "function"
    },
    {
      "inputs": [
        {
          "name": "_owner",
          "type": "address"
        },
        {
          "name": "_expirationDuration",
          "type": "uint256"
        },
        {
          "name": "_keyPrice",
          "type": "uint256"
        },
        {
          "name": "_maxNumberOfKeys",
          "type": "uint256"
        }
      ],
      "payable": false,
      "stateMutability": "nonpayable",
      "type": "constructor"
    },
    {
      "anonymous": false,
      "inputs": [
        {
          "indexed": true,
          "name": "previousOwner",
          "type": "address"
        }
      ],
      "name": "OwnershipRenounced",
      "type": "event"
    },
    {
      "anonymous": false,
      "inputs": [
        {
          "indexed": true,
          "name": "previousOwner",
          "type": "address"
        },
        {
          "indexed": true,
          "name": "newOwner",
          "type": "address"
        }
      ],
      "name": "OwnershipTransferred",
      "type": "event"
    },
    {
      "anonymous": false,
      "inputs": [
        {
          "indexed": true,
          "name": "_from",
          "type": "address"
        },
        {
          "indexed": true,
          "name": "_to",
          "type": "address"
        },
        {
          "indexed": false,
          "name": "_tokenId",
          "type": "uint256"
        }
      ],
      "name": "Transfer",
      "type": "event"
    },
    {
      "anonymous": false,
      "inputs": [
        {
          "indexed": true,
          "name": "_owner",
          "type": "address"
        },
        {
          "indexed": true,
          "name": "_approved",
          "type": "address"
        },
        {
          "indexed": false,
          "name": "_tokenId",
          "type": "uint256"
        }
      ],
      "name": "Approval",
      "type": "event"
    },
    {
      "anonymous": false,
      "inputs": [
        {
          "indexed": true,
          "name": "_owner",
          "type": "address"
        },
        {
          "indexed": true,
          "name": "_operator",
          "type": "address"
        },
        {
          "indexed": false,
          "name": "_approved",
          "type": "bool"
        }
      ],
      "name": "ApprovalForAll",
      "type": "event"
    },
    {
      "constant": false,
      "inputs": [
        {
          "name": "_recipient",
          "type": "address"
        },
        {
          "name": "_data",
          "type": "bytes"
        }
      ],
      "name": "purchaseFor",
      "outputs": [],
      "payable": true,
      "stateMutability": "payable",
      "type": "function"
    },
    {
      "constant": false,
      "inputs": [
        {
          "name": "_recipient",
          "type": "address"
        },
        {
          "name": "_referrer",
          "type": "address"
        },
        {
          "name": "_data",
          "type": "bytes"
        }
      ],
      "name": "purchaseForFrom",
      "outputs": [],
      "payable": true,
      "stateMutability": "payable",
      "type": "function"
    },
    {
      "constant": false,
      "inputs": [
        {
          "name": "_from",
          "type": "address"
        },
        {
          "name": "_recipient",
          "type": "address"
        },
        {
          "name": "_tokenId",
          "type": "uint256"
        }
      ],
      "name": "transferFrom",
      "outputs": [],
      "payable": true,
      "stateMutability": "payable",
      "type": "function"
    },
    {
      "constant": false,
      "inputs": [],
      "name": "withdraw",
      "outputs": [],
      "payable": false,
      "stateMutability": "nonpayable",
      "type": "function"
    },
    {
      "constant": false,
      "inputs": [
        {
          "name": "_approved",
          "type": "address"
        },
        {
          "name": "_tokenId",
          "type": "uint256"
        }
      ],
      "name": "approve",
      "outputs": [],
      "payable": true,
      "stateMutability": "payable",
      "type": "function"
    },
    {
      "constant": false,
      "inputs": [
        {
          "name": "_keyPrice",
          "type": "uint256"
        }
      ],
      "name": "updateKeyPrice",
      "outputs": [],
      "payable": false,
      "stateMutability": "nonpayable",
      "type": "function"
    },
    {
      "constant": true,
      "inputs": [
        {
          "name": "_owner",
          "type": "address"
        }
      ],
      "name": "balanceOf",
      "outputs": [
        {
          "name": "",
          "type": "uint256"
        }
      ],
      "payable": false,
      "stateMutability": "view",
      "type": "function"
    },
    {
      "constant": true,
      "inputs": [
        {
          "name": "_tokenId",
          "type": "uint256"
        }
      ],
      "name": "ownerOf",
      "outputs": [
        {
          "name": "",
          "type": "address"
        }
      ],
      "payable": false,
      "stateMutability": "view",
      "type": "function"
    },
    {
      "constant": true,
      "inputs": [
        {
          "name": "_tokenId",
          "type": "uint256"
        }
      ],
      "name": "getApproved",
      "outputs": [
        {
          "name": "",
          "type": "address"
        }
      ],
      "payable": false,
      "stateMutability": "view",
      "type": "function"
    },
    {
      "constant": true,
      "inputs": [],
      "name": "outstandingKeys",
      "outputs": [
        {
          "name": "",
          "type": "uint256"
        }
      ],
      "payable": false,
      "stateMutability": "view",
      "type": "function"
    },
    {
      "constant": false,
      "inputs": [
        {
          "name": "_owner",
          "type": "address"
        }
      ],
      "name": "expireKeyFor",
      "outputs": [],
      "payable": false,
      "stateMutability": "nonpayable",
      "type": "function"
    },
    {
      "constant": true,
      "inputs": [
        {
          "name": "_owner",
          "type": "address"
        }
      ],
      "name": "keyDataFor",
      "outputs": [
        {
          "name": "data",
          "type": "bytes"
        }
      ],
      "payable": false,
      "stateMutability": "view",
      "type": "function"
    },
    {
      "constant": true,
      "inputs": [
        {
          "name": "_owner",
          "type": "address"
        }
      ],
      "name": "keyExpirationTimestampFor",
      "outputs": [
        {
          "name": "timestamp",
          "type": "uint256"
        }
      ],
      "payable": false,
      "stateMutability": "view",
      "type": "function"
    }
  ],
  "bytecode": "0x608060405234801561001057600080fd5b506040516080806113de8339810160409081528151602083015191830151606090930151600080546001805433600160a060020a031991821681179092559182161716600160a060020a0384161790556002839055600384905590929060001981141561008257600019600455610088565b60048190555b505050506113438061009b6000396000f3006080604052600436106101035763ffffffff60e060020a600035041663025e7c278114610108578063081812fc1461013c578063095ea7b3146101545780630f15023b1461016d57806310e569731461018257806311a4c03a146101a95780631f1ec029146101be57806323b872dd146101d65780633ccfd60b146101f357806347dc10851461020857806353b704d01461021d5780636352211e1461023d57806370a0823114610255578063715018a61461027657806374b6c1061461028b5780638da5cb5b146102a05780639f98d3cb146102b5578063abdf82ce146102d6578063d44fa14a146102f7578063d8125eb31461038d578063f2fde38b146103b5575b600080fd5b34801561011457600080fd5b506101206004356103d6565b60408051600160a060020a039092168252519081900360200190f35b34801561014857600080fd5b506101206004356103fe565b61016b600160a060020a036004351660243561040f565b005b34801561017957600080fd5b506101206104ae565b34801561018e57600080fd5b506101976104bd565b60408051918252519081900360200190f35b3480156101b557600080fd5b506101976104c3565b3480156101ca57600080fd5b5061016b6004356104c9565b61016b600160a060020a03600435811690602435166044356104e5565b3480156101ff57600080fd5b5061016b6107d8565b34801561021457600080fd5b50610197610888565b61016b60048035600160a060020a0316906024803590810191013561088f565b34801561024957600080fd5b506101206004356108d0565b34801561026157600080fd5b50610197600160a060020a0360043516610939565b34801561028257600080fd5b5061016b6109cd565b34801561029757600080fd5b50610197610a39565b3480156102ac57600080fd5b50610120610a3f565b3480156102c157600080fd5b5061016b600160a060020a0360043516610a4e565b3480156102e257600080fd5b50610197600160a060020a0360043516610af6565b34801561030357600080fd5b50610318600160a060020a0360043516610b75565b6040805160208082528351818301528351919283929083019185019080838360005b8381101561035257818101518382015260200161033a565b50505050905090810190601f16801561037f5780820380516001836020036101000a031916815260200191505b509250505060405180910390f35b61016b600160a060020a03600480358216916024803590911691604435918201910135610c88565b3480156103c157600080fd5b5061016b600160a060020a0360043516610d3e565b60068054829081106103e457fe5b600091825260209091200154600160a060020a0316905081565b600061040982610d61565b92915050565b80600160a060020a038116331461042557600080fd5b600160a060020a038316151561043a57600080fd5b600160a060020a03828116600081815260076020908152604091829020805473ffffffffffffffffffffffffffffffffffffffff19169488169485179055815186815291517f8c5be1e5ebec7d5bd14f71427d1e84f3dd0314c0f7b2291e5b200ac8c7c3b9259281900390910190a3505050565b600154600160a060020a031681565b60035481565b60025481565b600054600160a060020a031633146104e057600080fd5b600355565b60065460045460009110610569576040805160e560020a62461bcd02815260206004820152602360248201527f4d6178696d756d206e756d626572206f66206b65797320616c7265616479207360448201527f6f6c640000000000000000000000000000000000000000000000000000000000606482015290519081900360840190fd5b600160a060020a038216600090815260056020526040812080548492106105c8576040805160e560020a62461bcd02815260206004820152600b60248201526000805160206112f8833981519152604482015290519081900360640190fd5b83600160a060020a0381163314806105f05750336105e582610d61565b600160a060020a0316145b1515610646576040805160e560020a62461bcd02815260206004820181905260248201527f4f6e6c79206b6579206f776e6572206f7220617070726f766564206f776e6572604482015290519081900360640190fd5b600160a060020a038616151561065b57600080fd5b600160a060020a03861660009081526005602052604090205493508315156106d657600680546001810182556000919091527ff652222313e28459528d920b65115c16c04f3efc82aaedc97be59f3f377c0d3f01805473ffffffffffffffffffffffffffffffffffffffff1916600160a060020a0388161790555b42841161070557600160a060020a03808816600090815260056020526040808220549289168252902055610732565b600160a060020a038088166000908152600560205260408082205492891682529020429186019190910390555b600160a060020a03878116600090815260056020526040808220928916825290206001918201805461077993928301926002908216156101000260001901909116046111ea565b50600160a060020a0380881660008181526005602090815260409182902042905581518981529151938a16937fddf252ad1be2c89b69c2b068fc378daa952ba7f163c4a11628f55a4df523b3ef9281900390910190a350505050505050565b60008054600160a060020a031633146107f057600080fd5b5030316000811161084b576040805160e560020a62461bcd02815260206004820152601060248201527f4e6f7420656e6f7567682066756e647300000000000000000000000000000000604482015290519081900360640190fd5b60008054604051600160a060020a039091169183156108fc02918491818181858888f19350505050158015610884573d6000803e3d6000fd5b5050565b6006545b90565b6108cb83600084848080601f01602080910402602001604051908101604052809392919081815260200183838082843750610d8a945050505050565b505050565b600160a060020a038116600090815260056020526040812080548391908310610931576040805160e560020a62461bcd02815260206004820152600b60248201526000805160206112f8833981519152604482015290519081900360640190fd5b509192915050565b600160a060020a03811660009081526005602052604081208054839190831061099a576040805160e560020a62461bcd02815260206004820152600b60248201526000805160206112f8833981519152604482015290519081900360640190fd5b600160a060020a038416600090815260056020526040812054116109bf5760006109c2565b60015b60ff16949350505050565b600054600160a060020a031633146109e457600080fd5b60008054604051600160a060020a03909116917ff8df31144d9c2f0f6b59d69b8b98abd5459d07f2742c4df920b25aae33c6482091a26000805473ffffffffffffffffffffffffffffffffffffffff19169055565b60045481565b600054600160a060020a031681565b600054600160a060020a03163314610a6557600080fd5b600160a060020a038116600090815260056020526040902080548291904210610ad8576040805160e560020a62461bcd02815260206004820152601060248201527f4b6579206973206e6f742076616c696400000000000000000000000000000000604482015290519081900360640190fd5b5050600160a060020a03166000908152600560205260409020429055565b600160a060020a038116600090815260056020526040812080548391908310610b57576040805160e560020a62461bcd02815260206004820152600b60248201526000805160206112f8833981519152604482015290519081900360640190fd5b505050600160a060020a031660009081526005602052604090205490565b600160a060020a0381166000908152600560205260408120805460609284929111610bd8576040805160e560020a62461bcd02815260206004820152600b60248201526000805160206112f8833981519152604482015290519081900360640190fd5b600160a060020a038416600090815260056020908152604091829020600190810180548451600293821615610100026000190190911692909204601f810184900484028301840190945283825290929091830182828015610c7a5780601f10610c4f57610100808354040283529160200191610c7a565b820191906000526020600020905b815481529060010190602001808311610c5d57829003601f168201915b505050505092505050919050565b600160a060020a038316600090815260056020526040902080548491904210610cfb576040805160e560020a62461bcd02815260206004820152601060248201527f4b6579206973206e6f742076616c696400000000000000000000000000000000604482015290519081900360640190fd5b610d36868686868080601f01602080910402602001604051908101604052809392919081815260200183838082843750610d8a945050505050565b505050505050565b600054600160a060020a03163314610d5557600080fd5b610d5e8161116d565b50565b600160a060020a0380821660009081526007602052604081205490911680151561040957600080fd5b600080600080600080600680549050600454111515610e19576040805160e560020a62461bcd02815260206004820152602360248201527f4d6178696d756d206e756d626572206f66206b65797320616c7265616479207360448201527f6f6c640000000000000000000000000000000000000000000000000000000000606482015290519081900360840190fd5b600160a060020a0389161515610e2e57600080fd5b600154600354604080517f0cb175e3000000000000000000000000000000000000000000000000000000008152600160a060020a038d81166004830152602482018490528251941699509195508892630cb175e39260448082019392918290030181600087803b158015610ea157600080fd5b505af1158015610eb5573d6000803e3d6000fd5b505050506040513d6040811015610ecb57600080fd5b508051602090910151909550935082915081851115610eed5760009150610ef3565b84830391505b34821115610f4b576040805160e560020a62461bcd02815260206004820152601260248201527f496e73756666696369656e742066756e64730000000000000000000000000000604482015290519081900360640190fd5b50600160a060020a03881660009081526005602052604090205442811015610fe05760068054600181019091557ff652222313e28459528d920b65115c16c04f3efc82aaedc97be59f3f377c0d3f01805473ffffffffffffffffffffffffffffffffffffffff1916600160a060020a038b16908117909155600254600091825260056020526040909120429091019055611001565b600254600160a060020a038a16600090815260056020526040902090820190555b600160a060020a03891660009081526005602090815260409091208851611030926001909201918a019061126f565b5060008511156110a45785600160a060020a0316633652466386866040518363ffffffff1660e060020a0281526004018083815260200182815260200192505050600060405180830381600087803b15801561108b57600080fd5b505af115801561109f573d6000803e3d6000fd5b505050505b85600160a060020a031663939d9f1f838a6040518363ffffffff1660e060020a0281526004018083815260200182600160a060020a0316600160a060020a0316815260200192505050600060405180830381600087803b15801561110757600080fd5b505af115801561111b573d6000803e3d6000fd5b505060408051600160a060020a038d168082529151919350600092507fddf252ad1be2c89b69c2b068fc378daa952ba7f163c4a11628f55a4df523b3ef919081900360200190a3505050505050505050565b600160a060020a038116151561118257600080fd5b60008054604051600160a060020a03808516939216917f8be0079c531659141344cd1fd0a4f28419497f9722a3daafe3b4186f6b6457e091a36000805473ffffffffffffffffffffffffffffffffffffffff1916600160a060020a0392909216919091179055565b828054600181600116156101000203166002900490600052602060002090601f016020900481019282601f10611223578054855561125f565b8280016001018555821561125f57600052602060002091601f016020900482015b8281111561125f578254825591600101919060010190611244565b5061126b9291506112dd565b5090565b828054600181600116156101000203166002900490600052602060002090601f016020900481019282601f106112b057805160ff191683800117855561125f565b8280016001018555821561125f579182015b8281111561125f5782518255916020019190600101906112c2565b61088c91905b8082111561126b57600081556001016112e356004e6f2073756368206b6579000000000000000000000000000000000000000000a165627a7a723058202ede3bffae51417283b15a51d43ea0b2dd530a845db239f715c9b87141e84f740029",
  "source": "pragma solidity 0.4.24;\n\nimport \"./interfaces/ILockPublic.sol\";\nimport \"./interfaces/IUnlock.sol\";\n\n/**\n * TODO: consider error codes rather than strings\n */\n\n/**\n * @title The Lock contract\n * @author Julien Genestoux (unlock-protocol.com)\n * Eventually: implement ERC721.\n *  TODO: consider using a _private version for each method that is being invoked by the\n * public one as this seems to be a pattern.\n */\ncontract PublicLock is ILockPublic {\n\n  // The struct for a key\n  struct Key {\n    uint expirationTimestamp;\n    bytes data; // Note: This can be expensive?\n  }\n\n  // Fields\n  // Unlock Protocol address\n  // TODO: should we make that private/internal?\n  address public unlockProtocol;\n\n  // Duration in seconds for which the keys are valid, after creation\n  // should we take a smaller type use less gas?\n  // TODO: add support for a timestamp instead of duration\n  uint public expirationDuration;\n\n  // price in wei of the next key\n  // TODO: allow support for a keyPriceCalculator which could set prices dynamically\n  uint public keyPrice;\n\n  // Max number of keys sold if the keyReleaseMechanism is public\n  uint public maxNumberOfKeys;\n\n  // Keys\n  // Each owner can have at most exactly one key\n  // TODO: could we use public here? (this could be confusing though because it getter will\n  // return 0 values when missing a key)\n  mapping (address => Key) internal keyByOwner;\n\n  // Addresses of owners are also stored in an array.\n  // Addresses are never removed by design to avoid abuses around referals\n  address[] public owners;\n\n  // Keeping track of approved transfers\n  // This is a mapping of addresses which have approved\n  // the transfer of a key to another address where their key can be transfered\n  // Note: the approver may actually NOT have a key... and there can only\n  // be a single approved beneficiary\n  // Note 2: for transfer, both addresses will be different\n  // Note 3: for sales (new keys on restricted locks), both addresses will be the same\n  mapping (address => address) internal approved;\n\n  /**\n   * MODIFIERS\n   */\n  // Ensures that an owner has a key\n  modifier hasKey(\n    address _owner\n  ) {\n    Key storage key = keyByOwner[_owner];\n    require(\n      key.expirationTimestamp > 0, \"No such key\"\n    );\n    _;\n  }\n\n  // Ensures that an owner has a valid key\n  modifier hasValidKey(\n    address _owner\n  ) {\n    Key storage key = keyByOwner[_owner];\n    require(\n      key.expirationTimestamp > now, \"Key is not valid\"\n    );\n    _;\n  }\n\n  // Ensure that the caller owns the key\n  modifier onlyKeyOwner(\n    uint256 _tokenId\n  ) {\n    require(\n      address(_tokenId) == msg.sender\n    );\n    _;\n  }\n\n  // Ensure that the caller has a key\n  // or that the caller has been approved\n  // for ownership of that key\n  modifier onlyKeyOwnerOrApproved(\n    uint256 _tokenId\n  ) {\n    require(\n      address(_tokenId) == msg.sender\n      || _getApproved(_tokenId) == msg.sender\n    , \"Only key owner or approved owner\");\n    _;\n  }\n\n  // Ensure that the Lock has not sold all of its keys.\n  modifier notSoldOut() {\n    require(maxNumberOfKeys > owners.length, \"Maximum number of keys already sold\");\n    _;\n  }\n\n  // Constructor\n  constructor(\n    address _owner,\n    uint _expirationDuration,\n    uint _keyPrice,\n    uint _maxNumberOfKeys\n  )\n    public {\n      unlockProtocol = msg.sender; // Make sure we link back to Unlock's smart contract. (TODO: handle upgrades?)\n      owner = _owner;\n      expirationDuration = _expirationDuration;\n      keyPrice = _keyPrice;\n      if (_maxNumberOfKeys == uint256(-1)) {\n        maxNumberOfKeys = uint256(-1);\n      } else {\n        maxNumberOfKeys = _maxNumberOfKeys;\n      }\n\n    }\n\n  /**\n  * @dev Purchase function, public version, with no referrer.\n  * @param _recipient address of the recipient of the purchased key\n  * @param _data optional marker for the key\n  */\n  function purchaseFor(\n    address _recipient,\n    bytes _data\n  )\n    external\n    payable\n  {\n    return _purchaseFor(_recipient, address(0), _data);\n  }\n\n  /**\n  * @dev Purchase function, public version, with referrer.\n  * @param _recipient address of the recipient of the purchased key\n  * @param _referrer address of the user making the referral\n  * @param _data optional marker for the key\n  */\n  function purchaseForFrom(\n    address _recipient,\n    address _referrer,\n    bytes _data\n  )\n    external\n    payable\n    hasValidKey(_referrer)\n  {\n    return _purchaseFor(_recipient, _referrer, _data);\n  }\n\n  /**\n   * This is payable because at some point we want to allow the LOCK to capture a fee on 2ndary\n   * market transactions...\n   */\n  function transferFrom(\n    address _from,\n    address _recipient,\n    uint256 _tokenId\n  )\n    external\n    payable\n    notSoldOut()\n    hasKey(address(_tokenId))\n    onlyKeyOwnerOrApproved(_tokenId)\n  {\n    require(_recipient != address(0));\n\n    uint previousExpiration = keyByOwner[_recipient].expirationTimestamp;\n\n    if (previousExpiration == 0) {\n      // The recipient did not have a key previously\n      owners.push(_recipient);\n    }\n\n    if (previousExpiration <= now) {\n      // The recipient did not have a key, or had a key but it expired. The new expiration is the\n      // sender's key expiration\n      keyByOwner[_recipient].expirationTimestamp = keyByOwner[_from].expirationTimestamp;\n    } else {\n      // The recipient has a non expired key. We just add them the corresponding remaining time\n      keyByOwner[_recipient].expirationTimestamp =\n        keyByOwner[_from].expirationTimestamp + previousExpiration - now;\n    }\n    // Overwite data in all cases\n    keyByOwner[_recipient].data = keyByOwner[_from].data;\n\n    // Effectively expiring the key for the previous owner\n    keyByOwner[_from].expirationTimestamp = now;\n\n    // trigger event\n    emit Transfer(\n      _from,\n      _recipient,\n      _tokenId\n    );\n  }\n\n  /**\n   * @dev Called by owner to wiwthdraw all funds from the lock.\n   * TODO: consider allowing anybody to trigger this as long as it goes to owner anyway?\n   * TODO: consider partial withdraws?\n   * TODO: check for re-entrency?\n   */\n  function withdraw(\n  )\n    external\n    onlyOwner\n  {\n    uint256 balance = address(this).balance;\n    require(balance > 0, \"Not enough funds\");\n    owner.transfer(balance);\n  }\n\n  /**\n   * This approves _approved to get ownership of _tokenId.\n   * Note: that since this is used for both purchase and transfer approvals\n   * the approved token may not exist.\n   */\n  function approve(\n    address _approved,\n    uint256 _tokenId\n  )\n    external\n    payable\n    onlyKeyOwner(_tokenId)\n  {\n    require(_approved != address(0));\n\n    approved[address(_tokenId)] = _approved;\n    emit Approval(address(_tokenId), _approved, _tokenId);\n  }\n\n  /**\n   * A function which lets the owner of the lock to change the price for future purchases.\n   */\n  function updateKeyPrice(\n    uint _keyPrice\n  )\n    external\n    onlyOwner\n  {\n    keyPrice = _keyPrice;\n  }\n\n  /**\n   * In the specific case of a Lock, each owner can own only at most 1 key.\n   * @return The number of NFTs owned by `_owner`, either 0 or 1.\n  */\n  function balanceOf(\n    address _owner\n  )\n    external\n    view\n    hasKey(_owner)\n    returns (uint256)\n  {\n    return keyByOwner[_owner].expirationTimestamp > 0 ? 1 : 0;\n  }\n\n  /**\n   * @notice ERC721: Find the owner of an NFT\n   * @return The address of the owner of the NFT, if applicable\n  */\n  function ownerOf(\n    uint256 _tokenId\n  )\n    external\n    view\n    hasKey(address(_tokenId))\n    returns (address)\n  {\n    return address(_tokenId);\n  }\n\n  /**\n   * external version\n   * Will return the approved recipient for a key, if any.\n   */\n  function getApproved(\n    uint256 _tokenId\n  )\n    external\n    view\n    returns (address)\n  {\n    return _getApproved(_tokenId);\n  }\n\n  /**\n   * Public function which returns the total number of keys (both expired and valid)\n   */\n  function outstandingKeys()\n    public\n    view\n    returns (uint)\n  {\n    return owners.length;\n  }\n\n  /**\n   * A function which lets the owner of the lock expire a users' key.\n   */\n  function expireKeyFor(\n    address _owner\n  )\n    public\n    onlyOwner\n    hasValidKey(_owner)\n  {\n    keyByOwner[_owner].expirationTimestamp = now; // Effectively expiring the key\n  }\n\n  /**\n  * @dev Returns the key's data field for a given owner.\n  * @param _owner address of the user for whom we search the key\n  */\n  function keyDataFor(\n    address _owner\n  )\n    public\n    view\n    hasKey(_owner)\n    returns (bytes data)\n  {\n    return keyByOwner[_owner].data;\n  }\n\n  /**\n  * @dev Returns the key's ExpirationTimestamp field for a given owner.\n  * @param _owner address of the user for whom we search the key\n  */\n  function keyExpirationTimestampFor(\n    address _owner\n  )\n    public\n    view\n    hasKey(_owner)\n    returns (uint timestamp)\n  {\n    return keyByOwner[_owner].expirationTimestamp;\n  }\n\n  /**\n  * @dev Purchase function: this lets a user purchase a key from the lock for another user\n  * @param _recipient address of the recipient of the purchased key\n  * @param _data optional marker for the key\n  * This will fail if\n  *  - the keyReleaseMechanism is private\n  *  - the keyReleaseMechanism is Approved and the recipient has not been previously approved\n  *  - the amount value is smaller than the price\n  *  - the recipient already owns a key\n  * TODO: next version of solidity will allow for message to be added to require.\n  */\n  function _purchaseFor(\n    address _recipient,\n    address _referrer,\n    bytes _data\n  )\n    internal\n    notSoldOut()\n  {\n    require(_recipient != address(0));\n\n    // Let's get the actual price for the key from the Unlock smart contract\n    IUnlock unlock = IUnlock(unlockProtocol);\n    uint discount;\n    uint tokens;\n    uint inMemoryKeyPrice = keyPrice;\n    (discount, tokens) = unlock.computeAvailableDiscountFor(_recipient, inMemoryKeyPrice);\n    uint netPrice = inMemoryKeyPrice;\n    if (discount > inMemoryKeyPrice) {\n      netPrice = 0;\n    } else {\n      netPrice = inMemoryKeyPrice - discount;\n    }\n\n    // We explicitly allow for greater amounts to allow \"donations\" or partial refunds after\n    // discounts (TODO implement partial refunds)\n    require(msg.value >= netPrice, \"Insufficient funds\");\n    // TODO: If there is more than the required price, then let's return whatever is extra\n    // extra (CAREFUL: re-entrency!)\n\n    // Assign the key\n    uint previousExpiration = keyByOwner[_recipient].expirationTimestamp;\n    if (previousExpiration < now) {\n      owners.push(_recipient);\n      keyByOwner[_recipient].expirationTimestamp = now + expirationDuration;\n    } else {\n      // This is an existing owner trying to extend their key\n      keyByOwner[_recipient].expirationTimestamp = previousExpiration + expirationDuration;\n    }\n    // Overwite data in all cases\n    keyByOwner[_recipient].data = _data;\n\n    if (discount > 0) {\n      unlock.recordConsumedDiscount(discount, tokens);\n    }\n\n    unlock.recordKeyPurchase(netPrice, _referrer);\n\n    // trigger event\n    emit Transfer(\n      0, // This is a creation.\n      _recipient,\n      uint256(_recipient) // Note: since each user can own a single token, we use the current\n      // owner (new!) for the token id\n    );\n  }\n\n  /**\n   * Will return the approved recipient for a key transfer or ownership.\n   * Note: this does not check that a corresponding key\n   * actually exists.\n   */\n  function _getApproved(\n    uint256 _tokenId\n  )\n    internal\n    view\n    returns (address)\n  {\n    address approvedRecipient = approved[address(_tokenId)];\n    require(approvedRecipient != address(0));\n    return approvedRecipient;\n  }\n\n}\n",
  "sourcePath": "/Users/julien/repos/unlock/smart-contracts/contracts/PublicLock.sol",
  "compiler": {
    "name": "solc",
    "version": "0.4.24+commit.e67f0147.Emscripten.clang"
  },
  "schemaVersion": "2.0.1",
  "updatedAt": "2018-11-26T22:21:36.116Z"
}