{
  "contractName": "PublicLock",
  "abi": [
    {
      "constant": true,
      "inputs": [
        {
          "name": "",
          "type": "uint256"
        }
      ],
      "name": "owners",
      "outputs": [
        {
          "name": "",
          "type": "address"
        }
      ],
      "payable": false,
      "stateMutability": "view",
      "type": "function"
    },
    {
      "constant": true,
      "inputs": [],
      "name": "unlockProtocol",
      "outputs": [
        {
          "name": "",
          "type": "address"
        }
      ],
      "payable": false,
      "stateMutability": "view",
      "type": "function"
    },
    {
      "constant": true,
      "inputs": [],
      "name": "keyPrice",
      "outputs": [
        {
          "name": "",
          "type": "uint256"
        }
      ],
      "payable": false,
      "stateMutability": "view",
      "type": "function"
    },
    {
      "constant": true,
      "inputs": [],
      "name": "expirationDuration",
      "outputs": [
        {
          "name": "",
          "type": "uint256"
        }
      ],
      "payable": false,
      "stateMutability": "view",
      "type": "function"
    },
    {
      "constant": false,
      "inputs": [],
      "name": "renounceOwnership",
      "outputs": [],
      "payable": false,
      "stateMutability": "nonpayable",
      "type": "function"
    },
    {
      "constant": true,
      "inputs": [],
      "name": "maxNumberOfKeys",
      "outputs": [
        {
          "name": "",
          "type": "uint256"
        }
      ],
      "payable": false,
      "stateMutability": "view",
      "type": "function"
    },
    {
      "constant": true,
      "inputs": [],
      "name": "owner",
      "outputs": [
        {
          "name": "",
          "type": "address"
        }
      ],
      "payable": false,
      "stateMutability": "view",
      "type": "function"
    },
    {
      "constant": true,
      "inputs": [],
      "name": "isOwner",
      "outputs": [
        {
          "name": "",
          "type": "bool"
        }
      ],
      "payable": false,
      "stateMutability": "view",
      "type": "function"
    },
    {
      "constant": false,
      "inputs": [
        {
          "name": "newOwner",
          "type": "address"
        }
      ],
      "name": "transferOwnership",
      "outputs": [],
      "payable": false,
      "stateMutability": "nonpayable",
      "type": "function"
    },
    {
      "inputs": [
        {
          "name": "_owner",
          "type": "address"
        },
        {
          "name": "_expirationDuration",
          "type": "uint256"
        },
        {
          "name": "_keyPrice",
          "type": "uint256"
        },
        {
          "name": "_maxNumberOfKeys",
          "type": "uint256"
        }
      ],
      "payable": false,
      "stateMutability": "nonpayable",
      "type": "constructor"
    },
    {
      "anonymous": false,
      "inputs": [
        {
          "indexed": true,
          "name": "previousOwner",
          "type": "address"
        },
        {
          "indexed": true,
          "name": "newOwner",
          "type": "address"
        }
      ],
      "name": "OwnershipTransferred",
      "type": "event"
    },
    {
      "anonymous": false,
      "inputs": [
        {
          "indexed": true,
          "name": "_from",
          "type": "address"
        },
        {
          "indexed": true,
          "name": "_to",
          "type": "address"
        },
        {
          "indexed": false,
          "name": "_tokenId",
          "type": "uint256"
        }
      ],
      "name": "Transfer",
      "type": "event"
    },
    {
      "anonymous": false,
      "inputs": [
        {
          "indexed": true,
          "name": "_owner",
          "type": "address"
        },
        {
          "indexed": true,
          "name": "_approved",
          "type": "address"
        },
        {
          "indexed": false,
          "name": "_tokenId",
          "type": "uint256"
        }
      ],
      "name": "Approval",
      "type": "event"
    },
    {
      "anonymous": false,
      "inputs": [
        {
          "indexed": true,
          "name": "_owner",
          "type": "address"
        },
        {
          "indexed": true,
          "name": "_operator",
          "type": "address"
        },
        {
          "indexed": false,
          "name": "_approved",
          "type": "bool"
        }
      ],
      "name": "ApprovalForAll",
      "type": "event"
    },
    {
      "constant": false,
      "inputs": [
        {
          "name": "_recipient",
          "type": "address"
        },
        {
          "name": "_data",
          "type": "bytes"
        }
      ],
      "name": "purchaseFor",
      "outputs": [],
      "payable": true,
      "stateMutability": "payable",
      "type": "function"
    },
    {
      "constant": false,
      "inputs": [
        {
          "name": "_recipient",
          "type": "address"
        },
        {
          "name": "_referrer",
          "type": "address"
        },
        {
          "name": "_data",
          "type": "bytes"
        }
      ],
      "name": "purchaseForFrom",
      "outputs": [],
      "payable": true,
      "stateMutability": "payable",
      "type": "function"
    },
    {
      "constant": false,
      "inputs": [
        {
          "name": "_from",
          "type": "address"
        },
        {
          "name": "_recipient",
          "type": "address"
        },
        {
          "name": "_tokenId",
          "type": "uint256"
        }
      ],
      "name": "transferFrom",
      "outputs": [],
      "payable": true,
      "stateMutability": "payable",
      "type": "function"
    },
    {
      "constant": false,
      "inputs": [],
      "name": "withdraw",
      "outputs": [],
      "payable": false,
      "stateMutability": "nonpayable",
      "type": "function"
    },
    {
      "constant": false,
      "inputs": [
        {
          "name": "_approved",
          "type": "address"
        },
        {
          "name": "_tokenId",
          "type": "uint256"
        }
      ],
      "name": "approve",
      "outputs": [],
      "payable": true,
      "stateMutability": "payable",
      "type": "function"
    },
    {
      "constant": false,
      "inputs": [
        {
          "name": "_keyPrice",
          "type": "uint256"
        }
      ],
      "name": "updateKeyPrice",
      "outputs": [],
      "payable": false,
      "stateMutability": "nonpayable",
      "type": "function"
    },
    {
      "constant": true,
      "inputs": [
        {
          "name": "_owner",
          "type": "address"
        }
      ],
      "name": "balanceOf",
      "outputs": [
        {
          "name": "",
          "type": "uint256"
        }
      ],
      "payable": false,
      "stateMutability": "view",
      "type": "function"
    },
    {
      "constant": true,
      "inputs": [
        {
          "name": "_tokenId",
          "type": "uint256"
        }
      ],
      "name": "ownerOf",
      "outputs": [
        {
          "name": "",
          "type": "address"
        }
      ],
      "payable": false,
      "stateMutability": "view",
      "type": "function"
    },
    {
      "constant": true,
      "inputs": [
        {
          "name": "_tokenId",
          "type": "uint256"
        }
      ],
      "name": "getApproved",
      "outputs": [
        {
          "name": "",
          "type": "address"
        }
      ],
      "payable": false,
      "stateMutability": "view",
      "type": "function"
    },
    {
      "constant": true,
      "inputs": [],
      "name": "outstandingKeys",
      "outputs": [
        {
          "name": "",
          "type": "uint256"
        }
      ],
      "payable": false,
      "stateMutability": "view",
      "type": "function"
    },
    {
      "constant": false,
      "inputs": [
        {
          "name": "_owner",
          "type": "address"
        }
      ],
      "name": "expireKeyFor",
      "outputs": [],
      "payable": false,
      "stateMutability": "nonpayable",
      "type": "function"
    },
    {
      "constant": true,
      "inputs": [
        {
          "name": "_owner",
          "type": "address"
        }
      ],
      "name": "keyDataFor",
      "outputs": [
        {
          "name": "data",
          "type": "bytes"
        }
      ],
      "payable": false,
      "stateMutability": "view",
      "type": "function"
    },
    {
      "constant": true,
      "inputs": [
        {
          "name": "_owner",
          "type": "address"
        }
      ],
      "name": "keyExpirationTimestampFor",
      "outputs": [
        {
          "name": "timestamp",
          "type": "uint256"
        }
      ],
      "payable": false,
      "stateMutability": "view",
      "type": "function"
    }
  ],
  "bytecode": "0x608060405234801561001057600080fd5b50604051608080620014f0833981016040818152825160208401519184015160609094015160008054600160a060020a0319163317808255929593949192600160a060020a031691600080516020620014d0833981519152908290a360018054600160a060020a03191633179055610090846401000000006100a2810204565b60029290925560035560045550610143565b6100b36401000000006100d3810204565b15156100be57600080fd5b6100d0816401000000006100e4810204565b50565b600054600160a060020a0316331490565b600160a060020a03811615156100f957600080fd5b60008054604051600160a060020a0380851693921691600080516020620014d083398151915291a360008054600160a060020a031916600160a060020a0392909216919091179055565b61137d80620001536000396000f30060806040526004361061010e5763ffffffff60e060020a600035041663025e7c278114610113578063081812fc14610147578063095ea7b31461015f5780630f15023b1461017857806310e569731461018d57806311a4c03a146101b45780631f1ec029146101c957806323b872dd146101e15780633ccfd60b146101fe57806347dc10851461021357806353b704d0146102285780636352211e1461024857806370a0823114610260578063715018a61461028157806374b6c106146102965780638da5cb5b146102ab5780638f32d59b146102c05780639f98d3cb146102e9578063abdf82ce1461030a578063d44fa14a1461032b578063d8125eb3146103c1578063f2fde38b146103e9575b600080fd5b34801561011f57600080fd5b5061012b60043561040a565b60408051600160a060020a039092168252519081900360200190f35b34801561015357600080fd5b5061012b600435610432565b610176600160a060020a0360043516602435610443565b005b34801561018457600080fd5b5061012b6104e2565b34801561019957600080fd5b506101a26104f1565b60408051918252519081900360200190f35b3480156101c057600080fd5b506101a26104f7565b3480156101d557600080fd5b506101766004356104fd565b610176600160a060020a0360043581169060243516604435610515565b34801561020a57600080fd5b50610176610808565b34801561021f57600080fd5b506101a26108c0565b61017660048035600160a060020a031690602480359081019101356108c7565b34801561025457600080fd5b5061012b600435610903565b34801561026c57600080fd5b506101a2600160a060020a036004351661096c565b34801561028d57600080fd5b50610176610a00565b3480156102a257600080fd5b506101a2610a6a565b3480156102b757600080fd5b5061012b610a70565b3480156102cc57600080fd5b506102d5610a7f565b604080519115158252519081900360200190f35b3480156102f557600080fd5b50610176600160a060020a0360043516610a90565b34801561031657600080fd5b506101a2600160a060020a0360043516610b34565b34801561033757600080fd5b5061034c600160a060020a0360043516610bb3565b6040805160208082528351818301528351919283929083019185019080838360005b8381101561038657818101518382015260200161036e565b50505050905090810190601f1680156103b35780820380516001836020036101000a031916815260200191505b509250505060405180910390f35b610176600160a060020a03600480358216916024803590911691604435918201910135610cc6565b3480156103f557600080fd5b50610176600160a060020a0360043516610d7c565b600680548290811061041857fe5b600091825260209091200154600160a060020a0316905081565b600061043d82610d9b565b92915050565b80600160a060020a038116331461045957600080fd5b600160a060020a038316151561046e57600080fd5b600160a060020a03828116600081815260076020908152604091829020805473ffffffffffffffffffffffffffffffffffffffff19169488169485179055815186815291517f8c5be1e5ebec7d5bd14f71427d1e84f3dd0314c0f7b2291e5b200ac8c7c3b9259281900390910190a3505050565b600154600160a060020a031681565b60035481565b60025481565b610505610a7f565b151561051057600080fd5b600355565b60065460045460009110610599576040805160e560020a62461bcd02815260206004820152602360248201527f4d6178696d756d206e756d626572206f66206b65797320616c7265616479207360448201527f6f6c640000000000000000000000000000000000000000000000000000000000606482015290519081900360840190fd5b600160a060020a038216600090815260056020526040812080548492106105f8576040805160e560020a62461bcd02815260206004820152600b6024820152600080516020611332833981519152604482015290519081900360640190fd5b83600160a060020a03811633148061062057503361061582610d9b565b600160a060020a0316145b1515610676576040805160e560020a62461bcd02815260206004820181905260248201527f4f6e6c79206b6579206f776e6572206f7220617070726f766564206f776e6572604482015290519081900360640190fd5b600160a060020a038616151561068b57600080fd5b600160a060020a038616600090815260056020526040902054935083151561070657600680546001810182556000919091527ff652222313e28459528d920b65115c16c04f3efc82aaedc97be59f3f377c0d3f01805473ffffffffffffffffffffffffffffffffffffffff1916600160a060020a0388161790555b42841161073557600160a060020a03808816600090815260056020526040808220549289168252902055610762565b600160a060020a038088166000908152600560205260408082205492891682529020429186019190910390555b600160a060020a0387811660009081526005602052604080822092891682529020600191820180546107a99392830192600290821615610100026000190190911604611224565b50600160a060020a0380881660008181526005602090815260409182902042905581518981529151938a16937fddf252ad1be2c89b69c2b068fc378daa952ba7f163c4a11628f55a4df523b3ef9281900390910190a350505050505050565b600080610813610a7f565b151561081e57600080fd5b303191506000821161087a576040805160e560020a62461bcd02815260206004820152601060248201527f4e6f7420656e6f7567682066756e647300000000000000000000000000000000604482015290519081900360640190fd5b610882610a70565b604051909150600160a060020a0382169083156108fc029084906000818181858888f193505050501580156108bb573d6000803e3d6000fd5b505050565b6006545b90565b6108bb83600084848080601f01602080910402602001604051908101604052809392919081815260200183838082843750610dc4945050505050565b600160a060020a038116600090815260056020526040812080548391908310610964576040805160e560020a62461bcd02815260206004820152600b6024820152600080516020611332833981519152604482015290519081900360640190fd5b509192915050565b600160a060020a0381166000908152600560205260408120805483919083106109cd576040805160e560020a62461bcd02815260206004820152600b6024820152600080516020611332833981519152604482015290519081900360640190fd5b600160a060020a038416600090815260056020526040812054116109f25760006109f5565b60015b60ff16949350505050565b610a08610a7f565b1515610a1357600080fd5b60008054604051600160a060020a03909116907f8be0079c531659141344cd1fd0a4f28419497f9722a3daafe3b4186f6b6457e0908390a36000805473ffffffffffffffffffffffffffffffffffffffff19169055565b60045481565b600054600160a060020a031690565b600054600160a060020a0316331490565b610a98610a7f565b1515610aa357600080fd5b600160a060020a038116600090815260056020526040902080548291904210610b16576040805160e560020a62461bcd02815260206004820152601060248201527f4b6579206973206e6f742076616c696400000000000000000000000000000000604482015290519081900360640190fd5b5050600160a060020a03166000908152600560205260409020429055565b600160a060020a038116600090815260056020526040812080548391908310610b95576040805160e560020a62461bcd02815260206004820152600b6024820152600080516020611332833981519152604482015290519081900360640190fd5b505050600160a060020a031660009081526005602052604090205490565b600160a060020a0381166000908152600560205260408120805460609284929111610c16576040805160e560020a62461bcd02815260206004820152600b6024820152600080516020611332833981519152604482015290519081900360640190fd5b600160a060020a038416600090815260056020908152604091829020600190810180548451600293821615610100026000190190911692909204601f810184900484028301840190945283825290929091830182828015610cb85780601f10610c8d57610100808354040283529160200191610cb8565b820191906000526020600020905b815481529060010190602001808311610c9b57829003601f168201915b505050505092505050919050565b600160a060020a038316600090815260056020526040902080548491904210610d39576040805160e560020a62461bcd02815260206004820152601060248201527f4b6579206973206e6f742076616c696400000000000000000000000000000000604482015290519081900360640190fd5b610d74868686868080601f01602080910402602001604051908101604052809392919081815260200183838082843750610dc4945050505050565b505050505050565b610d84610a7f565b1515610d8f57600080fd5b610d98816111a7565b50565b600160a060020a0380821660009081526007602052604081205490911680151561043d57600080fd5b600080600080600080600680549050600454111515610e53576040805160e560020a62461bcd02815260206004820152602360248201527f4d6178696d756d206e756d626572206f66206b65797320616c7265616479207360448201527f6f6c640000000000000000000000000000000000000000000000000000000000606482015290519081900360840190fd5b600160a060020a0389161515610e6857600080fd5b600154600354604080517f0cb175e3000000000000000000000000000000000000000000000000000000008152600160a060020a038d81166004830152602482018490528251941699509195508892630cb175e39260448082019392918290030181600087803b158015610edb57600080fd5b505af1158015610eef573d6000803e3d6000fd5b505050506040513d6040811015610f0557600080fd5b508051602090910151909550935082915081851115610f275760009150610f2d565b84830391505b34821115610f85576040805160e560020a62461bcd02815260206004820152601260248201527f496e73756666696369656e742066756e64730000000000000000000000000000604482015290519081900360640190fd5b50600160a060020a0388166000908152600560205260409020544281101561101a5760068054600181019091557ff652222313e28459528d920b65115c16c04f3efc82aaedc97be59f3f377c0d3f01805473ffffffffffffffffffffffffffffffffffffffff1916600160a060020a038b1690811790915560025460009182526005602052604090912042909101905561103b565b600254600160a060020a038a16600090815260056020526040902090820190555b600160a060020a0389166000908152600560209081526040909120885161106a926001909201918a01906112a9565b5060008511156110de5785600160a060020a0316633652466386866040518363ffffffff1660e060020a0281526004018083815260200182815260200192505050600060405180830381600087803b1580156110c557600080fd5b505af11580156110d9573d6000803e3d6000fd5b505050505b85600160a060020a031663939d9f1f838a6040518363ffffffff1660e060020a0281526004018083815260200182600160a060020a0316600160a060020a0316815260200192505050600060405180830381600087803b15801561114157600080fd5b505af1158015611155573d6000803e3d6000fd5b505060408051600160a060020a038d168082529151919350600092507fddf252ad1be2c89b69c2b068fc378daa952ba7f163c4a11628f55a4df523b3ef919081900360200190a3505050505050505050565b600160a060020a03811615156111bc57600080fd5b60008054604051600160a060020a03808516939216917f8be0079c531659141344cd1fd0a4f28419497f9722a3daafe3b4186f6b6457e091a36000805473ffffffffffffffffffffffffffffffffffffffff1916600160a060020a0392909216919091179055565b828054600181600116156101000203166002900490600052602060002090601f016020900481019282601f1061125d5780548555611299565b8280016001018555821561129957600052602060002091601f016020900482015b8281111561129957825482559160010191906001019061127e565b506112a5929150611317565b5090565b828054600181600116156101000203166002900490600052602060002090601f016020900481019282601f106112ea57805160ff1916838001178555611299565b82800160010185558215611299579182015b828111156112995782518255916020019190600101906112fc565b6108c491905b808211156112a5576000815560010161131d56004e6f2073756368206b6579000000000000000000000000000000000000000000a165627a7a723058204eb595ef264264160c9945e6879faea7ffd101d6b9204f4d0c4dbd677e59201b00298be0079c531659141344cd1fd0a4f28419497f9722a3daafe3b4186f6b6457e0",
  "source": "pragma solidity 0.4.24;\n\nimport \"./interfaces/ILockPublic.sol\";\nimport \"./interfaces/IUnlock.sol\";\n\n/**\n * TODO: consider error codes rather than strings\n */\n\n/**\n * @title The Lock contract\n * @author Julien Genestoux (unlock-protocol.com)\n * Eventually: implement ERC721.\n *  TODO: consider using a _private version for each method that is being invoked by the\n * public one as this seems to be a pattern.\n */\ncontract PublicLock is ILockPublic {\n\n  // The struct for a key\n  struct Key {\n    uint expirationTimestamp;\n    bytes data; // Note: This can be expensive?\n  }\n\n  // Fields\n  // Unlock Protocol address\n  // TODO: should we make that private/internal?\n  address public unlockProtocol;\n\n  // Duration in seconds for which the keys are valid, after creation\n  // should we take a smaller type use less gas?\n  // TODO: add support for a timestamp instead of duration\n  uint public expirationDuration;\n\n  // price in wei of the next key\n  // TODO: allow support for a keyPriceCalculator which could set prices dynamically\n  uint public keyPrice;\n\n  // Max number of keys sold if the keyReleaseMechanism is public\n  uint public maxNumberOfKeys;\n\n  // Keys\n  // Each owner can have at most exactly one key\n  // TODO: could we use public here? (this could be confusing though because it getter will\n  // return 0 values when missing a key)\n  mapping (address => Key) internal keyByOwner;\n\n  // Addresses of owners are also stored in an array.\n  // Addresses are never removed by design to avoid abuses around referals\n  address[] public owners;\n\n  // Keeping track of approved transfers\n  // This is a mapping of addresses which have approved\n  // the transfer of a key to another address where their key can be transfered\n  // Note: the approver may actually NOT have a key... and there can only\n  // be a single approved beneficiary\n  // Note 2: for transfer, both addresses will be different\n  // Note 3: for sales (new keys on restricted locks), both addresses will be the same\n  mapping (address => address) internal approved;\n\n  /**\n   * MODIFIERS\n   */\n  // Ensures that an owner has a key\n  modifier hasKey(\n    address _owner\n  ) {\n    Key storage key = keyByOwner[_owner];\n    require(\n      key.expirationTimestamp > 0, \"No such key\"\n    );\n    _;\n  }\n\n  // Ensures that an owner has a valid key\n  modifier hasValidKey(\n    address _owner\n  ) {\n    Key storage key = keyByOwner[_owner];\n    require(\n      key.expirationTimestamp > now, \"Key is not valid\"\n    );\n    _;\n  }\n\n  // Ensure that the caller owns the key\n  modifier onlyKeyOwner(\n    uint256 _tokenId\n  ) {\n    require(\n      address(_tokenId) == msg.sender\n    );\n    _;\n  }\n\n  // Ensure that the caller has a key\n  // or that the caller has been approved\n  // for ownership of that key\n  modifier onlyKeyOwnerOrApproved(\n    uint256 _tokenId\n  ) {\n    require(\n      address(_tokenId) == msg.sender\n      || _getApproved(_tokenId) == msg.sender\n    , \"Only key owner or approved owner\");\n    _;\n  }\n\n  // Ensure that the Lock has not sold all of its keys.\n  modifier notSoldOut() {\n    require(maxNumberOfKeys > owners.length, \"Maximum number of keys already sold\");\n    _;\n  }\n\n  // Constructor\n  constructor(\n    address _owner,\n    uint _expirationDuration,\n    uint _keyPrice,\n    uint _maxNumberOfKeys\n  )\n    public\n  {\n    unlockProtocol = msg.sender; // Make sure we link back to Unlock's smart contract.\n    transferOwnership(_owner);\n    expirationDuration = _expirationDuration;\n    keyPrice = _keyPrice;\n    maxNumberOfKeys = _maxNumberOfKeys;\n  }\n\n  /**\n  * @dev Purchase function, public version, with no referrer.\n  * @param _recipient address of the recipient of the purchased key\n  * @param _data optional marker for the key\n  */\n  function purchaseFor(\n    address _recipient,\n    bytes _data\n  )\n    external\n    payable\n  {\n    return _purchaseFor(_recipient, address(0), _data);\n  }\n\n  /**\n  * @dev Purchase function, public version, with referrer.\n  * @param _recipient address of the recipient of the purchased key\n  * @param _referrer address of the user making the referral\n  * @param _data optional marker for the key\n  */\n  function purchaseForFrom(\n    address _recipient,\n    address _referrer,\n    bytes _data\n  )\n    external\n    payable\n    hasValidKey(_referrer)\n  {\n    return _purchaseFor(_recipient, _referrer, _data);\n  }\n\n  /**\n   * This is payable because at some point we want to allow the LOCK to capture a fee on 2ndary\n   * market transactions...\n   */\n  function transferFrom(\n    address _from,\n    address _recipient,\n    uint256 _tokenId\n  )\n    external\n    payable\n    notSoldOut()\n    hasKey(address(_tokenId))\n    onlyKeyOwnerOrApproved(_tokenId)\n  {\n    require(_recipient != address(0));\n\n    uint previousExpiration = keyByOwner[_recipient].expirationTimestamp;\n\n    if (previousExpiration == 0) {\n      // The recipient did not have a key previously\n      owners.push(_recipient);\n    }\n\n    if (previousExpiration <= now) {\n      // The recipient did not have a key, or had a key but it expired. The new expiration is the\n      // sender's key expiration\n      keyByOwner[_recipient].expirationTimestamp = keyByOwner[_from].expirationTimestamp;\n    } else {\n      // The recipient has a non expired key. We just add them the corresponding remaining time\n      keyByOwner[_recipient].expirationTimestamp =\n        keyByOwner[_from].expirationTimestamp + previousExpiration - now;\n    }\n    // Overwite data in all cases\n    keyByOwner[_recipient].data = keyByOwner[_from].data;\n\n    // Effectively expiring the key for the previous owner\n    keyByOwner[_from].expirationTimestamp = now;\n\n    // trigger event\n    emit Transfer(\n      _from,\n      _recipient,\n      _tokenId\n    );\n  }\n\n  /**\n   * @dev Called by owner to wiwthdraw all funds from the lock.\n   * TODO: consider allowing anybody to trigger this as long as it goes to owner anyway?\n   * TODO: consider partial withdraws?\n   * TODO: check for re-entrency?\n   */\n  function withdraw(\n  )\n    external\n    onlyOwner\n  {\n    uint256 balance = address(this).balance;\n    require(balance > 0, \"Not enough funds\");\n    address owner = Ownable.owner();\n    owner.transfer(balance);\n  }\n\n  /**\n   * This approves _approved to get ownership of _tokenId.\n   * Note: that since this is used for both purchase and transfer approvals\n   * the approved token may not exist.\n   */\n  function approve(\n    address _approved,\n    uint256 _tokenId\n  )\n    external\n    payable\n    onlyKeyOwner(_tokenId)\n  {\n    require(_approved != address(0));\n\n    approved[address(_tokenId)] = _approved;\n    emit Approval(address(_tokenId), _approved, _tokenId);\n  }\n\n  /**\n   * A function which lets the owner of the lock to change the price for future purchases.\n   */\n  function updateKeyPrice(\n    uint _keyPrice\n  )\n    external\n    onlyOwner\n  {\n    keyPrice = _keyPrice;\n  }\n\n  /**\n   * In the specific case of a Lock, each owner can own only at most 1 key.\n   * @return The number of NFTs owned by `_owner`, either 0 or 1.\n  */\n  function balanceOf(\n    address _owner\n  )\n    external\n    view\n    hasKey(_owner)\n    returns (uint256)\n  {\n    return keyByOwner[_owner].expirationTimestamp > 0 ? 1 : 0;\n  }\n\n  /**\n   * @notice ERC721: Find the owner of an NFT\n   * @return The address of the owner of the NFT, if applicable\n  */\n  function ownerOf(\n    uint256 _tokenId\n  )\n    external\n    view\n    hasKey(address(_tokenId))\n    returns (address)\n  {\n    return address(_tokenId);\n  }\n\n  /**\n   * external version\n   * Will return the approved recipient for a key, if any.\n   */\n  function getApproved(\n    uint256 _tokenId\n  )\n    external\n    view\n    returns (address)\n  {\n    return _getApproved(_tokenId);\n  }\n\n  /**\n   * Public function which returns the total number of keys (both expired and valid)\n   */\n  function outstandingKeys()\n    public\n    view\n    returns (uint)\n  {\n    return owners.length;\n  }\n\n  /**\n   * A function which lets the owner of the lock expire a users' key.\n   */\n  function expireKeyFor(\n    address _owner\n  )\n    public\n    onlyOwner\n    hasValidKey(_owner)\n  {\n    keyByOwner[_owner].expirationTimestamp = now; // Effectively expiring the key\n  }\n\n  /**\n  * @dev Returns the key's data field for a given owner.\n  * @param _owner address of the user for whom we search the key\n  */\n  function keyDataFor(\n    address _owner\n  )\n    public\n    view\n    hasKey(_owner)\n    returns (bytes data)\n  {\n    return keyByOwner[_owner].data;\n  }\n\n  /**\n  * @dev Returns the key's ExpirationTimestamp field for a given owner.\n  * @param _owner address of the user for whom we search the key\n  */\n  function keyExpirationTimestampFor(\n    address _owner\n  )\n    public\n    view\n    hasKey(_owner)\n    returns (uint timestamp)\n  {\n    return keyByOwner[_owner].expirationTimestamp;\n  }\n\n  /**\n  * @dev Purchase function: this lets a user purchase a key from the lock for another user\n  * @param _recipient address of the recipient of the purchased key\n  * @param _data optional marker for the key\n  * This will fail if\n  *  - the keyReleaseMechanism is private\n  *  - the keyReleaseMechanism is Approved and the recipient has not been previously approved\n  *  - the amount value is smaller than the price\n  *  - the recipient already owns a key\n  * TODO: next version of solidity will allow for message to be added to require.\n  */\n  function _purchaseFor(\n    address _recipient,\n    address _referrer,\n    bytes _data\n  )\n    internal\n    notSoldOut()\n  {\n    require(_recipient != address(0));\n\n    // Let's get the actual price for the key from the Unlock smart contract\n    IUnlock unlock = IUnlock(unlockProtocol);\n    uint discount;\n    uint tokens;\n    uint inMemoryKeyPrice = keyPrice;\n    (discount, tokens) = unlock.computeAvailableDiscountFor(_recipient, inMemoryKeyPrice);\n    uint netPrice = inMemoryKeyPrice;\n    if (discount > inMemoryKeyPrice) {\n      netPrice = 0;\n    } else {\n      netPrice = inMemoryKeyPrice - discount;\n    }\n\n    // We explicitly allow for greater amounts to allow \"donations\" or partial refunds after\n    // discounts (TODO implement partial refunds)\n    require(msg.value >= netPrice, \"Insufficient funds\");\n    // TODO: If there is more than the required price, then let's return whatever is extra\n    // extra (CAREFUL: re-entrency!)\n\n    // Assign the key\n    uint previousExpiration = keyByOwner[_recipient].expirationTimestamp;\n    if (previousExpiration < now) {\n      owners.push(_recipient);\n      keyByOwner[_recipient].expirationTimestamp = now + expirationDuration;\n    } else {\n      // This is an existing owner trying to extend their key\n      keyByOwner[_recipient].expirationTimestamp = previousExpiration + expirationDuration;\n    }\n    // Overwite data in all cases\n    keyByOwner[_recipient].data = _data;\n\n    if (discount > 0) {\n      unlock.recordConsumedDiscount(discount, tokens);\n    }\n\n    unlock.recordKeyPurchase(netPrice, _referrer);\n\n    // trigger event\n    emit Transfer(\n      0, // This is a creation.\n      _recipient,\n      uint256(_recipient) // Note: since each user can own a single token, we use the current\n      // owner (new!) for the token id\n    );\n  }\n\n  /**\n   * Will return the approved recipient for a key transfer or ownership.\n   * Note: this does not check that a corresponding key\n   * actually exists.\n   */\n  function _getApproved(\n    uint256 _tokenId\n  )\n    internal\n    view\n    returns (address)\n  {\n    address approvedRecipient = approved[address(_tokenId)];\n    require(approvedRecipient != address(0));\n    return approvedRecipient;\n  }\n\n}\n",
  "sourcePath": "/Users/julien/repos/unlock/smart-contracts/contracts/PublicLock.sol",
  "compiler": {
    "name": "solc",
    "version": "0.4.24+commit.e67f0147.Emscripten.clang"
  },
  "schemaVersion": "2.0.1",
  "updatedAt": "2018-12-05T20:45:56.368Z"
}