{
  "contractName": "UnlockTestV3",
  "abi": [
    {
      "constant": true,
      "inputs": [
        {
          "name": "",
          "type": "address"
        }
      ],
      "name": "locks",
      "outputs": [
        {
          "name": "deployed",
          "type": "bool"
        },
        {
          "name": "totalSales",
          "type": "uint256"
        },
        {
          "name": "yieldedDiscountTokens",
          "type": "uint256"
        }
      ],
      "payable": false,
      "stateMutability": "view",
      "type": "function"
    },
    {
      "constant": false,
      "inputs": [],
      "name": "renounceOwnership",
      "outputs": [],
      "payable": false,
      "stateMutability": "nonpayable",
      "type": "function"
    },
    {
      "constant": true,
      "inputs": [],
      "name": "owner",
      "outputs": [
        {
          "name": "",
          "type": "address"
        }
      ],
      "payable": false,
      "stateMutability": "view",
      "type": "function"
    },
    {
      "constant": true,
      "inputs": [],
      "name": "isOwner",
      "outputs": [
        {
          "name": "",
          "type": "bool"
        }
      ],
      "payable": false,
      "stateMutability": "view",
      "type": "function"
    },
    {
      "constant": true,
      "inputs": [],
      "name": "totalDiscountGranted",
      "outputs": [
        {
          "name": "",
          "type": "uint256"
        }
      ],
      "payable": false,
      "stateMutability": "view",
      "type": "function"
    },
    {
      "constant": true,
      "inputs": [],
      "name": "exampleData",
      "outputs": [
        {
          "name": "",
          "type": "uint256"
        }
      ],
      "payable": false,
      "stateMutability": "view",
      "type": "function"
    },
    {
      "constant": true,
      "inputs": [],
      "name": "grossNetworkProduct",
      "outputs": [
        {
          "name": "",
          "type": "uint256"
        }
      ],
      "payable": false,
      "stateMutability": "view",
      "type": "function"
    },
    {
      "constant": false,
      "inputs": [
        {
          "name": "newOwner",
          "type": "address"
        }
      ],
      "name": "transferOwnership",
      "outputs": [],
      "payable": false,
      "stateMutability": "nonpayable",
      "type": "function"
    },
    {
      "anonymous": false,
      "inputs": [
        {
          "indexed": true,
          "name": "lockOwner",
          "type": "address"
        },
        {
          "indexed": true,
          "name": "newLockAddress",
          "type": "address"
        }
      ],
      "name": "NewLock",
      "type": "event"
    },
    {
      "anonymous": false,
      "inputs": [
        {
          "indexed": true,
          "name": "previousOwner",
          "type": "address"
        }
      ],
      "name": "OwnershipRenounced",
      "type": "event"
    },
    {
      "anonymous": false,
      "inputs": [
        {
          "indexed": true,
          "name": "previousOwner",
          "type": "address"
        },
        {
          "indexed": true,
          "name": "newOwner",
          "type": "address"
        }
      ],
      "name": "OwnershipTransferred",
      "type": "event"
    },
    {
      "constant": false,
      "inputs": [
        {
          "name": "_owner",
          "type": "address"
        }
      ],
      "name": "initialize",
      "outputs": [],
      "payable": false,
      "stateMutability": "nonpayable",
      "type": "function"
    },
    {
      "constant": false,
      "inputs": [],
      "name": "initializeV3",
      "outputs": [],
      "payable": false,
      "stateMutability": "nonpayable",
      "type": "function"
    },
    {
      "constant": true,
      "inputs": [],
      "name": "testNewMethod",
      "outputs": [
        {
          "name": "sum",
          "type": "uint256"
        }
      ],
      "payable": false,
      "stateMutability": "view",
      "type": "function"
    },
    {
      "constant": false,
      "inputs": [
        {
          "name": "_discount",
          "type": "uint256"
        }
      ],
      "name": "recordConsumedDiscount",
      "outputs": [],
      "payable": false,
      "stateMutability": "nonpayable",
      "type": "function"
    }
  ],
  "bytecode": "0x608060405234801561001057600080fd5b5061055c806100206000396000f3006080604052600436106100b95763ffffffff7c010000000000000000000000000000000000000000000000000000000060003504166338e454b181146100be5780635de9a137146100d55780635ee42e4e14610116578063715018a61461013d5780637e1d1b49146101525780638da5cb5b1461016a5780638f32d59b1461019b578063a082eb0e146101c4578063c4d66de8146101d9578063cbd17ec1146101fa578063d6e9e8031461020f578063f2fde38b14610224575b600080fd5b3480156100ca57600080fd5b506100d3610245565b005b3480156100e157600080fd5b506100f6600160a060020a0360043516610270565b604080519315158452602084019290925282820152519081900360600190f35b34801561012257600080fd5b5061012b610295565b60408051918252519081900360200190f35b34801561014957600080fd5b506100d36102a3565b34801561015e57600080fd5b506100d360043561030d565b34801561017657600080fd5b5061017f610319565b60408051600160a060020a039092168252519081900360200190f35b3480156101a757600080fd5b506101b0610328565b604080519115158252519081900360200190f35b3480156101d057600080fd5b5061012b610339565b3480156101e557600080fd5b506100d3600160a060020a036004351661033f565b34801561020657600080fd5b5061012b61036d565b34801561021b57600080fd5b5061012b610373565b34801561023057600080fd5b506100d3600160a060020a0360043516610379565b606954610100900460ff161561025a57600080fd5b602a606a556069805461ff001916610100179055565b60686020526000908152604090208054600182015460029092015460ff909116919083565b606a54606754606654010190565b6102ab610328565b15156102b657600080fd5b603354604051600160a060020a03909116907ff8df31144d9c2f0f6b59d69b8b98abd5459d07f2742c4df920b25aae33c6482090600090a26033805473ffffffffffffffffffffffffffffffffffffffff19169055565b60678054820190555b50565b603354600160a060020a031690565b603354600160a060020a0316331490565b60675481565b61034881610395565b60695460ff161561035857600080fd5b50602a606a556069805460ff19166001179055565b606a5481565b60665481565b610381610328565b151561038c57600080fd5b610316816104ac565b60008054610100900460ff16806103af57506103af61052a565b806103bd575060005460ff16155b151561045057604080517f08c379a000000000000000000000000000000000000000000000000000000000815260206004820152602e60248201527f436f6e747261637420696e7374616e63652068617320616c726561647920626560448201527f656e20696e697469616c697a6564000000000000000000000000000000000000606482015290519081900360840190fd5b50600080546033805473ffffffffffffffffffffffffffffffffffffffff1916600160a060020a03949094169390931790925561ff001980831661010090811760ff19166001179091169281900460ff16151502919091179055565b600160a060020a03811615156104c157600080fd5b603354604051600160a060020a038084169216907f8be0079c531659141344cd1fd0a4f28419497f9722a3daafe3b4186f6b6457e090600090a36033805473ffffffffffffffffffffffffffffffffffffffff1916600160a060020a0392909216919091179055565b303b15905600a165627a7a7230582040b2f05bbc5ab39eb3d36eb195cf4324107a399cbcf4f0af80d3976fdd337db60029",
  "source": "pragma solidity 0.4.24;\n\n/**\n * @title Example upgrade of the Unlock contract\n * @author Julien Genestoux (unlock-protocol.com)\n * @author HardlyDifficult\n *\n * This is a copy paste of the current Unlock contract, with comments removed.\n * Then a few small changes have been made, higlighted with comments.\n */\n\nimport \"openzeppelin-eth/contracts/ownership/Ownable.sol\";\nimport \"zos-lib/contracts/Initializable.sol\";\nimport \"./PublicLock.sol\";\n// import \"./interfaces/IUnlock.sol\";\n\n\ncontract UnlockTestV3 is Initializable, Ownable {\n\n  struct LockBalances {\n    bool deployed;\n    uint totalSales;\n    uint yieldedDiscountTokens;\n  }\n\n  modifier onlyFromDeployedLock() {\n    require(locks[msg.sender].deployed, \"Only from previously deployed locks\");\n    _;\n  }\n\n  uint public grossNetworkProduct;\n\n  uint public totalDiscountGranted;\n\n  mapping (address => LockBalances) public locks;\n\n  event NewLock(\n    address indexed lockOwner,\n    address indexed newLockAddress\n  );\n\n  bool internal initialized;\n\n  // Example new data (which must come after the original data)\n  bool internal initializedV3;\n  uint public exampleData;\n\n  function initialize(\n    address _owner\n  )\n    public\n    // initializer()\n  {\n    // Initialize Ownable.sol (openzeppelin-eth version)\n    Ownable.initialize(_owner);\n    require(!initialized);\n    exampleData = 42;\n    initialized = true;\n  }\n\n  // Adding a second initialize for the new data as 'initialized' is already true when v3 is deployed.\n  function initializeV3()\n    public\n  {\n    require(!initializedV3);\n    exampleData = 42;\n    initializedV3 = true;\n  }\n\n  // Removed most existing methods\n  // Example new method\n  function testNewMethod()\n    public\n    view\n    returns (uint sum)\n  {\n    return grossNetworkProduct + totalDiscountGranted + exampleData;\n  }\n\n  // Changing the method signature and removing modifier\n  function recordConsumedDiscount(\n    uint _discount\n  )\n    public\n  {\n    totalDiscountGranted += _discount;\n    return;\n  }\n\n}\n",
  "sourcePath": "/Users/overlord/DAPPS/unlock/smart-contracts/contracts/UnlockTestV3.sol",
  "compiler": {
    "name": "solc",
    "version": "0.4.24+commit.e67f0147.Emscripten.clang"
  },
  "schemaVersion": "2.0.1",
  "updatedAt": "2018-12-14T22:05:17.703Z"
}