{
  "contractName": "Unlock",
  "abi": [
    {
      "constant": true,
      "inputs": [
        {
          "name": "",
          "type": "address"
        }
      ],
      "name": "locks",
      "outputs": [
        {
          "name": "deployed",
          "type": "bool"
        },
        {
          "name": "totalSales",
          "type": "uint256"
        },
        {
          "name": "yieldedDiscountTokens",
          "type": "uint256"
        }
      ],
      "payable": false,
      "stateMutability": "view",
      "type": "function"
    },
    {
      "constant": true,
      "inputs": [],
      "name": "owner",
      "outputs": [
        {
          "name": "",
          "type": "address"
        }
      ],
      "payable": false,
      "stateMutability": "view",
      "type": "function"
    },
    {
      "constant": true,
      "inputs": [],
      "name": "totalDiscountGranted",
      "outputs": [
        {
          "name": "",
          "type": "uint256"
        }
      ],
      "payable": false,
      "stateMutability": "view",
      "type": "function"
    },
    {
      "constant": true,
      "inputs": [
        {
          "name": "contractName",
          "type": "string"
        },
        {
          "name": "migrationId",
          "type": "string"
        }
      ],
      "name": "isMigrated",
      "outputs": [
        {
          "name": "",
          "type": "bool"
        }
      ],
      "payable": false,
      "stateMutability": "view",
      "type": "function"
    },
    {
      "constant": true,
      "inputs": [],
      "name": "grossNetworkProduct",
      "outputs": [
        {
          "name": "",
          "type": "uint256"
        }
      ],
      "payable": false,
      "stateMutability": "view",
      "type": "function"
    },
    {
      "constant": false,
      "inputs": [
        {
          "name": "newOwner",
          "type": "address"
        }
      ],
      "name": "transferOwnership",
      "outputs": [],
      "payable": false,
      "stateMutability": "nonpayable",
      "type": "function"
    },
    {
      "anonymous": false,
      "inputs": [
        {
          "indexed": true,
          "name": "lockOwner",
          "type": "address"
        },
        {
          "indexed": true,
          "name": "newLockAddress",
          "type": "address"
        }
      ],
      "name": "NewLock",
      "type": "event"
    },
    {
      "anonymous": false,
      "inputs": [
        {
          "indexed": false,
          "name": "contractName",
          "type": "string"
        },
        {
          "indexed": false,
          "name": "migrationId",
          "type": "string"
        }
      ],
      "name": "Migrated",
      "type": "event"
    },
    {
      "anonymous": false,
      "inputs": [
        {
          "indexed": true,
          "name": "previousOwner",
          "type": "address"
        },
        {
          "indexed": true,
          "name": "newOwner",
          "type": "address"
        }
      ],
      "name": "OwnershipTransferred",
      "type": "event"
    },
    {
      "constant": false,
      "inputs": [],
      "name": "initialize",
      "outputs": [],
      "payable": false,
      "stateMutability": "nonpayable",
      "type": "function"
    },
    {
      "constant": false,
      "inputs": [
        {
          "name": "_owner",
          "type": "address"
        }
      ],
      "name": "initialize",
      "outputs": [],
      "payable": false,
      "stateMutability": "nonpayable",
      "type": "function"
    },
    {
      "constant": false,
      "inputs": [
        {
          "name": "_keyReleaseMechanism",
          "type": "uint8"
        },
        {
          "name": "_expirationDuration",
          "type": "uint256"
        },
        {
          "name": "_keyPrice",
          "type": "uint256"
        },
        {
          "name": "_maxNumberOfKeys",
          "type": "uint256"
        }
      ],
      "name": "createLock",
      "outputs": [
        {
          "name": "lock",
          "type": "address"
        }
      ],
      "payable": false,
      "stateMutability": "nonpayable",
      "type": "function"
    },
    {
      "constant": true,
      "inputs": [
        {
          "name": "_purchaser",
          "type": "address"
        },
        {
          "name": "_keyPrice",
          "type": "uint256"
        }
      ],
      "name": "computeAvailableDiscountFor",
      "outputs": [
        {
          "name": "discount",
          "type": "uint256"
        },
        {
          "name": "tokens",
          "type": "uint256"
        }
      ],
      "payable": false,
      "stateMutability": "pure",
      "type": "function"
    },
    {
      "constant": false,
      "inputs": [
        {
          "name": "_value",
          "type": "uint256"
        },
        {
          "name": "_referrer",
          "type": "address"
        }
      ],
      "name": "recordKeyPurchase",
      "outputs": [],
      "payable": false,
      "stateMutability": "nonpayable",
      "type": "function"
    },
    {
      "constant": false,
      "inputs": [
        {
          "name": "_discount",
          "type": "uint256"
        },
        {
          "name": "_tokens",
          "type": "uint256"
        }
      ],
      "name": "recordConsumedDiscount",
      "outputs": [],
      "payable": false,
      "stateMutability": "nonpayable",
      "type": "function"
    }
  ],
  "bytecode": "0x608060405260008054600160a060020a03191633179055612494806100256000396000f3006080604052600436106100b95763ffffffff7c01000000000000000000000000000000000000000000000000000000006000350416630cb175e381146100be5780632bc888bf146100fb578063365246631461013b5780635de9a137146101585780638129fc1c146101995780638da5cb5b146101ae578063939d9f1f146101c3578063a082eb0e146101e7578063c0bac1a81461020e578063c4d66de8146102b9578063d6e9e803146102da578063f2fde38b146102ef575b600080fd5b3480156100ca57600080fd5b506100e2600160a060020a0360043516602435610310565b6040805192835260208301919091528051918290030190f35b34801561010757600080fd5b5061011f60ff60043516602435604435606435610319565b60408051600160a060020a039092168252519081900360200190f35b34801561014757600080fd5b5061015660043560243561040e565b005b34801561016457600080fd5b50610179600160a060020a03600435166104c1565b604080519315158452602084019290925282820152519081900360600190f35b3480156101a557600080fd5b506101566104e6565b3480156101ba57600080fd5b5061011f610843565b3480156101cf57600080fd5b50610156600435600160a060020a0360243516610852565b3480156101f357600080fd5b506101fc610904565b60408051918252519081900360200190f35b34801561021a57600080fd5b506040805160206004803580820135601f81018490048402850184019095528484526102a594369492936024939284019190819084018382808284375050604080516020601f89358b018035918201839004830284018301909452808352979a99988101979196509182019450925082915084018382808284375094975061090a9650505050505050565b604080519115158252519081900360200190f35b3480156102c557600080fd5b50610156600160a060020a03600435166109d2565b3480156102e657600080fd5b506101fc610d69565b3480156102fb57600080fd5b50610156600160a060020a0360043516610d6f565b50600091829150565b6000803386868686610329610e9f565b600160a060020a03861681526020810185600281111561034557fe5b60ff16815260200184815260200183815260200182815260200195505050505050604051809103906000f080158015610382573d6000803e3d6000fd5b5060408051606081018252600180825260006020808401828152848601838152600160a060020a03881680855260049093528684209551865460ff191690151517865590519385019390935591516002909301929092559151929350909133917f01017ed19df0c7f8acc436147b234b09664a9fb4797b4fa3fb9e599c2eb67be791a395945050505050565b3360009081526004602052604090205460ff1615156104b457604080517f08c379a000000000000000000000000000000000000000000000000000000000815260206004820152602360248201527f4f6e6c792066726f6d2070726576696f75736c79206465706c6f796564206c6f60448201527f636b730000000000000000000000000000000000000000000000000000000000606482015290519081900360840190fd5b60038054830190555b5050565b60046020526000908152604090208054600182015460029092015460ff909116919083565b6040805190810160405280600a81526020017f4d696772617461626c65000000000000000000000000000000000000000000008152506040805190810160405280600581526020017f312e322e3100000000000000000000000000000000000000000000000000000081525061057f826040805190810160405280600b8152602001600080516020612449833981519152815250610e03565b6105898282610e03565b7fdd117a11c22118c9dee4b5a67ce578bc44529dce21ee0ccc439588fbb9fb4ea38282604051808060200180602001838103835285818151815260200191508051906020019080838360005b838110156105ed5781810151838201526020016105d5565b50505050905090810190601f16801561061a5780820380516001836020036101000a031916815260200191505b50838103825284518152845160209182019186019080838360005b8381101561064d578181015183820152602001610635565b50505050905090810190601f16801561067a5780820380516001836020036101000a031916815260200191505b5094505050505060405180910390a1600180836040518082805190602001908083835b602083106106bc5780518252601f19909201916020918201910161069d565b51815160209384036101000a6000190180199092169116179052920194855250604051938490038101842086519094879450925082918401908083835b602083106107185780518252601f1990920191602091820191016106f9565b51815160209384036101000a60001901801990921691161790529201948552506040519384900381018420805460ff191695151595909517909455505083516001928392869290918291908401908083835b602083106107895780518252601f19909201916020918201910161076a565b51815160209384036101000a60001901801990921691161790529201948552506040805194859003820185208582018252600b80875260008051602061244983398151915293870193845291519095945092508291908083835b602083106108025780518252601f1990920191602091820191016107e3565b51815160209384036101000a60001901801990921691161790529201948552506040519384900301909220805460ff19169315159390931790925550505050565b600054600160a060020a031681565b3360009081526004602052604090205460ff1615156108f857604080517f08c379a000000000000000000000000000000000000000000000000000000000815260206004820152602360248201527f4f6e6c792066726f6d2070726576696f75736c79206465706c6f796564206c6f60448201527f636b730000000000000000000000000000000000000000000000000000000000606482015290519081900360840190fd5b60028054830190555050565b60035481565b60006001836040518082805190602001908083835b6020831061093e5780518252601f19909201916020918201910161091f565b51815160209384036101000a6000190180199092169116179052920194855250604051938490038101842086519094879450925082918401908083835b6020831061099a5780518252601f19909201916020918201910161097b565b51815160209384036101000a600019018019909216911617905292019485525060405193849003019092205460ff1695945050505050565b6040805190810160405280600681526020017f556e6c6f636b00000000000000000000000000000000000000000000000000008152506040805190810160405280600181526020017f3000000000000000000000000000000000000000000000000000000000000000815250610a6b826040805190810160405280600b8152602001600080516020612449833981519152815250610e03565b610a758282610e03565b6000805473ffffffffffffffffffffffffffffffffffffffff1916600160a060020a038516178155600281905560038190556040805181815284519181019190915283517fdd117a11c22118c9dee4b5a67ce578bc44529dce21ee0ccc439588fbb9fb4ea3928592859290918291602080840192606085019291880191908190849084905b83811015610b12578181015183820152602001610afa565b50505050905090810190601f168015610b3f5780820380516001836020036101000a031916815260200191505b50838103825284518152845160209182019186019080838360005b83811015610b72578181015183820152602001610b5a565b50505050905090810190601f168015610b9f5780820380516001836020036101000a031916815260200191505b5094505050505060405180910390a1600180836040518082805190602001908083835b60208310610be15780518252601f199092019160209182019101610bc2565b51815160209384036101000a6000190180199092169116179052920194855250604051938490038101842086519094879450925082918401908083835b60208310610c3d5780518252601f199092019160209182019101610c1e565b51815160209384036101000a60001901801990921691161790529201948552506040519384900381018420805460ff191695151595909517909455505083516001928392869290918291908401908083835b60208310610cae5780518252601f199092019160209182019101610c8f565b51815160209384036101000a60001901801990921691161790529201948552506040805194859003820185208582018252600b80875260008051602061244983398151915293870193845291519095945092508291908083835b60208310610d275780518252601f199092019160209182019101610d08565b51815160209384036101000a60001901801990921691161790529201948552506040519384900301909220805460ff1916931515939093179092555050505050565b60025481565b600054600160a060020a03163314610d8657600080fd5b600160a060020a0381161515610d9b57600080fd5b60008054604051600160a060020a03808516939216917f8be0079c531659141344cd1fd0a4f28419497f9722a3daafe3b4186f6b6457e091a36000805473ffffffffffffffffffffffffffffffffffffffff1916600160a060020a0392909216919091179055565b610e0d828261090a565b156104bd57604080517f08c379a000000000000000000000000000000000000000000000000000000000815260206004820152603260248201527f52657175657374656420746172676574206d6967726174696f6e20494420686160448201527f7320616c7265616479206265656e2072756e0000000000000000000000000000606482015290519081900360840190fd5b60405161159980610eb0833901905600608060405234801561001057600080fd5b5060405160a08061159983398101604090815281516020830151918301516060840151608090940151600080546001805433600160a060020a031991821681178084559382161716600160a060020a038716179092559395929385919060a060020a60ff0219167401000000000000000000000000000000000000000083600281111561009957fe5b021790555060029290925560035560045550506114de806100bb6000396000f3006080604052600436106100f85763ffffffff60e060020a600035041663025e7c2781146100fd578063081812fc14610131578063095ea7b3146101495780630f15023b1461016257806310e569731461017757806311a4c03a1461019e57806323b872dd146101b35780633ccfd60b146101d057806347a51015146101e557806347dc10851461021e57806353b704d0146102335780636352211e1461025357806370a082311461026b57806374b6c1061461028c5780638da5cb5b146102a15780639f98d3cb146102b6578063abdf82ce146102d7578063d44fa14a146102f8578063d8125eb31461038e578063f2fde38b146103b6575b600080fd5b34801561010957600080fd5b506101156004356103d7565b60408051600160a060020a039092168252519081900360200190f35b34801561013d57600080fd5b506101156004356103ff565b610160600160a060020a0360043516602435610410565b005b34801561016e57600080fd5b5061011561057e565b34801561018357600080fd5b5061018c61058d565b60408051918252519081900360200190f35b3480156101aa57600080fd5b5061018c610593565b610160600160a060020a0360043581169060243516604435610599565b3480156101dc57600080fd5b506101606108fb565b3480156101f157600080fd5b506101fa6109ab565b6040518082600281111561020a57fe5b60ff16815260200191505060405180910390f35b34801561022a57600080fd5b5061018c6109bb565b61016060048035600160a060020a031690602480359081019101356109c2565b34801561025f57600080fd5b50610115600435610a03565b34801561027757600080fd5b5061018c600160a060020a0360043516610a6c565b34801561029857600080fd5b5061018c610b00565b3480156102ad57600080fd5b50610115610b06565b3480156102c257600080fd5b50610160600160a060020a0360043516610b15565b3480156102e357600080fd5b5061018c600160a060020a0360043516610bbd565b34801561030457600080fd5b50610319600160a060020a0360043516610c3c565b6040805160208082528351818301528351919283929083019185019080838360005b8381101561035357818101518382015260200161033b565b50505050905090810190601f1680156103805780820380516001836020036101000a031916815260200191505b509250505060405180910390f35b610160600160a060020a03600480358216916024803590911691604435918201910135610d4f565b3480156103c257600080fd5b50610160600160a060020a0360043516610e05565b60068054829081106103e557fe5b600091825260209091200154600160a060020a0316905081565b600061040a82610e99565b92915050565b80600260015460a060020a900460ff16600281111561042b57fe5b14156104a7576040805160e560020a62461bcd02815260206004820152602a60248201527f4f6e6c7920616c6c6f776564206f6e207075626c6963206f722072657374726960448201527f63746564206c6f636b7300000000000000000000000000000000000000000000606482015290519081900360840190fd5b600054600160a060020a03163314806104ea5750600160a060020a038116331480156104ea5750600060015460a060020a900460ff1660028111156104e857fe5b145b15156104f557600080fd5b600160a060020a038316151561050a57600080fd5b600160a060020a03828116600081815260076020908152604091829020805473ffffffffffffffffffffffffffffffffffffffff19169488169485179055815186815291517f8c5be1e5ebec7d5bd14f71427d1e84f3dd0314c0f7b2291e5b200ac8c7c3b9259281900390910190a3505050565b600154600160a060020a031681565b60035481565b60025481565b6006546004546000911061061d576040805160e560020a62461bcd02815260206004820152602360248201527f4d6178696d756d206e756d626572206f66206b65797320616c7265616479207360448201527f6f6c640000000000000000000000000000000000000000000000000000000000606482015290519081900360840190fd5b600060015460a060020a900460ff16600281111561063757fe5b1461068c576040805160e560020a62461bcd02815260206004820152601c60248201527f4f6e6c7920616c6c6f776564206f6e207075626c6963206c6f636b7300000000604482015290519081900360640190fd5b600160a060020a038216600090815260056020526040812080548492106106eb576040805160e560020a62461bcd02815260206004820152600b6024820152600080516020611493833981519152604482015290519081900360640190fd5b83600160a060020a03811633148061071357503361070882610e99565b600160a060020a0316145b1515610769576040805160e560020a62461bcd02815260206004820181905260248201527f4f6e6c79206b6579206f776e6572206f7220617070726f766564206f776e6572604482015290519081900360640190fd5b600160a060020a038616151561077e57600080fd5b600160a060020a03861660009081526005602052604090205493508315156107f957600680546001810182556000919091527ff652222313e28459528d920b65115c16c04f3efc82aaedc97be59f3f377c0d3f01805473ffffffffffffffffffffffffffffffffffffffff1916600160a060020a0388161790555b42841161082857600160a060020a03808816600090815260056020526040808220549289168252902055610855565b600160a060020a038088166000908152600560205260408082205492891682529020429186019190910390555b600160a060020a03878116600090815260056020526040808220928916825290206001918201805461089c9392830192600290821615610100026000190190911604611385565b50600160a060020a0380881660008181526005602090815260409182902042905581518981529151938a16937fddf252ad1be2c89b69c2b068fc378daa952ba7f163c4a11628f55a4df523b3ef9281900390910190a350505050505050565b60008054600160a060020a0316331461091357600080fd5b5030316000811161096e576040805160e560020a62461bcd02815260206004820152601060248201527f4e6f7420656e6f7567682066756e647300000000000000000000000000000000604482015290519081900360640190fd5b60008054604051600160a060020a039091169183156108fc02918491818181858888f193505050501580156109a7573d6000803e3d6000fd5b5050565b60015460a060020a900460ff1681565b6006545b90565b6109fe83600084848080601f01602080910402602001604051908101604052809392919081815260200183838082843750610ec2945050505050565b505050565b600160a060020a038116600090815260056020526040812080548391908310610a64576040805160e560020a62461bcd02815260206004820152600b6024820152600080516020611493833981519152604482015290519081900360640190fd5b509192915050565b600160a060020a038116600090815260056020526040812080548391908310610acd576040805160e560020a62461bcd02815260206004820152600b6024820152600080516020611493833981519152604482015290519081900360640190fd5b600160a060020a03841660009081526005602052604081205411610af2576000610af5565b60015b60ff16949350505050565b60045481565b600054600160a060020a031681565b600054600160a060020a03163314610b2c57600080fd5b600160a060020a038116600090815260056020526040902080548291904210610b9f576040805160e560020a62461bcd02815260206004820152601060248201527f4b6579206973206e6f742076616c696400000000000000000000000000000000604482015290519081900360640190fd5b5050600160a060020a03166000908152600560205260409020429055565b600160a060020a038116600090815260056020526040812080548391908310610c1e576040805160e560020a62461bcd02815260206004820152600b6024820152600080516020611493833981519152604482015290519081900360640190fd5b505050600160a060020a031660009081526005602052604090205490565b600160a060020a0381166000908152600560205260408120805460609284929111610c9f576040805160e560020a62461bcd02815260206004820152600b6024820152600080516020611493833981519152604482015290519081900360640190fd5b600160a060020a038416600090815260056020908152604091829020600190810180548451600293821615610100026000190190911692909204601f810184900484028301840190945283825290929091830182828015610d415780601f10610d1657610100808354040283529160200191610d41565b820191906000526020600020905b815481529060010190602001808311610d2457829003601f168201915b505050505092505050919050565b600160a060020a038316600090815260056020526040902080548491904210610dc2576040805160e560020a62461bcd02815260206004820152601060248201527f4b6579206973206e6f742076616c696400000000000000000000000000000000604482015290519081900360640190fd5b610dfd868686868080601f01602080910402602001604051908101604052809392919081815260200183838082843750610ec2945050505050565b505050505050565b600054600160a060020a03163314610e1c57600080fd5b600160a060020a0381161515610e3157600080fd5b60008054604051600160a060020a03808516939216917f8be0079c531659141344cd1fd0a4f28419497f9722a3daafe3b4186f6b6457e091a36000805473ffffffffffffffffffffffffffffffffffffffff1916600160a060020a0392909216919091179055565b600160a060020a0380821660009081526007602052604081205490911680151561040a57600080fd5b6000806000806000600680549050600454111515610f50576040805160e560020a62461bcd02815260206004820152602360248201527f4d6178696d756d206e756d626572206f66206b65797320616c7265616479207360448201527f6f6c640000000000000000000000000000000000000000000000000000000000606482015290519081900360840190fd5b87600060015460a060020a900460ff166002811115610f6b57fe5b1480610fb157506001805460a060020a900460ff166002811115610f8b57fe5b148015610fb15750600160a060020a038116610fa681610e99565b600160a060020a0316145b151561102d576040805160e560020a62461bcd02815260206004820152603960248201527f4f6e6c79207075626c6963206c6f636b73206f7220726573747269636564207760448201527f69746820616e20617070726f76656420726563697069656e7400000000000000606482015290519081900360840190fd5b600160a060020a038916151561104257600080fd5b600154600354604080517f0cb175e3000000000000000000000000000000000000000000000000000000008152600160a060020a038d81166004830152602482019390935281519290931698508892630cb175e392604480830193928290030181600087803b1580156110b457600080fd5b505af11580156110c8573d6000803e3d6000fd5b505050506040513d60408110156110de57600080fd5b5080516020909101516003549196509450925082851115611102576000925061110a565b846003540392505b34831115611162576040805160e560020a62461bcd02815260206004820152601260248201527f496e73756666696369656e742066756e64730000000000000000000000000000604482015290519081900360640190fd5b600160a060020a0389166000908152600560205260409020549150428210156111f85760068054600181019091557ff652222313e28459528d920b65115c16c04f3efc82aaedc97be59f3f377c0d3f01805473ffffffffffffffffffffffffffffffffffffffff1916600160a060020a038b16908117909155600254600091825260056020526040909120429091019055611219565b600254600160a060020a038a16600090815260056020526040902090830190555b600160a060020a03891660009081526005602090815260409091208851611248926001909201918a019061140a565b5060008511156112bc5785600160a060020a0316633652466386866040518363ffffffff1660e060020a0281526004018083815260200182815260200192505050600060405180830381600087803b1580156112a357600080fd5b505af11580156112b7573d6000803e3d6000fd5b505050505b85600160a060020a031663939d9f1f848a6040518363ffffffff1660e060020a0281526004018083815260200182600160a060020a0316600160a060020a0316815260200192505050600060405180830381600087803b15801561131f57600080fd5b505af1158015611333573d6000803e3d6000fd5b505060408051600160a060020a038d168082529151919350600092507fddf252ad1be2c89b69c2b068fc378daa952ba7f163c4a11628f55a4df523b3ef919081900360200190a3505050505050505050565b828054600181600116156101000203166002900490600052602060002090601f016020900481019282601f106113be57805485556113fa565b828001600101855582156113fa57600052602060002091601f016020900482015b828111156113fa5782548255916001019190600101906113df565b50611406929150611478565b5090565b828054600181600116156101000203166002900490600052602060002090601f016020900481019282601f1061144b57805160ff19168380011785556113fa565b828001600101855582156113fa579182015b828111156113fa57825182559160200191906001019061145d565b6109bf91905b80821115611406576000815560010161147e56004e6f2073756368206b6579000000000000000000000000000000000000000000a165627a7a72305820fa1f9650feee835a92f092e456138796a139c8499a38d1ca1534c1278d31caa20029696e697469616c697a6564000000000000000000000000000000000000000000a165627a7a72305820820b75b8f6b7438b9adcfbb2f92c6f178db80d064b4503d5fd0b1b0f2dc6384b0029",
  "source": "pragma solidity 0.4.24;\r\n\r\n/**\r\n * @title The Unlock contract\r\n * @author Julien Genestoux (unlock-protocol.com)\r\n * This smart contract has 2 main roles:\r\n *  1. Distribute discounts to discount token holders\r\n *  2. Grant dicount tokens to users making referrals and/or publishers granting discounts.\r\n * In order to achieve these 2 elements, it keeps track of several things such as\r\n *  a. Deployed locks addresses and balances of discount tokens granted by each lock.\r\n *  b. The total network product (sum of all key sales, net of discounts)\r\n *  c. Total of discounts granted\r\n *  d. Balances of discount tokens, including \"frozen\" tokens (which have been used to claim\r\n * discounts and cannot be used/transfered for a given period)\r\n *  e. Growth rate of Network Product\r\n *  f. Growth rate of Discount tokens supply\r\n * The smart contract has an owner who only can perform the following\r\n *  - Upgrades\r\n *  - Change in golden rules (20% of GDP available in discounts, and supply growth rate is at most\r\n * 50% of GNP growth rate)\r\n * NOTE: This smart contract is partially implemented for now until enough Locks are deployed and\r\n * in the wild.\r\n * The partial implementation includes the following features:\r\n *  a. Keeping track of deployed locks\r\n *  b. Keeping track of GNP\r\n */\r\n\r\nimport \"openzeppelin-solidity/contracts/ownership/Ownable.sol\";\r\nimport \"./Lock.sol\";\r\nimport \"zos-lib/contracts/migrations/Migratable.sol\";\r\n\r\ncontract Unlock is Ownable, Migratable {\r\n\r\n  /**\r\n   * The struct for a lock\r\n   * We use deployed to keep track of deployments.\r\n   * This is required because both totalSales and yieldedDiscountTokens are 0 when initialized,\r\n   * which would be the same values when the lock is not set.\r\n   */\r\n  struct LockBalances {\r\n    bool deployed;\r\n    uint totalSales; // This is in wei\r\n    uint yieldedDiscountTokens;\r\n  }\r\n\r\n  modifier onlyFromDeployedLock() {\r\n    require(locks[msg.sender].deployed, \"Only from previously deployed locks\");\r\n    _;\r\n  }\r\n\r\n  uint public grossNetworkProduct;\r\n\r\n  uint public totalDiscountGranted;\r\n\r\n  // We keep track of deployed locks to ensure that callers are all deployed locks.\r\n  mapping (address => LockBalances) public locks;\r\n\r\n  // Events\r\n  event NewLock(\r\n    address indexed lockOwner,\r\n    address indexed newLockAddress\r\n  );\r\n\r\n  function initialize(\r\n    address _owner\r\n  )\r\n    isInitializer(\"Unlock\", \"0\")\r\n    public {\r\n      owner = _owner;\r\n      grossNetworkProduct = 0;\r\n      totalDiscountGranted = 0;\r\n    }\r\n\r\n  /**\r\n  * @dev Create lock\r\n  * This deploys a lock for a creator. It also keeps track of the deployed lock.\r\n  */\r\n  function createLock(\r\n    Lock.KeyReleaseMechanisms _keyReleaseMechanism,\r\n    uint _expirationDuration,\r\n    uint _keyPrice,\r\n    uint _maxNumberOfKeys\r\n  )\r\n    public\r\n    returns (Lock lock)\r\n  {\r\n\r\n    // create lock\r\n    Lock newLock = new Lock(\r\n      msg.sender,\r\n      _keyReleaseMechanism,\r\n      _expirationDuration,\r\n      _keyPrice,\r\n      _maxNumberOfKeys\r\n    );\r\n\r\n    // Assign the new Lock\r\n    locks[address(newLock)] = LockBalances({\r\n      deployed: true,\r\n      totalSales: 0,\r\n      yieldedDiscountTokens: 0\r\n    });\r\n\r\n    // trigger event\r\n    emit NewLock(msg.sender, address(newLock));\r\n\r\n    // return the created lock\r\n    return newLock;\r\n  }\r\n\r\n  /**\r\n   * This function returns the discount available for a user, when purchasing a\r\n   * a key from a lock.\r\n   * This does not modify the state. It returns both the discount and the number of tokens\r\n   * consumed to grant that discount.\r\n   * TODO: actually implement this.\r\n   */\r\n  function computeAvailableDiscountFor(\r\n    address _purchaser, // solhint-disable-line no-unused-vars\r\n    uint _keyPrice // solhint-disable-line no-unused-vars\r\n  )\r\n    public\r\n    pure\r\n    returns (uint discount, uint tokens)\r\n  {\r\n    // TODO: implement me\r\n    return (0, 0);\r\n  }\r\n\r\n  /**\r\n   * This function keeps track of the added GDP, as well as grants of discount tokens\r\n   * to the referrer, if applicable.\r\n   * The number of discount tokens granted is based on the value of the referal,\r\n   * the current growth rate and the lock's discount token distribution rate\r\n   * This function is invoked by a previously deployed lock only.\r\n   * TODO: actually implement\r\n   */\r\n  function recordKeyPurchase(\r\n    uint _value,\r\n    address _referrer // solhint-disable-line no-unused-vars\r\n  )\r\n    public\r\n    onlyFromDeployedLock()\r\n  {\r\n    // TODO: implement me\r\n    grossNetworkProduct += _value;\r\n    return;\r\n  }\r\n\r\n  /**\r\n   * This function will keep track of consumed discounts by a given user.\r\n   * It will also grant discount tokens to the creator who is granting the discount based on the\r\n   * amount of discount and compensation rate.\r\n   * This function is invoked by a previously deployed lock only.\r\n   */\r\n  function recordConsumedDiscount(\r\n    uint _discount,\r\n    uint _tokens // solhint-disable-line no-unused-vars\r\n  )\r\n    public\r\n    onlyFromDeployedLock()\r\n  {\r\n    // TODO: implement me\r\n    totalDiscountGranted += _discount;\r\n    return;\r\n  }\r\n\r\n}\r\n",
  "sourcePath": "E:\\unlock\\smart-contracts\\contracts\\Unlock.sol",
  "compiler": {
    "name": "solc",
    "version": "0.4.24+commit.e67f0147.Emscripten.clang"
  },
  "schemaVersion": "2.0.1",
  "updatedAt": "2018-08-22T03:18:59.861Z"
}