{
  "contractName": "UnlockTestV3",
  "abi": [
    {
      "constant": true,
      "inputs": [
        {
          "name": "",
          "type": "address"
        }
      ],
      "name": "locks",
      "outputs": [
        {
          "name": "deployed",
          "type": "bool"
        },
        {
          "name": "totalSales",
          "type": "uint256"
        },
        {
          "name": "yieldedDiscountTokens",
          "type": "uint256"
        }
      ],
      "payable": false,
      "stateMutability": "view",
      "type": "function"
    },
    {
      "constant": false,
      "inputs": [],
      "name": "renounceOwnership",
      "outputs": [],
      "payable": false,
      "stateMutability": "nonpayable",
      "type": "function"
    },
    {
      "constant": true,
      "inputs": [],
      "name": "owner",
      "outputs": [
        {
          "name": "",
          "type": "address"
        }
      ],
      "payable": false,
      "stateMutability": "view",
      "type": "function"
    },
    {
      "constant": true,
      "inputs": [],
      "name": "totalDiscountGranted",
      "outputs": [
        {
          "name": "",
          "type": "uint256"
        }
      ],
      "payable": false,
      "stateMutability": "view",
      "type": "function"
    },
    {
      "constant": true,
      "inputs": [],
      "name": "exampleData",
      "outputs": [
        {
          "name": "",
          "type": "uint256"
        }
      ],
      "payable": false,
      "stateMutability": "view",
      "type": "function"
    },
    {
      "constant": true,
      "inputs": [],
      "name": "grossNetworkProduct",
      "outputs": [
        {
          "name": "",
          "type": "uint256"
        }
      ],
      "payable": false,
      "stateMutability": "view",
      "type": "function"
    },
    {
      "constant": false,
      "inputs": [
        {
          "name": "_newOwner",
          "type": "address"
        }
      ],
      "name": "transferOwnership",
      "outputs": [],
      "payable": false,
      "stateMutability": "nonpayable",
      "type": "function"
    },
    {
      "anonymous": false,
      "inputs": [
        {
          "indexed": true,
          "name": "lockOwner",
          "type": "address"
        },
        {
          "indexed": true,
          "name": "newLockAddress",
          "type": "address"
        }
      ],
      "name": "NewLock",
      "type": "event"
    },
    {
      "anonymous": false,
      "inputs": [
        {
          "indexed": true,
          "name": "previousOwner",
          "type": "address"
        }
      ],
      "name": "OwnershipRenounced",
      "type": "event"
    },
    {
      "anonymous": false,
      "inputs": [
        {
          "indexed": true,
          "name": "previousOwner",
          "type": "address"
        },
        {
          "indexed": true,
          "name": "newOwner",
          "type": "address"
        }
      ],
      "name": "OwnershipTransferred",
      "type": "event"
    },
    {
      "constant": false,
      "inputs": [
        {
          "name": "_owner",
          "type": "address"
        }
      ],
      "name": "initialize",
      "outputs": [],
      "payable": false,
      "stateMutability": "nonpayable",
      "type": "function"
    },
    {
      "constant": false,
      "inputs": [],
      "name": "initializeV3",
      "outputs": [],
      "payable": false,
      "stateMutability": "nonpayable",
      "type": "function"
    },
    {
      "constant": true,
      "inputs": [],
      "name": "testNewMethod",
      "outputs": [
        {
          "name": "sum",
          "type": "uint256"
        }
      ],
      "payable": false,
      "stateMutability": "view",
      "type": "function"
    },
    {
      "constant": false,
      "inputs": [
        {
          "name": "_discount",
          "type": "uint256"
        }
      ],
      "name": "recordConsumedDiscount",
      "outputs": [],
      "payable": false,
      "stateMutability": "nonpayable",
      "type": "function"
    }
  ],
  "bytecode": "0x608060405260008054600160a060020a0319163317905561041d806100256000396000f3006080604052600436106100ae5763ffffffff7c010000000000000000000000000000000000000000000000000000000060003504166338e454b181146100b35780635de9a137146100ca5780635ee42e4e1461010b578063715018a6146101325780637e1d1b49146101475780638da5cb5b1461015f578063a082eb0e14610190578063c4d66de8146101a5578063cbd17ec1146101c6578063d6e9e803146101db578063f2fde38b146101f0575b600080fd5b3480156100bf57600080fd5b506100c8610211565b005b3480156100d657600080fd5b506100eb600160a060020a036004351661023c565b604080519315158452602084019290925282820152519081900360600190f35b34801561011757600080fd5b50610120610261565b60408051918252519081900360200190f35b34801561013e57600080fd5b506100c861026f565b34801561015357600080fd5b506100c86004356102db565b34801561016b57600080fd5b506101746102e7565b60408051600160a060020a039092168252519081900360200190f35b34801561019c57600080fd5b506101206102f6565b3480156101b157600080fd5b506100c8600160a060020a03600435166102fc565b3480156101d257600080fd5b5061012061034d565b3480156101e757600080fd5b50610120610353565b3480156101fc57600080fd5b506100c8600160a060020a0360043516610359565b600454610100900460ff161561022657600080fd5b602a6005556004805461ff001916610100179055565b60036020526000908152604090208054600182015460029092015460ff909116919083565b600554600254600154010190565b600054600160a060020a0316331461028657600080fd5b60008054604051600160a060020a03909116917ff8df31144d9c2f0f6b59d69b8b98abd5459d07f2742c4df920b25aae33c6482091a26000805473ffffffffffffffffffffffffffffffffffffffff19169055565b60028054820190555b50565b600054600160a060020a031681565b60025481565b60045460ff161561030c57600080fd5b6000805473ffffffffffffffffffffffffffffffffffffffff1916600160a060020a0392909216919091179055602a6005556004805460ff19166001179055565b60055481565b60015481565b600054600160a060020a0316331461037057600080fd5b6102e481600160a060020a038116151561038957600080fd5b60008054604051600160a060020a03808516939216917f8be0079c531659141344cd1fd0a4f28419497f9722a3daafe3b4186f6b6457e091a36000805473ffffffffffffffffffffffffffffffffffffffff1916600160a060020a03929092169190911790555600a165627a7a7230582076a11690def3e3e1c4541b456da5894ec569462ec816d5dcda2172ab566585630029",
  "source": "pragma solidity 0.4.24;\n\n/**\n * @title Example upgrade of the Unlock contract\n * @author Julien Genestoux (unlock-protocol.com)\n * @author HardlyDifficult\n *\n * This is a copy paste of the current Unlock contract, with comments removed.\n * Then a few small changes have been made, higlighted with comments.\n */\n\nimport \"openzeppelin-solidity/contracts/ownership/Ownable.sol\";\nimport \"./PublicLock.sol\";\n\n\ncontract UnlockTestV3 is Ownable {\n\n  struct LockBalances {\n    bool deployed;\n    uint totalSales;\n    uint yieldedDiscountTokens;\n  }\n\n  modifier onlyFromDeployedLock() {\n    require(locks[msg.sender].deployed, \"Only from previously deployed locks\");\n    _;\n  }\n\n  uint public grossNetworkProduct;\n\n  uint public totalDiscountGranted;\n\n  mapping (address => LockBalances) public locks;\n\n  event NewLock(\n    address indexed lockOwner,\n    address indexed newLockAddress\n  );\n\n  bool internal initialized;\n\n  // Example new data (which must come after the original data)\n  bool internal initializedV3;\n  uint public exampleData;\n\n  function initialize(\n    address _owner\n  )\n    public\n  {\n    require(!initialized);\n    owner = _owner;\n    exampleData = 42;\n    initialized = true;\n  }\n\n  // Adding a second initialize for the new data as 'initialized' is already true when v3 is deployed.\n  function initializeV3()\n    public\n  {\n    require(!initializedV3);\n    exampleData = 42;\n    initializedV3 = true;\n  }\n\n  // Removed most existing methods\n  // Example new method\n  function testNewMethod()\n    public\n    view\n    returns (uint sum)\n  {\n    return grossNetworkProduct + totalDiscountGranted + exampleData;\n  }\n\n  // Changing the method signature and removing modifier\n  function recordConsumedDiscount(\n    uint _discount\n  )\n    public\n  {\n    totalDiscountGranted += _discount;\n    return;\n  }\n\n}\n",
  "sourcePath": "/Users/julien/repos/unlock/smart-contracts/contracts/UnlockTestV3.sol",
  "compiler": {
    "name": "solc",
    "version": "0.4.24+commit.e67f0147.Emscripten.clang"
  },
  "schemaVersion": "2.0.1",
  "updatedAt": "2018-11-15T12:37:07.814Z"
}