{
  "contractName": "UnlockTestV3",
  "abi": [
    {
      "constant": true,
      "inputs": [
        {
          "name": "",
          "type": "address"
        }
      ],
      "name": "locks",
      "outputs": [
        {
          "name": "deployed",
          "type": "bool"
        },
        {
          "name": "totalSales",
          "type": "uint256"
        },
        {
          "name": "yieldedDiscountTokens",
          "type": "uint256"
        }
      ],
      "payable": false,
      "stateMutability": "view",
      "type": "function"
    },
    {
      "constant": false,
      "inputs": [],
      "name": "renounceOwnership",
      "outputs": [],
      "payable": false,
      "stateMutability": "nonpayable",
      "type": "function"
    },
    {
      "constant": true,
      "inputs": [],
      "name": "owner",
      "outputs": [
        {
          "name": "",
          "type": "address"
        }
      ],
      "payable": false,
      "stateMutability": "view",
      "type": "function"
    },
    {
      "constant": true,
      "inputs": [],
      "name": "isOwner",
      "outputs": [
        {
          "name": "",
          "type": "bool"
        }
      ],
      "payable": false,
      "stateMutability": "view",
      "type": "function"
    },
    {
      "constant": true,
      "inputs": [],
      "name": "totalDiscountGranted",
      "outputs": [
        {
          "name": "",
          "type": "uint256"
        }
      ],
      "payable": false,
      "stateMutability": "view",
      "type": "function"
    },
    {
      "constant": true,
      "inputs": [],
      "name": "exampleData",
      "outputs": [
        {
          "name": "",
          "type": "uint256"
        }
      ],
      "payable": false,
      "stateMutability": "view",
      "type": "function"
    },
    {
      "constant": true,
      "inputs": [],
      "name": "grossNetworkProduct",
      "outputs": [
        {
          "name": "",
          "type": "uint256"
        }
      ],
      "payable": false,
      "stateMutability": "view",
      "type": "function"
    },
    {
      "constant": false,
      "inputs": [
        {
          "name": "newOwner",
          "type": "address"
        }
      ],
      "name": "transferOwnership",
      "outputs": [],
      "payable": false,
      "stateMutability": "nonpayable",
      "type": "function"
    },
    {
      "anonymous": false,
      "inputs": [
        {
          "indexed": true,
          "name": "lockOwner",
          "type": "address"
        },
        {
          "indexed": true,
          "name": "newLockAddress",
          "type": "address"
        }
      ],
      "name": "NewLock",
      "type": "event"
    },
    {
      "anonymous": false,
      "inputs": [
        {
          "indexed": true,
          "name": "previousOwner",
          "type": "address"
        },
        {
          "indexed": true,
          "name": "newOwner",
          "type": "address"
        }
      ],
      "name": "OwnershipTransferred",
      "type": "event"
    },
    {
      "constant": false,
      "inputs": [
        {
          "name": "_owner",
          "type": "address"
        }
      ],
      "name": "initialize",
      "outputs": [],
      "payable": false,
      "stateMutability": "nonpayable",
      "type": "function"
    },
    {
      "constant": false,
      "inputs": [],
      "name": "initializeV3",
      "outputs": [],
      "payable": false,
      "stateMutability": "nonpayable",
      "type": "function"
    },
    {
      "constant": true,
      "inputs": [],
      "name": "testNewMethod",
      "outputs": [
        {
          "name": "sum",
          "type": "uint256"
        }
      ],
      "payable": false,
      "stateMutability": "view",
      "type": "function"
    },
    {
      "constant": false,
      "inputs": [
        {
          "name": "_discount",
          "type": "uint256"
        }
      ],
      "name": "recordConsumedDiscount",
      "outputs": [],
      "payable": false,
      "stateMutability": "nonpayable",
      "type": "function"
    }
  ],
  "bytecode": "0x6080604081905260008054600160a060020a0319163317808255600160a060020a0316917f8be0079c531659141344cd1fd0a4f28419497f9722a3daafe3b4186f6b6457e0908290a3610430806100576000396000f3006080604052600436106100b95763ffffffff7c010000000000000000000000000000000000000000000000000000000060003504166338e454b181146100be5780635de9a137146100d55780635ee42e4e14610116578063715018a61461013d5780637e1d1b49146101525780638da5cb5b1461016a5780638f32d59b1461019b578063a082eb0e146101c4578063c4d66de8146101d9578063cbd17ec1146101fa578063d6e9e8031461020f578063f2fde38b14610224575b600080fd5b3480156100ca57600080fd5b506100d3610245565b005b3480156100e157600080fd5b506100f6600160a060020a0360043516610270565b604080519315158452602084019290925282820152519081900360600190f35b34801561012257600080fd5b5061012b610295565b60408051918252519081900360200190f35b34801561014957600080fd5b506100d36102a3565b34801561015e57600080fd5b506100d360043561030d565b34801561017657600080fd5b5061017f610319565b60408051600160a060020a039092168252519081900360200190f35b3480156101a757600080fd5b506101b0610328565b604080519115158252519081900360200190f35b3480156101d057600080fd5b5061012b610339565b3480156101e557600080fd5b506100d3600160a060020a036004351661033f565b34801561020657600080fd5b5061012b610364565b34801561021b57600080fd5b5061012b61036a565b34801561023057600080fd5b506100d3600160a060020a0360043516610370565b600454610100900460ff161561025a57600080fd5b602a6005556004805461ff001916610100179055565b60036020526000908152604090208054600182015460029092015460ff909116919083565b600554600254600154010190565b6102ab610328565b15156102b657600080fd5b60008054604051600160a060020a03909116907f8be0079c531659141344cd1fd0a4f28419497f9722a3daafe3b4186f6b6457e0908390a36000805473ffffffffffffffffffffffffffffffffffffffff19169055565b60028054820190555b50565b600054600160a060020a031690565b600054600160a060020a0316331490565b60025481565b60045460ff161561034f57600080fd5b50602a6005556004805460ff19166001179055565b60055481565b60015481565b610378610328565b151561038357600080fd5b61031681600160a060020a038116151561039c57600080fd5b60008054604051600160a060020a03808516939216917f8be0079c531659141344cd1fd0a4f28419497f9722a3daafe3b4186f6b6457e091a36000805473ffffffffffffffffffffffffffffffffffffffff1916600160a060020a03929092169190911790555600a165627a7a7230582074d556344d63cfff3a96aaf14884d1ce4a316e442be94454d2b468ebf219e65e0029",
  "source": "pragma solidity 0.4.24;\n\n/**\n * @title Example upgrade of the Unlock contract\n * @author Julien Genestoux (unlock-protocol.com)\n * @author HardlyDifficult\n *\n * This is a copy paste of the current Unlock contract, with comments removed.\n * Then a few small changes have been made, higlighted with comments.\n */\n\nimport \"openzeppelin-solidity/contracts/ownership/Ownable.sol\";\nimport \"./PublicLock.sol\";\n\n\ncontract UnlockTestV3 is Ownable {\n\n  struct LockBalances {\n    bool deployed;\n    uint totalSales;\n    uint yieldedDiscountTokens;\n  }\n\n  modifier onlyFromDeployedLock() {\n    require(locks[msg.sender].deployed, \"Only from previously deployed locks\");\n    _;\n  }\n\n  uint public grossNetworkProduct;\n\n  uint public totalDiscountGranted;\n\n  mapping (address => LockBalances) public locks;\n\n  event NewLock(\n    address indexed lockOwner,\n    address indexed newLockAddress\n  );\n\n  bool internal initialized;\n\n  // Example new data (which must come after the original data)\n  bool internal initializedV3;\n  uint public exampleData;\n\n  function initialize(\n    address _owner\n  )\n    public\n  {\n    require(!initialized);\n    exampleData = 42;\n    initialized = true;\n  }\n\n  // Adding a second initialize for the new data as 'initialized' is already true when v3 is deployed.\n  function initializeV3()\n    public\n  {\n    require(!initializedV3);\n    exampleData = 42;\n    initializedV3 = true;\n  }\n\n  // Removed most existing methods\n  // Example new method\n  function testNewMethod()\n    public\n    view\n    returns (uint sum)\n  {\n    return grossNetworkProduct + totalDiscountGranted + exampleData;\n  }\n\n  // Changing the method signature and removing modifier\n  function recordConsumedDiscount(\n    uint _discount\n  )\n    public\n  {\n    totalDiscountGranted += _discount;\n    return;\n  }\n\n}\n",
  "sourcePath": "/Users/julien/repos/unlock/smart-contracts/contracts/UnlockTestV3.sol",
  "compiler": {
    "name": "solc",
    "version": "0.4.24+commit.e67f0147.Emscripten.clang"
  },
  "schemaVersion": "2.0.1",
  "updatedAt": "2018-12-05T20:45:56.360Z"
}