{
  "contractName": "Unlock",
  "abi": [
    {
      "constant": true,
      "inputs": [
        {
          "name": "",
          "type": "address"
        }
      ],
      "name": "locks",
      "outputs": [
        {
          "name": "deployed",
          "type": "bool"
        },
        {
          "name": "totalSales",
          "type": "uint256"
        },
        {
          "name": "yieldedDiscountTokens",
          "type": "uint256"
        }
      ],
      "payable": false,
      "stateMutability": "view",
      "type": "function"
    },
    {
      "constant": false,
      "inputs": [],
      "name": "renounceOwnership",
      "outputs": [],
      "payable": false,
      "stateMutability": "nonpayable",
      "type": "function"
    },
    {
      "constant": true,
      "inputs": [],
      "name": "owner",
      "outputs": [
        {
          "name": "",
          "type": "address"
        }
      ],
      "payable": false,
      "stateMutability": "view",
      "type": "function"
    },
    {
      "constant": true,
      "inputs": [],
      "name": "isOwner",
      "outputs": [
        {
          "name": "",
          "type": "bool"
        }
      ],
      "payable": false,
      "stateMutability": "view",
      "type": "function"
    },
    {
      "constant": true,
      "inputs": [],
      "name": "totalDiscountGranted",
      "outputs": [
        {
          "name": "",
          "type": "uint256"
        }
      ],
      "payable": false,
      "stateMutability": "view",
      "type": "function"
    },
    {
      "constant": true,
      "inputs": [],
      "name": "grossNetworkProduct",
      "outputs": [
        {
          "name": "",
          "type": "uint256"
        }
      ],
      "payable": false,
      "stateMutability": "view",
      "type": "function"
    },
    {
      "constant": false,
      "inputs": [
        {
          "name": "newOwner",
          "type": "address"
        }
      ],
      "name": "transferOwnership",
      "outputs": [],
      "payable": false,
      "stateMutability": "nonpayable",
      "type": "function"
    },
    {
      "anonymous": false,
      "inputs": [
        {
          "indexed": true,
          "name": "lockOwner",
          "type": "address"
        },
        {
          "indexed": true,
          "name": "newLockAddress",
          "type": "address"
        }
      ],
      "name": "NewLock",
      "type": "event"
    },
    {
      "anonymous": false,
      "inputs": [
        {
          "indexed": true,
          "name": "previousOwner",
          "type": "address"
        },
        {
          "indexed": true,
          "name": "newOwner",
          "type": "address"
        }
      ],
      "name": "OwnershipTransferred",
      "type": "event"
    },
    {
      "constant": false,
      "inputs": [
        {
          "name": "_owner",
          "type": "address"
        }
      ],
      "name": "initialize",
      "outputs": [],
      "payable": false,
      "stateMutability": "nonpayable",
      "type": "function"
    },
    {
      "constant": false,
      "inputs": [
        {
          "name": "_expirationDuration",
          "type": "uint256"
        },
        {
          "name": "_keyPrice",
          "type": "uint256"
        },
        {
          "name": "_maxNumberOfKeys",
          "type": "uint256"
        }
      ],
      "name": "createLock",
      "outputs": [
        {
          "name": "lock",
          "type": "address"
        }
      ],
      "payable": false,
      "stateMutability": "nonpayable",
      "type": "function"
    },
    {
      "constant": true,
      "inputs": [
        {
          "name": "_purchaser",
          "type": "address"
        },
        {
          "name": "_keyPrice",
          "type": "uint256"
        }
      ],
      "name": "computeAvailableDiscountFor",
      "outputs": [
        {
          "name": "discount",
          "type": "uint256"
        },
        {
          "name": "tokens",
          "type": "uint256"
        }
      ],
      "payable": false,
      "stateMutability": "view",
      "type": "function"
    },
    {
      "constant": false,
      "inputs": [
        {
          "name": "_value",
          "type": "uint256"
        },
        {
          "name": "_referrer",
          "type": "address"
        }
      ],
      "name": "recordKeyPurchase",
      "outputs": [],
      "payable": false,
      "stateMutability": "nonpayable",
      "type": "function"
    },
    {
      "constant": false,
      "inputs": [
        {
          "name": "_discount",
          "type": "uint256"
        },
        {
          "name": "_tokens",
          "type": "uint256"
        }
      ],
      "name": "recordConsumedDiscount",
      "outputs": [],
      "payable": false,
      "stateMutability": "nonpayable",
      "type": "function"
    }
  ],
  "bytecode": "0x6080604081905260008054600160a060020a0319163317808255600160a060020a0316917f8be0079c531659141344cd1fd0a4f28419497f9722a3daafe3b4186f6b6457e0908290a3611d0a806100576000396000f3006080604052600436106100b95763ffffffff7c01000000000000000000000000000000000000000000000000000000006000350416630cb175e381146100be57806336524663146100fb5780635de9a13714610118578063715018a6146101595780638da5cb5b1461016e5780638f32d59b1461019f578063939d9f1f146101c8578063a082eb0e146101ec578063c4d66de814610213578063d6e9e80314610234578063f2fde38b14610249578063f8f7a9fa1461026a575b600080fd5b3480156100ca57600080fd5b506100e2600160a060020a0360043516602435610288565b6040805192835260208301919091528051918290030190f35b34801561010757600080fd5b50610116600435602435610291565b005b34801561012457600080fd5b50610139600160a060020a0360043516610343565b604080519315158452602084019290925282820152519081900360600190f35b34801561016557600080fd5b50610116610368565b34801561017a57600080fd5b506101836103d2565b60408051600160a060020a039092168252519081900360200190f35b3480156101ab57600080fd5b506101b46103e1565b604080519115158252519081900360200190f35b3480156101d457600080fd5b50610116600435600160a060020a03602435166103f2565b3480156101f857600080fd5b506102016104a4565b60408051918252519081900360200190f35b34801561021f57600080fd5b50610116600160a060020a03600435166104aa565b34801561024057600080fd5b50610201610658565b34801561025557600080fd5b50610116600160a060020a036004351661065e565b34801561027657600080fd5b5061018360043560243560443561067d565b50600091829150565b3360009081526035602052604090205460ff16151561033757604080517f08c379a000000000000000000000000000000000000000000000000000000000815260206004820152602360248201527f4f6e6c792066726f6d2070726576696f75736c79206465706c6f796564206c6f60448201527f636b730000000000000000000000000000000000000000000000000000000000606482015290519081900360840190fd5b60348054830190555050565b60356020526000908152604090208054600182015460029092015460ff909116919083565b6103706103e1565b151561037b57600080fd5b60008054604051600160a060020a03909116907f8be0079c531659141344cd1fd0a4f28419497f9722a3daafe3b4186f6b6457e0908390a36000805473ffffffffffffffffffffffffffffffffffffffff19169055565b600054600160a060020a031690565b600054600160a060020a0316331490565b3360009081526035602052604090205460ff16151561049857604080517f08c379a000000000000000000000000000000000000000000000000000000000815260206004820152602360248201527f4f6e6c792066726f6d2070726576696f75736c79206465706c6f796564206c6f60448201527f636b730000000000000000000000000000000000000000000000000000000000606482015290519081900360840190fd5b60338054830190555050565b60345481565b600080547501000000000000000000000000000000000000000000900460ff16806104d857506104d861075b565b806104fe575060005474010000000000000000000000000000000000000000900460ff16155b151561059157604080517f08c379a000000000000000000000000000000000000000000000000000000000815260206004820152602e60248201527f436f6e747261637420696e7374616e63652068617320616c726561647920626560448201527f656e20696e697469616c697a6564000000000000000000000000000000000000606482015290519081900360840190fd5b506000805474010000000000000000000000000000000000000000750100000000000000000000000000000000000000000075ff000000000000000000000000000000000000000000198316811774ff00000000000000000000000000000000000000001916919091179092550460ff1661060b8261065e565b600060338190556034819055805491151575010000000000000000000000000000000000000000000275ff0000000000000000000000000000000000000000001990921691909117905550565b60335481565b6106666103e1565b151561067157600080fd5b61067a81610761565b50565b6000803385858561068c6107de565b600160a060020a039094168452602084019290925260408084019190915260608301919091525190819003608001906000f0801580156106d0573d6000803e3d6000fd5b5060408051606081018252600180825260006020808401828152848601838152600160a060020a03881680855260359093528684209551865460ff191690151517865590519385019390935591516002909301929092559151929350909133917f01017ed19df0c7f8acc436147b234b09664a9fb4797b4fa3fb9e599c2eb67be791a3949350505050565b303b1590565b600160a060020a038116151561077657600080fd5b60008054604051600160a060020a03808516939216917f8be0079c531659141344cd1fd0a4f28419497f9722a3daafe3b4186f6b6457e091a36000805473ffffffffffffffffffffffffffffffffffffffff1916600160a060020a0392909216919091179055565b6040516114f0806107ef833901905600608060405234801561001057600080fd5b50604051608080620014f0833981016040818152825160208401519184015160609094015160008054600160a060020a0319163317808255929593949192600160a060020a031691600080516020620014d0833981519152908290a360018054600160a060020a03191633179055610090846401000000006100a2810204565b60029290925560035560045550610143565b6100b36401000000006100d3810204565b15156100be57600080fd5b6100d0816401000000006100e4810204565b50565b600054600160a060020a0316331490565b600160a060020a03811615156100f957600080fd5b60008054604051600160a060020a0380851693921691600080516020620014d083398151915291a360008054600160a060020a031916600160a060020a0392909216919091179055565b61137d80620001536000396000f30060806040526004361061010e5763ffffffff60e060020a600035041663025e7c278114610113578063081812fc14610147578063095ea7b31461015f5780630f15023b1461017857806310e569731461018d57806311a4c03a146101b45780631f1ec029146101c957806323b872dd146101e15780633ccfd60b146101fe57806347dc10851461021357806353b704d0146102285780636352211e1461024857806370a0823114610260578063715018a61461028157806374b6c106146102965780638da5cb5b146102ab5780638f32d59b146102c05780639f98d3cb146102e9578063abdf82ce1461030a578063d44fa14a1461032b578063d8125eb3146103c1578063f2fde38b146103e9575b600080fd5b34801561011f57600080fd5b5061012b60043561040a565b60408051600160a060020a039092168252519081900360200190f35b34801561015357600080fd5b5061012b600435610432565b610176600160a060020a0360043516602435610443565b005b34801561018457600080fd5b5061012b6104e2565b34801561019957600080fd5b506101a26104f1565b60408051918252519081900360200190f35b3480156101c057600080fd5b506101a26104f7565b3480156101d557600080fd5b506101766004356104fd565b610176600160a060020a0360043581169060243516604435610515565b34801561020a57600080fd5b50610176610808565b34801561021f57600080fd5b506101a26108c0565b61017660048035600160a060020a031690602480359081019101356108c7565b34801561025457600080fd5b5061012b600435610903565b34801561026c57600080fd5b506101a2600160a060020a036004351661096c565b34801561028d57600080fd5b50610176610a00565b3480156102a257600080fd5b506101a2610a6a565b3480156102b757600080fd5b5061012b610a70565b3480156102cc57600080fd5b506102d5610a7f565b604080519115158252519081900360200190f35b3480156102f557600080fd5b50610176600160a060020a0360043516610a90565b34801561031657600080fd5b506101a2600160a060020a0360043516610b34565b34801561033757600080fd5b5061034c600160a060020a0360043516610bb3565b6040805160208082528351818301528351919283929083019185019080838360005b8381101561038657818101518382015260200161036e565b50505050905090810190601f1680156103b35780820380516001836020036101000a031916815260200191505b509250505060405180910390f35b610176600160a060020a03600480358216916024803590911691604435918201910135610cc6565b3480156103f557600080fd5b50610176600160a060020a0360043516610d7c565b600680548290811061041857fe5b600091825260209091200154600160a060020a0316905081565b600061043d82610d9b565b92915050565b80600160a060020a038116331461045957600080fd5b600160a060020a038316151561046e57600080fd5b600160a060020a03828116600081815260076020908152604091829020805473ffffffffffffffffffffffffffffffffffffffff19169488169485179055815186815291517f8c5be1e5ebec7d5bd14f71427d1e84f3dd0314c0f7b2291e5b200ac8c7c3b9259281900390910190a3505050565b600154600160a060020a031681565b60035481565b60025481565b610505610a7f565b151561051057600080fd5b600355565b60065460045460009110610599576040805160e560020a62461bcd02815260206004820152602360248201527f4d6178696d756d206e756d626572206f66206b65797320616c7265616479207360448201527f6f6c640000000000000000000000000000000000000000000000000000000000606482015290519081900360840190fd5b600160a060020a038216600090815260056020526040812080548492106105f8576040805160e560020a62461bcd02815260206004820152600b6024820152600080516020611332833981519152604482015290519081900360640190fd5b83600160a060020a03811633148061062057503361061582610d9b565b600160a060020a0316145b1515610676576040805160e560020a62461bcd02815260206004820181905260248201527f4f6e6c79206b6579206f776e6572206f7220617070726f766564206f776e6572604482015290519081900360640190fd5b600160a060020a038616151561068b57600080fd5b600160a060020a038616600090815260056020526040902054935083151561070657600680546001810182556000919091527ff652222313e28459528d920b65115c16c04f3efc82aaedc97be59f3f377c0d3f01805473ffffffffffffffffffffffffffffffffffffffff1916600160a060020a0388161790555b42841161073557600160a060020a03808816600090815260056020526040808220549289168252902055610762565b600160a060020a038088166000908152600560205260408082205492891682529020429186019190910390555b600160a060020a0387811660009081526005602052604080822092891682529020600191820180546107a99392830192600290821615610100026000190190911604611224565b50600160a060020a0380881660008181526005602090815260409182902042905581518981529151938a16937fddf252ad1be2c89b69c2b068fc378daa952ba7f163c4a11628f55a4df523b3ef9281900390910190a350505050505050565b600080610813610a7f565b151561081e57600080fd5b303191506000821161087a576040805160e560020a62461bcd02815260206004820152601060248201527f4e6f7420656e6f7567682066756e647300000000000000000000000000000000604482015290519081900360640190fd5b610882610a70565b604051909150600160a060020a0382169083156108fc029084906000818181858888f193505050501580156108bb573d6000803e3d6000fd5b505050565b6006545b90565b6108bb83600084848080601f01602080910402602001604051908101604052809392919081815260200183838082843750610dc4945050505050565b600160a060020a038116600090815260056020526040812080548391908310610964576040805160e560020a62461bcd02815260206004820152600b6024820152600080516020611332833981519152604482015290519081900360640190fd5b509192915050565b600160a060020a0381166000908152600560205260408120805483919083106109cd576040805160e560020a62461bcd02815260206004820152600b6024820152600080516020611332833981519152604482015290519081900360640190fd5b600160a060020a038416600090815260056020526040812054116109f25760006109f5565b60015b60ff16949350505050565b610a08610a7f565b1515610a1357600080fd5b60008054604051600160a060020a03909116907f8be0079c531659141344cd1fd0a4f28419497f9722a3daafe3b4186f6b6457e0908390a36000805473ffffffffffffffffffffffffffffffffffffffff19169055565b60045481565b600054600160a060020a031690565b600054600160a060020a0316331490565b610a98610a7f565b1515610aa357600080fd5b600160a060020a038116600090815260056020526040902080548291904210610b16576040805160e560020a62461bcd02815260206004820152601060248201527f4b6579206973206e6f742076616c696400000000000000000000000000000000604482015290519081900360640190fd5b5050600160a060020a03166000908152600560205260409020429055565b600160a060020a038116600090815260056020526040812080548391908310610b95576040805160e560020a62461bcd02815260206004820152600b6024820152600080516020611332833981519152604482015290519081900360640190fd5b505050600160a060020a031660009081526005602052604090205490565b600160a060020a0381166000908152600560205260408120805460609284929111610c16576040805160e560020a62461bcd02815260206004820152600b6024820152600080516020611332833981519152604482015290519081900360640190fd5b600160a060020a038416600090815260056020908152604091829020600190810180548451600293821615610100026000190190911692909204601f810184900484028301840190945283825290929091830182828015610cb85780601f10610c8d57610100808354040283529160200191610cb8565b820191906000526020600020905b815481529060010190602001808311610c9b57829003601f168201915b505050505092505050919050565b600160a060020a038316600090815260056020526040902080548491904210610d39576040805160e560020a62461bcd02815260206004820152601060248201527f4b6579206973206e6f742076616c696400000000000000000000000000000000604482015290519081900360640190fd5b610d74868686868080601f01602080910402602001604051908101604052809392919081815260200183838082843750610dc4945050505050565b505050505050565b610d84610a7f565b1515610d8f57600080fd5b610d98816111a7565b50565b600160a060020a0380821660009081526007602052604081205490911680151561043d57600080fd5b600080600080600080600680549050600454111515610e53576040805160e560020a62461bcd02815260206004820152602360248201527f4d6178696d756d206e756d626572206f66206b65797320616c7265616479207360448201527f6f6c640000000000000000000000000000000000000000000000000000000000606482015290519081900360840190fd5b600160a060020a0389161515610e6857600080fd5b600154600354604080517f0cb175e3000000000000000000000000000000000000000000000000000000008152600160a060020a038d81166004830152602482018490528251941699509195508892630cb175e39260448082019392918290030181600087803b158015610edb57600080fd5b505af1158015610eef573d6000803e3d6000fd5b505050506040513d6040811015610f0557600080fd5b508051602090910151909550935082915081851115610f275760009150610f2d565b84830391505b34821115610f85576040805160e560020a62461bcd02815260206004820152601260248201527f496e73756666696369656e742066756e64730000000000000000000000000000604482015290519081900360640190fd5b50600160a060020a0388166000908152600560205260409020544281101561101a5760068054600181019091557ff652222313e28459528d920b65115c16c04f3efc82aaedc97be59f3f377c0d3f01805473ffffffffffffffffffffffffffffffffffffffff1916600160a060020a038b1690811790915560025460009182526005602052604090912042909101905561103b565b600254600160a060020a038a16600090815260056020526040902090820190555b600160a060020a0389166000908152600560209081526040909120885161106a926001909201918a01906112a9565b5060008511156110de5785600160a060020a0316633652466386866040518363ffffffff1660e060020a0281526004018083815260200182815260200192505050600060405180830381600087803b1580156110c557600080fd5b505af11580156110d9573d6000803e3d6000fd5b505050505b85600160a060020a031663939d9f1f838a6040518363ffffffff1660e060020a0281526004018083815260200182600160a060020a0316600160a060020a0316815260200192505050600060405180830381600087803b15801561114157600080fd5b505af1158015611155573d6000803e3d6000fd5b505060408051600160a060020a038d168082529151919350600092507fddf252ad1be2c89b69c2b068fc378daa952ba7f163c4a11628f55a4df523b3ef919081900360200190a3505050505050505050565b600160a060020a03811615156111bc57600080fd5b60008054604051600160a060020a03808516939216917f8be0079c531659141344cd1fd0a4f28419497f9722a3daafe3b4186f6b6457e091a36000805473ffffffffffffffffffffffffffffffffffffffff1916600160a060020a0392909216919091179055565b828054600181600116156101000203166002900490600052602060002090601f016020900481019282601f1061125d5780548555611299565b8280016001018555821561129957600052602060002091601f016020900482015b8281111561129957825482559160010191906001019061127e565b506112a5929150611317565b5090565b828054600181600116156101000203166002900490600052602060002090601f016020900481019282601f106112ea57805160ff1916838001178555611299565b82800160010185558215611299579182015b828111156112995782518255916020019190600101906112fc565b6108c491905b808211156112a5576000815560010161131d56004e6f2073756368206b6579000000000000000000000000000000000000000000a165627a7a723058204eb595ef264264160c9945e6879faea7ffd101d6b9204f4d0c4dbd677e59201b00298be0079c531659141344cd1fd0a4f28419497f9722a3daafe3b4186f6b6457e0a165627a7a72305820c58f65752bec6cee4b921f6aca227cc3d7a349cf25ffc91b360e6aedcd73d0140029",
  "source": "pragma solidity 0.4.24;\n\n/**\n * @title The Unlock contract\n * @author Julien Genestoux (unlock-protocol.com)\n * This smart contract has 3 main roles:\n *  1. Distribute discounts to discount token holders\n *  2. Grant dicount tokens to users making referrals and/or publishers granting discounts.\n *  3. Create & deploy Public Lock contracts.\n * In order to achieve these 3 elements, it keeps track of several things such as\n *  a. Deployed locks addresses and balances of discount tokens granted by each lock.\n *  b. The total network product (sum of all key sales, net of discounts)\n *  c. Total of discounts granted\n *  d. Balances of discount tokens, including \"frozen\" tokens (which have been used to claim\n * discounts and cannot be used/transfered for a given period)\n *  e. Growth rate of Network Product\n *  f. Growth rate of Discount tokens supply\n * The smart contract has an owner who only can perform the following\n *  - Upgrades\n *  - Change in golden rules (20% of GDP available in discounts, and supply growth rate is at most\n * 50% of GNP growth rate)\n * NOTE: This smart contract is partially implemented for now until enough Locks are deployed and\n * in the wild.\n * The partial implementation includes the following features:\n *  a. Keeping track of deployed locks\n *  b. Keeping track of GNP\n */\n\nimport \"openzeppelin-solidity/contracts/ownership/Ownable.sol\";\nimport \"zos-lib/contracts/Initializable.sol\";\nimport \"./PublicLock.sol\";\nimport \"./interfaces/IUnlock.sol\";\n\n\ncontract Unlock is IUnlock, Ownable, Initializable {\n\n  /**\n   * The struct for a lock\n   * We use deployed to keep track of deployments.\n   * This is required because both totalSales and yieldedDiscountTokens are 0 when initialized,\n   * which would be the same values when the lock is not set.\n   */\n  struct LockBalances {\n    bool deployed;\n    uint totalSales; // This is in wei\n    uint yieldedDiscountTokens;\n  }\n\n  modifier onlyFromDeployedLock() {\n    require(locks[msg.sender].deployed, \"Only from previously deployed locks\");\n    _;\n  }\n\n  uint public grossNetworkProduct;\n\n  uint public totalDiscountGranted;\n\n  // We keep track of deployed locks to ensure that callers are all deployed locks.\n  mapping (address => LockBalances) public locks;\n\n  // Events\n  event NewLock(\n    address indexed lockOwner,\n    address indexed newLockAddress\n  );\n\n  // Use initialize instead of a constructor to support proxies (for upgradeability via zos).\n  function initialize(\n    address _owner\n  )\n    public\n    initializer()\n  {\n    transferOwnership(_owner);\n    grossNetworkProduct = 0;\n    totalDiscountGranted = 0;\n  }\n\n  /**\n  * @dev Create lock\n  * This deploys a lock for a creator. It also keeps track of the deployed lock.\n  */\n  function createLock(\n    uint _expirationDuration,\n    uint _keyPrice,\n    uint _maxNumberOfKeys\n  )\n    public\n    returns (ILockCore lock)\n  {\n\n    // create lock\n    PublicLock newPublicLock = new PublicLock(\n      msg.sender,\n      _expirationDuration,\n      _keyPrice,\n      _maxNumberOfKeys\n    );\n\n    // Assign the new Lock\n    locks[address(newPublicLock)] = LockBalances({\n      deployed: true,\n      totalSales: 0,\n      yieldedDiscountTokens: 0\n    });\n\n    // trigger event\n    emit NewLock(msg.sender, address(newPublicLock));\n\n    // return the created lock\n    return newPublicLock;\n  }\n\n  /**\n   * This function returns the discount available for a user, when purchasing a\n   * a key from a lock.\n   * This does not modify the state. It returns both the discount and the number of tokens\n   * consumed to grant that discount.\n   * TODO: actually implement this.\n   */\n  function computeAvailableDiscountFor(\n    address _purchaser, // solhint-disable-line no-unused-vars\n    uint _keyPrice // solhint-disable-line no-unused-vars\n  )\n    public\n    view\n    returns (uint discount, uint tokens)\n  {\n    // TODO: implement me\n    return (0, 0);\n  }\n\n  /**\n   * This function keeps track of the added GDP, as well as grants of discount tokens\n   * to the referrer, if applicable.\n   * The number of discount tokens granted is based on the value of the referal,\n   * the current growth rate and the lock's discount token distribution rate\n   * This function is invoked by a previously deployed lock only.\n   * TODO: actually implement\n   */\n  function recordKeyPurchase(\n    uint _value,\n    address _referrer // solhint-disable-line no-unused-vars\n  )\n    public\n    onlyFromDeployedLock()\n  {\n    // TODO: implement me\n    grossNetworkProduct += _value;\n    return;\n  }\n\n  /**\n   * This function will keep track of consumed discounts by a given user.\n   * It will also grant discount tokens to the creator who is granting the discount based on the\n   * amount of discount and compensation rate.\n   * This function is invoked by a previously deployed lock only.\n   */\n  function recordConsumedDiscount(\n    uint _discount,\n    uint _tokens // solhint-disable-line no-unused-vars\n  )\n    public\n    onlyFromDeployedLock()\n  {\n    // TODO: implement me\n    totalDiscountGranted += _discount;\n    return;\n  }\n\n}\n",
  "sourcePath": "/Users/julien/repos/unlock/smart-contracts/contracts/Unlock.sol",
  "compiler": {
    "name": "solc",
    "version": "0.4.24+commit.e67f0147.Emscripten.clang"
  },
  "schemaVersion": "2.0.1",
  "updatedAt": "2018-12-05T20:45:56.357Z"
}