{
  "contractName": "Unlock",
  "abi": [
    {
      "constant": true,
      "inputs": [
        {
          "name": "",
          "type": "address"
        }
      ],
      "name": "locks",
      "outputs": [
        {
          "name": "deployed",
          "type": "bool"
        },
        {
          "name": "totalSales",
          "type": "uint256"
        },
        {
          "name": "yieldedDiscountTokens",
          "type": "uint256"
        }
      ],
      "payable": false,
      "stateMutability": "view",
      "type": "function"
    },
    {
      "constant": false,
      "inputs": [],
      "name": "renounceOwnership",
      "outputs": [],
      "payable": false,
      "stateMutability": "nonpayable",
      "type": "function"
    },
    {
      "constant": true,
      "inputs": [],
      "name": "owner",
      "outputs": [
        {
          "name": "",
          "type": "address"
        }
      ],
      "payable": false,
      "stateMutability": "view",
      "type": "function"
    },
    {
      "constant": true,
      "inputs": [],
      "name": "isOwner",
      "outputs": [
        {
          "name": "",
          "type": "bool"
        }
      ],
      "payable": false,
      "stateMutability": "view",
      "type": "function"
    },
    {
      "constant": true,
      "inputs": [],
      "name": "totalDiscountGranted",
      "outputs": [
        {
          "name": "",
          "type": "uint256"
        }
      ],
      "payable": false,
      "stateMutability": "view",
      "type": "function"
    },
    {
      "constant": true,
      "inputs": [],
      "name": "grossNetworkProduct",
      "outputs": [
        {
          "name": "",
          "type": "uint256"
        }
      ],
      "payable": false,
      "stateMutability": "view",
      "type": "function"
    },
    {
      "constant": false,
      "inputs": [
        {
          "name": "newOwner",
          "type": "address"
        }
      ],
      "name": "transferOwnership",
      "outputs": [],
      "payable": false,
      "stateMutability": "nonpayable",
      "type": "function"
    },
    {
      "anonymous": false,
      "inputs": [
        {
          "indexed": true,
          "name": "lockOwner",
          "type": "address"
        },
        {
          "indexed": true,
          "name": "newLockAddress",
          "type": "address"
        }
      ],
      "name": "NewLock",
      "type": "event"
    },
    {
      "anonymous": false,
      "inputs": [
        {
          "indexed": true,
          "name": "previousOwner",
          "type": "address"
        }
      ],
      "name": "OwnershipRenounced",
      "type": "event"
    },
    {
      "anonymous": false,
      "inputs": [
        {
          "indexed": true,
          "name": "previousOwner",
          "type": "address"
        },
        {
          "indexed": true,
          "name": "newOwner",
          "type": "address"
        }
      ],
      "name": "OwnershipTransferred",
      "type": "event"
    },
    {
      "constant": false,
      "inputs": [
        {
          "name": "_owner",
          "type": "address"
        }
      ],
      "name": "initialize",
      "outputs": [],
      "payable": false,
      "stateMutability": "nonpayable",
      "type": "function"
    },
    {
      "constant": false,
      "inputs": [
        {
          "name": "_expirationDuration",
          "type": "uint256"
        },
        {
          "name": "_keyPrice",
          "type": "uint256"
        },
        {
          "name": "_maxNumberOfKeys",
          "type": "uint256"
        }
      ],
      "name": "createLock",
      "outputs": [
        {
          "name": "lock",
          "type": "address"
        }
      ],
      "payable": false,
      "stateMutability": "nonpayable",
      "type": "function"
    },
    {
      "constant": true,
      "inputs": [
        {
          "name": "_purchaser",
          "type": "address"
        },
        {
          "name": "_keyPrice",
          "type": "uint256"
        }
      ],
      "name": "computeAvailableDiscountFor",
      "outputs": [
        {
          "name": "discount",
          "type": "uint256"
        },
        {
          "name": "tokens",
          "type": "uint256"
        }
      ],
      "payable": false,
      "stateMutability": "view",
      "type": "function"
    },
    {
      "constant": false,
      "inputs": [
        {
          "name": "_value",
          "type": "uint256"
        },
        {
          "name": "_referrer",
          "type": "address"
        }
      ],
      "name": "recordKeyPurchase",
      "outputs": [],
      "payable": false,
      "stateMutability": "nonpayable",
      "type": "function"
    },
    {
      "constant": false,
      "inputs": [
        {
          "name": "_discount",
          "type": "uint256"
        },
        {
          "name": "_tokens",
          "type": "uint256"
        }
      ],
      "name": "recordConsumedDiscount",
      "outputs": [],
      "payable": false,
      "stateMutability": "nonpayable",
      "type": "function"
    }
  ],
  "bytecode": "0x608060405234801561001057600080fd5b506121ce806100206000396000f3006080604052600436106100b95763ffffffff7c01000000000000000000000000000000000000000000000000000000006000350416630cb175e381146100be57806336524663146100fb5780635de9a13714610118578063715018a6146101595780638da5cb5b1461016e5780638f32d59b1461019f578063939d9f1f146101c8578063a082eb0e146101ec578063c4d66de814610213578063d6e9e80314610234578063f2fde38b14610249578063f8f7a9fa1461026a575b600080fd5b3480156100ca57600080fd5b506100e2600160a060020a0360043516602435610288565b6040805192835260208301919091528051918290030190f35b34801561010757600080fd5b50610116600435602435610291565b005b34801561012457600080fd5b50610139600160a060020a036004351661032c565b604080519315158452602084019290925282820152519081900360600190f35b34801561016557600080fd5b50610116610351565b34801561017a57600080fd5b506101836103bb565b60408051600160a060020a039092168252519081900360200190f35b3480156101ab57600080fd5b506101b46103ca565b604080519115158252519081900360200190f35b3480156101d457600080fd5b50610116600435600160a060020a03602435166103db565b3480156101f857600080fd5b50610201610476565b60408051918252519081900360200190f35b34801561021f57600080fd5b50610116600160a060020a036004351661047c565b34801561024057600080fd5b5061020161056f565b34801561025557600080fd5b50610116600160a060020a0360043516610575565b34801561027657600080fd5b50610183600435602435604435610594565b50600091829150565b3360009081526068602052604090205460ff161515610320576040805160e560020a62461bcd02815260206004820152602360248201527f4f6e6c792066726f6d2070726576696f75736c79206465706c6f796564206c6f60448201527f636b730000000000000000000000000000000000000000000000000000000000606482015290519081900360840190fd5b60678054830190555050565b60686020526000908152604090208054600182015460029092015460ff909116919083565b6103596103ca565b151561036457600080fd5b603354604051600160a060020a03909116907ff8df31144d9c2f0f6b59d69b8b98abd5459d07f2742c4df920b25aae33c6482090600090a26033805473ffffffffffffffffffffffffffffffffffffffff19169055565b603354600160a060020a031690565b603354600160a060020a0316331490565b3360009081526068602052604090205460ff16151561046a576040805160e560020a62461bcd02815260206004820152602360248201527f4f6e6c792066726f6d2070726576696f75736c79206465706c6f796564206c6f60448201527f636b730000000000000000000000000000000000000000000000000000000000606482015290519081900360840190fd5b60668054830190555050565b60675481565b60008054610100900460ff16806104965750610496610672565b806104a4575060005460ff16155b1515610520576040805160e560020a62461bcd02815260206004820152602e60248201527f436f6e747261637420696e7374616e63652068617320616c726561647920626560448201527f656e20696e697469616c697a6564000000000000000000000000000000000000606482015290519081900360840190fd5b5060008054600161010061ff00198316811760ff1916919091179092550460ff1661054a82610678565b60006066819055606781905580549115156101000261ff001990921691909117905550565b60665481565b61057d6103ca565b151561058857600080fd5b61059181610778565b50565b600080338585856105a36107f6565b600160a060020a039094168452602084019290925260408084019190915260608301919091525190819003608001906000f0801580156105e7573d6000803e3d6000fd5b5060408051606081018252600180825260006020808401828152848601838152600160a060020a03881680855260689093528684209551865460ff191690151517865590519385019390935591516002909301929092559151929350909133917f01017ed19df0c7f8acc436147b234b09664a9fb4797b4fa3fb9e599c2eb67be791a3949350505050565b303b1590565b60008054610100900460ff16806106925750610692610672565b806106a0575060005460ff16155b151561071c576040805160e560020a62461bcd02815260206004820152602e60248201527f436f6e747261637420696e7374616e63652068617320616c726561647920626560448201527f656e20696e697469616c697a6564000000000000000000000000000000000000606482015290519081900360840190fd5b50600080546033805473ffffffffffffffffffffffffffffffffffffffff1916600160a060020a03949094169390931790925561ff001980831661010090811760ff19166001179091169281900460ff16151502919091179055565b600160a060020a038116151561078d57600080fd5b603354604051600160a060020a038084169216907f8be0079c531659141344cd1fd0a4f28419497f9722a3daafe3b4186f6b6457e090600090a36033805473ffffffffffffffffffffffffffffffffffffffff1916600160a060020a0392909216919091179055565b60405161199b806200080883390190560060806040523480156200001157600080fd5b506040516080806200199b833981016040908152815160208301519183015160609093015160998054600160a060020a03191633179055909290620000648464010000000062000d396200008f82021704565b6200007c64010000000062000aee6200019682021704565b609a92909255609b55609c555062000330565b60008054610100900460ff1680620000b55750620000b5640100000000620002bd810204565b80620000c4575060005460ff16155b15156200014757604080517f08c379a000000000000000000000000000000000000000000000000000000000815260206004820152602e60248201526000805160206200197b83398151915260448201527f656e20696e697469616c697a6564000000000000000000000000000000000000606482015290519081900360840190fd5b506000805460668054600160a060020a031916600160a060020a03949094169390931790925561ff001980831661010090811760ff19166001179091169281900460ff16151502919091179055565b60008054610100900460ff1680620001bc5750620001bc640100000000620002bd810204565b80620001cb575060005460ff16155b15156200024e57604080517f08c379a000000000000000000000000000000000000000000000000000000000815260206004820152602e60248201526000805160206200197b83398151915260448201527f656e20696e697469616c697a6564000000000000000000000000000000000000606482015290519081900360840190fd5b5060008054600161010061ff00198316811760ff1916919091179092550460ff16620002a37f01ffc9a700000000000000000000000000000000000000000000000000000000640100000000620002c3810204565b600080549115156101000261ff0019909216919091179055565b303b1590565b7fffffffff000000000000000000000000000000000000000000000000000000008082161415620002f357600080fd5b7fffffffff00000000000000000000000000000000000000000000000000000000166000908152603360205260409020805460ff19166001179055565b61163b80620003406000396000f30060806040526004361061012f5763ffffffff60e060020a60003504166301ffc9a78114610134578063025e7c271461016a578063081812fc1461019e578063095ea7b3146101b65780630f15023b146101cf57806310e56973146101e457806311a4c03a1461020b5780631f1ec0291461022057806323b872dd146102385780633ccfd60b1461025557806347dc10851461026a57806353b704d01461027f5780636352211e1461029f57806370a08231146102b7578063715018a6146102d857806374b6c106146102ed5780638129fc1c146103025780638da5cb5b146103175780638f32d59b1461032c5780639f98d3cb14610341578063abdf82ce14610362578063c4d66de814610383578063d44fa14a146103a4578063d8125eb31461043a578063f2fde38b14610462575b600080fd5b34801561014057600080fd5b50610156600160e060020a031960043516610483565b604080519115158252519081900360200190f35b34801561017657600080fd5b506101826004356104a2565b60408051600160a060020a039092168252519081900360200190f35b3480156101aa57600080fd5b506101826004356104ca565b6101cd600160a060020a03600435166024356104db565b005b3480156101db57600080fd5b5061018261056e565b3480156101f057600080fd5b506101f961057d565b60408051918252519081900360200190f35b34801561021757600080fd5b506101f9610583565b34801561022c57600080fd5b506101cd600435610589565b6101cd600160a060020a03600435811690602435166044356105a1565b34801561026157600080fd5b506101cd610886565b34801561027657600080fd5b506101f961093e565b6101cd60048035600160a060020a03169060248035908101910135610945565b3480156102ab57600080fd5b50610182600435610981565b3480156102c357600080fd5b506101f9600160a060020a03600435166109ea565b3480156102e457600080fd5b506101cd610a7e565b3480156102f957600080fd5b506101f9610ae8565b34801561030e57600080fd5b506101cd610aee565b34801561032357600080fd5b50610182610bf6565b34801561033857600080fd5b50610156610c05565b34801561034d57600080fd5b506101cd600160a060020a0360043516610c16565b34801561036e57600080fd5b506101f9600160a060020a0360043516610cba565b34801561038f57600080fd5b506101cd600160a060020a0360043516610d39565b3480156103b057600080fd5b506103c5600160a060020a0360043516610e39565b6040805160208082528351818301528351919283929083019185019080838360005b838110156103ff5781810151838201526020016103e7565b50505050905090810190601f16801561042c5780820380516001836020036101000a031916815260200191505b509250505060405180910390f35b6101cd600160a060020a03600480358216916024803590911691604435918201910135610f4c565b34801561046e57600080fd5b506101cd600160a060020a0360043516611002565b600160e060020a03191660009081526033602052604090205460ff1690565b609e8054829081106104b057fe5b600091825260209091200154600160a060020a0316905081565b60006104d582611021565b92915050565b80600160a060020a03811633146104f157600080fd5b600160a060020a038316151561050657600080fd5b600160a060020a038281166000818152609f6020526040808220805473ffffffffffffffffffffffffffffffffffffffff1916948816948517905551859392917f8c5be1e5ebec7d5bd14f71427d1e84f3dd0314c0f7b2291e5b200ac8c7c3b92591a4505050565b609954600160a060020a031681565b609b5481565b609a5481565b610591610c05565b151561059c57600080fd5b609b55565b609e54609c5460009110610625576040805160e560020a62461bcd02815260206004820152602360248201527f4d6178696d756d206e756d626572206f66206b65797320616c7265616479207360448201527f6f6c640000000000000000000000000000000000000000000000000000000000606482015290519081900360840190fd5b600160a060020a0382166000908152609d602052604081208054849210610684576040805160e560020a62461bcd02815260206004820152600b60248201526000805160206115f0833981519152604482015290519081900360640190fd5b83600160a060020a0381163314806106ac5750336106a182611021565b600160a060020a0316145b1515610702576040805160e560020a62461bcd02815260206004820181905260248201527f4f6e6c79206b6579206f776e6572206f7220617070726f766564206f776e6572604482015290519081900360640190fd5b600160a060020a038616151561071757600080fd5b600160a060020a0386166000908152609d6020526040902054935083151561079257609e80546001810182556000919091527fcfe2a20ff701a1f3e14f63bd70d6c6bc6fba8172ec6d5a505cdab3927c0a9de601805473ffffffffffffffffffffffffffffffffffffffff1916600160a060020a0388161790555b4284116107c157600160a060020a038088166000908152609d60205260408082205492891682529020556107ee565b600160a060020a038088166000908152609d60205260408082205492891682529020429186019190910390555b600160a060020a038781166000908152609d6020526040808220928916825290206001918201805461083593928301926002908216156101000260001901909116046114e6565b50600160a060020a038088166000818152609d60205260408082204290555188938a1692917fddf252ad1be2c89b69c2b068fc378daa952ba7f163c4a11628f55a4df523b3ef91a450505050505050565b600080610891610c05565b151561089c57600080fd5b30319150600082116108f8576040805160e560020a62461bcd02815260206004820152601060248201527f4e6f7420656e6f7567682066756e647300000000000000000000000000000000604482015290519081900360640190fd5b610900610bf6565b604051909150600160a060020a0382169083156108fc029084906000818181858888f19350505050158015610939573d6000803e3d6000fd5b505050565b609e545b90565b61093983600084848080601f0160208091040260200160405190810160405280939291908181526020018383808284375061104a945050505050565b600160a060020a0381166000908152609d60205260408120805483919083106109e2576040805160e560020a62461bcd02815260206004820152600b60248201526000805160206115f0833981519152604482015290519081900360640190fd5b509192915050565b600160a060020a0381166000908152609d6020526040812080548391908310610a4b576040805160e560020a62461bcd02815260206004820152600b60248201526000805160206115f0833981519152604482015290519081900360640190fd5b600160a060020a0384166000908152609d602052604081205411610a70576000610a73565b60015b60ff16949350505050565b610a86610c05565b1515610a9157600080fd5b606654604051600160a060020a03909116907ff8df31144d9c2f0f6b59d69b8b98abd5459d07f2742c4df920b25aae33c6482090600090a26066805473ffffffffffffffffffffffffffffffffffffffff19169055565b609c5481565b60008054610100900460ff1680610b085750610b08611422565b80610b16575060005460ff16155b1515610b92576040805160e560020a62461bcd02815260206004820152602e60248201527f436f6e747261637420696e7374616e63652068617320616c726561647920626560448201527f656e20696e697469616c697a6564000000000000000000000000000000000000606482015290519081900360840190fd5b5060008054600161010061ff00198316811760ff1916919091179092550460ff16610bdc7f01ffc9a70000000000000000000000000000000000000000000000000000000061142c565b600080549115156101000261ff0019909216919091179055565b606654600160a060020a031690565b606654600160a060020a0316331490565b610c1e610c05565b1515610c2957600080fd5b600160a060020a0381166000908152609d6020526040902080548291904210610c9c576040805160e560020a62461bcd02815260206004820152601060248201527f4b6579206973206e6f742076616c696400000000000000000000000000000000604482015290519081900360640190fd5b5050600160a060020a03166000908152609d60205260409020429055565b600160a060020a0381166000908152609d6020526040812080548391908310610d1b576040805160e560020a62461bcd02815260206004820152600b60248201526000805160206115f0833981519152604482015290519081900360640190fd5b505050600160a060020a03166000908152609d602052604090205490565b60008054610100900460ff1680610d535750610d53611422565b80610d61575060005460ff16155b1515610ddd576040805160e560020a62461bcd02815260206004820152602e60248201527f436f6e747261637420696e7374616e63652068617320616c726561647920626560448201527f656e20696e697469616c697a6564000000000000000000000000000000000000606482015290519081900360840190fd5b50600080546066805473ffffffffffffffffffffffffffffffffffffffff1916600160a060020a03949094169390931790925561ff001980831661010090811760ff19166001179091169281900460ff16151502919091179055565b600160a060020a0381166000908152609d60205260408120805460609284929111610e9c576040805160e560020a62461bcd02815260206004820152600b60248201526000805160206115f0833981519152604482015290519081900360640190fd5b600160a060020a0384166000908152609d6020908152604091829020600190810180548451600293821615610100026000190190911692909204601f810184900484028301840190945283825290929091830182828015610f3e5780601f10610f1357610100808354040283529160200191610f3e565b820191906000526020600020905b815481529060010190602001808311610f2157829003601f168201915b505050505092505050919050565b600160a060020a0383166000908152609d6020526040902080548491904210610fbf576040805160e560020a62461bcd02815260206004820152601060248201527f4b6579206973206e6f742076616c696400000000000000000000000000000000604482015290519081900360640190fd5b610ffa868686868080601f0160208091040260200160405190810160405280939291908181526020018383808284375061104a945050505050565b505050505050565b61100a610c05565b151561101557600080fd5b61101e81611468565b50565b600160a060020a038082166000908152609f60205260408120549091168015156104d557600080fd5b600080600080600080609e80549050609c541115156110d9576040805160e560020a62461bcd02815260206004820152602360248201527f4d6178696d756d206e756d626572206f66206b65797320616c7265616479207360448201527f6f6c640000000000000000000000000000000000000000000000000000000000606482015290519081900360840190fd5b600160a060020a03891615156110ee57600080fd5b609954609b54604080517f0cb175e3000000000000000000000000000000000000000000000000000000008152600160a060020a038d81166004830152602482018490528251941699509195508892630cb175e39260448082019392918290030181600087803b15801561116157600080fd5b505af1158015611175573d6000803e3d6000fd5b505050506040513d604081101561118b57600080fd5b5080516020909101519095509350829150818511156111ad57600091506111b3565b84830391505b3482111561120b576040805160e560020a62461bcd02815260206004820152601260248201527f496e73756666696369656e742066756e64730000000000000000000000000000604482015290519081900360640190fd5b50600160a060020a0388166000908152609d6020526040902054428110156112a057609e8054600181019091557fcfe2a20ff701a1f3e14f63bd70d6c6bc6fba8172ec6d5a505cdab3927c0a9de601805473ffffffffffffffffffffffffffffffffffffffff1916600160a060020a038b16908117909155609a546000918252609d60205260409091204290910190556112c1565b609a54600160a060020a038a166000908152609d6020526040902090820190555b600160a060020a0389166000908152609d6020908152604090912088516112f0926001909201918a0190611567565b5060008511156113645785600160a060020a0316633652466386866040518363ffffffff1660e060020a0281526004018083815260200182815260200192505050600060405180830381600087803b15801561134b57600080fd5b505af115801561135f573d6000803e3d6000fd5b505050505b85600160a060020a031663939d9f1f838a6040518363ffffffff1660e060020a0281526004018083815260200182600160a060020a0316600160a060020a0316815260200192505050600060405180830381600087803b1580156113c757600080fd5b505af11580156113db573d6000803e3d6000fd5b5050604051600160a060020a038c1692508291506000907fddf252ad1be2c89b69c2b068fc378daa952ba7f163c4a11628f55a4df523b3ef908290a4505050505050505050565b303b8015905b5090565b600160e060020a0319808216141561144357600080fd5b600160e060020a0319166000908152603360205260409020805460ff19166001179055565b600160a060020a038116151561147d57600080fd5b606654604051600160a060020a038084169216907f8be0079c531659141344cd1fd0a4f28419497f9722a3daafe3b4186f6b6457e090600090a36066805473ffffffffffffffffffffffffffffffffffffffff1916600160a060020a0392909216919091179055565b828054600181600116156101000203166002900490600052602060002090601f016020900481019282601f1061151f578054855561155b565b8280016001018555821561155b57600052602060002091601f016020900482015b8281111561155b578254825591600101919060010190611540565b506114289291506115d5565b828054600181600116156101000203166002900490600052602060002090601f016020900481019282601f106115a857805160ff191683800117855561155b565b8280016001018555821561155b579182015b8281111561155b5782518255916020019190600101906115ba565b61094291905b8082111561142857600081556001016115db56004e6f2073756368206b6579000000000000000000000000000000000000000000a165627a7a72305820f003db32dc58971c03f93f4d7e1a595efe53b67dfb73df915822e54c489f48390029436f6e747261637420696e7374616e63652068617320616c7265616479206265a165627a7a7230582042b6c406c88e5c0454014c9c40c321f781d0317f0d45d9fa14f743fbbdfa8dd80029",
  "source": "pragma solidity 0.4.24;\n\n/**\n * @title The Unlock contract\n * @author Julien Genestoux (unlock-protocol.com)\n * This smart contract has 3 main roles:\n *  1. Distribute discounts to discount token holders\n *  2. Grant dicount tokens to users making referrals and/or publishers granting discounts.\n *  3. Create & deploy Public Lock contracts.\n * In order to achieve these 3 elements, it keeps track of several things such as\n *  a. Deployed locks addresses and balances of discount tokens granted by each lock.\n *  b. The total network product (sum of all key sales, net of discounts)\n *  c. Total of discounts granted\n *  d. Balances of discount tokens, including \"frozen\" tokens (which have been used to claim\n * discounts and cannot be used/transfered for a given period)\n *  e. Growth rate of Network Product\n *  f. Growth rate of Discount tokens supply\n * The smart contract has an owner who only can perform the following\n *  - Upgrades\n *  - Change in golden rules (20% of GDP available in discounts, and supply growth rate is at most\n * 50% of GNP growth rate)\n * NOTE: This smart contract is partially implemented for now until enough Locks are deployed and\n * in the wild.\n * The partial implementation includes the following features:\n *  a. Keeping track of deployed locks\n *  b. Keeping track of GNP\n */\n\nimport \"openzeppelin-eth/contracts/ownership/Ownable.sol\";\nimport \"zos-lib/contracts/Initializable.sol\";\nimport \"./PublicLock.sol\";\nimport \"./interfaces/IUnlock.sol\";\n\n/// @dev Must list the direct base contracts in the order from “most base-like” to “most derived”. https://solidity.readthedocs.io/en/latest/contracts.html?highlight=linearization#multiple-inheritance-and-linearization\ncontract Unlock is IUnlock, Initializable, Ownable {\n\n  /**\n   * The struct for a lock\n   * We use deployed to keep track of deployments.\n   * This is required because both totalSales and yieldedDiscountTokens are 0 when initialized,\n   * which would be the same values when the lock is not set.\n   */\n  struct LockBalances {\n    bool deployed;\n    uint totalSales; // This is in wei\n    uint yieldedDiscountTokens;\n  }\n\n  modifier onlyFromDeployedLock() {\n    require(locks[msg.sender].deployed, \"Only from previously deployed locks\");\n    _;\n  }\n\n  uint public grossNetworkProduct;\n\n  uint public totalDiscountGranted;\n\n  // We keep track of deployed locks to ensure that callers are all deployed locks.\n  mapping (address => LockBalances) public locks;\n\n  // Events\n  event NewLock(\n    address indexed lockOwner,\n    address indexed newLockAddress\n  );\n\n  // Use initialize instead of a constructor to support proxies (for upgradeability via zos).\n  function initialize(\n    address _owner\n  )\n    public\n    initializer()\n  {\n    // We must manually initialize Ownable.sol\n    Ownable.initialize(_owner);\n    grossNetworkProduct = 0;\n    totalDiscountGranted = 0;\n  }\n\n  /**\n  * @dev Create lock\n  * This deploys a lock for a creator. It also keeps track of the deployed lock.\n  */\n  function createLock(\n    uint _expirationDuration,\n    uint _keyPrice,\n    uint _maxNumberOfKeys\n  )\n    public\n    returns (ILockCore lock)\n  {\n\n    // create lock\n    PublicLock newPublicLock = new PublicLock(\n      msg.sender,\n      _expirationDuration,\n      _keyPrice,\n      _maxNumberOfKeys\n    );\n\n    // Assign the new Lock\n    locks[address(newPublicLock)] = LockBalances({\n      deployed: true,\n      totalSales: 0,\n      yieldedDiscountTokens: 0\n    });\n\n    // trigger event\n    emit NewLock(msg.sender, address(newPublicLock));\n\n    // return the created lock\n    return newPublicLock;\n  }\n\n  /**\n   * This function returns the discount available for a user, when purchasing a\n   * a key from a lock.\n   * This does not modify the state. It returns both the discount and the number of tokens\n   * consumed to grant that discount.\n   * TODO: actually implement this.\n   */\n  function computeAvailableDiscountFor(\n    address _purchaser, // solhint-disable-line no-unused-vars\n    uint _keyPrice // solhint-disable-line no-unused-vars\n  )\n    public\n    view\n    returns (uint discount, uint tokens)\n  {\n    // TODO: implement me\n    return (0, 0);\n  }\n\n  /**\n   * This function keeps track of the added GDP, as well as grants of discount tokens\n   * to the referrer, if applicable.\n   * The number of discount tokens granted is based on the value of the referal,\n   * the current growth rate and the lock's discount token distribution rate\n   * This function is invoked by a previously deployed lock only.\n   * TODO: actually implement\n   */\n  function recordKeyPurchase(\n    uint _value,\n    address _referrer // solhint-disable-line no-unused-vars\n  )\n    public\n    onlyFromDeployedLock()\n  {\n    // TODO: implement me\n    grossNetworkProduct += _value;\n    return;\n  }\n\n  /**\n   * This function will keep track of consumed discounts by a given user.\n   * It will also grant discount tokens to the creator who is granting the discount based on the\n   * amount of discount and compensation rate.\n   * This function is invoked by a previously deployed lock only.\n   */\n  function recordConsumedDiscount(\n    uint _discount,\n    uint _tokens // solhint-disable-line no-unused-vars\n  )\n    public\n    onlyFromDeployedLock()\n  {\n    // TODO: implement me\n    totalDiscountGranted += _discount;\n    return;\n  }\n\n}\n",
  "sourcePath": "/Users/julien/repos/unlock/smart-contracts/contracts/Unlock.sol",
  "compiler": {
    "name": "solc",
    "version": "0.4.24+commit.e67f0147.Emscripten.clang"
  },
  "schemaVersion": "2.0.1",
  "updatedAt": "2019-01-02T20:21:32.254Z"
}