{
  "contractName": "UnlockTestV2",
  "abi": [
    {
      "constant": false,
      "inputs": [
        {
          "name": "_keyReleaseMechanism",
          "type": "uint8"
        },
        {
          "name": "_expirationDuration",
          "type": "uint256"
        },
        {
          "name": "_keyPrice",
          "type": "uint256"
        },
        {
          "name": "_maxNumberOfKeys",
          "type": "uint256"
        }
      ],
      "name": "createLock",
      "outputs": [
        {
          "name": "lock",
          "type": "address"
        }
      ],
      "payable": false,
      "stateMutability": "nonpayable",
      "type": "function"
    },
    {
      "constant": false,
      "inputs": [
        {
          "name": "_discount",
          "type": "uint256"
        },
        {
          "name": "_tokens",
          "type": "uint256"
        }
      ],
      "name": "recordConsumedDiscount",
      "outputs": [],
      "payable": false,
      "stateMutability": "nonpayable",
      "type": "function"
    },
    {
      "constant": true,
      "inputs": [
        {
          "name": "",
          "type": "address"
        }
      ],
      "name": "locks",
      "outputs": [
        {
          "name": "deployed",
          "type": "bool"
        },
        {
          "name": "totalSales",
          "type": "uint256"
        },
        {
          "name": "yieldedDiscountTokens",
          "type": "uint256"
        }
      ],
      "payable": false,
      "stateMutability": "view",
      "type": "function"
    },
    {
      "constant": false,
      "inputs": [],
      "name": "renounceOwnership",
      "outputs": [],
      "payable": false,
      "stateMutability": "nonpayable",
      "type": "function"
    },
    {
      "constant": true,
      "inputs": [],
      "name": "owner",
      "outputs": [
        {
          "name": "",
          "type": "address"
        }
      ],
      "payable": false,
      "stateMutability": "view",
      "type": "function"
    },
    {
      "constant": false,
      "inputs": [
        {
          "name": "_value",
          "type": "uint256"
        },
        {
          "name": "_referrer",
          "type": "address"
        }
      ],
      "name": "recordKeyPurchase",
      "outputs": [],
      "payable": false,
      "stateMutability": "nonpayable",
      "type": "function"
    },
    {
      "constant": true,
      "inputs": [],
      "name": "totalDiscountGranted",
      "outputs": [
        {
          "name": "",
          "type": "uint256"
        }
      ],
      "payable": false,
      "stateMutability": "view",
      "type": "function"
    },
    {
      "constant": false,
      "inputs": [
        {
          "name": "_owner",
          "type": "address"
        }
      ],
      "name": "initialize",
      "outputs": [],
      "payable": false,
      "stateMutability": "nonpayable",
      "type": "function"
    },
    {
      "constant": true,
      "inputs": [],
      "name": "exampleData",
      "outputs": [
        {
          "name": "",
          "type": "uint256"
        }
      ],
      "payable": false,
      "stateMutability": "view",
      "type": "function"
    },
    {
      "constant": true,
      "inputs": [],
      "name": "grossNetworkProduct",
      "outputs": [
        {
          "name": "",
          "type": "uint256"
        }
      ],
      "payable": false,
      "stateMutability": "view",
      "type": "function"
    },
    {
      "constant": false,
      "inputs": [
        {
          "name": "_newOwner",
          "type": "address"
        }
      ],
      "name": "transferOwnership",
      "outputs": [],
      "payable": false,
      "stateMutability": "nonpayable",
      "type": "function"
    },
    {
      "anonymous": false,
      "inputs": [
        {
          "indexed": true,
          "name": "lockOwner",
          "type": "address"
        },
        {
          "indexed": true,
          "name": "newLockAddress",
          "type": "address"
        }
      ],
      "name": "NewLock",
      "type": "event"
    },
    {
      "anonymous": false,
      "inputs": [
        {
          "indexed": true,
          "name": "previousOwner",
          "type": "address"
        }
      ],
      "name": "OwnershipRenounced",
      "type": "event"
    },
    {
      "anonymous": false,
      "inputs": [
        {
          "indexed": true,
          "name": "previousOwner",
          "type": "address"
        },
        {
          "indexed": true,
          "name": "newOwner",
          "type": "address"
        }
      ],
      "name": "OwnershipTransferred",
      "type": "event"
    },
    {
      "constant": false,
      "inputs": [],
      "name": "initializeV2",
      "outputs": [],
      "payable": false,
      "stateMutability": "nonpayable",
      "type": "function"
    },
    {
      "constant": true,
      "inputs": [
        {
          "name": "_purchaser",
          "type": "address"
        },
        {
          "name": "_keyPrice",
          "type": "uint256"
        }
      ],
      "name": "computeAvailableDiscountFor",
      "outputs": [
        {
          "name": "discount",
          "type": "uint256"
        },
        {
          "name": "tokens",
          "type": "uint256"
        }
      ],
      "payable": false,
      "stateMutability": "pure",
      "type": "function"
    },
    {
      "constant": true,
      "inputs": [],
      "name": "testNewMethod",
      "outputs": [
        {
          "name": "sum",
          "type": "uint256"
        }
      ],
      "payable": false,
      "stateMutability": "view",
      "type": "function"
    }
  ],
  "bytecode": "0x608060405260008054600160a060020a03191633179055611daa806100256000396000f3006080604052600436106100cf5763ffffffff7c01000000000000000000000000000000000000000000000000000000006000350416630cb175e381146100d45780632bc888bf1461011157806336524663146101515780635cd8a76b1461016e5780635de9a137146101835780635ee42e4e146101c4578063715018a6146101eb5780638da5cb5b14610200578063939d9f1f14610215578063a082eb0e14610239578063c4d66de81461024e578063cbd17ec11461026f578063d6e9e80314610284578063f2fde38b14610299575b600080fd5b3480156100e057600080fd5b506100f8600160a060020a03600435166024356102ba565b6040805192835260208301919091528051918290030190f35b34801561011d57600080fd5b5061013560ff600435166024356044356064356102c3565b60408051600160a060020a039092168252519081900360200190f35b34801561015d57600080fd5b5061016c6004356024356103b8565b005b34801561017a57600080fd5b5061016c61046a565b34801561018f57600080fd5b506101a4600160a060020a0360043516610495565b604080519315158452602084019290925282820152519081900360600190f35b3480156101d057600080fd5b506101d96104ba565b60408051918252519081900360200190f35b3480156101f757600080fd5b5061016c6104c8565b34801561020c57600080fd5b50610135610534565b34801561022157600080fd5b5061016c600435600160a060020a0360243516610543565b34801561024557600080fd5b506101d96105f5565b34801561025a57600080fd5b5061016c600160a060020a03600435166105fb565b34801561027b57600080fd5b506101d9610652565b34801561029057600080fd5b506101d9610658565b3480156102a557600080fd5b5061016c600160a060020a036004351661065e565b50602a91829150565b60008033868686866102d36106fe565b600160a060020a0386168152602081018560028111156102ef57fe5b60ff16815260200184815260200183815260200182815260200195505050505050604051809103906000f08015801561032c573d6000803e3d6000fd5b5060408051606081018252600180825260006020808401828152848601838152600160a060020a03881680855260039093528684209551865460ff191690151517865590519385019390935591516002909301929092559151929350909133917f01017ed19df0c7f8acc436147b234b09664a9fb4797b4fa3fb9e599c2eb67be791a395945050505050565b3360009081526003602052604090205460ff16151561045e57604080517f08c379a000000000000000000000000000000000000000000000000000000000815260206004820152602360248201527f4f6e6c792066726f6d2070726576696f75736c79206465706c6f796564206c6f60448201527f636b730000000000000000000000000000000000000000000000000000000000606482015290519081900360840190fd5b60028054830190555050565b600454610100900460ff161561047f57600080fd5b602a6005556004805461ff001916610100179055565b60036020526000908152604090208054600182015460029092015460ff909116919083565b600554600254600154010190565b600054600160a060020a031633146104df57600080fd5b60008054604051600160a060020a03909116917ff8df31144d9c2f0f6b59d69b8b98abd5459d07f2742c4df920b25aae33c6482091a26000805473ffffffffffffffffffffffffffffffffffffffff19169055565b600054600160a060020a031681565b3360009081526003602052604090205460ff1615156105e957604080517f08c379a000000000000000000000000000000000000000000000000000000000815260206004820152602360248201527f4f6e6c792066726f6d2070726576696f75736c79206465706c6f796564206c6f60448201527f636b730000000000000000000000000000000000000000000000000000000000606482015290519081900360840190fd5b60018054830190555050565b60025481565b60045460ff161561060b57600080fd5b6000805473ffffffffffffffffffffffffffffffffffffffff1916600160a060020a039290921691909117815560018181556002919091556004805460ff19169091179055565b60055481565b60015481565b600054600160a060020a0316331461067557600080fd5b61067e81610681565b50565b600160a060020a038116151561069657600080fd5b60008054604051600160a060020a03808516939216917f8be0079c531659141344cd1fd0a4f28419497f9722a3daafe3b4186f6b6457e091a36000805473ffffffffffffffffffffffffffffffffffffffff1916600160a060020a0392909216919091179055565b6040516116708061070f833901905600608060405234801561001057600080fd5b5060405160a08061167083398101604090815281516020830151918301516060840151608090940151600080546001805433600160a060020a031991821681178084559382161716600160a060020a038716179092559395929385919060a060020a60ff0219167401000000000000000000000000000000000000000083600281111561009957fe5b021790555060029290925560035560045550506115b5806100bb6000396000f30060806040526004361061010e5763ffffffff60e060020a600035041663025e7c278114610113578063081812fc14610147578063095ea7b31461015f5780630f15023b1461017857806310e569731461018d57806311a4c03a146101b45780631f1ec029146101c957806323b872dd146101e15780633ccfd60b146101fe57806347a510151461021357806347dc10851461024c57806353b704d0146102615780636352211e1461028157806370a0823114610299578063715018a6146102ba57806374b6c106146102cf5780638da5cb5b146102e45780639f98d3cb146102f9578063abdf82ce1461031a578063d44fa14a1461033b578063d8125eb3146103d1578063f2fde38b146103f9575b600080fd5b34801561011f57600080fd5b5061012b60043561041a565b60408051600160a060020a039092168252519081900360200190f35b34801561015357600080fd5b5061012b600435610442565b610176600160a060020a0360043516602435610453565b005b34801561018457600080fd5b5061012b6105c1565b34801561019957600080fd5b506101a26105d0565b60408051918252519081900360200190f35b3480156101c057600080fd5b506101a26105d6565b3480156101d557600080fd5b506101766004356105dc565b610176600160a060020a03600435811690602435166044356105f8565b34801561020a57600080fd5b5061017661095a565b34801561021f57600080fd5b50610228610a0a565b6040518082600281111561023857fe5b60ff16815260200191505060405180910390f35b34801561025857600080fd5b506101a2610a1a565b61017660048035600160a060020a03169060248035908101910135610a21565b34801561028d57600080fd5b5061012b600435610a62565b3480156102a557600080fd5b506101a2600160a060020a0360043516610acb565b3480156102c657600080fd5b50610176610b5f565b3480156102db57600080fd5b506101a2610bcb565b3480156102f057600080fd5b5061012b610bd1565b34801561030557600080fd5b50610176600160a060020a0360043516610be0565b34801561032657600080fd5b506101a2600160a060020a0360043516610c88565b34801561034757600080fd5b5061035c600160a060020a0360043516610d07565b6040805160208082528351818301528351919283929083019185019080838360005b8381101561039657818101518382015260200161037e565b50505050905090810190601f1680156103c35780820380516001836020036101000a031916815260200191505b509250505060405180910390f35b610176600160a060020a03600480358216916024803590911691604435918201910135610e1a565b34801561040557600080fd5b50610176600160a060020a0360043516610ed0565b600680548290811061042857fe5b600091825260209091200154600160a060020a0316905081565b600061044d82610ef3565b92915050565b80600260015460a060020a900460ff16600281111561046e57fe5b14156104ea576040805160e560020a62461bcd02815260206004820152602a60248201527f4f6e6c7920616c6c6f776564206f6e207075626c6963206f722072657374726960448201527f63746564206c6f636b7300000000000000000000000000000000000000000000606482015290519081900360840190fd5b600054600160a060020a031633148061052d5750600160a060020a0381163314801561052d5750600060015460a060020a900460ff16600281111561052b57fe5b145b151561053857600080fd5b600160a060020a038316151561054d57600080fd5b600160a060020a03828116600081815260076020908152604091829020805473ffffffffffffffffffffffffffffffffffffffff19169488169485179055815186815291517f8c5be1e5ebec7d5bd14f71427d1e84f3dd0314c0f7b2291e5b200ac8c7c3b9259281900390910190a3505050565b600154600160a060020a031681565b60035481565b60025481565b600054600160a060020a031633146105f357600080fd5b600355565b6006546004546000911061067c576040805160e560020a62461bcd02815260206004820152602360248201527f4d6178696d756d206e756d626572206f66206b65797320616c7265616479207360448201527f6f6c640000000000000000000000000000000000000000000000000000000000606482015290519081900360840190fd5b600060015460a060020a900460ff16600281111561069657fe5b146106eb576040805160e560020a62461bcd02815260206004820152601c60248201527f4f6e6c7920616c6c6f776564206f6e207075626c6963206c6f636b7300000000604482015290519081900360640190fd5b600160a060020a0382166000908152600560205260408120805484921061074a576040805160e560020a62461bcd02815260206004820152600b602482015260008051602061156a833981519152604482015290519081900360640190fd5b83600160a060020a03811633148061077257503361076782610ef3565b600160a060020a0316145b15156107c8576040805160e560020a62461bcd02815260206004820181905260248201527f4f6e6c79206b6579206f776e6572206f7220617070726f766564206f776e6572604482015290519081900360640190fd5b600160a060020a03861615156107dd57600080fd5b600160a060020a038616600090815260056020526040902054935083151561085857600680546001810182556000919091527ff652222313e28459528d920b65115c16c04f3efc82aaedc97be59f3f377c0d3f01805473ffffffffffffffffffffffffffffffffffffffff1916600160a060020a0388161790555b42841161088757600160a060020a038088166000908152600560205260408082205492891682529020556108b4565b600160a060020a038088166000908152600560205260408082205492891682529020429186019190910390555b600160a060020a0387811660009081526005602052604080822092891682529020600191820180546108fb939283019260029082161561010002600019019091160461145c565b50600160a060020a0380881660008181526005602090815260409182902042905581518981529151938a16937fddf252ad1be2c89b69c2b068fc378daa952ba7f163c4a11628f55a4df523b3ef9281900390910190a350505050505050565b60008054600160a060020a0316331461097257600080fd5b503031600081116109cd576040805160e560020a62461bcd02815260206004820152601060248201527f4e6f7420656e6f7567682066756e647300000000000000000000000000000000604482015290519081900360640190fd5b60008054604051600160a060020a039091169183156108fc02918491818181858888f19350505050158015610a06573d6000803e3d6000fd5b5050565b60015460a060020a900460ff1681565b6006545b90565b610a5d83600084848080601f01602080910402602001604051908101604052809392919081815260200183838082843750610f1c945050505050565b505050565b600160a060020a038116600090815260056020526040812080548391908310610ac3576040805160e560020a62461bcd02815260206004820152600b602482015260008051602061156a833981519152604482015290519081900360640190fd5b509192915050565b600160a060020a038116600090815260056020526040812080548391908310610b2c576040805160e560020a62461bcd02815260206004820152600b602482015260008051602061156a833981519152604482015290519081900360640190fd5b600160a060020a03841660009081526005602052604081205411610b51576000610b54565b60015b60ff16949350505050565b600054600160a060020a03163314610b7657600080fd5b60008054604051600160a060020a03909116917ff8df31144d9c2f0f6b59d69b8b98abd5459d07f2742c4df920b25aae33c6482091a26000805473ffffffffffffffffffffffffffffffffffffffff19169055565b60045481565b600054600160a060020a031681565b600054600160a060020a03163314610bf757600080fd5b600160a060020a038116600090815260056020526040902080548291904210610c6a576040805160e560020a62461bcd02815260206004820152601060248201527f4b6579206973206e6f742076616c696400000000000000000000000000000000604482015290519081900360640190fd5b5050600160a060020a03166000908152600560205260409020429055565b600160a060020a038116600090815260056020526040812080548391908310610ce9576040805160e560020a62461bcd02815260206004820152600b602482015260008051602061156a833981519152604482015290519081900360640190fd5b505050600160a060020a031660009081526005602052604090205490565b600160a060020a0381166000908152600560205260408120805460609284929111610d6a576040805160e560020a62461bcd02815260206004820152600b602482015260008051602061156a833981519152604482015290519081900360640190fd5b600160a060020a038416600090815260056020908152604091829020600190810180548451600293821615610100026000190190911692909204601f810184900484028301840190945283825290929091830182828015610e0c5780601f10610de157610100808354040283529160200191610e0c565b820191906000526020600020905b815481529060010190602001808311610def57829003601f168201915b505050505092505050919050565b600160a060020a038316600090815260056020526040902080548491904210610e8d576040805160e560020a62461bcd02815260206004820152601060248201527f4b6579206973206e6f742076616c696400000000000000000000000000000000604482015290519081900360640190fd5b610ec8868686868080601f01602080910402602001604051908101604052809392919081815260200183838082843750610f1c945050505050565b505050505050565b600054600160a060020a03163314610ee757600080fd5b610ef0816113df565b50565b600160a060020a0380821660009081526007602052604081205490911680151561044d57600080fd5b6000806000806000600680549050600454111515610faa576040805160e560020a62461bcd02815260206004820152602360248201527f4d6178696d756d206e756d626572206f66206b65797320616c7265616479207360448201527f6f6c640000000000000000000000000000000000000000000000000000000000606482015290519081900360840190fd5b87600060015460a060020a900460ff166002811115610fc557fe5b148061100b57506001805460a060020a900460ff166002811115610fe557fe5b14801561100b5750600160a060020a03811661100081610ef3565b600160a060020a0316145b1515611087576040805160e560020a62461bcd02815260206004820152603960248201527f4f6e6c79207075626c6963206c6f636b73206f7220726573747269636564207760448201527f69746820616e20617070726f76656420726563697069656e7400000000000000606482015290519081900360840190fd5b600160a060020a038916151561109c57600080fd5b600154600354604080517f0cb175e3000000000000000000000000000000000000000000000000000000008152600160a060020a038d81166004830152602482019390935281519290931698508892630cb175e392604480830193928290030181600087803b15801561110e57600080fd5b505af1158015611122573d6000803e3d6000fd5b505050506040513d604081101561113857600080fd5b508051602090910151600354919650945092508285111561115c5760009250611164565b846003540392505b348311156111bc576040805160e560020a62461bcd02815260206004820152601260248201527f496e73756666696369656e742066756e64730000000000000000000000000000604482015290519081900360640190fd5b600160a060020a0389166000908152600560205260409020549150428210156112525760068054600181019091557ff652222313e28459528d920b65115c16c04f3efc82aaedc97be59f3f377c0d3f01805473ffffffffffffffffffffffffffffffffffffffff1916600160a060020a038b16908117909155600254600091825260056020526040909120429091019055611273565b600254600160a060020a038a16600090815260056020526040902090830190555b600160a060020a038916600090815260056020908152604090912088516112a2926001909201918a01906114e1565b5060008511156113165785600160a060020a0316633652466386866040518363ffffffff1660e060020a0281526004018083815260200182815260200192505050600060405180830381600087803b1580156112fd57600080fd5b505af1158015611311573d6000803e3d6000fd5b505050505b85600160a060020a031663939d9f1f848a6040518363ffffffff1660e060020a0281526004018083815260200182600160a060020a0316600160a060020a0316815260200192505050600060405180830381600087803b15801561137957600080fd5b505af115801561138d573d6000803e3d6000fd5b505060408051600160a060020a038d168082529151919350600092507fddf252ad1be2c89b69c2b068fc378daa952ba7f163c4a11628f55a4df523b3ef919081900360200190a3505050505050505050565b600160a060020a03811615156113f457600080fd5b60008054604051600160a060020a03808516939216917f8be0079c531659141344cd1fd0a4f28419497f9722a3daafe3b4186f6b6457e091a36000805473ffffffffffffffffffffffffffffffffffffffff1916600160a060020a0392909216919091179055565b828054600181600116156101000203166002900490600052602060002090601f016020900481019282601f1061149557805485556114d1565b828001600101855582156114d157600052602060002091601f016020900482015b828111156114d15782548255916001019190600101906114b6565b506114dd92915061154f565b5090565b828054600181600116156101000203166002900490600052602060002090601f016020900481019282601f1061152257805160ff19168380011785556114d1565b828001600101855582156114d1579182015b828111156114d1578251825591602001919060010190611534565b610a1e91905b808211156114dd576000815560010161155556004e6f2073756368206b6579000000000000000000000000000000000000000000a165627a7a7230582064e0c0d0442fe8eb01766ff3169ebc3ba2871e5498a7f7736418abe5aa9ee0e50029a165627a7a72305820ae772eb128bc8503c1727f7744a34007e5ffddc79e2dc0d9dba39de7a55b3d760029",
  "source": "pragma solidity 0.4.24;\n\n/**\n * @title Example upgrade of the Unlock contract\n * @author Julien Genestoux (unlock-protocol.com)\n * @author HardlyDifficult\n *\n * This inherits from the previous version, adds data and modifies logic.\n */\n\nimport \"./Unlock.sol\";\n\n\ncontract UnlockTestV2 is Unlock {\n\n  // Example new data (which must come after the original data)\n  bool internal initializedV2;\n  uint public exampleData;\n\n  // Adding a second initialize for the new data as 'initialized' is already true when v2 is deployed.\n  function initializeV2()\n    public\n  {\n    require(!initializedV2);\n    exampleData = 42;\n    initializedV2 = true;\n  }\n\n  function computeAvailableDiscountFor(\n    address _purchaser, // solhint-disable-line no-unused-vars\n    uint _keyPrice // solhint-disable-line no-unused-vars\n  )\n    public\n    pure\n    returns (uint discount, uint tokens)\n  {\n    // an example modification\n    return (42, 42);\n  }\n\n  // an example new method\n  function testNewMethod()\n    public\n    view\n    returns (uint sum)\n  {\n    return grossNetworkProduct + totalDiscountGranted + exampleData;\n  }\n\n}\n",
  "sourcePath": "/home/vagrant/DAPPS/unlock/smart-contracts/contracts/UnlockTestV2.sol",
  "compiler": {
    "name": "solc",
    "version": "0.4.24+commit.e67f0147.Emscripten.clang"
  },
  "schemaVersion": "2.0.1",
  "updatedAt": "2018-10-25T16:54:53.960Z"
}