{
  "contractName": "Unlock",
  "abi": [
    {
      "constant": true,
      "inputs": [
        {
          "name": "",
          "type": "address"
        }
      ],
      "name": "locks",
      "outputs": [
        {
          "name": "deployed",
          "type": "bool"
        },
        {
          "name": "totalSales",
          "type": "uint256"
        },
        {
          "name": "yieldedDiscountTokens",
          "type": "uint256"
        }
      ],
      "payable": false,
      "stateMutability": "view",
      "type": "function"
    },
    {
      "constant": false,
      "inputs": [],
      "name": "renounceOwnership",
      "outputs": [],
      "payable": false,
      "stateMutability": "nonpayable",
      "type": "function"
    },
    {
      "constant": true,
      "inputs": [],
      "name": "owner",
      "outputs": [
        {
          "name": "",
          "type": "address"
        }
      ],
      "payable": false,
      "stateMutability": "view",
      "type": "function"
    },
    {
      "constant": true,
      "inputs": [],
      "name": "totalDiscountGranted",
      "outputs": [
        {
          "name": "",
          "type": "uint256"
        }
      ],
      "payable": false,
      "stateMutability": "view",
      "type": "function"
    },
    {
      "constant": true,
      "inputs": [],
      "name": "grossNetworkProduct",
      "outputs": [
        {
          "name": "",
          "type": "uint256"
        }
      ],
      "payable": false,
      "stateMutability": "view",
      "type": "function"
    },
    {
      "constant": false,
      "inputs": [
        {
          "name": "_newOwner",
          "type": "address"
        }
      ],
      "name": "transferOwnership",
      "outputs": [],
      "payable": false,
      "stateMutability": "nonpayable",
      "type": "function"
    },
    {
      "anonymous": false,
      "inputs": [
        {
          "indexed": true,
          "name": "lockOwner",
          "type": "address"
        },
        {
          "indexed": true,
          "name": "newLockAddress",
          "type": "address"
        }
      ],
      "name": "NewLock",
      "type": "event"
    },
    {
      "anonymous": false,
      "inputs": [
        {
          "indexed": true,
          "name": "previousOwner",
          "type": "address"
        }
      ],
      "name": "OwnershipRenounced",
      "type": "event"
    },
    {
      "anonymous": false,
      "inputs": [
        {
          "indexed": true,
          "name": "previousOwner",
          "type": "address"
        },
        {
          "indexed": true,
          "name": "newOwner",
          "type": "address"
        }
      ],
      "name": "OwnershipTransferred",
      "type": "event"
    },
    {
      "constant": false,
      "inputs": [
        {
          "name": "_owner",
          "type": "address"
        }
      ],
      "name": "initialize",
      "outputs": [],
      "payable": false,
      "stateMutability": "nonpayable",
      "type": "function"
    },
    {
      "constant": false,
      "inputs": [
        {
          "name": "_keyReleaseMechanism",
          "type": "uint8"
        },
        {
          "name": "_expirationDuration",
          "type": "uint256"
        },
        {
          "name": "_keyPrice",
          "type": "uint256"
        },
        {
          "name": "_maxNumberOfKeys",
          "type": "uint256"
        }
      ],
      "name": "createLock",
      "outputs": [
        {
          "name": "lock",
          "type": "address"
        }
      ],
      "payable": false,
      "stateMutability": "nonpayable",
      "type": "function"
    },
    {
      "constant": true,
      "inputs": [
        {
          "name": "_purchaser",
          "type": "address"
        },
        {
          "name": "_keyPrice",
          "type": "uint256"
        }
      ],
      "name": "computeAvailableDiscountFor",
      "outputs": [
        {
          "name": "discount",
          "type": "uint256"
        },
        {
          "name": "tokens",
          "type": "uint256"
        }
      ],
      "payable": false,
      "stateMutability": "pure",
      "type": "function"
    },
    {
      "constant": false,
      "inputs": [
        {
          "name": "_value",
          "type": "uint256"
        },
        {
          "name": "_referrer",
          "type": "address"
        }
      ],
      "name": "recordKeyPurchase",
      "outputs": [],
      "payable": false,
      "stateMutability": "nonpayable",
      "type": "function"
    },
    {
      "constant": false,
      "inputs": [
        {
          "name": "_discount",
          "type": "uint256"
        },
        {
          "name": "_tokens",
          "type": "uint256"
        }
      ],
      "name": "recordConsumedDiscount",
      "outputs": [],
      "payable": false,
      "stateMutability": "nonpayable",
      "type": "function"
    }
  ],
  "bytecode": "0x608060405260008054600160a060020a03191633179055611d0b806100256000396000f3006080604052600436106100ae5763ffffffff7c01000000000000000000000000000000000000000000000000000000006000350416630cb175e381146100b35780632bc888bf146100f057806336524663146101305780635de9a1371461014d578063715018a61461018e5780638da5cb5b146101a3578063939d9f1f146101b8578063a082eb0e146101dc578063c4d66de814610203578063d6e9e80314610224578063f2fde38b14610239575b600080fd5b3480156100bf57600080fd5b506100d7600160a060020a036004351660243561025a565b6040805192835260208301919091528051918290030190f35b3480156100fc57600080fd5b5061011460ff60043516602435604435606435610263565b60408051600160a060020a039092168252519081900360200190f35b34801561013c57600080fd5b5061014b600435602435610358565b005b34801561015957600080fd5b5061016e600160a060020a036004351661040a565b604080519315158452602084019290925282820152519081900360600190f35b34801561019a57600080fd5b5061014b61042f565b3480156101af57600080fd5b5061011461049b565b3480156101c457600080fd5b5061014b600435600160a060020a03602435166104aa565b3480156101e857600080fd5b506101f161055c565b60408051918252519081900360200190f35b34801561020f57600080fd5b5061014b600160a060020a0360043516610562565b34801561023057600080fd5b506101f16105b9565b34801561024557600080fd5b5061014b600160a060020a03600435166105bf565b50600091829150565b600080338686868661027361065f565b600160a060020a03861681526020810185600281111561028f57fe5b60ff16815260200184815260200183815260200182815260200195505050505050604051809103906000f0801580156102cc573d6000803e3d6000fd5b5060408051606081018252600180825260006020808401828152848601838152600160a060020a03881680855260039093528684209551865460ff191690151517865590519385019390935591516002909301929092559151929350909133917f01017ed19df0c7f8acc436147b234b09664a9fb4797b4fa3fb9e599c2eb67be791a395945050505050565b3360009081526003602052604090205460ff1615156103fe57604080517f08c379a000000000000000000000000000000000000000000000000000000000815260206004820152602360248201527f4f6e6c792066726f6d2070726576696f75736c79206465706c6f796564206c6f60448201527f636b730000000000000000000000000000000000000000000000000000000000606482015290519081900360840190fd5b60028054830190555050565b60036020526000908152604090208054600182015460029092015460ff909116919083565b600054600160a060020a0316331461044657600080fd5b60008054604051600160a060020a03909116917ff8df31144d9c2f0f6b59d69b8b98abd5459d07f2742c4df920b25aae33c6482091a26000805473ffffffffffffffffffffffffffffffffffffffff19169055565b600054600160a060020a031681565b3360009081526003602052604090205460ff16151561055057604080517f08c379a000000000000000000000000000000000000000000000000000000000815260206004820152602360248201527f4f6e6c792066726f6d2070726576696f75736c79206465706c6f796564206c6f60448201527f636b730000000000000000000000000000000000000000000000000000000000606482015290519081900360840190fd5b60018054830190555050565b60025481565b60045460ff161561057257600080fd5b6000805473ffffffffffffffffffffffffffffffffffffffff1916600160a060020a039290921691909117815560018181556002919091556004805460ff19169091179055565b60015481565b600054600160a060020a031633146105d657600080fd5b6105df816105e2565b50565b600160a060020a03811615156105f757600080fd5b60008054604051600160a060020a03808516939216917f8be0079c531659141344cd1fd0a4f28419497f9722a3daafe3b4186f6b6457e091a36000805473ffffffffffffffffffffffffffffffffffffffff1916600160a060020a0392909216919091179055565b60405161167080610670833901905600608060405234801561001057600080fd5b5060405160a08061167083398101604090815281516020830151918301516060840151608090940151600080546001805433600160a060020a031991821681178084559382161716600160a060020a038716179092559395929385919060a060020a60ff0219167401000000000000000000000000000000000000000083600281111561009957fe5b021790555060029290925560035560045550506115b5806100bb6000396000f30060806040526004361061010e5763ffffffff60e060020a600035041663025e7c278114610113578063081812fc14610147578063095ea7b31461015f5780630f15023b1461017857806310e569731461018d57806311a4c03a146101b45780631f1ec029146101c957806323b872dd146101e15780633ccfd60b146101fe57806347a510151461021357806347dc10851461024c57806353b704d0146102615780636352211e1461028157806370a0823114610299578063715018a6146102ba57806374b6c106146102cf5780638da5cb5b146102e45780639f98d3cb146102f9578063abdf82ce1461031a578063d44fa14a1461033b578063d8125eb3146103d1578063f2fde38b146103f9575b600080fd5b34801561011f57600080fd5b5061012b60043561041a565b60408051600160a060020a039092168252519081900360200190f35b34801561015357600080fd5b5061012b600435610442565b610176600160a060020a0360043516602435610453565b005b34801561018457600080fd5b5061012b6105c1565b34801561019957600080fd5b506101a26105d0565b60408051918252519081900360200190f35b3480156101c057600080fd5b506101a26105d6565b3480156101d557600080fd5b506101766004356105dc565b610176600160a060020a03600435811690602435166044356105f8565b34801561020a57600080fd5b5061017661095a565b34801561021f57600080fd5b50610228610a0a565b6040518082600281111561023857fe5b60ff16815260200191505060405180910390f35b34801561025857600080fd5b506101a2610a1a565b61017660048035600160a060020a03169060248035908101910135610a21565b34801561028d57600080fd5b5061012b600435610a62565b3480156102a557600080fd5b506101a2600160a060020a0360043516610acb565b3480156102c657600080fd5b50610176610b5f565b3480156102db57600080fd5b506101a2610bcb565b3480156102f057600080fd5b5061012b610bd1565b34801561030557600080fd5b50610176600160a060020a0360043516610be0565b34801561032657600080fd5b506101a2600160a060020a0360043516610c88565b34801561034757600080fd5b5061035c600160a060020a0360043516610d07565b6040805160208082528351818301528351919283929083019185019080838360005b8381101561039657818101518382015260200161037e565b50505050905090810190601f1680156103c35780820380516001836020036101000a031916815260200191505b509250505060405180910390f35b610176600160a060020a03600480358216916024803590911691604435918201910135610e1a565b34801561040557600080fd5b50610176600160a060020a0360043516610ed0565b600680548290811061042857fe5b600091825260209091200154600160a060020a0316905081565b600061044d82610ef3565b92915050565b80600260015460a060020a900460ff16600281111561046e57fe5b14156104ea576040805160e560020a62461bcd02815260206004820152602a60248201527f4f6e6c7920616c6c6f776564206f6e207075626c6963206f722072657374726960448201527f63746564206c6f636b7300000000000000000000000000000000000000000000606482015290519081900360840190fd5b600054600160a060020a031633148061052d5750600160a060020a0381163314801561052d5750600060015460a060020a900460ff16600281111561052b57fe5b145b151561053857600080fd5b600160a060020a038316151561054d57600080fd5b600160a060020a03828116600081815260076020908152604091829020805473ffffffffffffffffffffffffffffffffffffffff19169488169485179055815186815291517f8c5be1e5ebec7d5bd14f71427d1e84f3dd0314c0f7b2291e5b200ac8c7c3b9259281900390910190a3505050565b600154600160a060020a031681565b60035481565b60025481565b600054600160a060020a031633146105f357600080fd5b600355565b6006546004546000911061067c576040805160e560020a62461bcd02815260206004820152602360248201527f4d6178696d756d206e756d626572206f66206b65797320616c7265616479207360448201527f6f6c640000000000000000000000000000000000000000000000000000000000606482015290519081900360840190fd5b600060015460a060020a900460ff16600281111561069657fe5b146106eb576040805160e560020a62461bcd02815260206004820152601c60248201527f4f6e6c7920616c6c6f776564206f6e207075626c6963206c6f636b7300000000604482015290519081900360640190fd5b600160a060020a0382166000908152600560205260408120805484921061074a576040805160e560020a62461bcd02815260206004820152600b602482015260008051602061156a833981519152604482015290519081900360640190fd5b83600160a060020a03811633148061077257503361076782610ef3565b600160a060020a0316145b15156107c8576040805160e560020a62461bcd02815260206004820181905260248201527f4f6e6c79206b6579206f776e6572206f7220617070726f766564206f776e6572604482015290519081900360640190fd5b600160a060020a03861615156107dd57600080fd5b600160a060020a038616600090815260056020526040902054935083151561085857600680546001810182556000919091527ff652222313e28459528d920b65115c16c04f3efc82aaedc97be59f3f377c0d3f01805473ffffffffffffffffffffffffffffffffffffffff1916600160a060020a0388161790555b42841161088757600160a060020a038088166000908152600560205260408082205492891682529020556108b4565b600160a060020a038088166000908152600560205260408082205492891682529020429186019190910390555b600160a060020a0387811660009081526005602052604080822092891682529020600191820180546108fb939283019260029082161561010002600019019091160461145c565b50600160a060020a0380881660008181526005602090815260409182902042905581518981529151938a16937fddf252ad1be2c89b69c2b068fc378daa952ba7f163c4a11628f55a4df523b3ef9281900390910190a350505050505050565b60008054600160a060020a0316331461097257600080fd5b503031600081116109cd576040805160e560020a62461bcd02815260206004820152601060248201527f4e6f7420656e6f7567682066756e647300000000000000000000000000000000604482015290519081900360640190fd5b60008054604051600160a060020a039091169183156108fc02918491818181858888f19350505050158015610a06573d6000803e3d6000fd5b5050565b60015460a060020a900460ff1681565b6006545b90565b610a5d83600084848080601f01602080910402602001604051908101604052809392919081815260200183838082843750610f1c945050505050565b505050565b600160a060020a038116600090815260056020526040812080548391908310610ac3576040805160e560020a62461bcd02815260206004820152600b602482015260008051602061156a833981519152604482015290519081900360640190fd5b509192915050565b600160a060020a038116600090815260056020526040812080548391908310610b2c576040805160e560020a62461bcd02815260206004820152600b602482015260008051602061156a833981519152604482015290519081900360640190fd5b600160a060020a03841660009081526005602052604081205411610b51576000610b54565b60015b60ff16949350505050565b600054600160a060020a03163314610b7657600080fd5b60008054604051600160a060020a03909116917ff8df31144d9c2f0f6b59d69b8b98abd5459d07f2742c4df920b25aae33c6482091a26000805473ffffffffffffffffffffffffffffffffffffffff19169055565b60045481565b600054600160a060020a031681565b600054600160a060020a03163314610bf757600080fd5b600160a060020a038116600090815260056020526040902080548291904210610c6a576040805160e560020a62461bcd02815260206004820152601060248201527f4b6579206973206e6f742076616c696400000000000000000000000000000000604482015290519081900360640190fd5b5050600160a060020a03166000908152600560205260409020429055565b600160a060020a038116600090815260056020526040812080548391908310610ce9576040805160e560020a62461bcd02815260206004820152600b602482015260008051602061156a833981519152604482015290519081900360640190fd5b505050600160a060020a031660009081526005602052604090205490565b600160a060020a0381166000908152600560205260408120805460609284929111610d6a576040805160e560020a62461bcd02815260206004820152600b602482015260008051602061156a833981519152604482015290519081900360640190fd5b600160a060020a038416600090815260056020908152604091829020600190810180548451600293821615610100026000190190911692909204601f810184900484028301840190945283825290929091830182828015610e0c5780601f10610de157610100808354040283529160200191610e0c565b820191906000526020600020905b815481529060010190602001808311610def57829003601f168201915b505050505092505050919050565b600160a060020a038316600090815260056020526040902080548491904210610e8d576040805160e560020a62461bcd02815260206004820152601060248201527f4b6579206973206e6f742076616c696400000000000000000000000000000000604482015290519081900360640190fd5b610ec8868686868080601f01602080910402602001604051908101604052809392919081815260200183838082843750610f1c945050505050565b505050505050565b600054600160a060020a03163314610ee757600080fd5b610ef0816113df565b50565b600160a060020a0380821660009081526007602052604081205490911680151561044d57600080fd5b6000806000806000600680549050600454111515610faa576040805160e560020a62461bcd02815260206004820152602360248201527f4d6178696d756d206e756d626572206f66206b65797320616c7265616479207360448201527f6f6c640000000000000000000000000000000000000000000000000000000000606482015290519081900360840190fd5b87600060015460a060020a900460ff166002811115610fc557fe5b148061100b57506001805460a060020a900460ff166002811115610fe557fe5b14801561100b5750600160a060020a03811661100081610ef3565b600160a060020a0316145b1515611087576040805160e560020a62461bcd02815260206004820152603960248201527f4f6e6c79207075626c6963206c6f636b73206f7220726573747269636564207760448201527f69746820616e20617070726f76656420726563697069656e7400000000000000606482015290519081900360840190fd5b600160a060020a038916151561109c57600080fd5b600154600354604080517f0cb175e3000000000000000000000000000000000000000000000000000000008152600160a060020a038d81166004830152602482019390935281519290931698508892630cb175e392604480830193928290030181600087803b15801561110e57600080fd5b505af1158015611122573d6000803e3d6000fd5b505050506040513d604081101561113857600080fd5b508051602090910151600354919650945092508285111561115c5760009250611164565b846003540392505b348311156111bc576040805160e560020a62461bcd02815260206004820152601260248201527f496e73756666696369656e742066756e64730000000000000000000000000000604482015290519081900360640190fd5b600160a060020a0389166000908152600560205260409020549150428210156112525760068054600181019091557ff652222313e28459528d920b65115c16c04f3efc82aaedc97be59f3f377c0d3f01805473ffffffffffffffffffffffffffffffffffffffff1916600160a060020a038b16908117909155600254600091825260056020526040909120429091019055611273565b600254600160a060020a038a16600090815260056020526040902090830190555b600160a060020a038916600090815260056020908152604090912088516112a2926001909201918a01906114e1565b5060008511156113165785600160a060020a0316633652466386866040518363ffffffff1660e060020a0281526004018083815260200182815260200192505050600060405180830381600087803b1580156112fd57600080fd5b505af1158015611311573d6000803e3d6000fd5b505050505b85600160a060020a031663939d9f1f848a6040518363ffffffff1660e060020a0281526004018083815260200182600160a060020a0316600160a060020a0316815260200192505050600060405180830381600087803b15801561137957600080fd5b505af115801561138d573d6000803e3d6000fd5b505060408051600160a060020a038d168082529151919350600092507fddf252ad1be2c89b69c2b068fc378daa952ba7f163c4a11628f55a4df523b3ef919081900360200190a3505050505050505050565b600160a060020a03811615156113f457600080fd5b60008054604051600160a060020a03808516939216917f8be0079c531659141344cd1fd0a4f28419497f9722a3daafe3b4186f6b6457e091a36000805473ffffffffffffffffffffffffffffffffffffffff1916600160a060020a0392909216919091179055565b828054600181600116156101000203166002900490600052602060002090601f016020900481019282601f1061149557805485556114d1565b828001600101855582156114d157600052602060002091601f016020900482015b828111156114d15782548255916001019190600101906114b6565b506114dd92915061154f565b5090565b828054600181600116156101000203166002900490600052602060002090601f016020900481019282601f1061152257805160ff19168380011785556114d1565b828001600101855582156114d1579182015b828111156114d1578251825591602001919060010190611534565b610a1e91905b808211156114dd576000815560010161155556004e6f2073756368206b6579000000000000000000000000000000000000000000a165627a7a72305820980beeb9011988cee5c63843b04a46a8230b5b4d87ec22e768f614194e035b4b0029a165627a7a72305820f7580360322106da3d11fe228fd7a48ed8e49662495d3d42d880d3cb1c8ed2a40029",
  "source": "pragma solidity 0.4.24;\n\n/**\n * @title The Unlock contract\n * @author Julien Genestoux (unlock-protocol.com)\n * This smart contract has 2 main roles:\n *  1. Distribute discounts to discount token holders\n *  2. Grant dicount tokens to users making referrals and/or publishers granting discounts.\n * In order to achieve these 2 elements, it keeps track of several things such as\n *  a. Deployed locks addresses and balances of discount tokens granted by each lock.\n *  b. The total network product (sum of all key sales, net of discounts)\n *  c. Total of discounts granted\n *  d. Balances of discount tokens, including \"frozen\" tokens (which have been used to claim\n * discounts and cannot be used/transfered for a given period)\n *  e. Growth rate of Network Product\n *  f. Growth rate of Discount tokens supply\n * The smart contract has an owner who only can perform the following\n *  - Upgrades\n *  - Change in golden rules (20% of GDP available in discounts, and supply growth rate is at most\n * 50% of GNP growth rate)\n * NOTE: This smart contract is partially implemented for now until enough Locks are deployed and\n * in the wild.\n * The partial implementation includes the following features:\n *  a. Keeping track of deployed locks\n *  b. Keeping track of GNP\n */\n\nimport \"openzeppelin-solidity/contracts/ownership/Ownable.sol\";\nimport \"./Lock.sol\";\n\n\ncontract Unlock is Ownable {\n\n  /**\n   * The struct for a lock\n   * We use deployed to keep track of deployments.\n   * This is required because both totalSales and yieldedDiscountTokens are 0 when initialized,\n   * which would be the same values when the lock is not set.\n   */\n  struct LockBalances {\n    bool deployed;\n    uint totalSales; // This is in wei\n    uint yieldedDiscountTokens;\n  }\n\n  modifier onlyFromDeployedLock() {\n    require(locks[msg.sender].deployed, \"Only from previously deployed locks\");\n    _;\n  }\n\n  uint public grossNetworkProduct;\n\n  uint public totalDiscountGranted;\n\n  // We keep track of deployed locks to ensure that callers are all deployed locks.\n  mapping (address => LockBalances) public locks;\n\n  // Events\n  event NewLock(\n    address indexed lockOwner,\n    address indexed newLockAddress\n  );\n\n  bool internal initialized;\n\n  // Use initialize instead of a constructor to support proxies (for upgradeability).\n  function initialize(\n    address _owner\n  )\n    public \n  {\n    require(!initialized);\n    owner = _owner;\n    grossNetworkProduct = 0;\n    totalDiscountGranted = 0;\n    initialized = true;\n  }\n\n  /**\n  * @dev Create lock\n  * This deploys a lock for a creator. It also keeps track of the deployed lock.\n  */\n  function createLock(\n    Lock.KeyReleaseMechanisms _keyReleaseMechanism,\n    uint _expirationDuration,\n    uint _keyPrice,\n    uint _maxNumberOfKeys\n  )\n    public\n    returns (Lock lock)\n  {\n\n    // create lock\n    Lock newLock = new Lock(\n      msg.sender,\n      _keyReleaseMechanism,\n      _expirationDuration,\n      _keyPrice,\n      _maxNumberOfKeys\n    );\n\n    // Assign the new Lock\n    locks[address(newLock)] = LockBalances({\n      deployed: true,\n      totalSales: 0,\n      yieldedDiscountTokens: 0\n    });\n\n    // trigger event\n    emit NewLock(msg.sender, address(newLock));\n\n    // return the created lock\n    return newLock;\n  }\n\n  /**\n   * This function returns the discount available for a user, when purchasing a\n   * a key from a lock.\n   * This does not modify the state. It returns both the discount and the number of tokens\n   * consumed to grant that discount.\n   * TODO: actually implement this.\n   */\n  function computeAvailableDiscountFor(\n    address _purchaser, // solhint-disable-line no-unused-vars\n    uint _keyPrice // solhint-disable-line no-unused-vars\n  )\n    public\n    pure\n    returns (uint discount, uint tokens)\n  {\n    // TODO: implement me\n    return (0, 0);\n  }\n\n  /**\n   * This function keeps track of the added GDP, as well as grants of discount tokens\n   * to the referrer, if applicable.\n   * The number of discount tokens granted is based on the value of the referal,\n   * the current growth rate and the lock's discount token distribution rate\n   * This function is invoked by a previously deployed lock only.\n   * TODO: actually implement\n   */\n  function recordKeyPurchase(\n    uint _value,\n    address _referrer // solhint-disable-line no-unused-vars\n  )\n    public\n    onlyFromDeployedLock()\n  {\n    // TODO: implement me\n    grossNetworkProduct += _value;\n    return;\n  }\n\n  /**\n   * This function will keep track of consumed discounts by a given user.\n   * It will also grant discount tokens to the creator who is granting the discount based on the\n   * amount of discount and compensation rate.\n   * This function is invoked by a previously deployed lock only.\n   */\n  function recordConsumedDiscount(\n    uint _discount,\n    uint _tokens // solhint-disable-line no-unused-vars\n  )\n    public\n    onlyFromDeployedLock()\n  {\n    // TODO: implement me\n    totalDiscountGranted += _discount;\n    return;\n  }\n\n}\n",
  "sourcePath": "/Users/julien/repos/unlock/smart-contracts/contracts/Unlock.sol",
  "compiler": {
    "name": "solc",
    "version": "0.4.24+commit.e67f0147.Emscripten.clang"
  },
  "schemaVersion": "2.0.0",
  "updatedAt": "2018-09-28T15:09:04.906Z"
}