{
  "contractName": "Unlock",
  "abi": [
    {
      "constant": true,
      "inputs": [
        {
          "name": "",
          "type": "address"
        }
      ],
      "name": "locks",
      "outputs": [
        {
          "name": "deployed",
          "type": "bool"
        },
        {
          "name": "totalSales",
          "type": "uint256"
        },
        {
          "name": "yieldedDiscountTokens",
          "type": "uint256"
        }
      ],
      "payable": false,
      "stateMutability": "view",
      "type": "function"
    },
    {
      "constant": false,
      "inputs": [],
      "name": "renounceOwnership",
      "outputs": [],
      "payable": false,
      "stateMutability": "nonpayable",
      "type": "function"
    },
    {
      "constant": true,
      "inputs": [],
      "name": "owner",
      "outputs": [
        {
          "name": "",
          "type": "address"
        }
      ],
      "payable": false,
      "stateMutability": "view",
      "type": "function"
    },
    {
      "constant": true,
      "inputs": [],
      "name": "totalDiscountGranted",
      "outputs": [
        {
          "name": "",
          "type": "uint256"
        }
      ],
      "payable": false,
      "stateMutability": "view",
      "type": "function"
    },
    {
      "constant": true,
      "inputs": [],
      "name": "grossNetworkProduct",
      "outputs": [
        {
          "name": "",
          "type": "uint256"
        }
      ],
      "payable": false,
      "stateMutability": "view",
      "type": "function"
    },
    {
      "constant": false,
      "inputs": [
        {
          "name": "_newOwner",
          "type": "address"
        }
      ],
      "name": "transferOwnership",
      "outputs": [],
      "payable": false,
      "stateMutability": "nonpayable",
      "type": "function"
    },
    {
      "anonymous": false,
      "inputs": [
        {
          "indexed": true,
          "name": "lockOwner",
          "type": "address"
        },
        {
          "indexed": true,
          "name": "newLockAddress",
          "type": "address"
        }
      ],
      "name": "NewLock",
      "type": "event"
    },
    {
      "anonymous": false,
      "inputs": [
        {
          "indexed": true,
          "name": "previousOwner",
          "type": "address"
        }
      ],
      "name": "OwnershipRenounced",
      "type": "event"
    },
    {
      "anonymous": false,
      "inputs": [
        {
          "indexed": true,
          "name": "previousOwner",
          "type": "address"
        },
        {
          "indexed": true,
          "name": "newOwner",
          "type": "address"
        }
      ],
      "name": "OwnershipTransferred",
      "type": "event"
    },
    {
      "constant": false,
      "inputs": [
        {
          "name": "_owner",
          "type": "address"
        }
      ],
      "name": "initialize",
      "outputs": [],
      "payable": false,
      "stateMutability": "nonpayable",
      "type": "function"
    },
    {
      "constant": false,
      "inputs": [
        {
          "name": "_expirationDuration",
          "type": "uint256"
        },
        {
          "name": "_keyPrice",
          "type": "uint256"
        },
        {
          "name": "_maxNumberOfKeys",
          "type": "uint256"
        }
      ],
      "name": "createLock",
      "outputs": [
        {
          "name": "lock",
          "type": "address"
        }
      ],
      "payable": false,
      "stateMutability": "nonpayable",
      "type": "function"
    },
    {
      "constant": true,
      "inputs": [
        {
          "name": "_purchaser",
          "type": "address"
        },
        {
          "name": "_keyPrice",
          "type": "uint256"
        }
      ],
      "name": "computeAvailableDiscountFor",
      "outputs": [
        {
          "name": "discount",
          "type": "uint256"
        },
        {
          "name": "tokens",
          "type": "uint256"
        }
      ],
      "payable": false,
      "stateMutability": "view",
      "type": "function"
    },
    {
      "constant": false,
      "inputs": [
        {
          "name": "_value",
          "type": "uint256"
        },
        {
          "name": "_referrer",
          "type": "address"
        }
      ],
      "name": "recordKeyPurchase",
      "outputs": [],
      "payable": false,
      "stateMutability": "nonpayable",
      "type": "function"
    },
    {
      "constant": false,
      "inputs": [
        {
          "name": "_discount",
          "type": "uint256"
        },
        {
          "name": "_tokens",
          "type": "uint256"
        }
      ],
      "name": "recordConsumedDiscount",
      "outputs": [],
      "payable": false,
      "stateMutability": "nonpayable",
      "type": "function"
    }
  ],
  "bytecode": "0x608060405260008054600160a060020a03191633179055611a45806100256000396000f3006080604052600436106100ae5763ffffffff7c01000000000000000000000000000000000000000000000000000000006000350416630cb175e381146100b357806336524663146100f05780635de9a1371461010d578063715018a61461014e5780638da5cb5b14610163578063939d9f1f14610194578063a082eb0e146101b8578063c4d66de8146101df578063d6e9e80314610200578063f2fde38b14610215578063f8f7a9fa14610236575b600080fd5b3480156100bf57600080fd5b506100d7600160a060020a0360043516602435610254565b6040805192835260208301919091528051918290030190f35b3480156100fc57600080fd5b5061010b60043560243561025d565b005b34801561011957600080fd5b5061012e600160a060020a036004351661030f565b604080519315158452602084019290925282820152519081900360600190f35b34801561015a57600080fd5b5061010b610334565b34801561016f57600080fd5b506101786103a0565b60408051600160a060020a039092168252519081900360200190f35b3480156101a057600080fd5b5061010b600435600160a060020a03602435166103af565b3480156101c457600080fd5b506101cd610461565b60408051918252519081900360200190f35b3480156101eb57600080fd5b5061010b600160a060020a0360043516610467565b34801561020c57600080fd5b506101cd6104be565b34801561022157600080fd5b5061010b600160a060020a03600435166104c4565b34801561024257600080fd5b506101786004356024356044356104e7565b50600091829150565b3360009081526003602052604090205460ff16151561030357604080517f08c379a000000000000000000000000000000000000000000000000000000000815260206004820152602360248201527f4f6e6c792066726f6d2070726576696f75736c79206465706c6f796564206c6f60448201527f636b730000000000000000000000000000000000000000000000000000000000606482015290519081900360840190fd5b60028054830190555050565b60036020526000908152604090208054600182015460029092015460ff909116919083565b600054600160a060020a0316331461034b57600080fd5b60008054604051600160a060020a03909116917ff8df31144d9c2f0f6b59d69b8b98abd5459d07f2742c4df920b25aae33c6482091a26000805473ffffffffffffffffffffffffffffffffffffffff19169055565b600054600160a060020a031681565b3360009081526003602052604090205460ff16151561045557604080517f08c379a000000000000000000000000000000000000000000000000000000000815260206004820152602360248201527f4f6e6c792066726f6d2070726576696f75736c79206465706c6f796564206c6f60448201527f636b730000000000000000000000000000000000000000000000000000000000606482015290519081900360840190fd5b60018054830190555050565b60025481565b60045460ff161561047757600080fd5b6000805473ffffffffffffffffffffffffffffffffffffffff1916600160a060020a039290921691909117815560018181556002919091556004805460ff19169091179055565b60015481565b600054600160a060020a031633146104db57600080fd5b6104e4816105c5565b50565b600080338585856104f6610642565b600160a060020a039094168452602084019290925260408084019190915260608301919091525190819003608001906000f08015801561053a573d6000803e3d6000fd5b5060408051606081018252600180825260006020808401828152848601838152600160a060020a03881680855260039093528684209551865460ff191690151517865590519385019390935591516002909301929092559151929350909133917f01017ed19df0c7f8acc436147b234b09664a9fb4797b4fa3fb9e599c2eb67be791a3949350505050565b600160a060020a03811615156105da57600080fd5b60008054604051600160a060020a03808516939216917f8be0079c531659141344cd1fd0a4f28419497f9722a3daafe3b4186f6b6457e091a36000805473ffffffffffffffffffffffffffffffffffffffff1916600160a060020a0392909216919091179055565b6040516113c780610653833901905600608060405234801561001057600080fd5b506040516080806113c78339810160409081528151602083015191830151606090930151600080546001805433600160a060020a031991821681179092559182161716600160a060020a0390931692909217825560029290925560039290925560045561134490819061008390396000f3006080604052600436106101035763ffffffff60e060020a600035041663025e7c278114610108578063081812fc1461013c578063095ea7b3146101545780630f15023b1461016d57806310e569731461018257806311a4c03a146101a95780631f1ec029146101be57806323b872dd146101d65780633ccfd60b146101f357806347dc10851461020857806353b704d01461021d5780636352211e1461023d57806370a0823114610255578063715018a61461027657806374b6c1061461028b5780638da5cb5b146102a05780639f98d3cb146102b5578063abdf82ce146102d6578063d44fa14a146102f7578063d8125eb31461038d578063f2fde38b146103b5575b600080fd5b34801561011457600080fd5b506101206004356103d6565b60408051600160a060020a039092168252519081900360200190f35b34801561014857600080fd5b506101206004356103fe565b61016b600160a060020a036004351660243561040f565b005b34801561017957600080fd5b506101206104ae565b34801561018e57600080fd5b506101976104bd565b60408051918252519081900360200190f35b3480156101b557600080fd5b506101976104c3565b3480156101ca57600080fd5b5061016b6004356104c9565b61016b600160a060020a03600435811690602435166044356104e5565b3480156101ff57600080fd5b5061016b6107d8565b34801561021457600080fd5b50610197610888565b61016b60048035600160a060020a0316906024803590810191013561088f565b34801561024957600080fd5b506101206004356108d0565b34801561026157600080fd5b50610197600160a060020a0360043516610939565b34801561028257600080fd5b5061016b6109cd565b34801561029757600080fd5b50610197610a39565b3480156102ac57600080fd5b50610120610a3f565b3480156102c157600080fd5b5061016b600160a060020a0360043516610a4e565b3480156102e257600080fd5b50610197600160a060020a0360043516610af6565b34801561030357600080fd5b50610318600160a060020a0360043516610b75565b6040805160208082528351818301528351919283929083019185019080838360005b8381101561035257818101518382015260200161033a565b50505050905090810190601f16801561037f5780820380516001836020036101000a031916815260200191505b509250505060405180910390f35b61016b600160a060020a03600480358216916024803590911691604435918201910135610c88565b3480156103c157600080fd5b5061016b600160a060020a0360043516610d3e565b60068054829081106103e457fe5b600091825260209091200154600160a060020a0316905081565b600061040982610d61565b92915050565b80600160a060020a038116331461042557600080fd5b600160a060020a038316151561043a57600080fd5b600160a060020a03828116600081815260076020908152604091829020805473ffffffffffffffffffffffffffffffffffffffff19169488169485179055815186815291517f8c5be1e5ebec7d5bd14f71427d1e84f3dd0314c0f7b2291e5b200ac8c7c3b9259281900390910190a3505050565b600154600160a060020a031681565b60035481565b60025481565b600054600160a060020a031633146104e057600080fd5b600355565b60065460045460009110610569576040805160e560020a62461bcd02815260206004820152602360248201527f4d6178696d756d206e756d626572206f66206b65797320616c7265616479207360448201527f6f6c640000000000000000000000000000000000000000000000000000000000606482015290519081900360840190fd5b600160a060020a038216600090815260056020526040812080548492106105c8576040805160e560020a62461bcd02815260206004820152600b60248201526000805160206112f9833981519152604482015290519081900360640190fd5b83600160a060020a0381163314806105f05750336105e582610d61565b600160a060020a0316145b1515610646576040805160e560020a62461bcd02815260206004820181905260248201527f4f6e6c79206b6579206f776e6572206f7220617070726f766564206f776e6572604482015290519081900360640190fd5b600160a060020a038616151561065b57600080fd5b600160a060020a03861660009081526005602052604090205493508315156106d657600680546001810182556000919091527ff652222313e28459528d920b65115c16c04f3efc82aaedc97be59f3f377c0d3f01805473ffffffffffffffffffffffffffffffffffffffff1916600160a060020a0388161790555b42841161070557600160a060020a03808816600090815260056020526040808220549289168252902055610732565b600160a060020a038088166000908152600560205260408082205492891682529020429186019190910390555b600160a060020a03878116600090815260056020526040808220928916825290206001918201805461077993928301926002908216156101000260001901909116046111eb565b50600160a060020a0380881660008181526005602090815260409182902042905581518981529151938a16937fddf252ad1be2c89b69c2b068fc378daa952ba7f163c4a11628f55a4df523b3ef9281900390910190a350505050505050565b60008054600160a060020a031633146107f057600080fd5b5030316000811161084b576040805160e560020a62461bcd02815260206004820152601060248201527f4e6f7420656e6f7567682066756e647300000000000000000000000000000000604482015290519081900360640190fd5b60008054604051600160a060020a039091169183156108fc02918491818181858888f19350505050158015610884573d6000803e3d6000fd5b5050565b6006545b90565b6108cb83600084848080601f01602080910402602001604051908101604052809392919081815260200183838082843750610d8a945050505050565b505050565b600160a060020a038116600090815260056020526040812080548391908310610931576040805160e560020a62461bcd02815260206004820152600b60248201526000805160206112f9833981519152604482015290519081900360640190fd5b509192915050565b600160a060020a03811660009081526005602052604081208054839190831061099a576040805160e560020a62461bcd02815260206004820152600b60248201526000805160206112f9833981519152604482015290519081900360640190fd5b600160a060020a038416600090815260056020526040812054116109bf5760006109c2565b60015b60ff16949350505050565b600054600160a060020a031633146109e457600080fd5b60008054604051600160a060020a03909116917ff8df31144d9c2f0f6b59d69b8b98abd5459d07f2742c4df920b25aae33c6482091a26000805473ffffffffffffffffffffffffffffffffffffffff19169055565b60045481565b600054600160a060020a031681565b600054600160a060020a03163314610a6557600080fd5b600160a060020a038116600090815260056020526040902080548291904210610ad8576040805160e560020a62461bcd02815260206004820152601060248201527f4b6579206973206e6f742076616c696400000000000000000000000000000000604482015290519081900360640190fd5b5050600160a060020a03166000908152600560205260409020429055565b600160a060020a038116600090815260056020526040812080548391908310610b57576040805160e560020a62461bcd02815260206004820152600b60248201526000805160206112f9833981519152604482015290519081900360640190fd5b505050600160a060020a031660009081526005602052604090205490565b600160a060020a0381166000908152600560205260408120805460609284929111610bd8576040805160e560020a62461bcd02815260206004820152600b60248201526000805160206112f9833981519152604482015290519081900360640190fd5b600160a060020a038416600090815260056020908152604091829020600190810180548451600293821615610100026000190190911692909204601f810184900484028301840190945283825290929091830182828015610c7a5780601f10610c4f57610100808354040283529160200191610c7a565b820191906000526020600020905b815481529060010190602001808311610c5d57829003601f168201915b505050505092505050919050565b600160a060020a038316600090815260056020526040902080548491904210610cfb576040805160e560020a62461bcd02815260206004820152601060248201527f4b6579206973206e6f742076616c696400000000000000000000000000000000604482015290519081900360640190fd5b610d36868686868080601f01602080910402602001604051908101604052809392919081815260200183838082843750610d8a945050505050565b505050505050565b600054600160a060020a03163314610d5557600080fd5b610d5e8161116e565b50565b600160a060020a0380821660009081526007602052604081205490911680151561040957600080fd5b6000806000806000600680549050600454111515610e18576040805160e560020a62461bcd02815260206004820152602360248201527f4d6178696d756d206e756d626572206f66206b65797320616c7265616479207360448201527f6f6c640000000000000000000000000000000000000000000000000000000000606482015290519081900360840190fd5b600160a060020a0388161515610e2d57600080fd5b600154600354604080517f0cb175e3000000000000000000000000000000000000000000000000000000008152600160a060020a038c81166004830152602482019390935281519290931697508792630cb175e392604480830193928290030181600087803b158015610e9f57600080fd5b505af1158015610eb3573d6000803e3d6000fd5b505050506040513d6040811015610ec957600080fd5b5080516020909101516003549195509350915081841115610eed5760009150610ef5565b836003540391505b34821115610f4d576040805160e560020a62461bcd02815260206004820152601260248201527f496e73756666696369656e742066756e64730000000000000000000000000000604482015290519081900360640190fd5b50600160a060020a03871660009081526005602052604090205442811015610fe25760068054600181019091557ff652222313e28459528d920b65115c16c04f3efc82aaedc97be59f3f377c0d3f01805473ffffffffffffffffffffffffffffffffffffffff1916600160a060020a038a16908117909155600254600091825260056020526040909120429091019055611003565b600254600160a060020a038916600090815260056020526040902090820190555b600160a060020a0388166000908152600560209081526040909120875161103292600190920191890190611270565b5060008411156110a65784600160a060020a0316633652466385856040518363ffffffff1660e060020a0281526004018083815260200182815260200192505050600060405180830381600087803b15801561108d57600080fd5b505af11580156110a1573d6000803e3d6000fd5b505050505b84600160a060020a031663939d9f1f83896040518363ffffffff1660e060020a0281526004018083815260200182600160a060020a0316600160a060020a0316815260200192505050600060405180830381600087803b15801561110957600080fd5b505af115801561111d573d6000803e3d6000fd5b505060408051600160a060020a038c168082529151919350600092507fddf252ad1be2c89b69c2b068fc378daa952ba7f163c4a11628f55a4df523b3ef919081900360200190a35050505050505050565b600160a060020a038116151561118357600080fd5b60008054604051600160a060020a03808516939216917f8be0079c531659141344cd1fd0a4f28419497f9722a3daafe3b4186f6b6457e091a36000805473ffffffffffffffffffffffffffffffffffffffff1916600160a060020a0392909216919091179055565b828054600181600116156101000203166002900490600052602060002090601f016020900481019282601f106112245780548555611260565b8280016001018555821561126057600052602060002091601f016020900482015b82811115611260578254825591600101919060010190611245565b5061126c9291506112de565b5090565b828054600181600116156101000203166002900490600052602060002090601f016020900481019282601f106112b157805160ff1916838001178555611260565b82800160010185558215611260579182015b828111156112605782518255916020019190600101906112c3565b61088c91905b8082111561126c57600081556001016112e456004e6f2073756368206b6579000000000000000000000000000000000000000000a165627a7a72305820c389356f7fea1b36090cc40a369970e97f1280f8672d256ed5174fc16afbadec0029a165627a7a72305820b0a2d792ac64ee6c968d24346fd15b7dba1f9ed5d78c9d997d9abad1352ab0890029",
  "source": "pragma solidity 0.4.24;\n\n/**\n * @title The Unlock contract\n * @author Julien Genestoux (unlock-protocol.com)\n * This smart contract has 3 main roles:\n *  1. Distribute discounts to discount token holders\n *  2. Grant dicount tokens to users making referrals and/or publishers granting discounts.\n *  3. Create & deploy Public Lock contracts.\n * In order to achieve these 3 elements, it keeps track of several things such as\n *  a. Deployed locks addresses and balances of discount tokens granted by each lock.\n *  b. The total network product (sum of all key sales, net of discounts)\n *  c. Total of discounts granted\n *  d. Balances of discount tokens, including \"frozen\" tokens (which have been used to claim\n * discounts and cannot be used/transfered for a given period)\n *  e. Growth rate of Network Product\n *  f. Growth rate of Discount tokens supply\n * The smart contract has an owner who only can perform the following\n *  - Upgrades\n *  - Change in golden rules (20% of GDP available in discounts, and supply growth rate is at most\n * 50% of GNP growth rate)\n * NOTE: This smart contract is partially implemented for now until enough Locks are deployed and\n * in the wild.\n * The partial implementation includes the following features:\n *  a. Keeping track of deployed locks\n *  b. Keeping track of GNP\n */\n\nimport \"openzeppelin-solidity/contracts/ownership/Ownable.sol\";\nimport \"./PublicLock.sol\";\nimport \"./interfaces/IUnlock.sol\";\n\n\ncontract Unlock is IUnlock, Ownable {\n\n  /**\n   * The struct for a lock\n   * We use deployed to keep track of deployments.\n   * This is required because both totalSales and yieldedDiscountTokens are 0 when initialized,\n   * which would be the same values when the lock is not set.\n   */\n  struct LockBalances {\n    bool deployed;\n    uint totalSales; // This is in wei\n    uint yieldedDiscountTokens;\n  }\n\n  modifier onlyFromDeployedLock() {\n    require(locks[msg.sender].deployed, \"Only from previously deployed locks\");\n    _;\n  }\n\n  uint public grossNetworkProduct;\n\n  uint public totalDiscountGranted;\n\n  // We keep track of deployed locks to ensure that callers are all deployed locks.\n  mapping (address => LockBalances) public locks;\n\n  // Events\n  event NewLock(\n    address indexed lockOwner,\n    address indexed newLockAddress\n  );\n\n  bool internal initialized;\n\n  // Use initialize instead of a constructor to support proxies (for upgradeability via zos).\n  function initialize(\n    address _owner\n  )\n    public\n  {\n    require(!initialized);\n    owner = _owner;\n    grossNetworkProduct = 0;\n    totalDiscountGranted = 0;\n    initialized = true;\n  }\n\n  /**\n  * @dev Create lock\n  * This deploys a lock for a creator. It also keeps track of the deployed lock.\n  */\n  function createLock(\n    uint _expirationDuration,\n    uint _keyPrice,\n    uint _maxNumberOfKeys\n  )\n    public\n    returns (ILockCore lock)\n  {\n\n    // create lock\n    PublicLock newPublicLock = new PublicLock(\n      msg.sender,\n      _expirationDuration,\n      _keyPrice,\n      _maxNumberOfKeys\n    );\n\n    // Assign the new Lock\n    locks[address(newPublicLock)] = LockBalances({\n      deployed: true,\n      totalSales: 0,\n      yieldedDiscountTokens: 0\n    });\n\n    // trigger event\n    emit NewLock(msg.sender, address(newPublicLock));\n\n    // return the created lock\n    return newPublicLock;\n  }\n\n  /**\n   * This function returns the discount available for a user, when purchasing a\n   * a key from a lock.\n   * This does not modify the state. It returns both the discount and the number of tokens\n   * consumed to grant that discount.\n   * TODO: actually implement this.\n   */\n  function computeAvailableDiscountFor(\n    address _purchaser, // solhint-disable-line no-unused-vars\n    uint _keyPrice // solhint-disable-line no-unused-vars\n  )\n    public\n    view\n    returns (uint discount, uint tokens)\n  {\n    // TODO: implement me\n    return (0, 0);\n  }\n\n  /**\n   * This function keeps track of the added GDP, as well as grants of discount tokens\n   * to the referrer, if applicable.\n   * The number of discount tokens granted is based on the value of the referal,\n   * the current growth rate and the lock's discount token distribution rate\n   * This function is invoked by a previously deployed lock only.\n   * TODO: actually implement\n   */\n  function recordKeyPurchase(\n    uint _value,\n    address _referrer // solhint-disable-line no-unused-vars\n  )\n    public\n    onlyFromDeployedLock()\n  {\n    // TODO: implement me\n    grossNetworkProduct += _value;\n    return;\n  }\n\n  /**\n   * This function will keep track of consumed discounts by a given user.\n   * It will also grant discount tokens to the creator who is granting the discount based on the\n   * amount of discount and compensation rate.\n   * This function is invoked by a previously deployed lock only.\n   */\n  function recordConsumedDiscount(\n    uint _discount,\n    uint _tokens // solhint-disable-line no-unused-vars\n  )\n    public\n    onlyFromDeployedLock()\n  {\n    // TODO: implement me\n    totalDiscountGranted += _discount;\n    return;\n  }\n\n}\n",
  "sourcePath": "/Users/julien/repos/unlock/smart-contracts/contracts/Unlock.sol",
  "compiler": {
    "name": "solc",
    "version": "0.4.24+commit.e67f0147.Emscripten.clang"
  },
  "schemaVersion": "2.0.1",
  "updatedAt": "2018-11-10T02:14:19.007Z"
}