{
  "contractName": "UnlockTestV2",
  "abi": [
    {
      "constant": false,
      "inputs": [
        {
          "name": "_discount",
          "type": "uint256"
        },
        {
          "name": "_tokens",
          "type": "uint256"
        }
      ],
      "name": "recordConsumedDiscount",
      "outputs": [],
      "payable": false,
      "stateMutability": "nonpayable",
      "type": "function"
    },
    {
      "constant": true,
      "inputs": [
        {
          "name": "",
          "type": "address"
        }
      ],
      "name": "locks",
      "outputs": [
        {
          "name": "deployed",
          "type": "bool"
        },
        {
          "name": "totalSales",
          "type": "uint256"
        },
        {
          "name": "yieldedDiscountTokens",
          "type": "uint256"
        }
      ],
      "payable": false,
      "stateMutability": "view",
      "type": "function"
    },
    {
      "constant": false,
      "inputs": [],
      "name": "renounceOwnership",
      "outputs": [],
      "payable": false,
      "stateMutability": "nonpayable",
      "type": "function"
    },
    {
      "constant": true,
      "inputs": [],
      "name": "owner",
      "outputs": [
        {
          "name": "",
          "type": "address"
        }
      ],
      "payable": false,
      "stateMutability": "view",
      "type": "function"
    },
    {
      "constant": true,
      "inputs": [],
      "name": "isOwner",
      "outputs": [
        {
          "name": "",
          "type": "bool"
        }
      ],
      "payable": false,
      "stateMutability": "view",
      "type": "function"
    },
    {
      "constant": false,
      "inputs": [
        {
          "name": "_value",
          "type": "uint256"
        },
        {
          "name": "_referrer",
          "type": "address"
        }
      ],
      "name": "recordKeyPurchase",
      "outputs": [],
      "payable": false,
      "stateMutability": "nonpayable",
      "type": "function"
    },
    {
      "constant": true,
      "inputs": [],
      "name": "totalDiscountGranted",
      "outputs": [
        {
          "name": "",
          "type": "uint256"
        }
      ],
      "payable": false,
      "stateMutability": "view",
      "type": "function"
    },
    {
      "constant": false,
      "inputs": [
        {
          "name": "_owner",
          "type": "address"
        }
      ],
      "name": "initialize",
      "outputs": [],
      "payable": false,
      "stateMutability": "nonpayable",
      "type": "function"
    },
    {
      "constant": true,
      "inputs": [],
      "name": "exampleData",
      "outputs": [
        {
          "name": "",
          "type": "uint256"
        }
      ],
      "payable": false,
      "stateMutability": "view",
      "type": "function"
    },
    {
      "constant": true,
      "inputs": [],
      "name": "grossNetworkProduct",
      "outputs": [
        {
          "name": "",
          "type": "uint256"
        }
      ],
      "payable": false,
      "stateMutability": "view",
      "type": "function"
    },
    {
      "constant": false,
      "inputs": [
        {
          "name": "newOwner",
          "type": "address"
        }
      ],
      "name": "transferOwnership",
      "outputs": [],
      "payable": false,
      "stateMutability": "nonpayable",
      "type": "function"
    },
    {
      "constant": false,
      "inputs": [
        {
          "name": "_expirationDuration",
          "type": "uint256"
        },
        {
          "name": "_keyPrice",
          "type": "uint256"
        },
        {
          "name": "_maxNumberOfKeys",
          "type": "uint256"
        }
      ],
      "name": "createLock",
      "outputs": [
        {
          "name": "lock",
          "type": "address"
        }
      ],
      "payable": false,
      "stateMutability": "nonpayable",
      "type": "function"
    },
    {
      "anonymous": false,
      "inputs": [
        {
          "indexed": true,
          "name": "lockOwner",
          "type": "address"
        },
        {
          "indexed": true,
          "name": "newLockAddress",
          "type": "address"
        }
      ],
      "name": "NewLock",
      "type": "event"
    },
    {
      "anonymous": false,
      "inputs": [
        {
          "indexed": true,
          "name": "previousOwner",
          "type": "address"
        }
      ],
      "name": "OwnershipRenounced",
      "type": "event"
    },
    {
      "anonymous": false,
      "inputs": [
        {
          "indexed": true,
          "name": "previousOwner",
          "type": "address"
        },
        {
          "indexed": true,
          "name": "newOwner",
          "type": "address"
        }
      ],
      "name": "OwnershipTransferred",
      "type": "event"
    },
    {
      "constant": false,
      "inputs": [],
      "name": "initializeV2",
      "outputs": [],
      "payable": false,
      "stateMutability": "nonpayable",
      "type": "function"
    },
    {
      "constant": true,
      "inputs": [
        {
          "name": "_purchaser",
          "type": "address"
        },
        {
          "name": "_keyPrice",
          "type": "uint256"
        }
      ],
      "name": "computeAvailableDiscountFor",
      "outputs": [
        {
          "name": "discount",
          "type": "uint256"
        },
        {
          "name": "tokens",
          "type": "uint256"
        }
      ],
      "payable": false,
      "stateMutability": "view",
      "type": "function"
    },
    {
      "constant": true,
      "inputs": [],
      "name": "testNewMethod",
      "outputs": [
        {
          "name": "sum",
          "type": "uint256"
        }
      ],
      "payable": false,
      "stateMutability": "view",
      "type": "function"
    }
  ],
  "bytecode": "0x608060405234801561001057600080fd5b50611f13806100206000396000f3006080604052600436106100da5763ffffffff7c01000000000000000000000000000000000000000000000000000000006000350416630cb175e381146100df578063365246631461011c5780635cd8a76b146101395780635de9a1371461014e5780635ee42e4e1461018f578063715018a6146101b65780638da5cb5b146101cb5780638f32d59b146101fc578063939d9f1f14610225578063a082eb0e14610249578063c4d66de81461025e578063cbd17ec11461027f578063d6e9e80314610294578063f2fde38b146102a9578063f8f7a9fa146102ca575b600080fd5b3480156100eb57600080fd5b50610103600160a060020a03600435166024356102e8565b6040805192835260208301919091528051918290030190f35b34801561012857600080fd5b506101376004356024356102f1565b005b34801561014557600080fd5b5061013761038c565b34801561015a57600080fd5b5061016f600160a060020a03600435166103b0565b604080519315158452602084019290925282820152519081900360600190f35b34801561019b57600080fd5b506101a46103d5565b60408051918252519081900360200190f35b3480156101c257600080fd5b506101376103e3565b3480156101d757600080fd5b506101e061044d565b60408051600160a060020a039092168252519081900360200190f35b34801561020857600080fd5b5061021161045c565b604080519115158252519081900360200190f35b34801561023157600080fd5b50610137600435600160a060020a036024351661046d565b34801561025557600080fd5b506101a4610508565b34801561026a57600080fd5b50610137600160a060020a036004351661050e565b34801561028b57600080fd5b506101a4610601565b3480156102a057600080fd5b506101a4610607565b3480156102b557600080fd5b50610137600160a060020a036004351661060d565b3480156102d657600080fd5b506101e060043560243560443561062c565b50602a91829150565b3360009081526068602052604090205460ff161515610380576040805160e560020a62461bcd02815260206004820152602360248201527f4f6e6c792066726f6d2070726576696f75736c79206465706c6f796564206c6f60448201527f636b730000000000000000000000000000000000000000000000000000000000606482015290519081900360840190fd5b60678054830190555050565b60695460ff161561039c57600080fd5b602a606a556069805460ff19166001179055565b60686020526000908152604090208054600182015460029092015460ff909116919083565b606a54606754606654010190565b6103eb61045c565b15156103f657600080fd5b603354604051600160a060020a03909116907ff8df31144d9c2f0f6b59d69b8b98abd5459d07f2742c4df920b25aae33c6482090600090a26033805473ffffffffffffffffffffffffffffffffffffffff19169055565b603354600160a060020a031690565b603354600160a060020a0316331490565b3360009081526068602052604090205460ff1615156104fc576040805160e560020a62461bcd02815260206004820152602360248201527f4f6e6c792066726f6d2070726576696f75736c79206465706c6f796564206c6f60448201527f636b730000000000000000000000000000000000000000000000000000000000606482015290519081900360840190fd5b60668054830190555050565b60675481565b60008054610100900460ff1680610528575061052861070a565b80610536575060005460ff16155b15156105b2576040805160e560020a62461bcd02815260206004820152602e60248201527f436f6e747261637420696e7374616e63652068617320616c726561647920626560448201527f656e20696e697469616c697a6564000000000000000000000000000000000000606482015290519081900360840190fd5b5060008054600161010061ff00198316811760ff1916919091179092550460ff166105dc82610710565b60006066819055606781905580549115156101000261ff001990921691909117905550565b606a5481565b60665481565b61061561045c565b151561062057600080fd5b61062981610810565b50565b6000803385858561063b61088e565b600160a060020a039094168452602084019290925260408084019190915260608301919091525190819003608001906000f08015801561067f573d6000803e3d6000fd5b5060408051606081018252600180825260006020808401828152848601838152600160a060020a03881680855260689093528684209551865460ff191690151517865590519385019390935591516002909301929092559151929350909133917f01017ed19df0c7f8acc436147b234b09664a9fb4797b4fa3fb9e599c2eb67be791a3949350505050565b303b1590565b60008054610100900460ff168061072a575061072a61070a565b80610738575060005460ff16155b15156107b4576040805160e560020a62461bcd02815260206004820152602e60248201527f436f6e747261637420696e7374616e63652068617320616c726561647920626560448201527f656e20696e697469616c697a6564000000000000000000000000000000000000606482015290519081900360840190fd5b50600080546033805473ffffffffffffffffffffffffffffffffffffffff1916600160a060020a03949094169390931790925561ff001980831661010090811760ff19166001179091169281900460ff16151502919091179055565b600160a060020a038116151561082557600080fd5b603354604051600160a060020a038084169216907f8be0079c531659141344cd1fd0a4f28419497f9722a3daafe3b4186f6b6457e090600090a36033805473ffffffffffffffffffffffffffffffffffffffff1916600160a060020a0392909216919091179055565b6040516116498061089f833901905600608060405234801561001057600080fd5b50604051608080611649833981016040908152815160208301519183015160609093015160668054600160a060020a0319163317905590929061005f84640100000000610bdf61007182021704565b6067929092556068556069555061018a565b60008054610100900460ff16806100945750610094640100000000610184810204565b806100a2575060005460ff16155b151561013557604080517f08c379a000000000000000000000000000000000000000000000000000000000815260206004820152602e60248201527f436f6e747261637420696e7374616e63652068617320616c726561647920626560448201527f656e20696e697469616c697a6564000000000000000000000000000000000000606482015290519081900360840190fd5b506000805460338054600160a060020a031916600160a060020a03949094169390931790925561ff001980831661010090811760ff19166001179091169281900460ff16151502919091179055565b303b1590565b6114b0806101996000396000f3006080604052600436106101195763ffffffff60e060020a600035041663025e7c27811461011e578063081812fc14610152578063095ea7b31461016a5780630f15023b1461018357806310e569731461019857806311a4c03a146101bf5780631f1ec029146101d457806323b872dd146101ec5780633ccfd60b1461020957806347dc10851461021e57806353b704d0146102335780636352211e1461025357806370a082311461026b578063715018a61461028c57806374b6c106146102a15780638da5cb5b146102b65780638f32d59b146102cb5780639f98d3cb146102f4578063abdf82ce14610315578063c4d66de814610336578063d44fa14a14610357578063d8125eb3146103ed578063f2fde38b14610415575b600080fd5b34801561012a57600080fd5b50610136600435610436565b60408051600160a060020a039092168252519081900360200190f35b34801561015e57600080fd5b5061013660043561045e565b610181600160a060020a036004351660243561046f565b005b34801561018f57600080fd5b5061013661050e565b3480156101a457600080fd5b506101ad61051d565b60408051918252519081900360200190f35b3480156101cb57600080fd5b506101ad610523565b3480156101e057600080fd5b50610181600435610529565b610181600160a060020a0360043581169060243516604435610541565b34801561021557600080fd5b50610181610834565b34801561022a57600080fd5b506101ad6108ec565b61018160048035600160a060020a031690602480359081019101356108f3565b34801561025f57600080fd5b5061013660043561092f565b34801561027757600080fd5b506101ad600160a060020a0360043516610998565b34801561029857600080fd5b50610181610a2c565b3480156102ad57600080fd5b506101ad610a96565b3480156102c257600080fd5b50610136610a9c565b3480156102d757600080fd5b506102e0610aab565b604080519115158252519081900360200190f35b34801561030057600080fd5b50610181600160a060020a0360043516610abc565b34801561032157600080fd5b506101ad600160a060020a0360043516610b60565b34801561034257600080fd5b50610181600160a060020a0360043516610bdf565b34801561036357600080fd5b50610378600160a060020a0360043516610cdf565b6040805160208082528351818301528351919283929083019185019080838360005b838110156103b257818101518382015260200161039a565b50505050905090810190601f1680156103df5780820380516001836020036101000a031916815260200191505b509250505060405180910390f35b610181600160a060020a03600480358216916024803590911691604435918201910135610df2565b34801561042157600080fd5b50610181600160a060020a0360043516610ea8565b606b80548290811061044457fe5b600091825260209091200154600160a060020a0316905081565b600061046982610ec7565b92915050565b80600160a060020a038116331461048557600080fd5b600160a060020a038316151561049a57600080fd5b600160a060020a038281166000818152606c6020908152604091829020805473ffffffffffffffffffffffffffffffffffffffff19169488169485179055815186815291517f8c5be1e5ebec7d5bd14f71427d1e84f3dd0314c0f7b2291e5b200ac8c7c3b9259281900390910190a3505050565b606654600160a060020a031681565b60685481565b60675481565b610531610aab565b151561053c57600080fd5b606855565b606b54606954600091106105c5576040805160e560020a62461bcd02815260206004820152602360248201527f4d6178696d756d206e756d626572206f66206b65797320616c7265616479207360448201527f6f6c640000000000000000000000000000000000000000000000000000000000606482015290519081900360840190fd5b600160a060020a0382166000908152606a602052604081208054849210610624576040805160e560020a62461bcd02815260206004820152600b6024820152600080516020611465833981519152604482015290519081900360640190fd5b83600160a060020a03811633148061064c57503361064182610ec7565b600160a060020a0316145b15156106a2576040805160e560020a62461bcd02815260206004820181905260248201527f4f6e6c79206b6579206f776e6572206f7220617070726f766564206f776e6572604482015290519081900360640190fd5b600160a060020a03861615156106b757600080fd5b600160a060020a0386166000908152606a6020526040902054935083151561073257606b80546001810182556000919091527fbd43cb8ece8cd1863bcd6082d65c5b0d25665b1ce17980f0da43c0ed545f98b401805473ffffffffffffffffffffffffffffffffffffffff1916600160a060020a0388161790555b42841161076157600160a060020a038088166000908152606a602052604080822054928916825290205561078e565b600160a060020a038088166000908152606a60205260408082205492891682529020429186019190910390555b600160a060020a038781166000908152606a602052604080822092891682529020600191820180546107d5939283019260029082161561010002600019019091160461135b565b50600160a060020a038088166000818152606a602090815260409182902042905581518981529151938a16937fddf252ad1be2c89b69c2b068fc378daa952ba7f163c4a11628f55a4df523b3ef9281900390910190a350505050505050565b60008061083f610aab565b151561084a57600080fd5b30319150600082116108a6576040805160e560020a62461bcd02815260206004820152601060248201527f4e6f7420656e6f7567682066756e647300000000000000000000000000000000604482015290519081900360640190fd5b6108ae610a9c565b604051909150600160a060020a0382169083156108fc029084906000818181858888f193505050501580156108e7573d6000803e3d6000fd5b505050565b606b545b90565b6108e783600084848080601f01602080910402602001604051908101604052809392919081815260200183838082843750610ef0945050505050565b600160a060020a0381166000908152606a6020526040812080548391908310610990576040805160e560020a62461bcd02815260206004820152600b6024820152600080516020611465833981519152604482015290519081900360640190fd5b509192915050565b600160a060020a0381166000908152606a60205260408120805483919083106109f9576040805160e560020a62461bcd02815260206004820152600b6024820152600080516020611465833981519152604482015290519081900360640190fd5b600160a060020a0384166000908152606a602052604081205411610a1e576000610a21565b60015b60ff16949350505050565b610a34610aab565b1515610a3f57600080fd5b603354604051600160a060020a03909116907ff8df31144d9c2f0f6b59d69b8b98abd5459d07f2742c4df920b25aae33c6482090600090a26033805473ffffffffffffffffffffffffffffffffffffffff19169055565b60695481565b603354600160a060020a031690565b603354600160a060020a0316331490565b610ac4610aab565b1515610acf57600080fd5b600160a060020a0381166000908152606a6020526040902080548291904210610b42576040805160e560020a62461bcd02815260206004820152601060248201527f4b6579206973206e6f742076616c696400000000000000000000000000000000604482015290519081900360640190fd5b5050600160a060020a03166000908152606a60205260409020429055565b600160a060020a0381166000908152606a6020526040812080548391908310610bc1576040805160e560020a62461bcd02815260206004820152600b6024820152600080516020611465833981519152604482015290519081900360640190fd5b505050600160a060020a03166000908152606a602052604090205490565b60008054610100900460ff1680610bf95750610bf96112d3565b80610c07575060005460ff16155b1515610c83576040805160e560020a62461bcd02815260206004820152602e60248201527f436f6e747261637420696e7374616e63652068617320616c726561647920626560448201527f656e20696e697469616c697a6564000000000000000000000000000000000000606482015290519081900360840190fd5b50600080546033805473ffffffffffffffffffffffffffffffffffffffff1916600160a060020a03949094169390931790925561ff001980831661010090811760ff19166001179091169281900460ff16151502919091179055565b600160a060020a0381166000908152606a60205260408120805460609284929111610d42576040805160e560020a62461bcd02815260206004820152600b6024820152600080516020611465833981519152604482015290519081900360640190fd5b600160a060020a0384166000908152606a6020908152604091829020600190810180548451600293821615610100026000190190911692909204601f810184900484028301840190945283825290929091830182828015610de45780601f10610db957610100808354040283529160200191610de4565b820191906000526020600020905b815481529060010190602001808311610dc757829003601f168201915b505050505092505050919050565b600160a060020a0383166000908152606a6020526040902080548491904210610e65576040805160e560020a62461bcd02815260206004820152601060248201527f4b6579206973206e6f742076616c696400000000000000000000000000000000604482015290519081900360640190fd5b610ea0868686868080601f01602080910402602001604051908101604052809392919081815260200183838082843750610ef0945050505050565b505050505050565b610eb0610aab565b1515610ebb57600080fd5b610ec4816112dd565b50565b600160a060020a038082166000908152606c602052604081205490911680151561046957600080fd5b600080600080600080606b80549050606954111515610f7f576040805160e560020a62461bcd02815260206004820152602360248201527f4d6178696d756d206e756d626572206f66206b65797320616c7265616479207360448201527f6f6c640000000000000000000000000000000000000000000000000000000000606482015290519081900360840190fd5b600160a060020a0389161515610f9457600080fd5b606654606854604080517f0cb175e3000000000000000000000000000000000000000000000000000000008152600160a060020a038d81166004830152602482018490528251941699509195508892630cb175e39260448082019392918290030181600087803b15801561100757600080fd5b505af115801561101b573d6000803e3d6000fd5b505050506040513d604081101561103157600080fd5b5080516020909101519095509350829150818511156110535760009150611059565b84830391505b348211156110b1576040805160e560020a62461bcd02815260206004820152601260248201527f496e73756666696369656e742066756e64730000000000000000000000000000604482015290519081900360640190fd5b50600160a060020a0388166000908152606a60205260409020544281101561114657606b8054600181019091557fbd43cb8ece8cd1863bcd6082d65c5b0d25665b1ce17980f0da43c0ed545f98b401805473ffffffffffffffffffffffffffffffffffffffff1916600160a060020a038b169081179091556067546000918252606a6020526040909120429091019055611167565b606754600160a060020a038a166000908152606a6020526040902090820190555b600160a060020a0389166000908152606a602090815260409091208851611196926001909201918a01906113dc565b50600085111561120a5785600160a060020a0316633652466386866040518363ffffffff1660e060020a0281526004018083815260200182815260200192505050600060405180830381600087803b1580156111f157600080fd5b505af1158015611205573d6000803e3d6000fd5b505050505b85600160a060020a031663939d9f1f838a6040518363ffffffff1660e060020a0281526004018083815260200182600160a060020a0316600160a060020a0316815260200192505050600060405180830381600087803b15801561126d57600080fd5b505af1158015611281573d6000803e3d6000fd5b505060408051600160a060020a038d168082529151919350600092507fddf252ad1be2c89b69c2b068fc378daa952ba7f163c4a11628f55a4df523b3ef919081900360200190a3505050505050505050565b303b8015905b5090565b600160a060020a03811615156112f257600080fd5b603354604051600160a060020a038084169216907f8be0079c531659141344cd1fd0a4f28419497f9722a3daafe3b4186f6b6457e090600090a36033805473ffffffffffffffffffffffffffffffffffffffff1916600160a060020a0392909216919091179055565b828054600181600116156101000203166002900490600052602060002090601f016020900481019282601f1061139457805485556113d0565b828001600101855582156113d057600052602060002091601f016020900482015b828111156113d05782548255916001019190600101906113b5565b506112d992915061144a565b828054600181600116156101000203166002900490600052602060002090601f016020900481019282601f1061141d57805160ff19168380011785556113d0565b828001600101855582156113d0579182015b828111156113d057825182559160200191906001019061142f565b6108f091905b808211156112d9576000815560010161145056004e6f2073756368206b6579000000000000000000000000000000000000000000a165627a7a723058201ed8a1970b25357f4d3100de58fc1641950a2c1d2839ed195671771f92d524ac0029a165627a7a723058204bd509951820ee9661d89424d651ce4c240a9fb4e03824bd8b4dcd9db23315150029",
  "source": "pragma solidity 0.4.24;\n\n/**\n * @title Example upgrade of the Unlock contract\n * @author Julien Genestoux (unlock-protocol.com)\n * @author HardlyDifficult\n *\n * This inherits from the previous version, adds data and modifies logic.\n */\n\nimport \"./Unlock.sol\";\n\n\ncontract UnlockTestV2 is Unlock {\n\n  // Example new data (which must come after the original data)\n  bool internal initializedV2;\n  uint public exampleData;\n\n  // Adding a second initialize for the new data as 'initialized' is already true when v2 is deployed.\n  function initializeV2()\n    public\n  {\n    require(!initializedV2);\n    exampleData = 42;\n    initializedV2 = true;\n  }\n\n  function computeAvailableDiscountFor(\n    address _purchaser, // solhint-disable-line no-unused-vars\n    uint _keyPrice // solhint-disable-line no-unused-vars\n  )\n    public\n    view\n    returns (uint discount, uint tokens)\n  {\n    // an example modification\n    return (42, 42);\n  }\n\n  // an example new method\n  function testNewMethod()\n    public\n    view\n    returns (uint sum)\n  {\n    return grossNetworkProduct + totalDiscountGranted + exampleData;\n  }\n\n}\n",
  "sourcePath": "/Users/julien/repos/unlock/smart-contracts/contracts/UnlockTestV2.sol",
  "compiler": {
    "name": "solc",
    "version": "0.4.24+commit.e67f0147.Emscripten.clang"
  },
  "schemaVersion": "2.0.1",
  "updatedAt": "2018-12-17T20:32:21.377Z"
}