{
  "_format": "hh-sol-artifact-1",
  "contractName": "Airdrops",
  "sourceName": "contracts/Airdrops.flatten.sol",
  "abi": [
    {
      "inputs": [
        {
          "internalType": "address",
          "name": "_token",
          "type": "address"
        },
        {
          "internalType": "address",
          "name": "_chainalysisOracle",
          "type": "address"
        }
      ],
      "stateMutability": "nonpayable",
      "type": "constructor"
    },
    {
      "inputs": [
        {
          "internalType": "bytes32",
          "name": "campaignHash",
          "type": "bytes32"
        },
        {
          "internalType": "address",
          "name": "recipient",
          "type": "address"
        },
        {
          "internalType": "uint256",
          "name": "amount",
          "type": "uint256"
        }
      ],
      "name": "AlreadyClaimed",
      "type": "error"
    },
    {
      "inputs": [],
      "name": "ECDSAInvalidSignature",
      "type": "error"
    },
    {
      "inputs": [
        {
          "internalType": "uint256",
          "name": "length",
          "type": "uint256"
        }
      ],
      "name": "ECDSAInvalidSignatureLength",
      "type": "error"
    },
    {
      "inputs": [
        {
          "internalType": "bytes32",
          "name": "s",
          "type": "bytes32"
        }
      ],
      "name": "ECDSAInvalidSignatureS",
      "type": "error"
    },
    {
      "inputs": [
        {
          "internalType": "bytes32",
          "name": "campaignHash",
          "type": "bytes32"
        },
        {
          "internalType": "address",
          "name": "recipient",
          "type": "address"
        },
        {
          "internalType": "uint256",
          "name": "amount",
          "type": "uint256"
        },
        {
          "internalType": "bytes32[]",
          "name": "proof",
          "type": "bytes32[]"
        }
      ],
      "name": "InvalidProof",
      "type": "error"
    },
    {
      "inputs": [],
      "name": "InvalidShortString",
      "type": "error"
    },
    {
      "inputs": [
        {
          "internalType": "bytes32",
          "name": "campaignHash",
          "type": "bytes32"
        }
      ],
      "name": "MissingCampaign",
      "type": "error"
    },
    {
      "inputs": [
        {
          "internalType": "address",
          "name": "owner",
          "type": "address"
        }
      ],
      "name": "OwnableInvalidOwner",
      "type": "error"
    },
    {
      "inputs": [
        {
          "internalType": "address",
          "name": "account",
          "type": "address"
        }
      ],
      "name": "OwnableUnauthorizedAccount",
      "type": "error"
    },
    {
      "inputs": [
        {
          "internalType": "string",
          "name": "str",
          "type": "string"
        }
      ],
      "name": "StringTooLong",
      "type": "error"
    },
    {
      "inputs": [
        {
          "internalType": "address",
          "name": "recipient",
          "type": "address"
        }
      ],
      "name": "UserBlocked",
      "type": "error"
    },
    {
      "inputs": [
        {
          "internalType": "bytes32",
          "name": "campaignHash",
          "type": "bytes32"
        },
        {
          "internalType": "address",
          "name": "expected",
          "type": "address"
        }
      ],
      "name": "WrongSigner",
      "type": "error"
    },
    {
      "anonymous": false,
      "inputs": [
        {
          "indexed": true,
          "internalType": "address",
          "name": "recipient",
          "type": "address"
        }
      ],
      "name": "AddedToBlockList",
      "type": "event"
    },
    {
      "anonymous": false,
      "inputs": [
        {
          "indexed": true,
          "internalType": "bytes32",
          "name": "campaign",
          "type": "bytes32"
        },
        {
          "indexed": false,
          "internalType": "bytes32",
          "name": "merkleRoot",
          "type": "bytes32"
        }
      ],
      "name": "CampaignSet",
      "type": "event"
    },
    {
      "anonymous": false,
      "inputs": [
        {
          "indexed": true,
          "internalType": "address",
          "name": "chainalysisOracle",
          "type": "address"
        }
      ],
      "name": "ChainalysisOracleSet",
      "type": "event"
    },
    {
      "anonymous": false,
      "inputs": [],
      "name": "EIP712DomainChanged",
      "type": "event"
    },
    {
      "anonymous": false,
      "inputs": [
        {
          "indexed": true,
          "internalType": "address",
          "name": "previousOwner",
          "type": "address"
        },
        {
          "indexed": true,
          "internalType": "address",
          "name": "newOwner",
          "type": "address"
        }
      ],
      "name": "OwnershipTransferred",
      "type": "event"
    },
    {
      "anonymous": false,
      "inputs": [
        {
          "indexed": true,
          "internalType": "address",
          "name": "recipient",
          "type": "address"
        }
      ],
      "name": "RemovedFromBlockList",
      "type": "event"
    },
    {
      "anonymous": false,
      "inputs": [
        {
          "indexed": true,
          "internalType": "bytes32",
          "name": "campaign",
          "type": "bytes32"
        },
        {
          "indexed": true,
          "internalType": "address",
          "name": "recipient",
          "type": "address"
        },
        {
          "indexed": false,
          "internalType": "uint256",
          "name": "amount",
          "type": "uint256"
        }
      ],
      "name": "TokensClaimed",
      "type": "event"
    },
    {
      "inputs": [],
      "name": "EIP712Name",
      "outputs": [
        {
          "internalType": "string",
          "name": "",
          "type": "string"
        }
      ],
      "stateMutability": "view",
      "type": "function"
    },
    {
      "inputs": [],
      "name": "EIP712Version",
      "outputs": [
        {
          "internalType": "string",
          "name": "",
          "type": "string"
        }
      ],
      "stateMutability": "view",
      "type": "function"
    },
    {
      "inputs": [
        {
          "internalType": "address",
          "name": "user",
          "type": "address"
        }
      ],
      "name": "addToBlocklist",
      "outputs": [],
      "stateMutability": "nonpayable",
      "type": "function"
    },
    {
      "inputs": [
        {
          "internalType": "address",
          "name": "",
          "type": "address"
        }
      ],
      "name": "blocklist",
      "outputs": [
        {
          "internalType": "bool",
          "name": "",
          "type": "bool"
        }
      ],
      "stateMutability": "view",
      "type": "function"
    },
    {
      "inputs": [
        {
          "internalType": "bytes32",
          "name": "",
          "type": "bytes32"
        }
      ],
      "name": "campaigns",
      "outputs": [
        {
          "internalType": "string",
          "name": "name",
          "type": "string"
        },
        {
          "internalType": "bytes32",
          "name": "merkleRoot",
          "type": "bytes32"
        }
      ],
      "stateMutability": "view",
      "type": "function"
    },
    {
      "inputs": [],
      "name": "chainalysisOracle",
      "outputs": [
        {
          "internalType": "address",
          "name": "",
          "type": "address"
        }
      ],
      "stateMutability": "view",
      "type": "function"
    },
    {
      "inputs": [
        {
          "internalType": "string",
          "name": "campaignName",
          "type": "string"
        },
        {
          "internalType": "uint256",
          "name": "timestamp",
          "type": "uint256"
        },
        {
          "internalType": "address",
          "name": "recipient",
          "type": "address"
        },
        {
          "internalType": "uint256",
          "name": "amount",
          "type": "uint256"
        },
        {
          "internalType": "bytes32[]",
          "name": "proof",
          "type": "bytes32[]"
        },
        {
          "internalType": "bytes",
          "name": "tosSignature",
          "type": "bytes"
        }
      ],
      "name": "claim",
      "outputs": [],
      "stateMutability": "nonpayable",
      "type": "function"
    },
    {
      "inputs": [
        {
          "internalType": "bytes32",
          "name": "",
          "type": "bytes32"
        },
        {
          "internalType": "bytes32",
          "name": "",
          "type": "bytes32"
        }
      ],
      "name": "claimedLeafs",
      "outputs": [
        {
          "internalType": "uint256",
          "name": "",
          "type": "uint256"
        }
      ],
      "stateMutability": "view",
      "type": "function"
    },
    {
      "inputs": [],
      "name": "eip712Domain",
      "outputs": [
        {
          "internalType": "bytes1",
          "name": "fields",
          "type": "bytes1"
        },
        {
          "internalType": "string",
          "name": "name",
          "type": "string"
        },
        {
          "internalType": "string",
          "name": "version",
          "type": "string"
        },
        {
          "internalType": "uint256",
          "name": "chainId",
          "type": "uint256"
        },
        {
          "internalType": "address",
          "name": "verifyingContract",
          "type": "address"
        },
        {
          "internalType": "bytes32",
          "name": "salt",
          "type": "bytes32"
        },
        {
          "internalType": "uint256[]",
          "name": "extensions",
          "type": "uint256[]"
        }
      ],
      "stateMutability": "view",
      "type": "function"
    },
    {
      "inputs": [
        {
          "internalType": "address",
          "name": "user",
          "type": "address"
        }
      ],
      "name": "isBlocked",
      "outputs": [
        {
          "internalType": "bool",
          "name": "",
          "type": "bool"
        }
      ],
      "stateMutability": "view",
      "type": "function"
    },
    {
      "inputs": [],
      "name": "owner",
      "outputs": [
        {
          "internalType": "address",
          "name": "",
          "type": "address"
        }
      ],
      "stateMutability": "view",
      "type": "function"
    },
    {
      "inputs": [
        {
          "internalType": "address",
          "name": "user",
          "type": "address"
        }
      ],
      "name": "removeFromBlocklist",
      "outputs": [],
      "stateMutability": "nonpayable",
      "type": "function"
    },
    {
      "inputs": [],
      "name": "renounceOwnership",
      "outputs": [],
      "stateMutability": "nonpayable",
      "type": "function"
    },
    {
      "inputs": [
        {
          "internalType": "address",
          "name": "_chainalysisOracle",
          "type": "address"
        }
      ],
      "name": "setChainalysisOracle",
      "outputs": [],
      "stateMutability": "nonpayable",
      "type": "function"
    },
    {
      "inputs": [
        {
          "internalType": "string",
          "name": "campaignName",
          "type": "string"
        },
        {
          "internalType": "bytes32",
          "name": "root",
          "type": "bytes32"
        }
      ],
      "name": "setMerkleRootForCampaign",
      "outputs": [],
      "stateMutability": "nonpayable",
      "type": "function"
    },
    {
      "inputs": [],
      "name": "token",
      "outputs": [
        {
          "internalType": "contract IERC20",
          "name": "",
          "type": "address"
        }
      ],
      "stateMutability": "view",
      "type": "function"
    },
    {
      "inputs": [
        {
          "internalType": "address",
          "name": "newOwner",
          "type": "address"
        }
      ],
      "name": "transferOwnership",
      "outputs": [],
      "stateMutability": "nonpayable",
      "type": "function"
    },
    {
      "inputs": [
        {
          "internalType": "address",
          "name": "signer",
          "type": "address"
        },
        {
          "internalType": "string",
          "name": "campaignName",
          "type": "string"
        },
        {
          "internalType": "uint256",
          "name": "timestamp",
          "type": "uint256"
        },
        {
          "internalType": "bytes",
          "name": "signature",
          "type": "bytes"
        }
      ],
      "name": "verifySignature",
      "outputs": [
        {
          "internalType": "bool",
          "name": "",
          "type": "bool"
        }
      ],
      "stateMutability": "view",
      "type": "function"
    }
  ],
  "bytecode": "0x61018060405234801562000011575f80fd5b5060405162001b6f38038062001b6f8339810160408190526200003491620002f1565b604080518082018252601881527f556e6c6f636b2050726f746f636f6c2041697264726f70730000000000000000602080830191909152825180840190935260018352603160f81b90830152903380620000a857604051631e4fbdf760e01b81525f60048201526024015b60405180910390fd5b620000b38162000189565b50620000c1826001620001d8565b61012052620000d2816002620001d8565b61014052815160208084019190912060e052815190820120610100524660a0526200015f60e05161010051604080517f8b73c3c69bb8fe3d512ecc4cf759cc79239f7b179b0ffacaa9a75d522b39400f60208201529081019290925260608201524660808201523060a08201525f9060c00160405160208183030381529060405280519060200120905090565b60805250503060c0526001600160a01b03821661016052620001818162000210565b505062000500565b5f80546001600160a01b038381166001600160a01b0319831681178455604051919092169283917f8be0079c531659141344cd1fd0a4f28419497f9722a3daafe3b4186f6b6457e09190a35050565b5f602083511015620001f757620001ef8362000263565b90506200020a565b81620002048482620003c7565b5060ff90505b92915050565b6200021a620002a5565b600680546001600160a01b0319166001600160a01b0383169081179091556040517f945608d9c0482277a161758f06cc06330d471d606d6bf4f5eb2c2a94e97cc523905f90a250565b5f80829050601f8151111562000290578260405163305a27a960e01b81526004016200009f91906200048f565b80516200029d82620004dc565b179392505050565b5f546001600160a01b03163314620002d35760405163118cdaa760e01b81523360048201526024016200009f565b565b80516001600160a01b0381168114620002ec575f80fd5b919050565b5f806040838503121562000303575f80fd5b6200030e83620002d5565b91506200031e60208401620002d5565b90509250929050565b634e487b7160e01b5f52604160045260245ffd5b600181811c908216806200035057607f821691505b6020821081036200036f57634e487b7160e01b5f52602260045260245ffd5b50919050565b601f821115620003c2575f81815260208120601f850160051c810160208610156200039d5750805b601f850160051c820191505b81811015620003be57828155600101620003a9565b5050505b505050565b81516001600160401b03811115620003e357620003e362000327565b620003fb81620003f484546200033b565b8462000375565b602080601f83116001811462000431575f8415620004195750858301515b5f19600386901b1c1916600185901b178555620003be565b5f85815260208120601f198616915b82811015620004615788860151825594840194600190910190840162000440565b50858210156200047f57878501515f19600388901b60f8161c191681555b5050505050600190811b01905550565b5f6020808352835180828501525f5b81811015620004bc578581018301518582016040015282016200049e565b505f604082860101526040601f19601f8301168501019250505092915050565b805160208083015191908110156200036f575f1960209190910360031b1b16919050565b60805160a05160c05160e0516101005161012051610140516101605161160c620005635f395f8181610296015261061c01525f610a3a01525f61099201525f610eb301525f610e8b01525f610de601525f610e1001525f610e3a015261160c5ff3fe608060405234801561000f575f80fd5b50600436106100f3575f3560e01c8063c83fae911161008f578063c83fae91146101d0578063cd3bffbb146101e3578063cea57fe81461021b578063d6b9850d1461022e578063ddcf23b014610236578063e5c7160b14610249578063f2fde38b1461026b578063fbac39511461027e578063fc0c546a14610291575f80fd5b80632fff5f0b146100f7578063592ca85014610115578063715018a61461012a57806377962f5e1461013257806384b0196e146101455780638da5cb5b146101605780639bd6fe77146101795780639eca2f1e1461018c578063a0e5db95146101ad575b5f80fd5b6100ff6102b8565b60405161010c919061102b565b60405180910390f35b610128610123366004611058565b6102c7565b005b610128610317565b6101286101403660046110b5565b61032a565b61014d6103ff565b60405161010c97969594939291906110fc565b5f546001600160a01b03165b60405161010c9190611190565b6101286101873660046111b8565b610441565b61019f61019a3660046112de565b6106f8565b60405161010c9291906112f5565b6101c06101bb366004611316565b610799565b604051901515815260200161010c565b6101286101de366004611058565b61080a565b61020d6101f1366004611399565b600460209081525f928352604080842090915290825290205481565b60405190815260200161010c565b60065461016c906001600160a01b031681565b6100ff61085d565b610128610244366004611058565b610867565b6101c0610257366004611058565b60056020525f908152604090205460ff1681565b610128610279366004611058565b6108b8565b6101c061028c366004611058565b6108f5565b61016c7f000000000000000000000000000000000000000000000000000000000000000081565b60606102c261098b565b905090565b6102cf6109b8565b6001600160a01b0381165f81815260056020526040808220805460ff19169055517fcdabb021e917f9d861cb523bbce1b91834fdd7e51a00cc016b762f94a322017a9190a250565b61031f6109b8565b6103285f6109e4565b565b6103326109b8565b5f83836040516020016103469291906113b9565b60408051601f1981840301815282825280516020918201206060601f880183900490920284018201835291830186815291935082919087908790819085018382808284375f9201829052509385525050506020918201859052838152600390915260409020815181906103b9908261144e565b5060209182015160019091015560405183815282917f89c3e26d7bcdf317ac634ea41b5a797210026588da523dfbc2f0cd7cb397f144910160405180910390a250505050565b5f6060805f805f606061041061098b565b610418610a33565b604080515f80825260208201909252600f60f81b9b939a50919850469750309650945092509050565b5f88886040516020016104559291906113b9565b604051602081830303815290604052805190602001209050610476866108f5565b1561049f578560405163ca86d8c960e01b81526004016104969190611190565b60405180910390fd5b5f81815260036020526040902060018101546104d15760405163a855b33b60e01b815260048101839052602401610496565b6104df878b8b8b8888610799565b61050e57604051630fa3cb9d60e01b8152600481018390526001600160a01b0388166024820152604401610496565b604080516001600160a01b03891660208201529081018790525f9060600160408051601f19818403018152828252805160209182012090830152016040516020818303038152906040528051906020012090505f61057187846001015484610a60565b90508061059957838989896040516335d6488d60e11b81526004016104969493929190611509565b5f848152600460209081526040808320858452909152902054156105e957604051637cf5c21d60e11b8152600481018590526001600160a01b038a16602482015260448101899052606401610496565b5f84815260046020818152604080842086855290915291829020429055905163a9059cbb60e01b81526001600160a01b037f0000000000000000000000000000000000000000000000000000000000000000169163a9059cbb91610665918d918d91016001600160a01b03929092168252602082015260400190565b6020604051808303815f875af1158015610681573d5f803e3d5ffd5b505050506040513d601f19601f820116820180604052508101906106a5919061156b565b50886001600160a01b0316847fb6a3782a350d2b8520b7fe13e8e97b61f22902243ad29c4c3a9a8f714935718c8a6040516106e291815260200190565b60405180910390a3505050505050505050505050565b60036020525f9081526040902080548190610712906113c8565b80601f016020809104026020016040519081016040528092919081815260200182805461073e906113c8565b80156107895780601f1061076057610100808354040283529160200191610789565b820191905f5260205f20905b81548152906001019060200180831161076c57829003601f168201915b5050505050908060010154905082565b5f806107a788888888610a75565b9050876001600160a01b03166107f485858080601f0160208091040260200160405190810160405280939291908181526020018383808284375f920191909152508693925050610b209050565b6001600160a01b03161498975050505050505050565b6108126109b8565b6001600160a01b0381165f81815260056020526040808220805460ff19166001179055517fe195c9fe4a65c54ea36d99055c62d29b7eb7ae93c2302230768051410763aeea9190a250565b60606102c2610a33565b61086f6109b8565b600680546001600160a01b0319166001600160a01b0383169081179091556040517f945608d9c0482277a161758f06cc06330d471d606d6bf4f5eb2c2a94e97cc523905f90a250565b6108c06109b8565b6001600160a01b0381166108e9575f604051631e4fbdf760e01b81526004016104969190611190565b6108f2816109e4565b50565b6001600160a01b0381165f9081526005602052604081205460ff1680610985575060065460405163df592f7d60e01b81526001600160a01b039091169063df592f7d90610946908590600401611190565b602060405180830381865afa158015610961573d5f803e3d5ffd5b505050506040513d601f19601f82011682018060405250810190610985919061156b565b92915050565b60606102c27f00000000000000000000000000000000000000000000000000000000000000006001610b48565b5f546001600160a01b03163314610328573360405163118cdaa760e01b81526004016104969190611190565b5f80546001600160a01b038381166001600160a01b0319831681178455604051919092169283917f8be0079c531659141344cd1fd0a4f28419497f9722a3daafe3b4186f6b6457e09190a35050565b60606102c27f00000000000000000000000000000000000000000000000000000000000000006002610b48565b5f82610a6c8584610bf1565b14949350505050565b5f807f7b90df25d76042650a088e472aa3dc43eddd25ac84381bbee2fdfc9735868cb8868686604051602001610aac9291906113b9565b6040516020818303038152906040528051906020012085604051602001610af594939291909384526001600160a01b039290921660208401526040830152606082015260800190565b604051602081830303815290604052805190602001209050610b1681610c3d565b9695505050505050565b5f805f80610b2e8686610c69565b925092509250610b3e8282610cb2565b5090949350505050565b606060ff8314610b6257610b5b83610d6e565b9050610985565b818054610b6e906113c8565b80601f0160208091040260200160405190810160405280929190818152602001828054610b9a906113c8565b8015610be55780601f10610bbc57610100808354040283529160200191610be5565b820191905f5260205f20905b815481529060010190602001808311610bc857829003601f168201915b50505050509050610985565b5f81815b8451811015610c3557610c2182868381518110610c1457610c1461158a565b6020026020010151610dab565b915080610c2d8161159e565b915050610bf5565b509392505050565b5f610985610c49610dda565b8360405161190160f01b8152600281019290925260228201526042902090565b5f805f8351604103610ca0576020840151604085015160608601515f1a610c9288828585610f03565b955095509550505050610cab565b505081515f91506002905b9250925092565b5f826003811115610cc557610cc56115c2565b03610cce575050565b6001826003811115610ce257610ce26115c2565b03610d005760405163f645eedf60e01b815260040160405180910390fd5b6002826003811115610d1457610d146115c2565b03610d355760405163fce698f760e01b815260048101829052602401610496565b6003826003811115610d4957610d496115c2565b03610d6a576040516335e2f38360e21b815260048101829052602401610496565b5050565b60605f610d7a83610fc1565b6040805160208082528183019092529192505f91906020820181803683375050509182525060208101929092525090565b5f818310610dc5575f828152602084905260409020610dd3565b5f8381526020839052604090205b9392505050565b5f306001600160a01b037f000000000000000000000000000000000000000000000000000000000000000016148015610e3257507f000000000000000000000000000000000000000000000000000000000000000046145b15610e5c57507f000000000000000000000000000000000000000000000000000000000000000090565b6102c2604080517f8b73c3c69bb8fe3d512ecc4cf759cc79239f7b179b0ffacaa9a75d522b39400f60208201527f0000000000000000000000000000000000000000000000000000000000000000918101919091527f000000000000000000000000000000000000000000000000000000000000000060608201524660808201523060a08201525f9060c00160405160208183030381529060405280519060200120905090565b5f80806fa2a8918ca85bafe22016d0b997e4df60600160ff1b03841115610f3257505f91506003905082610fb7565b604080515f808252602082018084528a905260ff891692820192909252606081018790526080810186905260019060a0016020604051602081039080840390855afa158015610f83573d5f803e3d5ffd5b5050604051601f1901519150506001600160a01b038116610fae57505f925060019150829050610fb7565b92505f91508190505b9450945094915050565b5f60ff8216601f81111561098557604051632cd44ac360e21b815260040160405180910390fd5b5f81518084525f5b8181101561100c57602081850181015186830182015201610ff0565b505f602082860101526020601f19601f83011685010191505092915050565b602081525f610dd36020830184610fe8565b80356001600160a01b0381168114611053575f80fd5b919050565b5f60208284031215611068575f80fd5b610dd38261103d565b5f8083601f840112611081575f80fd5b5081356001600160401b03811115611097575f80fd5b6020830191508360208285010111156110ae575f80fd5b9250929050565b5f805f604084860312156110c7575f80fd5b83356001600160401b038111156110dc575f80fd5b6110e886828701611071565b909790965060209590950135949350505050565b60ff60f81b881681525f602060e08184015261111b60e084018a610fe8565b838103604085015261112d818a610fe8565b606085018990526001600160a01b038816608086015260a0850187905284810360c086015285518082528387019250908301905f5b8181101561117e57835183529284019291840191600101611162565b50909c9b505050505050505050505050565b6001600160a01b0391909116815260200190565b634e487b7160e01b5f52604160045260245ffd5b5f805f805f805f8060c0898b0312156111cf575f80fd5b6001600160401b03808a3511156111e4575f80fd5b6111f18b8b358c01611071565b909950975060208a0135965061120960408b0161103d565b955060608a0135945060808a013581811115611223575f80fd5b8a01601f81018c13611233575f80fd5b803582811115611245576112456111a4565b8060051b604051601f19603f8301168101818110868211171561126a5761126a6111a4565b60405291825260208184018101929081018f841115611287575f80fd5b6020850194505b838510156112a657843581526020948501940161128e565b50965050505060a08a0135818111156112bd575f80fd5b6112c98c828d01611071565b9a9d999c50979a509598949793969550505050565b5f602082840312156112ee575f80fd5b5035919050565b604081525f6113076040830185610fe8565b90508260208301529392505050565b5f805f805f806080878903121561132b575f80fd5b6113348761103d565b955060208701356001600160401b038082111561134f575f80fd5b61135b8a838b01611071565b909750955060408901359450606089013591508082111561137a575f80fd5b5061138789828a01611071565b979a9699509497509295939492505050565b5f80604083850312156113aa575f80fd5b50508035926020909101359150565b818382375f9101908152919050565b600181811c908216806113dc57607f821691505b6020821081036113fa57634e487b7160e01b5f52602260045260245ffd5b50919050565b601f821115611449575f81815260208120601f850160051c810160208610156114265750805b601f850160051c820191505b8181101561144557828155600101611432565b5050505b505050565b81516001600160401b03811115611467576114676111a4565b61147b8161147584546113c8565b84611400565b602080601f8311600181146114ae575f84156114975750858301515b5f19600386901b1c1916600185901b178555611445565b5f85815260208120601f198616915b828110156114dc578886015182559484019460019091019084016114bd565b50858210156114f957878501515f19600388901b60f8161c191681555b5050505050600190811b01905550565b5f60808201868352602060018060a01b038716818501528560408501526080606085015281855180845260a08601915082870193505f5b8181101561155c57845183529383019391830191600101611540565b50909998505050505050505050565b5f6020828403121561157b575f80fd5b81518015158114610dd3575f80fd5b634e487b7160e01b5f52603260045260245ffd5b5f600182016115bb57634e487b7160e01b5f52601160045260245ffd5b5060010190565b634e487b7160e01b5f52602160045260245ffdfea2646970667358221220c23faf1a74aa0551355acf8ed37259aec3101dfc6e2c9c7f0c5fbe27a900919164736f6c63430008150033",
  "linkReferences": {},
  "deployedLinkReferences": {}
}